
0012.1_TIM2_PWM2_LED.elf:     file format elf32-littlearm

Sections:
Idx Name          Size      VMA       LMA       File off  Algn
  0 .isr_vector   00000188  08000000  08000000  00010000  2**0
                  CONTENTS, ALLOC, LOAD, READONLY, DATA
  1 .text         000030ac  08000188  08000188  00010188  2**2
                  CONTENTS, ALLOC, LOAD, READONLY, CODE
  2 .rodata       00000018  08003234  08003234  00013234  2**2
                  CONTENTS, ALLOC, LOAD, READONLY, DATA
  3 .ARM.extab    00000000  0800324c  0800324c  0002000c  2**0
                  CONTENTS
  4 .ARM          00000008  0800324c  0800324c  0001324c  2**2
                  CONTENTS, ALLOC, LOAD, READONLY, DATA
  5 .preinit_array 00000000  08003254  08003254  0002000c  2**0
                  CONTENTS, ALLOC, LOAD, DATA
  6 .init_array   00000004  08003254  08003254  00013254  2**2
                  CONTENTS, ALLOC, LOAD, DATA
  7 .fini_array   00000004  08003258  08003258  00013258  2**2
                  CONTENTS, ALLOC, LOAD, DATA
  8 .data         0000000c  20000000  0800325c  00020000  2**2
                  CONTENTS, ALLOC, LOAD, DATA
  9 .bss          000000a4  2000000c  08003268  0002000c  2**2
                  ALLOC
 10 ._user_heap_stack 00000600  200000b0  08003268  000200b0  2**0
                  ALLOC
 11 .ARM.attributes 00000030  00000000  00000000  0002000c  2**0
                  CONTENTS, READONLY
 12 .debug_info   0000a596  00000000  00000000  0002003c  2**0
                  CONTENTS, READONLY, DEBUGGING
 13 .debug_abbrev 000017ed  00000000  00000000  0002a5d2  2**0
                  CONTENTS, READONLY, DEBUGGING
 14 .debug_aranges 00000b90  00000000  00000000  0002bdc0  2**3
                  CONTENTS, READONLY, DEBUGGING
 15 .debug_ranges 00000ac8  00000000  00000000  0002c950  2**3
                  CONTENTS, READONLY, DEBUGGING
 16 .debug_macro  0001ff55  00000000  00000000  0002d418  2**0
                  CONTENTS, READONLY, DEBUGGING
 17 .debug_line   00008183  00000000  00000000  0004d36d  2**0
                  CONTENTS, READONLY, DEBUGGING
 18 .debug_str    000c5489  00000000  00000000  000554f0  2**0
                  CONTENTS, READONLY, DEBUGGING
 19 .comment      0000007b  00000000  00000000  0011a979  2**0
                  CONTENTS, READONLY
 20 .debug_frame  00003094  00000000  00000000  0011a9f4  2**2
                  CONTENTS, READONLY, DEBUGGING

Disassembly of section .text:

08000188 <__do_global_dtors_aux>:
 8000188:	b510      	push	{r4, lr}
 800018a:	4c05      	ldr	r4, [pc, #20]	; (80001a0 <__do_global_dtors_aux+0x18>)
 800018c:	7823      	ldrb	r3, [r4, #0]
 800018e:	b933      	cbnz	r3, 800019e <__do_global_dtors_aux+0x16>
 8000190:	4b04      	ldr	r3, [pc, #16]	; (80001a4 <__do_global_dtors_aux+0x1c>)
 8000192:	b113      	cbz	r3, 800019a <__do_global_dtors_aux+0x12>
 8000194:	4804      	ldr	r0, [pc, #16]	; (80001a8 <__do_global_dtors_aux+0x20>)
 8000196:	f3af 8000 	nop.w
 800019a:	2301      	movs	r3, #1
 800019c:	7023      	strb	r3, [r4, #0]
 800019e:	bd10      	pop	{r4, pc}
 80001a0:	2000000c 	.word	0x2000000c
 80001a4:	00000000 	.word	0x00000000
 80001a8:	0800321c 	.word	0x0800321c

080001ac <frame_dummy>:
 80001ac:	b508      	push	{r3, lr}
 80001ae:	4b03      	ldr	r3, [pc, #12]	; (80001bc <frame_dummy+0x10>)
 80001b0:	b11b      	cbz	r3, 80001ba <frame_dummy+0xe>
 80001b2:	4903      	ldr	r1, [pc, #12]	; (80001c0 <frame_dummy+0x14>)
 80001b4:	4803      	ldr	r0, [pc, #12]	; (80001c4 <frame_dummy+0x18>)
 80001b6:	f3af 8000 	nop.w
 80001ba:	bd08      	pop	{r3, pc}
 80001bc:	00000000 	.word	0x00000000
 80001c0:	20000010 	.word	0x20000010
 80001c4:	0800321c 	.word	0x0800321c

080001c8 <__aeabi_uldivmod>:
 80001c8:	b953      	cbnz	r3, 80001e0 <__aeabi_uldivmod+0x18>
 80001ca:	b94a      	cbnz	r2, 80001e0 <__aeabi_uldivmod+0x18>
 80001cc:	2900      	cmp	r1, #0
 80001ce:	bf08      	it	eq
 80001d0:	2800      	cmpeq	r0, #0
 80001d2:	bf1c      	itt	ne
 80001d4:	f04f 31ff 	movne.w	r1, #4294967295
 80001d8:	f04f 30ff 	movne.w	r0, #4294967295
 80001dc:	f000 b972 	b.w	80004c4 <__aeabi_idiv0>
 80001e0:	f1ad 0c08 	sub.w	ip, sp, #8
 80001e4:	e96d ce04 	strd	ip, lr, [sp, #-16]!
 80001e8:	f000 f806 	bl	80001f8 <__udivmoddi4>
 80001ec:	f8dd e004 	ldr.w	lr, [sp, #4]
 80001f0:	e9dd 2302 	ldrd	r2, r3, [sp, #8]
 80001f4:	b004      	add	sp, #16
 80001f6:	4770      	bx	lr

080001f8 <__udivmoddi4>:
 80001f8:	e92d 47f0 	stmdb	sp!, {r4, r5, r6, r7, r8, r9, sl, lr}
 80001fc:	9e08      	ldr	r6, [sp, #32]
 80001fe:	4604      	mov	r4, r0
 8000200:	4688      	mov	r8, r1
 8000202:	2b00      	cmp	r3, #0
 8000204:	d14b      	bne.n	800029e <__udivmoddi4+0xa6>
 8000206:	428a      	cmp	r2, r1
 8000208:	4615      	mov	r5, r2
 800020a:	d967      	bls.n	80002dc <__udivmoddi4+0xe4>
 800020c:	fab2 f282 	clz	r2, r2
 8000210:	b14a      	cbz	r2, 8000226 <__udivmoddi4+0x2e>
 8000212:	f1c2 0720 	rsb	r7, r2, #32
 8000216:	fa01 f302 	lsl.w	r3, r1, r2
 800021a:	fa20 f707 	lsr.w	r7, r0, r7
 800021e:	4095      	lsls	r5, r2
 8000220:	ea47 0803 	orr.w	r8, r7, r3
 8000224:	4094      	lsls	r4, r2
 8000226:	ea4f 4e15 	mov.w	lr, r5, lsr #16
 800022a:	0c23      	lsrs	r3, r4, #16
 800022c:	fbb8 f7fe 	udiv	r7, r8, lr
 8000230:	fa1f fc85 	uxth.w	ip, r5
 8000234:	fb0e 8817 	mls	r8, lr, r7, r8
 8000238:	ea43 4308 	orr.w	r3, r3, r8, lsl #16
 800023c:	fb07 f10c 	mul.w	r1, r7, ip
 8000240:	4299      	cmp	r1, r3
 8000242:	d909      	bls.n	8000258 <__udivmoddi4+0x60>
 8000244:	18eb      	adds	r3, r5, r3
 8000246:	f107 30ff 	add.w	r0, r7, #4294967295
 800024a:	f080 811b 	bcs.w	8000484 <__udivmoddi4+0x28c>
 800024e:	4299      	cmp	r1, r3
 8000250:	f240 8118 	bls.w	8000484 <__udivmoddi4+0x28c>
 8000254:	3f02      	subs	r7, #2
 8000256:	442b      	add	r3, r5
 8000258:	1a5b      	subs	r3, r3, r1
 800025a:	b2a4      	uxth	r4, r4
 800025c:	fbb3 f0fe 	udiv	r0, r3, lr
 8000260:	fb0e 3310 	mls	r3, lr, r0, r3
 8000264:	ea44 4403 	orr.w	r4, r4, r3, lsl #16
 8000268:	fb00 fc0c 	mul.w	ip, r0, ip
 800026c:	45a4      	cmp	ip, r4
 800026e:	d909      	bls.n	8000284 <__udivmoddi4+0x8c>
 8000270:	192c      	adds	r4, r5, r4
 8000272:	f100 33ff 	add.w	r3, r0, #4294967295
 8000276:	f080 8107 	bcs.w	8000488 <__udivmoddi4+0x290>
 800027a:	45a4      	cmp	ip, r4
 800027c:	f240 8104 	bls.w	8000488 <__udivmoddi4+0x290>
 8000280:	3802      	subs	r0, #2
 8000282:	442c      	add	r4, r5
 8000284:	ea40 4007 	orr.w	r0, r0, r7, lsl #16
 8000288:	eba4 040c 	sub.w	r4, r4, ip
 800028c:	2700      	movs	r7, #0
 800028e:	b11e      	cbz	r6, 8000298 <__udivmoddi4+0xa0>
 8000290:	40d4      	lsrs	r4, r2
 8000292:	2300      	movs	r3, #0
 8000294:	e9c6 4300 	strd	r4, r3, [r6]
 8000298:	4639      	mov	r1, r7
 800029a:	e8bd 87f0 	ldmia.w	sp!, {r4, r5, r6, r7, r8, r9, sl, pc}
 800029e:	428b      	cmp	r3, r1
 80002a0:	d909      	bls.n	80002b6 <__udivmoddi4+0xbe>
 80002a2:	2e00      	cmp	r6, #0
 80002a4:	f000 80eb 	beq.w	800047e <__udivmoddi4+0x286>
 80002a8:	2700      	movs	r7, #0
 80002aa:	e9c6 0100 	strd	r0, r1, [r6]
 80002ae:	4638      	mov	r0, r7
 80002b0:	4639      	mov	r1, r7
 80002b2:	e8bd 87f0 	ldmia.w	sp!, {r4, r5, r6, r7, r8, r9, sl, pc}
 80002b6:	fab3 f783 	clz	r7, r3
 80002ba:	2f00      	cmp	r7, #0
 80002bc:	d147      	bne.n	800034e <__udivmoddi4+0x156>
 80002be:	428b      	cmp	r3, r1
 80002c0:	d302      	bcc.n	80002c8 <__udivmoddi4+0xd0>
 80002c2:	4282      	cmp	r2, r0
 80002c4:	f200 80fa 	bhi.w	80004bc <__udivmoddi4+0x2c4>
 80002c8:	1a84      	subs	r4, r0, r2
 80002ca:	eb61 0303 	sbc.w	r3, r1, r3
 80002ce:	2001      	movs	r0, #1
 80002d0:	4698      	mov	r8, r3
 80002d2:	2e00      	cmp	r6, #0
 80002d4:	d0e0      	beq.n	8000298 <__udivmoddi4+0xa0>
 80002d6:	e9c6 4800 	strd	r4, r8, [r6]
 80002da:	e7dd      	b.n	8000298 <__udivmoddi4+0xa0>
 80002dc:	b902      	cbnz	r2, 80002e0 <__udivmoddi4+0xe8>
 80002de:	deff      	udf	#255	; 0xff
 80002e0:	fab2 f282 	clz	r2, r2
 80002e4:	2a00      	cmp	r2, #0
 80002e6:	f040 808f 	bne.w	8000408 <__udivmoddi4+0x210>
 80002ea:	1b49      	subs	r1, r1, r5
 80002ec:	ea4f 4e15 	mov.w	lr, r5, lsr #16
 80002f0:	fa1f f885 	uxth.w	r8, r5
 80002f4:	2701      	movs	r7, #1
 80002f6:	fbb1 fcfe 	udiv	ip, r1, lr
 80002fa:	0c23      	lsrs	r3, r4, #16
 80002fc:	fb0e 111c 	mls	r1, lr, ip, r1
 8000300:	ea43 4301 	orr.w	r3, r3, r1, lsl #16
 8000304:	fb08 f10c 	mul.w	r1, r8, ip
 8000308:	4299      	cmp	r1, r3
 800030a:	d907      	bls.n	800031c <__udivmoddi4+0x124>
 800030c:	18eb      	adds	r3, r5, r3
 800030e:	f10c 30ff 	add.w	r0, ip, #4294967295
 8000312:	d202      	bcs.n	800031a <__udivmoddi4+0x122>
 8000314:	4299      	cmp	r1, r3
 8000316:	f200 80cd 	bhi.w	80004b4 <__udivmoddi4+0x2bc>
 800031a:	4684      	mov	ip, r0
 800031c:	1a59      	subs	r1, r3, r1
 800031e:	b2a3      	uxth	r3, r4
 8000320:	fbb1 f0fe 	udiv	r0, r1, lr
 8000324:	fb0e 1410 	mls	r4, lr, r0, r1
 8000328:	ea43 4404 	orr.w	r4, r3, r4, lsl #16
 800032c:	fb08 f800 	mul.w	r8, r8, r0
 8000330:	45a0      	cmp	r8, r4
 8000332:	d907      	bls.n	8000344 <__udivmoddi4+0x14c>
 8000334:	192c      	adds	r4, r5, r4
 8000336:	f100 33ff 	add.w	r3, r0, #4294967295
 800033a:	d202      	bcs.n	8000342 <__udivmoddi4+0x14a>
 800033c:	45a0      	cmp	r8, r4
 800033e:	f200 80b6 	bhi.w	80004ae <__udivmoddi4+0x2b6>
 8000342:	4618      	mov	r0, r3
 8000344:	eba4 0408 	sub.w	r4, r4, r8
 8000348:	ea40 400c 	orr.w	r0, r0, ip, lsl #16
 800034c:	e79f      	b.n	800028e <__udivmoddi4+0x96>
 800034e:	f1c7 0c20 	rsb	ip, r7, #32
 8000352:	40bb      	lsls	r3, r7
 8000354:	fa22 fe0c 	lsr.w	lr, r2, ip
 8000358:	ea4e 0e03 	orr.w	lr, lr, r3
 800035c:	fa01 f407 	lsl.w	r4, r1, r7
 8000360:	fa20 f50c 	lsr.w	r5, r0, ip
 8000364:	fa21 f30c 	lsr.w	r3, r1, ip
 8000368:	ea4f 481e 	mov.w	r8, lr, lsr #16
 800036c:	4325      	orrs	r5, r4
 800036e:	fbb3 f9f8 	udiv	r9, r3, r8
 8000372:	0c2c      	lsrs	r4, r5, #16
 8000374:	fb08 3319 	mls	r3, r8, r9, r3
 8000378:	fa1f fa8e 	uxth.w	sl, lr
 800037c:	ea44 4303 	orr.w	r3, r4, r3, lsl #16
 8000380:	fb09 f40a 	mul.w	r4, r9, sl
 8000384:	429c      	cmp	r4, r3
 8000386:	fa02 f207 	lsl.w	r2, r2, r7
 800038a:	fa00 f107 	lsl.w	r1, r0, r7
 800038e:	d90b      	bls.n	80003a8 <__udivmoddi4+0x1b0>
 8000390:	eb1e 0303 	adds.w	r3, lr, r3
 8000394:	f109 30ff 	add.w	r0, r9, #4294967295
 8000398:	f080 8087 	bcs.w	80004aa <__udivmoddi4+0x2b2>
 800039c:	429c      	cmp	r4, r3
 800039e:	f240 8084 	bls.w	80004aa <__udivmoddi4+0x2b2>
 80003a2:	f1a9 0902 	sub.w	r9, r9, #2
 80003a6:	4473      	add	r3, lr
 80003a8:	1b1b      	subs	r3, r3, r4
 80003aa:	b2ad      	uxth	r5, r5
 80003ac:	fbb3 f0f8 	udiv	r0, r3, r8
 80003b0:	fb08 3310 	mls	r3, r8, r0, r3
 80003b4:	ea45 4403 	orr.w	r4, r5, r3, lsl #16
 80003b8:	fb00 fa0a 	mul.w	sl, r0, sl
 80003bc:	45a2      	cmp	sl, r4
 80003be:	d908      	bls.n	80003d2 <__udivmoddi4+0x1da>
 80003c0:	eb1e 0404 	adds.w	r4, lr, r4
 80003c4:	f100 33ff 	add.w	r3, r0, #4294967295
 80003c8:	d26b      	bcs.n	80004a2 <__udivmoddi4+0x2aa>
 80003ca:	45a2      	cmp	sl, r4
 80003cc:	d969      	bls.n	80004a2 <__udivmoddi4+0x2aa>
 80003ce:	3802      	subs	r0, #2
 80003d0:	4474      	add	r4, lr
 80003d2:	ea40 4009 	orr.w	r0, r0, r9, lsl #16
 80003d6:	fba0 8902 	umull	r8, r9, r0, r2
 80003da:	eba4 040a 	sub.w	r4, r4, sl
 80003de:	454c      	cmp	r4, r9
 80003e0:	46c2      	mov	sl, r8
 80003e2:	464b      	mov	r3, r9
 80003e4:	d354      	bcc.n	8000490 <__udivmoddi4+0x298>
 80003e6:	d051      	beq.n	800048c <__udivmoddi4+0x294>
 80003e8:	2e00      	cmp	r6, #0
 80003ea:	d069      	beq.n	80004c0 <__udivmoddi4+0x2c8>
 80003ec:	ebb1 050a 	subs.w	r5, r1, sl
 80003f0:	eb64 0403 	sbc.w	r4, r4, r3
 80003f4:	fa04 fc0c 	lsl.w	ip, r4, ip
 80003f8:	40fd      	lsrs	r5, r7
 80003fa:	40fc      	lsrs	r4, r7
 80003fc:	ea4c 0505 	orr.w	r5, ip, r5
 8000400:	e9c6 5400 	strd	r5, r4, [r6]
 8000404:	2700      	movs	r7, #0
 8000406:	e747      	b.n	8000298 <__udivmoddi4+0xa0>
 8000408:	f1c2 0320 	rsb	r3, r2, #32
 800040c:	fa20 f703 	lsr.w	r7, r0, r3
 8000410:	4095      	lsls	r5, r2
 8000412:	fa01 f002 	lsl.w	r0, r1, r2
 8000416:	fa21 f303 	lsr.w	r3, r1, r3
 800041a:	ea4f 4e15 	mov.w	lr, r5, lsr #16
 800041e:	4338      	orrs	r0, r7
 8000420:	0c01      	lsrs	r1, r0, #16
 8000422:	fbb3 f7fe 	udiv	r7, r3, lr
 8000426:	fa1f f885 	uxth.w	r8, r5
 800042a:	fb0e 3317 	mls	r3, lr, r7, r3
 800042e:	ea41 4103 	orr.w	r1, r1, r3, lsl #16
 8000432:	fb07 f308 	mul.w	r3, r7, r8
 8000436:	428b      	cmp	r3, r1
 8000438:	fa04 f402 	lsl.w	r4, r4, r2
 800043c:	d907      	bls.n	800044e <__udivmoddi4+0x256>
 800043e:	1869      	adds	r1, r5, r1
 8000440:	f107 3cff 	add.w	ip, r7, #4294967295
 8000444:	d22f      	bcs.n	80004a6 <__udivmoddi4+0x2ae>
 8000446:	428b      	cmp	r3, r1
 8000448:	d92d      	bls.n	80004a6 <__udivmoddi4+0x2ae>
 800044a:	3f02      	subs	r7, #2
 800044c:	4429      	add	r1, r5
 800044e:	1acb      	subs	r3, r1, r3
 8000450:	b281      	uxth	r1, r0
 8000452:	fbb3 f0fe 	udiv	r0, r3, lr
 8000456:	fb0e 3310 	mls	r3, lr, r0, r3
 800045a:	ea41 4103 	orr.w	r1, r1, r3, lsl #16
 800045e:	fb00 f308 	mul.w	r3, r0, r8
 8000462:	428b      	cmp	r3, r1
 8000464:	d907      	bls.n	8000476 <__udivmoddi4+0x27e>
 8000466:	1869      	adds	r1, r5, r1
 8000468:	f100 3cff 	add.w	ip, r0, #4294967295
 800046c:	d217      	bcs.n	800049e <__udivmoddi4+0x2a6>
 800046e:	428b      	cmp	r3, r1
 8000470:	d915      	bls.n	800049e <__udivmoddi4+0x2a6>
 8000472:	3802      	subs	r0, #2
 8000474:	4429      	add	r1, r5
 8000476:	1ac9      	subs	r1, r1, r3
 8000478:	ea40 4707 	orr.w	r7, r0, r7, lsl #16
 800047c:	e73b      	b.n	80002f6 <__udivmoddi4+0xfe>
 800047e:	4637      	mov	r7, r6
 8000480:	4630      	mov	r0, r6
 8000482:	e709      	b.n	8000298 <__udivmoddi4+0xa0>
 8000484:	4607      	mov	r7, r0
 8000486:	e6e7      	b.n	8000258 <__udivmoddi4+0x60>
 8000488:	4618      	mov	r0, r3
 800048a:	e6fb      	b.n	8000284 <__udivmoddi4+0x8c>
 800048c:	4541      	cmp	r1, r8
 800048e:	d2ab      	bcs.n	80003e8 <__udivmoddi4+0x1f0>
 8000490:	ebb8 0a02 	subs.w	sl, r8, r2
 8000494:	eb69 020e 	sbc.w	r2, r9, lr
 8000498:	3801      	subs	r0, #1
 800049a:	4613      	mov	r3, r2
 800049c:	e7a4      	b.n	80003e8 <__udivmoddi4+0x1f0>
 800049e:	4660      	mov	r0, ip
 80004a0:	e7e9      	b.n	8000476 <__udivmoddi4+0x27e>
 80004a2:	4618      	mov	r0, r3
 80004a4:	e795      	b.n	80003d2 <__udivmoddi4+0x1da>
 80004a6:	4667      	mov	r7, ip
 80004a8:	e7d1      	b.n	800044e <__udivmoddi4+0x256>
 80004aa:	4681      	mov	r9, r0
 80004ac:	e77c      	b.n	80003a8 <__udivmoddi4+0x1b0>
 80004ae:	3802      	subs	r0, #2
 80004b0:	442c      	add	r4, r5
 80004b2:	e747      	b.n	8000344 <__udivmoddi4+0x14c>
 80004b4:	f1ac 0c02 	sub.w	ip, ip, #2
 80004b8:	442b      	add	r3, r5
 80004ba:	e72f      	b.n	800031c <__udivmoddi4+0x124>
 80004bc:	4638      	mov	r0, r7
 80004be:	e708      	b.n	80002d2 <__udivmoddi4+0xda>
 80004c0:	4637      	mov	r7, r6
 80004c2:	e6e9      	b.n	8000298 <__udivmoddi4+0xa0>

080004c4 <__aeabi_idiv0>:
 80004c4:	4770      	bx	lr
 80004c6:	bf00      	nop

080004c8 <main>:
/**
  * @brief  The application entry point.
  * @retval int
  */
int main(void)
{
 80004c8:	b580      	push	{r7, lr}
 80004ca:	af00      	add	r7, sp, #0
  /* USER CODE END 1 */

  /* MCU Configuration--------------------------------------------------------*/

  /* Reset of all peripherals, Initializes the Flash interface and the Systick. */
  HAL_Init();
 80004cc:	f000 fb22 	bl	8000b14 <HAL_Init>
  /* USER CODE BEGIN Init */

  /* USER CODE END Init */

  /* Configure the system clock */
  SystemClock_Config();
 80004d0:	f000 f83a 	bl	8000548 <SystemClock_Config>
  /* USER CODE BEGIN SysInit */

  /* USER CODE END SysInit */

  /* Initialize all configured peripherals */
  MX_GPIO_Init();
 80004d4:	f000 f924 	bl	8000720 <MX_GPIO_Init>
  MX_TIM2_Init();
 80004d8:	f000 f8a0 	bl	800061c <MX_TIM2_Init>
  MX_USART2_UART_Init();
 80004dc:	f000 f8f6 	bl	80006cc <MX_USART2_UART_Init>
  /* USER CODE BEGIN 2 */

  /* USER CODE END 2 */
if (HAL_TIM_PWM_Start(&htim2,TIM_CHANNEL_1)!= HAL_OK)
 80004e0:	2100      	movs	r1, #0
 80004e2:	4817      	ldr	r0, [pc, #92]	; (8000540 <main+0x78>)
 80004e4:	f001 fb20 	bl	8001b28 <HAL_TIM_PWM_Start>
 80004e8:	4603      	mov	r3, r0
 80004ea:	2b00      	cmp	r3, #0
 80004ec:	d00f      	beq.n	800050e <main+0x46>
{
	Error_Handler();
 80004ee:	f000 f995 	bl	800081c <Error_Handler>
//      {
//    	  brightness =0;
//      }
	while (1)
	{
		 while (brightness<htim2.Init.Period)
 80004f2:	e00c      	b.n	800050e <main+0x46>
		 {
			 brightness+=10;
 80004f4:	4b13      	ldr	r3, [pc, #76]	; (8000544 <main+0x7c>)
 80004f6:	681b      	ldr	r3, [r3, #0]
 80004f8:	330a      	adds	r3, #10
 80004fa:	4a12      	ldr	r2, [pc, #72]	; (8000544 <main+0x7c>)
 80004fc:	6013      	str	r3, [r2, #0]
			   __HAL_TIM_SET_COMPARE(&htim2,TIM_CHANNEL_1,brightness);
 80004fe:	4b10      	ldr	r3, [pc, #64]	; (8000540 <main+0x78>)
 8000500:	681b      	ldr	r3, [r3, #0]
 8000502:	4a10      	ldr	r2, [pc, #64]	; (8000544 <main+0x7c>)
 8000504:	6812      	ldr	r2, [r2, #0]
 8000506:	635a      	str	r2, [r3, #52]	; 0x34
				  HAL_Delay(1);
 8000508:	2001      	movs	r0, #1
 800050a:	f000 fb75 	bl	8000bf8 <HAL_Delay>
		 while (brightness<htim2.Init.Period)
 800050e:	4b0c      	ldr	r3, [pc, #48]	; (8000540 <main+0x78>)
 8000510:	68da      	ldr	r2, [r3, #12]
 8000512:	4b0c      	ldr	r3, [pc, #48]	; (8000544 <main+0x7c>)
 8000514:	681b      	ldr	r3, [r3, #0]
 8000516:	429a      	cmp	r2, r3
 8000518:	d8ec      	bhi.n	80004f4 <main+0x2c>

		  }
		 while (brightness>0)
 800051a:	e00c      	b.n	8000536 <main+0x6e>
		 {
			 brightness-=10;
 800051c:	4b09      	ldr	r3, [pc, #36]	; (8000544 <main+0x7c>)
 800051e:	681b      	ldr	r3, [r3, #0]
 8000520:	3b0a      	subs	r3, #10
 8000522:	4a08      	ldr	r2, [pc, #32]	; (8000544 <main+0x7c>)
 8000524:	6013      	str	r3, [r2, #0]
			   __HAL_TIM_SET_COMPARE(&htim2,TIM_CHANNEL_1,brightness);
 8000526:	4b06      	ldr	r3, [pc, #24]	; (8000540 <main+0x78>)
 8000528:	681b      	ldr	r3, [r3, #0]
 800052a:	4a06      	ldr	r2, [pc, #24]	; (8000544 <main+0x7c>)
 800052c:	6812      	ldr	r2, [r2, #0]
 800052e:	635a      	str	r2, [r3, #52]	; 0x34
				  HAL_Delay(1);
 8000530:	2001      	movs	r0, #1
 8000532:	f000 fb61 	bl	8000bf8 <HAL_Delay>
		 while (brightness>0)
 8000536:	4b03      	ldr	r3, [pc, #12]	; (8000544 <main+0x7c>)
 8000538:	681b      	ldr	r3, [r3, #0]
 800053a:	2b00      	cmp	r3, #0
 800053c:	d1ee      	bne.n	800051c <main+0x54>
		 while (brightness<htim2.Init.Period)
 800053e:	e7e6      	b.n	800050e <main+0x46>
 8000540:	2000002c 	.word	0x2000002c
 8000544:	20000028 	.word	0x20000028

08000548 <SystemClock_Config>:
/**
  * @brief System Clock Configuration
  * @retval None
  */
void SystemClock_Config(void)
{
 8000548:	b580      	push	{r7, lr}
 800054a:	b094      	sub	sp, #80	; 0x50
 800054c:	af00      	add	r7, sp, #0
  RCC_OscInitTypeDef RCC_OscInitStruct = {0};
 800054e:	f107 0320 	add.w	r3, r7, #32
 8000552:	2230      	movs	r2, #48	; 0x30
 8000554:	2100      	movs	r1, #0
 8000556:	4618      	mov	r0, r3
 8000558:	f002 fe58 	bl	800320c <memset>
  RCC_ClkInitTypeDef RCC_ClkInitStruct = {0};
 800055c:	f107 030c 	add.w	r3, r7, #12
 8000560:	2200      	movs	r2, #0
 8000562:	601a      	str	r2, [r3, #0]
 8000564:	605a      	str	r2, [r3, #4]
 8000566:	609a      	str	r2, [r3, #8]
 8000568:	60da      	str	r2, [r3, #12]
 800056a:	611a      	str	r2, [r3, #16]

  /** Configure the main internal regulator output voltage 
  */
  __HAL_RCC_PWR_CLK_ENABLE();
 800056c:	2300      	movs	r3, #0
 800056e:	60bb      	str	r3, [r7, #8]
 8000570:	4b28      	ldr	r3, [pc, #160]	; (8000614 <SystemClock_Config+0xcc>)
 8000572:	6c1b      	ldr	r3, [r3, #64]	; 0x40
 8000574:	4a27      	ldr	r2, [pc, #156]	; (8000614 <SystemClock_Config+0xcc>)
 8000576:	f043 5380 	orr.w	r3, r3, #268435456	; 0x10000000
 800057a:	6413      	str	r3, [r2, #64]	; 0x40
 800057c:	4b25      	ldr	r3, [pc, #148]	; (8000614 <SystemClock_Config+0xcc>)
 800057e:	6c1b      	ldr	r3, [r3, #64]	; 0x40
 8000580:	f003 5380 	and.w	r3, r3, #268435456	; 0x10000000
 8000584:	60bb      	str	r3, [r7, #8]
 8000586:	68bb      	ldr	r3, [r7, #8]
  __HAL_PWR_VOLTAGESCALING_CONFIG(PWR_REGULATOR_VOLTAGE_SCALE1);
 8000588:	2300      	movs	r3, #0
 800058a:	607b      	str	r3, [r7, #4]
 800058c:	4b22      	ldr	r3, [pc, #136]	; (8000618 <SystemClock_Config+0xd0>)
 800058e:	681b      	ldr	r3, [r3, #0]
 8000590:	4a21      	ldr	r2, [pc, #132]	; (8000618 <SystemClock_Config+0xd0>)
 8000592:	f443 4380 	orr.w	r3, r3, #16384	; 0x4000
 8000596:	6013      	str	r3, [r2, #0]
 8000598:	4b1f      	ldr	r3, [pc, #124]	; (8000618 <SystemClock_Config+0xd0>)
 800059a:	681b      	ldr	r3, [r3, #0]
 800059c:	f403 4380 	and.w	r3, r3, #16384	; 0x4000
 80005a0:	607b      	str	r3, [r7, #4]
 80005a2:	687b      	ldr	r3, [r7, #4]
  /** Initializes the CPU, AHB and APB busses clocks 
  */
  RCC_OscInitStruct.OscillatorType = RCC_OSCILLATORTYPE_HSE;
 80005a4:	2301      	movs	r3, #1
 80005a6:	623b      	str	r3, [r7, #32]
  RCC_OscInitStruct.HSEState = RCC_HSE_ON;
 80005a8:	f44f 3380 	mov.w	r3, #65536	; 0x10000
 80005ac:	627b      	str	r3, [r7, #36]	; 0x24
  RCC_OscInitStruct.PLL.PLLState = RCC_PLL_ON;
 80005ae:	2302      	movs	r3, #2
 80005b0:	63bb      	str	r3, [r7, #56]	; 0x38
  RCC_OscInitStruct.PLL.PLLSource = RCC_PLLSOURCE_HSE;
 80005b2:	f44f 0380 	mov.w	r3, #4194304	; 0x400000
 80005b6:	63fb      	str	r3, [r7, #60]	; 0x3c
  RCC_OscInitStruct.PLL.PLLM = 8;
 80005b8:	2308      	movs	r3, #8
 80005ba:	643b      	str	r3, [r7, #64]	; 0x40
  RCC_OscInitStruct.PLL.PLLN = 100;
 80005bc:	2364      	movs	r3, #100	; 0x64
 80005be:	647b      	str	r3, [r7, #68]	; 0x44
  RCC_OscInitStruct.PLL.PLLP = RCC_PLLP_DIV2;
 80005c0:	2302      	movs	r3, #2
 80005c2:	64bb      	str	r3, [r7, #72]	; 0x48
  RCC_OscInitStruct.PLL.PLLQ = 7;
 80005c4:	2307      	movs	r3, #7
 80005c6:	64fb      	str	r3, [r7, #76]	; 0x4c
  if (HAL_RCC_OscConfig(&RCC_OscInitStruct) != HAL_OK)
 80005c8:	f107 0320 	add.w	r3, r7, #32
 80005cc:	4618      	mov	r0, r3
 80005ce:	f000 fe1d 	bl	800120c <HAL_RCC_OscConfig>
 80005d2:	4603      	mov	r3, r0
 80005d4:	2b00      	cmp	r3, #0
 80005d6:	d001      	beq.n	80005dc <SystemClock_Config+0x94>
  {
    Error_Handler();
 80005d8:	f000 f920 	bl	800081c <Error_Handler>
  }
  /** Initializes the CPU, AHB and APB busses clocks 
  */
  RCC_ClkInitStruct.ClockType = RCC_CLOCKTYPE_HCLK|RCC_CLOCKTYPE_SYSCLK
 80005dc:	230f      	movs	r3, #15
 80005de:	60fb      	str	r3, [r7, #12]
                              |RCC_CLOCKTYPE_PCLK1|RCC_CLOCKTYPE_PCLK2;
  RCC_ClkInitStruct.SYSCLKSource = RCC_SYSCLKSOURCE_PLLCLK;
 80005e0:	2302      	movs	r3, #2
 80005e2:	613b      	str	r3, [r7, #16]
  RCC_ClkInitStruct.AHBCLKDivider = RCC_SYSCLK_DIV1;
 80005e4:	2300      	movs	r3, #0
 80005e6:	617b      	str	r3, [r7, #20]
  RCC_ClkInitStruct.APB1CLKDivider = RCC_HCLK_DIV2;
 80005e8:	f44f 5380 	mov.w	r3, #4096	; 0x1000
 80005ec:	61bb      	str	r3, [r7, #24]
  RCC_ClkInitStruct.APB2CLKDivider = RCC_HCLK_DIV2;
 80005ee:	f44f 5380 	mov.w	r3, #4096	; 0x1000
 80005f2:	61fb      	str	r3, [r7, #28]

  if (HAL_RCC_ClockConfig(&RCC_ClkInitStruct, FLASH_LATENCY_1) != HAL_OK)
 80005f4:	f107 030c 	add.w	r3, r7, #12
 80005f8:	2101      	movs	r1, #1
 80005fa:	4618      	mov	r0, r3
 80005fc:	f001 f876 	bl	80016ec <HAL_RCC_ClockConfig>
 8000600:	4603      	mov	r3, r0
 8000602:	2b00      	cmp	r3, #0
 8000604:	d001      	beq.n	800060a <SystemClock_Config+0xc2>
  {
    Error_Handler();
 8000606:	f000 f909 	bl	800081c <Error_Handler>
  }
}
 800060a:	bf00      	nop
 800060c:	3750      	adds	r7, #80	; 0x50
 800060e:	46bd      	mov	sp, r7
 8000610:	bd80      	pop	{r7, pc}
 8000612:	bf00      	nop
 8000614:	40023800 	.word	0x40023800
 8000618:	40007000 	.word	0x40007000

0800061c <MX_TIM2_Init>:
  * @brief TIM2 Initialization Function
  * @param None
  * @retval None
  */
static void MX_TIM2_Init(void)
{
 800061c:	b580      	push	{r7, lr}
 800061e:	b08a      	sub	sp, #40	; 0x28
 8000620:	af00      	add	r7, sp, #0

  /* USER CODE BEGIN TIM2_Init 0 */

  /* USER CODE END TIM2_Init 0 */

  TIM_MasterConfigTypeDef sMasterConfig = {0};
 8000622:	f107 0320 	add.w	r3, r7, #32
 8000626:	2200      	movs	r2, #0
 8000628:	601a      	str	r2, [r3, #0]
 800062a:	605a      	str	r2, [r3, #4]
  TIM_OC_InitTypeDef sConfigOC = {0};
 800062c:	1d3b      	adds	r3, r7, #4
 800062e:	2200      	movs	r2, #0
 8000630:	601a      	str	r2, [r3, #0]
 8000632:	605a      	str	r2, [r3, #4]
 8000634:	609a      	str	r2, [r3, #8]
 8000636:	60da      	str	r2, [r3, #12]
 8000638:	611a      	str	r2, [r3, #16]
 800063a:	615a      	str	r2, [r3, #20]
 800063c:	619a      	str	r2, [r3, #24]

  /* USER CODE BEGIN TIM2_Init 1 */

  /* USER CODE END TIM2_Init 1 */
  htim2.Instance = TIM2;
 800063e:	4b22      	ldr	r3, [pc, #136]	; (80006c8 <MX_TIM2_Init+0xac>)
 8000640:	f04f 4280 	mov.w	r2, #1073741824	; 0x40000000
 8000644:	601a      	str	r2, [r3, #0]
  htim2.Init.Prescaler = 4;
 8000646:	4b20      	ldr	r3, [pc, #128]	; (80006c8 <MX_TIM2_Init+0xac>)
 8000648:	2204      	movs	r2, #4
 800064a:	605a      	str	r2, [r3, #4]
  htim2.Init.CounterMode = TIM_COUNTERMODE_UP;
 800064c:	4b1e      	ldr	r3, [pc, #120]	; (80006c8 <MX_TIM2_Init+0xac>)
 800064e:	2200      	movs	r2, #0
 8000650:	609a      	str	r2, [r3, #8]
  htim2.Init.Period = 10000-1;
 8000652:	4b1d      	ldr	r3, [pc, #116]	; (80006c8 <MX_TIM2_Init+0xac>)
 8000654:	f242 720f 	movw	r2, #9999	; 0x270f
 8000658:	60da      	str	r2, [r3, #12]
  htim2.Init.ClockDivision = TIM_CLOCKDIVISION_DIV1;
 800065a:	4b1b      	ldr	r3, [pc, #108]	; (80006c8 <MX_TIM2_Init+0xac>)
 800065c:	2200      	movs	r2, #0
 800065e:	611a      	str	r2, [r3, #16]
  htim2.Init.AutoReloadPreload = TIM_AUTORELOAD_PRELOAD_DISABLE;
 8000660:	4b19      	ldr	r3, [pc, #100]	; (80006c8 <MX_TIM2_Init+0xac>)
 8000662:	2200      	movs	r2, #0
 8000664:	619a      	str	r2, [r3, #24]
  if (HAL_TIM_PWM_Init(&htim2) != HAL_OK)
 8000666:	4818      	ldr	r0, [pc, #96]	; (80006c8 <MX_TIM2_Init+0xac>)
 8000668:	f001 fa32 	bl	8001ad0 <HAL_TIM_PWM_Init>
 800066c:	4603      	mov	r3, r0
 800066e:	2b00      	cmp	r3, #0
 8000670:	d001      	beq.n	8000676 <MX_TIM2_Init+0x5a>
  {
    Error_Handler();
 8000672:	f000 f8d3 	bl	800081c <Error_Handler>
  }
  sMasterConfig.MasterOutputTrigger = TIM_TRGO_RESET;
 8000676:	2300      	movs	r3, #0
 8000678:	623b      	str	r3, [r7, #32]
  sMasterConfig.MasterSlaveMode = TIM_MASTERSLAVEMODE_DISABLE;
 800067a:	2300      	movs	r3, #0
 800067c:	627b      	str	r3, [r7, #36]	; 0x24
  if (HAL_TIMEx_MasterConfigSynchronization(&htim2, &sMasterConfig) != HAL_OK)
 800067e:	f107 0320 	add.w	r3, r7, #32
 8000682:	4619      	mov	r1, r3
 8000684:	4810      	ldr	r0, [pc, #64]	; (80006c8 <MX_TIM2_Init+0xac>)
 8000686:	f001 ff03 	bl	8002490 <HAL_TIMEx_MasterConfigSynchronization>
 800068a:	4603      	mov	r3, r0
 800068c:	2b00      	cmp	r3, #0
 800068e:	d001      	beq.n	8000694 <MX_TIM2_Init+0x78>
  {
    Error_Handler();
 8000690:	f000 f8c4 	bl	800081c <Error_Handler>
  }
  sConfigOC.OCMode = TIM_OCMODE_PWM1;
 8000694:	2360      	movs	r3, #96	; 0x60
 8000696:	607b      	str	r3, [r7, #4]
  sConfigOC.Pulse = 0;         //25% deuty  = (arr * 25)/100
 8000698:	2300      	movs	r3, #0
 800069a:	60bb      	str	r3, [r7, #8]
  sConfigOC.OCPolarity = TIM_OCPOLARITY_HIGH;
 800069c:	2300      	movs	r3, #0
 800069e:	60fb      	str	r3, [r7, #12]
  sConfigOC.OCFastMode = TIM_OCFAST_DISABLE;
 80006a0:	2300      	movs	r3, #0
 80006a2:	617b      	str	r3, [r7, #20]
  if (HAL_TIM_PWM_ConfigChannel(&htim2, &sConfigOC, TIM_CHANNEL_1) != HAL_OK)
 80006a4:	1d3b      	adds	r3, r7, #4
 80006a6:	2200      	movs	r2, #0
 80006a8:	4619      	mov	r1, r3
 80006aa:	4807      	ldr	r0, [pc, #28]	; (80006c8 <MX_TIM2_Init+0xac>)
 80006ac:	f001 fb82 	bl	8001db4 <HAL_TIM_PWM_ConfigChannel>
 80006b0:	4603      	mov	r3, r0
 80006b2:	2b00      	cmp	r3, #0
 80006b4:	d001      	beq.n	80006ba <MX_TIM2_Init+0x9e>
  {
    Error_Handler();
 80006b6:	f000 f8b1 	bl	800081c <Error_Handler>
  }

  /* USER CODE BEGIN TIM2_Init 2 */

  /* USER CODE END TIM2_Init 2 */
  HAL_TIM_MspPostInit(&htim2);
 80006ba:	4803      	ldr	r0, [pc, #12]	; (80006c8 <MX_TIM2_Init+0xac>)
 80006bc:	f000 f8fe 	bl	80008bc <HAL_TIM_MspPostInit>

}
 80006c0:	bf00      	nop
 80006c2:	3728      	adds	r7, #40	; 0x28
 80006c4:	46bd      	mov	sp, r7
 80006c6:	bd80      	pop	{r7, pc}
 80006c8:	2000002c 	.word	0x2000002c

080006cc <MX_USART2_UART_Init>:
  * @brief USART2 Initialization Function
  * @param None
  * @retval None
  */
static void MX_USART2_UART_Init(void)
{
 80006cc:	b580      	push	{r7, lr}
 80006ce:	af00      	add	r7, sp, #0
  /* USER CODE END USART2_Init 0 */

  /* USER CODE BEGIN USART2_Init 1 */

  /* USER CODE END USART2_Init 1 */
  huart2.Instance = USART2;
 80006d0:	4b11      	ldr	r3, [pc, #68]	; (8000718 <MX_USART2_UART_Init+0x4c>)
 80006d2:	4a12      	ldr	r2, [pc, #72]	; (800071c <MX_USART2_UART_Init+0x50>)
 80006d4:	601a      	str	r2, [r3, #0]
  huart2.Init.BaudRate = 115200;
 80006d6:	4b10      	ldr	r3, [pc, #64]	; (8000718 <MX_USART2_UART_Init+0x4c>)
 80006d8:	f44f 32e1 	mov.w	r2, #115200	; 0x1c200
 80006dc:	605a      	str	r2, [r3, #4]
  huart2.Init.WordLength = UART_WORDLENGTH_8B;
 80006de:	4b0e      	ldr	r3, [pc, #56]	; (8000718 <MX_USART2_UART_Init+0x4c>)
 80006e0:	2200      	movs	r2, #0
 80006e2:	609a      	str	r2, [r3, #8]
  huart2.Init.StopBits = UART_STOPBITS_1;
 80006e4:	4b0c      	ldr	r3, [pc, #48]	; (8000718 <MX_USART2_UART_Init+0x4c>)
 80006e6:	2200      	movs	r2, #0
 80006e8:	60da      	str	r2, [r3, #12]
  huart2.Init.Parity = UART_PARITY_NONE;
 80006ea:	4b0b      	ldr	r3, [pc, #44]	; (8000718 <MX_USART2_UART_Init+0x4c>)
 80006ec:	2200      	movs	r2, #0
 80006ee:	611a      	str	r2, [r3, #16]
  huart2.Init.Mode = UART_MODE_TX_RX;
 80006f0:	4b09      	ldr	r3, [pc, #36]	; (8000718 <MX_USART2_UART_Init+0x4c>)
 80006f2:	220c      	movs	r2, #12
 80006f4:	615a      	str	r2, [r3, #20]
  huart2.Init.HwFlowCtl = UART_HWCONTROL_NONE;
 80006f6:	4b08      	ldr	r3, [pc, #32]	; (8000718 <MX_USART2_UART_Init+0x4c>)
 80006f8:	2200      	movs	r2, #0
 80006fa:	619a      	str	r2, [r3, #24]
  huart2.Init.OverSampling = UART_OVERSAMPLING_16;
 80006fc:	4b06      	ldr	r3, [pc, #24]	; (8000718 <MX_USART2_UART_Init+0x4c>)
 80006fe:	2200      	movs	r2, #0
 8000700:	61da      	str	r2, [r3, #28]
  if (HAL_UART_Init(&huart2) != HAL_OK)
 8000702:	4805      	ldr	r0, [pc, #20]	; (8000718 <MX_USART2_UART_Init+0x4c>)
 8000704:	f001 ff54 	bl	80025b0 <HAL_UART_Init>
 8000708:	4603      	mov	r3, r0
 800070a:	2b00      	cmp	r3, #0
 800070c:	d001      	beq.n	8000712 <MX_USART2_UART_Init+0x46>
  {
    Error_Handler();
 800070e:	f000 f885 	bl	800081c <Error_Handler>
  }
  /* USER CODE BEGIN USART2_Init 2 */

  /* USER CODE END USART2_Init 2 */

}
 8000712:	bf00      	nop
 8000714:	bd80      	pop	{r7, pc}
 8000716:	bf00      	nop
 8000718:	2000006c 	.word	0x2000006c
 800071c:	40004400 	.word	0x40004400

08000720 <MX_GPIO_Init>:
  * @brief GPIO Initialization Function
  * @param None
  * @retval None
  */
static void MX_GPIO_Init(void)
{
 8000720:	b580      	push	{r7, lr}
 8000722:	b08a      	sub	sp, #40	; 0x28
 8000724:	af00      	add	r7, sp, #0
  GPIO_InitTypeDef GPIO_InitStruct = {0};
 8000726:	f107 0314 	add.w	r3, r7, #20
 800072a:	2200      	movs	r2, #0
 800072c:	601a      	str	r2, [r3, #0]
 800072e:	605a      	str	r2, [r3, #4]
 8000730:	609a      	str	r2, [r3, #8]
 8000732:	60da      	str	r2, [r3, #12]
 8000734:	611a      	str	r2, [r3, #16]

  /* GPIO Ports Clock Enable */
  __HAL_RCC_GPIOH_CLK_ENABLE();
 8000736:	2300      	movs	r3, #0
 8000738:	613b      	str	r3, [r7, #16]
 800073a:	4b33      	ldr	r3, [pc, #204]	; (8000808 <MX_GPIO_Init+0xe8>)
 800073c:	6b1b      	ldr	r3, [r3, #48]	; 0x30
 800073e:	4a32      	ldr	r2, [pc, #200]	; (8000808 <MX_GPIO_Init+0xe8>)
 8000740:	f043 0380 	orr.w	r3, r3, #128	; 0x80
 8000744:	6313      	str	r3, [r2, #48]	; 0x30
 8000746:	4b30      	ldr	r3, [pc, #192]	; (8000808 <MX_GPIO_Init+0xe8>)
 8000748:	6b1b      	ldr	r3, [r3, #48]	; 0x30
 800074a:	f003 0380 	and.w	r3, r3, #128	; 0x80
 800074e:	613b      	str	r3, [r7, #16]
 8000750:	693b      	ldr	r3, [r7, #16]
  __HAL_RCC_GPIOA_CLK_ENABLE();
 8000752:	2300      	movs	r3, #0
 8000754:	60fb      	str	r3, [r7, #12]
 8000756:	4b2c      	ldr	r3, [pc, #176]	; (8000808 <MX_GPIO_Init+0xe8>)
 8000758:	6b1b      	ldr	r3, [r3, #48]	; 0x30
 800075a:	4a2b      	ldr	r2, [pc, #172]	; (8000808 <MX_GPIO_Init+0xe8>)
 800075c:	f043 0301 	orr.w	r3, r3, #1
 8000760:	6313      	str	r3, [r2, #48]	; 0x30
 8000762:	4b29      	ldr	r3, [pc, #164]	; (8000808 <MX_GPIO_Init+0xe8>)
 8000764:	6b1b      	ldr	r3, [r3, #48]	; 0x30
 8000766:	f003 0301 	and.w	r3, r3, #1
 800076a:	60fb      	str	r3, [r7, #12]
 800076c:	68fb      	ldr	r3, [r7, #12]
  __HAL_RCC_GPIOB_CLK_ENABLE();
 800076e:	2300      	movs	r3, #0
 8000770:	60bb      	str	r3, [r7, #8]
 8000772:	4b25      	ldr	r3, [pc, #148]	; (8000808 <MX_GPIO_Init+0xe8>)
 8000774:	6b1b      	ldr	r3, [r3, #48]	; 0x30
 8000776:	4a24      	ldr	r2, [pc, #144]	; (8000808 <MX_GPIO_Init+0xe8>)
 8000778:	f043 0302 	orr.w	r3, r3, #2
 800077c:	6313      	str	r3, [r2, #48]	; 0x30
 800077e:	4b22      	ldr	r3, [pc, #136]	; (8000808 <MX_GPIO_Init+0xe8>)
 8000780:	6b1b      	ldr	r3, [r3, #48]	; 0x30
 8000782:	f003 0302 	and.w	r3, r3, #2
 8000786:	60bb      	str	r3, [r7, #8]
 8000788:	68bb      	ldr	r3, [r7, #8]
  __HAL_RCC_GPIOD_CLK_ENABLE();
 800078a:	2300      	movs	r3, #0
 800078c:	607b      	str	r3, [r7, #4]
 800078e:	4b1e      	ldr	r3, [pc, #120]	; (8000808 <MX_GPIO_Init+0xe8>)
 8000790:	6b1b      	ldr	r3, [r3, #48]	; 0x30
 8000792:	4a1d      	ldr	r2, [pc, #116]	; (8000808 <MX_GPIO_Init+0xe8>)
 8000794:	f043 0308 	orr.w	r3, r3, #8
 8000798:	6313      	str	r3, [r2, #48]	; 0x30
 800079a:	4b1b      	ldr	r3, [pc, #108]	; (8000808 <MX_GPIO_Init+0xe8>)
 800079c:	6b1b      	ldr	r3, [r3, #48]	; 0x30
 800079e:	f003 0308 	and.w	r3, r3, #8
 80007a2:	607b      	str	r3, [r7, #4]
 80007a4:	687b      	ldr	r3, [r7, #4]

  /*Configure GPIO pin Output Level */
  HAL_GPIO_WritePin(GPIOD, LD4_Pin|LD3_Pin|LD5_Pin|LD6_Pin, GPIO_PIN_RESET);
 80007a6:	2200      	movs	r2, #0
 80007a8:	f44f 4170 	mov.w	r1, #61440	; 0xf000
 80007ac:	4817      	ldr	r0, [pc, #92]	; (800080c <MX_GPIO_Init+0xec>)
 80007ae:	f000 fd13 	bl	80011d8 <HAL_GPIO_WritePin>

  /*Configure GPIO pin : B1_Pin */
  GPIO_InitStruct.Pin = B1_Pin;
 80007b2:	2301      	movs	r3, #1
 80007b4:	617b      	str	r3, [r7, #20]
  GPIO_InitStruct.Mode = GPIO_MODE_EVT_RISING;
 80007b6:	4b16      	ldr	r3, [pc, #88]	; (8000810 <MX_GPIO_Init+0xf0>)
 80007b8:	61bb      	str	r3, [r7, #24]
  GPIO_InitStruct.Pull = GPIO_NOPULL;
 80007ba:	2300      	movs	r3, #0
 80007bc:	61fb      	str	r3, [r7, #28]
  HAL_GPIO_Init(B1_GPIO_Port, &GPIO_InitStruct);
 80007be:	f107 0314 	add.w	r3, r7, #20
 80007c2:	4619      	mov	r1, r3
 80007c4:	4813      	ldr	r0, [pc, #76]	; (8000814 <MX_GPIO_Init+0xf4>)
 80007c6:	f000 fb6d 	bl	8000ea4 <HAL_GPIO_Init>

  /*Configure GPIO pin : BOOT1_Pin */
  GPIO_InitStruct.Pin = BOOT1_Pin;
 80007ca:	2304      	movs	r3, #4
 80007cc:	617b      	str	r3, [r7, #20]
  GPIO_InitStruct.Mode = GPIO_MODE_INPUT;
 80007ce:	2300      	movs	r3, #0
 80007d0:	61bb      	str	r3, [r7, #24]
  GPIO_InitStruct.Pull = GPIO_NOPULL;
 80007d2:	2300      	movs	r3, #0
 80007d4:	61fb      	str	r3, [r7, #28]
  HAL_GPIO_Init(BOOT1_GPIO_Port, &GPIO_InitStruct);
 80007d6:	f107 0314 	add.w	r3, r7, #20
 80007da:	4619      	mov	r1, r3
 80007dc:	480e      	ldr	r0, [pc, #56]	; (8000818 <MX_GPIO_Init+0xf8>)
 80007de:	f000 fb61 	bl	8000ea4 <HAL_GPIO_Init>

  /*Configure GPIO pins : LD4_Pin LD3_Pin LD5_Pin LD6_Pin */
  GPIO_InitStruct.Pin = LD4_Pin|LD3_Pin|LD5_Pin|LD6_Pin;
 80007e2:	f44f 4370 	mov.w	r3, #61440	; 0xf000
 80007e6:	617b      	str	r3, [r7, #20]
  GPIO_InitStruct.Mode = GPIO_MODE_OUTPUT_PP;
 80007e8:	2301      	movs	r3, #1
 80007ea:	61bb      	str	r3, [r7, #24]
  GPIO_InitStruct.Pull = GPIO_NOPULL;
 80007ec:	2300      	movs	r3, #0
 80007ee:	61fb      	str	r3, [r7, #28]
  GPIO_InitStruct.Speed = GPIO_SPEED_FREQ_LOW;
 80007f0:	2300      	movs	r3, #0
 80007f2:	623b      	str	r3, [r7, #32]
  HAL_GPIO_Init(GPIOD, &GPIO_InitStruct);
 80007f4:	f107 0314 	add.w	r3, r7, #20
 80007f8:	4619      	mov	r1, r3
 80007fa:	4804      	ldr	r0, [pc, #16]	; (800080c <MX_GPIO_Init+0xec>)
 80007fc:	f000 fb52 	bl	8000ea4 <HAL_GPIO_Init>

}
 8000800:	bf00      	nop
 8000802:	3728      	adds	r7, #40	; 0x28
 8000804:	46bd      	mov	sp, r7
 8000806:	bd80      	pop	{r7, pc}
 8000808:	40023800 	.word	0x40023800
 800080c:	40020c00 	.word	0x40020c00
 8000810:	10120000 	.word	0x10120000
 8000814:	40020000 	.word	0x40020000
 8000818:	40020400 	.word	0x40020400

0800081c <Error_Handler>:
/**
  * @brief  This function is executed in case of error occurrence.
  * @retval None
  */
void Error_Handler(void)
{
 800081c:	b480      	push	{r7}
 800081e:	af00      	add	r7, sp, #0
  /* USER CODE BEGIN Error_Handler_Debug */
  /* User can add his own implementation to report the HAL error return state */

  /* USER CODE END Error_Handler_Debug */
}
 8000820:	bf00      	nop
 8000822:	46bd      	mov	sp, r7
 8000824:	f85d 7b04 	ldr.w	r7, [sp], #4
 8000828:	4770      	bx	lr
	...

0800082c <HAL_MspInit>:
void HAL_TIM_MspPostInit(TIM_HandleTypeDef *htim);
                    /**
  * Initializes the Global MSP.
  */
void HAL_MspInit(void)
{
 800082c:	b580      	push	{r7, lr}
 800082e:	b082      	sub	sp, #8
 8000830:	af00      	add	r7, sp, #0
  /* USER CODE BEGIN MspInit 0 */

  /* USER CODE END MspInit 0 */

  __HAL_RCC_SYSCFG_CLK_ENABLE();
 8000832:	2300      	movs	r3, #0
 8000834:	607b      	str	r3, [r7, #4]
 8000836:	4b10      	ldr	r3, [pc, #64]	; (8000878 <HAL_MspInit+0x4c>)
 8000838:	6c5b      	ldr	r3, [r3, #68]	; 0x44
 800083a:	4a0f      	ldr	r2, [pc, #60]	; (8000878 <HAL_MspInit+0x4c>)
 800083c:	f443 4380 	orr.w	r3, r3, #16384	; 0x4000
 8000840:	6453      	str	r3, [r2, #68]	; 0x44
 8000842:	4b0d      	ldr	r3, [pc, #52]	; (8000878 <HAL_MspInit+0x4c>)
 8000844:	6c5b      	ldr	r3, [r3, #68]	; 0x44
 8000846:	f403 4380 	and.w	r3, r3, #16384	; 0x4000
 800084a:	607b      	str	r3, [r7, #4]
 800084c:	687b      	ldr	r3, [r7, #4]
  __HAL_RCC_PWR_CLK_ENABLE();
 800084e:	2300      	movs	r3, #0
 8000850:	603b      	str	r3, [r7, #0]
 8000852:	4b09      	ldr	r3, [pc, #36]	; (8000878 <HAL_MspInit+0x4c>)
 8000854:	6c1b      	ldr	r3, [r3, #64]	; 0x40
 8000856:	4a08      	ldr	r2, [pc, #32]	; (8000878 <HAL_MspInit+0x4c>)
 8000858:	f043 5380 	orr.w	r3, r3, #268435456	; 0x10000000
 800085c:	6413      	str	r3, [r2, #64]	; 0x40
 800085e:	4b06      	ldr	r3, [pc, #24]	; (8000878 <HAL_MspInit+0x4c>)
 8000860:	6c1b      	ldr	r3, [r3, #64]	; 0x40
 8000862:	f003 5380 	and.w	r3, r3, #268435456	; 0x10000000
 8000866:	603b      	str	r3, [r7, #0]
 8000868:	683b      	ldr	r3, [r7, #0]

  HAL_NVIC_SetPriorityGrouping(NVIC_PRIORITYGROUP_0);
 800086a:	2007      	movs	r0, #7
 800086c:	f000 fab6 	bl	8000ddc <HAL_NVIC_SetPriorityGrouping>
  /* System interrupt init*/

  /* USER CODE BEGIN MspInit 1 */

  /* USER CODE END MspInit 1 */
}
 8000870:	bf00      	nop
 8000872:	3708      	adds	r7, #8
 8000874:	46bd      	mov	sp, r7
 8000876:	bd80      	pop	{r7, pc}
 8000878:	40023800 	.word	0x40023800

0800087c <HAL_TIM_PWM_MspInit>:
* This function configures the hardware resources used in this example
* @param htim_pwm: TIM_PWM handle pointer
* @retval None
*/
void HAL_TIM_PWM_MspInit(TIM_HandleTypeDef* htim_pwm)
{
 800087c:	b480      	push	{r7}
 800087e:	b085      	sub	sp, #20
 8000880:	af00      	add	r7, sp, #0
 8000882:	6078      	str	r0, [r7, #4]
  if(htim_pwm->Instance==TIM2)
 8000884:	687b      	ldr	r3, [r7, #4]
 8000886:	681b      	ldr	r3, [r3, #0]
 8000888:	f1b3 4f80 	cmp.w	r3, #1073741824	; 0x40000000
 800088c:	d10d      	bne.n	80008aa <HAL_TIM_PWM_MspInit+0x2e>
  {
  /* USER CODE BEGIN TIM2_MspInit 0 */

  /* USER CODE END TIM2_MspInit 0 */
    /* Peripheral clock enable */
    __HAL_RCC_TIM2_CLK_ENABLE();
 800088e:	2300      	movs	r3, #0
 8000890:	60fb      	str	r3, [r7, #12]
 8000892:	4b09      	ldr	r3, [pc, #36]	; (80008b8 <HAL_TIM_PWM_MspInit+0x3c>)
 8000894:	6c1b      	ldr	r3, [r3, #64]	; 0x40
 8000896:	4a08      	ldr	r2, [pc, #32]	; (80008b8 <HAL_TIM_PWM_MspInit+0x3c>)
 8000898:	f043 0301 	orr.w	r3, r3, #1
 800089c:	6413      	str	r3, [r2, #64]	; 0x40
 800089e:	4b06      	ldr	r3, [pc, #24]	; (80008b8 <HAL_TIM_PWM_MspInit+0x3c>)
 80008a0:	6c1b      	ldr	r3, [r3, #64]	; 0x40
 80008a2:	f003 0301 	and.w	r3, r3, #1
 80008a6:	60fb      	str	r3, [r7, #12]
 80008a8:	68fb      	ldr	r3, [r7, #12]
  /* USER CODE BEGIN TIM2_MspInit 1 */

  /* USER CODE END TIM2_MspInit 1 */
  }

}
 80008aa:	bf00      	nop
 80008ac:	3714      	adds	r7, #20
 80008ae:	46bd      	mov	sp, r7
 80008b0:	f85d 7b04 	ldr.w	r7, [sp], #4
 80008b4:	4770      	bx	lr
 80008b6:	bf00      	nop
 80008b8:	40023800 	.word	0x40023800

080008bc <HAL_TIM_MspPostInit>:

void HAL_TIM_MspPostInit(TIM_HandleTypeDef* htim)
{
 80008bc:	b580      	push	{r7, lr}
 80008be:	b08a      	sub	sp, #40	; 0x28
 80008c0:	af00      	add	r7, sp, #0
 80008c2:	6078      	str	r0, [r7, #4]
  GPIO_InitTypeDef GPIO_InitStruct = {0};
 80008c4:	f107 0314 	add.w	r3, r7, #20
 80008c8:	2200      	movs	r2, #0
 80008ca:	601a      	str	r2, [r3, #0]
 80008cc:	605a      	str	r2, [r3, #4]
 80008ce:	609a      	str	r2, [r3, #8]
 80008d0:	60da      	str	r2, [r3, #12]
 80008d2:	611a      	str	r2, [r3, #16]
  if(htim->Instance==TIM2)
 80008d4:	687b      	ldr	r3, [r7, #4]
 80008d6:	681b      	ldr	r3, [r3, #0]
 80008d8:	f1b3 4f80 	cmp.w	r3, #1073741824	; 0x40000000
 80008dc:	d13d      	bne.n	800095a <HAL_TIM_MspPostInit+0x9e>
  {
  /* USER CODE BEGIN TIM2_MspPostInit 0 */

  /* USER CODE END TIM2_MspPostInit 0 */
  
    __HAL_RCC_GPIOA_CLK_ENABLE();
 80008de:	2300      	movs	r3, #0
 80008e0:	613b      	str	r3, [r7, #16]
 80008e2:	4b20      	ldr	r3, [pc, #128]	; (8000964 <HAL_TIM_MspPostInit+0xa8>)
 80008e4:	6b1b      	ldr	r3, [r3, #48]	; 0x30
 80008e6:	4a1f      	ldr	r2, [pc, #124]	; (8000964 <HAL_TIM_MspPostInit+0xa8>)
 80008e8:	f043 0301 	orr.w	r3, r3, #1
 80008ec:	6313      	str	r3, [r2, #48]	; 0x30
 80008ee:	4b1d      	ldr	r3, [pc, #116]	; (8000964 <HAL_TIM_MspPostInit+0xa8>)
 80008f0:	6b1b      	ldr	r3, [r3, #48]	; 0x30
 80008f2:	f003 0301 	and.w	r3, r3, #1
 80008f6:	613b      	str	r3, [r7, #16]
 80008f8:	693b      	ldr	r3, [r7, #16]
    __HAL_RCC_GPIOB_CLK_ENABLE();
 80008fa:	2300      	movs	r3, #0
 80008fc:	60fb      	str	r3, [r7, #12]
 80008fe:	4b19      	ldr	r3, [pc, #100]	; (8000964 <HAL_TIM_MspPostInit+0xa8>)
 8000900:	6b1b      	ldr	r3, [r3, #48]	; 0x30
 8000902:	4a18      	ldr	r2, [pc, #96]	; (8000964 <HAL_TIM_MspPostInit+0xa8>)
 8000904:	f043 0302 	orr.w	r3, r3, #2
 8000908:	6313      	str	r3, [r2, #48]	; 0x30
 800090a:	4b16      	ldr	r3, [pc, #88]	; (8000964 <HAL_TIM_MspPostInit+0xa8>)
 800090c:	6b1b      	ldr	r3, [r3, #48]	; 0x30
 800090e:	f003 0302 	and.w	r3, r3, #2
 8000912:	60fb      	str	r3, [r7, #12]
 8000914:	68fb      	ldr	r3, [r7, #12]
    PA1     ------> TIM2_CH2
    PB10     ------> TIM2_CH3
    PB11     ------> TIM2_CH4
    PA15     ------> TIM2_CH1 
    */
    GPIO_InitStruct.Pin = GPIO_PIN_1|GPIO_PIN_15;
 8000916:	f248 0302 	movw	r3, #32770	; 0x8002
 800091a:	617b      	str	r3, [r7, #20]
    GPIO_InitStruct.Mode = GPIO_MODE_AF_PP;
 800091c:	2302      	movs	r3, #2
 800091e:	61bb      	str	r3, [r7, #24]
    GPIO_InitStruct.Pull = GPIO_NOPULL;
 8000920:	2300      	movs	r3, #0
 8000922:	61fb      	str	r3, [r7, #28]
    GPIO_InitStruct.Speed = GPIO_SPEED_FREQ_LOW;
 8000924:	2300      	movs	r3, #0
 8000926:	623b      	str	r3, [r7, #32]
    GPIO_InitStruct.Alternate = GPIO_AF1_TIM2;
 8000928:	2301      	movs	r3, #1
 800092a:	627b      	str	r3, [r7, #36]	; 0x24
    HAL_GPIO_Init(GPIOA, &GPIO_InitStruct);
 800092c:	f107 0314 	add.w	r3, r7, #20
 8000930:	4619      	mov	r1, r3
 8000932:	480d      	ldr	r0, [pc, #52]	; (8000968 <HAL_TIM_MspPostInit+0xac>)
 8000934:	f000 fab6 	bl	8000ea4 <HAL_GPIO_Init>

    GPIO_InitStruct.Pin = GPIO_PIN_10|GPIO_PIN_11;
 8000938:	f44f 6340 	mov.w	r3, #3072	; 0xc00
 800093c:	617b      	str	r3, [r7, #20]
    GPIO_InitStruct.Mode = GPIO_MODE_AF_PP;
 800093e:	2302      	movs	r3, #2
 8000940:	61bb      	str	r3, [r7, #24]
    GPIO_InitStruct.Pull = GPIO_NOPULL;
 8000942:	2300      	movs	r3, #0
 8000944:	61fb      	str	r3, [r7, #28]
    GPIO_InitStruct.Speed = GPIO_SPEED_FREQ_LOW;
 8000946:	2300      	movs	r3, #0
 8000948:	623b      	str	r3, [r7, #32]
    GPIO_InitStruct.Alternate = GPIO_AF1_TIM2;
 800094a:	2301      	movs	r3, #1
 800094c:	627b      	str	r3, [r7, #36]	; 0x24
    HAL_GPIO_Init(GPIOB, &GPIO_InitStruct);
 800094e:	f107 0314 	add.w	r3, r7, #20
 8000952:	4619      	mov	r1, r3
 8000954:	4805      	ldr	r0, [pc, #20]	; (800096c <HAL_TIM_MspPostInit+0xb0>)
 8000956:	f000 faa5 	bl	8000ea4 <HAL_GPIO_Init>
  /* USER CODE BEGIN TIM2_MspPostInit 1 */

  /* USER CODE END TIM2_MspPostInit 1 */
  }

}
 800095a:	bf00      	nop
 800095c:	3728      	adds	r7, #40	; 0x28
 800095e:	46bd      	mov	sp, r7
 8000960:	bd80      	pop	{r7, pc}
 8000962:	bf00      	nop
 8000964:	40023800 	.word	0x40023800
 8000968:	40020000 	.word	0x40020000
 800096c:	40020400 	.word	0x40020400

08000970 <HAL_UART_MspInit>:
* This function configures the hardware resources used in this example
* @param huart: UART handle pointer
* @retval None
*/
void HAL_UART_MspInit(UART_HandleTypeDef* huart)
{
 8000970:	b580      	push	{r7, lr}
 8000972:	b08a      	sub	sp, #40	; 0x28
 8000974:	af00      	add	r7, sp, #0
 8000976:	6078      	str	r0, [r7, #4]
  GPIO_InitTypeDef GPIO_InitStruct = {0};
 8000978:	f107 0314 	add.w	r3, r7, #20
 800097c:	2200      	movs	r2, #0
 800097e:	601a      	str	r2, [r3, #0]
 8000980:	605a      	str	r2, [r3, #4]
 8000982:	609a      	str	r2, [r3, #8]
 8000984:	60da      	str	r2, [r3, #12]
 8000986:	611a      	str	r2, [r3, #16]
  if(huart->Instance==USART2)
 8000988:	687b      	ldr	r3, [r7, #4]
 800098a:	681b      	ldr	r3, [r3, #0]
 800098c:	4a1d      	ldr	r2, [pc, #116]	; (8000a04 <HAL_UART_MspInit+0x94>)
 800098e:	4293      	cmp	r3, r2
 8000990:	d133      	bne.n	80009fa <HAL_UART_MspInit+0x8a>
  {
  /* USER CODE BEGIN USART2_MspInit 0 */

  /* USER CODE END USART2_MspInit 0 */
    /* Peripheral clock enable */
    __HAL_RCC_USART2_CLK_ENABLE();
 8000992:	2300      	movs	r3, #0
 8000994:	613b      	str	r3, [r7, #16]
 8000996:	4b1c      	ldr	r3, [pc, #112]	; (8000a08 <HAL_UART_MspInit+0x98>)
 8000998:	6c1b      	ldr	r3, [r3, #64]	; 0x40
 800099a:	4a1b      	ldr	r2, [pc, #108]	; (8000a08 <HAL_UART_MspInit+0x98>)
 800099c:	f443 3300 	orr.w	r3, r3, #131072	; 0x20000
 80009a0:	6413      	str	r3, [r2, #64]	; 0x40
 80009a2:	4b19      	ldr	r3, [pc, #100]	; (8000a08 <HAL_UART_MspInit+0x98>)
 80009a4:	6c1b      	ldr	r3, [r3, #64]	; 0x40
 80009a6:	f403 3300 	and.w	r3, r3, #131072	; 0x20000
 80009aa:	613b      	str	r3, [r7, #16]
 80009ac:	693b      	ldr	r3, [r7, #16]
  
    __HAL_RCC_GPIOA_CLK_ENABLE();
 80009ae:	2300      	movs	r3, #0
 80009b0:	60fb      	str	r3, [r7, #12]
 80009b2:	4b15      	ldr	r3, [pc, #84]	; (8000a08 <HAL_UART_MspInit+0x98>)
 80009b4:	6b1b      	ldr	r3, [r3, #48]	; 0x30
 80009b6:	4a14      	ldr	r2, [pc, #80]	; (8000a08 <HAL_UART_MspInit+0x98>)
 80009b8:	f043 0301 	orr.w	r3, r3, #1
 80009bc:	6313      	str	r3, [r2, #48]	; 0x30
 80009be:	4b12      	ldr	r3, [pc, #72]	; (8000a08 <HAL_UART_MspInit+0x98>)
 80009c0:	6b1b      	ldr	r3, [r3, #48]	; 0x30
 80009c2:	f003 0301 	and.w	r3, r3, #1
 80009c6:	60fb      	str	r3, [r7, #12]
 80009c8:	68fb      	ldr	r3, [r7, #12]
    /**USART2 GPIO Configuration    
    PA2     ------> USART2_TX
    PA3     ------> USART2_RX 
    */
    GPIO_InitStruct.Pin = GPIO_PIN_2|GPIO_PIN_3;
 80009ca:	230c      	movs	r3, #12
 80009cc:	617b      	str	r3, [r7, #20]
    GPIO_InitStruct.Mode = GPIO_MODE_AF_PP;
 80009ce:	2302      	movs	r3, #2
 80009d0:	61bb      	str	r3, [r7, #24]
    GPIO_InitStruct.Pull = GPIO_NOPULL;
 80009d2:	2300      	movs	r3, #0
 80009d4:	61fb      	str	r3, [r7, #28]
    GPIO_InitStruct.Speed = GPIO_SPEED_FREQ_VERY_HIGH;
 80009d6:	2303      	movs	r3, #3
 80009d8:	623b      	str	r3, [r7, #32]
    GPIO_InitStruct.Alternate = GPIO_AF7_USART2;
 80009da:	2307      	movs	r3, #7
 80009dc:	627b      	str	r3, [r7, #36]	; 0x24
    HAL_GPIO_Init(GPIOA, &GPIO_InitStruct);
 80009de:	f107 0314 	add.w	r3, r7, #20
 80009e2:	4619      	mov	r1, r3
 80009e4:	4809      	ldr	r0, [pc, #36]	; (8000a0c <HAL_UART_MspInit+0x9c>)
 80009e6:	f000 fa5d 	bl	8000ea4 <HAL_GPIO_Init>

    /* USART2 interrupt Init */
    HAL_NVIC_SetPriority(USART2_IRQn, 0, 0);
 80009ea:	2200      	movs	r2, #0
 80009ec:	2100      	movs	r1, #0
 80009ee:	2026      	movs	r0, #38	; 0x26
 80009f0:	f000 f9ff 	bl	8000df2 <HAL_NVIC_SetPriority>
    HAL_NVIC_EnableIRQ(USART2_IRQn);
 80009f4:	2026      	movs	r0, #38	; 0x26
 80009f6:	f000 fa18 	bl	8000e2a <HAL_NVIC_EnableIRQ>
  /* USER CODE BEGIN USART2_MspInit 1 */

  /* USER CODE END USART2_MspInit 1 */
  }

}
 80009fa:	bf00      	nop
 80009fc:	3728      	adds	r7, #40	; 0x28
 80009fe:	46bd      	mov	sp, r7
 8000a00:	bd80      	pop	{r7, pc}
 8000a02:	bf00      	nop
 8000a04:	40004400 	.word	0x40004400
 8000a08:	40023800 	.word	0x40023800
 8000a0c:	40020000 	.word	0x40020000

08000a10 <NMI_Handler>:
/******************************************************************************/
/**
  * @brief This function handles Non maskable interrupt.
  */
void NMI_Handler(void)
{
 8000a10:	b480      	push	{r7}
 8000a12:	af00      	add	r7, sp, #0

  /* USER CODE END NonMaskableInt_IRQn 0 */
  /* USER CODE BEGIN NonMaskableInt_IRQn 1 */

  /* USER CODE END NonMaskableInt_IRQn 1 */
}
 8000a14:	bf00      	nop
 8000a16:	46bd      	mov	sp, r7
 8000a18:	f85d 7b04 	ldr.w	r7, [sp], #4
 8000a1c:	4770      	bx	lr

08000a1e <HardFault_Handler>:

/**
  * @brief This function handles Hard fault interrupt.
  */
void HardFault_Handler(void)
{
 8000a1e:	b480      	push	{r7}
 8000a20:	af00      	add	r7, sp, #0
  /* USER CODE BEGIN HardFault_IRQn 0 */

  /* USER CODE END HardFault_IRQn 0 */
  while (1)
 8000a22:	e7fe      	b.n	8000a22 <HardFault_Handler+0x4>

08000a24 <MemManage_Handler>:

/**
  * @brief This function handles Memory management fault.
  */
void MemManage_Handler(void)
{
 8000a24:	b480      	push	{r7}
 8000a26:	af00      	add	r7, sp, #0
  /* USER CODE BEGIN MemoryManagement_IRQn 0 */

  /* USER CODE END MemoryManagement_IRQn 0 */
  while (1)
 8000a28:	e7fe      	b.n	8000a28 <MemManage_Handler+0x4>

08000a2a <BusFault_Handler>:

/**
  * @brief This function handles Pre-fetch fault, memory access fault.
  */
void BusFault_Handler(void)
{
 8000a2a:	b480      	push	{r7}
 8000a2c:	af00      	add	r7, sp, #0
  /* USER CODE BEGIN BusFault_IRQn 0 */

  /* USER CODE END BusFault_IRQn 0 */
  while (1)
 8000a2e:	e7fe      	b.n	8000a2e <BusFault_Handler+0x4>

08000a30 <UsageFault_Handler>:

/**
  * @brief This function handles Undefined instruction or illegal state.
  */
void UsageFault_Handler(void)
{
 8000a30:	b480      	push	{r7}
 8000a32:	af00      	add	r7, sp, #0
  /* USER CODE BEGIN UsageFault_IRQn 0 */

  /* USER CODE END UsageFault_IRQn 0 */
  while (1)
 8000a34:	e7fe      	b.n	8000a34 <UsageFault_Handler+0x4>

08000a36 <SVC_Handler>:

/**
  * @brief This function handles System service call via SWI instruction.
  */
void SVC_Handler(void)
{
 8000a36:	b480      	push	{r7}
 8000a38:	af00      	add	r7, sp, #0

  /* USER CODE END SVCall_IRQn 0 */
  /* USER CODE BEGIN SVCall_IRQn 1 */

  /* USER CODE END SVCall_IRQn 1 */
}
 8000a3a:	bf00      	nop
 8000a3c:	46bd      	mov	sp, r7
 8000a3e:	f85d 7b04 	ldr.w	r7, [sp], #4
 8000a42:	4770      	bx	lr

08000a44 <DebugMon_Handler>:

/**
  * @brief This function handles Debug monitor.
  */
void DebugMon_Handler(void)
{
 8000a44:	b480      	push	{r7}
 8000a46:	af00      	add	r7, sp, #0

  /* USER CODE END DebugMonitor_IRQn 0 */
  /* USER CODE BEGIN DebugMonitor_IRQn 1 */

  /* USER CODE END DebugMonitor_IRQn 1 */
}
 8000a48:	bf00      	nop
 8000a4a:	46bd      	mov	sp, r7
 8000a4c:	f85d 7b04 	ldr.w	r7, [sp], #4
 8000a50:	4770      	bx	lr

08000a52 <PendSV_Handler>:

/**
  * @brief This function handles Pendable request for system service.
  */
void PendSV_Handler(void)
{
 8000a52:	b480      	push	{r7}
 8000a54:	af00      	add	r7, sp, #0

  /* USER CODE END PendSV_IRQn 0 */
  /* USER CODE BEGIN PendSV_IRQn 1 */

  /* USER CODE END PendSV_IRQn 1 */
}
 8000a56:	bf00      	nop
 8000a58:	46bd      	mov	sp, r7
 8000a5a:	f85d 7b04 	ldr.w	r7, [sp], #4
 8000a5e:	4770      	bx	lr

08000a60 <SysTick_Handler>:

/**
  * @brief This function handles System tick timer.
  */
void SysTick_Handler(void)
{
 8000a60:	b580      	push	{r7, lr}
 8000a62:	af00      	add	r7, sp, #0
  /* USER CODE BEGIN SysTick_IRQn 0 */

  /* USER CODE END SysTick_IRQn 0 */
  HAL_IncTick();
 8000a64:	f000 f8a8 	bl	8000bb8 <HAL_IncTick>
  /* USER CODE BEGIN SysTick_IRQn 1 */

  /* USER CODE END SysTick_IRQn 1 */
}
 8000a68:	bf00      	nop
 8000a6a:	bd80      	pop	{r7, pc}

08000a6c <TIM2_IRQHandler>:

/**
  * @brief This function handles TIM2 global interrupt.
  */
void TIM2_IRQHandler(void)
{
 8000a6c:	b580      	push	{r7, lr}
 8000a6e:	af00      	add	r7, sp, #0
  /* USER CODE BEGIN TIM2_IRQn 0 */

  /* USER CODE END TIM2_IRQn 0 */
  HAL_TIM_IRQHandler(&htim2);
 8000a70:	4802      	ldr	r0, [pc, #8]	; (8000a7c <TIM2_IRQHandler+0x10>)
 8000a72:	f001 f897 	bl	8001ba4 <HAL_TIM_IRQHandler>
  /* USER CODE BEGIN TIM2_IRQn 1 */

  /* USER CODE END TIM2_IRQn 1 */
}
 8000a76:	bf00      	nop
 8000a78:	bd80      	pop	{r7, pc}
 8000a7a:	bf00      	nop
 8000a7c:	2000002c 	.word	0x2000002c

08000a80 <USART2_IRQHandler>:

/**
  * @brief This function handles USART2 global interrupt.
  */
void USART2_IRQHandler(void)
{
 8000a80:	b580      	push	{r7, lr}
 8000a82:	af00      	add	r7, sp, #0
  /* USER CODE BEGIN USART2_IRQn 0 */

  /* USER CODE END USART2_IRQn 0 */
  HAL_UART_IRQHandler(&huart2);
 8000a84:	4802      	ldr	r0, [pc, #8]	; (8000a90 <USART2_IRQHandler+0x10>)
 8000a86:	f001 fde1 	bl	800264c <HAL_UART_IRQHandler>
  /* USER CODE BEGIN USART2_IRQn 1 */

  /* USER CODE END USART2_IRQn 1 */
}
 8000a8a:	bf00      	nop
 8000a8c:	bd80      	pop	{r7, pc}
 8000a8e:	bf00      	nop
 8000a90:	2000006c 	.word	0x2000006c

08000a94 <SystemInit>:
  *         configuration.
  * @param  None
  * @retval None
  */
void SystemInit(void)
{
 8000a94:	b480      	push	{r7}
 8000a96:	af00      	add	r7, sp, #0
  /* FPU settings ------------------------------------------------------------*/
  #if (__FPU_PRESENT == 1) && (__FPU_USED == 1)
    SCB->CPACR |= ((3UL << 10*2)|(3UL << 11*2));  /* set CP10 and CP11 Full Access */
 8000a98:	4b08      	ldr	r3, [pc, #32]	; (8000abc <SystemInit+0x28>)
 8000a9a:	f8d3 3088 	ldr.w	r3, [r3, #136]	; 0x88
 8000a9e:	4a07      	ldr	r2, [pc, #28]	; (8000abc <SystemInit+0x28>)
 8000aa0:	f443 0370 	orr.w	r3, r3, #15728640	; 0xf00000
 8000aa4:	f8c2 3088 	str.w	r3, [r2, #136]	; 0x88

  /* Configure the Vector Table location add offset address ------------------*/
#ifdef VECT_TAB_SRAM
  SCB->VTOR = SRAM_BASE | VECT_TAB_OFFSET; /* Vector Table Relocation in Internal SRAM */
#else
  SCB->VTOR = FLASH_BASE | VECT_TAB_OFFSET; /* Vector Table Relocation in Internal FLASH */
 8000aa8:	4b04      	ldr	r3, [pc, #16]	; (8000abc <SystemInit+0x28>)
 8000aaa:	f04f 6200 	mov.w	r2, #134217728	; 0x8000000
 8000aae:	609a      	str	r2, [r3, #8]
#endif
}
 8000ab0:	bf00      	nop
 8000ab2:	46bd      	mov	sp, r7
 8000ab4:	f85d 7b04 	ldr.w	r7, [sp], #4
 8000ab8:	4770      	bx	lr
 8000aba:	bf00      	nop
 8000abc:	e000ed00 	.word	0xe000ed00

08000ac0 <Reset_Handler>:

    .section  .text.Reset_Handler
  .weak  Reset_Handler
  .type  Reset_Handler, %function
Reset_Handler:  
  ldr   sp, =_estack     /* set stack pointer */
 8000ac0:	f8df d034 	ldr.w	sp, [pc, #52]	; 8000af8 <LoopFillZerobss+0x14>

/* Copy the data segment initializers from flash to SRAM */  
  movs  r1, #0
 8000ac4:	2100      	movs	r1, #0
  b  LoopCopyDataInit
 8000ac6:	e003      	b.n	8000ad0 <LoopCopyDataInit>

08000ac8 <CopyDataInit>:

CopyDataInit:
  ldr  r3, =_sidata
 8000ac8:	4b0c      	ldr	r3, [pc, #48]	; (8000afc <LoopFillZerobss+0x18>)
  ldr  r3, [r3, r1]
 8000aca:	585b      	ldr	r3, [r3, r1]
  str  r3, [r0, r1]
 8000acc:	5043      	str	r3, [r0, r1]
  adds  r1, r1, #4
 8000ace:	3104      	adds	r1, #4

08000ad0 <LoopCopyDataInit>:
    
LoopCopyDataInit:
  ldr  r0, =_sdata
 8000ad0:	480b      	ldr	r0, [pc, #44]	; (8000b00 <LoopFillZerobss+0x1c>)
  ldr  r3, =_edata
 8000ad2:	4b0c      	ldr	r3, [pc, #48]	; (8000b04 <LoopFillZerobss+0x20>)
  adds  r2, r0, r1
 8000ad4:	1842      	adds	r2, r0, r1
  cmp  r2, r3
 8000ad6:	429a      	cmp	r2, r3
  bcc  CopyDataInit
 8000ad8:	d3f6      	bcc.n	8000ac8 <CopyDataInit>
  ldr  r2, =_sbss
 8000ada:	4a0b      	ldr	r2, [pc, #44]	; (8000b08 <LoopFillZerobss+0x24>)
  b  LoopFillZerobss
 8000adc:	e002      	b.n	8000ae4 <LoopFillZerobss>

08000ade <FillZerobss>:
/* Zero fill the bss segment. */  
FillZerobss:
  movs  r3, #0
 8000ade:	2300      	movs	r3, #0
  str  r3, [r2], #4
 8000ae0:	f842 3b04 	str.w	r3, [r2], #4

08000ae4 <LoopFillZerobss>:
    
LoopFillZerobss:
  ldr  r3, = _ebss
 8000ae4:	4b09      	ldr	r3, [pc, #36]	; (8000b0c <LoopFillZerobss+0x28>)
  cmp  r2, r3
 8000ae6:	429a      	cmp	r2, r3
  bcc  FillZerobss
 8000ae8:	d3f9      	bcc.n	8000ade <FillZerobss>

/* Call the clock system intitialization function.*/
  bl  SystemInit   
 8000aea:	f7ff ffd3 	bl	8000a94 <SystemInit>
/* Call static constructors */
    bl __libc_init_array
 8000aee:	f002 fb69 	bl	80031c4 <__libc_init_array>
/* Call the application's entry point.*/
  bl  main
 8000af2:	f7ff fce9 	bl	80004c8 <main>
  bx  lr    
 8000af6:	4770      	bx	lr
  ldr   sp, =_estack     /* set stack pointer */
 8000af8:	20020000 	.word	0x20020000
  ldr  r3, =_sidata
 8000afc:	0800325c 	.word	0x0800325c
  ldr  r0, =_sdata
 8000b00:	20000000 	.word	0x20000000
  ldr  r3, =_edata
 8000b04:	2000000c 	.word	0x2000000c
  ldr  r2, =_sbss
 8000b08:	2000000c 	.word	0x2000000c
  ldr  r3, = _ebss
 8000b0c:	200000b0 	.word	0x200000b0

08000b10 <ADC_IRQHandler>:
 * @retval None       
*/
    .section  .text.Default_Handler,"ax",%progbits
Default_Handler:
Infinite_Loop:
  b  Infinite_Loop
 8000b10:	e7fe      	b.n	8000b10 <ADC_IRQHandler>
	...

08000b14 <HAL_Init>:
  *         need to ensure that the SysTick time base is always set to 1 millisecond
  *         to have correct HAL operation.
  * @retval HAL status
  */
HAL_StatusTypeDef HAL_Init(void)
{
 8000b14:	b580      	push	{r7, lr}
 8000b16:	af00      	add	r7, sp, #0
  /* Configure Flash prefetch, Instruction cache, Data cache */ 
#if (INSTRUCTION_CACHE_ENABLE != 0U)
  __HAL_FLASH_INSTRUCTION_CACHE_ENABLE();
 8000b18:	4b0e      	ldr	r3, [pc, #56]	; (8000b54 <HAL_Init+0x40>)
 8000b1a:	681b      	ldr	r3, [r3, #0]
 8000b1c:	4a0d      	ldr	r2, [pc, #52]	; (8000b54 <HAL_Init+0x40>)
 8000b1e:	f443 7300 	orr.w	r3, r3, #512	; 0x200
 8000b22:	6013      	str	r3, [r2, #0]
#endif /* INSTRUCTION_CACHE_ENABLE */

#if (DATA_CACHE_ENABLE != 0U)
  __HAL_FLASH_DATA_CACHE_ENABLE();
 8000b24:	4b0b      	ldr	r3, [pc, #44]	; (8000b54 <HAL_Init+0x40>)
 8000b26:	681b      	ldr	r3, [r3, #0]
 8000b28:	4a0a      	ldr	r2, [pc, #40]	; (8000b54 <HAL_Init+0x40>)
 8000b2a:	f443 6380 	orr.w	r3, r3, #1024	; 0x400
 8000b2e:	6013      	str	r3, [r2, #0]
#endif /* DATA_CACHE_ENABLE */

#if (PREFETCH_ENABLE != 0U)
  __HAL_FLASH_PREFETCH_BUFFER_ENABLE();
 8000b30:	4b08      	ldr	r3, [pc, #32]	; (8000b54 <HAL_Init+0x40>)
 8000b32:	681b      	ldr	r3, [r3, #0]
 8000b34:	4a07      	ldr	r2, [pc, #28]	; (8000b54 <HAL_Init+0x40>)
 8000b36:	f443 7380 	orr.w	r3, r3, #256	; 0x100
 8000b3a:	6013      	str	r3, [r2, #0]
#endif /* PREFETCH_ENABLE */

  /* Set Interrupt Group Priority */
  HAL_NVIC_SetPriorityGrouping(NVIC_PRIORITYGROUP_4);
 8000b3c:	2003      	movs	r0, #3
 8000b3e:	f000 f94d 	bl	8000ddc <HAL_NVIC_SetPriorityGrouping>

  /* Use systick as time base source and configure 1ms tick (default clock after Reset is HSI) */
  HAL_InitTick(TICK_INT_PRIORITY);
 8000b42:	2000      	movs	r0, #0
 8000b44:	f000 f808 	bl	8000b58 <HAL_InitTick>

  /* Init the low level hardware */
  HAL_MspInit();
 8000b48:	f7ff fe70 	bl	800082c <HAL_MspInit>

  /* Return function status */
  return HAL_OK;
 8000b4c:	2300      	movs	r3, #0
}
 8000b4e:	4618      	mov	r0, r3
 8000b50:	bd80      	pop	{r7, pc}
 8000b52:	bf00      	nop
 8000b54:	40023c00 	.word	0x40023c00

08000b58 <HAL_InitTick>:
  *       implementation  in user file.
  * @param TickPriority Tick interrupt priority.
  * @retval HAL status
  */
__weak HAL_StatusTypeDef HAL_InitTick(uint32_t TickPriority)
{
 8000b58:	b580      	push	{r7, lr}
 8000b5a:	b082      	sub	sp, #8
 8000b5c:	af00      	add	r7, sp, #0
 8000b5e:	6078      	str	r0, [r7, #4]
  /* Configure the SysTick to have interrupt in 1ms time basis*/
  if (HAL_SYSTICK_Config(SystemCoreClock / (1000U / uwTickFreq)) > 0U)
 8000b60:	4b12      	ldr	r3, [pc, #72]	; (8000bac <HAL_InitTick+0x54>)
 8000b62:	681a      	ldr	r2, [r3, #0]
 8000b64:	4b12      	ldr	r3, [pc, #72]	; (8000bb0 <HAL_InitTick+0x58>)
 8000b66:	781b      	ldrb	r3, [r3, #0]
 8000b68:	4619      	mov	r1, r3
 8000b6a:	f44f 737a 	mov.w	r3, #1000	; 0x3e8
 8000b6e:	fbb3 f3f1 	udiv	r3, r3, r1
 8000b72:	fbb2 f3f3 	udiv	r3, r2, r3
 8000b76:	4618      	mov	r0, r3
 8000b78:	f000 f965 	bl	8000e46 <HAL_SYSTICK_Config>
 8000b7c:	4603      	mov	r3, r0
 8000b7e:	2b00      	cmp	r3, #0
 8000b80:	d001      	beq.n	8000b86 <HAL_InitTick+0x2e>
  {
    return HAL_ERROR;
 8000b82:	2301      	movs	r3, #1
 8000b84:	e00e      	b.n	8000ba4 <HAL_InitTick+0x4c>
  }

  /* Configure the SysTick IRQ priority */
  if (TickPriority < (1UL << __NVIC_PRIO_BITS))
 8000b86:	687b      	ldr	r3, [r7, #4]
 8000b88:	2b0f      	cmp	r3, #15
 8000b8a:	d80a      	bhi.n	8000ba2 <HAL_InitTick+0x4a>
  {
    HAL_NVIC_SetPriority(SysTick_IRQn, TickPriority, 0U);
 8000b8c:	2200      	movs	r2, #0
 8000b8e:	6879      	ldr	r1, [r7, #4]
 8000b90:	f04f 30ff 	mov.w	r0, #4294967295
 8000b94:	f000 f92d 	bl	8000df2 <HAL_NVIC_SetPriority>
    uwTickPrio = TickPriority;
 8000b98:	4a06      	ldr	r2, [pc, #24]	; (8000bb4 <HAL_InitTick+0x5c>)
 8000b9a:	687b      	ldr	r3, [r7, #4]
 8000b9c:	6013      	str	r3, [r2, #0]
  {
    return HAL_ERROR;
  }

  /* Return function status */
  return HAL_OK;
 8000b9e:	2300      	movs	r3, #0
 8000ba0:	e000      	b.n	8000ba4 <HAL_InitTick+0x4c>
    return HAL_ERROR;
 8000ba2:	2301      	movs	r3, #1
}
 8000ba4:	4618      	mov	r0, r3
 8000ba6:	3708      	adds	r7, #8
 8000ba8:	46bd      	mov	sp, r7
 8000baa:	bd80      	pop	{r7, pc}
 8000bac:	20000000 	.word	0x20000000
 8000bb0:	20000008 	.word	0x20000008
 8000bb4:	20000004 	.word	0x20000004

08000bb8 <HAL_IncTick>:
 * @note This function is declared as __weak to be overwritten in case of other 
  *      implementations in user file.
  * @retval None
  */
__weak void HAL_IncTick(void)
{
 8000bb8:	b480      	push	{r7}
 8000bba:	af00      	add	r7, sp, #0
  uwTick += uwTickFreq;
 8000bbc:	4b06      	ldr	r3, [pc, #24]	; (8000bd8 <HAL_IncTick+0x20>)
 8000bbe:	781b      	ldrb	r3, [r3, #0]
 8000bc0:	461a      	mov	r2, r3
 8000bc2:	4b06      	ldr	r3, [pc, #24]	; (8000bdc <HAL_IncTick+0x24>)
 8000bc4:	681b      	ldr	r3, [r3, #0]
 8000bc6:	4413      	add	r3, r2
 8000bc8:	4a04      	ldr	r2, [pc, #16]	; (8000bdc <HAL_IncTick+0x24>)
 8000bca:	6013      	str	r3, [r2, #0]
}
 8000bcc:	bf00      	nop
 8000bce:	46bd      	mov	sp, r7
 8000bd0:	f85d 7b04 	ldr.w	r7, [sp], #4
 8000bd4:	4770      	bx	lr
 8000bd6:	bf00      	nop
 8000bd8:	20000008 	.word	0x20000008
 8000bdc:	200000ac 	.word	0x200000ac

08000be0 <HAL_GetTick>:
  * @note This function is declared as __weak to be overwritten in case of other 
  *       implementations in user file.
  * @retval tick value
  */
__weak uint32_t HAL_GetTick(void)
{
 8000be0:	b480      	push	{r7}
 8000be2:	af00      	add	r7, sp, #0
  return uwTick;
 8000be4:	4b03      	ldr	r3, [pc, #12]	; (8000bf4 <HAL_GetTick+0x14>)
 8000be6:	681b      	ldr	r3, [r3, #0]
}
 8000be8:	4618      	mov	r0, r3
 8000bea:	46bd      	mov	sp, r7
 8000bec:	f85d 7b04 	ldr.w	r7, [sp], #4
 8000bf0:	4770      	bx	lr
 8000bf2:	bf00      	nop
 8000bf4:	200000ac 	.word	0x200000ac

08000bf8 <HAL_Delay>:
  *       implementations in user file.
  * @param Delay specifies the delay time length, in milliseconds.
  * @retval None
  */
__weak void HAL_Delay(uint32_t Delay)
{
 8000bf8:	b580      	push	{r7, lr}
 8000bfa:	b084      	sub	sp, #16
 8000bfc:	af00      	add	r7, sp, #0
 8000bfe:	6078      	str	r0, [r7, #4]
  uint32_t tickstart = HAL_GetTick();
 8000c00:	f7ff ffee 	bl	8000be0 <HAL_GetTick>
 8000c04:	60b8      	str	r0, [r7, #8]
  uint32_t wait = Delay;
 8000c06:	687b      	ldr	r3, [r7, #4]
 8000c08:	60fb      	str	r3, [r7, #12]

  /* Add a freq to guarantee minimum wait */
  if (wait < HAL_MAX_DELAY)
 8000c0a:	68fb      	ldr	r3, [r7, #12]
 8000c0c:	f1b3 3fff 	cmp.w	r3, #4294967295
 8000c10:	d005      	beq.n	8000c1e <HAL_Delay+0x26>
  {
    wait += (uint32_t)(uwTickFreq);
 8000c12:	4b09      	ldr	r3, [pc, #36]	; (8000c38 <HAL_Delay+0x40>)
 8000c14:	781b      	ldrb	r3, [r3, #0]
 8000c16:	461a      	mov	r2, r3
 8000c18:	68fb      	ldr	r3, [r7, #12]
 8000c1a:	4413      	add	r3, r2
 8000c1c:	60fb      	str	r3, [r7, #12]
  }

  while((HAL_GetTick() - tickstart) < wait)
 8000c1e:	bf00      	nop
 8000c20:	f7ff ffde 	bl	8000be0 <HAL_GetTick>
 8000c24:	4602      	mov	r2, r0
 8000c26:	68bb      	ldr	r3, [r7, #8]
 8000c28:	1ad3      	subs	r3, r2, r3
 8000c2a:	68fa      	ldr	r2, [r7, #12]
 8000c2c:	429a      	cmp	r2, r3
 8000c2e:	d8f7      	bhi.n	8000c20 <HAL_Delay+0x28>
  {
  }
}
 8000c30:	bf00      	nop
 8000c32:	3710      	adds	r7, #16
 8000c34:	46bd      	mov	sp, r7
 8000c36:	bd80      	pop	{r7, pc}
 8000c38:	20000008 	.word	0x20000008

08000c3c <__NVIC_SetPriorityGrouping>:
           In case of a conflict between priority grouping and available
           priority bits (__NVIC_PRIO_BITS), the smallest possible priority group is set.
  \param [in]      PriorityGroup  Priority grouping field.
 */
__STATIC_INLINE void __NVIC_SetPriorityGrouping(uint32_t PriorityGroup)
{
 8000c3c:	b480      	push	{r7}
 8000c3e:	b085      	sub	sp, #20
 8000c40:	af00      	add	r7, sp, #0
 8000c42:	6078      	str	r0, [r7, #4]
  uint32_t reg_value;
  uint32_t PriorityGroupTmp = (PriorityGroup & (uint32_t)0x07UL);             /* only values 0..7 are used          */
 8000c44:	687b      	ldr	r3, [r7, #4]
 8000c46:	f003 0307 	and.w	r3, r3, #7
 8000c4a:	60fb      	str	r3, [r7, #12]

  reg_value  =  SCB->AIRCR;                                                   /* read old register configuration    */
 8000c4c:	4b0c      	ldr	r3, [pc, #48]	; (8000c80 <__NVIC_SetPriorityGrouping+0x44>)
 8000c4e:	68db      	ldr	r3, [r3, #12]
 8000c50:	60bb      	str	r3, [r7, #8]
  reg_value &= ~((uint32_t)(SCB_AIRCR_VECTKEY_Msk | SCB_AIRCR_PRIGROUP_Msk)); /* clear bits to change               */
 8000c52:	68ba      	ldr	r2, [r7, #8]
 8000c54:	f64f 03ff 	movw	r3, #63743	; 0xf8ff
 8000c58:	4013      	ands	r3, r2
 8000c5a:	60bb      	str	r3, [r7, #8]
  reg_value  =  (reg_value                                   |
                ((uint32_t)0x5FAUL << SCB_AIRCR_VECTKEY_Pos) |
                (PriorityGroupTmp << SCB_AIRCR_PRIGROUP_Pos)  );              /* Insert write key and priority group */
 8000c5c:	68fb      	ldr	r3, [r7, #12]
 8000c5e:	021a      	lsls	r2, r3, #8
                ((uint32_t)0x5FAUL << SCB_AIRCR_VECTKEY_Pos) |
 8000c60:	68bb      	ldr	r3, [r7, #8]
 8000c62:	4313      	orrs	r3, r2
  reg_value  =  (reg_value                                   |
 8000c64:	f043 63bf 	orr.w	r3, r3, #100139008	; 0x5f80000
 8000c68:	f443 3300 	orr.w	r3, r3, #131072	; 0x20000
 8000c6c:	60bb      	str	r3, [r7, #8]
  SCB->AIRCR =  reg_value;
 8000c6e:	4a04      	ldr	r2, [pc, #16]	; (8000c80 <__NVIC_SetPriorityGrouping+0x44>)
 8000c70:	68bb      	ldr	r3, [r7, #8]
 8000c72:	60d3      	str	r3, [r2, #12]
}
 8000c74:	bf00      	nop
 8000c76:	3714      	adds	r7, #20
 8000c78:	46bd      	mov	sp, r7
 8000c7a:	f85d 7b04 	ldr.w	r7, [sp], #4
 8000c7e:	4770      	bx	lr
 8000c80:	e000ed00 	.word	0xe000ed00

08000c84 <__NVIC_GetPriorityGrouping>:
  \brief   Get Priority Grouping
  \details Reads the priority grouping field from the NVIC Interrupt Controller.
  \return                Priority grouping field (SCB->AIRCR [10:8] PRIGROUP field).
 */
__STATIC_INLINE uint32_t __NVIC_GetPriorityGrouping(void)
{
 8000c84:	b480      	push	{r7}
 8000c86:	af00      	add	r7, sp, #0
  return ((uint32_t)((SCB->AIRCR & SCB_AIRCR_PRIGROUP_Msk) >> SCB_AIRCR_PRIGROUP_Pos));
 8000c88:	4b04      	ldr	r3, [pc, #16]	; (8000c9c <__NVIC_GetPriorityGrouping+0x18>)
 8000c8a:	68db      	ldr	r3, [r3, #12]
 8000c8c:	0a1b      	lsrs	r3, r3, #8
 8000c8e:	f003 0307 	and.w	r3, r3, #7
}
 8000c92:	4618      	mov	r0, r3
 8000c94:	46bd      	mov	sp, r7
 8000c96:	f85d 7b04 	ldr.w	r7, [sp], #4
 8000c9a:	4770      	bx	lr
 8000c9c:	e000ed00 	.word	0xe000ed00

08000ca0 <__NVIC_EnableIRQ>:
  \details Enables a device specific interrupt in the NVIC interrupt controller.
  \param [in]      IRQn  Device specific interrupt number.
  \note    IRQn must not be negative.
 */
__STATIC_INLINE void __NVIC_EnableIRQ(IRQn_Type IRQn)
{
 8000ca0:	b480      	push	{r7}
 8000ca2:	b083      	sub	sp, #12
 8000ca4:	af00      	add	r7, sp, #0
 8000ca6:	4603      	mov	r3, r0
 8000ca8:	71fb      	strb	r3, [r7, #7]
  if ((int32_t)(IRQn) >= 0)
 8000caa:	f997 3007 	ldrsb.w	r3, [r7, #7]
 8000cae:	2b00      	cmp	r3, #0
 8000cb0:	db0b      	blt.n	8000cca <__NVIC_EnableIRQ+0x2a>
  {
    NVIC->ISER[(((uint32_t)IRQn) >> 5UL)] = (uint32_t)(1UL << (((uint32_t)IRQn) & 0x1FUL));
 8000cb2:	79fb      	ldrb	r3, [r7, #7]
 8000cb4:	f003 021f 	and.w	r2, r3, #31
 8000cb8:	4907      	ldr	r1, [pc, #28]	; (8000cd8 <__NVIC_EnableIRQ+0x38>)
 8000cba:	f997 3007 	ldrsb.w	r3, [r7, #7]
 8000cbe:	095b      	lsrs	r3, r3, #5
 8000cc0:	2001      	movs	r0, #1
 8000cc2:	fa00 f202 	lsl.w	r2, r0, r2
 8000cc6:	f841 2023 	str.w	r2, [r1, r3, lsl #2]
  }
}
 8000cca:	bf00      	nop
 8000ccc:	370c      	adds	r7, #12
 8000cce:	46bd      	mov	sp, r7
 8000cd0:	f85d 7b04 	ldr.w	r7, [sp], #4
 8000cd4:	4770      	bx	lr
 8000cd6:	bf00      	nop
 8000cd8:	e000e100 	.word	0xe000e100

08000cdc <__NVIC_SetPriority>:
  \param [in]      IRQn  Interrupt number.
  \param [in]  priority  Priority to set.
  \note    The priority cannot be set for every processor exception.
 */
__STATIC_INLINE void __NVIC_SetPriority(IRQn_Type IRQn, uint32_t priority)
{
 8000cdc:	b480      	push	{r7}
 8000cde:	b083      	sub	sp, #12
 8000ce0:	af00      	add	r7, sp, #0
 8000ce2:	4603      	mov	r3, r0
 8000ce4:	6039      	str	r1, [r7, #0]
 8000ce6:	71fb      	strb	r3, [r7, #7]
  if ((int32_t)(IRQn) >= 0)
 8000ce8:	f997 3007 	ldrsb.w	r3, [r7, #7]
 8000cec:	2b00      	cmp	r3, #0
 8000cee:	db0a      	blt.n	8000d06 <__NVIC_SetPriority+0x2a>
  {
    NVIC->IP[((uint32_t)IRQn)]               = (uint8_t)((priority << (8U - __NVIC_PRIO_BITS)) & (uint32_t)0xFFUL);
 8000cf0:	683b      	ldr	r3, [r7, #0]
 8000cf2:	b2da      	uxtb	r2, r3
 8000cf4:	490c      	ldr	r1, [pc, #48]	; (8000d28 <__NVIC_SetPriority+0x4c>)
 8000cf6:	f997 3007 	ldrsb.w	r3, [r7, #7]
 8000cfa:	0112      	lsls	r2, r2, #4
 8000cfc:	b2d2      	uxtb	r2, r2
 8000cfe:	440b      	add	r3, r1
 8000d00:	f883 2300 	strb.w	r2, [r3, #768]	; 0x300
  }
  else
  {
    SCB->SHP[(((uint32_t)IRQn) & 0xFUL)-4UL] = (uint8_t)((priority << (8U - __NVIC_PRIO_BITS)) & (uint32_t)0xFFUL);
  }
}
 8000d04:	e00a      	b.n	8000d1c <__NVIC_SetPriority+0x40>
    SCB->SHP[(((uint32_t)IRQn) & 0xFUL)-4UL] = (uint8_t)((priority << (8U - __NVIC_PRIO_BITS)) & (uint32_t)0xFFUL);
 8000d06:	683b      	ldr	r3, [r7, #0]
 8000d08:	b2da      	uxtb	r2, r3
 8000d0a:	4908      	ldr	r1, [pc, #32]	; (8000d2c <__NVIC_SetPriority+0x50>)
 8000d0c:	79fb      	ldrb	r3, [r7, #7]
 8000d0e:	f003 030f 	and.w	r3, r3, #15
 8000d12:	3b04      	subs	r3, #4
 8000d14:	0112      	lsls	r2, r2, #4
 8000d16:	b2d2      	uxtb	r2, r2
 8000d18:	440b      	add	r3, r1
 8000d1a:	761a      	strb	r2, [r3, #24]
}
 8000d1c:	bf00      	nop
 8000d1e:	370c      	adds	r7, #12
 8000d20:	46bd      	mov	sp, r7
 8000d22:	f85d 7b04 	ldr.w	r7, [sp], #4
 8000d26:	4770      	bx	lr
 8000d28:	e000e100 	.word	0xe000e100
 8000d2c:	e000ed00 	.word	0xe000ed00

08000d30 <NVIC_EncodePriority>:
  \param [in]   PreemptPriority  Preemptive priority value (starting from 0).
  \param [in]       SubPriority  Subpriority value (starting from 0).
  \return                        Encoded priority. Value can be used in the function \ref NVIC_SetPriority().
 */
__STATIC_INLINE uint32_t NVIC_EncodePriority (uint32_t PriorityGroup, uint32_t PreemptPriority, uint32_t SubPriority)
{
 8000d30:	b480      	push	{r7}
 8000d32:	b089      	sub	sp, #36	; 0x24
 8000d34:	af00      	add	r7, sp, #0
 8000d36:	60f8      	str	r0, [r7, #12]
 8000d38:	60b9      	str	r1, [r7, #8]
 8000d3a:	607a      	str	r2, [r7, #4]
  uint32_t PriorityGroupTmp = (PriorityGroup & (uint32_t)0x07UL);   /* only values 0..7 are used          */
 8000d3c:	68fb      	ldr	r3, [r7, #12]
 8000d3e:	f003 0307 	and.w	r3, r3, #7
 8000d42:	61fb      	str	r3, [r7, #28]
  uint32_t PreemptPriorityBits;
  uint32_t SubPriorityBits;

  PreemptPriorityBits = ((7UL - PriorityGroupTmp) > (uint32_t)(__NVIC_PRIO_BITS)) ? (uint32_t)(__NVIC_PRIO_BITS) : (uint32_t)(7UL - PriorityGroupTmp);
 8000d44:	69fb      	ldr	r3, [r7, #28]
 8000d46:	f1c3 0307 	rsb	r3, r3, #7
 8000d4a:	2b04      	cmp	r3, #4
 8000d4c:	bf28      	it	cs
 8000d4e:	2304      	movcs	r3, #4
 8000d50:	61bb      	str	r3, [r7, #24]
  SubPriorityBits     = ((PriorityGroupTmp + (uint32_t)(__NVIC_PRIO_BITS)) < (uint32_t)7UL) ? (uint32_t)0UL : (uint32_t)((PriorityGroupTmp - 7UL) + (uint32_t)(__NVIC_PRIO_BITS));
 8000d52:	69fb      	ldr	r3, [r7, #28]
 8000d54:	3304      	adds	r3, #4
 8000d56:	2b06      	cmp	r3, #6
 8000d58:	d902      	bls.n	8000d60 <NVIC_EncodePriority+0x30>
 8000d5a:	69fb      	ldr	r3, [r7, #28]
 8000d5c:	3b03      	subs	r3, #3
 8000d5e:	e000      	b.n	8000d62 <NVIC_EncodePriority+0x32>
 8000d60:	2300      	movs	r3, #0
 8000d62:	617b      	str	r3, [r7, #20]

  return (
           ((PreemptPriority & (uint32_t)((1UL << (PreemptPriorityBits)) - 1UL)) << SubPriorityBits) |
 8000d64:	f04f 32ff 	mov.w	r2, #4294967295
 8000d68:	69bb      	ldr	r3, [r7, #24]
 8000d6a:	fa02 f303 	lsl.w	r3, r2, r3
 8000d6e:	43da      	mvns	r2, r3
 8000d70:	68bb      	ldr	r3, [r7, #8]
 8000d72:	401a      	ands	r2, r3
 8000d74:	697b      	ldr	r3, [r7, #20]
 8000d76:	409a      	lsls	r2, r3
           ((SubPriority     & (uint32_t)((1UL << (SubPriorityBits    )) - 1UL)))
 8000d78:	f04f 31ff 	mov.w	r1, #4294967295
 8000d7c:	697b      	ldr	r3, [r7, #20]
 8000d7e:	fa01 f303 	lsl.w	r3, r1, r3
 8000d82:	43d9      	mvns	r1, r3
 8000d84:	687b      	ldr	r3, [r7, #4]
 8000d86:	400b      	ands	r3, r1
           ((PreemptPriority & (uint32_t)((1UL << (PreemptPriorityBits)) - 1UL)) << SubPriorityBits) |
 8000d88:	4313      	orrs	r3, r2
         );
}
 8000d8a:	4618      	mov	r0, r3
 8000d8c:	3724      	adds	r7, #36	; 0x24
 8000d8e:	46bd      	mov	sp, r7
 8000d90:	f85d 7b04 	ldr.w	r7, [sp], #4
 8000d94:	4770      	bx	lr
	...

08000d98 <SysTick_Config>:
  \note    When the variable <b>__Vendor_SysTickConfig</b> is set to 1, then the
           function <b>SysTick_Config</b> is not included. In this case, the file <b><i>device</i>.h</b>
           must contain a vendor-specific implementation of this function.
 */
__STATIC_INLINE uint32_t SysTick_Config(uint32_t ticks)
{
 8000d98:	b580      	push	{r7, lr}
 8000d9a:	b082      	sub	sp, #8
 8000d9c:	af00      	add	r7, sp, #0
 8000d9e:	6078      	str	r0, [r7, #4]
  if ((ticks - 1UL) > SysTick_LOAD_RELOAD_Msk)
 8000da0:	687b      	ldr	r3, [r7, #4]
 8000da2:	3b01      	subs	r3, #1
 8000da4:	f1b3 7f80 	cmp.w	r3, #16777216	; 0x1000000
 8000da8:	d301      	bcc.n	8000dae <SysTick_Config+0x16>
  {
    return (1UL);                                                   /* Reload value impossible */
 8000daa:	2301      	movs	r3, #1
 8000dac:	e00f      	b.n	8000dce <SysTick_Config+0x36>
  }

  SysTick->LOAD  = (uint32_t)(ticks - 1UL);                         /* set reload register */
 8000dae:	4a0a      	ldr	r2, [pc, #40]	; (8000dd8 <SysTick_Config+0x40>)
 8000db0:	687b      	ldr	r3, [r7, #4]
 8000db2:	3b01      	subs	r3, #1
 8000db4:	6053      	str	r3, [r2, #4]
  NVIC_SetPriority (SysTick_IRQn, (1UL << __NVIC_PRIO_BITS) - 1UL); /* set Priority for Systick Interrupt */
 8000db6:	210f      	movs	r1, #15
 8000db8:	f04f 30ff 	mov.w	r0, #4294967295
 8000dbc:	f7ff ff8e 	bl	8000cdc <__NVIC_SetPriority>
  SysTick->VAL   = 0UL;                                             /* Load the SysTick Counter Value */
 8000dc0:	4b05      	ldr	r3, [pc, #20]	; (8000dd8 <SysTick_Config+0x40>)
 8000dc2:	2200      	movs	r2, #0
 8000dc4:	609a      	str	r2, [r3, #8]
  SysTick->CTRL  = SysTick_CTRL_CLKSOURCE_Msk |
 8000dc6:	4b04      	ldr	r3, [pc, #16]	; (8000dd8 <SysTick_Config+0x40>)
 8000dc8:	2207      	movs	r2, #7
 8000dca:	601a      	str	r2, [r3, #0]
                   SysTick_CTRL_TICKINT_Msk   |
                   SysTick_CTRL_ENABLE_Msk;                         /* Enable SysTick IRQ and SysTick Timer */
  return (0UL);                                                     /* Function successful */
 8000dcc:	2300      	movs	r3, #0
}
 8000dce:	4618      	mov	r0, r3
 8000dd0:	3708      	adds	r7, #8
 8000dd2:	46bd      	mov	sp, r7
 8000dd4:	bd80      	pop	{r7, pc}
 8000dd6:	bf00      	nop
 8000dd8:	e000e010 	.word	0xe000e010

08000ddc <HAL_NVIC_SetPriorityGrouping>:
  * @note   When the NVIC_PriorityGroup_0 is selected, IRQ preemption is no more possible. 
  *         The pending IRQ priority will be managed only by the subpriority. 
  * @retval None
  */
void HAL_NVIC_SetPriorityGrouping(uint32_t PriorityGroup)
{
 8000ddc:	b580      	push	{r7, lr}
 8000dde:	b082      	sub	sp, #8
 8000de0:	af00      	add	r7, sp, #0
 8000de2:	6078      	str	r0, [r7, #4]
  /* Check the parameters */
  assert_param(IS_NVIC_PRIORITY_GROUP(PriorityGroup));
  
  /* Set the PRIGROUP[10:8] bits according to the PriorityGroup parameter value */
  NVIC_SetPriorityGrouping(PriorityGroup);
 8000de4:	6878      	ldr	r0, [r7, #4]
 8000de6:	f7ff ff29 	bl	8000c3c <__NVIC_SetPriorityGrouping>
}
 8000dea:	bf00      	nop
 8000dec:	3708      	adds	r7, #8
 8000dee:	46bd      	mov	sp, r7
 8000df0:	bd80      	pop	{r7, pc}

08000df2 <HAL_NVIC_SetPriority>:
  *         This parameter can be a value between 0 and 15
  *         A lower priority value indicates a higher priority.          
  * @retval None
  */
void HAL_NVIC_SetPriority(IRQn_Type IRQn, uint32_t PreemptPriority, uint32_t SubPriority)
{ 
 8000df2:	b580      	push	{r7, lr}
 8000df4:	b086      	sub	sp, #24
 8000df6:	af00      	add	r7, sp, #0
 8000df8:	4603      	mov	r3, r0
 8000dfa:	60b9      	str	r1, [r7, #8]
 8000dfc:	607a      	str	r2, [r7, #4]
 8000dfe:	73fb      	strb	r3, [r7, #15]
  uint32_t prioritygroup = 0x00U;
 8000e00:	2300      	movs	r3, #0
 8000e02:	617b      	str	r3, [r7, #20]
  
  /* Check the parameters */
  assert_param(IS_NVIC_SUB_PRIORITY(SubPriority));
  assert_param(IS_NVIC_PREEMPTION_PRIORITY(PreemptPriority));
  
  prioritygroup = NVIC_GetPriorityGrouping();
 8000e04:	f7ff ff3e 	bl	8000c84 <__NVIC_GetPriorityGrouping>
 8000e08:	6178      	str	r0, [r7, #20]
  
  NVIC_SetPriority(IRQn, NVIC_EncodePriority(prioritygroup, PreemptPriority, SubPriority));
 8000e0a:	687a      	ldr	r2, [r7, #4]
 8000e0c:	68b9      	ldr	r1, [r7, #8]
 8000e0e:	6978      	ldr	r0, [r7, #20]
 8000e10:	f7ff ff8e 	bl	8000d30 <NVIC_EncodePriority>
 8000e14:	4602      	mov	r2, r0
 8000e16:	f997 300f 	ldrsb.w	r3, [r7, #15]
 8000e1a:	4611      	mov	r1, r2
 8000e1c:	4618      	mov	r0, r3
 8000e1e:	f7ff ff5d 	bl	8000cdc <__NVIC_SetPriority>
}
 8000e22:	bf00      	nop
 8000e24:	3718      	adds	r7, #24
 8000e26:	46bd      	mov	sp, r7
 8000e28:	bd80      	pop	{r7, pc}

08000e2a <HAL_NVIC_EnableIRQ>:
  *         This parameter can be an enumerator of IRQn_Type enumeration
  *         (For the complete STM32 Devices IRQ Channels list, please refer to the appropriate CMSIS device file (stm32f4xxxx.h))
  * @retval None
  */
void HAL_NVIC_EnableIRQ(IRQn_Type IRQn)
{
 8000e2a:	b580      	push	{r7, lr}
 8000e2c:	b082      	sub	sp, #8
 8000e2e:	af00      	add	r7, sp, #0
 8000e30:	4603      	mov	r3, r0
 8000e32:	71fb      	strb	r3, [r7, #7]
  /* Check the parameters */
  assert_param(IS_NVIC_DEVICE_IRQ(IRQn));
  
  /* Enable interrupt */
  NVIC_EnableIRQ(IRQn);
 8000e34:	f997 3007 	ldrsb.w	r3, [r7, #7]
 8000e38:	4618      	mov	r0, r3
 8000e3a:	f7ff ff31 	bl	8000ca0 <__NVIC_EnableIRQ>
}
 8000e3e:	bf00      	nop
 8000e40:	3708      	adds	r7, #8
 8000e42:	46bd      	mov	sp, r7
 8000e44:	bd80      	pop	{r7, pc}

08000e46 <HAL_SYSTICK_Config>:
  * @param  TicksNumb Specifies the ticks Number of ticks between two interrupts.
  * @retval status:  - 0  Function succeeded.
  *                  - 1  Function failed.
  */
uint32_t HAL_SYSTICK_Config(uint32_t TicksNumb)
{
 8000e46:	b580      	push	{r7, lr}
 8000e48:	b082      	sub	sp, #8
 8000e4a:	af00      	add	r7, sp, #0
 8000e4c:	6078      	str	r0, [r7, #4]
   return SysTick_Config(TicksNumb);
 8000e4e:	6878      	ldr	r0, [r7, #4]
 8000e50:	f7ff ffa2 	bl	8000d98 <SysTick_Config>
 8000e54:	4603      	mov	r3, r0
}
 8000e56:	4618      	mov	r0, r3
 8000e58:	3708      	adds	r7, #8
 8000e5a:	46bd      	mov	sp, r7
 8000e5c:	bd80      	pop	{r7, pc}

08000e5e <HAL_DMA_Abort_IT>:
  * @param  hdma   pointer to a DMA_HandleTypeDef structure that contains
  *                 the configuration information for the specified DMA Stream.
  * @retval HAL status
  */
HAL_StatusTypeDef HAL_DMA_Abort_IT(DMA_HandleTypeDef *hdma)
{
 8000e5e:	b480      	push	{r7}
 8000e60:	b083      	sub	sp, #12
 8000e62:	af00      	add	r7, sp, #0
 8000e64:	6078      	str	r0, [r7, #4]
  if(hdma->State != HAL_DMA_STATE_BUSY)
 8000e66:	687b      	ldr	r3, [r7, #4]
 8000e68:	f893 3035 	ldrb.w	r3, [r3, #53]	; 0x35
 8000e6c:	b2db      	uxtb	r3, r3
 8000e6e:	2b02      	cmp	r3, #2
 8000e70:	d004      	beq.n	8000e7c <HAL_DMA_Abort_IT+0x1e>
  {
    hdma->ErrorCode = HAL_DMA_ERROR_NO_XFER;
 8000e72:	687b      	ldr	r3, [r7, #4]
 8000e74:	2280      	movs	r2, #128	; 0x80
 8000e76:	655a      	str	r2, [r3, #84]	; 0x54
    return HAL_ERROR;
 8000e78:	2301      	movs	r3, #1
 8000e7a:	e00c      	b.n	8000e96 <HAL_DMA_Abort_IT+0x38>
  }
  else
  {
    /* Set Abort State  */
    hdma->State = HAL_DMA_STATE_ABORT;
 8000e7c:	687b      	ldr	r3, [r7, #4]
 8000e7e:	2205      	movs	r2, #5
 8000e80:	f883 2035 	strb.w	r2, [r3, #53]	; 0x35
    
    /* Disable the stream */
    __HAL_DMA_DISABLE(hdma);
 8000e84:	687b      	ldr	r3, [r7, #4]
 8000e86:	681b      	ldr	r3, [r3, #0]
 8000e88:	681a      	ldr	r2, [r3, #0]
 8000e8a:	687b      	ldr	r3, [r7, #4]
 8000e8c:	681b      	ldr	r3, [r3, #0]
 8000e8e:	f022 0201 	bic.w	r2, r2, #1
 8000e92:	601a      	str	r2, [r3, #0]
  }

  return HAL_OK;
 8000e94:	2300      	movs	r3, #0
}
 8000e96:	4618      	mov	r0, r3
 8000e98:	370c      	adds	r7, #12
 8000e9a:	46bd      	mov	sp, r7
 8000e9c:	f85d 7b04 	ldr.w	r7, [sp], #4
 8000ea0:	4770      	bx	lr
	...

08000ea4 <HAL_GPIO_Init>:
  * @param  GPIO_Init pointer to a GPIO_InitTypeDef structure that contains
  *         the configuration information for the specified GPIO peripheral.
  * @retval None
  */
void HAL_GPIO_Init(GPIO_TypeDef  *GPIOx, GPIO_InitTypeDef *GPIO_Init)
{
 8000ea4:	b480      	push	{r7}
 8000ea6:	b089      	sub	sp, #36	; 0x24
 8000ea8:	af00      	add	r7, sp, #0
 8000eaa:	6078      	str	r0, [r7, #4]
 8000eac:	6039      	str	r1, [r7, #0]
  uint32_t position;
  uint32_t ioposition = 0x00U;
 8000eae:	2300      	movs	r3, #0
 8000eb0:	617b      	str	r3, [r7, #20]
  uint32_t iocurrent = 0x00U;
 8000eb2:	2300      	movs	r3, #0
 8000eb4:	613b      	str	r3, [r7, #16]
  uint32_t temp = 0x00U;
 8000eb6:	2300      	movs	r3, #0
 8000eb8:	61bb      	str	r3, [r7, #24]
  assert_param(IS_GPIO_PIN(GPIO_Init->Pin));
  assert_param(IS_GPIO_MODE(GPIO_Init->Mode));
  assert_param(IS_GPIO_PULL(GPIO_Init->Pull));

  /* Configure the port pins */
  for(position = 0U; position < GPIO_NUMBER; position++)
 8000eba:	2300      	movs	r3, #0
 8000ebc:	61fb      	str	r3, [r7, #28]
 8000ebe:	e16b      	b.n	8001198 <HAL_GPIO_Init+0x2f4>
  {
    /* Get the IO position */
    ioposition = 0x01U << position;
 8000ec0:	2201      	movs	r2, #1
 8000ec2:	69fb      	ldr	r3, [r7, #28]
 8000ec4:	fa02 f303 	lsl.w	r3, r2, r3
 8000ec8:	617b      	str	r3, [r7, #20]
    /* Get the current IO position */
    iocurrent = (uint32_t)(GPIO_Init->Pin) & ioposition;
 8000eca:	683b      	ldr	r3, [r7, #0]
 8000ecc:	681b      	ldr	r3, [r3, #0]
 8000ece:	697a      	ldr	r2, [r7, #20]
 8000ed0:	4013      	ands	r3, r2
 8000ed2:	613b      	str	r3, [r7, #16]

    if(iocurrent == ioposition)
 8000ed4:	693a      	ldr	r2, [r7, #16]
 8000ed6:	697b      	ldr	r3, [r7, #20]
 8000ed8:	429a      	cmp	r2, r3
 8000eda:	f040 815a 	bne.w	8001192 <HAL_GPIO_Init+0x2ee>
    {
      /*--------------------- GPIO Mode Configuration ------------------------*/
      /* In case of Output or Alternate function mode selection */
      if((GPIO_Init->Mode == GPIO_MODE_OUTPUT_PP) || (GPIO_Init->Mode == GPIO_MODE_AF_PP) ||
 8000ede:	683b      	ldr	r3, [r7, #0]
 8000ee0:	685b      	ldr	r3, [r3, #4]
 8000ee2:	2b01      	cmp	r3, #1
 8000ee4:	d00b      	beq.n	8000efe <HAL_GPIO_Init+0x5a>
 8000ee6:	683b      	ldr	r3, [r7, #0]
 8000ee8:	685b      	ldr	r3, [r3, #4]
 8000eea:	2b02      	cmp	r3, #2
 8000eec:	d007      	beq.n	8000efe <HAL_GPIO_Init+0x5a>
         (GPIO_Init->Mode == GPIO_MODE_OUTPUT_OD) || (GPIO_Init->Mode == GPIO_MODE_AF_OD))
 8000eee:	683b      	ldr	r3, [r7, #0]
 8000ef0:	685b      	ldr	r3, [r3, #4]
      if((GPIO_Init->Mode == GPIO_MODE_OUTPUT_PP) || (GPIO_Init->Mode == GPIO_MODE_AF_PP) ||
 8000ef2:	2b11      	cmp	r3, #17
 8000ef4:	d003      	beq.n	8000efe <HAL_GPIO_Init+0x5a>
         (GPIO_Init->Mode == GPIO_MODE_OUTPUT_OD) || (GPIO_Init->Mode == GPIO_MODE_AF_OD))
 8000ef6:	683b      	ldr	r3, [r7, #0]
 8000ef8:	685b      	ldr	r3, [r3, #4]
 8000efa:	2b12      	cmp	r3, #18
 8000efc:	d130      	bne.n	8000f60 <HAL_GPIO_Init+0xbc>
      {
        /* Check the Speed parameter */
        assert_param(IS_GPIO_SPEED(GPIO_Init->Speed));
        /* Configure the IO Speed */
        temp = GPIOx->OSPEEDR; 
 8000efe:	687b      	ldr	r3, [r7, #4]
 8000f00:	689b      	ldr	r3, [r3, #8]
 8000f02:	61bb      	str	r3, [r7, #24]
        temp &= ~(GPIO_OSPEEDER_OSPEEDR0 << (position * 2U));
 8000f04:	69fb      	ldr	r3, [r7, #28]
 8000f06:	005b      	lsls	r3, r3, #1
 8000f08:	2203      	movs	r2, #3
 8000f0a:	fa02 f303 	lsl.w	r3, r2, r3
 8000f0e:	43db      	mvns	r3, r3
 8000f10:	69ba      	ldr	r2, [r7, #24]
 8000f12:	4013      	ands	r3, r2
 8000f14:	61bb      	str	r3, [r7, #24]
        temp |= (GPIO_Init->Speed << (position * 2U));
 8000f16:	683b      	ldr	r3, [r7, #0]
 8000f18:	68da      	ldr	r2, [r3, #12]
 8000f1a:	69fb      	ldr	r3, [r7, #28]
 8000f1c:	005b      	lsls	r3, r3, #1
 8000f1e:	fa02 f303 	lsl.w	r3, r2, r3
 8000f22:	69ba      	ldr	r2, [r7, #24]
 8000f24:	4313      	orrs	r3, r2
 8000f26:	61bb      	str	r3, [r7, #24]
        GPIOx->OSPEEDR = temp;
 8000f28:	687b      	ldr	r3, [r7, #4]
 8000f2a:	69ba      	ldr	r2, [r7, #24]
 8000f2c:	609a      	str	r2, [r3, #8]

        /* Configure the IO Output Type */
        temp = GPIOx->OTYPER;
 8000f2e:	687b      	ldr	r3, [r7, #4]
 8000f30:	685b      	ldr	r3, [r3, #4]
 8000f32:	61bb      	str	r3, [r7, #24]
        temp &= ~(GPIO_OTYPER_OT_0 << position) ;
 8000f34:	2201      	movs	r2, #1
 8000f36:	69fb      	ldr	r3, [r7, #28]
 8000f38:	fa02 f303 	lsl.w	r3, r2, r3
 8000f3c:	43db      	mvns	r3, r3
 8000f3e:	69ba      	ldr	r2, [r7, #24]
 8000f40:	4013      	ands	r3, r2
 8000f42:	61bb      	str	r3, [r7, #24]
        temp |= (((GPIO_Init->Mode & GPIO_OUTPUT_TYPE) >> 4U) << position);
 8000f44:	683b      	ldr	r3, [r7, #0]
 8000f46:	685b      	ldr	r3, [r3, #4]
 8000f48:	091b      	lsrs	r3, r3, #4
 8000f4a:	f003 0201 	and.w	r2, r3, #1
 8000f4e:	69fb      	ldr	r3, [r7, #28]
 8000f50:	fa02 f303 	lsl.w	r3, r2, r3
 8000f54:	69ba      	ldr	r2, [r7, #24]
 8000f56:	4313      	orrs	r3, r2
 8000f58:	61bb      	str	r3, [r7, #24]
        GPIOx->OTYPER = temp;
 8000f5a:	687b      	ldr	r3, [r7, #4]
 8000f5c:	69ba      	ldr	r2, [r7, #24]
 8000f5e:	605a      	str	r2, [r3, #4]
       }

      /* Activate the Pull-up or Pull down resistor for the current IO */
      temp = GPIOx->PUPDR;
 8000f60:	687b      	ldr	r3, [r7, #4]
 8000f62:	68db      	ldr	r3, [r3, #12]
 8000f64:	61bb      	str	r3, [r7, #24]
      temp &= ~(GPIO_PUPDR_PUPDR0 << (position * 2U));
 8000f66:	69fb      	ldr	r3, [r7, #28]
 8000f68:	005b      	lsls	r3, r3, #1
 8000f6a:	2203      	movs	r2, #3
 8000f6c:	fa02 f303 	lsl.w	r3, r2, r3
 8000f70:	43db      	mvns	r3, r3
 8000f72:	69ba      	ldr	r2, [r7, #24]
 8000f74:	4013      	ands	r3, r2
 8000f76:	61bb      	str	r3, [r7, #24]
      temp |= ((GPIO_Init->Pull) << (position * 2U));
 8000f78:	683b      	ldr	r3, [r7, #0]
 8000f7a:	689a      	ldr	r2, [r3, #8]
 8000f7c:	69fb      	ldr	r3, [r7, #28]
 8000f7e:	005b      	lsls	r3, r3, #1
 8000f80:	fa02 f303 	lsl.w	r3, r2, r3
 8000f84:	69ba      	ldr	r2, [r7, #24]
 8000f86:	4313      	orrs	r3, r2
 8000f88:	61bb      	str	r3, [r7, #24]
      GPIOx->PUPDR = temp;
 8000f8a:	687b      	ldr	r3, [r7, #4]
 8000f8c:	69ba      	ldr	r2, [r7, #24]
 8000f8e:	60da      	str	r2, [r3, #12]

      /* In case of Alternate function mode selection */
      if((GPIO_Init->Mode == GPIO_MODE_AF_PP) || (GPIO_Init->Mode == GPIO_MODE_AF_OD))
 8000f90:	683b      	ldr	r3, [r7, #0]
 8000f92:	685b      	ldr	r3, [r3, #4]
 8000f94:	2b02      	cmp	r3, #2
 8000f96:	d003      	beq.n	8000fa0 <HAL_GPIO_Init+0xfc>
 8000f98:	683b      	ldr	r3, [r7, #0]
 8000f9a:	685b      	ldr	r3, [r3, #4]
 8000f9c:	2b12      	cmp	r3, #18
 8000f9e:	d123      	bne.n	8000fe8 <HAL_GPIO_Init+0x144>
      {
        /* Check the Alternate function parameter */
        assert_param(IS_GPIO_AF(GPIO_Init->Alternate));
        /* Configure Alternate function mapped with the current IO */
        temp = GPIOx->AFR[position >> 3U];
 8000fa0:	69fb      	ldr	r3, [r7, #28]
 8000fa2:	08da      	lsrs	r2, r3, #3
 8000fa4:	687b      	ldr	r3, [r7, #4]
 8000fa6:	3208      	adds	r2, #8
 8000fa8:	f853 3022 	ldr.w	r3, [r3, r2, lsl #2]
 8000fac:	61bb      	str	r3, [r7, #24]
        temp &= ~(0xFU << ((uint32_t)(position & 0x07U) * 4U)) ;
 8000fae:	69fb      	ldr	r3, [r7, #28]
 8000fb0:	f003 0307 	and.w	r3, r3, #7
 8000fb4:	009b      	lsls	r3, r3, #2
 8000fb6:	220f      	movs	r2, #15
 8000fb8:	fa02 f303 	lsl.w	r3, r2, r3
 8000fbc:	43db      	mvns	r3, r3
 8000fbe:	69ba      	ldr	r2, [r7, #24]
 8000fc0:	4013      	ands	r3, r2
 8000fc2:	61bb      	str	r3, [r7, #24]
        temp |= ((uint32_t)(GPIO_Init->Alternate) << (((uint32_t)position & 0x07U) * 4U));
 8000fc4:	683b      	ldr	r3, [r7, #0]
 8000fc6:	691a      	ldr	r2, [r3, #16]
 8000fc8:	69fb      	ldr	r3, [r7, #28]
 8000fca:	f003 0307 	and.w	r3, r3, #7
 8000fce:	009b      	lsls	r3, r3, #2
 8000fd0:	fa02 f303 	lsl.w	r3, r2, r3
 8000fd4:	69ba      	ldr	r2, [r7, #24]
 8000fd6:	4313      	orrs	r3, r2
 8000fd8:	61bb      	str	r3, [r7, #24]
        GPIOx->AFR[position >> 3U] = temp;
 8000fda:	69fb      	ldr	r3, [r7, #28]
 8000fdc:	08da      	lsrs	r2, r3, #3
 8000fde:	687b      	ldr	r3, [r7, #4]
 8000fe0:	3208      	adds	r2, #8
 8000fe2:	69b9      	ldr	r1, [r7, #24]
 8000fe4:	f843 1022 	str.w	r1, [r3, r2, lsl #2]
      }

      /* Configure IO Direction mode (Input, Output, Alternate or Analog) */
      temp = GPIOx->MODER;
 8000fe8:	687b      	ldr	r3, [r7, #4]
 8000fea:	681b      	ldr	r3, [r3, #0]
 8000fec:	61bb      	str	r3, [r7, #24]
      temp &= ~(GPIO_MODER_MODER0 << (position * 2U));
 8000fee:	69fb      	ldr	r3, [r7, #28]
 8000ff0:	005b      	lsls	r3, r3, #1
 8000ff2:	2203      	movs	r2, #3
 8000ff4:	fa02 f303 	lsl.w	r3, r2, r3
 8000ff8:	43db      	mvns	r3, r3
 8000ffa:	69ba      	ldr	r2, [r7, #24]
 8000ffc:	4013      	ands	r3, r2
 8000ffe:	61bb      	str	r3, [r7, #24]
      temp |= ((GPIO_Init->Mode & GPIO_MODE) << (position * 2U));
 8001000:	683b      	ldr	r3, [r7, #0]
 8001002:	685b      	ldr	r3, [r3, #4]
 8001004:	f003 0203 	and.w	r2, r3, #3
 8001008:	69fb      	ldr	r3, [r7, #28]
 800100a:	005b      	lsls	r3, r3, #1
 800100c:	fa02 f303 	lsl.w	r3, r2, r3
 8001010:	69ba      	ldr	r2, [r7, #24]
 8001012:	4313      	orrs	r3, r2
 8001014:	61bb      	str	r3, [r7, #24]
      GPIOx->MODER = temp;
 8001016:	687b      	ldr	r3, [r7, #4]
 8001018:	69ba      	ldr	r2, [r7, #24]
 800101a:	601a      	str	r2, [r3, #0]

      /*--------------------- EXTI Mode Configuration ------------------------*/
      /* Configure the External Interrupt or event for the current IO */
      if((GPIO_Init->Mode & EXTI_MODE) == EXTI_MODE)
 800101c:	683b      	ldr	r3, [r7, #0]
 800101e:	685b      	ldr	r3, [r3, #4]
 8001020:	f003 5380 	and.w	r3, r3, #268435456	; 0x10000000
 8001024:	2b00      	cmp	r3, #0
 8001026:	f000 80b4 	beq.w	8001192 <HAL_GPIO_Init+0x2ee>
      {
        /* Enable SYSCFG Clock */
        __HAL_RCC_SYSCFG_CLK_ENABLE();
 800102a:	2300      	movs	r3, #0
 800102c:	60fb      	str	r3, [r7, #12]
 800102e:	4b5f      	ldr	r3, [pc, #380]	; (80011ac <HAL_GPIO_Init+0x308>)
 8001030:	6c5b      	ldr	r3, [r3, #68]	; 0x44
 8001032:	4a5e      	ldr	r2, [pc, #376]	; (80011ac <HAL_GPIO_Init+0x308>)
 8001034:	f443 4380 	orr.w	r3, r3, #16384	; 0x4000
 8001038:	6453      	str	r3, [r2, #68]	; 0x44
 800103a:	4b5c      	ldr	r3, [pc, #368]	; (80011ac <HAL_GPIO_Init+0x308>)
 800103c:	6c5b      	ldr	r3, [r3, #68]	; 0x44
 800103e:	f403 4380 	and.w	r3, r3, #16384	; 0x4000
 8001042:	60fb      	str	r3, [r7, #12]
 8001044:	68fb      	ldr	r3, [r7, #12]

        temp = SYSCFG->EXTICR[position >> 2U];
 8001046:	4a5a      	ldr	r2, [pc, #360]	; (80011b0 <HAL_GPIO_Init+0x30c>)
 8001048:	69fb      	ldr	r3, [r7, #28]
 800104a:	089b      	lsrs	r3, r3, #2
 800104c:	3302      	adds	r3, #2
 800104e:	f852 3023 	ldr.w	r3, [r2, r3, lsl #2]
 8001052:	61bb      	str	r3, [r7, #24]
        temp &= ~(0x0FU << (4U * (position & 0x03U)));
 8001054:	69fb      	ldr	r3, [r7, #28]
 8001056:	f003 0303 	and.w	r3, r3, #3
 800105a:	009b      	lsls	r3, r3, #2
 800105c:	220f      	movs	r2, #15
 800105e:	fa02 f303 	lsl.w	r3, r2, r3
 8001062:	43db      	mvns	r3, r3
 8001064:	69ba      	ldr	r2, [r7, #24]
 8001066:	4013      	ands	r3, r2
 8001068:	61bb      	str	r3, [r7, #24]
        temp |= ((uint32_t)(GPIO_GET_INDEX(GPIOx)) << (4U * (position & 0x03U)));
 800106a:	687b      	ldr	r3, [r7, #4]
 800106c:	4a51      	ldr	r2, [pc, #324]	; (80011b4 <HAL_GPIO_Init+0x310>)
 800106e:	4293      	cmp	r3, r2
 8001070:	d02b      	beq.n	80010ca <HAL_GPIO_Init+0x226>
 8001072:	687b      	ldr	r3, [r7, #4]
 8001074:	4a50      	ldr	r2, [pc, #320]	; (80011b8 <HAL_GPIO_Init+0x314>)
 8001076:	4293      	cmp	r3, r2
 8001078:	d025      	beq.n	80010c6 <HAL_GPIO_Init+0x222>
 800107a:	687b      	ldr	r3, [r7, #4]
 800107c:	4a4f      	ldr	r2, [pc, #316]	; (80011bc <HAL_GPIO_Init+0x318>)
 800107e:	4293      	cmp	r3, r2
 8001080:	d01f      	beq.n	80010c2 <HAL_GPIO_Init+0x21e>
 8001082:	687b      	ldr	r3, [r7, #4]
 8001084:	4a4e      	ldr	r2, [pc, #312]	; (80011c0 <HAL_GPIO_Init+0x31c>)
 8001086:	4293      	cmp	r3, r2
 8001088:	d019      	beq.n	80010be <HAL_GPIO_Init+0x21a>
 800108a:	687b      	ldr	r3, [r7, #4]
 800108c:	4a4d      	ldr	r2, [pc, #308]	; (80011c4 <HAL_GPIO_Init+0x320>)
 800108e:	4293      	cmp	r3, r2
 8001090:	d013      	beq.n	80010ba <HAL_GPIO_Init+0x216>
 8001092:	687b      	ldr	r3, [r7, #4]
 8001094:	4a4c      	ldr	r2, [pc, #304]	; (80011c8 <HAL_GPIO_Init+0x324>)
 8001096:	4293      	cmp	r3, r2
 8001098:	d00d      	beq.n	80010b6 <HAL_GPIO_Init+0x212>
 800109a:	687b      	ldr	r3, [r7, #4]
 800109c:	4a4b      	ldr	r2, [pc, #300]	; (80011cc <HAL_GPIO_Init+0x328>)
 800109e:	4293      	cmp	r3, r2
 80010a0:	d007      	beq.n	80010b2 <HAL_GPIO_Init+0x20e>
 80010a2:	687b      	ldr	r3, [r7, #4]
 80010a4:	4a4a      	ldr	r2, [pc, #296]	; (80011d0 <HAL_GPIO_Init+0x32c>)
 80010a6:	4293      	cmp	r3, r2
 80010a8:	d101      	bne.n	80010ae <HAL_GPIO_Init+0x20a>
 80010aa:	2307      	movs	r3, #7
 80010ac:	e00e      	b.n	80010cc <HAL_GPIO_Init+0x228>
 80010ae:	2308      	movs	r3, #8
 80010b0:	e00c      	b.n	80010cc <HAL_GPIO_Init+0x228>
 80010b2:	2306      	movs	r3, #6
 80010b4:	e00a      	b.n	80010cc <HAL_GPIO_Init+0x228>
 80010b6:	2305      	movs	r3, #5
 80010b8:	e008      	b.n	80010cc <HAL_GPIO_Init+0x228>
 80010ba:	2304      	movs	r3, #4
 80010bc:	e006      	b.n	80010cc <HAL_GPIO_Init+0x228>
 80010be:	2303      	movs	r3, #3
 80010c0:	e004      	b.n	80010cc <HAL_GPIO_Init+0x228>
 80010c2:	2302      	movs	r3, #2
 80010c4:	e002      	b.n	80010cc <HAL_GPIO_Init+0x228>
 80010c6:	2301      	movs	r3, #1
 80010c8:	e000      	b.n	80010cc <HAL_GPIO_Init+0x228>
 80010ca:	2300      	movs	r3, #0
 80010cc:	69fa      	ldr	r2, [r7, #28]
 80010ce:	f002 0203 	and.w	r2, r2, #3
 80010d2:	0092      	lsls	r2, r2, #2
 80010d4:	4093      	lsls	r3, r2
 80010d6:	69ba      	ldr	r2, [r7, #24]
 80010d8:	4313      	orrs	r3, r2
 80010da:	61bb      	str	r3, [r7, #24]
        SYSCFG->EXTICR[position >> 2U] = temp;
 80010dc:	4934      	ldr	r1, [pc, #208]	; (80011b0 <HAL_GPIO_Init+0x30c>)
 80010de:	69fb      	ldr	r3, [r7, #28]
 80010e0:	089b      	lsrs	r3, r3, #2
 80010e2:	3302      	adds	r3, #2
 80010e4:	69ba      	ldr	r2, [r7, #24]
 80010e6:	f841 2023 	str.w	r2, [r1, r3, lsl #2]

        /* Clear EXTI line configuration */
        temp = EXTI->IMR;
 80010ea:	4b3a      	ldr	r3, [pc, #232]	; (80011d4 <HAL_GPIO_Init+0x330>)
 80010ec:	681b      	ldr	r3, [r3, #0]
 80010ee:	61bb      	str	r3, [r7, #24]
        temp &= ~((uint32_t)iocurrent);
 80010f0:	693b      	ldr	r3, [r7, #16]
 80010f2:	43db      	mvns	r3, r3
 80010f4:	69ba      	ldr	r2, [r7, #24]
 80010f6:	4013      	ands	r3, r2
 80010f8:	61bb      	str	r3, [r7, #24]
        if((GPIO_Init->Mode & GPIO_MODE_IT) == GPIO_MODE_IT)
 80010fa:	683b      	ldr	r3, [r7, #0]
 80010fc:	685b      	ldr	r3, [r3, #4]
 80010fe:	f403 3380 	and.w	r3, r3, #65536	; 0x10000
 8001102:	2b00      	cmp	r3, #0
 8001104:	d003      	beq.n	800110e <HAL_GPIO_Init+0x26a>
        {
          temp |= iocurrent;
 8001106:	69ba      	ldr	r2, [r7, #24]
 8001108:	693b      	ldr	r3, [r7, #16]
 800110a:	4313      	orrs	r3, r2
 800110c:	61bb      	str	r3, [r7, #24]
        }
        EXTI->IMR = temp;
 800110e:	4a31      	ldr	r2, [pc, #196]	; (80011d4 <HAL_GPIO_Init+0x330>)
 8001110:	69bb      	ldr	r3, [r7, #24]
 8001112:	6013      	str	r3, [r2, #0]

        temp = EXTI->EMR;
 8001114:	4b2f      	ldr	r3, [pc, #188]	; (80011d4 <HAL_GPIO_Init+0x330>)
 8001116:	685b      	ldr	r3, [r3, #4]
 8001118:	61bb      	str	r3, [r7, #24]
        temp &= ~((uint32_t)iocurrent);
 800111a:	693b      	ldr	r3, [r7, #16]
 800111c:	43db      	mvns	r3, r3
 800111e:	69ba      	ldr	r2, [r7, #24]
 8001120:	4013      	ands	r3, r2
 8001122:	61bb      	str	r3, [r7, #24]
        if((GPIO_Init->Mode & GPIO_MODE_EVT) == GPIO_MODE_EVT)
 8001124:	683b      	ldr	r3, [r7, #0]
 8001126:	685b      	ldr	r3, [r3, #4]
 8001128:	f403 3300 	and.w	r3, r3, #131072	; 0x20000
 800112c:	2b00      	cmp	r3, #0
 800112e:	d003      	beq.n	8001138 <HAL_GPIO_Init+0x294>
        {
          temp |= iocurrent;
 8001130:	69ba      	ldr	r2, [r7, #24]
 8001132:	693b      	ldr	r3, [r7, #16]
 8001134:	4313      	orrs	r3, r2
 8001136:	61bb      	str	r3, [r7, #24]
        }
        EXTI->EMR = temp;
 8001138:	4a26      	ldr	r2, [pc, #152]	; (80011d4 <HAL_GPIO_Init+0x330>)
 800113a:	69bb      	ldr	r3, [r7, #24]
 800113c:	6053      	str	r3, [r2, #4]

        /* Clear Rising Falling edge configuration */
        temp = EXTI->RTSR;
 800113e:	4b25      	ldr	r3, [pc, #148]	; (80011d4 <HAL_GPIO_Init+0x330>)
 8001140:	689b      	ldr	r3, [r3, #8]
 8001142:	61bb      	str	r3, [r7, #24]
        temp &= ~((uint32_t)iocurrent);
 8001144:	693b      	ldr	r3, [r7, #16]
 8001146:	43db      	mvns	r3, r3
 8001148:	69ba      	ldr	r2, [r7, #24]
 800114a:	4013      	ands	r3, r2
 800114c:	61bb      	str	r3, [r7, #24]
        if((GPIO_Init->Mode & RISING_EDGE) == RISING_EDGE)
 800114e:	683b      	ldr	r3, [r7, #0]
 8001150:	685b      	ldr	r3, [r3, #4]
 8001152:	f403 1380 	and.w	r3, r3, #1048576	; 0x100000
 8001156:	2b00      	cmp	r3, #0
 8001158:	d003      	beq.n	8001162 <HAL_GPIO_Init+0x2be>
        {
          temp |= iocurrent;
 800115a:	69ba      	ldr	r2, [r7, #24]
 800115c:	693b      	ldr	r3, [r7, #16]
 800115e:	4313      	orrs	r3, r2
 8001160:	61bb      	str	r3, [r7, #24]
        }
        EXTI->RTSR = temp;
 8001162:	4a1c      	ldr	r2, [pc, #112]	; (80011d4 <HAL_GPIO_Init+0x330>)
 8001164:	69bb      	ldr	r3, [r7, #24]
 8001166:	6093      	str	r3, [r2, #8]

        temp = EXTI->FTSR;
 8001168:	4b1a      	ldr	r3, [pc, #104]	; (80011d4 <HAL_GPIO_Init+0x330>)
 800116a:	68db      	ldr	r3, [r3, #12]
 800116c:	61bb      	str	r3, [r7, #24]
        temp &= ~((uint32_t)iocurrent);
 800116e:	693b      	ldr	r3, [r7, #16]
 8001170:	43db      	mvns	r3, r3
 8001172:	69ba      	ldr	r2, [r7, #24]
 8001174:	4013      	ands	r3, r2
 8001176:	61bb      	str	r3, [r7, #24]
        if((GPIO_Init->Mode & FALLING_EDGE) == FALLING_EDGE)
 8001178:	683b      	ldr	r3, [r7, #0]
 800117a:	685b      	ldr	r3, [r3, #4]
 800117c:	f403 1300 	and.w	r3, r3, #2097152	; 0x200000
 8001180:	2b00      	cmp	r3, #0
 8001182:	d003      	beq.n	800118c <HAL_GPIO_Init+0x2e8>
        {
          temp |= iocurrent;
 8001184:	69ba      	ldr	r2, [r7, #24]
 8001186:	693b      	ldr	r3, [r7, #16]
 8001188:	4313      	orrs	r3, r2
 800118a:	61bb      	str	r3, [r7, #24]
        }
        EXTI->FTSR = temp;
 800118c:	4a11      	ldr	r2, [pc, #68]	; (80011d4 <HAL_GPIO_Init+0x330>)
 800118e:	69bb      	ldr	r3, [r7, #24]
 8001190:	60d3      	str	r3, [r2, #12]
  for(position = 0U; position < GPIO_NUMBER; position++)
 8001192:	69fb      	ldr	r3, [r7, #28]
 8001194:	3301      	adds	r3, #1
 8001196:	61fb      	str	r3, [r7, #28]
 8001198:	69fb      	ldr	r3, [r7, #28]
 800119a:	2b0f      	cmp	r3, #15
 800119c:	f67f ae90 	bls.w	8000ec0 <HAL_GPIO_Init+0x1c>
      }
    }
  }
}
 80011a0:	bf00      	nop
 80011a2:	3724      	adds	r7, #36	; 0x24
 80011a4:	46bd      	mov	sp, r7
 80011a6:	f85d 7b04 	ldr.w	r7, [sp], #4
 80011aa:	4770      	bx	lr
 80011ac:	40023800 	.word	0x40023800
 80011b0:	40013800 	.word	0x40013800
 80011b4:	40020000 	.word	0x40020000
 80011b8:	40020400 	.word	0x40020400
 80011bc:	40020800 	.word	0x40020800
 80011c0:	40020c00 	.word	0x40020c00
 80011c4:	40021000 	.word	0x40021000
 80011c8:	40021400 	.word	0x40021400
 80011cc:	40021800 	.word	0x40021800
 80011d0:	40021c00 	.word	0x40021c00
 80011d4:	40013c00 	.word	0x40013c00

080011d8 <HAL_GPIO_WritePin>:
  *            @arg GPIO_PIN_RESET: to clear the port pin
  *            @arg GPIO_PIN_SET: to set the port pin
  * @retval None
  */
void HAL_GPIO_WritePin(GPIO_TypeDef* GPIOx, uint16_t GPIO_Pin, GPIO_PinState PinState)
{
 80011d8:	b480      	push	{r7}
 80011da:	b083      	sub	sp, #12
 80011dc:	af00      	add	r7, sp, #0
 80011de:	6078      	str	r0, [r7, #4]
 80011e0:	460b      	mov	r3, r1
 80011e2:	807b      	strh	r3, [r7, #2]
 80011e4:	4613      	mov	r3, r2
 80011e6:	707b      	strb	r3, [r7, #1]
  /* Check the parameters */
  assert_param(IS_GPIO_PIN(GPIO_Pin));
  assert_param(IS_GPIO_PIN_ACTION(PinState));

  if(PinState != GPIO_PIN_RESET)
 80011e8:	787b      	ldrb	r3, [r7, #1]
 80011ea:	2b00      	cmp	r3, #0
 80011ec:	d003      	beq.n	80011f6 <HAL_GPIO_WritePin+0x1e>
  {
    GPIOx->BSRR = GPIO_Pin;
 80011ee:	887a      	ldrh	r2, [r7, #2]
 80011f0:	687b      	ldr	r3, [r7, #4]
 80011f2:	619a      	str	r2, [r3, #24]
  }
  else
  {
    GPIOx->BSRR = (uint32_t)GPIO_Pin << 16U;
  }
}
 80011f4:	e003      	b.n	80011fe <HAL_GPIO_WritePin+0x26>
    GPIOx->BSRR = (uint32_t)GPIO_Pin << 16U;
 80011f6:	887b      	ldrh	r3, [r7, #2]
 80011f8:	041a      	lsls	r2, r3, #16
 80011fa:	687b      	ldr	r3, [r7, #4]
 80011fc:	619a      	str	r2, [r3, #24]
}
 80011fe:	bf00      	nop
 8001200:	370c      	adds	r7, #12
 8001202:	46bd      	mov	sp, r7
 8001204:	f85d 7b04 	ldr.w	r7, [sp], #4
 8001208:	4770      	bx	lr
	...

0800120c <HAL_RCC_OscConfig>:
  *         supported by this API. User should request a transition to HSE Off
  *         first and then HSE On or HSE Bypass.
  * @retval HAL status
  */
__weak HAL_StatusTypeDef HAL_RCC_OscConfig(RCC_OscInitTypeDef  *RCC_OscInitStruct)
{
 800120c:	b580      	push	{r7, lr}
 800120e:	b086      	sub	sp, #24
 8001210:	af00      	add	r7, sp, #0
 8001212:	6078      	str	r0, [r7, #4]
  uint32_t tickstart, pll_config;

  /* Check Null pointer */
  if(RCC_OscInitStruct == NULL)
 8001214:	687b      	ldr	r3, [r7, #4]
 8001216:	2b00      	cmp	r3, #0
 8001218:	d101      	bne.n	800121e <HAL_RCC_OscConfig+0x12>
  {
    return HAL_ERROR;
 800121a:	2301      	movs	r3, #1
 800121c:	e25b      	b.n	80016d6 <HAL_RCC_OscConfig+0x4ca>
  }

  /* Check the parameters */
  assert_param(IS_RCC_OSCILLATORTYPE(RCC_OscInitStruct->OscillatorType));
  /*------------------------------- HSE Configuration ------------------------*/
  if(((RCC_OscInitStruct->OscillatorType) & RCC_OSCILLATORTYPE_HSE) == RCC_OSCILLATORTYPE_HSE)
 800121e:	687b      	ldr	r3, [r7, #4]
 8001220:	681b      	ldr	r3, [r3, #0]
 8001222:	f003 0301 	and.w	r3, r3, #1
 8001226:	2b00      	cmp	r3, #0
 8001228:	d075      	beq.n	8001316 <HAL_RCC_OscConfig+0x10a>
  {
    /* Check the parameters */
    assert_param(IS_RCC_HSE(RCC_OscInitStruct->HSEState));
    /* When the HSE is used as system clock or clock source for PLL in these cases HSE will not disabled */
    if((__HAL_RCC_GET_SYSCLK_SOURCE() == RCC_CFGR_SWS_HSE) ||\
 800122a:	4ba3      	ldr	r3, [pc, #652]	; (80014b8 <HAL_RCC_OscConfig+0x2ac>)
 800122c:	689b      	ldr	r3, [r3, #8]
 800122e:	f003 030c 	and.w	r3, r3, #12
 8001232:	2b04      	cmp	r3, #4
 8001234:	d00c      	beq.n	8001250 <HAL_RCC_OscConfig+0x44>
      ((__HAL_RCC_GET_SYSCLK_SOURCE() == RCC_CFGR_SWS_PLL) && ((RCC->PLLCFGR & RCC_PLLCFGR_PLLSRC) == RCC_PLLCFGR_PLLSRC_HSE)))
 8001236:	4ba0      	ldr	r3, [pc, #640]	; (80014b8 <HAL_RCC_OscConfig+0x2ac>)
 8001238:	689b      	ldr	r3, [r3, #8]
 800123a:	f003 030c 	and.w	r3, r3, #12
    if((__HAL_RCC_GET_SYSCLK_SOURCE() == RCC_CFGR_SWS_HSE) ||\
 800123e:	2b08      	cmp	r3, #8
 8001240:	d112      	bne.n	8001268 <HAL_RCC_OscConfig+0x5c>
      ((__HAL_RCC_GET_SYSCLK_SOURCE() == RCC_CFGR_SWS_PLL) && ((RCC->PLLCFGR & RCC_PLLCFGR_PLLSRC) == RCC_PLLCFGR_PLLSRC_HSE)))
 8001242:	4b9d      	ldr	r3, [pc, #628]	; (80014b8 <HAL_RCC_OscConfig+0x2ac>)
 8001244:	685b      	ldr	r3, [r3, #4]
 8001246:	f403 0380 	and.w	r3, r3, #4194304	; 0x400000
 800124a:	f5b3 0f80 	cmp.w	r3, #4194304	; 0x400000
 800124e:	d10b      	bne.n	8001268 <HAL_RCC_OscConfig+0x5c>
    {
      if((__HAL_RCC_GET_FLAG(RCC_FLAG_HSERDY) != RESET) && (RCC_OscInitStruct->HSEState == RCC_HSE_OFF))
 8001250:	4b99      	ldr	r3, [pc, #612]	; (80014b8 <HAL_RCC_OscConfig+0x2ac>)
 8001252:	681b      	ldr	r3, [r3, #0]
 8001254:	f403 3300 	and.w	r3, r3, #131072	; 0x20000
 8001258:	2b00      	cmp	r3, #0
 800125a:	d05b      	beq.n	8001314 <HAL_RCC_OscConfig+0x108>
 800125c:	687b      	ldr	r3, [r7, #4]
 800125e:	685b      	ldr	r3, [r3, #4]
 8001260:	2b00      	cmp	r3, #0
 8001262:	d157      	bne.n	8001314 <HAL_RCC_OscConfig+0x108>
      {
        return HAL_ERROR;
 8001264:	2301      	movs	r3, #1
 8001266:	e236      	b.n	80016d6 <HAL_RCC_OscConfig+0x4ca>
      }
    }
    else
    {
      /* Set the new HSE configuration ---------------------------------------*/
      __HAL_RCC_HSE_CONFIG(RCC_OscInitStruct->HSEState);
 8001268:	687b      	ldr	r3, [r7, #4]
 800126a:	685b      	ldr	r3, [r3, #4]
 800126c:	f5b3 3f80 	cmp.w	r3, #65536	; 0x10000
 8001270:	d106      	bne.n	8001280 <HAL_RCC_OscConfig+0x74>
 8001272:	4b91      	ldr	r3, [pc, #580]	; (80014b8 <HAL_RCC_OscConfig+0x2ac>)
 8001274:	681b      	ldr	r3, [r3, #0]
 8001276:	4a90      	ldr	r2, [pc, #576]	; (80014b8 <HAL_RCC_OscConfig+0x2ac>)
 8001278:	f443 3380 	orr.w	r3, r3, #65536	; 0x10000
 800127c:	6013      	str	r3, [r2, #0]
 800127e:	e01d      	b.n	80012bc <HAL_RCC_OscConfig+0xb0>
 8001280:	687b      	ldr	r3, [r7, #4]
 8001282:	685b      	ldr	r3, [r3, #4]
 8001284:	f5b3 2fa0 	cmp.w	r3, #327680	; 0x50000
 8001288:	d10c      	bne.n	80012a4 <HAL_RCC_OscConfig+0x98>
 800128a:	4b8b      	ldr	r3, [pc, #556]	; (80014b8 <HAL_RCC_OscConfig+0x2ac>)
 800128c:	681b      	ldr	r3, [r3, #0]
 800128e:	4a8a      	ldr	r2, [pc, #552]	; (80014b8 <HAL_RCC_OscConfig+0x2ac>)
 8001290:	f443 2380 	orr.w	r3, r3, #262144	; 0x40000
 8001294:	6013      	str	r3, [r2, #0]
 8001296:	4b88      	ldr	r3, [pc, #544]	; (80014b8 <HAL_RCC_OscConfig+0x2ac>)
 8001298:	681b      	ldr	r3, [r3, #0]
 800129a:	4a87      	ldr	r2, [pc, #540]	; (80014b8 <HAL_RCC_OscConfig+0x2ac>)
 800129c:	f443 3380 	orr.w	r3, r3, #65536	; 0x10000
 80012a0:	6013      	str	r3, [r2, #0]
 80012a2:	e00b      	b.n	80012bc <HAL_RCC_OscConfig+0xb0>
 80012a4:	4b84      	ldr	r3, [pc, #528]	; (80014b8 <HAL_RCC_OscConfig+0x2ac>)
 80012a6:	681b      	ldr	r3, [r3, #0]
 80012a8:	4a83      	ldr	r2, [pc, #524]	; (80014b8 <HAL_RCC_OscConfig+0x2ac>)
 80012aa:	f423 3380 	bic.w	r3, r3, #65536	; 0x10000
 80012ae:	6013      	str	r3, [r2, #0]
 80012b0:	4b81      	ldr	r3, [pc, #516]	; (80014b8 <HAL_RCC_OscConfig+0x2ac>)
 80012b2:	681b      	ldr	r3, [r3, #0]
 80012b4:	4a80      	ldr	r2, [pc, #512]	; (80014b8 <HAL_RCC_OscConfig+0x2ac>)
 80012b6:	f423 2380 	bic.w	r3, r3, #262144	; 0x40000
 80012ba:	6013      	str	r3, [r2, #0]

      /* Check the HSE State */
      if((RCC_OscInitStruct->HSEState) != RCC_HSE_OFF)
 80012bc:	687b      	ldr	r3, [r7, #4]
 80012be:	685b      	ldr	r3, [r3, #4]
 80012c0:	2b00      	cmp	r3, #0
 80012c2:	d013      	beq.n	80012ec <HAL_RCC_OscConfig+0xe0>
      {
        /* Get Start Tick */
        tickstart = HAL_GetTick();
 80012c4:	f7ff fc8c 	bl	8000be0 <HAL_GetTick>
 80012c8:	6138      	str	r0, [r7, #16]

        /* Wait till HSE is ready */
        while(__HAL_RCC_GET_FLAG(RCC_FLAG_HSERDY) == RESET)
 80012ca:	e008      	b.n	80012de <HAL_RCC_OscConfig+0xd2>
        {
          if((HAL_GetTick() - tickstart ) > HSE_TIMEOUT_VALUE)
 80012cc:	f7ff fc88 	bl	8000be0 <HAL_GetTick>
 80012d0:	4602      	mov	r2, r0
 80012d2:	693b      	ldr	r3, [r7, #16]
 80012d4:	1ad3      	subs	r3, r2, r3
 80012d6:	2b64      	cmp	r3, #100	; 0x64
 80012d8:	d901      	bls.n	80012de <HAL_RCC_OscConfig+0xd2>
          {
            return HAL_TIMEOUT;
 80012da:	2303      	movs	r3, #3
 80012dc:	e1fb      	b.n	80016d6 <HAL_RCC_OscConfig+0x4ca>
        while(__HAL_RCC_GET_FLAG(RCC_FLAG_HSERDY) == RESET)
 80012de:	4b76      	ldr	r3, [pc, #472]	; (80014b8 <HAL_RCC_OscConfig+0x2ac>)
 80012e0:	681b      	ldr	r3, [r3, #0]
 80012e2:	f403 3300 	and.w	r3, r3, #131072	; 0x20000
 80012e6:	2b00      	cmp	r3, #0
 80012e8:	d0f0      	beq.n	80012cc <HAL_RCC_OscConfig+0xc0>
 80012ea:	e014      	b.n	8001316 <HAL_RCC_OscConfig+0x10a>
        }
      }
      else
      {
        /* Get Start Tick */
        tickstart = HAL_GetTick();
 80012ec:	f7ff fc78 	bl	8000be0 <HAL_GetTick>
 80012f0:	6138      	str	r0, [r7, #16]

        /* Wait till HSE is bypassed or disabled */
        while(__HAL_RCC_GET_FLAG(RCC_FLAG_HSERDY) != RESET)
 80012f2:	e008      	b.n	8001306 <HAL_RCC_OscConfig+0xfa>
        {
          if((HAL_GetTick() - tickstart ) > HSE_TIMEOUT_VALUE)
 80012f4:	f7ff fc74 	bl	8000be0 <HAL_GetTick>
 80012f8:	4602      	mov	r2, r0
 80012fa:	693b      	ldr	r3, [r7, #16]
 80012fc:	1ad3      	subs	r3, r2, r3
 80012fe:	2b64      	cmp	r3, #100	; 0x64
 8001300:	d901      	bls.n	8001306 <HAL_RCC_OscConfig+0xfa>
          {
            return HAL_TIMEOUT;
 8001302:	2303      	movs	r3, #3
 8001304:	e1e7      	b.n	80016d6 <HAL_RCC_OscConfig+0x4ca>
        while(__HAL_RCC_GET_FLAG(RCC_FLAG_HSERDY) != RESET)
 8001306:	4b6c      	ldr	r3, [pc, #432]	; (80014b8 <HAL_RCC_OscConfig+0x2ac>)
 8001308:	681b      	ldr	r3, [r3, #0]
 800130a:	f403 3300 	and.w	r3, r3, #131072	; 0x20000
 800130e:	2b00      	cmp	r3, #0
 8001310:	d1f0      	bne.n	80012f4 <HAL_RCC_OscConfig+0xe8>
 8001312:	e000      	b.n	8001316 <HAL_RCC_OscConfig+0x10a>
      if((__HAL_RCC_GET_FLAG(RCC_FLAG_HSERDY) != RESET) && (RCC_OscInitStruct->HSEState == RCC_HSE_OFF))
 8001314:	bf00      	nop
        }
      }
    }
  }
  /*----------------------------- HSI Configuration --------------------------*/
  if(((RCC_OscInitStruct->OscillatorType) & RCC_OSCILLATORTYPE_HSI) == RCC_OSCILLATORTYPE_HSI)
 8001316:	687b      	ldr	r3, [r7, #4]
 8001318:	681b      	ldr	r3, [r3, #0]
 800131a:	f003 0302 	and.w	r3, r3, #2
 800131e:	2b00      	cmp	r3, #0
 8001320:	d063      	beq.n	80013ea <HAL_RCC_OscConfig+0x1de>
    /* Check the parameters */
    assert_param(IS_RCC_HSI(RCC_OscInitStruct->HSIState));
    assert_param(IS_RCC_CALIBRATION_VALUE(RCC_OscInitStruct->HSICalibrationValue));

    /* Check if HSI is used as system clock or as PLL source when PLL is selected as system clock */
    if((__HAL_RCC_GET_SYSCLK_SOURCE() == RCC_CFGR_SWS_HSI) ||\
 8001322:	4b65      	ldr	r3, [pc, #404]	; (80014b8 <HAL_RCC_OscConfig+0x2ac>)
 8001324:	689b      	ldr	r3, [r3, #8]
 8001326:	f003 030c 	and.w	r3, r3, #12
 800132a:	2b00      	cmp	r3, #0
 800132c:	d00b      	beq.n	8001346 <HAL_RCC_OscConfig+0x13a>
      ((__HAL_RCC_GET_SYSCLK_SOURCE() == RCC_CFGR_SWS_PLL) && ((RCC->PLLCFGR & RCC_PLLCFGR_PLLSRC) == RCC_PLLCFGR_PLLSRC_HSI)))
 800132e:	4b62      	ldr	r3, [pc, #392]	; (80014b8 <HAL_RCC_OscConfig+0x2ac>)
 8001330:	689b      	ldr	r3, [r3, #8]
 8001332:	f003 030c 	and.w	r3, r3, #12
    if((__HAL_RCC_GET_SYSCLK_SOURCE() == RCC_CFGR_SWS_HSI) ||\
 8001336:	2b08      	cmp	r3, #8
 8001338:	d11c      	bne.n	8001374 <HAL_RCC_OscConfig+0x168>
      ((__HAL_RCC_GET_SYSCLK_SOURCE() == RCC_CFGR_SWS_PLL) && ((RCC->PLLCFGR & RCC_PLLCFGR_PLLSRC) == RCC_PLLCFGR_PLLSRC_HSI)))
 800133a:	4b5f      	ldr	r3, [pc, #380]	; (80014b8 <HAL_RCC_OscConfig+0x2ac>)
 800133c:	685b      	ldr	r3, [r3, #4]
 800133e:	f403 0380 	and.w	r3, r3, #4194304	; 0x400000
 8001342:	2b00      	cmp	r3, #0
 8001344:	d116      	bne.n	8001374 <HAL_RCC_OscConfig+0x168>
    {
      /* When HSI is used as system clock it will not disabled */
      if((__HAL_RCC_GET_FLAG(RCC_FLAG_HSIRDY) != RESET) && (RCC_OscInitStruct->HSIState != RCC_HSI_ON))
 8001346:	4b5c      	ldr	r3, [pc, #368]	; (80014b8 <HAL_RCC_OscConfig+0x2ac>)
 8001348:	681b      	ldr	r3, [r3, #0]
 800134a:	f003 0302 	and.w	r3, r3, #2
 800134e:	2b00      	cmp	r3, #0
 8001350:	d005      	beq.n	800135e <HAL_RCC_OscConfig+0x152>
 8001352:	687b      	ldr	r3, [r7, #4]
 8001354:	68db      	ldr	r3, [r3, #12]
 8001356:	2b01      	cmp	r3, #1
 8001358:	d001      	beq.n	800135e <HAL_RCC_OscConfig+0x152>
      {
        return HAL_ERROR;
 800135a:	2301      	movs	r3, #1
 800135c:	e1bb      	b.n	80016d6 <HAL_RCC_OscConfig+0x4ca>
      }
      /* Otherwise, just the calibration is allowed */
      else
      {
        /* Adjusts the Internal High Speed oscillator (HSI) calibration value.*/
        __HAL_RCC_HSI_CALIBRATIONVALUE_ADJUST(RCC_OscInitStruct->HSICalibrationValue);
 800135e:	4b56      	ldr	r3, [pc, #344]	; (80014b8 <HAL_RCC_OscConfig+0x2ac>)
 8001360:	681b      	ldr	r3, [r3, #0]
 8001362:	f023 02f8 	bic.w	r2, r3, #248	; 0xf8
 8001366:	687b      	ldr	r3, [r7, #4]
 8001368:	691b      	ldr	r3, [r3, #16]
 800136a:	00db      	lsls	r3, r3, #3
 800136c:	4952      	ldr	r1, [pc, #328]	; (80014b8 <HAL_RCC_OscConfig+0x2ac>)
 800136e:	4313      	orrs	r3, r2
 8001370:	600b      	str	r3, [r1, #0]
      if((__HAL_RCC_GET_FLAG(RCC_FLAG_HSIRDY) != RESET) && (RCC_OscInitStruct->HSIState != RCC_HSI_ON))
 8001372:	e03a      	b.n	80013ea <HAL_RCC_OscConfig+0x1de>
      }
    }
    else
    {
      /* Check the HSI State */
      if((RCC_OscInitStruct->HSIState)!= RCC_HSI_OFF)
 8001374:	687b      	ldr	r3, [r7, #4]
 8001376:	68db      	ldr	r3, [r3, #12]
 8001378:	2b00      	cmp	r3, #0
 800137a:	d020      	beq.n	80013be <HAL_RCC_OscConfig+0x1b2>
      {
        /* Enable the Internal High Speed oscillator (HSI). */
        __HAL_RCC_HSI_ENABLE();
 800137c:	4b4f      	ldr	r3, [pc, #316]	; (80014bc <HAL_RCC_OscConfig+0x2b0>)
 800137e:	2201      	movs	r2, #1
 8001380:	601a      	str	r2, [r3, #0]

        /* Get Start Tick*/
        tickstart = HAL_GetTick();
 8001382:	f7ff fc2d 	bl	8000be0 <HAL_GetTick>
 8001386:	6138      	str	r0, [r7, #16]

        /* Wait till HSI is ready */
        while(__HAL_RCC_GET_FLAG(RCC_FLAG_HSIRDY) == RESET)
 8001388:	e008      	b.n	800139c <HAL_RCC_OscConfig+0x190>
        {
          if((HAL_GetTick() - tickstart ) > HSI_TIMEOUT_VALUE)
 800138a:	f7ff fc29 	bl	8000be0 <HAL_GetTick>
 800138e:	4602      	mov	r2, r0
 8001390:	693b      	ldr	r3, [r7, #16]
 8001392:	1ad3      	subs	r3, r2, r3
 8001394:	2b02      	cmp	r3, #2
 8001396:	d901      	bls.n	800139c <HAL_RCC_OscConfig+0x190>
          {
            return HAL_TIMEOUT;
 8001398:	2303      	movs	r3, #3
 800139a:	e19c      	b.n	80016d6 <HAL_RCC_OscConfig+0x4ca>
        while(__HAL_RCC_GET_FLAG(RCC_FLAG_HSIRDY) == RESET)
 800139c:	4b46      	ldr	r3, [pc, #280]	; (80014b8 <HAL_RCC_OscConfig+0x2ac>)
 800139e:	681b      	ldr	r3, [r3, #0]
 80013a0:	f003 0302 	and.w	r3, r3, #2
 80013a4:	2b00      	cmp	r3, #0
 80013a6:	d0f0      	beq.n	800138a <HAL_RCC_OscConfig+0x17e>
          }
        }

        /* Adjusts the Internal High Speed oscillator (HSI) calibration value. */
        __HAL_RCC_HSI_CALIBRATIONVALUE_ADJUST(RCC_OscInitStruct->HSICalibrationValue);
 80013a8:	4b43      	ldr	r3, [pc, #268]	; (80014b8 <HAL_RCC_OscConfig+0x2ac>)
 80013aa:	681b      	ldr	r3, [r3, #0]
 80013ac:	f023 02f8 	bic.w	r2, r3, #248	; 0xf8
 80013b0:	687b      	ldr	r3, [r7, #4]
 80013b2:	691b      	ldr	r3, [r3, #16]
 80013b4:	00db      	lsls	r3, r3, #3
 80013b6:	4940      	ldr	r1, [pc, #256]	; (80014b8 <HAL_RCC_OscConfig+0x2ac>)
 80013b8:	4313      	orrs	r3, r2
 80013ba:	600b      	str	r3, [r1, #0]
 80013bc:	e015      	b.n	80013ea <HAL_RCC_OscConfig+0x1de>
      }
      else
      {
        /* Disable the Internal High Speed oscillator (HSI). */
        __HAL_RCC_HSI_DISABLE();
 80013be:	4b3f      	ldr	r3, [pc, #252]	; (80014bc <HAL_RCC_OscConfig+0x2b0>)
 80013c0:	2200      	movs	r2, #0
 80013c2:	601a      	str	r2, [r3, #0]

        /* Get Start Tick*/
        tickstart = HAL_GetTick();
 80013c4:	f7ff fc0c 	bl	8000be0 <HAL_GetTick>
 80013c8:	6138      	str	r0, [r7, #16]

        /* Wait till HSI is ready */
        while(__HAL_RCC_GET_FLAG(RCC_FLAG_HSIRDY) != RESET)
 80013ca:	e008      	b.n	80013de <HAL_RCC_OscConfig+0x1d2>
        {
          if((HAL_GetTick() - tickstart ) > HSI_TIMEOUT_VALUE)
 80013cc:	f7ff fc08 	bl	8000be0 <HAL_GetTick>
 80013d0:	4602      	mov	r2, r0
 80013d2:	693b      	ldr	r3, [r7, #16]
 80013d4:	1ad3      	subs	r3, r2, r3
 80013d6:	2b02      	cmp	r3, #2
 80013d8:	d901      	bls.n	80013de <HAL_RCC_OscConfig+0x1d2>
          {
            return HAL_TIMEOUT;
 80013da:	2303      	movs	r3, #3
 80013dc:	e17b      	b.n	80016d6 <HAL_RCC_OscConfig+0x4ca>
        while(__HAL_RCC_GET_FLAG(RCC_FLAG_HSIRDY) != RESET)
 80013de:	4b36      	ldr	r3, [pc, #216]	; (80014b8 <HAL_RCC_OscConfig+0x2ac>)
 80013e0:	681b      	ldr	r3, [r3, #0]
 80013e2:	f003 0302 	and.w	r3, r3, #2
 80013e6:	2b00      	cmp	r3, #0
 80013e8:	d1f0      	bne.n	80013cc <HAL_RCC_OscConfig+0x1c0>
        }
      }
    }
  }
  /*------------------------------ LSI Configuration -------------------------*/
  if(((RCC_OscInitStruct->OscillatorType) & RCC_OSCILLATORTYPE_LSI) == RCC_OSCILLATORTYPE_LSI)
 80013ea:	687b      	ldr	r3, [r7, #4]
 80013ec:	681b      	ldr	r3, [r3, #0]
 80013ee:	f003 0308 	and.w	r3, r3, #8
 80013f2:	2b00      	cmp	r3, #0
 80013f4:	d030      	beq.n	8001458 <HAL_RCC_OscConfig+0x24c>
  {
    /* Check the parameters */
    assert_param(IS_RCC_LSI(RCC_OscInitStruct->LSIState));

    /* Check the LSI State */
    if((RCC_OscInitStruct->LSIState)!= RCC_LSI_OFF)
 80013f6:	687b      	ldr	r3, [r7, #4]
 80013f8:	695b      	ldr	r3, [r3, #20]
 80013fa:	2b00      	cmp	r3, #0
 80013fc:	d016      	beq.n	800142c <HAL_RCC_OscConfig+0x220>
    {
      /* Enable the Internal Low Speed oscillator (LSI). */
      __HAL_RCC_LSI_ENABLE();
 80013fe:	4b30      	ldr	r3, [pc, #192]	; (80014c0 <HAL_RCC_OscConfig+0x2b4>)
 8001400:	2201      	movs	r2, #1
 8001402:	601a      	str	r2, [r3, #0]

      /* Get Start Tick*/
      tickstart = HAL_GetTick();
 8001404:	f7ff fbec 	bl	8000be0 <HAL_GetTick>
 8001408:	6138      	str	r0, [r7, #16]

      /* Wait till LSI is ready */
      while(__HAL_RCC_GET_FLAG(RCC_FLAG_LSIRDY) == RESET)
 800140a:	e008      	b.n	800141e <HAL_RCC_OscConfig+0x212>
      {
        if((HAL_GetTick() - tickstart ) > LSI_TIMEOUT_VALUE)
 800140c:	f7ff fbe8 	bl	8000be0 <HAL_GetTick>
 8001410:	4602      	mov	r2, r0
 8001412:	693b      	ldr	r3, [r7, #16]
 8001414:	1ad3      	subs	r3, r2, r3
 8001416:	2b02      	cmp	r3, #2
 8001418:	d901      	bls.n	800141e <HAL_RCC_OscConfig+0x212>
        {
          return HAL_TIMEOUT;
 800141a:	2303      	movs	r3, #3
 800141c:	e15b      	b.n	80016d6 <HAL_RCC_OscConfig+0x4ca>
      while(__HAL_RCC_GET_FLAG(RCC_FLAG_LSIRDY) == RESET)
 800141e:	4b26      	ldr	r3, [pc, #152]	; (80014b8 <HAL_RCC_OscConfig+0x2ac>)
 8001420:	6f5b      	ldr	r3, [r3, #116]	; 0x74
 8001422:	f003 0302 	and.w	r3, r3, #2
 8001426:	2b00      	cmp	r3, #0
 8001428:	d0f0      	beq.n	800140c <HAL_RCC_OscConfig+0x200>
 800142a:	e015      	b.n	8001458 <HAL_RCC_OscConfig+0x24c>
      }
    }
    else
    {
      /* Disable the Internal Low Speed oscillator (LSI). */
      __HAL_RCC_LSI_DISABLE();
 800142c:	4b24      	ldr	r3, [pc, #144]	; (80014c0 <HAL_RCC_OscConfig+0x2b4>)
 800142e:	2200      	movs	r2, #0
 8001430:	601a      	str	r2, [r3, #0]

      /* Get Start Tick */
      tickstart = HAL_GetTick();
 8001432:	f7ff fbd5 	bl	8000be0 <HAL_GetTick>
 8001436:	6138      	str	r0, [r7, #16]

      /* Wait till LSI is ready */
      while(__HAL_RCC_GET_FLAG(RCC_FLAG_LSIRDY) != RESET)
 8001438:	e008      	b.n	800144c <HAL_RCC_OscConfig+0x240>
      {
        if((HAL_GetTick() - tickstart ) > LSI_TIMEOUT_VALUE)
 800143a:	f7ff fbd1 	bl	8000be0 <HAL_GetTick>
 800143e:	4602      	mov	r2, r0
 8001440:	693b      	ldr	r3, [r7, #16]
 8001442:	1ad3      	subs	r3, r2, r3
 8001444:	2b02      	cmp	r3, #2
 8001446:	d901      	bls.n	800144c <HAL_RCC_OscConfig+0x240>
        {
          return HAL_TIMEOUT;
 8001448:	2303      	movs	r3, #3
 800144a:	e144      	b.n	80016d6 <HAL_RCC_OscConfig+0x4ca>
      while(__HAL_RCC_GET_FLAG(RCC_FLAG_LSIRDY) != RESET)
 800144c:	4b1a      	ldr	r3, [pc, #104]	; (80014b8 <HAL_RCC_OscConfig+0x2ac>)
 800144e:	6f5b      	ldr	r3, [r3, #116]	; 0x74
 8001450:	f003 0302 	and.w	r3, r3, #2
 8001454:	2b00      	cmp	r3, #0
 8001456:	d1f0      	bne.n	800143a <HAL_RCC_OscConfig+0x22e>
        }
      }
    }
  }
  /*------------------------------ LSE Configuration -------------------------*/
  if(((RCC_OscInitStruct->OscillatorType) & RCC_OSCILLATORTYPE_LSE) == RCC_OSCILLATORTYPE_LSE)
 8001458:	687b      	ldr	r3, [r7, #4]
 800145a:	681b      	ldr	r3, [r3, #0]
 800145c:	f003 0304 	and.w	r3, r3, #4
 8001460:	2b00      	cmp	r3, #0
 8001462:	f000 80a0 	beq.w	80015a6 <HAL_RCC_OscConfig+0x39a>
  {
    FlagStatus       pwrclkchanged = RESET;
 8001466:	2300      	movs	r3, #0
 8001468:	75fb      	strb	r3, [r7, #23]
    /* Check the parameters */
    assert_param(IS_RCC_LSE(RCC_OscInitStruct->LSEState));

    /* Update LSE configuration in Backup Domain control register    */
    /* Requires to enable write access to Backup Domain of necessary */
    if(__HAL_RCC_PWR_IS_CLK_DISABLED())
 800146a:	4b13      	ldr	r3, [pc, #76]	; (80014b8 <HAL_RCC_OscConfig+0x2ac>)
 800146c:	6c1b      	ldr	r3, [r3, #64]	; 0x40
 800146e:	f003 5380 	and.w	r3, r3, #268435456	; 0x10000000
 8001472:	2b00      	cmp	r3, #0
 8001474:	d10f      	bne.n	8001496 <HAL_RCC_OscConfig+0x28a>
    {
      __HAL_RCC_PWR_CLK_ENABLE();
 8001476:	2300      	movs	r3, #0
 8001478:	60bb      	str	r3, [r7, #8]
 800147a:	4b0f      	ldr	r3, [pc, #60]	; (80014b8 <HAL_RCC_OscConfig+0x2ac>)
 800147c:	6c1b      	ldr	r3, [r3, #64]	; 0x40
 800147e:	4a0e      	ldr	r2, [pc, #56]	; (80014b8 <HAL_RCC_OscConfig+0x2ac>)
 8001480:	f043 5380 	orr.w	r3, r3, #268435456	; 0x10000000
 8001484:	6413      	str	r3, [r2, #64]	; 0x40
 8001486:	4b0c      	ldr	r3, [pc, #48]	; (80014b8 <HAL_RCC_OscConfig+0x2ac>)
 8001488:	6c1b      	ldr	r3, [r3, #64]	; 0x40
 800148a:	f003 5380 	and.w	r3, r3, #268435456	; 0x10000000
 800148e:	60bb      	str	r3, [r7, #8]
 8001490:	68bb      	ldr	r3, [r7, #8]
      pwrclkchanged = SET;
 8001492:	2301      	movs	r3, #1
 8001494:	75fb      	strb	r3, [r7, #23]
    }

    if(HAL_IS_BIT_CLR(PWR->CR, PWR_CR_DBP))
 8001496:	4b0b      	ldr	r3, [pc, #44]	; (80014c4 <HAL_RCC_OscConfig+0x2b8>)
 8001498:	681b      	ldr	r3, [r3, #0]
 800149a:	f403 7380 	and.w	r3, r3, #256	; 0x100
 800149e:	2b00      	cmp	r3, #0
 80014a0:	d121      	bne.n	80014e6 <HAL_RCC_OscConfig+0x2da>
    {
      /* Enable write access to Backup domain */
      SET_BIT(PWR->CR, PWR_CR_DBP);
 80014a2:	4b08      	ldr	r3, [pc, #32]	; (80014c4 <HAL_RCC_OscConfig+0x2b8>)
 80014a4:	681b      	ldr	r3, [r3, #0]
 80014a6:	4a07      	ldr	r2, [pc, #28]	; (80014c4 <HAL_RCC_OscConfig+0x2b8>)
 80014a8:	f443 7380 	orr.w	r3, r3, #256	; 0x100
 80014ac:	6013      	str	r3, [r2, #0]

      /* Wait for Backup domain Write protection disable */
      tickstart = HAL_GetTick();
 80014ae:	f7ff fb97 	bl	8000be0 <HAL_GetTick>
 80014b2:	6138      	str	r0, [r7, #16]

      while(HAL_IS_BIT_CLR(PWR->CR, PWR_CR_DBP))
 80014b4:	e011      	b.n	80014da <HAL_RCC_OscConfig+0x2ce>
 80014b6:	bf00      	nop
 80014b8:	40023800 	.word	0x40023800
 80014bc:	42470000 	.word	0x42470000
 80014c0:	42470e80 	.word	0x42470e80
 80014c4:	40007000 	.word	0x40007000
      {
        if((HAL_GetTick() - tickstart) > RCC_DBP_TIMEOUT_VALUE)
 80014c8:	f7ff fb8a 	bl	8000be0 <HAL_GetTick>
 80014cc:	4602      	mov	r2, r0
 80014ce:	693b      	ldr	r3, [r7, #16]
 80014d0:	1ad3      	subs	r3, r2, r3
 80014d2:	2b02      	cmp	r3, #2
 80014d4:	d901      	bls.n	80014da <HAL_RCC_OscConfig+0x2ce>
        {
          return HAL_TIMEOUT;
 80014d6:	2303      	movs	r3, #3
 80014d8:	e0fd      	b.n	80016d6 <HAL_RCC_OscConfig+0x4ca>
      while(HAL_IS_BIT_CLR(PWR->CR, PWR_CR_DBP))
 80014da:	4b81      	ldr	r3, [pc, #516]	; (80016e0 <HAL_RCC_OscConfig+0x4d4>)
 80014dc:	681b      	ldr	r3, [r3, #0]
 80014de:	f403 7380 	and.w	r3, r3, #256	; 0x100
 80014e2:	2b00      	cmp	r3, #0
 80014e4:	d0f0      	beq.n	80014c8 <HAL_RCC_OscConfig+0x2bc>
        }
      }
    }

    /* Set the new LSE configuration -----------------------------------------*/
    __HAL_RCC_LSE_CONFIG(RCC_OscInitStruct->LSEState);
 80014e6:	687b      	ldr	r3, [r7, #4]
 80014e8:	689b      	ldr	r3, [r3, #8]
 80014ea:	2b01      	cmp	r3, #1
 80014ec:	d106      	bne.n	80014fc <HAL_RCC_OscConfig+0x2f0>
 80014ee:	4b7d      	ldr	r3, [pc, #500]	; (80016e4 <HAL_RCC_OscConfig+0x4d8>)
 80014f0:	6f1b      	ldr	r3, [r3, #112]	; 0x70
 80014f2:	4a7c      	ldr	r2, [pc, #496]	; (80016e4 <HAL_RCC_OscConfig+0x4d8>)
 80014f4:	f043 0301 	orr.w	r3, r3, #1
 80014f8:	6713      	str	r3, [r2, #112]	; 0x70
 80014fa:	e01c      	b.n	8001536 <HAL_RCC_OscConfig+0x32a>
 80014fc:	687b      	ldr	r3, [r7, #4]
 80014fe:	689b      	ldr	r3, [r3, #8]
 8001500:	2b05      	cmp	r3, #5
 8001502:	d10c      	bne.n	800151e <HAL_RCC_OscConfig+0x312>
 8001504:	4b77      	ldr	r3, [pc, #476]	; (80016e4 <HAL_RCC_OscConfig+0x4d8>)
 8001506:	6f1b      	ldr	r3, [r3, #112]	; 0x70
 8001508:	4a76      	ldr	r2, [pc, #472]	; (80016e4 <HAL_RCC_OscConfig+0x4d8>)
 800150a:	f043 0304 	orr.w	r3, r3, #4
 800150e:	6713      	str	r3, [r2, #112]	; 0x70
 8001510:	4b74      	ldr	r3, [pc, #464]	; (80016e4 <HAL_RCC_OscConfig+0x4d8>)
 8001512:	6f1b      	ldr	r3, [r3, #112]	; 0x70
 8001514:	4a73      	ldr	r2, [pc, #460]	; (80016e4 <HAL_RCC_OscConfig+0x4d8>)
 8001516:	f043 0301 	orr.w	r3, r3, #1
 800151a:	6713      	str	r3, [r2, #112]	; 0x70
 800151c:	e00b      	b.n	8001536 <HAL_RCC_OscConfig+0x32a>
 800151e:	4b71      	ldr	r3, [pc, #452]	; (80016e4 <HAL_RCC_OscConfig+0x4d8>)
 8001520:	6f1b      	ldr	r3, [r3, #112]	; 0x70
 8001522:	4a70      	ldr	r2, [pc, #448]	; (80016e4 <HAL_RCC_OscConfig+0x4d8>)
 8001524:	f023 0301 	bic.w	r3, r3, #1
 8001528:	6713      	str	r3, [r2, #112]	; 0x70
 800152a:	4b6e      	ldr	r3, [pc, #440]	; (80016e4 <HAL_RCC_OscConfig+0x4d8>)
 800152c:	6f1b      	ldr	r3, [r3, #112]	; 0x70
 800152e:	4a6d      	ldr	r2, [pc, #436]	; (80016e4 <HAL_RCC_OscConfig+0x4d8>)
 8001530:	f023 0304 	bic.w	r3, r3, #4
 8001534:	6713      	str	r3, [r2, #112]	; 0x70
    /* Check the LSE State */
    if((RCC_OscInitStruct->LSEState) != RCC_LSE_OFF)
 8001536:	687b      	ldr	r3, [r7, #4]
 8001538:	689b      	ldr	r3, [r3, #8]
 800153a:	2b00      	cmp	r3, #0
 800153c:	d015      	beq.n	800156a <HAL_RCC_OscConfig+0x35e>
    {
      /* Get Start Tick*/
      tickstart = HAL_GetTick();
 800153e:	f7ff fb4f 	bl	8000be0 <HAL_GetTick>
 8001542:	6138      	str	r0, [r7, #16]

      /* Wait till LSE is ready */
      while(__HAL_RCC_GET_FLAG(RCC_FLAG_LSERDY) == RESET)
 8001544:	e00a      	b.n	800155c <HAL_RCC_OscConfig+0x350>
      {
        if((HAL_GetTick() - tickstart ) > RCC_LSE_TIMEOUT_VALUE)
 8001546:	f7ff fb4b 	bl	8000be0 <HAL_GetTick>
 800154a:	4602      	mov	r2, r0
 800154c:	693b      	ldr	r3, [r7, #16]
 800154e:	1ad3      	subs	r3, r2, r3
 8001550:	f241 3288 	movw	r2, #5000	; 0x1388
 8001554:	4293      	cmp	r3, r2
 8001556:	d901      	bls.n	800155c <HAL_RCC_OscConfig+0x350>
        {
          return HAL_TIMEOUT;
 8001558:	2303      	movs	r3, #3
 800155a:	e0bc      	b.n	80016d6 <HAL_RCC_OscConfig+0x4ca>
      while(__HAL_RCC_GET_FLAG(RCC_FLAG_LSERDY) == RESET)
 800155c:	4b61      	ldr	r3, [pc, #388]	; (80016e4 <HAL_RCC_OscConfig+0x4d8>)
 800155e:	6f1b      	ldr	r3, [r3, #112]	; 0x70
 8001560:	f003 0302 	and.w	r3, r3, #2
 8001564:	2b00      	cmp	r3, #0
 8001566:	d0ee      	beq.n	8001546 <HAL_RCC_OscConfig+0x33a>
 8001568:	e014      	b.n	8001594 <HAL_RCC_OscConfig+0x388>
      }
    }
    else
    {
      /* Get Start Tick */
      tickstart = HAL_GetTick();
 800156a:	f7ff fb39 	bl	8000be0 <HAL_GetTick>
 800156e:	6138      	str	r0, [r7, #16]

      /* Wait till LSE is ready */
      while(__HAL_RCC_GET_FLAG(RCC_FLAG_LSERDY) != RESET)
 8001570:	e00a      	b.n	8001588 <HAL_RCC_OscConfig+0x37c>
      {
        if((HAL_GetTick() - tickstart ) > RCC_LSE_TIMEOUT_VALUE)
 8001572:	f7ff fb35 	bl	8000be0 <HAL_GetTick>
 8001576:	4602      	mov	r2, r0
 8001578:	693b      	ldr	r3, [r7, #16]
 800157a:	1ad3      	subs	r3, r2, r3
 800157c:	f241 3288 	movw	r2, #5000	; 0x1388
 8001580:	4293      	cmp	r3, r2
 8001582:	d901      	bls.n	8001588 <HAL_RCC_OscConfig+0x37c>
        {
          return HAL_TIMEOUT;
 8001584:	2303      	movs	r3, #3
 8001586:	e0a6      	b.n	80016d6 <HAL_RCC_OscConfig+0x4ca>
      while(__HAL_RCC_GET_FLAG(RCC_FLAG_LSERDY) != RESET)
 8001588:	4b56      	ldr	r3, [pc, #344]	; (80016e4 <HAL_RCC_OscConfig+0x4d8>)
 800158a:	6f1b      	ldr	r3, [r3, #112]	; 0x70
 800158c:	f003 0302 	and.w	r3, r3, #2
 8001590:	2b00      	cmp	r3, #0
 8001592:	d1ee      	bne.n	8001572 <HAL_RCC_OscConfig+0x366>
        }
      }
    }

    /* Restore clock configuration if changed */
    if(pwrclkchanged == SET)
 8001594:	7dfb      	ldrb	r3, [r7, #23]
 8001596:	2b01      	cmp	r3, #1
 8001598:	d105      	bne.n	80015a6 <HAL_RCC_OscConfig+0x39a>
    {
      __HAL_RCC_PWR_CLK_DISABLE();
 800159a:	4b52      	ldr	r3, [pc, #328]	; (80016e4 <HAL_RCC_OscConfig+0x4d8>)
 800159c:	6c1b      	ldr	r3, [r3, #64]	; 0x40
 800159e:	4a51      	ldr	r2, [pc, #324]	; (80016e4 <HAL_RCC_OscConfig+0x4d8>)
 80015a0:	f023 5380 	bic.w	r3, r3, #268435456	; 0x10000000
 80015a4:	6413      	str	r3, [r2, #64]	; 0x40
    }
  }
  /*-------------------------------- PLL Configuration -----------------------*/
  /* Check the parameters */
  assert_param(IS_RCC_PLL(RCC_OscInitStruct->PLL.PLLState));
  if ((RCC_OscInitStruct->PLL.PLLState) != RCC_PLL_NONE)
 80015a6:	687b      	ldr	r3, [r7, #4]
 80015a8:	699b      	ldr	r3, [r3, #24]
 80015aa:	2b00      	cmp	r3, #0
 80015ac:	f000 8092 	beq.w	80016d4 <HAL_RCC_OscConfig+0x4c8>
  {
    /* Check if the PLL is used as system clock or not */
    if(__HAL_RCC_GET_SYSCLK_SOURCE() != RCC_CFGR_SWS_PLL)
 80015b0:	4b4c      	ldr	r3, [pc, #304]	; (80016e4 <HAL_RCC_OscConfig+0x4d8>)
 80015b2:	689b      	ldr	r3, [r3, #8]
 80015b4:	f003 030c 	and.w	r3, r3, #12
 80015b8:	2b08      	cmp	r3, #8
 80015ba:	d05c      	beq.n	8001676 <HAL_RCC_OscConfig+0x46a>
    {
      if((RCC_OscInitStruct->PLL.PLLState) == RCC_PLL_ON)
 80015bc:	687b      	ldr	r3, [r7, #4]
 80015be:	699b      	ldr	r3, [r3, #24]
 80015c0:	2b02      	cmp	r3, #2
 80015c2:	d141      	bne.n	8001648 <HAL_RCC_OscConfig+0x43c>
        assert_param(IS_RCC_PLLN_VALUE(RCC_OscInitStruct->PLL.PLLN));
        assert_param(IS_RCC_PLLP_VALUE(RCC_OscInitStruct->PLL.PLLP));
        assert_param(IS_RCC_PLLQ_VALUE(RCC_OscInitStruct->PLL.PLLQ));

        /* Disable the main PLL. */
        __HAL_RCC_PLL_DISABLE();
 80015c4:	4b48      	ldr	r3, [pc, #288]	; (80016e8 <HAL_RCC_OscConfig+0x4dc>)
 80015c6:	2200      	movs	r2, #0
 80015c8:	601a      	str	r2, [r3, #0]

        /* Get Start Tick */
        tickstart = HAL_GetTick();
 80015ca:	f7ff fb09 	bl	8000be0 <HAL_GetTick>
 80015ce:	6138      	str	r0, [r7, #16]

        /* Wait till PLL is ready */
        while(__HAL_RCC_GET_FLAG(RCC_FLAG_PLLRDY) != RESET)
 80015d0:	e008      	b.n	80015e4 <HAL_RCC_OscConfig+0x3d8>
        {
          if((HAL_GetTick() - tickstart ) > PLL_TIMEOUT_VALUE)
 80015d2:	f7ff fb05 	bl	8000be0 <HAL_GetTick>
 80015d6:	4602      	mov	r2, r0
 80015d8:	693b      	ldr	r3, [r7, #16]
 80015da:	1ad3      	subs	r3, r2, r3
 80015dc:	2b02      	cmp	r3, #2
 80015de:	d901      	bls.n	80015e4 <HAL_RCC_OscConfig+0x3d8>
          {
            return HAL_TIMEOUT;
 80015e0:	2303      	movs	r3, #3
 80015e2:	e078      	b.n	80016d6 <HAL_RCC_OscConfig+0x4ca>
        while(__HAL_RCC_GET_FLAG(RCC_FLAG_PLLRDY) != RESET)
 80015e4:	4b3f      	ldr	r3, [pc, #252]	; (80016e4 <HAL_RCC_OscConfig+0x4d8>)
 80015e6:	681b      	ldr	r3, [r3, #0]
 80015e8:	f003 7300 	and.w	r3, r3, #33554432	; 0x2000000
 80015ec:	2b00      	cmp	r3, #0
 80015ee:	d1f0      	bne.n	80015d2 <HAL_RCC_OscConfig+0x3c6>
          }
        }

        /* Configure the main PLL clock source, multiplication and division factors. */
        WRITE_REG(RCC->PLLCFGR, (RCC_OscInitStruct->PLL.PLLSource                                            | \
 80015f0:	687b      	ldr	r3, [r7, #4]
 80015f2:	69da      	ldr	r2, [r3, #28]
 80015f4:	687b      	ldr	r3, [r7, #4]
 80015f6:	6a1b      	ldr	r3, [r3, #32]
 80015f8:	431a      	orrs	r2, r3
 80015fa:	687b      	ldr	r3, [r7, #4]
 80015fc:	6a5b      	ldr	r3, [r3, #36]	; 0x24
 80015fe:	019b      	lsls	r3, r3, #6
 8001600:	431a      	orrs	r2, r3
 8001602:	687b      	ldr	r3, [r7, #4]
 8001604:	6a9b      	ldr	r3, [r3, #40]	; 0x28
 8001606:	085b      	lsrs	r3, r3, #1
 8001608:	3b01      	subs	r3, #1
 800160a:	041b      	lsls	r3, r3, #16
 800160c:	431a      	orrs	r2, r3
 800160e:	687b      	ldr	r3, [r7, #4]
 8001610:	6adb      	ldr	r3, [r3, #44]	; 0x2c
 8001612:	061b      	lsls	r3, r3, #24
 8001614:	4933      	ldr	r1, [pc, #204]	; (80016e4 <HAL_RCC_OscConfig+0x4d8>)
 8001616:	4313      	orrs	r3, r2
 8001618:	604b      	str	r3, [r1, #4]
                                 RCC_OscInitStruct->PLL.PLLM                                                 | \
                                 (RCC_OscInitStruct->PLL.PLLN << RCC_PLLCFGR_PLLN_Pos)             | \
                                 (((RCC_OscInitStruct->PLL.PLLP >> 1U) - 1U) << RCC_PLLCFGR_PLLP_Pos) | \
                                 (RCC_OscInitStruct->PLL.PLLQ << RCC_PLLCFGR_PLLQ_Pos)));
        /* Enable the main PLL. */
        __HAL_RCC_PLL_ENABLE();
 800161a:	4b33      	ldr	r3, [pc, #204]	; (80016e8 <HAL_RCC_OscConfig+0x4dc>)
 800161c:	2201      	movs	r2, #1
 800161e:	601a      	str	r2, [r3, #0]

        /* Get Start Tick */
        tickstart = HAL_GetTick();
 8001620:	f7ff fade 	bl	8000be0 <HAL_GetTick>
 8001624:	6138      	str	r0, [r7, #16]

        /* Wait till PLL is ready */
        while(__HAL_RCC_GET_FLAG(RCC_FLAG_PLLRDY) == RESET)
 8001626:	e008      	b.n	800163a <HAL_RCC_OscConfig+0x42e>
        {
          if((HAL_GetTick() - tickstart ) > PLL_TIMEOUT_VALUE)
 8001628:	f7ff fada 	bl	8000be0 <HAL_GetTick>
 800162c:	4602      	mov	r2, r0
 800162e:	693b      	ldr	r3, [r7, #16]
 8001630:	1ad3      	subs	r3, r2, r3
 8001632:	2b02      	cmp	r3, #2
 8001634:	d901      	bls.n	800163a <HAL_RCC_OscConfig+0x42e>
          {
            return HAL_TIMEOUT;
 8001636:	2303      	movs	r3, #3
 8001638:	e04d      	b.n	80016d6 <HAL_RCC_OscConfig+0x4ca>
        while(__HAL_RCC_GET_FLAG(RCC_FLAG_PLLRDY) == RESET)
 800163a:	4b2a      	ldr	r3, [pc, #168]	; (80016e4 <HAL_RCC_OscConfig+0x4d8>)
 800163c:	681b      	ldr	r3, [r3, #0]
 800163e:	f003 7300 	and.w	r3, r3, #33554432	; 0x2000000
 8001642:	2b00      	cmp	r3, #0
 8001644:	d0f0      	beq.n	8001628 <HAL_RCC_OscConfig+0x41c>
 8001646:	e045      	b.n	80016d4 <HAL_RCC_OscConfig+0x4c8>
        }
      }
      else
      {
        /* Disable the main PLL. */
        __HAL_RCC_PLL_DISABLE();
 8001648:	4b27      	ldr	r3, [pc, #156]	; (80016e8 <HAL_RCC_OscConfig+0x4dc>)
 800164a:	2200      	movs	r2, #0
 800164c:	601a      	str	r2, [r3, #0]

        /* Get Start Tick */
        tickstart = HAL_GetTick();
 800164e:	f7ff fac7 	bl	8000be0 <HAL_GetTick>
 8001652:	6138      	str	r0, [r7, #16]

        /* Wait till PLL is ready */
        while(__HAL_RCC_GET_FLAG(RCC_FLAG_PLLRDY) != RESET)
 8001654:	e008      	b.n	8001668 <HAL_RCC_OscConfig+0x45c>
        {
          if((HAL_GetTick() - tickstart ) > PLL_TIMEOUT_VALUE)
 8001656:	f7ff fac3 	bl	8000be0 <HAL_GetTick>
 800165a:	4602      	mov	r2, r0
 800165c:	693b      	ldr	r3, [r7, #16]
 800165e:	1ad3      	subs	r3, r2, r3
 8001660:	2b02      	cmp	r3, #2
 8001662:	d901      	bls.n	8001668 <HAL_RCC_OscConfig+0x45c>
          {
            return HAL_TIMEOUT;
 8001664:	2303      	movs	r3, #3
 8001666:	e036      	b.n	80016d6 <HAL_RCC_OscConfig+0x4ca>
        while(__HAL_RCC_GET_FLAG(RCC_FLAG_PLLRDY) != RESET)
 8001668:	4b1e      	ldr	r3, [pc, #120]	; (80016e4 <HAL_RCC_OscConfig+0x4d8>)
 800166a:	681b      	ldr	r3, [r3, #0]
 800166c:	f003 7300 	and.w	r3, r3, #33554432	; 0x2000000
 8001670:	2b00      	cmp	r3, #0
 8001672:	d1f0      	bne.n	8001656 <HAL_RCC_OscConfig+0x44a>
 8001674:	e02e      	b.n	80016d4 <HAL_RCC_OscConfig+0x4c8>
      }
    }
    else
    {
      /* Check if there is a request to disable the PLL used as System clock source */
      if((RCC_OscInitStruct->PLL.PLLState) == RCC_PLL_OFF)
 8001676:	687b      	ldr	r3, [r7, #4]
 8001678:	699b      	ldr	r3, [r3, #24]
 800167a:	2b01      	cmp	r3, #1
 800167c:	d101      	bne.n	8001682 <HAL_RCC_OscConfig+0x476>
      {
        return HAL_ERROR;
 800167e:	2301      	movs	r3, #1
 8001680:	e029      	b.n	80016d6 <HAL_RCC_OscConfig+0x4ca>
      }
      else
      {
        /* Do not return HAL_ERROR if request repeats the current configuration */
        pll_config = RCC->PLLCFGR;
 8001682:	4b18      	ldr	r3, [pc, #96]	; (80016e4 <HAL_RCC_OscConfig+0x4d8>)
 8001684:	685b      	ldr	r3, [r3, #4]
 8001686:	60fb      	str	r3, [r7, #12]
        if((READ_BIT(pll_config, RCC_PLLCFGR_PLLSRC) != RCC_OscInitStruct->PLL.PLLSource) ||
 8001688:	68fb      	ldr	r3, [r7, #12]
 800168a:	f403 0280 	and.w	r2, r3, #4194304	; 0x400000
 800168e:	687b      	ldr	r3, [r7, #4]
 8001690:	69db      	ldr	r3, [r3, #28]
 8001692:	429a      	cmp	r2, r3
 8001694:	d11c      	bne.n	80016d0 <HAL_RCC_OscConfig+0x4c4>
           (READ_BIT(pll_config, RCC_PLLCFGR_PLLM) != RCC_OscInitStruct->PLL.PLLM) ||
 8001696:	68fb      	ldr	r3, [r7, #12]
 8001698:	f003 023f 	and.w	r2, r3, #63	; 0x3f
 800169c:	687b      	ldr	r3, [r7, #4]
 800169e:	6a1b      	ldr	r3, [r3, #32]
        if((READ_BIT(pll_config, RCC_PLLCFGR_PLLSRC) != RCC_OscInitStruct->PLL.PLLSource) ||
 80016a0:	429a      	cmp	r2, r3
 80016a2:	d115      	bne.n	80016d0 <HAL_RCC_OscConfig+0x4c4>
           (READ_BIT(pll_config, RCC_PLLCFGR_PLLN) != RCC_OscInitStruct->PLL.PLLN) ||
 80016a4:	68fa      	ldr	r2, [r7, #12]
 80016a6:	f647 73c0 	movw	r3, #32704	; 0x7fc0
 80016aa:	4013      	ands	r3, r2
 80016ac:	687a      	ldr	r2, [r7, #4]
 80016ae:	6a52      	ldr	r2, [r2, #36]	; 0x24
           (READ_BIT(pll_config, RCC_PLLCFGR_PLLM) != RCC_OscInitStruct->PLL.PLLM) ||
 80016b0:	4293      	cmp	r3, r2
 80016b2:	d10d      	bne.n	80016d0 <HAL_RCC_OscConfig+0x4c4>
           (READ_BIT(pll_config, RCC_PLLCFGR_PLLP) != RCC_OscInitStruct->PLL.PLLP) ||
 80016b4:	68fb      	ldr	r3, [r7, #12]
 80016b6:	f403 3240 	and.w	r2, r3, #196608	; 0x30000
 80016ba:	687b      	ldr	r3, [r7, #4]
 80016bc:	6a9b      	ldr	r3, [r3, #40]	; 0x28
           (READ_BIT(pll_config, RCC_PLLCFGR_PLLN) != RCC_OscInitStruct->PLL.PLLN) ||
 80016be:	429a      	cmp	r2, r3
 80016c0:	d106      	bne.n	80016d0 <HAL_RCC_OscConfig+0x4c4>
           (READ_BIT(pll_config, RCC_PLLCFGR_PLLQ) != RCC_OscInitStruct->PLL.PLLQ))
 80016c2:	68fb      	ldr	r3, [r7, #12]
 80016c4:	f003 6270 	and.w	r2, r3, #251658240	; 0xf000000
 80016c8:	687b      	ldr	r3, [r7, #4]
 80016ca:	6adb      	ldr	r3, [r3, #44]	; 0x2c
           (READ_BIT(pll_config, RCC_PLLCFGR_PLLP) != RCC_OscInitStruct->PLL.PLLP) ||
 80016cc:	429a      	cmp	r2, r3
 80016ce:	d001      	beq.n	80016d4 <HAL_RCC_OscConfig+0x4c8>
        {
          return HAL_ERROR;
 80016d0:	2301      	movs	r3, #1
 80016d2:	e000      	b.n	80016d6 <HAL_RCC_OscConfig+0x4ca>
        }
      }
    }
  }
  return HAL_OK;
 80016d4:	2300      	movs	r3, #0
}
 80016d6:	4618      	mov	r0, r3
 80016d8:	3718      	adds	r7, #24
 80016da:	46bd      	mov	sp, r7
 80016dc:	bd80      	pop	{r7, pc}
 80016de:	bf00      	nop
 80016e0:	40007000 	.word	0x40007000
 80016e4:	40023800 	.word	0x40023800
 80016e8:	42470060 	.word	0x42470060

080016ec <HAL_RCC_ClockConfig>:
  *         HPRE[3:0] bits to ensure that HCLK not exceed the maximum allowed frequency
  *         (for more details refer to section above "Initialization/de-initialization functions")
  * @retval None
  */
HAL_StatusTypeDef HAL_RCC_ClockConfig(RCC_ClkInitTypeDef  *RCC_ClkInitStruct, uint32_t FLatency)
{
 80016ec:	b580      	push	{r7, lr}
 80016ee:	b084      	sub	sp, #16
 80016f0:	af00      	add	r7, sp, #0
 80016f2:	6078      	str	r0, [r7, #4]
 80016f4:	6039      	str	r1, [r7, #0]
  uint32_t tickstart;

  /* Check Null pointer */
  if(RCC_ClkInitStruct == NULL)
 80016f6:	687b      	ldr	r3, [r7, #4]
 80016f8:	2b00      	cmp	r3, #0
 80016fa:	d101      	bne.n	8001700 <HAL_RCC_ClockConfig+0x14>
  {
    return HAL_ERROR;
 80016fc:	2301      	movs	r3, #1
 80016fe:	e0cc      	b.n	800189a <HAL_RCC_ClockConfig+0x1ae>
  /* To correctly read data from FLASH memory, the number of wait states (LATENCY)
    must be correctly programmed according to the frequency of the CPU clock
    (HCLK) and the supply voltage of the device. */

  /* Increasing the number of wait states because of higher CPU frequency */
  if(FLatency > __HAL_FLASH_GET_LATENCY())
 8001700:	4b68      	ldr	r3, [pc, #416]	; (80018a4 <HAL_RCC_ClockConfig+0x1b8>)
 8001702:	681b      	ldr	r3, [r3, #0]
 8001704:	f003 030f 	and.w	r3, r3, #15
 8001708:	683a      	ldr	r2, [r7, #0]
 800170a:	429a      	cmp	r2, r3
 800170c:	d90c      	bls.n	8001728 <HAL_RCC_ClockConfig+0x3c>
  {
    /* Program the new number of wait states to the LATENCY bits in the FLASH_ACR register */
    __HAL_FLASH_SET_LATENCY(FLatency);
 800170e:	4b65      	ldr	r3, [pc, #404]	; (80018a4 <HAL_RCC_ClockConfig+0x1b8>)
 8001710:	683a      	ldr	r2, [r7, #0]
 8001712:	b2d2      	uxtb	r2, r2
 8001714:	701a      	strb	r2, [r3, #0]

    /* Check that the new number of wait states is taken into account to access the Flash
    memory by reading the FLASH_ACR register */
    if(__HAL_FLASH_GET_LATENCY() != FLatency)
 8001716:	4b63      	ldr	r3, [pc, #396]	; (80018a4 <HAL_RCC_ClockConfig+0x1b8>)
 8001718:	681b      	ldr	r3, [r3, #0]
 800171a:	f003 030f 	and.w	r3, r3, #15
 800171e:	683a      	ldr	r2, [r7, #0]
 8001720:	429a      	cmp	r2, r3
 8001722:	d001      	beq.n	8001728 <HAL_RCC_ClockConfig+0x3c>
    {
      return HAL_ERROR;
 8001724:	2301      	movs	r3, #1
 8001726:	e0b8      	b.n	800189a <HAL_RCC_ClockConfig+0x1ae>
    }
  }

  /*-------------------------- HCLK Configuration --------------------------*/
  if(((RCC_ClkInitStruct->ClockType) & RCC_CLOCKTYPE_HCLK) == RCC_CLOCKTYPE_HCLK)
 8001728:	687b      	ldr	r3, [r7, #4]
 800172a:	681b      	ldr	r3, [r3, #0]
 800172c:	f003 0302 	and.w	r3, r3, #2
 8001730:	2b00      	cmp	r3, #0
 8001732:	d020      	beq.n	8001776 <HAL_RCC_ClockConfig+0x8a>
  {
    /* Set the highest APBx dividers in order to ensure that we do not go through
       a non-spec phase whatever we decrease or increase HCLK. */
    if(((RCC_ClkInitStruct->ClockType) & RCC_CLOCKTYPE_PCLK1) == RCC_CLOCKTYPE_PCLK1)
 8001734:	687b      	ldr	r3, [r7, #4]
 8001736:	681b      	ldr	r3, [r3, #0]
 8001738:	f003 0304 	and.w	r3, r3, #4
 800173c:	2b00      	cmp	r3, #0
 800173e:	d005      	beq.n	800174c <HAL_RCC_ClockConfig+0x60>
    {
      MODIFY_REG(RCC->CFGR, RCC_CFGR_PPRE1, RCC_HCLK_DIV16);
 8001740:	4b59      	ldr	r3, [pc, #356]	; (80018a8 <HAL_RCC_ClockConfig+0x1bc>)
 8001742:	689b      	ldr	r3, [r3, #8]
 8001744:	4a58      	ldr	r2, [pc, #352]	; (80018a8 <HAL_RCC_ClockConfig+0x1bc>)
 8001746:	f443 53e0 	orr.w	r3, r3, #7168	; 0x1c00
 800174a:	6093      	str	r3, [r2, #8]
    }

    if(((RCC_ClkInitStruct->ClockType) & RCC_CLOCKTYPE_PCLK2) == RCC_CLOCKTYPE_PCLK2)
 800174c:	687b      	ldr	r3, [r7, #4]
 800174e:	681b      	ldr	r3, [r3, #0]
 8001750:	f003 0308 	and.w	r3, r3, #8
 8001754:	2b00      	cmp	r3, #0
 8001756:	d005      	beq.n	8001764 <HAL_RCC_ClockConfig+0x78>
    {
      MODIFY_REG(RCC->CFGR, RCC_CFGR_PPRE2, (RCC_HCLK_DIV16 << 3));
 8001758:	4b53      	ldr	r3, [pc, #332]	; (80018a8 <HAL_RCC_ClockConfig+0x1bc>)
 800175a:	689b      	ldr	r3, [r3, #8]
 800175c:	4a52      	ldr	r2, [pc, #328]	; (80018a8 <HAL_RCC_ClockConfig+0x1bc>)
 800175e:	f443 4360 	orr.w	r3, r3, #57344	; 0xe000
 8001762:	6093      	str	r3, [r2, #8]
    }

    assert_param(IS_RCC_HCLK(RCC_ClkInitStruct->AHBCLKDivider));
    MODIFY_REG(RCC->CFGR, RCC_CFGR_HPRE, RCC_ClkInitStruct->AHBCLKDivider);
 8001764:	4b50      	ldr	r3, [pc, #320]	; (80018a8 <HAL_RCC_ClockConfig+0x1bc>)
 8001766:	689b      	ldr	r3, [r3, #8]
 8001768:	f023 02f0 	bic.w	r2, r3, #240	; 0xf0
 800176c:	687b      	ldr	r3, [r7, #4]
 800176e:	689b      	ldr	r3, [r3, #8]
 8001770:	494d      	ldr	r1, [pc, #308]	; (80018a8 <HAL_RCC_ClockConfig+0x1bc>)
 8001772:	4313      	orrs	r3, r2
 8001774:	608b      	str	r3, [r1, #8]
  }

  /*------------------------- SYSCLK Configuration ---------------------------*/
  if(((RCC_ClkInitStruct->ClockType) & RCC_CLOCKTYPE_SYSCLK) == RCC_CLOCKTYPE_SYSCLK)
 8001776:	687b      	ldr	r3, [r7, #4]
 8001778:	681b      	ldr	r3, [r3, #0]
 800177a:	f003 0301 	and.w	r3, r3, #1
 800177e:	2b00      	cmp	r3, #0
 8001780:	d044      	beq.n	800180c <HAL_RCC_ClockConfig+0x120>
  {
    assert_param(IS_RCC_SYSCLKSOURCE(RCC_ClkInitStruct->SYSCLKSource));

    /* HSE is selected as System Clock Source */
    if(RCC_ClkInitStruct->SYSCLKSource == RCC_SYSCLKSOURCE_HSE)
 8001782:	687b      	ldr	r3, [r7, #4]
 8001784:	685b      	ldr	r3, [r3, #4]
 8001786:	2b01      	cmp	r3, #1
 8001788:	d107      	bne.n	800179a <HAL_RCC_ClockConfig+0xae>
    {
      /* Check the HSE ready flag */
      if(__HAL_RCC_GET_FLAG(RCC_FLAG_HSERDY) == RESET)
 800178a:	4b47      	ldr	r3, [pc, #284]	; (80018a8 <HAL_RCC_ClockConfig+0x1bc>)
 800178c:	681b      	ldr	r3, [r3, #0]
 800178e:	f403 3300 	and.w	r3, r3, #131072	; 0x20000
 8001792:	2b00      	cmp	r3, #0
 8001794:	d119      	bne.n	80017ca <HAL_RCC_ClockConfig+0xde>
      {
        return HAL_ERROR;
 8001796:	2301      	movs	r3, #1
 8001798:	e07f      	b.n	800189a <HAL_RCC_ClockConfig+0x1ae>
      }
    }
    /* PLL is selected as System Clock Source */
    else if((RCC_ClkInitStruct->SYSCLKSource == RCC_SYSCLKSOURCE_PLLCLK)   ||
 800179a:	687b      	ldr	r3, [r7, #4]
 800179c:	685b      	ldr	r3, [r3, #4]
 800179e:	2b02      	cmp	r3, #2
 80017a0:	d003      	beq.n	80017aa <HAL_RCC_ClockConfig+0xbe>
            (RCC_ClkInitStruct->SYSCLKSource == RCC_SYSCLKSOURCE_PLLRCLK))
 80017a2:	687b      	ldr	r3, [r7, #4]
 80017a4:	685b      	ldr	r3, [r3, #4]
    else if((RCC_ClkInitStruct->SYSCLKSource == RCC_SYSCLKSOURCE_PLLCLK)   ||
 80017a6:	2b03      	cmp	r3, #3
 80017a8:	d107      	bne.n	80017ba <HAL_RCC_ClockConfig+0xce>
    {
      /* Check the PLL ready flag */
      if(__HAL_RCC_GET_FLAG(RCC_FLAG_PLLRDY) == RESET)
 80017aa:	4b3f      	ldr	r3, [pc, #252]	; (80018a8 <HAL_RCC_ClockConfig+0x1bc>)
 80017ac:	681b      	ldr	r3, [r3, #0]
 80017ae:	f003 7300 	and.w	r3, r3, #33554432	; 0x2000000
 80017b2:	2b00      	cmp	r3, #0
 80017b4:	d109      	bne.n	80017ca <HAL_RCC_ClockConfig+0xde>
      {
        return HAL_ERROR;
 80017b6:	2301      	movs	r3, #1
 80017b8:	e06f      	b.n	800189a <HAL_RCC_ClockConfig+0x1ae>
    }
    /* HSI is selected as System Clock Source */
    else
    {
      /* Check the HSI ready flag */
      if(__HAL_RCC_GET_FLAG(RCC_FLAG_HSIRDY) == RESET)
 80017ba:	4b3b      	ldr	r3, [pc, #236]	; (80018a8 <HAL_RCC_ClockConfig+0x1bc>)
 80017bc:	681b      	ldr	r3, [r3, #0]
 80017be:	f003 0302 	and.w	r3, r3, #2
 80017c2:	2b00      	cmp	r3, #0
 80017c4:	d101      	bne.n	80017ca <HAL_RCC_ClockConfig+0xde>
      {
        return HAL_ERROR;
 80017c6:	2301      	movs	r3, #1
 80017c8:	e067      	b.n	800189a <HAL_RCC_ClockConfig+0x1ae>
      }
    }

    __HAL_RCC_SYSCLK_CONFIG(RCC_ClkInitStruct->SYSCLKSource);
 80017ca:	4b37      	ldr	r3, [pc, #220]	; (80018a8 <HAL_RCC_ClockConfig+0x1bc>)
 80017cc:	689b      	ldr	r3, [r3, #8]
 80017ce:	f023 0203 	bic.w	r2, r3, #3
 80017d2:	687b      	ldr	r3, [r7, #4]
 80017d4:	685b      	ldr	r3, [r3, #4]
 80017d6:	4934      	ldr	r1, [pc, #208]	; (80018a8 <HAL_RCC_ClockConfig+0x1bc>)
 80017d8:	4313      	orrs	r3, r2
 80017da:	608b      	str	r3, [r1, #8]

    /* Get Start Tick */
    tickstart = HAL_GetTick();
 80017dc:	f7ff fa00 	bl	8000be0 <HAL_GetTick>
 80017e0:	60f8      	str	r0, [r7, #12]

    while (__HAL_RCC_GET_SYSCLK_SOURCE() != (RCC_ClkInitStruct->SYSCLKSource << RCC_CFGR_SWS_Pos))
 80017e2:	e00a      	b.n	80017fa <HAL_RCC_ClockConfig+0x10e>
    {
      if ((HAL_GetTick() - tickstart) > CLOCKSWITCH_TIMEOUT_VALUE)
 80017e4:	f7ff f9fc 	bl	8000be0 <HAL_GetTick>
 80017e8:	4602      	mov	r2, r0
 80017ea:	68fb      	ldr	r3, [r7, #12]
 80017ec:	1ad3      	subs	r3, r2, r3
 80017ee:	f241 3288 	movw	r2, #5000	; 0x1388
 80017f2:	4293      	cmp	r3, r2
 80017f4:	d901      	bls.n	80017fa <HAL_RCC_ClockConfig+0x10e>
      {
        return HAL_TIMEOUT;
 80017f6:	2303      	movs	r3, #3
 80017f8:	e04f      	b.n	800189a <HAL_RCC_ClockConfig+0x1ae>
    while (__HAL_RCC_GET_SYSCLK_SOURCE() != (RCC_ClkInitStruct->SYSCLKSource << RCC_CFGR_SWS_Pos))
 80017fa:	4b2b      	ldr	r3, [pc, #172]	; (80018a8 <HAL_RCC_ClockConfig+0x1bc>)
 80017fc:	689b      	ldr	r3, [r3, #8]
 80017fe:	f003 020c 	and.w	r2, r3, #12
 8001802:	687b      	ldr	r3, [r7, #4]
 8001804:	685b      	ldr	r3, [r3, #4]
 8001806:	009b      	lsls	r3, r3, #2
 8001808:	429a      	cmp	r2, r3
 800180a:	d1eb      	bne.n	80017e4 <HAL_RCC_ClockConfig+0xf8>
      }
    }
  }

  /* Decreasing the number of wait states because of lower CPU frequency */
  if(FLatency < __HAL_FLASH_GET_LATENCY())
 800180c:	4b25      	ldr	r3, [pc, #148]	; (80018a4 <HAL_RCC_ClockConfig+0x1b8>)
 800180e:	681b      	ldr	r3, [r3, #0]
 8001810:	f003 030f 	and.w	r3, r3, #15
 8001814:	683a      	ldr	r2, [r7, #0]
 8001816:	429a      	cmp	r2, r3
 8001818:	d20c      	bcs.n	8001834 <HAL_RCC_ClockConfig+0x148>
  {
     /* Program the new number of wait states to the LATENCY bits in the FLASH_ACR register */
    __HAL_FLASH_SET_LATENCY(FLatency);
 800181a:	4b22      	ldr	r3, [pc, #136]	; (80018a4 <HAL_RCC_ClockConfig+0x1b8>)
 800181c:	683a      	ldr	r2, [r7, #0]
 800181e:	b2d2      	uxtb	r2, r2
 8001820:	701a      	strb	r2, [r3, #0]

    /* Check that the new number of wait states is taken into account to access the Flash
    memory by reading the FLASH_ACR register */
    if(__HAL_FLASH_GET_LATENCY() != FLatency)
 8001822:	4b20      	ldr	r3, [pc, #128]	; (80018a4 <HAL_RCC_ClockConfig+0x1b8>)
 8001824:	681b      	ldr	r3, [r3, #0]
 8001826:	f003 030f 	and.w	r3, r3, #15
 800182a:	683a      	ldr	r2, [r7, #0]
 800182c:	429a      	cmp	r2, r3
 800182e:	d001      	beq.n	8001834 <HAL_RCC_ClockConfig+0x148>
    {
      return HAL_ERROR;
 8001830:	2301      	movs	r3, #1
 8001832:	e032      	b.n	800189a <HAL_RCC_ClockConfig+0x1ae>
    }
  }

  /*-------------------------- PCLK1 Configuration ---------------------------*/
  if(((RCC_ClkInitStruct->ClockType) & RCC_CLOCKTYPE_PCLK1) == RCC_CLOCKTYPE_PCLK1)
 8001834:	687b      	ldr	r3, [r7, #4]
 8001836:	681b      	ldr	r3, [r3, #0]
 8001838:	f003 0304 	and.w	r3, r3, #4
 800183c:	2b00      	cmp	r3, #0
 800183e:	d008      	beq.n	8001852 <HAL_RCC_ClockConfig+0x166>
  {
    assert_param(IS_RCC_PCLK(RCC_ClkInitStruct->APB1CLKDivider));
    MODIFY_REG(RCC->CFGR, RCC_CFGR_PPRE1, RCC_ClkInitStruct->APB1CLKDivider);
 8001840:	4b19      	ldr	r3, [pc, #100]	; (80018a8 <HAL_RCC_ClockConfig+0x1bc>)
 8001842:	689b      	ldr	r3, [r3, #8]
 8001844:	f423 52e0 	bic.w	r2, r3, #7168	; 0x1c00
 8001848:	687b      	ldr	r3, [r7, #4]
 800184a:	68db      	ldr	r3, [r3, #12]
 800184c:	4916      	ldr	r1, [pc, #88]	; (80018a8 <HAL_RCC_ClockConfig+0x1bc>)
 800184e:	4313      	orrs	r3, r2
 8001850:	608b      	str	r3, [r1, #8]
  }

  /*-------------------------- PCLK2 Configuration ---------------------------*/
  if(((RCC_ClkInitStruct->ClockType) & RCC_CLOCKTYPE_PCLK2) == RCC_CLOCKTYPE_PCLK2)
 8001852:	687b      	ldr	r3, [r7, #4]
 8001854:	681b      	ldr	r3, [r3, #0]
 8001856:	f003 0308 	and.w	r3, r3, #8
 800185a:	2b00      	cmp	r3, #0
 800185c:	d009      	beq.n	8001872 <HAL_RCC_ClockConfig+0x186>
  {
    assert_param(IS_RCC_PCLK(RCC_ClkInitStruct->APB2CLKDivider));
    MODIFY_REG(RCC->CFGR, RCC_CFGR_PPRE2, ((RCC_ClkInitStruct->APB2CLKDivider) << 3U));
 800185e:	4b12      	ldr	r3, [pc, #72]	; (80018a8 <HAL_RCC_ClockConfig+0x1bc>)
 8001860:	689b      	ldr	r3, [r3, #8]
 8001862:	f423 4260 	bic.w	r2, r3, #57344	; 0xe000
 8001866:	687b      	ldr	r3, [r7, #4]
 8001868:	691b      	ldr	r3, [r3, #16]
 800186a:	00db      	lsls	r3, r3, #3
 800186c:	490e      	ldr	r1, [pc, #56]	; (80018a8 <HAL_RCC_ClockConfig+0x1bc>)
 800186e:	4313      	orrs	r3, r2
 8001870:	608b      	str	r3, [r1, #8]
  }

  /* Update the SystemCoreClock global variable */
  SystemCoreClock = HAL_RCC_GetSysClockFreq() >> AHBPrescTable[(RCC->CFGR & RCC_CFGR_HPRE)>> RCC_CFGR_HPRE_Pos];
 8001872:	f000 f821 	bl	80018b8 <HAL_RCC_GetSysClockFreq>
 8001876:	4601      	mov	r1, r0
 8001878:	4b0b      	ldr	r3, [pc, #44]	; (80018a8 <HAL_RCC_ClockConfig+0x1bc>)
 800187a:	689b      	ldr	r3, [r3, #8]
 800187c:	091b      	lsrs	r3, r3, #4
 800187e:	f003 030f 	and.w	r3, r3, #15
 8001882:	4a0a      	ldr	r2, [pc, #40]	; (80018ac <HAL_RCC_ClockConfig+0x1c0>)
 8001884:	5cd3      	ldrb	r3, [r2, r3]
 8001886:	fa21 f303 	lsr.w	r3, r1, r3
 800188a:	4a09      	ldr	r2, [pc, #36]	; (80018b0 <HAL_RCC_ClockConfig+0x1c4>)
 800188c:	6013      	str	r3, [r2, #0]

  /* Configure the source of time base considering new system clocks settings */
  HAL_InitTick (uwTickPrio);
 800188e:	4b09      	ldr	r3, [pc, #36]	; (80018b4 <HAL_RCC_ClockConfig+0x1c8>)
 8001890:	681b      	ldr	r3, [r3, #0]
 8001892:	4618      	mov	r0, r3
 8001894:	f7ff f960 	bl	8000b58 <HAL_InitTick>

  return HAL_OK;
 8001898:	2300      	movs	r3, #0
}
 800189a:	4618      	mov	r0, r3
 800189c:	3710      	adds	r7, #16
 800189e:	46bd      	mov	sp, r7
 80018a0:	bd80      	pop	{r7, pc}
 80018a2:	bf00      	nop
 80018a4:	40023c00 	.word	0x40023c00
 80018a8:	40023800 	.word	0x40023800
 80018ac:	08003234 	.word	0x08003234
 80018b0:	20000000 	.word	0x20000000
 80018b4:	20000004 	.word	0x20000004

080018b8 <HAL_RCC_GetSysClockFreq>:
  *
  *
  * @retval SYSCLK frequency
  */
__weak uint32_t HAL_RCC_GetSysClockFreq(void)
{
 80018b8:	b5f0      	push	{r4, r5, r6, r7, lr}
 80018ba:	b085      	sub	sp, #20
 80018bc:	af00      	add	r7, sp, #0
  uint32_t pllm = 0U, pllvco = 0U, pllp = 0U;
 80018be:	2300      	movs	r3, #0
 80018c0:	607b      	str	r3, [r7, #4]
 80018c2:	2300      	movs	r3, #0
 80018c4:	60fb      	str	r3, [r7, #12]
 80018c6:	2300      	movs	r3, #0
 80018c8:	603b      	str	r3, [r7, #0]
  uint32_t sysclockfreq = 0U;
 80018ca:	2300      	movs	r3, #0
 80018cc:	60bb      	str	r3, [r7, #8]

  /* Get SYSCLK source -------------------------------------------------------*/
  switch (RCC->CFGR & RCC_CFGR_SWS)
 80018ce:	4b63      	ldr	r3, [pc, #396]	; (8001a5c <HAL_RCC_GetSysClockFreq+0x1a4>)
 80018d0:	689b      	ldr	r3, [r3, #8]
 80018d2:	f003 030c 	and.w	r3, r3, #12
 80018d6:	2b04      	cmp	r3, #4
 80018d8:	d007      	beq.n	80018ea <HAL_RCC_GetSysClockFreq+0x32>
 80018da:	2b08      	cmp	r3, #8
 80018dc:	d008      	beq.n	80018f0 <HAL_RCC_GetSysClockFreq+0x38>
 80018de:	2b00      	cmp	r3, #0
 80018e0:	f040 80b4 	bne.w	8001a4c <HAL_RCC_GetSysClockFreq+0x194>
  {
    case RCC_CFGR_SWS_HSI:  /* HSI used as system clock source */
    {
      sysclockfreq = HSI_VALUE;
 80018e4:	4b5e      	ldr	r3, [pc, #376]	; (8001a60 <HAL_RCC_GetSysClockFreq+0x1a8>)
 80018e6:	60bb      	str	r3, [r7, #8]
       break;
 80018e8:	e0b3      	b.n	8001a52 <HAL_RCC_GetSysClockFreq+0x19a>
    }
    case RCC_CFGR_SWS_HSE:  /* HSE used as system clock  source */
    {
      sysclockfreq = HSE_VALUE;
 80018ea:	4b5e      	ldr	r3, [pc, #376]	; (8001a64 <HAL_RCC_GetSysClockFreq+0x1ac>)
 80018ec:	60bb      	str	r3, [r7, #8]
      break;
 80018ee:	e0b0      	b.n	8001a52 <HAL_RCC_GetSysClockFreq+0x19a>
    }
    case RCC_CFGR_SWS_PLL:  /* PLL used as system clock  source */
    {
      /* PLL_VCO = (HSE_VALUE or HSI_VALUE / PLLM) * PLLN
      SYSCLK = PLL_VCO / PLLP */
      pllm = RCC->PLLCFGR & RCC_PLLCFGR_PLLM;
 80018f0:	4b5a      	ldr	r3, [pc, #360]	; (8001a5c <HAL_RCC_GetSysClockFreq+0x1a4>)
 80018f2:	685b      	ldr	r3, [r3, #4]
 80018f4:	f003 033f 	and.w	r3, r3, #63	; 0x3f
 80018f8:	607b      	str	r3, [r7, #4]
      if(__HAL_RCC_GET_PLL_OSCSOURCE() != RCC_PLLSOURCE_HSI)
 80018fa:	4b58      	ldr	r3, [pc, #352]	; (8001a5c <HAL_RCC_GetSysClockFreq+0x1a4>)
 80018fc:	685b      	ldr	r3, [r3, #4]
 80018fe:	f403 0380 	and.w	r3, r3, #4194304	; 0x400000
 8001902:	2b00      	cmp	r3, #0
 8001904:	d04a      	beq.n	800199c <HAL_RCC_GetSysClockFreq+0xe4>
      {
        /* HSE used as PLL clock source */
        pllvco = (uint32_t) ((((uint64_t) HSE_VALUE * ((uint64_t) ((RCC->PLLCFGR & RCC_PLLCFGR_PLLN) >> RCC_PLLCFGR_PLLN_Pos)))) / (uint64_t)pllm);
 8001906:	4b55      	ldr	r3, [pc, #340]	; (8001a5c <HAL_RCC_GetSysClockFreq+0x1a4>)
 8001908:	685b      	ldr	r3, [r3, #4]
 800190a:	099b      	lsrs	r3, r3, #6
 800190c:	f04f 0400 	mov.w	r4, #0
 8001910:	f240 11ff 	movw	r1, #511	; 0x1ff
 8001914:	f04f 0200 	mov.w	r2, #0
 8001918:	ea03 0501 	and.w	r5, r3, r1
 800191c:	ea04 0602 	and.w	r6, r4, r2
 8001920:	4629      	mov	r1, r5
 8001922:	4632      	mov	r2, r6
 8001924:	f04f 0300 	mov.w	r3, #0
 8001928:	f04f 0400 	mov.w	r4, #0
 800192c:	0154      	lsls	r4, r2, #5
 800192e:	ea44 64d1 	orr.w	r4, r4, r1, lsr #27
 8001932:	014b      	lsls	r3, r1, #5
 8001934:	4619      	mov	r1, r3
 8001936:	4622      	mov	r2, r4
 8001938:	1b49      	subs	r1, r1, r5
 800193a:	eb62 0206 	sbc.w	r2, r2, r6
 800193e:	f04f 0300 	mov.w	r3, #0
 8001942:	f04f 0400 	mov.w	r4, #0
 8001946:	0194      	lsls	r4, r2, #6
 8001948:	ea44 6491 	orr.w	r4, r4, r1, lsr #26
 800194c:	018b      	lsls	r3, r1, #6
 800194e:	1a5b      	subs	r3, r3, r1
 8001950:	eb64 0402 	sbc.w	r4, r4, r2
 8001954:	f04f 0100 	mov.w	r1, #0
 8001958:	f04f 0200 	mov.w	r2, #0
 800195c:	00e2      	lsls	r2, r4, #3
 800195e:	ea42 7253 	orr.w	r2, r2, r3, lsr #29
 8001962:	00d9      	lsls	r1, r3, #3
 8001964:	460b      	mov	r3, r1
 8001966:	4614      	mov	r4, r2
 8001968:	195b      	adds	r3, r3, r5
 800196a:	eb44 0406 	adc.w	r4, r4, r6
 800196e:	f04f 0100 	mov.w	r1, #0
 8001972:	f04f 0200 	mov.w	r2, #0
 8001976:	0262      	lsls	r2, r4, #9
 8001978:	ea42 52d3 	orr.w	r2, r2, r3, lsr #23
 800197c:	0259      	lsls	r1, r3, #9
 800197e:	460b      	mov	r3, r1
 8001980:	4614      	mov	r4, r2
 8001982:	4618      	mov	r0, r3
 8001984:	4621      	mov	r1, r4
 8001986:	687b      	ldr	r3, [r7, #4]
 8001988:	f04f 0400 	mov.w	r4, #0
 800198c:	461a      	mov	r2, r3
 800198e:	4623      	mov	r3, r4
 8001990:	f7fe fc1a 	bl	80001c8 <__aeabi_uldivmod>
 8001994:	4603      	mov	r3, r0
 8001996:	460c      	mov	r4, r1
 8001998:	60fb      	str	r3, [r7, #12]
 800199a:	e049      	b.n	8001a30 <HAL_RCC_GetSysClockFreq+0x178>
      }
      else
      {
        /* HSI used as PLL clock source */
        pllvco = (uint32_t) ((((uint64_t) HSI_VALUE * ((uint64_t) ((RCC->PLLCFGR & RCC_PLLCFGR_PLLN) >> RCC_PLLCFGR_PLLN_Pos)))) / (uint64_t)pllm);
 800199c:	4b2f      	ldr	r3, [pc, #188]	; (8001a5c <HAL_RCC_GetSysClockFreq+0x1a4>)
 800199e:	685b      	ldr	r3, [r3, #4]
 80019a0:	099b      	lsrs	r3, r3, #6
 80019a2:	f04f 0400 	mov.w	r4, #0
 80019a6:	f240 11ff 	movw	r1, #511	; 0x1ff
 80019aa:	f04f 0200 	mov.w	r2, #0
 80019ae:	ea03 0501 	and.w	r5, r3, r1
 80019b2:	ea04 0602 	and.w	r6, r4, r2
 80019b6:	4629      	mov	r1, r5
 80019b8:	4632      	mov	r2, r6
 80019ba:	f04f 0300 	mov.w	r3, #0
 80019be:	f04f 0400 	mov.w	r4, #0
 80019c2:	0154      	lsls	r4, r2, #5
 80019c4:	ea44 64d1 	orr.w	r4, r4, r1, lsr #27
 80019c8:	014b      	lsls	r3, r1, #5
 80019ca:	4619      	mov	r1, r3
 80019cc:	4622      	mov	r2, r4
 80019ce:	1b49      	subs	r1, r1, r5
 80019d0:	eb62 0206 	sbc.w	r2, r2, r6
 80019d4:	f04f 0300 	mov.w	r3, #0
 80019d8:	f04f 0400 	mov.w	r4, #0
 80019dc:	0194      	lsls	r4, r2, #6
 80019de:	ea44 6491 	orr.w	r4, r4, r1, lsr #26
 80019e2:	018b      	lsls	r3, r1, #6
 80019e4:	1a5b      	subs	r3, r3, r1
 80019e6:	eb64 0402 	sbc.w	r4, r4, r2
 80019ea:	f04f 0100 	mov.w	r1, #0
 80019ee:	f04f 0200 	mov.w	r2, #0
 80019f2:	00e2      	lsls	r2, r4, #3
 80019f4:	ea42 7253 	orr.w	r2, r2, r3, lsr #29
 80019f8:	00d9      	lsls	r1, r3, #3
 80019fa:	460b      	mov	r3, r1
 80019fc:	4614      	mov	r4, r2
 80019fe:	195b      	adds	r3, r3, r5
 8001a00:	eb44 0406 	adc.w	r4, r4, r6
 8001a04:	f04f 0100 	mov.w	r1, #0
 8001a08:	f04f 0200 	mov.w	r2, #0
 8001a0c:	02a2      	lsls	r2, r4, #10
 8001a0e:	ea42 5293 	orr.w	r2, r2, r3, lsr #22
 8001a12:	0299      	lsls	r1, r3, #10
 8001a14:	460b      	mov	r3, r1
 8001a16:	4614      	mov	r4, r2
 8001a18:	4618      	mov	r0, r3
 8001a1a:	4621      	mov	r1, r4
 8001a1c:	687b      	ldr	r3, [r7, #4]
 8001a1e:	f04f 0400 	mov.w	r4, #0
 8001a22:	461a      	mov	r2, r3
 8001a24:	4623      	mov	r3, r4
 8001a26:	f7fe fbcf 	bl	80001c8 <__aeabi_uldivmod>
 8001a2a:	4603      	mov	r3, r0
 8001a2c:	460c      	mov	r4, r1
 8001a2e:	60fb      	str	r3, [r7, #12]
      }
      pllp = ((((RCC->PLLCFGR & RCC_PLLCFGR_PLLP) >> RCC_PLLCFGR_PLLP_Pos) + 1U) *2U);
 8001a30:	4b0a      	ldr	r3, [pc, #40]	; (8001a5c <HAL_RCC_GetSysClockFreq+0x1a4>)
 8001a32:	685b      	ldr	r3, [r3, #4]
 8001a34:	0c1b      	lsrs	r3, r3, #16
 8001a36:	f003 0303 	and.w	r3, r3, #3
 8001a3a:	3301      	adds	r3, #1
 8001a3c:	005b      	lsls	r3, r3, #1
 8001a3e:	603b      	str	r3, [r7, #0]

      sysclockfreq = pllvco/pllp;
 8001a40:	68fa      	ldr	r2, [r7, #12]
 8001a42:	683b      	ldr	r3, [r7, #0]
 8001a44:	fbb2 f3f3 	udiv	r3, r2, r3
 8001a48:	60bb      	str	r3, [r7, #8]
      break;
 8001a4a:	e002      	b.n	8001a52 <HAL_RCC_GetSysClockFreq+0x19a>
    }
    default:
    {
      sysclockfreq = HSI_VALUE;
 8001a4c:	4b04      	ldr	r3, [pc, #16]	; (8001a60 <HAL_RCC_GetSysClockFreq+0x1a8>)
 8001a4e:	60bb      	str	r3, [r7, #8]
      break;
 8001a50:	bf00      	nop
    }
  }
  return sysclockfreq;
 8001a52:	68bb      	ldr	r3, [r7, #8]
}
 8001a54:	4618      	mov	r0, r3
 8001a56:	3714      	adds	r7, #20
 8001a58:	46bd      	mov	sp, r7
 8001a5a:	bdf0      	pop	{r4, r5, r6, r7, pc}
 8001a5c:	40023800 	.word	0x40023800
 8001a60:	00f42400 	.word	0x00f42400
 8001a64:	007a1200 	.word	0x007a1200

08001a68 <HAL_RCC_GetHCLKFreq>:
  * @note   The SystemCoreClock CMSIS variable is used to store System Clock Frequency
  *         and updated within this function
  * @retval HCLK frequency
  */
uint32_t HAL_RCC_GetHCLKFreq(void)
{
 8001a68:	b480      	push	{r7}
 8001a6a:	af00      	add	r7, sp, #0
  return SystemCoreClock;
 8001a6c:	4b03      	ldr	r3, [pc, #12]	; (8001a7c <HAL_RCC_GetHCLKFreq+0x14>)
 8001a6e:	681b      	ldr	r3, [r3, #0]
}
 8001a70:	4618      	mov	r0, r3
 8001a72:	46bd      	mov	sp, r7
 8001a74:	f85d 7b04 	ldr.w	r7, [sp], #4
 8001a78:	4770      	bx	lr
 8001a7a:	bf00      	nop
 8001a7c:	20000000 	.word	0x20000000

08001a80 <HAL_RCC_GetPCLK1Freq>:
  * @note   Each time PCLK1 changes, this function must be called to update the
  *         right PCLK1 value. Otherwise, any configuration based on this function will be incorrect.
  * @retval PCLK1 frequency
  */
uint32_t HAL_RCC_GetPCLK1Freq(void)
{
 8001a80:	b580      	push	{r7, lr}
 8001a82:	af00      	add	r7, sp, #0
  /* Get HCLK source and Compute PCLK1 frequency ---------------------------*/
  return (HAL_RCC_GetHCLKFreq() >> APBPrescTable[(RCC->CFGR & RCC_CFGR_PPRE1)>> RCC_CFGR_PPRE1_Pos]);
 8001a84:	f7ff fff0 	bl	8001a68 <HAL_RCC_GetHCLKFreq>
 8001a88:	4601      	mov	r1, r0
 8001a8a:	4b05      	ldr	r3, [pc, #20]	; (8001aa0 <HAL_RCC_GetPCLK1Freq+0x20>)
 8001a8c:	689b      	ldr	r3, [r3, #8]
 8001a8e:	0a9b      	lsrs	r3, r3, #10
 8001a90:	f003 0307 	and.w	r3, r3, #7
 8001a94:	4a03      	ldr	r2, [pc, #12]	; (8001aa4 <HAL_RCC_GetPCLK1Freq+0x24>)
 8001a96:	5cd3      	ldrb	r3, [r2, r3]
 8001a98:	fa21 f303 	lsr.w	r3, r1, r3
}
 8001a9c:	4618      	mov	r0, r3
 8001a9e:	bd80      	pop	{r7, pc}
 8001aa0:	40023800 	.word	0x40023800
 8001aa4:	08003244 	.word	0x08003244

08001aa8 <HAL_RCC_GetPCLK2Freq>:
  * @note   Each time PCLK2 changes, this function must be called to update the
  *         right PCLK2 value. Otherwise, any configuration based on this function will be incorrect.
  * @retval PCLK2 frequency
  */
uint32_t HAL_RCC_GetPCLK2Freq(void)
{
 8001aa8:	b580      	push	{r7, lr}
 8001aaa:	af00      	add	r7, sp, #0
  /* Get HCLK source and Compute PCLK2 frequency ---------------------------*/
  return (HAL_RCC_GetHCLKFreq()>> APBPrescTable[(RCC->CFGR & RCC_CFGR_PPRE2)>> RCC_CFGR_PPRE2_Pos]);
 8001aac:	f7ff ffdc 	bl	8001a68 <HAL_RCC_GetHCLKFreq>
 8001ab0:	4601      	mov	r1, r0
 8001ab2:	4b05      	ldr	r3, [pc, #20]	; (8001ac8 <HAL_RCC_GetPCLK2Freq+0x20>)
 8001ab4:	689b      	ldr	r3, [r3, #8]
 8001ab6:	0b5b      	lsrs	r3, r3, #13
 8001ab8:	f003 0307 	and.w	r3, r3, #7
 8001abc:	4a03      	ldr	r2, [pc, #12]	; (8001acc <HAL_RCC_GetPCLK2Freq+0x24>)
 8001abe:	5cd3      	ldrb	r3, [r2, r3]
 8001ac0:	fa21 f303 	lsr.w	r3, r1, r3
}
 8001ac4:	4618      	mov	r0, r3
 8001ac6:	bd80      	pop	{r7, pc}
 8001ac8:	40023800 	.word	0x40023800
 8001acc:	08003244 	.word	0x08003244

08001ad0 <HAL_TIM_PWM_Init>:
  *         Ex: call @ref HAL_TIM_PWM_DeInit() before HAL_TIM_PWM_Init()
  * @param  htim TIM PWM handle
  * @retval HAL status
  */
HAL_StatusTypeDef HAL_TIM_PWM_Init(TIM_HandleTypeDef *htim)
{
 8001ad0:	b580      	push	{r7, lr}
 8001ad2:	b082      	sub	sp, #8
 8001ad4:	af00      	add	r7, sp, #0
 8001ad6:	6078      	str	r0, [r7, #4]
  /* Check the TIM handle allocation */
  if (htim == NULL)
 8001ad8:	687b      	ldr	r3, [r7, #4]
 8001ada:	2b00      	cmp	r3, #0
 8001adc:	d101      	bne.n	8001ae2 <HAL_TIM_PWM_Init+0x12>
  {
    return HAL_ERROR;
 8001ade:	2301      	movs	r3, #1
 8001ae0:	e01d      	b.n	8001b1e <HAL_TIM_PWM_Init+0x4e>
  assert_param(IS_TIM_INSTANCE(htim->Instance));
  assert_param(IS_TIM_COUNTER_MODE(htim->Init.CounterMode));
  assert_param(IS_TIM_CLOCKDIVISION_DIV(htim->Init.ClockDivision));
  assert_param(IS_TIM_AUTORELOAD_PRELOAD(htim->Init.AutoReloadPreload));

  if (htim->State == HAL_TIM_STATE_RESET)
 8001ae2:	687b      	ldr	r3, [r7, #4]
 8001ae4:	f893 303d 	ldrb.w	r3, [r3, #61]	; 0x3d
 8001ae8:	b2db      	uxtb	r3, r3
 8001aea:	2b00      	cmp	r3, #0
 8001aec:	d106      	bne.n	8001afc <HAL_TIM_PWM_Init+0x2c>
  {
    /* Allocate lock resource and initialize it */
    htim->Lock = HAL_UNLOCKED;
 8001aee:	687b      	ldr	r3, [r7, #4]
 8001af0:	2200      	movs	r2, #0
 8001af2:	f883 203c 	strb.w	r2, [r3, #60]	; 0x3c
    }
    /* Init the low level hardware : GPIO, CLOCK, NVIC */
    htim->PWM_MspInitCallback(htim);
#else
    /* Init the low level hardware : GPIO, CLOCK, NVIC and DMA */
    HAL_TIM_PWM_MspInit(htim);
 8001af6:	6878      	ldr	r0, [r7, #4]
 8001af8:	f7fe fec0 	bl	800087c <HAL_TIM_PWM_MspInit>
#endif /* USE_HAL_TIM_REGISTER_CALLBACKS */
  }

  /* Set the TIM state */
  htim->State = HAL_TIM_STATE_BUSY;
 8001afc:	687b      	ldr	r3, [r7, #4]
 8001afe:	2202      	movs	r2, #2
 8001b00:	f883 203d 	strb.w	r2, [r3, #61]	; 0x3d

  /* Init the base time for the PWM */
  TIM_Base_SetConfig(htim->Instance, &htim->Init);
 8001b04:	687b      	ldr	r3, [r7, #4]
 8001b06:	681a      	ldr	r2, [r3, #0]
 8001b08:	687b      	ldr	r3, [r7, #4]
 8001b0a:	3304      	adds	r3, #4
 8001b0c:	4619      	mov	r1, r3
 8001b0e:	4610      	mov	r0, r2
 8001b10:	f000 fa48 	bl	8001fa4 <TIM_Base_SetConfig>

  /* Initialize the TIM state*/
  htim->State = HAL_TIM_STATE_READY;
 8001b14:	687b      	ldr	r3, [r7, #4]
 8001b16:	2201      	movs	r2, #1
 8001b18:	f883 203d 	strb.w	r2, [r3, #61]	; 0x3d

  return HAL_OK;
 8001b1c:	2300      	movs	r3, #0
}
 8001b1e:	4618      	mov	r0, r3
 8001b20:	3708      	adds	r7, #8
 8001b22:	46bd      	mov	sp, r7
 8001b24:	bd80      	pop	{r7, pc}
	...

08001b28 <HAL_TIM_PWM_Start>:
  *            @arg TIM_CHANNEL_3: TIM Channel 3 selected
  *            @arg TIM_CHANNEL_4: TIM Channel 4 selected
  * @retval HAL status
  */
HAL_StatusTypeDef HAL_TIM_PWM_Start(TIM_HandleTypeDef *htim, uint32_t Channel)
{
 8001b28:	b580      	push	{r7, lr}
 8001b2a:	b084      	sub	sp, #16
 8001b2c:	af00      	add	r7, sp, #0
 8001b2e:	6078      	str	r0, [r7, #4]
 8001b30:	6039      	str	r1, [r7, #0]

  /* Check the parameters */
  assert_param(IS_TIM_CCX_INSTANCE(htim->Instance, Channel));

  /* Enable the Capture compare channel */
  TIM_CCxChannelCmd(htim->Instance, Channel, TIM_CCx_ENABLE);
 8001b32:	687b      	ldr	r3, [r7, #4]
 8001b34:	681b      	ldr	r3, [r3, #0]
 8001b36:	2201      	movs	r2, #1
 8001b38:	6839      	ldr	r1, [r7, #0]
 8001b3a:	4618      	mov	r0, r3
 8001b3c:	f000 fc82 	bl	8002444 <TIM_CCxChannelCmd>

  if (IS_TIM_BREAK_INSTANCE(htim->Instance) != RESET)
 8001b40:	687b      	ldr	r3, [r7, #4]
 8001b42:	681b      	ldr	r3, [r3, #0]
 8001b44:	4a15      	ldr	r2, [pc, #84]	; (8001b9c <HAL_TIM_PWM_Start+0x74>)
 8001b46:	4293      	cmp	r3, r2
 8001b48:	d004      	beq.n	8001b54 <HAL_TIM_PWM_Start+0x2c>
 8001b4a:	687b      	ldr	r3, [r7, #4]
 8001b4c:	681b      	ldr	r3, [r3, #0]
 8001b4e:	4a14      	ldr	r2, [pc, #80]	; (8001ba0 <HAL_TIM_PWM_Start+0x78>)
 8001b50:	4293      	cmp	r3, r2
 8001b52:	d101      	bne.n	8001b58 <HAL_TIM_PWM_Start+0x30>
 8001b54:	2301      	movs	r3, #1
 8001b56:	e000      	b.n	8001b5a <HAL_TIM_PWM_Start+0x32>
 8001b58:	2300      	movs	r3, #0
 8001b5a:	2b00      	cmp	r3, #0
 8001b5c:	d007      	beq.n	8001b6e <HAL_TIM_PWM_Start+0x46>
  {
    /* Enable the main output */
    __HAL_TIM_MOE_ENABLE(htim);
 8001b5e:	687b      	ldr	r3, [r7, #4]
 8001b60:	681b      	ldr	r3, [r3, #0]
 8001b62:	6c5a      	ldr	r2, [r3, #68]	; 0x44
 8001b64:	687b      	ldr	r3, [r7, #4]
 8001b66:	681b      	ldr	r3, [r3, #0]
 8001b68:	f442 4200 	orr.w	r2, r2, #32768	; 0x8000
 8001b6c:	645a      	str	r2, [r3, #68]	; 0x44
  }

  /* Enable the Peripheral, except in trigger mode where enable is automatically done with trigger */
  tmpsmcr = htim->Instance->SMCR & TIM_SMCR_SMS;
 8001b6e:	687b      	ldr	r3, [r7, #4]
 8001b70:	681b      	ldr	r3, [r3, #0]
 8001b72:	689b      	ldr	r3, [r3, #8]
 8001b74:	f003 0307 	and.w	r3, r3, #7
 8001b78:	60fb      	str	r3, [r7, #12]
  if (!IS_TIM_SLAVEMODE_TRIGGER_ENABLED(tmpsmcr))
 8001b7a:	68fb      	ldr	r3, [r7, #12]
 8001b7c:	2b06      	cmp	r3, #6
 8001b7e:	d007      	beq.n	8001b90 <HAL_TIM_PWM_Start+0x68>
  {
    __HAL_TIM_ENABLE(htim);
 8001b80:	687b      	ldr	r3, [r7, #4]
 8001b82:	681b      	ldr	r3, [r3, #0]
 8001b84:	681a      	ldr	r2, [r3, #0]
 8001b86:	687b      	ldr	r3, [r7, #4]
 8001b88:	681b      	ldr	r3, [r3, #0]
 8001b8a:	f042 0201 	orr.w	r2, r2, #1
 8001b8e:	601a      	str	r2, [r3, #0]
  }

  /* Return function status */
  return HAL_OK;
 8001b90:	2300      	movs	r3, #0
}
 8001b92:	4618      	mov	r0, r3
 8001b94:	3710      	adds	r7, #16
 8001b96:	46bd      	mov	sp, r7
 8001b98:	bd80      	pop	{r7, pc}
 8001b9a:	bf00      	nop
 8001b9c:	40010000 	.word	0x40010000
 8001ba0:	40010400 	.word	0x40010400

08001ba4 <HAL_TIM_IRQHandler>:
  * @brief  This function handles TIM interrupts requests.
  * @param  htim TIM  handle
  * @retval None
  */
void HAL_TIM_IRQHandler(TIM_HandleTypeDef *htim)
{
 8001ba4:	b580      	push	{r7, lr}
 8001ba6:	b082      	sub	sp, #8
 8001ba8:	af00      	add	r7, sp, #0
 8001baa:	6078      	str	r0, [r7, #4]
  /* Capture compare 1 event */
  if (__HAL_TIM_GET_FLAG(htim, TIM_FLAG_CC1) != RESET)
 8001bac:	687b      	ldr	r3, [r7, #4]
 8001bae:	681b      	ldr	r3, [r3, #0]
 8001bb0:	691b      	ldr	r3, [r3, #16]
 8001bb2:	f003 0302 	and.w	r3, r3, #2
 8001bb6:	2b02      	cmp	r3, #2
 8001bb8:	d122      	bne.n	8001c00 <HAL_TIM_IRQHandler+0x5c>
  {
    if (__HAL_TIM_GET_IT_SOURCE(htim, TIM_IT_CC1) != RESET)
 8001bba:	687b      	ldr	r3, [r7, #4]
 8001bbc:	681b      	ldr	r3, [r3, #0]
 8001bbe:	68db      	ldr	r3, [r3, #12]
 8001bc0:	f003 0302 	and.w	r3, r3, #2
 8001bc4:	2b02      	cmp	r3, #2
 8001bc6:	d11b      	bne.n	8001c00 <HAL_TIM_IRQHandler+0x5c>
    {
      {
        __HAL_TIM_CLEAR_IT(htim, TIM_IT_CC1);
 8001bc8:	687b      	ldr	r3, [r7, #4]
 8001bca:	681b      	ldr	r3, [r3, #0]
 8001bcc:	f06f 0202 	mvn.w	r2, #2
 8001bd0:	611a      	str	r2, [r3, #16]
        htim->Channel = HAL_TIM_ACTIVE_CHANNEL_1;
 8001bd2:	687b      	ldr	r3, [r7, #4]
 8001bd4:	2201      	movs	r2, #1
 8001bd6:	771a      	strb	r2, [r3, #28]

        /* Input capture event */
        if ((htim->Instance->CCMR1 & TIM_CCMR1_CC1S) != 0x00U)
 8001bd8:	687b      	ldr	r3, [r7, #4]
 8001bda:	681b      	ldr	r3, [r3, #0]
 8001bdc:	699b      	ldr	r3, [r3, #24]
 8001bde:	f003 0303 	and.w	r3, r3, #3
 8001be2:	2b00      	cmp	r3, #0
 8001be4:	d003      	beq.n	8001bee <HAL_TIM_IRQHandler+0x4a>
        {
#if (USE_HAL_TIM_REGISTER_CALLBACKS == 1)
          htim->IC_CaptureCallback(htim);
#else
          HAL_TIM_IC_CaptureCallback(htim);
 8001be6:	6878      	ldr	r0, [r7, #4]
 8001be8:	f000 f9be 	bl	8001f68 <HAL_TIM_IC_CaptureCallback>
 8001bec:	e005      	b.n	8001bfa <HAL_TIM_IRQHandler+0x56>
        {
#if (USE_HAL_TIM_REGISTER_CALLBACKS == 1)
          htim->OC_DelayElapsedCallback(htim);
          htim->PWM_PulseFinishedCallback(htim);
#else
          HAL_TIM_OC_DelayElapsedCallback(htim);
 8001bee:	6878      	ldr	r0, [r7, #4]
 8001bf0:	f000 f9b0 	bl	8001f54 <HAL_TIM_OC_DelayElapsedCallback>
          HAL_TIM_PWM_PulseFinishedCallback(htim);
 8001bf4:	6878      	ldr	r0, [r7, #4]
 8001bf6:	f000 f9c1 	bl	8001f7c <HAL_TIM_PWM_PulseFinishedCallback>
#endif /* USE_HAL_TIM_REGISTER_CALLBACKS */
        }
        htim->Channel = HAL_TIM_ACTIVE_CHANNEL_CLEARED;
 8001bfa:	687b      	ldr	r3, [r7, #4]
 8001bfc:	2200      	movs	r2, #0
 8001bfe:	771a      	strb	r2, [r3, #28]
      }
    }
  }
  /* Capture compare 2 event */
  if (__HAL_TIM_GET_FLAG(htim, TIM_FLAG_CC2) != RESET)
 8001c00:	687b      	ldr	r3, [r7, #4]
 8001c02:	681b      	ldr	r3, [r3, #0]
 8001c04:	691b      	ldr	r3, [r3, #16]
 8001c06:	f003 0304 	and.w	r3, r3, #4
 8001c0a:	2b04      	cmp	r3, #4
 8001c0c:	d122      	bne.n	8001c54 <HAL_TIM_IRQHandler+0xb0>
  {
    if (__HAL_TIM_GET_IT_SOURCE(htim, TIM_IT_CC2) != RESET)
 8001c0e:	687b      	ldr	r3, [r7, #4]
 8001c10:	681b      	ldr	r3, [r3, #0]
 8001c12:	68db      	ldr	r3, [r3, #12]
 8001c14:	f003 0304 	and.w	r3, r3, #4
 8001c18:	2b04      	cmp	r3, #4
 8001c1a:	d11b      	bne.n	8001c54 <HAL_TIM_IRQHandler+0xb0>
    {
      __HAL_TIM_CLEAR_IT(htim, TIM_IT_CC2);
 8001c1c:	687b      	ldr	r3, [r7, #4]
 8001c1e:	681b      	ldr	r3, [r3, #0]
 8001c20:	f06f 0204 	mvn.w	r2, #4
 8001c24:	611a      	str	r2, [r3, #16]
      htim->Channel = HAL_TIM_ACTIVE_CHANNEL_2;
 8001c26:	687b      	ldr	r3, [r7, #4]
 8001c28:	2202      	movs	r2, #2
 8001c2a:	771a      	strb	r2, [r3, #28]
      /* Input capture event */
      if ((htim->Instance->CCMR1 & TIM_CCMR1_CC2S) != 0x00U)
 8001c2c:	687b      	ldr	r3, [r7, #4]
 8001c2e:	681b      	ldr	r3, [r3, #0]
 8001c30:	699b      	ldr	r3, [r3, #24]
 8001c32:	f403 7340 	and.w	r3, r3, #768	; 0x300
 8001c36:	2b00      	cmp	r3, #0
 8001c38:	d003      	beq.n	8001c42 <HAL_TIM_IRQHandler+0x9e>
      {
#if (USE_HAL_TIM_REGISTER_CALLBACKS == 1)
        htim->IC_CaptureCallback(htim);
#else
        HAL_TIM_IC_CaptureCallback(htim);
 8001c3a:	6878      	ldr	r0, [r7, #4]
 8001c3c:	f000 f994 	bl	8001f68 <HAL_TIM_IC_CaptureCallback>
 8001c40:	e005      	b.n	8001c4e <HAL_TIM_IRQHandler+0xaa>
      {
#if (USE_HAL_TIM_REGISTER_CALLBACKS == 1)
        htim->OC_DelayElapsedCallback(htim);
        htim->PWM_PulseFinishedCallback(htim);
#else
        HAL_TIM_OC_DelayElapsedCallback(htim);
 8001c42:	6878      	ldr	r0, [r7, #4]
 8001c44:	f000 f986 	bl	8001f54 <HAL_TIM_OC_DelayElapsedCallback>
        HAL_TIM_PWM_PulseFinishedCallback(htim);
 8001c48:	6878      	ldr	r0, [r7, #4]
 8001c4a:	f000 f997 	bl	8001f7c <HAL_TIM_PWM_PulseFinishedCallback>
#endif /* USE_HAL_TIM_REGISTER_CALLBACKS */
      }
      htim->Channel = HAL_TIM_ACTIVE_CHANNEL_CLEARED;
 8001c4e:	687b      	ldr	r3, [r7, #4]
 8001c50:	2200      	movs	r2, #0
 8001c52:	771a      	strb	r2, [r3, #28]
    }
  }
  /* Capture compare 3 event */
  if (__HAL_TIM_GET_FLAG(htim, TIM_FLAG_CC3) != RESET)
 8001c54:	687b      	ldr	r3, [r7, #4]
 8001c56:	681b      	ldr	r3, [r3, #0]
 8001c58:	691b      	ldr	r3, [r3, #16]
 8001c5a:	f003 0308 	and.w	r3, r3, #8
 8001c5e:	2b08      	cmp	r3, #8
 8001c60:	d122      	bne.n	8001ca8 <HAL_TIM_IRQHandler+0x104>
  {
    if (__HAL_TIM_GET_IT_SOURCE(htim, TIM_IT_CC3) != RESET)
 8001c62:	687b      	ldr	r3, [r7, #4]
 8001c64:	681b      	ldr	r3, [r3, #0]
 8001c66:	68db      	ldr	r3, [r3, #12]
 8001c68:	f003 0308 	and.w	r3, r3, #8
 8001c6c:	2b08      	cmp	r3, #8
 8001c6e:	d11b      	bne.n	8001ca8 <HAL_TIM_IRQHandler+0x104>
    {
      __HAL_TIM_CLEAR_IT(htim, TIM_IT_CC3);
 8001c70:	687b      	ldr	r3, [r7, #4]
 8001c72:	681b      	ldr	r3, [r3, #0]
 8001c74:	f06f 0208 	mvn.w	r2, #8
 8001c78:	611a      	str	r2, [r3, #16]
      htim->Channel = HAL_TIM_ACTIVE_CHANNEL_3;
 8001c7a:	687b      	ldr	r3, [r7, #4]
 8001c7c:	2204      	movs	r2, #4
 8001c7e:	771a      	strb	r2, [r3, #28]
      /* Input capture event */
      if ((htim->Instance->CCMR2 & TIM_CCMR2_CC3S) != 0x00U)
 8001c80:	687b      	ldr	r3, [r7, #4]
 8001c82:	681b      	ldr	r3, [r3, #0]
 8001c84:	69db      	ldr	r3, [r3, #28]
 8001c86:	f003 0303 	and.w	r3, r3, #3
 8001c8a:	2b00      	cmp	r3, #0
 8001c8c:	d003      	beq.n	8001c96 <HAL_TIM_IRQHandler+0xf2>
      {
#if (USE_HAL_TIM_REGISTER_CALLBACKS == 1)
        htim->IC_CaptureCallback(htim);
#else
        HAL_TIM_IC_CaptureCallback(htim);
 8001c8e:	6878      	ldr	r0, [r7, #4]
 8001c90:	f000 f96a 	bl	8001f68 <HAL_TIM_IC_CaptureCallback>
 8001c94:	e005      	b.n	8001ca2 <HAL_TIM_IRQHandler+0xfe>
      {
#if (USE_HAL_TIM_REGISTER_CALLBACKS == 1)
        htim->OC_DelayElapsedCallback(htim);
        htim->PWM_PulseFinishedCallback(htim);
#else
        HAL_TIM_OC_DelayElapsedCallback(htim);
 8001c96:	6878      	ldr	r0, [r7, #4]
 8001c98:	f000 f95c 	bl	8001f54 <HAL_TIM_OC_DelayElapsedCallback>
        HAL_TIM_PWM_PulseFinishedCallback(htim);
 8001c9c:	6878      	ldr	r0, [r7, #4]
 8001c9e:	f000 f96d 	bl	8001f7c <HAL_TIM_PWM_PulseFinishedCallback>
#endif /* USE_HAL_TIM_REGISTER_CALLBACKS */
      }
      htim->Channel = HAL_TIM_ACTIVE_CHANNEL_CLEARED;
 8001ca2:	687b      	ldr	r3, [r7, #4]
 8001ca4:	2200      	movs	r2, #0
 8001ca6:	771a      	strb	r2, [r3, #28]
    }
  }
  /* Capture compare 4 event */
  if (__HAL_TIM_GET_FLAG(htim, TIM_FLAG_CC4) != RESET)
 8001ca8:	687b      	ldr	r3, [r7, #4]
 8001caa:	681b      	ldr	r3, [r3, #0]
 8001cac:	691b      	ldr	r3, [r3, #16]
 8001cae:	f003 0310 	and.w	r3, r3, #16
 8001cb2:	2b10      	cmp	r3, #16
 8001cb4:	d122      	bne.n	8001cfc <HAL_TIM_IRQHandler+0x158>
  {
    if (__HAL_TIM_GET_IT_SOURCE(htim, TIM_IT_CC4) != RESET)
 8001cb6:	687b      	ldr	r3, [r7, #4]
 8001cb8:	681b      	ldr	r3, [r3, #0]
 8001cba:	68db      	ldr	r3, [r3, #12]
 8001cbc:	f003 0310 	and.w	r3, r3, #16
 8001cc0:	2b10      	cmp	r3, #16
 8001cc2:	d11b      	bne.n	8001cfc <HAL_TIM_IRQHandler+0x158>
    {
      __HAL_TIM_CLEAR_IT(htim, TIM_IT_CC4);
 8001cc4:	687b      	ldr	r3, [r7, #4]
 8001cc6:	681b      	ldr	r3, [r3, #0]
 8001cc8:	f06f 0210 	mvn.w	r2, #16
 8001ccc:	611a      	str	r2, [r3, #16]
      htim->Channel = HAL_TIM_ACTIVE_CHANNEL_4;
 8001cce:	687b      	ldr	r3, [r7, #4]
 8001cd0:	2208      	movs	r2, #8
 8001cd2:	771a      	strb	r2, [r3, #28]
      /* Input capture event */
      if ((htim->Instance->CCMR2 & TIM_CCMR2_CC4S) != 0x00U)
 8001cd4:	687b      	ldr	r3, [r7, #4]
 8001cd6:	681b      	ldr	r3, [r3, #0]
 8001cd8:	69db      	ldr	r3, [r3, #28]
 8001cda:	f403 7340 	and.w	r3, r3, #768	; 0x300
 8001cde:	2b00      	cmp	r3, #0
 8001ce0:	d003      	beq.n	8001cea <HAL_TIM_IRQHandler+0x146>
      {
#if (USE_HAL_TIM_REGISTER_CALLBACKS == 1)
        htim->IC_CaptureCallback(htim);
#else
        HAL_TIM_IC_CaptureCallback(htim);
 8001ce2:	6878      	ldr	r0, [r7, #4]
 8001ce4:	f000 f940 	bl	8001f68 <HAL_TIM_IC_CaptureCallback>
 8001ce8:	e005      	b.n	8001cf6 <HAL_TIM_IRQHandler+0x152>
      {
#if (USE_HAL_TIM_REGISTER_CALLBACKS == 1)
        htim->OC_DelayElapsedCallback(htim);
        htim->PWM_PulseFinishedCallback(htim);
#else
        HAL_TIM_OC_DelayElapsedCallback(htim);
 8001cea:	6878      	ldr	r0, [r7, #4]
 8001cec:	f000 f932 	bl	8001f54 <HAL_TIM_OC_DelayElapsedCallback>
        HAL_TIM_PWM_PulseFinishedCallback(htim);
 8001cf0:	6878      	ldr	r0, [r7, #4]
 8001cf2:	f000 f943 	bl	8001f7c <HAL_TIM_PWM_PulseFinishedCallback>
#endif /* USE_HAL_TIM_REGISTER_CALLBACKS */
      }
      htim->Channel = HAL_TIM_ACTIVE_CHANNEL_CLEARED;
 8001cf6:	687b      	ldr	r3, [r7, #4]
 8001cf8:	2200      	movs	r2, #0
 8001cfa:	771a      	strb	r2, [r3, #28]
    }
  }
  /* TIM Update event */
  if (__HAL_TIM_GET_FLAG(htim, TIM_FLAG_UPDATE) != RESET)
 8001cfc:	687b      	ldr	r3, [r7, #4]
 8001cfe:	681b      	ldr	r3, [r3, #0]
 8001d00:	691b      	ldr	r3, [r3, #16]
 8001d02:	f003 0301 	and.w	r3, r3, #1
 8001d06:	2b01      	cmp	r3, #1
 8001d08:	d10e      	bne.n	8001d28 <HAL_TIM_IRQHandler+0x184>
  {
    if (__HAL_TIM_GET_IT_SOURCE(htim, TIM_IT_UPDATE) != RESET)
 8001d0a:	687b      	ldr	r3, [r7, #4]
 8001d0c:	681b      	ldr	r3, [r3, #0]
 8001d0e:	68db      	ldr	r3, [r3, #12]
 8001d10:	f003 0301 	and.w	r3, r3, #1
 8001d14:	2b01      	cmp	r3, #1
 8001d16:	d107      	bne.n	8001d28 <HAL_TIM_IRQHandler+0x184>
    {
      __HAL_TIM_CLEAR_IT(htim, TIM_IT_UPDATE);
 8001d18:	687b      	ldr	r3, [r7, #4]
 8001d1a:	681b      	ldr	r3, [r3, #0]
 8001d1c:	f06f 0201 	mvn.w	r2, #1
 8001d20:	611a      	str	r2, [r3, #16]
#if (USE_HAL_TIM_REGISTER_CALLBACKS == 1)
      htim->PeriodElapsedCallback(htim);
#else
      HAL_TIM_PeriodElapsedCallback(htim);
 8001d22:	6878      	ldr	r0, [r7, #4]
 8001d24:	f000 f90c 	bl	8001f40 <HAL_TIM_PeriodElapsedCallback>
#endif /* USE_HAL_TIM_REGISTER_CALLBACKS */
    }
  }
  /* TIM Break input event */
  if (__HAL_TIM_GET_FLAG(htim, TIM_FLAG_BREAK) != RESET)
 8001d28:	687b      	ldr	r3, [r7, #4]
 8001d2a:	681b      	ldr	r3, [r3, #0]
 8001d2c:	691b      	ldr	r3, [r3, #16]
 8001d2e:	f003 0380 	and.w	r3, r3, #128	; 0x80
 8001d32:	2b80      	cmp	r3, #128	; 0x80
 8001d34:	d10e      	bne.n	8001d54 <HAL_TIM_IRQHandler+0x1b0>
  {
    if (__HAL_TIM_GET_IT_SOURCE(htim, TIM_IT_BREAK) != RESET)
 8001d36:	687b      	ldr	r3, [r7, #4]
 8001d38:	681b      	ldr	r3, [r3, #0]
 8001d3a:	68db      	ldr	r3, [r3, #12]
 8001d3c:	f003 0380 	and.w	r3, r3, #128	; 0x80
 8001d40:	2b80      	cmp	r3, #128	; 0x80
 8001d42:	d107      	bne.n	8001d54 <HAL_TIM_IRQHandler+0x1b0>
    {
      __HAL_TIM_CLEAR_IT(htim, TIM_IT_BREAK);
 8001d44:	687b      	ldr	r3, [r7, #4]
 8001d46:	681b      	ldr	r3, [r3, #0]
 8001d48:	f06f 0280 	mvn.w	r2, #128	; 0x80
 8001d4c:	611a      	str	r2, [r3, #16]
#if (USE_HAL_TIM_REGISTER_CALLBACKS == 1)
      htim->BreakCallback(htim);
#else
      HAL_TIMEx_BreakCallback(htim);
 8001d4e:	6878      	ldr	r0, [r7, #4]
 8001d50:	f000 fc24 	bl	800259c <HAL_TIMEx_BreakCallback>
#endif /* USE_HAL_TIM_REGISTER_CALLBACKS */
    }
  }
  /* TIM Trigger detection event */
  if (__HAL_TIM_GET_FLAG(htim, TIM_FLAG_TRIGGER) != RESET)
 8001d54:	687b      	ldr	r3, [r7, #4]
 8001d56:	681b      	ldr	r3, [r3, #0]
 8001d58:	691b      	ldr	r3, [r3, #16]
 8001d5a:	f003 0340 	and.w	r3, r3, #64	; 0x40
 8001d5e:	2b40      	cmp	r3, #64	; 0x40
 8001d60:	d10e      	bne.n	8001d80 <HAL_TIM_IRQHandler+0x1dc>
  {
    if (__HAL_TIM_GET_IT_SOURCE(htim, TIM_IT_TRIGGER) != RESET)
 8001d62:	687b      	ldr	r3, [r7, #4]
 8001d64:	681b      	ldr	r3, [r3, #0]
 8001d66:	68db      	ldr	r3, [r3, #12]
 8001d68:	f003 0340 	and.w	r3, r3, #64	; 0x40
 8001d6c:	2b40      	cmp	r3, #64	; 0x40
 8001d6e:	d107      	bne.n	8001d80 <HAL_TIM_IRQHandler+0x1dc>
    {
      __HAL_TIM_CLEAR_IT(htim, TIM_IT_TRIGGER);
 8001d70:	687b      	ldr	r3, [r7, #4]
 8001d72:	681b      	ldr	r3, [r3, #0]
 8001d74:	f06f 0240 	mvn.w	r2, #64	; 0x40
 8001d78:	611a      	str	r2, [r3, #16]
#if (USE_HAL_TIM_REGISTER_CALLBACKS == 1)
      htim->TriggerCallback(htim);
#else
      HAL_TIM_TriggerCallback(htim);
 8001d7a:	6878      	ldr	r0, [r7, #4]
 8001d7c:	f000 f908 	bl	8001f90 <HAL_TIM_TriggerCallback>
#endif /* USE_HAL_TIM_REGISTER_CALLBACKS */
    }
  }
  /* TIM commutation event */
  if (__HAL_TIM_GET_FLAG(htim, TIM_FLAG_COM) != RESET)
 8001d80:	687b      	ldr	r3, [r7, #4]
 8001d82:	681b      	ldr	r3, [r3, #0]
 8001d84:	691b      	ldr	r3, [r3, #16]
 8001d86:	f003 0320 	and.w	r3, r3, #32
 8001d8a:	2b20      	cmp	r3, #32
 8001d8c:	d10e      	bne.n	8001dac <HAL_TIM_IRQHandler+0x208>
  {
    if (__HAL_TIM_GET_IT_SOURCE(htim, TIM_IT_COM) != RESET)
 8001d8e:	687b      	ldr	r3, [r7, #4]
 8001d90:	681b      	ldr	r3, [r3, #0]
 8001d92:	68db      	ldr	r3, [r3, #12]
 8001d94:	f003 0320 	and.w	r3, r3, #32
 8001d98:	2b20      	cmp	r3, #32
 8001d9a:	d107      	bne.n	8001dac <HAL_TIM_IRQHandler+0x208>
    {
      __HAL_TIM_CLEAR_IT(htim, TIM_FLAG_COM);
 8001d9c:	687b      	ldr	r3, [r7, #4]
 8001d9e:	681b      	ldr	r3, [r3, #0]
 8001da0:	f06f 0220 	mvn.w	r2, #32
 8001da4:	611a      	str	r2, [r3, #16]
#if (USE_HAL_TIM_REGISTER_CALLBACKS == 1)
      htim->CommutationCallback(htim);
#else
      HAL_TIMEx_CommutCallback(htim);
 8001da6:	6878      	ldr	r0, [r7, #4]
 8001da8:	f000 fbee 	bl	8002588 <HAL_TIMEx_CommutCallback>
#endif /* USE_HAL_TIM_REGISTER_CALLBACKS */
    }
  }
}
 8001dac:	bf00      	nop
 8001dae:	3708      	adds	r7, #8
 8001db0:	46bd      	mov	sp, r7
 8001db2:	bd80      	pop	{r7, pc}

08001db4 <HAL_TIM_PWM_ConfigChannel>:
  * @retval HAL status
  */
HAL_StatusTypeDef HAL_TIM_PWM_ConfigChannel(TIM_HandleTypeDef *htim,
                                            TIM_OC_InitTypeDef *sConfig,
                                            uint32_t Channel)
{
 8001db4:	b580      	push	{r7, lr}
 8001db6:	b084      	sub	sp, #16
 8001db8:	af00      	add	r7, sp, #0
 8001dba:	60f8      	str	r0, [r7, #12]
 8001dbc:	60b9      	str	r1, [r7, #8]
 8001dbe:	607a      	str	r2, [r7, #4]
  assert_param(IS_TIM_PWM_MODE(sConfig->OCMode));
  assert_param(IS_TIM_OC_POLARITY(sConfig->OCPolarity));
  assert_param(IS_TIM_FAST_STATE(sConfig->OCFastMode));

  /* Process Locked */
  __HAL_LOCK(htim);
 8001dc0:	68fb      	ldr	r3, [r7, #12]
 8001dc2:	f893 303c 	ldrb.w	r3, [r3, #60]	; 0x3c
 8001dc6:	2b01      	cmp	r3, #1
 8001dc8:	d101      	bne.n	8001dce <HAL_TIM_PWM_ConfigChannel+0x1a>
 8001dca:	2302      	movs	r3, #2
 8001dcc:	e0b4      	b.n	8001f38 <HAL_TIM_PWM_ConfigChannel+0x184>
 8001dce:	68fb      	ldr	r3, [r7, #12]
 8001dd0:	2201      	movs	r2, #1
 8001dd2:	f883 203c 	strb.w	r2, [r3, #60]	; 0x3c

  htim->State = HAL_TIM_STATE_BUSY;
 8001dd6:	68fb      	ldr	r3, [r7, #12]
 8001dd8:	2202      	movs	r2, #2
 8001dda:	f883 203d 	strb.w	r2, [r3, #61]	; 0x3d

  switch (Channel)
 8001dde:	687b      	ldr	r3, [r7, #4]
 8001de0:	2b0c      	cmp	r3, #12
 8001de2:	f200 809f 	bhi.w	8001f24 <HAL_TIM_PWM_ConfigChannel+0x170>
 8001de6:	a201      	add	r2, pc, #4	; (adr r2, 8001dec <HAL_TIM_PWM_ConfigChannel+0x38>)
 8001de8:	f852 f023 	ldr.w	pc, [r2, r3, lsl #2]
 8001dec:	08001e21 	.word	0x08001e21
 8001df0:	08001f25 	.word	0x08001f25
 8001df4:	08001f25 	.word	0x08001f25
 8001df8:	08001f25 	.word	0x08001f25
 8001dfc:	08001e61 	.word	0x08001e61
 8001e00:	08001f25 	.word	0x08001f25
 8001e04:	08001f25 	.word	0x08001f25
 8001e08:	08001f25 	.word	0x08001f25
 8001e0c:	08001ea3 	.word	0x08001ea3
 8001e10:	08001f25 	.word	0x08001f25
 8001e14:	08001f25 	.word	0x08001f25
 8001e18:	08001f25 	.word	0x08001f25
 8001e1c:	08001ee3 	.word	0x08001ee3
    {
      /* Check the parameters */
      assert_param(IS_TIM_CC1_INSTANCE(htim->Instance));

      /* Configure the Channel 1 in PWM mode */
      TIM_OC1_SetConfig(htim->Instance, sConfig);
 8001e20:	68fb      	ldr	r3, [r7, #12]
 8001e22:	681b      	ldr	r3, [r3, #0]
 8001e24:	68b9      	ldr	r1, [r7, #8]
 8001e26:	4618      	mov	r0, r3
 8001e28:	f000 f95c 	bl	80020e4 <TIM_OC1_SetConfig>

      /* Set the Preload enable bit for channel1 */
      htim->Instance->CCMR1 |= TIM_CCMR1_OC1PE;
 8001e2c:	68fb      	ldr	r3, [r7, #12]
 8001e2e:	681b      	ldr	r3, [r3, #0]
 8001e30:	699a      	ldr	r2, [r3, #24]
 8001e32:	68fb      	ldr	r3, [r7, #12]
 8001e34:	681b      	ldr	r3, [r3, #0]
 8001e36:	f042 0208 	orr.w	r2, r2, #8
 8001e3a:	619a      	str	r2, [r3, #24]

      /* Configure the Output Fast mode */
      htim->Instance->CCMR1 &= ~TIM_CCMR1_OC1FE;
 8001e3c:	68fb      	ldr	r3, [r7, #12]
 8001e3e:	681b      	ldr	r3, [r3, #0]
 8001e40:	699a      	ldr	r2, [r3, #24]
 8001e42:	68fb      	ldr	r3, [r7, #12]
 8001e44:	681b      	ldr	r3, [r3, #0]
 8001e46:	f022 0204 	bic.w	r2, r2, #4
 8001e4a:	619a      	str	r2, [r3, #24]
      htim->Instance->CCMR1 |= sConfig->OCFastMode;
 8001e4c:	68fb      	ldr	r3, [r7, #12]
 8001e4e:	681b      	ldr	r3, [r3, #0]
 8001e50:	6999      	ldr	r1, [r3, #24]
 8001e52:	68bb      	ldr	r3, [r7, #8]
 8001e54:	691a      	ldr	r2, [r3, #16]
 8001e56:	68fb      	ldr	r3, [r7, #12]
 8001e58:	681b      	ldr	r3, [r3, #0]
 8001e5a:	430a      	orrs	r2, r1
 8001e5c:	619a      	str	r2, [r3, #24]
      break;
 8001e5e:	e062      	b.n	8001f26 <HAL_TIM_PWM_ConfigChannel+0x172>
    {
      /* Check the parameters */
      assert_param(IS_TIM_CC2_INSTANCE(htim->Instance));

      /* Configure the Channel 2 in PWM mode */
      TIM_OC2_SetConfig(htim->Instance, sConfig);
 8001e60:	68fb      	ldr	r3, [r7, #12]
 8001e62:	681b      	ldr	r3, [r3, #0]
 8001e64:	68b9      	ldr	r1, [r7, #8]
 8001e66:	4618      	mov	r0, r3
 8001e68:	f000 f9ac 	bl	80021c4 <TIM_OC2_SetConfig>

      /* Set the Preload enable bit for channel2 */
      htim->Instance->CCMR1 |= TIM_CCMR1_OC2PE;
 8001e6c:	68fb      	ldr	r3, [r7, #12]
 8001e6e:	681b      	ldr	r3, [r3, #0]
 8001e70:	699a      	ldr	r2, [r3, #24]
 8001e72:	68fb      	ldr	r3, [r7, #12]
 8001e74:	681b      	ldr	r3, [r3, #0]
 8001e76:	f442 6200 	orr.w	r2, r2, #2048	; 0x800
 8001e7a:	619a      	str	r2, [r3, #24]

      /* Configure the Output Fast mode */
      htim->Instance->CCMR1 &= ~TIM_CCMR1_OC2FE;
 8001e7c:	68fb      	ldr	r3, [r7, #12]
 8001e7e:	681b      	ldr	r3, [r3, #0]
 8001e80:	699a      	ldr	r2, [r3, #24]
 8001e82:	68fb      	ldr	r3, [r7, #12]
 8001e84:	681b      	ldr	r3, [r3, #0]
 8001e86:	f422 6280 	bic.w	r2, r2, #1024	; 0x400
 8001e8a:	619a      	str	r2, [r3, #24]
      htim->Instance->CCMR1 |= sConfig->OCFastMode << 8U;
 8001e8c:	68fb      	ldr	r3, [r7, #12]
 8001e8e:	681b      	ldr	r3, [r3, #0]
 8001e90:	6999      	ldr	r1, [r3, #24]
 8001e92:	68bb      	ldr	r3, [r7, #8]
 8001e94:	691b      	ldr	r3, [r3, #16]
 8001e96:	021a      	lsls	r2, r3, #8
 8001e98:	68fb      	ldr	r3, [r7, #12]
 8001e9a:	681b      	ldr	r3, [r3, #0]
 8001e9c:	430a      	orrs	r2, r1
 8001e9e:	619a      	str	r2, [r3, #24]
      break;
 8001ea0:	e041      	b.n	8001f26 <HAL_TIM_PWM_ConfigChannel+0x172>
    {
      /* Check the parameters */
      assert_param(IS_TIM_CC3_INSTANCE(htim->Instance));

      /* Configure the Channel 3 in PWM mode */
      TIM_OC3_SetConfig(htim->Instance, sConfig);
 8001ea2:	68fb      	ldr	r3, [r7, #12]
 8001ea4:	681b      	ldr	r3, [r3, #0]
 8001ea6:	68b9      	ldr	r1, [r7, #8]
 8001ea8:	4618      	mov	r0, r3
 8001eaa:	f000 fa01 	bl	80022b0 <TIM_OC3_SetConfig>

      /* Set the Preload enable bit for channel3 */
      htim->Instance->CCMR2 |= TIM_CCMR2_OC3PE;
 8001eae:	68fb      	ldr	r3, [r7, #12]
 8001eb0:	681b      	ldr	r3, [r3, #0]
 8001eb2:	69da      	ldr	r2, [r3, #28]
 8001eb4:	68fb      	ldr	r3, [r7, #12]
 8001eb6:	681b      	ldr	r3, [r3, #0]
 8001eb8:	f042 0208 	orr.w	r2, r2, #8
 8001ebc:	61da      	str	r2, [r3, #28]

      /* Configure the Output Fast mode */
      htim->Instance->CCMR2 &= ~TIM_CCMR2_OC3FE;
 8001ebe:	68fb      	ldr	r3, [r7, #12]
 8001ec0:	681b      	ldr	r3, [r3, #0]
 8001ec2:	69da      	ldr	r2, [r3, #28]
 8001ec4:	68fb      	ldr	r3, [r7, #12]
 8001ec6:	681b      	ldr	r3, [r3, #0]
 8001ec8:	f022 0204 	bic.w	r2, r2, #4
 8001ecc:	61da      	str	r2, [r3, #28]
      htim->Instance->CCMR2 |= sConfig->OCFastMode;
 8001ece:	68fb      	ldr	r3, [r7, #12]
 8001ed0:	681b      	ldr	r3, [r3, #0]
 8001ed2:	69d9      	ldr	r1, [r3, #28]
 8001ed4:	68bb      	ldr	r3, [r7, #8]
 8001ed6:	691a      	ldr	r2, [r3, #16]
 8001ed8:	68fb      	ldr	r3, [r7, #12]
 8001eda:	681b      	ldr	r3, [r3, #0]
 8001edc:	430a      	orrs	r2, r1
 8001ede:	61da      	str	r2, [r3, #28]
      break;
 8001ee0:	e021      	b.n	8001f26 <HAL_TIM_PWM_ConfigChannel+0x172>
    {
      /* Check the parameters */
      assert_param(IS_TIM_CC4_INSTANCE(htim->Instance));

      /* Configure the Channel 4 in PWM mode */
      TIM_OC4_SetConfig(htim->Instance, sConfig);
 8001ee2:	68fb      	ldr	r3, [r7, #12]
 8001ee4:	681b      	ldr	r3, [r3, #0]
 8001ee6:	68b9      	ldr	r1, [r7, #8]
 8001ee8:	4618      	mov	r0, r3
 8001eea:	f000 fa55 	bl	8002398 <TIM_OC4_SetConfig>

      /* Set the Preload enable bit for channel4 */
      htim->Instance->CCMR2 |= TIM_CCMR2_OC4PE;
 8001eee:	68fb      	ldr	r3, [r7, #12]
 8001ef0:	681b      	ldr	r3, [r3, #0]
 8001ef2:	69da      	ldr	r2, [r3, #28]
 8001ef4:	68fb      	ldr	r3, [r7, #12]
 8001ef6:	681b      	ldr	r3, [r3, #0]
 8001ef8:	f442 6200 	orr.w	r2, r2, #2048	; 0x800
 8001efc:	61da      	str	r2, [r3, #28]

      /* Configure the Output Fast mode */
      htim->Instance->CCMR2 &= ~TIM_CCMR2_OC4FE;
 8001efe:	68fb      	ldr	r3, [r7, #12]
 8001f00:	681b      	ldr	r3, [r3, #0]
 8001f02:	69da      	ldr	r2, [r3, #28]
 8001f04:	68fb      	ldr	r3, [r7, #12]
 8001f06:	681b      	ldr	r3, [r3, #0]
 8001f08:	f422 6280 	bic.w	r2, r2, #1024	; 0x400
 8001f0c:	61da      	str	r2, [r3, #28]
      htim->Instance->CCMR2 |= sConfig->OCFastMode << 8U;
 8001f0e:	68fb      	ldr	r3, [r7, #12]
 8001f10:	681b      	ldr	r3, [r3, #0]
 8001f12:	69d9      	ldr	r1, [r3, #28]
 8001f14:	68bb      	ldr	r3, [r7, #8]
 8001f16:	691b      	ldr	r3, [r3, #16]
 8001f18:	021a      	lsls	r2, r3, #8
 8001f1a:	68fb      	ldr	r3, [r7, #12]
 8001f1c:	681b      	ldr	r3, [r3, #0]
 8001f1e:	430a      	orrs	r2, r1
 8001f20:	61da      	str	r2, [r3, #28]
      break;
 8001f22:	e000      	b.n	8001f26 <HAL_TIM_PWM_ConfigChannel+0x172>
    }

    default:
      break;
 8001f24:	bf00      	nop
  }

  htim->State = HAL_TIM_STATE_READY;
 8001f26:	68fb      	ldr	r3, [r7, #12]
 8001f28:	2201      	movs	r2, #1
 8001f2a:	f883 203d 	strb.w	r2, [r3, #61]	; 0x3d

  __HAL_UNLOCK(htim);
 8001f2e:	68fb      	ldr	r3, [r7, #12]
 8001f30:	2200      	movs	r2, #0
 8001f32:	f883 203c 	strb.w	r2, [r3, #60]	; 0x3c

  return HAL_OK;
 8001f36:	2300      	movs	r3, #0
}
 8001f38:	4618      	mov	r0, r3
 8001f3a:	3710      	adds	r7, #16
 8001f3c:	46bd      	mov	sp, r7
 8001f3e:	bd80      	pop	{r7, pc}

08001f40 <HAL_TIM_PeriodElapsedCallback>:
  * @brief  Period elapsed callback in non-blocking mode
  * @param  htim TIM handle
  * @retval None
  */
__weak void HAL_TIM_PeriodElapsedCallback(TIM_HandleTypeDef *htim)
{
 8001f40:	b480      	push	{r7}
 8001f42:	b083      	sub	sp, #12
 8001f44:	af00      	add	r7, sp, #0
 8001f46:	6078      	str	r0, [r7, #4]
  UNUSED(htim);

  /* NOTE : This function should not be modified, when the callback is needed,
            the HAL_TIM_PeriodElapsedCallback could be implemented in the user file
   */
}
 8001f48:	bf00      	nop
 8001f4a:	370c      	adds	r7, #12
 8001f4c:	46bd      	mov	sp, r7
 8001f4e:	f85d 7b04 	ldr.w	r7, [sp], #4
 8001f52:	4770      	bx	lr

08001f54 <HAL_TIM_OC_DelayElapsedCallback>:
  * @brief  Output Compare callback in non-blocking mode
  * @param  htim TIM OC handle
  * @retval None
  */
__weak void HAL_TIM_OC_DelayElapsedCallback(TIM_HandleTypeDef *htim)
{
 8001f54:	b480      	push	{r7}
 8001f56:	b083      	sub	sp, #12
 8001f58:	af00      	add	r7, sp, #0
 8001f5a:	6078      	str	r0, [r7, #4]
  UNUSED(htim);

  /* NOTE : This function should not be modified, when the callback is needed,
            the HAL_TIM_OC_DelayElapsedCallback could be implemented in the user file
   */
}
 8001f5c:	bf00      	nop
 8001f5e:	370c      	adds	r7, #12
 8001f60:	46bd      	mov	sp, r7
 8001f62:	f85d 7b04 	ldr.w	r7, [sp], #4
 8001f66:	4770      	bx	lr

08001f68 <HAL_TIM_IC_CaptureCallback>:
  * @brief  Input Capture callback in non-blocking mode
  * @param  htim TIM IC handle
  * @retval None
  */
__weak void HAL_TIM_IC_CaptureCallback(TIM_HandleTypeDef *htim)
{
 8001f68:	b480      	push	{r7}
 8001f6a:	b083      	sub	sp, #12
 8001f6c:	af00      	add	r7, sp, #0
 8001f6e:	6078      	str	r0, [r7, #4]
  UNUSED(htim);

  /* NOTE : This function should not be modified, when the callback is needed,
            the HAL_TIM_IC_CaptureCallback could be implemented in the user file
   */
}
 8001f70:	bf00      	nop
 8001f72:	370c      	adds	r7, #12
 8001f74:	46bd      	mov	sp, r7
 8001f76:	f85d 7b04 	ldr.w	r7, [sp], #4
 8001f7a:	4770      	bx	lr

08001f7c <HAL_TIM_PWM_PulseFinishedCallback>:
  * @brief  PWM Pulse finished callback in non-blocking mode
  * @param  htim TIM handle
  * @retval None
  */
__weak void HAL_TIM_PWM_PulseFinishedCallback(TIM_HandleTypeDef *htim)
{
 8001f7c:	b480      	push	{r7}
 8001f7e:	b083      	sub	sp, #12
 8001f80:	af00      	add	r7, sp, #0
 8001f82:	6078      	str	r0, [r7, #4]
  UNUSED(htim);

  /* NOTE : This function should not be modified, when the callback is needed,
            the HAL_TIM_PWM_PulseFinishedCallback could be implemented in the user file
   */
}
 8001f84:	bf00      	nop
 8001f86:	370c      	adds	r7, #12
 8001f88:	46bd      	mov	sp, r7
 8001f8a:	f85d 7b04 	ldr.w	r7, [sp], #4
 8001f8e:	4770      	bx	lr

08001f90 <HAL_TIM_TriggerCallback>:
  * @brief  Hall Trigger detection callback in non-blocking mode
  * @param  htim TIM handle
  * @retval None
  */
__weak void HAL_TIM_TriggerCallback(TIM_HandleTypeDef *htim)
{
 8001f90:	b480      	push	{r7}
 8001f92:	b083      	sub	sp, #12
 8001f94:	af00      	add	r7, sp, #0
 8001f96:	6078      	str	r0, [r7, #4]
  UNUSED(htim);

  /* NOTE : This function should not be modified, when the callback is needed,
            the HAL_TIM_TriggerCallback could be implemented in the user file
   */
}
 8001f98:	bf00      	nop
 8001f9a:	370c      	adds	r7, #12
 8001f9c:	46bd      	mov	sp, r7
 8001f9e:	f85d 7b04 	ldr.w	r7, [sp], #4
 8001fa2:	4770      	bx	lr

08001fa4 <TIM_Base_SetConfig>:
  * @param  TIMx TIM peripheral
  * @param  Structure TIM Base configuration structure
  * @retval None
  */
void TIM_Base_SetConfig(TIM_TypeDef *TIMx, TIM_Base_InitTypeDef *Structure)
{
 8001fa4:	b480      	push	{r7}
 8001fa6:	b085      	sub	sp, #20
 8001fa8:	af00      	add	r7, sp, #0
 8001faa:	6078      	str	r0, [r7, #4]
 8001fac:	6039      	str	r1, [r7, #0]
  uint32_t tmpcr1;
  tmpcr1 = TIMx->CR1;
 8001fae:	687b      	ldr	r3, [r7, #4]
 8001fb0:	681b      	ldr	r3, [r3, #0]
 8001fb2:	60fb      	str	r3, [r7, #12]

  /* Set TIM Time Base Unit parameters ---------------------------------------*/
  if (IS_TIM_COUNTER_MODE_SELECT_INSTANCE(TIMx))
 8001fb4:	687b      	ldr	r3, [r7, #4]
