
003_clock_tree_max_values_types.elf:     file format elf32-littlearm

Sections:
Idx Name          Size      VMA       LMA       File off  Algn
  0 .isr_vector   00000188  08000000  08000000  00010000  2**0
                  CONTENTS, ALLOC, LOAD, READONLY, DATA
  1 .text         00007920  08000188  08000188  00010188  2**2
                  CONTENTS, ALLOC, LOAD, READONLY, CODE
  2 .rodata       0000001c  08007aa8  08007aa8  00017aa8  2**2
                  CONTENTS, ALLOC, LOAD, READONLY, DATA
  3 .ARM.extab    00000000  08007ac4  08007ac4  00020090  2**0
                  CONTENTS
  4 .ARM          00000008  08007ac4  08007ac4  00017ac4  2**2
                  CONTENTS, ALLOC, LOAD, READONLY, DATA
  5 .preinit_array 00000000  08007acc  08007acc  00020090  2**0
                  CONTENTS, ALLOC, LOAD, DATA
  6 .init_array   00000004  08007acc  08007acc  00017acc  2**2
                  CONTENTS, ALLOC, LOAD, DATA
  7 .fini_array   00000004  08007ad0  08007ad0  00017ad0  2**2
                  CONTENTS, ALLOC, LOAD, DATA
  8 .data         00000090  20000000  08007ad4  00020000  2**2
                  CONTENTS, ALLOC, LOAD, DATA
  9 .bss          000007c8  20000090  08007b64  00020090  2**2
                  ALLOC
 10 ._user_heap_stack 00000600  20000858  08007b64  00020858  2**0
                  ALLOC
 11 .ARM.attributes 00000030  00000000  00000000  00020090  2**0
                  CONTENTS, READONLY
 12 .debug_info   00018635  00000000  00000000  000200c0  2**0
                  CONTENTS, READONLY, DEBUGGING
 13 .debug_abbrev 00003553  00000000  00000000  000386f5  2**0
                  CONTENTS, READONLY, DEBUGGING
 14 .debug_aranges 00001108  00000000  00000000  0003bc48  2**3
                  CONTENTS, READONLY, DEBUGGING
 15 .debug_ranges 00000fa8  00000000  00000000  0003cd50  2**3
                  CONTENTS, READONLY, DEBUGGING
 16 .debug_macro  0002388b  00000000  00000000  0003dcf8  2**0
                  CONTENTS, READONLY, DEBUGGING
 17 .debug_line   00011031  00000000  00000000  00061583  2**0
                  CONTENTS, READONLY, DEBUGGING
 18 .debug_str    000ca89e  00000000  00000000  000725b4  2**0
                  CONTENTS, READONLY, DEBUGGING
 19 .comment      0000007b  00000000  00000000  0013ce52  2**0
                  CONTENTS, READONLY
 20 .debug_frame  000047d4  00000000  00000000  0013ced0  2**2
                  CONTENTS, READONLY, DEBUGGING

Disassembly of section .text:

08000188 <__do_global_dtors_aux>:
 8000188:	b510      	push	{r4, lr}
 800018a:	4c05      	ldr	r4, [pc, #20]	; (80001a0 <__do_global_dtors_aux+0x18>)
 800018c:	7823      	ldrb	r3, [r4, #0]
 800018e:	b933      	cbnz	r3, 800019e <__do_global_dtors_aux+0x16>
 8000190:	4b04      	ldr	r3, [pc, #16]	; (80001a4 <__do_global_dtors_aux+0x1c>)
 8000192:	b113      	cbz	r3, 800019a <__do_global_dtors_aux+0x12>
 8000194:	4804      	ldr	r0, [pc, #16]	; (80001a8 <__do_global_dtors_aux+0x20>)
 8000196:	f3af 8000 	nop.w
 800019a:	2301      	movs	r3, #1
 800019c:	7023      	strb	r3, [r4, #0]
 800019e:	bd10      	pop	{r4, pc}
 80001a0:	20000090 	.word	0x20000090
 80001a4:	00000000 	.word	0x00000000
 80001a8:	08007a90 	.word	0x08007a90

080001ac <frame_dummy>:
 80001ac:	b508      	push	{r3, lr}
 80001ae:	4b03      	ldr	r3, [pc, #12]	; (80001bc <frame_dummy+0x10>)
 80001b0:	b11b      	cbz	r3, 80001ba <frame_dummy+0xe>
 80001b2:	4903      	ldr	r1, [pc, #12]	; (80001c0 <frame_dummy+0x14>)
 80001b4:	4803      	ldr	r0, [pc, #12]	; (80001c4 <frame_dummy+0x18>)
 80001b6:	f3af 8000 	nop.w
 80001ba:	bd08      	pop	{r3, pc}
 80001bc:	00000000 	.word	0x00000000
 80001c0:	20000094 	.word	0x20000094
 80001c4:	08007a90 	.word	0x08007a90

080001c8 <__aeabi_uldivmod>:
 80001c8:	b953      	cbnz	r3, 80001e0 <__aeabi_uldivmod+0x18>
 80001ca:	b94a      	cbnz	r2, 80001e0 <__aeabi_uldivmod+0x18>
 80001cc:	2900      	cmp	r1, #0
 80001ce:	bf08      	it	eq
 80001d0:	2800      	cmpeq	r0, #0
 80001d2:	bf1c      	itt	ne
 80001d4:	f04f 31ff 	movne.w	r1, #4294967295
 80001d8:	f04f 30ff 	movne.w	r0, #4294967295
 80001dc:	f000 b972 	b.w	80004c4 <__aeabi_idiv0>
 80001e0:	f1ad 0c08 	sub.w	ip, sp, #8
 80001e4:	e96d ce04 	strd	ip, lr, [sp, #-16]!
 80001e8:	f000 f806 	bl	80001f8 <__udivmoddi4>
 80001ec:	f8dd e004 	ldr.w	lr, [sp, #4]
 80001f0:	e9dd 2302 	ldrd	r2, r3, [sp, #8]
 80001f4:	b004      	add	sp, #16
 80001f6:	4770      	bx	lr

080001f8 <__udivmoddi4>:
 80001f8:	e92d 47f0 	stmdb	sp!, {r4, r5, r6, r7, r8, r9, sl, lr}
 80001fc:	9e08      	ldr	r6, [sp, #32]
 80001fe:	4604      	mov	r4, r0
 8000200:	4688      	mov	r8, r1
 8000202:	2b00      	cmp	r3, #0
 8000204:	d14b      	bne.n	800029e <__udivmoddi4+0xa6>
 8000206:	428a      	cmp	r2, r1
 8000208:	4615      	mov	r5, r2
 800020a:	d967      	bls.n	80002dc <__udivmoddi4+0xe4>
 800020c:	fab2 f282 	clz	r2, r2
 8000210:	b14a      	cbz	r2, 8000226 <__udivmoddi4+0x2e>
 8000212:	f1c2 0720 	rsb	r7, r2, #32
 8000216:	fa01 f302 	lsl.w	r3, r1, r2
 800021a:	fa20 f707 	lsr.w	r7, r0, r7
 800021e:	4095      	lsls	r5, r2
 8000220:	ea47 0803 	orr.w	r8, r7, r3
 8000224:	4094      	lsls	r4, r2
 8000226:	ea4f 4e15 	mov.w	lr, r5, lsr #16
 800022a:	0c23      	lsrs	r3, r4, #16
 800022c:	fbb8 f7fe 	udiv	r7, r8, lr
 8000230:	fa1f fc85 	uxth.w	ip, r5
 8000234:	fb0e 8817 	mls	r8, lr, r7, r8
 8000238:	ea43 4308 	orr.w	r3, r3, r8, lsl #16
 800023c:	fb07 f10c 	mul.w	r1, r7, ip
 8000240:	4299      	cmp	r1, r3
 8000242:	d909      	bls.n	8000258 <__udivmoddi4+0x60>
 8000244:	18eb      	adds	r3, r5, r3
 8000246:	f107 30ff 	add.w	r0, r7, #4294967295
 800024a:	f080 811b 	bcs.w	8000484 <__udivmoddi4+0x28c>
 800024e:	4299      	cmp	r1, r3
 8000250:	f240 8118 	bls.w	8000484 <__udivmoddi4+0x28c>
 8000254:	3f02      	subs	r7, #2
 8000256:	442b      	add	r3, r5
 8000258:	1a5b      	subs	r3, r3, r1
 800025a:	b2a4      	uxth	r4, r4
 800025c:	fbb3 f0fe 	udiv	r0, r3, lr
 8000260:	fb0e 3310 	mls	r3, lr, r0, r3
 8000264:	ea44 4403 	orr.w	r4, r4, r3, lsl #16
 8000268:	fb00 fc0c 	mul.w	ip, r0, ip
 800026c:	45a4      	cmp	ip, r4
 800026e:	d909      	bls.n	8000284 <__udivmoddi4+0x8c>
 8000270:	192c      	adds	r4, r5, r4
 8000272:	f100 33ff 	add.w	r3, r0, #4294967295
 8000276:	f080 8107 	bcs.w	8000488 <__udivmoddi4+0x290>
 800027a:	45a4      	cmp	ip, r4
 800027c:	f240 8104 	bls.w	8000488 <__udivmoddi4+0x290>
 8000280:	3802      	subs	r0, #2
 8000282:	442c      	add	r4, r5
 8000284:	ea40 4007 	orr.w	r0, r0, r7, lsl #16
 8000288:	eba4 040c 	sub.w	r4, r4, ip
 800028c:	2700      	movs	r7, #0
 800028e:	b11e      	cbz	r6, 8000298 <__udivmoddi4+0xa0>
 8000290:	40d4      	lsrs	r4, r2
 8000292:	2300      	movs	r3, #0
 8000294:	e9c6 4300 	strd	r4, r3, [r6]
 8000298:	4639      	mov	r1, r7
 800029a:	e8bd 87f0 	ldmia.w	sp!, {r4, r5, r6, r7, r8, r9, sl, pc}
 800029e:	428b      	cmp	r3, r1
 80002a0:	d909      	bls.n	80002b6 <__udivmoddi4+0xbe>
 80002a2:	2e00      	cmp	r6, #0
 80002a4:	f000 80eb 	beq.w	800047e <__udivmoddi4+0x286>
 80002a8:	2700      	movs	r7, #0
 80002aa:	e9c6 0100 	strd	r0, r1, [r6]
 80002ae:	4638      	mov	r0, r7
 80002b0:	4639      	mov	r1, r7
 80002b2:	e8bd 87f0 	ldmia.w	sp!, {r4, r5, r6, r7, r8, r9, sl, pc}
 80002b6:	fab3 f783 	clz	r7, r3
 80002ba:	2f00      	cmp	r7, #0
 80002bc:	d147      	bne.n	800034e <__udivmoddi4+0x156>
 80002be:	428b      	cmp	r3, r1
 80002c0:	d302      	bcc.n	80002c8 <__udivmoddi4+0xd0>
 80002c2:	4282      	cmp	r2, r0
 80002c4:	f200 80fa 	bhi.w	80004bc <__udivmoddi4+0x2c4>
 80002c8:	1a84      	subs	r4, r0, r2
 80002ca:	eb61 0303 	sbc.w	r3, r1, r3
 80002ce:	2001      	movs	r0, #1
 80002d0:	4698      	mov	r8, r3
 80002d2:	2e00      	cmp	r6, #0
 80002d4:	d0e0      	beq.n	8000298 <__udivmoddi4+0xa0>
 80002d6:	e9c6 4800 	strd	r4, r8, [r6]
 80002da:	e7dd      	b.n	8000298 <__udivmoddi4+0xa0>
 80002dc:	b902      	cbnz	r2, 80002e0 <__udivmoddi4+0xe8>
 80002de:	deff      	udf	#255	; 0xff
 80002e0:	fab2 f282 	clz	r2, r2
 80002e4:	2a00      	cmp	r2, #0
 80002e6:	f040 808f 	bne.w	8000408 <__udivmoddi4+0x210>
 80002ea:	1b49      	subs	r1, r1, r5
 80002ec:	ea4f 4e15 	mov.w	lr, r5, lsr #16
 80002f0:	fa1f f885 	uxth.w	r8, r5
 80002f4:	2701      	movs	r7, #1
 80002f6:	fbb1 fcfe 	udiv	ip, r1, lr
 80002fa:	0c23      	lsrs	r3, r4, #16
 80002fc:	fb0e 111c 	mls	r1, lr, ip, r1
 8000300:	ea43 4301 	orr.w	r3, r3, r1, lsl #16
 8000304:	fb08 f10c 	mul.w	r1, r8, ip
 8000308:	4299      	cmp	r1, r3
 800030a:	d907      	bls.n	800031c <__udivmoddi4+0x124>
 800030c:	18eb      	adds	r3, r5, r3
 800030e:	f10c 30ff 	add.w	r0, ip, #4294967295
 8000312:	d202      	bcs.n	800031a <__udivmoddi4+0x122>
 8000314:	4299      	cmp	r1, r3
 8000316:	f200 80cd 	bhi.w	80004b4 <__udivmoddi4+0x2bc>
 800031a:	4684      	mov	ip, r0
 800031c:	1a59      	subs	r1, r3, r1
 800031e:	b2a3      	uxth	r3, r4
 8000320:	fbb1 f0fe 	udiv	r0, r1, lr
 8000324:	fb0e 1410 	mls	r4, lr, r0, r1
 8000328:	ea43 4404 	orr.w	r4, r3, r4, lsl #16
 800032c:	fb08 f800 	mul.w	r8, r8, r0
 8000330:	45a0      	cmp	r8, r4
 8000332:	d907      	bls.n	8000344 <__udivmoddi4+0x14c>
 8000334:	192c      	adds	r4, r5, r4
 8000336:	f100 33ff 	add.w	r3, r0, #4294967295
 800033a:	d202      	bcs.n	8000342 <__udivmoddi4+0x14a>
 800033c:	45a0      	cmp	r8, r4
 800033e:	f200 80b6 	bhi.w	80004ae <__udivmoddi4+0x2b6>
 8000342:	4618      	mov	r0, r3
 8000344:	eba4 0408 	sub.w	r4, r4, r8
 8000348:	ea40 400c 	orr.w	r0, r0, ip, lsl #16
 800034c:	e79f      	b.n	800028e <__udivmoddi4+0x96>
 800034e:	f1c7 0c20 	rsb	ip, r7, #32
 8000352:	40bb      	lsls	r3, r7
 8000354:	fa22 fe0c 	lsr.w	lr, r2, ip
 8000358:	ea4e 0e03 	orr.w	lr, lr, r3
 800035c:	fa01 f407 	lsl.w	r4, r1, r7
 8000360:	fa20 f50c 	lsr.w	r5, r0, ip
 8000364:	fa21 f30c 	lsr.w	r3, r1, ip
 8000368:	ea4f 481e 	mov.w	r8, lr, lsr #16
 800036c:	4325      	orrs	r5, r4
 800036e:	fbb3 f9f8 	udiv	r9, r3, r8
 8000372:	0c2c      	lsrs	r4, r5, #16
 8000374:	fb08 3319 	mls	r3, r8, r9, r3
 8000378:	fa1f fa8e 	uxth.w	sl, lr
 800037c:	ea44 4303 	orr.w	r3, r4, r3, lsl #16
 8000380:	fb09 f40a 	mul.w	r4, r9, sl
 8000384:	429c      	cmp	r4, r3
 8000386:	fa02 f207 	lsl.w	r2, r2, r7
 800038a:	fa00 f107 	lsl.w	r1, r0, r7
 800038e:	d90b      	bls.n	80003a8 <__udivmoddi4+0x1b0>
 8000390:	eb1e 0303 	adds.w	r3, lr, r3
 8000394:	f109 30ff 	add.w	r0, r9, #4294967295
 8000398:	f080 8087 	bcs.w	80004aa <__udivmoddi4+0x2b2>
 800039c:	429c      	cmp	r4, r3
 800039e:	f240 8084 	bls.w	80004aa <__udivmoddi4+0x2b2>
 80003a2:	f1a9 0902 	sub.w	r9, r9, #2
 80003a6:	4473      	add	r3, lr
 80003a8:	1b1b      	subs	r3, r3, r4
 80003aa:	b2ad      	uxth	r5, r5
 80003ac:	fbb3 f0f8 	udiv	r0, r3, r8
 80003b0:	fb08 3310 	mls	r3, r8, r0, r3
 80003b4:	ea45 4403 	orr.w	r4, r5, r3, lsl #16
 80003b8:	fb00 fa0a 	mul.w	sl, r0, sl
 80003bc:	45a2      	cmp	sl, r4
 80003be:	d908      	bls.n	80003d2 <__udivmoddi4+0x1da>
 80003c0:	eb1e 0404 	adds.w	r4, lr, r4
 80003c4:	f100 33ff 	add.w	r3, r0, #4294967295
 80003c8:	d26b      	bcs.n	80004a2 <__udivmoddi4+0x2aa>
 80003ca:	45a2      	cmp	sl, r4
 80003cc:	d969      	bls.n	80004a2 <__udivmoddi4+0x2aa>
 80003ce:	3802      	subs	r0, #2
 80003d0:	4474      	add	r4, lr
 80003d2:	ea40 4009 	orr.w	r0, r0, r9, lsl #16
 80003d6:	fba0 8902 	umull	r8, r9, r0, r2
 80003da:	eba4 040a 	sub.w	r4, r4, sl
 80003de:	454c      	cmp	r4, r9
 80003e0:	46c2      	mov	sl, r8
 80003e2:	464b      	mov	r3, r9
 80003e4:	d354      	bcc.n	8000490 <__udivmoddi4+0x298>
 80003e6:	d051      	beq.n	800048c <__udivmoddi4+0x294>
 80003e8:	2e00      	cmp	r6, #0
 80003ea:	d069      	beq.n	80004c0 <__udivmoddi4+0x2c8>
 80003ec:	ebb1 050a 	subs.w	r5, r1, sl
 80003f0:	eb64 0403 	sbc.w	r4, r4, r3
 80003f4:	fa04 fc0c 	lsl.w	ip, r4, ip
 80003f8:	40fd      	lsrs	r5, r7
 80003fa:	40fc      	lsrs	r4, r7
 80003fc:	ea4c 0505 	orr.w	r5, ip, r5
 8000400:	e9c6 5400 	strd	r5, r4, [r6]
 8000404:	2700      	movs	r7, #0
 8000406:	e747      	b.n	8000298 <__udivmoddi4+0xa0>
 8000408:	f1c2 0320 	rsb	r3, r2, #32
 800040c:	fa20 f703 	lsr.w	r7, r0, r3
 8000410:	4095      	lsls	r5, r2
 8000412:	fa01 f002 	lsl.w	r0, r1, r2
 8000416:	fa21 f303 	lsr.w	r3, r1, r3
 800041a:	ea4f 4e15 	mov.w	lr, r5, lsr #16
 800041e:	4338      	orrs	r0, r7
 8000420:	0c01      	lsrs	r1, r0, #16
 8000422:	fbb3 f7fe 	udiv	r7, r3, lr
 8000426:	fa1f f885 	uxth.w	r8, r5
 800042a:	fb0e 3317 	mls	r3, lr, r7, r3
 800042e:	ea41 4103 	orr.w	r1, r1, r3, lsl #16
 8000432:	fb07 f308 	mul.w	r3, r7, r8
 8000436:	428b      	cmp	r3, r1
 8000438:	fa04 f402 	lsl.w	r4, r4, r2
 800043c:	d907      	bls.n	800044e <__udivmoddi4+0x256>
 800043e:	1869      	adds	r1, r5, r1
 8000440:	f107 3cff 	add.w	ip, r7, #4294967295
 8000444:	d22f      	bcs.n	80004a6 <__udivmoddi4+0x2ae>
 8000446:	428b      	cmp	r3, r1
 8000448:	d92d      	bls.n	80004a6 <__udivmoddi4+0x2ae>
 800044a:	3f02      	subs	r7, #2
 800044c:	4429      	add	r1, r5
 800044e:	1acb      	subs	r3, r1, r3
 8000450:	b281      	uxth	r1, r0
 8000452:	fbb3 f0fe 	udiv	r0, r3, lr
 8000456:	fb0e 3310 	mls	r3, lr, r0, r3
 800045a:	ea41 4103 	orr.w	r1, r1, r3, lsl #16
 800045e:	fb00 f308 	mul.w	r3, r0, r8
 8000462:	428b      	cmp	r3, r1
 8000464:	d907      	bls.n	8000476 <__udivmoddi4+0x27e>
 8000466:	1869      	adds	r1, r5, r1
 8000468:	f100 3cff 	add.w	ip, r0, #4294967295
 800046c:	d217      	bcs.n	800049e <__udivmoddi4+0x2a6>
 800046e:	428b      	cmp	r3, r1
 8000470:	d915      	bls.n	800049e <__udivmoddi4+0x2a6>
 8000472:	3802      	subs	r0, #2
 8000474:	4429      	add	r1, r5
 8000476:	1ac9      	subs	r1, r1, r3
 8000478:	ea40 4707 	orr.w	r7, r0, r7, lsl #16
 800047c:	e73b      	b.n	80002f6 <__udivmoddi4+0xfe>
 800047e:	4637      	mov	r7, r6
 8000480:	4630      	mov	r0, r6
 8000482:	e709      	b.n	8000298 <__udivmoddi4+0xa0>
 8000484:	4607      	mov	r7, r0
 8000486:	e6e7      	b.n	8000258 <__udivmoddi4+0x60>
 8000488:	4618      	mov	r0, r3
 800048a:	e6fb      	b.n	8000284 <__udivmoddi4+0x8c>
 800048c:	4541      	cmp	r1, r8
 800048e:	d2ab      	bcs.n	80003e8 <__udivmoddi4+0x1f0>
 8000490:	ebb8 0a02 	subs.w	sl, r8, r2
 8000494:	eb69 020e 	sbc.w	r2, r9, lr
 8000498:	3801      	subs	r0, #1
 800049a:	4613      	mov	r3, r2
 800049c:	e7a4      	b.n	80003e8 <__udivmoddi4+0x1f0>
 800049e:	4660      	mov	r0, ip
 80004a0:	e7e9      	b.n	8000476 <__udivmoddi4+0x27e>
 80004a2:	4618      	mov	r0, r3
 80004a4:	e795      	b.n	80003d2 <__udivmoddi4+0x1da>
 80004a6:	4667      	mov	r7, ip
 80004a8:	e7d1      	b.n	800044e <__udivmoddi4+0x256>
 80004aa:	4681      	mov	r9, r0
 80004ac:	e77c      	b.n	80003a8 <__udivmoddi4+0x1b0>
 80004ae:	3802      	subs	r0, #2
 80004b0:	442c      	add	r4, r5
 80004b2:	e747      	b.n	8000344 <__udivmoddi4+0x14c>
 80004b4:	f1ac 0c02 	sub.w	ip, ip, #2
 80004b8:	442b      	add	r3, r5
 80004ba:	e72f      	b.n	800031c <__udivmoddi4+0x124>
 80004bc:	4638      	mov	r0, r7
 80004be:	e708      	b.n	80002d2 <__udivmoddi4+0xda>
 80004c0:	4637      	mov	r7, r6
 80004c2:	e6e9      	b.n	8000298 <__udivmoddi4+0xa0>

080004c4 <__aeabi_idiv0>:
 80004c4:	4770      	bx	lr
 80004c6:	bf00      	nop

080004c8 <main>:
/**
  * @brief  The application entry point.
  * @retval int
  */
int main(void)
{
 80004c8:	b580      	push	{r7, lr}
 80004ca:	af00      	add	r7, sp, #0
  /* USER CODE END 1 */

  /* MCU Configuration--------------------------------------------------------*/

  /* Reset of all peripherals, Initializes the Flash interface and the Systick. */
  HAL_Init();
 80004cc:	f000 fc1c 	bl	8000d08 <HAL_Init>
  /* USER CODE BEGIN Init */

  /* USER CODE END Init */

  /* Configure the system clock */
  SystemClock_Config();
 80004d0:	f000 f80e 	bl	80004f0 <SystemClock_Config>
  /* USER CODE BEGIN SysInit */

  /* USER CODE END SysInit */

  /* Initialize all configured peripherals */
  MX_GPIO_Init();
 80004d4:	f000 f92c 	bl	8000730 <MX_GPIO_Init>
  MX_I2C1_Init();
 80004d8:	f000 f896 	bl	8000608 <MX_I2C1_Init>
  MX_I2S3_Init();
 80004dc:	f000 f8c2 	bl	8000664 <MX_I2S3_Init>
  MX_SPI1_Init();
 80004e0:	f000 f8f0 	bl	80006c4 <MX_SPI1_Init>
  MX_USB_HOST_Init();
 80004e4:	f006 fed0 	bl	8007288 <MX_USB_HOST_Init>
  /* Infinite loop */
  /* USER CODE BEGIN WHILE */
  while (1)
  {
    /* USER CODE END WHILE */
    MX_USB_HOST_Process();
 80004e8:	f006 fef4 	bl	80072d4 <MX_USB_HOST_Process>
 80004ec:	e7fc      	b.n	80004e8 <main+0x20>
	...

080004f0 <SystemClock_Config>:
/**
  * @brief System Clock Configuration
  * @retval None
  */
void SystemClock_Config(void)
{
 80004f0:	b580      	push	{r7, lr}
 80004f2:	b098      	sub	sp, #96	; 0x60
 80004f4:	af00      	add	r7, sp, #0
  RCC_OscInitTypeDef RCC_OscInitStruct = {0};
 80004f6:	f107 0330 	add.w	r3, r7, #48	; 0x30
 80004fa:	2230      	movs	r2, #48	; 0x30
 80004fc:	2100      	movs	r1, #0
 80004fe:	4618      	mov	r0, r3
 8000500:	f007 fa04 	bl	800790c <memset>
  RCC_ClkInitTypeDef RCC_ClkInitStruct = {0};
 8000504:	f107 031c 	add.w	r3, r7, #28
 8000508:	2200      	movs	r2, #0
 800050a:	601a      	str	r2, [r3, #0]
 800050c:	605a      	str	r2, [r3, #4]
 800050e:	609a      	str	r2, [r3, #8]
 8000510:	60da      	str	r2, [r3, #12]
 8000512:	611a      	str	r2, [r3, #16]
  RCC_PeriphCLKInitTypeDef PeriphClkInitStruct = {0};
 8000514:	f107 030c 	add.w	r3, r7, #12
 8000518:	2200      	movs	r2, #0
 800051a:	601a      	str	r2, [r3, #0]
 800051c:	605a      	str	r2, [r3, #4]
 800051e:	609a      	str	r2, [r3, #8]
 8000520:	60da      	str	r2, [r3, #12]

  /** Configure the main internal regulator output voltage 
  */
  __HAL_RCC_PWR_CLK_ENABLE();
 8000522:	2300      	movs	r3, #0
 8000524:	60bb      	str	r3, [r7, #8]
 8000526:	4b36      	ldr	r3, [pc, #216]	; (8000600 <SystemClock_Config+0x110>)
 8000528:	6c1b      	ldr	r3, [r3, #64]	; 0x40
 800052a:	4a35      	ldr	r2, [pc, #212]	; (8000600 <SystemClock_Config+0x110>)
 800052c:	f043 5380 	orr.w	r3, r3, #268435456	; 0x10000000
 8000530:	6413      	str	r3, [r2, #64]	; 0x40
 8000532:	4b33      	ldr	r3, [pc, #204]	; (8000600 <SystemClock_Config+0x110>)
 8000534:	6c1b      	ldr	r3, [r3, #64]	; 0x40
 8000536:	f003 5380 	and.w	r3, r3, #268435456	; 0x10000000
 800053a:	60bb      	str	r3, [r7, #8]
 800053c:	68bb      	ldr	r3, [r7, #8]
  __HAL_PWR_VOLTAGESCALING_CONFIG(PWR_REGULATOR_VOLTAGE_SCALE1);
 800053e:	2300      	movs	r3, #0
 8000540:	607b      	str	r3, [r7, #4]
 8000542:	4b30      	ldr	r3, [pc, #192]	; (8000604 <SystemClock_Config+0x114>)
 8000544:	681b      	ldr	r3, [r3, #0]
 8000546:	4a2f      	ldr	r2, [pc, #188]	; (8000604 <SystemClock_Config+0x114>)
 8000548:	f443 4380 	orr.w	r3, r3, #16384	; 0x4000
 800054c:	6013      	str	r3, [r2, #0]
 800054e:	4b2d      	ldr	r3, [pc, #180]	; (8000604 <SystemClock_Config+0x114>)
 8000550:	681b      	ldr	r3, [r3, #0]
 8000552:	f403 4380 	and.w	r3, r3, #16384	; 0x4000
 8000556:	607b      	str	r3, [r7, #4]
 8000558:	687b      	ldr	r3, [r7, #4]
  /** Initializes the CPU, AHB and APB busses clocks 
  */
  RCC_OscInitStruct.OscillatorType = RCC_OSCILLATORTYPE_HSE;
 800055a:	2301      	movs	r3, #1
 800055c:	633b      	str	r3, [r7, #48]	; 0x30
  RCC_OscInitStruct.HSEState = RCC_HSE_ON;
 800055e:	f44f 3380 	mov.w	r3, #65536	; 0x10000
 8000562:	637b      	str	r3, [r7, #52]	; 0x34
  RCC_OscInitStruct.PLL.PLLState = RCC_PLL_ON;
 8000564:	2302      	movs	r3, #2
 8000566:	64bb      	str	r3, [r7, #72]	; 0x48
  RCC_OscInitStruct.PLL.PLLSource = RCC_PLLSOURCE_HSE;
 8000568:	f44f 0380 	mov.w	r3, #4194304	; 0x400000
 800056c:	64fb      	str	r3, [r7, #76]	; 0x4c
  RCC_OscInitStruct.PLL.PLLM = 4;
 800056e:	2304      	movs	r3, #4
 8000570:	653b      	str	r3, [r7, #80]	; 0x50
  RCC_OscInitStruct.PLL.PLLN = 72;
 8000572:	2348      	movs	r3, #72	; 0x48
 8000574:	657b      	str	r3, [r7, #84]	; 0x54
  RCC_OscInitStruct.PLL.PLLP = RCC_PLLP_DIV2;
 8000576:	2302      	movs	r3, #2
 8000578:	65bb      	str	r3, [r7, #88]	; 0x58
  RCC_OscInitStruct.PLL.PLLQ = 3;
 800057a:	2303      	movs	r3, #3
 800057c:	65fb      	str	r3, [r7, #92]	; 0x5c
  if (HAL_RCC_OscConfig(&RCC_OscInitStruct) != HAL_OK)
 800057e:	f107 0330 	add.w	r3, r7, #48	; 0x30
 8000582:	4618      	mov	r0, r3
 8000584:	f003 f9e2 	bl	800394c <HAL_RCC_OscConfig>
 8000588:	4603      	mov	r3, r0
 800058a:	2b00      	cmp	r3, #0
 800058c:	d001      	beq.n	8000592 <SystemClock_Config+0xa2>
  {
    Error_Handler();
 800058e:	f000 f9ef 	bl	8000970 <Error_Handler>
  }
  /** Initializes the CPU, AHB and APB busses clocks 
  */
  RCC_ClkInitStruct.ClockType = RCC_CLOCKTYPE_HCLK|RCC_CLOCKTYPE_SYSCLK
 8000592:	230f      	movs	r3, #15
 8000594:	61fb      	str	r3, [r7, #28]
                              |RCC_CLOCKTYPE_PCLK1|RCC_CLOCKTYPE_PCLK2;
  RCC_ClkInitStruct.SYSCLKSource = RCC_SYSCLKSOURCE_PLLCLK;
 8000596:	2302      	movs	r3, #2
 8000598:	623b      	str	r3, [r7, #32]
  RCC_ClkInitStruct.AHBCLKDivider = RCC_SYSCLK_DIV1;
 800059a:	2300      	movs	r3, #0
 800059c:	627b      	str	r3, [r7, #36]	; 0x24
  RCC_ClkInitStruct.APB1CLKDivider = RCC_HCLK_DIV2;
 800059e:	f44f 5380 	mov.w	r3, #4096	; 0x1000
 80005a2:	62bb      	str	r3, [r7, #40]	; 0x28
  RCC_ClkInitStruct.APB2CLKDivider = RCC_HCLK_DIV1;
 80005a4:	2300      	movs	r3, #0
 80005a6:	62fb      	str	r3, [r7, #44]	; 0x2c

  if (HAL_RCC_ClockConfig(&RCC_ClkInitStruct, FLASH_LATENCY_2) != HAL_OK)
 80005a8:	f107 031c 	add.w	r3, r7, #28
 80005ac:	2102      	movs	r1, #2
 80005ae:	4618      	mov	r0, r3
 80005b0:	f003 fc3c 	bl	8003e2c <HAL_RCC_ClockConfig>
 80005b4:	4603      	mov	r3, r0
 80005b6:	2b00      	cmp	r3, #0
 80005b8:	d001      	beq.n	80005be <SystemClock_Config+0xce>
  {
    Error_Handler();
 80005ba:	f000 f9d9 	bl	8000970 <Error_Handler>
  }
  PeriphClkInitStruct.PeriphClockSelection = RCC_PERIPHCLK_I2S;
 80005be:	2301      	movs	r3, #1
 80005c0:	60fb      	str	r3, [r7, #12]
  PeriphClkInitStruct.PLLI2S.PLLI2SN = 50;
 80005c2:	2332      	movs	r3, #50	; 0x32
 80005c4:	613b      	str	r3, [r7, #16]
  PeriphClkInitStruct.PLLI2S.PLLI2SR = 2;
 80005c6:	2302      	movs	r3, #2
 80005c8:	617b      	str	r3, [r7, #20]
  if (HAL_RCCEx_PeriphCLKConfig(&PeriphClkInitStruct) != HAL_OK)
 80005ca:	f107 030c 	add.w	r3, r7, #12
 80005ce:	4618      	mov	r0, r3
 80005d0:	f003 fe72 	bl	80042b8 <HAL_RCCEx_PeriphCLKConfig>
 80005d4:	4603      	mov	r3, r0
 80005d6:	2b00      	cmp	r3, #0
 80005d8:	d001      	beq.n	80005de <SystemClock_Config+0xee>
  {
    Error_Handler();
 80005da:	f000 f9c9 	bl	8000970 <Error_Handler>
  }
  HAL_RCC_MCOConfig(RCC_MCO1, RCC_MCO1SOURCE_PLLCLK, RCC_MCODIV_1);
 80005de:	2200      	movs	r2, #0
 80005e0:	f44f 01c0 	mov.w	r1, #6291456	; 0x600000
 80005e4:	2000      	movs	r0, #0
 80005e6:	f003 fd07 	bl	8003ff8 <HAL_RCC_MCOConfig>
  HAL_RCC_MCOConfig(RCC_MCO2, RCC_MCO2SOURCE_PLLCLK, RCC_MCODIV_1);
 80005ea:	2200      	movs	r2, #0
 80005ec:	f04f 4140 	mov.w	r1, #3221225472	; 0xc0000000
 80005f0:	2001      	movs	r0, #1
 80005f2:	f003 fd01 	bl	8003ff8 <HAL_RCC_MCOConfig>
}
 80005f6:	bf00      	nop
 80005f8:	3760      	adds	r7, #96	; 0x60
 80005fa:	46bd      	mov	sp, r7
 80005fc:	bd80      	pop	{r7, pc}
 80005fe:	bf00      	nop
 8000600:	40023800 	.word	0x40023800
 8000604:	40007000 	.word	0x40007000

08000608 <MX_I2C1_Init>:
  * @brief I2C1 Initialization Function
  * @param None
  * @retval None
  */
static void MX_I2C1_Init(void)
{
 8000608:	b580      	push	{r7, lr}
 800060a:	af00      	add	r7, sp, #0
  /* USER CODE END I2C1_Init 0 */

  /* USER CODE BEGIN I2C1_Init 1 */

  /* USER CODE END I2C1_Init 1 */
  hi2c1.Instance = I2C1;
 800060c:	4b12      	ldr	r3, [pc, #72]	; (8000658 <MX_I2C1_Init+0x50>)
 800060e:	4a13      	ldr	r2, [pc, #76]	; (800065c <MX_I2C1_Init+0x54>)
 8000610:	601a      	str	r2, [r3, #0]
  hi2c1.Init.ClockSpeed = 100000;
 8000612:	4b11      	ldr	r3, [pc, #68]	; (8000658 <MX_I2C1_Init+0x50>)
 8000614:	4a12      	ldr	r2, [pc, #72]	; (8000660 <MX_I2C1_Init+0x58>)
 8000616:	605a      	str	r2, [r3, #4]
  hi2c1.Init.DutyCycle = I2C_DUTYCYCLE_2;
 8000618:	4b0f      	ldr	r3, [pc, #60]	; (8000658 <MX_I2C1_Init+0x50>)
 800061a:	2200      	movs	r2, #0
 800061c:	609a      	str	r2, [r3, #8]
  hi2c1.Init.OwnAddress1 = 0;
 800061e:	4b0e      	ldr	r3, [pc, #56]	; (8000658 <MX_I2C1_Init+0x50>)
 8000620:	2200      	movs	r2, #0
 8000622:	60da      	str	r2, [r3, #12]
  hi2c1.Init.AddressingMode = I2C_ADDRESSINGMODE_7BIT;
 8000624:	4b0c      	ldr	r3, [pc, #48]	; (8000658 <MX_I2C1_Init+0x50>)
 8000626:	f44f 4280 	mov.w	r2, #16384	; 0x4000
 800062a:	611a      	str	r2, [r3, #16]
  hi2c1.Init.DualAddressMode = I2C_DUALADDRESS_DISABLE;
 800062c:	4b0a      	ldr	r3, [pc, #40]	; (8000658 <MX_I2C1_Init+0x50>)
 800062e:	2200      	movs	r2, #0
 8000630:	615a      	str	r2, [r3, #20]
  hi2c1.Init.OwnAddress2 = 0;
 8000632:	4b09      	ldr	r3, [pc, #36]	; (8000658 <MX_I2C1_Init+0x50>)
 8000634:	2200      	movs	r2, #0
 8000636:	619a      	str	r2, [r3, #24]
  hi2c1.Init.GeneralCallMode = I2C_GENERALCALL_DISABLE;
 8000638:	4b07      	ldr	r3, [pc, #28]	; (8000658 <MX_I2C1_Init+0x50>)
 800063a:	2200      	movs	r2, #0
 800063c:	61da      	str	r2, [r3, #28]
  hi2c1.Init.NoStretchMode = I2C_NOSTRETCH_DISABLE;
 800063e:	4b06      	ldr	r3, [pc, #24]	; (8000658 <MX_I2C1_Init+0x50>)
 8000640:	2200      	movs	r2, #0
 8000642:	621a      	str	r2, [r3, #32]
  if (HAL_I2C_Init(&hi2c1) != HAL_OK)
 8000644:	4804      	ldr	r0, [pc, #16]	; (8000658 <MX_I2C1_Init+0x50>)
 8000646:	f002 fba9 	bl	8002d9c <HAL_I2C_Init>
 800064a:	4603      	mov	r3, r0
 800064c:	2b00      	cmp	r3, #0
 800064e:	d001      	beq.n	8000654 <MX_I2C1_Init+0x4c>
  {
    Error_Handler();
 8000650:	f000 f98e 	bl	8000970 <Error_Handler>
  }
  /* USER CODE BEGIN I2C1_Init 2 */

  /* USER CODE END I2C1_Init 2 */

}
 8000654:	bf00      	nop
 8000656:	bd80      	pop	{r7, pc}
 8000658:	200000c0 	.word	0x200000c0
 800065c:	40005400 	.word	0x40005400
 8000660:	000186a0 	.word	0x000186a0

08000664 <MX_I2S3_Init>:
  * @brief I2S3 Initialization Function
  * @param None
  * @retval None
  */
static void MX_I2S3_Init(void)
{
 8000664:	b580      	push	{r7, lr}
 8000666:	af00      	add	r7, sp, #0
  /* USER CODE END I2S3_Init 0 */

  /* USER CODE BEGIN I2S3_Init 1 */

  /* USER CODE END I2S3_Init 1 */
  hi2s3.Instance = SPI3;
 8000668:	4b13      	ldr	r3, [pc, #76]	; (80006b8 <MX_I2S3_Init+0x54>)
 800066a:	4a14      	ldr	r2, [pc, #80]	; (80006bc <MX_I2S3_Init+0x58>)
 800066c:	601a      	str	r2, [r3, #0]
  hi2s3.Init.Mode = I2S_MODE_MASTER_TX;
 800066e:	4b12      	ldr	r3, [pc, #72]	; (80006b8 <MX_I2S3_Init+0x54>)
 8000670:	f44f 7200 	mov.w	r2, #512	; 0x200
 8000674:	605a      	str	r2, [r3, #4]
  hi2s3.Init.Standard = I2S_STANDARD_PHILIPS;
 8000676:	4b10      	ldr	r3, [pc, #64]	; (80006b8 <MX_I2S3_Init+0x54>)
 8000678:	2200      	movs	r2, #0
 800067a:	609a      	str	r2, [r3, #8]
  hi2s3.Init.DataFormat = I2S_DATAFORMAT_16B;
 800067c:	4b0e      	ldr	r3, [pc, #56]	; (80006b8 <MX_I2S3_Init+0x54>)
 800067e:	2200      	movs	r2, #0
 8000680:	60da      	str	r2, [r3, #12]
  hi2s3.Init.MCLKOutput = I2S_MCLKOUTPUT_ENABLE;
 8000682:	4b0d      	ldr	r3, [pc, #52]	; (80006b8 <MX_I2S3_Init+0x54>)
 8000684:	f44f 7200 	mov.w	r2, #512	; 0x200
 8000688:	611a      	str	r2, [r3, #16]
  hi2s3.Init.AudioFreq = I2S_AUDIOFREQ_96K;
 800068a:	4b0b      	ldr	r3, [pc, #44]	; (80006b8 <MX_I2S3_Init+0x54>)
 800068c:	4a0c      	ldr	r2, [pc, #48]	; (80006c0 <MX_I2S3_Init+0x5c>)
 800068e:	615a      	str	r2, [r3, #20]
  hi2s3.Init.CPOL = I2S_CPOL_LOW;
 8000690:	4b09      	ldr	r3, [pc, #36]	; (80006b8 <MX_I2S3_Init+0x54>)
 8000692:	2200      	movs	r2, #0
 8000694:	619a      	str	r2, [r3, #24]
  hi2s3.Init.ClockSource = I2S_CLOCK_PLL;
 8000696:	4b08      	ldr	r3, [pc, #32]	; (80006b8 <MX_I2S3_Init+0x54>)
 8000698:	2200      	movs	r2, #0
 800069a:	61da      	str	r2, [r3, #28]
  hi2s3.Init.FullDuplexMode = I2S_FULLDUPLEXMODE_DISABLE;
 800069c:	4b06      	ldr	r3, [pc, #24]	; (80006b8 <MX_I2S3_Init+0x54>)
 800069e:	2200      	movs	r2, #0
 80006a0:	621a      	str	r2, [r3, #32]
  if (HAL_I2S_Init(&hi2s3) != HAL_OK)
 80006a2:	4805      	ldr	r0, [pc, #20]	; (80006b8 <MX_I2S3_Init+0x54>)
 80006a4:	f002 fcb2 	bl	800300c <HAL_I2S_Init>
 80006a8:	4603      	mov	r3, r0
 80006aa:	2b00      	cmp	r3, #0
 80006ac:	d001      	beq.n	80006b2 <MX_I2S3_Init+0x4e>
  {
    Error_Handler();
 80006ae:	f000 f95f 	bl	8000970 <Error_Handler>
  }
  /* USER CODE BEGIN I2S3_Init 2 */

  /* USER CODE END I2S3_Init 2 */

}
 80006b2:	bf00      	nop
 80006b4:	bd80      	pop	{r7, pc}
 80006b6:	bf00      	nop
 80006b8:	2000016c 	.word	0x2000016c
 80006bc:	40003c00 	.word	0x40003c00
 80006c0:	00017700 	.word	0x00017700

080006c4 <MX_SPI1_Init>:
  * @brief SPI1 Initialization Function
  * @param None
  * @retval None
  */
static void MX_SPI1_Init(void)
{
 80006c4:	b580      	push	{r7, lr}
 80006c6:	af00      	add	r7, sp, #0

  /* USER CODE BEGIN SPI1_Init 1 */

  /* USER CODE END SPI1_Init 1 */
  /* SPI1 parameter configuration*/
  hspi1.Instance = SPI1;
 80006c8:	4b17      	ldr	r3, [pc, #92]	; (8000728 <MX_SPI1_Init+0x64>)
 80006ca:	4a18      	ldr	r2, [pc, #96]	; (800072c <MX_SPI1_Init+0x68>)
 80006cc:	601a      	str	r2, [r3, #0]
  hspi1.Init.Mode = SPI_MODE_MASTER;
 80006ce:	4b16      	ldr	r3, [pc, #88]	; (8000728 <MX_SPI1_Init+0x64>)
 80006d0:	f44f 7282 	mov.w	r2, #260	; 0x104
 80006d4:	605a      	str	r2, [r3, #4]
  hspi1.Init.Direction = SPI_DIRECTION_2LINES;
 80006d6:	4b14      	ldr	r3, [pc, #80]	; (8000728 <MX_SPI1_Init+0x64>)
 80006d8:	2200      	movs	r2, #0
 80006da:	609a      	str	r2, [r3, #8]
  hspi1.Init.DataSize = SPI_DATASIZE_8BIT;
 80006dc:	4b12      	ldr	r3, [pc, #72]	; (8000728 <MX_SPI1_Init+0x64>)
 80006de:	2200      	movs	r2, #0
 80006e0:	60da      	str	r2, [r3, #12]
  hspi1.Init.CLKPolarity = SPI_POLARITY_LOW;
 80006e2:	4b11      	ldr	r3, [pc, #68]	; (8000728 <MX_SPI1_Init+0x64>)
 80006e4:	2200      	movs	r2, #0
 80006e6:	611a      	str	r2, [r3, #16]
  hspi1.Init.CLKPhase = SPI_PHASE_1EDGE;
 80006e8:	4b0f      	ldr	r3, [pc, #60]	; (8000728 <MX_SPI1_Init+0x64>)
 80006ea:	2200      	movs	r2, #0
 80006ec:	615a      	str	r2, [r3, #20]
  hspi1.Init.NSS = SPI_NSS_SOFT;
 80006ee:	4b0e      	ldr	r3, [pc, #56]	; (8000728 <MX_SPI1_Init+0x64>)
 80006f0:	f44f 7200 	mov.w	r2, #512	; 0x200
 80006f4:	619a      	str	r2, [r3, #24]
  hspi1.Init.BaudRatePrescaler = SPI_BAUDRATEPRESCALER_2;
 80006f6:	4b0c      	ldr	r3, [pc, #48]	; (8000728 <MX_SPI1_Init+0x64>)
 80006f8:	2200      	movs	r2, #0
 80006fa:	61da      	str	r2, [r3, #28]
  hspi1.Init.FirstBit = SPI_FIRSTBIT_MSB;
 80006fc:	4b0a      	ldr	r3, [pc, #40]	; (8000728 <MX_SPI1_Init+0x64>)
 80006fe:	2200      	movs	r2, #0
 8000700:	621a      	str	r2, [r3, #32]
  hspi1.Init.TIMode = SPI_TIMODE_DISABLE;
 8000702:	4b09      	ldr	r3, [pc, #36]	; (8000728 <MX_SPI1_Init+0x64>)
 8000704:	2200      	movs	r2, #0
 8000706:	625a      	str	r2, [r3, #36]	; 0x24
  hspi1.Init.CRCCalculation = SPI_CRCCALCULATION_DISABLE;
 8000708:	4b07      	ldr	r3, [pc, #28]	; (8000728 <MX_SPI1_Init+0x64>)
 800070a:	2200      	movs	r2, #0
 800070c:	629a      	str	r2, [r3, #40]	; 0x28
  hspi1.Init.CRCPolynomial = 10;
 800070e:	4b06      	ldr	r3, [pc, #24]	; (8000728 <MX_SPI1_Init+0x64>)
 8000710:	220a      	movs	r2, #10
 8000712:	62da      	str	r2, [r3, #44]	; 0x2c
  if (HAL_SPI_Init(&hspi1) != HAL_OK)
 8000714:	4804      	ldr	r0, [pc, #16]	; (8000728 <MX_SPI1_Init+0x64>)
 8000716:	f003 ff0d 	bl	8004534 <HAL_SPI_Init>
 800071a:	4603      	mov	r3, r0
 800071c:	2b00      	cmp	r3, #0
 800071e:	d001      	beq.n	8000724 <MX_SPI1_Init+0x60>
  {
    Error_Handler();
 8000720:	f000 f926 	bl	8000970 <Error_Handler>
  }
  /* USER CODE BEGIN SPI1_Init 2 */

  /* USER CODE END SPI1_Init 2 */

}
 8000724:	bf00      	nop
 8000726:	bd80      	pop	{r7, pc}
 8000728:	20000114 	.word	0x20000114
 800072c:	40013000 	.word	0x40013000

08000730 <MX_GPIO_Init>:
  * @brief GPIO Initialization Function
  * @param None
  * @retval None
  */
static void MX_GPIO_Init(void)
{
 8000730:	b580      	push	{r7, lr}
 8000732:	b08c      	sub	sp, #48	; 0x30
 8000734:	af00      	add	r7, sp, #0
  GPIO_InitTypeDef GPIO_InitStruct = {0};
 8000736:	f107 031c 	add.w	r3, r7, #28
 800073a:	2200      	movs	r2, #0
 800073c:	601a      	str	r2, [r3, #0]
 800073e:	605a      	str	r2, [r3, #4]
 8000740:	609a      	str	r2, [r3, #8]
 8000742:	60da      	str	r2, [r3, #12]
 8000744:	611a      	str	r2, [r3, #16]

  /* GPIO Ports Clock Enable */
  __HAL_RCC_GPIOE_CLK_ENABLE();
 8000746:	2300      	movs	r3, #0
 8000748:	61bb      	str	r3, [r7, #24]
 800074a:	4b82      	ldr	r3, [pc, #520]	; (8000954 <MX_GPIO_Init+0x224>)
 800074c:	6b1b      	ldr	r3, [r3, #48]	; 0x30
 800074e:	4a81      	ldr	r2, [pc, #516]	; (8000954 <MX_GPIO_Init+0x224>)
 8000750:	f043 0310 	orr.w	r3, r3, #16
 8000754:	6313      	str	r3, [r2, #48]	; 0x30
 8000756:	4b7f      	ldr	r3, [pc, #508]	; (8000954 <MX_GPIO_Init+0x224>)
 8000758:	6b1b      	ldr	r3, [r3, #48]	; 0x30
 800075a:	f003 0310 	and.w	r3, r3, #16
 800075e:	61bb      	str	r3, [r7, #24]
 8000760:	69bb      	ldr	r3, [r7, #24]
  __HAL_RCC_GPIOC_CLK_ENABLE();
 8000762:	2300      	movs	r3, #0
 8000764:	617b      	str	r3, [r7, #20]
 8000766:	4b7b      	ldr	r3, [pc, #492]	; (8000954 <MX_GPIO_Init+0x224>)
 8000768:	6b1b      	ldr	r3, [r3, #48]	; 0x30
 800076a:	4a7a      	ldr	r2, [pc, #488]	; (8000954 <MX_GPIO_Init+0x224>)
 800076c:	f043 0304 	orr.w	r3, r3, #4
 8000770:	6313      	str	r3, [r2, #48]	; 0x30
 8000772:	4b78      	ldr	r3, [pc, #480]	; (8000954 <MX_GPIO_Init+0x224>)
 8000774:	6b1b      	ldr	r3, [r3, #48]	; 0x30
 8000776:	f003 0304 	and.w	r3, r3, #4
 800077a:	617b      	str	r3, [r7, #20]
 800077c:	697b      	ldr	r3, [r7, #20]
  __HAL_RCC_GPIOH_CLK_ENABLE();
 800077e:	2300      	movs	r3, #0
 8000780:	613b      	str	r3, [r7, #16]
 8000782:	4b74      	ldr	r3, [pc, #464]	; (8000954 <MX_GPIO_Init+0x224>)
 8000784:	6b1b      	ldr	r3, [r3, #48]	; 0x30
 8000786:	4a73      	ldr	r2, [pc, #460]	; (8000954 <MX_GPIO_Init+0x224>)
 8000788:	f043 0380 	orr.w	r3, r3, #128	; 0x80
 800078c:	6313      	str	r3, [r2, #48]	; 0x30
 800078e:	4b71      	ldr	r3, [pc, #452]	; (8000954 <MX_GPIO_Init+0x224>)
 8000790:	6b1b      	ldr	r3, [r3, #48]	; 0x30
 8000792:	f003 0380 	and.w	r3, r3, #128	; 0x80
 8000796:	613b      	str	r3, [r7, #16]
 8000798:	693b      	ldr	r3, [r7, #16]
  __HAL_RCC_GPIOA_CLK_ENABLE();
 800079a:	2300      	movs	r3, #0
 800079c:	60fb      	str	r3, [r7, #12]
 800079e:	4b6d      	ldr	r3, [pc, #436]	; (8000954 <MX_GPIO_Init+0x224>)
 80007a0:	6b1b      	ldr	r3, [r3, #48]	; 0x30
 80007a2:	4a6c      	ldr	r2, [pc, #432]	; (8000954 <MX_GPIO_Init+0x224>)
 80007a4:	f043 0301 	orr.w	r3, r3, #1
 80007a8:	6313      	str	r3, [r2, #48]	; 0x30
 80007aa:	4b6a      	ldr	r3, [pc, #424]	; (8000954 <MX_GPIO_Init+0x224>)
 80007ac:	6b1b      	ldr	r3, [r3, #48]	; 0x30
 80007ae:	f003 0301 	and.w	r3, r3, #1
 80007b2:	60fb      	str	r3, [r7, #12]
 80007b4:	68fb      	ldr	r3, [r7, #12]
  __HAL_RCC_GPIOB_CLK_ENABLE();
 80007b6:	2300      	movs	r3, #0
 80007b8:	60bb      	str	r3, [r7, #8]
 80007ba:	4b66      	ldr	r3, [pc, #408]	; (8000954 <MX_GPIO_Init+0x224>)
 80007bc:	6b1b      	ldr	r3, [r3, #48]	; 0x30
 80007be:	4a65      	ldr	r2, [pc, #404]	; (8000954 <MX_GPIO_Init+0x224>)
 80007c0:	f043 0302 	orr.w	r3, r3, #2
 80007c4:	6313      	str	r3, [r2, #48]	; 0x30
 80007c6:	4b63      	ldr	r3, [pc, #396]	; (8000954 <MX_GPIO_Init+0x224>)
 80007c8:	6b1b      	ldr	r3, [r3, #48]	; 0x30
 80007ca:	f003 0302 	and.w	r3, r3, #2
 80007ce:	60bb      	str	r3, [r7, #8]
 80007d0:	68bb      	ldr	r3, [r7, #8]
  __HAL_RCC_GPIOD_CLK_ENABLE();
 80007d2:	2300      	movs	r3, #0
 80007d4:	607b      	str	r3, [r7, #4]
 80007d6:	4b5f      	ldr	r3, [pc, #380]	; (8000954 <MX_GPIO_Init+0x224>)
 80007d8:	6b1b      	ldr	r3, [r3, #48]	; 0x30
 80007da:	4a5e      	ldr	r2, [pc, #376]	; (8000954 <MX_GPIO_Init+0x224>)
 80007dc:	f043 0308 	orr.w	r3, r3, #8
 80007e0:	6313      	str	r3, [r2, #48]	; 0x30
 80007e2:	4b5c      	ldr	r3, [pc, #368]	; (8000954 <MX_GPIO_Init+0x224>)
 80007e4:	6b1b      	ldr	r3, [r3, #48]	; 0x30
 80007e6:	f003 0308 	and.w	r3, r3, #8
 80007ea:	607b      	str	r3, [r7, #4]
 80007ec:	687b      	ldr	r3, [r7, #4]

  /*Configure GPIO pin Output Level */
  HAL_GPIO_WritePin(CS_I2C_SPI_GPIO_Port, CS_I2C_SPI_Pin, GPIO_PIN_RESET);
 80007ee:	2200      	movs	r2, #0
 80007f0:	2108      	movs	r1, #8
 80007f2:	4859      	ldr	r0, [pc, #356]	; (8000958 <MX_GPIO_Init+0x228>)
 80007f4:	f000 fdc8 	bl	8001388 <HAL_GPIO_WritePin>

  /*Configure GPIO pin Output Level */
  HAL_GPIO_WritePin(OTG_FS_PowerSwitchOn_GPIO_Port, OTG_FS_PowerSwitchOn_Pin, GPIO_PIN_SET);
 80007f8:	2201      	movs	r2, #1
 80007fa:	2101      	movs	r1, #1
 80007fc:	4857      	ldr	r0, [pc, #348]	; (800095c <MX_GPIO_Init+0x22c>)
 80007fe:	f000 fdc3 	bl	8001388 <HAL_GPIO_WritePin>

  /*Configure GPIO pin Output Level */
  HAL_GPIO_WritePin(GPIOD, LD4_Pin|LD3_Pin|LD5_Pin|LD6_Pin 
 8000802:	2200      	movs	r2, #0
 8000804:	f24f 0110 	movw	r1, #61456	; 0xf010
 8000808:	4855      	ldr	r0, [pc, #340]	; (8000960 <MX_GPIO_Init+0x230>)
 800080a:	f000 fdbd 	bl	8001388 <HAL_GPIO_WritePin>
                          |Audio_RST_Pin, GPIO_PIN_RESET);

  /*Configure GPIO pin : CS_I2C_SPI_Pin */
  GPIO_InitStruct.Pin = CS_I2C_SPI_Pin;
 800080e:	2308      	movs	r3, #8
 8000810:	61fb      	str	r3, [r7, #28]
  GPIO_InitStruct.Mode = GPIO_MODE_OUTPUT_PP;
 8000812:	2301      	movs	r3, #1
 8000814:	623b      	str	r3, [r7, #32]
  GPIO_InitStruct.Pull = GPIO_NOPULL;
 8000816:	2300      	movs	r3, #0
 8000818:	627b      	str	r3, [r7, #36]	; 0x24
  GPIO_InitStruct.Speed = GPIO_SPEED_FREQ_LOW;
 800081a:	2300      	movs	r3, #0
 800081c:	62bb      	str	r3, [r7, #40]	; 0x28
  HAL_GPIO_Init(CS_I2C_SPI_GPIO_Port, &GPIO_InitStruct);
 800081e:	f107 031c 	add.w	r3, r7, #28
 8000822:	4619      	mov	r1, r3
 8000824:	484c      	ldr	r0, [pc, #304]	; (8000958 <MX_GPIO_Init+0x228>)
 8000826:	f000 fc15 	bl	8001054 <HAL_GPIO_Init>

  /*Configure GPIO pin : OTG_FS_PowerSwitchOn_Pin */
  GPIO_InitStruct.Pin = OTG_FS_PowerSwitchOn_Pin;
 800082a:	2301      	movs	r3, #1
 800082c:	61fb      	str	r3, [r7, #28]
  GPIO_InitStruct.Mode = GPIO_MODE_OUTPUT_PP;
 800082e:	2301      	movs	r3, #1
 8000830:	623b      	str	r3, [r7, #32]
  GPIO_InitStruct.Pull = GPIO_NOPULL;
 8000832:	2300      	movs	r3, #0
 8000834:	627b      	str	r3, [r7, #36]	; 0x24
  GPIO_InitStruct.Speed = GPIO_SPEED_FREQ_LOW;
 8000836:	2300      	movs	r3, #0
 8000838:	62bb      	str	r3, [r7, #40]	; 0x28
  HAL_GPIO_Init(OTG_FS_PowerSwitchOn_GPIO_Port, &GPIO_InitStruct);
 800083a:	f107 031c 	add.w	r3, r7, #28
 800083e:	4619      	mov	r1, r3
 8000840:	4846      	ldr	r0, [pc, #280]	; (800095c <MX_GPIO_Init+0x22c>)
 8000842:	f000 fc07 	bl	8001054 <HAL_GPIO_Init>

  /*Configure GPIO pin : PDM_OUT_Pin */
  GPIO_InitStruct.Pin = PDM_OUT_Pin;
 8000846:	2308      	movs	r3, #8
 8000848:	61fb      	str	r3, [r7, #28]
  GPIO_InitStruct.Mode = GPIO_MODE_AF_PP;
 800084a:	2302      	movs	r3, #2
 800084c:	623b      	str	r3, [r7, #32]
  GPIO_InitStruct.Pull = GPIO_NOPULL;
 800084e:	2300      	movs	r3, #0
 8000850:	627b      	str	r3, [r7, #36]	; 0x24
  GPIO_InitStruct.Speed = GPIO_SPEED_FREQ_LOW;
 8000852:	2300      	movs	r3, #0
 8000854:	62bb      	str	r3, [r7, #40]	; 0x28
  GPIO_InitStruct.Alternate = GPIO_AF5_SPI2;
 8000856:	2305      	movs	r3, #5
 8000858:	62fb      	str	r3, [r7, #44]	; 0x2c
  HAL_GPIO_Init(PDM_OUT_GPIO_Port, &GPIO_InitStruct);
 800085a:	f107 031c 	add.w	r3, r7, #28
 800085e:	4619      	mov	r1, r3
 8000860:	483e      	ldr	r0, [pc, #248]	; (800095c <MX_GPIO_Init+0x22c>)
 8000862:	f000 fbf7 	bl	8001054 <HAL_GPIO_Init>

  /*Configure GPIO pin : B1_Pin */
  GPIO_InitStruct.Pin = B1_Pin;
 8000866:	2301      	movs	r3, #1
 8000868:	61fb      	str	r3, [r7, #28]
  GPIO_InitStruct.Mode = GPIO_MODE_EVT_RISING;
 800086a:	4b3e      	ldr	r3, [pc, #248]	; (8000964 <MX_GPIO_Init+0x234>)
 800086c:	623b      	str	r3, [r7, #32]
  GPIO_InitStruct.Pull = GPIO_NOPULL;
 800086e:	2300      	movs	r3, #0
 8000870:	627b      	str	r3, [r7, #36]	; 0x24
  HAL_GPIO_Init(B1_GPIO_Port, &GPIO_InitStruct);
 8000872:	f107 031c 	add.w	r3, r7, #28
 8000876:	4619      	mov	r1, r3
 8000878:	483b      	ldr	r0, [pc, #236]	; (8000968 <MX_GPIO_Init+0x238>)
 800087a:	f000 fbeb 	bl	8001054 <HAL_GPIO_Init>

  /*Configure GPIO pin : BOOT1_Pin */
  GPIO_InitStruct.Pin = BOOT1_Pin;
 800087e:	2304      	movs	r3, #4
 8000880:	61fb      	str	r3, [r7, #28]
  GPIO_InitStruct.Mode = GPIO_MODE_INPUT;
 8000882:	2300      	movs	r3, #0
 8000884:	623b      	str	r3, [r7, #32]
  GPIO_InitStruct.Pull = GPIO_NOPULL;
 8000886:	2300      	movs	r3, #0
 8000888:	627b      	str	r3, [r7, #36]	; 0x24
  HAL_GPIO_Init(BOOT1_GPIO_Port, &GPIO_InitStruct);
 800088a:	f107 031c 	add.w	r3, r7, #28
 800088e:	4619      	mov	r1, r3
 8000890:	4836      	ldr	r0, [pc, #216]	; (800096c <MX_GPIO_Init+0x23c>)
 8000892:	f000 fbdf 	bl	8001054 <HAL_GPIO_Init>

  /*Configure GPIO pin : CLK_IN_Pin */
  GPIO_InitStruct.Pin = CLK_IN_Pin;
 8000896:	f44f 6380 	mov.w	r3, #1024	; 0x400
 800089a:	61fb      	str	r3, [r7, #28]
  GPIO_InitStruct.Mode = GPIO_MODE_AF_PP;
 800089c:	2302      	movs	r3, #2
 800089e:	623b      	str	r3, [r7, #32]
  GPIO_InitStruct.Pull = GPIO_NOPULL;
 80008a0:	2300      	movs	r3, #0
 80008a2:	627b      	str	r3, [r7, #36]	; 0x24
  GPIO_InitStruct.Speed = GPIO_SPEED_FREQ_LOW;
 80008a4:	2300      	movs	r3, #0
 80008a6:	62bb      	str	r3, [r7, #40]	; 0x28
  GPIO_InitStruct.Alternate = GPIO_AF5_SPI2;
 80008a8:	2305      	movs	r3, #5
 80008aa:	62fb      	str	r3, [r7, #44]	; 0x2c
  HAL_GPIO_Init(CLK_IN_GPIO_Port, &GPIO_InitStruct);
 80008ac:	f107 031c 	add.w	r3, r7, #28
 80008b0:	4619      	mov	r1, r3
 80008b2:	482e      	ldr	r0, [pc, #184]	; (800096c <MX_GPIO_Init+0x23c>)
 80008b4:	f000 fbce 	bl	8001054 <HAL_GPIO_Init>

  /*Configure GPIO pins : LD4_Pin LD3_Pin LD5_Pin LD6_Pin 
                           Audio_RST_Pin */
  GPIO_InitStruct.Pin = LD4_Pin|LD3_Pin|LD5_Pin|LD6_Pin 
 80008b8:	f24f 0310 	movw	r3, #61456	; 0xf010
 80008bc:	61fb      	str	r3, [r7, #28]
                          |Audio_RST_Pin;
  GPIO_InitStruct.Mode = GPIO_MODE_OUTPUT_PP;
 80008be:	2301      	movs	r3, #1
 80008c0:	623b      	str	r3, [r7, #32]
  GPIO_InitStruct.Pull = GPIO_NOPULL;
 80008c2:	2300      	movs	r3, #0
 80008c4:	627b      	str	r3, [r7, #36]	; 0x24
  GPIO_InitStruct.Speed = GPIO_SPEED_FREQ_LOW;
 80008c6:	2300      	movs	r3, #0
 80008c8:	62bb      	str	r3, [r7, #40]	; 0x28
  HAL_GPIO_Init(GPIOD, &GPIO_InitStruct);
 80008ca:	f107 031c 	add.w	r3, r7, #28
 80008ce:	4619      	mov	r1, r3
 80008d0:	4823      	ldr	r0, [pc, #140]	; (8000960 <MX_GPIO_Init+0x230>)
 80008d2:	f000 fbbf 	bl	8001054 <HAL_GPIO_Init>

  /*Configure GPIO pin : PC9 */
  GPIO_InitStruct.Pin = GPIO_PIN_9;
 80008d6:	f44f 7300 	mov.w	r3, #512	; 0x200
 80008da:	61fb      	str	r3, [r7, #28]
  GPIO_InitStruct.Mode = GPIO_MODE_AF_PP;
 80008dc:	2302      	movs	r3, #2
 80008de:	623b      	str	r3, [r7, #32]
  GPIO_InitStruct.Pull = GPIO_NOPULL;
 80008e0:	2300      	movs	r3, #0
 80008e2:	627b      	str	r3, [r7, #36]	; 0x24
  GPIO_InitStruct.Speed = GPIO_SPEED_FREQ_LOW;
 80008e4:	2300      	movs	r3, #0
 80008e6:	62bb      	str	r3, [r7, #40]	; 0x28
  GPIO_InitStruct.Alternate = GPIO_AF0_MCO;
 80008e8:	2300      	movs	r3, #0
 80008ea:	62fb      	str	r3, [r7, #44]	; 0x2c
  HAL_GPIO_Init(GPIOC, &GPIO_InitStruct);
 80008ec:	f107 031c 	add.w	r3, r7, #28
 80008f0:	4619      	mov	r1, r3
 80008f2:	481a      	ldr	r0, [pc, #104]	; (800095c <MX_GPIO_Init+0x22c>)
 80008f4:	f000 fbae 	bl	8001054 <HAL_GPIO_Init>

  /*Configure GPIO pin : PA8 */
  GPIO_InitStruct.Pin = GPIO_PIN_8;
 80008f8:	f44f 7380 	mov.w	r3, #256	; 0x100
 80008fc:	61fb      	str	r3, [r7, #28]
  GPIO_InitStruct.Mode = GPIO_MODE_AF_PP;
 80008fe:	2302      	movs	r3, #2
 8000900:	623b      	str	r3, [r7, #32]
  GPIO_InitStruct.Pull = GPIO_NOPULL;
 8000902:	2300      	movs	r3, #0
 8000904:	627b      	str	r3, [r7, #36]	; 0x24
  GPIO_InitStruct.Speed = GPIO_SPEED_FREQ_LOW;
 8000906:	2300      	movs	r3, #0
 8000908:	62bb      	str	r3, [r7, #40]	; 0x28
  GPIO_InitStruct.Alternate = GPIO_AF0_MCO;
 800090a:	2300      	movs	r3, #0
 800090c:	62fb      	str	r3, [r7, #44]	; 0x2c
  HAL_GPIO_Init(GPIOA, &GPIO_InitStruct);
 800090e:	f107 031c 	add.w	r3, r7, #28
 8000912:	4619      	mov	r1, r3
 8000914:	4814      	ldr	r0, [pc, #80]	; (8000968 <MX_GPIO_Init+0x238>)
 8000916:	f000 fb9d 	bl	8001054 <HAL_GPIO_Init>

  /*Configure GPIO pin : OTG_FS_OverCurrent_Pin */
  GPIO_InitStruct.Pin = OTG_FS_OverCurrent_Pin;
 800091a:	2320      	movs	r3, #32
 800091c:	61fb      	str	r3, [r7, #28]
  GPIO_InitStruct.Mode = GPIO_MODE_INPUT;
 800091e:	2300      	movs	r3, #0
 8000920:	623b      	str	r3, [r7, #32]
  GPIO_InitStruct.Pull = GPIO_NOPULL;
 8000922:	2300      	movs	r3, #0
 8000924:	627b      	str	r3, [r7, #36]	; 0x24
  HAL_GPIO_Init(OTG_FS_OverCurrent_GPIO_Port, &GPIO_InitStruct);
 8000926:	f107 031c 	add.w	r3, r7, #28
 800092a:	4619      	mov	r1, r3
 800092c:	480c      	ldr	r0, [pc, #48]	; (8000960 <MX_GPIO_Init+0x230>)
 800092e:	f000 fb91 	bl	8001054 <HAL_GPIO_Init>

  /*Configure GPIO pin : MEMS_INT2_Pin */
  GPIO_InitStruct.Pin = MEMS_INT2_Pin;
 8000932:	2302      	movs	r3, #2
 8000934:	61fb      	str	r3, [r7, #28]
  GPIO_InitStruct.Mode = GPIO_MODE_EVT_RISING;
 8000936:	4b0b      	ldr	r3, [pc, #44]	; (8000964 <MX_GPIO_Init+0x234>)
 8000938:	623b      	str	r3, [r7, #32]
  GPIO_InitStruct.Pull = GPIO_NOPULL;
 800093a:	2300      	movs	r3, #0
 800093c:	627b      	str	r3, [r7, #36]	; 0x24
  HAL_GPIO_Init(MEMS_INT2_GPIO_Port, &GPIO_InitStruct);
 800093e:	f107 031c 	add.w	r3, r7, #28
 8000942:	4619      	mov	r1, r3
 8000944:	4804      	ldr	r0, [pc, #16]	; (8000958 <MX_GPIO_Init+0x228>)
 8000946:	f000 fb85 	bl	8001054 <HAL_GPIO_Init>

}
 800094a:	bf00      	nop
 800094c:	3730      	adds	r7, #48	; 0x30
 800094e:	46bd      	mov	sp, r7
 8000950:	bd80      	pop	{r7, pc}
 8000952:	bf00      	nop
 8000954:	40023800 	.word	0x40023800
 8000958:	40021000 	.word	0x40021000
 800095c:	40020800 	.word	0x40020800
 8000960:	40020c00 	.word	0x40020c00
 8000964:	10120000 	.word	0x10120000
 8000968:	40020000 	.word	0x40020000
 800096c:	40020400 	.word	0x40020400

08000970 <Error_Handler>:
/**
  * @brief  This function is executed in case of error occurrence.
  * @retval None
  */
void Error_Handler(void)
{
 8000970:	b480      	push	{r7}
 8000972:	af00      	add	r7, sp, #0
  /* USER CODE BEGIN Error_Handler_Debug */
  /* User can add his own implementation to report the HAL error return state */

  /* USER CODE END Error_Handler_Debug */
}
 8000974:	bf00      	nop
 8000976:	46bd      	mov	sp, r7
 8000978:	f85d 7b04 	ldr.w	r7, [sp], #4
 800097c:	4770      	bx	lr
	...

08000980 <HAL_MspInit>:
/* USER CODE END 0 */
/**
  * Initializes the Global MSP.
  */
void HAL_MspInit(void)
{
 8000980:	b580      	push	{r7, lr}
 8000982:	b082      	sub	sp, #8
 8000984:	af00      	add	r7, sp, #0
  /* USER CODE BEGIN MspInit 0 */

  /* USER CODE END MspInit 0 */

  __HAL_RCC_SYSCFG_CLK_ENABLE();
 8000986:	2300      	movs	r3, #0
 8000988:	607b      	str	r3, [r7, #4]
 800098a:	4b10      	ldr	r3, [pc, #64]	; (80009cc <HAL_MspInit+0x4c>)
 800098c:	6c5b      	ldr	r3, [r3, #68]	; 0x44
 800098e:	4a0f      	ldr	r2, [pc, #60]	; (80009cc <HAL_MspInit+0x4c>)
 8000990:	f443 4380 	orr.w	r3, r3, #16384	; 0x4000
 8000994:	6453      	str	r3, [r2, #68]	; 0x44
 8000996:	4b0d      	ldr	r3, [pc, #52]	; (80009cc <HAL_MspInit+0x4c>)
 8000998:	6c5b      	ldr	r3, [r3, #68]	; 0x44
 800099a:	f403 4380 	and.w	r3, r3, #16384	; 0x4000
 800099e:	607b      	str	r3, [r7, #4]
 80009a0:	687b      	ldr	r3, [r7, #4]
  __HAL_RCC_PWR_CLK_ENABLE();
 80009a2:	2300      	movs	r3, #0
 80009a4:	603b      	str	r3, [r7, #0]
 80009a6:	4b09      	ldr	r3, [pc, #36]	; (80009cc <HAL_MspInit+0x4c>)
 80009a8:	6c1b      	ldr	r3, [r3, #64]	; 0x40
 80009aa:	4a08      	ldr	r2, [pc, #32]	; (80009cc <HAL_MspInit+0x4c>)
 80009ac:	f043 5380 	orr.w	r3, r3, #268435456	; 0x10000000
 80009b0:	6413      	str	r3, [r2, #64]	; 0x40
 80009b2:	4b06      	ldr	r3, [pc, #24]	; (80009cc <HAL_MspInit+0x4c>)
 80009b4:	6c1b      	ldr	r3, [r3, #64]	; 0x40
 80009b6:	f003 5380 	and.w	r3, r3, #268435456	; 0x10000000
 80009ba:	603b      	str	r3, [r7, #0]
 80009bc:	683b      	ldr	r3, [r7, #0]

  HAL_NVIC_SetPriorityGrouping(NVIC_PRIORITYGROUP_0);
 80009be:	2007      	movs	r0, #7
 80009c0:	f000 fb06 	bl	8000fd0 <HAL_NVIC_SetPriorityGrouping>
  /* System interrupt init*/

  /* USER CODE BEGIN MspInit 1 */

  /* USER CODE END MspInit 1 */
}
 80009c4:	bf00      	nop
 80009c6:	3708      	adds	r7, #8
 80009c8:	46bd      	mov	sp, r7
 80009ca:	bd80      	pop	{r7, pc}
 80009cc:	40023800 	.word	0x40023800

080009d0 <HAL_I2C_MspInit>:
* This function configures the hardware resources used in this example
* @param hi2c: I2C handle pointer
* @retval None
*/
void HAL_I2C_MspInit(I2C_HandleTypeDef* hi2c)
{
 80009d0:	b580      	push	{r7, lr}
 80009d2:	b08a      	sub	sp, #40	; 0x28
 80009d4:	af00      	add	r7, sp, #0
 80009d6:	6078      	str	r0, [r7, #4]
  GPIO_InitTypeDef GPIO_InitStruct = {0};
 80009d8:	f107 0314 	add.w	r3, r7, #20
 80009dc:	2200      	movs	r2, #0
 80009de:	601a      	str	r2, [r3, #0]
 80009e0:	605a      	str	r2, [r3, #4]
 80009e2:	609a      	str	r2, [r3, #8]
 80009e4:	60da      	str	r2, [r3, #12]
 80009e6:	611a      	str	r2, [r3, #16]
  if(hi2c->Instance==I2C1)
 80009e8:	687b      	ldr	r3, [r7, #4]
 80009ea:	681b      	ldr	r3, [r3, #0]
 80009ec:	4a19      	ldr	r2, [pc, #100]	; (8000a54 <HAL_I2C_MspInit+0x84>)
 80009ee:	4293      	cmp	r3, r2
 80009f0:	d12c      	bne.n	8000a4c <HAL_I2C_MspInit+0x7c>
  {
  /* USER CODE BEGIN I2C1_MspInit 0 */

  /* USER CODE END I2C1_MspInit 0 */
  
    __HAL_RCC_GPIOB_CLK_ENABLE();
 80009f2:	2300      	movs	r3, #0
 80009f4:	613b      	str	r3, [r7, #16]
 80009f6:	4b18      	ldr	r3, [pc, #96]	; (8000a58 <HAL_I2C_MspInit+0x88>)
 80009f8:	6b1b      	ldr	r3, [r3, #48]	; 0x30
 80009fa:	4a17      	ldr	r2, [pc, #92]	; (8000a58 <HAL_I2C_MspInit+0x88>)
 80009fc:	f043 0302 	orr.w	r3, r3, #2
 8000a00:	6313      	str	r3, [r2, #48]	; 0x30
 8000a02:	4b15      	ldr	r3, [pc, #84]	; (8000a58 <HAL_I2C_MspInit+0x88>)
 8000a04:	6b1b      	ldr	r3, [r3, #48]	; 0x30
 8000a06:	f003 0302 	and.w	r3, r3, #2
 8000a0a:	613b      	str	r3, [r7, #16]
 8000a0c:	693b      	ldr	r3, [r7, #16]
    /**I2C1 GPIO Configuration    
    PB6     ------> I2C1_SCL
    PB9     ------> I2C1_SDA 
    */
    GPIO_InitStruct.Pin = Audio_SCL_Pin|Audio_SDA_Pin;
 8000a0e:	f44f 7310 	mov.w	r3, #576	; 0x240
 8000a12:	617b      	str	r3, [r7, #20]
    GPIO_InitStruct.Mode = GPIO_MODE_AF_OD;
 8000a14:	2312      	movs	r3, #18
 8000a16:	61bb      	str	r3, [r7, #24]
    GPIO_InitStruct.Pull = GPIO_PULLUP;
 8000a18:	2301      	movs	r3, #1
 8000a1a:	61fb      	str	r3, [r7, #28]
    GPIO_InitStruct.Speed = GPIO_SPEED_FREQ_LOW;
 8000a1c:	2300      	movs	r3, #0
 8000a1e:	623b      	str	r3, [r7, #32]
    GPIO_InitStruct.Alternate = GPIO_AF4_I2C1;
 8000a20:	2304      	movs	r3, #4
 8000a22:	627b      	str	r3, [r7, #36]	; 0x24
    HAL_GPIO_Init(GPIOB, &GPIO_InitStruct);
 8000a24:	f107 0314 	add.w	r3, r7, #20
 8000a28:	4619      	mov	r1, r3
 8000a2a:	480c      	ldr	r0, [pc, #48]	; (8000a5c <HAL_I2C_MspInit+0x8c>)
 8000a2c:	f000 fb12 	bl	8001054 <HAL_GPIO_Init>

    /* Peripheral clock enable */
    __HAL_RCC_I2C1_CLK_ENABLE();
 8000a30:	2300      	movs	r3, #0
 8000a32:	60fb      	str	r3, [r7, #12]
 8000a34:	4b08      	ldr	r3, [pc, #32]	; (8000a58 <HAL_I2C_MspInit+0x88>)
 8000a36:	6c1b      	ldr	r3, [r3, #64]	; 0x40
 8000a38:	4a07      	ldr	r2, [pc, #28]	; (8000a58 <HAL_I2C_MspInit+0x88>)
 8000a3a:	f443 1300 	orr.w	r3, r3, #2097152	; 0x200000
 8000a3e:	6413      	str	r3, [r2, #64]	; 0x40
 8000a40:	4b05      	ldr	r3, [pc, #20]	; (8000a58 <HAL_I2C_MspInit+0x88>)
 8000a42:	6c1b      	ldr	r3, [r3, #64]	; 0x40
 8000a44:	f403 1300 	and.w	r3, r3, #2097152	; 0x200000
 8000a48:	60fb      	str	r3, [r7, #12]
 8000a4a:	68fb      	ldr	r3, [r7, #12]
  /* USER CODE BEGIN I2C1_MspInit 1 */

  /* USER CODE END I2C1_MspInit 1 */
  }

}
 8000a4c:	bf00      	nop
 8000a4e:	3728      	adds	r7, #40	; 0x28
 8000a50:	46bd      	mov	sp, r7
 8000a52:	bd80      	pop	{r7, pc}
 8000a54:	40005400 	.word	0x40005400
 8000a58:	40023800 	.word	0x40023800
 8000a5c:	40020400 	.word	0x40020400

08000a60 <HAL_I2S_MspInit>:
* This function configures the hardware resources used in this example
* @param hi2s: I2S handle pointer
* @retval None
*/
void HAL_I2S_MspInit(I2S_HandleTypeDef* hi2s)
{
 8000a60:	b580      	push	{r7, lr}
 8000a62:	b08a      	sub	sp, #40	; 0x28
 8000a64:	af00      	add	r7, sp, #0
 8000a66:	6078      	str	r0, [r7, #4]
  GPIO_InitTypeDef GPIO_InitStruct = {0};
 8000a68:	f107 0314 	add.w	r3, r7, #20
 8000a6c:	2200      	movs	r2, #0
 8000a6e:	601a      	str	r2, [r3, #0]
 8000a70:	605a      	str	r2, [r3, #4]
 8000a72:	609a      	str	r2, [r3, #8]
 8000a74:	60da      	str	r2, [r3, #12]
 8000a76:	611a      	str	r2, [r3, #16]
  if(hi2s->Instance==SPI3)
 8000a78:	687b      	ldr	r3, [r7, #4]
 8000a7a:	681b      	ldr	r3, [r3, #0]
 8000a7c:	4a28      	ldr	r2, [pc, #160]	; (8000b20 <HAL_I2S_MspInit+0xc0>)
 8000a7e:	4293      	cmp	r3, r2
 8000a80:	d14a      	bne.n	8000b18 <HAL_I2S_MspInit+0xb8>
  {
  /* USER CODE BEGIN SPI3_MspInit 0 */

  /* USER CODE END SPI3_MspInit 0 */
    /* Peripheral clock enable */
    __HAL_RCC_SPI3_CLK_ENABLE();
 8000a82:	2300      	movs	r3, #0
 8000a84:	613b      	str	r3, [r7, #16]
 8000a86:	4b27      	ldr	r3, [pc, #156]	; (8000b24 <HAL_I2S_MspInit+0xc4>)
 8000a88:	6c1b      	ldr	r3, [r3, #64]	; 0x40
 8000a8a:	4a26      	ldr	r2, [pc, #152]	; (8000b24 <HAL_I2S_MspInit+0xc4>)
 8000a8c:	f443 4300 	orr.w	r3, r3, #32768	; 0x8000
 8000a90:	6413      	str	r3, [r2, #64]	; 0x40
 8000a92:	4b24      	ldr	r3, [pc, #144]	; (8000b24 <HAL_I2S_MspInit+0xc4>)
 8000a94:	6c1b      	ldr	r3, [r3, #64]	; 0x40
 8000a96:	f403 4300 	and.w	r3, r3, #32768	; 0x8000
 8000a9a:	613b      	str	r3, [r7, #16]
 8000a9c:	693b      	ldr	r3, [r7, #16]
  
    __HAL_RCC_GPIOA_CLK_ENABLE();
 8000a9e:	2300      	movs	r3, #0
 8000aa0:	60fb      	str	r3, [r7, #12]
 8000aa2:	4b20      	ldr	r3, [pc, #128]	; (8000b24 <HAL_I2S_MspInit+0xc4>)
 8000aa4:	6b1b      	ldr	r3, [r3, #48]	; 0x30
 8000aa6:	4a1f      	ldr	r2, [pc, #124]	; (8000b24 <HAL_I2S_MspInit+0xc4>)
 8000aa8:	f043 0301 	orr.w	r3, r3, #1
 8000aac:	6313      	str	r3, [r2, #48]	; 0x30
 8000aae:	4b1d      	ldr	r3, [pc, #116]	; (8000b24 <HAL_I2S_MspInit+0xc4>)
 8000ab0:	6b1b      	ldr	r3, [r3, #48]	; 0x30
 8000ab2:	f003 0301 	and.w	r3, r3, #1
 8000ab6:	60fb      	str	r3, [r7, #12]
 8000ab8:	68fb      	ldr	r3, [r7, #12]
    __HAL_RCC_GPIOC_CLK_ENABLE();
 8000aba:	2300      	movs	r3, #0
 8000abc:	60bb      	str	r3, [r7, #8]
 8000abe:	4b19      	ldr	r3, [pc, #100]	; (8000b24 <HAL_I2S_MspInit+0xc4>)
 8000ac0:	6b1b      	ldr	r3, [r3, #48]	; 0x30
 8000ac2:	4a18      	ldr	r2, [pc, #96]	; (8000b24 <HAL_I2S_MspInit+0xc4>)
 8000ac4:	f043 0304 	orr.w	r3, r3, #4
 8000ac8:	6313      	str	r3, [r2, #48]	; 0x30
 8000aca:	4b16      	ldr	r3, [pc, #88]	; (8000b24 <HAL_I2S_MspInit+0xc4>)
 8000acc:	6b1b      	ldr	r3, [r3, #48]	; 0x30
 8000ace:	f003 0304 	and.w	r3, r3, #4
 8000ad2:	60bb      	str	r3, [r7, #8]
 8000ad4:	68bb      	ldr	r3, [r7, #8]
    PA4     ------> I2S3_WS
    PC7     ------> I2S3_MCK
    PC10     ------> I2S3_CK
    PC12     ------> I2S3_SD 
    */
    GPIO_InitStruct.Pin = I2S3_WS_Pin;
 8000ad6:	2310      	movs	r3, #16
 8000ad8:	617b      	str	r3, [r7, #20]
    GPIO_InitStruct.Mode = GPIO_MODE_AF_PP;
 8000ada:	2302      	movs	r3, #2
 8000adc:	61bb      	str	r3, [r7, #24]
    GPIO_InitStruct.Pull = GPIO_NOPULL;
 8000ade:	2300      	movs	r3, #0
 8000ae0:	61fb      	str	r3, [r7, #28]
    GPIO_InitStruct.Speed = GPIO_SPEED_FREQ_LOW;
 8000ae2:	2300      	movs	r3, #0
 8000ae4:	623b      	str	r3, [r7, #32]
    GPIO_InitStruct.Alternate = GPIO_AF6_SPI3;
 8000ae6:	2306      	movs	r3, #6
 8000ae8:	627b      	str	r3, [r7, #36]	; 0x24
    HAL_GPIO_Init(I2S3_WS_GPIO_Port, &GPIO_InitStruct);
 8000aea:	f107 0314 	add.w	r3, r7, #20
 8000aee:	4619      	mov	r1, r3
 8000af0:	480d      	ldr	r0, [pc, #52]	; (8000b28 <HAL_I2S_MspInit+0xc8>)
 8000af2:	f000 faaf 	bl	8001054 <HAL_GPIO_Init>

    GPIO_InitStruct.Pin = I2S3_MCK_Pin|I2S3_SCK_Pin|I2S3_SD_Pin;
 8000af6:	f44f 53a4 	mov.w	r3, #5248	; 0x1480
 8000afa:	617b      	str	r3, [r7, #20]
    GPIO_InitStruct.Mode = GPIO_MODE_AF_PP;
 8000afc:	2302      	movs	r3, #2
 8000afe:	61bb      	str	r3, [r7, #24]
    GPIO_InitStruct.Pull = GPIO_NOPULL;
 8000b00:	2300      	movs	r3, #0
 8000b02:	61fb      	str	r3, [r7, #28]
    GPIO_InitStruct.Speed = GPIO_SPEED_FREQ_LOW;
 8000b04:	2300      	movs	r3, #0
 8000b06:	623b      	str	r3, [r7, #32]
    GPIO_InitStruct.Alternate = GPIO_AF6_SPI3;
 8000b08:	2306      	movs	r3, #6
 8000b0a:	627b      	str	r3, [r7, #36]	; 0x24
    HAL_GPIO_Init(GPIOC, &GPIO_InitStruct);
 8000b0c:	f107 0314 	add.w	r3, r7, #20
 8000b10:	4619      	mov	r1, r3
 8000b12:	4806      	ldr	r0, [pc, #24]	; (8000b2c <HAL_I2S_MspInit+0xcc>)
 8000b14:	f000 fa9e 	bl	8001054 <HAL_GPIO_Init>
  /* USER CODE BEGIN SPI3_MspInit 1 */

  /* USER CODE END SPI3_MspInit 1 */
  }

}
 8000b18:	bf00      	nop
 8000b1a:	3728      	adds	r7, #40	; 0x28
 8000b1c:	46bd      	mov	sp, r7
 8000b1e:	bd80      	pop	{r7, pc}
 8000b20:	40003c00 	.word	0x40003c00
 8000b24:	40023800 	.word	0x40023800
 8000b28:	40020000 	.word	0x40020000
 8000b2c:	40020800 	.word	0x40020800

08000b30 <HAL_SPI_MspInit>:
* This function configures the hardware resources used in this example
* @param hspi: SPI handle pointer
* @retval None
*/
void HAL_SPI_MspInit(SPI_HandleTypeDef* hspi)
{
 8000b30:	b580      	push	{r7, lr}
 8000b32:	b08a      	sub	sp, #40	; 0x28
 8000b34:	af00      	add	r7, sp, #0
 8000b36:	6078      	str	r0, [r7, #4]
  GPIO_InitTypeDef GPIO_InitStruct = {0};
 8000b38:	f107 0314 	add.w	r3, r7, #20
 8000b3c:	2200      	movs	r2, #0
 8000b3e:	601a      	str	r2, [r3, #0]
 8000b40:	605a      	str	r2, [r3, #4]
 8000b42:	609a      	str	r2, [r3, #8]
 8000b44:	60da      	str	r2, [r3, #12]
 8000b46:	611a      	str	r2, [r3, #16]
  if(hspi->Instance==SPI1)
 8000b48:	687b      	ldr	r3, [r7, #4]
 8000b4a:	681b      	ldr	r3, [r3, #0]
 8000b4c:	4a19      	ldr	r2, [pc, #100]	; (8000bb4 <HAL_SPI_MspInit+0x84>)
 8000b4e:	4293      	cmp	r3, r2
 8000b50:	d12b      	bne.n	8000baa <HAL_SPI_MspInit+0x7a>
  {
  /* USER CODE BEGIN SPI1_MspInit 0 */

  /* USER CODE END SPI1_MspInit 0 */
    /* Peripheral clock enable */
    __HAL_RCC_SPI1_CLK_ENABLE();
 8000b52:	2300      	movs	r3, #0
 8000b54:	613b      	str	r3, [r7, #16]
 8000b56:	4b18      	ldr	r3, [pc, #96]	; (8000bb8 <HAL_SPI_MspInit+0x88>)
 8000b58:	6c5b      	ldr	r3, [r3, #68]	; 0x44
 8000b5a:	4a17      	ldr	r2, [pc, #92]	; (8000bb8 <HAL_SPI_MspInit+0x88>)
 8000b5c:	f443 5380 	orr.w	r3, r3, #4096	; 0x1000
 8000b60:	6453      	str	r3, [r2, #68]	; 0x44
 8000b62:	4b15      	ldr	r3, [pc, #84]	; (8000bb8 <HAL_SPI_MspInit+0x88>)
 8000b64:	6c5b      	ldr	r3, [r3, #68]	; 0x44
 8000b66:	f403 5380 	and.w	r3, r3, #4096	; 0x1000
 8000b6a:	613b      	str	r3, [r7, #16]
 8000b6c:	693b      	ldr	r3, [r7, #16]
  
    __HAL_RCC_GPIOA_CLK_ENABLE();
 8000b6e:	2300      	movs	r3, #0
 8000b70:	60fb      	str	r3, [r7, #12]
 8000b72:	4b11      	ldr	r3, [pc, #68]	; (8000bb8 <HAL_SPI_MspInit+0x88>)
 8000b74:	6b1b      	ldr	r3, [r3, #48]	; 0x30
 8000b76:	4a10      	ldr	r2, [pc, #64]	; (8000bb8 <HAL_SPI_MspInit+0x88>)
 8000b78:	f043 0301 	orr.w	r3, r3, #1
 8000b7c:	6313      	str	r3, [r2, #48]	; 0x30
 8000b7e:	4b0e      	ldr	r3, [pc, #56]	; (8000bb8 <HAL_SPI_MspInit+0x88>)
 8000b80:	6b1b      	ldr	r3, [r3, #48]	; 0x30
 8000b82:	f003 0301 	and.w	r3, r3, #1
 8000b86:	60fb      	str	r3, [r7, #12]
 8000b88:	68fb      	ldr	r3, [r7, #12]
    /**SPI1 GPIO Configuration    
    PA5     ------> SPI1_SCK
    PA6     ------> SPI1_MISO
    PA7     ------> SPI1_MOSI 
    */
    GPIO_InitStruct.Pin = SPI1_SCK_Pin|SPI1_MISO_Pin|SPI1_MOSI_Pin;
 8000b8a:	23e0      	movs	r3, #224	; 0xe0
 8000b8c:	617b      	str	r3, [r7, #20]
    GPIO_InitStruct.Mode = GPIO_MODE_AF_PP;
 8000b8e:	2302      	movs	r3, #2
 8000b90:	61bb      	str	r3, [r7, #24]
    GPIO_InitStruct.Pull = GPIO_NOPULL;
 8000b92:	2300      	movs	r3, #0
 8000b94:	61fb      	str	r3, [r7, #28]
    GPIO_InitStruct.Speed = GPIO_SPEED_FREQ_LOW;
 8000b96:	2300      	movs	r3, #0
 8000b98:	623b      	str	r3, [r7, #32]
    GPIO_InitStruct.Alternate = GPIO_AF5_SPI1;
 8000b9a:	2305      	movs	r3, #5
 8000b9c:	627b      	str	r3, [r7, #36]	; 0x24
    HAL_GPIO_Init(GPIOA, &GPIO_InitStruct);
 8000b9e:	f107 0314 	add.w	r3, r7, #20
 8000ba2:	4619      	mov	r1, r3
 8000ba4:	4805      	ldr	r0, [pc, #20]	; (8000bbc <HAL_SPI_MspInit+0x8c>)
 8000ba6:	f000 fa55 	bl	8001054 <HAL_GPIO_Init>
  /* USER CODE BEGIN SPI1_MspInit 1 */

  /* USER CODE END SPI1_MspInit 1 */
  }

}
 8000baa:	bf00      	nop
 8000bac:	3728      	adds	r7, #40	; 0x28
 8000bae:	46bd      	mov	sp, r7
 8000bb0:	bd80      	pop	{r7, pc}
 8000bb2:	bf00      	nop
 8000bb4:	40013000 	.word	0x40013000
 8000bb8:	40023800 	.word	0x40023800
 8000bbc:	40020000 	.word	0x40020000

08000bc0 <NMI_Handler>:
/******************************************************************************/
/**
  * @brief This function handles Non maskable interrupt.
  */
void NMI_Handler(void)
{
 8000bc0:	b480      	push	{r7}
 8000bc2:	af00      	add	r7, sp, #0

  /* USER CODE END NonMaskableInt_IRQn 0 */
  /* USER CODE BEGIN NonMaskableInt_IRQn 1 */

  /* USER CODE END NonMaskableInt_IRQn 1 */
}
 8000bc4:	bf00      	nop
 8000bc6:	46bd      	mov	sp, r7
 8000bc8:	f85d 7b04 	ldr.w	r7, [sp], #4
 8000bcc:	4770      	bx	lr

08000bce <HardFault_Handler>:

/**
  * @brief This function handles Hard fault interrupt.
  */
void HardFault_Handler(void)
{
 8000bce:	b480      	push	{r7}
 8000bd0:	af00      	add	r7, sp, #0
  /* USER CODE BEGIN HardFault_IRQn 0 */

  /* USER CODE END HardFault_IRQn 0 */
  while (1)
 8000bd2:	e7fe      	b.n	8000bd2 <HardFault_Handler+0x4>

08000bd4 <MemManage_Handler>:

/**
  * @brief This function handles Memory management fault.
  */
void MemManage_Handler(void)
{
 8000bd4:	b480      	push	{r7}
 8000bd6:	af00      	add	r7, sp, #0
  /* USER CODE BEGIN MemoryManagement_IRQn 0 */

  /* USER CODE END MemoryManagement_IRQn 0 */
  while (1)
 8000bd8:	e7fe      	b.n	8000bd8 <MemManage_Handler+0x4>

08000bda <BusFault_Handler>:

/**
  * @brief This function handles Pre-fetch fault, memory access fault.
  */
void BusFault_Handler(void)
{
 8000bda:	b480      	push	{r7}
 8000bdc:	af00      	add	r7, sp, #0
  /* USER CODE BEGIN BusFault_IRQn 0 */

  /* USER CODE END BusFault_IRQn 0 */
  while (1)
 8000bde:	e7fe      	b.n	8000bde <BusFault_Handler+0x4>

08000be0 <UsageFault_Handler>:

/**
  * @brief This function handles Undefined instruction or illegal state.
  */
void UsageFault_Handler(void)
{
 8000be0:	b480      	push	{r7}
 8000be2:	af00      	add	r7, sp, #0
  /* USER CODE BEGIN UsageFault_IRQn 0 */

  /* USER CODE END UsageFault_IRQn 0 */
  while (1)
 8000be4:	e7fe      	b.n	8000be4 <UsageFault_Handler+0x4>

08000be6 <SVC_Handler>:

/**
  * @brief This function handles System service call via SWI instruction.
  */
void SVC_Handler(void)
{
 8000be6:	b480      	push	{r7}
 8000be8:	af00      	add	r7, sp, #0

  /* USER CODE END SVCall_IRQn 0 */
  /* USER CODE BEGIN SVCall_IRQn 1 */

  /* USER CODE END SVCall_IRQn 1 */
}
 8000bea:	bf00      	nop
 8000bec:	46bd      	mov	sp, r7
 8000bee:	f85d 7b04 	ldr.w	r7, [sp], #4
 8000bf2:	4770      	bx	lr

08000bf4 <DebugMon_Handler>:

/**
  * @brief This function handles Debug monitor.
  */
void DebugMon_Handler(void)
{
 8000bf4:	b480      	push	{r7}
 8000bf6:	af00      	add	r7, sp, #0

  /* USER CODE END DebugMonitor_IRQn 0 */
  /* USER CODE BEGIN DebugMonitor_IRQn 1 */

  /* USER CODE END DebugMonitor_IRQn 1 */
}
 8000bf8:	bf00      	nop
 8000bfa:	46bd      	mov	sp, r7
 8000bfc:	f85d 7b04 	ldr.w	r7, [sp], #4
 8000c00:	4770      	bx	lr

08000c02 <PendSV_Handler>:

/**
  * @brief This function handles Pendable request for system service.
  */
void PendSV_Handler(void)
{
 8000c02:	b480      	push	{r7}
 8000c04:	af00      	add	r7, sp, #0

  /* USER CODE END PendSV_IRQn 0 */
  /* USER CODE BEGIN PendSV_IRQn 1 */

  /* USER CODE END PendSV_IRQn 1 */
}
 8000c06:	bf00      	nop
 8000c08:	46bd      	mov	sp, r7
 8000c0a:	f85d 7b04 	ldr.w	r7, [sp], #4
 8000c0e:	4770      	bx	lr

08000c10 <SysTick_Handler>:

/**
  * @brief This function handles System tick timer.
  */
void SysTick_Handler(void)
{
 8000c10:	b580      	push	{r7, lr}
 8000c12:	af00      	add	r7, sp, #0
  /* USER CODE BEGIN SysTick_IRQn 0 */

  /* USER CODE END SysTick_IRQn 0 */
  HAL_IncTick();
 8000c14:	f000 f8ca 	bl	8000dac <HAL_IncTick>
  /* USER CODE BEGIN SysTick_IRQn 1 */

  /* USER CODE END SysTick_IRQn 1 */
}
 8000c18:	bf00      	nop
 8000c1a:	bd80      	pop	{r7, pc}

08000c1c <OTG_FS_IRQHandler>:

/**
  * @brief This function handles USB On The Go FS global interrupt.
  */
void OTG_FS_IRQHandler(void)
{
 8000c1c:	b580      	push	{r7, lr}
 8000c1e:	af00      	add	r7, sp, #0
  /* USER CODE BEGIN OTG_FS_IRQn 0 */

  /* USER CODE END OTG_FS_IRQn 0 */
  HAL_HCD_IRQHandler(&hhcd_USB_OTG_FS);
 8000c20:	4802      	ldr	r0, [pc, #8]	; (8000c2c <OTG_FS_IRQHandler+0x10>)
 8000c22:	f000 fe59 	bl	80018d8 <HAL_HCD_IRQHandler>
  /* USER CODE BEGIN OTG_FS_IRQn 1 */

  /* USER CODE END OTG_FS_IRQn 1 */
}
 8000c26:	bf00      	nop
 8000c28:	bd80      	pop	{r7, pc}
 8000c2a:	bf00      	nop
 8000c2c:	20000590 	.word	0x20000590

08000c30 <_sbrk>:
/**
 _sbrk
 Increase program data space. Malloc and related functions depend on this
**/
caddr_t _sbrk(int incr)
{
 8000c30:	b580      	push	{r7, lr}
 8000c32:	b084      	sub	sp, #16
 8000c34:	af00      	add	r7, sp, #0
 8000c36:	6078      	str	r0, [r7, #4]
	extern char end asm("end");
	static char *heap_end;
	char *prev_heap_end;

	if (heap_end == 0)
 8000c38:	4b11      	ldr	r3, [pc, #68]	; (8000c80 <_sbrk+0x50>)
 8000c3a:	681b      	ldr	r3, [r3, #0]
 8000c3c:	2b00      	cmp	r3, #0
 8000c3e:	d102      	bne.n	8000c46 <_sbrk+0x16>
		heap_end = &end;
 8000c40:	4b0f      	ldr	r3, [pc, #60]	; (8000c80 <_sbrk+0x50>)
 8000c42:	4a10      	ldr	r2, [pc, #64]	; (8000c84 <_sbrk+0x54>)
 8000c44:	601a      	str	r2, [r3, #0]

	prev_heap_end = heap_end;
 8000c46:	4b0e      	ldr	r3, [pc, #56]	; (8000c80 <_sbrk+0x50>)
 8000c48:	681b      	ldr	r3, [r3, #0]
 8000c4a:	60fb      	str	r3, [r7, #12]
	if (heap_end + incr > stack_ptr)
 8000c4c:	4b0c      	ldr	r3, [pc, #48]	; (8000c80 <_sbrk+0x50>)
 8000c4e:	681a      	ldr	r2, [r3, #0]
 8000c50:	687b      	ldr	r3, [r7, #4]
 8000c52:	4413      	add	r3, r2
 8000c54:	466a      	mov	r2, sp
 8000c56:	4293      	cmp	r3, r2
 8000c58:	d907      	bls.n	8000c6a <_sbrk+0x3a>
	{
		errno = ENOMEM;
 8000c5a:	f006 fe1d 	bl	8007898 <__errno>
 8000c5e:	4602      	mov	r2, r0
 8000c60:	230c      	movs	r3, #12
 8000c62:	6013      	str	r3, [r2, #0]
		return (caddr_t) -1;
 8000c64:	f04f 33ff 	mov.w	r3, #4294967295
 8000c68:	e006      	b.n	8000c78 <_sbrk+0x48>
	}

	heap_end += incr;
 8000c6a:	4b05      	ldr	r3, [pc, #20]	; (8000c80 <_sbrk+0x50>)
 8000c6c:	681a      	ldr	r2, [r3, #0]
 8000c6e:	687b      	ldr	r3, [r7, #4]
 8000c70:	4413      	add	r3, r2
 8000c72:	4a03      	ldr	r2, [pc, #12]	; (8000c80 <_sbrk+0x50>)
 8000c74:	6013      	str	r3, [r2, #0]

	return (caddr_t) prev_heap_end;
 8000c76:	68fb      	ldr	r3, [r7, #12]
}
 8000c78:	4618      	mov	r0, r3
 8000c7a:	3710      	adds	r7, #16
 8000c7c:	46bd      	mov	sp, r7
 8000c7e:	bd80      	pop	{r7, pc}
 8000c80:	200000ac 	.word	0x200000ac
 8000c84:	20000858 	.word	0x20000858

08000c88 <SystemInit>:
  *         configuration.
  * @param  None
  * @retval None
  */
void SystemInit(void)
{
 8000c88:	b480      	push	{r7}
 8000c8a:	af00      	add	r7, sp, #0
  /* FPU settings ------------------------------------------------------------*/
  #if (__FPU_PRESENT == 1) && (__FPU_USED == 1)
    SCB->CPACR |= ((3UL << 10*2)|(3UL << 11*2));  /* set CP10 and CP11 Full Access */
 8000c8c:	4b08      	ldr	r3, [pc, #32]	; (8000cb0 <SystemInit+0x28>)
 8000c8e:	f8d3 3088 	ldr.w	r3, [r3, #136]	; 0x88
 8000c92:	4a07      	ldr	r2, [pc, #28]	; (8000cb0 <SystemInit+0x28>)
 8000c94:	f443 0370 	orr.w	r3, r3, #15728640	; 0xf00000
 8000c98:	f8c2 3088 	str.w	r3, [r2, #136]	; 0x88

  /* Configure the Vector Table location add offset address ------------------*/
#ifdef VECT_TAB_SRAM
  SCB->VTOR = SRAM_BASE | VECT_TAB_OFFSET; /* Vector Table Relocation in Internal SRAM */
#else
  SCB->VTOR = FLASH_BASE | VECT_TAB_OFFSET; /* Vector Table Relocation in Internal FLASH */
 8000c9c:	4b04      	ldr	r3, [pc, #16]	; (8000cb0 <SystemInit+0x28>)
 8000c9e:	f04f 6200 	mov.w	r2, #134217728	; 0x8000000
 8000ca2:	609a      	str	r2, [r3, #8]
#endif
}
 8000ca4:	bf00      	nop
 8000ca6:	46bd      	mov	sp, r7
 8000ca8:	f85d 7b04 	ldr.w	r7, [sp], #4
 8000cac:	4770      	bx	lr
 8000cae:	bf00      	nop
 8000cb0:	e000ed00 	.word	0xe000ed00

08000cb4 <Reset_Handler>:

    .section  .text.Reset_Handler
  .weak  Reset_Handler
  .type  Reset_Handler, %function
Reset_Handler:  
  ldr   sp, =_estack     /* set stack pointer */
 8000cb4:	f8df d034 	ldr.w	sp, [pc, #52]	; 8000cec <LoopFillZerobss+0x14>

/* Copy the data segment initializers from flash to SRAM */  
  movs  r1, #0
 8000cb8:	2100      	movs	r1, #0
  b  LoopCopyDataInit
 8000cba:	e003      	b.n	8000cc4 <LoopCopyDataInit>

08000cbc <CopyDataInit>:

CopyDataInit:
  ldr  r3, =_sidata
 8000cbc:	4b0c      	ldr	r3, [pc, #48]	; (8000cf0 <LoopFillZerobss+0x18>)
  ldr  r3, [r3, r1]
 8000cbe:	585b      	ldr	r3, [r3, r1]
  str  r3, [r0, r1]
 8000cc0:	5043      	str	r3, [r0, r1]
  adds  r1, r1, #4
 8000cc2:	3104      	adds	r1, #4

08000cc4 <LoopCopyDataInit>:
    
LoopCopyDataInit:
  ldr  r0, =_sdata
 8000cc4:	480b      	ldr	r0, [pc, #44]	; (8000cf4 <LoopFillZerobss+0x1c>)
  ldr  r3, =_edata
 8000cc6:	4b0c      	ldr	r3, [pc, #48]	; (8000cf8 <LoopFillZerobss+0x20>)
  adds  r2, r0, r1
 8000cc8:	1842      	adds	r2, r0, r1
  cmp  r2, r3
 8000cca:	429a      	cmp	r2, r3
  bcc  CopyDataInit
 8000ccc:	d3f6      	bcc.n	8000cbc <CopyDataInit>
  ldr  r2, =_sbss
 8000cce:	4a0b      	ldr	r2, [pc, #44]	; (8000cfc <LoopFillZerobss+0x24>)
  b  LoopFillZerobss
 8000cd0:	e002      	b.n	8000cd8 <LoopFillZerobss>

08000cd2 <FillZerobss>:
/* Zero fill the bss segment. */  
FillZerobss:
  movs  r3, #0
 8000cd2:	2300      	movs	r3, #0
  str  r3, [r2], #4
 8000cd4:	f842 3b04 	str.w	r3, [r2], #4

08000cd8 <LoopFillZerobss>:
    
LoopFillZerobss:
  ldr  r3, = _ebss
 8000cd8:	4b09      	ldr	r3, [pc, #36]	; (8000d00 <LoopFillZerobss+0x28>)
  cmp  r2, r3
 8000cda:	429a      	cmp	r2, r3
  bcc  FillZerobss
 8000cdc:	d3f9      	bcc.n	8000cd2 <FillZerobss>

/* Call the clock system intitialization function.*/
  bl  SystemInit   
 8000cde:	f7ff ffd3 	bl	8000c88 <SystemInit>
/* Call static constructors */
    bl __libc_init_array
 8000ce2:	f006 fddf 	bl	80078a4 <__libc_init_array>
/* Call the application's entry point.*/
  bl  main
 8000ce6:	f7ff fbef 	bl	80004c8 <main>
  bx  lr    
 8000cea:	4770      	bx	lr
  ldr   sp, =_estack     /* set stack pointer */
 8000cec:	20020000 	.word	0x20020000
  ldr  r3, =_sidata
 8000cf0:	08007ad4 	.word	0x08007ad4
  ldr  r0, =_sdata
 8000cf4:	20000000 	.word	0x20000000
  ldr  r3, =_edata
 8000cf8:	20000090 	.word	0x20000090
  ldr  r2, =_sbss
 8000cfc:	20000090 	.word	0x20000090
  ldr  r3, = _ebss
 8000d00:	20000858 	.word	0x20000858

08000d04 <ADC_IRQHandler>:
 * @retval None       
*/
    .section  .text.Default_Handler,"ax",%progbits
Default_Handler:
Infinite_Loop:
  b  Infinite_Loop
 8000d04:	e7fe      	b.n	8000d04 <ADC_IRQHandler>
	...

08000d08 <HAL_Init>:
  *         need to ensure that the SysTick time base is always set to 1 millisecond
  *         to have correct HAL operation.
  * @retval HAL status
  */
HAL_StatusTypeDef HAL_Init(void)
{
 8000d08:	b580      	push	{r7, lr}
 8000d0a:	af00      	add	r7, sp, #0
  /* Configure Flash prefetch, Instruction cache, Data cache */ 
#if (INSTRUCTION_CACHE_ENABLE != 0U)
  __HAL_FLASH_INSTRUCTION_CACHE_ENABLE();
 8000d0c:	4b0e      	ldr	r3, [pc, #56]	; (8000d48 <HAL_Init+0x40>)
 8000d0e:	681b      	ldr	r3, [r3, #0]
 8000d10:	4a0d      	ldr	r2, [pc, #52]	; (8000d48 <HAL_Init+0x40>)
 8000d12:	f443 7300 	orr.w	r3, r3, #512	; 0x200
 8000d16:	6013      	str	r3, [r2, #0]
#endif /* INSTRUCTION_CACHE_ENABLE */

#if (DATA_CACHE_ENABLE != 0U)
  __HAL_FLASH_DATA_CACHE_ENABLE();
 8000d18:	4b0b      	ldr	r3, [pc, #44]	; (8000d48 <HAL_Init+0x40>)
 8000d1a:	681b      	ldr	r3, [r3, #0]
 8000d1c:	4a0a      	ldr	r2, [pc, #40]	; (8000d48 <HAL_Init+0x40>)
 8000d1e:	f443 6380 	orr.w	r3, r3, #1024	; 0x400
 8000d22:	6013      	str	r3, [r2, #0]
#endif /* DATA_CACHE_ENABLE */

#if (PREFETCH_ENABLE != 0U)
  __HAL_FLASH_PREFETCH_BUFFER_ENABLE();
 8000d24:	4b08      	ldr	r3, [pc, #32]	; (8000d48 <HAL_Init+0x40>)
 8000d26:	681b      	ldr	r3, [r3, #0]
 8000d28:	4a07      	ldr	r2, [pc, #28]	; (8000d48 <HAL_Init+0x40>)
 8000d2a:	f443 7380 	orr.w	r3, r3, #256	; 0x100
 8000d2e:	6013      	str	r3, [r2, #0]
#endif /* PREFETCH_ENABLE */

  /* Set Interrupt Group Priority */
  HAL_NVIC_SetPriorityGrouping(NVIC_PRIORITYGROUP_4);
 8000d30:	2003      	movs	r0, #3
 8000d32:	f000 f94d 	bl	8000fd0 <HAL_NVIC_SetPriorityGrouping>

  /* Use systick as time base source and configure 1ms tick (default clock after Reset is HSI) */
  HAL_InitTick(TICK_INT_PRIORITY);
 8000d36:	2000      	movs	r0, #0
 8000d38:	f000 f808 	bl	8000d4c <HAL_InitTick>

  /* Init the low level hardware */
  HAL_MspInit();
 8000d3c:	f7ff fe20 	bl	8000980 <HAL_MspInit>

  /* Return function status */
  return HAL_OK;
 8000d40:	2300      	movs	r3, #0
}
 8000d42:	4618      	mov	r0, r3
 8000d44:	bd80      	pop	{r7, pc}
 8000d46:	bf00      	nop
 8000d48:	40023c00 	.word	0x40023c00

08000d4c <HAL_InitTick>:
  *       implementation  in user file.
  * @param TickPriority Tick interrupt priority.
  * @retval HAL status
  */
__weak HAL_StatusTypeDef HAL_InitTick(uint32_t TickPriority)
{
 8000d4c:	b580      	push	{r7, lr}
 8000d4e:	b082      	sub	sp, #8
 8000d50:	af00      	add	r7, sp, #0
 8000d52:	6078      	str	r0, [r7, #4]
  /* Configure the SysTick to have interrupt in 1ms time basis*/
  if (HAL_SYSTICK_Config(SystemCoreClock / (1000U / uwTickFreq)) > 0U)
 8000d54:	4b12      	ldr	r3, [pc, #72]	; (8000da0 <HAL_InitTick+0x54>)
 8000d56:	681a      	ldr	r2, [r3, #0]
 8000d58:	4b12      	ldr	r3, [pc, #72]	; (8000da4 <HAL_InitTick+0x58>)
 8000d5a:	781b      	ldrb	r3, [r3, #0]
 8000d5c:	4619      	mov	r1, r3
 8000d5e:	f44f 737a 	mov.w	r3, #1000	; 0x3e8
 8000d62:	fbb3 f3f1 	udiv	r3, r3, r1
 8000d66:	fbb2 f3f3 	udiv	r3, r2, r3
 8000d6a:	4618      	mov	r0, r3
 8000d6c:	f000 f965 	bl	800103a <HAL_SYSTICK_Config>
 8000d70:	4603      	mov	r3, r0
 8000d72:	2b00      	cmp	r3, #0
 8000d74:	d001      	beq.n	8000d7a <HAL_InitTick+0x2e>
  {
    return HAL_ERROR;
 8000d76:	2301      	movs	r3, #1
 8000d78:	e00e      	b.n	8000d98 <HAL_InitTick+0x4c>
  }

  /* Configure the SysTick IRQ priority */
  if (TickPriority < (1UL << __NVIC_PRIO_BITS))
 8000d7a:	687b      	ldr	r3, [r7, #4]
 8000d7c:	2b0f      	cmp	r3, #15
 8000d7e:	d80a      	bhi.n	8000d96 <HAL_InitTick+0x4a>
  {
    HAL_NVIC_SetPriority(SysTick_IRQn, TickPriority, 0U);
 8000d80:	2200      	movs	r2, #0
 8000d82:	6879      	ldr	r1, [r7, #4]
 8000d84:	f04f 30ff 	mov.w	r0, #4294967295
 8000d88:	f000 f92d 	bl	8000fe6 <HAL_NVIC_SetPriority>
    uwTickPrio = TickPriority;
 8000d8c:	4a06      	ldr	r2, [pc, #24]	; (8000da8 <HAL_InitTick+0x5c>)
 8000d8e:	687b      	ldr	r3, [r7, #4]
 8000d90:	6013      	str	r3, [r2, #0]
  {
    return HAL_ERROR;
  }

  /* Return function status */
  return HAL_OK;
 8000d92:	2300      	movs	r3, #0
 8000d94:	e000      	b.n	8000d98 <HAL_InitTick+0x4c>
    return HAL_ERROR;
 8000d96:	2301      	movs	r3, #1
}
 8000d98:	4618      	mov	r0, r3
 8000d9a:	3708      	adds	r7, #8
 8000d9c:	46bd      	mov	sp, r7
 8000d9e:	bd80      	pop	{r7, pc}
 8000da0:	20000000 	.word	0x20000000
 8000da4:	20000008 	.word	0x20000008
 8000da8:	20000004 	.word	0x20000004

08000dac <HAL_IncTick>:
 * @note This function is declared as __weak to be overwritten in case of other 
  *      implementations in user file.
  * @retval None
  */
__weak void HAL_IncTick(void)
{
 8000dac:	b480      	push	{r7}
 8000dae:	af00      	add	r7, sp, #0
  uwTick += uwTickFreq;
 8000db0:	4b06      	ldr	r3, [pc, #24]	; (8000dcc <HAL_IncTick+0x20>)
 8000db2:	781b      	ldrb	r3, [r3, #0]
 8000db4:	461a      	mov	r2, r3
 8000db6:	4b06      	ldr	r3, [pc, #24]	; (8000dd0 <HAL_IncTick+0x24>)
 8000db8:	681b      	ldr	r3, [r3, #0]
 8000dba:	4413      	add	r3, r2
 8000dbc:	4a04      	ldr	r2, [pc, #16]	; (8000dd0 <HAL_IncTick+0x24>)
 8000dbe:	6013      	str	r3, [r2, #0]
}
 8000dc0:	bf00      	nop
 8000dc2:	46bd      	mov	sp, r7
 8000dc4:	f85d 7b04 	ldr.w	r7, [sp], #4
 8000dc8:	4770      	bx	lr
 8000dca:	bf00      	nop
 8000dcc:	20000008 	.word	0x20000008
 8000dd0:	200001b4 	.word	0x200001b4

08000dd4 <HAL_GetTick>:
  * @note This function is declared as __weak to be overwritten in case of other 
  *       implementations in user file.
  * @retval tick value
  */
__weak uint32_t HAL_GetTick(void)
{
 8000dd4:	b480      	push	{r7}
 8000dd6:	af00      	add	r7, sp, #0
  return uwTick;
 8000dd8:	4b03      	ldr	r3, [pc, #12]	; (8000de8 <HAL_GetTick+0x14>)
 8000dda:	681b      	ldr	r3, [r3, #0]
}
 8000ddc:	4618      	mov	r0, r3
 8000dde:	46bd      	mov	sp, r7
 8000de0:	f85d 7b04 	ldr.w	r7, [sp], #4
 8000de4:	4770      	bx	lr
 8000de6:	bf00      	nop
 8000de8:	200001b4 	.word	0x200001b4

08000dec <HAL_Delay>:
  *       implementations in user file.
  * @param Delay specifies the delay time length, in milliseconds.
  * @retval None
  */
__weak void HAL_Delay(uint32_t Delay)
{
 8000dec:	b580      	push	{r7, lr}
 8000dee:	b084      	sub	sp, #16
 8000df0:	af00      	add	r7, sp, #0
 8000df2:	6078      	str	r0, [r7, #4]
  uint32_t tickstart = HAL_GetTick();
 8000df4:	f7ff ffee 	bl	8000dd4 <HAL_GetTick>
 8000df8:	60b8      	str	r0, [r7, #8]
  uint32_t wait = Delay;
 8000dfa:	687b      	ldr	r3, [r7, #4]
 8000dfc:	60fb      	str	r3, [r7, #12]

  /* Add a freq to guarantee minimum wait */
  if (wait < HAL_MAX_DELAY)
 8000dfe:	68fb      	ldr	r3, [r7, #12]
 8000e00:	f1b3 3fff 	cmp.w	r3, #4294967295
 8000e04:	d005      	beq.n	8000e12 <HAL_Delay+0x26>
  {
    wait += (uint32_t)(uwTickFreq);
 8000e06:	4b09      	ldr	r3, [pc, #36]	; (8000e2c <HAL_Delay+0x40>)
 8000e08:	781b      	ldrb	r3, [r3, #0]
 8000e0a:	461a      	mov	r2, r3
 8000e0c:	68fb      	ldr	r3, [r7, #12]
 8000e0e:	4413      	add	r3, r2
 8000e10:	60fb      	str	r3, [r7, #12]
  }

  while((HAL_GetTick() - tickstart) < wait)
 8000e12:	bf00      	nop
 8000e14:	f7ff ffde 	bl	8000dd4 <HAL_GetTick>
 8000e18:	4602      	mov	r2, r0
 8000e1a:	68bb      	ldr	r3, [r7, #8]
 8000e1c:	1ad3      	subs	r3, r2, r3
 8000e1e:	68fa      	ldr	r2, [r7, #12]
 8000e20:	429a      	cmp	r2, r3
 8000e22:	d8f7      	bhi.n	8000e14 <HAL_Delay+0x28>
  {
  }
}
 8000e24:	bf00      	nop
 8000e26:	3710      	adds	r7, #16
 8000e28:	46bd      	mov	sp, r7
 8000e2a:	bd80      	pop	{r7, pc}
 8000e2c:	20000008 	.word	0x20000008

08000e30 <__NVIC_SetPriorityGrouping>:
           In case of a conflict between priority grouping and available
           priority bits (__NVIC_PRIO_BITS), the smallest possible priority group is set.
  \param [in]      PriorityGroup  Priority grouping field.
 */
__STATIC_INLINE void __NVIC_SetPriorityGrouping(uint32_t PriorityGroup)
{
 8000e30:	b480      	push	{r7}
 8000e32:	b085      	sub	sp, #20
 8000e34:	af00      	add	r7, sp, #0
 8000e36:	6078      	str	r0, [r7, #4]
  uint32_t reg_value;
  uint32_t PriorityGroupTmp = (PriorityGroup & (uint32_t)0x07UL);             /* only values 0..7 are used          */
 8000e38:	687b      	ldr	r3, [r7, #4]
 8000e3a:	f003 0307 	and.w	r3, r3, #7
 8000e3e:	60fb      	str	r3, [r7, #12]

  reg_value  =  SCB->AIRCR;                                                   /* read old register configuration    */
 8000e40:	4b0c      	ldr	r3, [pc, #48]	; (8000e74 <__NVIC_SetPriorityGrouping+0x44>)
 8000e42:	68db      	ldr	r3, [r3, #12]
 8000e44:	60bb      	str	r3, [r7, #8]
  reg_value &= ~((uint32_t)(SCB_AIRCR_VECTKEY_Msk | SCB_AIRCR_PRIGROUP_Msk)); /* clear bits to change               */
 8000e46:	68ba      	ldr	r2, [r7, #8]
 8000e48:	f64f 03ff 	movw	r3, #63743	; 0xf8ff
 8000e4c:	4013      	ands	r3, r2
 8000e4e:	60bb      	str	r3, [r7, #8]
  reg_value  =  (reg_value                                   |
                ((uint32_t)0x5FAUL << SCB_AIRCR_VECTKEY_Pos) |
                (PriorityGroupTmp << SCB_AIRCR_PRIGROUP_Pos)  );              /* Insert write key and priority group */
 8000e50:	68fb      	ldr	r3, [r7, #12]
 8000e52:	021a      	lsls	r2, r3, #8
                ((uint32_t)0x5FAUL << SCB_AIRCR_VECTKEY_Pos) |
 8000e54:	68bb      	ldr	r3, [r7, #8]
 8000e56:	4313      	orrs	r3, r2
  reg_value  =  (reg_value                                   |
 8000e58:	f043 63bf 	orr.w	r3, r3, #100139008	; 0x5f80000
 8000e5c:	f443 3300 	orr.w	r3, r3, #131072	; 0x20000
 8000e60:	60bb      	str	r3, [r7, #8]
  SCB->AIRCR =  reg_value;
 8000e62:	4a04      	ldr	r2, [pc, #16]	; (8000e74 <__NVIC_SetPriorityGrouping+0x44>)
 8000e64:	68bb      	ldr	r3, [r7, #8]
 8000e66:	60d3      	str	r3, [r2, #12]
}
 8000e68:	bf00      	nop
 8000e6a:	3714      	adds	r7, #20
 8000e6c:	46bd      	mov	sp, r7
 8000e6e:	f85d 7b04 	ldr.w	r7, [sp], #4
 8000e72:	4770      	bx	lr
 8000e74:	e000ed00 	.word	0xe000ed00

08000e78 <__NVIC_GetPriorityGrouping>:
  \brief   Get Priority Grouping
  \details Reads the priority grouping field from the NVIC Interrupt Controller.
  \return                Priority grouping field (SCB->AIRCR [10:8] PRIGROUP field).
 */
__STATIC_INLINE uint32_t __NVIC_GetPriorityGrouping(void)
{
 8000e78:	b480      	push	{r7}
 8000e7a:	af00      	add	r7, sp, #0
  return ((uint32_t)((SCB->AIRCR & SCB_AIRCR_PRIGROUP_Msk) >> SCB_AIRCR_PRIGROUP_Pos));
 8000e7c:	4b04      	ldr	r3, [pc, #16]	; (8000e90 <__NVIC_GetPriorityGrouping+0x18>)
 8000e7e:	68db      	ldr	r3, [r3, #12]
 8000e80:	0a1b      	lsrs	r3, r3, #8
 8000e82:	f003 0307 	and.w	r3, r3, #7
}
 8000e86:	4618      	mov	r0, r3
 8000e88:	46bd      	mov	sp, r7
 8000e8a:	f85d 7b04 	ldr.w	r7, [sp], #4
 8000e8e:	4770      	bx	lr
 8000e90:	e000ed00 	.word	0xe000ed00

08000e94 <__NVIC_EnableIRQ>:
  \details Enables a device specific interrupt in the NVIC interrupt controller.
  \param [in]      IRQn  Device specific interrupt number.
  \note    IRQn must not be negative.
 */
__STATIC_INLINE void __NVIC_EnableIRQ(IRQn_Type IRQn)
{
 8000e94:	b480      	push	{r7}
 8000e96:	b083      	sub	sp, #12
 8000e98:	af00      	add	r7, sp, #0
 8000e9a:	4603      	mov	r3, r0
 8000e9c:	71fb      	strb	r3, [r7, #7]
  if ((int32_t)(IRQn) >= 0)
 8000e9e:	f997 3007 	ldrsb.w	r3, [r7, #7]
 8000ea2:	2b00      	cmp	r3, #0
 8000ea4:	db0b      	blt.n	8000ebe <__NVIC_EnableIRQ+0x2a>
  {
    NVIC->ISER[(((uint32_t)IRQn) >> 5UL)] = (uint32_t)(1UL << (((uint32_t)IRQn) & 0x1FUL));
 8000ea6:	79fb      	ldrb	r3, [r7, #7]
 8000ea8:	f003 021f 	and.w	r2, r3, #31
 8000eac:	4907      	ldr	r1, [pc, #28]	; (8000ecc <__NVIC_EnableIRQ+0x38>)
 8000eae:	f997 3007 	ldrsb.w	r3, [r7, #7]
 8000eb2:	095b      	lsrs	r3, r3, #5
 8000eb4:	2001      	movs	r0, #1
 8000eb6:	fa00 f202 	lsl.w	r2, r0, r2
 8000eba:	f841 2023 	str.w	r2, [r1, r3, lsl #2]
  }
}
 8000ebe:	bf00      	nop
 8000ec0:	370c      	adds	r7, #12
 8000ec2:	46bd      	mov	sp, r7
 8000ec4:	f85d 7b04 	ldr.w	r7, [sp], #4
 8000ec8:	4770      	bx	lr
 8000eca:	bf00      	nop
 8000ecc:	e000e100 	.word	0xe000e100

08000ed0 <__NVIC_SetPriority>:
  \param [in]      IRQn  Interrupt number.
  \param [in]  priority  Priority to set.
  \note    The priority cannot be set for every processor exception.
 */
__STATIC_INLINE void __NVIC_SetPriority(IRQn_Type IRQn, uint32_t priority)
{
 8000ed0:	b480      	push	{r7}
 8000ed2:	b083      	sub	sp, #12
 8000ed4:	af00      	add	r7, sp, #0
 8000ed6:	4603      	mov	r3, r0
 8000ed8:	6039      	str	r1, [r7, #0]
 8000eda:	71fb      	strb	r3, [r7, #7]
  if ((int32_t)(IRQn) >= 0)
 8000edc:	f997 3007 	ldrsb.w	r3, [r7, #7]
 8000ee0:	2b00      	cmp	r3, #0
 8000ee2:	db0a      	blt.n	8000efa <__NVIC_SetPriority+0x2a>
  {
    NVIC->IP[((uint32_t)IRQn)]               = (uint8_t)((priority << (8U - __NVIC_PRIO_BITS)) & (uint32_t)0xFFUL);
 8000ee4:	683b      	ldr	r3, [r7, #0]
 8000ee6:	b2da      	uxtb	r2, r3
 8000ee8:	490c      	ldr	r1, [pc, #48]	; (8000f1c <__NVIC_SetPriority+0x4c>)
 8000eea:	f997 3007 	ldrsb.w	r3, [r7, #7]
 8000eee:	0112      	lsls	r2, r2, #4
 8000ef0:	b2d2      	uxtb	r2, r2
 8000ef2:	440b      	add	r3, r1
 8000ef4:	f883 2300 	strb.w	r2, [r3, #768]	; 0x300
  }
  else
  {
    SCB->SHP[(((uint32_t)IRQn) & 0xFUL)-4UL] = (uint8_t)((priority << (8U - __NVIC_PRIO_BITS)) & (uint32_t)0xFFUL);
  }
}
 8000ef8:	e00a      	b.n	8000f10 <__NVIC_SetPriority+0x40>
    SCB->SHP[(((uint32_t)IRQn) & 0xFUL)-4UL] = (uint8_t)((priority << (8U - __NVIC_PRIO_BITS)) & (uint32_t)0xFFUL);
 8000efa:	683b      	ldr	r3, [r7, #0]
 8000efc:	b2da      	uxtb	r2, r3
 8000efe:	4908      	ldr	r1, [pc, #32]	; (8000f20 <__NVIC_SetPriority+0x50>)
 8000f00:	79fb      	ldrb	r3, [r7, #7]
 8000f02:	f003 030f 	and.w	r3, r3, #15
 8000f06:	3b04      	subs	r3, #4
 8000f08:	0112      	lsls	r2, r2, #4
 8000f0a:	b2d2      	uxtb	r2, r2
 8000f0c:	440b      	add	r3, r1
 8000f0e:	761a      	strb	r2, [r3, #24]
}
 8000f10:	bf00      	nop
 8000f12:	370c      	adds	r7, #12
 8000f14:	46bd      	mov	sp, r7
 8000f16:	f85d 7b04 	ldr.w	r7, [sp], #4
 8000f1a:	4770      	bx	lr
 8000f1c:	e000e100 	.word	0xe000e100
 8000f20:	e000ed00 	.word	0xe000ed00

08000f24 <NVIC_EncodePriority>:
  \param [in]   PreemptPriority  Preemptive priority value (starting from 0).
  \param [in]       SubPriority  Subpriority value (starting from 0).
  \return                        Encoded priority. Value can be used in the function \ref NVIC_SetPriority().
 */
__STATIC_INLINE uint32_t NVIC_EncodePriority (uint32_t PriorityGroup, uint32_t PreemptPriority, uint32_t SubPriority)
{
 8000f24:	b480      	push	{r7}
 8000f26:	b089      	sub	sp, #36	; 0x24
 8000f28:	af00      	add	r7, sp, #0
 8000f2a:	60f8      	str	r0, [r7, #12]
 8000f2c:	60b9      	str	r1, [r7, #8]
 8000f2e:	607a      	str	r2, [r7, #4]
  uint32_t PriorityGroupTmp = (PriorityGroup & (uint32_t)0x07UL);   /* only values 0..7 are used          */
 8000f30:	68fb      	ldr	r3, [r7, #12]
 8000f32:	f003 0307 	and.w	r3, r3, #7
 8000f36:	61fb      	str	r3, [r7, #28]
  uint32_t PreemptPriorityBits;
  uint32_t SubPriorityBits;

  PreemptPriorityBits = ((7UL - PriorityGroupTmp) > (uint32_t)(__NVIC_PRIO_BITS)) ? (uint32_t)(__NVIC_PRIO_BITS) : (uint32_t)(7UL - PriorityGroupTmp);
 8000f38:	69fb      	ldr	r3, [r7, #28]
 8000f3a:	f1c3 0307 	rsb	r3, r3, #7
 8000f3e:	2b04      	cmp	r3, #4
 8000f40:	bf28      	it	cs
 8000f42:	2304      	movcs	r3, #4
 8000f44:	61bb      	str	r3, [r7, #24]
  SubPriorityBits     = ((PriorityGroupTmp + (uint32_t)(__NVIC_PRIO_BITS)) < (uint32_t)7UL) ? (uint32_t)0UL : (uint32_t)((PriorityGroupTmp - 7UL) + (uint32_t)(__NVIC_PRIO_BITS));
 8000f46:	69fb      	ldr	r3, [r7, #28]
 8000f48:	3304      	adds	r3, #4
 8000f4a:	2b06      	cmp	r3, #6
 8000f4c:	d902      	bls.n	8000f54 <NVIC_EncodePriority+0x30>
 8000f4e:	69fb      	ldr	r3, [r7, #28]
 8000f50:	3b03      	subs	r3, #3
 8000f52:	e000      	b.n	8000f56 <NVIC_EncodePriority+0x32>
 8000f54:	2300      	movs	r3, #0
 8000f56:	617b      	str	r3, [r7, #20]

  return (
           ((PreemptPriority & (uint32_t)((1UL << (PreemptPriorityBits)) - 1UL)) << SubPriorityBits) |
 8000f58:	f04f 32ff 	mov.w	r2, #4294967295
 8000f5c:	69bb      	ldr	r3, [r7, #24]
 8000f5e:	fa02 f303 	lsl.w	r3, r2, r3
 8000f62:	43da      	mvns	r2, r3
 8000f64:	68bb      	ldr	r3, [r7, #8]
 8000f66:	401a      	ands	r2, r3
 8000f68:	697b      	ldr	r3, [r7, #20]
 8000f6a:	409a      	lsls	r2, r3
           ((SubPriority     & (uint32_t)((1UL << (SubPriorityBits    )) - 1UL)))
 8000f6c:	f04f 31ff 	mov.w	r1, #4294967295
 8000f70:	697b      	ldr	r3, [r7, #20]
 8000f72:	fa01 f303 	lsl.w	r3, r1, r3
 8000f76:	43d9      	mvns	r1, r3
 8000f78:	687b      	ldr	r3, [r7, #4]
 8000f7a:	400b      	ands	r3, r1
           ((PreemptPriority & (uint32_t)((1UL << (PreemptPriorityBits)) - 1UL)) << SubPriorityBits) |
 8000f7c:	4313      	orrs	r3, r2
         );
}
 8000f7e:	4618      	mov	r0, r3
 8000f80:	3724      	adds	r7, #36	; 0x24
 8000f82:	46bd      	mov	sp, r7
 8000f84:	f85d 7b04 	ldr.w	r7, [sp], #4
 8000f88:	4770      	bx	lr
	...

08000f8c <SysTick_Config>:
  \note    When the variable <b>__Vendor_SysTickConfig</b> is set to 1, then the
           function <b>SysTick_Config</b> is not included. In this case, the file <b><i>device</i>.h</b>
           must contain a vendor-specific implementation of this function.
 */
__STATIC_INLINE uint32_t SysTick_Config(uint32_t ticks)
{
 8000f8c:	b580      	push	{r7, lr}
 8000f8e:	b082      	sub	sp, #8
 8000f90:	af00      	add	r7, sp, #0
 8000f92:	6078      	str	r0, [r7, #4]
  if ((ticks - 1UL) > SysTick_LOAD_RELOAD_Msk)
 8000f94:	687b      	ldr	r3, [r7, #4]
 8000f96:	3b01      	subs	r3, #1
 8000f98:	f1b3 7f80 	cmp.w	r3, #16777216	; 0x1000000
 8000f9c:	d301      	bcc.n	8000fa2 <SysTick_Config+0x16>
  {
    return (1UL);                                                   /* Reload value impossible */
 8000f9e:	2301      	movs	r3, #1
 8000fa0:	e00f      	b.n	8000fc2 <SysTick_Config+0x36>
  }

  SysTick->LOAD  = (uint32_t)(ticks - 1UL);                         /* set reload register */
 8000fa2:	4a0a      	ldr	r2, [pc, #40]	; (8000fcc <SysTick_Config+0x40>)
 8000fa4:	687b      	ldr	r3, [r7, #4]
 8000fa6:	3b01      	subs	r3, #1
 8000fa8:	6053      	str	r3, [r2, #4]
  NVIC_SetPriority (SysTick_IRQn, (1UL << __NVIC_PRIO_BITS) - 1UL); /* set Priority for Systick Interrupt */
 8000faa:	210f      	movs	r1, #15
 8000fac:	f04f 30ff 	mov.w	r0, #4294967295
 8000fb0:	f7ff ff8e 	bl	8000ed0 <__NVIC_SetPriority>
  SysTick->VAL   = 0UL;                                             /* Load the SysTick Counter Value */
 8000fb4:	4b05      	ldr	r3, [pc, #20]	; (8000fcc <SysTick_Config+0x40>)
 8000fb6:	2200      	movs	r2, #0
 8000fb8:	609a      	str	r2, [r3, #8]
  SysTick->CTRL  = SysTick_CTRL_CLKSOURCE_Msk |
 8000fba:	4b04      	ldr	r3, [pc, #16]	; (8000fcc <SysTick_Config+0x40>)
 8000fbc:	2207      	movs	r2, #7
 8000fbe:	601a      	str	r2, [r3, #0]
                   SysTick_CTRL_TICKINT_Msk   |
                   SysTick_CTRL_ENABLE_Msk;                         /* Enable SysTick IRQ and SysTick Timer */
  return (0UL);                                                     /* Function successful */
 8000fc0:	2300      	movs	r3, #0
}
 8000fc2:	4618      	mov	r0, r3
 8000fc4:	3708      	adds	r7, #8
 8000fc6:	46bd      	mov	sp, r7
 8000fc8:	bd80      	pop	{r7, pc}
 8000fca:	bf00      	nop
 8000fcc:	e000e010 	.word	0xe000e010

08000fd0 <HAL_NVIC_SetPriorityGrouping>:
  * @note   When the NVIC_PriorityGroup_0 is selected, IRQ preemption is no more possible. 
  *         The pending IRQ priority will be managed only by the subpriority. 
  * @retval None
  */
void HAL_NVIC_SetPriorityGrouping(uint32_t PriorityGroup)
{
 8000fd0:	b580      	push	{r7, lr}
 8000fd2:	b082      	sub	sp, #8
 8000fd4:	af00      	add	r7, sp, #0
 8000fd6:	6078      	str	r0, [r7, #4]
  /* Check the parameters */
  assert_param(IS_NVIC_PRIORITY_GROUP(PriorityGroup));
  
  /* Set the PRIGROUP[10:8] bits according to the PriorityGroup parameter value */
  NVIC_SetPriorityGrouping(PriorityGroup);
 8000fd8:	6878      	ldr	r0, [r7, #4]
 8000fda:	f7ff ff29 	bl	8000e30 <__NVIC_SetPriorityGrouping>
}
 8000fde:	bf00      	nop
 8000fe0:	3708      	adds	r7, #8
 8000fe2:	46bd      	mov	sp, r7
 8000fe4:	bd80      	pop	{r7, pc}

08000fe6 <HAL_NVIC_SetPriority>:
  *         This parameter can be a value between 0 and 15
  *         A lower priority value indicates a higher priority.          
  * @retval None
  */
void HAL_NVIC_SetPriority(IRQn_Type IRQn, uint32_t PreemptPriority, uint32_t SubPriority)
{ 
 8000fe6:	b580      	push	{r7, lr}
 8000fe8:	b086      	sub	sp, #24
 8000fea:	af00      	add	r7, sp, #0
 8000fec:	4603      	mov	r3, r0
 8000fee:	60b9      	str	r1, [r7, #8]
 8000ff0:	607a      	str	r2, [r7, #4]
 8000ff2:	73fb      	strb	r3, [r7, #15]
  uint32_t prioritygroup = 0x00U;
 8000ff4:	2300      	movs	r3, #0
 8000ff6:	617b      	str	r3, [r7, #20]
  
  /* Check the parameters */
  assert_param(IS_NVIC_SUB_PRIORITY(SubPriority));
  assert_param(IS_NVIC_PREEMPTION_PRIORITY(PreemptPriority));
  
  prioritygroup = NVIC_GetPriorityGrouping();
 8000ff8:	f7ff ff3e 	bl	8000e78 <__NVIC_GetPriorityGrouping>
 8000ffc:	6178      	str	r0, [r7, #20]
  
  NVIC_SetPriority(IRQn, NVIC_EncodePriority(prioritygroup, PreemptPriority, SubPriority));
 8000ffe:	687a      	ldr	r2, [r7, #4]
 8001000:	68b9      	ldr	r1, [r7, #8]
 8001002:	6978      	ldr	r0, [r7, #20]
 8001004:	f7ff ff8e 	bl	8000f24 <NVIC_EncodePriority>
 8001008:	4602      	mov	r2, r0
 800100a:	f997 300f 	ldrsb.w	r3, [r7, #15]
 800100e:	4611      	mov	r1, r2
 8001010:	4618      	mov	r0, r3
 8001012:	f7ff ff5d 	bl	8000ed0 <__NVIC_SetPriority>
}
 8001016:	bf00      	nop
 8001018:	3718      	adds	r7, #24
 800101a:	46bd      	mov	sp, r7
 800101c:	bd80      	pop	{r7, pc}

0800101e <HAL_NVIC_EnableIRQ>:
  *         This parameter can be an enumerator of IRQn_Type enumeration
  *         (For the complete STM32 Devices IRQ Channels list, please refer to the appropriate CMSIS device file (stm32f4xxxx.h))
  * @retval None
  */
void HAL_NVIC_EnableIRQ(IRQn_Type IRQn)
{
 800101e:	b580      	push	{r7, lr}
 8001020:	b082      	sub	sp, #8
 8001022:	af00      	add	r7, sp, #0
 8001024:	4603      	mov	r3, r0
 8001026:	71fb      	strb	r3, [r7, #7]
  /* Check the parameters */
  assert_param(IS_NVIC_DEVICE_IRQ(IRQn));
  
  /* Enable interrupt */
  NVIC_EnableIRQ(IRQn);
 8001028:	f997 3007 	ldrsb.w	r3, [r7, #7]
 800102c:	4618      	mov	r0, r3
 800102e:	f7ff ff31 	bl	8000e94 <__NVIC_EnableIRQ>
}
 8001032:	bf00      	nop
 8001034:	3708      	adds	r7, #8
 8001036:	46bd      	mov	sp, r7
 8001038:	bd80      	pop	{r7, pc}

0800103a <HAL_SYSTICK_Config>:
  * @param  TicksNumb Specifies the ticks Number of ticks between two interrupts.
  * @retval status:  - 0  Function succeeded.
  *                  - 1  Function failed.
  */
uint32_t HAL_SYSTICK_Config(uint32_t TicksNumb)
{
 800103a:	b580      	push	{r7, lr}
 800103c:	b082      	sub	sp, #8
 800103e:	af00      	add	r7, sp, #0
 8001040:	6078      	str	r0, [r7, #4]
   return SysTick_Config(TicksNumb);
 8001042:	6878      	ldr	r0, [r7, #4]
 8001044:	f7ff ffa2 	bl	8000f8c <SysTick_Config>
 8001048:	4603      	mov	r3, r0
}
 800104a:	4618      	mov	r0, r3
 800104c:	3708      	adds	r7, #8
 800104e:	46bd      	mov	sp, r7
 8001050:	bd80      	pop	{r7, pc}
	...

08001054 <HAL_GPIO_Init>:
  * @param  GPIO_Init pointer to a GPIO_InitTypeDef structure that contains
  *         the configuration information for the specified GPIO peripheral.
  * @retval None
  */
void HAL_GPIO_Init(GPIO_TypeDef  *GPIOx, GPIO_InitTypeDef *GPIO_Init)
{
 8001054:	b480      	push	{r7}
 8001056:	b089      	sub	sp, #36	; 0x24
 8001058:	af00      	add	r7, sp, #0
 800105a:	6078      	str	r0, [r7, #4]
 800105c:	6039      	str	r1, [r7, #0]
  uint32_t position;
  uint32_t ioposition = 0x00U;
 800105e:	2300      	movs	r3, #0
 8001060:	617b      	str	r3, [r7, #20]
  uint32_t iocurrent = 0x00U;
 8001062:	2300      	movs	r3, #0
 8001064:	613b      	str	r3, [r7, #16]
  uint32_t temp = 0x00U;
 8001066:	2300      	movs	r3, #0
 8001068:	61bb      	str	r3, [r7, #24]
  assert_param(IS_GPIO_PIN(GPIO_Init->Pin));
  assert_param(IS_GPIO_MODE(GPIO_Init->Mode));
  assert_param(IS_GPIO_PULL(GPIO_Init->Pull));

  /* Configure the port pins */
  for(position = 0U; position < GPIO_NUMBER; position++)
 800106a:	2300      	movs	r3, #0
 800106c:	61fb      	str	r3, [r7, #28]
 800106e:	e16b      	b.n	8001348 <HAL_GPIO_Init+0x2f4>
  {
    /* Get the IO position */
    ioposition = 0x01U << position;
 8001070:	2201      	movs	r2, #1
 8001072:	69fb      	ldr	r3, [r7, #28]
 8001074:	fa02 f303 	lsl.w	r3, r2, r3
 8001078:	617b      	str	r3, [r7, #20]
    /* Get the current IO position */
    iocurrent = (uint32_t)(GPIO_Init->Pin) & ioposition;
 800107a:	683b      	ldr	r3, [r7, #0]
 800107c:	681b      	ldr	r3, [r3, #0]
 800107e:	697a      	ldr	r2, [r7, #20]
 8001080:	4013      	ands	r3, r2
 8001082:	613b      	str	r3, [r7, #16]

    if(iocurrent == ioposition)
 8001084:	693a      	ldr	r2, [r7, #16]
 8001086:	697b      	ldr	r3, [r7, #20]
 8001088:	429a      	cmp	r2, r3
 800108a:	f040 815a 	bne.w	8001342 <HAL_GPIO_Init+0x2ee>
    {
      /*--------------------- GPIO Mode Configuration ------------------------*/
      /* In case of Output or Alternate function mode selection */
      if((GPIO_Init->Mode == GPIO_MODE_OUTPUT_PP) || (GPIO_Init->Mode == GPIO_MODE_AF_PP) ||
 800108e:	683b      	ldr	r3, [r7, #0]
 8001090:	685b      	ldr	r3, [r3, #4]
 8001092:	2b01      	cmp	r3, #1
 8001094:	d00b      	beq.n	80010ae <HAL_GPIO_Init+0x5a>
 8001096:	683b      	ldr	r3, [r7, #0]
 8001098:	685b      	ldr	r3, [r3, #4]
 800109a:	2b02      	cmp	r3, #2
 800109c:	d007      	beq.n	80010ae <HAL_GPIO_Init+0x5a>
         (GPIO_Init->Mode == GPIO_MODE_OUTPUT_OD) || (GPIO_Init->Mode == GPIO_MODE_AF_OD))
 800109e:	683b      	ldr	r3, [r7, #0]
 80010a0:	685b      	ldr	r3, [r3, #4]
      if((GPIO_Init->Mode == GPIO_MODE_OUTPUT_PP) || (GPIO_Init->Mode == GPIO_MODE_AF_PP) ||
 80010a2:	2b11      	cmp	r3, #17
 80010a4:	d003      	beq.n	80010ae <HAL_GPIO_Init+0x5a>
         (GPIO_Init->Mode == GPIO_MODE_OUTPUT_OD) || (GPIO_Init->Mode == GPIO_MODE_AF_OD))
 80010a6:	683b      	ldr	r3, [r7, #0]
 80010a8:	685b      	ldr	r3, [r3, #4]
 80010aa:	2b12      	cmp	r3, #18
 80010ac:	d130      	bne.n	8001110 <HAL_GPIO_Init+0xbc>
      {
        /* Check the Speed parameter */
        assert_param(IS_GPIO_SPEED(GPIO_Init->Speed));
        /* Configure the IO Speed */
        temp = GPIOx->OSPEEDR; 
 80010ae:	687b      	ldr	r3, [r7, #4]
 80010b0:	689b      	ldr	r3, [r3, #8]
 80010b2:	61bb      	str	r3, [r7, #24]
        temp &= ~(GPIO_OSPEEDER_OSPEEDR0 << (position * 2U));
 80010b4:	69fb      	ldr	r3, [r7, #28]
 80010b6:	005b      	lsls	r3, r3, #1
 80010b8:	2203      	movs	r2, #3
 80010ba:	fa02 f303 	lsl.w	r3, r2, r3
 80010be:	43db      	mvns	r3, r3
 80010c0:	69ba      	ldr	r2, [r7, #24]
 80010c2:	4013      	ands	r3, r2
 80010c4:	61bb      	str	r3, [r7, #24]
        temp |= (GPIO_Init->Speed << (position * 2U));
 80010c6:	683b      	ldr	r3, [r7, #0]
 80010c8:	68da      	ldr	r2, [r3, #12]
 80010ca:	69fb      	ldr	r3, [r7, #28]
 80010cc:	005b      	lsls	r3, r3, #1
 80010ce:	fa02 f303 	lsl.w	r3, r2, r3
 80010d2:	69ba      	ldr	r2, [r7, #24]
 80010d4:	4313      	orrs	r3, r2
 80010d6:	61bb      	str	r3, [r7, #24]
        GPIOx->OSPEEDR = temp;
 80010d8:	687b      	ldr	r3, [r7, #4]
 80010da:	69ba      	ldr	r2, [r7, #24]
 80010dc:	609a      	str	r2, [r3, #8]

        /* Configure the IO Output Type */
        temp = GPIOx->OTYPER;
 80010de:	687b      	ldr	r3, [r7, #4]
 80010e0:	685b      	ldr	r3, [r3, #4]
 80010e2:	61bb      	str	r3, [r7, #24]
        temp &= ~(GPIO_OTYPER_OT_0 << position) ;
 80010e4:	2201      	movs	r2, #1
 80010e6:	69fb      	ldr	r3, [r7, #28]
 80010e8:	fa02 f303 	lsl.w	r3, r2, r3
 80010ec:	43db      	mvns	r3, r3
 80010ee:	69ba      	ldr	r2, [r7, #24]
 80010f0:	4013      	ands	r3, r2
 80010f2:	61bb      	str	r3, [r7, #24]
        temp |= (((GPIO_Init->Mode & GPIO_OUTPUT_TYPE) >> 4U) << position);
 80010f4:	683b      	ldr	r3, [r7, #0]
 80010f6:	685b      	ldr	r3, [r3, #4]
 80010f8:	091b      	lsrs	r3, r3, #4
 80010fa:	f003 0201 	and.w	r2, r3, #1
 80010fe:	69fb      	ldr	r3, [r7, #28]
 8001100:	fa02 f303 	lsl.w	r3, r2, r3
 8001104:	69ba      	ldr	r2, [r7, #24]
 8001106:	4313      	orrs	r3, r2
 8001108:	61bb      	str	r3, [r7, #24]
        GPIOx->OTYPER = temp;
 800110a:	687b      	ldr	r3, [r7, #4]
 800110c:	69ba      	ldr	r2, [r7, #24]
 800110e:	605a      	str	r2, [r3, #4]
       }

      /* Activate the Pull-up or Pull down resistor for the current IO */
      temp = GPIOx->PUPDR;
 8001110:	687b      	ldr	r3, [r7, #4]
 8001112:	68db      	ldr	r3, [r3, #12]
 8001114:	61bb      	str	r3, [r7, #24]
      temp &= ~(GPIO_PUPDR_PUPDR0 << (position * 2U));
 8001116:	69fb      	ldr	r3, [r7, #28]
 8001118:	005b      	lsls	r3, r3, #1
 800111a:	2203      	movs	r2, #3
 800111c:	fa02 f303 	lsl.w	r3, r2, r3
 8001120:	43db      	mvns	r3, r3
 8001122:	69ba      	ldr	r2, [r7, #24]
 8001124:	4013      	ands	r3, r2
 8001126:	61bb      	str	r3, [r7, #24]
      temp |= ((GPIO_Init->Pull) << (position * 2U));
 8001128:	683b      	ldr	r3, [r7, #0]
 800112a:	689a      	ldr	r2, [r3, #8]
 800112c:	69fb      	ldr	r3, [r7, #28]
 800112e:	005b      	lsls	r3, r3, #1
 8001130:	fa02 f303 	lsl.w	r3, r2, r3
 8001134:	69ba      	ldr	r2, [r7, #24]
 8001136:	4313      	orrs	r3, r2
 8001138:	61bb      	str	r3, [r7, #24]
      GPIOx->PUPDR = temp;
 800113a:	687b      	ldr	r3, [r7, #4]
 800113c:	69ba      	ldr	r2, [r7, #24]
 800113e:	60da      	str	r2, [r3, #12]

      /* In case of Alternate function mode selection */
      if((GPIO_Init->Mode == GPIO_MODE_AF_PP) || (GPIO_Init->Mode == GPIO_MODE_AF_OD))
 8001140:	683b      	ldr	r3, [r7, #0]
 8001142:	685b      	ldr	r3, [r3, #4]
 8001144:	2b02      	cmp	r3, #2
 8001146:	d003      	beq.n	8001150 <HAL_GPIO_Init+0xfc>
 8001148:	683b      	ldr	r3, [r7, #0]
 800114a:	685b      	ldr	r3, [r3, #4]
 800114c:	2b12      	cmp	r3, #18
 800114e:	d123      	bne.n	8001198 <HAL_GPIO_Init+0x144>
      {
        /* Check the Alternate function parameter */
        assert_param(IS_GPIO_AF(GPIO_Init->Alternate));
        /* Configure Alternate function mapped with the current IO */
        temp = GPIOx->AFR[position >> 3U];
 8001150:	69fb      	ldr	r3, [r7, #28]
 8001152:	08da      	lsrs	r2, r3, #3
 8001154:	687b      	ldr	r3, [r7, #4]
 8001156:	3208      	adds	r2, #8
 8001158:	f853 3022 	ldr.w	r3, [r3, r2, lsl #2]
 800115c:	61bb      	str	r3, [r7, #24]
        temp &= ~(0xFU << ((uint32_t)(position & 0x07U) * 4U)) ;
 800115e:	69fb      	ldr	r3, [r7, #28]
 8001160:	f003 0307 	and.w	r3, r3, #7
 8001164:	009b      	lsls	r3, r3, #2
 8001166:	220f      	movs	r2, #15
 8001168:	fa02 f303 	lsl.w	r3, r2, r3
 800116c:	43db      	mvns	r3, r3
 800116e:	69ba      	ldr	r2, [r7, #24]
 8001170:	4013      	ands	r3, r2
 8001172:	61bb      	str	r3, [r7, #24]
        temp |= ((uint32_t)(GPIO_Init->Alternate) << (((uint32_t)position & 0x07U) * 4U));
 8001174:	683b      	ldr	r3, [r7, #0]
 8001176:	691a      	ldr	r2, [r3, #16]
 8001178:	69fb      	ldr	r3, [r7, #28]
 800117a:	f003 0307 	and.w	r3, r3, #7
 800117e:	009b      	lsls	r3, r3, #2
 8001180:	fa02 f303 	lsl.w	r3, r2, r3
 8001184:	69ba      	ldr	r2, [r7, #24]
 8001186:	4313      	orrs	r3, r2
 8001188:	61bb      	str	r3, [r7, #24]
        GPIOx->AFR[position >> 3U] = temp;
 800118a:	69fb      	ldr	r3, [r7, #28]
 800118c:	08da      	lsrs	r2, r3, #3
 800118e:	687b      	ldr	r3, [r7, #4]
 8001190:	3208      	adds	r2, #8
 8001192:	69b9      	ldr	r1, [r7, #24]
 8001194:	f843 1022 	str.w	r1, [r3, r2, lsl #2]
      }

      /* Configure IO Direction mode (Input, Output, Alternate or Analog) */
      temp = GPIOx->MODER;
 8001198:	687b      	ldr	r3, [r7, #4]
 800119a:	681b      	ldr	r3, [r3, #0]
 800119c:	61bb      	str	r3, [r7, #24]
      temp &= ~(GPIO_MODER_MODER0 << (position * 2U));
 800119e:	69fb      	ldr	r3, [r7, #28]
 80011a0:	005b      	lsls	r3, r3, #1
 80011a2:	2203      	movs	r2, #3
 80011a4:	fa02 f303 	lsl.w	r3, r2, r3
 80011a8:	43db      	mvns	r3, r3
 80011aa:	69ba      	ldr	r2, [r7, #24]
 80011ac:	4013      	ands	r3, r2
 80011ae:	61bb      	str	r3, [r7, #24]
      temp |= ((GPIO_Init->Mode & GPIO_MODE) << (position * 2U));
 80011b0:	683b      	ldr	r3, [r7, #0]
 80011b2:	685b      	ldr	r3, [r3, #4]
 80011b4:	f003 0203 	and.w	r2, r3, #3
 80011b8:	69fb      	ldr	r3, [r7, #28]
 80011ba:	005b      	lsls	r3, r3, #1
 80011bc:	fa02 f303 	lsl.w	r3, r2, r3
 80011c0:	69ba      	ldr	r2, [r7, #24]
 80011c2:	4313      	orrs	r3, r2
 80011c4:	61bb      	str	r3, [r7, #24]
      GPIOx->MODER = temp;
 80011c6:	687b      	ldr	r3, [r7, #4]
 80011c8:	69ba      	ldr	r2, [r7, #24]
 80011ca:	601a      	str	r2, [r3, #0]

      /*--------------------- EXTI Mode Configuration ------------------------*/
      /* Configure the External Interrupt or event for the current IO */
      if((GPIO_Init->Mode & EXTI_MODE) == EXTI_MODE)
 80011cc:	683b      	ldr	r3, [r7, #0]
 80011ce:	685b      	ldr	r3, [r3, #4]
 80011d0:	f003 5380 	and.w	r3, r3, #268435456	; 0x10000000
 80011d4:	2b00      	cmp	r3, #0
 80011d6:	f000 80b4 	beq.w	8001342 <HAL_GPIO_Init+0x2ee>
      {
        /* Enable SYSCFG Clock */
        __HAL_RCC_SYSCFG_CLK_ENABLE();
 80011da:	2300      	movs	r3, #0
 80011dc:	60fb      	str	r3, [r7, #12]
 80011de:	4b5f      	ldr	r3, [pc, #380]	; (800135c <HAL_GPIO_Init+0x308>)
 80011e0:	6c5b      	ldr	r3, [r3, #68]	; 0x44
 80011e2:	4a5e      	ldr	r2, [pc, #376]	; (800135c <HAL_GPIO_Init+0x308>)
 80011e4:	f443 4380 	orr.w	r3, r3, #16384	; 0x4000
 80011e8:	6453      	str	r3, [r2, #68]	; 0x44
 80011ea:	4b5c      	ldr	r3, [pc, #368]	; (800135c <HAL_GPIO_Init+0x308>)
 80011ec:	6c5b      	ldr	r3, [r3, #68]	; 0x44
 80011ee:	f403 4380 	and.w	r3, r3, #16384	; 0x4000
 80011f2:	60fb      	str	r3, [r7, #12]
 80011f4:	68fb      	ldr	r3, [r7, #12]

        temp = SYSCFG->EXTICR[position >> 2U];
 80011f6:	4a5a      	ldr	r2, [pc, #360]	; (8001360 <HAL_GPIO_Init+0x30c>)
 80011f8:	69fb      	ldr	r3, [r7, #28]
 80011fa:	089b      	lsrs	r3, r3, #2
 80011fc:	3302      	adds	r3, #2
 80011fe:	f852 3023 	ldr.w	r3, [r2, r3, lsl #2]
 8001202:	61bb      	str	r3, [r7, #24]
        temp &= ~(0x0FU << (4U * (position & 0x03U)));
 8001204:	69fb      	ldr	r3, [r7, #28]
 8001206:	f003 0303 	and.w	r3, r3, #3
 800120a:	009b      	lsls	r3, r3, #2
 800120c:	220f      	movs	r2, #15
 800120e:	fa02 f303 	lsl.w	r3, r2, r3
 8001212:	43db      	mvns	r3, r3
 8001214:	69ba      	ldr	r2, [r7, #24]
 8001216:	4013      	ands	r3, r2
 8001218:	61bb      	str	r3, [r7, #24]
        temp |= ((uint32_t)(GPIO_GET_INDEX(GPIOx)) << (4U * (position & 0x03U)));
 800121a:	687b      	ldr	r3, [r7, #4]
 800121c:	4a51      	ldr	r2, [pc, #324]	; (8001364 <HAL_GPIO_Init+0x310>)
 800121e:	4293      	cmp	r3, r2
 8001220:	d02b      	beq.n	800127a <HAL_GPIO_Init+0x226>
 8001222:	687b      	ldr	r3, [r7, #4]
 8001224:	4a50      	ldr	r2, [pc, #320]	; (8001368 <HAL_GPIO_Init+0x314>)
 8001226:	4293      	cmp	r3, r2
 8001228:	d025      	beq.n	8001276 <HAL_GPIO_Init+0x222>
 800122a:	687b      	ldr	r3, [r7, #4]
 800122c:	4a4f      	ldr	r2, [pc, #316]	; (800136c <HAL_GPIO_Init+0x318>)
 800122e:	4293      	cmp	r3, r2
 8001230:	d01f      	beq.n	8001272 <HAL_GPIO_Init+0x21e>
 8001232:	687b      	ldr	r3, [r7, #4]
 8001234:	4a4e      	ldr	r2, [pc, #312]	; (8001370 <HAL_GPIO_Init+0x31c>)
 8001236:	4293      	cmp	r3, r2
 8001238:	d019      	beq.n	800126e <HAL_GPIO_Init+0x21a>
 800123a:	687b      	ldr	r3, [r7, #4]
 800123c:	4a4d      	ldr	r2, [pc, #308]	; (8001374 <HAL_GPIO_Init+0x320>)
 800123e:	4293      	cmp	r3, r2
 8001240:	d013      	beq.n	800126a <HAL_GPIO_Init+0x216>
 8001242:	687b      	ldr	r3, [r7, #4]
 8001244:	4a4c      	ldr	r2, [pc, #304]	; (8001378 <HAL_GPIO_Init+0x324>)
 8001246:	4293      	cmp	r3, r2
 8001248:	d00d      	beq.n	8001266 <HAL_GPIO_Init+0x212>
 800124a:	687b      	ldr	r3, [r7, #4]
 800124c:	4a4b      	ldr	r2, [pc, #300]	; (800137c <HAL_GPIO_Init+0x328>)
 800124e:	4293      	cmp	r3, r2
 8001250:	d007      	beq.n	8001262 <HAL_GPIO_Init+0x20e>
 8001252:	687b      	ldr	r3, [r7, #4]
 8001254:	4a4a      	ldr	r2, [pc, #296]	; (8001380 <HAL_GPIO_Init+0x32c>)
 8001256:	4293      	cmp	r3, r2
 8001258:	d101      	bne.n	800125e <HAL_GPIO_Init+0x20a>
 800125a:	2307      	movs	r3, #7
 800125c:	e00e      	b.n	800127c <HAL_GPIO_Init+0x228>
 800125e:	2308      	movs	r3, #8
 8001260:	e00c      	b.n	800127c <HAL_GPIO_Init+0x228>
 8001262:	2306      	movs	r3, #6
 8001264:	e00a      	b.n	800127c <HAL_GPIO_Init+0x228>
 8001266:	2305      	movs	r3, #5
 8001268:	e008      	b.n	800127c <HAL_GPIO_Init+0x228>
 800126a:	2304      	movs	r3, #4
 800126c:	e006      	b.n	800127c <HAL_GPIO_Init+0x228>
 800126e:	2303      	movs	r3, #3
 8001270:	e004      	b.n	800127c <HAL_GPIO_Init+0x228>
 8001272:	2302      	movs	r3, #2
 8001274:	e002      	b.n	800127c <HAL_GPIO_Init+0x228>
 8001276:	2301      	movs	r3, #1
 8001278:	e000      	b.n	800127c <HAL_GPIO_Init+0x228>
 800127a:	2300      	movs	r3, #0
 800127c:	69fa      	ldr	r2, [r7, #28]
 800127e:	f002 0203 	and.w	r2, r2, #3
 8001282:	0092      	lsls	r2, r2, #2
 8001284:	4093      	lsls	r3, r2
 8001286:	69ba      	ldr	r2, [r7, #24]
 8001288:	4313      	orrs	r3, r2
 800128a:	61bb      	str	r3, [r7, #24]
        SYSCFG->EXTICR[position >> 2U] = temp;
 800128c:	4934      	ldr	r1, [pc, #208]	; (8001360 <HAL_GPIO_Init+0x30c>)
 800128e:	69fb      	ldr	r3, [r7, #28]
 8001290:	089b      	lsrs	r3, r3, #2
 8001292:	3302      	adds	r3, #2
 8001294:	69ba      	ldr	r2, [r7, #24]
 8001296:	f841 2023 	str.w	r2, [r1, r3, lsl #2]

        /* Clear EXTI line configuration */
        temp = EXTI->IMR;
 800129a:	4b3a      	ldr	r3, [pc, #232]	; (8001384 <HAL_GPIO_Init+0x330>)
 800129c:	681b      	ldr	r3, [r3, #0]
 800129e:	61bb      	str	r3, [r7, #24]
        temp &= ~((uint32_t)iocurrent);
 80012a0:	693b      	ldr	r3, [r7, #16]
 80012a2:	43db      	mvns	r3, r3
 80012a4:	69ba      	ldr	r2, [r7, #24]
 80012a6:	4013      	ands	r3, r2
 80012a8:	61bb      	str	r3, [r7, #24]
        if((GPIO_Init->Mode & GPIO_MODE_IT) == GPIO_MODE_IT)
 80012aa:	683b      	ldr	r3, [r7, #0]
 80012ac:	685b      	ldr	r3, [r3, #4]
 80012ae:	f403 3380 	and.w	r3, r3, #65536	; 0x10000
 80012b2:	2b00      	cmp	r3, #0
 80012b4:	d003      	beq.n	80012be <HAL_GPIO_Init+0x26a>
        {
          temp |= iocurrent;
 80012b6:	69ba      	ldr	r2, [r7, #24]
 80012b8:	693b      	ldr	r3, [r7, #16]
 80012ba:	4313      	orrs	r3, r2
 80012bc:	61bb      	str	r3, [r7, #24]
        }
        EXTI->IMR = temp;
 80012be:	4a31      	ldr	r2, [pc, #196]	; (8001384 <HAL_GPIO_Init+0x330>)
 80012c0:	69bb      	ldr	r3, [r7, #24]
 80012c2:	6013      	str	r3, [r2, #0]

        temp = EXTI->EMR;
 80012c4:	4b2f      	ldr	r3, [pc, #188]	; (8001384 <HAL_GPIO_Init+0x330>)
 80012c6:	685b      	ldr	r3, [r3, #4]
 80012c8:	61bb      	str	r3, [r7, #24]
        temp &= ~((uint32_t)iocurrent);
 80012ca:	693b      	ldr	r3, [r7, #16]
 80012cc:	43db      	mvns	r3, r3
 80012ce:	69ba      	ldr	r2, [r7, #24]
 80012d0:	4013      	ands	r3, r2
 80012d2:	61bb      	str	r3, [r7, #24]
        if((GPIO_Init->Mode & GPIO_MODE_EVT) == GPIO_MODE_EVT)
 80012d4:	683b      	ldr	r3, [r7, #0]
 80012d6:	685b      	ldr	r3, [r3, #4]
 80012d8:	f403 3300 	and.w	r3, r3, #131072	; 0x20000
 80012dc:	2b00      	cmp	r3, #0
 80012de:	d003      	beq.n	80012e8 <HAL_GPIO_Init+0x294>
        {
          temp |= iocurrent;
 80012e0:	69ba      	ldr	r2, [r7, #24]
 80012e2:	693b      	ldr	r3, [r7, #16]
 80012e4:	4313      	orrs	r3, r2
 80012e6:	61bb      	str	r3, [r7, #24]
        }
        EXTI->EMR = temp;
 80012e8:	4a26      	ldr	r2, [pc, #152]	; (8001384 <HAL_GPIO_Init+0x330>)
 80012ea:	69bb      	ldr	r3, [r7, #24]
 80012ec:	6053      	str	r3, [r2, #4]

        /* Clear Rising Falling edge configuration */
        temp = EXTI->RTSR;
 80012ee:	4b25      	ldr	r3, [pc, #148]	; (8001384 <HAL_GPIO_Init+0x330>)
 80012f0:	689b      	ldr	r3, [r3, #8]
 80012f2:	61bb      	str	r3, [r7, #24]
        temp &= ~((uint32_t)iocurrent);
 80012f4:	693b      	ldr	r3, [r7, #16]
 80012f6:	43db      	mvns	r3, r3
 80012f8:	69ba      	ldr	r2, [r7, #24]
 80012fa:	4013      	ands	r3, r2
 80012fc:	61bb      	str	r3, [r7, #24]
        if((GPIO_Init->Mode & RISING_EDGE) == RISING_EDGE)
 80012fe:	683b      	ldr	r3, [r7, #0]
 8001300:	685b      	ldr	r3, [r3, #4]
 8001302:	f403 1380 	and.w	r3, r3, #1048576	; 0x100000
 8001306:	2b00      	cmp	r3, #0
 8001308:	d003      	beq.n	8001312 <HAL_GPIO_Init+0x2be>
        {
          temp |= iocurrent;
 800130a:	69ba      	ldr	r2, [r7, #24]
 800130c:	693b      	ldr	r3, [r7, #16]
 800130e:	4313      	orrs	r3, r2
 8001310:	61bb      	str	r3, [r7, #24]
        }
        EXTI->RTSR = temp;
 8001312:	4a1c      	ldr	r2, [pc, #112]	; (8001384 <HAL_GPIO_Init+0x330>)
 8001314:	69bb      	ldr	r3, [r7, #24]
 8001316:	6093      	str	r3, [r2, #8]

        temp = EXTI->FTSR;
 8001318:	4b1a      	ldr	r3, [pc, #104]	; (8001384 <HAL_GPIO_Init+0x330>)
 800131a:	68db      	ldr	r3, [r3, #12]
 800131c:	61bb      	str	r3, [r7, #24]
        temp &= ~((uint32_t)iocurrent);
 800131e:	693b      	ldr	r3, [r7, #16]
 8001320:	43db      	mvns	r3, r3
 8001322:	69ba      	ldr	r2, [r7, #24]
 8001324:	4013      	ands	r3, r2
 8001326:	61bb      	str	r3, [r7, #24]
        if((GPIO_Init->Mode & FALLING_EDGE) == FALLING_EDGE)
 8001328:	683b      	ldr	r3, [r7, #0]
 800132a:	685b      	ldr	r3, [r3, #4]
 800132c:	f403 1300 	and.w	r3, r3, #2097152	; 0x200000
 8001330:	2b00      	cmp	r3, #0
 8001332:	d003      	beq.n	800133c <HAL_GPIO_Init+0x2e8>
        {
          temp |= iocurrent;
 8001334:	69ba      	ldr	r2, [r7, #24]
 8001336:	693b      	ldr	r3, [r7, #16]
 8001338:	4313      	orrs	r3, r2
 800133a:	61bb      	str	r3, [r7, #24]
        }
        EXTI->FTSR = temp;
 800133c:	4a11      	ldr	r2, [pc, #68]	; (8001384 <HAL_GPIO_Init+0x330>)
 800133e:	69bb      	ldr	r3, [r7, #24]
 8001340:	60d3      	str	r3, [r2, #12]
  for(position = 0U; position < GPIO_NUMBER; position++)
 8001342:	69fb      	ldr	r3, [r7, #28]
 8001344:	3301      	adds	r3, #1
 8001346:	61fb      	str	r3, [r7, #28]
 8001348:	69fb      	ldr	r3, [r7, #28]
 800134a:	2b0f      	cmp	r3, #15
 800134c:	f67f ae90 	bls.w	8001070 <HAL_GPIO_Init+0x1c>
      }
    }
  }
}
 8001350:	bf00      	nop
 8001352:	3724      	adds	r7, #36	; 0x24
 8001354:	46bd      	mov	sp, r7
 8001356:	f85d 7b04 	ldr.w	r7, [sp], #4
 800135a:	4770      	bx	lr
 800135c:	40023800 	.word	0x40023800
 8001360:	40013800 	.word	0x40013800
 8001364:	40020000 	.word	0x40020000
 8001368:	40020400 	.word	0x40020400
 800136c:	40020800 	.word	0x40020800
 8001370:	40020c00 	.word	0x40020c00
 8001374:	40021000 	.word	0x40021000
 8001378:	40021400 	.word	0x40021400
 800137c:	40021800 	.word	0x40021800
 8001380:	40021c00 	.word	0x40021c00
 8001384:	40013c00 	.word	0x40013c00

08001388 <HAL_GPIO_WritePin>:
  *            @arg GPIO_PIN_RESET: to clear the port pin
  *            @arg GPIO_PIN_SET: to set the port pin
  * @retval None
  */
void HAL_GPIO_WritePin(GPIO_TypeDef* GPIOx, uint16_t GPIO_Pin, GPIO_PinState PinState)
{
 8001388:	b480      	push	{r7}
 800138a:	b083      	sub	sp, #12
 800138c:	af00      	add	r7, sp, #0
 800138e:	6078      	str	r0, [r7, #4]
 8001390:	460b      	mov	r3, r1
 8001392:	807b      	strh	r3, [r7, #2]
 8001394:	4613      	mov	r3, r2
 8001396:	707b      	strb	r3, [r7, #1]
  /* Check the parameters */
  assert_param(IS_GPIO_PIN(GPIO_Pin));
  assert_param(IS_GPIO_PIN_ACTION(PinState));

  if(PinState != GPIO_PIN_RESET)
 8001398:	787b      	ldrb	r3, [r7, #1]
 800139a:	2b00      	cmp	r3, #0
 800139c:	d003      	beq.n	80013a6 <HAL_GPIO_WritePin+0x1e>
  {
    GPIOx->BSRR = GPIO_Pin;
 800139e:	887a      	ldrh	r2, [r7, #2]
 80013a0:	687b      	ldr	r3, [r7, #4]
 80013a2:	619a      	str	r2, [r3, #24]
  }
  else
  {
    GPIOx->BSRR = (uint32_t)GPIO_Pin << 16U;
  }
}
 80013a4:	e003      	b.n	80013ae <HAL_GPIO_WritePin+0x26>
    GPIOx->BSRR = (uint32_t)GPIO_Pin << 16U;
 80013a6:	887b      	ldrh	r3, [r7, #2]
 80013a8:	041a      	lsls	r2, r3, #16
 80013aa:	687b      	ldr	r3, [r7, #4]
 80013ac:	619a      	str	r2, [r3, #24]
}
 80013ae:	bf00      	nop
 80013b0:	370c      	adds	r7, #12
 80013b2:	46bd      	mov	sp, r7
 80013b4:	f85d 7b04 	ldr.w	r7, [sp], #4
 80013b8:	4770      	bx	lr

080013ba <HAL_HCD_Init>:
  * @brief  Initialize the host driver.
  * @param  hhcd HCD handle
  * @retval HAL status
  */
HAL_StatusTypeDef HAL_HCD_Init(HCD_HandleTypeDef *hhcd)
{
 80013ba:	b5f0      	push	{r4, r5, r6, r7, lr}
 80013bc:	b08f      	sub	sp, #60	; 0x3c
 80013be:	af0a      	add	r7, sp, #40	; 0x28
 80013c0:	6078      	str	r0, [r7, #4]
  USB_OTG_GlobalTypeDef *USBx;

  /* Check the HCD handle allocation */
  if (hhcd == NULL)
 80013c2:	687b      	ldr	r3, [r7, #4]
 80013c4:	2b00      	cmp	r3, #0
 80013c6:	d101      	bne.n	80013cc <HAL_HCD_Init+0x12>
  {
    return HAL_ERROR;
 80013c8:	2301      	movs	r3, #1
 80013ca:	e054      	b.n	8001476 <HAL_HCD_Init+0xbc>
  }

  /* Check the parameters */
  assert_param(IS_HCD_ALL_INSTANCE(hhcd->Instance));

  USBx = hhcd->Instance;
 80013cc:	687b      	ldr	r3, [r7, #4]
 80013ce:	681b      	ldr	r3, [r3, #0]
 80013d0:	60fb      	str	r3, [r7, #12]

  if (hhcd->State == HAL_HCD_STATE_RESET)
 80013d2:	687b      	ldr	r3, [r7, #4]
 80013d4:	f893 32b9 	ldrb.w	r3, [r3, #697]	; 0x2b9
 80013d8:	b2db      	uxtb	r3, r3
 80013da:	2b00      	cmp	r3, #0
 80013dc:	d106      	bne.n	80013ec <HAL_HCD_Init+0x32>
  {
    /* Allocate lock resource and initialize it */
    hhcd->Lock = HAL_UNLOCKED;
 80013de:	687b      	ldr	r3, [r7, #4]
 80013e0:	2200      	movs	r2, #0
 80013e2:	f883 22b8 	strb.w	r2, [r3, #696]	; 0x2b8

    /* Init the low level hardware */
    hhcd->MspInitCallback(hhcd);
#else
    /* Init the low level hardware : GPIO, CLOCK, NVIC... */
    HAL_HCD_MspInit(hhcd);
 80013e6:	6878      	ldr	r0, [r7, #4]
 80013e8:	f005 ffac 	bl	8007344 <HAL_HCD_MspInit>
#endif /* (USE_HAL_HCD_REGISTER_CALLBACKS) */
  }

  hhcd->State = HAL_HCD_STATE_BUSY;
 80013ec:	687b      	ldr	r3, [r7, #4]
 80013ee:	2203      	movs	r2, #3
 80013f0:	f883 22b9 	strb.w	r2, [r3, #697]	; 0x2b9

  /* Disable DMA mode for FS instance */
  if ((USBx->CID & (0x1U << 8)) == 0U)
 80013f4:	68fb      	ldr	r3, [r7, #12]
 80013f6:	6bdb      	ldr	r3, [r3, #60]	; 0x3c
 80013f8:	f403 7380 	and.w	r3, r3, #256	; 0x100
 80013fc:	2b00      	cmp	r3, #0
 80013fe:	d102      	bne.n	8001406 <HAL_HCD_Init+0x4c>
  {
    hhcd->Init.dma_enable = 0U;
 8001400:	687b      	ldr	r3, [r7, #4]
 8001402:	2200      	movs	r2, #0
 8001404:	611a      	str	r2, [r3, #16]
  }

  /* Disable the Interrupts */
  __HAL_HCD_DISABLE(hhcd);
 8001406:	687b      	ldr	r3, [r7, #4]
 8001408:	681b      	ldr	r3, [r3, #0]
 800140a:	4618      	mov	r0, r3
 800140c:	f003 f968 	bl	80046e0 <USB_DisableGlobalInt>

  /* Init the Core (common init.) */
  (void)USB_CoreInit(hhcd->Instance, hhcd->Init);
 8001410:	687b      	ldr	r3, [r7, #4]
 8001412:	681b      	ldr	r3, [r3, #0]
 8001414:	603b      	str	r3, [r7, #0]
 8001416:	687e      	ldr	r6, [r7, #4]
 8001418:	466d      	mov	r5, sp
 800141a:	f106 0410 	add.w	r4, r6, #16
 800141e:	cc0f      	ldmia	r4!, {r0, r1, r2, r3}
 8001420:	c50f      	stmia	r5!, {r0, r1, r2, r3}
 8001422:	cc0f      	ldmia	r4!, {r0, r1, r2, r3}
 8001424:	c50f      	stmia	r5!, {r0, r1, r2, r3}
 8001426:	e894 0003 	ldmia.w	r4, {r0, r1}
 800142a:	e885 0003 	stmia.w	r5, {r0, r1}
 800142e:	1d33      	adds	r3, r6, #4
 8001430:	cb0e      	ldmia	r3, {r1, r2, r3}
 8001432:	6838      	ldr	r0, [r7, #0]
 8001434:	f003 f8e2 	bl	80045fc <USB_CoreInit>

  /* Force Host Mode*/
  (void)USB_SetCurrentMode(hhcd->Instance, USB_HOST_MODE);
 8001438:	687b      	ldr	r3, [r7, #4]
 800143a:	681b      	ldr	r3, [r3, #0]
 800143c:	2101      	movs	r1, #1
 800143e:	4618      	mov	r0, r3
 8001440:	f003 f95f 	bl	8004702 <USB_SetCurrentMode>

  /* Init Host */
  (void)USB_HostInit(hhcd->Instance, hhcd->Init);
 8001444:	687b      	ldr	r3, [r7, #4]
 8001446:	681b      	ldr	r3, [r3, #0]
 8001448:	603b      	str	r3, [r7, #0]
 800144a:	687e      	ldr	r6, [r7, #4]
 800144c:	466d      	mov	r5, sp
 800144e:	f106 0410 	add.w	r4, r6, #16
 8001452:	cc0f      	ldmia	r4!, {r0, r1, r2, r3}
 8001454:	c50f      	stmia	r5!, {r0, r1, r2, r3}
 8001456:	cc0f      	ldmia	r4!, {r0, r1, r2, r3}
 8001458:	c50f      	stmia	r5!, {r0, r1, r2, r3}
 800145a:	e894 0003 	ldmia.w	r4, {r0, r1}
 800145e:	e885 0003 	stmia.w	r5, {r0, r1}
 8001462:	1d33      	adds	r3, r6, #4
 8001464:	cb0e      	ldmia	r3, {r1, r2, r3}
 8001466:	6838      	ldr	r0, [r7, #0]
 8001468:	f003 fa72 	bl	8004950 <USB_HostInit>

  hhcd->State = HAL_HCD_STATE_READY;
 800146c:	687b      	ldr	r3, [r7, #4]
 800146e:	2201      	movs	r2, #1
 8001470:	f883 22b9 	strb.w	r2, [r3, #697]	; 0x2b9

  return HAL_OK;
 8001474:	2300      	movs	r3, #0
}
 8001476:	4618      	mov	r0, r3
 8001478:	3714      	adds	r7, #20
 800147a:	46bd      	mov	sp, r7
 800147c:	bdf0      	pop	{r4, r5, r6, r7, pc}

0800147e <HAL_HCD_HC_Init>:
                                  uint8_t epnum,
                                  uint8_t dev_address,
                                  uint8_t speed,
                                  uint8_t ep_type,
                                  uint16_t mps)
{
 800147e:	b590      	push	{r4, r7, lr}
 8001480:	b089      	sub	sp, #36	; 0x24
 8001482:	af04      	add	r7, sp, #16
 8001484:	6078      	str	r0, [r7, #4]
 8001486:	4608      	mov	r0, r1
 8001488:	4611      	mov	r1, r2
 800148a:	461a      	mov	r2, r3
 800148c:	4603      	mov	r3, r0
 800148e:	70fb      	strb	r3, [r7, #3]
 8001490:	460b      	mov	r3, r1
 8001492:	70bb      	strb	r3, [r7, #2]
 8001494:	4613      	mov	r3, r2
 8001496:	707b      	strb	r3, [r7, #1]
  HAL_StatusTypeDef status;

  __HAL_LOCK(hhcd);
 8001498:	687b      	ldr	r3, [r7, #4]
 800149a:	f893 32b8 	ldrb.w	r3, [r3, #696]	; 0x2b8
 800149e:	2b01      	cmp	r3, #1
 80014a0:	d101      	bne.n	80014a6 <HAL_HCD_HC_Init+0x28>
 80014a2:	2302      	movs	r3, #2
 80014a4:	e07f      	b.n	80015a6 <HAL_HCD_HC_Init+0x128>
 80014a6:	687b      	ldr	r3, [r7, #4]
 80014a8:	2201      	movs	r2, #1
 80014aa:	f883 22b8 	strb.w	r2, [r3, #696]	; 0x2b8
  hhcd->hc[ch_num].do_ping = 0U;
 80014ae:	78fa      	ldrb	r2, [r7, #3]
 80014b0:	6879      	ldr	r1, [r7, #4]
 80014b2:	4613      	mov	r3, r2
 80014b4:	009b      	lsls	r3, r3, #2
 80014b6:	4413      	add	r3, r2
 80014b8:	00db      	lsls	r3, r3, #3
 80014ba:	440b      	add	r3, r1
 80014bc:	333d      	adds	r3, #61	; 0x3d
 80014be:	2200      	movs	r2, #0
 80014c0:	701a      	strb	r2, [r3, #0]
  hhcd->hc[ch_num].dev_addr = dev_address;
 80014c2:	78fa      	ldrb	r2, [r7, #3]
 80014c4:	6879      	ldr	r1, [r7, #4]
 80014c6:	4613      	mov	r3, r2
 80014c8:	009b      	lsls	r3, r3, #2
 80014ca:	4413      	add	r3, r2
 80014cc:	00db      	lsls	r3, r3, #3
 80014ce:	440b      	add	r3, r1
 80014d0:	3338      	adds	r3, #56	; 0x38
 80014d2:	787a      	ldrb	r2, [r7, #1]
 80014d4:	701a      	strb	r2, [r3, #0]
  hhcd->hc[ch_num].max_packet = mps;
 80014d6:	78fa      	ldrb	r2, [r7, #3]
 80014d8:	6879      	ldr	r1, [r7, #4]
 80014da:	4613      	mov	r3, r2
 80014dc:	009b      	lsls	r3, r3, #2
 80014de:	4413      	add	r3, r2
 80014e0:	00db      	lsls	r3, r3, #3
 80014e2:	440b      	add	r3, r1
 80014e4:	3340      	adds	r3, #64	; 0x40
 80014e6:	8d3a      	ldrh	r2, [r7, #40]	; 0x28
 80014e8:	801a      	strh	r2, [r3, #0]
  hhcd->hc[ch_num].ch_num = ch_num;
 80014ea:	78fa      	ldrb	r2, [r7, #3]
 80014ec:	6879      	ldr	r1, [r7, #4]
 80014ee:	4613      	mov	r3, r2
 80014f0:	009b      	lsls	r3, r3, #2
 80014f2:	4413      	add	r3, r2
 80014f4:	00db      	lsls	r3, r3, #3
 80014f6:	440b      	add	r3, r1
 80014f8:	3339      	adds	r3, #57	; 0x39
 80014fa:	78fa      	ldrb	r2, [r7, #3]
 80014fc:	701a      	strb	r2, [r3, #0]
  hhcd->hc[ch_num].ep_type = ep_type;
 80014fe:	78fa      	ldrb	r2, [r7, #3]
 8001500:	6879      	ldr	r1, [r7, #4]
 8001502:	4613      	mov	r3, r2
 8001504:	009b      	lsls	r3, r3, #2
 8001506:	4413      	add	r3, r2
 8001508:	00db      	lsls	r3, r3, #3
 800150a:	440b      	add	r3, r1
 800150c:	333f      	adds	r3, #63	; 0x3f
 800150e:	f897 2024 	ldrb.w	r2, [r7, #36]	; 0x24
 8001512:	701a      	strb	r2, [r3, #0]
  hhcd->hc[ch_num].ep_num = epnum & 0x7FU;
 8001514:	78fa      	ldrb	r2, [r7, #3]
 8001516:	78bb      	ldrb	r3, [r7, #2]
 8001518:	f003 037f 	and.w	r3, r3, #127	; 0x7f
 800151c:	b2d8      	uxtb	r0, r3
 800151e:	6879      	ldr	r1, [r7, #4]
 8001520:	4613      	mov	r3, r2
 8001522:	009b      	lsls	r3, r3, #2
 8001524:	4413      	add	r3, r2
 8001526:	00db      	lsls	r3, r3, #3
 8001528:	440b      	add	r3, r1
 800152a:	333a      	adds	r3, #58	; 0x3a
 800152c:	4602      	mov	r2, r0
 800152e:	701a      	strb	r2, [r3, #0]

  if ((epnum & 0x80U) == 0x80U)
 8001530:	f997 3002 	ldrsb.w	r3, [r7, #2]
 8001534:	2b00      	cmp	r3, #0
 8001536:	da0a      	bge.n	800154e <HAL_HCD_HC_Init+0xd0>
  {
    hhcd->hc[ch_num].ep_is_in = 1U;
 8001538:	78fa      	ldrb	r2, [r7, #3]
 800153a:	6879      	ldr	r1, [r7, #4]
 800153c:	4613      	mov	r3, r2
 800153e:	009b      	lsls	r3, r3, #2
 8001540:	4413      	add	r3, r2
 8001542:	00db      	lsls	r3, r3, #3
 8001544:	440b      	add	r3, r1
 8001546:	333b      	adds	r3, #59	; 0x3b
 8001548:	2201      	movs	r2, #1
 800154a:	701a      	strb	r2, [r3, #0]
 800154c:	e009      	b.n	8001562 <HAL_HCD_HC_Init+0xe4>
  }
  else
  {
    hhcd->hc[ch_num].ep_is_in = 0U;
 800154e:	78fa      	ldrb	r2, [r7, #3]
 8001550:	6879      	ldr	r1, [r7, #4]
 8001552:	4613      	mov	r3, r2
 8001554:	009b      	lsls	r3, r3, #2
 8001556:	4413      	add	r3, r2
 8001558:	00db      	lsls	r3, r3, #3
 800155a:	440b      	add	r3, r1
 800155c:	333b      	adds	r3, #59	; 0x3b
 800155e:	2200      	movs	r2, #0
 8001560:	701a      	strb	r2, [r3, #0]
  }

  hhcd->hc[ch_num].speed = speed;
 8001562:	78fa      	ldrb	r2, [r7, #3]
 8001564:	6879      	ldr	r1, [r7, #4]
 8001566:	4613      	mov	r3, r2
 8001568:	009b      	lsls	r3, r3, #2
 800156a:	4413      	add	r3, r2
 800156c:	00db      	lsls	r3, r3, #3
 800156e:	440b      	add	r3, r1
 8001570:	333c      	adds	r3, #60	; 0x3c
 8001572:	f897 2020 	ldrb.w	r2, [r7, #32]
 8001576:	701a      	strb	r2, [r3, #0]

  status =  USB_HC_Init(hhcd->Instance,
 8001578:	687b      	ldr	r3, [r7, #4]
 800157a:	6818      	ldr	r0, [r3, #0]
 800157c:	787c      	ldrb	r4, [r7, #1]
 800157e:	78ba      	ldrb	r2, [r7, #2]
 8001580:	78f9      	ldrb	r1, [r7, #3]
 8001582:	8d3b      	ldrh	r3, [r7, #40]	; 0x28
 8001584:	9302      	str	r3, [sp, #8]
 8001586:	f897 3024 	ldrb.w	r3, [r7, #36]	; 0x24
 800158a:	9301      	str	r3, [sp, #4]
 800158c:	f897 3020 	ldrb.w	r3, [r7, #32]
 8001590:	9300      	str	r3, [sp, #0]
 8001592:	4623      	mov	r3, r4
 8001594:	f003 fb5e 	bl	8004c54 <USB_HC_Init>
 8001598:	4603      	mov	r3, r0
 800159a:	73fb      	strb	r3, [r7, #15]
                        epnum,
                        dev_address,
                        speed,
                        ep_type,
                        mps);
  __HAL_UNLOCK(hhcd);
 800159c:	687b      	ldr	r3, [r7, #4]
 800159e:	2200      	movs	r2, #0
 80015a0:	f883 22b8 	strb.w	r2, [r3, #696]	; 0x2b8

  return status;
 80015a4:	7bfb      	ldrb	r3, [r7, #15]
}
 80015a6:	4618      	mov	r0, r3
 80015a8:	3714      	adds	r7, #20
 80015aa:	46bd      	mov	sp, r7
 80015ac:	bd90      	pop	{r4, r7, pc}

080015ae <HAL_HCD_HC_Halt>:
  * @param  ch_num Channel number.
  *         This parameter can be a value from 1 to 15
  * @retval HAL status
  */
HAL_StatusTypeDef HAL_HCD_HC_Halt(HCD_HandleTypeDef *hhcd, uint8_t ch_num)
{
 80015ae:	b580      	push	{r7, lr}
 80015b0:	b084      	sub	sp, #16
 80015b2:	af00      	add	r7, sp, #0
 80015b4:	6078      	str	r0, [r7, #4]
 80015b6:	460b      	mov	r3, r1
 80015b8:	70fb      	strb	r3, [r7, #3]
  HAL_StatusTypeDef status = HAL_OK;
 80015ba:	2300      	movs	r3, #0
 80015bc:	73fb      	strb	r3, [r7, #15]

  __HAL_LOCK(hhcd);
 80015be:	687b      	ldr	r3, [r7, #4]
 80015c0:	f893 32b8 	ldrb.w	r3, [r3, #696]	; 0x2b8
 80015c4:	2b01      	cmp	r3, #1
 80015c6:	d101      	bne.n	80015cc <HAL_HCD_HC_Halt+0x1e>
 80015c8:	2302      	movs	r3, #2
 80015ca:	e00f      	b.n	80015ec <HAL_HCD_HC_Halt+0x3e>
 80015cc:	687b      	ldr	r3, [r7, #4]
 80015ce:	2201      	movs	r2, #1
 80015d0:	f883 22b8 	strb.w	r2, [r3, #696]	; 0x2b8
  (void)USB_HC_Halt(hhcd->Instance, (uint8_t)ch_num);
 80015d4:	687b      	ldr	r3, [r7, #4]
 80015d6:	681b      	ldr	r3, [r3, #0]
 80015d8:	78fa      	ldrb	r2, [r7, #3]
 80015da:	4611      	mov	r1, r2
 80015dc:	4618      	mov	r0, r3
 80015de:	f003 fd9a 	bl	8005116 <USB_HC_Halt>
  __HAL_UNLOCK(hhcd);
 80015e2:	687b      	ldr	r3, [r7, #4]
 80015e4:	2200      	movs	r2, #0
 80015e6:	f883 22b8 	strb.w	r2, [r3, #696]	; 0x2b8

  return status;
 80015ea:	7bfb      	ldrb	r3, [r7, #15]
}
 80015ec:	4618      	mov	r0, r3
 80015ee:	3710      	adds	r7, #16
 80015f0:	46bd      	mov	sp, r7
 80015f2:	bd80      	pop	{r7, pc}

080015f4 <HAL_HCD_HC_SubmitRequest>:
                                           uint8_t ep_type,
                                           uint8_t token,
                                           uint8_t *pbuff,
                                           uint16_t length,
                                           uint8_t do_ping)
{
 80015f4:	b580      	push	{r7, lr}
 80015f6:	b082      	sub	sp, #8
 80015f8:	af00      	add	r7, sp, #0
 80015fa:	6078      	str	r0, [r7, #4]
 80015fc:	4608      	mov	r0, r1
 80015fe:	4611      	mov	r1, r2
 8001600:	461a      	mov	r2, r3
 8001602:	4603      	mov	r3, r0
 8001604:	70fb      	strb	r3, [r7, #3]
 8001606:	460b      	mov	r3, r1
 8001608:	70bb      	strb	r3, [r7, #2]
 800160a:	4613      	mov	r3, r2
 800160c:	707b      	strb	r3, [r7, #1]
  hhcd->hc[ch_num].ep_is_in = direction;
 800160e:	78fa      	ldrb	r2, [r7, #3]
 8001610:	6879      	ldr	r1, [r7, #4]
 8001612:	4613      	mov	r3, r2
 8001614:	009b      	lsls	r3, r3, #2
 8001616:	4413      	add	r3, r2
 8001618:	00db      	lsls	r3, r3, #3
 800161a:	440b      	add	r3, r1
 800161c:	333b      	adds	r3, #59	; 0x3b
 800161e:	78ba      	ldrb	r2, [r7, #2]
 8001620:	701a      	strb	r2, [r3, #0]
  hhcd->hc[ch_num].ep_type  = ep_type;
 8001622:	78fa      	ldrb	r2, [r7, #3]
 8001624:	6879      	ldr	r1, [r7, #4]
 8001626:	4613      	mov	r3, r2
 8001628:	009b      	lsls	r3, r3, #2
 800162a:	4413      	add	r3, r2
 800162c:	00db      	lsls	r3, r3, #3
 800162e:	440b      	add	r3, r1
 8001630:	333f      	adds	r3, #63	; 0x3f
 8001632:	787a      	ldrb	r2, [r7, #1]
 8001634:	701a      	strb	r2, [r3, #0]

  if (token == 0U)
 8001636:	7c3b      	ldrb	r3, [r7, #16]
 8001638:	2b00      	cmp	r3, #0
 800163a:	d114      	bne.n	8001666 <HAL_HCD_HC_SubmitRequest+0x72>
  {
    hhcd->hc[ch_num].data_pid = HC_PID_SETUP;
 800163c:	78fa      	ldrb	r2, [r7, #3]
 800163e:	6879      	ldr	r1, [r7, #4]
 8001640:	4613      	mov	r3, r2
 8001642:	009b      	lsls	r3, r3, #2
 8001644:	4413      	add	r3, r2
 8001646:	00db      	lsls	r3, r3, #3
 8001648:	440b      	add	r3, r1
 800164a:	3342      	adds	r3, #66	; 0x42
 800164c:	2203      	movs	r2, #3
 800164e:	701a      	strb	r2, [r3, #0]
    hhcd->hc[ch_num].do_ping = do_ping;
 8001650:	78fa      	ldrb	r2, [r7, #3]
 8001652:	6879      	ldr	r1, [r7, #4]
 8001654:	4613      	mov	r3, r2
 8001656:	009b      	lsls	r3, r3, #2
 8001658:	4413      	add	r3, r2
 800165a:	00db      	lsls	r3, r3, #3
 800165c:	440b      	add	r3, r1
 800165e:	333d      	adds	r3, #61	; 0x3d
 8001660:	7f3a      	ldrb	r2, [r7, #28]
 8001662:	701a      	strb	r2, [r3, #0]
 8001664:	e009      	b.n	800167a <HAL_HCD_HC_SubmitRequest+0x86>
  }
  else
  {
    hhcd->hc[ch_num].data_pid = HC_PID_DATA1;
 8001666:	78fa      	ldrb	r2, [r7, #3]
 8001668:	6879      	ldr	r1, [r7, #4]
 800166a:	4613      	mov	r3, r2
 800166c:	009b      	lsls	r3, r3, #2
 800166e:	4413      	add	r3, r2
 8001670:	00db      	lsls	r3, r3, #3
 8001672:	440b      	add	r3, r1
 8001674:	3342      	adds	r3, #66	; 0x42
 8001676:	2202      	movs	r2, #2
 8001678:	701a      	strb	r2, [r3, #0]
  }

  /* Manage Data Toggle */
  switch (ep_type)
 800167a:	787b      	ldrb	r3, [r7, #1]
 800167c:	2b03      	cmp	r3, #3
 800167e:	f200 80d6 	bhi.w	800182e <HAL_HCD_HC_SubmitRequest+0x23a>
 8001682:	a201      	add	r2, pc, #4	; (adr r2, 8001688 <HAL_HCD_HC_SubmitRequest+0x94>)
 8001684:	f852 f023 	ldr.w	pc, [r2, r3, lsl #2]
 8001688:	08001699 	.word	0x08001699
 800168c:	08001819 	.word	0x08001819
 8001690:	08001705 	.word	0x08001705
 8001694:	0800178f 	.word	0x0800178f
  {
    case EP_TYPE_CTRL:
      if ((token == 1U) && (direction == 0U)) /*send data */
 8001698:	7c3b      	ldrb	r3, [r7, #16]
 800169a:	2b01      	cmp	r3, #1
 800169c:	f040 80c9 	bne.w	8001832 <HAL_HCD_HC_SubmitRequest+0x23e>
 80016a0:	78bb      	ldrb	r3, [r7, #2]
 80016a2:	2b00      	cmp	r3, #0
 80016a4:	f040 80c5 	bne.w	8001832 <HAL_HCD_HC_SubmitRequest+0x23e>
      {
        if (length == 0U)
 80016a8:	8b3b      	ldrh	r3, [r7, #24]
 80016aa:	2b00      	cmp	r3, #0
 80016ac:	d109      	bne.n	80016c2 <HAL_HCD_HC_SubmitRequest+0xce>
        {
          /* For Status OUT stage, Length==0, Status Out PID = 1 */
          hhcd->hc[ch_num].toggle_out = 1U;
 80016ae:	78fa      	ldrb	r2, [r7, #3]
 80016b0:	6879      	ldr	r1, [r7, #4]
 80016b2:	4613      	mov	r3, r2
 80016b4:	009b      	lsls	r3, r3, #2
 80016b6:	4413      	add	r3, r2
 80016b8:	00db      	lsls	r3, r3, #3
 80016ba:	440b      	add	r3, r1
 80016bc:	3351      	adds	r3, #81	; 0x51
 80016be:	2201      	movs	r2, #1
 80016c0:	701a      	strb	r2, [r3, #0]
        }

        /* Set the Data Toggle bit as per the Flag */
        if (hhcd->hc[ch_num].toggle_out == 0U)
 80016c2:	78fa      	ldrb	r2, [r7, #3]
 80016c4:	6879      	ldr	r1, [r7, #4]
 80016c6:	4613      	mov	r3, r2
 80016c8:	009b      	lsls	r3, r3, #2
 80016ca:	4413      	add	r3, r2
 80016cc:	00db      	lsls	r3, r3, #3
 80016ce:	440b      	add	r3, r1
 80016d0:	3351      	adds	r3, #81	; 0x51
 80016d2:	781b      	ldrb	r3, [r3, #0]
 80016d4:	2b00      	cmp	r3, #0
 80016d6:	d10a      	bne.n	80016ee <HAL_HCD_HC_SubmitRequest+0xfa>
        {
          /* Put the PID 0 */
          hhcd->hc[ch_num].data_pid = HC_PID_DATA0;
 80016d8:	78fa      	ldrb	r2, [r7, #3]
 80016da:	6879      	ldr	r1, [r7, #4]
 80016dc:	4613      	mov	r3, r2
 80016de:	009b      	lsls	r3, r3, #2
 80016e0:	4413      	add	r3, r2
 80016e2:	00db      	lsls	r3, r3, #3
 80016e4:	440b      	add	r3, r1
 80016e6:	3342      	adds	r3, #66	; 0x42
 80016e8:	2200      	movs	r2, #0
 80016ea:	701a      	strb	r2, [r3, #0]
        {
          /* Put the PID 1 */
          hhcd->hc[ch_num].data_pid = HC_PID_DATA1;
        }
      }
      break;
 80016ec:	e0a1      	b.n	8001832 <HAL_HCD_HC_SubmitRequest+0x23e>
          hhcd->hc[ch_num].data_pid = HC_PID_DATA1;
 80016ee:	78fa      	ldrb	r2, [r7, #3]
 80016f0:	6879      	ldr	r1, [r7, #4]
 80016f2:	4613      	mov	r3, r2
 80016f4:	009b      	lsls	r3, r3, #2
 80016f6:	4413      	add	r3, r2
 80016f8:	00db      	lsls	r3, r3, #3
 80016fa:	440b      	add	r3, r1
 80016fc:	3342      	adds	r3, #66	; 0x42
 80016fe:	2202      	movs	r2, #2
 8001700:	701a      	strb	r2, [r3, #0]
      break;
 8001702:	e096      	b.n	8001832 <HAL_HCD_HC_SubmitRequest+0x23e>

    case EP_TYPE_BULK:
      if (direction == 0U)
 8001704:	78bb      	ldrb	r3, [r7, #2]
 8001706:	2b00      	cmp	r3, #0
 8001708:	d120      	bne.n	800174c <HAL_HCD_HC_SubmitRequest+0x158>
      {
        /* Set the Data Toggle bit as per the Flag */
        if (hhcd->hc[ch_num].toggle_out == 0U)
 800170a:	78fa      	ldrb	r2, [r7, #3]
 800170c:	6879      	ldr	r1, [r7, #4]
 800170e:	4613      	mov	r3, r2
 8001710:	009b      	lsls	r3, r3, #2
 8001712:	4413      	add	r3, r2
 8001714:	00db      	lsls	r3, r3, #3
 8001716:	440b      	add	r3, r1
 8001718:	3351      	adds	r3, #81	; 0x51
 800171a:	781b      	ldrb	r3, [r3, #0]
 800171c:	2b00      	cmp	r3, #0
 800171e:	d10a      	bne.n	8001736 <HAL_HCD_HC_SubmitRequest+0x142>
        {
          /* Put the PID 0 */
          hhcd->hc[ch_num].data_pid = HC_PID_DATA0;
 8001720:	78fa      	ldrb	r2, [r7, #3]
 8001722:	6879      	ldr	r1, [r7, #4]
 8001724:	4613      	mov	r3, r2
 8001726:	009b      	lsls	r3, r3, #2
 8001728:	4413      	add	r3, r2
 800172a:	00db      	lsls	r3, r3, #3
 800172c:	440b      	add	r3, r1
 800172e:	3342      	adds	r3, #66	; 0x42
 8001730:	2200      	movs	r2, #0
 8001732:	701a      	strb	r2, [r3, #0]
        {
          hhcd->hc[ch_num].data_pid = HC_PID_DATA1;
        }
      }

      break;
 8001734:	e07e      	b.n	8001834 <HAL_HCD_HC_SubmitRequest+0x240>
          hhcd->hc[ch_num].data_pid = HC_PID_DATA1;
 8001736:	78fa      	ldrb	r2, [r7, #3]
 8001738:	6879      	ldr	r1, [r7, #4]
 800173a:	4613      	mov	r3, r2
 800173c:	009b      	lsls	r3, r3, #2
 800173e:	4413      	add	r3, r2
 8001740:	00db      	lsls	r3, r3, #3
 8001742:	440b      	add	r3, r1
 8001744:	3342      	adds	r3, #66	; 0x42
 8001746:	2202      	movs	r2, #2
 8001748:	701a      	strb	r2, [r3, #0]
      break;
 800174a:	e073      	b.n	8001834 <HAL_HCD_HC_SubmitRequest+0x240>
        if (hhcd->hc[ch_num].toggle_in == 0U)
 800174c:	78fa      	ldrb	r2, [r7, #3]
 800174e:	6879      	ldr	r1, [r7, #4]
 8001750:	4613      	mov	r3, r2
 8001752:	009b      	lsls	r3, r3, #2
 8001754:	4413      	add	r3, r2
 8001756:	00db      	lsls	r3, r3, #3
 8001758:	440b      	add	r3, r1
 800175a:	3350      	adds	r3, #80	; 0x50
 800175c:	781b      	ldrb	r3, [r3, #0]
 800175e:	2b00      	cmp	r3, #0
 8001760:	d10a      	bne.n	8001778 <HAL_HCD_HC_SubmitRequest+0x184>
          hhcd->hc[ch_num].data_pid = HC_PID_DATA0;
 8001762:	78fa      	ldrb	r2, [r7, #3]
 8001764:	6879      	ldr	r1, [r7, #4]
 8001766:	4613      	mov	r3, r2
 8001768:	009b      	lsls	r3, r3, #2
 800176a:	4413      	add	r3, r2
 800176c:	00db      	lsls	r3, r3, #3
 800176e:	440b      	add	r3, r1
 8001770:	3342      	adds	r3, #66	; 0x42
 8001772:	2200      	movs	r2, #0
 8001774:	701a      	strb	r2, [r3, #0]
      break;
 8001776:	e05d      	b.n	8001834 <HAL_HCD_HC_SubmitRequest+0x240>
          hhcd->hc[ch_num].data_pid = HC_PID_DATA1;
 8001778:	78fa      	ldrb	r2, [r7, #3]
 800177a:	6879      	ldr	r1, [r7, #4]
 800177c:	4613      	mov	r3, r2
 800177e:	009b      	lsls	r3, r3, #2
 8001780:	4413      	add	r3, r2
 8001782:	00db      	lsls	r3, r3, #3
 8001784:	440b      	add	r3, r1
 8001786:	3342      	adds	r3, #66	; 0x42
 8001788:	2202      	movs	r2, #2
 800178a:	701a      	strb	r2, [r3, #0]
      break;
 800178c:	e052      	b.n	8001834 <HAL_HCD_HC_SubmitRequest+0x240>
    case EP_TYPE_INTR:
      if (direction == 0U)
 800178e:	78bb      	ldrb	r3, [r7, #2]
 8001790:	2b00      	cmp	r3, #0
 8001792:	d120      	bne.n	80017d6 <HAL_HCD_HC_SubmitRequest+0x1e2>
      {
        /* Set the Data Toggle bit as per the Flag */
        if (hhcd->hc[ch_num].toggle_out == 0U)
 8001794:	78fa      	ldrb	r2, [r7, #3]
 8001796:	6879      	ldr	r1, [r7, #4]
 8001798:	4613      	mov	r3, r2
 800179a:	009b      	lsls	r3, r3, #2
 800179c:	4413      	add	r3, r2
 800179e:	00db      	lsls	r3, r3, #3
 80017a0:	440b      	add	r3, r1
 80017a2:	3351      	adds	r3, #81	; 0x51
 80017a4:	781b      	ldrb	r3, [r3, #0]
 80017a6:	2b00      	cmp	r3, #0
 80017a8:	d10a      	bne.n	80017c0 <HAL_HCD_HC_SubmitRequest+0x1cc>
        {
          /* Put the PID 0 */
          hhcd->hc[ch_num].data_pid = HC_PID_DATA0;
 80017aa:	78fa      	ldrb	r2, [r7, #3]
 80017ac:	6879      	ldr	r1, [r7, #4]
 80017ae:	4613      	mov	r3, r2
 80017b0:	009b      	lsls	r3, r3, #2
 80017b2:	4413      	add	r3, r2
 80017b4:	00db      	lsls	r3, r3, #3
 80017b6:	440b      	add	r3, r1
 80017b8:	3342      	adds	r3, #66	; 0x42
 80017ba:	2200      	movs	r2, #0
 80017bc:	701a      	strb	r2, [r3, #0]
        else
        {
          hhcd->hc[ch_num].data_pid = HC_PID_DATA1;
        }
      }
      break;
 80017be:	e039      	b.n	8001834 <HAL_HCD_HC_SubmitRequest+0x240>
          hhcd->hc[ch_num].data_pid = HC_PID_DATA1;
 80017c0:	78fa      	ldrb	r2, [r7, #3]
 80017c2:	6879      	ldr	r1, [r7, #4]
 80017c4:	4613      	mov	r3, r2
 80017c6:	009b      	lsls	r3, r3, #2
 80017c8:	4413      	add	r3, r2
 80017ca:	00db      	lsls	r3, r3, #3
 80017cc:	440b      	add	r3, r1
 80017ce:	3342      	adds	r3, #66	; 0x42
 80017d0:	2202      	movs	r2, #2
 80017d2:	701a      	strb	r2, [r3, #0]
      break;
 80017d4:	e02e      	b.n	8001834 <HAL_HCD_HC_SubmitRequest+0x240>
        if (hhcd->hc[ch_num].toggle_in == 0U)
 80017d6:	78fa      	ldrb	r2, [r7, #3]
 80017d8:	6879      	ldr	r1, [r7, #4]
 80017da:	4613      	mov	r3, r2
 80017dc:	009b      	lsls	r3, r3, #2
 80017de:	4413      	add	r3, r2
 80017e0:	00db      	lsls	r3, r3, #3
 80017e2:	440b      	add	r3, r1
 80017e4:	3350      	adds	r3, #80	; 0x50
 80017e6:	781b      	ldrb	r3, [r3, #0]
 80017e8:	2b00      	cmp	r3, #0
 80017ea:	d10a      	bne.n	8001802 <HAL_HCD_HC_SubmitRequest+0x20e>
          hhcd->hc[ch_num].data_pid = HC_PID_DATA0;
 80017ec:	78fa      	ldrb	r2, [r7, #3]
 80017ee:	6879      	ldr	r1, [r7, #4]
 80017f0:	4613      	mov	r3, r2
 80017f2:	009b      	lsls	r3, r3, #2
 80017f4:	4413      	add	r3, r2
 80017f6:	00db      	lsls	r3, r3, #3
 80017f8:	440b      	add	r3, r1
 80017fa:	3342      	adds	r3, #66	; 0x42
 80017fc:	2200      	movs	r2, #0
 80017fe:	701a      	strb	r2, [r3, #0]
      break;
 8001800:	e018      	b.n	8001834 <HAL_HCD_HC_SubmitRequest+0x240>
          hhcd->hc[ch_num].data_pid = HC_PID_DATA1;
 8001802:	78fa      	ldrb	r2, [r7, #3]
 8001804:	6879      	ldr	r1, [r7, #4]
 8001806:	4613      	mov	r3, r2
 8001808:	009b      	lsls	r3, r3, #2
 800180a:	4413      	add	r3, r2
 800180c:	00db      	lsls	r3, r3, #3
 800180e:	440b      	add	r3, r1
 8001810:	3342      	adds	r3, #66	; 0x42
 8001812:	2202      	movs	r2, #2
 8001814:	701a      	strb	r2, [r3, #0]
      break;
 8001816:	e00d      	b.n	8001834 <HAL_HCD_HC_SubmitRequest+0x240>

    case EP_TYPE_ISOC:
      hhcd->hc[ch_num].data_pid = HC_PID_DATA0;
 8001818:	78fa      	ldrb	r2, [r7, #3]
 800181a:	6879      	ldr	r1, [r7, #4]
 800181c:	4613      	mov	r3, r2
 800181e:	009b      	lsls	r3, r3, #2
 8001820:	4413      	add	r3, r2
 8001822:	00db      	lsls	r3, r3, #3
 8001824:	440b      	add	r3, r1
 8001826:	3342      	adds	r3, #66	; 0x42
 8001828:	2200      	movs	r2, #0
 800182a:	701a      	strb	r2, [r3, #0]
      break;
 800182c:	e002      	b.n	8001834 <HAL_HCD_HC_SubmitRequest+0x240>

    default:
      break;
 800182e:	bf00      	nop
 8001830:	e000      	b.n	8001834 <HAL_HCD_HC_SubmitRequest+0x240>
      break;
 8001832:	bf00      	nop
  }

  hhcd->hc[ch_num].xfer_buff = pbuff;
 8001834:	78fa      	ldrb	r2, [r7, #3]
 8001836:	6879      	ldr	r1, [r7, #4]
 8001838:	4613      	mov	r3, r2
 800183a:	009b      	lsls	r3, r3, #2
 800183c:	4413      	add	r3, r2
 800183e:	00db      	lsls	r3, r3, #3
 8001840:	440b      	add	r3, r1
 8001842:	3344      	adds	r3, #68	; 0x44
 8001844:	697a      	ldr	r2, [r7, #20]
 8001846:	601a      	str	r2, [r3, #0]
  hhcd->hc[ch_num].xfer_len  = length;
 8001848:	78fa      	ldrb	r2, [r7, #3]
 800184a:	8b39      	ldrh	r1, [r7, #24]
 800184c:	6878      	ldr	r0, [r7, #4]
 800184e:	4613      	mov	r3, r2
 8001850:	009b      	lsls	r3, r3, #2
 8001852:	4413      	add	r3, r2
 8001854:	00db      	lsls	r3, r3, #3
 8001856:	4403      	add	r3, r0
 8001858:	3348      	adds	r3, #72	; 0x48
 800185a:	6019      	str	r1, [r3, #0]
  hhcd->hc[ch_num].urb_state = URB_IDLE;
 800185c:	78fa      	ldrb	r2, [r7, #3]
 800185e:	6879      	ldr	r1, [r7, #4]
 8001860:	4613      	mov	r3, r2
 8001862:	009b      	lsls	r3, r3, #2
 8001864:	4413      	add	r3, r2
 8001866:	00db      	lsls	r3, r3, #3
 8001868:	440b      	add	r3, r1
 800186a:	335c      	adds	r3, #92	; 0x5c
 800186c:	2200      	movs	r2, #0
 800186e:	701a      	strb	r2, [r3, #0]
  hhcd->hc[ch_num].xfer_count = 0U;
 8001870:	78fa      	ldrb	r2, [r7, #3]
 8001872:	6879      	ldr	r1, [r7, #4]
 8001874:	4613      	mov	r3, r2
 8001876:	009b      	lsls	r3, r3, #2
 8001878:	4413      	add	r3, r2
 800187a:	00db      	lsls	r3, r3, #3
 800187c:	440b      	add	r3, r1
 800187e:	334c      	adds	r3, #76	; 0x4c
 8001880:	2200      	movs	r2, #0
 8001882:	601a      	str	r2, [r3, #0]
  hhcd->hc[ch_num].ch_num = ch_num;
 8001884:	78fa      	ldrb	r2, [r7, #3]
 8001886:	6879      	ldr	r1, [r7, #4]
 8001888:	4613      	mov	r3, r2
 800188a:	009b      	lsls	r3, r3, #2
 800188c:	4413      	add	r3, r2
 800188e:	00db      	lsls	r3, r3, #3
 8001890:	440b      	add	r3, r1
 8001892:	3339      	adds	r3, #57	; 0x39
 8001894:	78fa      	ldrb	r2, [r7, #3]
 8001896:	701a      	strb	r2, [r3, #0]
  hhcd->hc[ch_num].state = HC_IDLE;
 8001898:	78fa      	ldrb	r2, [r7, #3]
 800189a:	6879      	ldr	r1, [r7, #4]
 800189c:	4613      	mov	r3, r2
 800189e:	009b      	lsls	r3, r3, #2
 80018a0:	4413      	add	r3, r2
 80018a2:	00db      	lsls	r3, r3, #3
 80018a4:	440b      	add	r3, r1
 80018a6:	335d      	adds	r3, #93	; 0x5d
 80018a8:	2200      	movs	r2, #0
 80018aa:	701a      	strb	r2, [r3, #0]

  return USB_HC_StartXfer(hhcd->Instance, &hhcd->hc[ch_num], (uint8_t)hhcd->Init.dma_enable);
 80018ac:	687b      	ldr	r3, [r7, #4]
 80018ae:	6818      	ldr	r0, [r3, #0]
 80018b0:	78fa      	ldrb	r2, [r7, #3]
 80018b2:	4613      	mov	r3, r2
 80018b4:	009b      	lsls	r3, r3, #2
 80018b6:	4413      	add	r3, r2
 80018b8:	00db      	lsls	r3, r3, #3
 80018ba:	3338      	adds	r3, #56	; 0x38
 80018bc:	687a      	ldr	r2, [r7, #4]
 80018be:	18d1      	adds	r1, r2, r3
 80018c0:	687b      	ldr	r3, [r7, #4]
 80018c2:	691b      	ldr	r3, [r3, #16]
 80018c4:	b2db      	uxtb	r3, r3
 80018c6:	461a      	mov	r2, r3
 80018c8:	f003 face 	bl	8004e68 <USB_HC_StartXfer>
 80018cc:	4603      	mov	r3, r0
}
 80018ce:	4618      	mov	r0, r3
 80018d0:	3708      	adds	r7, #8
 80018d2:	46bd      	mov	sp, r7
 80018d4:	bd80      	pop	{r7, pc}
 80018d6:	bf00      	nop

080018d8 <HAL_HCD_IRQHandler>:
  * @brief  Handle HCD interrupt request.
  * @param  hhcd HCD handle
  * @retval None
  */
void HAL_HCD_IRQHandler(HCD_HandleTypeDef *hhcd)
{
 80018d8:	b580      	push	{r7, lr}
 80018da:	b086      	sub	sp, #24
 80018dc:	af00      	add	r7, sp, #0
 80018de:	6078      	str	r0, [r7, #4]
  USB_OTG_GlobalTypeDef *USBx = hhcd->Instance;
 80018e0:	687b      	ldr	r3, [r7, #4]
 80018e2:	681b      	ldr	r3, [r3, #0]
 80018e4:	613b      	str	r3, [r7, #16]
  uint32_t USBx_BASE = (uint32_t)USBx;
 80018e6:	693b      	ldr	r3, [r7, #16]
 80018e8:	60fb      	str	r3, [r7, #12]
  uint32_t i, interrupt;

  /* Ensure that we are in device mode */
  if (USB_GetMode(hhcd->Instance) == USB_OTG_MODE_HOST)
 80018ea:	687b      	ldr	r3, [r7, #4]
 80018ec:	681b      	ldr	r3, [r3, #0]
 80018ee:	4618      	mov	r0, r3
 80018f0:	f002 ffeb 	bl	80048ca <USB_GetMode>
 80018f4:	4603      	mov	r3, r0
 80018f6:	2b01      	cmp	r3, #1
 80018f8:	f040 80ef 	bne.w	8001ada <HAL_HCD_IRQHandler+0x202>
  {
    /* Avoid spurious interrupt */
    if (__HAL_HCD_IS_INVALID_INTERRUPT(hhcd))
 80018fc:	687b      	ldr	r3, [r7, #4]
 80018fe:	681b      	ldr	r3, [r3, #0]
 8001900:	4618      	mov	r0, r3
 8001902:	f002 ffcf 	bl	80048a4 <USB_ReadInterrupts>
 8001906:	4603      	mov	r3, r0
 8001908:	2b00      	cmp	r3, #0
 800190a:	f000 80e5 	beq.w	8001ad8 <HAL_HCD_IRQHandler+0x200>
    {
      return;
    }

    if (__HAL_HCD_GET_FLAG(hhcd, USB_OTG_GINTSTS_PXFR_INCOMPISOOUT))
 800190e:	687b      	ldr	r3, [r7, #4]
 8001910:	681b      	ldr	r3, [r3, #0]
 8001912:	4618      	mov	r0, r3
 8001914:	f002 ffc6 	bl	80048a4 <USB_ReadInterrupts>
 8001918:	4603      	mov	r3, r0
 800191a:	f403 1300 	and.w	r3, r3, #2097152	; 0x200000
 800191e:	f5b3 1f00 	cmp.w	r3, #2097152	; 0x200000
 8001922:	d104      	bne.n	800192e <HAL_HCD_IRQHandler+0x56>
    {
      /* Incorrect mode, acknowledge the interrupt */
      __HAL_HCD_CLEAR_FLAG(hhcd, USB_OTG_GINTSTS_PXFR_INCOMPISOOUT);
 8001924:	687b      	ldr	r3, [r7, #4]
 8001926:	681b      	ldr	r3, [r3, #0]
 8001928:	f44f 1200 	mov.w	r2, #2097152	; 0x200000
 800192c:	615a      	str	r2, [r3, #20]
    }

    if (__HAL_HCD_GET_FLAG(hhcd, USB_OTG_GINTSTS_IISOIXFR))
 800192e:	687b      	ldr	r3, [r7, #4]
 8001930:	681b      	ldr	r3, [r3, #0]
 8001932:	4618      	mov	r0, r3
 8001934:	f002 ffb6 	bl	80048a4 <USB_ReadInterrupts>
 8001938:	4603      	mov	r3, r0
 800193a:	f403 1380 	and.w	r3, r3, #1048576	; 0x100000
 800193e:	f5b3 1f80 	cmp.w	r3, #1048576	; 0x100000
 8001942:	d104      	bne.n	800194e <HAL_HCD_IRQHandler+0x76>
    {
      /* Incorrect mode, acknowledge the interrupt */
      __HAL_HCD_CLEAR_FLAG(hhcd, USB_OTG_GINTSTS_IISOIXFR);
 8001944:	687b      	ldr	r3, [r7, #4]
 8001946:	681b      	ldr	r3, [r3, #0]
 8001948:	f44f 1280 	mov.w	r2, #1048576	; 0x100000
 800194c:	615a      	str	r2, [r3, #20]
    }

    if (__HAL_HCD_GET_FLAG(hhcd, USB_OTG_GINTSTS_PTXFE))
 800194e:	687b      	ldr	r3, [r7, #4]
 8001950:	681b      	ldr	r3, [r3, #0]
 8001952:	4618      	mov	r0, r3
 8001954:	f002 ffa6 	bl	80048a4 <USB_ReadInterrupts>
 8001958:	4603      	mov	r3, r0
 800195a:	f003 6380 	and.w	r3, r3, #67108864	; 0x4000000
 800195e:	f1b3 6f80 	cmp.w	r3, #67108864	; 0x4000000
 8001962:	d104      	bne.n	800196e <HAL_HCD_IRQHandler+0x96>
    {
      /* Incorrect mode, acknowledge the interrupt */
      __HAL_HCD_CLEAR_FLAG(hhcd, USB_OTG_GINTSTS_PTXFE);
 8001964:	687b      	ldr	r3, [r7, #4]
 8001966:	681b      	ldr	r3, [r3, #0]
 8001968:	f04f 6280 	mov.w	r2, #67108864	; 0x4000000
 800196c:	615a      	str	r2, [r3, #20]
    }

    if (__HAL_HCD_GET_FLAG(hhcd, USB_OTG_GINTSTS_MMIS))
 800196e:	687b      	ldr	r3, [r7, #4]
 8001970:	681b      	ldr	r3, [r3, #0]
 8001972:	4618      	mov	r0, r3
 8001974:	f002 ff96 	bl	80048a4 <USB_ReadInterrupts>
 8001978:	4603      	mov	r3, r0
 800197a:	f003 0302 	and.w	r3, r3, #2
 800197e:	2b02      	cmp	r3, #2
 8001980:	d103      	bne.n	800198a <HAL_HCD_IRQHandler+0xb2>
    {
      /* Incorrect mode, acknowledge the interrupt */
      __HAL_HCD_CLEAR_FLAG(hhcd, USB_OTG_GINTSTS_MMIS);
 8001982:	687b      	ldr	r3, [r7, #4]
 8001984:	681b      	ldr	r3, [r3, #0]
 8001986:	2202      	movs	r2, #2
 8001988:	615a      	str	r2, [r3, #20]
    }

    /* Handle Host Disconnect Interrupts */
    if (__HAL_HCD_GET_FLAG(hhcd, USB_OTG_GINTSTS_DISCINT))
 800198a:	687b      	ldr	r3, [r7, #4]
 800198c:	681b      	ldr	r3, [r3, #0]
 800198e:	4618      	mov	r0, r3
 8001990:	f002 ff88 	bl	80048a4 <USB_ReadInterrupts>
 8001994:	4603      	mov	r3, r0
 8001996:	f003 5300 	and.w	r3, r3, #536870912	; 0x20000000
 800199a:	f1b3 5f00 	cmp.w	r3, #536870912	; 0x20000000
 800199e:	d115      	bne.n	80019cc <HAL_HCD_IRQHandler+0xf4>
    {
      __HAL_HCD_CLEAR_FLAG(hhcd, USB_OTG_GINTSTS_DISCINT);
 80019a0:	687b      	ldr	r3, [r7, #4]
 80019a2:	681b      	ldr	r3, [r3, #0]
 80019a4:	f04f 5200 	mov.w	r2, #536870912	; 0x20000000
 80019a8:	615a      	str	r2, [r3, #20]

      if ((USBx_HPRT0 & USB_OTG_HPRT_PCSTS) == 0U)
 80019aa:	68fb      	ldr	r3, [r7, #12]
 80019ac:	f503 6388 	add.w	r3, r3, #1088	; 0x440
 80019b0:	681b      	ldr	r3, [r3, #0]
 80019b2:	f003 0301 	and.w	r3, r3, #1
 80019b6:	2b00      	cmp	r3, #0
 80019b8:	d108      	bne.n	80019cc <HAL_HCD_IRQHandler+0xf4>
      {
        /* Handle Host Port Disconnect Interrupt */
#if (USE_HAL_HCD_REGISTER_CALLBACKS == 1U)
        hhcd->DisconnectCallback(hhcd);
#else
        HAL_HCD_Disconnect_Callback(hhcd);
 80019ba:	6878      	ldr	r0, [r7, #4]
 80019bc:	f005 fd40 	bl	8007440 <HAL_HCD_Disconnect_Callback>
#endif /* USE_HAL_HCD_REGISTER_CALLBACKS */

        (void)USB_InitFSLSPClkSel(hhcd->Instance, HCFG_48_MHZ);
 80019c0:	687b      	ldr	r3, [r7, #4]
 80019c2:	681b      	ldr	r3, [r3, #0]
 80019c4:	2101      	movs	r1, #1
 80019c6:	4618      	mov	r0, r3
 80019c8:	f003 f87e 	bl	8004ac8 <USB_InitFSLSPClkSel>
      }
    }

    /* Handle Host Port Interrupts */
    if (__HAL_HCD_GET_FLAG(hhcd, USB_OTG_GINTSTS_HPRTINT))
 80019cc:	687b      	ldr	r3, [r7, #4]
 80019ce:	681b      	ldr	r3, [r3, #0]
 80019d0:	4618      	mov	r0, r3
 80019d2:	f002 ff67 	bl	80048a4 <USB_ReadInterrupts>
 80019d6:	4603      	mov	r3, r0
 80019d8:	f003 7380 	and.w	r3, r3, #16777216	; 0x1000000
 80019dc:	f1b3 7f80 	cmp.w	r3, #16777216	; 0x1000000
 80019e0:	d102      	bne.n	80019e8 <HAL_HCD_IRQHandler+0x110>
    {
      HCD_Port_IRQHandler(hhcd);
 80019e2:	6878      	ldr	r0, [r7, #4]
 80019e4:	f001 f966 	bl	8002cb4 <HCD_Port_IRQHandler>
    }

    /* Handle Host SOF Interrupt */
    if (__HAL_HCD_GET_FLAG(hhcd, USB_OTG_GINTSTS_SOF))
 80019e8:	687b      	ldr	r3, [r7, #4]
 80019ea:	681b      	ldr	r3, [r3, #0]
 80019ec:	4618      	mov	r0, r3
 80019ee:	f002 ff59 	bl	80048a4 <USB_ReadInterrupts>
 80019f2:	4603      	mov	r3, r0
 80019f4:	f003 0308 	and.w	r3, r3, #8
 80019f8:	2b08      	cmp	r3, #8
 80019fa:	d106      	bne.n	8001a0a <HAL_HCD_IRQHandler+0x132>
    {
#if (USE_HAL_HCD_REGISTER_CALLBACKS == 1U)
      hhcd->SOFCallback(hhcd);
#else
      HAL_HCD_SOF_Callback(hhcd);
 80019fc:	6878      	ldr	r0, [r7, #4]
 80019fe:	f005 fd03 	bl	8007408 <HAL_HCD_SOF_Callback>
#endif /* USE_HAL_HCD_REGISTER_CALLBACKS */

      __HAL_HCD_CLEAR_FLAG(hhcd, USB_OTG_GINTSTS_SOF);
 8001a02:	687b      	ldr	r3, [r7, #4]
 8001a04:	681b      	ldr	r3, [r3, #0]
 8001a06:	2208      	movs	r2, #8
 8001a08:	615a      	str	r2, [r3, #20]
    }

    /* Handle Host channel Interrupt */
    if (__HAL_HCD_GET_FLAG(hhcd, USB_OTG_GINTSTS_HCINT))
 8001a0a:	687b      	ldr	r3, [r7, #4]
 8001a0c:	681b      	ldr	r3, [r3, #0]
 8001a0e:	4618      	mov	r0, r3
 8001a10:	f002 ff48 	bl	80048a4 <USB_ReadInterrupts>
 8001a14:	4603      	mov	r3, r0
 8001a16:	f003 7300 	and.w	r3, r3, #33554432	; 0x2000000
 8001a1a:	f1b3 7f00 	cmp.w	r3, #33554432	; 0x2000000
 8001a1e:	d138      	bne.n	8001a92 <HAL_HCD_IRQHandler+0x1ba>
    {
      interrupt = USB_HC_ReadInterrupt(hhcd->Instance);
 8001a20:	687b      	ldr	r3, [r7, #4]
 8001a22:	681b      	ldr	r3, [r3, #0]
 8001a24:	4618      	mov	r0, r3
 8001a26:	f003 fb65 	bl	80050f4 <USB_HC_ReadInterrupt>
 8001a2a:	60b8      	str	r0, [r7, #8]
      for (i = 0U; i < hhcd->Init.Host_channels; i++)
 8001a2c:	2300      	movs	r3, #0
 8001a2e:	617b      	str	r3, [r7, #20]
 8001a30:	e025      	b.n	8001a7e <HAL_HCD_IRQHandler+0x1a6>
      {
        if ((interrupt & (1UL << (i & 0xFU))) != 0U)
 8001a32:	697b      	ldr	r3, [r7, #20]
 8001a34:	f003 030f 	and.w	r3, r3, #15
 8001a38:	68ba      	ldr	r2, [r7, #8]
 8001a3a:	fa22 f303 	lsr.w	r3, r2, r3
 8001a3e:	f003 0301 	and.w	r3, r3, #1
 8001a42:	2b00      	cmp	r3, #0
 8001a44:	d018      	beq.n	8001a78 <HAL_HCD_IRQHandler+0x1a0>
        {
          if ((USBx_HC(i)->HCCHAR & USB_OTG_HCCHAR_EPDIR) == USB_OTG_HCCHAR_EPDIR)
 8001a46:	697b      	ldr	r3, [r7, #20]
 8001a48:	015a      	lsls	r2, r3, #5
 8001a4a:	68fb      	ldr	r3, [r7, #12]
 8001a4c:	4413      	add	r3, r2
 8001a4e:	f503 63a0 	add.w	r3, r3, #1280	; 0x500
 8001a52:	681b      	ldr	r3, [r3, #0]
 8001a54:	f403 4300 	and.w	r3, r3, #32768	; 0x8000
 8001a58:	f5b3 4f00 	cmp.w	r3, #32768	; 0x8000
 8001a5c:	d106      	bne.n	8001a6c <HAL_HCD_IRQHandler+0x194>
          {
            HCD_HC_IN_IRQHandler(hhcd, (uint8_t)i);
 8001a5e:	697b      	ldr	r3, [r7, #20]
 8001a60:	b2db      	uxtb	r3, r3
 8001a62:	4619      	mov	r1, r3
 8001a64:	6878      	ldr	r0, [r7, #4]
 8001a66:	f000 f8cf 	bl	8001c08 <HCD_HC_IN_IRQHandler>
 8001a6a:	e005      	b.n	8001a78 <HAL_HCD_IRQHandler+0x1a0>
          }
          else
          {
            HCD_HC_OUT_IRQHandler(hhcd, (uint8_t)i);
 8001a6c:	697b      	ldr	r3, [r7, #20]
 8001a6e:	b2db      	uxtb	r3, r3
 8001a70:	4619      	mov	r1, r3
 8001a72:	6878      	ldr	r0, [r7, #4]
 8001a74:	f000 fcfd 	bl	8002472 <HCD_HC_OUT_IRQHandler>
      for (i = 0U; i < hhcd->Init.Host_channels; i++)
 8001a78:	697b      	ldr	r3, [r7, #20]
 8001a7a:	3301      	adds	r3, #1
 8001a7c:	617b      	str	r3, [r7, #20]
 8001a7e:	687b      	ldr	r3, [r7, #4]
 8001a80:	689b      	ldr	r3, [r3, #8]
 8001a82:	697a      	ldr	r2, [r7, #20]
 8001a84:	429a      	cmp	r2, r3
 8001a86:	d3d4      	bcc.n	8001a32 <HAL_HCD_IRQHandler+0x15a>
          }
        }
      }
      __HAL_HCD_CLEAR_FLAG(hhcd, USB_OTG_GINTSTS_HCINT);
 8001a88:	687b      	ldr	r3, [r7, #4]
 8001a8a:	681b      	ldr	r3, [r3, #0]
 8001a8c:	f04f 7200 	mov.w	r2, #33554432	; 0x2000000
 8001a90:	615a      	str	r2, [r3, #20]
    }

    /* Handle Rx Queue Level Interrupts */
    if ((__HAL_HCD_GET_FLAG(hhcd, USB_OTG_GINTSTS_RXFLVL)) != 0U)
 8001a92:	687b      	ldr	r3, [r7, #4]
 8001a94:	681b      	ldr	r3, [r3, #0]
 8001a96:	4618      	mov	r0, r3
 8001a98:	f002 ff04 	bl	80048a4 <USB_ReadInterrupts>
 8001a9c:	4603      	mov	r3, r0
 8001a9e:	f003 0310 	and.w	r3, r3, #16
 8001aa2:	2b10      	cmp	r3, #16
 8001aa4:	d101      	bne.n	8001aaa <HAL_HCD_IRQHandler+0x1d2>
 8001aa6:	2301      	movs	r3, #1
 8001aa8:	e000      	b.n	8001aac <HAL_HCD_IRQHandler+0x1d4>
 8001aaa:	2300      	movs	r3, #0
 8001aac:	2b00      	cmp	r3, #0
 8001aae:	d014      	beq.n	8001ada <HAL_HCD_IRQHandler+0x202>
    {
      USB_MASK_INTERRUPT(hhcd->Instance, USB_OTG_GINTSTS_RXFLVL);
 8001ab0:	687b      	ldr	r3, [r7, #4]
 8001ab2:	681b      	ldr	r3, [r3, #0]
 8001ab4:	699a      	ldr	r2, [r3, #24]
 8001ab6:	687b      	ldr	r3, [r7, #4]
 8001ab8:	681b      	ldr	r3, [r3, #0]
 8001aba:	f022 0210 	bic.w	r2, r2, #16
 8001abe:	619a      	str	r2, [r3, #24]

      HCD_RXQLVL_IRQHandler(hhcd);
 8001ac0:	6878      	ldr	r0, [r7, #4]
 8001ac2:	f001 f84b 	bl	8002b5c <HCD_RXQLVL_IRQHandler>

      USB_UNMASK_INTERRUPT(hhcd->Instance, USB_OTG_GINTSTS_RXFLVL);
 8001ac6:	687b      	ldr	r3, [r7, #4]
 8001ac8:	681b      	ldr	r3, [r3, #0]
 8001aca:	699a      	ldr	r2, [r3, #24]
 8001acc:	687b      	ldr	r3, [r7, #4]
 8001ace:	681b      	ldr	r3, [r3, #0]
 8001ad0:	f042 0210 	orr.w	r2, r2, #16
 8001ad4:	619a      	str	r2, [r3, #24]
 8001ad6:	e000      	b.n	8001ada <HAL_HCD_IRQHandler+0x202>
      return;
 8001ad8:	bf00      	nop
    }
  }
}
 8001ada:	3718      	adds	r7, #24
 8001adc:	46bd      	mov	sp, r7
 8001ade:	bd80      	pop	{r7, pc}

08001ae0 <HAL_HCD_Start>:
  * @brief  Start the host driver.
  * @param  hhcd HCD handle
  * @retval HAL status
  */
HAL_StatusTypeDef HAL_HCD_Start(HCD_HandleTypeDef *hhcd)
{
 8001ae0:	b580      	push	{r7, lr}
 8001ae2:	b082      	sub	sp, #8
 8001ae4:	af00      	add	r7, sp, #0
 8001ae6:	6078      	str	r0, [r7, #4]
  __HAL_LOCK(hhcd);
 8001ae8:	687b      	ldr	r3, [r7, #4]
 8001aea:	f893 32b8 	ldrb.w	r3, [r3, #696]	; 0x2b8
 8001aee:	2b01      	cmp	r3, #1
 8001af0:	d101      	bne.n	8001af6 <HAL_HCD_Start+0x16>
 8001af2:	2302      	movs	r3, #2
 8001af4:	e013      	b.n	8001b1e <HAL_HCD_Start+0x3e>
 8001af6:	687b      	ldr	r3, [r7, #4]
 8001af8:	2201      	movs	r2, #1
 8001afa:	f883 22b8 	strb.w	r2, [r3, #696]	; 0x2b8
  __HAL_HCD_ENABLE(hhcd);
 8001afe:	687b      	ldr	r3, [r7, #4]
 8001b00:	681b      	ldr	r3, [r3, #0]
 8001b02:	4618      	mov	r0, r3
 8001b04:	f002 fddb 	bl	80046be <USB_EnableGlobalInt>
  (void)USB_DriveVbus(hhcd->Instance, 1U);
 8001b08:	687b      	ldr	r3, [r7, #4]
 8001b0a:	681b      	ldr	r3, [r3, #0]
 8001b0c:	2101      	movs	r1, #1
 8001b0e:	4618      	mov	r0, r3
 8001b10:	f003 f83e 	bl	8004b90 <USB_DriveVbus>
  __HAL_UNLOCK(hhcd);
 8001b14:	687b      	ldr	r3, [r7, #4]
 8001b16:	2200      	movs	r2, #0
 8001b18:	f883 22b8 	strb.w	r2, [r3, #696]	; 0x2b8

  return HAL_OK;
 8001b1c:	2300      	movs	r3, #0
}
 8001b1e:	4618      	mov	r0, r3
 8001b20:	3708      	adds	r7, #8
 8001b22:	46bd      	mov	sp, r7
 8001b24:	bd80      	pop	{r7, pc}

08001b26 <HAL_HCD_Stop>:
  * @param  hhcd HCD handle
  * @retval HAL status
  */

HAL_StatusTypeDef HAL_HCD_Stop(HCD_HandleTypeDef *hhcd)
{
 8001b26:	b580      	push	{r7, lr}
 8001b28:	b082      	sub	sp, #8
 8001b2a:	af00      	add	r7, sp, #0
 8001b2c:	6078      	str	r0, [r7, #4]
  __HAL_LOCK(hhcd);
 8001b2e:	687b      	ldr	r3, [r7, #4]
 8001b30:	f893 32b8 	ldrb.w	r3, [r3, #696]	; 0x2b8
 8001b34:	2b01      	cmp	r3, #1
 8001b36:	d101      	bne.n	8001b3c <HAL_HCD_Stop+0x16>
 8001b38:	2302      	movs	r3, #2
 8001b3a:	e00d      	b.n	8001b58 <HAL_HCD_Stop+0x32>
 8001b3c:	687b      	ldr	r3, [r7, #4]
 8001b3e:	2201      	movs	r2, #1
 8001b40:	f883 22b8 	strb.w	r2, [r3, #696]	; 0x2b8
  (void)USB_StopHost(hhcd->Instance);
 8001b44:	687b      	ldr	r3, [r7, #4]
 8001b46:	681b      	ldr	r3, [r3, #0]
 8001b48:	4618      	mov	r0, r3
 8001b4a:	f003 fc1f 	bl	800538c <USB_StopHost>
  __HAL_UNLOCK(hhcd);
 8001b4e:	687b      	ldr	r3, [r7, #4]
 8001b50:	2200      	movs	r2, #0
 8001b52:	f883 22b8 	strb.w	r2, [r3, #696]	; 0x2b8

  return HAL_OK;
 8001b56:	2300      	movs	r3, #0
}
 8001b58:	4618      	mov	r0, r3
 8001b5a:	3708      	adds	r7, #8
 8001b5c:	46bd      	mov	sp, r7
 8001b5e:	bd80      	pop	{r7, pc}

08001b60 <HAL_HCD_ResetPort>:
  * @brief  Reset the host port.
  * @param  hhcd HCD handle
  * @retval HAL status
  */
HAL_StatusTypeDef HAL_HCD_ResetPort(HCD_HandleTypeDef *hhcd)
{
 8001b60:	b580      	push	{r7, lr}
 8001b62:	b082      	sub	sp, #8
 8001b64:	af00      	add	r7, sp, #0
 8001b66:	6078      	str	r0, [r7, #4]
  return (USB_ResetPort(hhcd->Instance));
 8001b68:	687b      	ldr	r3, [r7, #4]
 8001b6a:	681b      	ldr	r3, [r3, #0]
 8001b6c:	4618      	mov	r0, r3
 8001b6e:	f002 ffe5 	bl	8004b3c <USB_ResetPort>
 8001b72:	4603      	mov	r3, r0
}
 8001b74:	4618      	mov	r0, r3
 8001b76:	3708      	adds	r7, #8
 8001b78:	46bd      	mov	sp, r7
 8001b7a:	bd80      	pop	{r7, pc}

08001b7c <HAL_HCD_HC_GetURBState>:
  *            URB_NYET/
  *            URB_ERROR/
  *            URB_STALL
  */
HCD_URBStateTypeDef HAL_HCD_HC_GetURBState(HCD_HandleTypeDef *hhcd, uint8_t chnum)
{
 8001b7c:	b480      	push	{r7}
 8001b7e:	b083      	sub	sp, #12
 8001b80:	af00      	add	r7, sp, #0
 8001b82:	6078      	str	r0, [r7, #4]
 8001b84:	460b      	mov	r3, r1
 8001b86:	70fb      	strb	r3, [r7, #3]
  return hhcd->hc[chnum].urb_state;
 8001b88:	78fa      	ldrb	r2, [r7, #3]
 8001b8a:	6879      	ldr	r1, [r7, #4]
 8001b8c:	4613      	mov	r3, r2
 8001b8e:	009b      	lsls	r3, r3, #2
 8001b90:	4413      	add	r3, r2
 8001b92:	00db      	lsls	r3, r3, #3
 8001b94:	440b      	add	r3, r1
 8001b96:	335c      	adds	r3, #92	; 0x5c
 8001b98:	781b      	ldrb	r3, [r3, #0]
}
 8001b9a:	4618      	mov	r0, r3
 8001b9c:	370c      	adds	r7, #12
 8001b9e:	46bd      	mov	sp, r7
 8001ba0:	f85d 7b04 	ldr.w	r7, [sp], #4
 8001ba4:	4770      	bx	lr

08001ba6 <HAL_HCD_HC_GetXferCount>:
  * @param  chnum Channel number.
  *         This parameter can be a value from 1 to 15
  * @retval last transfer size in byte
  */
uint32_t HAL_HCD_HC_GetXferCount(HCD_HandleTypeDef *hhcd, uint8_t chnum)
{
 8001ba6:	b480      	push	{r7}
 8001ba8:	b083      	sub	sp, #12
 8001baa:	af00      	add	r7, sp, #0
 8001bac:	6078      	str	r0, [r7, #4]
 8001bae:	460b      	mov	r3, r1
 8001bb0:	70fb      	strb	r3, [r7, #3]
  return hhcd->hc[chnum].xfer_count;
 8001bb2:	78fa      	ldrb	r2, [r7, #3]
 8001bb4:	6879      	ldr	r1, [r7, #4]
 8001bb6:	4613      	mov	r3, r2
 8001bb8:	009b      	lsls	r3, r3, #2
 8001bba:	4413      	add	r3, r2
 8001bbc:	00db      	lsls	r3, r3, #3
 8001bbe:	440b      	add	r3, r1
 8001bc0:	334c      	adds	r3, #76	; 0x4c
 8001bc2:	681b      	ldr	r3, [r3, #0]
}
 8001bc4:	4618      	mov	r0, r3
 8001bc6:	370c      	adds	r7, #12
 8001bc8:	46bd      	mov	sp, r7
 8001bca:	f85d 7b04 	ldr.w	r7, [sp], #4
 8001bce:	4770      	bx	lr

08001bd0 <HAL_HCD_GetCurrentFrame>:
  * @brief  Return the current Host frame number.
  * @param  hhcd HCD handle
  * @retval Current Host frame number
  */
uint32_t HAL_HCD_GetCurrentFrame(HCD_HandleTypeDef *hhcd)
{
 8001bd0:	b580      	push	{r7, lr}
 8001bd2:	b082      	sub	sp, #8
 8001bd4:	af00      	add	r7, sp, #0
 8001bd6:	6078      	str	r0, [r7, #4]
  return (USB_GetCurrentFrame(hhcd->Instance));
 8001bd8:	687b      	ldr	r3, [r7, #4]
 8001bda:	681b      	ldr	r3, [r3, #0]
 8001bdc:	4618      	mov	r0, r3
 8001bde:	f003 f827 	bl	8004c30 <USB_GetCurrentFrame>
 8001be2:	4603      	mov	r3, r0
}
 8001be4:	4618      	mov	r0, r3
 8001be6:	3708      	adds	r7, #8
 8001be8:	46bd      	mov	sp, r7
 8001bea:	bd80      	pop	{r7, pc}

08001bec <HAL_HCD_GetCurrentSpeed>:
  * @brief  Return the Host enumeration speed.
  * @param  hhcd HCD handle
  * @retval Enumeration speed
  */
uint32_t HAL_HCD_GetCurrentSpeed(HCD_HandleTypeDef *hhcd)
{
 8001bec:	b580      	push	{r7, lr}
 8001bee:	b082      	sub	sp, #8
 8001bf0:	af00      	add	r7, sp, #0
 8001bf2:	6078      	str	r0, [r7, #4]
  return (USB_GetHostSpeed(hhcd->Instance));
 8001bf4:	687b      	ldr	r3, [r7, #4]
 8001bf6:	681b      	ldr	r3, [r3, #0]
 8001bf8:	4618      	mov	r0, r3
 8001bfa:	f003 f802 	bl	8004c02 <USB_GetHostSpeed>
 8001bfe:	4603      	mov	r3, r0
}
 8001c00:	4618      	mov	r0, r3
 8001c02:	3708      	adds	r7, #8
 8001c04:	46bd      	mov	sp, r7
 8001c06:	bd80      	pop	{r7, pc}

08001c08 <HCD_HC_IN_IRQHandler>:
  * @param  chnum Channel number.
  *         This parameter can be a value from 1 to 15
  * @retval none
  */
static void HCD_HC_IN_IRQHandler(HCD_HandleTypeDef *hhcd, uint8_t chnum)
{
 8001c08:	b580      	push	{r7, lr}
 8001c0a:	b086      	sub	sp, #24
 8001c0c:	af00      	add	r7, sp, #0
 8001c0e:	6078      	str	r0, [r7, #4]
 8001c10:	460b      	mov	r3, r1
 8001c12:	70fb      	strb	r3, [r7, #3]
  USB_OTG_GlobalTypeDef *USBx = hhcd->Instance;
 8001c14:	687b      	ldr	r3, [r7, #4]
 8001c16:	681b      	ldr	r3, [r3, #0]
 8001c18:	617b      	str	r3, [r7, #20]
  uint32_t USBx_BASE = (uint32_t)USBx;
 8001c1a:	697b      	ldr	r3, [r7, #20]
 8001c1c:	613b      	str	r3, [r7, #16]
  uint32_t ch_num = (uint32_t)chnum;
 8001c1e:	78fb      	ldrb	r3, [r7, #3]
 8001c20:	60fb      	str	r3, [r7, #12]

  uint32_t tmpreg;

  if ((USBx_HC(ch_num)->HCINT & USB_OTG_HCINT_AHBERR) == USB_OTG_HCINT_AHBERR)
 8001c22:	68fb      	ldr	r3, [r7, #12]
 8001c24:	015a      	lsls	r2, r3, #5
 8001c26:	693b      	ldr	r3, [r7, #16]
 8001c28:	4413      	add	r3, r2
 8001c2a:	f503 63a0 	add.w	r3, r3, #1280	; 0x500
 8001c2e:	689b      	ldr	r3, [r3, #8]
 8001c30:	f003 0304 	and.w	r3, r3, #4
 8001c34:	2b04      	cmp	r3, #4
 8001c36:	d119      	bne.n	8001c6c <HCD_HC_IN_IRQHandler+0x64>
  {
    __HAL_HCD_CLEAR_HC_INT(ch_num, USB_OTG_HCINT_AHBERR);
 8001c38:	68fb      	ldr	r3, [r7, #12]
 8001c3a:	015a      	lsls	r2, r3, #5
 8001c3c:	693b      	ldr	r3, [r7, #16]
 8001c3e:	4413      	add	r3, r2
 8001c40:	f503 63a0 	add.w	r3, r3, #1280	; 0x500
 8001c44:	461a      	mov	r2, r3
 8001c46:	2304      	movs	r3, #4
 8001c48:	6093      	str	r3, [r2, #8]
    __HAL_HCD_UNMASK_HALT_HC_INT(ch_num);
 8001c4a:	68fb      	ldr	r3, [r7, #12]
 8001c4c:	015a      	lsls	r2, r3, #5
 8001c4e:	693b      	ldr	r3, [r7, #16]
 8001c50:	4413      	add	r3, r2
 8001c52:	f503 63a0 	add.w	r3, r3, #1280	; 0x500
 8001c56:	68db      	ldr	r3, [r3, #12]
 8001c58:	68fa      	ldr	r2, [r7, #12]
 8001c5a:	0151      	lsls	r1, r2, #5
 8001c5c:	693a      	ldr	r2, [r7, #16]
 8001c5e:	440a      	add	r2, r1
 8001c60:	f502 62a0 	add.w	r2, r2, #1280	; 0x500
 8001c64:	f043 0302 	orr.w	r3, r3, #2
 8001c68:	60d3      	str	r3, [r2, #12]
 8001c6a:	e0ce      	b.n	8001e0a <HCD_HC_IN_IRQHandler+0x202>
  }
  else if ((USBx_HC(ch_num)->HCINT & USB_OTG_HCINT_BBERR) == USB_OTG_HCINT_BBERR)
 8001c6c:	68fb      	ldr	r3, [r7, #12]
 8001c6e:	015a      	lsls	r2, r3, #5
 8001c70:	693b      	ldr	r3, [r7, #16]
 8001c72:	4413      	add	r3, r2
 8001c74:	f503 63a0 	add.w	r3, r3, #1280	; 0x500
 8001c78:	689b      	ldr	r3, [r3, #8]
 8001c7a:	f403 7380 	and.w	r3, r3, #256	; 0x100
 8001c7e:	f5b3 7f80 	cmp.w	r3, #256	; 0x100
 8001c82:	d12c      	bne.n	8001cde <HCD_HC_IN_IRQHandler+0xd6>
  {
    __HAL_HCD_CLEAR_HC_INT(ch_num, USB_OTG_HCINT_BBERR);
 8001c84:	68fb      	ldr	r3, [r7, #12]
 8001c86:	015a      	lsls	r2, r3, #5
 8001c88:	693b      	ldr	r3, [r7, #16]
 8001c8a:	4413      	add	r3, r2
 8001c8c:	f503 63a0 	add.w	r3, r3, #1280	; 0x500
 8001c90:	461a      	mov	r2, r3
 8001c92:	f44f 7380 	mov.w	r3, #256	; 0x100
 8001c96:	6093      	str	r3, [r2, #8]
    hhcd->hc[ch_num].state = HC_BBLERR;
 8001c98:	6879      	ldr	r1, [r7, #4]
 8001c9a:	68fa      	ldr	r2, [r7, #12]
 8001c9c:	4613      	mov	r3, r2
 8001c9e:	009b      	lsls	r3, r3, #2
 8001ca0:	4413      	add	r3, r2
 8001ca2:	00db      	lsls	r3, r3, #3
 8001ca4:	440b      	add	r3, r1
 8001ca6:	335d      	adds	r3, #93	; 0x5d
 8001ca8:	2207      	movs	r2, #7
 8001caa:	701a      	strb	r2, [r3, #0]
    __HAL_HCD_UNMASK_HALT_HC_INT(ch_num);
 8001cac:	68fb      	ldr	r3, [r7, #12]
 8001cae:	015a      	lsls	r2, r3, #5
 8001cb0:	693b      	ldr	r3, [r7, #16]
 8001cb2:	4413      	add	r3, r2
 8001cb4:	f503 63a0 	add.w	r3, r3, #1280	; 0x500
 8001cb8:	68db      	ldr	r3, [r3, #12]
 8001cba:	68fa      	ldr	r2, [r7, #12]
 8001cbc:	0151      	lsls	r1, r2, #5
 8001cbe:	693a      	ldr	r2, [r7, #16]
 8001cc0:	440a      	add	r2, r1
 8001cc2:	f502 62a0 	add.w	r2, r2, #1280	; 0x500
 8001cc6:	f043 0302 	orr.w	r3, r3, #2
 8001cca:	60d3      	str	r3, [r2, #12]
    (void)USB_HC_Halt(hhcd->Instance, (uint8_t)ch_num);
 8001ccc:	687b      	ldr	r3, [r7, #4]
 8001cce:	681b      	ldr	r3, [r3, #0]
 8001cd0:	68fa      	ldr	r2, [r7, #12]
 8001cd2:	b2d2      	uxtb	r2, r2
 8001cd4:	4611      	mov	r1, r2
 8001cd6:	4618      	mov	r0, r3
 8001cd8:	f003 fa1d 	bl	8005116 <USB_HC_Halt>
 8001cdc:	e095      	b.n	8001e0a <HCD_HC_IN_IRQHandler+0x202>
  }
  else if ((USBx_HC(ch_num)->HCINT & USB_OTG_HCINT_ACK) == USB_OTG_HCINT_ACK)
 8001cde:	68fb      	ldr	r3, [r7, #12]
 8001ce0:	015a      	lsls	r2, r3, #5
 8001ce2:	693b      	ldr	r3, [r7, #16]
 8001ce4:	4413      	add	r3, r2
 8001ce6:	f503 63a0 	add.w	r3, r3, #1280	; 0x500
 8001cea:	689b      	ldr	r3, [r3, #8]
 8001cec:	f003 0320 	and.w	r3, r3, #32
 8001cf0:	2b20      	cmp	r3, #32
 8001cf2:	d109      	bne.n	8001d08 <HCD_HC_IN_IRQHandler+0x100>
  {
    __HAL_HCD_CLEAR_HC_INT(ch_num, USB_OTG_HCINT_ACK);
 8001cf4:	68fb      	ldr	r3, [r7, #12]
 8001cf6:	015a      	lsls	r2, r3, #5
 8001cf8:	693b      	ldr	r3, [r7, #16]
 8001cfa:	4413      	add	r3, r2
 8001cfc:	f503 63a0 	add.w	r3, r3, #1280	; 0x500
 8001d00:	461a      	mov	r2, r3
 8001d02:	2320      	movs	r3, #32
 8001d04:	6093      	str	r3, [r2, #8]
 8001d06:	e080      	b.n	8001e0a <HCD_HC_IN_IRQHandler+0x202>
  }
  else if ((USBx_HC(ch_num)->HCINT & USB_OTG_HCINT_STALL) == USB_OTG_HCINT_STALL)
 8001d08:	68fb      	ldr	r3, [r7, #12]
 8001d0a:	015a      	lsls	r2, r3, #5
 8001d0c:	693b      	ldr	r3, [r7, #16]
 8001d0e:	4413      	add	r3, r2
 8001d10:	f503 63a0 	add.w	r3, r3, #1280	; 0x500
 8001d14:	689b      	ldr	r3, [r3, #8]
 8001d16:	f003 0308 	and.w	r3, r3, #8
 8001d1a:	2b08      	cmp	r3, #8
 8001d1c:	d134      	bne.n	8001d88 <HCD_HC_IN_IRQHandler+0x180>
  {
    __HAL_HCD_UNMASK_HALT_HC_INT(ch_num);
 8001d1e:	68fb      	ldr	r3, [r7, #12]
 8001d20:	015a      	lsls	r2, r3, #5
 8001d22:	693b      	ldr	r3, [r7, #16]
 8001d24:	4413      	add	r3, r2
 8001d26:	f503 63a0 	add.w	r3, r3, #1280	; 0x500
 8001d2a:	68db      	ldr	r3, [r3, #12]
 8001d2c:	68fa      	ldr	r2, [r7, #12]
 8001d2e:	0151      	lsls	r1, r2, #5
 8001d30:	693a      	ldr	r2, [r7, #16]
 8001d32:	440a      	add	r2, r1
 8001d34:	f502 62a0 	add.w	r2, r2, #1280	; 0x500
 8001d38:	f043 0302 	orr.w	r3, r3, #2
 8001d3c:	60d3      	str	r3, [r2, #12]
    hhcd->hc[ch_num].state = HC_STALL;
 8001d3e:	6879      	ldr	r1, [r7, #4]
 8001d40:	68fa      	ldr	r2, [r7, #12]
 8001d42:	4613      	mov	r3, r2
 8001d44:	009b      	lsls	r3, r3, #2
 8001d46:	4413      	add	r3, r2
 8001d48:	00db      	lsls	r3, r3, #3
 8001d4a:	440b      	add	r3, r1
 8001d4c:	335d      	adds	r3, #93	; 0x5d
 8001d4e:	2205      	movs	r2, #5
 8001d50:	701a      	strb	r2, [r3, #0]
    __HAL_HCD_CLEAR_HC_INT(ch_num, USB_OTG_HCINT_NAK);
 8001d52:	68fb      	ldr	r3, [r7, #12]
 8001d54:	015a      	lsls	r2, r3, #5
 8001d56:	693b      	ldr	r3, [r7, #16]
 8001d58:	4413      	add	r3, r2
 8001d5a:	f503 63a0 	add.w	r3, r3, #1280	; 0x500
 8001d5e:	461a      	mov	r2, r3
 8001d60:	2310      	movs	r3, #16
 8001d62:	6093      	str	r3, [r2, #8]
    __HAL_HCD_CLEAR_HC_INT(ch_num, USB_OTG_HCINT_STALL);
 8001d64:	68fb      	ldr	r3, [r7, #12]
 8001d66:	015a      	lsls	r2, r3, #5
 8001d68:	693b      	ldr	r3, [r7, #16]
 8001d6a:	4413      	add	r3, r2
 8001d6c:	f503 63a0 	add.w	r3, r3, #1280	; 0x500
 8001d70:	461a      	mov	r2, r3
 8001d72:	2308      	movs	r3, #8
 8001d74:	6093      	str	r3, [r2, #8]
    (void)USB_HC_Halt(hhcd->Instance, (uint8_t)ch_num);
 8001d76:	687b      	ldr	r3, [r7, #4]
 8001d78:	681b      	ldr	r3, [r3, #0]
 8001d7a:	68fa      	ldr	r2, [r7, #12]
 8001d7c:	b2d2      	uxtb	r2, r2
 8001d7e:	4611      	mov	r1, r2
 8001d80:	4618      	mov	r0, r3
 8001d82:	f003 f9c8 	bl	8005116 <USB_HC_Halt>
 8001d86:	e040      	b.n	8001e0a <HCD_HC_IN_IRQHandler+0x202>
  }
  else if ((USBx_HC(ch_num)->HCINT & USB_OTG_HCINT_DTERR) == USB_OTG_HCINT_DTERR)
 8001d88:	68fb      	ldr	r3, [r7, #12]
 8001d8a:	015a      	lsls	r2, r3, #5
 8001d8c:	693b      	ldr	r3, [r7, #16]
 8001d8e:	4413      	add	r3, r2
 8001d90:	f503 63a0 	add.w	r3, r3, #1280	; 0x500
 8001d94:	689b      	ldr	r3, [r3, #8]
 8001d96:	f403 6380 	and.w	r3, r3, #1024	; 0x400
 8001d9a:	f5b3 6f80 	cmp.w	r3, #1024	; 0x400
 8001d9e:	d134      	bne.n	8001e0a <HCD_HC_IN_IRQHandler+0x202>
  {
    __HAL_HCD_UNMASK_HALT_HC_INT(ch_num);
 8001da0:	68fb      	ldr	r3, [r7, #12]
 8001da2:	015a      	lsls	r2, r3, #5
 8001da4:	693b      	ldr	r3, [r7, #16]
 8001da6:	4413      	add	r3, r2
 8001da8:	f503 63a0 	add.w	r3, r3, #1280	; 0x500
 8001dac:	68db      	ldr	r3, [r3, #12]
 8001dae:	68fa      	ldr	r2, [r7, #12]
 8001db0:	0151      	lsls	r1, r2, #5
 8001db2:	693a      	ldr	r2, [r7, #16]
 8001db4:	440a      	add	r2, r1
 8001db6:	f502 62a0 	add.w	r2, r2, #1280	; 0x500
 8001dba:	f043 0302 	orr.w	r3, r3, #2
 8001dbe:	60d3      	str	r3, [r2, #12]
    (void)USB_HC_Halt(hhcd->Instance, (uint8_t)ch_num);
 8001dc0:	687b      	ldr	r3, [r7, #4]
 8001dc2:	681b      	ldr	r3, [r3, #0]
 8001dc4:	68fa      	ldr	r2, [r7, #12]
 8001dc6:	b2d2      	uxtb	r2, r2
 8001dc8:	4611      	mov	r1, r2
 8001dca:	4618      	mov	r0, r3
 8001dcc:	f003 f9a3 	bl	8005116 <USB_HC_Halt>
    __HAL_HCD_CLEAR_HC_INT(ch_num, USB_OTG_HCINT_NAK);
 8001dd0:	68fb      	ldr	r3, [r7, #12]
 8001dd2:	015a      	lsls	r2, r3, #5
 8001dd4:	693b      	ldr	r3, [r7, #16]
 8001dd6:	4413      	add	r3, r2
 8001dd8:	f503 63a0 	add.w	r3, r3, #1280	; 0x500
 8001ddc:	461a      	mov	r2, r3
 8001dde:	2310      	movs	r3, #16
 8001de0:	6093      	str	r3, [r2, #8]
    hhcd->hc[ch_num].state = HC_DATATGLERR;
 8001de2:	6879      	ldr	r1, [r7, #4]
 8001de4:	68fa      	ldr	r2, [r7, #12]
 8001de6:	4613      	mov	r3, r2
 8001de8:	009b      	lsls	r3, r3, #2
 8001dea:	4413      	add	r3, r2
 8001dec:	00db      	lsls	r3, r3, #3
 8001dee:	440b      	add	r3, r1
 8001df0:	335d      	adds	r3, #93	; 0x5d
 8001df2:	2208      	movs	r2, #8
 8001df4:	701a      	strb	r2, [r3, #0]
    __HAL_HCD_CLEAR_HC_INT(ch_num, USB_OTG_HCINT_DTERR);
 8001df6:	68fb      	ldr	r3, [r7, #12]
 8001df8:	015a      	lsls	r2, r3, #5
 8001dfa:	693b      	ldr	r3, [r7, #16]
 8001dfc:	4413      	add	r3, r2
 8001dfe:	f503 63a0 	add.w	r3, r3, #1280	; 0x500
 8001e02:	461a      	mov	r2, r3
 8001e04:	f44f 6380 	mov.w	r3, #1024	; 0x400
 8001e08:	6093      	str	r3, [r2, #8]
  else
  {
    /* ... */
  }

  if ((USBx_HC(ch_num)->HCINT & USB_OTG_HCINT_FRMOR) == USB_OTG_HCINT_FRMOR)
 8001e0a:	68fb      	ldr	r3, [r7, #12]
 8001e0c:	015a      	lsls	r2, r3, #5
 8001e0e:	693b      	ldr	r3, [r7, #16]
 8001e10:	4413      	add	r3, r2
 8001e12:	f503 63a0 	add.w	r3, r3, #1280	; 0x500
 8001e16:	689b      	ldr	r3, [r3, #8]
 8001e18:	f403 7300 	and.w	r3, r3, #512	; 0x200
 8001e1c:	f5b3 7f00 	cmp.w	r3, #512	; 0x200
 8001e20:	d122      	bne.n	8001e68 <HCD_HC_IN_IRQHandler+0x260>
  {
    __HAL_HCD_UNMASK_HALT_HC_INT(ch_num);
 8001e22:	68fb      	ldr	r3, [r7, #12]
 8001e24:	015a      	lsls	r2, r3, #5
 8001e26:	693b      	ldr	r3, [r7, #16]
 8001e28:	4413      	add	r3, r2
 8001e2a:	f503 63a0 	add.w	r3, r3, #1280	; 0x500
 8001e2e:	68db      	ldr	r3, [r3, #12]
 8001e30:	68fa      	ldr	r2, [r7, #12]
 8001e32:	0151      	lsls	r1, r2, #5
 8001e34:	693a      	ldr	r2, [r7, #16]
 8001e36:	440a      	add	r2, r1
 8001e38:	f502 62a0 	add.w	r2, r2, #1280	; 0x500
 8001e3c:	f043 0302 	orr.w	r3, r3, #2
 8001e40:	60d3      	str	r3, [r2, #12]
    (void)USB_HC_Halt(hhcd->Instance, (uint8_t)ch_num);
 8001e42:	687b      	ldr	r3, [r7, #4]
 8001e44:	681b      	ldr	r3, [r3, #0]
 8001e46:	68fa      	ldr	r2, [r7, #12]
 8001e48:	b2d2      	uxtb	r2, r2
 8001e4a:	4611      	mov	r1, r2
 8001e4c:	4618      	mov	r0, r3
 8001e4e:	f003 f962 	bl	8005116 <USB_HC_Halt>
    __HAL_HCD_CLEAR_HC_INT(ch_num, USB_OTG_HCINT_FRMOR);
 8001e52:	68fb      	ldr	r3, [r7, #12]
 8001e54:	015a      	lsls	r2, r3, #5
 8001e56:	693b      	ldr	r3, [r7, #16]
 8001e58:	4413      	add	r3, r2
 8001e5a:	f503 63a0 	add.w	r3, r3, #1280	; 0x500
 8001e5e:	461a      	mov	r2, r3
 8001e60:	f44f 7300 	mov.w	r3, #512	; 0x200
 8001e64:	6093      	str	r3, [r2, #8]
  }
  else
  {
    /* ... */
  }
}
 8001e66:	e300      	b.n	800246a <HCD_HC_IN_IRQHandler+0x862>
  else if ((USBx_HC(ch_num)->HCINT & USB_OTG_HCINT_XFRC) == USB_OTG_HCINT_XFRC)
 8001e68:	68fb      	ldr	r3, [r7, #12]
 8001e6a:	015a      	lsls	r2, r3, #5
 8001e6c:	693b      	ldr	r3, [r7, #16]
 8001e6e:	4413      	add	r3, r2
 8001e70:	f503 63a0 	add.w	r3, r3, #1280	; 0x500
 8001e74:	689b      	ldr	r3, [r3, #8]
 8001e76:	f003 0301 	and.w	r3, r3, #1
 8001e7a:	2b01      	cmp	r3, #1
 8001e7c:	f040 80fd 	bne.w	800207a <HCD_HC_IN_IRQHandler+0x472>
    if (hhcd->Init.dma_enable != 0U)
 8001e80:	687b      	ldr	r3, [r7, #4]
 8001e82:	691b      	ldr	r3, [r3, #16]
 8001e84:	2b00      	cmp	r3, #0
 8001e86:	d01b      	beq.n	8001ec0 <HCD_HC_IN_IRQHandler+0x2b8>
      hhcd->hc[ch_num].xfer_count = hhcd->hc[ch_num].xfer_len - \
 8001e88:	6879      	ldr	r1, [r7, #4]
 8001e8a:	68fa      	ldr	r2, [r7, #12]
 8001e8c:	4613      	mov	r3, r2
 8001e8e:	009b      	lsls	r3, r3, #2
 8001e90:	4413      	add	r3, r2
 8001e92:	00db      	lsls	r3, r3, #3
 8001e94:	440b      	add	r3, r1
 8001e96:	3348      	adds	r3, #72	; 0x48
 8001e98:	681a      	ldr	r2, [r3, #0]
                                    (USBx_HC(ch_num)->HCTSIZ & USB_OTG_HCTSIZ_XFRSIZ);
 8001e9a:	68fb      	ldr	r3, [r7, #12]
 8001e9c:	0159      	lsls	r1, r3, #5
 8001e9e:	693b      	ldr	r3, [r7, #16]
 8001ea0:	440b      	add	r3, r1
 8001ea2:	f503 63a0 	add.w	r3, r3, #1280	; 0x500
 8001ea6:	691b      	ldr	r3, [r3, #16]
 8001ea8:	f3c3 0312 	ubfx	r3, r3, #0, #19
      hhcd->hc[ch_num].xfer_count = hhcd->hc[ch_num].xfer_len - \
 8001eac:	1ad1      	subs	r1, r2, r3
 8001eae:	6878      	ldr	r0, [r7, #4]
 8001eb0:	68fa      	ldr	r2, [r7, #12]
 8001eb2:	4613      	mov	r3, r2
 8001eb4:	009b      	lsls	r3, r3, #2
 8001eb6:	4413      	add	r3, r2
 8001eb8:	00db      	lsls	r3, r3, #3
 8001eba:	4403      	add	r3, r0
 8001ebc:	334c      	adds	r3, #76	; 0x4c
 8001ebe:	6019      	str	r1, [r3, #0]
    hhcd->hc[ch_num].state = HC_XFRC;
 8001ec0:	6879      	ldr	r1, [r7, #4]
 8001ec2:	68fa      	ldr	r2, [r7, #12]
 8001ec4:	4613      	mov	r3, r2
 8001ec6:	009b      	lsls	r3, r3, #2
 8001ec8:	4413      	add	r3, r2
 8001eca:	00db      	lsls	r3, r3, #3
 8001ecc:	440b      	add	r3, r1
 8001ece:	335d      	adds	r3, #93	; 0x5d
 8001ed0:	2201      	movs	r2, #1
 8001ed2:	701a      	strb	r2, [r3, #0]
    hhcd->hc[ch_num].ErrCnt = 0U;
 8001ed4:	6879      	ldr	r1, [r7, #4]
 8001ed6:	68fa      	ldr	r2, [r7, #12]
 8001ed8:	4613      	mov	r3, r2
 8001eda:	009b      	lsls	r3, r3, #2
 8001edc:	4413      	add	r3, r2
 8001ede:	00db      	lsls	r3, r3, #3
 8001ee0:	440b      	add	r3, r1
 8001ee2:	3358      	adds	r3, #88	; 0x58
 8001ee4:	2200      	movs	r2, #0
 8001ee6:	601a      	str	r2, [r3, #0]
    __HAL_HCD_CLEAR_HC_INT(ch_num, USB_OTG_HCINT_XFRC);
 8001ee8:	68fb      	ldr	r3, [r7, #12]
 8001eea:	015a      	lsls	r2, r3, #5
 8001eec:	693b      	ldr	r3, [r7, #16]
 8001eee:	4413      	add	r3, r2
 8001ef0:	f503 63a0 	add.w	r3, r3, #1280	; 0x500
 8001ef4:	461a      	mov	r2, r3
 8001ef6:	2301      	movs	r3, #1
 8001ef8:	6093      	str	r3, [r2, #8]
    if ((hhcd->hc[ch_num].ep_type == EP_TYPE_CTRL) ||
 8001efa:	6879      	ldr	r1, [r7, #4]
 8001efc:	68fa      	ldr	r2, [r7, #12]
 8001efe:	4613      	mov	r3, r2
 8001f00:	009b      	lsls	r3, r3, #2
 8001f02:	4413      	add	r3, r2
 8001f04:	00db      	lsls	r3, r3, #3
 8001f06:	440b      	add	r3, r1
 8001f08:	333f      	adds	r3, #63	; 0x3f
 8001f0a:	781b      	ldrb	r3, [r3, #0]
 8001f0c:	2b00      	cmp	r3, #0
 8001f0e:	d00a      	beq.n	8001f26 <HCD_HC_IN_IRQHandler+0x31e>
        (hhcd->hc[ch_num].ep_type == EP_TYPE_BULK))
 8001f10:	6879      	ldr	r1, [r7, #4]
 8001f12:	68fa      	ldr	r2, [r7, #12]
 8001f14:	4613      	mov	r3, r2
 8001f16:	009b      	lsls	r3, r3, #2
 8001f18:	4413      	add	r3, r2
 8001f1a:	00db      	lsls	r3, r3, #3
 8001f1c:	440b      	add	r3, r1
 8001f1e:	333f      	adds	r3, #63	; 0x3f
 8001f20:	781b      	ldrb	r3, [r3, #0]
    if ((hhcd->hc[ch_num].ep_type == EP_TYPE_CTRL) ||
 8001f22:	2b02      	cmp	r3, #2
 8001f24:	d121      	bne.n	8001f6a <HCD_HC_IN_IRQHandler+0x362>
      __HAL_HCD_UNMASK_HALT_HC_INT(ch_num);
 8001f26:	68fb      	ldr	r3, [r7, #12]
 8001f28:	015a      	lsls	r2, r3, #5
 8001f2a:	693b      	ldr	r3, [r7, #16]
 8001f2c:	4413      	add	r3, r2
 8001f2e:	f503 63a0 	add.w	r3, r3, #1280	; 0x500
 8001f32:	68db      	ldr	r3, [r3, #12]
 8001f34:	68fa      	ldr	r2, [r7, #12]
 8001f36:	0151      	lsls	r1, r2, #5
 8001f38:	693a      	ldr	r2, [r7, #16]
 8001f3a:	440a      	add	r2, r1
 8001f3c:	f502 62a0 	add.w	r2, r2, #1280	; 0x500
 8001f40:	f043 0302 	orr.w	r3, r3, #2
 8001f44:	60d3      	str	r3, [r2, #12]
      (void)USB_HC_Halt(hhcd->Instance, (uint8_t)ch_num);
 8001f46:	687b      	ldr	r3, [r7, #4]
 8001f48:	681b      	ldr	r3, [r3, #0]
 8001f4a:	68fa      	ldr	r2, [r7, #12]
 8001f4c:	b2d2      	uxtb	r2, r2
 8001f4e:	4611      	mov	r1, r2
 8001f50:	4618      	mov	r0, r3
 8001f52:	f003 f8e0 	bl	8005116 <USB_HC_Halt>
      __HAL_HCD_CLEAR_HC_INT(ch_num, USB_OTG_HCINT_NAK);
 8001f56:	68fb      	ldr	r3, [r7, #12]
 8001f58:	015a      	lsls	r2, r3, #5
 8001f5a:	693b      	ldr	r3, [r7, #16]
 8001f5c:	4413      	add	r3, r2
 8001f5e:	f503 63a0 	add.w	r3, r3, #1280	; 0x500
 8001f62:	461a      	mov	r2, r3
 8001f64:	2310      	movs	r3, #16
 8001f66:	6093      	str	r3, [r2, #8]
 8001f68:	e070      	b.n	800204c <HCD_HC_IN_IRQHandler+0x444>
    else if (hhcd->hc[ch_num].ep_type == EP_TYPE_INTR)
 8001f6a:	6879      	ldr	r1, [r7, #4]
 8001f6c:	68fa      	ldr	r2, [r7, #12]
 8001f6e:	4613      	mov	r3, r2
 8001f70:	009b      	lsls	r3, r3, #2
 8001f72:	4413      	add	r3, r2
 8001f74:	00db      	lsls	r3, r3, #3
 8001f76:	440b      	add	r3, r1
 8001f78:	333f      	adds	r3, #63	; 0x3f
 8001f7a:	781b      	ldrb	r3, [r3, #0]
 8001f7c:	2b03      	cmp	r3, #3
 8001f7e:	d12a      	bne.n	8001fd6 <HCD_HC_IN_IRQHandler+0x3ce>
      USBx_HC(ch_num)->HCCHAR |= USB_OTG_HCCHAR_ODDFRM;
 8001f80:	68fb      	ldr	r3, [r7, #12]
 8001f82:	015a      	lsls	r2, r3, #5
 8001f84:	693b      	ldr	r3, [r7, #16]
 8001f86:	4413      	add	r3, r2
 8001f88:	f503 63a0 	add.w	r3, r3, #1280	; 0x500
 8001f8c:	681b      	ldr	r3, [r3, #0]
 8001f8e:	68fa      	ldr	r2, [r7, #12]
 8001f90:	0151      	lsls	r1, r2, #5
 8001f92:	693a      	ldr	r2, [r7, #16]
 8001f94:	440a      	add	r2, r1
 8001f96:	f502 62a0 	add.w	r2, r2, #1280	; 0x500
 8001f9a:	f043 5300 	orr.w	r3, r3, #536870912	; 0x20000000
 8001f9e:	6013      	str	r3, [r2, #0]
      hhcd->hc[ch_num].urb_state = URB_DONE;
 8001fa0:	6879      	ldr	r1, [r7, #4]
 8001fa2:	68fa      	ldr	r2, [r7, #12]
 8001fa4:	4613      	mov	r3, r2
 8001fa6:	009b      	lsls	r3, r3, #2
 8001fa8:	4413      	add	r3, r2
 8001faa:	00db      	lsls	r3, r3, #3
 8001fac:	440b      	add	r3, r1
 8001fae:	335c      	adds	r3, #92	; 0x5c
 8001fb0:	2201      	movs	r2, #1
 8001fb2:	701a      	strb	r2, [r3, #0]
      HAL_HCD_HC_NotifyURBChange_Callback(hhcd, (uint8_t)ch_num, hhcd->hc[ch_num].urb_state);
 8001fb4:	68fb      	ldr	r3, [r7, #12]
 8001fb6:	b2d8      	uxtb	r0, r3
 8001fb8:	6879      	ldr	r1, [r7, #4]
 8001fba:	68fa      	ldr	r2, [r7, #12]
 8001fbc:	4613      	mov	r3, r2
 8001fbe:	009b      	lsls	r3, r3, #2
 8001fc0:	4413      	add	r3, r2
 8001fc2:	00db      	lsls	r3, r3, #3
 8001fc4:	440b      	add	r3, r1
 8001fc6:	335c      	adds	r3, #92	; 0x5c
 8001fc8:	781b      	ldrb	r3, [r3, #0]
 8001fca:	461a      	mov	r2, r3
 8001fcc:	4601      	mov	r1, r0
 8001fce:	6878      	ldr	r0, [r7, #4]
 8001fd0:	f005 fa44 	bl	800745c <HAL_HCD_HC_NotifyURBChange_Callback>
 8001fd4:	e03a      	b.n	800204c <HCD_HC_IN_IRQHandler+0x444>
    else if (hhcd->hc[ch_num].ep_type == EP_TYPE_ISOC)
 8001fd6:	6879      	ldr	r1, [r7, #4]
 8001fd8:	68fa      	ldr	r2, [r7, #12]
 8001fda:	4613      	mov	r3, r2
 8001fdc:	009b      	lsls	r3, r3, #2
 8001fde:	4413      	add	r3, r2
 8001fe0:	00db      	lsls	r3, r3, #3
 8001fe2:	440b      	add	r3, r1
 8001fe4:	333f      	adds	r3, #63	; 0x3f
 8001fe6:	781b      	ldrb	r3, [r3, #0]
 8001fe8:	2b01      	cmp	r3, #1
 8001fea:	d12f      	bne.n	800204c <HCD_HC_IN_IRQHandler+0x444>
      hhcd->hc[ch_num].urb_state = URB_DONE;
 8001fec:	6879      	ldr	r1, [r7, #4]
 8001fee:	68fa      	ldr	r2, [r7, #12]
 8001ff0:	4613      	mov	r3, r2
 8001ff2:	009b      	lsls	r3, r3, #2
 8001ff4:	4413      	add	r3, r2
 8001ff6:	00db      	lsls	r3, r3, #3
 8001ff8:	440b      	add	r3, r1
 8001ffa:	335c      	adds	r3, #92	; 0x5c
 8001ffc:	2201      	movs	r2, #1
 8001ffe:	701a      	strb	r2, [r3, #0]
      hhcd->hc[ch_num].toggle_in ^= 1U;
 8002000:	6879      	ldr	r1, [r7, #4]
 8002002:	68fa      	ldr	r2, [r7, #12]
 8002004:	4613      	mov	r3, r2
 8002006:	009b      	lsls	r3, r3, #2
 8002008:	4413      	add	r3, r2
 800200a:	00db      	lsls	r3, r3, #3
 800200c:	440b      	add	r3, r1
 800200e:	3350      	adds	r3, #80	; 0x50
 8002010:	781b      	ldrb	r3, [r3, #0]
 8002012:	f083 0301 	eor.w	r3, r3, #1
 8002016:	b2d8      	uxtb	r0, r3
 8002018:	6879      	ldr	r1, [r7, #4]
 800201a:	68fa      	ldr	r2, [r7, #12]
 800201c:	4613      	mov	r3, r2
 800201e:	009b      	lsls	r3, r3, #2
 8002020:	4413      	add	r3, r2
 8002022:	00db      	lsls	r3, r3, #3
 8002024:	440b      	add	r3, r1
 8002026:	3350      	adds	r3, #80	; 0x50
 8002028:	4602      	mov	r2, r0
 800202a:	701a      	strb	r2, [r3, #0]
      HAL_HCD_HC_NotifyURBChange_Callback(hhcd, (uint8_t)ch_num, hhcd->hc[ch_num].urb_state);
 800202c:	68fb      	ldr	r3, [r7, #12]
 800202e:	b2d8      	uxtb	r0, r3
 8002030:	6879      	ldr	r1, [r7, #4]
 8002032:	68fa      	ldr	r2, [r7, #12]
 8002034:	4613      	mov	r3, r2
 8002036:	009b      	lsls	r3, r3, #2
 8002038:	4413      	add	r3, r2
 800203a:	00db      	lsls	r3, r3, #3
 800203c:	440b      	add	r3, r1
 800203e:	335c      	adds	r3, #92	; 0x5c
 8002040:	781b      	ldrb	r3, [r3, #0]
 8002042:	461a      	mov	r2, r3
 8002044:	4601      	mov	r1, r0
 8002046:	6878      	ldr	r0, [r7, #4]
 8002048:	f005 fa08 	bl	800745c <HAL_HCD_HC_NotifyURBChange_Callback>
    hhcd->hc[ch_num].toggle_in ^= 1U;
 800204c:	6879      	ldr	r1, [r7, #4]
 800204e:	68fa      	ldr	r2, [r7, #12]
 8002050:	4613      	mov	r3, r2
 8002052:	009b      	lsls	r3, r3, #2
 8002054:	4413      	add	r3, r2
 8002056:	00db      	lsls	r3, r3, #3
 8002058:	440b      	add	r3, r1
 800205a:	3350      	adds	r3, #80	; 0x50
 800205c:	781b      	ldrb	r3, [r3, #0]
 800205e:	f083 0301 	eor.w	r3, r3, #1
 8002062:	b2d8      	uxtb	r0, r3
 8002064:	6879      	ldr	r1, [r7, #4]
 8002066:	68fa      	ldr	r2, [r7, #12]
 8002068:	4613      	mov	r3, r2
 800206a:	009b      	lsls	r3, r3, #2
 800206c:	4413      	add	r3, r2
 800206e:	00db      	lsls	r3, r3, #3
 8002070:	440b      	add	r3, r1
 8002072:	3350      	adds	r3, #80	; 0x50
 8002074:	4602      	mov	r2, r0
 8002076:	701a      	strb	r2, [r3, #0]
}
 8002078:	e1f7      	b.n	800246a <HCD_HC_IN_IRQHandler+0x862>
  else if ((USBx_HC(ch_num)->HCINT & USB_OTG_HCINT_CHH) == USB_OTG_HCINT_CHH)
 800207a:	68fb      	ldr	r3, [r7, #12]
 800207c:	015a      	lsls	r2, r3, #5
 800207e:	693b      	ldr	r3, [r7, #16]
 8002080:	4413      	add	r3, r2
 8002082:	f503 63a0 	add.w	r3, r3, #1280	; 0x500
 8002086:	689b      	ldr	r3, [r3, #8]
 8002088:	f003 0302 	and.w	r3, r3, #2
 800208c:	2b02      	cmp	r3, #2
 800208e:	f040 811a 	bne.w	80022c6 <HCD_HC_IN_IRQHandler+0x6be>
    __HAL_HCD_MASK_HALT_HC_INT(ch_num);
 8002092:	68fb      	ldr	r3, [r7, #12]
 8002094:	015a      	lsls	r2, r3, #5
 8002096:	693b      	ldr	r3, [r7, #16]
 8002098:	4413      	add	r3, r2
 800209a:	f503 63a0 	add.w	r3, r3, #1280	; 0x500
 800209e:	68db      	ldr	r3, [r3, #12]
 80020a0:	68fa      	ldr	r2, [r7, #12]
 80020a2:	0151      	lsls	r1, r2, #5
 80020a4:	693a      	ldr	r2, [r7, #16]
 80020a6:	440a      	add	r2, r1
 80020a8:	f502 62a0 	add.w	r2, r2, #1280	; 0x500
 80020ac:	f023 0302 	bic.w	r3, r3, #2
 80020b0:	60d3      	str	r3, [r2, #12]
    if (hhcd->hc[ch_num].state == HC_XFRC)
 80020b2:	6879      	ldr	r1, [r7, #4]
 80020b4:	68fa      	ldr	r2, [r7, #12]
 80020b6:	4613      	mov	r3, r2
 80020b8:	009b      	lsls	r3, r3, #2
 80020ba:	4413      	add	r3, r2
 80020bc:	00db      	lsls	r3, r3, #3
 80020be:	440b      	add	r3, r1
 80020c0:	335d      	adds	r3, #93	; 0x5d
 80020c2:	781b      	ldrb	r3, [r3, #0]
 80020c4:	2b01      	cmp	r3, #1
 80020c6:	d10a      	bne.n	80020de <HCD_HC_IN_IRQHandler+0x4d6>
      hhcd->hc[ch_num].urb_state  = URB_DONE;
 80020c8:	6879      	ldr	r1, [r7, #4]
 80020ca:	68fa      	ldr	r2, [r7, #12]
 80020cc:	4613      	mov	r3, r2
 80020ce:	009b      	lsls	r3, r3, #2
 80020d0:	4413      	add	r3, r2
 80020d2:	00db      	lsls	r3, r3, #3
 80020d4:	440b      	add	r3, r1
 80020d6:	335c      	adds	r3, #92	; 0x5c
 80020d8:	2201      	movs	r2, #1
 80020da:	701a      	strb	r2, [r3, #0]
 80020dc:	e0d9      	b.n	8002292 <HCD_HC_IN_IRQHandler+0x68a>
    else if (hhcd->hc[ch_num].state == HC_STALL)
 80020de:	6879      	ldr	r1, [r7, #4]
 80020e0:	68fa      	ldr	r2, [r7, #12]
 80020e2:	4613      	mov	r3, r2
 80020e4:	009b      	lsls	r3, r3, #2
 80020e6:	4413      	add	r3, r2
 80020e8:	00db      	lsls	r3, r3, #3
 80020ea:	440b      	add	r3, r1
 80020ec:	335d      	adds	r3, #93	; 0x5d
 80020ee:	781b      	ldrb	r3, [r3, #0]
 80020f0:	2b05      	cmp	r3, #5
 80020f2:	d10a      	bne.n	800210a <HCD_HC_IN_IRQHandler+0x502>
      hhcd->hc[ch_num].urb_state  = URB_STALL;
 80020f4:	6879      	ldr	r1, [r7, #4]
 80020f6:	68fa      	ldr	r2, [r7, #12]
 80020f8:	4613      	mov	r3, r2
 80020fa:	009b      	lsls	r3, r3, #2
 80020fc:	4413      	add	r3, r2
 80020fe:	00db      	lsls	r3, r3, #3
 8002100:	440b      	add	r3, r1
 8002102:	335c      	adds	r3, #92	; 0x5c
 8002104:	2205      	movs	r2, #5
 8002106:	701a      	strb	r2, [r3, #0]
 8002108:	e0c3      	b.n	8002292 <HCD_HC_IN_IRQHandler+0x68a>
    else if ((hhcd->hc[ch_num].state == HC_XACTERR) ||
 800210a:	6879      	ldr	r1, [r7, #4]
 800210c:	68fa      	ldr	r2, [r7, #12]
 800210e:	4613      	mov	r3, r2
 8002110:	009b      	lsls	r3, r3, #2
 8002112:	4413      	add	r3, r2
 8002114:	00db      	lsls	r3, r3, #3
 8002116:	440b      	add	r3, r1
 8002118:	335d      	adds	r3, #93	; 0x5d
 800211a:	781b      	ldrb	r3, [r3, #0]
 800211c:	2b06      	cmp	r3, #6
 800211e:	d00a      	beq.n	8002136 <HCD_HC_IN_IRQHandler+0x52e>
             (hhcd->hc[ch_num].state == HC_DATATGLERR))
 8002120:	6879      	ldr	r1, [r7, #4]
 8002122:	68fa      	ldr	r2, [r7, #12]
 8002124:	4613      	mov	r3, r2
 8002126:	009b      	lsls	r3, r3, #2
 8002128:	4413      	add	r3, r2
 800212a:	00db      	lsls	r3, r3, #3
 800212c:	440b      	add	r3, r1
 800212e:	335d      	adds	r3, #93	; 0x5d
 8002130:	781b      	ldrb	r3, [r3, #0]
    else if ((hhcd->hc[ch_num].state == HC_XACTERR) ||
 8002132:	2b08      	cmp	r3, #8
 8002134:	d156      	bne.n	80021e4 <HCD_HC_IN_IRQHandler+0x5dc>
      hhcd->hc[ch_num].ErrCnt++;
 8002136:	6879      	ldr	r1, [r7, #4]
 8002138:	68fa      	ldr	r2, [r7, #12]
 800213a:	4613      	mov	r3, r2
 800213c:	009b      	lsls	r3, r3, #2
 800213e:	4413      	add	r3, r2
 8002140:	00db      	lsls	r3, r3, #3
 8002142:	440b      	add	r3, r1
 8002144:	3358      	adds	r3, #88	; 0x58
 8002146:	681b      	ldr	r3, [r3, #0]
 8002148:	1c59      	adds	r1, r3, #1
 800214a:	6878      	ldr	r0, [r7, #4]
 800214c:	68fa      	ldr	r2, [r7, #12]
 800214e:	4613      	mov	r3, r2
 8002150:	009b      	lsls	r3, r3, #2
 8002152:	4413      	add	r3, r2
 8002154:	00db      	lsls	r3, r3, #3
 8002156:	4403      	add	r3, r0
 8002158:	3358      	adds	r3, #88	; 0x58
 800215a:	6019      	str	r1, [r3, #0]
      if (hhcd->hc[ch_num].ErrCnt > 3U)
 800215c:	6879      	ldr	r1, [r7, #4]
 800215e:	68fa      	ldr	r2, [r7, #12]
 8002160:	4613      	mov	r3, r2
 8002162:	009b      	lsls	r3, r3, #2
 8002164:	4413      	add	r3, r2
 8002166:	00db      	lsls	r3, r3, #3
 8002168:	440b      	add	r3, r1
 800216a:	3358      	adds	r3, #88	; 0x58
 800216c:	681b      	ldr	r3, [r3, #0]
 800216e:	2b03      	cmp	r3, #3
 8002170:	d914      	bls.n	800219c <HCD_HC_IN_IRQHandler+0x594>
        hhcd->hc[ch_num].ErrCnt = 0U;
 8002172:	6879      	ldr	r1, [r7, #4]
 8002174:	68fa      	ldr	r2, [r7, #12]
 8002176:	4613      	mov	r3, r2
 8002178:	009b      	lsls	r3, r3, #2
 800217a:	4413      	add	r3, r2
 800217c:	00db      	lsls	r3, r3, #3
 800217e:	440b      	add	r3, r1
 8002180:	3358      	adds	r3, #88	; 0x58
 8002182:	2200      	movs	r2, #0
 8002184:	601a      	str	r2, [r3, #0]
        hhcd->hc[ch_num].urb_state = URB_ERROR;
 8002186:	6879      	ldr	r1, [r7, #4]
 8002188:	68fa      	ldr	r2, [r7, #12]
 800218a:	4613      	mov	r3, r2
 800218c:	009b      	lsls	r3, r3, #2
 800218e:	4413      	add	r3, r2
 8002190:	00db      	lsls	r3, r3, #3
 8002192:	440b      	add	r3, r1
 8002194:	335c      	adds	r3, #92	; 0x5c
 8002196:	2204      	movs	r2, #4
 8002198:	701a      	strb	r2, [r3, #0]
 800219a:	e009      	b.n	80021b0 <HCD_HC_IN_IRQHandler+0x5a8>
        hhcd->hc[ch_num].urb_state = URB_NOTREADY;
 800219c:	6879      	ldr	r1, [r7, #4]
 800219e:	68fa      	ldr	r2, [r7, #12]
 80021a0:	4613      	mov	r3, r2
 80021a2:	009b      	lsls	r3, r3, #2
 80021a4:	4413      	add	r3, r2
 80021a6:	00db      	lsls	r3, r3, #3
 80021a8:	440b      	add	r3, r1
 80021aa:	335c      	adds	r3, #92	; 0x5c
 80021ac:	2202      	movs	r2, #2
 80021ae:	701a      	strb	r2, [r3, #0]
      tmpreg = USBx_HC(ch_num)->HCCHAR;
 80021b0:	68fb      	ldr	r3, [r7, #12]
 80021b2:	015a      	lsls	r2, r3, #5
 80021b4:	693b      	ldr	r3, [r7, #16]
 80021b6:	4413      	add	r3, r2
 80021b8:	f503 63a0 	add.w	r3, r3, #1280	; 0x500
 80021bc:	681b      	ldr	r3, [r3, #0]
 80021be:	60bb      	str	r3, [r7, #8]
      tmpreg &= ~USB_OTG_HCCHAR_CHDIS;
 80021c0:	68bb      	ldr	r3, [r7, #8]
 80021c2:	f023 4380 	bic.w	r3, r3, #1073741824	; 0x40000000
 80021c6:	60bb      	str	r3, [r7, #8]
      tmpreg |= USB_OTG_HCCHAR_CHENA;
 80021c8:	68bb      	ldr	r3, [r7, #8]
 80021ca:	f043 4300 	orr.w	r3, r3, #2147483648	; 0x80000000
 80021ce:	60bb      	str	r3, [r7, #8]
      USBx_HC(ch_num)->HCCHAR = tmpreg;
 80021d0:	68fb      	ldr	r3, [r7, #12]
 80021d2:	015a      	lsls	r2, r3, #5
 80021d4:	693b      	ldr	r3, [r7, #16]
 80021d6:	4413      	add	r3, r2
 80021d8:	f503 63a0 	add.w	r3, r3, #1280	; 0x500
 80021dc:	461a      	mov	r2, r3
 80021de:	68bb      	ldr	r3, [r7, #8]
 80021e0:	6013      	str	r3, [r2, #0]
 80021e2:	e056      	b.n	8002292 <HCD_HC_IN_IRQHandler+0x68a>
    else if (hhcd->hc[ch_num].state == HC_NAK)
 80021e4:	6879      	ldr	r1, [r7, #4]
 80021e6:	68fa      	ldr	r2, [r7, #12]
 80021e8:	4613      	mov	r3, r2
 80021ea:	009b      	lsls	r3, r3, #2
 80021ec:	4413      	add	r3, r2
 80021ee:	00db      	lsls	r3, r3, #3
 80021f0:	440b      	add	r3, r1
 80021f2:	335d      	adds	r3, #93	; 0x5d
 80021f4:	781b      	ldrb	r3, [r3, #0]
 80021f6:	2b03      	cmp	r3, #3
 80021f8:	d123      	bne.n	8002242 <HCD_HC_IN_IRQHandler+0x63a>
      hhcd->hc[ch_num].urb_state  = URB_NOTREADY;
 80021fa:	6879      	ldr	r1, [r7, #4]
 80021fc:	68fa      	ldr	r2, [r7, #12]
 80021fe:	4613      	mov	r3, r2
 8002200:	009b      	lsls	r3, r3, #2
 8002202:	4413      	add	r3, r2
 8002204:	00db      	lsls	r3, r3, #3
 8002206:	440b      	add	r3, r1
 8002208:	335c      	adds	r3, #92	; 0x5c
 800220a:	2202      	movs	r2, #2
 800220c:	701a      	strb	r2, [r3, #0]
      tmpreg = USBx_HC(ch_num)->HCCHAR;
 800220e:	68fb      	ldr	r3, [r7, #12]
 8002210:	015a      	lsls	r2, r3, #5
 8002212:	693b      	ldr	r3, [r7, #16]
 8002214:	4413      	add	r3, r2
 8002216:	f503 63a0 	add.w	r3, r3, #1280	; 0x500
 800221a:	681b      	ldr	r3, [r3, #0]
 800221c:	60bb      	str	r3, [r7, #8]
      tmpreg &= ~USB_OTG_HCCHAR_CHDIS;
 800221e:	68bb      	ldr	r3, [r7, #8]
 8002220:	f023 4380 	bic.w	r3, r3, #1073741824	; 0x40000000
 8002224:	60bb      	str	r3, [r7, #8]
      tmpreg |= USB_OTG_HCCHAR_CHENA;
 8002226:	68bb      	ldr	r3, [r7, #8]
 8002228:	f043 4300 	orr.w	r3, r3, #2147483648	; 0x80000000
 800222c:	60bb      	str	r3, [r7, #8]
      USBx_HC(ch_num)->HCCHAR = tmpreg;
 800222e:	68fb      	ldr	r3, [r7, #12]
 8002230:	015a      	lsls	r2, r3, #5
 8002232:	693b      	ldr	r3, [r7, #16]
 8002234:	4413      	add	r3, r2
 8002236:	f503 63a0 	add.w	r3, r3, #1280	; 0x500
 800223a:	461a      	mov	r2, r3
 800223c:	68bb      	ldr	r3, [r7, #8]
 800223e:	6013      	str	r3, [r2, #0]
 8002240:	e027      	b.n	8002292 <HCD_HC_IN_IRQHandler+0x68a>
    else if (hhcd->hc[ch_num].state == HC_BBLERR)
 8002242:	6879      	ldr	r1, [r7, #4]
 8002244:	68fa      	ldr	r2, [r7, #12]
 8002246:	4613      	mov	r3, r2
 8002248:	009b      	lsls	r3, r3, #2
 800224a:	4413      	add	r3, r2
 800224c:	00db      	lsls	r3, r3, #3
 800224e:	440b      	add	r3, r1
 8002250:	335d      	adds	r3, #93	; 0x5d
 8002252:	781b      	ldrb	r3, [r3, #0]
 8002254:	2b07      	cmp	r3, #7
 8002256:	d11c      	bne.n	8002292 <HCD_HC_IN_IRQHandler+0x68a>
      hhcd->hc[ch_num].ErrCnt++;
 8002258:	6879      	ldr	r1, [r7, #4]
 800225a:	68fa      	ldr	r2, [r7, #12]
 800225c:	4613      	mov	r3, r2
 800225e:	009b      	lsls	r3, r3, #2
 8002260:	4413      	add	r3, r2
 8002262:	00db      	lsls	r3, r3, #3
 8002264:	440b      	add	r3, r1
 8002266:	3358      	adds	r3, #88	; 0x58
 8002268:	681b      	ldr	r3, [r3, #0]
 800226a:	1c59      	adds	r1, r3, #1
 800226c:	6878      	ldr	r0, [r7, #4]
 800226e:	68fa      	ldr	r2, [r7, #12]
 8002270:	4613      	mov	r3, r2
 8002272:	009b      	lsls	r3, r3, #2
 8002274:	4413      	add	r3, r2
 8002276:	00db      	lsls	r3, r3, #3
 8002278:	4403      	add	r3, r0
 800227a:	3358      	adds	r3, #88	; 0x58
 800227c:	6019      	str	r1, [r3, #0]
      hhcd->hc[ch_num].urb_state = URB_ERROR;
 800227e:	6879      	ldr	r1, [r7, #4]
 8002280:	68fa      	ldr	r2, [r7, #12]
 8002282:	4613      	mov	r3, r2
 8002284:	009b      	lsls	r3, r3, #2
 8002286:	4413      	add	r3, r2
 8002288:	00db      	lsls	r3, r3, #3
 800228a:	440b      	add	r3, r1
 800228c:	335c      	adds	r3, #92	; 0x5c
 800228e:	2204      	movs	r2, #4
 8002290:	701a      	strb	r2, [r3, #0]
    __HAL_HCD_CLEAR_HC_INT(ch_num, USB_OTG_HCINT_CHH);
 8002292:	68fb      	ldr	r3, [r7, #12]
 8002294:	015a      	lsls	r2, r3, #5
 8002296:	693b      	ldr	r3, [r7, #16]
 8002298:	4413      	add	r3, r2
 800229a:	f503 63a0 	add.w	r3, r3, #1280	; 0x500
 800229e:	461a      	mov	r2, r3
 80022a0:	2302      	movs	r3, #2
 80022a2:	6093      	str	r3, [r2, #8]
    HAL_HCD_HC_NotifyURBChange_Callback(hhcd, (uint8_t)ch_num, hhcd->hc[ch_num].urb_state);
 80022a4:	68fb      	ldr	r3, [r7, #12]
 80022a6:	b2d8      	uxtb	r0, r3
 80022a8:	6879      	ldr	r1, [r7, #4]
 80022aa:	68fa      	ldr	r2, [r7, #12]
 80022ac:	4613      	mov	r3, r2
 80022ae:	009b      	lsls	r3, r3, #2
 80022b0:	4413      	add	r3, r2
 80022b2:	00db      	lsls	r3, r3, #3
 80022b4:	440b      	add	r3, r1
 80022b6:	335c      	adds	r3, #92	; 0x5c
 80022b8:	781b      	ldrb	r3, [r3, #0]
 80022ba:	461a      	mov	r2, r3
 80022bc:	4601      	mov	r1, r0
 80022be:	6878      	ldr	r0, [r7, #4]
 80022c0:	f005 f8cc 	bl	800745c <HAL_HCD_HC_NotifyURBChange_Callback>
}
 80022c4:	e0d1      	b.n	800246a <HCD_HC_IN_IRQHandler+0x862>
  else if ((USBx_HC(ch_num)->HCINT & USB_OTG_HCINT_TXERR) == USB_OTG_HCINT_TXERR)
 80022c6:	68fb      	ldr	r3, [r7, #12]
 80022c8:	015a      	lsls	r2, r3, #5
 80022ca:	693b      	ldr	r3, [r7, #16]
 80022cc:	4413      	add	r3, r2
 80022ce:	f503 63a0 	add.w	r3, r3, #1280	; 0x500
 80022d2:	689b      	ldr	r3, [r3, #8]
 80022d4:	f003 0380 	and.w	r3, r3, #128	; 0x80
 80022d8:	2b80      	cmp	r3, #128	; 0x80
 80022da:	d13e      	bne.n	800235a <HCD_HC_IN_IRQHandler+0x752>
    __HAL_HCD_UNMASK_HALT_HC_INT(ch_num);
 80022dc:	68fb      	ldr	r3, [r7, #12]
 80022de:	015a      	lsls	r2, r3, #5
 80022e0:	693b      	ldr	r3, [r7, #16]
 80022e2:	4413      	add	r3, r2
 80022e4:	f503 63a0 	add.w	r3, r3, #1280	; 0x500
 80022e8:	68db      	ldr	r3, [r3, #12]
 80022ea:	68fa      	ldr	r2, [r7, #12]
 80022ec:	0151      	lsls	r1, r2, #5
 80022ee:	693a      	ldr	r2, [r7, #16]
 80022f0:	440a      	add	r2, r1
 80022f2:	f502 62a0 	add.w	r2, r2, #1280	; 0x500
 80022f6:	f043 0302 	orr.w	r3, r3, #2
 80022fa:	60d3      	str	r3, [r2, #12]
    hhcd->hc[ch_num].ErrCnt++;
 80022fc:	6879      	ldr	r1, [r7, #4]
 80022fe:	68fa      	ldr	r2, [r7, #12]
 8002300:	4613      	mov	r3, r2
 8002302:	009b      	lsls	r3, r3, #2
 8002304:	4413      	add	r3, r2
 8002306:	00db      	lsls	r3, r3, #3
 8002308:	440b      	add	r3, r1
 800230a:	3358      	adds	r3, #88	; 0x58
 800230c:	681b      	ldr	r3, [r3, #0]
 800230e:	1c59      	adds	r1, r3, #1
 8002310:	6878      	ldr	r0, [r7, #4]
 8002312:	68fa      	ldr	r2, [r7, #12]
 8002314:	4613      	mov	r3, r2
 8002316:	009b      	lsls	r3, r3, #2
 8002318:	4413      	add	r3, r2
 800231a:	00db      	lsls	r3, r3, #3
 800231c:	4403      	add	r3, r0
 800231e:	3358      	adds	r3, #88	; 0x58
 8002320:	6019      	str	r1, [r3, #0]
    hhcd->hc[ch_num].state = HC_XACTERR;
 8002322:	6879      	ldr	r1, [r7, #4]
 8002324:	68fa      	ldr	r2, [r7, #12]
 8002326:	4613      	mov	r3, r2
 8002328:	009b      	lsls	r3, r3, #2
 800232a:	4413      	add	r3, r2
 800232c:	00db      	lsls	r3, r3, #3
 800232e:	440b      	add	r3, r1
 8002330:	335d      	adds	r3, #93	; 0x5d
 8002332:	2206      	movs	r2, #6
 8002334:	701a      	strb	r2, [r3, #0]
    (void)USB_HC_Halt(hhcd->Instance, (uint8_t)ch_num);
