
002_uart_example.elf:     file format elf32-littlearm

Sections:
Idx Name          Size      VMA       LMA       File off  Algn
  0 .isr_vector   00000188  08000000  08000000  00010000  2**0
                  CONTENTS, ALLOC, LOAD, READONLY, DATA
  1 .text         000017b8  08000188  08000188  00010188  2**2
                  CONTENTS, ALLOC, LOAD, READONLY, CODE
  2 .rodata       00000028  08001940  08001940  00011940  2**2
                  CONTENTS, ALLOC, LOAD, READONLY, DATA
  3 .ARM.extab    00000000  08001968  08001968  00020010  2**0
                  CONTENTS
  4 .ARM          00000008  08001968  08001968  00011968  2**2
                  CONTENTS, ALLOC, LOAD, READONLY, DATA
  5 .preinit_array 00000000  08001970  08001970  00020010  2**0
                  CONTENTS, ALLOC, LOAD, DATA
  6 .init_array   00000004  08001970  08001970  00011970  2**2
                  CONTENTS, ALLOC, LOAD, DATA
  7 .fini_array   00000004  08001974  08001974  00011974  2**2
                  CONTENTS, ALLOC, LOAD, DATA
  8 .data         00000010  20000000  08001978  00020000  2**2
                  CONTENTS, ALLOC, LOAD, DATA
  9 .bss          000000cc  20000010  08001988  00020010  2**2
                  ALLOC
 10 ._user_heap_stack 00000604  200000dc  08001988  000200dc  2**0
                  ALLOC
 11 .ARM.attributes 00000030  00000000  00000000  00020010  2**0
                  CONTENTS, READONLY
 12 .debug_info   00005bd8  00000000  00000000  00020040  2**0
                  CONTENTS, READONLY, DEBUGGING
 13 .debug_abbrev 0000106e  00000000  00000000  00025c18  2**0
                  CONTENTS, READONLY, DEBUGGING
 14 .debug_aranges 00000590  00000000  00000000  00026c88  2**3
                  CONTENTS, READONLY, DEBUGGING
 15 .debug_ranges 000004f8  00000000  00000000  00027218  2**3
                  CONTENTS, READONLY, DEBUGGING
 16 .debug_macro  000203cd  00000000  00000000  00027710  2**0
                  CONTENTS, READONLY, DEBUGGING
 17 .debug_line   00004ec4  00000000  00000000  00047add  2**0
                  CONTENTS, READONLY, DEBUGGING
 18 .debug_str    000c578c  00000000  00000000  0004c9a1  2**0
                  CONTENTS, READONLY, DEBUGGING
 19 .comment      0000007b  00000000  00000000  0011212d  2**0
                  CONTENTS, READONLY
 20 .debug_frame  00001598  00000000  00000000  001121a8  2**2
                  CONTENTS, READONLY, DEBUGGING

Disassembly of section .text:

08000188 <__do_global_dtors_aux>:
 8000188:	b510      	push	{r4, lr}
 800018a:	4c05      	ldr	r4, [pc, #20]	; (80001a0 <__do_global_dtors_aux+0x18>)
 800018c:	7823      	ldrb	r3, [r4, #0]
 800018e:	b933      	cbnz	r3, 800019e <__do_global_dtors_aux+0x16>
 8000190:	4b04      	ldr	r3, [pc, #16]	; (80001a4 <__do_global_dtors_aux+0x1c>)
 8000192:	b113      	cbz	r3, 800019a <__do_global_dtors_aux+0x12>
 8000194:	4804      	ldr	r0, [pc, #16]	; (80001a8 <__do_global_dtors_aux+0x20>)
 8000196:	f3af 8000 	nop.w
 800019a:	2301      	movs	r3, #1
 800019c:	7023      	strb	r3, [r4, #0]
 800019e:	bd10      	pop	{r4, pc}
 80001a0:	20000010 	.word	0x20000010
 80001a4:	00000000 	.word	0x00000000
 80001a8:	08001928 	.word	0x08001928

080001ac <frame_dummy>:
 80001ac:	b508      	push	{r3, lr}
 80001ae:	4b03      	ldr	r3, [pc, #12]	; (80001bc <frame_dummy+0x10>)
 80001b0:	b11b      	cbz	r3, 80001ba <frame_dummy+0xe>
 80001b2:	4903      	ldr	r1, [pc, #12]	; (80001c0 <frame_dummy+0x14>)
 80001b4:	4803      	ldr	r0, [pc, #12]	; (80001c4 <frame_dummy+0x18>)
 80001b6:	f3af 8000 	nop.w
 80001ba:	bd08      	pop	{r3, pc}
 80001bc:	00000000 	.word	0x00000000
 80001c0:	20000014 	.word	0x20000014
 80001c4:	08001928 	.word	0x08001928

080001c8 <strlen>:
 80001c8:	4603      	mov	r3, r0
 80001ca:	f813 2b01 	ldrb.w	r2, [r3], #1
 80001ce:	2a00      	cmp	r2, #0
 80001d0:	d1fb      	bne.n	80001ca <strlen+0x2>
 80001d2:	1a18      	subs	r0, r3, r0
 80001d4:	3801      	subs	r0, #1
 80001d6:	4770      	bx	lr

080001d8 <__aeabi_uldivmod>:
 80001d8:	b953      	cbnz	r3, 80001f0 <__aeabi_uldivmod+0x18>
 80001da:	b94a      	cbnz	r2, 80001f0 <__aeabi_uldivmod+0x18>
 80001dc:	2900      	cmp	r1, #0
 80001de:	bf08      	it	eq
 80001e0:	2800      	cmpeq	r0, #0
 80001e2:	bf1c      	itt	ne
 80001e4:	f04f 31ff 	movne.w	r1, #4294967295
 80001e8:	f04f 30ff 	movne.w	r0, #4294967295
 80001ec:	f000 b972 	b.w	80004d4 <__aeabi_idiv0>
 80001f0:	f1ad 0c08 	sub.w	ip, sp, #8
 80001f4:	e96d ce04 	strd	ip, lr, [sp, #-16]!
 80001f8:	f000 f806 	bl	8000208 <__udivmoddi4>
 80001fc:	f8dd e004 	ldr.w	lr, [sp, #4]
 8000200:	e9dd 2302 	ldrd	r2, r3, [sp, #8]
 8000204:	b004      	add	sp, #16
 8000206:	4770      	bx	lr

08000208 <__udivmoddi4>:
 8000208:	e92d 47f0 	stmdb	sp!, {r4, r5, r6, r7, r8, r9, sl, lr}
 800020c:	9e08      	ldr	r6, [sp, #32]
 800020e:	4604      	mov	r4, r0
 8000210:	4688      	mov	r8, r1
 8000212:	2b00      	cmp	r3, #0
 8000214:	d14b      	bne.n	80002ae <__udivmoddi4+0xa6>
 8000216:	428a      	cmp	r2, r1
 8000218:	4615      	mov	r5, r2
 800021a:	d967      	bls.n	80002ec <__udivmoddi4+0xe4>
 800021c:	fab2 f282 	clz	r2, r2
 8000220:	b14a      	cbz	r2, 8000236 <__udivmoddi4+0x2e>
 8000222:	f1c2 0720 	rsb	r7, r2, #32
 8000226:	fa01 f302 	lsl.w	r3, r1, r2
 800022a:	fa20 f707 	lsr.w	r7, r0, r7
 800022e:	4095      	lsls	r5, r2
 8000230:	ea47 0803 	orr.w	r8, r7, r3
 8000234:	4094      	lsls	r4, r2
 8000236:	ea4f 4e15 	mov.w	lr, r5, lsr #16
 800023a:	0c23      	lsrs	r3, r4, #16
 800023c:	fbb8 f7fe 	udiv	r7, r8, lr
 8000240:	fa1f fc85 	uxth.w	ip, r5
 8000244:	fb0e 8817 	mls	r8, lr, r7, r8
 8000248:	ea43 4308 	orr.w	r3, r3, r8, lsl #16
 800024c:	fb07 f10c 	mul.w	r1, r7, ip
 8000250:	4299      	cmp	r1, r3
 8000252:	d909      	bls.n	8000268 <__udivmoddi4+0x60>
 8000254:	18eb      	adds	r3, r5, r3
 8000256:	f107 30ff 	add.w	r0, r7, #4294967295
 800025a:	f080 811b 	bcs.w	8000494 <__udivmoddi4+0x28c>
 800025e:	4299      	cmp	r1, r3
 8000260:	f240 8118 	bls.w	8000494 <__udivmoddi4+0x28c>
 8000264:	3f02      	subs	r7, #2
 8000266:	442b      	add	r3, r5
 8000268:	1a5b      	subs	r3, r3, r1
 800026a:	b2a4      	uxth	r4, r4
 800026c:	fbb3 f0fe 	udiv	r0, r3, lr
 8000270:	fb0e 3310 	mls	r3, lr, r0, r3
 8000274:	ea44 4403 	orr.w	r4, r4, r3, lsl #16
 8000278:	fb00 fc0c 	mul.w	ip, r0, ip
 800027c:	45a4      	cmp	ip, r4
 800027e:	d909      	bls.n	8000294 <__udivmoddi4+0x8c>
 8000280:	192c      	adds	r4, r5, r4
 8000282:	f100 33ff 	add.w	r3, r0, #4294967295
 8000286:	f080 8107 	bcs.w	8000498 <__udivmoddi4+0x290>
 800028a:	45a4      	cmp	ip, r4
 800028c:	f240 8104 	bls.w	8000498 <__udivmoddi4+0x290>
 8000290:	3802      	subs	r0, #2
 8000292:	442c      	add	r4, r5
 8000294:	ea40 4007 	orr.w	r0, r0, r7, lsl #16
 8000298:	eba4 040c 	sub.w	r4, r4, ip
 800029c:	2700      	movs	r7, #0
 800029e:	b11e      	cbz	r6, 80002a8 <__udivmoddi4+0xa0>
 80002a0:	40d4      	lsrs	r4, r2
 80002a2:	2300      	movs	r3, #0
 80002a4:	e9c6 4300 	strd	r4, r3, [r6]
 80002a8:	4639      	mov	r1, r7
 80002aa:	e8bd 87f0 	ldmia.w	sp!, {r4, r5, r6, r7, r8, r9, sl, pc}
 80002ae:	428b      	cmp	r3, r1
 80002b0:	d909      	bls.n	80002c6 <__udivmoddi4+0xbe>
 80002b2:	2e00      	cmp	r6, #0
 80002b4:	f000 80eb 	beq.w	800048e <__udivmoddi4+0x286>
 80002b8:	2700      	movs	r7, #0
 80002ba:	e9c6 0100 	strd	r0, r1, [r6]
 80002be:	4638      	mov	r0, r7
 80002c0:	4639      	mov	r1, r7
 80002c2:	e8bd 87f0 	ldmia.w	sp!, {r4, r5, r6, r7, r8, r9, sl, pc}
 80002c6:	fab3 f783 	clz	r7, r3
 80002ca:	2f00      	cmp	r7, #0
 80002cc:	d147      	bne.n	800035e <__udivmoddi4+0x156>
 80002ce:	428b      	cmp	r3, r1
 80002d0:	d302      	bcc.n	80002d8 <__udivmoddi4+0xd0>
 80002d2:	4282      	cmp	r2, r0
 80002d4:	f200 80fa 	bhi.w	80004cc <__udivmoddi4+0x2c4>
 80002d8:	1a84      	subs	r4, r0, r2
 80002da:	eb61 0303 	sbc.w	r3, r1, r3
 80002de:	2001      	movs	r0, #1
 80002e0:	4698      	mov	r8, r3
 80002e2:	2e00      	cmp	r6, #0
 80002e4:	d0e0      	beq.n	80002a8 <__udivmoddi4+0xa0>
 80002e6:	e9c6 4800 	strd	r4, r8, [r6]
 80002ea:	e7dd      	b.n	80002a8 <__udivmoddi4+0xa0>
 80002ec:	b902      	cbnz	r2, 80002f0 <__udivmoddi4+0xe8>
 80002ee:	deff      	udf	#255	; 0xff
 80002f0:	fab2 f282 	clz	r2, r2
 80002f4:	2a00      	cmp	r2, #0
 80002f6:	f040 808f 	bne.w	8000418 <__udivmoddi4+0x210>
 80002fa:	1b49      	subs	r1, r1, r5
 80002fc:	ea4f 4e15 	mov.w	lr, r5, lsr #16
 8000300:	fa1f f885 	uxth.w	r8, r5
 8000304:	2701      	movs	r7, #1
 8000306:	fbb1 fcfe 	udiv	ip, r1, lr
 800030a:	0c23      	lsrs	r3, r4, #16
 800030c:	fb0e 111c 	mls	r1, lr, ip, r1
 8000310:	ea43 4301 	orr.w	r3, r3, r1, lsl #16
 8000314:	fb08 f10c 	mul.w	r1, r8, ip
 8000318:	4299      	cmp	r1, r3
 800031a:	d907      	bls.n	800032c <__udivmoddi4+0x124>
 800031c:	18eb      	adds	r3, r5, r3
 800031e:	f10c 30ff 	add.w	r0, ip, #4294967295
 8000322:	d202      	bcs.n	800032a <__udivmoddi4+0x122>
 8000324:	4299      	cmp	r1, r3
 8000326:	f200 80cd 	bhi.w	80004c4 <__udivmoddi4+0x2bc>
 800032a:	4684      	mov	ip, r0
 800032c:	1a59      	subs	r1, r3, r1
 800032e:	b2a3      	uxth	r3, r4
 8000330:	fbb1 f0fe 	udiv	r0, r1, lr
 8000334:	fb0e 1410 	mls	r4, lr, r0, r1
 8000338:	ea43 4404 	orr.w	r4, r3, r4, lsl #16
 800033c:	fb08 f800 	mul.w	r8, r8, r0
 8000340:	45a0      	cmp	r8, r4
 8000342:	d907      	bls.n	8000354 <__udivmoddi4+0x14c>
 8000344:	192c      	adds	r4, r5, r4
 8000346:	f100 33ff 	add.w	r3, r0, #4294967295
 800034a:	d202      	bcs.n	8000352 <__udivmoddi4+0x14a>
 800034c:	45a0      	cmp	r8, r4
 800034e:	f200 80b6 	bhi.w	80004be <__udivmoddi4+0x2b6>
 8000352:	4618      	mov	r0, r3
 8000354:	eba4 0408 	sub.w	r4, r4, r8
 8000358:	ea40 400c 	orr.w	r0, r0, ip, lsl #16
 800035c:	e79f      	b.n	800029e <__udivmoddi4+0x96>
 800035e:	f1c7 0c20 	rsb	ip, r7, #32
 8000362:	40bb      	lsls	r3, r7
 8000364:	fa22 fe0c 	lsr.w	lr, r2, ip
 8000368:	ea4e 0e03 	orr.w	lr, lr, r3
 800036c:	fa01 f407 	lsl.w	r4, r1, r7
 8000370:	fa20 f50c 	lsr.w	r5, r0, ip
 8000374:	fa21 f30c 	lsr.w	r3, r1, ip
 8000378:	ea4f 481e 	mov.w	r8, lr, lsr #16
 800037c:	4325      	orrs	r5, r4
 800037e:	fbb3 f9f8 	udiv	r9, r3, r8
 8000382:	0c2c      	lsrs	r4, r5, #16
 8000384:	fb08 3319 	mls	r3, r8, r9, r3
 8000388:	fa1f fa8e 	uxth.w	sl, lr
 800038c:	ea44 4303 	orr.w	r3, r4, r3, lsl #16
 8000390:	fb09 f40a 	mul.w	r4, r9, sl
 8000394:	429c      	cmp	r4, r3
 8000396:	fa02 f207 	lsl.w	r2, r2, r7
 800039a:	fa00 f107 	lsl.w	r1, r0, r7
 800039e:	d90b      	bls.n	80003b8 <__udivmoddi4+0x1b0>
 80003a0:	eb1e 0303 	adds.w	r3, lr, r3
 80003a4:	f109 30ff 	add.w	r0, r9, #4294967295
 80003a8:	f080 8087 	bcs.w	80004ba <__udivmoddi4+0x2b2>
 80003ac:	429c      	cmp	r4, r3
 80003ae:	f240 8084 	bls.w	80004ba <__udivmoddi4+0x2b2>
 80003b2:	f1a9 0902 	sub.w	r9, r9, #2
 80003b6:	4473      	add	r3, lr
 80003b8:	1b1b      	subs	r3, r3, r4
 80003ba:	b2ad      	uxth	r5, r5
 80003bc:	fbb3 f0f8 	udiv	r0, r3, r8
 80003c0:	fb08 3310 	mls	r3, r8, r0, r3
 80003c4:	ea45 4403 	orr.w	r4, r5, r3, lsl #16
 80003c8:	fb00 fa0a 	mul.w	sl, r0, sl
 80003cc:	45a2      	cmp	sl, r4
 80003ce:	d908      	bls.n	80003e2 <__udivmoddi4+0x1da>
 80003d0:	eb1e 0404 	adds.w	r4, lr, r4
 80003d4:	f100 33ff 	add.w	r3, r0, #4294967295
 80003d8:	d26b      	bcs.n	80004b2 <__udivmoddi4+0x2aa>
 80003da:	45a2      	cmp	sl, r4
 80003dc:	d969      	bls.n	80004b2 <__udivmoddi4+0x2aa>
 80003de:	3802      	subs	r0, #2
 80003e0:	4474      	add	r4, lr
 80003e2:	ea40 4009 	orr.w	r0, r0, r9, lsl #16
 80003e6:	fba0 8902 	umull	r8, r9, r0, r2
 80003ea:	eba4 040a 	sub.w	r4, r4, sl
 80003ee:	454c      	cmp	r4, r9
 80003f0:	46c2      	mov	sl, r8
 80003f2:	464b      	mov	r3, r9
 80003f4:	d354      	bcc.n	80004a0 <__udivmoddi4+0x298>
 80003f6:	d051      	beq.n	800049c <__udivmoddi4+0x294>
 80003f8:	2e00      	cmp	r6, #0
 80003fa:	d069      	beq.n	80004d0 <__udivmoddi4+0x2c8>
 80003fc:	ebb1 050a 	subs.w	r5, r1, sl
 8000400:	eb64 0403 	sbc.w	r4, r4, r3
 8000404:	fa04 fc0c 	lsl.w	ip, r4, ip
 8000408:	40fd      	lsrs	r5, r7
 800040a:	40fc      	lsrs	r4, r7
 800040c:	ea4c 0505 	orr.w	r5, ip, r5
 8000410:	e9c6 5400 	strd	r5, r4, [r6]
 8000414:	2700      	movs	r7, #0
 8000416:	e747      	b.n	80002a8 <__udivmoddi4+0xa0>
 8000418:	f1c2 0320 	rsb	r3, r2, #32
 800041c:	fa20 f703 	lsr.w	r7, r0, r3
 8000420:	4095      	lsls	r5, r2
 8000422:	fa01 f002 	lsl.w	r0, r1, r2
 8000426:	fa21 f303 	lsr.w	r3, r1, r3
 800042a:	ea4f 4e15 	mov.w	lr, r5, lsr #16
 800042e:	4338      	orrs	r0, r7
 8000430:	0c01      	lsrs	r1, r0, #16
 8000432:	fbb3 f7fe 	udiv	r7, r3, lr
 8000436:	fa1f f885 	uxth.w	r8, r5
 800043a:	fb0e 3317 	mls	r3, lr, r7, r3
 800043e:	ea41 4103 	orr.w	r1, r1, r3, lsl #16
 8000442:	fb07 f308 	mul.w	r3, r7, r8
 8000446:	428b      	cmp	r3, r1
 8000448:	fa04 f402 	lsl.w	r4, r4, r2
 800044c:	d907      	bls.n	800045e <__udivmoddi4+0x256>
 800044e:	1869      	adds	r1, r5, r1
 8000450:	f107 3cff 	add.w	ip, r7, #4294967295
 8000454:	d22f      	bcs.n	80004b6 <__udivmoddi4+0x2ae>
 8000456:	428b      	cmp	r3, r1
 8000458:	d92d      	bls.n	80004b6 <__udivmoddi4+0x2ae>
 800045a:	3f02      	subs	r7, #2
 800045c:	4429      	add	r1, r5
 800045e:	1acb      	subs	r3, r1, r3
 8000460:	b281      	uxth	r1, r0
 8000462:	fbb3 f0fe 	udiv	r0, r3, lr
 8000466:	fb0e 3310 	mls	r3, lr, r0, r3
 800046a:	ea41 4103 	orr.w	r1, r1, r3, lsl #16
 800046e:	fb00 f308 	mul.w	r3, r0, r8
 8000472:	428b      	cmp	r3, r1
 8000474:	d907      	bls.n	8000486 <__udivmoddi4+0x27e>
 8000476:	1869      	adds	r1, r5, r1
 8000478:	f100 3cff 	add.w	ip, r0, #4294967295
 800047c:	d217      	bcs.n	80004ae <__udivmoddi4+0x2a6>
 800047e:	428b      	cmp	r3, r1
 8000480:	d915      	bls.n	80004ae <__udivmoddi4+0x2a6>
 8000482:	3802      	subs	r0, #2
 8000484:	4429      	add	r1, r5
 8000486:	1ac9      	subs	r1, r1, r3
 8000488:	ea40 4707 	orr.w	r7, r0, r7, lsl #16
 800048c:	e73b      	b.n	8000306 <__udivmoddi4+0xfe>
 800048e:	4637      	mov	r7, r6
 8000490:	4630      	mov	r0, r6
 8000492:	e709      	b.n	80002a8 <__udivmoddi4+0xa0>
 8000494:	4607      	mov	r7, r0
 8000496:	e6e7      	b.n	8000268 <__udivmoddi4+0x60>
 8000498:	4618      	mov	r0, r3
 800049a:	e6fb      	b.n	8000294 <__udivmoddi4+0x8c>
 800049c:	4541      	cmp	r1, r8
 800049e:	d2ab      	bcs.n	80003f8 <__udivmoddi4+0x1f0>
 80004a0:	ebb8 0a02 	subs.w	sl, r8, r2
 80004a4:	eb69 020e 	sbc.w	r2, r9, lr
 80004a8:	3801      	subs	r0, #1
 80004aa:	4613      	mov	r3, r2
 80004ac:	e7a4      	b.n	80003f8 <__udivmoddi4+0x1f0>
 80004ae:	4660      	mov	r0, ip
 80004b0:	e7e9      	b.n	8000486 <__udivmoddi4+0x27e>
 80004b2:	4618      	mov	r0, r3
 80004b4:	e795      	b.n	80003e2 <__udivmoddi4+0x1da>
 80004b6:	4667      	mov	r7, ip
 80004b8:	e7d1      	b.n	800045e <__udivmoddi4+0x256>
 80004ba:	4681      	mov	r9, r0
 80004bc:	e77c      	b.n	80003b8 <__udivmoddi4+0x1b0>
 80004be:	3802      	subs	r0, #2
 80004c0:	442c      	add	r4, r5
 80004c2:	e747      	b.n	8000354 <__udivmoddi4+0x14c>
 80004c4:	f1ac 0c02 	sub.w	ip, ip, #2
 80004c8:	442b      	add	r3, r5
 80004ca:	e72f      	b.n	800032c <__udivmoddi4+0x124>
 80004cc:	4638      	mov	r0, r7
 80004ce:	e708      	b.n	80002e2 <__udivmoddi4+0xda>
 80004d0:	4637      	mov	r7, r6
 80004d2:	e6e9      	b.n	80002a8 <__udivmoddi4+0xa0>

080004d4 <__aeabi_idiv0>:
 80004d4:	4770      	bx	lr
 80004d6:	bf00      	nop

080004d8 <SysTick_Handler>:
 *  Created on: Dec 30, 2020
 *      Author: Developer
 */

void SysTick_Handler(void)
{
 80004d8:	b580      	push	{r7, lr}
 80004da:	af00      	add	r7, sp, #0
	HAL_IncTick();
 80004dc:	f000 f9a2 	bl	8000824 <HAL_IncTick>
	HAL_SYSTICK_IRQHandler();
 80004e0:	f000 fad1 	bl	8000a86 <HAL_SYSTICK_IRQHandler>
}
 80004e4:	bf00      	nop
 80004e6:	bd80      	pop	{r7, pc}

080004e8 <main>:
char *user_data = "The application is running\r\n";
uint8_t recie_data;
uint8_t data_buffer[100];
uint32_t count =0;
int main (void)
{
 80004e8:	b598      	push	{r3, r4, r7, lr}
 80004ea:	af00      	add	r7, sp, #0
	HAL_Init();
 80004ec:	f000 f948 	bl	8000780 <HAL_Init>
	SystemClockConfig();
 80004f0:	f000 f84a 	bl	8000588 <SystemClockConfig>
	UART2_Init();
 80004f4:	f000 f850 	bl	8000598 <UART2_Init>

	 HAL_UART_Transmit(&huart2, (uint8_t *)user_data, strlen(user_data), HAL_MAX_DELAY);
 80004f8:	4b1e      	ldr	r3, [pc, #120]	; (8000574 <main+0x8c>)
 80004fa:	681c      	ldr	r4, [r3, #0]
 80004fc:	4b1d      	ldr	r3, [pc, #116]	; (8000574 <main+0x8c>)
 80004fe:	681b      	ldr	r3, [r3, #0]
 8000500:	4618      	mov	r0, r3
 8000502:	f7ff fe61 	bl	80001c8 <strlen>
 8000506:	4603      	mov	r3, r0
 8000508:	b29a      	uxth	r2, r3
 800050a:	f04f 33ff 	mov.w	r3, #4294967295
 800050e:	4621      	mov	r1, r4
 8000510:	4819      	ldr	r0, [pc, #100]	; (8000578 <main+0x90>)
 8000512:	f000 fce0 	bl	8000ed6 <HAL_UART_Transmit>

	 while(1)
	 {
	     HAL_UART_Receive(&huart2, &recie_data, 1, HAL_MAX_DELAY);
 8000516:	f04f 33ff 	mov.w	r3, #4294967295
 800051a:	2201      	movs	r2, #1
 800051c:	4917      	ldr	r1, [pc, #92]	; (800057c <main+0x94>)
 800051e:	4816      	ldr	r0, [pc, #88]	; (8000578 <main+0x90>)
 8000520:	f000 fd72 	bl	8001008 <HAL_UART_Receive>
	     if(recie_data=='\r')
 8000524:	4b15      	ldr	r3, [pc, #84]	; (800057c <main+0x94>)
 8000526:	781b      	ldrb	r3, [r3, #0]
 8000528:	2b0d      	cmp	r3, #13
 800052a:	d00e      	beq.n	800054a <main+0x62>
	     {
	    	 break;
	     }else
	     data_buffer[count++]= convert_to_capital(recie_data);
 800052c:	4b13      	ldr	r3, [pc, #76]	; (800057c <main+0x94>)
 800052e:	7819      	ldrb	r1, [r3, #0]
 8000530:	4b13      	ldr	r3, [pc, #76]	; (8000580 <main+0x98>)
 8000532:	681c      	ldr	r4, [r3, #0]
 8000534:	1c63      	adds	r3, r4, #1
 8000536:	4a12      	ldr	r2, [pc, #72]	; (8000580 <main+0x98>)
 8000538:	6013      	str	r3, [r2, #0]
 800053a:	4608      	mov	r0, r1
 800053c:	f000 f855 	bl	80005ea <convert_to_capital>
 8000540:	4603      	mov	r3, r0
 8000542:	461a      	mov	r2, r3
 8000544:	4b0f      	ldr	r3, [pc, #60]	; (8000584 <main+0x9c>)
 8000546:	551a      	strb	r2, [r3, r4]
	     HAL_UART_Receive(&huart2, &recie_data, 1, HAL_MAX_DELAY);
 8000548:	e7e5      	b.n	8000516 <main+0x2e>
	    	 break;
 800054a:	bf00      	nop
	 }
	 data_buffer[count++] = '\r';
 800054c:	4b0c      	ldr	r3, [pc, #48]	; (8000580 <main+0x98>)
 800054e:	681b      	ldr	r3, [r3, #0]
 8000550:	1c5a      	adds	r2, r3, #1
 8000552:	490b      	ldr	r1, [pc, #44]	; (8000580 <main+0x98>)
 8000554:	600a      	str	r2, [r1, #0]
 8000556:	4a0b      	ldr	r2, [pc, #44]	; (8000584 <main+0x9c>)
 8000558:	210d      	movs	r1, #13
 800055a:	54d1      	strb	r1, [r2, r3]
	 HAL_UART_Transmit(&huart2, data_buffer, count, HAL_MAX_DELAY);
 800055c:	4b08      	ldr	r3, [pc, #32]	; (8000580 <main+0x98>)
 800055e:	681b      	ldr	r3, [r3, #0]
 8000560:	b29a      	uxth	r2, r3
 8000562:	f04f 33ff 	mov.w	r3, #4294967295
 8000566:	4907      	ldr	r1, [pc, #28]	; (8000584 <main+0x9c>)
 8000568:	4803      	ldr	r0, [pc, #12]	; (8000578 <main+0x90>)
 800056a:	f000 fcb4 	bl	8000ed6 <HAL_UART_Transmit>
	 return 0;
 800056e:	2300      	movs	r3, #0
}
 8000570:	4618      	mov	r0, r3
 8000572:	bd98      	pop	{r3, r4, r7, pc}
 8000574:	20000000 	.word	0x20000000
 8000578:	20000034 	.word	0x20000034
 800057c:	20000030 	.word	0x20000030
 8000580:	2000002c 	.word	0x2000002c
 8000584:	20000074 	.word	0x20000074

08000588 <SystemClockConfig>:



void SystemClockConfig(void)
{
 8000588:	b480      	push	{r7}
 800058a:	af00      	add	r7, sp, #0
	// only use if we want to use different clock setting
	// by default it use internal rc oscillator need not to use this now
}
 800058c:	bf00      	nop
 800058e:	46bd      	mov	sp, r7
 8000590:	f85d 7b04 	ldr.w	r7, [sp], #4
 8000594:	4770      	bx	lr
	...

08000598 <UART2_Init>:

void UART2_Init(void)
{
 8000598:	b580      	push	{r7, lr}
 800059a:	af00      	add	r7, sp, #0
	huart2.Instance = USART2;
 800059c:	4b0f      	ldr	r3, [pc, #60]	; (80005dc <UART2_Init+0x44>)
 800059e:	4a10      	ldr	r2, [pc, #64]	; (80005e0 <UART2_Init+0x48>)
 80005a0:	601a      	str	r2, [r3, #0]
	huart2.Init.BaudRate=115200;
 80005a2:	4b0e      	ldr	r3, [pc, #56]	; (80005dc <UART2_Init+0x44>)
 80005a4:	f44f 32e1 	mov.w	r2, #115200	; 0x1c200
 80005a8:	605a      	str	r2, [r3, #4]
	huart2.Init.HwFlowCtl=UART_HWCONTROL_NONE ;
 80005aa:	4b0c      	ldr	r3, [pc, #48]	; (80005dc <UART2_Init+0x44>)
 80005ac:	2200      	movs	r2, #0
 80005ae:	619a      	str	r2, [r3, #24]
	huart2.Init.Mode=UART_MODE_TX_RX ;
 80005b0:	4b0a      	ldr	r3, [pc, #40]	; (80005dc <UART2_Init+0x44>)
 80005b2:	220c      	movs	r2, #12
 80005b4:	615a      	str	r2, [r3, #20]
//	huart2.Init.OverSampling=UART_OVERSAMPLING_16 ;
    huart2.Init.Parity=UART_PARITY_NONE ;
 80005b6:	4b09      	ldr	r3, [pc, #36]	; (80005dc <UART2_Init+0x44>)
 80005b8:	2200      	movs	r2, #0
 80005ba:	611a      	str	r2, [r3, #16]
    huart2.Init.StopBits=UART_STOPBITS_1 ;
 80005bc:	4b07      	ldr	r3, [pc, #28]	; (80005dc <UART2_Init+0x44>)
 80005be:	2200      	movs	r2, #0
 80005c0:	60da      	str	r2, [r3, #12]
    huart2.Init.WordLength=UART_WORDLENGTH_8B ;
 80005c2:	4b06      	ldr	r3, [pc, #24]	; (80005dc <UART2_Init+0x44>)
 80005c4:	2200      	movs	r2, #0
 80005c6:	609a      	str	r2, [r3, #8]

   if ( HAL_UART_Init(&huart2) != HAL_OK)
 80005c8:	4804      	ldr	r0, [pc, #16]	; (80005dc <UART2_Init+0x44>)
 80005ca:	f000 fc37 	bl	8000e3c <HAL_UART_Init>
 80005ce:	4603      	mov	r3, r0
 80005d0:	2b00      	cmp	r3, #0
 80005d2:	d001      	beq.n	80005d8 <UART2_Init+0x40>
   {
	   //there is a problem
	   Error_handler();
 80005d4:	f000 f806 	bl	80005e4 <Error_handler>
   }
}
 80005d8:	bf00      	nop
 80005da:	bd80      	pop	{r7, pc}
 80005dc:	20000034 	.word	0x20000034
 80005e0:	40004400 	.word	0x40004400

080005e4 <Error_handler>:

void Error_handler()
{
 80005e4:	b480      	push	{r7}
 80005e6:	af00      	add	r7, sp, #0
	while(1);
 80005e8:	e7fe      	b.n	80005e8 <Error_handler+0x4>

080005ea <convert_to_capital>:
}

uint8_t convert_to_capital(uint8_t data)
{
 80005ea:	b480      	push	{r7}
 80005ec:	b083      	sub	sp, #12
 80005ee:	af00      	add	r7, sp, #0
 80005f0:	4603      	mov	r3, r0
 80005f2:	71fb      	strb	r3, [r7, #7]
	if (data >= 'a'&& data <= 'z')
 80005f4:	79fb      	ldrb	r3, [r7, #7]
 80005f6:	2b60      	cmp	r3, #96	; 0x60
 80005f8:	d905      	bls.n	8000606 <convert_to_capital+0x1c>
 80005fa:	79fb      	ldrb	r3, [r7, #7]
 80005fc:	2b7a      	cmp	r3, #122	; 0x7a
 80005fe:	d802      	bhi.n	8000606 <convert_to_capital+0x1c>
	{
		data = data-('a'-'A');
 8000600:	79fb      	ldrb	r3, [r7, #7]
 8000602:	3b20      	subs	r3, #32
 8000604:	71fb      	strb	r3, [r7, #7]
	}
	return data;
 8000606:	79fb      	ldrb	r3, [r7, #7]
}
 8000608:	4618      	mov	r0, r3
 800060a:	370c      	adds	r7, #12
 800060c:	46bd      	mov	sp, r7
 800060e:	f85d 7b04 	ldr.w	r7, [sp], #4
 8000612:	4770      	bx	lr

08000614 <HAL_MspInit>:
 *      Author: Developer
 */
#include "stm32f4xx_hal.h"
#include "stm32f4xx_hal_gpio.h"
 void HAL_MspInit(void)
{
 8000614:	b580      	push	{r7, lr}
 8000616:	af00      	add	r7, sp, #0
  /* NOTE : This function should not be modified, when the callback is needed,
            the HAL_MspInit could be implemented in the user file
   */
	 //1.priority grouping
	 // we use default one it is under hal driver layer under hal_cortex.c
	 HAL_NVIC_SetPriorityGrouping(NVIC_PRIORITYGROUP_4);
 8000618:	2003      	movs	r0, #3
 800061a:	f000 f9f3 	bl	8000a04 <HAL_NVIC_SetPriorityGrouping>
	 //2.system exceptions
	 SCB->SHCSR |=SCB_SHCSR_USGFAULTENA_Msk ; //enable usage
 800061e:	4b13      	ldr	r3, [pc, #76]	; (800066c <HAL_MspInit+0x58>)
 8000620:	6a5b      	ldr	r3, [r3, #36]	; 0x24
 8000622:	4a12      	ldr	r2, [pc, #72]	; (800066c <HAL_MspInit+0x58>)
 8000624:	f443 2380 	orr.w	r3, r3, #262144	; 0x40000
 8000628:	6253      	str	r3, [r2, #36]	; 0x24
	 SCB->SHCSR |=SCB_SHCSR_BUSFAULTENA_Msk ; //mem
 800062a:	4b10      	ldr	r3, [pc, #64]	; (800066c <HAL_MspInit+0x58>)
 800062c:	6a5b      	ldr	r3, [r3, #36]	; 0x24
 800062e:	4a0f      	ldr	r2, [pc, #60]	; (800066c <HAL_MspInit+0x58>)
 8000630:	f443 3300 	orr.w	r3, r3, #131072	; 0x20000
 8000634:	6253      	str	r3, [r2, #36]	; 0x24
	 SCB->SHCSR |=SCB_SHCSR_MEMFAULTENA_Msk ; //bus
 8000636:	4b0d      	ldr	r3, [pc, #52]	; (800066c <HAL_MspInit+0x58>)
 8000638:	6a5b      	ldr	r3, [r3, #36]	; 0x24
 800063a:	4a0c      	ldr	r2, [pc, #48]	; (800066c <HAL_MspInit+0x58>)
 800063c:	f443 3380 	orr.w	r3, r3, #65536	; 0x10000
 8000640:	6253      	str	r3, [r2, #36]	; 0x24
	 //3.priority for system exceptions

	 HAL_NVIC_SetPriority(MemoryManagement_IRQn, 0, 0);
 8000642:	2200      	movs	r2, #0
 8000644:	2100      	movs	r1, #0
 8000646:	f06f 000b 	mvn.w	r0, #11
 800064a:	f000 f9e6 	bl	8000a1a <HAL_NVIC_SetPriority>
	 HAL_NVIC_SetPriority(BusFault_IRQn, 0, 0);
 800064e:	2200      	movs	r2, #0
 8000650:	2100      	movs	r1, #0
 8000652:	f06f 000a 	mvn.w	r0, #10
 8000656:	f000 f9e0 	bl	8000a1a <HAL_NVIC_SetPriority>
	 HAL_NVIC_SetPriority(UsageFault_IRQn, 0, 0);
 800065a:	2200      	movs	r2, #0
 800065c:	2100      	movs	r1, #0
 800065e:	f06f 0009 	mvn.w	r0, #9
 8000662:	f000 f9da 	bl	8000a1a <HAL_NVIC_SetPriority>
}
 8000666:	bf00      	nop
 8000668:	bd80      	pop	{r7, pc}
 800066a:	bf00      	nop
 800066c:	e000ed00 	.word	0xe000ed00

08000670 <HAL_UART_MspInit>:


  void HAL_UART_MspInit(UART_HandleTypeDef *huart)
 {
 8000670:	b580      	push	{r7, lr}
 8000672:	b08a      	sub	sp, #40	; 0x28
 8000674:	af00      	add	r7, sp, #0
 8000676:	6078      	str	r0, [r7, #4]
	  // low level initialization

	  //enable clock for usart2
	  __HAL_RCC_USART2_CLK_ENABLE();
 8000678:	2300      	movs	r3, #0
 800067a:	613b      	str	r3, [r7, #16]
 800067c:	4b1e      	ldr	r3, [pc, #120]	; (80006f8 <HAL_UART_MspInit+0x88>)
 800067e:	6c1b      	ldr	r3, [r3, #64]	; 0x40
 8000680:	4a1d      	ldr	r2, [pc, #116]	; (80006f8 <HAL_UART_MspInit+0x88>)
 8000682:	f443 3300 	orr.w	r3, r3, #131072	; 0x20000
 8000686:	6413      	str	r3, [r2, #64]	; 0x40
 8000688:	4b1b      	ldr	r3, [pc, #108]	; (80006f8 <HAL_UART_MspInit+0x88>)
 800068a:	6c1b      	ldr	r3, [r3, #64]	; 0x40
 800068c:	f403 3300 	and.w	r3, r3, #131072	; 0x20000
 8000690:	613b      	str	r3, [r7, #16]
 8000692:	693b      	ldr	r3, [r7, #16]

	  //pin muxing

      __HAL_RCC_GPIOA_CLK_ENABLE();
 8000694:	2300      	movs	r3, #0
 8000696:	60fb      	str	r3, [r7, #12]
 8000698:	4b17      	ldr	r3, [pc, #92]	; (80006f8 <HAL_UART_MspInit+0x88>)
 800069a:	6b1b      	ldr	r3, [r3, #48]	; 0x30
 800069c:	4a16      	ldr	r2, [pc, #88]	; (80006f8 <HAL_UART_MspInit+0x88>)
 800069e:	f043 0301 	orr.w	r3, r3, #1
 80006a2:	6313      	str	r3, [r2, #48]	; 0x30
 80006a4:	4b14      	ldr	r3, [pc, #80]	; (80006f8 <HAL_UART_MspInit+0x88>)
 80006a6:	6b1b      	ldr	r3, [r3, #48]	; 0x30
 80006a8:	f003 0301 	and.w	r3, r3, #1
 80006ac:	60fb      	str	r3, [r7, #12]
 80006ae:	68fb      	ldr	r3, [r7, #12]
	  GPIO_InitTypeDef gpioa_uart;
	  gpioa_uart.Pin =GPIO_PIN_2;
 80006b0:	2304      	movs	r3, #4
 80006b2:	617b      	str	r3, [r7, #20]
	  gpioa_uart.Mode =GPIO_MODE_AF_PP;
 80006b4:	2302      	movs	r3, #2
 80006b6:	61bb      	str	r3, [r7, #24]
	  gpioa_uart.Speed =GPIO_SPEED_FREQ_HIGH;
 80006b8:	2302      	movs	r3, #2
 80006ba:	623b      	str	r3, [r7, #32]
	  gpioa_uart.Pull=GPIO_PULLUP;
 80006bc:	2301      	movs	r3, #1
 80006be:	61fb      	str	r3, [r7, #28]
	  gpioa_uart.Alternate=GPIO_AF7_USART2;
 80006c0:	2307      	movs	r3, #7
 80006c2:	627b      	str	r3, [r7, #36]	; 0x24

	  HAL_GPIO_Init(GPIOA, &gpioa_uart);
 80006c4:	f107 0314 	add.w	r3, r7, #20
 80006c8:	4619      	mov	r1, r3
 80006ca:	480c      	ldr	r0, [pc, #48]	; (80006fc <HAL_UART_MspInit+0x8c>)
 80006cc:	f000 f9e8 	bl	8000aa0 <HAL_GPIO_Init>

	  gpioa_uart.Pin =GPIO_PIN_3;
 80006d0:	2308      	movs	r3, #8
 80006d2:	617b      	str	r3, [r7, #20]
	  HAL_GPIO_Init(GPIOA, &gpioa_uart);
 80006d4:	f107 0314 	add.w	r3, r7, #20
 80006d8:	4619      	mov	r1, r3
 80006da:	4808      	ldr	r0, [pc, #32]	; (80006fc <HAL_UART_MspInit+0x8c>)
 80006dc:	f000 f9e0 	bl	8000aa0 <HAL_GPIO_Init>

	  //enable irq ,priority NVIC
	  HAL_NVIC_EnableIRQ(USART1_IRQn);
 80006e0:	2025      	movs	r0, #37	; 0x25
 80006e2:	f000 f9b6 	bl	8000a52 <HAL_NVIC_EnableIRQ>
	  HAL_NVIC_SetPriority(USART1_IRQn, 15, 0);
 80006e6:	2200      	movs	r2, #0
 80006e8:	210f      	movs	r1, #15
 80006ea:	2025      	movs	r0, #37	; 0x25
 80006ec:	f000 f995 	bl	8000a1a <HAL_NVIC_SetPriority>
 }
 80006f0:	bf00      	nop
 80006f2:	3728      	adds	r7, #40	; 0x28
 80006f4:	46bd      	mov	sp, r7
 80006f6:	bd80      	pop	{r7, pc}
 80006f8:	40023800 	.word	0x40023800
 80006fc:	40020000 	.word	0x40020000

08000700 <SystemInit>:
  *         configuration.
  * @param  None
  * @retval None
  */
void SystemInit(void)
{
 8000700:	b480      	push	{r7}
 8000702:	af00      	add	r7, sp, #0
  /* FPU settings ------------------------------------------------------------*/
  #if (__FPU_PRESENT == 1) && (__FPU_USED == 1)
    SCB->CPACR |= ((3UL << 10*2)|(3UL << 11*2));  /* set CP10 and CP11 Full Access */
 8000704:	4b08      	ldr	r3, [pc, #32]	; (8000728 <SystemInit+0x28>)
 8000706:	f8d3 3088 	ldr.w	r3, [r3, #136]	; 0x88
 800070a:	4a07      	ldr	r2, [pc, #28]	; (8000728 <SystemInit+0x28>)
 800070c:	f443 0370 	orr.w	r3, r3, #15728640	; 0xf00000
 8000710:	f8c2 3088 	str.w	r3, [r2, #136]	; 0x88

  /* Configure the Vector Table location add offset address ------------------*/
#ifdef VECT_TAB_SRAM
  SCB->VTOR = SRAM_BASE | VECT_TAB_OFFSET; /* Vector Table Relocation in Internal SRAM */
#else
  SCB->VTOR = FLASH_BASE | VECT_TAB_OFFSET; /* Vector Table Relocation in Internal FLASH */
 8000714:	4b04      	ldr	r3, [pc, #16]	; (8000728 <SystemInit+0x28>)
 8000716:	f04f 6200 	mov.w	r2, #134217728	; 0x8000000
 800071a:	609a      	str	r2, [r3, #8]
#endif
}
 800071c:	bf00      	nop
 800071e:	46bd      	mov	sp, r7
 8000720:	f85d 7b04 	ldr.w	r7, [sp], #4
 8000724:	4770      	bx	lr
 8000726:	bf00      	nop
 8000728:	e000ed00 	.word	0xe000ed00

0800072c <Reset_Handler>:

    .section  .text.Reset_Handler
  .weak  Reset_Handler
  .type  Reset_Handler, %function
Reset_Handler:  
  ldr   sp, =_estack     /* set stack pointer */
 800072c:	f8df d034 	ldr.w	sp, [pc, #52]	; 8000764 <LoopFillZerobss+0x14>

/* Copy the data segment initializers from flash to SRAM */  
  movs  r1, #0
 8000730:	2100      	movs	r1, #0
  b  LoopCopyDataInit
 8000732:	e003      	b.n	800073c <LoopCopyDataInit>

08000734 <CopyDataInit>:

CopyDataInit:
  ldr  r3, =_sidata
 8000734:	4b0c      	ldr	r3, [pc, #48]	; (8000768 <LoopFillZerobss+0x18>)
  ldr  r3, [r3, r1]
 8000736:	585b      	ldr	r3, [r3, r1]
  str  r3, [r0, r1]
 8000738:	5043      	str	r3, [r0, r1]
  adds  r1, r1, #4
 800073a:	3104      	adds	r1, #4

0800073c <LoopCopyDataInit>:
    
LoopCopyDataInit:
  ldr  r0, =_sdata
 800073c:	480b      	ldr	r0, [pc, #44]	; (800076c <LoopFillZerobss+0x1c>)
  ldr  r3, =_edata
 800073e:	4b0c      	ldr	r3, [pc, #48]	; (8000770 <LoopFillZerobss+0x20>)
  adds  r2, r0, r1
 8000740:	1842      	adds	r2, r0, r1
  cmp  r2, r3
 8000742:	429a      	cmp	r2, r3
  bcc  CopyDataInit
 8000744:	d3f6      	bcc.n	8000734 <CopyDataInit>
  ldr  r2, =_sbss
 8000746:	4a0b      	ldr	r2, [pc, #44]	; (8000774 <LoopFillZerobss+0x24>)
  b  LoopFillZerobss
 8000748:	e002      	b.n	8000750 <LoopFillZerobss>

0800074a <FillZerobss>:
/* Zero fill the bss segment. */  
FillZerobss:
  movs  r3, #0
 800074a:	2300      	movs	r3, #0
  str  r3, [r2], #4
 800074c:	f842 3b04 	str.w	r3, [r2], #4

08000750 <LoopFillZerobss>:
    
LoopFillZerobss:
  ldr  r3, = _ebss
 8000750:	4b09      	ldr	r3, [pc, #36]	; (8000778 <LoopFillZerobss+0x28>)
  cmp  r2, r3
 8000752:	429a      	cmp	r2, r3
  bcc  FillZerobss
 8000754:	d3f9      	bcc.n	800074a <FillZerobss>

/* Call the clock system intitialization function.*/
  bl  SystemInit   
 8000756:	f7ff ffd3 	bl	8000700 <SystemInit>
/* Call static constructors */
    bl __libc_init_array
 800075a:	f001 f8c1 	bl	80018e0 <__libc_init_array>
/* Call the application's entry point.*/
  bl  main
 800075e:	f7ff fec3 	bl	80004e8 <main>
  bx  lr    
 8000762:	4770      	bx	lr
  ldr   sp, =_estack     /* set stack pointer */
 8000764:	20020000 	.word	0x20020000
  ldr  r3, =_sidata
 8000768:	08001978 	.word	0x08001978
  ldr  r0, =_sdata
 800076c:	20000000 	.word	0x20000000
  ldr  r3, =_edata
 8000770:	20000010 	.word	0x20000010
  ldr  r2, =_sbss
 8000774:	20000010 	.word	0x20000010
  ldr  r3, = _ebss
 8000778:	200000dc 	.word	0x200000dc

0800077c <ADC_IRQHandler>:
 * @retval None       
*/
    .section  .text.Default_Handler,"ax",%progbits
Default_Handler:
Infinite_Loop:
  b  Infinite_Loop
 800077c:	e7fe      	b.n	800077c <ADC_IRQHandler>
	...

08000780 <HAL_Init>:
  *         need to ensure that the SysTick time base is always set to 1 millisecond
  *         to have correct HAL operation.
  * @retval HAL status
  */
HAL_StatusTypeDef HAL_Init(void)
{
 8000780:	b580      	push	{r7, lr}
 8000782:	af00      	add	r7, sp, #0
  /* Configure Flash prefetch, Instruction cache, Data cache */ 
#if (INSTRUCTION_CACHE_ENABLE != 0U)
  __HAL_FLASH_INSTRUCTION_CACHE_ENABLE();
 8000784:	4b0e      	ldr	r3, [pc, #56]	; (80007c0 <HAL_Init+0x40>)
 8000786:	681b      	ldr	r3, [r3, #0]
 8000788:	4a0d      	ldr	r2, [pc, #52]	; (80007c0 <HAL_Init+0x40>)
 800078a:	f443 7300 	orr.w	r3, r3, #512	; 0x200
 800078e:	6013      	str	r3, [r2, #0]
#endif /* INSTRUCTION_CACHE_ENABLE */

#if (DATA_CACHE_ENABLE != 0U)
  __HAL_FLASH_DATA_CACHE_ENABLE();
 8000790:	4b0b      	ldr	r3, [pc, #44]	; (80007c0 <HAL_Init+0x40>)
 8000792:	681b      	ldr	r3, [r3, #0]
 8000794:	4a0a      	ldr	r2, [pc, #40]	; (80007c0 <HAL_Init+0x40>)
 8000796:	f443 6380 	orr.w	r3, r3, #1024	; 0x400
 800079a:	6013      	str	r3, [r2, #0]
#endif /* DATA_CACHE_ENABLE */

#if (PREFETCH_ENABLE != 0U)
  __HAL_FLASH_PREFETCH_BUFFER_ENABLE();
 800079c:	4b08      	ldr	r3, [pc, #32]	; (80007c0 <HAL_Init+0x40>)
 800079e:	681b      	ldr	r3, [r3, #0]
 80007a0:	4a07      	ldr	r2, [pc, #28]	; (80007c0 <HAL_Init+0x40>)
 80007a2:	f443 7380 	orr.w	r3, r3, #256	; 0x100
 80007a6:	6013      	str	r3, [r2, #0]
#endif /* PREFETCH_ENABLE */

  /* Set Interrupt Group Priority */
  HAL_NVIC_SetPriorityGrouping(NVIC_PRIORITYGROUP_4);
 80007a8:	2003      	movs	r0, #3
 80007aa:	f000 f92b 	bl	8000a04 <HAL_NVIC_SetPriorityGrouping>

  /* Use systick as time base source and configure 1ms tick (default clock after Reset is HSI) */
  HAL_InitTick(TICK_INT_PRIORITY);
 80007ae:	2000      	movs	r0, #0
 80007b0:	f000 f808 	bl	80007c4 <HAL_InitTick>

  /* Init the low level hardware */
  HAL_MspInit();
 80007b4:	f7ff ff2e 	bl	8000614 <HAL_MspInit>

  /* Return function status */
  return HAL_OK;
 80007b8:	2300      	movs	r3, #0
}
 80007ba:	4618      	mov	r0, r3
 80007bc:	bd80      	pop	{r7, pc}
 80007be:	bf00      	nop
 80007c0:	40023c00 	.word	0x40023c00

080007c4 <HAL_InitTick>:
  *       implementation  in user file.
  * @param TickPriority Tick interrupt priority.
  * @retval HAL status
  */
__weak HAL_StatusTypeDef HAL_InitTick(uint32_t TickPriority)
{
 80007c4:	b580      	push	{r7, lr}
 80007c6:	b082      	sub	sp, #8
 80007c8:	af00      	add	r7, sp, #0
 80007ca:	6078      	str	r0, [r7, #4]
  /* Configure the SysTick to have interrupt in 1ms time basis*/
  if (HAL_SYSTICK_Config(SystemCoreClock / (1000U / uwTickFreq)) > 0U)
 80007cc:	4b12      	ldr	r3, [pc, #72]	; (8000818 <HAL_InitTick+0x54>)
 80007ce:	681a      	ldr	r2, [r3, #0]
 80007d0:	4b12      	ldr	r3, [pc, #72]	; (800081c <HAL_InitTick+0x58>)
 80007d2:	781b      	ldrb	r3, [r3, #0]
 80007d4:	4619      	mov	r1, r3
 80007d6:	f44f 737a 	mov.w	r3, #1000	; 0x3e8
 80007da:	fbb3 f3f1 	udiv	r3, r3, r1
 80007de:	fbb2 f3f3 	udiv	r3, r2, r3
 80007e2:	4618      	mov	r0, r3
 80007e4:	f000 f943 	bl	8000a6e <HAL_SYSTICK_Config>
 80007e8:	4603      	mov	r3, r0
 80007ea:	2b00      	cmp	r3, #0
 80007ec:	d001      	beq.n	80007f2 <HAL_InitTick+0x2e>
  {
    return HAL_ERROR;
 80007ee:	2301      	movs	r3, #1
 80007f0:	e00e      	b.n	8000810 <HAL_InitTick+0x4c>
  }

  /* Configure the SysTick IRQ priority */
  if (TickPriority < (1UL << __NVIC_PRIO_BITS))
 80007f2:	687b      	ldr	r3, [r7, #4]
 80007f4:	2b0f      	cmp	r3, #15
 80007f6:	d80a      	bhi.n	800080e <HAL_InitTick+0x4a>
  {
    HAL_NVIC_SetPriority(SysTick_IRQn, TickPriority, 0U);
 80007f8:	2200      	movs	r2, #0
 80007fa:	6879      	ldr	r1, [r7, #4]
 80007fc:	f04f 30ff 	mov.w	r0, #4294967295
 8000800:	f000 f90b 	bl	8000a1a <HAL_NVIC_SetPriority>
    uwTickPrio = TickPriority;
 8000804:	4a06      	ldr	r2, [pc, #24]	; (8000820 <HAL_InitTick+0x5c>)
 8000806:	687b      	ldr	r3, [r7, #4]
 8000808:	6013      	str	r3, [r2, #0]
  {
    return HAL_ERROR;
  }

  /* Return function status */
  return HAL_OK;
 800080a:	2300      	movs	r3, #0
 800080c:	e000      	b.n	8000810 <HAL_InitTick+0x4c>
    return HAL_ERROR;
 800080e:	2301      	movs	r3, #1
}
 8000810:	4618      	mov	r0, r3
 8000812:	3708      	adds	r7, #8
 8000814:	46bd      	mov	sp, r7
 8000816:	bd80      	pop	{r7, pc}
 8000818:	20000004 	.word	0x20000004
 800081c:	2000000c 	.word	0x2000000c
 8000820:	20000008 	.word	0x20000008

08000824 <HAL_IncTick>:
 * @note This function is declared as __weak to be overwritten in case of other 
  *      implementations in user file.
  * @retval None
  */
__weak void HAL_IncTick(void)
{
 8000824:	b480      	push	{r7}
 8000826:	af00      	add	r7, sp, #0
  uwTick += uwTickFreq;
 8000828:	4b06      	ldr	r3, [pc, #24]	; (8000844 <HAL_IncTick+0x20>)
 800082a:	781b      	ldrb	r3, [r3, #0]
 800082c:	461a      	mov	r2, r3
 800082e:	4b06      	ldr	r3, [pc, #24]	; (8000848 <HAL_IncTick+0x24>)
 8000830:	681b      	ldr	r3, [r3, #0]
 8000832:	4413      	add	r3, r2
 8000834:	4a04      	ldr	r2, [pc, #16]	; (8000848 <HAL_IncTick+0x24>)
 8000836:	6013      	str	r3, [r2, #0]
}
 8000838:	bf00      	nop
 800083a:	46bd      	mov	sp, r7
 800083c:	f85d 7b04 	ldr.w	r7, [sp], #4
 8000840:	4770      	bx	lr
 8000842:	bf00      	nop
 8000844:	2000000c 	.word	0x2000000c
 8000848:	200000d8 	.word	0x200000d8

0800084c <HAL_GetTick>:
  * @note This function is declared as __weak to be overwritten in case of other 
  *       implementations in user file.
  * @retval tick value
  */
__weak uint32_t HAL_GetTick(void)
{
 800084c:	b480      	push	{r7}
 800084e:	af00      	add	r7, sp, #0
  return uwTick;
 8000850:	4b03      	ldr	r3, [pc, #12]	; (8000860 <HAL_GetTick+0x14>)
 8000852:	681b      	ldr	r3, [r3, #0]
}
 8000854:	4618      	mov	r0, r3
 8000856:	46bd      	mov	sp, r7
 8000858:	f85d 7b04 	ldr.w	r7, [sp], #4
 800085c:	4770      	bx	lr
 800085e:	bf00      	nop
 8000860:	200000d8 	.word	0x200000d8

08000864 <__NVIC_SetPriorityGrouping>:
           In case of a conflict between priority grouping and available
           priority bits (__NVIC_PRIO_BITS), the smallest possible priority group is set.
  \param [in]      PriorityGroup  Priority grouping field.
 */
__STATIC_INLINE void __NVIC_SetPriorityGrouping(uint32_t PriorityGroup)
{
 8000864:	b480      	push	{r7}
 8000866:	b085      	sub	sp, #20
 8000868:	af00      	add	r7, sp, #0
 800086a:	6078      	str	r0, [r7, #4]
  uint32_t reg_value;
  uint32_t PriorityGroupTmp = (PriorityGroup & (uint32_t)0x07UL);             /* only values 0..7 are used          */
 800086c:	687b      	ldr	r3, [r7, #4]
 800086e:	f003 0307 	and.w	r3, r3, #7
 8000872:	60fb      	str	r3, [r7, #12]

  reg_value  =  SCB->AIRCR;                                                   /* read old register configuration    */
 8000874:	4b0c      	ldr	r3, [pc, #48]	; (80008a8 <__NVIC_SetPriorityGrouping+0x44>)
 8000876:	68db      	ldr	r3, [r3, #12]
 8000878:	60bb      	str	r3, [r7, #8]
  reg_value &= ~((uint32_t)(SCB_AIRCR_VECTKEY_Msk | SCB_AIRCR_PRIGROUP_Msk)); /* clear bits to change               */
 800087a:	68ba      	ldr	r2, [r7, #8]
 800087c:	f64f 03ff 	movw	r3, #63743	; 0xf8ff
 8000880:	4013      	ands	r3, r2
 8000882:	60bb      	str	r3, [r7, #8]
  reg_value  =  (reg_value                                   |
                ((uint32_t)0x5FAUL << SCB_AIRCR_VECTKEY_Pos) |
                (PriorityGroupTmp << SCB_AIRCR_PRIGROUP_Pos)  );              /* Insert write key and priority group */
 8000884:	68fb      	ldr	r3, [r7, #12]
 8000886:	021a      	lsls	r2, r3, #8
                ((uint32_t)0x5FAUL << SCB_AIRCR_VECTKEY_Pos) |
 8000888:	68bb      	ldr	r3, [r7, #8]
 800088a:	4313      	orrs	r3, r2
  reg_value  =  (reg_value                                   |
 800088c:	f043 63bf 	orr.w	r3, r3, #100139008	; 0x5f80000
 8000890:	f443 3300 	orr.w	r3, r3, #131072	; 0x20000
 8000894:	60bb      	str	r3, [r7, #8]
  SCB->AIRCR =  reg_value;
 8000896:	4a04      	ldr	r2, [pc, #16]	; (80008a8 <__NVIC_SetPriorityGrouping+0x44>)
 8000898:	68bb      	ldr	r3, [r7, #8]
 800089a:	60d3      	str	r3, [r2, #12]
}
 800089c:	bf00      	nop
 800089e:	3714      	adds	r7, #20
 80008a0:	46bd      	mov	sp, r7
 80008a2:	f85d 7b04 	ldr.w	r7, [sp], #4
 80008a6:	4770      	bx	lr
 80008a8:	e000ed00 	.word	0xe000ed00

080008ac <__NVIC_GetPriorityGrouping>:
  \brief   Get Priority Grouping
  \details Reads the priority grouping field from the NVIC Interrupt Controller.
  \return                Priority grouping field (SCB->AIRCR [10:8] PRIGROUP field).
 */
__STATIC_INLINE uint32_t __NVIC_GetPriorityGrouping(void)
{
 80008ac:	b480      	push	{r7}
 80008ae:	af00      	add	r7, sp, #0
  return ((uint32_t)((SCB->AIRCR & SCB_AIRCR_PRIGROUP_Msk) >> SCB_AIRCR_PRIGROUP_Pos));
 80008b0:	4b04      	ldr	r3, [pc, #16]	; (80008c4 <__NVIC_GetPriorityGrouping+0x18>)
 80008b2:	68db      	ldr	r3, [r3, #12]
 80008b4:	0a1b      	lsrs	r3, r3, #8
 80008b6:	f003 0307 	and.w	r3, r3, #7
}
 80008ba:	4618      	mov	r0, r3
 80008bc:	46bd      	mov	sp, r7
 80008be:	f85d 7b04 	ldr.w	r7, [sp], #4
 80008c2:	4770      	bx	lr
 80008c4:	e000ed00 	.word	0xe000ed00

080008c8 <__NVIC_EnableIRQ>:
  \details Enables a device specific interrupt in the NVIC interrupt controller.
  \param [in]      IRQn  Device specific interrupt number.
  \note    IRQn must not be negative.
 */
__STATIC_INLINE void __NVIC_EnableIRQ(IRQn_Type IRQn)
{
 80008c8:	b480      	push	{r7}
 80008ca:	b083      	sub	sp, #12
 80008cc:	af00      	add	r7, sp, #0
 80008ce:	4603      	mov	r3, r0
 80008d0:	71fb      	strb	r3, [r7, #7]
  if ((int32_t)(IRQn) >= 0)
 80008d2:	f997 3007 	ldrsb.w	r3, [r7, #7]
 80008d6:	2b00      	cmp	r3, #0
 80008d8:	db0b      	blt.n	80008f2 <__NVIC_EnableIRQ+0x2a>
  {
    NVIC->ISER[(((uint32_t)IRQn) >> 5UL)] = (uint32_t)(1UL << (((uint32_t)IRQn) & 0x1FUL));
 80008da:	79fb      	ldrb	r3, [r7, #7]
 80008dc:	f003 021f 	and.w	r2, r3, #31
 80008e0:	4907      	ldr	r1, [pc, #28]	; (8000900 <__NVIC_EnableIRQ+0x38>)
 80008e2:	f997 3007 	ldrsb.w	r3, [r7, #7]
 80008e6:	095b      	lsrs	r3, r3, #5
 80008e8:	2001      	movs	r0, #1
 80008ea:	fa00 f202 	lsl.w	r2, r0, r2
 80008ee:	f841 2023 	str.w	r2, [r1, r3, lsl #2]
  }
}
 80008f2:	bf00      	nop
 80008f4:	370c      	adds	r7, #12
 80008f6:	46bd      	mov	sp, r7
 80008f8:	f85d 7b04 	ldr.w	r7, [sp], #4
 80008fc:	4770      	bx	lr
 80008fe:	bf00      	nop
 8000900:	e000e100 	.word	0xe000e100

08000904 <__NVIC_SetPriority>:
  \param [in]      IRQn  Interrupt number.
  \param [in]  priority  Priority to set.
  \note    The priority cannot be set for every processor exception.
 */
__STATIC_INLINE void __NVIC_SetPriority(IRQn_Type IRQn, uint32_t priority)
{
 8000904:	b480      	push	{r7}
 8000906:	b083      	sub	sp, #12
 8000908:	af00      	add	r7, sp, #0
 800090a:	4603      	mov	r3, r0
 800090c:	6039      	str	r1, [r7, #0]
 800090e:	71fb      	strb	r3, [r7, #7]
  if ((int32_t)(IRQn) >= 0)
 8000910:	f997 3007 	ldrsb.w	r3, [r7, #7]
 8000914:	2b00      	cmp	r3, #0
 8000916:	db0a      	blt.n	800092e <__NVIC_SetPriority+0x2a>
  {
    NVIC->IP[((uint32_t)IRQn)]               = (uint8_t)((priority << (8U - __NVIC_PRIO_BITS)) & (uint32_t)0xFFUL);
 8000918:	683b      	ldr	r3, [r7, #0]
 800091a:	b2da      	uxtb	r2, r3
 800091c:	490c      	ldr	r1, [pc, #48]	; (8000950 <__NVIC_SetPriority+0x4c>)
 800091e:	f997 3007 	ldrsb.w	r3, [r7, #7]
 8000922:	0112      	lsls	r2, r2, #4
 8000924:	b2d2      	uxtb	r2, r2
 8000926:	440b      	add	r3, r1
 8000928:	f883 2300 	strb.w	r2, [r3, #768]	; 0x300
  }
  else
  {
    SCB->SHP[(((uint32_t)IRQn) & 0xFUL)-4UL] = (uint8_t)((priority << (8U - __NVIC_PRIO_BITS)) & (uint32_t)0xFFUL);
  }
}
 800092c:	e00a      	b.n	8000944 <__NVIC_SetPriority+0x40>
    SCB->SHP[(((uint32_t)IRQn) & 0xFUL)-4UL] = (uint8_t)((priority << (8U - __NVIC_PRIO_BITS)) & (uint32_t)0xFFUL);
 800092e:	683b      	ldr	r3, [r7, #0]
 8000930:	b2da      	uxtb	r2, r3
 8000932:	4908      	ldr	r1, [pc, #32]	; (8000954 <__NVIC_SetPriority+0x50>)
 8000934:	79fb      	ldrb	r3, [r7, #7]
 8000936:	f003 030f 	and.w	r3, r3, #15
 800093a:	3b04      	subs	r3, #4
 800093c:	0112      	lsls	r2, r2, #4
 800093e:	b2d2      	uxtb	r2, r2
 8000940:	440b      	add	r3, r1
 8000942:	761a      	strb	r2, [r3, #24]
}
 8000944:	bf00      	nop
 8000946:	370c      	adds	r7, #12
 8000948:	46bd      	mov	sp, r7
 800094a:	f85d 7b04 	ldr.w	r7, [sp], #4
 800094e:	4770      	bx	lr
 8000950:	e000e100 	.word	0xe000e100
 8000954:	e000ed00 	.word	0xe000ed00

08000958 <NVIC_EncodePriority>:
  \param [in]   PreemptPriority  Preemptive priority value (starting from 0).
  \param [in]       SubPriority  Subpriority value (starting from 0).
  \return                        Encoded priority. Value can be used in the function \ref NVIC_SetPriority().
 */
__STATIC_INLINE uint32_t NVIC_EncodePriority (uint32_t PriorityGroup, uint32_t PreemptPriority, uint32_t SubPriority)
{
 8000958:	b480      	push	{r7}
 800095a:	b089      	sub	sp, #36	; 0x24
 800095c:	af00      	add	r7, sp, #0
 800095e:	60f8      	str	r0, [r7, #12]
 8000960:	60b9      	str	r1, [r7, #8]
 8000962:	607a      	str	r2, [r7, #4]
  uint32_t PriorityGroupTmp = (PriorityGroup & (uint32_t)0x07UL);   /* only values 0..7 are used          */
 8000964:	68fb      	ldr	r3, [r7, #12]
 8000966:	f003 0307 	and.w	r3, r3, #7
 800096a:	61fb      	str	r3, [r7, #28]
  uint32_t PreemptPriorityBits;
  uint32_t SubPriorityBits;

  PreemptPriorityBits = ((7UL - PriorityGroupTmp) > (uint32_t)(__NVIC_PRIO_BITS)) ? (uint32_t)(__NVIC_PRIO_BITS) : (uint32_t)(7UL - PriorityGroupTmp);
 800096c:	69fb      	ldr	r3, [r7, #28]
 800096e:	f1c3 0307 	rsb	r3, r3, #7
 8000972:	2b04      	cmp	r3, #4
 8000974:	bf28      	it	cs
 8000976:	2304      	movcs	r3, #4
 8000978:	61bb      	str	r3, [r7, #24]
  SubPriorityBits     = ((PriorityGroupTmp + (uint32_t)(__NVIC_PRIO_BITS)) < (uint32_t)7UL) ? (uint32_t)0UL : (uint32_t)((PriorityGroupTmp - 7UL) + (uint32_t)(__NVIC_PRIO_BITS));
 800097a:	69fb      	ldr	r3, [r7, #28]
 800097c:	3304      	adds	r3, #4
 800097e:	2b06      	cmp	r3, #6
 8000980:	d902      	bls.n	8000988 <NVIC_EncodePriority+0x30>
 8000982:	69fb      	ldr	r3, [r7, #28]
 8000984:	3b03      	subs	r3, #3
 8000986:	e000      	b.n	800098a <NVIC_EncodePriority+0x32>
 8000988:	2300      	movs	r3, #0
 800098a:	617b      	str	r3, [r7, #20]

  return (
           ((PreemptPriority & (uint32_t)((1UL << (PreemptPriorityBits)) - 1UL)) << SubPriorityBits) |
 800098c:	f04f 32ff 	mov.w	r2, #4294967295
 8000990:	69bb      	ldr	r3, [r7, #24]
 8000992:	fa02 f303 	lsl.w	r3, r2, r3
 8000996:	43da      	mvns	r2, r3
 8000998:	68bb      	ldr	r3, [r7, #8]
 800099a:	401a      	ands	r2, r3
 800099c:	697b      	ldr	r3, [r7, #20]
 800099e:	409a      	lsls	r2, r3
           ((SubPriority     & (uint32_t)((1UL << (SubPriorityBits    )) - 1UL)))
 80009a0:	f04f 31ff 	mov.w	r1, #4294967295
 80009a4:	697b      	ldr	r3, [r7, #20]
 80009a6:	fa01 f303 	lsl.w	r3, r1, r3
 80009aa:	43d9      	mvns	r1, r3
 80009ac:	687b      	ldr	r3, [r7, #4]
 80009ae:	400b      	ands	r3, r1
           ((PreemptPriority & (uint32_t)((1UL << (PreemptPriorityBits)) - 1UL)) << SubPriorityBits) |
 80009b0:	4313      	orrs	r3, r2
         );
}
 80009b2:	4618      	mov	r0, r3
 80009b4:	3724      	adds	r7, #36	; 0x24
 80009b6:	46bd      	mov	sp, r7
 80009b8:	f85d 7b04 	ldr.w	r7, [sp], #4
 80009bc:	4770      	bx	lr
	...

080009c0 <SysTick_Config>:
  \note    When the variable <b>__Vendor_SysTickConfig</b> is set to 1, then the
           function <b>SysTick_Config</b> is not included. In this case, the file <b><i>device</i>.h</b>
           must contain a vendor-specific implementation of this function.
 */
__STATIC_INLINE uint32_t SysTick_Config(uint32_t ticks)
{
 80009c0:	b580      	push	{r7, lr}
 80009c2:	b082      	sub	sp, #8
 80009c4:	af00      	add	r7, sp, #0
 80009c6:	6078      	str	r0, [r7, #4]
  if ((ticks - 1UL) > SysTick_LOAD_RELOAD_Msk)
 80009c8:	687b      	ldr	r3, [r7, #4]
 80009ca:	3b01      	subs	r3, #1
 80009cc:	f1b3 7f80 	cmp.w	r3, #16777216	; 0x1000000
 80009d0:	d301      	bcc.n	80009d6 <SysTick_Config+0x16>
  {
    return (1UL);                                                   /* Reload value impossible */
 80009d2:	2301      	movs	r3, #1
 80009d4:	e00f      	b.n	80009f6 <SysTick_Config+0x36>
  }

  SysTick->LOAD  = (uint32_t)(ticks - 1UL);                         /* set reload register */
 80009d6:	4a0a      	ldr	r2, [pc, #40]	; (8000a00 <SysTick_Config+0x40>)
 80009d8:	687b      	ldr	r3, [r7, #4]
 80009da:	3b01      	subs	r3, #1
 80009dc:	6053      	str	r3, [r2, #4]
  NVIC_SetPriority (SysTick_IRQn, (1UL << __NVIC_PRIO_BITS) - 1UL); /* set Priority for Systick Interrupt */
 80009de:	210f      	movs	r1, #15
 80009e0:	f04f 30ff 	mov.w	r0, #4294967295
 80009e4:	f7ff ff8e 	bl	8000904 <__NVIC_SetPriority>
  SysTick->VAL   = 0UL;                                             /* Load the SysTick Counter Value */
 80009e8:	4b05      	ldr	r3, [pc, #20]	; (8000a00 <SysTick_Config+0x40>)
 80009ea:	2200      	movs	r2, #0
 80009ec:	609a      	str	r2, [r3, #8]
  SysTick->CTRL  = SysTick_CTRL_CLKSOURCE_Msk |
 80009ee:	4b04      	ldr	r3, [pc, #16]	; (8000a00 <SysTick_Config+0x40>)
 80009f0:	2207      	movs	r2, #7
 80009f2:	601a      	str	r2, [r3, #0]
                   SysTick_CTRL_TICKINT_Msk   |
                   SysTick_CTRL_ENABLE_Msk;                         /* Enable SysTick IRQ and SysTick Timer */
  return (0UL);                                                     /* Function successful */
 80009f4:	2300      	movs	r3, #0
}
 80009f6:	4618      	mov	r0, r3
 80009f8:	3708      	adds	r7, #8
 80009fa:	46bd      	mov	sp, r7
 80009fc:	bd80      	pop	{r7, pc}
 80009fe:	bf00      	nop
 8000a00:	e000e010 	.word	0xe000e010

08000a04 <HAL_NVIC_SetPriorityGrouping>:
  * @note   When the NVIC_PriorityGroup_0 is selected, IRQ preemption is no more possible. 
  *         The pending IRQ priority will be managed only by the subpriority. 
  * @retval None
  */
void HAL_NVIC_SetPriorityGrouping(uint32_t PriorityGroup)
{
 8000a04:	b580      	push	{r7, lr}
 8000a06:	b082      	sub	sp, #8
 8000a08:	af00      	add	r7, sp, #0
 8000a0a:	6078      	str	r0, [r7, #4]
  /* Check the parameters */
  assert_param(IS_NVIC_PRIORITY_GROUP(PriorityGroup));
  
  /* Set the PRIGROUP[10:8] bits according to the PriorityGroup parameter value */
  NVIC_SetPriorityGrouping(PriorityGroup);
 8000a0c:	6878      	ldr	r0, [r7, #4]
 8000a0e:	f7ff ff29 	bl	8000864 <__NVIC_SetPriorityGrouping>
}
 8000a12:	bf00      	nop
 8000a14:	3708      	adds	r7, #8
 8000a16:	46bd      	mov	sp, r7
 8000a18:	bd80      	pop	{r7, pc}

08000a1a <HAL_NVIC_SetPriority>:
  *         This parameter can be a value between 0 and 15
  *         A lower priority value indicates a higher priority.          
  * @retval None
  */
void HAL_NVIC_SetPriority(IRQn_Type IRQn, uint32_t PreemptPriority, uint32_t SubPriority)
{ 
 8000a1a:	b580      	push	{r7, lr}
 8000a1c:	b086      	sub	sp, #24
 8000a1e:	af00      	add	r7, sp, #0
 8000a20:	4603      	mov	r3, r0
 8000a22:	60b9      	str	r1, [r7, #8]
 8000a24:	607a      	str	r2, [r7, #4]
 8000a26:	73fb      	strb	r3, [r7, #15]
  uint32_t prioritygroup = 0x00U;
 8000a28:	2300      	movs	r3, #0
 8000a2a:	617b      	str	r3, [r7, #20]
  
  /* Check the parameters */
  assert_param(IS_NVIC_SUB_PRIORITY(SubPriority));
  assert_param(IS_NVIC_PREEMPTION_PRIORITY(PreemptPriority));
  
  prioritygroup = NVIC_GetPriorityGrouping();
 8000a2c:	f7ff ff3e 	bl	80008ac <__NVIC_GetPriorityGrouping>
 8000a30:	6178      	str	r0, [r7, #20]
  
  NVIC_SetPriority(IRQn, NVIC_EncodePriority(prioritygroup, PreemptPriority, SubPriority));
 8000a32:	687a      	ldr	r2, [r7, #4]
 8000a34:	68b9      	ldr	r1, [r7, #8]
 8000a36:	6978      	ldr	r0, [r7, #20]
 8000a38:	f7ff ff8e 	bl	8000958 <NVIC_EncodePriority>
 8000a3c:	4602      	mov	r2, r0
 8000a3e:	f997 300f 	ldrsb.w	r3, [r7, #15]
 8000a42:	4611      	mov	r1, r2
 8000a44:	4618      	mov	r0, r3
 8000a46:	f7ff ff5d 	bl	8000904 <__NVIC_SetPriority>
}
 8000a4a:	bf00      	nop
 8000a4c:	3718      	adds	r7, #24
 8000a4e:	46bd      	mov	sp, r7
 8000a50:	bd80      	pop	{r7, pc}

08000a52 <HAL_NVIC_EnableIRQ>:
  *         This parameter can be an enumerator of IRQn_Type enumeration
  *         (For the complete STM32 Devices IRQ Channels list, please refer to the appropriate CMSIS device file (stm32f4xxxx.h))
  * @retval None
  */
void HAL_NVIC_EnableIRQ(IRQn_Type IRQn)
{
 8000a52:	b580      	push	{r7, lr}
 8000a54:	b082      	sub	sp, #8
 8000a56:	af00      	add	r7, sp, #0
 8000a58:	4603      	mov	r3, r0
 8000a5a:	71fb      	strb	r3, [r7, #7]
  /* Check the parameters */
  assert_param(IS_NVIC_DEVICE_IRQ(IRQn));
  
  /* Enable interrupt */
  NVIC_EnableIRQ(IRQn);
 8000a5c:	f997 3007 	ldrsb.w	r3, [r7, #7]
 8000a60:	4618      	mov	r0, r3
 8000a62:	f7ff ff31 	bl	80008c8 <__NVIC_EnableIRQ>
}
 8000a66:	bf00      	nop
 8000a68:	3708      	adds	r7, #8
 8000a6a:	46bd      	mov	sp, r7
 8000a6c:	bd80      	pop	{r7, pc}

08000a6e <HAL_SYSTICK_Config>:
  * @param  TicksNumb Specifies the ticks Number of ticks between two interrupts.
  * @retval status:  - 0  Function succeeded.
  *                  - 1  Function failed.
  */
uint32_t HAL_SYSTICK_Config(uint32_t TicksNumb)
{
 8000a6e:	b580      	push	{r7, lr}
 8000a70:	b082      	sub	sp, #8
 8000a72:	af00      	add	r7, sp, #0
 8000a74:	6078      	str	r0, [r7, #4]
   return SysTick_Config(TicksNumb);
 8000a76:	6878      	ldr	r0, [r7, #4]
 8000a78:	f7ff ffa2 	bl	80009c0 <SysTick_Config>
 8000a7c:	4603      	mov	r3, r0
}
 8000a7e:	4618      	mov	r0, r3
 8000a80:	3708      	adds	r7, #8
 8000a82:	46bd      	mov	sp, r7
 8000a84:	bd80      	pop	{r7, pc}

08000a86 <HAL_SYSTICK_IRQHandler>:
/**
  * @brief  This function handles SYSTICK interrupt request.
  * @retval None
  */
void HAL_SYSTICK_IRQHandler(void)
{
 8000a86:	b580      	push	{r7, lr}
 8000a88:	af00      	add	r7, sp, #0
  HAL_SYSTICK_Callback();
 8000a8a:	f000 f802 	bl	8000a92 <HAL_SYSTICK_Callback>
}
 8000a8e:	bf00      	nop
 8000a90:	bd80      	pop	{r7, pc}

08000a92 <HAL_SYSTICK_Callback>:
/**
  * @brief  SYSTICK callback.
  * @retval None
  */
__weak void HAL_SYSTICK_Callback(void)
{
 8000a92:	b480      	push	{r7}
 8000a94:	af00      	add	r7, sp, #0
  /* NOTE : This function Should not be modified, when the callback is needed,
            the HAL_SYSTICK_Callback could be implemented in the user file
   */
}
 8000a96:	bf00      	nop
 8000a98:	46bd      	mov	sp, r7
 8000a9a:	f85d 7b04 	ldr.w	r7, [sp], #4
 8000a9e:	4770      	bx	lr

08000aa0 <HAL_GPIO_Init>:
  * @param  GPIO_Init pointer to a GPIO_InitTypeDef structure that contains
  *         the configuration information for the specified GPIO peripheral.
  * @retval None
  */
void HAL_GPIO_Init(GPIO_TypeDef  *GPIOx, GPIO_InitTypeDef *GPIO_Init)
{
 8000aa0:	b480      	push	{r7}
 8000aa2:	b089      	sub	sp, #36	; 0x24
 8000aa4:	af00      	add	r7, sp, #0
 8000aa6:	6078      	str	r0, [r7, #4]
 8000aa8:	6039      	str	r1, [r7, #0]
  uint32_t position;
  uint32_t ioposition = 0x00U;
 8000aaa:	2300      	movs	r3, #0
 8000aac:	617b      	str	r3, [r7, #20]
  uint32_t iocurrent = 0x00U;
 8000aae:	2300      	movs	r3, #0
 8000ab0:	613b      	str	r3, [r7, #16]
  uint32_t temp = 0x00U;
 8000ab2:	2300      	movs	r3, #0
 8000ab4:	61bb      	str	r3, [r7, #24]
  assert_param(IS_GPIO_PIN(GPIO_Init->Pin));
  assert_param(IS_GPIO_MODE(GPIO_Init->Mode));
  assert_param(IS_GPIO_PULL(GPIO_Init->Pull));

  /* Configure the port pins */
  for(position = 0U; position < GPIO_NUMBER; position++)
 8000ab6:	2300      	movs	r3, #0
 8000ab8:	61fb      	str	r3, [r7, #28]
 8000aba:	e16b      	b.n	8000d94 <HAL_GPIO_Init+0x2f4>
  {
    /* Get the IO position */
    ioposition = 0x01U << position;
 8000abc:	2201      	movs	r2, #1
 8000abe:	69fb      	ldr	r3, [r7, #28]
 8000ac0:	fa02 f303 	lsl.w	r3, r2, r3
 8000ac4:	617b      	str	r3, [r7, #20]
    /* Get the current IO position */
    iocurrent = (uint32_t)(GPIO_Init->Pin) & ioposition;
 8000ac6:	683b      	ldr	r3, [r7, #0]
 8000ac8:	681b      	ldr	r3, [r3, #0]
 8000aca:	697a      	ldr	r2, [r7, #20]
 8000acc:	4013      	ands	r3, r2
 8000ace:	613b      	str	r3, [r7, #16]

    if(iocurrent == ioposition)
 8000ad0:	693a      	ldr	r2, [r7, #16]
 8000ad2:	697b      	ldr	r3, [r7, #20]
 8000ad4:	429a      	cmp	r2, r3
 8000ad6:	f040 815a 	bne.w	8000d8e <HAL_GPIO_Init+0x2ee>
    {
      /*--------------------- GPIO Mode Configuration ------------------------*/
      /* In case of Output or Alternate function mode selection */
      if((GPIO_Init->Mode == GPIO_MODE_OUTPUT_PP) || (GPIO_Init->Mode == GPIO_MODE_AF_PP) ||
 8000ada:	683b      	ldr	r3, [r7, #0]
 8000adc:	685b      	ldr	r3, [r3, #4]
 8000ade:	2b01      	cmp	r3, #1
 8000ae0:	d00b      	beq.n	8000afa <HAL_GPIO_Init+0x5a>
 8000ae2:	683b      	ldr	r3, [r7, #0]
 8000ae4:	685b      	ldr	r3, [r3, #4]
 8000ae6:	2b02      	cmp	r3, #2
 8000ae8:	d007      	beq.n	8000afa <HAL_GPIO_Init+0x5a>
         (GPIO_Init->Mode == GPIO_MODE_OUTPUT_OD) || (GPIO_Init->Mode == GPIO_MODE_AF_OD))
 8000aea:	683b      	ldr	r3, [r7, #0]
 8000aec:	685b      	ldr	r3, [r3, #4]
      if((GPIO_Init->Mode == GPIO_MODE_OUTPUT_PP) || (GPIO_Init->Mode == GPIO_MODE_AF_PP) ||
 8000aee:	2b11      	cmp	r3, #17
 8000af0:	d003      	beq.n	8000afa <HAL_GPIO_Init+0x5a>
         (GPIO_Init->Mode == GPIO_MODE_OUTPUT_OD) || (GPIO_Init->Mode == GPIO_MODE_AF_OD))
 8000af2:	683b      	ldr	r3, [r7, #0]
 8000af4:	685b      	ldr	r3, [r3, #4]
 8000af6:	2b12      	cmp	r3, #18
 8000af8:	d130      	bne.n	8000b5c <HAL_GPIO_Init+0xbc>
      {
        /* Check the Speed parameter */
        assert_param(IS_GPIO_SPEED(GPIO_Init->Speed));
        /* Configure the IO Speed */
        temp = GPIOx->OSPEEDR; 
 8000afa:	687b      	ldr	r3, [r7, #4]
 8000afc:	689b      	ldr	r3, [r3, #8]
 8000afe:	61bb      	str	r3, [r7, #24]
        temp &= ~(GPIO_OSPEEDER_OSPEEDR0 << (position * 2U));
 8000b00:	69fb      	ldr	r3, [r7, #28]
 8000b02:	005b      	lsls	r3, r3, #1
 8000b04:	2203      	movs	r2, #3
 8000b06:	fa02 f303 	lsl.w	r3, r2, r3
 8000b0a:	43db      	mvns	r3, r3
 8000b0c:	69ba      	ldr	r2, [r7, #24]
 8000b0e:	4013      	ands	r3, r2
 8000b10:	61bb      	str	r3, [r7, #24]
        temp |= (GPIO_Init->Speed << (position * 2U));
 8000b12:	683b      	ldr	r3, [r7, #0]
 8000b14:	68da      	ldr	r2, [r3, #12]
 8000b16:	69fb      	ldr	r3, [r7, #28]
 8000b18:	005b      	lsls	r3, r3, #1
 8000b1a:	fa02 f303 	lsl.w	r3, r2, r3
 8000b1e:	69ba      	ldr	r2, [r7, #24]
 8000b20:	4313      	orrs	r3, r2
 8000b22:	61bb      	str	r3, [r7, #24]
        GPIOx->OSPEEDR = temp;
 8000b24:	687b      	ldr	r3, [r7, #4]
 8000b26:	69ba      	ldr	r2, [r7, #24]
 8000b28:	609a      	str	r2, [r3, #8]

        /* Configure the IO Output Type */
        temp = GPIOx->OTYPER;
 8000b2a:	687b      	ldr	r3, [r7, #4]
 8000b2c:	685b      	ldr	r3, [r3, #4]
 8000b2e:	61bb      	str	r3, [r7, #24]
        temp &= ~(GPIO_OTYPER_OT_0 << position) ;
 8000b30:	2201      	movs	r2, #1
 8000b32:	69fb      	ldr	r3, [r7, #28]
 8000b34:	fa02 f303 	lsl.w	r3, r2, r3
 8000b38:	43db      	mvns	r3, r3
 8000b3a:	69ba      	ldr	r2, [r7, #24]
 8000b3c:	4013      	ands	r3, r2
 8000b3e:	61bb      	str	r3, [r7, #24]
        temp |= (((GPIO_Init->Mode & GPIO_OUTPUT_TYPE) >> 4U) << position);
 8000b40:	683b      	ldr	r3, [r7, #0]
 8000b42:	685b      	ldr	r3, [r3, #4]
 8000b44:	091b      	lsrs	r3, r3, #4
 8000b46:	f003 0201 	and.w	r2, r3, #1
 8000b4a:	69fb      	ldr	r3, [r7, #28]
 8000b4c:	fa02 f303 	lsl.w	r3, r2, r3
 8000b50:	69ba      	ldr	r2, [r7, #24]
 8000b52:	4313      	orrs	r3, r2
 8000b54:	61bb      	str	r3, [r7, #24]
        GPIOx->OTYPER = temp;
 8000b56:	687b      	ldr	r3, [r7, #4]
 8000b58:	69ba      	ldr	r2, [r7, #24]
 8000b5a:	605a      	str	r2, [r3, #4]
       }

      /* Activate the Pull-up or Pull down resistor for the current IO */
      temp = GPIOx->PUPDR;
 8000b5c:	687b      	ldr	r3, [r7, #4]
 8000b5e:	68db      	ldr	r3, [r3, #12]
 8000b60:	61bb      	str	r3, [r7, #24]
      temp &= ~(GPIO_PUPDR_PUPDR0 << (position * 2U));
 8000b62:	69fb      	ldr	r3, [r7, #28]
 8000b64:	005b      	lsls	r3, r3, #1
 8000b66:	2203      	movs	r2, #3
 8000b68:	fa02 f303 	lsl.w	r3, r2, r3
 8000b6c:	43db      	mvns	r3, r3
 8000b6e:	69ba      	ldr	r2, [r7, #24]
 8000b70:	4013      	ands	r3, r2
 8000b72:	61bb      	str	r3, [r7, #24]
      temp |= ((GPIO_Init->Pull) << (position * 2U));
 8000b74:	683b      	ldr	r3, [r7, #0]
 8000b76:	689a      	ldr	r2, [r3, #8]
 8000b78:	69fb      	ldr	r3, [r7, #28]
 8000b7a:	005b      	lsls	r3, r3, #1
 8000b7c:	fa02 f303 	lsl.w	r3, r2, r3
 8000b80:	69ba      	ldr	r2, [r7, #24]
 8000b82:	4313      	orrs	r3, r2
 8000b84:	61bb      	str	r3, [r7, #24]
      GPIOx->PUPDR = temp;
 8000b86:	687b      	ldr	r3, [r7, #4]
 8000b88:	69ba      	ldr	r2, [r7, #24]
 8000b8a:	60da      	str	r2, [r3, #12]

      /* In case of Alternate function mode selection */
      if((GPIO_Init->Mode == GPIO_MODE_AF_PP) || (GPIO_Init->Mode == GPIO_MODE_AF_OD))
 8000b8c:	683b      	ldr	r3, [r7, #0]
 8000b8e:	685b      	ldr	r3, [r3, #4]
 8000b90:	2b02      	cmp	r3, #2
 8000b92:	d003      	beq.n	8000b9c <HAL_GPIO_Init+0xfc>
 8000b94:	683b      	ldr	r3, [r7, #0]
 8000b96:	685b      	ldr	r3, [r3, #4]
 8000b98:	2b12      	cmp	r3, #18
 8000b9a:	d123      	bne.n	8000be4 <HAL_GPIO_Init+0x144>
      {
        /* Check the Alternate function parameter */
        assert_param(IS_GPIO_AF(GPIO_Init->Alternate));
        /* Configure Alternate function mapped with the current IO */
        temp = GPIOx->AFR[position >> 3U];
 8000b9c:	69fb      	ldr	r3, [r7, #28]
 8000b9e:	08da      	lsrs	r2, r3, #3
 8000ba0:	687b      	ldr	r3, [r7, #4]
 8000ba2:	3208      	adds	r2, #8
 8000ba4:	f853 3022 	ldr.w	r3, [r3, r2, lsl #2]
 8000ba8:	61bb      	str	r3, [r7, #24]
        temp &= ~(0xFU << ((uint32_t)(position & 0x07U) * 4U)) ;
 8000baa:	69fb      	ldr	r3, [r7, #28]
 8000bac:	f003 0307 	and.w	r3, r3, #7
 8000bb0:	009b      	lsls	r3, r3, #2
 8000bb2:	220f      	movs	r2, #15
 8000bb4:	fa02 f303 	lsl.w	r3, r2, r3
 8000bb8:	43db      	mvns	r3, r3
 8000bba:	69ba      	ldr	r2, [r7, #24]
 8000bbc:	4013      	ands	r3, r2
 8000bbe:	61bb      	str	r3, [r7, #24]
        temp |= ((uint32_t)(GPIO_Init->Alternate) << (((uint32_t)position & 0x07U) * 4U));
 8000bc0:	683b      	ldr	r3, [r7, #0]
 8000bc2:	691a      	ldr	r2, [r3, #16]
 8000bc4:	69fb      	ldr	r3, [r7, #28]
 8000bc6:	f003 0307 	and.w	r3, r3, #7
 8000bca:	009b      	lsls	r3, r3, #2
 8000bcc:	fa02 f303 	lsl.w	r3, r2, r3
 8000bd0:	69ba      	ldr	r2, [r7, #24]
 8000bd2:	4313      	orrs	r3, r2
 8000bd4:	61bb      	str	r3, [r7, #24]
        GPIOx->AFR[position >> 3U] = temp;
 8000bd6:	69fb      	ldr	r3, [r7, #28]
 8000bd8:	08da      	lsrs	r2, r3, #3
 8000bda:	687b      	ldr	r3, [r7, #4]
 8000bdc:	3208      	adds	r2, #8
 8000bde:	69b9      	ldr	r1, [r7, #24]
 8000be0:	f843 1022 	str.w	r1, [r3, r2, lsl #2]
      }

      /* Configure IO Direction mode (Input, Output, Alternate or Analog) */
      temp = GPIOx->MODER;
 8000be4:	687b      	ldr	r3, [r7, #4]
 8000be6:	681b      	ldr	r3, [r3, #0]
 8000be8:	61bb      	str	r3, [r7, #24]
      temp &= ~(GPIO_MODER_MODER0 << (position * 2U));
 8000bea:	69fb      	ldr	r3, [r7, #28]
 8000bec:	005b      	lsls	r3, r3, #1
 8000bee:	2203      	movs	r2, #3
 8000bf0:	fa02 f303 	lsl.w	r3, r2, r3
 8000bf4:	43db      	mvns	r3, r3
 8000bf6:	69ba      	ldr	r2, [r7, #24]
 8000bf8:	4013      	ands	r3, r2
 8000bfa:	61bb      	str	r3, [r7, #24]
      temp |= ((GPIO_Init->Mode & GPIO_MODE) << (position * 2U));
 8000bfc:	683b      	ldr	r3, [r7, #0]
 8000bfe:	685b      	ldr	r3, [r3, #4]
 8000c00:	f003 0203 	and.w	r2, r3, #3
 8000c04:	69fb      	ldr	r3, [r7, #28]
 8000c06:	005b      	lsls	r3, r3, #1
 8000c08:	fa02 f303 	lsl.w	r3, r2, r3
 8000c0c:	69ba      	ldr	r2, [r7, #24]
 8000c0e:	4313      	orrs	r3, r2
 8000c10:	61bb      	str	r3, [r7, #24]
      GPIOx->MODER = temp;
 8000c12:	687b      	ldr	r3, [r7, #4]
 8000c14:	69ba      	ldr	r2, [r7, #24]
 8000c16:	601a      	str	r2, [r3, #0]

      /*--------------------- EXTI Mode Configuration ------------------------*/
      /* Configure the External Interrupt or event for the current IO */
      if((GPIO_Init->Mode & EXTI_MODE) == EXTI_MODE)
 8000c18:	683b      	ldr	r3, [r7, #0]
 8000c1a:	685b      	ldr	r3, [r3, #4]
 8000c1c:	f003 5380 	and.w	r3, r3, #268435456	; 0x10000000
 8000c20:	2b00      	cmp	r3, #0
 8000c22:	f000 80b4 	beq.w	8000d8e <HAL_GPIO_Init+0x2ee>
      {
        /* Enable SYSCFG Clock */
        __HAL_RCC_SYSCFG_CLK_ENABLE();
 8000c26:	2300      	movs	r3, #0
 8000c28:	60fb      	str	r3, [r7, #12]
 8000c2a:	4b5f      	ldr	r3, [pc, #380]	; (8000da8 <HAL_GPIO_Init+0x308>)
 8000c2c:	6c5b      	ldr	r3, [r3, #68]	; 0x44
 8000c2e:	4a5e      	ldr	r2, [pc, #376]	; (8000da8 <HAL_GPIO_Init+0x308>)
 8000c30:	f443 4380 	orr.w	r3, r3, #16384	; 0x4000
 8000c34:	6453      	str	r3, [r2, #68]	; 0x44
 8000c36:	4b5c      	ldr	r3, [pc, #368]	; (8000da8 <HAL_GPIO_Init+0x308>)
 8000c38:	6c5b      	ldr	r3, [r3, #68]	; 0x44
 8000c3a:	f403 4380 	and.w	r3, r3, #16384	; 0x4000
 8000c3e:	60fb      	str	r3, [r7, #12]
 8000c40:	68fb      	ldr	r3, [r7, #12]

        temp = SYSCFG->EXTICR[position >> 2U];
 8000c42:	4a5a      	ldr	r2, [pc, #360]	; (8000dac <HAL_GPIO_Init+0x30c>)
 8000c44:	69fb      	ldr	r3, [r7, #28]
 8000c46:	089b      	lsrs	r3, r3, #2
 8000c48:	3302      	adds	r3, #2
 8000c4a:	f852 3023 	ldr.w	r3, [r2, r3, lsl #2]
 8000c4e:	61bb      	str	r3, [r7, #24]
        temp &= ~(0x0FU << (4U * (position & 0x03U)));
 8000c50:	69fb      	ldr	r3, [r7, #28]
 8000c52:	f003 0303 	and.w	r3, r3, #3
 8000c56:	009b      	lsls	r3, r3, #2
 8000c58:	220f      	movs	r2, #15
 8000c5a:	fa02 f303 	lsl.w	r3, r2, r3
 8000c5e:	43db      	mvns	r3, r3
 8000c60:	69ba      	ldr	r2, [r7, #24]
 8000c62:	4013      	ands	r3, r2
 8000c64:	61bb      	str	r3, [r7, #24]
        temp |= ((uint32_t)(GPIO_GET_INDEX(GPIOx)) << (4U * (position & 0x03U)));
 8000c66:	687b      	ldr	r3, [r7, #4]
 8000c68:	4a51      	ldr	r2, [pc, #324]	; (8000db0 <HAL_GPIO_Init+0x310>)
 8000c6a:	4293      	cmp	r3, r2
 8000c6c:	d02b      	beq.n	8000cc6 <HAL_GPIO_Init+0x226>
 8000c6e:	687b      	ldr	r3, [r7, #4]
 8000c70:	4a50      	ldr	r2, [pc, #320]	; (8000db4 <HAL_GPIO_Init+0x314>)
 8000c72:	4293      	cmp	r3, r2
 8000c74:	d025      	beq.n	8000cc2 <HAL_GPIO_Init+0x222>
 8000c76:	687b      	ldr	r3, [r7, #4]
 8000c78:	4a4f      	ldr	r2, [pc, #316]	; (8000db8 <HAL_GPIO_Init+0x318>)
 8000c7a:	4293      	cmp	r3, r2
 8000c7c:	d01f      	beq.n	8000cbe <HAL_GPIO_Init+0x21e>
 8000c7e:	687b      	ldr	r3, [r7, #4]
 8000c80:	4a4e      	ldr	r2, [pc, #312]	; (8000dbc <HAL_GPIO_Init+0x31c>)
 8000c82:	4293      	cmp	r3, r2
 8000c84:	d019      	beq.n	8000cba <HAL_GPIO_Init+0x21a>
 8000c86:	687b      	ldr	r3, [r7, #4]
 8000c88:	4a4d      	ldr	r2, [pc, #308]	; (8000dc0 <HAL_GPIO_Init+0x320>)
 8000c8a:	4293      	cmp	r3, r2
 8000c8c:	d013      	beq.n	8000cb6 <HAL_GPIO_Init+0x216>
 8000c8e:	687b      	ldr	r3, [r7, #4]
 8000c90:	4a4c      	ldr	r2, [pc, #304]	; (8000dc4 <HAL_GPIO_Init+0x324>)
 8000c92:	4293      	cmp	r3, r2
 8000c94:	d00d      	beq.n	8000cb2 <HAL_GPIO_Init+0x212>
 8000c96:	687b      	ldr	r3, [r7, #4]
 8000c98:	4a4b      	ldr	r2, [pc, #300]	; (8000dc8 <HAL_GPIO_Init+0x328>)
 8000c9a:	4293      	cmp	r3, r2
 8000c9c:	d007      	beq.n	8000cae <HAL_GPIO_Init+0x20e>
 8000c9e:	687b      	ldr	r3, [r7, #4]
 8000ca0:	4a4a      	ldr	r2, [pc, #296]	; (8000dcc <HAL_GPIO_Init+0x32c>)
 8000ca2:	4293      	cmp	r3, r2
 8000ca4:	d101      	bne.n	8000caa <HAL_GPIO_Init+0x20a>
 8000ca6:	2307      	movs	r3, #7
 8000ca8:	e00e      	b.n	8000cc8 <HAL_GPIO_Init+0x228>
 8000caa:	2308      	movs	r3, #8
 8000cac:	e00c      	b.n	8000cc8 <HAL_GPIO_Init+0x228>
 8000cae:	2306      	movs	r3, #6
 8000cb0:	e00a      	b.n	8000cc8 <HAL_GPIO_Init+0x228>
 8000cb2:	2305      	movs	r3, #5
 8000cb4:	e008      	b.n	8000cc8 <HAL_GPIO_Init+0x228>
 8000cb6:	2304      	movs	r3, #4
 8000cb8:	e006      	b.n	8000cc8 <HAL_GPIO_Init+0x228>
 8000cba:	2303      	movs	r3, #3
 8000cbc:	e004      	b.n	8000cc8 <HAL_GPIO_Init+0x228>
 8000cbe:	2302      	movs	r3, #2
 8000cc0:	e002      	b.n	8000cc8 <HAL_GPIO_Init+0x228>
 8000cc2:	2301      	movs	r3, #1
 8000cc4:	e000      	b.n	8000cc8 <HAL_GPIO_Init+0x228>
 8000cc6:	2300      	movs	r3, #0
 8000cc8:	69fa      	ldr	r2, [r7, #28]
 8000cca:	f002 0203 	and.w	r2, r2, #3
 8000cce:	0092      	lsls	r2, r2, #2
 8000cd0:	4093      	lsls	r3, r2
 8000cd2:	69ba      	ldr	r2, [r7, #24]
 8000cd4:	4313      	orrs	r3, r2
 8000cd6:	61bb      	str	r3, [r7, #24]
        SYSCFG->EXTICR[position >> 2U] = temp;
 8000cd8:	4934      	ldr	r1, [pc, #208]	; (8000dac <HAL_GPIO_Init+0x30c>)
 8000cda:	69fb      	ldr	r3, [r7, #28]
 8000cdc:	089b      	lsrs	r3, r3, #2
 8000cde:	3302      	adds	r3, #2
 8000ce0:	69ba      	ldr	r2, [r7, #24]
 8000ce2:	f841 2023 	str.w	r2, [r1, r3, lsl #2]

        /* Clear EXTI line configuration */
        temp = EXTI->IMR;
 8000ce6:	4b3a      	ldr	r3, [pc, #232]	; (8000dd0 <HAL_GPIO_Init+0x330>)
 8000ce8:	681b      	ldr	r3, [r3, #0]
 8000cea:	61bb      	str	r3, [r7, #24]
        temp &= ~((uint32_t)iocurrent);
 8000cec:	693b      	ldr	r3, [r7, #16]
 8000cee:	43db      	mvns	r3, r3
 8000cf0:	69ba      	ldr	r2, [r7, #24]
 8000cf2:	4013      	ands	r3, r2
 8000cf4:	61bb      	str	r3, [r7, #24]
        if((GPIO_Init->Mode & GPIO_MODE_IT) == GPIO_MODE_IT)
 8000cf6:	683b      	ldr	r3, [r7, #0]
 8000cf8:	685b      	ldr	r3, [r3, #4]
 8000cfa:	f403 3380 	and.w	r3, r3, #65536	; 0x10000
 8000cfe:	2b00      	cmp	r3, #0
 8000d00:	d003      	beq.n	8000d0a <HAL_GPIO_Init+0x26a>
        {
          temp |= iocurrent;
 8000d02:	69ba      	ldr	r2, [r7, #24]
 8000d04:	693b      	ldr	r3, [r7, #16]
 8000d06:	4313      	orrs	r3, r2
 8000d08:	61bb      	str	r3, [r7, #24]
        }
        EXTI->IMR = temp;
 8000d0a:	4a31      	ldr	r2, [pc, #196]	; (8000dd0 <HAL_GPIO_Init+0x330>)
 8000d0c:	69bb      	ldr	r3, [r7, #24]
 8000d0e:	6013      	str	r3, [r2, #0]

        temp = EXTI->EMR;
 8000d10:	4b2f      	ldr	r3, [pc, #188]	; (8000dd0 <HAL_GPIO_Init+0x330>)
 8000d12:	685b      	ldr	r3, [r3, #4]
 8000d14:	61bb      	str	r3, [r7, #24]
        temp &= ~((uint32_t)iocurrent);
 8000d16:	693b      	ldr	r3, [r7, #16]
 8000d18:	43db      	mvns	r3, r3
 8000d1a:	69ba      	ldr	r2, [r7, #24]
 8000d1c:	4013      	ands	r3, r2
 8000d1e:	61bb      	str	r3, [r7, #24]
        if((GPIO_Init->Mode & GPIO_MODE_EVT) == GPIO_MODE_EVT)
 8000d20:	683b      	ldr	r3, [r7, #0]
 8000d22:	685b      	ldr	r3, [r3, #4]
 8000d24:	f403 3300 	and.w	r3, r3, #131072	; 0x20000
 8000d28:	2b00      	cmp	r3, #0
 8000d2a:	d003      	beq.n	8000d34 <HAL_GPIO_Init+0x294>
        {
          temp |= iocurrent;
 8000d2c:	69ba      	ldr	r2, [r7, #24]
 8000d2e:	693b      	ldr	r3, [r7, #16]
 8000d30:	4313      	orrs	r3, r2
 8000d32:	61bb      	str	r3, [r7, #24]
        }
        EXTI->EMR = temp;
 8000d34:	4a26      	ldr	r2, [pc, #152]	; (8000dd0 <HAL_GPIO_Init+0x330>)
 8000d36:	69bb      	ldr	r3, [r7, #24]
 8000d38:	6053      	str	r3, [r2, #4]

        /* Clear Rising Falling edge configuration */
        temp = EXTI->RTSR;
 8000d3a:	4b25      	ldr	r3, [pc, #148]	; (8000dd0 <HAL_GPIO_Init+0x330>)
 8000d3c:	689b      	ldr	r3, [r3, #8]
 8000d3e:	61bb      	str	r3, [r7, #24]
        temp &= ~((uint32_t)iocurrent);
 8000d40:	693b      	ldr	r3, [r7, #16]
 8000d42:	43db      	mvns	r3, r3
 8000d44:	69ba      	ldr	r2, [r7, #24]
 8000d46:	4013      	ands	r3, r2
 8000d48:	61bb      	str	r3, [r7, #24]
        if((GPIO_Init->Mode & RISING_EDGE) == RISING_EDGE)
 8000d4a:	683b      	ldr	r3, [r7, #0]
 8000d4c:	685b      	ldr	r3, [r3, #4]
 8000d4e:	f403 1380 	and.w	r3, r3, #1048576	; 0x100000
 8000d52:	2b00      	cmp	r3, #0
 8000d54:	d003      	beq.n	8000d5e <HAL_GPIO_Init+0x2be>
        {
          temp |= iocurrent;
 8000d56:	69ba      	ldr	r2, [r7, #24]
 8000d58:	693b      	ldr	r3, [r7, #16]
 8000d5a:	4313      	orrs	r3, r2
 8000d5c:	61bb      	str	r3, [r7, #24]
        }
        EXTI->RTSR = temp;
 8000d5e:	4a1c      	ldr	r2, [pc, #112]	; (8000dd0 <HAL_GPIO_Init+0x330>)
 8000d60:	69bb      	ldr	r3, [r7, #24]
 8000d62:	6093      	str	r3, [r2, #8]

        temp = EXTI->FTSR;
 8000d64:	4b1a      	ldr	r3, [pc, #104]	; (8000dd0 <HAL_GPIO_Init+0x330>)
 8000d66:	68db      	ldr	r3, [r3, #12]
 8000d68:	61bb      	str	r3, [r7, #24]
        temp &= ~((uint32_t)iocurrent);
 8000d6a:	693b      	ldr	r3, [r7, #16]
 8000d6c:	43db      	mvns	r3, r3
 8000d6e:	69ba      	ldr	r2, [r7, #24]
 8000d70:	4013      	ands	r3, r2
 8000d72:	61bb      	str	r3, [r7, #24]
        if((GPIO_Init->Mode & FALLING_EDGE) == FALLING_EDGE)
 8000d74:	683b      	ldr	r3, [r7, #0]
 8000d76:	685b      	ldr	r3, [r3, #4]
 8000d78:	f403 1300 	and.w	r3, r3, #2097152	; 0x200000
 8000d7c:	2b00      	cmp	r3, #0
 8000d7e:	d003      	beq.n	8000d88 <HAL_GPIO_Init+0x2e8>
        {
          temp |= iocurrent;
 8000d80:	69ba      	ldr	r2, [r7, #24]
 8000d82:	693b      	ldr	r3, [r7, #16]
 8000d84:	4313      	orrs	r3, r2
 8000d86:	61bb      	str	r3, [r7, #24]
        }
        EXTI->FTSR = temp;
 8000d88:	4a11      	ldr	r2, [pc, #68]	; (8000dd0 <HAL_GPIO_Init+0x330>)
 8000d8a:	69bb      	ldr	r3, [r7, #24]
 8000d8c:	60d3      	str	r3, [r2, #12]
  for(position = 0U; position < GPIO_NUMBER; position++)
 8000d8e:	69fb      	ldr	r3, [r7, #28]
 8000d90:	3301      	adds	r3, #1
 8000d92:	61fb      	str	r3, [r7, #28]
 8000d94:	69fb      	ldr	r3, [r7, #28]
 8000d96:	2b0f      	cmp	r3, #15
 8000d98:	f67f ae90 	bls.w	8000abc <HAL_GPIO_Init+0x1c>
      }
    }
  }
}
 8000d9c:	bf00      	nop
 8000d9e:	3724      	adds	r7, #36	; 0x24
 8000da0:	46bd      	mov	sp, r7
 8000da2:	f85d 7b04 	ldr.w	r7, [sp], #4
 8000da6:	4770      	bx	lr
 8000da8:	40023800 	.word	0x40023800
 8000dac:	40013800 	.word	0x40013800
 8000db0:	40020000 	.word	0x40020000
 8000db4:	40020400 	.word	0x40020400
 8000db8:	40020800 	.word	0x40020800
 8000dbc:	40020c00 	.word	0x40020c00
 8000dc0:	40021000 	.word	0x40021000
 8000dc4:	40021400 	.word	0x40021400
 8000dc8:	40021800 	.word	0x40021800
 8000dcc:	40021c00 	.word	0x40021c00
 8000dd0:	40013c00 	.word	0x40013c00

08000dd4 <HAL_RCC_GetHCLKFreq>:
  * @note   The SystemCoreClock CMSIS variable is used to store System Clock Frequency
  *         and updated within this function
  * @retval HCLK frequency
  */
uint32_t HAL_RCC_GetHCLKFreq(void)
{
 8000dd4:	b480      	push	{r7}
 8000dd6:	af00      	add	r7, sp, #0
  return SystemCoreClock;
 8000dd8:	4b03      	ldr	r3, [pc, #12]	; (8000de8 <HAL_RCC_GetHCLKFreq+0x14>)
 8000dda:	681b      	ldr	r3, [r3, #0]
}
 8000ddc:	4618      	mov	r0, r3
 8000dde:	46bd      	mov	sp, r7
 8000de0:	f85d 7b04 	ldr.w	r7, [sp], #4
 8000de4:	4770      	bx	lr
 8000de6:	bf00      	nop
 8000de8:	20000004 	.word	0x20000004

08000dec <HAL_RCC_GetPCLK1Freq>:
  * @note   Each time PCLK1 changes, this function must be called to update the
  *         right PCLK1 value. Otherwise, any configuration based on this function will be incorrect.
  * @retval PCLK1 frequency
  */
uint32_t HAL_RCC_GetPCLK1Freq(void)
{
 8000dec:	b580      	push	{r7, lr}
 8000dee:	af00      	add	r7, sp, #0
  /* Get HCLK source and Compute PCLK1 frequency ---------------------------*/
  return (HAL_RCC_GetHCLKFreq() >> APBPrescTable[(RCC->CFGR & RCC_CFGR_PPRE1)>> RCC_CFGR_PPRE1_Pos]);
 8000df0:	f7ff fff0 	bl	8000dd4 <HAL_RCC_GetHCLKFreq>
 8000df4:	4601      	mov	r1, r0
 8000df6:	4b05      	ldr	r3, [pc, #20]	; (8000e0c <HAL_RCC_GetPCLK1Freq+0x20>)
 8000df8:	689b      	ldr	r3, [r3, #8]
 8000dfa:	0a9b      	lsrs	r3, r3, #10
 8000dfc:	f003 0307 	and.w	r3, r3, #7
 8000e00:	4a03      	ldr	r2, [pc, #12]	; (8000e10 <HAL_RCC_GetPCLK1Freq+0x24>)
 8000e02:	5cd3      	ldrb	r3, [r2, r3]
 8000e04:	fa21 f303 	lsr.w	r3, r1, r3
}
 8000e08:	4618      	mov	r0, r3
 8000e0a:	bd80      	pop	{r7, pc}
 8000e0c:	40023800 	.word	0x40023800
 8000e10:	08001960 	.word	0x08001960

08000e14 <HAL_RCC_GetPCLK2Freq>:
  * @note   Each time PCLK2 changes, this function must be called to update the
  *         right PCLK2 value. Otherwise, any configuration based on this function will be incorrect.
  * @retval PCLK2 frequency
  */
uint32_t HAL_RCC_GetPCLK2Freq(void)
{
 8000e14:	b580      	push	{r7, lr}
 8000e16:	af00      	add	r7, sp, #0
  /* Get HCLK source and Compute PCLK2 frequency ---------------------------*/
  return (HAL_RCC_GetHCLKFreq()>> APBPrescTable[(RCC->CFGR & RCC_CFGR_PPRE2)>> RCC_CFGR_PPRE2_Pos]);
 8000e18:	f7ff ffdc 	bl	8000dd4 <HAL_RCC_GetHCLKFreq>
 8000e1c:	4601      	mov	r1, r0
 8000e1e:	4b05      	ldr	r3, [pc, #20]	; (8000e34 <HAL_RCC_GetPCLK2Freq+0x20>)
 8000e20:	689b      	ldr	r3, [r3, #8]
 8000e22:	0b5b      	lsrs	r3, r3, #13
 8000e24:	f003 0307 	and.w	r3, r3, #7
 8000e28:	4a03      	ldr	r2, [pc, #12]	; (8000e38 <HAL_RCC_GetPCLK2Freq+0x24>)
 8000e2a:	5cd3      	ldrb	r3, [r2, r3]
 8000e2c:	fa21 f303 	lsr.w	r3, r1, r3
}
 8000e30:	4618      	mov	r0, r3
 8000e32:	bd80      	pop	{r7, pc}
 8000e34:	40023800 	.word	0x40023800
 8000e38:	08001960 	.word	0x08001960

08000e3c <HAL_UART_Init>:
  * @param  huart  Pointer to a UART_HandleTypeDef structure that contains
  *                the configuration information for the specified UART module.
  * @retval HAL status
  */
HAL_StatusTypeDef HAL_UART_Init(UART_HandleTypeDef *huart)
{
 8000e3c:	b580      	push	{r7, lr}
 8000e3e:	b082      	sub	sp, #8
 8000e40:	af00      	add	r7, sp, #0
 8000e42:	6078      	str	r0, [r7, #4]
  /* Check the UART handle allocation */
  if (huart == NULL)
 8000e44:	687b      	ldr	r3, [r7, #4]
 8000e46:	2b00      	cmp	r3, #0
 8000e48:	d101      	bne.n	8000e4e <HAL_UART_Init+0x12>
  {
    return HAL_ERROR;
 8000e4a:	2301      	movs	r3, #1
 8000e4c:	e03f      	b.n	8000ece <HAL_UART_Init+0x92>
    assert_param(IS_UART_INSTANCE(huart->Instance));
  }
  assert_param(IS_UART_WORD_LENGTH(huart->Init.WordLength));
  assert_param(IS_UART_OVERSAMPLING(huart->Init.OverSampling));

  if (huart->gState == HAL_UART_STATE_RESET)
 8000e4e:	687b      	ldr	r3, [r7, #4]
 8000e50:	f893 3039 	ldrb.w	r3, [r3, #57]	; 0x39
 8000e54:	b2db      	uxtb	r3, r3
 8000e56:	2b00      	cmp	r3, #0
 8000e58:	d106      	bne.n	8000e68 <HAL_UART_Init+0x2c>
  {
    /* Allocate lock resource and initialize it */
    huart->Lock = HAL_UNLOCKED;
 8000e5a:	687b      	ldr	r3, [r7, #4]
 8000e5c:	2200      	movs	r2, #0
 8000e5e:	f883 2038 	strb.w	r2, [r3, #56]	; 0x38

    /* Init the low level hardware */
    huart->MspInitCallback(huart);
#else
    /* Init the low level hardware : GPIO, CLOCK */
    HAL_UART_MspInit(huart);
 8000e62:	6878      	ldr	r0, [r7, #4]
 8000e64:	f7ff fc04 	bl	8000670 <HAL_UART_MspInit>
#endif /* (USE_HAL_UART_REGISTER_CALLBACKS) */
  }

  huart->gState = HAL_UART_STATE_BUSY;
 8000e68:	687b      	ldr	r3, [r7, #4]
 8000e6a:	2224      	movs	r2, #36	; 0x24
 8000e6c:	f883 2039 	strb.w	r2, [r3, #57]	; 0x39

  /* Disable the peripheral */
  __HAL_UART_DISABLE(huart);
 8000e70:	687b      	ldr	r3, [r7, #4]
 8000e72:	681b      	ldr	r3, [r3, #0]
 8000e74:	68da      	ldr	r2, [r3, #12]
 8000e76:	687b      	ldr	r3, [r7, #4]
 8000e78:	681b      	ldr	r3, [r3, #0]
 8000e7a:	f422 5200 	bic.w	r2, r2, #8192	; 0x2000
 8000e7e:	60da      	str	r2, [r3, #12]

  /* Set the UART Communication parameters */
  UART_SetConfig(huart);
 8000e80:	6878      	ldr	r0, [r7, #4]
 8000e82:	f000 f9b1 	bl	80011e8 <UART_SetConfig>

  /* In asynchronous mode, the following bits must be kept cleared:
     - LINEN and CLKEN bits in the USART_CR2 register,
     - SCEN, HDSEL and IREN  bits in the USART_CR3 register.*/
  CLEAR_BIT(huart->Instance->CR2, (USART_CR2_LINEN | USART_CR2_CLKEN));
 8000e86:	687b      	ldr	r3, [r7, #4]
 8000e88:	681b      	ldr	r3, [r3, #0]
 8000e8a:	691a      	ldr	r2, [r3, #16]
 8000e8c:	687b      	ldr	r3, [r7, #4]
 8000e8e:	681b      	ldr	r3, [r3, #0]
 8000e90:	f422 4290 	bic.w	r2, r2, #18432	; 0x4800
 8000e94:	611a      	str	r2, [r3, #16]
  CLEAR_BIT(huart->Instance->CR3, (USART_CR3_SCEN | USART_CR3_HDSEL | USART_CR3_IREN));
 8000e96:	687b      	ldr	r3, [r7, #4]
 8000e98:	681b      	ldr	r3, [r3, #0]
 8000e9a:	695a      	ldr	r2, [r3, #20]
 8000e9c:	687b      	ldr	r3, [r7, #4]
 8000e9e:	681b      	ldr	r3, [r3, #0]
 8000ea0:	f022 022a 	bic.w	r2, r2, #42	; 0x2a
 8000ea4:	615a      	str	r2, [r3, #20]

  /* Enable the peripheral */
  __HAL_UART_ENABLE(huart);
 8000ea6:	687b      	ldr	r3, [r7, #4]
 8000ea8:	681b      	ldr	r3, [r3, #0]
 8000eaa:	68da      	ldr	r2, [r3, #12]
 8000eac:	687b      	ldr	r3, [r7, #4]
 8000eae:	681b      	ldr	r3, [r3, #0]
 8000eb0:	f442 5200 	orr.w	r2, r2, #8192	; 0x2000
 8000eb4:	60da      	str	r2, [r3, #12]

  /* Initialize the UART state */
  huart->ErrorCode = HAL_UART_ERROR_NONE;
 8000eb6:	687b      	ldr	r3, [r7, #4]
 8000eb8:	2200      	movs	r2, #0
 8000eba:	63da      	str	r2, [r3, #60]	; 0x3c
  huart->gState = HAL_UART_STATE_READY;
 8000ebc:	687b      	ldr	r3, [r7, #4]
 8000ebe:	2220      	movs	r2, #32
 8000ec0:	f883 2039 	strb.w	r2, [r3, #57]	; 0x39
  huart->RxState = HAL_UART_STATE_READY;
 8000ec4:	687b      	ldr	r3, [r7, #4]
 8000ec6:	2220      	movs	r2, #32
 8000ec8:	f883 203a 	strb.w	r2, [r3, #58]	; 0x3a

  return HAL_OK;
 8000ecc:	2300      	movs	r3, #0
}
 8000ece:	4618      	mov	r0, r3
 8000ed0:	3708      	adds	r7, #8
 8000ed2:	46bd      	mov	sp, r7
 8000ed4:	bd80      	pop	{r7, pc}

08000ed6 <HAL_UART_Transmit>:
  * @param  Size  Amount of data elements (u8 or u16) to be sent
  * @param  Timeout Timeout duration
  * @retval HAL status
  */
HAL_StatusTypeDef HAL_UART_Transmit(UART_HandleTypeDef *huart, uint8_t *pData, uint16_t Size, uint32_t Timeout)
{
 8000ed6:	b580      	push	{r7, lr}
 8000ed8:	b088      	sub	sp, #32
 8000eda:	af02      	add	r7, sp, #8
 8000edc:	60f8      	str	r0, [r7, #12]
 8000ede:	60b9      	str	r1, [r7, #8]
 8000ee0:	603b      	str	r3, [r7, #0]
 8000ee2:	4613      	mov	r3, r2
 8000ee4:	80fb      	strh	r3, [r7, #6]
  uint16_t *tmp;
  uint32_t tickstart = 0U;
 8000ee6:	2300      	movs	r3, #0
 8000ee8:	617b      	str	r3, [r7, #20]

  /* Check that a Tx process is not already ongoing */
  if (huart->gState == HAL_UART_STATE_READY)
 8000eea:	68fb      	ldr	r3, [r7, #12]
 8000eec:	f893 3039 	ldrb.w	r3, [r3, #57]	; 0x39
 8000ef0:	b2db      	uxtb	r3, r3
 8000ef2:	2b20      	cmp	r3, #32
 8000ef4:	f040 8083 	bne.w	8000ffe <HAL_UART_Transmit+0x128>
  {
    if ((pData == NULL) || (Size == 0U))
 8000ef8:	68bb      	ldr	r3, [r7, #8]
 8000efa:	2b00      	cmp	r3, #0
 8000efc:	d002      	beq.n	8000f04 <HAL_UART_Transmit+0x2e>
 8000efe:	88fb      	ldrh	r3, [r7, #6]
 8000f00:	2b00      	cmp	r3, #0
 8000f02:	d101      	bne.n	8000f08 <HAL_UART_Transmit+0x32>
    {
      return  HAL_ERROR;
 8000f04:	2301      	movs	r3, #1
 8000f06:	e07b      	b.n	8001000 <HAL_UART_Transmit+0x12a>
    }

    /* Process Locked */
    __HAL_LOCK(huart);
 8000f08:	68fb      	ldr	r3, [r7, #12]
 8000f0a:	f893 3038 	ldrb.w	r3, [r3, #56]	; 0x38
 8000f0e:	2b01      	cmp	r3, #1
 8000f10:	d101      	bne.n	8000f16 <HAL_UART_Transmit+0x40>
 8000f12:	2302      	movs	r3, #2
 8000f14:	e074      	b.n	8001000 <HAL_UART_Transmit+0x12a>
 8000f16:	68fb      	ldr	r3, [r7, #12]
 8000f18:	2201      	movs	r2, #1
 8000f1a:	f883 2038 	strb.w	r2, [r3, #56]	; 0x38

    huart->ErrorCode = HAL_UART_ERROR_NONE;
 8000f1e:	68fb      	ldr	r3, [r7, #12]
 8000f20:	2200      	movs	r2, #0
 8000f22:	63da      	str	r2, [r3, #60]	; 0x3c
    huart->gState = HAL_UART_STATE_BUSY_TX;
 8000f24:	68fb      	ldr	r3, [r7, #12]
 8000f26:	2221      	movs	r2, #33	; 0x21
 8000f28:	f883 2039 	strb.w	r2, [r3, #57]	; 0x39

    /* Init tickstart for timeout managment */
    tickstart = HAL_GetTick();
 8000f2c:	f7ff fc8e 	bl	800084c <HAL_GetTick>
 8000f30:	6178      	str	r0, [r7, #20]

    huart->TxXferSize = Size;
 8000f32:	68fb      	ldr	r3, [r7, #12]
 8000f34:	88fa      	ldrh	r2, [r7, #6]
 8000f36:	849a      	strh	r2, [r3, #36]	; 0x24
    huart->TxXferCount = Size;
 8000f38:	68fb      	ldr	r3, [r7, #12]
 8000f3a:	88fa      	ldrh	r2, [r7, #6]
 8000f3c:	84da      	strh	r2, [r3, #38]	; 0x26

    /* Process Unlocked */
    __HAL_UNLOCK(huart);
 8000f3e:	68fb      	ldr	r3, [r7, #12]
 8000f40:	2200      	movs	r2, #0
 8000f42:	f883 2038 	strb.w	r2, [r3, #56]	; 0x38

    while (huart->TxXferCount > 0U)
 8000f46:	e042      	b.n	8000fce <HAL_UART_Transmit+0xf8>
    {
      huart->TxXferCount--;
 8000f48:	68fb      	ldr	r3, [r7, #12]
 8000f4a:	8cdb      	ldrh	r3, [r3, #38]	; 0x26
 8000f4c:	b29b      	uxth	r3, r3
 8000f4e:	3b01      	subs	r3, #1
 8000f50:	b29a      	uxth	r2, r3
 8000f52:	68fb      	ldr	r3, [r7, #12]
 8000f54:	84da      	strh	r2, [r3, #38]	; 0x26
      if (huart->Init.WordLength == UART_WORDLENGTH_9B)
 8000f56:	68fb      	ldr	r3, [r7, #12]
 8000f58:	689b      	ldr	r3, [r3, #8]
 8000f5a:	f5b3 5f80 	cmp.w	r3, #4096	; 0x1000
 8000f5e:	d122      	bne.n	8000fa6 <HAL_UART_Transmit+0xd0>
      {
        if (UART_WaitOnFlagUntilTimeout(huart, UART_FLAG_TXE, RESET, tickstart, Timeout) != HAL_OK)
 8000f60:	683b      	ldr	r3, [r7, #0]
 8000f62:	9300      	str	r3, [sp, #0]
 8000f64:	697b      	ldr	r3, [r7, #20]
 8000f66:	2200      	movs	r2, #0
 8000f68:	2180      	movs	r1, #128	; 0x80
 8000f6a:	68f8      	ldr	r0, [r7, #12]
 8000f6c:	f000 f8f2 	bl	8001154 <UART_WaitOnFlagUntilTimeout>
 8000f70:	4603      	mov	r3, r0
 8000f72:	2b00      	cmp	r3, #0
 8000f74:	d001      	beq.n	8000f7a <HAL_UART_Transmit+0xa4>
        {
          return HAL_TIMEOUT;
 8000f76:	2303      	movs	r3, #3
 8000f78:	e042      	b.n	8001000 <HAL_UART_Transmit+0x12a>
        }
        tmp = (uint16_t *) pData;
 8000f7a:	68bb      	ldr	r3, [r7, #8]
 8000f7c:	613b      	str	r3, [r7, #16]
        huart->Instance->DR = (*tmp & (uint16_t)0x01FF);
 8000f7e:	693b      	ldr	r3, [r7, #16]
 8000f80:	881b      	ldrh	r3, [r3, #0]
 8000f82:	461a      	mov	r2, r3
 8000f84:	68fb      	ldr	r3, [r7, #12]
 8000f86:	681b      	ldr	r3, [r3, #0]
 8000f88:	f3c2 0208 	ubfx	r2, r2, #0, #9
 8000f8c:	605a      	str	r2, [r3, #4]
        if (huart->Init.Parity == UART_PARITY_NONE)
 8000f8e:	68fb      	ldr	r3, [r7, #12]
 8000f90:	691b      	ldr	r3, [r3, #16]
 8000f92:	2b00      	cmp	r3, #0
 8000f94:	d103      	bne.n	8000f9e <HAL_UART_Transmit+0xc8>
        {
          pData += 2U;
 8000f96:	68bb      	ldr	r3, [r7, #8]
 8000f98:	3302      	adds	r3, #2
 8000f9a:	60bb      	str	r3, [r7, #8]
 8000f9c:	e017      	b.n	8000fce <HAL_UART_Transmit+0xf8>
        }
        else
        {
          pData += 1U;
 8000f9e:	68bb      	ldr	r3, [r7, #8]
 8000fa0:	3301      	adds	r3, #1
 8000fa2:	60bb      	str	r3, [r7, #8]
 8000fa4:	e013      	b.n	8000fce <HAL_UART_Transmit+0xf8>
        }
      }
      else
      {
        if (UART_WaitOnFlagUntilTimeout(huart, UART_FLAG_TXE, RESET, tickstart, Timeout) != HAL_OK)
 8000fa6:	683b      	ldr	r3, [r7, #0]
 8000fa8:	9300      	str	r3, [sp, #0]
 8000faa:	697b      	ldr	r3, [r7, #20]
 8000fac:	2200      	movs	r2, #0
 8000fae:	2180      	movs	r1, #128	; 0x80
 8000fb0:	68f8      	ldr	r0, [r7, #12]
 8000fb2:	f000 f8cf 	bl	8001154 <UART_WaitOnFlagUntilTimeout>
 8000fb6:	4603      	mov	r3, r0
 8000fb8:	2b00      	cmp	r3, #0
 8000fba:	d001      	beq.n	8000fc0 <HAL_UART_Transmit+0xea>
        {
          return HAL_TIMEOUT;
 8000fbc:	2303      	movs	r3, #3
 8000fbe:	e01f      	b.n	8001000 <HAL_UART_Transmit+0x12a>
        }
        huart->Instance->DR = (*pData++ & (uint8_t)0xFF);
 8000fc0:	68bb      	ldr	r3, [r7, #8]
 8000fc2:	1c5a      	adds	r2, r3, #1
 8000fc4:	60ba      	str	r2, [r7, #8]
 8000fc6:	781a      	ldrb	r2, [r3, #0]
 8000fc8:	68fb      	ldr	r3, [r7, #12]
 8000fca:	681b      	ldr	r3, [r3, #0]
 8000fcc:	605a      	str	r2, [r3, #4]
    while (huart->TxXferCount > 0U)
 8000fce:	68fb      	ldr	r3, [r7, #12]
 8000fd0:	8cdb      	ldrh	r3, [r3, #38]	; 0x26
 8000fd2:	b29b      	uxth	r3, r3
 8000fd4:	2b00      	cmp	r3, #0
 8000fd6:	d1b7      	bne.n	8000f48 <HAL_UART_Transmit+0x72>
      }
    }

    if (UART_WaitOnFlagUntilTimeout(huart, UART_FLAG_TC, RESET, tickstart, Timeout) != HAL_OK)
 8000fd8:	683b      	ldr	r3, [r7, #0]
 8000fda:	9300      	str	r3, [sp, #0]
 8000fdc:	697b      	ldr	r3, [r7, #20]
 8000fde:	2200      	movs	r2, #0
 8000fe0:	2140      	movs	r1, #64	; 0x40
 8000fe2:	68f8      	ldr	r0, [r7, #12]
 8000fe4:	f000 f8b6 	bl	8001154 <UART_WaitOnFlagUntilTimeout>
 8000fe8:	4603      	mov	r3, r0
 8000fea:	2b00      	cmp	r3, #0
 8000fec:	d001      	beq.n	8000ff2 <HAL_UART_Transmit+0x11c>
    {
      return HAL_TIMEOUT;
 8000fee:	2303      	movs	r3, #3
 8000ff0:	e006      	b.n	8001000 <HAL_UART_Transmit+0x12a>
    }

    /* At end of Tx process, restore huart->gState to Ready */
    huart->gState = HAL_UART_STATE_READY;
 8000ff2:	68fb      	ldr	r3, [r7, #12]
 8000ff4:	2220      	movs	r2, #32
 8000ff6:	f883 2039 	strb.w	r2, [r3, #57]	; 0x39

    return HAL_OK;
 8000ffa:	2300      	movs	r3, #0
 8000ffc:	e000      	b.n	8001000 <HAL_UART_Transmit+0x12a>
  }
  else
  {
    return HAL_BUSY;
 8000ffe:	2302      	movs	r3, #2
  }
}
 8001000:	4618      	mov	r0, r3
 8001002:	3718      	adds	r7, #24
 8001004:	46bd      	mov	sp, r7
 8001006:	bd80      	pop	{r7, pc}

08001008 <HAL_UART_Receive>:
  * @param  Size  Amount of data elements (u8 or u16) to be received.
  * @param  Timeout Timeout duration
  * @retval HAL status
  */
HAL_StatusTypeDef HAL_UART_Receive(UART_HandleTypeDef *huart, uint8_t *pData, uint16_t Size, uint32_t Timeout)
{
 8001008:	b580      	push	{r7, lr}
 800100a:	b088      	sub	sp, #32
 800100c:	af02      	add	r7, sp, #8
 800100e:	60f8      	str	r0, [r7, #12]
 8001010:	60b9      	str	r1, [r7, #8]
 8001012:	603b      	str	r3, [r7, #0]
 8001014:	4613      	mov	r3, r2
 8001016:	80fb      	strh	r3, [r7, #6]
  uint16_t *tmp;
  uint32_t tickstart = 0U;
 8001018:	2300      	movs	r3, #0
 800101a:	617b      	str	r3, [r7, #20]

  /* Check that a Rx process is not already ongoing */
  if (huart->RxState == HAL_UART_STATE_READY)
 800101c:	68fb      	ldr	r3, [r7, #12]
 800101e:	f893 303a 	ldrb.w	r3, [r3, #58]	; 0x3a
 8001022:	b2db      	uxtb	r3, r3
 8001024:	2b20      	cmp	r3, #32
 8001026:	f040 8090 	bne.w	800114a <HAL_UART_Receive+0x142>
  {
    if ((pData == NULL) || (Size == 0U))
 800102a:	68bb      	ldr	r3, [r7, #8]
 800102c:	2b00      	cmp	r3, #0
 800102e:	d002      	beq.n	8001036 <HAL_UART_Receive+0x2e>
 8001030:	88fb      	ldrh	r3, [r7, #6]
 8001032:	2b00      	cmp	r3, #0
 8001034:	d101      	bne.n	800103a <HAL_UART_Receive+0x32>
    {
      return  HAL_ERROR;
 8001036:	2301      	movs	r3, #1
 8001038:	e088      	b.n	800114c <HAL_UART_Receive+0x144>
    }

    /* Process Locked */
    __HAL_LOCK(huart);
 800103a:	68fb      	ldr	r3, [r7, #12]
 800103c:	f893 3038 	ldrb.w	r3, [r3, #56]	; 0x38
 8001040:	2b01      	cmp	r3, #1
 8001042:	d101      	bne.n	8001048 <HAL_UART_Receive+0x40>
 8001044:	2302      	movs	r3, #2
 8001046:	e081      	b.n	800114c <HAL_UART_Receive+0x144>
 8001048:	68fb      	ldr	r3, [r7, #12]
 800104a:	2201      	movs	r2, #1
 800104c:	f883 2038 	strb.w	r2, [r3, #56]	; 0x38

    huart->ErrorCode = HAL_UART_ERROR_NONE;
 8001050:	68fb      	ldr	r3, [r7, #12]
 8001052:	2200      	movs	r2, #0
 8001054:	63da      	str	r2, [r3, #60]	; 0x3c
    huart->RxState = HAL_UART_STATE_BUSY_RX;
 8001056:	68fb      	ldr	r3, [r7, #12]
 8001058:	2222      	movs	r2, #34	; 0x22
 800105a:	f883 203a 	strb.w	r2, [r3, #58]	; 0x3a

    /* Init tickstart for timeout managment */
    tickstart = HAL_GetTick();
 800105e:	f7ff fbf5 	bl	800084c <HAL_GetTick>
 8001062:	6178      	str	r0, [r7, #20]

    huart->RxXferSize = Size;
 8001064:	68fb      	ldr	r3, [r7, #12]
 8001066:	88fa      	ldrh	r2, [r7, #6]
 8001068:	859a      	strh	r2, [r3, #44]	; 0x2c
    huart->RxXferCount = Size;
 800106a:	68fb      	ldr	r3, [r7, #12]
 800106c:	88fa      	ldrh	r2, [r7, #6]
 800106e:	85da      	strh	r2, [r3, #46]	; 0x2e

    /* Process Unlocked */
    __HAL_UNLOCK(huart);
 8001070:	68fb      	ldr	r3, [r7, #12]
 8001072:	2200      	movs	r2, #0
 8001074:	f883 2038 	strb.w	r2, [r3, #56]	; 0x38

    /* Check the remain data to be received */
    while (huart->RxXferCount > 0U)
 8001078:	e05c      	b.n	8001134 <HAL_UART_Receive+0x12c>
    {
      huart->RxXferCount--;
 800107a:	68fb      	ldr	r3, [r7, #12]
 800107c:	8ddb      	ldrh	r3, [r3, #46]	; 0x2e
 800107e:	b29b      	uxth	r3, r3
 8001080:	3b01      	subs	r3, #1
 8001082:	b29a      	uxth	r2, r3
 8001084:	68fb      	ldr	r3, [r7, #12]
 8001086:	85da      	strh	r2, [r3, #46]	; 0x2e
      if (huart->Init.WordLength == UART_WORDLENGTH_9B)
 8001088:	68fb      	ldr	r3, [r7, #12]
 800108a:	689b      	ldr	r3, [r3, #8]
 800108c:	f5b3 5f80 	cmp.w	r3, #4096	; 0x1000
 8001090:	d12b      	bne.n	80010ea <HAL_UART_Receive+0xe2>
      {
        if (UART_WaitOnFlagUntilTimeout(huart, UART_FLAG_RXNE, RESET, tickstart, Timeout) != HAL_OK)
 8001092:	683b      	ldr	r3, [r7, #0]
 8001094:	9300      	str	r3, [sp, #0]
 8001096:	697b      	ldr	r3, [r7, #20]
 8001098:	2200      	movs	r2, #0
 800109a:	2120      	movs	r1, #32
 800109c:	68f8      	ldr	r0, [r7, #12]
 800109e:	f000 f859 	bl	8001154 <UART_WaitOnFlagUntilTimeout>
 80010a2:	4603      	mov	r3, r0
 80010a4:	2b00      	cmp	r3, #0
 80010a6:	d001      	beq.n	80010ac <HAL_UART_Receive+0xa4>
        {
          return HAL_TIMEOUT;
 80010a8:	2303      	movs	r3, #3
 80010aa:	e04f      	b.n	800114c <HAL_UART_Receive+0x144>
        }
        tmp = (uint16_t *) pData;
 80010ac:	68bb      	ldr	r3, [r7, #8]
 80010ae:	613b      	str	r3, [r7, #16]
        if (huart->Init.Parity == UART_PARITY_NONE)
 80010b0:	68fb      	ldr	r3, [r7, #12]
 80010b2:	691b      	ldr	r3, [r3, #16]
 80010b4:	2b00      	cmp	r3, #0
 80010b6:	d10c      	bne.n	80010d2 <HAL_UART_Receive+0xca>
        {
          *tmp = (uint16_t)(huart->Instance->DR & (uint16_t)0x01FF);
 80010b8:	68fb      	ldr	r3, [r7, #12]
 80010ba:	681b      	ldr	r3, [r3, #0]
 80010bc:	685b      	ldr	r3, [r3, #4]
 80010be:	b29b      	uxth	r3, r3
 80010c0:	f3c3 0308 	ubfx	r3, r3, #0, #9
 80010c4:	b29a      	uxth	r2, r3
 80010c6:	693b      	ldr	r3, [r7, #16]
 80010c8:	801a      	strh	r2, [r3, #0]
          pData += 2U;
 80010ca:	68bb      	ldr	r3, [r7, #8]
 80010cc:	3302      	adds	r3, #2
 80010ce:	60bb      	str	r3, [r7, #8]
 80010d0:	e030      	b.n	8001134 <HAL_UART_Receive+0x12c>
        }
        else
        {
          *tmp = (uint16_t)(huart->Instance->DR & (uint16_t)0x00FF);
 80010d2:	68fb      	ldr	r3, [r7, #12]
 80010d4:	681b      	ldr	r3, [r3, #0]
 80010d6:	685b      	ldr	r3, [r3, #4]
 80010d8:	b29b      	uxth	r3, r3
 80010da:	b2db      	uxtb	r3, r3
 80010dc:	b29a      	uxth	r2, r3
 80010de:	693b      	ldr	r3, [r7, #16]
 80010e0:	801a      	strh	r2, [r3, #0]
          pData += 1U;
 80010e2:	68bb      	ldr	r3, [r7, #8]
 80010e4:	3301      	adds	r3, #1
 80010e6:	60bb      	str	r3, [r7, #8]
 80010e8:	e024      	b.n	8001134 <HAL_UART_Receive+0x12c>
        }

      }
      else
      {
        if (UART_WaitOnFlagUntilTimeout(huart, UART_FLAG_RXNE, RESET, tickstart, Timeout) != HAL_OK)
 80010ea:	683b      	ldr	r3, [r7, #0]
 80010ec:	9300      	str	r3, [sp, #0]
 80010ee:	697b      	ldr	r3, [r7, #20]
 80010f0:	2200      	movs	r2, #0
 80010f2:	2120      	movs	r1, #32
 80010f4:	68f8      	ldr	r0, [r7, #12]
 80010f6:	f000 f82d 	bl	8001154 <UART_WaitOnFlagUntilTimeout>
 80010fa:	4603      	mov	r3, r0
 80010fc:	2b00      	cmp	r3, #0
 80010fe:	d001      	beq.n	8001104 <HAL_UART_Receive+0xfc>
        {
          return HAL_TIMEOUT;
 8001100:	2303      	movs	r3, #3
 8001102:	e023      	b.n	800114c <HAL_UART_Receive+0x144>
        }
        if (huart->Init.Parity == UART_PARITY_NONE)
 8001104:	68fb      	ldr	r3, [r7, #12]
 8001106:	691b      	ldr	r3, [r3, #16]
 8001108:	2b00      	cmp	r3, #0
 800110a:	d108      	bne.n	800111e <HAL_UART_Receive+0x116>
        {
          *pData++ = (uint8_t)(huart->Instance->DR & (uint8_t)0x00FF);
 800110c:	68fb      	ldr	r3, [r7, #12]
 800110e:	681b      	ldr	r3, [r3, #0]
 8001110:	6859      	ldr	r1, [r3, #4]
 8001112:	68bb      	ldr	r3, [r7, #8]
 8001114:	1c5a      	adds	r2, r3, #1
 8001116:	60ba      	str	r2, [r7, #8]
 8001118:	b2ca      	uxtb	r2, r1
 800111a:	701a      	strb	r2, [r3, #0]
 800111c:	e00a      	b.n	8001134 <HAL_UART_Receive+0x12c>
        }
        else
        {
          *pData++ = (uint8_t)(huart->Instance->DR & (uint8_t)0x007F);
 800111e:	68fb      	ldr	r3, [r7, #12]
 8001120:	681b      	ldr	r3, [r3, #0]
 8001122:	685b      	ldr	r3, [r3, #4]
 8001124:	b2da      	uxtb	r2, r3
 8001126:	68bb      	ldr	r3, [r7, #8]
 8001128:	1c59      	adds	r1, r3, #1
 800112a:	60b9      	str	r1, [r7, #8]
 800112c:	f002 027f 	and.w	r2, r2, #127	; 0x7f
 8001130:	b2d2      	uxtb	r2, r2
 8001132:	701a      	strb	r2, [r3, #0]
    while (huart->RxXferCount > 0U)
 8001134:	68fb      	ldr	r3, [r7, #12]
 8001136:	8ddb      	ldrh	r3, [r3, #46]	; 0x2e
 8001138:	b29b      	uxth	r3, r3
 800113a:	2b00      	cmp	r3, #0
 800113c:	d19d      	bne.n	800107a <HAL_UART_Receive+0x72>

      }
    }

    /* At end of Rx process, restore huart->RxState to Ready */
    huart->RxState = HAL_UART_STATE_READY;
 800113e:	68fb      	ldr	r3, [r7, #12]
 8001140:	2220      	movs	r2, #32
 8001142:	f883 203a 	strb.w	r2, [r3, #58]	; 0x3a

    return HAL_OK;
 8001146:	2300      	movs	r3, #0
 8001148:	e000      	b.n	800114c <HAL_UART_Receive+0x144>
  }
  else
  {
    return HAL_BUSY;
 800114a:	2302      	movs	r3, #2
  }
}
 800114c:	4618      	mov	r0, r3
 800114e:	3718      	adds	r7, #24
 8001150:	46bd      	mov	sp, r7
 8001152:	bd80      	pop	{r7, pc}

08001154 <UART_WaitOnFlagUntilTimeout>:
  * @param  Tickstart Tick start value
  * @param  Timeout Timeout duration
  * @retval HAL status
  */
static HAL_StatusTypeDef UART_WaitOnFlagUntilTimeout(UART_HandleTypeDef *huart, uint32_t Flag, FlagStatus Status, uint32_t Tickstart, uint32_t Timeout)
{
 8001154:	b580      	push	{r7, lr}
 8001156:	b084      	sub	sp, #16
 8001158:	af00      	add	r7, sp, #0
 800115a:	60f8      	str	r0, [r7, #12]
 800115c:	60b9      	str	r1, [r7, #8]
 800115e:	603b      	str	r3, [r7, #0]
 8001160:	4613      	mov	r3, r2
 8001162:	71fb      	strb	r3, [r7, #7]
  /* Wait until flag is set */
  while ((__HAL_UART_GET_FLAG(huart, Flag) ? SET : RESET) == Status)
 8001164:	e02c      	b.n	80011c0 <UART_WaitOnFlagUntilTimeout+0x6c>
  {
    /* Check for the Timeout */
    if (Timeout != HAL_MAX_DELAY)
 8001166:	69bb      	ldr	r3, [r7, #24]
 8001168:	f1b3 3fff 	cmp.w	r3, #4294967295
 800116c:	d028      	beq.n	80011c0 <UART_WaitOnFlagUntilTimeout+0x6c>
    {
      if ((Timeout == 0U) || ((HAL_GetTick() - Tickstart) > Timeout))
 800116e:	69bb      	ldr	r3, [r7, #24]
 8001170:	2b00      	cmp	r3, #0
 8001172:	d007      	beq.n	8001184 <UART_WaitOnFlagUntilTimeout+0x30>
 8001174:	f7ff fb6a 	bl	800084c <HAL_GetTick>
 8001178:	4602      	mov	r2, r0
 800117a:	683b      	ldr	r3, [r7, #0]
 800117c:	1ad3      	subs	r3, r2, r3
 800117e:	69ba      	ldr	r2, [r7, #24]
 8001180:	429a      	cmp	r2, r3
 8001182:	d21d      	bcs.n	80011c0 <UART_WaitOnFlagUntilTimeout+0x6c>
      {
        /* Disable TXE, RXNE, PE and ERR (Frame error, noise error, overrun error) interrupts for the interrupt process */
        CLEAR_BIT(huart->Instance->CR1, (USART_CR1_RXNEIE | USART_CR1_PEIE | USART_CR1_TXEIE));
 8001184:	68fb      	ldr	r3, [r7, #12]
 8001186:	681b      	ldr	r3, [r3, #0]
 8001188:	68da      	ldr	r2, [r3, #12]
 800118a:	68fb      	ldr	r3, [r7, #12]
 800118c:	681b      	ldr	r3, [r3, #0]
 800118e:	f422 72d0 	bic.w	r2, r2, #416	; 0x1a0
 8001192:	60da      	str	r2, [r3, #12]
        CLEAR_BIT(huart->Instance->CR3, USART_CR3_EIE);
 8001194:	68fb      	ldr	r3, [r7, #12]
 8001196:	681b      	ldr	r3, [r3, #0]
 8001198:	695a      	ldr	r2, [r3, #20]
 800119a:	68fb      	ldr	r3, [r7, #12]
 800119c:	681b      	ldr	r3, [r3, #0]
 800119e:	f022 0201 	bic.w	r2, r2, #1
 80011a2:	615a      	str	r2, [r3, #20]

        huart->gState  = HAL_UART_STATE_READY;
 80011a4:	68fb      	ldr	r3, [r7, #12]
 80011a6:	2220      	movs	r2, #32
 80011a8:	f883 2039 	strb.w	r2, [r3, #57]	; 0x39
        huart->RxState = HAL_UART_STATE_READY;
 80011ac:	68fb      	ldr	r3, [r7, #12]
 80011ae:	2220      	movs	r2, #32
 80011b0:	f883 203a 	strb.w	r2, [r3, #58]	; 0x3a

        /* Process Unlocked */
        __HAL_UNLOCK(huart);
 80011b4:	68fb      	ldr	r3, [r7, #12]
 80011b6:	2200      	movs	r2, #0
 80011b8:	f883 2038 	strb.w	r2, [r3, #56]	; 0x38

        return HAL_TIMEOUT;
 80011bc:	2303      	movs	r3, #3
 80011be:	e00f      	b.n	80011e0 <UART_WaitOnFlagUntilTimeout+0x8c>
  while ((__HAL_UART_GET_FLAG(huart, Flag) ? SET : RESET) == Status)
 80011c0:	68fb      	ldr	r3, [r7, #12]
 80011c2:	681b      	ldr	r3, [r3, #0]
 80011c4:	681a      	ldr	r2, [r3, #0]
 80011c6:	68bb      	ldr	r3, [r7, #8]
 80011c8:	4013      	ands	r3, r2
 80011ca:	68ba      	ldr	r2, [r7, #8]
 80011cc:	429a      	cmp	r2, r3
 80011ce:	bf0c      	ite	eq
 80011d0:	2301      	moveq	r3, #1
 80011d2:	2300      	movne	r3, #0
 80011d4:	b2db      	uxtb	r3, r3
 80011d6:	461a      	mov	r2, r3
 80011d8:	79fb      	ldrb	r3, [r7, #7]
 80011da:	429a      	cmp	r2, r3
 80011dc:	d0c3      	beq.n	8001166 <UART_WaitOnFlagUntilTimeout+0x12>
      }
    }
  }
  return HAL_OK;
 80011de:	2300      	movs	r3, #0
}
 80011e0:	4618      	mov	r0, r3
 80011e2:	3710      	adds	r7, #16
 80011e4:	46bd      	mov	sp, r7
 80011e6:	bd80      	pop	{r7, pc}

080011e8 <UART_SetConfig>:
  * @param  huart  Pointer to a UART_HandleTypeDef structure that contains
  *                the configuration information for the specified UART module.
  * @retval None
  */
static void UART_SetConfig(UART_HandleTypeDef *huart)
{
 80011e8:	e92d 4ff0 	stmdb	sp!, {r4, r5, r6, r7, r8, r9, sl, fp, lr}
 80011ec:	b085      	sub	sp, #20
 80011ee:	af00      	add	r7, sp, #0
 80011f0:	6078      	str	r0, [r7, #4]
  assert_param(IS_UART_MODE(huart->Init.Mode));

  /*-------------------------- USART CR2 Configuration -----------------------*/
  /* Configure the UART Stop Bits: Set STOP[13:12] bits
     according to huart->Init.StopBits value */
  MODIFY_REG(huart->Instance->CR2, USART_CR2_STOP, huart->Init.StopBits);
 80011f2:	687b      	ldr	r3, [r7, #4]
 80011f4:	681b      	ldr	r3, [r3, #0]
 80011f6:	691b      	ldr	r3, [r3, #16]
 80011f8:	f423 5140 	bic.w	r1, r3, #12288	; 0x3000
 80011fc:	687b      	ldr	r3, [r7, #4]
 80011fe:	68da      	ldr	r2, [r3, #12]
 8001200:	687b      	ldr	r3, [r7, #4]
 8001202:	681b      	ldr	r3, [r3, #0]
 8001204:	430a      	orrs	r2, r1
 8001206:	611a      	str	r2, [r3, #16]
     Set the M bits according to huart->Init.WordLength value
     Set PCE and PS bits according to huart->Init.Parity value
     Set TE and RE bits according to huart->Init.Mode value
     Set OVER8 bit according to huart->Init.OverSampling value */

  tmpreg = (uint32_t)huart->Init.WordLength | huart->Init.Parity | huart->Init.Mode | huart->Init.OverSampling;
 8001208:	687b      	ldr	r3, [r7, #4]
 800120a:	689a      	ldr	r2, [r3, #8]
 800120c:	687b      	ldr	r3, [r7, #4]
 800120e:	691b      	ldr	r3, [r3, #16]
 8001210:	431a      	orrs	r2, r3
 8001212:	687b      	ldr	r3, [r7, #4]
 8001214:	695b      	ldr	r3, [r3, #20]
 8001216:	431a      	orrs	r2, r3
 8001218:	687b      	ldr	r3, [r7, #4]
 800121a:	69db      	ldr	r3, [r3, #28]
 800121c:	4313      	orrs	r3, r2
 800121e:	60fb      	str	r3, [r7, #12]
  MODIFY_REG(huart->Instance->CR1,
 8001220:	687b      	ldr	r3, [r7, #4]
 8001222:	681b      	ldr	r3, [r3, #0]
 8001224:	68db      	ldr	r3, [r3, #12]
 8001226:	f423 4316 	bic.w	r3, r3, #38400	; 0x9600
 800122a:	f023 030c 	bic.w	r3, r3, #12
 800122e:	687a      	ldr	r2, [r7, #4]
 8001230:	6812      	ldr	r2, [r2, #0]
 8001232:	68f9      	ldr	r1, [r7, #12]
 8001234:	430b      	orrs	r3, r1
 8001236:	60d3      	str	r3, [r2, #12]
             (uint32_t)(USART_CR1_M | USART_CR1_PCE | USART_CR1_PS | USART_CR1_TE | USART_CR1_RE | USART_CR1_OVER8),
             tmpreg);

  /*-------------------------- USART CR3 Configuration -----------------------*/
  /* Configure the UART HFC: Set CTSE and RTSE bits according to huart->Init.HwFlowCtl value */
  MODIFY_REG(huart->Instance->CR3, (USART_CR3_RTSE | USART_CR3_CTSE), huart->Init.HwFlowCtl);
 8001238:	687b      	ldr	r3, [r7, #4]
 800123a:	681b      	ldr	r3, [r3, #0]
 800123c:	695b      	ldr	r3, [r3, #20]
 800123e:	f423 7140 	bic.w	r1, r3, #768	; 0x300
 8001242:	687b      	ldr	r3, [r7, #4]
 8001244:	699a      	ldr	r2, [r3, #24]
 8001246:	687b      	ldr	r3, [r7, #4]
 8001248:	681b      	ldr	r3, [r3, #0]
 800124a:	430a      	orrs	r2, r1
 800124c:	615a      	str	r2, [r3, #20]

  /* Check the Over Sampling */
  if (huart->Init.OverSampling == UART_OVERSAMPLING_8)
 800124e:	687b      	ldr	r3, [r7, #4]
 8001250:	69db      	ldr	r3, [r3, #28]
 8001252:	f5b3 4f00 	cmp.w	r3, #32768	; 0x8000
 8001256:	f040 818b 	bne.w	8001570 <UART_SetConfig+0x388>
    {
      pclk = HAL_RCC_GetPCLK2Freq();
      huart->Instance->BRR = UART_BRR_SAMPLING8(pclk, huart->Init.BaudRate);
    }
#elif defined(USART6)
    if ((huart->Instance == USART1) || (huart->Instance == USART6))
 800125a:	687b      	ldr	r3, [r7, #4]
 800125c:	681b      	ldr	r3, [r3, #0]
 800125e:	4ac1      	ldr	r2, [pc, #772]	; (8001564 <UART_SetConfig+0x37c>)
 8001260:	4293      	cmp	r3, r2
 8001262:	d005      	beq.n	8001270 <UART_SetConfig+0x88>
 8001264:	687b      	ldr	r3, [r7, #4]
 8001266:	681b      	ldr	r3, [r3, #0]
 8001268:	4abf      	ldr	r2, [pc, #764]	; (8001568 <UART_SetConfig+0x380>)
 800126a:	4293      	cmp	r3, r2
 800126c:	f040 80bd 	bne.w	80013ea <UART_SetConfig+0x202>
    {
      pclk = HAL_RCC_GetPCLK2Freq();
 8001270:	f7ff fdd0 	bl	8000e14 <HAL_RCC_GetPCLK2Freq>
 8001274:	60b8      	str	r0, [r7, #8]
      huart->Instance->BRR = UART_BRR_SAMPLING8(pclk, huart->Init.BaudRate);
 8001276:	68bb      	ldr	r3, [r7, #8]
 8001278:	461d      	mov	r5, r3
 800127a:	f04f 0600 	mov.w	r6, #0
 800127e:	46a8      	mov	r8, r5
 8001280:	46b1      	mov	r9, r6
 8001282:	eb18 0308 	adds.w	r3, r8, r8
 8001286:	eb49 0409 	adc.w	r4, r9, r9
 800128a:	4698      	mov	r8, r3
 800128c:	46a1      	mov	r9, r4
 800128e:	eb18 0805 	adds.w	r8, r8, r5
 8001292:	eb49 0906 	adc.w	r9, r9, r6
 8001296:	f04f 0100 	mov.w	r1, #0
 800129a:	f04f 0200 	mov.w	r2, #0
 800129e:	ea4f 02c9 	mov.w	r2, r9, lsl #3
 80012a2:	ea42 7258 	orr.w	r2, r2, r8, lsr #29
 80012a6:	ea4f 01c8 	mov.w	r1, r8, lsl #3
 80012aa:	4688      	mov	r8, r1
 80012ac:	4691      	mov	r9, r2
 80012ae:	eb18 0005 	adds.w	r0, r8, r5
 80012b2:	eb49 0106 	adc.w	r1, r9, r6
 80012b6:	687b      	ldr	r3, [r7, #4]
 80012b8:	685b      	ldr	r3, [r3, #4]
 80012ba:	461d      	mov	r5, r3
 80012bc:	f04f 0600 	mov.w	r6, #0
 80012c0:	196b      	adds	r3, r5, r5
 80012c2:	eb46 0406 	adc.w	r4, r6, r6
 80012c6:	461a      	mov	r2, r3
 80012c8:	4623      	mov	r3, r4
 80012ca:	f7fe ff85 	bl	80001d8 <__aeabi_uldivmod>
 80012ce:	4603      	mov	r3, r0
 80012d0:	460c      	mov	r4, r1
 80012d2:	461a      	mov	r2, r3
 80012d4:	4ba5      	ldr	r3, [pc, #660]	; (800156c <UART_SetConfig+0x384>)
 80012d6:	fba3 2302 	umull	r2, r3, r3, r2
 80012da:	095b      	lsrs	r3, r3, #5
 80012dc:	ea4f 1803 	mov.w	r8, r3, lsl #4
 80012e0:	68bb      	ldr	r3, [r7, #8]
 80012e2:	461d      	mov	r5, r3
 80012e4:	f04f 0600 	mov.w	r6, #0
 80012e8:	46a9      	mov	r9, r5
 80012ea:	46b2      	mov	sl, r6
 80012ec:	eb19 0309 	adds.w	r3, r9, r9
 80012f0:	eb4a 040a 	adc.w	r4, sl, sl
 80012f4:	4699      	mov	r9, r3
 80012f6:	46a2      	mov	sl, r4
 80012f8:	eb19 0905 	adds.w	r9, r9, r5
 80012fc:	eb4a 0a06 	adc.w	sl, sl, r6
 8001300:	f04f 0100 	mov.w	r1, #0
 8001304:	f04f 0200 	mov.w	r2, #0
 8001308:	ea4f 02ca 	mov.w	r2, sl, lsl #3
 800130c:	ea42 7259 	orr.w	r2, r2, r9, lsr #29
 8001310:	ea4f 01c9 	mov.w	r1, r9, lsl #3
 8001314:	4689      	mov	r9, r1
 8001316:	4692      	mov	sl, r2
 8001318:	eb19 0005 	adds.w	r0, r9, r5
 800131c:	eb4a 0106 	adc.w	r1, sl, r6
 8001320:	687b      	ldr	r3, [r7, #4]
 8001322:	685b      	ldr	r3, [r3, #4]
 8001324:	461d      	mov	r5, r3
 8001326:	f04f 0600 	mov.w	r6, #0
 800132a:	196b      	adds	r3, r5, r5
 800132c:	eb46 0406 	adc.w	r4, r6, r6
 8001330:	461a      	mov	r2, r3
 8001332:	4623      	mov	r3, r4
 8001334:	f7fe ff50 	bl	80001d8 <__aeabi_uldivmod>
 8001338:	4603      	mov	r3, r0
 800133a:	460c      	mov	r4, r1
 800133c:	461a      	mov	r2, r3
 800133e:	4b8b      	ldr	r3, [pc, #556]	; (800156c <UART_SetConfig+0x384>)
 8001340:	fba3 1302 	umull	r1, r3, r3, r2
 8001344:	095b      	lsrs	r3, r3, #5
 8001346:	2164      	movs	r1, #100	; 0x64
 8001348:	fb01 f303 	mul.w	r3, r1, r3
 800134c:	1ad3      	subs	r3, r2, r3
 800134e:	00db      	lsls	r3, r3, #3
 8001350:	3332      	adds	r3, #50	; 0x32
 8001352:	4a86      	ldr	r2, [pc, #536]	; (800156c <UART_SetConfig+0x384>)
 8001354:	fba2 2303 	umull	r2, r3, r2, r3
 8001358:	095b      	lsrs	r3, r3, #5
 800135a:	005b      	lsls	r3, r3, #1
 800135c:	f403 73f8 	and.w	r3, r3, #496	; 0x1f0
 8001360:	4498      	add	r8, r3
 8001362:	68bb      	ldr	r3, [r7, #8]
 8001364:	461d      	mov	r5, r3
 8001366:	f04f 0600 	mov.w	r6, #0
 800136a:	46a9      	mov	r9, r5
 800136c:	46b2      	mov	sl, r6
 800136e:	eb19 0309 	adds.w	r3, r9, r9
 8001372:	eb4a 040a 	adc.w	r4, sl, sl
 8001376:	4699      	mov	r9, r3
 8001378:	46a2      	mov	sl, r4
 800137a:	eb19 0905 	adds.w	r9, r9, r5
 800137e:	eb4a 0a06 	adc.w	sl, sl, r6
 8001382:	f04f 0100 	mov.w	r1, #0
 8001386:	f04f 0200 	mov.w	r2, #0
 800138a:	ea4f 02ca 	mov.w	r2, sl, lsl #3
 800138e:	ea42 7259 	orr.w	r2, r2, r9, lsr #29
 8001392:	ea4f 01c9 	mov.w	r1, r9, lsl #3
 8001396:	4689      	mov	r9, r1
 8001398:	4692      	mov	sl, r2
 800139a:	eb19 0005 	adds.w	r0, r9, r5
 800139e:	eb4a 0106 	adc.w	r1, sl, r6
 80013a2:	687b      	ldr	r3, [r7, #4]
 80013a4:	685b      	ldr	r3, [r3, #4]
 80013a6:	461d      	mov	r5, r3
 80013a8:	f04f 0600 	mov.w	r6, #0
 80013ac:	196b      	adds	r3, r5, r5
 80013ae:	eb46 0406 	adc.w	r4, r6, r6
 80013b2:	461a      	mov	r2, r3
 80013b4:	4623      	mov	r3, r4
 80013b6:	f7fe ff0f 	bl	80001d8 <__aeabi_uldivmod>
 80013ba:	4603      	mov	r3, r0
 80013bc:	460c      	mov	r4, r1
 80013be:	461a      	mov	r2, r3
 80013c0:	4b6a      	ldr	r3, [pc, #424]	; (800156c <UART_SetConfig+0x384>)
 80013c2:	fba3 1302 	umull	r1, r3, r3, r2
 80013c6:	095b      	lsrs	r3, r3, #5
 80013c8:	2164      	movs	r1, #100	; 0x64
 80013ca:	fb01 f303 	mul.w	r3, r1, r3
 80013ce:	1ad3      	subs	r3, r2, r3
 80013d0:	00db      	lsls	r3, r3, #3
 80013d2:	3332      	adds	r3, #50	; 0x32
 80013d4:	4a65      	ldr	r2, [pc, #404]	; (800156c <UART_SetConfig+0x384>)
 80013d6:	fba2 2303 	umull	r2, r3, r2, r3
 80013da:	095b      	lsrs	r3, r3, #5
 80013dc:	f003 0207 	and.w	r2, r3, #7
 80013e0:	687b      	ldr	r3, [r7, #4]
 80013e2:	681b      	ldr	r3, [r3, #0]
 80013e4:	4442      	add	r2, r8
 80013e6:	609a      	str	r2, [r3, #8]
 80013e8:	e26f      	b.n	80018ca <UART_SetConfig+0x6e2>
      huart->Instance->BRR = UART_BRR_SAMPLING8(pclk, huart->Init.BaudRate);
    }
#endif /* USART6 */
    else
    {
      pclk = HAL_RCC_GetPCLK1Freq();
 80013ea:	f7ff fcff 	bl	8000dec <HAL_RCC_GetPCLK1Freq>
 80013ee:	60b8      	str	r0, [r7, #8]
      huart->Instance->BRR = UART_BRR_SAMPLING8(pclk, huart->Init.BaudRate);
 80013f0:	68bb      	ldr	r3, [r7, #8]
 80013f2:	461d      	mov	r5, r3
 80013f4:	f04f 0600 	mov.w	r6, #0
 80013f8:	46a8      	mov	r8, r5
 80013fa:	46b1      	mov	r9, r6
 80013fc:	eb18 0308 	adds.w	r3, r8, r8
 8001400:	eb49 0409 	adc.w	r4, r9, r9
 8001404:	4698      	mov	r8, r3
 8001406:	46a1      	mov	r9, r4
 8001408:	eb18 0805 	adds.w	r8, r8, r5
 800140c:	eb49 0906 	adc.w	r9, r9, r6
 8001410:	f04f 0100 	mov.w	r1, #0
 8001414:	f04f 0200 	mov.w	r2, #0
 8001418:	ea4f 02c9 	mov.w	r2, r9, lsl #3
 800141c:	ea42 7258 	orr.w	r2, r2, r8, lsr #29
 8001420:	ea4f 01c8 	mov.w	r1, r8, lsl #3
 8001424:	4688      	mov	r8, r1
 8001426:	4691      	mov	r9, r2
 8001428:	eb18 0005 	adds.w	r0, r8, r5
 800142c:	eb49 0106 	adc.w	r1, r9, r6
 8001430:	687b      	ldr	r3, [r7, #4]
 8001432:	685b      	ldr	r3, [r3, #4]
 8001434:	461d      	mov	r5, r3
 8001436:	f04f 0600 	mov.w	r6, #0
 800143a:	196b      	adds	r3, r5, r5
 800143c:	eb46 0406 	adc.w	r4, r6, r6
 8001440:	461a      	mov	r2, r3
 8001442:	4623      	mov	r3, r4
 8001444:	f7fe fec8 	bl	80001d8 <__aeabi_uldivmod>
 8001448:	4603      	mov	r3, r0
 800144a:	460c      	mov	r4, r1
 800144c:	461a      	mov	r2, r3
 800144e:	4b47      	ldr	r3, [pc, #284]	; (800156c <UART_SetConfig+0x384>)
 8001450:	fba3 2302 	umull	r2, r3, r3, r2
 8001454:	095b      	lsrs	r3, r3, #5
 8001456:	ea4f 1803 	mov.w	r8, r3, lsl #4
 800145a:	68bb      	ldr	r3, [r7, #8]
 800145c:	461d      	mov	r5, r3
 800145e:	f04f 0600 	mov.w	r6, #0
 8001462:	46a9      	mov	r9, r5
 8001464:	46b2      	mov	sl, r6
 8001466:	eb19 0309 	adds.w	r3, r9, r9
 800146a:	eb4a 040a 	adc.w	r4, sl, sl
 800146e:	4699      	mov	r9, r3
 8001470:	46a2      	mov	sl, r4
 8001472:	eb19 0905 	adds.w	r9, r9, r5
 8001476:	eb4a 0a06 	adc.w	sl, sl, r6
 800147a:	f04f 0100 	mov.w	r1, #0
 800147e:	f04f 0200 	mov.w	r2, #0
 8001482:	ea4f 02ca 	mov.w	r2, sl, lsl #3
 8001486:	ea42 7259 	orr.w	r2, r2, r9, lsr #29
 800148a:	ea4f 01c9 	mov.w	r1, r9, lsl #3
 800148e:	4689      	mov	r9, r1
 8001490:	4692      	mov	sl, r2
 8001492:	eb19 0005 	adds.w	r0, r9, r5
 8001496:	eb4a 0106 	adc.w	r1, sl, r6
 800149a:	687b      	ldr	r3, [r7, #4]
 800149c:	685b      	ldr	r3, [r3, #4]
 800149e:	461d      	mov	r5, r3
 80014a0:	f04f 0600 	mov.w	r6, #0
 80014a4:	196b      	adds	r3, r5, r5
 80014a6:	eb46 0406 	adc.w	r4, r6, r6
 80014aa:	461a      	mov	r2, r3
 80014ac:	4623      	mov	r3, r4
 80014ae:	f7fe fe93 	bl	80001d8 <__aeabi_uldivmod>
 80014b2:	4603      	mov	r3, r0
 80014b4:	460c      	mov	r4, r1
 80014b6:	461a      	mov	r2, r3
 80014b8:	4b2c      	ldr	r3, [pc, #176]	; (800156c <UART_SetConfig+0x384>)
 80014ba:	fba3 1302 	umull	r1, r3, r3, r2
 80014be:	095b      	lsrs	r3, r3, #5
 80014c0:	2164      	movs	r1, #100	; 0x64
 80014c2:	fb01 f303 	mul.w	r3, r1, r3
 80014c6:	1ad3      	subs	r3, r2, r3
 80014c8:	00db      	lsls	r3, r3, #3
 80014ca:	3332      	adds	r3, #50	; 0x32
 80014cc:	4a27      	ldr	r2, [pc, #156]	; (800156c <UART_SetConfig+0x384>)
 80014ce:	fba2 2303 	umull	r2, r3, r2, r3
 80014d2:	095b      	lsrs	r3, r3, #5
 80014d4:	005b      	lsls	r3, r3, #1
 80014d6:	f403 73f8 	and.w	r3, r3, #496	; 0x1f0
 80014da:	4498      	add	r8, r3
 80014dc:	68bb      	ldr	r3, [r7, #8]
 80014de:	461d      	mov	r5, r3
 80014e0:	f04f 0600 	mov.w	r6, #0
 80014e4:	46a9      	mov	r9, r5
 80014e6:	46b2      	mov	sl, r6
 80014e8:	eb19 0309 	adds.w	r3, r9, r9
 80014ec:	eb4a 040a 	adc.w	r4, sl, sl
 80014f0:	4699      	mov	r9, r3
 80014f2:	46a2      	mov	sl, r4
 80014f4:	eb19 0905 	adds.w	r9, r9, r5
 80014f8:	eb4a 0a06 	adc.w	sl, sl, r6
 80014fc:	f04f 0100 	mov.w	r1, #0
 8001500:	f04f 0200 	mov.w	r2, #0
 8001504:	ea4f 02ca 	mov.w	r2, sl, lsl #3
 8001508:	ea42 7259 	orr.w	r2, r2, r9, lsr #29
 800150c:	ea4f 01c9 	mov.w	r1, r9, lsl #3
 8001510:	4689      	mov	r9, r1
 8001512:	4692      	mov	sl, r2
 8001514:	eb19 0005 	adds.w	r0, r9, r5
 8001518:	eb4a 0106 	adc.w	r1, sl, r6
 800151c:	687b      	ldr	r3, [r7, #4]
 800151e:	685b      	ldr	r3, [r3, #4]
 8001520:	461d      	mov	r5, r3
 8001522:	f04f 0600 	mov.w	r6, #0
 8001526:	196b      	adds	r3, r5, r5
 8001528:	eb46 0406 	adc.w	r4, r6, r6
 800152c:	461a      	mov	r2, r3
 800152e:	4623      	mov	r3, r4
 8001530:	f7fe fe52 	bl	80001d8 <__aeabi_uldivmod>
 8001534:	4603      	mov	r3, r0
 8001536:	460c      	mov	r4, r1
 8001538:	461a      	mov	r2, r3
 800153a:	4b0c      	ldr	r3, [pc, #48]	; (800156c <UART_SetConfig+0x384>)
 800153c:	fba3 1302 	umull	r1, r3, r3, r2
 8001540:	095b      	lsrs	r3, r3, #5
 8001542:	2164      	movs	r1, #100	; 0x64
 8001544:	fb01 f303 	mul.w	r3, r1, r3
 8001548:	1ad3      	subs	r3, r2, r3
 800154a:	00db      	lsls	r3, r3, #3
 800154c:	3332      	adds	r3, #50	; 0x32
 800154e:	4a07      	ldr	r2, [pc, #28]	; (800156c <UART_SetConfig+0x384>)
 8001550:	fba2 2303 	umull	r2, r3, r2, r3
 8001554:	095b      	lsrs	r3, r3, #5
 8001556:	f003 0207 	and.w	r2, r3, #7
 800155a:	687b      	ldr	r3, [r7, #4]
 800155c:	681b      	ldr	r3, [r3, #0]
 800155e:	4442      	add	r2, r8
 8001560:	609a      	str	r2, [r3, #8]
    {
      pclk = HAL_RCC_GetPCLK1Freq();
      huart->Instance->BRR = UART_BRR_SAMPLING16(pclk, huart->Init.BaudRate);
    }
  }
}
 8001562:	e1b2      	b.n	80018ca <UART_SetConfig+0x6e2>
 8001564:	40011000 	.word	0x40011000
 8001568:	40011400 	.word	0x40011400
 800156c:	51eb851f 	.word	0x51eb851f
    if ((huart->Instance == USART1) || (huart->Instance == USART6))
 8001570:	687b      	ldr	r3, [r7, #4]
 8001572:	681b      	ldr	r3, [r3, #0]
 8001574:	4ad7      	ldr	r2, [pc, #860]	; (80018d4 <UART_SetConfig+0x6ec>)
 8001576:	4293      	cmp	r3, r2
 8001578:	d005      	beq.n	8001586 <UART_SetConfig+0x39e>
 800157a:	687b      	ldr	r3, [r7, #4]
 800157c:	681b      	ldr	r3, [r3, #0]
 800157e:	4ad6      	ldr	r2, [pc, #856]	; (80018d8 <UART_SetConfig+0x6f0>)
 8001580:	4293      	cmp	r3, r2
 8001582:	f040 80d1 	bne.w	8001728 <UART_SetConfig+0x540>
      pclk = HAL_RCC_GetPCLK2Freq();
 8001586:	f7ff fc45 	bl	8000e14 <HAL_RCC_GetPCLK2Freq>
 800158a:	60b8      	str	r0, [r7, #8]
      huart->Instance->BRR = UART_BRR_SAMPLING16(pclk, huart->Init.BaudRate);
 800158c:	68bb      	ldr	r3, [r7, #8]
 800158e:	469a      	mov	sl, r3
 8001590:	f04f 0b00 	mov.w	fp, #0
 8001594:	46d0      	mov	r8, sl
 8001596:	46d9      	mov	r9, fp
 8001598:	eb18 0308 	adds.w	r3, r8, r8
 800159c:	eb49 0409 	adc.w	r4, r9, r9
 80015a0:	4698      	mov	r8, r3
 80015a2:	46a1      	mov	r9, r4
 80015a4:	eb18 080a 	adds.w	r8, r8, sl
 80015a8:	eb49 090b 	adc.w	r9, r9, fp
 80015ac:	f04f 0100 	mov.w	r1, #0
 80015b0:	f04f 0200 	mov.w	r2, #0
 80015b4:	ea4f 02c9 	mov.w	r2, r9, lsl #3
 80015b8:	ea42 7258 	orr.w	r2, r2, r8, lsr #29
 80015bc:	ea4f 01c8 	mov.w	r1, r8, lsl #3
 80015c0:	4688      	mov	r8, r1
 80015c2:	4691      	mov	r9, r2
 80015c4:	eb1a 0508 	adds.w	r5, sl, r8
 80015c8:	eb4b 0609 	adc.w	r6, fp, r9
 80015cc:	687b      	ldr	r3, [r7, #4]
 80015ce:	685b      	ldr	r3, [r3, #4]
 80015d0:	4619      	mov	r1, r3
 80015d2:	f04f 0200 	mov.w	r2, #0
 80015d6:	f04f 0300 	mov.w	r3, #0
 80015da:	f04f 0400 	mov.w	r4, #0
 80015de:	0094      	lsls	r4, r2, #2
 80015e0:	ea44 7491 	orr.w	r4, r4, r1, lsr #30
 80015e4:	008b      	lsls	r3, r1, #2
 80015e6:	461a      	mov	r2, r3
 80015e8:	4623      	mov	r3, r4
 80015ea:	4628      	mov	r0, r5
 80015ec:	4631      	mov	r1, r6
 80015ee:	f7fe fdf3 	bl	80001d8 <__aeabi_uldivmod>
 80015f2:	4603      	mov	r3, r0
 80015f4:	460c      	mov	r4, r1
 80015f6:	461a      	mov	r2, r3
 80015f8:	4bb8      	ldr	r3, [pc, #736]	; (80018dc <UART_SetConfig+0x6f4>)
 80015fa:	fba3 2302 	umull	r2, r3, r3, r2
 80015fe:	095b      	lsrs	r3, r3, #5
 8001600:	ea4f 1803 	mov.w	r8, r3, lsl #4
 8001604:	68bb      	ldr	r3, [r7, #8]
 8001606:	469b      	mov	fp, r3
 8001608:	f04f 0c00 	mov.w	ip, #0
 800160c:	46d9      	mov	r9, fp
 800160e:	46e2      	mov	sl, ip
 8001610:	eb19 0309 	adds.w	r3, r9, r9
 8001614:	eb4a 040a 	adc.w	r4, sl, sl
 8001618:	4699      	mov	r9, r3
 800161a:	46a2      	mov	sl, r4
 800161c:	eb19 090b 	adds.w	r9, r9, fp
 8001620:	eb4a 0a0c 	adc.w	sl, sl, ip
 8001624:	f04f 0100 	mov.w	r1, #0
 8001628:	f04f 0200 	mov.w	r2, #0
 800162c:	ea4f 02ca 	mov.w	r2, sl, lsl #3
 8001630:	ea42 7259 	orr.w	r2, r2, r9, lsr #29
 8001634:	ea4f 01c9 	mov.w	r1, r9, lsl #3
 8001638:	4689      	mov	r9, r1
 800163a:	4692      	mov	sl, r2
 800163c:	eb1b 0509 	adds.w	r5, fp, r9
 8001640:	eb4c 060a 	adc.w	r6, ip, sl
 8001644:	687b      	ldr	r3, [r7, #4]
 8001646:	685b      	ldr	r3, [r3, #4]
 8001648:	4619      	mov	r1, r3
 800164a:	f04f 0200 	mov.w	r2, #0
 800164e:	f04f 0300 	mov.w	r3, #0
 8001652:	f04f 0400 	mov.w	r4, #0
 8001656:	0094      	lsls	r4, r2, #2
 8001658:	ea44 7491 	orr.w	r4, r4, r1, lsr #30
 800165c:	008b      	lsls	r3, r1, #2
 800165e:	461a      	mov	r2, r3
 8001660:	4623      	mov	r3, r4
 8001662:	4628      	mov	r0, r5
 8001664:	4631      	mov	r1, r6
 8001666:	f7fe fdb7 	bl	80001d8 <__aeabi_uldivmod>
 800166a:	4603      	mov	r3, r0
 800166c:	460c      	mov	r4, r1
 800166e:	461a      	mov	r2, r3
 8001670:	4b9a      	ldr	r3, [pc, #616]	; (80018dc <UART_SetConfig+0x6f4>)
 8001672:	fba3 1302 	umull	r1, r3, r3, r2
 8001676:	095b      	lsrs	r3, r3, #5
 8001678:	2164      	movs	r1, #100	; 0x64
 800167a:	fb01 f303 	mul.w	r3, r1, r3
 800167e:	1ad3      	subs	r3, r2, r3
 8001680:	011b      	lsls	r3, r3, #4
 8001682:	3332      	adds	r3, #50	; 0x32
 8001684:	4a95      	ldr	r2, [pc, #596]	; (80018dc <UART_SetConfig+0x6f4>)
 8001686:	fba2 2303 	umull	r2, r3, r2, r3
 800168a:	095b      	lsrs	r3, r3, #5
 800168c:	f003 03f0 	and.w	r3, r3, #240	; 0xf0
 8001690:	4498      	add	r8, r3
 8001692:	68bb      	ldr	r3, [r7, #8]
 8001694:	469b      	mov	fp, r3
 8001696:	f04f 0c00 	mov.w	ip, #0
 800169a:	46d9      	mov	r9, fp
 800169c:	46e2      	mov	sl, ip
 800169e:	eb19 0309 	adds.w	r3, r9, r9
 80016a2:	eb4a 040a 	adc.w	r4, sl, sl
 80016a6:	4699      	mov	r9, r3
 80016a8:	46a2      	mov	sl, r4
 80016aa:	eb19 090b 	adds.w	r9, r9, fp
 80016ae:	eb4a 0a0c 	adc.w	sl, sl, ip
 80016b2:	f04f 0100 	mov.w	r1, #0
 80016b6:	f04f 0200 	mov.w	r2, #0
 80016ba:	ea4f 02ca 	mov.w	r2, sl, lsl #3
 80016be:	ea42 7259 	orr.w	r2, r2, r9, lsr #29
 80016c2:	ea4f 01c9 	mov.w	r1, r9, lsl #3
 80016c6:	4689      	mov	r9, r1
 80016c8:	4692      	mov	sl, r2
 80016ca:	eb1b 0509 	adds.w	r5, fp, r9
 80016ce:	eb4c 060a 	adc.w	r6, ip, sl
 80016d2:	687b      	ldr	r3, [r7, #4]
 80016d4:	685b      	ldr	r3, [r3, #4]
 80016d6:	4619      	mov	r1, r3
 80016d8:	f04f 0200 	mov.w	r2, #0
 80016dc:	f04f 0300 	mov.w	r3, #0
 80016e0:	f04f 0400 	mov.w	r4, #0
 80016e4:	0094      	lsls	r4, r2, #2
 80016e6:	ea44 7491 	orr.w	r4, r4, r1, lsr #30
 80016ea:	008b      	lsls	r3, r1, #2
 80016ec:	461a      	mov	r2, r3
 80016ee:	4623      	mov	r3, r4
 80016f0:	4628      	mov	r0, r5
 80016f2:	4631      	mov	r1, r6
 80016f4:	f7fe fd70 	bl	80001d8 <__aeabi_uldivmod>
 80016f8:	4603      	mov	r3, r0
 80016fa:	460c      	mov	r4, r1
 80016fc:	461a      	mov	r2, r3
 80016fe:	4b77      	ldr	r3, [pc, #476]	; (80018dc <UART_SetConfig+0x6f4>)
 8001700:	fba3 1302 	umull	r1, r3, r3, r2
 8001704:	095b      	lsrs	r3, r3, #5
 8001706:	2164      	movs	r1, #100	; 0x64
 8001708:	fb01 f303 	mul.w	r3, r1, r3
 800170c:	1ad3      	subs	r3, r2, r3
 800170e:	011b      	lsls	r3, r3, #4
 8001710:	3332      	adds	r3, #50	; 0x32
 8001712:	4a72      	ldr	r2, [pc, #456]	; (80018dc <UART_SetConfig+0x6f4>)
 8001714:	fba2 2303 	umull	r2, r3, r2, r3
 8001718:	095b      	lsrs	r3, r3, #5
 800171a:	f003 020f 	and.w	r2, r3, #15
 800171e:	687b      	ldr	r3, [r7, #4]
 8001720:	681b      	ldr	r3, [r3, #0]
 8001722:	4442      	add	r2, r8
 8001724:	609a      	str	r2, [r3, #8]
 8001726:	e0d0      	b.n	80018ca <UART_SetConfig+0x6e2>
      pclk = HAL_RCC_GetPCLK1Freq();
 8001728:	f7ff fb60 	bl	8000dec <HAL_RCC_GetPCLK1Freq>
 800172c:	60b8      	str	r0, [r7, #8]
      huart->Instance->BRR = UART_BRR_SAMPLING16(pclk, huart->Init.BaudRate);
 800172e:	68bb      	ldr	r3, [r7, #8]
 8001730:	469a      	mov	sl, r3
 8001732:	f04f 0b00 	mov.w	fp, #0
 8001736:	46d0      	mov	r8, sl
 8001738:	46d9      	mov	r9, fp
 800173a:	eb18 0308 	adds.w	r3, r8, r8
 800173e:	eb49 0409 	adc.w	r4, r9, r9
 8001742:	4698      	mov	r8, r3
 8001744:	46a1      	mov	r9, r4
 8001746:	eb18 080a 	adds.w	r8, r8, sl
 800174a:	eb49 090b 	adc.w	r9, r9, fp
 800174e:	f04f 0100 	mov.w	r1, #0
 8001752:	f04f 0200 	mov.w	r2, #0
 8001756:	ea4f 02c9 	mov.w	r2, r9, lsl #3
 800175a:	ea42 7258 	orr.w	r2, r2, r8, lsr #29
 800175e:	ea4f 01c8 	mov.w	r1, r8, lsl #3
 8001762:	4688      	mov	r8, r1
 8001764:	4691      	mov	r9, r2
 8001766:	eb1a 0508 	adds.w	r5, sl, r8
 800176a:	eb4b 0609 	adc.w	r6, fp, r9
 800176e:	687b      	ldr	r3, [r7, #4]
 8001770:	685b      	ldr	r3, [r3, #4]
 8001772:	4619      	mov	r1, r3
 8001774:	f04f 0200 	mov.w	r2, #0
 8001778:	f04f 0300 	mov.w	r3, #0
 800177c:	f04f 0400 	mov.w	r4, #0
 8001780:	0094      	lsls	r4, r2, #2
 8001782:	ea44 7491 	orr.w	r4, r4, r1, lsr #30
 8001786:	008b      	lsls	r3, r1, #2
 8001788:	461a      	mov	r2, r3
 800178a:	4623      	mov	r3, r4
 800178c:	4628      	mov	r0, r5
 800178e:	4631      	mov	r1, r6
 8001790:	f7fe fd22 	bl	80001d8 <__aeabi_uldivmod>
 8001794:	4603      	mov	r3, r0
 8001796:	460c      	mov	r4, r1
 8001798:	461a      	mov	r2, r3
 800179a:	4b50      	ldr	r3, [pc, #320]	; (80018dc <UART_SetConfig+0x6f4>)
 800179c:	fba3 2302 	umull	r2, r3, r3, r2
 80017a0:	095b      	lsrs	r3, r3, #5
 80017a2:	ea4f 1803 	mov.w	r8, r3, lsl #4
 80017a6:	68bb      	ldr	r3, [r7, #8]
 80017a8:	469b      	mov	fp, r3
 80017aa:	f04f 0c00 	mov.w	ip, #0
 80017ae:	46d9      	mov	r9, fp
 80017b0:	46e2      	mov	sl, ip
 80017b2:	eb19 0309 	adds.w	r3, r9, r9
 80017b6:	eb4a 040a 	adc.w	r4, sl, sl
 80017ba:	4699      	mov	r9, r3
 80017bc:	46a2      	mov	sl, r4
 80017be:	eb19 090b 	adds.w	r9, r9, fp
 80017c2:	eb4a 0a0c 	adc.w	sl, sl, ip
 80017c6:	f04f 0100 	mov.w	r1, #0
 80017ca:	f04f 0200 	mov.w	r2, #0
 80017ce:	ea4f 02ca 	mov.w	r2, sl, lsl #3
 80017d2:	ea42 7259 	orr.w	r2, r2, r9, lsr #29
 80017d6:	ea4f 01c9 	mov.w	r1, r9, lsl #3
 80017da:	4689      	mov	r9, r1
 80017dc:	4692      	mov	sl, r2
 80017de:	eb1b 0509 	adds.w	r5, fp, r9
 80017e2:	eb4c 060a 	adc.w	r6, ip, sl
 80017e6:	687b      	ldr	r3, [r7, #4]
 80017e8:	685b      	ldr	r3, [r3, #4]
 80017ea:	4619      	mov	r1, r3
 80017ec:	f04f 0200 	mov.w	r2, #0
 80017f0:	f04f 0300 	mov.w	r3, #0
 80017f4:	f04f 0400 	mov.w	r4, #0
 80017f8:	0094      	lsls	r4, r2, #2
 80017fa:	ea44 7491 	orr.w	r4, r4, r1, lsr #30
 80017fe:	008b      	lsls	r3, r1, #2
 8001800:	461a      	mov	r2, r3
 8001802:	4623      	mov	r3, r4
 8001804:	4628      	mov	r0, r5
 8001806:	4631      	mov	r1, r6
 8001808:	f7fe fce6 	bl	80001d8 <__aeabi_uldivmod>
 800180c:	4603      	mov	r3, r0
 800180e:	460c      	mov	r4, r1
 8001810:	461a      	mov	r2, r3
 8001812:	4b32      	ldr	r3, [pc, #200]	; (80018dc <UART_SetConfig+0x6f4>)
 8001814:	fba3 1302 	umull	r1, r3, r3, r2
 8001818:	095b      	lsrs	r3, r3, #5
 800181a:	2164      	movs	r1, #100	; 0x64
 800181c:	fb01 f303 	mul.w	r3, r1, r3
 8001820:	1ad3      	subs	r3, r2, r3
 8001822:	011b      	lsls	r3, r3, #4
 8001824:	3332      	adds	r3, #50	; 0x32
 8001826:	4a2d      	ldr	r2, [pc, #180]	; (80018dc <UART_SetConfig+0x6f4>)
 8001828:	fba2 2303 	umull	r2, r3, r2, r3
 800182c:	095b      	lsrs	r3, r3, #5
 800182e:	f003 03f0 	and.w	r3, r3, #240	; 0xf0
 8001832:	4498      	add	r8, r3
 8001834:	68bb      	ldr	r3, [r7, #8]
 8001836:	469b      	mov	fp, r3
 8001838:	f04f 0c00 	mov.w	ip, #0
 800183c:	46d9      	mov	r9, fp
 800183e:	46e2      	mov	sl, ip
 8001840:	eb19 0309 	adds.w	r3, r9, r9
 8001844:	eb4a 040a 	adc.w	r4, sl, sl
 8001848:	4699      	mov	r9, r3
 800184a:	46a2      	mov	sl, r4
 800184c:	eb19 090b 	adds.w	r9, r9, fp
 8001850:	eb4a 0a0c 	adc.w	sl, sl, ip
 8001854:	f04f 0100 	mov.w	r1, #0
 8001858:	f04f 0200 	mov.w	r2, #0
 800185c:	ea4f 02ca 	mov.w	r2, sl, lsl #3
 8001860:	ea42 7259 	orr.w	r2, r2, r9, lsr #29
 8001864:	ea4f 01c9 	mov.w	r1, r9, lsl #3
 8001868:	4689      	mov	r9, r1
 800186a:	4692      	mov	sl, r2
 800186c:	eb1b 0509 	adds.w	r5, fp, r9
 8001870:	eb4c 060a 	adc.w	r6, ip, sl
 8001874:	687b      	ldr	r3, [r7, #4]
 8001876:	685b      	ldr	r3, [r3, #4]
 8001878:	4619      	mov	r1, r3
 800187a:	f04f 0200 	mov.w	r2, #0
 800187e:	f04f 0300 	mov.w	r3, #0
 8001882:	f04f 0400 	mov.w	r4, #0
 8001886:	0094      	lsls	r4, r2, #2
 8001888:	ea44 7491 	orr.w	r4, r4, r1, lsr #30
 800188c:	008b      	lsls	r3, r1, #2
 800188e:	461a      	mov	r2, r3
 8001890:	4623      	mov	r3, r4
 8001892:	4628      	mov	r0, r5
 8001894:	4631      	mov	r1, r6
 8001896:	f7fe fc9f 	bl	80001d8 <__aeabi_uldivmod>
 800189a:	4603      	mov	r3, r0
 800189c:	460c      	mov	r4, r1
 800189e:	461a      	mov	r2, r3
 80018a0:	4b0e      	ldr	r3, [pc, #56]	; (80018dc <UART_SetConfig+0x6f4>)
 80018a2:	fba3 1302 	umull	r1, r3, r3, r2
 80018a6:	095b      	lsrs	r3, r3, #5
 80018a8:	2164      	movs	r1, #100	; 0x64
 80018aa:	fb01 f303 	mul.w	r3, r1, r3
 80018ae:	1ad3      	subs	r3, r2, r3
 80018b0:	011b      	lsls	r3, r3, #4
 80018b2:	3332      	adds	r3, #50	; 0x32
 80018b4:	4a09      	ldr	r2, [pc, #36]	; (80018dc <UART_SetConfig+0x6f4>)
 80018b6:	fba2 2303 	umull	r2, r3, r2, r3
 80018ba:	095b      	lsrs	r3, r3, #5
 80018bc:	f003 020f 	and.w	r2, r3, #15
 80018c0:	687b      	ldr	r3, [r7, #4]
 80018c2:	681b      	ldr	r3, [r3, #0]
 80018c4:	4442      	add	r2, r8
 80018c6:	609a      	str	r2, [r3, #8]
}
 80018c8:	e7ff      	b.n	80018ca <UART_SetConfig+0x6e2>
 80018ca:	bf00      	nop
 80018cc:	3714      	adds	r7, #20
 80018ce:	46bd      	mov	sp, r7
 80018d0:	e8bd 8ff0 	ldmia.w	sp!, {r4, r5, r6, r7, r8, r9, sl, fp, pc}
 80018d4:	40011000 	.word	0x40011000
 80018d8:	40011400 	.word	0x40011400
 80018dc:	51eb851f 	.word	0x51eb851f

080018e0 <__libc_init_array>:
 80018e0:	b570      	push	{r4, r5, r6, lr}
 80018e2:	4e0d      	ldr	r6, [pc, #52]	; (8001918 <__libc_init_array+0x38>)
 80018e4:	4c0d      	ldr	r4, [pc, #52]	; (800191c <__libc_init_array+0x3c>)
 80018e6:	1ba4      	subs	r4, r4, r6
 80018e8:	10a4      	asrs	r4, r4, #2
 80018ea:	2500      	movs	r5, #0
 80018ec:	42a5      	cmp	r5, r4
 80018ee:	d109      	bne.n	8001904 <__libc_init_array+0x24>
 80018f0:	4e0b      	ldr	r6, [pc, #44]	; (8001920 <__libc_init_array+0x40>)
 80018f2:	4c0c      	ldr	r4, [pc, #48]	; (8001924 <__libc_init_array+0x44>)
 80018f4:	f000 f818 	bl	8001928 <_init>
 80018f8:	1ba4      	subs	r4, r4, r6
 80018fa:	10a4      	asrs	r4, r4, #2
 80018fc:	2500      	movs	r5, #0
 80018fe:	42a5      	cmp	r5, r4
 8001900:	d105      	bne.n	800190e <__libc_init_array+0x2e>
 8001902:	bd70      	pop	{r4, r5, r6, pc}
 8001904:	f856 3025 	ldr.w	r3, [r6, r5, lsl #2]
 8001908:	4798      	blx	r3
 800190a:	3501      	adds	r5, #1
 800190c:	e7ee      	b.n	80018ec <__libc_init_array+0xc>
 800190e:	f856 3025 	ldr.w	r3, [r6, r5, lsl #2]
 8001912:	4798      	blx	r3
 8001914:	3501      	adds	r5, #1
 8001916:	e7f2      	b.n	80018fe <__libc_init_array+0x1e>
 8001918:	08001970 	.word	0x08001970
 800191c:	08001970 	.word	0x08001970
 8001920:	08001970 	.word	0x08001970
 8001924:	08001974 	.word	0x08001974

08001928 <_init>:
 8001928:	b5f8      	push	{r3, r4, r5, r6, r7, lr}
 800192a:	bf00      	nop
 800192c:	bcf8      	pop	{r3, r4, r5, r6, r7}
 800192e:	bc08      	pop	{r3}
 8001930:	469e      	mov	lr, r3
 8001932:	4770      	bx	lr

08001934 <_fini>:
 8001934:	b5f8      	push	{r3, r4, r5, r6, r7, lr}
 8001936:	bf00      	nop
 8001938:	bcf8      	pop	{r3, r4, r5, r6, r7}
 800193a:	bc08      	pop	{r3}
 800193c:	469e      	mov	lr, r3
 800193e:	4770      	bx	lr
