
006_timer_basic_100ms_led2_intrupt.elf:     file format elf32-littlearm

Sections:
Idx Name          Size      VMA       LMA       File off  Algn
  0 .isr_vector   00000188  08000000  08000000  00010000  2**0
                  CONTENTS, ALLOC, LOAD, READONLY, DATA
  1 .text         00000b10  08000188  08000188  00010188  2**2
                  CONTENTS, ALLOC, LOAD, READONLY, CODE
  2 .rodata       00000000  08000c98  08000c98  0002000c  2**0
                  CONTENTS, ALLOC, LOAD, DATA
  3 .ARM.extab    00000000  08000c98  08000c98  0002000c  2**0
                  CONTENTS
  4 .ARM          00000000  08000c98  08000c98  0002000c  2**0
                  CONTENTS
  5 .preinit_array 00000000  08000c98  08000c98  0002000c  2**0
                  CONTENTS, ALLOC, LOAD, DATA
  6 .init_array   00000004  08000c98  08000c98  00010c98  2**2
                  CONTENTS, ALLOC, LOAD, DATA
  7 .fini_array   00000004  08000c9c  08000c9c  00010c9c  2**2
                  CONTENTS, ALLOC, LOAD, DATA
  8 .data         0000000c  20000000  08000ca0  00020000  2**2
                  CONTENTS, ALLOC, LOAD, DATA
  9 .bss          00000060  2000000c  08000cac  0002000c  2**2
                  ALLOC
 10 ._user_heap_stack 00000604  2000006c  08000cac  0002006c  2**0
                  ALLOC
 11 .ARM.attributes 00000030  00000000  00000000  0002000c  2**0
                  CONTENTS, READONLY
 12 .debug_info   00006882  00000000  00000000  0002003c  2**0
                  CONTENTS, READONLY, DEBUGGING
 13 .debug_abbrev 00000e53  00000000  00000000  000268be  2**0
                  CONTENTS, READONLY, DEBUGGING
 14 .debug_aranges 000006e8  00000000  00000000  00027718  2**3
                  CONTENTS, READONLY, DEBUGGING
 15 .debug_ranges 00000660  00000000  00000000  00027e00  2**3
                  CONTENTS, READONLY, DEBUGGING
 16 .debug_macro  00020ef2  00000000  00000000  00028460  2**0
                  CONTENTS, READONLY, DEBUGGING
 17 .debug_line   0000570a  00000000  00000000  00049352  2**0
                  CONTENTS, READONLY, DEBUGGING
 18 .debug_str    000cb64a  00000000  00000000  0004ea5c  2**0
                  CONTENTS, READONLY, DEBUGGING
 19 .comment      0000007b  00000000  00000000  0011a0a6  2**0
                  CONTENTS, READONLY
 20 .debug_frame  00001c0c  00000000  00000000  0011a124  2**2
                  CONTENTS, READONLY, DEBUGGING

Disassembly of section .text:

08000188 <__do_global_dtors_aux>:
 8000188:	b510      	push	{r4, lr}
 800018a:	4c05      	ldr	r4, [pc, #20]	; (80001a0 <__do_global_dtors_aux+0x18>)
 800018c:	7823      	ldrb	r3, [r4, #0]
 800018e:	b933      	cbnz	r3, 800019e <__do_global_dtors_aux+0x16>
 8000190:	4b04      	ldr	r3, [pc, #16]	; (80001a4 <__do_global_dtors_aux+0x1c>)
 8000192:	b113      	cbz	r3, 800019a <__do_global_dtors_aux+0x12>
 8000194:	4804      	ldr	r0, [pc, #16]	; (80001a8 <__do_global_dtors_aux+0x20>)
 8000196:	f3af 8000 	nop.w
 800019a:	2301      	movs	r3, #1
 800019c:	7023      	strb	r3, [r4, #0]
 800019e:	bd10      	pop	{r4, pc}
 80001a0:	2000000c 	.word	0x2000000c
 80001a4:	00000000 	.word	0x00000000
 80001a8:	08000c80 	.word	0x08000c80

080001ac <frame_dummy>:
 80001ac:	b508      	push	{r3, lr}
 80001ae:	4b03      	ldr	r3, [pc, #12]	; (80001bc <frame_dummy+0x10>)
 80001b0:	b11b      	cbz	r3, 80001ba <frame_dummy+0xe>
 80001b2:	4903      	ldr	r1, [pc, #12]	; (80001c0 <frame_dummy+0x14>)
 80001b4:	4803      	ldr	r0, [pc, #12]	; (80001c4 <frame_dummy+0x18>)
 80001b6:	f3af 8000 	nop.w
 80001ba:	bd08      	pop	{r3, pc}
 80001bc:	00000000 	.word	0x00000000
 80001c0:	20000010 	.word	0x20000010
 80001c4:	08000c80 	.word	0x08000c80

080001c8 <SysTick_Handler>:
#include "main.h"



void SysTick_Handler (void)
{
 80001c8:	b580      	push	{r7, lr}
 80001ca:	af00      	add	r7, sp, #0
	HAL_IncTick();
 80001cc:	f000 f95e 	bl	800048c <HAL_IncTick>
	HAL_SYSTICK_IRQHandler();
 80001d0:	f000 fa81 	bl	80006d6 <HAL_SYSTICK_IRQHandler>
}
 80001d4:	bf00      	nop
 80001d6:	bd80      	pop	{r7, pc}

080001d8 <main>:




int main (void)
{
 80001d8:	b580      	push	{r7, lr}
 80001da:	af00      	add	r7, sp, #0



    HAL_Init();
 80001dc:	f000 f904 	bl	80003e8 <HAL_Init>
    SystemClock_Config();
 80001e0:	f000 f81e 	bl	8000220 <SystemClock_Config>
    GPIO_inti();
 80001e4:	f000 f824 	bl	8000230 <GPIO_inti>

    TIMER6_Init();
 80001e8:	f000 f84e 	bl	8000288 <TIMER6_Init>

    //lets start timer
    HAL_TIM_Base_Start(&htimer6);
 80001ec:	4809      	ldr	r0, [pc, #36]	; (8000214 <main+0x3c>)
 80001ee:	f000 fc5f 	bl	8000ab0 <HAL_TIM_Base_Start>

    while(1)
    {
    	while (!(TIM6->SR & TIM_SR_UIF));
 80001f2:	bf00      	nop
 80001f4:	4b08      	ldr	r3, [pc, #32]	; (8000218 <main+0x40>)
 80001f6:	691b      	ldr	r3, [r3, #16]
 80001f8:	f003 0301 	and.w	r3, r3, #1
 80001fc:	2b00      	cmp	r3, #0
 80001fe:	d0f9      	beq.n	80001f4 <main+0x1c>
    	TIM6->SR =0;
 8000200:	4b05      	ldr	r3, [pc, #20]	; (8000218 <main+0x40>)
 8000202:	2200      	movs	r2, #0
 8000204:	611a      	str	r2, [r3, #16]
    	HAL_GPIO_TogglePin(GPIOD, GPIO_PIN_12);
 8000206:	f44f 5180 	mov.w	r1, #4096	; 0x1000
 800020a:	4804      	ldr	r0, [pc, #16]	; (800021c <main+0x44>)
 800020c:	f000 fc0a 	bl	8000a24 <HAL_GPIO_TogglePin>
    	while (!(TIM6->SR & TIM_SR_UIF));
 8000210:	e7ef      	b.n	80001f2 <main+0x1a>
 8000212:	bf00      	nop
 8000214:	20000028 	.word	0x20000028
 8000218:	40001000 	.word	0x40001000
 800021c:	40020c00 	.word	0x40020c00

08000220 <SystemClock_Config>:
	 return 0;
}


void SystemClock_Config()
{
 8000220:	b480      	push	{r7}
 8000222:	af00      	add	r7, sp, #0
 //we use by default clokc internal rc osc
}
 8000224:	bf00      	nop
 8000226:	46bd      	mov	sp, r7
 8000228:	f85d 7b04 	ldr.w	r7, [sp], #4
 800022c:	4770      	bx	lr
	...

08000230 <GPIO_inti>:


void GPIO_inti()
{
 8000230:	b580      	push	{r7, lr}
 8000232:	b086      	sub	sp, #24
 8000234:	af00      	add	r7, sp, #0
	__HAL_RCC_GPIOD_CLK_ENABLE();
 8000236:	2300      	movs	r3, #0
 8000238:	603b      	str	r3, [r7, #0]
 800023a:	4b0f      	ldr	r3, [pc, #60]	; (8000278 <GPIO_inti+0x48>)
 800023c:	6b1b      	ldr	r3, [r3, #48]	; 0x30
 800023e:	4a0e      	ldr	r2, [pc, #56]	; (8000278 <GPIO_inti+0x48>)
 8000240:	f043 0308 	orr.w	r3, r3, #8
 8000244:	6313      	str	r3, [r2, #48]	; 0x30
 8000246:	4b0c      	ldr	r3, [pc, #48]	; (8000278 <GPIO_inti+0x48>)
 8000248:	6b1b      	ldr	r3, [r3, #48]	; 0x30
 800024a:	f003 0308 	and.w	r3, r3, #8
 800024e:	603b      	str	r3, [r7, #0]
 8000250:	683b      	ldr	r3, [r7, #0]
	GPIO_InitTypeDef ledgpio;
	ledgpio.Mode =GPIO_MODE_OUTPUT_PP;
 8000252:	2301      	movs	r3, #1
 8000254:	60bb      	str	r3, [r7, #8]
	ledgpio.Pin  =GPIO_PIN_12;
 8000256:	f44f 5380 	mov.w	r3, #4096	; 0x1000
 800025a:	607b      	str	r3, [r7, #4]
	ledgpio.Speed=GPIO_SPEED_FREQ_HIGH;
 800025c:	2302      	movs	r3, #2
 800025e:	613b      	str	r3, [r7, #16]
	ledgpio.Pull=GPIO_NOPULL;
 8000260:	2300      	movs	r3, #0
 8000262:	60fb      	str	r3, [r7, #12]

	HAL_GPIO_Init(GPIOD, &ledgpio);
 8000264:	1d3b      	adds	r3, r7, #4
 8000266:	4619      	mov	r1, r3
 8000268:	4804      	ldr	r0, [pc, #16]	; (800027c <GPIO_inti+0x4c>)
 800026a:	f000 fa41 	bl	80006f0 <HAL_GPIO_Init>
}
 800026e:	bf00      	nop
 8000270:	3718      	adds	r7, #24
 8000272:	46bd      	mov	sp, r7
 8000274:	bd80      	pop	{r7, pc}
 8000276:	bf00      	nop
 8000278:	40023800 	.word	0x40023800
 800027c:	40020c00 	.word	0x40020c00

08000280 <Error_handler>:

void Error_handler()
{
 8000280:	b480      	push	{r7}
 8000282:	af00      	add	r7, sp, #0
	while(1);
 8000284:	e7fe      	b.n	8000284 <Error_handler+0x4>
	...

08000288 <TIMER6_Init>:
}

void TIMER6_Init()
{
 8000288:	b580      	push	{r7, lr}
 800028a:	af00      	add	r7, sp, #0
	htimer6.Instance       = TIM6;
 800028c:	4b09      	ldr	r3, [pc, #36]	; (80002b4 <TIMER6_Init+0x2c>)
 800028e:	4a0a      	ldr	r2, [pc, #40]	; (80002b8 <TIMER6_Init+0x30>)
 8000290:	601a      	str	r2, [r3, #0]
	htimer6.Init.Prescaler = 24;
 8000292:	4b08      	ldr	r3, [pc, #32]	; (80002b4 <TIMER6_Init+0x2c>)
 8000294:	2218      	movs	r2, #24
 8000296:	605a      	str	r2, [r3, #4]
	htimer6.Init.Period    = 64000 -1;
 8000298:	4b06      	ldr	r3, [pc, #24]	; (80002b4 <TIMER6_Init+0x2c>)
 800029a:	f64f 12ff 	movw	r2, #63999	; 0xf9ff
 800029e:	60da      	str	r2, [r3, #12]

	if (HAL_TIM_Base_Init(&htimer6)!=HAL_OK)
 80002a0:	4804      	ldr	r0, [pc, #16]	; (80002b4 <TIMER6_Init+0x2c>)
 80002a2:	f000 fbda 	bl	8000a5a <HAL_TIM_Base_Init>
 80002a6:	4603      	mov	r3, r0
 80002a8:	2b00      	cmp	r3, #0
 80002aa:	d001      	beq.n	80002b0 <TIMER6_Init+0x28>
	{
		Error_handler();
 80002ac:	f7ff ffe8 	bl	8000280 <Error_handler>
	}
}
 80002b0:	bf00      	nop
 80002b2:	bd80      	pop	{r7, pc}
 80002b4:	20000028 	.word	0x20000028
 80002b8:	40001000 	.word	0x40001000

080002bc <TIM6_DAC_IRQHandler>:


void TIM6_DAC_IRQHandler ()
{
 80002bc:	b480      	push	{r7}
 80002be:	af00      	add	r7, sp, #0
 //will use irq in next project
}
 80002c0:	bf00      	nop
 80002c2:	46bd      	mov	sp, r7
 80002c4:	f85d 7b04 	ldr.w	r7, [sp], #4
 80002c8:	4770      	bx	lr
	...

080002cc <HAL_MspInit>:
 *      Author: Developer
 */
#include "main.h"
#include "stm32f4xx_hal_gpio.h"
 void HAL_MspInit(void)
{
 80002cc:	b580      	push	{r7, lr}
 80002ce:	af00      	add	r7, sp, #0
  /* NOTE : This function should not be modified, when the callback is needed,
            the HAL_MspInit could be implemented in the user file
   */
	 //1.priority grouping
	 // we use default one it is under hal driver layer under hal_cortex.c
	 HAL_NVIC_SetPriorityGrouping(NVIC_PRIORITYGROUP_4);
 80002d0:	2003      	movs	r0, #3
 80002d2:	f000 f9bf 	bl	8000654 <HAL_NVIC_SetPriorityGrouping>
	 //2.system exceptions
	 SCB->SHCSR |=SCB_SHCSR_USGFAULTENA_Msk ; //enable usage
 80002d6:	4b13      	ldr	r3, [pc, #76]	; (8000324 <HAL_MspInit+0x58>)
 80002d8:	6a5b      	ldr	r3, [r3, #36]	; 0x24
 80002da:	4a12      	ldr	r2, [pc, #72]	; (8000324 <HAL_MspInit+0x58>)
 80002dc:	f443 2380 	orr.w	r3, r3, #262144	; 0x40000
 80002e0:	6253      	str	r3, [r2, #36]	; 0x24
	 SCB->SHCSR |=SCB_SHCSR_BUSFAULTENA_Msk ; //mem
 80002e2:	4b10      	ldr	r3, [pc, #64]	; (8000324 <HAL_MspInit+0x58>)
 80002e4:	6a5b      	ldr	r3, [r3, #36]	; 0x24
 80002e6:	4a0f      	ldr	r2, [pc, #60]	; (8000324 <HAL_MspInit+0x58>)
 80002e8:	f443 3300 	orr.w	r3, r3, #131072	; 0x20000
 80002ec:	6253      	str	r3, [r2, #36]	; 0x24
	 SCB->SHCSR |=SCB_SHCSR_MEMFAULTENA_Msk ; //bus
 80002ee:	4b0d      	ldr	r3, [pc, #52]	; (8000324 <HAL_MspInit+0x58>)
 80002f0:	6a5b      	ldr	r3, [r3, #36]	; 0x24
 80002f2:	4a0c      	ldr	r2, [pc, #48]	; (8000324 <HAL_MspInit+0x58>)
 80002f4:	f443 3380 	orr.w	r3, r3, #65536	; 0x10000
 80002f8:	6253      	str	r3, [r2, #36]	; 0x24
	 //3.priority for system exceptions

	 HAL_NVIC_SetPriority(MemoryManagement_IRQn, 0, 0);
 80002fa:	2200      	movs	r2, #0
 80002fc:	2100      	movs	r1, #0
 80002fe:	f06f 000b 	mvn.w	r0, #11
 8000302:	f000 f9b2 	bl	800066a <HAL_NVIC_SetPriority>
	 HAL_NVIC_SetPriority(BusFault_IRQn, 0, 0);
 8000306:	2200      	movs	r2, #0
 8000308:	2100      	movs	r1, #0
 800030a:	f06f 000a 	mvn.w	r0, #10
 800030e:	f000 f9ac 	bl	800066a <HAL_NVIC_SetPriority>
	 HAL_NVIC_SetPriority(UsageFault_IRQn, 0, 0);
 8000312:	2200      	movs	r2, #0
 8000314:	2100      	movs	r1, #0
 8000316:	f06f 0009 	mvn.w	r0, #9
 800031a:	f000 f9a6 	bl	800066a <HAL_NVIC_SetPriority>
}
 800031e:	bf00      	nop
 8000320:	bd80      	pop	{r7, pc}
 8000322:	bf00      	nop
 8000324:	e000ed00 	.word	0xe000ed00

08000328 <HAL_TIM_Base_MspInit>:


 void HAL_TIM_Base_MspInit(TIM_HandleTypeDef *htimer)
 {
 8000328:	b580      	push	{r7, lr}
 800032a:	b084      	sub	sp, #16
 800032c:	af00      	add	r7, sp, #0
 800032e:	6078      	str	r0, [r7, #4]
	 //1.enable clock for TIM6
	 __HAL_RCC_TIM6_CLK_ENABLE();
 8000330:	2300      	movs	r3, #0
 8000332:	60fb      	str	r3, [r7, #12]
 8000334:	4b0b      	ldr	r3, [pc, #44]	; (8000364 <HAL_TIM_Base_MspInit+0x3c>)
 8000336:	6c1b      	ldr	r3, [r3, #64]	; 0x40
 8000338:	4a0a      	ldr	r2, [pc, #40]	; (8000364 <HAL_TIM_Base_MspInit+0x3c>)
 800033a:	f043 0310 	orr.w	r3, r3, #16
 800033e:	6413      	str	r3, [r2, #64]	; 0x40
 8000340:	4b08      	ldr	r3, [pc, #32]	; (8000364 <HAL_TIM_Base_MspInit+0x3c>)
 8000342:	6c1b      	ldr	r3, [r3, #64]	; 0x40
 8000344:	f003 0310 	and.w	r3, r3, #16
 8000348:	60fb      	str	r3, [r7, #12]
 800034a:	68fb      	ldr	r3, [r7, #12]

	 //2.enable IRQ TIM6
	 HAL_NVIC_EnableIRQ(TIM6_DAC_IRQn);
 800034c:	2036      	movs	r0, #54	; 0x36
 800034e:	f000 f9a8 	bl	80006a2 <HAL_NVIC_EnableIRQ>

	 //3. setup priority for tim6
	 HAL_NVIC_SetPriority(TIM6_DAC_IRQn, 15, 0);
 8000352:	2200      	movs	r2, #0
 8000354:	210f      	movs	r1, #15
 8000356:	2036      	movs	r0, #54	; 0x36
 8000358:	f000 f987 	bl	800066a <HAL_NVIC_SetPriority>


 }
 800035c:	bf00      	nop
 800035e:	3710      	adds	r7, #16
 8000360:	46bd      	mov	sp, r7
 8000362:	bd80      	pop	{r7, pc}
 8000364:	40023800 	.word	0x40023800

08000368 <SystemInit>:
  *         configuration.
  * @param  None
  * @retval None
  */
void SystemInit(void)
{
 8000368:	b480      	push	{r7}
 800036a:	af00      	add	r7, sp, #0
  /* FPU settings ------------------------------------------------------------*/
  #if (__FPU_PRESENT == 1) && (__FPU_USED == 1)
    SCB->CPACR |= ((3UL << 10*2)|(3UL << 11*2));  /* set CP10 and CP11 Full Access */
 800036c:	4b08      	ldr	r3, [pc, #32]	; (8000390 <SystemInit+0x28>)
 800036e:	f8d3 3088 	ldr.w	r3, [r3, #136]	; 0x88
 8000372:	4a07      	ldr	r2, [pc, #28]	; (8000390 <SystemInit+0x28>)
 8000374:	f443 0370 	orr.w	r3, r3, #15728640	; 0xf00000
 8000378:	f8c2 3088 	str.w	r3, [r2, #136]	; 0x88

  /* Configure the Vector Table location add offset address ------------------*/
#ifdef VECT_TAB_SRAM
  SCB->VTOR = SRAM_BASE | VECT_TAB_OFFSET; /* Vector Table Relocation in Internal SRAM */
#else
  SCB->VTOR = FLASH_BASE | VECT_TAB_OFFSET; /* Vector Table Relocation in Internal FLASH */
 800037c:	4b04      	ldr	r3, [pc, #16]	; (8000390 <SystemInit+0x28>)
 800037e:	f04f 6200 	mov.w	r2, #134217728	; 0x8000000
 8000382:	609a      	str	r2, [r3, #8]
#endif
}
 8000384:	bf00      	nop
 8000386:	46bd      	mov	sp, r7
 8000388:	f85d 7b04 	ldr.w	r7, [sp], #4
 800038c:	4770      	bx	lr
 800038e:	bf00      	nop
 8000390:	e000ed00 	.word	0xe000ed00

08000394 <Reset_Handler>:

    .section  .text.Reset_Handler
  .weak  Reset_Handler
  .type  Reset_Handler, %function
Reset_Handler:  
  ldr   sp, =_estack     /* set stack pointer */
 8000394:	f8df d034 	ldr.w	sp, [pc, #52]	; 80003cc <LoopFillZerobss+0x14>

/* Copy the data segment initializers from flash to SRAM */  
  movs  r1, #0
 8000398:	2100      	movs	r1, #0
  b  LoopCopyDataInit
 800039a:	e003      	b.n	80003a4 <LoopCopyDataInit>

0800039c <CopyDataInit>:

CopyDataInit:
  ldr  r3, =_sidata
 800039c:	4b0c      	ldr	r3, [pc, #48]	; (80003d0 <LoopFillZerobss+0x18>)
  ldr  r3, [r3, r1]
 800039e:	585b      	ldr	r3, [r3, r1]
  str  r3, [r0, r1]
 80003a0:	5043      	str	r3, [r0, r1]
  adds  r1, r1, #4
 80003a2:	3104      	adds	r1, #4

080003a4 <LoopCopyDataInit>:
    
LoopCopyDataInit:
  ldr  r0, =_sdata
 80003a4:	480b      	ldr	r0, [pc, #44]	; (80003d4 <LoopFillZerobss+0x1c>)
  ldr  r3, =_edata
 80003a6:	4b0c      	ldr	r3, [pc, #48]	; (80003d8 <LoopFillZerobss+0x20>)
  adds  r2, r0, r1
 80003a8:	1842      	adds	r2, r0, r1
  cmp  r2, r3
 80003aa:	429a      	cmp	r2, r3
  bcc  CopyDataInit
 80003ac:	d3f6      	bcc.n	800039c <CopyDataInit>
  ldr  r2, =_sbss
 80003ae:	4a0b      	ldr	r2, [pc, #44]	; (80003dc <LoopFillZerobss+0x24>)
  b  LoopFillZerobss
 80003b0:	e002      	b.n	80003b8 <LoopFillZerobss>

080003b2 <FillZerobss>:
/* Zero fill the bss segment. */  
FillZerobss:
  movs  r3, #0
 80003b2:	2300      	movs	r3, #0
  str  r3, [r2], #4
 80003b4:	f842 3b04 	str.w	r3, [r2], #4

080003b8 <LoopFillZerobss>:
    
LoopFillZerobss:
  ldr  r3, = _ebss
 80003b8:	4b09      	ldr	r3, [pc, #36]	; (80003e0 <LoopFillZerobss+0x28>)
  cmp  r2, r3
 80003ba:	429a      	cmp	r2, r3
  bcc  FillZerobss
 80003bc:	d3f9      	bcc.n	80003b2 <FillZerobss>

/* Call the clock system intitialization function.*/
  bl  SystemInit   
 80003be:	f7ff ffd3 	bl	8000368 <SystemInit>
/* Call static constructors */
    bl __libc_init_array
 80003c2:	f000 fc39 	bl	8000c38 <__libc_init_array>
/* Call the application's entry point.*/
  bl  main
 80003c6:	f7ff ff07 	bl	80001d8 <main>
  bx  lr    
 80003ca:	4770      	bx	lr
  ldr   sp, =_estack     /* set stack pointer */
 80003cc:	20020000 	.word	0x20020000
  ldr  r3, =_sidata
 80003d0:	08000ca0 	.word	0x08000ca0
  ldr  r0, =_sdata
 80003d4:	20000000 	.word	0x20000000
  ldr  r3, =_edata
 80003d8:	2000000c 	.word	0x2000000c
  ldr  r2, =_sbss
 80003dc:	2000000c 	.word	0x2000000c
  ldr  r3, = _ebss
 80003e0:	2000006c 	.word	0x2000006c

080003e4 <ADC_IRQHandler>:
 * @retval None       
*/
    .section  .text.Default_Handler,"ax",%progbits
Default_Handler:
Infinite_Loop:
  b  Infinite_Loop
 80003e4:	e7fe      	b.n	80003e4 <ADC_IRQHandler>
	...

080003e8 <HAL_Init>:
  *         need to ensure that the SysTick time base is always set to 1 millisecond
  *         to have correct HAL operation.
  * @retval HAL status
  */
HAL_StatusTypeDef HAL_Init(void)
{
 80003e8:	b580      	push	{r7, lr}
 80003ea:	af00      	add	r7, sp, #0
  /* Configure Flash prefetch, Instruction cache, Data cache */ 
#if (INSTRUCTION_CACHE_ENABLE != 0U)
  __HAL_FLASH_INSTRUCTION_CACHE_ENABLE();
 80003ec:	4b0e      	ldr	r3, [pc, #56]	; (8000428 <HAL_Init+0x40>)
 80003ee:	681b      	ldr	r3, [r3, #0]
 80003f0:	4a0d      	ldr	r2, [pc, #52]	; (8000428 <HAL_Init+0x40>)
 80003f2:	f443 7300 	orr.w	r3, r3, #512	; 0x200
 80003f6:	6013      	str	r3, [r2, #0]
#endif /* INSTRUCTION_CACHE_ENABLE */

#if (DATA_CACHE_ENABLE != 0U)
  __HAL_FLASH_DATA_CACHE_ENABLE();
 80003f8:	4b0b      	ldr	r3, [pc, #44]	; (8000428 <HAL_Init+0x40>)
 80003fa:	681b      	ldr	r3, [r3, #0]
 80003fc:	4a0a      	ldr	r2, [pc, #40]	; (8000428 <HAL_Init+0x40>)
 80003fe:	f443 6380 	orr.w	r3, r3, #1024	; 0x400
 8000402:	6013      	str	r3, [r2, #0]
#endif /* DATA_CACHE_ENABLE */

#if (PREFETCH_ENABLE != 0U)
  __HAL_FLASH_PREFETCH_BUFFER_ENABLE();
 8000404:	4b08      	ldr	r3, [pc, #32]	; (8000428 <HAL_Init+0x40>)
 8000406:	681b      	ldr	r3, [r3, #0]
 8000408:	4a07      	ldr	r2, [pc, #28]	; (8000428 <HAL_Init+0x40>)
 800040a:	f443 7380 	orr.w	r3, r3, #256	; 0x100
 800040e:	6013      	str	r3, [r2, #0]
#endif /* PREFETCH_ENABLE */

  /* Set Interrupt Group Priority */
  HAL_NVIC_SetPriorityGrouping(NVIC_PRIORITYGROUP_4);
 8000410:	2003      	movs	r0, #3
 8000412:	f000 f91f 	bl	8000654 <HAL_NVIC_SetPriorityGrouping>

  /* Use systick as time base source and configure 1ms tick (default clock after Reset is HSI) */
  HAL_InitTick(TICK_INT_PRIORITY);
 8000416:	2000      	movs	r0, #0
 8000418:	f000 f808 	bl	800042c <HAL_InitTick>

  /* Init the low level hardware */
  HAL_MspInit();
 800041c:	f7ff ff56 	bl	80002cc <HAL_MspInit>

  /* Return function status */
  return HAL_OK;
 8000420:	2300      	movs	r3, #0
}
 8000422:	4618      	mov	r0, r3
 8000424:	bd80      	pop	{r7, pc}
 8000426:	bf00      	nop
 8000428:	40023c00 	.word	0x40023c00

0800042c <HAL_InitTick>:
  *       implementation  in user file.
  * @param TickPriority Tick interrupt priority.
  * @retval HAL status
  */
__weak HAL_StatusTypeDef HAL_InitTick(uint32_t TickPriority)
{
 800042c:	b580      	push	{r7, lr}
 800042e:	b082      	sub	sp, #8
 8000430:	af00      	add	r7, sp, #0
 8000432:	6078      	str	r0, [r7, #4]
  /* Configure the SysTick to have interrupt in 1ms time basis*/
  if (HAL_SYSTICK_Config(SystemCoreClock / (1000U / uwTickFreq)) > 0U)
 8000434:	4b12      	ldr	r3, [pc, #72]	; (8000480 <HAL_InitTick+0x54>)
 8000436:	681a      	ldr	r2, [r3, #0]
 8000438:	4b12      	ldr	r3, [pc, #72]	; (8000484 <HAL_InitTick+0x58>)
 800043a:	781b      	ldrb	r3, [r3, #0]
 800043c:	4619      	mov	r1, r3
 800043e:	f44f 737a 	mov.w	r3, #1000	; 0x3e8
 8000442:	fbb3 f3f1 	udiv	r3, r3, r1
 8000446:	fbb2 f3f3 	udiv	r3, r2, r3
 800044a:	4618      	mov	r0, r3
 800044c:	f000 f937 	bl	80006be <HAL_SYSTICK_Config>
 8000450:	4603      	mov	r3, r0
 8000452:	2b00      	cmp	r3, #0
 8000454:	d001      	beq.n	800045a <HAL_InitTick+0x2e>
  {
    return HAL_ERROR;
 8000456:	2301      	movs	r3, #1
 8000458:	e00e      	b.n	8000478 <HAL_InitTick+0x4c>
  }

  /* Configure the SysTick IRQ priority */
  if (TickPriority < (1UL << __NVIC_PRIO_BITS))
 800045a:	687b      	ldr	r3, [r7, #4]
 800045c:	2b0f      	cmp	r3, #15
 800045e:	d80a      	bhi.n	8000476 <HAL_InitTick+0x4a>
  {
    HAL_NVIC_SetPriority(SysTick_IRQn, TickPriority, 0U);
 8000460:	2200      	movs	r2, #0
 8000462:	6879      	ldr	r1, [r7, #4]
 8000464:	f04f 30ff 	mov.w	r0, #4294967295
 8000468:	f000 f8ff 	bl	800066a <HAL_NVIC_SetPriority>
    uwTickPrio = TickPriority;
 800046c:	4a06      	ldr	r2, [pc, #24]	; (8000488 <HAL_InitTick+0x5c>)
 800046e:	687b      	ldr	r3, [r7, #4]
 8000470:	6013      	str	r3, [r2, #0]
  {
    return HAL_ERROR;
  }

  /* Return function status */
  return HAL_OK;
 8000472:	2300      	movs	r3, #0
 8000474:	e000      	b.n	8000478 <HAL_InitTick+0x4c>
    return HAL_ERROR;
 8000476:	2301      	movs	r3, #1
}
 8000478:	4618      	mov	r0, r3
 800047a:	3708      	adds	r7, #8
 800047c:	46bd      	mov	sp, r7
 800047e:	bd80      	pop	{r7, pc}
 8000480:	20000000 	.word	0x20000000
 8000484:	20000008 	.word	0x20000008
 8000488:	20000004 	.word	0x20000004

0800048c <HAL_IncTick>:
 * @note This function is declared as __weak to be overwritten in case of other 
  *      implementations in user file.
  * @retval None
  */
__weak void HAL_IncTick(void)
{
 800048c:	b480      	push	{r7}
 800048e:	af00      	add	r7, sp, #0
  uwTick += uwTickFreq;
 8000490:	4b06      	ldr	r3, [pc, #24]	; (80004ac <HAL_IncTick+0x20>)
 8000492:	781b      	ldrb	r3, [r3, #0]
 8000494:	461a      	mov	r2, r3
 8000496:	4b06      	ldr	r3, [pc, #24]	; (80004b0 <HAL_IncTick+0x24>)
 8000498:	681b      	ldr	r3, [r3, #0]
 800049a:	4413      	add	r3, r2
 800049c:	4a04      	ldr	r2, [pc, #16]	; (80004b0 <HAL_IncTick+0x24>)
 800049e:	6013      	str	r3, [r2, #0]
}
 80004a0:	bf00      	nop
 80004a2:	46bd      	mov	sp, r7
 80004a4:	f85d 7b04 	ldr.w	r7, [sp], #4
 80004a8:	4770      	bx	lr
 80004aa:	bf00      	nop
 80004ac:	20000008 	.word	0x20000008
 80004b0:	20000068 	.word	0x20000068

080004b4 <__NVIC_SetPriorityGrouping>:
           In case of a conflict between priority grouping and available
           priority bits (__NVIC_PRIO_BITS), the smallest possible priority group is set.
  \param [in]      PriorityGroup  Priority grouping field.
 */
__STATIC_INLINE void __NVIC_SetPriorityGrouping(uint32_t PriorityGroup)
{
 80004b4:	b480      	push	{r7}
 80004b6:	b085      	sub	sp, #20
 80004b8:	af00      	add	r7, sp, #0
 80004ba:	6078      	str	r0, [r7, #4]
  uint32_t reg_value;
  uint32_t PriorityGroupTmp = (PriorityGroup & (uint32_t)0x07UL);             /* only values 0..7 are used          */
 80004bc:	687b      	ldr	r3, [r7, #4]
 80004be:	f003 0307 	and.w	r3, r3, #7
 80004c2:	60fb      	str	r3, [r7, #12]

  reg_value  =  SCB->AIRCR;                                                   /* read old register configuration    */
 80004c4:	4b0c      	ldr	r3, [pc, #48]	; (80004f8 <__NVIC_SetPriorityGrouping+0x44>)
 80004c6:	68db      	ldr	r3, [r3, #12]
 80004c8:	60bb      	str	r3, [r7, #8]
  reg_value &= ~((uint32_t)(SCB_AIRCR_VECTKEY_Msk | SCB_AIRCR_PRIGROUP_Msk)); /* clear bits to change               */
 80004ca:	68ba      	ldr	r2, [r7, #8]
 80004cc:	f64f 03ff 	movw	r3, #63743	; 0xf8ff
 80004d0:	4013      	ands	r3, r2
 80004d2:	60bb      	str	r3, [r7, #8]
  reg_value  =  (reg_value                                   |
                ((uint32_t)0x5FAUL << SCB_AIRCR_VECTKEY_Pos) |
                (PriorityGroupTmp << SCB_AIRCR_PRIGROUP_Pos)  );              /* Insert write key and priority group */
 80004d4:	68fb      	ldr	r3, [r7, #12]
 80004d6:	021a      	lsls	r2, r3, #8
                ((uint32_t)0x5FAUL << SCB_AIRCR_VECTKEY_Pos) |
 80004d8:	68bb      	ldr	r3, [r7, #8]
 80004da:	4313      	orrs	r3, r2
  reg_value  =  (reg_value                                   |
 80004dc:	f043 63bf 	orr.w	r3, r3, #100139008	; 0x5f80000
 80004e0:	f443 3300 	orr.w	r3, r3, #131072	; 0x20000
 80004e4:	60bb      	str	r3, [r7, #8]
  SCB->AIRCR =  reg_value;
 80004e6:	4a04      	ldr	r2, [pc, #16]	; (80004f8 <__NVIC_SetPriorityGrouping+0x44>)
 80004e8:	68bb      	ldr	r3, [r7, #8]
 80004ea:	60d3      	str	r3, [r2, #12]
}
 80004ec:	bf00      	nop
 80004ee:	3714      	adds	r7, #20
 80004f0:	46bd      	mov	sp, r7
 80004f2:	f85d 7b04 	ldr.w	r7, [sp], #4
 80004f6:	4770      	bx	lr
 80004f8:	e000ed00 	.word	0xe000ed00

080004fc <__NVIC_GetPriorityGrouping>:
  \brief   Get Priority Grouping
  \details Reads the priority grouping field from the NVIC Interrupt Controller.
  \return                Priority grouping field (SCB->AIRCR [10:8] PRIGROUP field).
 */
__STATIC_INLINE uint32_t __NVIC_GetPriorityGrouping(void)
{
 80004fc:	b480      	push	{r7}
 80004fe:	af00      	add	r7, sp, #0
  return ((uint32_t)((SCB->AIRCR & SCB_AIRCR_PRIGROUP_Msk) >> SCB_AIRCR_PRIGROUP_Pos));
 8000500:	4b04      	ldr	r3, [pc, #16]	; (8000514 <__NVIC_GetPriorityGrouping+0x18>)
 8000502:	68db      	ldr	r3, [r3, #12]
 8000504:	0a1b      	lsrs	r3, r3, #8
 8000506:	f003 0307 	and.w	r3, r3, #7
}
 800050a:	4618      	mov	r0, r3
 800050c:	46bd      	mov	sp, r7
 800050e:	f85d 7b04 	ldr.w	r7, [sp], #4
 8000512:	4770      	bx	lr
 8000514:	e000ed00 	.word	0xe000ed00

08000518 <__NVIC_EnableIRQ>:
  \details Enables a device specific interrupt in the NVIC interrupt controller.
  \param [in]      IRQn  Device specific interrupt number.
  \note    IRQn must not be negative.
 */
__STATIC_INLINE void __NVIC_EnableIRQ(IRQn_Type IRQn)
{
 8000518:	b480      	push	{r7}
 800051a:	b083      	sub	sp, #12
 800051c:	af00      	add	r7, sp, #0
 800051e:	4603      	mov	r3, r0
 8000520:	71fb      	strb	r3, [r7, #7]
  if ((int32_t)(IRQn) >= 0)
 8000522:	f997 3007 	ldrsb.w	r3, [r7, #7]
 8000526:	2b00      	cmp	r3, #0
 8000528:	db0b      	blt.n	8000542 <__NVIC_EnableIRQ+0x2a>
  {
    NVIC->ISER[(((uint32_t)IRQn) >> 5UL)] = (uint32_t)(1UL << (((uint32_t)IRQn) & 0x1FUL));
 800052a:	79fb      	ldrb	r3, [r7, #7]
 800052c:	f003 021f 	and.w	r2, r3, #31
 8000530:	4907      	ldr	r1, [pc, #28]	; (8000550 <__NVIC_EnableIRQ+0x38>)
 8000532:	f997 3007 	ldrsb.w	r3, [r7, #7]
 8000536:	095b      	lsrs	r3, r3, #5
 8000538:	2001      	movs	r0, #1
 800053a:	fa00 f202 	lsl.w	r2, r0, r2
 800053e:	f841 2023 	str.w	r2, [r1, r3, lsl #2]
  }
}
 8000542:	bf00      	nop
 8000544:	370c      	adds	r7, #12
 8000546:	46bd      	mov	sp, r7
 8000548:	f85d 7b04 	ldr.w	r7, [sp], #4
 800054c:	4770      	bx	lr
 800054e:	bf00      	nop
 8000550:	e000e100 	.word	0xe000e100

08000554 <__NVIC_SetPriority>:
  \param [in]      IRQn  Interrupt number.
  \param [in]  priority  Priority to set.
  \note    The priority cannot be set for every processor exception.
 */
__STATIC_INLINE void __NVIC_SetPriority(IRQn_Type IRQn, uint32_t priority)
{
 8000554:	b480      	push	{r7}
 8000556:	b083      	sub	sp, #12
 8000558:	af00      	add	r7, sp, #0
 800055a:	4603      	mov	r3, r0
 800055c:	6039      	str	r1, [r7, #0]
 800055e:	71fb      	strb	r3, [r7, #7]
  if ((int32_t)(IRQn) >= 0)
 8000560:	f997 3007 	ldrsb.w	r3, [r7, #7]
 8000564:	2b00      	cmp	r3, #0
 8000566:	db0a      	blt.n	800057e <__NVIC_SetPriority+0x2a>
  {
    NVIC->IP[((uint32_t)IRQn)]               = (uint8_t)((priority << (8U - __NVIC_PRIO_BITS)) & (uint32_t)0xFFUL);
 8000568:	683b      	ldr	r3, [r7, #0]
 800056a:	b2da      	uxtb	r2, r3
 800056c:	490c      	ldr	r1, [pc, #48]	; (80005a0 <__NVIC_SetPriority+0x4c>)
 800056e:	f997 3007 	ldrsb.w	r3, [r7, #7]
 8000572:	0112      	lsls	r2, r2, #4
 8000574:	b2d2      	uxtb	r2, r2
 8000576:	440b      	add	r3, r1
 8000578:	f883 2300 	strb.w	r2, [r3, #768]	; 0x300
  }
  else
  {
    SCB->SHP[(((uint32_t)IRQn) & 0xFUL)-4UL] = (uint8_t)((priority << (8U - __NVIC_PRIO_BITS)) & (uint32_t)0xFFUL);
  }
}
 800057c:	e00a      	b.n	8000594 <__NVIC_SetPriority+0x40>
    SCB->SHP[(((uint32_t)IRQn) & 0xFUL)-4UL] = (uint8_t)((priority << (8U - __NVIC_PRIO_BITS)) & (uint32_t)0xFFUL);
 800057e:	683b      	ldr	r3, [r7, #0]
 8000580:	b2da      	uxtb	r2, r3
 8000582:	4908      	ldr	r1, [pc, #32]	; (80005a4 <__NVIC_SetPriority+0x50>)
 8000584:	79fb      	ldrb	r3, [r7, #7]
 8000586:	f003 030f 	and.w	r3, r3, #15
 800058a:	3b04      	subs	r3, #4
 800058c:	0112      	lsls	r2, r2, #4
 800058e:	b2d2      	uxtb	r2, r2
 8000590:	440b      	add	r3, r1
 8000592:	761a      	strb	r2, [r3, #24]
}
 8000594:	bf00      	nop
 8000596:	370c      	adds	r7, #12
 8000598:	46bd      	mov	sp, r7
 800059a:	f85d 7b04 	ldr.w	r7, [sp], #4
 800059e:	4770      	bx	lr
 80005a0:	e000e100 	.word	0xe000e100
 80005a4:	e000ed00 	.word	0xe000ed00

080005a8 <NVIC_EncodePriority>:
  \param [in]   PreemptPriority  Preemptive priority value (starting from 0).
  \param [in]       SubPriority  Subpriority value (starting from 0).
  \return                        Encoded priority. Value can be used in the function \ref NVIC_SetPriority().
 */
__STATIC_INLINE uint32_t NVIC_EncodePriority (uint32_t PriorityGroup, uint32_t PreemptPriority, uint32_t SubPriority)
{
 80005a8:	b480      	push	{r7}
 80005aa:	b089      	sub	sp, #36	; 0x24
 80005ac:	af00      	add	r7, sp, #0
 80005ae:	60f8      	str	r0, [r7, #12]
 80005b0:	60b9      	str	r1, [r7, #8]
 80005b2:	607a      	str	r2, [r7, #4]
  uint32_t PriorityGroupTmp = (PriorityGroup & (uint32_t)0x07UL);   /* only values 0..7 are used          */
 80005b4:	68fb      	ldr	r3, [r7, #12]
 80005b6:	f003 0307 	and.w	r3, r3, #7
 80005ba:	61fb      	str	r3, [r7, #28]
  uint32_t PreemptPriorityBits;
  uint32_t SubPriorityBits;

  PreemptPriorityBits = ((7UL - PriorityGroupTmp) > (uint32_t)(__NVIC_PRIO_BITS)) ? (uint32_t)(__NVIC_PRIO_BITS) : (uint32_t)(7UL - PriorityGroupTmp);
 80005bc:	69fb      	ldr	r3, [r7, #28]
 80005be:	f1c3 0307 	rsb	r3, r3, #7
 80005c2:	2b04      	cmp	r3, #4
 80005c4:	bf28      	it	cs
 80005c6:	2304      	movcs	r3, #4
 80005c8:	61bb      	str	r3, [r7, #24]
  SubPriorityBits     = ((PriorityGroupTmp + (uint32_t)(__NVIC_PRIO_BITS)) < (uint32_t)7UL) ? (uint32_t)0UL : (uint32_t)((PriorityGroupTmp - 7UL) + (uint32_t)(__NVIC_PRIO_BITS));
 80005ca:	69fb      	ldr	r3, [r7, #28]
 80005cc:	3304      	adds	r3, #4
 80005ce:	2b06      	cmp	r3, #6
 80005d0:	d902      	bls.n	80005d8 <NVIC_EncodePriority+0x30>
 80005d2:	69fb      	ldr	r3, [r7, #28]
 80005d4:	3b03      	subs	r3, #3
 80005d6:	e000      	b.n	80005da <NVIC_EncodePriority+0x32>
 80005d8:	2300      	movs	r3, #0
 80005da:	617b      	str	r3, [r7, #20]

  return (
           ((PreemptPriority & (uint32_t)((1UL << (PreemptPriorityBits)) - 1UL)) << SubPriorityBits) |
 80005dc:	f04f 32ff 	mov.w	r2, #4294967295
 80005e0:	69bb      	ldr	r3, [r7, #24]
 80005e2:	fa02 f303 	lsl.w	r3, r2, r3
 80005e6:	43da      	mvns	r2, r3
 80005e8:	68bb      	ldr	r3, [r7, #8]
 80005ea:	401a      	ands	r2, r3
 80005ec:	697b      	ldr	r3, [r7, #20]
 80005ee:	409a      	lsls	r2, r3
           ((SubPriority     & (uint32_t)((1UL << (SubPriorityBits    )) - 1UL)))
 80005f0:	f04f 31ff 	mov.w	r1, #4294967295
 80005f4:	697b      	ldr	r3, [r7, #20]
 80005f6:	fa01 f303 	lsl.w	r3, r1, r3
 80005fa:	43d9      	mvns	r1, r3
 80005fc:	687b      	ldr	r3, [r7, #4]
 80005fe:	400b      	ands	r3, r1
           ((PreemptPriority & (uint32_t)((1UL << (PreemptPriorityBits)) - 1UL)) << SubPriorityBits) |
 8000600:	4313      	orrs	r3, r2
         );
}
 8000602:	4618      	mov	r0, r3
 8000604:	3724      	adds	r7, #36	; 0x24
 8000606:	46bd      	mov	sp, r7
 8000608:	f85d 7b04 	ldr.w	r7, [sp], #4
 800060c:	4770      	bx	lr
	...

08000610 <SysTick_Config>:
  \note    When the variable <b>__Vendor_SysTickConfig</b> is set to 1, then the
           function <b>SysTick_Config</b> is not included. In this case, the file <b><i>device</i>.h</b>
           must contain a vendor-specific implementation of this function.
 */
__STATIC_INLINE uint32_t SysTick_Config(uint32_t ticks)
{
 8000610:	b580      	push	{r7, lr}
 8000612:	b082      	sub	sp, #8
 8000614:	af00      	add	r7, sp, #0
 8000616:	6078      	str	r0, [r7, #4]
  if ((ticks - 1UL) > SysTick_LOAD_RELOAD_Msk)
 8000618:	687b      	ldr	r3, [r7, #4]
 800061a:	3b01      	subs	r3, #1
 800061c:	f1b3 7f80 	cmp.w	r3, #16777216	; 0x1000000
 8000620:	d301      	bcc.n	8000626 <SysTick_Config+0x16>
  {
    return (1UL);                                                   /* Reload value impossible */
 8000622:	2301      	movs	r3, #1
 8000624:	e00f      	b.n	8000646 <SysTick_Config+0x36>
  }

  SysTick->LOAD  = (uint32_t)(ticks - 1UL);                         /* set reload register */
 8000626:	4a0a      	ldr	r2, [pc, #40]	; (8000650 <SysTick_Config+0x40>)
 8000628:	687b      	ldr	r3, [r7, #4]
 800062a:	3b01      	subs	r3, #1
 800062c:	6053      	str	r3, [r2, #4]
  NVIC_SetPriority (SysTick_IRQn, (1UL << __NVIC_PRIO_BITS) - 1UL); /* set Priority for Systick Interrupt */
 800062e:	210f      	movs	r1, #15
 8000630:	f04f 30ff 	mov.w	r0, #4294967295
 8000634:	f7ff ff8e 	bl	8000554 <__NVIC_SetPriority>
  SysTick->VAL   = 0UL;                                             /* Load the SysTick Counter Value */
 8000638:	4b05      	ldr	r3, [pc, #20]	; (8000650 <SysTick_Config+0x40>)
 800063a:	2200      	movs	r2, #0
 800063c:	609a      	str	r2, [r3, #8]
  SysTick->CTRL  = SysTick_CTRL_CLKSOURCE_Msk |
 800063e:	4b04      	ldr	r3, [pc, #16]	; (8000650 <SysTick_Config+0x40>)
 8000640:	2207      	movs	r2, #7
 8000642:	601a      	str	r2, [r3, #0]
                   SysTick_CTRL_TICKINT_Msk   |
                   SysTick_CTRL_ENABLE_Msk;                         /* Enable SysTick IRQ and SysTick Timer */
  return (0UL);                                                     /* Function successful */
 8000644:	2300      	movs	r3, #0
}
 8000646:	4618      	mov	r0, r3
 8000648:	3708      	adds	r7, #8
 800064a:	46bd      	mov	sp, r7
 800064c:	bd80      	pop	{r7, pc}
 800064e:	bf00      	nop
 8000650:	e000e010 	.word	0xe000e010

08000654 <HAL_NVIC_SetPriorityGrouping>:
  * @note   When the NVIC_PriorityGroup_0 is selected, IRQ preemption is no more possible. 
  *         The pending IRQ priority will be managed only by the subpriority. 
  * @retval None
  */
void HAL_NVIC_SetPriorityGrouping(uint32_t PriorityGroup)
{
 8000654:	b580      	push	{r7, lr}
 8000656:	b082      	sub	sp, #8
 8000658:	af00      	add	r7, sp, #0
 800065a:	6078      	str	r0, [r7, #4]
  /* Check the parameters */
  assert_param(IS_NVIC_PRIORITY_GROUP(PriorityGroup));
  
  /* Set the PRIGROUP[10:8] bits according to the PriorityGroup parameter value */
  NVIC_SetPriorityGrouping(PriorityGroup);
 800065c:	6878      	ldr	r0, [r7, #4]
 800065e:	f7ff ff29 	bl	80004b4 <__NVIC_SetPriorityGrouping>
}
 8000662:	bf00      	nop
 8000664:	3708      	adds	r7, #8
 8000666:	46bd      	mov	sp, r7
 8000668:	bd80      	pop	{r7, pc}

0800066a <HAL_NVIC_SetPriority>:
  *         This parameter can be a value between 0 and 15
  *         A lower priority value indicates a higher priority.          
  * @retval None
  */
void HAL_NVIC_SetPriority(IRQn_Type IRQn, uint32_t PreemptPriority, uint32_t SubPriority)
{ 
 800066a:	b580      	push	{r7, lr}
 800066c:	b086      	sub	sp, #24
 800066e:	af00      	add	r7, sp, #0
 8000670:	4603      	mov	r3, r0
 8000672:	60b9      	str	r1, [r7, #8]
 8000674:	607a      	str	r2, [r7, #4]
 8000676:	73fb      	strb	r3, [r7, #15]
  uint32_t prioritygroup = 0x00U;
 8000678:	2300      	movs	r3, #0
 800067a:	617b      	str	r3, [r7, #20]
  
  /* Check the parameters */
  assert_param(IS_NVIC_SUB_PRIORITY(SubPriority));
  assert_param(IS_NVIC_PREEMPTION_PRIORITY(PreemptPriority));
  
  prioritygroup = NVIC_GetPriorityGrouping();
 800067c:	f7ff ff3e 	bl	80004fc <__NVIC_GetPriorityGrouping>
 8000680:	6178      	str	r0, [r7, #20]
  
  NVIC_SetPriority(IRQn, NVIC_EncodePriority(prioritygroup, PreemptPriority, SubPriority));
 8000682:	687a      	ldr	r2, [r7, #4]
 8000684:	68b9      	ldr	r1, [r7, #8]
 8000686:	6978      	ldr	r0, [r7, #20]
 8000688:	f7ff ff8e 	bl	80005a8 <NVIC_EncodePriority>
 800068c:	4602      	mov	r2, r0
 800068e:	f997 300f 	ldrsb.w	r3, [r7, #15]
 8000692:	4611      	mov	r1, r2
 8000694:	4618      	mov	r0, r3
 8000696:	f7ff ff5d 	bl	8000554 <__NVIC_SetPriority>
}
 800069a:	bf00      	nop
 800069c:	3718      	adds	r7, #24
 800069e:	46bd      	mov	sp, r7
 80006a0:	bd80      	pop	{r7, pc}

080006a2 <HAL_NVIC_EnableIRQ>:
  *         This parameter can be an enumerator of IRQn_Type enumeration
  *         (For the complete STM32 Devices IRQ Channels list, please refer to the appropriate CMSIS device file (stm32f4xxxx.h))
  * @retval None
  */
void HAL_NVIC_EnableIRQ(IRQn_Type IRQn)
{
 80006a2:	b580      	push	{r7, lr}
 80006a4:	b082      	sub	sp, #8
 80006a6:	af00      	add	r7, sp, #0
 80006a8:	4603      	mov	r3, r0
 80006aa:	71fb      	strb	r3, [r7, #7]
  /* Check the parameters */
  assert_param(IS_NVIC_DEVICE_IRQ(IRQn));
  
  /* Enable interrupt */
  NVIC_EnableIRQ(IRQn);
 80006ac:	f997 3007 	ldrsb.w	r3, [r7, #7]
 80006b0:	4618      	mov	r0, r3
 80006b2:	f7ff ff31 	bl	8000518 <__NVIC_EnableIRQ>
}
 80006b6:	bf00      	nop
 80006b8:	3708      	adds	r7, #8
 80006ba:	46bd      	mov	sp, r7
 80006bc:	bd80      	pop	{r7, pc}

080006be <HAL_SYSTICK_Config>:
  * @param  TicksNumb Specifies the ticks Number of ticks between two interrupts.
  * @retval status:  - 0  Function succeeded.
  *                  - 1  Function failed.
  */
uint32_t HAL_SYSTICK_Config(uint32_t TicksNumb)
{
 80006be:	b580      	push	{r7, lr}
 80006c0:	b082      	sub	sp, #8
 80006c2:	af00      	add	r7, sp, #0
 80006c4:	6078      	str	r0, [r7, #4]
   return SysTick_Config(TicksNumb);
 80006c6:	6878      	ldr	r0, [r7, #4]
 80006c8:	f7ff ffa2 	bl	8000610 <SysTick_Config>
 80006cc:	4603      	mov	r3, r0
}
 80006ce:	4618      	mov	r0, r3
 80006d0:	3708      	adds	r7, #8
 80006d2:	46bd      	mov	sp, r7
 80006d4:	bd80      	pop	{r7, pc}

080006d6 <HAL_SYSTICK_IRQHandler>:
/**
  * @brief  This function handles SYSTICK interrupt request.
  * @retval None
  */
void HAL_SYSTICK_IRQHandler(void)
{
 80006d6:	b580      	push	{r7, lr}
 80006d8:	af00      	add	r7, sp, #0
  HAL_SYSTICK_Callback();
 80006da:	f000 f802 	bl	80006e2 <HAL_SYSTICK_Callback>
}
 80006de:	bf00      	nop
 80006e0:	bd80      	pop	{r7, pc}

080006e2 <HAL_SYSTICK_Callback>:
/**
  * @brief  SYSTICK callback.
  * @retval None
  */
__weak void HAL_SYSTICK_Callback(void)
{
 80006e2:	b480      	push	{r7}
 80006e4:	af00      	add	r7, sp, #0
  /* NOTE : This function Should not be modified, when the callback is needed,
            the HAL_SYSTICK_Callback could be implemented in the user file
   */
}
 80006e6:	bf00      	nop
 80006e8:	46bd      	mov	sp, r7
 80006ea:	f85d 7b04 	ldr.w	r7, [sp], #4
 80006ee:	4770      	bx	lr

080006f0 <HAL_GPIO_Init>:
  * @param  GPIO_Init pointer to a GPIO_InitTypeDef structure that contains
  *         the configuration information for the specified GPIO peripheral.
  * @retval None
  */
void HAL_GPIO_Init(GPIO_TypeDef  *GPIOx, GPIO_InitTypeDef *GPIO_Init)
{
 80006f0:	b480      	push	{r7}
 80006f2:	b089      	sub	sp, #36	; 0x24
 80006f4:	af00      	add	r7, sp, #0
 80006f6:	6078      	str	r0, [r7, #4]
 80006f8:	6039      	str	r1, [r7, #0]
  uint32_t position;
  uint32_t ioposition = 0x00U;
 80006fa:	2300      	movs	r3, #0
 80006fc:	617b      	str	r3, [r7, #20]
  uint32_t iocurrent = 0x00U;
 80006fe:	2300      	movs	r3, #0
 8000700:	613b      	str	r3, [r7, #16]
  uint32_t temp = 0x00U;
 8000702:	2300      	movs	r3, #0
 8000704:	61bb      	str	r3, [r7, #24]
  assert_param(IS_GPIO_PIN(GPIO_Init->Pin));
  assert_param(IS_GPIO_MODE(GPIO_Init->Mode));
  assert_param(IS_GPIO_PULL(GPIO_Init->Pull));

  /* Configure the port pins */
  for(position = 0U; position < GPIO_NUMBER; position++)
 8000706:	2300      	movs	r3, #0
 8000708:	61fb      	str	r3, [r7, #28]
 800070a:	e16b      	b.n	80009e4 <HAL_GPIO_Init+0x2f4>
  {
    /* Get the IO position */
    ioposition = 0x01U << position;
 800070c:	2201      	movs	r2, #1
 800070e:	69fb      	ldr	r3, [r7, #28]
 8000710:	fa02 f303 	lsl.w	r3, r2, r3
 8000714:	617b      	str	r3, [r7, #20]
    /* Get the current IO position */
    iocurrent = (uint32_t)(GPIO_Init->Pin) & ioposition;
 8000716:	683b      	ldr	r3, [r7, #0]
 8000718:	681b      	ldr	r3, [r3, #0]
 800071a:	697a      	ldr	r2, [r7, #20]
 800071c:	4013      	ands	r3, r2
 800071e:	613b      	str	r3, [r7, #16]

    if(iocurrent == ioposition)
 8000720:	693a      	ldr	r2, [r7, #16]
 8000722:	697b      	ldr	r3, [r7, #20]
 8000724:	429a      	cmp	r2, r3
 8000726:	f040 815a 	bne.w	80009de <HAL_GPIO_Init+0x2ee>
    {
      /*--------------------- GPIO Mode Configuration ------------------------*/
      /* In case of Output or Alternate function mode selection */
      if((GPIO_Init->Mode == GPIO_MODE_OUTPUT_PP) || (GPIO_Init->Mode == GPIO_MODE_AF_PP) ||
 800072a:	683b      	ldr	r3, [r7, #0]
 800072c:	685b      	ldr	r3, [r3, #4]
 800072e:	2b01      	cmp	r3, #1
 8000730:	d00b      	beq.n	800074a <HAL_GPIO_Init+0x5a>
 8000732:	683b      	ldr	r3, [r7, #0]
 8000734:	685b      	ldr	r3, [r3, #4]
 8000736:	2b02      	cmp	r3, #2
 8000738:	d007      	beq.n	800074a <HAL_GPIO_Init+0x5a>
         (GPIO_Init->Mode == GPIO_MODE_OUTPUT_OD) || (GPIO_Init->Mode == GPIO_MODE_AF_OD))
 800073a:	683b      	ldr	r3, [r7, #0]
 800073c:	685b      	ldr	r3, [r3, #4]
      if((GPIO_Init->Mode == GPIO_MODE_OUTPUT_PP) || (GPIO_Init->Mode == GPIO_MODE_AF_PP) ||
 800073e:	2b11      	cmp	r3, #17
 8000740:	d003      	beq.n	800074a <HAL_GPIO_Init+0x5a>
         (GPIO_Init->Mode == GPIO_MODE_OUTPUT_OD) || (GPIO_Init->Mode == GPIO_MODE_AF_OD))
 8000742:	683b      	ldr	r3, [r7, #0]
 8000744:	685b      	ldr	r3, [r3, #4]
 8000746:	2b12      	cmp	r3, #18
 8000748:	d130      	bne.n	80007ac <HAL_GPIO_Init+0xbc>
      {
        /* Check the Speed parameter */
        assert_param(IS_GPIO_SPEED(GPIO_Init->Speed));
        /* Configure the IO Speed */
        temp = GPIOx->OSPEEDR; 
 800074a:	687b      	ldr	r3, [r7, #4]
 800074c:	689b      	ldr	r3, [r3, #8]
 800074e:	61bb      	str	r3, [r7, #24]
        temp &= ~(GPIO_OSPEEDER_OSPEEDR0 << (position * 2U));
 8000750:	69fb      	ldr	r3, [r7, #28]
 8000752:	005b      	lsls	r3, r3, #1
 8000754:	2203      	movs	r2, #3
 8000756:	fa02 f303 	lsl.w	r3, r2, r3
 800075a:	43db      	mvns	r3, r3
 800075c:	69ba      	ldr	r2, [r7, #24]
 800075e:	4013      	ands	r3, r2
 8000760:	61bb      	str	r3, [r7, #24]
        temp |= (GPIO_Init->Speed << (position * 2U));
 8000762:	683b      	ldr	r3, [r7, #0]
 8000764:	68da      	ldr	r2, [r3, #12]
 8000766:	69fb      	ldr	r3, [r7, #28]
 8000768:	005b      	lsls	r3, r3, #1
 800076a:	fa02 f303 	lsl.w	r3, r2, r3
 800076e:	69ba      	ldr	r2, [r7, #24]
 8000770:	4313      	orrs	r3, r2
 8000772:	61bb      	str	r3, [r7, #24]
        GPIOx->OSPEEDR = temp;
 8000774:	687b      	ldr	r3, [r7, #4]
 8000776:	69ba      	ldr	r2, [r7, #24]
 8000778:	609a      	str	r2, [r3, #8]

        /* Configure the IO Output Type */
        temp = GPIOx->OTYPER;
 800077a:	687b      	ldr	r3, [r7, #4]
 800077c:	685b      	ldr	r3, [r3, #4]
 800077e:	61bb      	str	r3, [r7, #24]
        temp &= ~(GPIO_OTYPER_OT_0 << position) ;
 8000780:	2201      	movs	r2, #1
 8000782:	69fb      	ldr	r3, [r7, #28]
 8000784:	fa02 f303 	lsl.w	r3, r2, r3
 8000788:	43db      	mvns	r3, r3
 800078a:	69ba      	ldr	r2, [r7, #24]
 800078c:	4013      	ands	r3, r2
 800078e:	61bb      	str	r3, [r7, #24]
        temp |= (((GPIO_Init->Mode & GPIO_OUTPUT_TYPE) >> 4U) << position);
 8000790:	683b      	ldr	r3, [r7, #0]
 8000792:	685b      	ldr	r3, [r3, #4]
 8000794:	091b      	lsrs	r3, r3, #4
 8000796:	f003 0201 	and.w	r2, r3, #1
 800079a:	69fb      	ldr	r3, [r7, #28]
 800079c:	fa02 f303 	lsl.w	r3, r2, r3
 80007a0:	69ba      	ldr	r2, [r7, #24]
 80007a2:	4313      	orrs	r3, r2
 80007a4:	61bb      	str	r3, [r7, #24]
        GPIOx->OTYPER = temp;
 80007a6:	687b      	ldr	r3, [r7, #4]
 80007a8:	69ba      	ldr	r2, [r7, #24]
 80007aa:	605a      	str	r2, [r3, #4]
       }

      /* Activate the Pull-up or Pull down resistor for the current IO */
      temp = GPIOx->PUPDR;
 80007ac:	687b      	ldr	r3, [r7, #4]
 80007ae:	68db      	ldr	r3, [r3, #12]
 80007b0:	61bb      	str	r3, [r7, #24]
      temp &= ~(GPIO_PUPDR_PUPDR0 << (position * 2U));
 80007b2:	69fb      	ldr	r3, [r7, #28]
 80007b4:	005b      	lsls	r3, r3, #1
 80007b6:	2203      	movs	r2, #3
 80007b8:	fa02 f303 	lsl.w	r3, r2, r3
 80007bc:	43db      	mvns	r3, r3
 80007be:	69ba      	ldr	r2, [r7, #24]
 80007c0:	4013      	ands	r3, r2
 80007c2:	61bb      	str	r3, [r7, #24]
      temp |= ((GPIO_Init->Pull) << (position * 2U));
 80007c4:	683b      	ldr	r3, [r7, #0]
 80007c6:	689a      	ldr	r2, [r3, #8]
 80007c8:	69fb      	ldr	r3, [r7, #28]
 80007ca:	005b      	lsls	r3, r3, #1
 80007cc:	fa02 f303 	lsl.w	r3, r2, r3
 80007d0:	69ba      	ldr	r2, [r7, #24]
 80007d2:	4313      	orrs	r3, r2
 80007d4:	61bb      	str	r3, [r7, #24]
      GPIOx->PUPDR = temp;
 80007d6:	687b      	ldr	r3, [r7, #4]
 80007d8:	69ba      	ldr	r2, [r7, #24]
 80007da:	60da      	str	r2, [r3, #12]

      /* In case of Alternate function mode selection */
      if((GPIO_Init->Mode == GPIO_MODE_AF_PP) || (GPIO_Init->Mode == GPIO_MODE_AF_OD))
 80007dc:	683b      	ldr	r3, [r7, #0]
 80007de:	685b      	ldr	r3, [r3, #4]
 80007e0:	2b02      	cmp	r3, #2
 80007e2:	d003      	beq.n	80007ec <HAL_GPIO_Init+0xfc>
 80007e4:	683b      	ldr	r3, [r7, #0]
 80007e6:	685b      	ldr	r3, [r3, #4]
 80007e8:	2b12      	cmp	r3, #18
 80007ea:	d123      	bne.n	8000834 <HAL_GPIO_Init+0x144>
      {
        /* Check the Alternate function parameter */
        assert_param(IS_GPIO_AF(GPIO_Init->Alternate));
        /* Configure Alternate function mapped with the current IO */
        temp = GPIOx->AFR[position >> 3U];
 80007ec:	69fb      	ldr	r3, [r7, #28]
 80007ee:	08da      	lsrs	r2, r3, #3
 80007f0:	687b      	ldr	r3, [r7, #4]
 80007f2:	3208      	adds	r2, #8
 80007f4:	f853 3022 	ldr.w	r3, [r3, r2, lsl #2]
 80007f8:	61bb      	str	r3, [r7, #24]
        temp &= ~(0xFU << ((uint32_t)(position & 0x07U) * 4U)) ;
 80007fa:	69fb      	ldr	r3, [r7, #28]
 80007fc:	f003 0307 	and.w	r3, r3, #7
 8000800:	009b      	lsls	r3, r3, #2
 8000802:	220f      	movs	r2, #15
 8000804:	fa02 f303 	lsl.w	r3, r2, r3
 8000808:	43db      	mvns	r3, r3
 800080a:	69ba      	ldr	r2, [r7, #24]
 800080c:	4013      	ands	r3, r2
 800080e:	61bb      	str	r3, [r7, #24]
        temp |= ((uint32_t)(GPIO_Init->Alternate) << (((uint32_t)position & 0x07U) * 4U));
 8000810:	683b      	ldr	r3, [r7, #0]
 8000812:	691a      	ldr	r2, [r3, #16]
 8000814:	69fb      	ldr	r3, [r7, #28]
 8000816:	f003 0307 	and.w	r3, r3, #7
 800081a:	009b      	lsls	r3, r3, #2
 800081c:	fa02 f303 	lsl.w	r3, r2, r3
 8000820:	69ba      	ldr	r2, [r7, #24]
 8000822:	4313      	orrs	r3, r2
 8000824:	61bb      	str	r3, [r7, #24]
        GPIOx->AFR[position >> 3U] = temp;
 8000826:	69fb      	ldr	r3, [r7, #28]
 8000828:	08da      	lsrs	r2, r3, #3
 800082a:	687b      	ldr	r3, [r7, #4]
 800082c:	3208      	adds	r2, #8
 800082e:	69b9      	ldr	r1, [r7, #24]
 8000830:	f843 1022 	str.w	r1, [r3, r2, lsl #2]
      }

      /* Configure IO Direction mode (Input, Output, Alternate or Analog) */
      temp = GPIOx->MODER;
 8000834:	687b      	ldr	r3, [r7, #4]
 8000836:	681b      	ldr	r3, [r3, #0]
 8000838:	61bb      	str	r3, [r7, #24]
      temp &= ~(GPIO_MODER_MODER0 << (position * 2U));
 800083a:	69fb      	ldr	r3, [r7, #28]
 800083c:	005b      	lsls	r3, r3, #1
 800083e:	2203      	movs	r2, #3
 8000840:	fa02 f303 	lsl.w	r3, r2, r3
 8000844:	43db      	mvns	r3, r3
 8000846:	69ba      	ldr	r2, [r7, #24]
 8000848:	4013      	ands	r3, r2
 800084a:	61bb      	str	r3, [r7, #24]
      temp |= ((GPIO_Init->Mode & GPIO_MODE) << (position * 2U));
 800084c:	683b      	ldr	r3, [r7, #0]
 800084e:	685b      	ldr	r3, [r3, #4]
 8000850:	f003 0203 	and.w	r2, r3, #3
 8000854:	69fb      	ldr	r3, [r7, #28]
 8000856:	005b      	lsls	r3, r3, #1
 8000858:	fa02 f303 	lsl.w	r3, r2, r3
 800085c:	69ba      	ldr	r2, [r7, #24]
 800085e:	4313      	orrs	r3, r2
 8000860:	61bb      	str	r3, [r7, #24]
      GPIOx->MODER = temp;
 8000862:	687b      	ldr	r3, [r7, #4]
 8000864:	69ba      	ldr	r2, [r7, #24]
 8000866:	601a      	str	r2, [r3, #0]

      /*--------------------- EXTI Mode Configuration ------------------------*/
      /* Configure the External Interrupt or event for the current IO */
      if((GPIO_Init->Mode & EXTI_MODE) == EXTI_MODE)
 8000868:	683b      	ldr	r3, [r7, #0]
 800086a:	685b      	ldr	r3, [r3, #4]
 800086c:	f003 5380 	and.w	r3, r3, #268435456	; 0x10000000
 8000870:	2b00      	cmp	r3, #0
 8000872:	f000 80b4 	beq.w	80009de <HAL_GPIO_Init+0x2ee>
      {
        /* Enable SYSCFG Clock */
        __HAL_RCC_SYSCFG_CLK_ENABLE();
 8000876:	2300      	movs	r3, #0
 8000878:	60fb      	str	r3, [r7, #12]
 800087a:	4b5f      	ldr	r3, [pc, #380]	; (80009f8 <HAL_GPIO_Init+0x308>)
 800087c:	6c5b      	ldr	r3, [r3, #68]	; 0x44
 800087e:	4a5e      	ldr	r2, [pc, #376]	; (80009f8 <HAL_GPIO_Init+0x308>)
 8000880:	f443 4380 	orr.w	r3, r3, #16384	; 0x4000
 8000884:	6453      	str	r3, [r2, #68]	; 0x44
 8000886:	4b5c      	ldr	r3, [pc, #368]	; (80009f8 <HAL_GPIO_Init+0x308>)
 8000888:	6c5b      	ldr	r3, [r3, #68]	; 0x44
 800088a:	f403 4380 	and.w	r3, r3, #16384	; 0x4000
 800088e:	60fb      	str	r3, [r7, #12]
 8000890:	68fb      	ldr	r3, [r7, #12]

        temp = SYSCFG->EXTICR[position >> 2U];
 8000892:	4a5a      	ldr	r2, [pc, #360]	; (80009fc <HAL_GPIO_Init+0x30c>)
 8000894:	69fb      	ldr	r3, [r7, #28]
 8000896:	089b      	lsrs	r3, r3, #2
 8000898:	3302      	adds	r3, #2
 800089a:	f852 3023 	ldr.w	r3, [r2, r3, lsl #2]
 800089e:	61bb      	str	r3, [r7, #24]
        temp &= ~(0x0FU << (4U * (position & 0x03U)));
 80008a0:	69fb      	ldr	r3, [r7, #28]
 80008a2:	f003 0303 	and.w	r3, r3, #3
 80008a6:	009b      	lsls	r3, r3, #2
 80008a8:	220f      	movs	r2, #15
 80008aa:	fa02 f303 	lsl.w	r3, r2, r3
 80008ae:	43db      	mvns	r3, r3
 80008b0:	69ba      	ldr	r2, [r7, #24]
 80008b2:	4013      	ands	r3, r2
 80008b4:	61bb      	str	r3, [r7, #24]
        temp |= ((uint32_t)(GPIO_GET_INDEX(GPIOx)) << (4U * (position & 0x03U)));
 80008b6:	687b      	ldr	r3, [r7, #4]
 80008b8:	4a51      	ldr	r2, [pc, #324]	; (8000a00 <HAL_GPIO_Init+0x310>)
 80008ba:	4293      	cmp	r3, r2
 80008bc:	d02b      	beq.n	8000916 <HAL_GPIO_Init+0x226>
 80008be:	687b      	ldr	r3, [r7, #4]
 80008c0:	4a50      	ldr	r2, [pc, #320]	; (8000a04 <HAL_GPIO_Init+0x314>)
 80008c2:	4293      	cmp	r3, r2
 80008c4:	d025      	beq.n	8000912 <HAL_GPIO_Init+0x222>
 80008c6:	687b      	ldr	r3, [r7, #4]
 80008c8:	4a4f      	ldr	r2, [pc, #316]	; (8000a08 <HAL_GPIO_Init+0x318>)
 80008ca:	4293      	cmp	r3, r2
 80008cc:	d01f      	beq.n	800090e <HAL_GPIO_Init+0x21e>
 80008ce:	687b      	ldr	r3, [r7, #4]
 80008d0:	4a4e      	ldr	r2, [pc, #312]	; (8000a0c <HAL_GPIO_Init+0x31c>)
 80008d2:	4293      	cmp	r3, r2
 80008d4:	d019      	beq.n	800090a <HAL_GPIO_Init+0x21a>
 80008d6:	687b      	ldr	r3, [r7, #4]
 80008d8:	4a4d      	ldr	r2, [pc, #308]	; (8000a10 <HAL_GPIO_Init+0x320>)
 80008da:	4293      	cmp	r3, r2
 80008dc:	d013      	beq.n	8000906 <HAL_GPIO_Init+0x216>
 80008de:	687b      	ldr	r3, [r7, #4]
 80008e0:	4a4c      	ldr	r2, [pc, #304]	; (8000a14 <HAL_GPIO_Init+0x324>)
 80008e2:	4293      	cmp	r3, r2
 80008e4:	d00d      	beq.n	8000902 <HAL_GPIO_Init+0x212>
 80008e6:	687b      	ldr	r3, [r7, #4]
 80008e8:	4a4b      	ldr	r2, [pc, #300]	; (8000a18 <HAL_GPIO_Init+0x328>)
 80008ea:	4293      	cmp	r3, r2
 80008ec:	d007      	beq.n	80008fe <HAL_GPIO_Init+0x20e>
 80008ee:	687b      	ldr	r3, [r7, #4]
 80008f0:	4a4a      	ldr	r2, [pc, #296]	; (8000a1c <HAL_GPIO_Init+0x32c>)
 80008f2:	4293      	cmp	r3, r2
 80008f4:	d101      	bne.n	80008fa <HAL_GPIO_Init+0x20a>
 80008f6:	2307      	movs	r3, #7
 80008f8:	e00e      	b.n	8000918 <HAL_GPIO_Init+0x228>
 80008fa:	2308      	movs	r3, #8
 80008fc:	e00c      	b.n	8000918 <HAL_GPIO_Init+0x228>
 80008fe:	2306      	movs	r3, #6
 8000900:	e00a      	b.n	8000918 <HAL_GPIO_Init+0x228>
 8000902:	2305      	movs	r3, #5
 8000904:	e008      	b.n	8000918 <HAL_GPIO_Init+0x228>
 8000906:	2304      	movs	r3, #4
 8000908:	e006      	b.n	8000918 <HAL_GPIO_Init+0x228>
 800090a:	2303      	movs	r3, #3
 800090c:	e004      	b.n	8000918 <HAL_GPIO_Init+0x228>
 800090e:	2302      	movs	r3, #2
 8000910:	e002      	b.n	8000918 <HAL_GPIO_Init+0x228>
 8000912:	2301      	movs	r3, #1
 8000914:	e000      	b.n	8000918 <HAL_GPIO_Init+0x228>
 8000916:	2300      	movs	r3, #0
 8000918:	69fa      	ldr	r2, [r7, #28]
 800091a:	f002 0203 	and.w	r2, r2, #3
 800091e:	0092      	lsls	r2, r2, #2
 8000920:	4093      	lsls	r3, r2
 8000922:	69ba      	ldr	r2, [r7, #24]
 8000924:	4313      	orrs	r3, r2
 8000926:	61bb      	str	r3, [r7, #24]
        SYSCFG->EXTICR[position >> 2U] = temp;
 8000928:	4934      	ldr	r1, [pc, #208]	; (80009fc <HAL_GPIO_Init+0x30c>)
 800092a:	69fb      	ldr	r3, [r7, #28]
 800092c:	089b      	lsrs	r3, r3, #2
 800092e:	3302      	adds	r3, #2
 8000930:	69ba      	ldr	r2, [r7, #24]
 8000932:	f841 2023 	str.w	r2, [r1, r3, lsl #2]

        /* Clear EXTI line configuration */
        temp = EXTI->IMR;
 8000936:	4b3a      	ldr	r3, [pc, #232]	; (8000a20 <HAL_GPIO_Init+0x330>)
 8000938:	681b      	ldr	r3, [r3, #0]
 800093a:	61bb      	str	r3, [r7, #24]
        temp &= ~((uint32_t)iocurrent);
 800093c:	693b      	ldr	r3, [r7, #16]
 800093e:	43db      	mvns	r3, r3
 8000940:	69ba      	ldr	r2, [r7, #24]
 8000942:	4013      	ands	r3, r2
 8000944:	61bb      	str	r3, [r7, #24]
        if((GPIO_Init->Mode & GPIO_MODE_IT) == GPIO_MODE_IT)
 8000946:	683b      	ldr	r3, [r7, #0]
 8000948:	685b      	ldr	r3, [r3, #4]
 800094a:	f403 3380 	and.w	r3, r3, #65536	; 0x10000
 800094e:	2b00      	cmp	r3, #0
 8000950:	d003      	beq.n	800095a <HAL_GPIO_Init+0x26a>
        {
          temp |= iocurrent;
 8000952:	69ba      	ldr	r2, [r7, #24]
 8000954:	693b      	ldr	r3, [r7, #16]
 8000956:	4313      	orrs	r3, r2
 8000958:	61bb      	str	r3, [r7, #24]
        }
        EXTI->IMR = temp;
 800095a:	4a31      	ldr	r2, [pc, #196]	; (8000a20 <HAL_GPIO_Init+0x330>)
 800095c:	69bb      	ldr	r3, [r7, #24]
 800095e:	6013      	str	r3, [r2, #0]

        temp = EXTI->EMR;
 8000960:	4b2f      	ldr	r3, [pc, #188]	; (8000a20 <HAL_GPIO_Init+0x330>)
 8000962:	685b      	ldr	r3, [r3, #4]
 8000964:	61bb      	str	r3, [r7, #24]
        temp &= ~((uint32_t)iocurrent);
 8000966:	693b      	ldr	r3, [r7, #16]
 8000968:	43db      	mvns	r3, r3
 800096a:	69ba      	ldr	r2, [r7, #24]
 800096c:	4013      	ands	r3, r2
 800096e:	61bb      	str	r3, [r7, #24]
        if((GPIO_Init->Mode & GPIO_MODE_EVT) == GPIO_MODE_EVT)
 8000970:	683b      	ldr	r3, [r7, #0]
 8000972:	685b      	ldr	r3, [r3, #4]
 8000974:	f403 3300 	and.w	r3, r3, #131072	; 0x20000
 8000978:	2b00      	cmp	r3, #0
 800097a:	d003      	beq.n	8000984 <HAL_GPIO_Init+0x294>
        {
          temp |= iocurrent;
 800097c:	69ba      	ldr	r2, [r7, #24]
 800097e:	693b      	ldr	r3, [r7, #16]
 8000980:	4313      	orrs	r3, r2
 8000982:	61bb      	str	r3, [r7, #24]
        }
        EXTI->EMR = temp;
 8000984:	4a26      	ldr	r2, [pc, #152]	; (8000a20 <HAL_GPIO_Init+0x330>)
 8000986:	69bb      	ldr	r3, [r7, #24]
 8000988:	6053      	str	r3, [r2, #4]

        /* Clear Rising Falling edge configuration */
        temp = EXTI->RTSR;
 800098a:	4b25      	ldr	r3, [pc, #148]	; (8000a20 <HAL_GPIO_Init+0x330>)
 800098c:	689b      	ldr	r3, [r3, #8]
 800098e:	61bb      	str	r3, [r7, #24]
        temp &= ~((uint32_t)iocurrent);
 8000990:	693b      	ldr	r3, [r7, #16]
 8000992:	43db      	mvns	r3, r3
 8000994:	69ba      	ldr	r2, [r7, #24]
 8000996:	4013      	ands	r3, r2
 8000998:	61bb      	str	r3, [r7, #24]
        if((GPIO_Init->Mode & RISING_EDGE) == RISING_EDGE)
 800099a:	683b      	ldr	r3, [r7, #0]
 800099c:	685b      	ldr	r3, [r3, #4]
 800099e:	f403 1380 	and.w	r3, r3, #1048576	; 0x100000
 80009a2:	2b00      	cmp	r3, #0
 80009a4:	d003      	beq.n	80009ae <HAL_GPIO_Init+0x2be>
        {
          temp |= iocurrent;
 80009a6:	69ba      	ldr	r2, [r7, #24]
 80009a8:	693b      	ldr	r3, [r7, #16]
 80009aa:	4313      	orrs	r3, r2
 80009ac:	61bb      	str	r3, [r7, #24]
        }
        EXTI->RTSR = temp;
 80009ae:	4a1c      	ldr	r2, [pc, #112]	; (8000a20 <HAL_GPIO_Init+0x330>)
 80009b0:	69bb      	ldr	r3, [r7, #24]
 80009b2:	6093      	str	r3, [r2, #8]

        temp = EXTI->FTSR;
 80009b4:	4b1a      	ldr	r3, [pc, #104]	; (8000a20 <HAL_GPIO_Init+0x330>)
 80009b6:	68db      	ldr	r3, [r3, #12]
 80009b8:	61bb      	str	r3, [r7, #24]
        temp &= ~((uint32_t)iocurrent);
 80009ba:	693b      	ldr	r3, [r7, #16]
 80009bc:	43db      	mvns	r3, r3
 80009be:	69ba      	ldr	r2, [r7, #24]
 80009c0:	4013      	ands	r3, r2
 80009c2:	61bb      	str	r3, [r7, #24]
        if((GPIO_Init->Mode & FALLING_EDGE) == FALLING_EDGE)
 80009c4:	683b      	ldr	r3, [r7, #0]
 80009c6:	685b      	ldr	r3, [r3, #4]
 80009c8:	f403 1300 	and.w	r3, r3, #2097152	; 0x200000
 80009cc:	2b00      	cmp	r3, #0
 80009ce:	d003      	beq.n	80009d8 <HAL_GPIO_Init+0x2e8>
        {
          temp |= iocurrent;
 80009d0:	69ba      	ldr	r2, [r7, #24]
 80009d2:	693b      	ldr	r3, [r7, #16]
 80009d4:	4313      	orrs	r3, r2
 80009d6:	61bb      	str	r3, [r7, #24]
        }
        EXTI->FTSR = temp;
 80009d8:	4a11      	ldr	r2, [pc, #68]	; (8000a20 <HAL_GPIO_Init+0x330>)
 80009da:	69bb      	ldr	r3, [r7, #24]
 80009dc:	60d3      	str	r3, [r2, #12]
  for(position = 0U; position < GPIO_NUMBER; position++)
 80009de:	69fb      	ldr	r3, [r7, #28]
 80009e0:	3301      	adds	r3, #1
 80009e2:	61fb      	str	r3, [r7, #28]
 80009e4:	69fb      	ldr	r3, [r7, #28]
 80009e6:	2b0f      	cmp	r3, #15
 80009e8:	f67f ae90 	bls.w	800070c <HAL_GPIO_Init+0x1c>
      }
    }
  }
}
 80009ec:	bf00      	nop
 80009ee:	3724      	adds	r7, #36	; 0x24
 80009f0:	46bd      	mov	sp, r7
 80009f2:	f85d 7b04 	ldr.w	r7, [sp], #4
 80009f6:	4770      	bx	lr
 80009f8:	40023800 	.word	0x40023800
 80009fc:	40013800 	.word	0x40013800
 8000a00:	40020000 	.word	0x40020000
 8000a04:	40020400 	.word	0x40020400
 8000a08:	40020800 	.word	0x40020800
 8000a0c:	40020c00 	.word	0x40020c00
 8000a10:	40021000 	.word	0x40021000
 8000a14:	40021400 	.word	0x40021400
 8000a18:	40021800 	.word	0x40021800
 8000a1c:	40021c00 	.word	0x40021c00
 8000a20:	40013c00 	.word	0x40013c00

08000a24 <HAL_GPIO_TogglePin>:
  *                      x can be (A..I) to select the GPIO peripheral for STM32F40XX and STM32F427X devices.
  * @param  GPIO_Pin Specifies the pins to be toggled.
  * @retval None
  */
void HAL_GPIO_TogglePin(GPIO_TypeDef* GPIOx, uint16_t GPIO_Pin)
{
 8000a24:	b480      	push	{r7}
 8000a26:	b083      	sub	sp, #12
 8000a28:	af00      	add	r7, sp, #0
 8000a2a:	6078      	str	r0, [r7, #4]
 8000a2c:	460b      	mov	r3, r1
 8000a2e:	807b      	strh	r3, [r7, #2]
  /* Check the parameters */
  assert_param(IS_GPIO_PIN(GPIO_Pin));

  if ((GPIOx->ODR & GPIO_Pin) == GPIO_Pin)
 8000a30:	687b      	ldr	r3, [r7, #4]
 8000a32:	695a      	ldr	r2, [r3, #20]
 8000a34:	887b      	ldrh	r3, [r7, #2]
 8000a36:	401a      	ands	r2, r3
 8000a38:	887b      	ldrh	r3, [r7, #2]
 8000a3a:	429a      	cmp	r2, r3
 8000a3c:	d104      	bne.n	8000a48 <HAL_GPIO_TogglePin+0x24>
  {
    GPIOx->BSRR = (uint32_t)GPIO_Pin << GPIO_NUMBER;
 8000a3e:	887b      	ldrh	r3, [r7, #2]
 8000a40:	041a      	lsls	r2, r3, #16
 8000a42:	687b      	ldr	r3, [r7, #4]
 8000a44:	619a      	str	r2, [r3, #24]
  }
  else
  {
    GPIOx->BSRR = GPIO_Pin;
  }
}
 8000a46:	e002      	b.n	8000a4e <HAL_GPIO_TogglePin+0x2a>
    GPIOx->BSRR = GPIO_Pin;
 8000a48:	887a      	ldrh	r2, [r7, #2]
 8000a4a:	687b      	ldr	r3, [r7, #4]
 8000a4c:	619a      	str	r2, [r3, #24]
}
 8000a4e:	bf00      	nop
 8000a50:	370c      	adds	r7, #12
 8000a52:	46bd      	mov	sp, r7
 8000a54:	f85d 7b04 	ldr.w	r7, [sp], #4
 8000a58:	4770      	bx	lr

08000a5a <HAL_TIM_Base_Init>:
  *         Ex: call @ref HAL_TIM_Base_DeInit() before HAL_TIM_Base_Init()
  * @param  htim TIM Base handle
  * @retval HAL status
  */
HAL_StatusTypeDef HAL_TIM_Base_Init(TIM_HandleTypeDef *htim)
{
 8000a5a:	b580      	push	{r7, lr}
 8000a5c:	b082      	sub	sp, #8
 8000a5e:	af00      	add	r7, sp, #0
 8000a60:	6078      	str	r0, [r7, #4]
  /* Check the TIM handle allocation */
  if (htim == NULL)
 8000a62:	687b      	ldr	r3, [r7, #4]
 8000a64:	2b00      	cmp	r3, #0
 8000a66:	d101      	bne.n	8000a6c <HAL_TIM_Base_Init+0x12>
  {
    return HAL_ERROR;
 8000a68:	2301      	movs	r3, #1
 8000a6a:	e01d      	b.n	8000aa8 <HAL_TIM_Base_Init+0x4e>
  assert_param(IS_TIM_INSTANCE(htim->Instance));
  assert_param(IS_TIM_COUNTER_MODE(htim->Init.CounterMode));
  assert_param(IS_TIM_CLOCKDIVISION_DIV(htim->Init.ClockDivision));
  assert_param(IS_TIM_AUTORELOAD_PRELOAD(htim->Init.AutoReloadPreload));

  if (htim->State == HAL_TIM_STATE_RESET)
 8000a6c:	687b      	ldr	r3, [r7, #4]
 8000a6e:	f893 303d 	ldrb.w	r3, [r3, #61]	; 0x3d
 8000a72:	b2db      	uxtb	r3, r3
 8000a74:	2b00      	cmp	r3, #0
 8000a76:	d106      	bne.n	8000a86 <HAL_TIM_Base_Init+0x2c>
  {
    /* Allocate lock resource and initialize it */
    htim->Lock = HAL_UNLOCKED;
 8000a78:	687b      	ldr	r3, [r7, #4]
 8000a7a:	2200      	movs	r2, #0
 8000a7c:	f883 203c 	strb.w	r2, [r3, #60]	; 0x3c
    }
    /* Init the low level hardware : GPIO, CLOCK, NVIC */
    htim->Base_MspInitCallback(htim);
#else
    /* Init the low level hardware : GPIO, CLOCK, NVIC */
    HAL_TIM_Base_MspInit(htim);
 8000a80:	6878      	ldr	r0, [r7, #4]
 8000a82:	f7ff fc51 	bl	8000328 <HAL_TIM_Base_MspInit>
#endif /* USE_HAL_TIM_REGISTER_CALLBACKS */
  }

  /* Set the TIM state */
  htim->State = HAL_TIM_STATE_BUSY;
 8000a86:	687b      	ldr	r3, [r7, #4]
 8000a88:	2202      	movs	r2, #2
 8000a8a:	f883 203d 	strb.w	r2, [r3, #61]	; 0x3d

  /* Set the Time Base configuration */
  TIM_Base_SetConfig(htim->Instance, &htim->Init);
 8000a8e:	687b      	ldr	r3, [r7, #4]
 8000a90:	681a      	ldr	r2, [r3, #0]
 8000a92:	687b      	ldr	r3, [r7, #4]
 8000a94:	3304      	adds	r3, #4
 8000a96:	4619      	mov	r1, r3
 8000a98:	4610      	mov	r0, r2
 8000a9a:	f000 f82d 	bl	8000af8 <TIM_Base_SetConfig>

  /* Initialize the TIM state*/
  htim->State = HAL_TIM_STATE_READY;
 8000a9e:	687b      	ldr	r3, [r7, #4]
 8000aa0:	2201      	movs	r2, #1
 8000aa2:	f883 203d 	strb.w	r2, [r3, #61]	; 0x3d

  return HAL_OK;
 8000aa6:	2300      	movs	r3, #0
}
 8000aa8:	4618      	mov	r0, r3
 8000aaa:	3708      	adds	r7, #8
 8000aac:	46bd      	mov	sp, r7
 8000aae:	bd80      	pop	{r7, pc}

08000ab0 <HAL_TIM_Base_Start>:
  * @brief  Starts the TIM Base generation.
  * @param  htim TIM Base handle
  * @retval HAL status
  */
HAL_StatusTypeDef HAL_TIM_Base_Start(TIM_HandleTypeDef *htim)
{
 8000ab0:	b480      	push	{r7}
 8000ab2:	b085      	sub	sp, #20
 8000ab4:	af00      	add	r7, sp, #0
 8000ab6:	6078      	str	r0, [r7, #4]

  /* Check the parameters */
  assert_param(IS_TIM_INSTANCE(htim->Instance));

  /* Set the TIM state */
  htim->State = HAL_TIM_STATE_BUSY;
 8000ab8:	687b      	ldr	r3, [r7, #4]
 8000aba:	2202      	movs	r2, #2
 8000abc:	f883 203d 	strb.w	r2, [r3, #61]	; 0x3d

  /* Enable the Peripheral, except in trigger mode where enable is automatically done with trigger */
  tmpsmcr = htim->Instance->SMCR & TIM_SMCR_SMS;
 8000ac0:	687b      	ldr	r3, [r7, #4]
 8000ac2:	681b      	ldr	r3, [r3, #0]
 8000ac4:	689b      	ldr	r3, [r3, #8]
 8000ac6:	f003 0307 	and.w	r3, r3, #7
 8000aca:	60fb      	str	r3, [r7, #12]
  if (!IS_TIM_SLAVEMODE_TRIGGER_ENABLED(tmpsmcr))
 8000acc:	68fb      	ldr	r3, [r7, #12]
 8000ace:	2b06      	cmp	r3, #6
 8000ad0:	d007      	beq.n	8000ae2 <HAL_TIM_Base_Start+0x32>
  {
    __HAL_TIM_ENABLE(htim);
 8000ad2:	687b      	ldr	r3, [r7, #4]
 8000ad4:	681b      	ldr	r3, [r3, #0]
 8000ad6:	681a      	ldr	r2, [r3, #0]
 8000ad8:	687b      	ldr	r3, [r7, #4]
 8000ada:	681b      	ldr	r3, [r3, #0]
 8000adc:	f042 0201 	orr.w	r2, r2, #1
 8000ae0:	601a      	str	r2, [r3, #0]
  }

  /* Change the TIM state*/
  htim->State = HAL_TIM_STATE_READY;
 8000ae2:	687b      	ldr	r3, [r7, #4]
 8000ae4:	2201      	movs	r2, #1
 8000ae6:	f883 203d 	strb.w	r2, [r3, #61]	; 0x3d

  /* Return function status */
  return HAL_OK;
 8000aea:	2300      	movs	r3, #0
}
 8000aec:	4618      	mov	r0, r3
 8000aee:	3714      	adds	r7, #20
 8000af0:	46bd      	mov	sp, r7
 8000af2:	f85d 7b04 	ldr.w	r7, [sp], #4
 8000af6:	4770      	bx	lr

08000af8 <TIM_Base_SetConfig>:
  * @param  TIMx TIM peripheral
  * @param  Structure TIM Base configuration structure
  * @retval None
  */
void TIM_Base_SetConfig(TIM_TypeDef *TIMx, TIM_Base_InitTypeDef *Structure)
{
 8000af8:	b480      	push	{r7}
 8000afa:	b085      	sub	sp, #20
 8000afc:	af00      	add	r7, sp, #0
 8000afe:	6078      	str	r0, [r7, #4]
 8000b00:	6039      	str	r1, [r7, #0]
  uint32_t tmpcr1;
  tmpcr1 = TIMx->CR1;
 8000b02:	687b      	ldr	r3, [r7, #4]
 8000b04:	681b      	ldr	r3, [r3, #0]
 8000b06:	60fb      	str	r3, [r7, #12]

  /* Set TIM Time Base Unit parameters ---------------------------------------*/
  if (IS_TIM_COUNTER_MODE_SELECT_INSTANCE(TIMx))
 8000b08:	687b      	ldr	r3, [r7, #4]
 8000b0a:	4a40      	ldr	r2, [pc, #256]	; (8000c0c <TIM_Base_SetConfig+0x114>)
 8000b0c:	4293      	cmp	r3, r2
 8000b0e:	d013      	beq.n	8000b38 <TIM_Base_SetConfig+0x40>
 8000b10:	687b      	ldr	r3, [r7, #4]
 8000b12:	f1b3 4f80 	cmp.w	r3, #1073741824	; 0x40000000
 8000b16:	d00f      	beq.n	8000b38 <TIM_Base_SetConfig+0x40>
 8000b18:	687b      	ldr	r3, [r7, #4]
 8000b1a:	4a3d      	ldr	r2, [pc, #244]	; (8000c10 <TIM_Base_SetConfig+0x118>)
 8000b1c:	4293      	cmp	r3, r2
 8000b1e:	d00b      	beq.n	8000b38 <TIM_Base_SetConfig+0x40>
 8000b20:	687b      	ldr	r3, [r7, #4]
 8000b22:	4a3c      	ldr	r2, [pc, #240]	; (8000c14 <TIM_Base_SetConfig+0x11c>)
 8000b24:	4293      	cmp	r3, r2
 8000b26:	d007      	beq.n	8000b38 <TIM_Base_SetConfig+0x40>
 8000b28:	687b      	ldr	r3, [r7, #4]
 8000b2a:	4a3b      	ldr	r2, [pc, #236]	; (8000c18 <TIM_Base_SetConfig+0x120>)
 8000b2c:	4293      	cmp	r3, r2
 8000b2e:	d003      	beq.n	8000b38 <TIM_Base_SetConfig+0x40>
 8000b30:	687b      	ldr	r3, [r7, #4]
 8000b32:	4a3a      	ldr	r2, [pc, #232]	; (8000c1c <TIM_Base_SetConfig+0x124>)
 8000b34:	4293      	cmp	r3, r2
 8000b36:	d108      	bne.n	8000b4a <TIM_Base_SetConfig+0x52>
  {
    /* Select the Counter Mode */
    tmpcr1 &= ~(TIM_CR1_DIR | TIM_CR1_CMS);
 8000b38:	68fb      	ldr	r3, [r7, #12]
 8000b3a:	f023 0370 	bic.w	r3, r3, #112	; 0x70
 8000b3e:	60fb      	str	r3, [r7, #12]
    tmpcr1 |= Structure->CounterMode;
 8000b40:	683b      	ldr	r3, [r7, #0]
 8000b42:	685b      	ldr	r3, [r3, #4]
 8000b44:	68fa      	ldr	r2, [r7, #12]
 8000b46:	4313      	orrs	r3, r2
 8000b48:	60fb      	str	r3, [r7, #12]
  }

  if (IS_TIM_CLOCK_DIVISION_INSTANCE(TIMx))
 8000b4a:	687b      	ldr	r3, [r7, #4]
 8000b4c:	4a2f      	ldr	r2, [pc, #188]	; (8000c0c <TIM_Base_SetConfig+0x114>)
 8000b4e:	4293      	cmp	r3, r2
 8000b50:	d02b      	beq.n	8000baa <TIM_Base_SetConfig+0xb2>
 8000b52:	687b      	ldr	r3, [r7, #4]
 8000b54:	f1b3 4f80 	cmp.w	r3, #1073741824	; 0x40000000
 8000b58:	d027      	beq.n	8000baa <TIM_Base_SetConfig+0xb2>
 8000b5a:	687b      	ldr	r3, [r7, #4]
 8000b5c:	4a2c      	ldr	r2, [pc, #176]	; (8000c10 <TIM_Base_SetConfig+0x118>)
 8000b5e:	4293      	cmp	r3, r2
 8000b60:	d023      	beq.n	8000baa <TIM_Base_SetConfig+0xb2>
 8000b62:	687b      	ldr	r3, [r7, #4]
 8000b64:	4a2b      	ldr	r2, [pc, #172]	; (8000c14 <TIM_Base_SetConfig+0x11c>)
 8000b66:	4293      	cmp	r3, r2
 8000b68:	d01f      	beq.n	8000baa <TIM_Base_SetConfig+0xb2>
 8000b6a:	687b      	ldr	r3, [r7, #4]
 8000b6c:	4a2a      	ldr	r2, [pc, #168]	; (8000c18 <TIM_Base_SetConfig+0x120>)
 8000b6e:	4293      	cmp	r3, r2
 8000b70:	d01b      	beq.n	8000baa <TIM_Base_SetConfig+0xb2>
 8000b72:	687b      	ldr	r3, [r7, #4]
 8000b74:	4a29      	ldr	r2, [pc, #164]	; (8000c1c <TIM_Base_SetConfig+0x124>)
 8000b76:	4293      	cmp	r3, r2
 8000b78:	d017      	beq.n	8000baa <TIM_Base_SetConfig+0xb2>
 8000b7a:	687b      	ldr	r3, [r7, #4]
 8000b7c:	4a28      	ldr	r2, [pc, #160]	; (8000c20 <TIM_Base_SetConfig+0x128>)
 8000b7e:	4293      	cmp	r3, r2
 8000b80:	d013      	beq.n	8000baa <TIM_Base_SetConfig+0xb2>
 8000b82:	687b      	ldr	r3, [r7, #4]
 8000b84:	4a27      	ldr	r2, [pc, #156]	; (8000c24 <TIM_Base_SetConfig+0x12c>)
 8000b86:	4293      	cmp	r3, r2
 8000b88:	d00f      	beq.n	8000baa <TIM_Base_SetConfig+0xb2>
 8000b8a:	687b      	ldr	r3, [r7, #4]
 8000b8c:	4a26      	ldr	r2, [pc, #152]	; (8000c28 <TIM_Base_SetConfig+0x130>)
 8000b8e:	4293      	cmp	r3, r2
 8000b90:	d00b      	beq.n	8000baa <TIM_Base_SetConfig+0xb2>
 8000b92:	687b      	ldr	r3, [r7, #4]
 8000b94:	4a25      	ldr	r2, [pc, #148]	; (8000c2c <TIM_Base_SetConfig+0x134>)
 8000b96:	4293      	cmp	r3, r2
 8000b98:	d007      	beq.n	8000baa <TIM_Base_SetConfig+0xb2>
 8000b9a:	687b      	ldr	r3, [r7, #4]
 8000b9c:	4a24      	ldr	r2, [pc, #144]	; (8000c30 <TIM_Base_SetConfig+0x138>)
 8000b9e:	4293      	cmp	r3, r2
 8000ba0:	d003      	beq.n	8000baa <TIM_Base_SetConfig+0xb2>
 8000ba2:	687b      	ldr	r3, [r7, #4]
 8000ba4:	4a23      	ldr	r2, [pc, #140]	; (8000c34 <TIM_Base_SetConfig+0x13c>)
 8000ba6:	4293      	cmp	r3, r2
 8000ba8:	d108      	bne.n	8000bbc <TIM_Base_SetConfig+0xc4>
  {
    /* Set the clock division */
    tmpcr1 &= ~TIM_CR1_CKD;
 8000baa:	68fb      	ldr	r3, [r7, #12]
 8000bac:	f423 7340 	bic.w	r3, r3, #768	; 0x300
 8000bb0:	60fb      	str	r3, [r7, #12]
    tmpcr1 |= (uint32_t)Structure->ClockDivision;
 8000bb2:	683b      	ldr	r3, [r7, #0]
 8000bb4:	68db      	ldr	r3, [r3, #12]
 8000bb6:	68fa      	ldr	r2, [r7, #12]
 8000bb8:	4313      	orrs	r3, r2
 8000bba:	60fb      	str	r3, [r7, #12]
  }

  /* Set the auto-reload preload */
  MODIFY_REG(tmpcr1, TIM_CR1_ARPE, Structure->AutoReloadPreload);
 8000bbc:	68fb      	ldr	r3, [r7, #12]
 8000bbe:	f023 0280 	bic.w	r2, r3, #128	; 0x80
 8000bc2:	683b      	ldr	r3, [r7, #0]
 8000bc4:	695b      	ldr	r3, [r3, #20]
 8000bc6:	4313      	orrs	r3, r2
 8000bc8:	60fb      	str	r3, [r7, #12]

  TIMx->CR1 = tmpcr1;
 8000bca:	687b      	ldr	r3, [r7, #4]
 8000bcc:	68fa      	ldr	r2, [r7, #12]
 8000bce:	601a      	str	r2, [r3, #0]

  /* Set the Autoreload value */
  TIMx->ARR = (uint32_t)Structure->Period ;
 8000bd0:	683b      	ldr	r3, [r7, #0]
 8000bd2:	689a      	ldr	r2, [r3, #8]
 8000bd4:	687b      	ldr	r3, [r7, #4]
 8000bd6:	62da      	str	r2, [r3, #44]	; 0x2c

  /* Set the Prescaler value */
  TIMx->PSC = Structure->Prescaler;
 8000bd8:	683b      	ldr	r3, [r7, #0]
 8000bda:	681a      	ldr	r2, [r3, #0]
 8000bdc:	687b      	ldr	r3, [r7, #4]
 8000bde:	629a      	str	r2, [r3, #40]	; 0x28

  if (IS_TIM_REPETITION_COUNTER_INSTANCE(TIMx))
 8000be0:	687b      	ldr	r3, [r7, #4]
 8000be2:	4a0a      	ldr	r2, [pc, #40]	; (8000c0c <TIM_Base_SetConfig+0x114>)
 8000be4:	4293      	cmp	r3, r2
 8000be6:	d003      	beq.n	8000bf0 <TIM_Base_SetConfig+0xf8>
 8000be8:	687b      	ldr	r3, [r7, #4]
 8000bea:	4a0c      	ldr	r2, [pc, #48]	; (8000c1c <TIM_Base_SetConfig+0x124>)
 8000bec:	4293      	cmp	r3, r2
 8000bee:	d103      	bne.n	8000bf8 <TIM_Base_SetConfig+0x100>
  {
    /* Set the Repetition Counter value */
    TIMx->RCR = Structure->RepetitionCounter;
 8000bf0:	683b      	ldr	r3, [r7, #0]
 8000bf2:	691a      	ldr	r2, [r3, #16]
 8000bf4:	687b      	ldr	r3, [r7, #4]
 8000bf6:	631a      	str	r2, [r3, #48]	; 0x30
  }

  /* Generate an update event to reload the Prescaler
     and the repetition counter (only for advanced timer) value immediately */
  TIMx->EGR = TIM_EGR_UG;
 8000bf8:	687b      	ldr	r3, [r7, #4]
 8000bfa:	2201      	movs	r2, #1
 8000bfc:	615a      	str	r2, [r3, #20]
}
 8000bfe:	bf00      	nop
 8000c00:	3714      	adds	r7, #20
 8000c02:	46bd      	mov	sp, r7
 8000c04:	f85d 7b04 	ldr.w	r7, [sp], #4
 8000c08:	4770      	bx	lr
 8000c0a:	bf00      	nop
 8000c0c:	40010000 	.word	0x40010000
 8000c10:	40000400 	.word	0x40000400
 8000c14:	40000800 	.word	0x40000800
 8000c18:	40000c00 	.word	0x40000c00
 8000c1c:	40010400 	.word	0x40010400
 8000c20:	40014000 	.word	0x40014000
 8000c24:	40014400 	.word	0x40014400
 8000c28:	40014800 	.word	0x40014800
 8000c2c:	40001800 	.word	0x40001800
 8000c30:	40001c00 	.word	0x40001c00
 8000c34:	40002000 	.word	0x40002000

08000c38 <__libc_init_array>:
 8000c38:	b570      	push	{r4, r5, r6, lr}
 8000c3a:	4e0d      	ldr	r6, [pc, #52]	; (8000c70 <__libc_init_array+0x38>)
 8000c3c:	4c0d      	ldr	r4, [pc, #52]	; (8000c74 <__libc_init_array+0x3c>)
 8000c3e:	1ba4      	subs	r4, r4, r6
 8000c40:	10a4      	asrs	r4, r4, #2
 8000c42:	2500      	movs	r5, #0
 8000c44:	42a5      	cmp	r5, r4
 8000c46:	d109      	bne.n	8000c5c <__libc_init_array+0x24>
 8000c48:	4e0b      	ldr	r6, [pc, #44]	; (8000c78 <__libc_init_array+0x40>)
 8000c4a:	4c0c      	ldr	r4, [pc, #48]	; (8000c7c <__libc_init_array+0x44>)
 8000c4c:	f000 f818 	bl	8000c80 <_init>
 8000c50:	1ba4      	subs	r4, r4, r6
 8000c52:	10a4      	asrs	r4, r4, #2
 8000c54:	2500      	movs	r5, #0
 8000c56:	42a5      	cmp	r5, r4
 8000c58:	d105      	bne.n	8000c66 <__libc_init_array+0x2e>
 8000c5a:	bd70      	pop	{r4, r5, r6, pc}
 8000c5c:	f856 3025 	ldr.w	r3, [r6, r5, lsl #2]
 8000c60:	4798      	blx	r3
 8000c62:	3501      	adds	r5, #1
 8000c64:	e7ee      	b.n	8000c44 <__libc_init_array+0xc>
 8000c66:	f856 3025 	ldr.w	r3, [r6, r5, lsl #2]
 8000c6a:	4798      	blx	r3
 8000c6c:	3501      	adds	r5, #1
 8000c6e:	e7f2      	b.n	8000c56 <__libc_init_array+0x1e>
 8000c70:	08000c98 	.word	0x08000c98
 8000c74:	08000c98 	.word	0x08000c98
 8000c78:	08000c98 	.word	0x08000c98
 8000c7c:	08000c9c 	.word	0x08000c9c

08000c80 <_init>:
 8000c80:	b5f8      	push	{r3, r4, r5, r6, r7, lr}
 8000c82:	bf00      	nop
 8000c84:	bcf8      	pop	{r3, r4, r5, r6, r7}
 8000c86:	bc08      	pop	{r3}
 8000c88:	469e      	mov	lr, r3
 8000c8a:	4770      	bx	lr

08000c8c <_fini>:
 8000c8c:	b5f8      	push	{r3, r4, r5, r6, r7, lr}
 8000c8e:	bf00      	nop
 8000c90:	bcf8      	pop	{r3, r4, r5, r6, r7}
 8000c92:	bc08      	pop	{r3}
 8000c94:	469e      	mov	lr, r3
 8000c96:	4770      	bx	lr
