
005_PLL_HSE_168mhz.elf:     file format elf32-littlearm

Sections:
Idx Name          Size      VMA       LMA       File off  Algn
  0 .isr_vector   00000188  08000000  08000000  00010000  2**0
                  CONTENTS, ALLOC, LOAD, READONLY, DATA
  1 .text         00002914  08000190  08000190  00010190  2**4
                  CONTENTS, ALLOC, LOAD, READONLY, CODE
  2 .rodata       0000008c  08002aa4  08002aa4  00012aa4  2**2
                  CONTENTS, ALLOC, LOAD, READONLY, DATA
  3 .ARM.extab    00000000  08002b30  08002b30  00020070  2**0
                  CONTENTS
  4 .ARM          00000008  08002b30  08002b30  00012b30  2**2
                  CONTENTS, ALLOC, LOAD, READONLY, DATA
  5 .preinit_array 00000000  08002b38  08002b38  00020070  2**0
                  CONTENTS, ALLOC, LOAD, DATA
  6 .init_array   00000004  08002b38  08002b38  00012b38  2**2
                  CONTENTS, ALLOC, LOAD, DATA
  7 .fini_array   00000004  08002b3c  08002b3c  00012b3c  2**2
                  CONTENTS, ALLOC, LOAD, DATA
  8 .data         00000070  20000000  08002b40  00020000  2**2
                  CONTENTS, ALLOC, LOAD, DATA
  9 .bss          00000070  20000070  08002bb0  00020070  2**2
                  ALLOC
 10 ._user_heap_stack 00000600  200000e0  08002bb0  000200e0  2**0
                  ALLOC
 11 .ARM.attributes 00000030  00000000  00000000  00020070  2**0
                  CONTENTS, READONLY
 12 .debug_info   000068fb  00000000  00000000  000200a0  2**0
                  CONTENTS, READONLY, DEBUGGING
 13 .debug_abbrev 00001282  00000000  00000000  0002699b  2**0
                  CONTENTS, READONLY, DEBUGGING
 14 .debug_aranges 000005a8  00000000  00000000  00027c20  2**3
                  CONTENTS, READONLY, DEBUGGING
 15 .debug_ranges 00000500  00000000  00000000  000281c8  2**3
                  CONTENTS, READONLY, DEBUGGING
 16 .debug_macro  00020e75  00000000  00000000  000286c8  2**0
                  CONTENTS, READONLY, DEBUGGING
 17 .debug_line   00005bc5  00000000  00000000  0004953d  2**0
                  CONTENTS, READONLY, DEBUGGING
 18 .debug_str    000c6e04  00000000  00000000  0004f102  2**0
                  CONTENTS, READONLY, DEBUGGING
 19 .comment      0000007b  00000000  00000000  00115f06  2**0
                  CONTENTS, READONLY
 20 .debug_frame  0000190c  00000000  00000000  00115f84  2**2
                  CONTENTS, READONLY, DEBUGGING

Disassembly of section .text:

08000190 <__do_global_dtors_aux>:
 8000190:	b510      	push	{r4, lr}
 8000192:	4c05      	ldr	r4, [pc, #20]	; (80001a8 <__do_global_dtors_aux+0x18>)
 8000194:	7823      	ldrb	r3, [r4, #0]
 8000196:	b933      	cbnz	r3, 80001a6 <__do_global_dtors_aux+0x16>
 8000198:	4b04      	ldr	r3, [pc, #16]	; (80001ac <__do_global_dtors_aux+0x1c>)
 800019a:	b113      	cbz	r3, 80001a2 <__do_global_dtors_aux+0x12>
 800019c:	4804      	ldr	r0, [pc, #16]	; (80001b0 <__do_global_dtors_aux+0x20>)
 800019e:	f3af 8000 	nop.w
 80001a2:	2301      	movs	r3, #1
 80001a4:	7023      	strb	r3, [r4, #0]
 80001a6:	bd10      	pop	{r4, pc}
 80001a8:	20000070 	.word	0x20000070
 80001ac:	00000000 	.word	0x00000000
 80001b0:	08002a8c 	.word	0x08002a8c

080001b4 <frame_dummy>:
 80001b4:	b508      	push	{r3, lr}
 80001b6:	4b03      	ldr	r3, [pc, #12]	; (80001c4 <frame_dummy+0x10>)
 80001b8:	b11b      	cbz	r3, 80001c2 <frame_dummy+0xe>
 80001ba:	4903      	ldr	r1, [pc, #12]	; (80001c8 <frame_dummy+0x14>)
 80001bc:	4803      	ldr	r0, [pc, #12]	; (80001cc <frame_dummy+0x18>)
 80001be:	f3af 8000 	nop.w
 80001c2:	bd08      	pop	{r3, pc}
 80001c4:	00000000 	.word	0x00000000
 80001c8:	20000074 	.word	0x20000074
 80001cc:	08002a8c 	.word	0x08002a8c

080001d0 <strlen>:
 80001d0:	4603      	mov	r3, r0
 80001d2:	f813 2b01 	ldrb.w	r2, [r3], #1
 80001d6:	2a00      	cmp	r2, #0
 80001d8:	d1fb      	bne.n	80001d2 <strlen+0x2>
 80001da:	1a18      	subs	r0, r3, r0
 80001dc:	3801      	subs	r0, #1
 80001de:	4770      	bx	lr

080001e0 <memchr>:
 80001e0:	f001 01ff 	and.w	r1, r1, #255	; 0xff
 80001e4:	2a10      	cmp	r2, #16
 80001e6:	db2b      	blt.n	8000240 <memchr+0x60>
 80001e8:	f010 0f07 	tst.w	r0, #7
 80001ec:	d008      	beq.n	8000200 <memchr+0x20>
 80001ee:	f810 3b01 	ldrb.w	r3, [r0], #1
 80001f2:	3a01      	subs	r2, #1
 80001f4:	428b      	cmp	r3, r1
 80001f6:	d02d      	beq.n	8000254 <memchr+0x74>
 80001f8:	f010 0f07 	tst.w	r0, #7
 80001fc:	b342      	cbz	r2, 8000250 <memchr+0x70>
 80001fe:	d1f6      	bne.n	80001ee <memchr+0xe>
 8000200:	b4f0      	push	{r4, r5, r6, r7}
 8000202:	ea41 2101 	orr.w	r1, r1, r1, lsl #8
 8000206:	ea41 4101 	orr.w	r1, r1, r1, lsl #16
 800020a:	f022 0407 	bic.w	r4, r2, #7
 800020e:	f07f 0700 	mvns.w	r7, #0
 8000212:	2300      	movs	r3, #0
 8000214:	e8f0 5602 	ldrd	r5, r6, [r0], #8
 8000218:	3c08      	subs	r4, #8
 800021a:	ea85 0501 	eor.w	r5, r5, r1
 800021e:	ea86 0601 	eor.w	r6, r6, r1
 8000222:	fa85 f547 	uadd8	r5, r5, r7
 8000226:	faa3 f587 	sel	r5, r3, r7
 800022a:	fa86 f647 	uadd8	r6, r6, r7
 800022e:	faa5 f687 	sel	r6, r5, r7
 8000232:	b98e      	cbnz	r6, 8000258 <memchr+0x78>
 8000234:	d1ee      	bne.n	8000214 <memchr+0x34>
 8000236:	bcf0      	pop	{r4, r5, r6, r7}
 8000238:	f001 01ff 	and.w	r1, r1, #255	; 0xff
 800023c:	f002 0207 	and.w	r2, r2, #7
 8000240:	b132      	cbz	r2, 8000250 <memchr+0x70>
 8000242:	f810 3b01 	ldrb.w	r3, [r0], #1
 8000246:	3a01      	subs	r2, #1
 8000248:	ea83 0301 	eor.w	r3, r3, r1
 800024c:	b113      	cbz	r3, 8000254 <memchr+0x74>
 800024e:	d1f8      	bne.n	8000242 <memchr+0x62>
 8000250:	2000      	movs	r0, #0
 8000252:	4770      	bx	lr
 8000254:	3801      	subs	r0, #1
 8000256:	4770      	bx	lr
 8000258:	2d00      	cmp	r5, #0
 800025a:	bf06      	itte	eq
 800025c:	4635      	moveq	r5, r6
 800025e:	3803      	subeq	r0, #3
 8000260:	3807      	subne	r0, #7
 8000262:	f015 0f01 	tst.w	r5, #1
 8000266:	d107      	bne.n	8000278 <memchr+0x98>
 8000268:	3001      	adds	r0, #1
 800026a:	f415 7f80 	tst.w	r5, #256	; 0x100
 800026e:	bf02      	ittt	eq
 8000270:	3001      	addeq	r0, #1
 8000272:	f415 3fc0 	tsteq.w	r5, #98304	; 0x18000
 8000276:	3001      	addeq	r0, #1
 8000278:	bcf0      	pop	{r4, r5, r6, r7}
 800027a:	3801      	subs	r0, #1
 800027c:	4770      	bx	lr
 800027e:	bf00      	nop

08000280 <__aeabi_uldivmod>:
 8000280:	b953      	cbnz	r3, 8000298 <__aeabi_uldivmod+0x18>
 8000282:	b94a      	cbnz	r2, 8000298 <__aeabi_uldivmod+0x18>
 8000284:	2900      	cmp	r1, #0
 8000286:	bf08      	it	eq
 8000288:	2800      	cmpeq	r0, #0
 800028a:	bf1c      	itt	ne
 800028c:	f04f 31ff 	movne.w	r1, #4294967295
 8000290:	f04f 30ff 	movne.w	r0, #4294967295
 8000294:	f000 b972 	b.w	800057c <__aeabi_idiv0>
 8000298:	f1ad 0c08 	sub.w	ip, sp, #8
 800029c:	e96d ce04 	strd	ip, lr, [sp, #-16]!
 80002a0:	f000 f806 	bl	80002b0 <__udivmoddi4>
 80002a4:	f8dd e004 	ldr.w	lr, [sp, #4]
 80002a8:	e9dd 2302 	ldrd	r2, r3, [sp, #8]
 80002ac:	b004      	add	sp, #16
 80002ae:	4770      	bx	lr

080002b0 <__udivmoddi4>:
 80002b0:	e92d 47f0 	stmdb	sp!, {r4, r5, r6, r7, r8, r9, sl, lr}
 80002b4:	9e08      	ldr	r6, [sp, #32]
 80002b6:	4604      	mov	r4, r0
 80002b8:	4688      	mov	r8, r1
 80002ba:	2b00      	cmp	r3, #0
 80002bc:	d14b      	bne.n	8000356 <__udivmoddi4+0xa6>
 80002be:	428a      	cmp	r2, r1
 80002c0:	4615      	mov	r5, r2
 80002c2:	d967      	bls.n	8000394 <__udivmoddi4+0xe4>
 80002c4:	fab2 f282 	clz	r2, r2
 80002c8:	b14a      	cbz	r2, 80002de <__udivmoddi4+0x2e>
 80002ca:	f1c2 0720 	rsb	r7, r2, #32
 80002ce:	fa01 f302 	lsl.w	r3, r1, r2
 80002d2:	fa20 f707 	lsr.w	r7, r0, r7
 80002d6:	4095      	lsls	r5, r2
 80002d8:	ea47 0803 	orr.w	r8, r7, r3
 80002dc:	4094      	lsls	r4, r2
 80002de:	ea4f 4e15 	mov.w	lr, r5, lsr #16
 80002e2:	0c23      	lsrs	r3, r4, #16
 80002e4:	fbb8 f7fe 	udiv	r7, r8, lr
 80002e8:	fa1f fc85 	uxth.w	ip, r5
 80002ec:	fb0e 8817 	mls	r8, lr, r7, r8
 80002f0:	ea43 4308 	orr.w	r3, r3, r8, lsl #16
 80002f4:	fb07 f10c 	mul.w	r1, r7, ip
 80002f8:	4299      	cmp	r1, r3
 80002fa:	d909      	bls.n	8000310 <__udivmoddi4+0x60>
 80002fc:	18eb      	adds	r3, r5, r3
 80002fe:	f107 30ff 	add.w	r0, r7, #4294967295
 8000302:	f080 811b 	bcs.w	800053c <__udivmoddi4+0x28c>
 8000306:	4299      	cmp	r1, r3
 8000308:	f240 8118 	bls.w	800053c <__udivmoddi4+0x28c>
 800030c:	3f02      	subs	r7, #2
 800030e:	442b      	add	r3, r5
 8000310:	1a5b      	subs	r3, r3, r1
 8000312:	b2a4      	uxth	r4, r4
 8000314:	fbb3 f0fe 	udiv	r0, r3, lr
 8000318:	fb0e 3310 	mls	r3, lr, r0, r3
 800031c:	ea44 4403 	orr.w	r4, r4, r3, lsl #16
 8000320:	fb00 fc0c 	mul.w	ip, r0, ip
 8000324:	45a4      	cmp	ip, r4
 8000326:	d909      	bls.n	800033c <__udivmoddi4+0x8c>
 8000328:	192c      	adds	r4, r5, r4
 800032a:	f100 33ff 	add.w	r3, r0, #4294967295
 800032e:	f080 8107 	bcs.w	8000540 <__udivmoddi4+0x290>
 8000332:	45a4      	cmp	ip, r4
 8000334:	f240 8104 	bls.w	8000540 <__udivmoddi4+0x290>
 8000338:	3802      	subs	r0, #2
 800033a:	442c      	add	r4, r5
 800033c:	ea40 4007 	orr.w	r0, r0, r7, lsl #16
 8000340:	eba4 040c 	sub.w	r4, r4, ip
 8000344:	2700      	movs	r7, #0
 8000346:	b11e      	cbz	r6, 8000350 <__udivmoddi4+0xa0>
 8000348:	40d4      	lsrs	r4, r2
 800034a:	2300      	movs	r3, #0
 800034c:	e9c6 4300 	strd	r4, r3, [r6]
 8000350:	4639      	mov	r1, r7
 8000352:	e8bd 87f0 	ldmia.w	sp!, {r4, r5, r6, r7, r8, r9, sl, pc}
 8000356:	428b      	cmp	r3, r1
 8000358:	d909      	bls.n	800036e <__udivmoddi4+0xbe>
 800035a:	2e00      	cmp	r6, #0
 800035c:	f000 80eb 	beq.w	8000536 <__udivmoddi4+0x286>
 8000360:	2700      	movs	r7, #0
 8000362:	e9c6 0100 	strd	r0, r1, [r6]
 8000366:	4638      	mov	r0, r7
 8000368:	4639      	mov	r1, r7
 800036a:	e8bd 87f0 	ldmia.w	sp!, {r4, r5, r6, r7, r8, r9, sl, pc}
 800036e:	fab3 f783 	clz	r7, r3
 8000372:	2f00      	cmp	r7, #0
 8000374:	d147      	bne.n	8000406 <__udivmoddi4+0x156>
 8000376:	428b      	cmp	r3, r1
 8000378:	d302      	bcc.n	8000380 <__udivmoddi4+0xd0>
 800037a:	4282      	cmp	r2, r0
 800037c:	f200 80fa 	bhi.w	8000574 <__udivmoddi4+0x2c4>
 8000380:	1a84      	subs	r4, r0, r2
 8000382:	eb61 0303 	sbc.w	r3, r1, r3
 8000386:	2001      	movs	r0, #1
 8000388:	4698      	mov	r8, r3
 800038a:	2e00      	cmp	r6, #0
 800038c:	d0e0      	beq.n	8000350 <__udivmoddi4+0xa0>
 800038e:	e9c6 4800 	strd	r4, r8, [r6]
 8000392:	e7dd      	b.n	8000350 <__udivmoddi4+0xa0>
 8000394:	b902      	cbnz	r2, 8000398 <__udivmoddi4+0xe8>
 8000396:	deff      	udf	#255	; 0xff
 8000398:	fab2 f282 	clz	r2, r2
 800039c:	2a00      	cmp	r2, #0
 800039e:	f040 808f 	bne.w	80004c0 <__udivmoddi4+0x210>
 80003a2:	1b49      	subs	r1, r1, r5
 80003a4:	ea4f 4e15 	mov.w	lr, r5, lsr #16
 80003a8:	fa1f f885 	uxth.w	r8, r5
 80003ac:	2701      	movs	r7, #1
 80003ae:	fbb1 fcfe 	udiv	ip, r1, lr
 80003b2:	0c23      	lsrs	r3, r4, #16
 80003b4:	fb0e 111c 	mls	r1, lr, ip, r1
 80003b8:	ea43 4301 	orr.w	r3, r3, r1, lsl #16
 80003bc:	fb08 f10c 	mul.w	r1, r8, ip
 80003c0:	4299      	cmp	r1, r3
 80003c2:	d907      	bls.n	80003d4 <__udivmoddi4+0x124>
 80003c4:	18eb      	adds	r3, r5, r3
 80003c6:	f10c 30ff 	add.w	r0, ip, #4294967295
 80003ca:	d202      	bcs.n	80003d2 <__udivmoddi4+0x122>
 80003cc:	4299      	cmp	r1, r3
 80003ce:	f200 80cd 	bhi.w	800056c <__udivmoddi4+0x2bc>
 80003d2:	4684      	mov	ip, r0
 80003d4:	1a59      	subs	r1, r3, r1
 80003d6:	b2a3      	uxth	r3, r4
 80003d8:	fbb1 f0fe 	udiv	r0, r1, lr
 80003dc:	fb0e 1410 	mls	r4, lr, r0, r1
 80003e0:	ea43 4404 	orr.w	r4, r3, r4, lsl #16
 80003e4:	fb08 f800 	mul.w	r8, r8, r0
 80003e8:	45a0      	cmp	r8, r4
 80003ea:	d907      	bls.n	80003fc <__udivmoddi4+0x14c>
 80003ec:	192c      	adds	r4, r5, r4
 80003ee:	f100 33ff 	add.w	r3, r0, #4294967295
 80003f2:	d202      	bcs.n	80003fa <__udivmoddi4+0x14a>
 80003f4:	45a0      	cmp	r8, r4
 80003f6:	f200 80b6 	bhi.w	8000566 <__udivmoddi4+0x2b6>
 80003fa:	4618      	mov	r0, r3
 80003fc:	eba4 0408 	sub.w	r4, r4, r8
 8000400:	ea40 400c 	orr.w	r0, r0, ip, lsl #16
 8000404:	e79f      	b.n	8000346 <__udivmoddi4+0x96>
 8000406:	f1c7 0c20 	rsb	ip, r7, #32
 800040a:	40bb      	lsls	r3, r7
 800040c:	fa22 fe0c 	lsr.w	lr, r2, ip
 8000410:	ea4e 0e03 	orr.w	lr, lr, r3
 8000414:	fa01 f407 	lsl.w	r4, r1, r7
 8000418:	fa20 f50c 	lsr.w	r5, r0, ip
 800041c:	fa21 f30c 	lsr.w	r3, r1, ip
 8000420:	ea4f 481e 	mov.w	r8, lr, lsr #16
 8000424:	4325      	orrs	r5, r4
 8000426:	fbb3 f9f8 	udiv	r9, r3, r8
 800042a:	0c2c      	lsrs	r4, r5, #16
 800042c:	fb08 3319 	mls	r3, r8, r9, r3
 8000430:	fa1f fa8e 	uxth.w	sl, lr
 8000434:	ea44 4303 	orr.w	r3, r4, r3, lsl #16
 8000438:	fb09 f40a 	mul.w	r4, r9, sl
 800043c:	429c      	cmp	r4, r3
 800043e:	fa02 f207 	lsl.w	r2, r2, r7
 8000442:	fa00 f107 	lsl.w	r1, r0, r7
 8000446:	d90b      	bls.n	8000460 <__udivmoddi4+0x1b0>
 8000448:	eb1e 0303 	adds.w	r3, lr, r3
 800044c:	f109 30ff 	add.w	r0, r9, #4294967295
 8000450:	f080 8087 	bcs.w	8000562 <__udivmoddi4+0x2b2>
 8000454:	429c      	cmp	r4, r3
 8000456:	f240 8084 	bls.w	8000562 <__udivmoddi4+0x2b2>
 800045a:	f1a9 0902 	sub.w	r9, r9, #2
 800045e:	4473      	add	r3, lr
 8000460:	1b1b      	subs	r3, r3, r4
 8000462:	b2ad      	uxth	r5, r5
 8000464:	fbb3 f0f8 	udiv	r0, r3, r8
 8000468:	fb08 3310 	mls	r3, r8, r0, r3
 800046c:	ea45 4403 	orr.w	r4, r5, r3, lsl #16
 8000470:	fb00 fa0a 	mul.w	sl, r0, sl
 8000474:	45a2      	cmp	sl, r4
 8000476:	d908      	bls.n	800048a <__udivmoddi4+0x1da>
 8000478:	eb1e 0404 	adds.w	r4, lr, r4
 800047c:	f100 33ff 	add.w	r3, r0, #4294967295
 8000480:	d26b      	bcs.n	800055a <__udivmoddi4+0x2aa>
 8000482:	45a2      	cmp	sl, r4
 8000484:	d969      	bls.n	800055a <__udivmoddi4+0x2aa>
 8000486:	3802      	subs	r0, #2
 8000488:	4474      	add	r4, lr
 800048a:	ea40 4009 	orr.w	r0, r0, r9, lsl #16
 800048e:	fba0 8902 	umull	r8, r9, r0, r2
 8000492:	eba4 040a 	sub.w	r4, r4, sl
 8000496:	454c      	cmp	r4, r9
 8000498:	46c2      	mov	sl, r8
 800049a:	464b      	mov	r3, r9
 800049c:	d354      	bcc.n	8000548 <__udivmoddi4+0x298>
 800049e:	d051      	beq.n	8000544 <__udivmoddi4+0x294>
 80004a0:	2e00      	cmp	r6, #0
 80004a2:	d069      	beq.n	8000578 <__udivmoddi4+0x2c8>
 80004a4:	ebb1 050a 	subs.w	r5, r1, sl
 80004a8:	eb64 0403 	sbc.w	r4, r4, r3
 80004ac:	fa04 fc0c 	lsl.w	ip, r4, ip
 80004b0:	40fd      	lsrs	r5, r7
 80004b2:	40fc      	lsrs	r4, r7
 80004b4:	ea4c 0505 	orr.w	r5, ip, r5
 80004b8:	e9c6 5400 	strd	r5, r4, [r6]
 80004bc:	2700      	movs	r7, #0
 80004be:	e747      	b.n	8000350 <__udivmoddi4+0xa0>
 80004c0:	f1c2 0320 	rsb	r3, r2, #32
 80004c4:	fa20 f703 	lsr.w	r7, r0, r3
 80004c8:	4095      	lsls	r5, r2
 80004ca:	fa01 f002 	lsl.w	r0, r1, r2
 80004ce:	fa21 f303 	lsr.w	r3, r1, r3
 80004d2:	ea4f 4e15 	mov.w	lr, r5, lsr #16
 80004d6:	4338      	orrs	r0, r7
 80004d8:	0c01      	lsrs	r1, r0, #16
 80004da:	fbb3 f7fe 	udiv	r7, r3, lr
 80004de:	fa1f f885 	uxth.w	r8, r5
 80004e2:	fb0e 3317 	mls	r3, lr, r7, r3
 80004e6:	ea41 4103 	orr.w	r1, r1, r3, lsl #16
 80004ea:	fb07 f308 	mul.w	r3, r7, r8
 80004ee:	428b      	cmp	r3, r1
 80004f0:	fa04 f402 	lsl.w	r4, r4, r2
 80004f4:	d907      	bls.n	8000506 <__udivmoddi4+0x256>
 80004f6:	1869      	adds	r1, r5, r1
 80004f8:	f107 3cff 	add.w	ip, r7, #4294967295
 80004fc:	d22f      	bcs.n	800055e <__udivmoddi4+0x2ae>
 80004fe:	428b      	cmp	r3, r1
 8000500:	d92d      	bls.n	800055e <__udivmoddi4+0x2ae>
 8000502:	3f02      	subs	r7, #2
 8000504:	4429      	add	r1, r5
 8000506:	1acb      	subs	r3, r1, r3
 8000508:	b281      	uxth	r1, r0
 800050a:	fbb3 f0fe 	udiv	r0, r3, lr
 800050e:	fb0e 3310 	mls	r3, lr, r0, r3
 8000512:	ea41 4103 	orr.w	r1, r1, r3, lsl #16
 8000516:	fb00 f308 	mul.w	r3, r0, r8
 800051a:	428b      	cmp	r3, r1
 800051c:	d907      	bls.n	800052e <__udivmoddi4+0x27e>
 800051e:	1869      	adds	r1, r5, r1
 8000520:	f100 3cff 	add.w	ip, r0, #4294967295
 8000524:	d217      	bcs.n	8000556 <__udivmoddi4+0x2a6>
 8000526:	428b      	cmp	r3, r1
 8000528:	d915      	bls.n	8000556 <__udivmoddi4+0x2a6>
 800052a:	3802      	subs	r0, #2
 800052c:	4429      	add	r1, r5
 800052e:	1ac9      	subs	r1, r1, r3
 8000530:	ea40 4707 	orr.w	r7, r0, r7, lsl #16
 8000534:	e73b      	b.n	80003ae <__udivmoddi4+0xfe>
 8000536:	4637      	mov	r7, r6
 8000538:	4630      	mov	r0, r6
 800053a:	e709      	b.n	8000350 <__udivmoddi4+0xa0>
 800053c:	4607      	mov	r7, r0
 800053e:	e6e7      	b.n	8000310 <__udivmoddi4+0x60>
 8000540:	4618      	mov	r0, r3
 8000542:	e6fb      	b.n	800033c <__udivmoddi4+0x8c>
 8000544:	4541      	cmp	r1, r8
 8000546:	d2ab      	bcs.n	80004a0 <__udivmoddi4+0x1f0>
 8000548:	ebb8 0a02 	subs.w	sl, r8, r2
 800054c:	eb69 020e 	sbc.w	r2, r9, lr
 8000550:	3801      	subs	r0, #1
 8000552:	4613      	mov	r3, r2
 8000554:	e7a4      	b.n	80004a0 <__udivmoddi4+0x1f0>
 8000556:	4660      	mov	r0, ip
 8000558:	e7e9      	b.n	800052e <__udivmoddi4+0x27e>
 800055a:	4618      	mov	r0, r3
 800055c:	e795      	b.n	800048a <__udivmoddi4+0x1da>
 800055e:	4667      	mov	r7, ip
 8000560:	e7d1      	b.n	8000506 <__udivmoddi4+0x256>
 8000562:	4681      	mov	r9, r0
 8000564:	e77c      	b.n	8000460 <__udivmoddi4+0x1b0>
 8000566:	3802      	subs	r0, #2
 8000568:	442c      	add	r4, r5
 800056a:	e747      	b.n	80003fc <__udivmoddi4+0x14c>
 800056c:	f1ac 0c02 	sub.w	ip, ip, #2
 8000570:	442b      	add	r3, r5
 8000572:	e72f      	b.n	80003d4 <__udivmoddi4+0x124>
 8000574:	4638      	mov	r0, r7
 8000576:	e708      	b.n	800038a <__udivmoddi4+0xda>
 8000578:	4637      	mov	r7, r6
 800057a:	e6e9      	b.n	8000350 <__udivmoddi4+0xa0>

0800057c <__aeabi_idiv0>:
 800057c:	4770      	bx	lr
 800057e:	bf00      	nop

08000580 <SysTick_Handler>:
#include "main.h"



void SysTick_Handler (void)
{
 8000580:	b580      	push	{r7, lr}
 8000582:	af00      	add	r7, sp, #0
	HAL_IncTick();
 8000584:	f000 fa46 	bl	8000a14 <HAL_IncTick>
	HAL_SYSTICK_IRQHandler();
 8000588:	f000 fb92 	bl	8000cb0 <HAL_SYSTICK_IRQHandler>
}
 800058c:	bf00      	nop
 800058e:	bd80      	pop	{r7, pc}

08000590 <main>:




int main (void)
{
 8000590:	b580      	push	{r7, lr}
 8000592:	b09a      	sub	sp, #104	; 0x68
 8000594:	af00      	add	r7, sp, #0
	char msg[100];


    HAL_Init();
 8000596:	f000 f9eb 	bl	8000970 <HAL_Init>
    SystemClock_Config();
 800059a:	f000 f875 	bl	8000688 <SystemClock_Config>
	UART2_Init();
 800059e:	f000 f8db 	bl	8000758 <UART2_Init>



    memset(msg,0,sizeof(msg));
 80005a2:	1d3b      	adds	r3, r7, #4
 80005a4:	2264      	movs	r2, #100	; 0x64
 80005a6:	2100      	movs	r1, #0
 80005a8:	4618      	mov	r0, r3
 80005aa:	f001 fe61 	bl	8002270 <memset>
    sprintf(msg,"SYSCLK : %ld\r\n",HAL_RCC_GetSysClockFreq());
 80005ae:	f001 f87d 	bl	80016ac <HAL_RCC_GetSysClockFreq>
 80005b2:	4602      	mov	r2, r0
 80005b4:	1d3b      	adds	r3, r7, #4
 80005b6:	492f      	ldr	r1, [pc, #188]	; (8000674 <main+0xe4>)
 80005b8:	4618      	mov	r0, r3
 80005ba:	f001 fe61 	bl	8002280 <siprintf>
    HAL_UART_Transmit(&huart2, (uint8_t*)msg, strlen(msg), HAL_MAX_DELAY);
 80005be:	1d3b      	adds	r3, r7, #4
 80005c0:	4618      	mov	r0, r3
 80005c2:	f7ff fe05 	bl	80001d0 <strlen>
 80005c6:	4603      	mov	r3, r0
 80005c8:	b29a      	uxth	r2, r3
 80005ca:	1d39      	adds	r1, r7, #4
 80005cc:	f04f 33ff 	mov.w	r3, #4294967295
 80005d0:	4829      	ldr	r0, [pc, #164]	; (8000678 <main+0xe8>)
 80005d2:	f001 f9c4 	bl	800195e <HAL_UART_Transmit>

    memset(msg,0,sizeof(msg));
 80005d6:	1d3b      	adds	r3, r7, #4
 80005d8:	2264      	movs	r2, #100	; 0x64
 80005da:	2100      	movs	r1, #0
 80005dc:	4618      	mov	r0, r3
 80005de:	f001 fe47 	bl	8002270 <memset>
    sprintf(msg,"HCLK   : %ld\r\n",HAL_RCC_GetHCLKFreq());
 80005e2:	f001 f93b 	bl	800185c <HAL_RCC_GetHCLKFreq>
 80005e6:	4602      	mov	r2, r0
 80005e8:	1d3b      	adds	r3, r7, #4
 80005ea:	4924      	ldr	r1, [pc, #144]	; (800067c <main+0xec>)
 80005ec:	4618      	mov	r0, r3
 80005ee:	f001 fe47 	bl	8002280 <siprintf>
    HAL_UART_Transmit(&huart2, (uint8_t*)msg, strlen(msg), HAL_MAX_DELAY);
 80005f2:	1d3b      	adds	r3, r7, #4
 80005f4:	4618      	mov	r0, r3
 80005f6:	f7ff fdeb 	bl	80001d0 <strlen>
 80005fa:	4603      	mov	r3, r0
 80005fc:	b29a      	uxth	r2, r3
 80005fe:	1d39      	adds	r1, r7, #4
 8000600:	f04f 33ff 	mov.w	r3, #4294967295
 8000604:	481c      	ldr	r0, [pc, #112]	; (8000678 <main+0xe8>)
 8000606:	f001 f9aa 	bl	800195e <HAL_UART_Transmit>

    memset(msg,0,sizeof(msg));
 800060a:	1d3b      	adds	r3, r7, #4
 800060c:	2264      	movs	r2, #100	; 0x64
 800060e:	2100      	movs	r1, #0
 8000610:	4618      	mov	r0, r3
 8000612:	f001 fe2d 	bl	8002270 <memset>
    sprintf(msg,"PCLK1  : %ld\r\n",HAL_RCC_GetPCLK1Freq());
 8000616:	f001 f92d 	bl	8001874 <HAL_RCC_GetPCLK1Freq>
 800061a:	4602      	mov	r2, r0
 800061c:	1d3b      	adds	r3, r7, #4
 800061e:	4918      	ldr	r1, [pc, #96]	; (8000680 <main+0xf0>)
 8000620:	4618      	mov	r0, r3
 8000622:	f001 fe2d 	bl	8002280 <siprintf>
    HAL_UART_Transmit(&huart2, (uint8_t*)msg, strlen(msg), HAL_MAX_DELAY);
 8000626:	1d3b      	adds	r3, r7, #4
 8000628:	4618      	mov	r0, r3
 800062a:	f7ff fdd1 	bl	80001d0 <strlen>
 800062e:	4603      	mov	r3, r0
 8000630:	b29a      	uxth	r2, r3
 8000632:	1d39      	adds	r1, r7, #4
 8000634:	f04f 33ff 	mov.w	r3, #4294967295
 8000638:	480f      	ldr	r0, [pc, #60]	; (8000678 <main+0xe8>)
 800063a:	f001 f990 	bl	800195e <HAL_UART_Transmit>

    memset(msg,0,sizeof(msg));
 800063e:	1d3b      	adds	r3, r7, #4
 8000640:	2264      	movs	r2, #100	; 0x64
 8000642:	2100      	movs	r1, #0
 8000644:	4618      	mov	r0, r3
 8000646:	f001 fe13 	bl	8002270 <memset>
    sprintf(msg,"PCLK2  : %ld\r\n",HAL_RCC_GetPCLK2Freq());
 800064a:	f001 f927 	bl	800189c <HAL_RCC_GetPCLK2Freq>
 800064e:	4602      	mov	r2, r0
 8000650:	1d3b      	adds	r3, r7, #4
 8000652:	490c      	ldr	r1, [pc, #48]	; (8000684 <main+0xf4>)
 8000654:	4618      	mov	r0, r3
 8000656:	f001 fe13 	bl	8002280 <siprintf>
    HAL_UART_Transmit(&huart2, (uint8_t*)msg, strlen(msg), HAL_MAX_DELAY);
 800065a:	1d3b      	adds	r3, r7, #4
 800065c:	4618      	mov	r0, r3
 800065e:	f7ff fdb7 	bl	80001d0 <strlen>
 8000662:	4603      	mov	r3, r0
 8000664:	b29a      	uxth	r2, r3
 8000666:	1d39      	adds	r1, r7, #4
 8000668:	f04f 33ff 	mov.w	r3, #4294967295
 800066c:	4802      	ldr	r0, [pc, #8]	; (8000678 <main+0xe8>)
 800066e:	f001 f976 	bl	800195e <HAL_UART_Transmit>
	 while(1);
 8000672:	e7fe      	b.n	8000672 <main+0xe2>
 8000674:	08002aa4 	.word	0x08002aa4
 8000678:	20000098 	.word	0x20000098
 800067c:	08002ab4 	.word	0x08002ab4
 8000680:	08002ac4 	.word	0x08002ac4
 8000684:	08002ad4 	.word	0x08002ad4

08000688 <SystemClock_Config>:
	 return 0;
}


void SystemClock_Config()
{
 8000688:	b580      	push	{r7, lr}
 800068a:	b094      	sub	sp, #80	; 0x50
 800068c:	af00      	add	r7, sp, #0
	// enable clk for power controller
	__HAL_RCC_PWR_CLK_ENABLE();
 800068e:	2300      	movs	r3, #0
 8000690:	60bb      	str	r3, [r7, #8]
 8000692:	4b2e      	ldr	r3, [pc, #184]	; (800074c <SystemClock_Config+0xc4>)
 8000694:	6c1b      	ldr	r3, [r3, #64]	; 0x40
 8000696:	4a2d      	ldr	r2, [pc, #180]	; (800074c <SystemClock_Config+0xc4>)
 8000698:	f043 5380 	orr.w	r3, r3, #268435456	; 0x10000000
 800069c:	6413      	str	r3, [r2, #64]	; 0x40
 800069e:	4b2b      	ldr	r3, [pc, #172]	; (800074c <SystemClock_Config+0xc4>)
 80006a0:	6c1b      	ldr	r3, [r3, #64]	; 0x40
 80006a2:	f003 5380 	and.w	r3, r3, #268435456	; 0x10000000
 80006a6:	60bb      	str	r3, [r7, #8]
 80006a8:	68bb      	ldr	r3, [r7, #8]

	// set voltage scale to 1

	__HAL_PWR_VOLTAGESCALING_CONFIG(PWR_REGULATOR_VOLTAGE_SCALE1);
 80006aa:	2300      	movs	r3, #0
 80006ac:	607b      	str	r3, [r7, #4]
 80006ae:	4b28      	ldr	r3, [pc, #160]	; (8000750 <SystemClock_Config+0xc8>)
 80006b0:	681b      	ldr	r3, [r3, #0]
 80006b2:	4a27      	ldr	r2, [pc, #156]	; (8000750 <SystemClock_Config+0xc8>)
 80006b4:	f443 4380 	orr.w	r3, r3, #16384	; 0x4000
 80006b8:	6013      	str	r3, [r2, #0]
 80006ba:	4b25      	ldr	r3, [pc, #148]	; (8000750 <SystemClock_Config+0xc8>)
 80006bc:	681b      	ldr	r3, [r3, #0]
 80006be:	f403 4380 	and.w	r3, r3, #16384	; 0x4000
 80006c2:	607b      	str	r3, [r7, #4]
 80006c4:	687b      	ldr	r3, [r7, #4]


	RCC_OscInitTypeDef osc_init;
	RCC_ClkInitTypeDef clk_init;

	osc_init.OscillatorType     =RCC_OSCILLATORTYPE_HSE;
 80006c6:	2301      	movs	r3, #1
 80006c8:	623b      	str	r3, [r7, #32]
	osc_init.HSEState           =RCC_HSE_ON;
 80006ca:	f44f 3380 	mov.w	r3, #65536	; 0x10000
 80006ce:	627b      	str	r3, [r7, #36]	; 0x24

	osc_init.PLL.PLLState       =RCC_PLL_ON;
 80006d0:	2302      	movs	r3, #2
 80006d2:	63bb      	str	r3, [r7, #56]	; 0x38
	osc_init.PLL.PLLSource      =RCC_PLLSOURCE_HSE;
 80006d4:	f44f 0380 	mov.w	r3, #4194304	; 0x400000
 80006d8:	63fb      	str	r3, [r7, #60]	; 0x3c
	osc_init.PLL.PLLM           =4;
 80006da:	2304      	movs	r3, #4
 80006dc:	643b      	str	r3, [r7, #64]	; 0x40
	osc_init.PLL.PLLN           =168;
 80006de:	23a8      	movs	r3, #168	; 0xa8
 80006e0:	647b      	str	r3, [r7, #68]	; 0x44
	osc_init.PLL.PLLP           =RCC_PLLP_DIV2;
 80006e2:	2302      	movs	r3, #2
 80006e4:	64bb      	str	r3, [r7, #72]	; 0x48

	if (HAL_RCC_OscConfig(&osc_init)!= HAL_OK)
 80006e6:	f107 0320 	add.w	r3, r7, #32
 80006ea:	4618      	mov	r0, r3
 80006ec:	f000 fc88 	bl	8001000 <HAL_RCC_OscConfig>
 80006f0:	4603      	mov	r3, r0
 80006f2:	2b00      	cmp	r3, #0
 80006f4:	d001      	beq.n	80006fa <SystemClock_Config+0x72>
	{
		Error_handler();
 80006f6:	f000 f855 	bl	80007a4 <Error_handler>
	}

	clk_init.SYSCLKSource   = RCC_SYSCLKSOURCE_PLLCLK ;
 80006fa:	2302      	movs	r3, #2
 80006fc:	613b      	str	r3, [r7, #16]
	clk_init.ClockType =  RCC_CLOCKTYPE_SYSCLK |RCC_CLOCKTYPE_HCLK |\
 80006fe:	230f      	movs	r3, #15
 8000700:	60fb      	str	r3, [r7, #12]
                           RCC_CLOCKTYPE_PCLK1 |RCC_CLOCKTYPE_PCLK2;
	clk_init.AHBCLKDivider  = RCC_SYSCLK_DIV1;
 8000702:	2300      	movs	r3, #0
 8000704:	617b      	str	r3, [r7, #20]
    clk_init.APB1CLKDivider = RCC_HCLK_DIV2 ;
 8000706:	f44f 5380 	mov.w	r3, #4096	; 0x1000
 800070a:	61bb      	str	r3, [r7, #24]
    clk_init.APB2CLKDivider = RCC_HCLK_DIV2 ;
 800070c:	f44f 5380 	mov.w	r3, #4096	; 0x1000
 8000710:	61fb      	str	r3, [r7, #28]


	if (HAL_RCC_ClockConfig(&clk_init, FLASH_ACR_LATENCY_7WS)!= HAL_OK)
 8000712:	f107 030c 	add.w	r3, r7, #12
 8000716:	2107      	movs	r1, #7
 8000718:	4618      	mov	r0, r3
 800071a:	f000 fee1 	bl	80014e0 <HAL_RCC_ClockConfig>
 800071e:	4603      	mov	r3, r0
 8000720:	2b00      	cmp	r3, #0
 8000722:	d001      	beq.n	8000728 <SystemClock_Config+0xa0>
	{
		Error_handler();
 8000724:	f000 f83e 	bl	80007a4 <Error_handler>

    /*--------------------------------configure systick
     *
     *
     */
    HAL_SYSTICK_Config(HAL_RCC_GetHCLKFreq()/1000);              //4mhz/1000   hclk /1ms
 8000728:	f001 f898 	bl	800185c <HAL_RCC_GetHCLKFreq>
 800072c:	4602      	mov	r2, r0
 800072e:	4b09      	ldr	r3, [pc, #36]	; (8000754 <SystemClock_Config+0xcc>)
 8000730:	fba3 2302 	umull	r2, r3, r3, r2
 8000734:	099b      	lsrs	r3, r3, #6
 8000736:	4618      	mov	r0, r3
 8000738:	f000 fa91 	bl	8000c5e <HAL_SYSTICK_Config>
    HAL_SYSTICK_CLKSourceConfig(SYSTICK_CLKSOURCE_HCLK);
 800073c:	2004      	movs	r0, #4
 800073e:	f000 fa9b 	bl	8000c78 <HAL_SYSTICK_CLKSourceConfig>
}
 8000742:	bf00      	nop
 8000744:	3750      	adds	r7, #80	; 0x50
 8000746:	46bd      	mov	sp, r7
 8000748:	bd80      	pop	{r7, pc}
 800074a:	bf00      	nop
 800074c:	40023800 	.word	0x40023800
 8000750:	40007000 	.word	0x40007000
 8000754:	10624dd3 	.word	0x10624dd3

08000758 <UART2_Init>:


void UART2_Init(void)
{
 8000758:	b580      	push	{r7, lr}
 800075a:	af00      	add	r7, sp, #0
	huart2.Instance = USART2;
 800075c:	4b0f      	ldr	r3, [pc, #60]	; (800079c <UART2_Init+0x44>)
 800075e:	4a10      	ldr	r2, [pc, #64]	; (80007a0 <UART2_Init+0x48>)
 8000760:	601a      	str	r2, [r3, #0]
	huart2.Init.BaudRate=115200;
 8000762:	4b0e      	ldr	r3, [pc, #56]	; (800079c <UART2_Init+0x44>)
 8000764:	f44f 32e1 	mov.w	r2, #115200	; 0x1c200
 8000768:	605a      	str	r2, [r3, #4]
	huart2.Init.HwFlowCtl=UART_HWCONTROL_NONE ;
 800076a:	4b0c      	ldr	r3, [pc, #48]	; (800079c <UART2_Init+0x44>)
 800076c:	2200      	movs	r2, #0
 800076e:	619a      	str	r2, [r3, #24]
	huart2.Init.Mode=UART_MODE_TX_RX ;
 8000770:	4b0a      	ldr	r3, [pc, #40]	; (800079c <UART2_Init+0x44>)
 8000772:	220c      	movs	r2, #12
 8000774:	615a      	str	r2, [r3, #20]
//	huart2.Init.OverSampling=UART_OVERSAMPLING_16 ;
    huart2.Init.Parity=UART_PARITY_NONE ;
 8000776:	4b09      	ldr	r3, [pc, #36]	; (800079c <UART2_Init+0x44>)
 8000778:	2200      	movs	r2, #0
 800077a:	611a      	str	r2, [r3, #16]
    huart2.Init.StopBits=UART_STOPBITS_1 ;
 800077c:	4b07      	ldr	r3, [pc, #28]	; (800079c <UART2_Init+0x44>)
 800077e:	2200      	movs	r2, #0
 8000780:	60da      	str	r2, [r3, #12]
    huart2.Init.WordLength=UART_WORDLENGTH_8B ;
 8000782:	4b06      	ldr	r3, [pc, #24]	; (800079c <UART2_Init+0x44>)
 8000784:	2200      	movs	r2, #0
 8000786:	609a      	str	r2, [r3, #8]

   if ( HAL_UART_Init(&huart2) != HAL_OK)
 8000788:	4804      	ldr	r0, [pc, #16]	; (800079c <UART2_Init+0x44>)
 800078a:	f001 f89b 	bl	80018c4 <HAL_UART_Init>
 800078e:	4603      	mov	r3, r0
 8000790:	2b00      	cmp	r3, #0
 8000792:	d001      	beq.n	8000798 <UART2_Init+0x40>
   {
	   //there is a problem
	   Error_handler();
 8000794:	f000 f806 	bl	80007a4 <Error_handler>
   }
}
 8000798:	bf00      	nop
 800079a:	bd80      	pop	{r7, pc}
 800079c:	20000098 	.word	0x20000098
 80007a0:	40004400 	.word	0x40004400

080007a4 <Error_handler>:

void Error_handler()
{
 80007a4:	b480      	push	{r7}
 80007a6:	af00      	add	r7, sp, #0
	while(1);
 80007a8:	e7fe      	b.n	80007a8 <Error_handler+0x4>
	...

080007ac <HAL_MspInit>:
 *      Author: Developer
 */
#include "main.h"
#include "stm32f4xx_hal_gpio.h"
 void HAL_MspInit(void)
{
 80007ac:	b580      	push	{r7, lr}
 80007ae:	af00      	add	r7, sp, #0
  /* NOTE : This function should not be modified, when the callback is needed,
            the HAL_MspInit could be implemented in the user file
   */
	 //1.priority grouping
	 // we use default one it is under hal driver layer under hal_cortex.c
	 HAL_NVIC_SetPriorityGrouping(NVIC_PRIORITYGROUP_4);
 80007b0:	2003      	movs	r0, #3
 80007b2:	f000 fa1f 	bl	8000bf4 <HAL_NVIC_SetPriorityGrouping>
	 //2.system exceptions
	 SCB->SHCSR |=SCB_SHCSR_USGFAULTENA_Msk ; //enable usage
 80007b6:	4b13      	ldr	r3, [pc, #76]	; (8000804 <HAL_MspInit+0x58>)
 80007b8:	6a5b      	ldr	r3, [r3, #36]	; 0x24
 80007ba:	4a12      	ldr	r2, [pc, #72]	; (8000804 <HAL_MspInit+0x58>)
 80007bc:	f443 2380 	orr.w	r3, r3, #262144	; 0x40000
 80007c0:	6253      	str	r3, [r2, #36]	; 0x24
	 SCB->SHCSR |=SCB_SHCSR_BUSFAULTENA_Msk ; //mem
 80007c2:	4b10      	ldr	r3, [pc, #64]	; (8000804 <HAL_MspInit+0x58>)
 80007c4:	6a5b      	ldr	r3, [r3, #36]	; 0x24
 80007c6:	4a0f      	ldr	r2, [pc, #60]	; (8000804 <HAL_MspInit+0x58>)
 80007c8:	f443 3300 	orr.w	r3, r3, #131072	; 0x20000
 80007cc:	6253      	str	r3, [r2, #36]	; 0x24
	 SCB->SHCSR |=SCB_SHCSR_MEMFAULTENA_Msk ; //bus
 80007ce:	4b0d      	ldr	r3, [pc, #52]	; (8000804 <HAL_MspInit+0x58>)
 80007d0:	6a5b      	ldr	r3, [r3, #36]	; 0x24
 80007d2:	4a0c      	ldr	r2, [pc, #48]	; (8000804 <HAL_MspInit+0x58>)
 80007d4:	f443 3380 	orr.w	r3, r3, #65536	; 0x10000
 80007d8:	6253      	str	r3, [r2, #36]	; 0x24
	 //3.priority for system exceptions

	 HAL_NVIC_SetPriority(MemoryManagement_IRQn, 0, 0);
 80007da:	2200      	movs	r2, #0
 80007dc:	2100      	movs	r1, #0
 80007de:	f06f 000b 	mvn.w	r0, #11
 80007e2:	f000 fa12 	bl	8000c0a <HAL_NVIC_SetPriority>
	 HAL_NVIC_SetPriority(BusFault_IRQn, 0, 0);
 80007e6:	2200      	movs	r2, #0
 80007e8:	2100      	movs	r1, #0
 80007ea:	f06f 000a 	mvn.w	r0, #10
 80007ee:	f000 fa0c 	bl	8000c0a <HAL_NVIC_SetPriority>
	 HAL_NVIC_SetPriority(UsageFault_IRQn, 0, 0);
 80007f2:	2200      	movs	r2, #0
 80007f4:	2100      	movs	r1, #0
 80007f6:	f06f 0009 	mvn.w	r0, #9
 80007fa:	f000 fa06 	bl	8000c0a <HAL_NVIC_SetPriority>
}
 80007fe:	bf00      	nop
 8000800:	bd80      	pop	{r7, pc}
 8000802:	bf00      	nop
 8000804:	e000ed00 	.word	0xe000ed00

08000808 <HAL_UART_MspInit>:


  void HAL_UART_MspInit(UART_HandleTypeDef *huart)
 {
 8000808:	b580      	push	{r7, lr}
 800080a:	b08a      	sub	sp, #40	; 0x28
 800080c:	af00      	add	r7, sp, #0
 800080e:	6078      	str	r0, [r7, #4]
	  // low level initialization

	  //enable clock for usart2
	  __HAL_RCC_USART2_CLK_ENABLE();
 8000810:	2300      	movs	r3, #0
 8000812:	613b      	str	r3, [r7, #16]
 8000814:	4b1e      	ldr	r3, [pc, #120]	; (8000890 <HAL_UART_MspInit+0x88>)
 8000816:	6c1b      	ldr	r3, [r3, #64]	; 0x40
 8000818:	4a1d      	ldr	r2, [pc, #116]	; (8000890 <HAL_UART_MspInit+0x88>)
 800081a:	f443 3300 	orr.w	r3, r3, #131072	; 0x20000
 800081e:	6413      	str	r3, [r2, #64]	; 0x40
 8000820:	4b1b      	ldr	r3, [pc, #108]	; (8000890 <HAL_UART_MspInit+0x88>)
 8000822:	6c1b      	ldr	r3, [r3, #64]	; 0x40
 8000824:	f403 3300 	and.w	r3, r3, #131072	; 0x20000
 8000828:	613b      	str	r3, [r7, #16]
 800082a:	693b      	ldr	r3, [r7, #16]

	  //pin muxing

      __HAL_RCC_GPIOA_CLK_ENABLE();
 800082c:	2300      	movs	r3, #0
 800082e:	60fb      	str	r3, [r7, #12]
 8000830:	4b17      	ldr	r3, [pc, #92]	; (8000890 <HAL_UART_MspInit+0x88>)
 8000832:	6b1b      	ldr	r3, [r3, #48]	; 0x30
 8000834:	4a16      	ldr	r2, [pc, #88]	; (8000890 <HAL_UART_MspInit+0x88>)
 8000836:	f043 0301 	orr.w	r3, r3, #1
 800083a:	6313      	str	r3, [r2, #48]	; 0x30
 800083c:	4b14      	ldr	r3, [pc, #80]	; (8000890 <HAL_UART_MspInit+0x88>)
 800083e:	6b1b      	ldr	r3, [r3, #48]	; 0x30
 8000840:	f003 0301 	and.w	r3, r3, #1
 8000844:	60fb      	str	r3, [r7, #12]
 8000846:	68fb      	ldr	r3, [r7, #12]
	  GPIO_InitTypeDef gpioa_uart;
	  gpioa_uart.Pin =GPIO_PIN_2;
 8000848:	2304      	movs	r3, #4
 800084a:	617b      	str	r3, [r7, #20]
	  gpioa_uart.Mode =GPIO_MODE_AF_PP;
 800084c:	2302      	movs	r3, #2
 800084e:	61bb      	str	r3, [r7, #24]
	  gpioa_uart.Speed =GPIO_SPEED_FREQ_HIGH;
 8000850:	2302      	movs	r3, #2
 8000852:	623b      	str	r3, [r7, #32]
	  gpioa_uart.Pull=GPIO_PULLUP;
 8000854:	2301      	movs	r3, #1
 8000856:	61fb      	str	r3, [r7, #28]
	  gpioa_uart.Alternate=GPIO_AF7_USART2;
 8000858:	2307      	movs	r3, #7
 800085a:	627b      	str	r3, [r7, #36]	; 0x24

	  HAL_GPIO_Init(GPIOA, &gpioa_uart);
 800085c:	f107 0314 	add.w	r3, r7, #20
 8000860:	4619      	mov	r1, r3
 8000862:	480c      	ldr	r0, [pc, #48]	; (8000894 <HAL_UART_MspInit+0x8c>)
 8000864:	f000 fa32 	bl	8000ccc <HAL_GPIO_Init>

	  gpioa_uart.Pin =GPIO_PIN_3;
 8000868:	2308      	movs	r3, #8
 800086a:	617b      	str	r3, [r7, #20]
	  HAL_GPIO_Init(GPIOA, &gpioa_uart);
 800086c:	f107 0314 	add.w	r3, r7, #20
 8000870:	4619      	mov	r1, r3
 8000872:	4808      	ldr	r0, [pc, #32]	; (8000894 <HAL_UART_MspInit+0x8c>)
 8000874:	f000 fa2a 	bl	8000ccc <HAL_GPIO_Init>

	  //enable irq ,priority NVIC
	  HAL_NVIC_EnableIRQ(USART2_IRQn);
 8000878:	2026      	movs	r0, #38	; 0x26
 800087a:	f000 f9e2 	bl	8000c42 <HAL_NVIC_EnableIRQ>
	  HAL_NVIC_SetPriority(USART2_IRQn, 15, 0);
 800087e:	2200      	movs	r2, #0
 8000880:	210f      	movs	r1, #15
 8000882:	2026      	movs	r0, #38	; 0x26
 8000884:	f000 f9c1 	bl	8000c0a <HAL_NVIC_SetPriority>
 }
 8000888:	bf00      	nop
 800088a:	3728      	adds	r7, #40	; 0x28
 800088c:	46bd      	mov	sp, r7
 800088e:	bd80      	pop	{r7, pc}
 8000890:	40023800 	.word	0x40023800
 8000894:	40020000 	.word	0x40020000

08000898 <_sbrk>:
/**
 _sbrk
 Increase program data space. Malloc and related functions depend on this
**/
caddr_t _sbrk(int incr)
{
 8000898:	b580      	push	{r7, lr}
 800089a:	b084      	sub	sp, #16
 800089c:	af00      	add	r7, sp, #0
 800089e:	6078      	str	r0, [r7, #4]
	extern char end asm("end");
	static char *heap_end;
	char *prev_heap_end;

	if (heap_end == 0)
 80008a0:	4b11      	ldr	r3, [pc, #68]	; (80008e8 <_sbrk+0x50>)
 80008a2:	681b      	ldr	r3, [r3, #0]
 80008a4:	2b00      	cmp	r3, #0
 80008a6:	d102      	bne.n	80008ae <_sbrk+0x16>
		heap_end = &end;
 80008a8:	4b0f      	ldr	r3, [pc, #60]	; (80008e8 <_sbrk+0x50>)
 80008aa:	4a10      	ldr	r2, [pc, #64]	; (80008ec <_sbrk+0x54>)
 80008ac:	601a      	str	r2, [r3, #0]

	prev_heap_end = heap_end;
 80008ae:	4b0e      	ldr	r3, [pc, #56]	; (80008e8 <_sbrk+0x50>)
 80008b0:	681b      	ldr	r3, [r3, #0]
 80008b2:	60fb      	str	r3, [r7, #12]
	if (heap_end + incr > stack_ptr)
 80008b4:	4b0c      	ldr	r3, [pc, #48]	; (80008e8 <_sbrk+0x50>)
 80008b6:	681a      	ldr	r2, [r3, #0]
 80008b8:	687b      	ldr	r3, [r7, #4]
 80008ba:	4413      	add	r3, r2
 80008bc:	466a      	mov	r2, sp
 80008be:	4293      	cmp	r3, r2
 80008c0:	d907      	bls.n	80008d2 <_sbrk+0x3a>
	{
		errno = ENOMEM;
 80008c2:	f001 fcab 	bl	800221c <__errno>
 80008c6:	4602      	mov	r2, r0
 80008c8:	230c      	movs	r3, #12
 80008ca:	6013      	str	r3, [r2, #0]
		return (caddr_t) -1;
 80008cc:	f04f 33ff 	mov.w	r3, #4294967295
 80008d0:	e006      	b.n	80008e0 <_sbrk+0x48>
	}

	heap_end += incr;
 80008d2:	4b05      	ldr	r3, [pc, #20]	; (80008e8 <_sbrk+0x50>)
 80008d4:	681a      	ldr	r2, [r3, #0]
 80008d6:	687b      	ldr	r3, [r7, #4]
 80008d8:	4413      	add	r3, r2
 80008da:	4a03      	ldr	r2, [pc, #12]	; (80008e8 <_sbrk+0x50>)
 80008dc:	6013      	str	r3, [r2, #0]

	return (caddr_t) prev_heap_end;
 80008de:	68fb      	ldr	r3, [r7, #12]
}
 80008e0:	4618      	mov	r0, r3
 80008e2:	3710      	adds	r7, #16
 80008e4:	46bd      	mov	sp, r7
 80008e6:	bd80      	pop	{r7, pc}
 80008e8:	2000008c 	.word	0x2000008c
 80008ec:	200000e0 	.word	0x200000e0

080008f0 <SystemInit>:
  *         configuration.
  * @param  None
  * @retval None
  */
void SystemInit(void)
{
 80008f0:	b480      	push	{r7}
 80008f2:	af00      	add	r7, sp, #0
  /* FPU settings ------------------------------------------------------------*/
  #if (__FPU_PRESENT == 1) && (__FPU_USED == 1)
    SCB->CPACR |= ((3UL << 10*2)|(3UL << 11*2));  /* set CP10 and CP11 Full Access */
 80008f4:	4b08      	ldr	r3, [pc, #32]	; (8000918 <SystemInit+0x28>)
 80008f6:	f8d3 3088 	ldr.w	r3, [r3, #136]	; 0x88
 80008fa:	4a07      	ldr	r2, [pc, #28]	; (8000918 <SystemInit+0x28>)
 80008fc:	f443 0370 	orr.w	r3, r3, #15728640	; 0xf00000
 8000900:	f8c2 3088 	str.w	r3, [r2, #136]	; 0x88

  /* Configure the Vector Table location add offset address ------------------*/
#ifdef VECT_TAB_SRAM
  SCB->VTOR = SRAM_BASE | VECT_TAB_OFFSET; /* Vector Table Relocation in Internal SRAM */
#else
  SCB->VTOR = FLASH_BASE | VECT_TAB_OFFSET; /* Vector Table Relocation in Internal FLASH */
 8000904:	4b04      	ldr	r3, [pc, #16]	; (8000918 <SystemInit+0x28>)
 8000906:	f04f 6200 	mov.w	r2, #134217728	; 0x8000000
 800090a:	609a      	str	r2, [r3, #8]
#endif
}
 800090c:	bf00      	nop
 800090e:	46bd      	mov	sp, r7
 8000910:	f85d 7b04 	ldr.w	r7, [sp], #4
 8000914:	4770      	bx	lr
 8000916:	bf00      	nop
 8000918:	e000ed00 	.word	0xe000ed00

0800091c <Reset_Handler>:

    .section  .text.Reset_Handler
  .weak  Reset_Handler
  .type  Reset_Handler, %function
Reset_Handler:  
  ldr   sp, =_estack     /* set stack pointer */
 800091c:	f8df d034 	ldr.w	sp, [pc, #52]	; 8000954 <LoopFillZerobss+0x14>

/* Copy the data segment initializers from flash to SRAM */  
  movs  r1, #0
 8000920:	2100      	movs	r1, #0
  b  LoopCopyDataInit
 8000922:	e003      	b.n	800092c <LoopCopyDataInit>

08000924 <CopyDataInit>:

CopyDataInit:
  ldr  r3, =_sidata
 8000924:	4b0c      	ldr	r3, [pc, #48]	; (8000958 <LoopFillZerobss+0x18>)
  ldr  r3, [r3, r1]
 8000926:	585b      	ldr	r3, [r3, r1]
  str  r3, [r0, r1]
 8000928:	5043      	str	r3, [r0, r1]
  adds  r1, r1, #4
 800092a:	3104      	adds	r1, #4

0800092c <LoopCopyDataInit>:
    
LoopCopyDataInit:
  ldr  r0, =_sdata
 800092c:	480b      	ldr	r0, [pc, #44]	; (800095c <LoopFillZerobss+0x1c>)
  ldr  r3, =_edata
 800092e:	4b0c      	ldr	r3, [pc, #48]	; (8000960 <LoopFillZerobss+0x20>)
  adds  r2, r0, r1
 8000930:	1842      	adds	r2, r0, r1
  cmp  r2, r3
 8000932:	429a      	cmp	r2, r3
  bcc  CopyDataInit
 8000934:	d3f6      	bcc.n	8000924 <CopyDataInit>
  ldr  r2, =_sbss
 8000936:	4a0b      	ldr	r2, [pc, #44]	; (8000964 <LoopFillZerobss+0x24>)
  b  LoopFillZerobss
 8000938:	e002      	b.n	8000940 <LoopFillZerobss>

0800093a <FillZerobss>:
/* Zero fill the bss segment. */  
FillZerobss:
  movs  r3, #0
 800093a:	2300      	movs	r3, #0
  str  r3, [r2], #4
 800093c:	f842 3b04 	str.w	r3, [r2], #4

08000940 <LoopFillZerobss>:
    
LoopFillZerobss:
  ldr  r3, = _ebss
 8000940:	4b09      	ldr	r3, [pc, #36]	; (8000968 <LoopFillZerobss+0x28>)
  cmp  r2, r3
 8000942:	429a      	cmp	r2, r3
  bcc  FillZerobss
 8000944:	d3f9      	bcc.n	800093a <FillZerobss>

/* Call the clock system intitialization function.*/
  bl  SystemInit   
 8000946:	f7ff ffd3 	bl	80008f0 <SystemInit>
/* Call static constructors */
    bl __libc_init_array
 800094a:	f001 fc6d 	bl	8002228 <__libc_init_array>
/* Call the application's entry point.*/
  bl  main
 800094e:	f7ff fe1f 	bl	8000590 <main>
  bx  lr    
 8000952:	4770      	bx	lr
  ldr   sp, =_estack     /* set stack pointer */
 8000954:	20020000 	.word	0x20020000
  ldr  r3, =_sidata
 8000958:	08002b40 	.word	0x08002b40
  ldr  r0, =_sdata
 800095c:	20000000 	.word	0x20000000
  ldr  r3, =_edata
 8000960:	20000070 	.word	0x20000070
  ldr  r2, =_sbss
 8000964:	20000070 	.word	0x20000070
  ldr  r3, = _ebss
 8000968:	200000e0 	.word	0x200000e0

0800096c <ADC_IRQHandler>:
 * @retval None       
*/
    .section  .text.Default_Handler,"ax",%progbits
Default_Handler:
Infinite_Loop:
  b  Infinite_Loop
 800096c:	e7fe      	b.n	800096c <ADC_IRQHandler>
	...

08000970 <HAL_Init>:
  *         need to ensure that the SysTick time base is always set to 1 millisecond
  *         to have correct HAL operation.
  * @retval HAL status
  */
HAL_StatusTypeDef HAL_Init(void)
{
 8000970:	b580      	push	{r7, lr}
 8000972:	af00      	add	r7, sp, #0
  /* Configure Flash prefetch, Instruction cache, Data cache */ 
#if (INSTRUCTION_CACHE_ENABLE != 0U)
  __HAL_FLASH_INSTRUCTION_CACHE_ENABLE();
 8000974:	4b0e      	ldr	r3, [pc, #56]	; (80009b0 <HAL_Init+0x40>)
 8000976:	681b      	ldr	r3, [r3, #0]
 8000978:	4a0d      	ldr	r2, [pc, #52]	; (80009b0 <HAL_Init+0x40>)
 800097a:	f443 7300 	orr.w	r3, r3, #512	; 0x200
 800097e:	6013      	str	r3, [r2, #0]
#endif /* INSTRUCTION_CACHE_ENABLE */

#if (DATA_CACHE_ENABLE != 0U)
  __HAL_FLASH_DATA_CACHE_ENABLE();
 8000980:	4b0b      	ldr	r3, [pc, #44]	; (80009b0 <HAL_Init+0x40>)
 8000982:	681b      	ldr	r3, [r3, #0]
 8000984:	4a0a      	ldr	r2, [pc, #40]	; (80009b0 <HAL_Init+0x40>)
 8000986:	f443 6380 	orr.w	r3, r3, #1024	; 0x400
 800098a:	6013      	str	r3, [r2, #0]
#endif /* DATA_CACHE_ENABLE */

#if (PREFETCH_ENABLE != 0U)
  __HAL_FLASH_PREFETCH_BUFFER_ENABLE();
 800098c:	4b08      	ldr	r3, [pc, #32]	; (80009b0 <HAL_Init+0x40>)
 800098e:	681b      	ldr	r3, [r3, #0]
 8000990:	4a07      	ldr	r2, [pc, #28]	; (80009b0 <HAL_Init+0x40>)
 8000992:	f443 7380 	orr.w	r3, r3, #256	; 0x100
 8000996:	6013      	str	r3, [r2, #0]
#endif /* PREFETCH_ENABLE */

  /* Set Interrupt Group Priority */
  HAL_NVIC_SetPriorityGrouping(NVIC_PRIORITYGROUP_4);
 8000998:	2003      	movs	r0, #3
 800099a:	f000 f92b 	bl	8000bf4 <HAL_NVIC_SetPriorityGrouping>

  /* Use systick as time base source and configure 1ms tick (default clock after Reset is HSI) */
  HAL_InitTick(TICK_INT_PRIORITY);
 800099e:	2000      	movs	r0, #0
 80009a0:	f000 f808 	bl	80009b4 <HAL_InitTick>

  /* Init the low level hardware */
  HAL_MspInit();
 80009a4:	f7ff ff02 	bl	80007ac <HAL_MspInit>

  /* Return function status */
  return HAL_OK;
 80009a8:	2300      	movs	r3, #0
}
 80009aa:	4618      	mov	r0, r3
 80009ac:	bd80      	pop	{r7, pc}
 80009ae:	bf00      	nop
 80009b0:	40023c00 	.word	0x40023c00

080009b4 <HAL_InitTick>:
  *       implementation  in user file.
  * @param TickPriority Tick interrupt priority.
  * @retval HAL status
  */
__weak HAL_StatusTypeDef HAL_InitTick(uint32_t TickPriority)
{
 80009b4:	b580      	push	{r7, lr}
 80009b6:	b082      	sub	sp, #8
 80009b8:	af00      	add	r7, sp, #0
 80009ba:	6078      	str	r0, [r7, #4]
  /* Configure the SysTick to have interrupt in 1ms time basis*/
  if (HAL_SYSTICK_Config(SystemCoreClock / (1000U / uwTickFreq)) > 0U)
 80009bc:	4b12      	ldr	r3, [pc, #72]	; (8000a08 <HAL_InitTick+0x54>)
 80009be:	681a      	ldr	r2, [r3, #0]
 80009c0:	4b12      	ldr	r3, [pc, #72]	; (8000a0c <HAL_InitTick+0x58>)
 80009c2:	781b      	ldrb	r3, [r3, #0]
 80009c4:	4619      	mov	r1, r3
 80009c6:	f44f 737a 	mov.w	r3, #1000	; 0x3e8
 80009ca:	fbb3 f3f1 	udiv	r3, r3, r1
 80009ce:	fbb2 f3f3 	udiv	r3, r2, r3
 80009d2:	4618      	mov	r0, r3
 80009d4:	f000 f943 	bl	8000c5e <HAL_SYSTICK_Config>
 80009d8:	4603      	mov	r3, r0
 80009da:	2b00      	cmp	r3, #0
 80009dc:	d001      	beq.n	80009e2 <HAL_InitTick+0x2e>
  {
    return HAL_ERROR;
 80009de:	2301      	movs	r3, #1
 80009e0:	e00e      	b.n	8000a00 <HAL_InitTick+0x4c>
  }

  /* Configure the SysTick IRQ priority */
  if (TickPriority < (1UL << __NVIC_PRIO_BITS))
 80009e2:	687b      	ldr	r3, [r7, #4]
 80009e4:	2b0f      	cmp	r3, #15
 80009e6:	d80a      	bhi.n	80009fe <HAL_InitTick+0x4a>
  {
    HAL_NVIC_SetPriority(SysTick_IRQn, TickPriority, 0U);
 80009e8:	2200      	movs	r2, #0
 80009ea:	6879      	ldr	r1, [r7, #4]
 80009ec:	f04f 30ff 	mov.w	r0, #4294967295
 80009f0:	f000 f90b 	bl	8000c0a <HAL_NVIC_SetPriority>
    uwTickPrio = TickPriority;
 80009f4:	4a06      	ldr	r2, [pc, #24]	; (8000a10 <HAL_InitTick+0x5c>)
 80009f6:	687b      	ldr	r3, [r7, #4]
 80009f8:	6013      	str	r3, [r2, #0]
  {
    return HAL_ERROR;
  }

  /* Return function status */
  return HAL_OK;
 80009fa:	2300      	movs	r3, #0
 80009fc:	e000      	b.n	8000a00 <HAL_InitTick+0x4c>
    return HAL_ERROR;
 80009fe:	2301      	movs	r3, #1
}
 8000a00:	4618      	mov	r0, r3
 8000a02:	3708      	adds	r7, #8
 8000a04:	46bd      	mov	sp, r7
 8000a06:	bd80      	pop	{r7, pc}
 8000a08:	20000000 	.word	0x20000000
 8000a0c:	20000008 	.word	0x20000008
 8000a10:	20000004 	.word	0x20000004

08000a14 <HAL_IncTick>:
 * @note This function is declared as __weak to be overwritten in case of other 
  *      implementations in user file.
  * @retval None
  */
__weak void HAL_IncTick(void)
{
 8000a14:	b480      	push	{r7}
 8000a16:	af00      	add	r7, sp, #0
  uwTick += uwTickFreq;
 8000a18:	4b06      	ldr	r3, [pc, #24]	; (8000a34 <HAL_IncTick+0x20>)
 8000a1a:	781b      	ldrb	r3, [r3, #0]
 8000a1c:	461a      	mov	r2, r3
 8000a1e:	4b06      	ldr	r3, [pc, #24]	; (8000a38 <HAL_IncTick+0x24>)
 8000a20:	681b      	ldr	r3, [r3, #0]
 8000a22:	4413      	add	r3, r2
 8000a24:	4a04      	ldr	r2, [pc, #16]	; (8000a38 <HAL_IncTick+0x24>)
 8000a26:	6013      	str	r3, [r2, #0]
}
 8000a28:	bf00      	nop
 8000a2a:	46bd      	mov	sp, r7
 8000a2c:	f85d 7b04 	ldr.w	r7, [sp], #4
 8000a30:	4770      	bx	lr
 8000a32:	bf00      	nop
 8000a34:	20000008 	.word	0x20000008
 8000a38:	200000d8 	.word	0x200000d8

08000a3c <HAL_GetTick>:
  * @note This function is declared as __weak to be overwritten in case of other 
  *       implementations in user file.
  * @retval tick value
  */
__weak uint32_t HAL_GetTick(void)
{
 8000a3c:	b480      	push	{r7}
 8000a3e:	af00      	add	r7, sp, #0
  return uwTick;
 8000a40:	4b03      	ldr	r3, [pc, #12]	; (8000a50 <HAL_GetTick+0x14>)
 8000a42:	681b      	ldr	r3, [r3, #0]
}
 8000a44:	4618      	mov	r0, r3
 8000a46:	46bd      	mov	sp, r7
 8000a48:	f85d 7b04 	ldr.w	r7, [sp], #4
 8000a4c:	4770      	bx	lr
 8000a4e:	bf00      	nop
 8000a50:	200000d8 	.word	0x200000d8

08000a54 <__NVIC_SetPriorityGrouping>:
           In case of a conflict between priority grouping and available
           priority bits (__NVIC_PRIO_BITS), the smallest possible priority group is set.
  \param [in]      PriorityGroup  Priority grouping field.
 */
__STATIC_INLINE void __NVIC_SetPriorityGrouping(uint32_t PriorityGroup)
{
 8000a54:	b480      	push	{r7}
 8000a56:	b085      	sub	sp, #20
 8000a58:	af00      	add	r7, sp, #0
 8000a5a:	6078      	str	r0, [r7, #4]
  uint32_t reg_value;
  uint32_t PriorityGroupTmp = (PriorityGroup & (uint32_t)0x07UL);             /* only values 0..7 are used          */
 8000a5c:	687b      	ldr	r3, [r7, #4]
 8000a5e:	f003 0307 	and.w	r3, r3, #7
 8000a62:	60fb      	str	r3, [r7, #12]

  reg_value  =  SCB->AIRCR;                                                   /* read old register configuration    */
 8000a64:	4b0c      	ldr	r3, [pc, #48]	; (8000a98 <__NVIC_SetPriorityGrouping+0x44>)
 8000a66:	68db      	ldr	r3, [r3, #12]
 8000a68:	60bb      	str	r3, [r7, #8]
  reg_value &= ~((uint32_t)(SCB_AIRCR_VECTKEY_Msk | SCB_AIRCR_PRIGROUP_Msk)); /* clear bits to change               */
 8000a6a:	68ba      	ldr	r2, [r7, #8]
 8000a6c:	f64f 03ff 	movw	r3, #63743	; 0xf8ff
 8000a70:	4013      	ands	r3, r2
 8000a72:	60bb      	str	r3, [r7, #8]
  reg_value  =  (reg_value                                   |
                ((uint32_t)0x5FAUL << SCB_AIRCR_VECTKEY_Pos) |
                (PriorityGroupTmp << SCB_AIRCR_PRIGROUP_Pos)  );              /* Insert write key and priority group */
 8000a74:	68fb      	ldr	r3, [r7, #12]
 8000a76:	021a      	lsls	r2, r3, #8
                ((uint32_t)0x5FAUL << SCB_AIRCR_VECTKEY_Pos) |
 8000a78:	68bb      	ldr	r3, [r7, #8]
 8000a7a:	4313      	orrs	r3, r2
  reg_value  =  (reg_value                                   |
 8000a7c:	f043 63bf 	orr.w	r3, r3, #100139008	; 0x5f80000
 8000a80:	f443 3300 	orr.w	r3, r3, #131072	; 0x20000
 8000a84:	60bb      	str	r3, [r7, #8]
  SCB->AIRCR =  reg_value;
 8000a86:	4a04      	ldr	r2, [pc, #16]	; (8000a98 <__NVIC_SetPriorityGrouping+0x44>)
 8000a88:	68bb      	ldr	r3, [r7, #8]
 8000a8a:	60d3      	str	r3, [r2, #12]
}
 8000a8c:	bf00      	nop
 8000a8e:	3714      	adds	r7, #20
 8000a90:	46bd      	mov	sp, r7
 8000a92:	f85d 7b04 	ldr.w	r7, [sp], #4
 8000a96:	4770      	bx	lr
 8000a98:	e000ed00 	.word	0xe000ed00

08000a9c <__NVIC_GetPriorityGrouping>:
  \brief   Get Priority Grouping
  \details Reads the priority grouping field from the NVIC Interrupt Controller.
  \return                Priority grouping field (SCB->AIRCR [10:8] PRIGROUP field).
 */
__STATIC_INLINE uint32_t __NVIC_GetPriorityGrouping(void)
{
 8000a9c:	b480      	push	{r7}
 8000a9e:	af00      	add	r7, sp, #0
  return ((uint32_t)((SCB->AIRCR & SCB_AIRCR_PRIGROUP_Msk) >> SCB_AIRCR_PRIGROUP_Pos));
 8000aa0:	4b04      	ldr	r3, [pc, #16]	; (8000ab4 <__NVIC_GetPriorityGrouping+0x18>)
 8000aa2:	68db      	ldr	r3, [r3, #12]
 8000aa4:	0a1b      	lsrs	r3, r3, #8
 8000aa6:	f003 0307 	and.w	r3, r3, #7
}
 8000aaa:	4618      	mov	r0, r3
 8000aac:	46bd      	mov	sp, r7
 8000aae:	f85d 7b04 	ldr.w	r7, [sp], #4
 8000ab2:	4770      	bx	lr
 8000ab4:	e000ed00 	.word	0xe000ed00

08000ab8 <__NVIC_EnableIRQ>:
  \details Enables a device specific interrupt in the NVIC interrupt controller.
  \param [in]      IRQn  Device specific interrupt number.
  \note    IRQn must not be negative.
 */
__STATIC_INLINE void __NVIC_EnableIRQ(IRQn_Type IRQn)
{
 8000ab8:	b480      	push	{r7}
 8000aba:	b083      	sub	sp, #12
 8000abc:	af00      	add	r7, sp, #0
 8000abe:	4603      	mov	r3, r0
 8000ac0:	71fb      	strb	r3, [r7, #7]
  if ((int32_t)(IRQn) >= 0)
 8000ac2:	f997 3007 	ldrsb.w	r3, [r7, #7]
 8000ac6:	2b00      	cmp	r3, #0
 8000ac8:	db0b      	blt.n	8000ae2 <__NVIC_EnableIRQ+0x2a>
  {
    NVIC->ISER[(((uint32_t)IRQn) >> 5UL)] = (uint32_t)(1UL << (((uint32_t)IRQn) & 0x1FUL));
 8000aca:	79fb      	ldrb	r3, [r7, #7]
 8000acc:	f003 021f 	and.w	r2, r3, #31
 8000ad0:	4907      	ldr	r1, [pc, #28]	; (8000af0 <__NVIC_EnableIRQ+0x38>)
 8000ad2:	f997 3007 	ldrsb.w	r3, [r7, #7]
 8000ad6:	095b      	lsrs	r3, r3, #5
 8000ad8:	2001      	movs	r0, #1
 8000ada:	fa00 f202 	lsl.w	r2, r0, r2
 8000ade:	f841 2023 	str.w	r2, [r1, r3, lsl #2]
  }
}
 8000ae2:	bf00      	nop
 8000ae4:	370c      	adds	r7, #12
 8000ae6:	46bd      	mov	sp, r7
 8000ae8:	f85d 7b04 	ldr.w	r7, [sp], #4
 8000aec:	4770      	bx	lr
 8000aee:	bf00      	nop
 8000af0:	e000e100 	.word	0xe000e100

08000af4 <__NVIC_SetPriority>:
  \param [in]      IRQn  Interrupt number.
  \param [in]  priority  Priority to set.
  \note    The priority cannot be set for every processor exception.
 */
__STATIC_INLINE void __NVIC_SetPriority(IRQn_Type IRQn, uint32_t priority)
{
 8000af4:	b480      	push	{r7}
 8000af6:	b083      	sub	sp, #12
 8000af8:	af00      	add	r7, sp, #0
 8000afa:	4603      	mov	r3, r0
 8000afc:	6039      	str	r1, [r7, #0]
 8000afe:	71fb      	strb	r3, [r7, #7]
  if ((int32_t)(IRQn) >= 0)
 8000b00:	f997 3007 	ldrsb.w	r3, [r7, #7]
 8000b04:	2b00      	cmp	r3, #0
 8000b06:	db0a      	blt.n	8000b1e <__NVIC_SetPriority+0x2a>
  {
    NVIC->IP[((uint32_t)IRQn)]               = (uint8_t)((priority << (8U - __NVIC_PRIO_BITS)) & (uint32_t)0xFFUL);
 8000b08:	683b      	ldr	r3, [r7, #0]
 8000b0a:	b2da      	uxtb	r2, r3
 8000b0c:	490c      	ldr	r1, [pc, #48]	; (8000b40 <__NVIC_SetPriority+0x4c>)
 8000b0e:	f997 3007 	ldrsb.w	r3, [r7, #7]
 8000b12:	0112      	lsls	r2, r2, #4
 8000b14:	b2d2      	uxtb	r2, r2
 8000b16:	440b      	add	r3, r1
 8000b18:	f883 2300 	strb.w	r2, [r3, #768]	; 0x300
  }
  else
  {
    SCB->SHP[(((uint32_t)IRQn) & 0xFUL)-4UL] = (uint8_t)((priority << (8U - __NVIC_PRIO_BITS)) & (uint32_t)0xFFUL);
  }
}
 8000b1c:	e00a      	b.n	8000b34 <__NVIC_SetPriority+0x40>
    SCB->SHP[(((uint32_t)IRQn) & 0xFUL)-4UL] = (uint8_t)((priority << (8U - __NVIC_PRIO_BITS)) & (uint32_t)0xFFUL);
 8000b1e:	683b      	ldr	r3, [r7, #0]
 8000b20:	b2da      	uxtb	r2, r3
 8000b22:	4908      	ldr	r1, [pc, #32]	; (8000b44 <__NVIC_SetPriority+0x50>)
 8000b24:	79fb      	ldrb	r3, [r7, #7]
 8000b26:	f003 030f 	and.w	r3, r3, #15
 8000b2a:	3b04      	subs	r3, #4
 8000b2c:	0112      	lsls	r2, r2, #4
 8000b2e:	b2d2      	uxtb	r2, r2
 8000b30:	440b      	add	r3, r1
 8000b32:	761a      	strb	r2, [r3, #24]
}
 8000b34:	bf00      	nop
 8000b36:	370c      	adds	r7, #12
 8000b38:	46bd      	mov	sp, r7
 8000b3a:	f85d 7b04 	ldr.w	r7, [sp], #4
 8000b3e:	4770      	bx	lr
 8000b40:	e000e100 	.word	0xe000e100
 8000b44:	e000ed00 	.word	0xe000ed00

08000b48 <NVIC_EncodePriority>:
  \param [in]   PreemptPriority  Preemptive priority value (starting from 0).
  \param [in]       SubPriority  Subpriority value (starting from 0).
  \return                        Encoded priority. Value can be used in the function \ref NVIC_SetPriority().
 */
__STATIC_INLINE uint32_t NVIC_EncodePriority (uint32_t PriorityGroup, uint32_t PreemptPriority, uint32_t SubPriority)
{
 8000b48:	b480      	push	{r7}
 8000b4a:	b089      	sub	sp, #36	; 0x24
 8000b4c:	af00      	add	r7, sp, #0
 8000b4e:	60f8      	str	r0, [r7, #12]
 8000b50:	60b9      	str	r1, [r7, #8]
 8000b52:	607a      	str	r2, [r7, #4]
  uint32_t PriorityGroupTmp = (PriorityGroup & (uint32_t)0x07UL);   /* only values 0..7 are used          */
 8000b54:	68fb      	ldr	r3, [r7, #12]
 8000b56:	f003 0307 	and.w	r3, r3, #7
 8000b5a:	61fb      	str	r3, [r7, #28]
  uint32_t PreemptPriorityBits;
  uint32_t SubPriorityBits;

  PreemptPriorityBits = ((7UL - PriorityGroupTmp) > (uint32_t)(__NVIC_PRIO_BITS)) ? (uint32_t)(__NVIC_PRIO_BITS) : (uint32_t)(7UL - PriorityGroupTmp);
 8000b5c:	69fb      	ldr	r3, [r7, #28]
 8000b5e:	f1c3 0307 	rsb	r3, r3, #7
 8000b62:	2b04      	cmp	r3, #4
 8000b64:	bf28      	it	cs
 8000b66:	2304      	movcs	r3, #4
 8000b68:	61bb      	str	r3, [r7, #24]
  SubPriorityBits     = ((PriorityGroupTmp + (uint32_t)(__NVIC_PRIO_BITS)) < (uint32_t)7UL) ? (uint32_t)0UL : (uint32_t)((PriorityGroupTmp - 7UL) + (uint32_t)(__NVIC_PRIO_BITS));
 8000b6a:	69fb      	ldr	r3, [r7, #28]
 8000b6c:	3304      	adds	r3, #4
 8000b6e:	2b06      	cmp	r3, #6
 8000b70:	d902      	bls.n	8000b78 <NVIC_EncodePriority+0x30>
 8000b72:	69fb      	ldr	r3, [r7, #28]
 8000b74:	3b03      	subs	r3, #3
 8000b76:	e000      	b.n	8000b7a <NVIC_EncodePriority+0x32>
 8000b78:	2300      	movs	r3, #0
 8000b7a:	617b      	str	r3, [r7, #20]

  return (
           ((PreemptPriority & (uint32_t)((1UL << (PreemptPriorityBits)) - 1UL)) << SubPriorityBits) |
 8000b7c:	f04f 32ff 	mov.w	r2, #4294967295
 8000b80:	69bb      	ldr	r3, [r7, #24]
 8000b82:	fa02 f303 	lsl.w	r3, r2, r3
 8000b86:	43da      	mvns	r2, r3
 8000b88:	68bb      	ldr	r3, [r7, #8]
 8000b8a:	401a      	ands	r2, r3
 8000b8c:	697b      	ldr	r3, [r7, #20]
 8000b8e:	409a      	lsls	r2, r3
           ((SubPriority     & (uint32_t)((1UL << (SubPriorityBits    )) - 1UL)))
 8000b90:	f04f 31ff 	mov.w	r1, #4294967295
 8000b94:	697b      	ldr	r3, [r7, #20]
 8000b96:	fa01 f303 	lsl.w	r3, r1, r3
 8000b9a:	43d9      	mvns	r1, r3
 8000b9c:	687b      	ldr	r3, [r7, #4]
 8000b9e:	400b      	ands	r3, r1
           ((PreemptPriority & (uint32_t)((1UL << (PreemptPriorityBits)) - 1UL)) << SubPriorityBits) |
 8000ba0:	4313      	orrs	r3, r2
         );
}
 8000ba2:	4618      	mov	r0, r3
 8000ba4:	3724      	adds	r7, #36	; 0x24
 8000ba6:	46bd      	mov	sp, r7
 8000ba8:	f85d 7b04 	ldr.w	r7, [sp], #4
 8000bac:	4770      	bx	lr
	...

08000bb0 <SysTick_Config>:
  \note    When the variable <b>__Vendor_SysTickConfig</b> is set to 1, then the
           function <b>SysTick_Config</b> is not included. In this case, the file <b><i>device</i>.h</b>
           must contain a vendor-specific implementation of this function.
 */
__STATIC_INLINE uint32_t SysTick_Config(uint32_t ticks)
{
 8000bb0:	b580      	push	{r7, lr}
 8000bb2:	b082      	sub	sp, #8
 8000bb4:	af00      	add	r7, sp, #0
 8000bb6:	6078      	str	r0, [r7, #4]
  if ((ticks - 1UL) > SysTick_LOAD_RELOAD_Msk)
 8000bb8:	687b      	ldr	r3, [r7, #4]
 8000bba:	3b01      	subs	r3, #1
 8000bbc:	f1b3 7f80 	cmp.w	r3, #16777216	; 0x1000000
 8000bc0:	d301      	bcc.n	8000bc6 <SysTick_Config+0x16>
  {
    return (1UL);                                                   /* Reload value impossible */
 8000bc2:	2301      	movs	r3, #1
 8000bc4:	e00f      	b.n	8000be6 <SysTick_Config+0x36>
  }

  SysTick->LOAD  = (uint32_t)(ticks - 1UL);                         /* set reload register */
 8000bc6:	4a0a      	ldr	r2, [pc, #40]	; (8000bf0 <SysTick_Config+0x40>)
 8000bc8:	687b      	ldr	r3, [r7, #4]
 8000bca:	3b01      	subs	r3, #1
 8000bcc:	6053      	str	r3, [r2, #4]
  NVIC_SetPriority (SysTick_IRQn, (1UL << __NVIC_PRIO_BITS) - 1UL); /* set Priority for Systick Interrupt */
 8000bce:	210f      	movs	r1, #15
 8000bd0:	f04f 30ff 	mov.w	r0, #4294967295
 8000bd4:	f7ff ff8e 	bl	8000af4 <__NVIC_SetPriority>
  SysTick->VAL   = 0UL;                                             /* Load the SysTick Counter Value */
 8000bd8:	4b05      	ldr	r3, [pc, #20]	; (8000bf0 <SysTick_Config+0x40>)
 8000bda:	2200      	movs	r2, #0
 8000bdc:	609a      	str	r2, [r3, #8]
  SysTick->CTRL  = SysTick_CTRL_CLKSOURCE_Msk |
 8000bde:	4b04      	ldr	r3, [pc, #16]	; (8000bf0 <SysTick_Config+0x40>)
 8000be0:	2207      	movs	r2, #7
 8000be2:	601a      	str	r2, [r3, #0]
                   SysTick_CTRL_TICKINT_Msk   |
                   SysTick_CTRL_ENABLE_Msk;                         /* Enable SysTick IRQ and SysTick Timer */
  return (0UL);                                                     /* Function successful */
 8000be4:	2300      	movs	r3, #0
}
 8000be6:	4618      	mov	r0, r3
 8000be8:	3708      	adds	r7, #8
 8000bea:	46bd      	mov	sp, r7
 8000bec:	bd80      	pop	{r7, pc}
 8000bee:	bf00      	nop
 8000bf0:	e000e010 	.word	0xe000e010

08000bf4 <HAL_NVIC_SetPriorityGrouping>:
  * @note   When the NVIC_PriorityGroup_0 is selected, IRQ preemption is no more possible. 
  *         The pending IRQ priority will be managed only by the subpriority. 
  * @retval None
  */
void HAL_NVIC_SetPriorityGrouping(uint32_t PriorityGroup)
{
 8000bf4:	b580      	push	{r7, lr}
 8000bf6:	b082      	sub	sp, #8
 8000bf8:	af00      	add	r7, sp, #0
 8000bfa:	6078      	str	r0, [r7, #4]
  /* Check the parameters */
  assert_param(IS_NVIC_PRIORITY_GROUP(PriorityGroup));
  
  /* Set the PRIGROUP[10:8] bits according to the PriorityGroup parameter value */
  NVIC_SetPriorityGrouping(PriorityGroup);
 8000bfc:	6878      	ldr	r0, [r7, #4]
 8000bfe:	f7ff ff29 	bl	8000a54 <__NVIC_SetPriorityGrouping>
}
 8000c02:	bf00      	nop
 8000c04:	3708      	adds	r7, #8
 8000c06:	46bd      	mov	sp, r7
 8000c08:	bd80      	pop	{r7, pc}

08000c0a <HAL_NVIC_SetPriority>:
  *         This parameter can be a value between 0 and 15
  *         A lower priority value indicates a higher priority.          
  * @retval None
  */
void HAL_NVIC_SetPriority(IRQn_Type IRQn, uint32_t PreemptPriority, uint32_t SubPriority)
{ 
 8000c0a:	b580      	push	{r7, lr}
 8000c0c:	b086      	sub	sp, #24
 8000c0e:	af00      	add	r7, sp, #0
 8000c10:	4603      	mov	r3, r0
 8000c12:	60b9      	str	r1, [r7, #8]
 8000c14:	607a      	str	r2, [r7, #4]
 8000c16:	73fb      	strb	r3, [r7, #15]
  uint32_t prioritygroup = 0x00U;
 8000c18:	2300      	movs	r3, #0
 8000c1a:	617b      	str	r3, [r7, #20]
  
  /* Check the parameters */
  assert_param(IS_NVIC_SUB_PRIORITY(SubPriority));
  assert_param(IS_NVIC_PREEMPTION_PRIORITY(PreemptPriority));
  
  prioritygroup = NVIC_GetPriorityGrouping();
 8000c1c:	f7ff ff3e 	bl	8000a9c <__NVIC_GetPriorityGrouping>
 8000c20:	6178      	str	r0, [r7, #20]
  
  NVIC_SetPriority(IRQn, NVIC_EncodePriority(prioritygroup, PreemptPriority, SubPriority));
 8000c22:	687a      	ldr	r2, [r7, #4]
 8000c24:	68b9      	ldr	r1, [r7, #8]
 8000c26:	6978      	ldr	r0, [r7, #20]
 8000c28:	f7ff ff8e 	bl	8000b48 <NVIC_EncodePriority>
 8000c2c:	4602      	mov	r2, r0
 8000c2e:	f997 300f 	ldrsb.w	r3, [r7, #15]
 8000c32:	4611      	mov	r1, r2
 8000c34:	4618      	mov	r0, r3
 8000c36:	f7ff ff5d 	bl	8000af4 <__NVIC_SetPriority>
}
 8000c3a:	bf00      	nop
 8000c3c:	3718      	adds	r7, #24
 8000c3e:	46bd      	mov	sp, r7
 8000c40:	bd80      	pop	{r7, pc}

08000c42 <HAL_NVIC_EnableIRQ>:
  *         This parameter can be an enumerator of IRQn_Type enumeration
  *         (For the complete STM32 Devices IRQ Channels list, please refer to the appropriate CMSIS device file (stm32f4xxxx.h))
  * @retval None
  */
void HAL_NVIC_EnableIRQ(IRQn_Type IRQn)
{
 8000c42:	b580      	push	{r7, lr}
 8000c44:	b082      	sub	sp, #8
 8000c46:	af00      	add	r7, sp, #0
 8000c48:	4603      	mov	r3, r0
 8000c4a:	71fb      	strb	r3, [r7, #7]
  /* Check the parameters */
  assert_param(IS_NVIC_DEVICE_IRQ(IRQn));
  
  /* Enable interrupt */
  NVIC_EnableIRQ(IRQn);
 8000c4c:	f997 3007 	ldrsb.w	r3, [r7, #7]
 8000c50:	4618      	mov	r0, r3
 8000c52:	f7ff ff31 	bl	8000ab8 <__NVIC_EnableIRQ>
}
 8000c56:	bf00      	nop
 8000c58:	3708      	adds	r7, #8
 8000c5a:	46bd      	mov	sp, r7
 8000c5c:	bd80      	pop	{r7, pc}

08000c5e <HAL_SYSTICK_Config>:
  * @param  TicksNumb Specifies the ticks Number of ticks between two interrupts.
  * @retval status:  - 0  Function succeeded.
  *                  - 1  Function failed.
  */
uint32_t HAL_SYSTICK_Config(uint32_t TicksNumb)
{
 8000c5e:	b580      	push	{r7, lr}
 8000c60:	b082      	sub	sp, #8
 8000c62:	af00      	add	r7, sp, #0
 8000c64:	6078      	str	r0, [r7, #4]
   return SysTick_Config(TicksNumb);
 8000c66:	6878      	ldr	r0, [r7, #4]
 8000c68:	f7ff ffa2 	bl	8000bb0 <SysTick_Config>
 8000c6c:	4603      	mov	r3, r0
}
 8000c6e:	4618      	mov	r0, r3
 8000c70:	3708      	adds	r7, #8
 8000c72:	46bd      	mov	sp, r7
 8000c74:	bd80      	pop	{r7, pc}
	...

08000c78 <HAL_SYSTICK_CLKSourceConfig>:
  *             @arg SYSTICK_CLKSOURCE_HCLK_DIV8: AHB clock divided by 8 selected as SysTick clock source.
  *             @arg SYSTICK_CLKSOURCE_HCLK: AHB clock selected as SysTick clock source.
  * @retval None
  */
void HAL_SYSTICK_CLKSourceConfig(uint32_t CLKSource)
{
 8000c78:	b480      	push	{r7}
 8000c7a:	b083      	sub	sp, #12
 8000c7c:	af00      	add	r7, sp, #0
 8000c7e:	6078      	str	r0, [r7, #4]
  /* Check the parameters */
  assert_param(IS_SYSTICK_CLK_SOURCE(CLKSource));
  if (CLKSource == SYSTICK_CLKSOURCE_HCLK)
 8000c80:	687b      	ldr	r3, [r7, #4]
 8000c82:	2b04      	cmp	r3, #4
 8000c84:	d106      	bne.n	8000c94 <HAL_SYSTICK_CLKSourceConfig+0x1c>
  {
    SysTick->CTRL |= SYSTICK_CLKSOURCE_HCLK;
 8000c86:	4b09      	ldr	r3, [pc, #36]	; (8000cac <HAL_SYSTICK_CLKSourceConfig+0x34>)
 8000c88:	681b      	ldr	r3, [r3, #0]
 8000c8a:	4a08      	ldr	r2, [pc, #32]	; (8000cac <HAL_SYSTICK_CLKSourceConfig+0x34>)
 8000c8c:	f043 0304 	orr.w	r3, r3, #4
 8000c90:	6013      	str	r3, [r2, #0]
  }
  else
  {
    SysTick->CTRL &= ~SYSTICK_CLKSOURCE_HCLK;
  }
}
 8000c92:	e005      	b.n	8000ca0 <HAL_SYSTICK_CLKSourceConfig+0x28>
    SysTick->CTRL &= ~SYSTICK_CLKSOURCE_HCLK;
 8000c94:	4b05      	ldr	r3, [pc, #20]	; (8000cac <HAL_SYSTICK_CLKSourceConfig+0x34>)
 8000c96:	681b      	ldr	r3, [r3, #0]
 8000c98:	4a04      	ldr	r2, [pc, #16]	; (8000cac <HAL_SYSTICK_CLKSourceConfig+0x34>)
 8000c9a:	f023 0304 	bic.w	r3, r3, #4
 8000c9e:	6013      	str	r3, [r2, #0]
}
 8000ca0:	bf00      	nop
 8000ca2:	370c      	adds	r7, #12
 8000ca4:	46bd      	mov	sp, r7
 8000ca6:	f85d 7b04 	ldr.w	r7, [sp], #4
 8000caa:	4770      	bx	lr
 8000cac:	e000e010 	.word	0xe000e010

08000cb0 <HAL_SYSTICK_IRQHandler>:
/**
  * @brief  This function handles SYSTICK interrupt request.
  * @retval None
  */
void HAL_SYSTICK_IRQHandler(void)
{
 8000cb0:	b580      	push	{r7, lr}
 8000cb2:	af00      	add	r7, sp, #0
  HAL_SYSTICK_Callback();
 8000cb4:	f000 f802 	bl	8000cbc <HAL_SYSTICK_Callback>
}
 8000cb8:	bf00      	nop
 8000cba:	bd80      	pop	{r7, pc}

08000cbc <HAL_SYSTICK_Callback>:
/**
  * @brief  SYSTICK callback.
  * @retval None
  */
__weak void HAL_SYSTICK_Callback(void)
{
 8000cbc:	b480      	push	{r7}
 8000cbe:	af00      	add	r7, sp, #0
  /* NOTE : This function Should not be modified, when the callback is needed,
            the HAL_SYSTICK_Callback could be implemented in the user file
   */
}
 8000cc0:	bf00      	nop
 8000cc2:	46bd      	mov	sp, r7
 8000cc4:	f85d 7b04 	ldr.w	r7, [sp], #4
 8000cc8:	4770      	bx	lr
	...

08000ccc <HAL_GPIO_Init>:
  * @param  GPIO_Init pointer to a GPIO_InitTypeDef structure that contains
  *         the configuration information for the specified GPIO peripheral.
  * @retval None
  */
void HAL_GPIO_Init(GPIO_TypeDef  *GPIOx, GPIO_InitTypeDef *GPIO_Init)
{
 8000ccc:	b480      	push	{r7}
 8000cce:	b089      	sub	sp, #36	; 0x24
 8000cd0:	af00      	add	r7, sp, #0
 8000cd2:	6078      	str	r0, [r7, #4]
 8000cd4:	6039      	str	r1, [r7, #0]
  uint32_t position;
  uint32_t ioposition = 0x00U;
 8000cd6:	2300      	movs	r3, #0
 8000cd8:	617b      	str	r3, [r7, #20]
  uint32_t iocurrent = 0x00U;
 8000cda:	2300      	movs	r3, #0
 8000cdc:	613b      	str	r3, [r7, #16]
  uint32_t temp = 0x00U;
 8000cde:	2300      	movs	r3, #0
 8000ce0:	61bb      	str	r3, [r7, #24]
  assert_param(IS_GPIO_PIN(GPIO_Init->Pin));
  assert_param(IS_GPIO_MODE(GPIO_Init->Mode));
  assert_param(IS_GPIO_PULL(GPIO_Init->Pull));

  /* Configure the port pins */
  for(position = 0U; position < GPIO_NUMBER; position++)
 8000ce2:	2300      	movs	r3, #0
 8000ce4:	61fb      	str	r3, [r7, #28]
 8000ce6:	e16b      	b.n	8000fc0 <HAL_GPIO_Init+0x2f4>
  {
    /* Get the IO position */
    ioposition = 0x01U << position;
 8000ce8:	2201      	movs	r2, #1
 8000cea:	69fb      	ldr	r3, [r7, #28]
 8000cec:	fa02 f303 	lsl.w	r3, r2, r3
 8000cf0:	617b      	str	r3, [r7, #20]
    /* Get the current IO position */
    iocurrent = (uint32_t)(GPIO_Init->Pin) & ioposition;
 8000cf2:	683b      	ldr	r3, [r7, #0]
 8000cf4:	681b      	ldr	r3, [r3, #0]
 8000cf6:	697a      	ldr	r2, [r7, #20]
 8000cf8:	4013      	ands	r3, r2
 8000cfa:	613b      	str	r3, [r7, #16]

    if(iocurrent == ioposition)
 8000cfc:	693a      	ldr	r2, [r7, #16]
 8000cfe:	697b      	ldr	r3, [r7, #20]
 8000d00:	429a      	cmp	r2, r3
 8000d02:	f040 815a 	bne.w	8000fba <HAL_GPIO_Init+0x2ee>
    {
      /*--------------------- GPIO Mode Configuration ------------------------*/
      /* In case of Output or Alternate function mode selection */
      if((GPIO_Init->Mode == GPIO_MODE_OUTPUT_PP) || (GPIO_Init->Mode == GPIO_MODE_AF_PP) ||
 8000d06:	683b      	ldr	r3, [r7, #0]
 8000d08:	685b      	ldr	r3, [r3, #4]
 8000d0a:	2b01      	cmp	r3, #1
 8000d0c:	d00b      	beq.n	8000d26 <HAL_GPIO_Init+0x5a>
 8000d0e:	683b      	ldr	r3, [r7, #0]
 8000d10:	685b      	ldr	r3, [r3, #4]
 8000d12:	2b02      	cmp	r3, #2
 8000d14:	d007      	beq.n	8000d26 <HAL_GPIO_Init+0x5a>
         (GPIO_Init->Mode == GPIO_MODE_OUTPUT_OD) || (GPIO_Init->Mode == GPIO_MODE_AF_OD))
 8000d16:	683b      	ldr	r3, [r7, #0]
 8000d18:	685b      	ldr	r3, [r3, #4]
      if((GPIO_Init->Mode == GPIO_MODE_OUTPUT_PP) || (GPIO_Init->Mode == GPIO_MODE_AF_PP) ||
 8000d1a:	2b11      	cmp	r3, #17
 8000d1c:	d003      	beq.n	8000d26 <HAL_GPIO_Init+0x5a>
         (GPIO_Init->Mode == GPIO_MODE_OUTPUT_OD) || (GPIO_Init->Mode == GPIO_MODE_AF_OD))
 8000d1e:	683b      	ldr	r3, [r7, #0]
 8000d20:	685b      	ldr	r3, [r3, #4]
 8000d22:	2b12      	cmp	r3, #18
 8000d24:	d130      	bne.n	8000d88 <HAL_GPIO_Init+0xbc>
      {
        /* Check the Speed parameter */
        assert_param(IS_GPIO_SPEED(GPIO_Init->Speed));
        /* Configure the IO Speed */
        temp = GPIOx->OSPEEDR; 
 8000d26:	687b      	ldr	r3, [r7, #4]
 8000d28:	689b      	ldr	r3, [r3, #8]
 8000d2a:	61bb      	str	r3, [r7, #24]
        temp &= ~(GPIO_OSPEEDER_OSPEEDR0 << (position * 2U));
 8000d2c:	69fb      	ldr	r3, [r7, #28]
 8000d2e:	005b      	lsls	r3, r3, #1
 8000d30:	2203      	movs	r2, #3
 8000d32:	fa02 f303 	lsl.w	r3, r2, r3
 8000d36:	43db      	mvns	r3, r3
 8000d38:	69ba      	ldr	r2, [r7, #24]
 8000d3a:	4013      	ands	r3, r2
 8000d3c:	61bb      	str	r3, [r7, #24]
        temp |= (GPIO_Init->Speed << (position * 2U));
 8000d3e:	683b      	ldr	r3, [r7, #0]
 8000d40:	68da      	ldr	r2, [r3, #12]
 8000d42:	69fb      	ldr	r3, [r7, #28]
 8000d44:	005b      	lsls	r3, r3, #1
 8000d46:	fa02 f303 	lsl.w	r3, r2, r3
 8000d4a:	69ba      	ldr	r2, [r7, #24]
 8000d4c:	4313      	orrs	r3, r2
 8000d4e:	61bb      	str	r3, [r7, #24]
        GPIOx->OSPEEDR = temp;
 8000d50:	687b      	ldr	r3, [r7, #4]
 8000d52:	69ba      	ldr	r2, [r7, #24]
 8000d54:	609a      	str	r2, [r3, #8]

        /* Configure the IO Output Type */
        temp = GPIOx->OTYPER;
 8000d56:	687b      	ldr	r3, [r7, #4]
 8000d58:	685b      	ldr	r3, [r3, #4]
 8000d5a:	61bb      	str	r3, [r7, #24]
        temp &= ~(GPIO_OTYPER_OT_0 << position) ;
 8000d5c:	2201      	movs	r2, #1
 8000d5e:	69fb      	ldr	r3, [r7, #28]
 8000d60:	fa02 f303 	lsl.w	r3, r2, r3
 8000d64:	43db      	mvns	r3, r3
 8000d66:	69ba      	ldr	r2, [r7, #24]
 8000d68:	4013      	ands	r3, r2
 8000d6a:	61bb      	str	r3, [r7, #24]
        temp |= (((GPIO_Init->Mode & GPIO_OUTPUT_TYPE) >> 4U) << position);
 8000d6c:	683b      	ldr	r3, [r7, #0]
 8000d6e:	685b      	ldr	r3, [r3, #4]
 8000d70:	091b      	lsrs	r3, r3, #4
 8000d72:	f003 0201 	and.w	r2, r3, #1
 8000d76:	69fb      	ldr	r3, [r7, #28]
 8000d78:	fa02 f303 	lsl.w	r3, r2, r3
 8000d7c:	69ba      	ldr	r2, [r7, #24]
 8000d7e:	4313      	orrs	r3, r2
 8000d80:	61bb      	str	r3, [r7, #24]
        GPIOx->OTYPER = temp;
 8000d82:	687b      	ldr	r3, [r7, #4]
 8000d84:	69ba      	ldr	r2, [r7, #24]
 8000d86:	605a      	str	r2, [r3, #4]
       }

      /* Activate the Pull-up or Pull down resistor for the current IO */
      temp = GPIOx->PUPDR;
 8000d88:	687b      	ldr	r3, [r7, #4]
 8000d8a:	68db      	ldr	r3, [r3, #12]
 8000d8c:	61bb      	str	r3, [r7, #24]
      temp &= ~(GPIO_PUPDR_PUPDR0 << (position * 2U));
 8000d8e:	69fb      	ldr	r3, [r7, #28]
 8000d90:	005b      	lsls	r3, r3, #1
 8000d92:	2203      	movs	r2, #3
 8000d94:	fa02 f303 	lsl.w	r3, r2, r3
 8000d98:	43db      	mvns	r3, r3
 8000d9a:	69ba      	ldr	r2, [r7, #24]
 8000d9c:	4013      	ands	r3, r2
 8000d9e:	61bb      	str	r3, [r7, #24]
      temp |= ((GPIO_Init->Pull) << (position * 2U));
 8000da0:	683b      	ldr	r3, [r7, #0]
 8000da2:	689a      	ldr	r2, [r3, #8]
 8000da4:	69fb      	ldr	r3, [r7, #28]
 8000da6:	005b      	lsls	r3, r3, #1
 8000da8:	fa02 f303 	lsl.w	r3, r2, r3
 8000dac:	69ba      	ldr	r2, [r7, #24]
 8000dae:	4313      	orrs	r3, r2
 8000db0:	61bb      	str	r3, [r7, #24]
      GPIOx->PUPDR = temp;
 8000db2:	687b      	ldr	r3, [r7, #4]
 8000db4:	69ba      	ldr	r2, [r7, #24]
 8000db6:	60da      	str	r2, [r3, #12]

      /* In case of Alternate function mode selection */
      if((GPIO_Init->Mode == GPIO_MODE_AF_PP) || (GPIO_Init->Mode == GPIO_MODE_AF_OD))
 8000db8:	683b      	ldr	r3, [r7, #0]
 8000dba:	685b      	ldr	r3, [r3, #4]
 8000dbc:	2b02      	cmp	r3, #2
 8000dbe:	d003      	beq.n	8000dc8 <HAL_GPIO_Init+0xfc>
 8000dc0:	683b      	ldr	r3, [r7, #0]
 8000dc2:	685b      	ldr	r3, [r3, #4]
 8000dc4:	2b12      	cmp	r3, #18
 8000dc6:	d123      	bne.n	8000e10 <HAL_GPIO_Init+0x144>
      {
        /* Check the Alternate function parameter */
        assert_param(IS_GPIO_AF(GPIO_Init->Alternate));
        /* Configure Alternate function mapped with the current IO */
        temp = GPIOx->AFR[position >> 3U];
 8000dc8:	69fb      	ldr	r3, [r7, #28]
 8000dca:	08da      	lsrs	r2, r3, #3
 8000dcc:	687b      	ldr	r3, [r7, #4]
 8000dce:	3208      	adds	r2, #8
 8000dd0:	f853 3022 	ldr.w	r3, [r3, r2, lsl #2]
 8000dd4:	61bb      	str	r3, [r7, #24]
        temp &= ~(0xFU << ((uint32_t)(position & 0x07U) * 4U)) ;
 8000dd6:	69fb      	ldr	r3, [r7, #28]
 8000dd8:	f003 0307 	and.w	r3, r3, #7
 8000ddc:	009b      	lsls	r3, r3, #2
 8000dde:	220f      	movs	r2, #15
 8000de0:	fa02 f303 	lsl.w	r3, r2, r3
 8000de4:	43db      	mvns	r3, r3
 8000de6:	69ba      	ldr	r2, [r7, #24]
 8000de8:	4013      	ands	r3, r2
 8000dea:	61bb      	str	r3, [r7, #24]
        temp |= ((uint32_t)(GPIO_Init->Alternate) << (((uint32_t)position & 0x07U) * 4U));
 8000dec:	683b      	ldr	r3, [r7, #0]
 8000dee:	691a      	ldr	r2, [r3, #16]
 8000df0:	69fb      	ldr	r3, [r7, #28]
 8000df2:	f003 0307 	and.w	r3, r3, #7
 8000df6:	009b      	lsls	r3, r3, #2
 8000df8:	fa02 f303 	lsl.w	r3, r2, r3
 8000dfc:	69ba      	ldr	r2, [r7, #24]
 8000dfe:	4313      	orrs	r3, r2
 8000e00:	61bb      	str	r3, [r7, #24]
        GPIOx->AFR[position >> 3U] = temp;
 8000e02:	69fb      	ldr	r3, [r7, #28]
 8000e04:	08da      	lsrs	r2, r3, #3
 8000e06:	687b      	ldr	r3, [r7, #4]
 8000e08:	3208      	adds	r2, #8
 8000e0a:	69b9      	ldr	r1, [r7, #24]
 8000e0c:	f843 1022 	str.w	r1, [r3, r2, lsl #2]
      }

      /* Configure IO Direction mode (Input, Output, Alternate or Analog) */
      temp = GPIOx->MODER;
 8000e10:	687b      	ldr	r3, [r7, #4]
 8000e12:	681b      	ldr	r3, [r3, #0]
 8000e14:	61bb      	str	r3, [r7, #24]
      temp &= ~(GPIO_MODER_MODER0 << (position * 2U));
 8000e16:	69fb      	ldr	r3, [r7, #28]
 8000e18:	005b      	lsls	r3, r3, #1
 8000e1a:	2203      	movs	r2, #3
 8000e1c:	fa02 f303 	lsl.w	r3, r2, r3
 8000e20:	43db      	mvns	r3, r3
 8000e22:	69ba      	ldr	r2, [r7, #24]
 8000e24:	4013      	ands	r3, r2
 8000e26:	61bb      	str	r3, [r7, #24]
      temp |= ((GPIO_Init->Mode & GPIO_MODE) << (position * 2U));
 8000e28:	683b      	ldr	r3, [r7, #0]
 8000e2a:	685b      	ldr	r3, [r3, #4]
 8000e2c:	f003 0203 	and.w	r2, r3, #3
 8000e30:	69fb      	ldr	r3, [r7, #28]
 8000e32:	005b      	lsls	r3, r3, #1
 8000e34:	fa02 f303 	lsl.w	r3, r2, r3
 8000e38:	69ba      	ldr	r2, [r7, #24]
 8000e3a:	4313      	orrs	r3, r2
 8000e3c:	61bb      	str	r3, [r7, #24]
      GPIOx->MODER = temp;
 8000e3e:	687b      	ldr	r3, [r7, #4]
 8000e40:	69ba      	ldr	r2, [r7, #24]
 8000e42:	601a      	str	r2, [r3, #0]

      /*--------------------- EXTI Mode Configuration ------------------------*/
      /* Configure the External Interrupt or event for the current IO */
      if((GPIO_Init->Mode & EXTI_MODE) == EXTI_MODE)
 8000e44:	683b      	ldr	r3, [r7, #0]
 8000e46:	685b      	ldr	r3, [r3, #4]
 8000e48:	f003 5380 	and.w	r3, r3, #268435456	; 0x10000000
 8000e4c:	2b00      	cmp	r3, #0
 8000e4e:	f000 80b4 	beq.w	8000fba <HAL_GPIO_Init+0x2ee>
      {
        /* Enable SYSCFG Clock */
        __HAL_RCC_SYSCFG_CLK_ENABLE();
 8000e52:	2300      	movs	r3, #0
 8000e54:	60fb      	str	r3, [r7, #12]
 8000e56:	4b5f      	ldr	r3, [pc, #380]	; (8000fd4 <HAL_GPIO_Init+0x308>)
 8000e58:	6c5b      	ldr	r3, [r3, #68]	; 0x44
 8000e5a:	4a5e      	ldr	r2, [pc, #376]	; (8000fd4 <HAL_GPIO_Init+0x308>)
 8000e5c:	f443 4380 	orr.w	r3, r3, #16384	; 0x4000
 8000e60:	6453      	str	r3, [r2, #68]	; 0x44
 8000e62:	4b5c      	ldr	r3, [pc, #368]	; (8000fd4 <HAL_GPIO_Init+0x308>)
 8000e64:	6c5b      	ldr	r3, [r3, #68]	; 0x44
 8000e66:	f403 4380 	and.w	r3, r3, #16384	; 0x4000
 8000e6a:	60fb      	str	r3, [r7, #12]
 8000e6c:	68fb      	ldr	r3, [r7, #12]

        temp = SYSCFG->EXTICR[position >> 2U];
 8000e6e:	4a5a      	ldr	r2, [pc, #360]	; (8000fd8 <HAL_GPIO_Init+0x30c>)
 8000e70:	69fb      	ldr	r3, [r7, #28]
 8000e72:	089b      	lsrs	r3, r3, #2
 8000e74:	3302      	adds	r3, #2
 8000e76:	f852 3023 	ldr.w	r3, [r2, r3, lsl #2]
 8000e7a:	61bb      	str	r3, [r7, #24]
        temp &= ~(0x0FU << (4U * (position & 0x03U)));
 8000e7c:	69fb      	ldr	r3, [r7, #28]
 8000e7e:	f003 0303 	and.w	r3, r3, #3
 8000e82:	009b      	lsls	r3, r3, #2
 8000e84:	220f      	movs	r2, #15
 8000e86:	fa02 f303 	lsl.w	r3, r2, r3
 8000e8a:	43db      	mvns	r3, r3
 8000e8c:	69ba      	ldr	r2, [r7, #24]
 8000e8e:	4013      	ands	r3, r2
 8000e90:	61bb      	str	r3, [r7, #24]
        temp |= ((uint32_t)(GPIO_GET_INDEX(GPIOx)) << (4U * (position & 0x03U)));
 8000e92:	687b      	ldr	r3, [r7, #4]
 8000e94:	4a51      	ldr	r2, [pc, #324]	; (8000fdc <HAL_GPIO_Init+0x310>)
 8000e96:	4293      	cmp	r3, r2
 8000e98:	d02b      	beq.n	8000ef2 <HAL_GPIO_Init+0x226>
 8000e9a:	687b      	ldr	r3, [r7, #4]
 8000e9c:	4a50      	ldr	r2, [pc, #320]	; (8000fe0 <HAL_GPIO_Init+0x314>)
 8000e9e:	4293      	cmp	r3, r2
 8000ea0:	d025      	beq.n	8000eee <HAL_GPIO_Init+0x222>
 8000ea2:	687b      	ldr	r3, [r7, #4]
 8000ea4:	4a4f      	ldr	r2, [pc, #316]	; (8000fe4 <HAL_GPIO_Init+0x318>)
 8000ea6:	4293      	cmp	r3, r2
 8000ea8:	d01f      	beq.n	8000eea <HAL_GPIO_Init+0x21e>
 8000eaa:	687b      	ldr	r3, [r7, #4]
 8000eac:	4a4e      	ldr	r2, [pc, #312]	; (8000fe8 <HAL_GPIO_Init+0x31c>)
 8000eae:	4293      	cmp	r3, r2
 8000eb0:	d019      	beq.n	8000ee6 <HAL_GPIO_Init+0x21a>
 8000eb2:	687b      	ldr	r3, [r7, #4]
 8000eb4:	4a4d      	ldr	r2, [pc, #308]	; (8000fec <HAL_GPIO_Init+0x320>)
 8000eb6:	4293      	cmp	r3, r2
 8000eb8:	d013      	beq.n	8000ee2 <HAL_GPIO_Init+0x216>
 8000eba:	687b      	ldr	r3, [r7, #4]
 8000ebc:	4a4c      	ldr	r2, [pc, #304]	; (8000ff0 <HAL_GPIO_Init+0x324>)
 8000ebe:	4293      	cmp	r3, r2
 8000ec0:	d00d      	beq.n	8000ede <HAL_GPIO_Init+0x212>
 8000ec2:	687b      	ldr	r3, [r7, #4]
 8000ec4:	4a4b      	ldr	r2, [pc, #300]	; (8000ff4 <HAL_GPIO_Init+0x328>)
 8000ec6:	4293      	cmp	r3, r2
 8000ec8:	d007      	beq.n	8000eda <HAL_GPIO_Init+0x20e>
 8000eca:	687b      	ldr	r3, [r7, #4]
 8000ecc:	4a4a      	ldr	r2, [pc, #296]	; (8000ff8 <HAL_GPIO_Init+0x32c>)
 8000ece:	4293      	cmp	r3, r2
 8000ed0:	d101      	bne.n	8000ed6 <HAL_GPIO_Init+0x20a>
 8000ed2:	2307      	movs	r3, #7
 8000ed4:	e00e      	b.n	8000ef4 <HAL_GPIO_Init+0x228>
 8000ed6:	2308      	movs	r3, #8
 8000ed8:	e00c      	b.n	8000ef4 <HAL_GPIO_Init+0x228>
 8000eda:	2306      	movs	r3, #6
 8000edc:	e00a      	b.n	8000ef4 <HAL_GPIO_Init+0x228>
 8000ede:	2305      	movs	r3, #5
 8000ee0:	e008      	b.n	8000ef4 <HAL_GPIO_Init+0x228>
 8000ee2:	2304      	movs	r3, #4
 8000ee4:	e006      	b.n	8000ef4 <HAL_GPIO_Init+0x228>
 8000ee6:	2303      	movs	r3, #3
 8000ee8:	e004      	b.n	8000ef4 <HAL_GPIO_Init+0x228>
 8000eea:	2302      	movs	r3, #2
 8000eec:	e002      	b.n	8000ef4 <HAL_GPIO_Init+0x228>
 8000eee:	2301      	movs	r3, #1
 8000ef0:	e000      	b.n	8000ef4 <HAL_GPIO_Init+0x228>
 8000ef2:	2300      	movs	r3, #0
 8000ef4:	69fa      	ldr	r2, [r7, #28]
 8000ef6:	f002 0203 	and.w	r2, r2, #3
 8000efa:	0092      	lsls	r2, r2, #2
 8000efc:	4093      	lsls	r3, r2
 8000efe:	69ba      	ldr	r2, [r7, #24]
 8000f00:	4313      	orrs	r3, r2
 8000f02:	61bb      	str	r3, [r7, #24]
        SYSCFG->EXTICR[position >> 2U] = temp;
 8000f04:	4934      	ldr	r1, [pc, #208]	; (8000fd8 <HAL_GPIO_Init+0x30c>)
 8000f06:	69fb      	ldr	r3, [r7, #28]
 8000f08:	089b      	lsrs	r3, r3, #2
 8000f0a:	3302      	adds	r3, #2
 8000f0c:	69ba      	ldr	r2, [r7, #24]
 8000f0e:	f841 2023 	str.w	r2, [r1, r3, lsl #2]

        /* Clear EXTI line configuration */
        temp = EXTI->IMR;
 8000f12:	4b3a      	ldr	r3, [pc, #232]	; (8000ffc <HAL_GPIO_Init+0x330>)
 8000f14:	681b      	ldr	r3, [r3, #0]
 8000f16:	61bb      	str	r3, [r7, #24]
        temp &= ~((uint32_t)iocurrent);
 8000f18:	693b      	ldr	r3, [r7, #16]
 8000f1a:	43db      	mvns	r3, r3
 8000f1c:	69ba      	ldr	r2, [r7, #24]
 8000f1e:	4013      	ands	r3, r2
 8000f20:	61bb      	str	r3, [r7, #24]
        if((GPIO_Init->Mode & GPIO_MODE_IT) == GPIO_MODE_IT)
 8000f22:	683b      	ldr	r3, [r7, #0]
 8000f24:	685b      	ldr	r3, [r3, #4]
 8000f26:	f403 3380 	and.w	r3, r3, #65536	; 0x10000
 8000f2a:	2b00      	cmp	r3, #0
 8000f2c:	d003      	beq.n	8000f36 <HAL_GPIO_Init+0x26a>
        {
          temp |= iocurrent;
 8000f2e:	69ba      	ldr	r2, [r7, #24]
 8000f30:	693b      	ldr	r3, [r7, #16]
 8000f32:	4313      	orrs	r3, r2
 8000f34:	61bb      	str	r3, [r7, #24]
        }
        EXTI->IMR = temp;
 8000f36:	4a31      	ldr	r2, [pc, #196]	; (8000ffc <HAL_GPIO_Init+0x330>)
 8000f38:	69bb      	ldr	r3, [r7, #24]
 8000f3a:	6013      	str	r3, [r2, #0]

        temp = EXTI->EMR;
 8000f3c:	4b2f      	ldr	r3, [pc, #188]	; (8000ffc <HAL_GPIO_Init+0x330>)
 8000f3e:	685b      	ldr	r3, [r3, #4]
 8000f40:	61bb      	str	r3, [r7, #24]
        temp &= ~((uint32_t)iocurrent);
 8000f42:	693b      	ldr	r3, [r7, #16]
 8000f44:	43db      	mvns	r3, r3
 8000f46:	69ba      	ldr	r2, [r7, #24]
 8000f48:	4013      	ands	r3, r2
 8000f4a:	61bb      	str	r3, [r7, #24]
        if((GPIO_Init->Mode & GPIO_MODE_EVT) == GPIO_MODE_EVT)
 8000f4c:	683b      	ldr	r3, [r7, #0]
 8000f4e:	685b      	ldr	r3, [r3, #4]
 8000f50:	f403 3300 	and.w	r3, r3, #131072	; 0x20000
 8000f54:	2b00      	cmp	r3, #0
 8000f56:	d003      	beq.n	8000f60 <HAL_GPIO_Init+0x294>
        {
          temp |= iocurrent;
 8000f58:	69ba      	ldr	r2, [r7, #24]
 8000f5a:	693b      	ldr	r3, [r7, #16]
 8000f5c:	4313      	orrs	r3, r2
 8000f5e:	61bb      	str	r3, [r7, #24]
        }
        EXTI->EMR = temp;
 8000f60:	4a26      	ldr	r2, [pc, #152]	; (8000ffc <HAL_GPIO_Init+0x330>)
 8000f62:	69bb      	ldr	r3, [r7, #24]
 8000f64:	6053      	str	r3, [r2, #4]

        /* Clear Rising Falling edge configuration */
        temp = EXTI->RTSR;
 8000f66:	4b25      	ldr	r3, [pc, #148]	; (8000ffc <HAL_GPIO_Init+0x330>)
 8000f68:	689b      	ldr	r3, [r3, #8]
 8000f6a:	61bb      	str	r3, [r7, #24]
        temp &= ~((uint32_t)iocurrent);
 8000f6c:	693b      	ldr	r3, [r7, #16]
 8000f6e:	43db      	mvns	r3, r3
 8000f70:	69ba      	ldr	r2, [r7, #24]
 8000f72:	4013      	ands	r3, r2
 8000f74:	61bb      	str	r3, [r7, #24]
        if((GPIO_Init->Mode & RISING_EDGE) == RISING_EDGE)
 8000f76:	683b      	ldr	r3, [r7, #0]
 8000f78:	685b      	ldr	r3, [r3, #4]
 8000f7a:	f403 1380 	and.w	r3, r3, #1048576	; 0x100000
 8000f7e:	2b00      	cmp	r3, #0
 8000f80:	d003      	beq.n	8000f8a <HAL_GPIO_Init+0x2be>
        {
          temp |= iocurrent;
 8000f82:	69ba      	ldr	r2, [r7, #24]
 8000f84:	693b      	ldr	r3, [r7, #16]
 8000f86:	4313      	orrs	r3, r2
 8000f88:	61bb      	str	r3, [r7, #24]
        }
        EXTI->RTSR = temp;
 8000f8a:	4a1c      	ldr	r2, [pc, #112]	; (8000ffc <HAL_GPIO_Init+0x330>)
 8000f8c:	69bb      	ldr	r3, [r7, #24]
 8000f8e:	6093      	str	r3, [r2, #8]

        temp = EXTI->FTSR;
 8000f90:	4b1a      	ldr	r3, [pc, #104]	; (8000ffc <HAL_GPIO_Init+0x330>)
 8000f92:	68db      	ldr	r3, [r3, #12]
 8000f94:	61bb      	str	r3, [r7, #24]
        temp &= ~((uint32_t)iocurrent);
 8000f96:	693b      	ldr	r3, [r7, #16]
 8000f98:	43db      	mvns	r3, r3
 8000f9a:	69ba      	ldr	r2, [r7, #24]
 8000f9c:	4013      	ands	r3, r2
 8000f9e:	61bb      	str	r3, [r7, #24]
        if((GPIO_Init->Mode & FALLING_EDGE) == FALLING_EDGE)
 8000fa0:	683b      	ldr	r3, [r7, #0]
 8000fa2:	685b      	ldr	r3, [r3, #4]
 8000fa4:	f403 1300 	and.w	r3, r3, #2097152	; 0x200000
 8000fa8:	2b00      	cmp	r3, #0
 8000faa:	d003      	beq.n	8000fb4 <HAL_GPIO_Init+0x2e8>
        {
          temp |= iocurrent;
 8000fac:	69ba      	ldr	r2, [r7, #24]
 8000fae:	693b      	ldr	r3, [r7, #16]
 8000fb0:	4313      	orrs	r3, r2
 8000fb2:	61bb      	str	r3, [r7, #24]
        }
        EXTI->FTSR = temp;
 8000fb4:	4a11      	ldr	r2, [pc, #68]	; (8000ffc <HAL_GPIO_Init+0x330>)
 8000fb6:	69bb      	ldr	r3, [r7, #24]
 8000fb8:	60d3      	str	r3, [r2, #12]
  for(position = 0U; position < GPIO_NUMBER; position++)
 8000fba:	69fb      	ldr	r3, [r7, #28]
 8000fbc:	3301      	adds	r3, #1
 8000fbe:	61fb      	str	r3, [r7, #28]
 8000fc0:	69fb      	ldr	r3, [r7, #28]
 8000fc2:	2b0f      	cmp	r3, #15
 8000fc4:	f67f ae90 	bls.w	8000ce8 <HAL_GPIO_Init+0x1c>
      }
    }
  }
}
 8000fc8:	bf00      	nop
 8000fca:	3724      	adds	r7, #36	; 0x24
 8000fcc:	46bd      	mov	sp, r7
 8000fce:	f85d 7b04 	ldr.w	r7, [sp], #4
 8000fd2:	4770      	bx	lr
 8000fd4:	40023800 	.word	0x40023800
 8000fd8:	40013800 	.word	0x40013800
 8000fdc:	40020000 	.word	0x40020000
 8000fe0:	40020400 	.word	0x40020400
 8000fe4:	40020800 	.word	0x40020800
 8000fe8:	40020c00 	.word	0x40020c00
 8000fec:	40021000 	.word	0x40021000
 8000ff0:	40021400 	.word	0x40021400
 8000ff4:	40021800 	.word	0x40021800
 8000ff8:	40021c00 	.word	0x40021c00
 8000ffc:	40013c00 	.word	0x40013c00

08001000 <HAL_RCC_OscConfig>:
  *         supported by this API. User should request a transition to HSE Off
  *         first and then HSE On or HSE Bypass.
  * @retval HAL status
  */
__weak HAL_StatusTypeDef HAL_RCC_OscConfig(RCC_OscInitTypeDef  *RCC_OscInitStruct)
{
 8001000:	b580      	push	{r7, lr}
 8001002:	b086      	sub	sp, #24
 8001004:	af00      	add	r7, sp, #0
 8001006:	6078      	str	r0, [r7, #4]
  uint32_t tickstart, pll_config;

  /* Check Null pointer */
  if(RCC_OscInitStruct == NULL)
 8001008:	687b      	ldr	r3, [r7, #4]
 800100a:	2b00      	cmp	r3, #0
 800100c:	d101      	bne.n	8001012 <HAL_RCC_OscConfig+0x12>
  {
    return HAL_ERROR;
 800100e:	2301      	movs	r3, #1
 8001010:	e25b      	b.n	80014ca <HAL_RCC_OscConfig+0x4ca>
  }

  /* Check the parameters */
  assert_param(IS_RCC_OSCILLATORTYPE(RCC_OscInitStruct->OscillatorType));
  /*------------------------------- HSE Configuration ------------------------*/
  if(((RCC_OscInitStruct->OscillatorType) & RCC_OSCILLATORTYPE_HSE) == RCC_OSCILLATORTYPE_HSE)
 8001012:	687b      	ldr	r3, [r7, #4]
 8001014:	681b      	ldr	r3, [r3, #0]
 8001016:	f003 0301 	and.w	r3, r3, #1
 800101a:	2b00      	cmp	r3, #0
 800101c:	d075      	beq.n	800110a <HAL_RCC_OscConfig+0x10a>
  {
    /* Check the parameters */
    assert_param(IS_RCC_HSE(RCC_OscInitStruct->HSEState));
    /* When the HSE is used as system clock or clock source for PLL in these cases HSE will not disabled */
    if((__HAL_RCC_GET_SYSCLK_SOURCE() == RCC_CFGR_SWS_HSE) ||\
 800101e:	4ba3      	ldr	r3, [pc, #652]	; (80012ac <HAL_RCC_OscConfig+0x2ac>)
 8001020:	689b      	ldr	r3, [r3, #8]
 8001022:	f003 030c 	and.w	r3, r3, #12
 8001026:	2b04      	cmp	r3, #4
 8001028:	d00c      	beq.n	8001044 <HAL_RCC_OscConfig+0x44>
      ((__HAL_RCC_GET_SYSCLK_SOURCE() == RCC_CFGR_SWS_PLL) && ((RCC->PLLCFGR & RCC_PLLCFGR_PLLSRC) == RCC_PLLCFGR_PLLSRC_HSE)))
 800102a:	4ba0      	ldr	r3, [pc, #640]	; (80012ac <HAL_RCC_OscConfig+0x2ac>)
 800102c:	689b      	ldr	r3, [r3, #8]
 800102e:	f003 030c 	and.w	r3, r3, #12
    if((__HAL_RCC_GET_SYSCLK_SOURCE() == RCC_CFGR_SWS_HSE) ||\
 8001032:	2b08      	cmp	r3, #8
 8001034:	d112      	bne.n	800105c <HAL_RCC_OscConfig+0x5c>
      ((__HAL_RCC_GET_SYSCLK_SOURCE() == RCC_CFGR_SWS_PLL) && ((RCC->PLLCFGR & RCC_PLLCFGR_PLLSRC) == RCC_PLLCFGR_PLLSRC_HSE)))
 8001036:	4b9d      	ldr	r3, [pc, #628]	; (80012ac <HAL_RCC_OscConfig+0x2ac>)
 8001038:	685b      	ldr	r3, [r3, #4]
 800103a:	f403 0380 	and.w	r3, r3, #4194304	; 0x400000
 800103e:	f5b3 0f80 	cmp.w	r3, #4194304	; 0x400000
 8001042:	d10b      	bne.n	800105c <HAL_RCC_OscConfig+0x5c>
    {
      if((__HAL_RCC_GET_FLAG(RCC_FLAG_HSERDY) != RESET) && (RCC_OscInitStruct->HSEState == RCC_HSE_OFF))
 8001044:	4b99      	ldr	r3, [pc, #612]	; (80012ac <HAL_RCC_OscConfig+0x2ac>)
 8001046:	681b      	ldr	r3, [r3, #0]
 8001048:	f403 3300 	and.w	r3, r3, #131072	; 0x20000
 800104c:	2b00      	cmp	r3, #0
 800104e:	d05b      	beq.n	8001108 <HAL_RCC_OscConfig+0x108>
 8001050:	687b      	ldr	r3, [r7, #4]
 8001052:	685b      	ldr	r3, [r3, #4]
 8001054:	2b00      	cmp	r3, #0
 8001056:	d157      	bne.n	8001108 <HAL_RCC_OscConfig+0x108>
      {
        return HAL_ERROR;
 8001058:	2301      	movs	r3, #1
 800105a:	e236      	b.n	80014ca <HAL_RCC_OscConfig+0x4ca>
      }
    }
    else
    {
      /* Set the new HSE configuration ---------------------------------------*/
      __HAL_RCC_HSE_CONFIG(RCC_OscInitStruct->HSEState);
 800105c:	687b      	ldr	r3, [r7, #4]
 800105e:	685b      	ldr	r3, [r3, #4]
 8001060:	f5b3 3f80 	cmp.w	r3, #65536	; 0x10000
 8001064:	d106      	bne.n	8001074 <HAL_RCC_OscConfig+0x74>
 8001066:	4b91      	ldr	r3, [pc, #580]	; (80012ac <HAL_RCC_OscConfig+0x2ac>)
 8001068:	681b      	ldr	r3, [r3, #0]
 800106a:	4a90      	ldr	r2, [pc, #576]	; (80012ac <HAL_RCC_OscConfig+0x2ac>)
 800106c:	f443 3380 	orr.w	r3, r3, #65536	; 0x10000
 8001070:	6013      	str	r3, [r2, #0]
 8001072:	e01d      	b.n	80010b0 <HAL_RCC_OscConfig+0xb0>
 8001074:	687b      	ldr	r3, [r7, #4]
 8001076:	685b      	ldr	r3, [r3, #4]
 8001078:	f5b3 2fa0 	cmp.w	r3, #327680	; 0x50000
 800107c:	d10c      	bne.n	8001098 <HAL_RCC_OscConfig+0x98>
 800107e:	4b8b      	ldr	r3, [pc, #556]	; (80012ac <HAL_RCC_OscConfig+0x2ac>)
 8001080:	681b      	ldr	r3, [r3, #0]
 8001082:	4a8a      	ldr	r2, [pc, #552]	; (80012ac <HAL_RCC_OscConfig+0x2ac>)
 8001084:	f443 2380 	orr.w	r3, r3, #262144	; 0x40000
 8001088:	6013      	str	r3, [r2, #0]
 800108a:	4b88      	ldr	r3, [pc, #544]	; (80012ac <HAL_RCC_OscConfig+0x2ac>)
 800108c:	681b      	ldr	r3, [r3, #0]
 800108e:	4a87      	ldr	r2, [pc, #540]	; (80012ac <HAL_RCC_OscConfig+0x2ac>)
 8001090:	f443 3380 	orr.w	r3, r3, #65536	; 0x10000
 8001094:	6013      	str	r3, [r2, #0]
 8001096:	e00b      	b.n	80010b0 <HAL_RCC_OscConfig+0xb0>
 8001098:	4b84      	ldr	r3, [pc, #528]	; (80012ac <HAL_RCC_OscConfig+0x2ac>)
 800109a:	681b      	ldr	r3, [r3, #0]
 800109c:	4a83      	ldr	r2, [pc, #524]	; (80012ac <HAL_RCC_OscConfig+0x2ac>)
 800109e:	f423 3380 	bic.w	r3, r3, #65536	; 0x10000
 80010a2:	6013      	str	r3, [r2, #0]
 80010a4:	4b81      	ldr	r3, [pc, #516]	; (80012ac <HAL_RCC_OscConfig+0x2ac>)
 80010a6:	681b      	ldr	r3, [r3, #0]
 80010a8:	4a80      	ldr	r2, [pc, #512]	; (80012ac <HAL_RCC_OscConfig+0x2ac>)
 80010aa:	f423 2380 	bic.w	r3, r3, #262144	; 0x40000
 80010ae:	6013      	str	r3, [r2, #0]

      /* Check the HSE State */
      if((RCC_OscInitStruct->HSEState) != RCC_HSE_OFF)
 80010b0:	687b      	ldr	r3, [r7, #4]
 80010b2:	685b      	ldr	r3, [r3, #4]
 80010b4:	2b00      	cmp	r3, #0
 80010b6:	d013      	beq.n	80010e0 <HAL_RCC_OscConfig+0xe0>
      {
        /* Get Start Tick */
        tickstart = HAL_GetTick();
 80010b8:	f7ff fcc0 	bl	8000a3c <HAL_GetTick>
 80010bc:	6138      	str	r0, [r7, #16]

        /* Wait till HSE is ready */
        while(__HAL_RCC_GET_FLAG(RCC_FLAG_HSERDY) == RESET)
 80010be:	e008      	b.n	80010d2 <HAL_RCC_OscConfig+0xd2>
        {
          if((HAL_GetTick() - tickstart ) > HSE_TIMEOUT_VALUE)
 80010c0:	f7ff fcbc 	bl	8000a3c <HAL_GetTick>
 80010c4:	4602      	mov	r2, r0
 80010c6:	693b      	ldr	r3, [r7, #16]
 80010c8:	1ad3      	subs	r3, r2, r3
 80010ca:	2b64      	cmp	r3, #100	; 0x64
 80010cc:	d901      	bls.n	80010d2 <HAL_RCC_OscConfig+0xd2>
          {
            return HAL_TIMEOUT;
 80010ce:	2303      	movs	r3, #3
 80010d0:	e1fb      	b.n	80014ca <HAL_RCC_OscConfig+0x4ca>
        while(__HAL_RCC_GET_FLAG(RCC_FLAG_HSERDY) == RESET)
 80010d2:	4b76      	ldr	r3, [pc, #472]	; (80012ac <HAL_RCC_OscConfig+0x2ac>)
 80010d4:	681b      	ldr	r3, [r3, #0]
 80010d6:	f403 3300 	and.w	r3, r3, #131072	; 0x20000
 80010da:	2b00      	cmp	r3, #0
 80010dc:	d0f0      	beq.n	80010c0 <HAL_RCC_OscConfig+0xc0>
 80010de:	e014      	b.n	800110a <HAL_RCC_OscConfig+0x10a>
        }
      }
      else
      {
        /* Get Start Tick */
        tickstart = HAL_GetTick();
 80010e0:	f7ff fcac 	bl	8000a3c <HAL_GetTick>
 80010e4:	6138      	str	r0, [r7, #16]

        /* Wait till HSE is bypassed or disabled */
        while(__HAL_RCC_GET_FLAG(RCC_FLAG_HSERDY) != RESET)
 80010e6:	e008      	b.n	80010fa <HAL_RCC_OscConfig+0xfa>
        {
          if((HAL_GetTick() - tickstart ) > HSE_TIMEOUT_VALUE)
 80010e8:	f7ff fca8 	bl	8000a3c <HAL_GetTick>
 80010ec:	4602      	mov	r2, r0
 80010ee:	693b      	ldr	r3, [r7, #16]
 80010f0:	1ad3      	subs	r3, r2, r3
 80010f2:	2b64      	cmp	r3, #100	; 0x64
 80010f4:	d901      	bls.n	80010fa <HAL_RCC_OscConfig+0xfa>
          {
            return HAL_TIMEOUT;
 80010f6:	2303      	movs	r3, #3
 80010f8:	e1e7      	b.n	80014ca <HAL_RCC_OscConfig+0x4ca>
        while(__HAL_RCC_GET_FLAG(RCC_FLAG_HSERDY) != RESET)
 80010fa:	4b6c      	ldr	r3, [pc, #432]	; (80012ac <HAL_RCC_OscConfig+0x2ac>)
 80010fc:	681b      	ldr	r3, [r3, #0]
 80010fe:	f403 3300 	and.w	r3, r3, #131072	; 0x20000
 8001102:	2b00      	cmp	r3, #0
 8001104:	d1f0      	bne.n	80010e8 <HAL_RCC_OscConfig+0xe8>
 8001106:	e000      	b.n	800110a <HAL_RCC_OscConfig+0x10a>
      if((__HAL_RCC_GET_FLAG(RCC_FLAG_HSERDY) != RESET) && (RCC_OscInitStruct->HSEState == RCC_HSE_OFF))
 8001108:	bf00      	nop
        }
      }
    }
  }
  /*----------------------------- HSI Configuration --------------------------*/
  if(((RCC_OscInitStruct->OscillatorType) & RCC_OSCILLATORTYPE_HSI) == RCC_OSCILLATORTYPE_HSI)
 800110a:	687b      	ldr	r3, [r7, #4]
 800110c:	681b      	ldr	r3, [r3, #0]
 800110e:	f003 0302 	and.w	r3, r3, #2
 8001112:	2b00      	cmp	r3, #0
 8001114:	d063      	beq.n	80011de <HAL_RCC_OscConfig+0x1de>
    /* Check the parameters */
    assert_param(IS_RCC_HSI(RCC_OscInitStruct->HSIState));
    assert_param(IS_RCC_CALIBRATION_VALUE(RCC_OscInitStruct->HSICalibrationValue));

    /* Check if HSI is used as system clock or as PLL source when PLL is selected as system clock */
    if((__HAL_RCC_GET_SYSCLK_SOURCE() == RCC_CFGR_SWS_HSI) ||\
 8001116:	4b65      	ldr	r3, [pc, #404]	; (80012ac <HAL_RCC_OscConfig+0x2ac>)
 8001118:	689b      	ldr	r3, [r3, #8]
 800111a:	f003 030c 	and.w	r3, r3, #12
 800111e:	2b00      	cmp	r3, #0
 8001120:	d00b      	beq.n	800113a <HAL_RCC_OscConfig+0x13a>
      ((__HAL_RCC_GET_SYSCLK_SOURCE() == RCC_CFGR_SWS_PLL) && ((RCC->PLLCFGR & RCC_PLLCFGR_PLLSRC) == RCC_PLLCFGR_PLLSRC_HSI)))
 8001122:	4b62      	ldr	r3, [pc, #392]	; (80012ac <HAL_RCC_OscConfig+0x2ac>)
 8001124:	689b      	ldr	r3, [r3, #8]
 8001126:	f003 030c 	and.w	r3, r3, #12
    if((__HAL_RCC_GET_SYSCLK_SOURCE() == RCC_CFGR_SWS_HSI) ||\
 800112a:	2b08      	cmp	r3, #8
 800112c:	d11c      	bne.n	8001168 <HAL_RCC_OscConfig+0x168>
      ((__HAL_RCC_GET_SYSCLK_SOURCE() == RCC_CFGR_SWS_PLL) && ((RCC->PLLCFGR & RCC_PLLCFGR_PLLSRC) == RCC_PLLCFGR_PLLSRC_HSI)))
 800112e:	4b5f      	ldr	r3, [pc, #380]	; (80012ac <HAL_RCC_OscConfig+0x2ac>)
 8001130:	685b      	ldr	r3, [r3, #4]
 8001132:	f403 0380 	and.w	r3, r3, #4194304	; 0x400000
 8001136:	2b00      	cmp	r3, #0
 8001138:	d116      	bne.n	8001168 <HAL_RCC_OscConfig+0x168>
    {
      /* When HSI is used as system clock it will not disabled */
      if((__HAL_RCC_GET_FLAG(RCC_FLAG_HSIRDY) != RESET) && (RCC_OscInitStruct->HSIState != RCC_HSI_ON))
 800113a:	4b5c      	ldr	r3, [pc, #368]	; (80012ac <HAL_RCC_OscConfig+0x2ac>)
 800113c:	681b      	ldr	r3, [r3, #0]
 800113e:	f003 0302 	and.w	r3, r3, #2
 8001142:	2b00      	cmp	r3, #0
 8001144:	d005      	beq.n	8001152 <HAL_RCC_OscConfig+0x152>
 8001146:	687b      	ldr	r3, [r7, #4]
 8001148:	68db      	ldr	r3, [r3, #12]
 800114a:	2b01      	cmp	r3, #1
 800114c:	d001      	beq.n	8001152 <HAL_RCC_OscConfig+0x152>
      {
        return HAL_ERROR;
 800114e:	2301      	movs	r3, #1
 8001150:	e1bb      	b.n	80014ca <HAL_RCC_OscConfig+0x4ca>
      }
      /* Otherwise, just the calibration is allowed */
      else
      {
        /* Adjusts the Internal High Speed oscillator (HSI) calibration value.*/
        __HAL_RCC_HSI_CALIBRATIONVALUE_ADJUST(RCC_OscInitStruct->HSICalibrationValue);
 8001152:	4b56      	ldr	r3, [pc, #344]	; (80012ac <HAL_RCC_OscConfig+0x2ac>)
 8001154:	681b      	ldr	r3, [r3, #0]
 8001156:	f023 02f8 	bic.w	r2, r3, #248	; 0xf8
 800115a:	687b      	ldr	r3, [r7, #4]
 800115c:	691b      	ldr	r3, [r3, #16]
 800115e:	00db      	lsls	r3, r3, #3
 8001160:	4952      	ldr	r1, [pc, #328]	; (80012ac <HAL_RCC_OscConfig+0x2ac>)
 8001162:	4313      	orrs	r3, r2
 8001164:	600b      	str	r3, [r1, #0]
      if((__HAL_RCC_GET_FLAG(RCC_FLAG_HSIRDY) != RESET) && (RCC_OscInitStruct->HSIState != RCC_HSI_ON))
 8001166:	e03a      	b.n	80011de <HAL_RCC_OscConfig+0x1de>
      }
    }
    else
    {
      /* Check the HSI State */
      if((RCC_OscInitStruct->HSIState)!= RCC_HSI_OFF)
 8001168:	687b      	ldr	r3, [r7, #4]
 800116a:	68db      	ldr	r3, [r3, #12]
 800116c:	2b00      	cmp	r3, #0
 800116e:	d020      	beq.n	80011b2 <HAL_RCC_OscConfig+0x1b2>
      {
        /* Enable the Internal High Speed oscillator (HSI). */
        __HAL_RCC_HSI_ENABLE();
 8001170:	4b4f      	ldr	r3, [pc, #316]	; (80012b0 <HAL_RCC_OscConfig+0x2b0>)
 8001172:	2201      	movs	r2, #1
 8001174:	601a      	str	r2, [r3, #0]

        /* Get Start Tick*/
        tickstart = HAL_GetTick();
 8001176:	f7ff fc61 	bl	8000a3c <HAL_GetTick>
 800117a:	6138      	str	r0, [r7, #16]

        /* Wait till HSI is ready */
        while(__HAL_RCC_GET_FLAG(RCC_FLAG_HSIRDY) == RESET)
 800117c:	e008      	b.n	8001190 <HAL_RCC_OscConfig+0x190>
        {
          if((HAL_GetTick() - tickstart ) > HSI_TIMEOUT_VALUE)
 800117e:	f7ff fc5d 	bl	8000a3c <HAL_GetTick>
 8001182:	4602      	mov	r2, r0
 8001184:	693b      	ldr	r3, [r7, #16]
 8001186:	1ad3      	subs	r3, r2, r3
 8001188:	2b02      	cmp	r3, #2
 800118a:	d901      	bls.n	8001190 <HAL_RCC_OscConfig+0x190>
          {
            return HAL_TIMEOUT;
 800118c:	2303      	movs	r3, #3
 800118e:	e19c      	b.n	80014ca <HAL_RCC_OscConfig+0x4ca>
        while(__HAL_RCC_GET_FLAG(RCC_FLAG_HSIRDY) == RESET)
 8001190:	4b46      	ldr	r3, [pc, #280]	; (80012ac <HAL_RCC_OscConfig+0x2ac>)
 8001192:	681b      	ldr	r3, [r3, #0]
 8001194:	f003 0302 	and.w	r3, r3, #2
 8001198:	2b00      	cmp	r3, #0
 800119a:	d0f0      	beq.n	800117e <HAL_RCC_OscConfig+0x17e>
          }
        }

        /* Adjusts the Internal High Speed oscillator (HSI) calibration value. */
        __HAL_RCC_HSI_CALIBRATIONVALUE_ADJUST(RCC_OscInitStruct->HSICalibrationValue);
 800119c:	4b43      	ldr	r3, [pc, #268]	; (80012ac <HAL_RCC_OscConfig+0x2ac>)
 800119e:	681b      	ldr	r3, [r3, #0]
 80011a0:	f023 02f8 	bic.w	r2, r3, #248	; 0xf8
 80011a4:	687b      	ldr	r3, [r7, #4]
 80011a6:	691b      	ldr	r3, [r3, #16]
 80011a8:	00db      	lsls	r3, r3, #3
 80011aa:	4940      	ldr	r1, [pc, #256]	; (80012ac <HAL_RCC_OscConfig+0x2ac>)
 80011ac:	4313      	orrs	r3, r2
 80011ae:	600b      	str	r3, [r1, #0]
 80011b0:	e015      	b.n	80011de <HAL_RCC_OscConfig+0x1de>
      }
      else
      {
        /* Disable the Internal High Speed oscillator (HSI). */
        __HAL_RCC_HSI_DISABLE();
 80011b2:	4b3f      	ldr	r3, [pc, #252]	; (80012b0 <HAL_RCC_OscConfig+0x2b0>)
 80011b4:	2200      	movs	r2, #0
 80011b6:	601a      	str	r2, [r3, #0]

        /* Get Start Tick*/
        tickstart = HAL_GetTick();
 80011b8:	f7ff fc40 	bl	8000a3c <HAL_GetTick>
 80011bc:	6138      	str	r0, [r7, #16]

        /* Wait till HSI is ready */
        while(__HAL_RCC_GET_FLAG(RCC_FLAG_HSIRDY) != RESET)
 80011be:	e008      	b.n	80011d2 <HAL_RCC_OscConfig+0x1d2>
        {
          if((HAL_GetTick() - tickstart ) > HSI_TIMEOUT_VALUE)
 80011c0:	f7ff fc3c 	bl	8000a3c <HAL_GetTick>
 80011c4:	4602      	mov	r2, r0
 80011c6:	693b      	ldr	r3, [r7, #16]
 80011c8:	1ad3      	subs	r3, r2, r3
 80011ca:	2b02      	cmp	r3, #2
 80011cc:	d901      	bls.n	80011d2 <HAL_RCC_OscConfig+0x1d2>
          {
            return HAL_TIMEOUT;
 80011ce:	2303      	movs	r3, #3
 80011d0:	e17b      	b.n	80014ca <HAL_RCC_OscConfig+0x4ca>
        while(__HAL_RCC_GET_FLAG(RCC_FLAG_HSIRDY) != RESET)
 80011d2:	4b36      	ldr	r3, [pc, #216]	; (80012ac <HAL_RCC_OscConfig+0x2ac>)
 80011d4:	681b      	ldr	r3, [r3, #0]
 80011d6:	f003 0302 	and.w	r3, r3, #2
 80011da:	2b00      	cmp	r3, #0
 80011dc:	d1f0      	bne.n	80011c0 <HAL_RCC_OscConfig+0x1c0>
        }
      }
    }
  }
  /*------------------------------ LSI Configuration -------------------------*/
  if(((RCC_OscInitStruct->OscillatorType) & RCC_OSCILLATORTYPE_LSI) == RCC_OSCILLATORTYPE_LSI)
 80011de:	687b      	ldr	r3, [r7, #4]
 80011e0:	681b      	ldr	r3, [r3, #0]
 80011e2:	f003 0308 	and.w	r3, r3, #8
 80011e6:	2b00      	cmp	r3, #0
 80011e8:	d030      	beq.n	800124c <HAL_RCC_OscConfig+0x24c>
  {
    /* Check the parameters */
    assert_param(IS_RCC_LSI(RCC_OscInitStruct->LSIState));

    /* Check the LSI State */
    if((RCC_OscInitStruct->LSIState)!= RCC_LSI_OFF)
 80011ea:	687b      	ldr	r3, [r7, #4]
 80011ec:	695b      	ldr	r3, [r3, #20]
 80011ee:	2b00      	cmp	r3, #0
 80011f0:	d016      	beq.n	8001220 <HAL_RCC_OscConfig+0x220>
    {
      /* Enable the Internal Low Speed oscillator (LSI). */
      __HAL_RCC_LSI_ENABLE();
 80011f2:	4b30      	ldr	r3, [pc, #192]	; (80012b4 <HAL_RCC_OscConfig+0x2b4>)
 80011f4:	2201      	movs	r2, #1
 80011f6:	601a      	str	r2, [r3, #0]

      /* Get Start Tick*/
      tickstart = HAL_GetTick();
 80011f8:	f7ff fc20 	bl	8000a3c <HAL_GetTick>
 80011fc:	6138      	str	r0, [r7, #16]

      /* Wait till LSI is ready */
      while(__HAL_RCC_GET_FLAG(RCC_FLAG_LSIRDY) == RESET)
 80011fe:	e008      	b.n	8001212 <HAL_RCC_OscConfig+0x212>
      {
        if((HAL_GetTick() - tickstart ) > LSI_TIMEOUT_VALUE)
 8001200:	f7ff fc1c 	bl	8000a3c <HAL_GetTick>
 8001204:	4602      	mov	r2, r0
 8001206:	693b      	ldr	r3, [r7, #16]
 8001208:	1ad3      	subs	r3, r2, r3
 800120a:	2b02      	cmp	r3, #2
 800120c:	d901      	bls.n	8001212 <HAL_RCC_OscConfig+0x212>
        {
          return HAL_TIMEOUT;
 800120e:	2303      	movs	r3, #3
 8001210:	e15b      	b.n	80014ca <HAL_RCC_OscConfig+0x4ca>
      while(__HAL_RCC_GET_FLAG(RCC_FLAG_LSIRDY) == RESET)
 8001212:	4b26      	ldr	r3, [pc, #152]	; (80012ac <HAL_RCC_OscConfig+0x2ac>)
 8001214:	6f5b      	ldr	r3, [r3, #116]	; 0x74
 8001216:	f003 0302 	and.w	r3, r3, #2
 800121a:	2b00      	cmp	r3, #0
 800121c:	d0f0      	beq.n	8001200 <HAL_RCC_OscConfig+0x200>
 800121e:	e015      	b.n	800124c <HAL_RCC_OscConfig+0x24c>
      }
    }
    else
    {
      /* Disable the Internal Low Speed oscillator (LSI). */
      __HAL_RCC_LSI_DISABLE();
 8001220:	4b24      	ldr	r3, [pc, #144]	; (80012b4 <HAL_RCC_OscConfig+0x2b4>)
 8001222:	2200      	movs	r2, #0
 8001224:	601a      	str	r2, [r3, #0]

      /* Get Start Tick */
      tickstart = HAL_GetTick();
 8001226:	f7ff fc09 	bl	8000a3c <HAL_GetTick>
 800122a:	6138      	str	r0, [r7, #16]

      /* Wait till LSI is ready */
      while(__HAL_RCC_GET_FLAG(RCC_FLAG_LSIRDY) != RESET)
 800122c:	e008      	b.n	8001240 <HAL_RCC_OscConfig+0x240>
      {
        if((HAL_GetTick() - tickstart ) > LSI_TIMEOUT_VALUE)
 800122e:	f7ff fc05 	bl	8000a3c <HAL_GetTick>
 8001232:	4602      	mov	r2, r0
 8001234:	693b      	ldr	r3, [r7, #16]
 8001236:	1ad3      	subs	r3, r2, r3
 8001238:	2b02      	cmp	r3, #2
 800123a:	d901      	bls.n	8001240 <HAL_RCC_OscConfig+0x240>
        {
          return HAL_TIMEOUT;
 800123c:	2303      	movs	r3, #3
 800123e:	e144      	b.n	80014ca <HAL_RCC_OscConfig+0x4ca>
      while(__HAL_RCC_GET_FLAG(RCC_FLAG_LSIRDY) != RESET)
 8001240:	4b1a      	ldr	r3, [pc, #104]	; (80012ac <HAL_RCC_OscConfig+0x2ac>)
 8001242:	6f5b      	ldr	r3, [r3, #116]	; 0x74
 8001244:	f003 0302 	and.w	r3, r3, #2
 8001248:	2b00      	cmp	r3, #0
 800124a:	d1f0      	bne.n	800122e <HAL_RCC_OscConfig+0x22e>
        }
      }
    }
  }
  /*------------------------------ LSE Configuration -------------------------*/
  if(((RCC_OscInitStruct->OscillatorType) & RCC_OSCILLATORTYPE_LSE) == RCC_OSCILLATORTYPE_LSE)
 800124c:	687b      	ldr	r3, [r7, #4]
 800124e:	681b      	ldr	r3, [r3, #0]
 8001250:	f003 0304 	and.w	r3, r3, #4
 8001254:	2b00      	cmp	r3, #0
 8001256:	f000 80a0 	beq.w	800139a <HAL_RCC_OscConfig+0x39a>
  {
    FlagStatus       pwrclkchanged = RESET;
 800125a:	2300      	movs	r3, #0
 800125c:	75fb      	strb	r3, [r7, #23]
    /* Check the parameters */
    assert_param(IS_RCC_LSE(RCC_OscInitStruct->LSEState));

    /* Update LSE configuration in Backup Domain control register    */
    /* Requires to enable write access to Backup Domain of necessary */
    if(__HAL_RCC_PWR_IS_CLK_DISABLED())
 800125e:	4b13      	ldr	r3, [pc, #76]	; (80012ac <HAL_RCC_OscConfig+0x2ac>)
 8001260:	6c1b      	ldr	r3, [r3, #64]	; 0x40
 8001262:	f003 5380 	and.w	r3, r3, #268435456	; 0x10000000
 8001266:	2b00      	cmp	r3, #0
 8001268:	d10f      	bne.n	800128a <HAL_RCC_OscConfig+0x28a>
    {
      __HAL_RCC_PWR_CLK_ENABLE();
 800126a:	2300      	movs	r3, #0
 800126c:	60bb      	str	r3, [r7, #8]
 800126e:	4b0f      	ldr	r3, [pc, #60]	; (80012ac <HAL_RCC_OscConfig+0x2ac>)
 8001270:	6c1b      	ldr	r3, [r3, #64]	; 0x40
 8001272:	4a0e      	ldr	r2, [pc, #56]	; (80012ac <HAL_RCC_OscConfig+0x2ac>)
 8001274:	f043 5380 	orr.w	r3, r3, #268435456	; 0x10000000
 8001278:	6413      	str	r3, [r2, #64]	; 0x40
 800127a:	4b0c      	ldr	r3, [pc, #48]	; (80012ac <HAL_RCC_OscConfig+0x2ac>)
 800127c:	6c1b      	ldr	r3, [r3, #64]	; 0x40
 800127e:	f003 5380 	and.w	r3, r3, #268435456	; 0x10000000
 8001282:	60bb      	str	r3, [r7, #8]
 8001284:	68bb      	ldr	r3, [r7, #8]
      pwrclkchanged = SET;
 8001286:	2301      	movs	r3, #1
 8001288:	75fb      	strb	r3, [r7, #23]
    }

    if(HAL_IS_BIT_CLR(PWR->CR, PWR_CR_DBP))
 800128a:	4b0b      	ldr	r3, [pc, #44]	; (80012b8 <HAL_RCC_OscConfig+0x2b8>)
 800128c:	681b      	ldr	r3, [r3, #0]
 800128e:	f403 7380 	and.w	r3, r3, #256	; 0x100
 8001292:	2b00      	cmp	r3, #0
 8001294:	d121      	bne.n	80012da <HAL_RCC_OscConfig+0x2da>
    {
      /* Enable write access to Backup domain */
      SET_BIT(PWR->CR, PWR_CR_DBP);
 8001296:	4b08      	ldr	r3, [pc, #32]	; (80012b8 <HAL_RCC_OscConfig+0x2b8>)
 8001298:	681b      	ldr	r3, [r3, #0]
 800129a:	4a07      	ldr	r2, [pc, #28]	; (80012b8 <HAL_RCC_OscConfig+0x2b8>)
 800129c:	f443 7380 	orr.w	r3, r3, #256	; 0x100
 80012a0:	6013      	str	r3, [r2, #0]

      /* Wait for Backup domain Write protection disable */
      tickstart = HAL_GetTick();
 80012a2:	f7ff fbcb 	bl	8000a3c <HAL_GetTick>
 80012a6:	6138      	str	r0, [r7, #16]

      while(HAL_IS_BIT_CLR(PWR->CR, PWR_CR_DBP))
 80012a8:	e011      	b.n	80012ce <HAL_RCC_OscConfig+0x2ce>
 80012aa:	bf00      	nop
 80012ac:	40023800 	.word	0x40023800
 80012b0:	42470000 	.word	0x42470000
 80012b4:	42470e80 	.word	0x42470e80
 80012b8:	40007000 	.word	0x40007000
      {
        if((HAL_GetTick() - tickstart) > RCC_DBP_TIMEOUT_VALUE)
 80012bc:	f7ff fbbe 	bl	8000a3c <HAL_GetTick>
 80012c0:	4602      	mov	r2, r0
 80012c2:	693b      	ldr	r3, [r7, #16]
 80012c4:	1ad3      	subs	r3, r2, r3
 80012c6:	2b02      	cmp	r3, #2
 80012c8:	d901      	bls.n	80012ce <HAL_RCC_OscConfig+0x2ce>
        {
          return HAL_TIMEOUT;
 80012ca:	2303      	movs	r3, #3
 80012cc:	e0fd      	b.n	80014ca <HAL_RCC_OscConfig+0x4ca>
      while(HAL_IS_BIT_CLR(PWR->CR, PWR_CR_DBP))
 80012ce:	4b81      	ldr	r3, [pc, #516]	; (80014d4 <HAL_RCC_OscConfig+0x4d4>)
 80012d0:	681b      	ldr	r3, [r3, #0]
 80012d2:	f403 7380 	and.w	r3, r3, #256	; 0x100
 80012d6:	2b00      	cmp	r3, #0
 80012d8:	d0f0      	beq.n	80012bc <HAL_RCC_OscConfig+0x2bc>
        }
      }
    }

    /* Set the new LSE configuration -----------------------------------------*/
    __HAL_RCC_LSE_CONFIG(RCC_OscInitStruct->LSEState);
 80012da:	687b      	ldr	r3, [r7, #4]
 80012dc:	689b      	ldr	r3, [r3, #8]
 80012de:	2b01      	cmp	r3, #1
 80012e0:	d106      	bne.n	80012f0 <HAL_RCC_OscConfig+0x2f0>
 80012e2:	4b7d      	ldr	r3, [pc, #500]	; (80014d8 <HAL_RCC_OscConfig+0x4d8>)
 80012e4:	6f1b      	ldr	r3, [r3, #112]	; 0x70
 80012e6:	4a7c      	ldr	r2, [pc, #496]	; (80014d8 <HAL_RCC_OscConfig+0x4d8>)
 80012e8:	f043 0301 	orr.w	r3, r3, #1
 80012ec:	6713      	str	r3, [r2, #112]	; 0x70
 80012ee:	e01c      	b.n	800132a <HAL_RCC_OscConfig+0x32a>
 80012f0:	687b      	ldr	r3, [r7, #4]
 80012f2:	689b      	ldr	r3, [r3, #8]
 80012f4:	2b05      	cmp	r3, #5
 80012f6:	d10c      	bne.n	8001312 <HAL_RCC_OscConfig+0x312>
 80012f8:	4b77      	ldr	r3, [pc, #476]	; (80014d8 <HAL_RCC_OscConfig+0x4d8>)
 80012fa:	6f1b      	ldr	r3, [r3, #112]	; 0x70
 80012fc:	4a76      	ldr	r2, [pc, #472]	; (80014d8 <HAL_RCC_OscConfig+0x4d8>)
 80012fe:	f043 0304 	orr.w	r3, r3, #4
 8001302:	6713      	str	r3, [r2, #112]	; 0x70
 8001304:	4b74      	ldr	r3, [pc, #464]	; (80014d8 <HAL_RCC_OscConfig+0x4d8>)
 8001306:	6f1b      	ldr	r3, [r3, #112]	; 0x70
 8001308:	4a73      	ldr	r2, [pc, #460]	; (80014d8 <HAL_RCC_OscConfig+0x4d8>)
 800130a:	f043 0301 	orr.w	r3, r3, #1
 800130e:	6713      	str	r3, [r2, #112]	; 0x70
 8001310:	e00b      	b.n	800132a <HAL_RCC_OscConfig+0x32a>
 8001312:	4b71      	ldr	r3, [pc, #452]	; (80014d8 <HAL_RCC_OscConfig+0x4d8>)
 8001314:	6f1b      	ldr	r3, [r3, #112]	; 0x70
 8001316:	4a70      	ldr	r2, [pc, #448]	; (80014d8 <HAL_RCC_OscConfig+0x4d8>)
 8001318:	f023 0301 	bic.w	r3, r3, #1
 800131c:	6713      	str	r3, [r2, #112]	; 0x70
 800131e:	4b6e      	ldr	r3, [pc, #440]	; (80014d8 <HAL_RCC_OscConfig+0x4d8>)
 8001320:	6f1b      	ldr	r3, [r3, #112]	; 0x70
 8001322:	4a6d      	ldr	r2, [pc, #436]	; (80014d8 <HAL_RCC_OscConfig+0x4d8>)
 8001324:	f023 0304 	bic.w	r3, r3, #4
 8001328:	6713      	str	r3, [r2, #112]	; 0x70
    /* Check the LSE State */
    if((RCC_OscInitStruct->LSEState) != RCC_LSE_OFF)
 800132a:	687b      	ldr	r3, [r7, #4]
 800132c:	689b      	ldr	r3, [r3, #8]
 800132e:	2b00      	cmp	r3, #0
 8001330:	d015      	beq.n	800135e <HAL_RCC_OscConfig+0x35e>
    {
      /* Get Start Tick*/
      tickstart = HAL_GetTick();
 8001332:	f7ff fb83 	bl	8000a3c <HAL_GetTick>
 8001336:	6138      	str	r0, [r7, #16]

      /* Wait till LSE is ready */
      while(__HAL_RCC_GET_FLAG(RCC_FLAG_LSERDY) == RESET)
 8001338:	e00a      	b.n	8001350 <HAL_RCC_OscConfig+0x350>
      {
        if((HAL_GetTick() - tickstart ) > RCC_LSE_TIMEOUT_VALUE)
 800133a:	f7ff fb7f 	bl	8000a3c <HAL_GetTick>
 800133e:	4602      	mov	r2, r0
 8001340:	693b      	ldr	r3, [r7, #16]
 8001342:	1ad3      	subs	r3, r2, r3
 8001344:	f241 3288 	movw	r2, #5000	; 0x1388
 8001348:	4293      	cmp	r3, r2
 800134a:	d901      	bls.n	8001350 <HAL_RCC_OscConfig+0x350>
        {
          return HAL_TIMEOUT;
 800134c:	2303      	movs	r3, #3
 800134e:	e0bc      	b.n	80014ca <HAL_RCC_OscConfig+0x4ca>
      while(__HAL_RCC_GET_FLAG(RCC_FLAG_LSERDY) == RESET)
 8001350:	4b61      	ldr	r3, [pc, #388]	; (80014d8 <HAL_RCC_OscConfig+0x4d8>)
 8001352:	6f1b      	ldr	r3, [r3, #112]	; 0x70
 8001354:	f003 0302 	and.w	r3, r3, #2
 8001358:	2b00      	cmp	r3, #0
 800135a:	d0ee      	beq.n	800133a <HAL_RCC_OscConfig+0x33a>
 800135c:	e014      	b.n	8001388 <HAL_RCC_OscConfig+0x388>
      }
    }
    else
    {
      /* Get Start Tick */
      tickstart = HAL_GetTick();
 800135e:	f7ff fb6d 	bl	8000a3c <HAL_GetTick>
 8001362:	6138      	str	r0, [r7, #16]

      /* Wait till LSE is ready */
      while(__HAL_RCC_GET_FLAG(RCC_FLAG_LSERDY) != RESET)
 8001364:	e00a      	b.n	800137c <HAL_RCC_OscConfig+0x37c>
      {
        if((HAL_GetTick() - tickstart ) > RCC_LSE_TIMEOUT_VALUE)
 8001366:	f7ff fb69 	bl	8000a3c <HAL_GetTick>
 800136a:	4602      	mov	r2, r0
 800136c:	693b      	ldr	r3, [r7, #16]
 800136e:	1ad3      	subs	r3, r2, r3
 8001370:	f241 3288 	movw	r2, #5000	; 0x1388
 8001374:	4293      	cmp	r3, r2
 8001376:	d901      	bls.n	800137c <HAL_RCC_OscConfig+0x37c>
        {
          return HAL_TIMEOUT;
 8001378:	2303      	movs	r3, #3
 800137a:	e0a6      	b.n	80014ca <HAL_RCC_OscConfig+0x4ca>
      while(__HAL_RCC_GET_FLAG(RCC_FLAG_LSERDY) != RESET)
 800137c:	4b56      	ldr	r3, [pc, #344]	; (80014d8 <HAL_RCC_OscConfig+0x4d8>)
 800137e:	6f1b      	ldr	r3, [r3, #112]	; 0x70
 8001380:	f003 0302 	and.w	r3, r3, #2
 8001384:	2b00      	cmp	r3, #0
 8001386:	d1ee      	bne.n	8001366 <HAL_RCC_OscConfig+0x366>
        }
      }
    }

    /* Restore clock configuration if changed */
    if(pwrclkchanged == SET)
 8001388:	7dfb      	ldrb	r3, [r7, #23]
 800138a:	2b01      	cmp	r3, #1
 800138c:	d105      	bne.n	800139a <HAL_RCC_OscConfig+0x39a>
    {
      __HAL_RCC_PWR_CLK_DISABLE();
 800138e:	4b52      	ldr	r3, [pc, #328]	; (80014d8 <HAL_RCC_OscConfig+0x4d8>)
 8001390:	6c1b      	ldr	r3, [r3, #64]	; 0x40
 8001392:	4a51      	ldr	r2, [pc, #324]	; (80014d8 <HAL_RCC_OscConfig+0x4d8>)
 8001394:	f023 5380 	bic.w	r3, r3, #268435456	; 0x10000000
 8001398:	6413      	str	r3, [r2, #64]	; 0x40
    }
  }
  /*-------------------------------- PLL Configuration -----------------------*/
  /* Check the parameters */
  assert_param(IS_RCC_PLL(RCC_OscInitStruct->PLL.PLLState));
  if ((RCC_OscInitStruct->PLL.PLLState) != RCC_PLL_NONE)
 800139a:	687b      	ldr	r3, [r7, #4]
 800139c:	699b      	ldr	r3, [r3, #24]
 800139e:	2b00      	cmp	r3, #0
 80013a0:	f000 8092 	beq.w	80014c8 <HAL_RCC_OscConfig+0x4c8>
  {
    /* Check if the PLL is used as system clock or not */
    if(__HAL_RCC_GET_SYSCLK_SOURCE() != RCC_CFGR_SWS_PLL)
 80013a4:	4b4c      	ldr	r3, [pc, #304]	; (80014d8 <HAL_RCC_OscConfig+0x4d8>)
 80013a6:	689b      	ldr	r3, [r3, #8]
 80013a8:	f003 030c 	and.w	r3, r3, #12
 80013ac:	2b08      	cmp	r3, #8
 80013ae:	d05c      	beq.n	800146a <HAL_RCC_OscConfig+0x46a>
    {
      if((RCC_OscInitStruct->PLL.PLLState) == RCC_PLL_ON)
 80013b0:	687b      	ldr	r3, [r7, #4]
 80013b2:	699b      	ldr	r3, [r3, #24]
 80013b4:	2b02      	cmp	r3, #2
 80013b6:	d141      	bne.n	800143c <HAL_RCC_OscConfig+0x43c>
        assert_param(IS_RCC_PLLN_VALUE(RCC_OscInitStruct->PLL.PLLN));
        assert_param(IS_RCC_PLLP_VALUE(RCC_OscInitStruct->PLL.PLLP));
        assert_param(IS_RCC_PLLQ_VALUE(RCC_OscInitStruct->PLL.PLLQ));

        /* Disable the main PLL. */
        __HAL_RCC_PLL_DISABLE();
 80013b8:	4b48      	ldr	r3, [pc, #288]	; (80014dc <HAL_RCC_OscConfig+0x4dc>)
 80013ba:	2200      	movs	r2, #0
 80013bc:	601a      	str	r2, [r3, #0]

        /* Get Start Tick */
        tickstart = HAL_GetTick();
 80013be:	f7ff fb3d 	bl	8000a3c <HAL_GetTick>
 80013c2:	6138      	str	r0, [r7, #16]

        /* Wait till PLL is ready */
        while(__HAL_RCC_GET_FLAG(RCC_FLAG_PLLRDY) != RESET)
 80013c4:	e008      	b.n	80013d8 <HAL_RCC_OscConfig+0x3d8>
        {
          if((HAL_GetTick() - tickstart ) > PLL_TIMEOUT_VALUE)
 80013c6:	f7ff fb39 	bl	8000a3c <HAL_GetTick>
 80013ca:	4602      	mov	r2, r0
 80013cc:	693b      	ldr	r3, [r7, #16]
 80013ce:	1ad3      	subs	r3, r2, r3
 80013d0:	2b02      	cmp	r3, #2
 80013d2:	d901      	bls.n	80013d8 <HAL_RCC_OscConfig+0x3d8>
          {
            return HAL_TIMEOUT;
 80013d4:	2303      	movs	r3, #3
 80013d6:	e078      	b.n	80014ca <HAL_RCC_OscConfig+0x4ca>
        while(__HAL_RCC_GET_FLAG(RCC_FLAG_PLLRDY) != RESET)
 80013d8:	4b3f      	ldr	r3, [pc, #252]	; (80014d8 <HAL_RCC_OscConfig+0x4d8>)
 80013da:	681b      	ldr	r3, [r3, #0]
 80013dc:	f003 7300 	and.w	r3, r3, #33554432	; 0x2000000
 80013e0:	2b00      	cmp	r3, #0
 80013e2:	d1f0      	bne.n	80013c6 <HAL_RCC_OscConfig+0x3c6>
          }
        }

        /* Configure the main PLL clock source, multiplication and division factors. */
        WRITE_REG(RCC->PLLCFGR, (RCC_OscInitStruct->PLL.PLLSource                                            | \
 80013e4:	687b      	ldr	r3, [r7, #4]
 80013e6:	69da      	ldr	r2, [r3, #28]
 80013e8:	687b      	ldr	r3, [r7, #4]
 80013ea:	6a1b      	ldr	r3, [r3, #32]
 80013ec:	431a      	orrs	r2, r3
 80013ee:	687b      	ldr	r3, [r7, #4]
 80013f0:	6a5b      	ldr	r3, [r3, #36]	; 0x24
 80013f2:	019b      	lsls	r3, r3, #6
 80013f4:	431a      	orrs	r2, r3
 80013f6:	687b      	ldr	r3, [r7, #4]
 80013f8:	6a9b      	ldr	r3, [r3, #40]	; 0x28
 80013fa:	085b      	lsrs	r3, r3, #1
 80013fc:	3b01      	subs	r3, #1
 80013fe:	041b      	lsls	r3, r3, #16
 8001400:	431a      	orrs	r2, r3
 8001402:	687b      	ldr	r3, [r7, #4]
 8001404:	6adb      	ldr	r3, [r3, #44]	; 0x2c
 8001406:	061b      	lsls	r3, r3, #24
 8001408:	4933      	ldr	r1, [pc, #204]	; (80014d8 <HAL_RCC_OscConfig+0x4d8>)
 800140a:	4313      	orrs	r3, r2
 800140c:	604b      	str	r3, [r1, #4]
                                 RCC_OscInitStruct->PLL.PLLM                                                 | \
                                 (RCC_OscInitStruct->PLL.PLLN << RCC_PLLCFGR_PLLN_Pos)             | \
                                 (((RCC_OscInitStruct->PLL.PLLP >> 1U) - 1U) << RCC_PLLCFGR_PLLP_Pos) | \
                                 (RCC_OscInitStruct->PLL.PLLQ << RCC_PLLCFGR_PLLQ_Pos)));
        /* Enable the main PLL. */
        __HAL_RCC_PLL_ENABLE();
 800140e:	4b33      	ldr	r3, [pc, #204]	; (80014dc <HAL_RCC_OscConfig+0x4dc>)
 8001410:	2201      	movs	r2, #1
 8001412:	601a      	str	r2, [r3, #0]

        /* Get Start Tick */
        tickstart = HAL_GetTick();
 8001414:	f7ff fb12 	bl	8000a3c <HAL_GetTick>
 8001418:	6138      	str	r0, [r7, #16]

        /* Wait till PLL is ready */
        while(__HAL_RCC_GET_FLAG(RCC_FLAG_PLLRDY) == RESET)
 800141a:	e008      	b.n	800142e <HAL_RCC_OscConfig+0x42e>
        {
          if((HAL_GetTick() - tickstart ) > PLL_TIMEOUT_VALUE)
 800141c:	f7ff fb0e 	bl	8000a3c <HAL_GetTick>
 8001420:	4602      	mov	r2, r0
 8001422:	693b      	ldr	r3, [r7, #16]
 8001424:	1ad3      	subs	r3, r2, r3
 8001426:	2b02      	cmp	r3, #2
 8001428:	d901      	bls.n	800142e <HAL_RCC_OscConfig+0x42e>
          {
            return HAL_TIMEOUT;
 800142a:	2303      	movs	r3, #3
 800142c:	e04d      	b.n	80014ca <HAL_RCC_OscConfig+0x4ca>
        while(__HAL_RCC_GET_FLAG(RCC_FLAG_PLLRDY) == RESET)
 800142e:	4b2a      	ldr	r3, [pc, #168]	; (80014d8 <HAL_RCC_OscConfig+0x4d8>)
 8001430:	681b      	ldr	r3, [r3, #0]
 8001432:	f003 7300 	and.w	r3, r3, #33554432	; 0x2000000
 8001436:	2b00      	cmp	r3, #0
 8001438:	d0f0      	beq.n	800141c <HAL_RCC_OscConfig+0x41c>
 800143a:	e045      	b.n	80014c8 <HAL_RCC_OscConfig+0x4c8>
        }
      }
      else
      {
        /* Disable the main PLL. */
        __HAL_RCC_PLL_DISABLE();
 800143c:	4b27      	ldr	r3, [pc, #156]	; (80014dc <HAL_RCC_OscConfig+0x4dc>)
 800143e:	2200      	movs	r2, #0
 8001440:	601a      	str	r2, [r3, #0]

        /* Get Start Tick */
        tickstart = HAL_GetTick();
 8001442:	f7ff fafb 	bl	8000a3c <HAL_GetTick>
 8001446:	6138      	str	r0, [r7, #16]

        /* Wait till PLL is ready */
        while(__HAL_RCC_GET_FLAG(RCC_FLAG_PLLRDY) != RESET)
 8001448:	e008      	b.n	800145c <HAL_RCC_OscConfig+0x45c>
        {
          if((HAL_GetTick() - tickstart ) > PLL_TIMEOUT_VALUE)
 800144a:	f7ff faf7 	bl	8000a3c <HAL_GetTick>
 800144e:	4602      	mov	r2, r0
 8001450:	693b      	ldr	r3, [r7, #16]
 8001452:	1ad3      	subs	r3, r2, r3
 8001454:	2b02      	cmp	r3, #2
 8001456:	d901      	bls.n	800145c <HAL_RCC_OscConfig+0x45c>
          {
            return HAL_TIMEOUT;
 8001458:	2303      	movs	r3, #3
 800145a:	e036      	b.n	80014ca <HAL_RCC_OscConfig+0x4ca>
        while(__HAL_RCC_GET_FLAG(RCC_FLAG_PLLRDY) != RESET)
 800145c:	4b1e      	ldr	r3, [pc, #120]	; (80014d8 <HAL_RCC_OscConfig+0x4d8>)
 800145e:	681b      	ldr	r3, [r3, #0]
 8001460:	f003 7300 	and.w	r3, r3, #33554432	; 0x2000000
 8001464:	2b00      	cmp	r3, #0
 8001466:	d1f0      	bne.n	800144a <HAL_RCC_OscConfig+0x44a>
 8001468:	e02e      	b.n	80014c8 <HAL_RCC_OscConfig+0x4c8>
      }
    }
    else
    {
      /* Check if there is a request to disable the PLL used as System clock source */
      if((RCC_OscInitStruct->PLL.PLLState) == RCC_PLL_OFF)
 800146a:	687b      	ldr	r3, [r7, #4]
 800146c:	699b      	ldr	r3, [r3, #24]
 800146e:	2b01      	cmp	r3, #1
 8001470:	d101      	bne.n	8001476 <HAL_RCC_OscConfig+0x476>
      {
        return HAL_ERROR;
 8001472:	2301      	movs	r3, #1
 8001474:	e029      	b.n	80014ca <HAL_RCC_OscConfig+0x4ca>
      }
      else
      {
        /* Do not return HAL_ERROR if request repeats the current configuration */
        pll_config = RCC->PLLCFGR;
 8001476:	4b18      	ldr	r3, [pc, #96]	; (80014d8 <HAL_RCC_OscConfig+0x4d8>)
 8001478:	685b      	ldr	r3, [r3, #4]
 800147a:	60fb      	str	r3, [r7, #12]
        if((READ_BIT(pll_config, RCC_PLLCFGR_PLLSRC) != RCC_OscInitStruct->PLL.PLLSource) ||
 800147c:	68fb      	ldr	r3, [r7, #12]
 800147e:	f403 0280 	and.w	r2, r3, #4194304	; 0x400000
 8001482:	687b      	ldr	r3, [r7, #4]
 8001484:	69db      	ldr	r3, [r3, #28]
 8001486:	429a      	cmp	r2, r3
 8001488:	d11c      	bne.n	80014c4 <HAL_RCC_OscConfig+0x4c4>
           (READ_BIT(pll_config, RCC_PLLCFGR_PLLM) != RCC_OscInitStruct->PLL.PLLM) ||
 800148a:	68fb      	ldr	r3, [r7, #12]
 800148c:	f003 023f 	and.w	r2, r3, #63	; 0x3f
 8001490:	687b      	ldr	r3, [r7, #4]
 8001492:	6a1b      	ldr	r3, [r3, #32]
        if((READ_BIT(pll_config, RCC_PLLCFGR_PLLSRC) != RCC_OscInitStruct->PLL.PLLSource) ||
 8001494:	429a      	cmp	r2, r3
 8001496:	d115      	bne.n	80014c4 <HAL_RCC_OscConfig+0x4c4>
           (READ_BIT(pll_config, RCC_PLLCFGR_PLLN) != RCC_OscInitStruct->PLL.PLLN) ||
 8001498:	68fa      	ldr	r2, [r7, #12]
 800149a:	f647 73c0 	movw	r3, #32704	; 0x7fc0
 800149e:	4013      	ands	r3, r2
 80014a0:	687a      	ldr	r2, [r7, #4]
 80014a2:	6a52      	ldr	r2, [r2, #36]	; 0x24
           (READ_BIT(pll_config, RCC_PLLCFGR_PLLM) != RCC_OscInitStruct->PLL.PLLM) ||
 80014a4:	4293      	cmp	r3, r2
 80014a6:	d10d      	bne.n	80014c4 <HAL_RCC_OscConfig+0x4c4>
           (READ_BIT(pll_config, RCC_PLLCFGR_PLLP) != RCC_OscInitStruct->PLL.PLLP) ||
 80014a8:	68fb      	ldr	r3, [r7, #12]
 80014aa:	f403 3240 	and.w	r2, r3, #196608	; 0x30000
 80014ae:	687b      	ldr	r3, [r7, #4]
 80014b0:	6a9b      	ldr	r3, [r3, #40]	; 0x28
           (READ_BIT(pll_config, RCC_PLLCFGR_PLLN) != RCC_OscInitStruct->PLL.PLLN) ||
 80014b2:	429a      	cmp	r2, r3
 80014b4:	d106      	bne.n	80014c4 <HAL_RCC_OscConfig+0x4c4>
           (READ_BIT(pll_config, RCC_PLLCFGR_PLLQ) != RCC_OscInitStruct->PLL.PLLQ))
 80014b6:	68fb      	ldr	r3, [r7, #12]
 80014b8:	f003 6270 	and.w	r2, r3, #251658240	; 0xf000000
 80014bc:	687b      	ldr	r3, [r7, #4]
 80014be:	6adb      	ldr	r3, [r3, #44]	; 0x2c
           (READ_BIT(pll_config, RCC_PLLCFGR_PLLP) != RCC_OscInitStruct->PLL.PLLP) ||
 80014c0:	429a      	cmp	r2, r3
 80014c2:	d001      	beq.n	80014c8 <HAL_RCC_OscConfig+0x4c8>
        {
          return HAL_ERROR;
 80014c4:	2301      	movs	r3, #1
 80014c6:	e000      	b.n	80014ca <HAL_RCC_OscConfig+0x4ca>
        }
      }
    }
  }
  return HAL_OK;
 80014c8:	2300      	movs	r3, #0
}
 80014ca:	4618      	mov	r0, r3
 80014cc:	3718      	adds	r7, #24
 80014ce:	46bd      	mov	sp, r7
 80014d0:	bd80      	pop	{r7, pc}
 80014d2:	bf00      	nop
 80014d4:	40007000 	.word	0x40007000
 80014d8:	40023800 	.word	0x40023800
 80014dc:	42470060 	.word	0x42470060

080014e0 <HAL_RCC_ClockConfig>:
  *         HPRE[3:0] bits to ensure that HCLK not exceed the maximum allowed frequency
  *         (for more details refer to section above "Initialization/de-initialization functions")
  * @retval None
  */
HAL_StatusTypeDef HAL_RCC_ClockConfig(RCC_ClkInitTypeDef  *RCC_ClkInitStruct, uint32_t FLatency)
{
 80014e0:	b580      	push	{r7, lr}
 80014e2:	b084      	sub	sp, #16
 80014e4:	af00      	add	r7, sp, #0
 80014e6:	6078      	str	r0, [r7, #4]
 80014e8:	6039      	str	r1, [r7, #0]
  uint32_t tickstart;

  /* Check Null pointer */
  if(RCC_ClkInitStruct == NULL)
 80014ea:	687b      	ldr	r3, [r7, #4]
 80014ec:	2b00      	cmp	r3, #0
 80014ee:	d101      	bne.n	80014f4 <HAL_RCC_ClockConfig+0x14>
  {
    return HAL_ERROR;
 80014f0:	2301      	movs	r3, #1
 80014f2:	e0cc      	b.n	800168e <HAL_RCC_ClockConfig+0x1ae>
  /* To correctly read data from FLASH memory, the number of wait states (LATENCY)
    must be correctly programmed according to the frequency of the CPU clock
    (HCLK) and the supply voltage of the device. */

  /* Increasing the number of wait states because of higher CPU frequency */
  if(FLatency > __HAL_FLASH_GET_LATENCY())
 80014f4:	4b68      	ldr	r3, [pc, #416]	; (8001698 <HAL_RCC_ClockConfig+0x1b8>)
 80014f6:	681b      	ldr	r3, [r3, #0]
 80014f8:	f003 030f 	and.w	r3, r3, #15
 80014fc:	683a      	ldr	r2, [r7, #0]
 80014fe:	429a      	cmp	r2, r3
 8001500:	d90c      	bls.n	800151c <HAL_RCC_ClockConfig+0x3c>
  {
    /* Program the new number of wait states to the LATENCY bits in the FLASH_ACR register */
    __HAL_FLASH_SET_LATENCY(FLatency);
 8001502:	4b65      	ldr	r3, [pc, #404]	; (8001698 <HAL_RCC_ClockConfig+0x1b8>)
 8001504:	683a      	ldr	r2, [r7, #0]
 8001506:	b2d2      	uxtb	r2, r2
 8001508:	701a      	strb	r2, [r3, #0]

    /* Check that the new number of wait states is taken into account to access the Flash
    memory by reading the FLASH_ACR register */
    if(__HAL_FLASH_GET_LATENCY() != FLatency)
 800150a:	4b63      	ldr	r3, [pc, #396]	; (8001698 <HAL_RCC_ClockConfig+0x1b8>)
 800150c:	681b      	ldr	r3, [r3, #0]
 800150e:	f003 030f 	and.w	r3, r3, #15
 8001512:	683a      	ldr	r2, [r7, #0]
 8001514:	429a      	cmp	r2, r3
 8001516:	d001      	beq.n	800151c <HAL_RCC_ClockConfig+0x3c>
    {
      return HAL_ERROR;
 8001518:	2301      	movs	r3, #1
 800151a:	e0b8      	b.n	800168e <HAL_RCC_ClockConfig+0x1ae>
    }
  }

  /*-------------------------- HCLK Configuration --------------------------*/
  if(((RCC_ClkInitStruct->ClockType) & RCC_CLOCKTYPE_HCLK) == RCC_CLOCKTYPE_HCLK)
 800151c:	687b      	ldr	r3, [r7, #4]
 800151e:	681b      	ldr	r3, [r3, #0]
 8001520:	f003 0302 	and.w	r3, r3, #2
 8001524:	2b00      	cmp	r3, #0
 8001526:	d020      	beq.n	800156a <HAL_RCC_ClockConfig+0x8a>
  {
    /* Set the highest APBx dividers in order to ensure that we do not go through
       a non-spec phase whatever we decrease or increase HCLK. */
    if(((RCC_ClkInitStruct->ClockType) & RCC_CLOCKTYPE_PCLK1) == RCC_CLOCKTYPE_PCLK1)
 8001528:	687b      	ldr	r3, [r7, #4]
 800152a:	681b      	ldr	r3, [r3, #0]
 800152c:	f003 0304 	and.w	r3, r3, #4
 8001530:	2b00      	cmp	r3, #0
 8001532:	d005      	beq.n	8001540 <HAL_RCC_ClockConfig+0x60>
    {
      MODIFY_REG(RCC->CFGR, RCC_CFGR_PPRE1, RCC_HCLK_DIV16);
 8001534:	4b59      	ldr	r3, [pc, #356]	; (800169c <HAL_RCC_ClockConfig+0x1bc>)
 8001536:	689b      	ldr	r3, [r3, #8]
 8001538:	4a58      	ldr	r2, [pc, #352]	; (800169c <HAL_RCC_ClockConfig+0x1bc>)
 800153a:	f443 53e0 	orr.w	r3, r3, #7168	; 0x1c00
 800153e:	6093      	str	r3, [r2, #8]
    }

    if(((RCC_ClkInitStruct->ClockType) & RCC_CLOCKTYPE_PCLK2) == RCC_CLOCKTYPE_PCLK2)
 8001540:	687b      	ldr	r3, [r7, #4]
 8001542:	681b      	ldr	r3, [r3, #0]
 8001544:	f003 0308 	and.w	r3, r3, #8
 8001548:	2b00      	cmp	r3, #0
 800154a:	d005      	beq.n	8001558 <HAL_RCC_ClockConfig+0x78>
    {
      MODIFY_REG(RCC->CFGR, RCC_CFGR_PPRE2, (RCC_HCLK_DIV16 << 3));
 800154c:	4b53      	ldr	r3, [pc, #332]	; (800169c <HAL_RCC_ClockConfig+0x1bc>)
 800154e:	689b      	ldr	r3, [r3, #8]
 8001550:	4a52      	ldr	r2, [pc, #328]	; (800169c <HAL_RCC_ClockConfig+0x1bc>)
 8001552:	f443 4360 	orr.w	r3, r3, #57344	; 0xe000
 8001556:	6093      	str	r3, [r2, #8]
    }

    assert_param(IS_RCC_HCLK(RCC_ClkInitStruct->AHBCLKDivider));
    MODIFY_REG(RCC->CFGR, RCC_CFGR_HPRE, RCC_ClkInitStruct->AHBCLKDivider);
 8001558:	4b50      	ldr	r3, [pc, #320]	; (800169c <HAL_RCC_ClockConfig+0x1bc>)
 800155a:	689b      	ldr	r3, [r3, #8]
 800155c:	f023 02f0 	bic.w	r2, r3, #240	; 0xf0
 8001560:	687b      	ldr	r3, [r7, #4]
 8001562:	689b      	ldr	r3, [r3, #8]
 8001564:	494d      	ldr	r1, [pc, #308]	; (800169c <HAL_RCC_ClockConfig+0x1bc>)
 8001566:	4313      	orrs	r3, r2
 8001568:	608b      	str	r3, [r1, #8]
  }

  /*------------------------- SYSCLK Configuration ---------------------------*/
  if(((RCC_ClkInitStruct->ClockType) & RCC_CLOCKTYPE_SYSCLK) == RCC_CLOCKTYPE_SYSCLK)
 800156a:	687b      	ldr	r3, [r7, #4]
 800156c:	681b      	ldr	r3, [r3, #0]
 800156e:	f003 0301 	and.w	r3, r3, #1
 8001572:	2b00      	cmp	r3, #0
 8001574:	d044      	beq.n	8001600 <HAL_RCC_ClockConfig+0x120>
  {
    assert_param(IS_RCC_SYSCLKSOURCE(RCC_ClkInitStruct->SYSCLKSource));

    /* HSE is selected as System Clock Source */
    if(RCC_ClkInitStruct->SYSCLKSource == RCC_SYSCLKSOURCE_HSE)
 8001576:	687b      	ldr	r3, [r7, #4]
 8001578:	685b      	ldr	r3, [r3, #4]
 800157a:	2b01      	cmp	r3, #1
 800157c:	d107      	bne.n	800158e <HAL_RCC_ClockConfig+0xae>
    {
      /* Check the HSE ready flag */
      if(__HAL_RCC_GET_FLAG(RCC_FLAG_HSERDY) == RESET)
 800157e:	4b47      	ldr	r3, [pc, #284]	; (800169c <HAL_RCC_ClockConfig+0x1bc>)
 8001580:	681b      	ldr	r3, [r3, #0]
 8001582:	f403 3300 	and.w	r3, r3, #131072	; 0x20000
 8001586:	2b00      	cmp	r3, #0
 8001588:	d119      	bne.n	80015be <HAL_RCC_ClockConfig+0xde>
      {
        return HAL_ERROR;
 800158a:	2301      	movs	r3, #1
 800158c:	e07f      	b.n	800168e <HAL_RCC_ClockConfig+0x1ae>
      }
    }
    /* PLL is selected as System Clock Source */
    else if((RCC_ClkInitStruct->SYSCLKSource == RCC_SYSCLKSOURCE_PLLCLK)   ||
 800158e:	687b      	ldr	r3, [r7, #4]
 8001590:	685b      	ldr	r3, [r3, #4]
 8001592:	2b02      	cmp	r3, #2
 8001594:	d003      	beq.n	800159e <HAL_RCC_ClockConfig+0xbe>
            (RCC_ClkInitStruct->SYSCLKSource == RCC_SYSCLKSOURCE_PLLRCLK))
 8001596:	687b      	ldr	r3, [r7, #4]
 8001598:	685b      	ldr	r3, [r3, #4]
    else if((RCC_ClkInitStruct->SYSCLKSource == RCC_SYSCLKSOURCE_PLLCLK)   ||
 800159a:	2b03      	cmp	r3, #3
 800159c:	d107      	bne.n	80015ae <HAL_RCC_ClockConfig+0xce>
    {
      /* Check the PLL ready flag */
      if(__HAL_RCC_GET_FLAG(RCC_FLAG_PLLRDY) == RESET)
 800159e:	4b3f      	ldr	r3, [pc, #252]	; (800169c <HAL_RCC_ClockConfig+0x1bc>)
 80015a0:	681b      	ldr	r3, [r3, #0]
 80015a2:	f003 7300 	and.w	r3, r3, #33554432	; 0x2000000
 80015a6:	2b00      	cmp	r3, #0
 80015a8:	d109      	bne.n	80015be <HAL_RCC_ClockConfig+0xde>
      {
        return HAL_ERROR;
 80015aa:	2301      	movs	r3, #1
 80015ac:	e06f      	b.n	800168e <HAL_RCC_ClockConfig+0x1ae>
    }
    /* HSI is selected as System Clock Source */
    else
    {
      /* Check the HSI ready flag */
      if(__HAL_RCC_GET_FLAG(RCC_FLAG_HSIRDY) == RESET)
 80015ae:	4b3b      	ldr	r3, [pc, #236]	; (800169c <HAL_RCC_ClockConfig+0x1bc>)
 80015b0:	681b      	ldr	r3, [r3, #0]
 80015b2:	f003 0302 	and.w	r3, r3, #2
 80015b6:	2b00      	cmp	r3, #0
 80015b8:	d101      	bne.n	80015be <HAL_RCC_ClockConfig+0xde>
      {
        return HAL_ERROR;
 80015ba:	2301      	movs	r3, #1
 80015bc:	e067      	b.n	800168e <HAL_RCC_ClockConfig+0x1ae>
      }
    }

    __HAL_RCC_SYSCLK_CONFIG(RCC_ClkInitStruct->SYSCLKSource);
 80015be:	4b37      	ldr	r3, [pc, #220]	; (800169c <HAL_RCC_ClockConfig+0x1bc>)
 80015c0:	689b      	ldr	r3, [r3, #8]
 80015c2:	f023 0203 	bic.w	r2, r3, #3
 80015c6:	687b      	ldr	r3, [r7, #4]
 80015c8:	685b      	ldr	r3, [r3, #4]
 80015ca:	4934      	ldr	r1, [pc, #208]	; (800169c <HAL_RCC_ClockConfig+0x1bc>)
 80015cc:	4313      	orrs	r3, r2
 80015ce:	608b      	str	r3, [r1, #8]

    /* Get Start Tick */
    tickstart = HAL_GetTick();
 80015d0:	f7ff fa34 	bl	8000a3c <HAL_GetTick>
 80015d4:	60f8      	str	r0, [r7, #12]

    while (__HAL_RCC_GET_SYSCLK_SOURCE() != (RCC_ClkInitStruct->SYSCLKSource << RCC_CFGR_SWS_Pos))
 80015d6:	e00a      	b.n	80015ee <HAL_RCC_ClockConfig+0x10e>
    {
      if ((HAL_GetTick() - tickstart) > CLOCKSWITCH_TIMEOUT_VALUE)
 80015d8:	f7ff fa30 	bl	8000a3c <HAL_GetTick>
 80015dc:	4602      	mov	r2, r0
 80015de:	68fb      	ldr	r3, [r7, #12]
 80015e0:	1ad3      	subs	r3, r2, r3
 80015e2:	f241 3288 	movw	r2, #5000	; 0x1388
 80015e6:	4293      	cmp	r3, r2
 80015e8:	d901      	bls.n	80015ee <HAL_RCC_ClockConfig+0x10e>
      {
        return HAL_TIMEOUT;
 80015ea:	2303      	movs	r3, #3
 80015ec:	e04f      	b.n	800168e <HAL_RCC_ClockConfig+0x1ae>
    while (__HAL_RCC_GET_SYSCLK_SOURCE() != (RCC_ClkInitStruct->SYSCLKSource << RCC_CFGR_SWS_Pos))
 80015ee:	4b2b      	ldr	r3, [pc, #172]	; (800169c <HAL_RCC_ClockConfig+0x1bc>)
 80015f0:	689b      	ldr	r3, [r3, #8]
 80015f2:	f003 020c 	and.w	r2, r3, #12
 80015f6:	687b      	ldr	r3, [r7, #4]
 80015f8:	685b      	ldr	r3, [r3, #4]
 80015fa:	009b      	lsls	r3, r3, #2
 80015fc:	429a      	cmp	r2, r3
 80015fe:	d1eb      	bne.n	80015d8 <HAL_RCC_ClockConfig+0xf8>
      }
    }
  }

  /* Decreasing the number of wait states because of lower CPU frequency */
  if(FLatency < __HAL_FLASH_GET_LATENCY())
 8001600:	4b25      	ldr	r3, [pc, #148]	; (8001698 <HAL_RCC_ClockConfig+0x1b8>)
 8001602:	681b      	ldr	r3, [r3, #0]
 8001604:	f003 030f 	and.w	r3, r3, #15
 8001608:	683a      	ldr	r2, [r7, #0]
 800160a:	429a      	cmp	r2, r3
 800160c:	d20c      	bcs.n	8001628 <HAL_RCC_ClockConfig+0x148>
  {
     /* Program the new number of wait states to the LATENCY bits in the FLASH_ACR register */
    __HAL_FLASH_SET_LATENCY(FLatency);
 800160e:	4b22      	ldr	r3, [pc, #136]	; (8001698 <HAL_RCC_ClockConfig+0x1b8>)
 8001610:	683a      	ldr	r2, [r7, #0]
 8001612:	b2d2      	uxtb	r2, r2
 8001614:	701a      	strb	r2, [r3, #0]

    /* Check that the new number of wait states is taken into account to access the Flash
    memory by reading the FLASH_ACR register */
    if(__HAL_FLASH_GET_LATENCY() != FLatency)
 8001616:	4b20      	ldr	r3, [pc, #128]	; (8001698 <HAL_RCC_ClockConfig+0x1b8>)
 8001618:	681b      	ldr	r3, [r3, #0]
 800161a:	f003 030f 	and.w	r3, r3, #15
 800161e:	683a      	ldr	r2, [r7, #0]
 8001620:	429a      	cmp	r2, r3
 8001622:	d001      	beq.n	8001628 <HAL_RCC_ClockConfig+0x148>
    {
      return HAL_ERROR;
 8001624:	2301      	movs	r3, #1
 8001626:	e032      	b.n	800168e <HAL_RCC_ClockConfig+0x1ae>
    }
  }

  /*-------------------------- PCLK1 Configuration ---------------------------*/
  if(((RCC_ClkInitStruct->ClockType) & RCC_CLOCKTYPE_PCLK1) == RCC_CLOCKTYPE_PCLK1)
 8001628:	687b      	ldr	r3, [r7, #4]
 800162a:	681b      	ldr	r3, [r3, #0]
 800162c:	f003 0304 	and.w	r3, r3, #4
 8001630:	2b00      	cmp	r3, #0
 8001632:	d008      	beq.n	8001646 <HAL_RCC_ClockConfig+0x166>
  {
    assert_param(IS_RCC_PCLK(RCC_ClkInitStruct->APB1CLKDivider));
    MODIFY_REG(RCC->CFGR, RCC_CFGR_PPRE1, RCC_ClkInitStruct->APB1CLKDivider);
 8001634:	4b19      	ldr	r3, [pc, #100]	; (800169c <HAL_RCC_ClockConfig+0x1bc>)
 8001636:	689b      	ldr	r3, [r3, #8]
 8001638:	f423 52e0 	bic.w	r2, r3, #7168	; 0x1c00
 800163c:	687b      	ldr	r3, [r7, #4]
 800163e:	68db      	ldr	r3, [r3, #12]
 8001640:	4916      	ldr	r1, [pc, #88]	; (800169c <HAL_RCC_ClockConfig+0x1bc>)
 8001642:	4313      	orrs	r3, r2
 8001644:	608b      	str	r3, [r1, #8]
  }

  /*-------------------------- PCLK2 Configuration ---------------------------*/
  if(((RCC_ClkInitStruct->ClockType) & RCC_CLOCKTYPE_PCLK2) == RCC_CLOCKTYPE_PCLK2)
 8001646:	687b      	ldr	r3, [r7, #4]
 8001648:	681b      	ldr	r3, [r3, #0]
 800164a:	f003 0308 	and.w	r3, r3, #8
 800164e:	2b00      	cmp	r3, #0
 8001650:	d009      	beq.n	8001666 <HAL_RCC_ClockConfig+0x186>
  {
    assert_param(IS_RCC_PCLK(RCC_ClkInitStruct->APB2CLKDivider));
    MODIFY_REG(RCC->CFGR, RCC_CFGR_PPRE2, ((RCC_ClkInitStruct->APB2CLKDivider) << 3U));
 8001652:	4b12      	ldr	r3, [pc, #72]	; (800169c <HAL_RCC_ClockConfig+0x1bc>)
 8001654:	689b      	ldr	r3, [r3, #8]
 8001656:	f423 4260 	bic.w	r2, r3, #57344	; 0xe000
 800165a:	687b      	ldr	r3, [r7, #4]
 800165c:	691b      	ldr	r3, [r3, #16]
 800165e:	00db      	lsls	r3, r3, #3
 8001660:	490e      	ldr	r1, [pc, #56]	; (800169c <HAL_RCC_ClockConfig+0x1bc>)
 8001662:	4313      	orrs	r3, r2
 8001664:	608b      	str	r3, [r1, #8]
  }

  /* Update the SystemCoreClock global variable */
  SystemCoreClock = HAL_RCC_GetSysClockFreq() >> AHBPrescTable[(RCC->CFGR & RCC_CFGR_HPRE)>> RCC_CFGR_HPRE_Pos];
 8001666:	f000 f821 	bl	80016ac <HAL_RCC_GetSysClockFreq>
 800166a:	4601      	mov	r1, r0
 800166c:	4b0b      	ldr	r3, [pc, #44]	; (800169c <HAL_RCC_ClockConfig+0x1bc>)
 800166e:	689b      	ldr	r3, [r3, #8]
 8001670:	091b      	lsrs	r3, r3, #4
 8001672:	f003 030f 	and.w	r3, r3, #15
 8001676:	4a0a      	ldr	r2, [pc, #40]	; (80016a0 <HAL_RCC_ClockConfig+0x1c0>)
 8001678:	5cd3      	ldrb	r3, [r2, r3]
 800167a:	fa21 f303 	lsr.w	r3, r1, r3
 800167e:	4a09      	ldr	r2, [pc, #36]	; (80016a4 <HAL_RCC_ClockConfig+0x1c4>)
 8001680:	6013      	str	r3, [r2, #0]

  /* Configure the source of time base considering new system clocks settings */
  HAL_InitTick (uwTickPrio);
 8001682:	4b09      	ldr	r3, [pc, #36]	; (80016a8 <HAL_RCC_ClockConfig+0x1c8>)
 8001684:	681b      	ldr	r3, [r3, #0]
 8001686:	4618      	mov	r0, r3
 8001688:	f7ff f994 	bl	80009b4 <HAL_InitTick>

  return HAL_OK;
 800168c:	2300      	movs	r3, #0
}
 800168e:	4618      	mov	r0, r3
 8001690:	3710      	adds	r7, #16
 8001692:	46bd      	mov	sp, r7
 8001694:	bd80      	pop	{r7, pc}
 8001696:	bf00      	nop
 8001698:	40023c00 	.word	0x40023c00
 800169c:	40023800 	.word	0x40023800
 80016a0:	08002ae4 	.word	0x08002ae4
 80016a4:	20000000 	.word	0x20000000
 80016a8:	20000004 	.word	0x20000004

080016ac <HAL_RCC_GetSysClockFreq>:
  *
  *
  * @retval SYSCLK frequency
  */
__weak uint32_t HAL_RCC_GetSysClockFreq(void)
{
 80016ac:	b5f0      	push	{r4, r5, r6, r7, lr}
 80016ae:	b085      	sub	sp, #20
 80016b0:	af00      	add	r7, sp, #0
  uint32_t pllm = 0U, pllvco = 0U, pllp = 0U;
 80016b2:	2300      	movs	r3, #0
 80016b4:	607b      	str	r3, [r7, #4]
 80016b6:	2300      	movs	r3, #0
 80016b8:	60fb      	str	r3, [r7, #12]
 80016ba:	2300      	movs	r3, #0
 80016bc:	603b      	str	r3, [r7, #0]
  uint32_t sysclockfreq = 0U;
 80016be:	2300      	movs	r3, #0
 80016c0:	60bb      	str	r3, [r7, #8]

  /* Get SYSCLK source -------------------------------------------------------*/
  switch (RCC->CFGR & RCC_CFGR_SWS)
 80016c2:	4b63      	ldr	r3, [pc, #396]	; (8001850 <HAL_RCC_GetSysClockFreq+0x1a4>)
 80016c4:	689b      	ldr	r3, [r3, #8]
 80016c6:	f003 030c 	and.w	r3, r3, #12
 80016ca:	2b04      	cmp	r3, #4
 80016cc:	d007      	beq.n	80016de <HAL_RCC_GetSysClockFreq+0x32>
 80016ce:	2b08      	cmp	r3, #8
 80016d0:	d008      	beq.n	80016e4 <HAL_RCC_GetSysClockFreq+0x38>
 80016d2:	2b00      	cmp	r3, #0
 80016d4:	f040 80b4 	bne.w	8001840 <HAL_RCC_GetSysClockFreq+0x194>
  {
    case RCC_CFGR_SWS_HSI:  /* HSI used as system clock source */
    {
      sysclockfreq = HSI_VALUE;
 80016d8:	4b5e      	ldr	r3, [pc, #376]	; (8001854 <HAL_RCC_GetSysClockFreq+0x1a8>)
 80016da:	60bb      	str	r3, [r7, #8]
       break;
 80016dc:	e0b3      	b.n	8001846 <HAL_RCC_GetSysClockFreq+0x19a>
    }
    case RCC_CFGR_SWS_HSE:  /* HSE used as system clock  source */
    {
      sysclockfreq = HSE_VALUE;
 80016de:	4b5e      	ldr	r3, [pc, #376]	; (8001858 <HAL_RCC_GetSysClockFreq+0x1ac>)
 80016e0:	60bb      	str	r3, [r7, #8]
      break;
 80016e2:	e0b0      	b.n	8001846 <HAL_RCC_GetSysClockFreq+0x19a>
    }
    case RCC_CFGR_SWS_PLL:  /* PLL used as system clock  source */
    {
      /* PLL_VCO = (HSE_VALUE or HSI_VALUE / PLLM) * PLLN
      SYSCLK = PLL_VCO / PLLP */
      pllm = RCC->PLLCFGR & RCC_PLLCFGR_PLLM;
 80016e4:	4b5a      	ldr	r3, [pc, #360]	; (8001850 <HAL_RCC_GetSysClockFreq+0x1a4>)
 80016e6:	685b      	ldr	r3, [r3, #4]
 80016e8:	f003 033f 	and.w	r3, r3, #63	; 0x3f
 80016ec:	607b      	str	r3, [r7, #4]
      if(__HAL_RCC_GET_PLL_OSCSOURCE() != RCC_PLLSOURCE_HSI)
 80016ee:	4b58      	ldr	r3, [pc, #352]	; (8001850 <HAL_RCC_GetSysClockFreq+0x1a4>)
 80016f0:	685b      	ldr	r3, [r3, #4]
 80016f2:	f403 0380 	and.w	r3, r3, #4194304	; 0x400000
 80016f6:	2b00      	cmp	r3, #0
 80016f8:	d04a      	beq.n	8001790 <HAL_RCC_GetSysClockFreq+0xe4>
      {
        /* HSE used as PLL clock source */
        pllvco = (uint32_t) ((((uint64_t) HSE_VALUE * ((uint64_t) ((RCC->PLLCFGR & RCC_PLLCFGR_PLLN) >> RCC_PLLCFGR_PLLN_Pos)))) / (uint64_t)pllm);
 80016fa:	4b55      	ldr	r3, [pc, #340]	; (8001850 <HAL_RCC_GetSysClockFreq+0x1a4>)
 80016fc:	685b      	ldr	r3, [r3, #4]
 80016fe:	099b      	lsrs	r3, r3, #6
 8001700:	f04f 0400 	mov.w	r4, #0
 8001704:	f240 11ff 	movw	r1, #511	; 0x1ff
 8001708:	f04f 0200 	mov.w	r2, #0
 800170c:	ea03 0501 	and.w	r5, r3, r1
 8001710:	ea04 0602 	and.w	r6, r4, r2
 8001714:	4629      	mov	r1, r5
 8001716:	4632      	mov	r2, r6
 8001718:	f04f 0300 	mov.w	r3, #0
 800171c:	f04f 0400 	mov.w	r4, #0
 8001720:	0154      	lsls	r4, r2, #5
 8001722:	ea44 64d1 	orr.w	r4, r4, r1, lsr #27
 8001726:	014b      	lsls	r3, r1, #5
 8001728:	4619      	mov	r1, r3
 800172a:	4622      	mov	r2, r4
 800172c:	1b49      	subs	r1, r1, r5
 800172e:	eb62 0206 	sbc.w	r2, r2, r6
 8001732:	f04f 0300 	mov.w	r3, #0
 8001736:	f04f 0400 	mov.w	r4, #0
 800173a:	0194      	lsls	r4, r2, #6
 800173c:	ea44 6491 	orr.w	r4, r4, r1, lsr #26
 8001740:	018b      	lsls	r3, r1, #6
 8001742:	1a5b      	subs	r3, r3, r1
 8001744:	eb64 0402 	sbc.w	r4, r4, r2
 8001748:	f04f 0100 	mov.w	r1, #0
 800174c:	f04f 0200 	mov.w	r2, #0
 8001750:	00e2      	lsls	r2, r4, #3
 8001752:	ea42 7253 	orr.w	r2, r2, r3, lsr #29
 8001756:	00d9      	lsls	r1, r3, #3
 8001758:	460b      	mov	r3, r1
 800175a:	4614      	mov	r4, r2
 800175c:	195b      	adds	r3, r3, r5
 800175e:	eb44 0406 	adc.w	r4, r4, r6
 8001762:	f04f 0100 	mov.w	r1, #0
 8001766:	f04f 0200 	mov.w	r2, #0
 800176a:	0262      	lsls	r2, r4, #9
 800176c:	ea42 52d3 	orr.w	r2, r2, r3, lsr #23
 8001770:	0259      	lsls	r1, r3, #9
 8001772:	460b      	mov	r3, r1
 8001774:	4614      	mov	r4, r2
 8001776:	4618      	mov	r0, r3
 8001778:	4621      	mov	r1, r4
 800177a:	687b      	ldr	r3, [r7, #4]
 800177c:	f04f 0400 	mov.w	r4, #0
 8001780:	461a      	mov	r2, r3
 8001782:	4623      	mov	r3, r4
 8001784:	f7fe fd7c 	bl	8000280 <__aeabi_uldivmod>
 8001788:	4603      	mov	r3, r0
 800178a:	460c      	mov	r4, r1
 800178c:	60fb      	str	r3, [r7, #12]
 800178e:	e049      	b.n	8001824 <HAL_RCC_GetSysClockFreq+0x178>
      }
      else
      {
        /* HSI used as PLL clock source */
        pllvco = (uint32_t) ((((uint64_t) HSI_VALUE * ((uint64_t) ((RCC->PLLCFGR & RCC_PLLCFGR_PLLN) >> RCC_PLLCFGR_PLLN_Pos)))) / (uint64_t)pllm);
 8001790:	4b2f      	ldr	r3, [pc, #188]	; (8001850 <HAL_RCC_GetSysClockFreq+0x1a4>)
 8001792:	685b      	ldr	r3, [r3, #4]
 8001794:	099b      	lsrs	r3, r3, #6
 8001796:	f04f 0400 	mov.w	r4, #0
 800179a:	f240 11ff 	movw	r1, #511	; 0x1ff
 800179e:	f04f 0200 	mov.w	r2, #0
 80017a2:	ea03 0501 	and.w	r5, r3, r1
 80017a6:	ea04 0602 	and.w	r6, r4, r2
 80017aa:	4629      	mov	r1, r5
 80017ac:	4632      	mov	r2, r6
 80017ae:	f04f 0300 	mov.w	r3, #0
 80017b2:	f04f 0400 	mov.w	r4, #0
 80017b6:	0154      	lsls	r4, r2, #5
 80017b8:	ea44 64d1 	orr.w	r4, r4, r1, lsr #27
 80017bc:	014b      	lsls	r3, r1, #5
 80017be:	4619      	mov	r1, r3
 80017c0:	4622      	mov	r2, r4
 80017c2:	1b49      	subs	r1, r1, r5
 80017c4:	eb62 0206 	sbc.w	r2, r2, r6
 80017c8:	f04f 0300 	mov.w	r3, #0
 80017cc:	f04f 0400 	mov.w	r4, #0
 80017d0:	0194      	lsls	r4, r2, #6
 80017d2:	ea44 6491 	orr.w	r4, r4, r1, lsr #26
 80017d6:	018b      	lsls	r3, r1, #6
 80017d8:	1a5b      	subs	r3, r3, r1
 80017da:	eb64 0402 	sbc.w	r4, r4, r2
 80017de:	f04f 0100 	mov.w	r1, #0
 80017e2:	f04f 0200 	mov.w	r2, #0
 80017e6:	00e2      	lsls	r2, r4, #3
 80017e8:	ea42 7253 	orr.w	r2, r2, r3, lsr #29
 80017ec:	00d9      	lsls	r1, r3, #3
 80017ee:	460b      	mov	r3, r1
 80017f0:	4614      	mov	r4, r2
 80017f2:	195b      	adds	r3, r3, r5
 80017f4:	eb44 0406 	adc.w	r4, r4, r6
 80017f8:	f04f 0100 	mov.w	r1, #0
 80017fc:	f04f 0200 	mov.w	r2, #0
 8001800:	02a2      	lsls	r2, r4, #10
 8001802:	ea42 5293 	orr.w	r2, r2, r3, lsr #22
 8001806:	0299      	lsls	r1, r3, #10
 8001808:	460b      	mov	r3, r1
 800180a:	4614      	mov	r4, r2
 800180c:	4618      	mov	r0, r3
 800180e:	4621      	mov	r1, r4
 8001810:	687b      	ldr	r3, [r7, #4]
 8001812:	f04f 0400 	mov.w	r4, #0
 8001816:	461a      	mov	r2, r3
 8001818:	4623      	mov	r3, r4
 800181a:	f7fe fd31 	bl	8000280 <__aeabi_uldivmod>
 800181e:	4603      	mov	r3, r0
 8001820:	460c      	mov	r4, r1
 8001822:	60fb      	str	r3, [r7, #12]
      }
      pllp = ((((RCC->PLLCFGR & RCC_PLLCFGR_PLLP) >> RCC_PLLCFGR_PLLP_Pos) + 1U) *2U);
 8001824:	4b0a      	ldr	r3, [pc, #40]	; (8001850 <HAL_RCC_GetSysClockFreq+0x1a4>)
 8001826:	685b      	ldr	r3, [r3, #4]
 8001828:	0c1b      	lsrs	r3, r3, #16
 800182a:	f003 0303 	and.w	r3, r3, #3
 800182e:	3301      	adds	r3, #1
 8001830:	005b      	lsls	r3, r3, #1
 8001832:	603b      	str	r3, [r7, #0]

      sysclockfreq = pllvco/pllp;
 8001834:	68fa      	ldr	r2, [r7, #12]
 8001836:	683b      	ldr	r3, [r7, #0]
 8001838:	fbb2 f3f3 	udiv	r3, r2, r3
 800183c:	60bb      	str	r3, [r7, #8]
      break;
 800183e:	e002      	b.n	8001846 <HAL_RCC_GetSysClockFreq+0x19a>
    }
    default:
    {
      sysclockfreq = HSI_VALUE;
 8001840:	4b04      	ldr	r3, [pc, #16]	; (8001854 <HAL_RCC_GetSysClockFreq+0x1a8>)
 8001842:	60bb      	str	r3, [r7, #8]
      break;
 8001844:	bf00      	nop
    }
  }
  return sysclockfreq;
 8001846:	68bb      	ldr	r3, [r7, #8]
}
 8001848:	4618      	mov	r0, r3
 800184a:	3714      	adds	r7, #20
 800184c:	46bd      	mov	sp, r7
 800184e:	bdf0      	pop	{r4, r5, r6, r7, pc}
 8001850:	40023800 	.word	0x40023800
 8001854:	00f42400 	.word	0x00f42400
 8001858:	007a1200 	.word	0x007a1200

0800185c <HAL_RCC_GetHCLKFreq>:
  * @note   The SystemCoreClock CMSIS variable is used to store System Clock Frequency
  *         and updated within this function
  * @retval HCLK frequency
  */
uint32_t HAL_RCC_GetHCLKFreq(void)
{
 800185c:	b480      	push	{r7}
 800185e:	af00      	add	r7, sp, #0
  return SystemCoreClock;
 8001860:	4b03      	ldr	r3, [pc, #12]	; (8001870 <HAL_RCC_GetHCLKFreq+0x14>)
 8001862:	681b      	ldr	r3, [r3, #0]
}
 8001864:	4618      	mov	r0, r3
 8001866:	46bd      	mov	sp, r7
 8001868:	f85d 7b04 	ldr.w	r7, [sp], #4
 800186c:	4770      	bx	lr
 800186e:	bf00      	nop
 8001870:	20000000 	.word	0x20000000

08001874 <HAL_RCC_GetPCLK1Freq>:
  * @note   Each time PCLK1 changes, this function must be called to update the
  *         right PCLK1 value. Otherwise, any configuration based on this function will be incorrect.
  * @retval PCLK1 frequency
  */
uint32_t HAL_RCC_GetPCLK1Freq(void)
{
 8001874:	b580      	push	{r7, lr}
 8001876:	af00      	add	r7, sp, #0
  /* Get HCLK source and Compute PCLK1 frequency ---------------------------*/
  return (HAL_RCC_GetHCLKFreq() >> APBPrescTable[(RCC->CFGR & RCC_CFGR_PPRE1)>> RCC_CFGR_PPRE1_Pos]);
 8001878:	f7ff fff0 	bl	800185c <HAL_RCC_GetHCLKFreq>
 800187c:	4601      	mov	r1, r0
 800187e:	4b05      	ldr	r3, [pc, #20]	; (8001894 <HAL_RCC_GetPCLK1Freq+0x20>)
 8001880:	689b      	ldr	r3, [r3, #8]
 8001882:	0a9b      	lsrs	r3, r3, #10
 8001884:	f003 0307 	and.w	r3, r3, #7
 8001888:	4a03      	ldr	r2, [pc, #12]	; (8001898 <HAL_RCC_GetPCLK1Freq+0x24>)
 800188a:	5cd3      	ldrb	r3, [r2, r3]
 800188c:	fa21 f303 	lsr.w	r3, r1, r3
}
 8001890:	4618      	mov	r0, r3
 8001892:	bd80      	pop	{r7, pc}
 8001894:	40023800 	.word	0x40023800
 8001898:	08002af4 	.word	0x08002af4

0800189c <HAL_RCC_GetPCLK2Freq>:
  * @note   Each time PCLK2 changes, this function must be called to update the
  *         right PCLK2 value. Otherwise, any configuration based on this function will be incorrect.
  * @retval PCLK2 frequency
  */
uint32_t HAL_RCC_GetPCLK2Freq(void)
{
 800189c:	b580      	push	{r7, lr}
 800189e:	af00      	add	r7, sp, #0
  /* Get HCLK source and Compute PCLK2 frequency ---------------------------*/
  return (HAL_RCC_GetHCLKFreq()>> APBPrescTable[(RCC->CFGR & RCC_CFGR_PPRE2)>> RCC_CFGR_PPRE2_Pos]);
 80018a0:	f7ff ffdc 	bl	800185c <HAL_RCC_GetHCLKFreq>
 80018a4:	4601      	mov	r1, r0
 80018a6:	4b05      	ldr	r3, [pc, #20]	; (80018bc <HAL_RCC_GetPCLK2Freq+0x20>)
 80018a8:	689b      	ldr	r3, [r3, #8]
 80018aa:	0b5b      	lsrs	r3, r3, #13
 80018ac:	f003 0307 	and.w	r3, r3, #7
 80018b0:	4a03      	ldr	r2, [pc, #12]	; (80018c0 <HAL_RCC_GetPCLK2Freq+0x24>)
 80018b2:	5cd3      	ldrb	r3, [r2, r3]
 80018b4:	fa21 f303 	lsr.w	r3, r1, r3
}
 80018b8:	4618      	mov	r0, r3
 80018ba:	bd80      	pop	{r7, pc}
 80018bc:	40023800 	.word	0x40023800
 80018c0:	08002af4 	.word	0x08002af4

080018c4 <HAL_UART_Init>:
  * @param  huart  Pointer to a UART_HandleTypeDef structure that contains
  *                the configuration information for the specified UART module.
  * @retval HAL status
  */
HAL_StatusTypeDef HAL_UART_Init(UART_HandleTypeDef *huart)
{
 80018c4:	b580      	push	{r7, lr}
 80018c6:	b082      	sub	sp, #8
 80018c8:	af00      	add	r7, sp, #0
 80018ca:	6078      	str	r0, [r7, #4]
  /* Check the UART handle allocation */
  if (huart == NULL)
 80018cc:	687b      	ldr	r3, [r7, #4]
 80018ce:	2b00      	cmp	r3, #0
 80018d0:	d101      	bne.n	80018d6 <HAL_UART_Init+0x12>
  {
    return HAL_ERROR;
 80018d2:	2301      	movs	r3, #1
 80018d4:	e03f      	b.n	8001956 <HAL_UART_Init+0x92>
    assert_param(IS_UART_INSTANCE(huart->Instance));
  }
  assert_param(IS_UART_WORD_LENGTH(huart->Init.WordLength));
  assert_param(IS_UART_OVERSAMPLING(huart->Init.OverSampling));

  if (huart->gState == HAL_UART_STATE_RESET)
 80018d6:	687b      	ldr	r3, [r7, #4]
 80018d8:	f893 3039 	ldrb.w	r3, [r3, #57]	; 0x39
 80018dc:	b2db      	uxtb	r3, r3
 80018de:	2b00      	cmp	r3, #0
 80018e0:	d106      	bne.n	80018f0 <HAL_UART_Init+0x2c>
  {
    /* Allocate lock resource and initialize it */
    huart->Lock = HAL_UNLOCKED;
 80018e2:	687b      	ldr	r3, [r7, #4]
 80018e4:	2200      	movs	r2, #0
 80018e6:	f883 2038 	strb.w	r2, [r3, #56]	; 0x38

    /* Init the low level hardware */
    huart->MspInitCallback(huart);
#else
    /* Init the low level hardware : GPIO, CLOCK */
    HAL_UART_MspInit(huart);
 80018ea:	6878      	ldr	r0, [r7, #4]
 80018ec:	f7fe ff8c 	bl	8000808 <HAL_UART_MspInit>
#endif /* (USE_HAL_UART_REGISTER_CALLBACKS) */
  }

  huart->gState = HAL_UART_STATE_BUSY;
 80018f0:	687b      	ldr	r3, [r7, #4]
 80018f2:	2224      	movs	r2, #36	; 0x24
 80018f4:	f883 2039 	strb.w	r2, [r3, #57]	; 0x39

  /* Disable the peripheral */
  __HAL_UART_DISABLE(huart);
 80018f8:	687b      	ldr	r3, [r7, #4]
 80018fa:	681b      	ldr	r3, [r3, #0]
 80018fc:	68da      	ldr	r2, [r3, #12]
 80018fe:	687b      	ldr	r3, [r7, #4]
 8001900:	681b      	ldr	r3, [r3, #0]
 8001902:	f422 5200 	bic.w	r2, r2, #8192	; 0x2000
 8001906:	60da      	str	r2, [r3, #12]

  /* Set the UART Communication parameters */
  UART_SetConfig(huart);
 8001908:	6878      	ldr	r0, [r7, #4]
 800190a:	f000 f90b 	bl	8001b24 <UART_SetConfig>

  /* In asynchronous mode, the following bits must be kept cleared:
     - LINEN and CLKEN bits in the USART_CR2 register,
     - SCEN, HDSEL and IREN  bits in the USART_CR3 register.*/
  CLEAR_BIT(huart->Instance->CR2, (USART_CR2_LINEN | USART_CR2_CLKEN));
 800190e:	687b      	ldr	r3, [r7, #4]
 8001910:	681b      	ldr	r3, [r3, #0]
 8001912:	691a      	ldr	r2, [r3, #16]
 8001914:	687b      	ldr	r3, [r7, #4]
 8001916:	681b      	ldr	r3, [r3, #0]
 8001918:	f422 4290 	bic.w	r2, r2, #18432	; 0x4800
 800191c:	611a      	str	r2, [r3, #16]
  CLEAR_BIT(huart->Instance->CR3, (USART_CR3_SCEN | USART_CR3_HDSEL | USART_CR3_IREN));
 800191e:	687b      	ldr	r3, [r7, #4]
 8001920:	681b      	ldr	r3, [r3, #0]
 8001922:	695a      	ldr	r2, [r3, #20]
 8001924:	687b      	ldr	r3, [r7, #4]
 8001926:	681b      	ldr	r3, [r3, #0]
 8001928:	f022 022a 	bic.w	r2, r2, #42	; 0x2a
 800192c:	615a      	str	r2, [r3, #20]

  /* Enable the peripheral */
  __HAL_UART_ENABLE(huart);
 800192e:	687b      	ldr	r3, [r7, #4]
 8001930:	681b      	ldr	r3, [r3, #0]
 8001932:	68da      	ldr	r2, [r3, #12]
 8001934:	687b      	ldr	r3, [r7, #4]
 8001936:	681b      	ldr	r3, [r3, #0]
 8001938:	f442 5200 	orr.w	r2, r2, #8192	; 0x2000
 800193c:	60da      	str	r2, [r3, #12]

  /* Initialize the UART state */
  huart->ErrorCode = HAL_UART_ERROR_NONE;
 800193e:	687b      	ldr	r3, [r7, #4]
 8001940:	2200      	movs	r2, #0
 8001942:	63da      	str	r2, [r3, #60]	; 0x3c
  huart->gState = HAL_UART_STATE_READY;
 8001944:	687b      	ldr	r3, [r7, #4]
 8001946:	2220      	movs	r2, #32
 8001948:	f883 2039 	strb.w	r2, [r3, #57]	; 0x39
  huart->RxState = HAL_UART_STATE_READY;
 800194c:	687b      	ldr	r3, [r7, #4]
 800194e:	2220      	movs	r2, #32
 8001950:	f883 203a 	strb.w	r2, [r3, #58]	; 0x3a

  return HAL_OK;
 8001954:	2300      	movs	r3, #0
}
 8001956:	4618      	mov	r0, r3
 8001958:	3708      	adds	r7, #8
 800195a:	46bd      	mov	sp, r7
 800195c:	bd80      	pop	{r7, pc}

0800195e <HAL_UART_Transmit>:
  * @param  Size  Amount of data elements (u8 or u16) to be sent
  * @param  Timeout Timeout duration
  * @retval HAL status
  */
HAL_StatusTypeDef HAL_UART_Transmit(UART_HandleTypeDef *huart, uint8_t *pData, uint16_t Size, uint32_t Timeout)
{
 800195e:	b580      	push	{r7, lr}
 8001960:	b088      	sub	sp, #32
 8001962:	af02      	add	r7, sp, #8
 8001964:	60f8      	str	r0, [r7, #12]
 8001966:	60b9      	str	r1, [r7, #8]
 8001968:	603b      	str	r3, [r7, #0]
 800196a:	4613      	mov	r3, r2
 800196c:	80fb      	strh	r3, [r7, #6]
  uint16_t *tmp;
  uint32_t tickstart = 0U;
 800196e:	2300      	movs	r3, #0
 8001970:	617b      	str	r3, [r7, #20]

  /* Check that a Tx process is not already ongoing */
  if (huart->gState == HAL_UART_STATE_READY)
 8001972:	68fb      	ldr	r3, [r7, #12]
 8001974:	f893 3039 	ldrb.w	r3, [r3, #57]	; 0x39
 8001978:	b2db      	uxtb	r3, r3
 800197a:	2b20      	cmp	r3, #32
 800197c:	f040 8083 	bne.w	8001a86 <HAL_UART_Transmit+0x128>
  {
    if ((pData == NULL) || (Size == 0U))
 8001980:	68bb      	ldr	r3, [r7, #8]
 8001982:	2b00      	cmp	r3, #0
 8001984:	d002      	beq.n	800198c <HAL_UART_Transmit+0x2e>
 8001986:	88fb      	ldrh	r3, [r7, #6]
 8001988:	2b00      	cmp	r3, #0
 800198a:	d101      	bne.n	8001990 <HAL_UART_Transmit+0x32>
    {
      return  HAL_ERROR;
 800198c:	2301      	movs	r3, #1
 800198e:	e07b      	b.n	8001a88 <HAL_UART_Transmit+0x12a>
    }

    /* Process Locked */
    __HAL_LOCK(huart);
 8001990:	68fb      	ldr	r3, [r7, #12]
 8001992:	f893 3038 	ldrb.w	r3, [r3, #56]	; 0x38
 8001996:	2b01      	cmp	r3, #1
 8001998:	d101      	bne.n	800199e <HAL_UART_Transmit+0x40>
 800199a:	2302      	movs	r3, #2
 800199c:	e074      	b.n	8001a88 <HAL_UART_Transmit+0x12a>
 800199e:	68fb      	ldr	r3, [r7, #12]
 80019a0:	2201      	movs	r2, #1
 80019a2:	f883 2038 	strb.w	r2, [r3, #56]	; 0x38

    huart->ErrorCode = HAL_UART_ERROR_NONE;
 80019a6:	68fb      	ldr	r3, [r7, #12]
 80019a8:	2200      	movs	r2, #0
 80019aa:	63da      	str	r2, [r3, #60]	; 0x3c
    huart->gState = HAL_UART_STATE_BUSY_TX;
 80019ac:	68fb      	ldr	r3, [r7, #12]
 80019ae:	2221      	movs	r2, #33	; 0x21
 80019b0:	f883 2039 	strb.w	r2, [r3, #57]	; 0x39

    /* Init tickstart for timeout managment */
    tickstart = HAL_GetTick();
 80019b4:	f7ff f842 	bl	8000a3c <HAL_GetTick>
 80019b8:	6178      	str	r0, [r7, #20]

    huart->TxXferSize = Size;
 80019ba:	68fb      	ldr	r3, [r7, #12]
 80019bc:	88fa      	ldrh	r2, [r7, #6]
 80019be:	849a      	strh	r2, [r3, #36]	; 0x24
    huart->TxXferCount = Size;
 80019c0:	68fb      	ldr	r3, [r7, #12]
 80019c2:	88fa      	ldrh	r2, [r7, #6]
 80019c4:	84da      	strh	r2, [r3, #38]	; 0x26

    /* Process Unlocked */
    __HAL_UNLOCK(huart);
 80019c6:	68fb      	ldr	r3, [r7, #12]
 80019c8:	2200      	movs	r2, #0
 80019ca:	f883 2038 	strb.w	r2, [r3, #56]	; 0x38

    while (huart->TxXferCount > 0U)
 80019ce:	e042      	b.n	8001a56 <HAL_UART_Transmit+0xf8>
    {
      huart->TxXferCount--;
 80019d0:	68fb      	ldr	r3, [r7, #12]
 80019d2:	8cdb      	ldrh	r3, [r3, #38]	; 0x26
 80019d4:	b29b      	uxth	r3, r3
 80019d6:	3b01      	subs	r3, #1
 80019d8:	b29a      	uxth	r2, r3
 80019da:	68fb      	ldr	r3, [r7, #12]
 80019dc:	84da      	strh	r2, [r3, #38]	; 0x26
      if (huart->Init.WordLength == UART_WORDLENGTH_9B)
 80019de:	68fb      	ldr	r3, [r7, #12]
 80019e0:	689b      	ldr	r3, [r3, #8]
 80019e2:	f5b3 5f80 	cmp.w	r3, #4096	; 0x1000
 80019e6:	d122      	bne.n	8001a2e <HAL_UART_Transmit+0xd0>
      {
        if (UART_WaitOnFlagUntilTimeout(huart, UART_FLAG_TXE, RESET, tickstart, Timeout) != HAL_OK)
 80019e8:	683b      	ldr	r3, [r7, #0]
 80019ea:	9300      	str	r3, [sp, #0]
 80019ec:	697b      	ldr	r3, [r7, #20]
 80019ee:	2200      	movs	r2, #0
 80019f0:	2180      	movs	r1, #128	; 0x80
 80019f2:	68f8      	ldr	r0, [r7, #12]
 80019f4:	f000 f84c 	bl	8001a90 <UART_WaitOnFlagUntilTimeout>
 80019f8:	4603      	mov	r3, r0
 80019fa:	2b00      	cmp	r3, #0
 80019fc:	d001      	beq.n	8001a02 <HAL_UART_Transmit+0xa4>
        {
          return HAL_TIMEOUT;
 80019fe:	2303      	movs	r3, #3
 8001a00:	e042      	b.n	8001a88 <HAL_UART_Transmit+0x12a>
        }
        tmp = (uint16_t *) pData;
 8001a02:	68bb      	ldr	r3, [r7, #8]
 8001a04:	613b      	str	r3, [r7, #16]
        huart->Instance->DR = (*tmp & (uint16_t)0x01FF);
 8001a06:	693b      	ldr	r3, [r7, #16]
 8001a08:	881b      	ldrh	r3, [r3, #0]
 8001a0a:	461a      	mov	r2, r3
 8001a0c:	68fb      	ldr	r3, [r7, #12]
 8001a0e:	681b      	ldr	r3, [r3, #0]
 8001a10:	f3c2 0208 	ubfx	r2, r2, #0, #9
 8001a14:	605a      	str	r2, [r3, #4]
        if (huart->Init.Parity == UART_PARITY_NONE)
 8001a16:	68fb      	ldr	r3, [r7, #12]
 8001a18:	691b      	ldr	r3, [r3, #16]
 8001a1a:	2b00      	cmp	r3, #0
 8001a1c:	d103      	bne.n	8001a26 <HAL_UART_Transmit+0xc8>
        {
          pData += 2U;
 8001a1e:	68bb      	ldr	r3, [r7, #8]
 8001a20:	3302      	adds	r3, #2
 8001a22:	60bb      	str	r3, [r7, #8]
 8001a24:	e017      	b.n	8001a56 <HAL_UART_Transmit+0xf8>
        }
        else
        {
          pData += 1U;
 8001a26:	68bb      	ldr	r3, [r7, #8]
 8001a28:	3301      	adds	r3, #1
 8001a2a:	60bb      	str	r3, [r7, #8]
 8001a2c:	e013      	b.n	8001a56 <HAL_UART_Transmit+0xf8>
        }
      }
      else
      {
        if (UART_WaitOnFlagUntilTimeout(huart, UART_FLAG_TXE, RESET, tickstart, Timeout) != HAL_OK)
 8001a2e:	683b      	ldr	r3, [r7, #0]
 8001a30:	9300      	str	r3, [sp, #0]
 8001a32:	697b      	ldr	r3, [r7, #20]
 8001a34:	2200      	movs	r2, #0
 8001a36:	2180      	movs	r1, #128	; 0x80
 8001a38:	68f8      	ldr	r0, [r7, #12]
 8001a3a:	f000 f829 	bl	8001a90 <UART_WaitOnFlagUntilTimeout>
 8001a3e:	4603      	mov	r3, r0
 8001a40:	2b00      	cmp	r3, #0
 8001a42:	d001      	beq.n	8001a48 <HAL_UART_Transmit+0xea>
        {
          return HAL_TIMEOUT;
 8001a44:	2303      	movs	r3, #3
 8001a46:	e01f      	b.n	8001a88 <HAL_UART_Transmit+0x12a>
        }
        huart->Instance->DR = (*pData++ & (uint8_t)0xFF);
 8001a48:	68bb      	ldr	r3, [r7, #8]
 8001a4a:	1c5a      	adds	r2, r3, #1
 8001a4c:	60ba      	str	r2, [r7, #8]
 8001a4e:	781a      	ldrb	r2, [r3, #0]
 8001a50:	68fb      	ldr	r3, [r7, #12]
 8001a52:	681b      	ldr	r3, [r3, #0]
 8001a54:	605a      	str	r2, [r3, #4]
    while (huart->TxXferCount > 0U)
 8001a56:	68fb      	ldr	r3, [r7, #12]
 8001a58:	8cdb      	ldrh	r3, [r3, #38]	; 0x26
 8001a5a:	b29b      	uxth	r3, r3
 8001a5c:	2b00      	cmp	r3, #0
 8001a5e:	d1b7      	bne.n	80019d0 <HAL_UART_Transmit+0x72>
      }
    }

    if (UART_WaitOnFlagUntilTimeout(huart, UART_FLAG_TC, RESET, tickstart, Timeout) != HAL_OK)
 8001a60:	683b      	ldr	r3, [r7, #0]
 8001a62:	9300      	str	r3, [sp, #0]
 8001a64:	697b      	ldr	r3, [r7, #20]
 8001a66:	2200      	movs	r2, #0
 8001a68:	2140      	movs	r1, #64	; 0x40
 8001a6a:	68f8      	ldr	r0, [r7, #12]
 8001a6c:	f000 f810 	bl	8001a90 <UART_WaitOnFlagUntilTimeout>
 8001a70:	4603      	mov	r3, r0
 8001a72:	2b00      	cmp	r3, #0
 8001a74:	d001      	beq.n	8001a7a <HAL_UART_Transmit+0x11c>
    {
      return HAL_TIMEOUT;
 8001a76:	2303      	movs	r3, #3
 8001a78:	e006      	b.n	8001a88 <HAL_UART_Transmit+0x12a>
    }

    /* At end of Tx process, restore huart->gState to Ready */
    huart->gState = HAL_UART_STATE_READY;
 8001a7a:	68fb      	ldr	r3, [r7, #12]
 8001a7c:	2220      	movs	r2, #32
 8001a7e:	f883 2039 	strb.w	r2, [r3, #57]	; 0x39

    return HAL_OK;
 8001a82:	2300      	movs	r3, #0
 8001a84:	e000      	b.n	8001a88 <HAL_UART_Transmit+0x12a>
  }
  else
  {
    return HAL_BUSY;
 8001a86:	2302      	movs	r3, #2
  }
}
 8001a88:	4618      	mov	r0, r3
 8001a8a:	3718      	adds	r7, #24
 8001a8c:	46bd      	mov	sp, r7
 8001a8e:	bd80      	pop	{r7, pc}

08001a90 <UART_WaitOnFlagUntilTimeout>:
  * @param  Tickstart Tick start value
  * @param  Timeout Timeout duration
  * @retval HAL status
  */
static HAL_StatusTypeDef UART_WaitOnFlagUntilTimeout(UART_HandleTypeDef *huart, uint32_t Flag, FlagStatus Status, uint32_t Tickstart, uint32_t Timeout)
{
 8001a90:	b580      	push	{r7, lr}
 8001a92:	b084      	sub	sp, #16
 8001a94:	af00      	add	r7, sp, #0
 8001a96:	60f8      	str	r0, [r7, #12]
 8001a98:	60b9      	str	r1, [r7, #8]
 8001a9a:	603b      	str	r3, [r7, #0]
 8001a9c:	4613      	mov	r3, r2
 8001a9e:	71fb      	strb	r3, [r7, #7]
  /* Wait until flag is set */
  while ((__HAL_UART_GET_FLAG(huart, Flag) ? SET : RESET) == Status)
 8001aa0:	e02c      	b.n	8001afc <UART_WaitOnFlagUntilTimeout+0x6c>
  {
    /* Check for the Timeout */
    if (Timeout != HAL_MAX_DELAY)
 8001aa2:	69bb      	ldr	r3, [r7, #24]
 8001aa4:	f1b3 3fff 	cmp.w	r3, #4294967295
 8001aa8:	d028      	beq.n	8001afc <UART_WaitOnFlagUntilTimeout+0x6c>
    {
      if ((Timeout == 0U) || ((HAL_GetTick() - Tickstart) > Timeout))
 8001aaa:	69bb      	ldr	r3, [r7, #24]
 8001aac:	2b00      	cmp	r3, #0
 8001aae:	d007      	beq.n	8001ac0 <UART_WaitOnFlagUntilTimeout+0x30>
 8001ab0:	f7fe ffc4 	bl	8000a3c <HAL_GetTick>
 8001ab4:	4602      	mov	r2, r0
 8001ab6:	683b      	ldr	r3, [r7, #0]
 8001ab8:	1ad3      	subs	r3, r2, r3
 8001aba:	69ba      	ldr	r2, [r7, #24]
 8001abc:	429a      	cmp	r2, r3
 8001abe:	d21d      	bcs.n	8001afc <UART_WaitOnFlagUntilTimeout+0x6c>
      {
        /* Disable TXE, RXNE, PE and ERR (Frame error, noise error, overrun error) interrupts for the interrupt process */
        CLEAR_BIT(huart->Instance->CR1, (USART_CR1_RXNEIE | USART_CR1_PEIE | USART_CR1_TXEIE));
 8001ac0:	68fb      	ldr	r3, [r7, #12]
 8001ac2:	681b      	ldr	r3, [r3, #0]
 8001ac4:	68da      	ldr	r2, [r3, #12]
 8001ac6:	68fb      	ldr	r3, [r7, #12]
 8001ac8:	681b      	ldr	r3, [r3, #0]
 8001aca:	f422 72d0 	bic.w	r2, r2, #416	; 0x1a0
 8001ace:	60da      	str	r2, [r3, #12]
        CLEAR_BIT(huart->Instance->CR3, USART_CR3_EIE);
 8001ad0:	68fb      	ldr	r3, [r7, #12]
 8001ad2:	681b      	ldr	r3, [r3, #0]
 8001ad4:	695a      	ldr	r2, [r3, #20]
 8001ad6:	68fb      	ldr	r3, [r7, #12]
 8001ad8:	681b      	ldr	r3, [r3, #0]
 8001ada:	f022 0201 	bic.w	r2, r2, #1
 8001ade:	615a      	str	r2, [r3, #20]

        huart->gState  = HAL_UART_STATE_READY;
 8001ae0:	68fb      	ldr	r3, [r7, #12]
 8001ae2:	2220      	movs	r2, #32
 8001ae4:	f883 2039 	strb.w	r2, [r3, #57]	; 0x39
        huart->RxState = HAL_UART_STATE_READY;
 8001ae8:	68fb      	ldr	r3, [r7, #12]
 8001aea:	2220      	movs	r2, #32
 8001aec:	f883 203a 	strb.w	r2, [r3, #58]	; 0x3a

        /* Process Unlocked */
        __HAL_UNLOCK(huart);
 8001af0:	68fb      	ldr	r3, [r7, #12]
 8001af2:	2200      	movs	r2, #0
 8001af4:	f883 2038 	strb.w	r2, [r3, #56]	; 0x38

        return HAL_TIMEOUT;
 8001af8:	2303      	movs	r3, #3
 8001afa:	e00f      	b.n	8001b1c <UART_WaitOnFlagUntilTimeout+0x8c>
  while ((__HAL_UART_GET_FLAG(huart, Flag) ? SET : RESET) == Status)
 8001afc:	68fb      	ldr	r3, [r7, #12]
 8001afe:	681b      	ldr	r3, [r3, #0]
 8001b00:	681a      	ldr	r2, [r3, #0]
 8001b02:	68bb      	ldr	r3, [r7, #8]
 8001b04:	4013      	ands	r3, r2
 8001b06:	68ba      	ldr	r2, [r7, #8]
 8001b08:	429a      	cmp	r2, r3
 8001b0a:	bf0c      	ite	eq
 8001b0c:	2301      	moveq	r3, #1
 8001b0e:	2300      	movne	r3, #0
 8001b10:	b2db      	uxtb	r3, r3
 8001b12:	461a      	mov	r2, r3
 8001b14:	79fb      	ldrb	r3, [r7, #7]
 8001b16:	429a      	cmp	r2, r3
 8001b18:	d0c3      	beq.n	8001aa2 <UART_WaitOnFlagUntilTimeout+0x12>
      }
    }
  }
  return HAL_OK;
 8001b1a:	2300      	movs	r3, #0
}
 8001b1c:	4618      	mov	r0, r3
 8001b1e:	3710      	adds	r7, #16
 8001b20:	46bd      	mov	sp, r7
 8001b22:	bd80      	pop	{r7, pc}

08001b24 <UART_SetConfig>:
  * @param  huart  Pointer to a UART_HandleTypeDef structure that contains
  *                the configuration information for the specified UART module.
  * @retval None
  */
static void UART_SetConfig(UART_HandleTypeDef *huart)
{
 8001b24:	e92d 4ff0 	stmdb	sp!, {r4, r5, r6, r7, r8, r9, sl, fp, lr}
 8001b28:	b085      	sub	sp, #20
 8001b2a:	af00      	add	r7, sp, #0
 8001b2c:	6078      	str	r0, [r7, #4]
  assert_param(IS_UART_MODE(huart->Init.Mode));

  /*-------------------------- USART CR2 Configuration -----------------------*/
  /* Configure the UART Stop Bits: Set STOP[13:12] bits
     according to huart->Init.StopBits value */
  MODIFY_REG(huart->Instance->CR2, USART_CR2_STOP, huart->Init.StopBits);
 8001b2e:	687b      	ldr	r3, [r7, #4]
 8001b30:	681b      	ldr	r3, [r3, #0]
 8001b32:	691b      	ldr	r3, [r3, #16]
 8001b34:	f423 5140 	bic.w	r1, r3, #12288	; 0x3000
 8001b38:	687b      	ldr	r3, [r7, #4]
 8001b3a:	68da      	ldr	r2, [r3, #12]
 8001b3c:	687b      	ldr	r3, [r7, #4]
 8001b3e:	681b      	ldr	r3, [r3, #0]
 8001b40:	430a      	orrs	r2, r1
 8001b42:	611a      	str	r2, [r3, #16]
     Set the M bits according to huart->Init.WordLength value
     Set PCE and PS bits according to huart->Init.Parity value
     Set TE and RE bits according to huart->Init.Mode value
     Set OVER8 bit according to huart->Init.OverSampling value */

  tmpreg = (uint32_t)huart->Init.WordLength | huart->Init.Parity | huart->Init.Mode | huart->Init.OverSampling;
 8001b44:	687b      	ldr	r3, [r7, #4]
 8001b46:	689a      	ldr	r2, [r3, #8]
 8001b48:	687b      	ldr	r3, [r7, #4]
 8001b4a:	691b      	ldr	r3, [r3, #16]
 8001b4c:	431a      	orrs	r2, r3
 8001b4e:	687b      	ldr	r3, [r7, #4]
 8001b50:	695b      	ldr	r3, [r3, #20]
 8001b52:	431a      	orrs	r2, r3
 8001b54:	687b      	ldr	r3, [r7, #4]
 8001b56:	69db      	ldr	r3, [r3, #28]
 8001b58:	4313      	orrs	r3, r2
 8001b5a:	60fb      	str	r3, [r7, #12]
  MODIFY_REG(huart->Instance->CR1,
 8001b5c:	687b      	ldr	r3, [r7, #4]
 8001b5e:	681b      	ldr	r3, [r3, #0]
 8001b60:	68db      	ldr	r3, [r3, #12]
 8001b62:	f423 4316 	bic.w	r3, r3, #38400	; 0x9600
 8001b66:	f023 030c 	bic.w	r3, r3, #12
 8001b6a:	687a      	ldr	r2, [r7, #4]
 8001b6c:	6812      	ldr	r2, [r2, #0]
 8001b6e:	68f9      	ldr	r1, [r7, #12]
 8001b70:	430b      	orrs	r3, r1
 8001b72:	60d3      	str	r3, [r2, #12]
             (uint32_t)(USART_CR1_M | USART_CR1_PCE | USART_CR1_PS | USART_CR1_TE | USART_CR1_RE | USART_CR1_OVER8),
             tmpreg);

  /*-------------------------- USART CR3 Configuration -----------------------*/
  /* Configure the UART HFC: Set CTSE and RTSE bits according to huart->Init.HwFlowCtl value */
  MODIFY_REG(huart->Instance->CR3, (USART_CR3_RTSE | USART_CR3_CTSE), huart->Init.HwFlowCtl);
 8001b74:	687b      	ldr	r3, [r7, #4]
 8001b76:	681b      	ldr	r3, [r3, #0]
 8001b78:	695b      	ldr	r3, [r3, #20]
 8001b7a:	f423 7140 	bic.w	r1, r3, #768	; 0x300
 8001b7e:	687b      	ldr	r3, [r7, #4]
 8001b80:	699a      	ldr	r2, [r3, #24]
 8001b82:	687b      	ldr	r3, [r7, #4]
 8001b84:	681b      	ldr	r3, [r3, #0]
 8001b86:	430a      	orrs	r2, r1
 8001b88:	615a      	str	r2, [r3, #20]

  /* Check the Over Sampling */
  if (huart->Init.OverSampling == UART_OVERSAMPLING_8)
 8001b8a:	687b      	ldr	r3, [r7, #4]
 8001b8c:	69db      	ldr	r3, [r3, #28]
 8001b8e:	f5b3 4f00 	cmp.w	r3, #32768	; 0x8000
 8001b92:	f040 818b 	bne.w	8001eac <UART_SetConfig+0x388>
    {
      pclk = HAL_RCC_GetPCLK2Freq();
      huart->Instance->BRR = UART_BRR_SAMPLING8(pclk, huart->Init.BaudRate);
    }
#elif defined(USART6)
    if ((huart->Instance == USART1) || (huart->Instance == USART6))
 8001b96:	687b      	ldr	r3, [r7, #4]
 8001b98:	681b      	ldr	r3, [r3, #0]
 8001b9a:	4ac1      	ldr	r2, [pc, #772]	; (8001ea0 <UART_SetConfig+0x37c>)
 8001b9c:	4293      	cmp	r3, r2
 8001b9e:	d005      	beq.n	8001bac <UART_SetConfig+0x88>
 8001ba0:	687b      	ldr	r3, [r7, #4]
 8001ba2:	681b      	ldr	r3, [r3, #0]
 8001ba4:	4abf      	ldr	r2, [pc, #764]	; (8001ea4 <UART_SetConfig+0x380>)
 8001ba6:	4293      	cmp	r3, r2
 8001ba8:	f040 80bd 	bne.w	8001d26 <UART_SetConfig+0x202>
    {
      pclk = HAL_RCC_GetPCLK2Freq();
 8001bac:	f7ff fe76 	bl	800189c <HAL_RCC_GetPCLK2Freq>
 8001bb0:	60b8      	str	r0, [r7, #8]
      huart->Instance->BRR = UART_BRR_SAMPLING8(pclk, huart->Init.BaudRate);
 8001bb2:	68bb      	ldr	r3, [r7, #8]
 8001bb4:	461d      	mov	r5, r3
 8001bb6:	f04f 0600 	mov.w	r6, #0
 8001bba:	46a8      	mov	r8, r5
 8001bbc:	46b1      	mov	r9, r6
 8001bbe:	eb18 0308 	adds.w	r3, r8, r8
 8001bc2:	eb49 0409 	adc.w	r4, r9, r9
 8001bc6:	4698      	mov	r8, r3
 8001bc8:	46a1      	mov	r9, r4
 8001bca:	eb18 0805 	adds.w	r8, r8, r5
 8001bce:	eb49 0906 	adc.w	r9, r9, r6
 8001bd2:	f04f 0100 	mov.w	r1, #0
 8001bd6:	f04f 0200 	mov.w	r2, #0
 8001bda:	ea4f 02c9 	mov.w	r2, r9, lsl #3
 8001bde:	ea42 7258 	orr.w	r2, r2, r8, lsr #29
 8001be2:	ea4f 01c8 	mov.w	r1, r8, lsl #3
 8001be6:	4688      	mov	r8, r1
 8001be8:	4691      	mov	r9, r2
 8001bea:	eb18 0005 	adds.w	r0, r8, r5
 8001bee:	eb49 0106 	adc.w	r1, r9, r6
 8001bf2:	687b      	ldr	r3, [r7, #4]
 8001bf4:	685b      	ldr	r3, [r3, #4]
 8001bf6:	461d      	mov	r5, r3
 8001bf8:	f04f 0600 	mov.w	r6, #0
 8001bfc:	196b      	adds	r3, r5, r5
 8001bfe:	eb46 0406 	adc.w	r4, r6, r6
 8001c02:	461a      	mov	r2, r3
 8001c04:	4623      	mov	r3, r4
 8001c06:	f7fe fb3b 	bl	8000280 <__aeabi_uldivmod>
 8001c0a:	4603      	mov	r3, r0
 8001c0c:	460c      	mov	r4, r1
 8001c0e:	461a      	mov	r2, r3
 8001c10:	4ba5      	ldr	r3, [pc, #660]	; (8001ea8 <UART_SetConfig+0x384>)
 8001c12:	fba3 2302 	umull	r2, r3, r3, r2
 8001c16:	095b      	lsrs	r3, r3, #5
 8001c18:	ea4f 1803 	mov.w	r8, r3, lsl #4
 8001c1c:	68bb      	ldr	r3, [r7, #8]
 8001c1e:	461d      	mov	r5, r3
 8001c20:	f04f 0600 	mov.w	r6, #0
 8001c24:	46a9      	mov	r9, r5
 8001c26:	46b2      	mov	sl, r6
 8001c28:	eb19 0309 	adds.w	r3, r9, r9
 8001c2c:	eb4a 040a 	adc.w	r4, sl, sl
 8001c30:	4699      	mov	r9, r3
 8001c32:	46a2      	mov	sl, r4
 8001c34:	eb19 0905 	adds.w	r9, r9, r5
 8001c38:	eb4a 0a06 	adc.w	sl, sl, r6
 8001c3c:	f04f 0100 	mov.w	r1, #0
 8001c40:	f04f 0200 	mov.w	r2, #0
 8001c44:	ea4f 02ca 	mov.w	r2, sl, lsl #3
 8001c48:	ea42 7259 	orr.w	r2, r2, r9, lsr #29
 8001c4c:	ea4f 01c9 	mov.w	r1, r9, lsl #3
 8001c50:	4689      	mov	r9, r1
 8001c52:	4692      	mov	sl, r2
 8001c54:	eb19 0005 	adds.w	r0, r9, r5
 8001c58:	eb4a 0106 	adc.w	r1, sl, r6
 8001c5c:	687b      	ldr	r3, [r7, #4]
 8001c5e:	685b      	ldr	r3, [r3, #4]
 8001c60:	461d      	mov	r5, r3
 8001c62:	f04f 0600 	mov.w	r6, #0
 8001c66:	196b      	adds	r3, r5, r5
 8001c68:	eb46 0406 	adc.w	r4, r6, r6
 8001c6c:	461a      	mov	r2, r3
 8001c6e:	4623      	mov	r3, r4
 8001c70:	f7fe fb06 	bl	8000280 <__aeabi_uldivmod>
 8001c74:	4603      	mov	r3, r0
 8001c76:	460c      	mov	r4, r1
 8001c78:	461a      	mov	r2, r3
 8001c7a:	4b8b      	ldr	r3, [pc, #556]	; (8001ea8 <UART_SetConfig+0x384>)
 8001c7c:	fba3 1302 	umull	r1, r3, r3, r2
 8001c80:	095b      	lsrs	r3, r3, #5
 8001c82:	2164      	movs	r1, #100	; 0x64
 8001c84:	fb01 f303 	mul.w	r3, r1, r3
 8001c88:	1ad3      	subs	r3, r2, r3
 8001c8a:	00db      	lsls	r3, r3, #3
 8001c8c:	3332      	adds	r3, #50	; 0x32
 8001c8e:	4a86      	ldr	r2, [pc, #536]	; (8001ea8 <UART_SetConfig+0x384>)
 8001c90:	fba2 2303 	umull	r2, r3, r2, r3
 8001c94:	095b      	lsrs	r3, r3, #5
 8001c96:	005b      	lsls	r3, r3, #1
 8001c98:	f403 73f8 	and.w	r3, r3, #496	; 0x1f0
 8001c9c:	4498      	add	r8, r3
 8001c9e:	68bb      	ldr	r3, [r7, #8]
 8001ca0:	461d      	mov	r5, r3
 8001ca2:	f04f 0600 	mov.w	r6, #0
 8001ca6:	46a9      	mov	r9, r5
 8001ca8:	46b2      	mov	sl, r6
 8001caa:	eb19 0309 	adds.w	r3, r9, r9
 8001cae:	eb4a 040a 	adc.w	r4, sl, sl
 8001cb2:	4699      	mov	r9, r3
 8001cb4:	46a2      	mov	sl, r4
 8001cb6:	eb19 0905 	adds.w	r9, r9, r5
 8001cba:	eb4a 0a06 	adc.w	sl, sl, r6
 8001cbe:	f04f 0100 	mov.w	r1, #0
 8001cc2:	f04f 0200 	mov.w	r2, #0
 8001cc6:	ea4f 02ca 	mov.w	r2, sl, lsl #3
 8001cca:	ea42 7259 	orr.w	r2, r2, r9, lsr #29
 8001cce:	ea4f 01c9 	mov.w	r1, r9, lsl #3
 8001cd2:	4689      	mov	r9, r1
 8001cd4:	4692      	mov	sl, r2
 8001cd6:	eb19 0005 	adds.w	r0, r9, r5
 8001cda:	eb4a 0106 	adc.w	r1, sl, r6
 8001cde:	687b      	ldr	r3, [r7, #4]
 8001ce0:	685b      	ldr	r3, [r3, #4]
 8001ce2:	461d      	mov	r5, r3
 8001ce4:	f04f 0600 	mov.w	r6, #0
 8001ce8:	196b      	adds	r3, r5, r5
 8001cea:	eb46 0406 	adc.w	r4, r6, r6
 8001cee:	461a      	mov	r2, r3
 8001cf0:	4623      	mov	r3, r4
 8001cf2:	f7fe fac5 	bl	8000280 <__aeabi_uldivmod>
 8001cf6:	4603      	mov	r3, r0
 8001cf8:	460c      	mov	r4, r1
 8001cfa:	461a      	mov	r2, r3
 8001cfc:	4b6a      	ldr	r3, [pc, #424]	; (8001ea8 <UART_SetConfig+0x384>)
 8001cfe:	fba3 1302 	umull	r1, r3, r3, r2
 8001d02:	095b      	lsrs	r3, r3, #5
 8001d04:	2164      	movs	r1, #100	; 0x64
 8001d06:	fb01 f303 	mul.w	r3, r1, r3
 8001d0a:	1ad3      	subs	r3, r2, r3
 8001d0c:	00db      	lsls	r3, r3, #3
 8001d0e:	3332      	adds	r3, #50	; 0x32
 8001d10:	4a65      	ldr	r2, [pc, #404]	; (8001ea8 <UART_SetConfig+0x384>)
 8001d12:	fba2 2303 	umull	r2, r3, r2, r3
 8001d16:	095b      	lsrs	r3, r3, #5
 8001d18:	f003 0207 	and.w	r2, r3, #7
 8001d1c:	687b      	ldr	r3, [r7, #4]
 8001d1e:	681b      	ldr	r3, [r3, #0]
 8001d20:	4442      	add	r2, r8
 8001d22:	609a      	str	r2, [r3, #8]
 8001d24:	e26f      	b.n	8002206 <UART_SetConfig+0x6e2>
      huart->Instance->BRR = UART_BRR_SAMPLING8(pclk, huart->Init.BaudRate);
    }
#endif /* USART6 */
    else
    {
      pclk = HAL_RCC_GetPCLK1Freq();
 8001d26:	f7ff fda5 	bl	8001874 <HAL_RCC_GetPCLK1Freq>
 8001d2a:	60b8      	str	r0, [r7, #8]
      huart->Instance->BRR = UART_BRR_SAMPLING8(pclk, huart->Init.BaudRate);
 8001d2c:	68bb      	ldr	r3, [r7, #8]
 8001d2e:	461d      	mov	r5, r3
 8001d30:	f04f 0600 	mov.w	r6, #0
 8001d34:	46a8      	mov	r8, r5
 8001d36:	46b1      	mov	r9, r6
 8001d38:	eb18 0308 	adds.w	r3, r8, r8
 8001d3c:	eb49 0409 	adc.w	r4, r9, r9
 8001d40:	4698      	mov	r8, r3
 8001d42:	46a1      	mov	r9, r4
 8001d44:	eb18 0805 	adds.w	r8, r8, r5
 8001d48:	eb49 0906 	adc.w	r9, r9, r6
 8001d4c:	f04f 0100 	mov.w	r1, #0
 8001d50:	f04f 0200 	mov.w	r2, #0
 8001d54:	ea4f 02c9 	mov.w	r2, r9, lsl #3
 8001d58:	ea42 7258 	orr.w	r2, r2, r8, lsr #29
 8001d5c:	ea4f 01c8 	mov.w	r1, r8, lsl #3
 8001d60:	4688      	mov	r8, r1
 8001d62:	4691      	mov	r9, r2
 8001d64:	eb18 0005 	adds.w	r0, r8, r5
 8001d68:	eb49 0106 	adc.w	r1, r9, r6
 8001d6c:	687b      	ldr	r3, [r7, #4]
 8001d6e:	685b      	ldr	r3, [r3, #4]
 8001d70:	461d      	mov	r5, r3
 8001d72:	f04f 0600 	mov.w	r6, #0
 8001d76:	196b      	adds	r3, r5, r5
 8001d78:	eb46 0406 	adc.w	r4, r6, r6
 8001d7c:	461a      	mov	r2, r3
 8001d7e:	4623      	mov	r3, r4
 8001d80:	f7fe fa7e 	bl	8000280 <__aeabi_uldivmod>
 8001d84:	4603      	mov	r3, r0
 8001d86:	460c      	mov	r4, r1
 8001d88:	461a      	mov	r2, r3
 8001d8a:	4b47      	ldr	r3, [pc, #284]	; (8001ea8 <UART_SetConfig+0x384>)
 8001d8c:	fba3 2302 	umull	r2, r3, r3, r2
 8001d90:	095b      	lsrs	r3, r3, #5
 8001d92:	ea4f 1803 	mov.w	r8, r3, lsl #4
 8001d96:	68bb      	ldr	r3, [r7, #8]
 8001d98:	461d      	mov	r5, r3
 8001d9a:	f04f 0600 	mov.w	r6, #0
 8001d9e:	46a9      	mov	r9, r5
 8001da0:	46b2      	mov	sl, r6
 8001da2:	eb19 0309 	adds.w	r3, r9, r9
 8001da6:	eb4a 040a 	adc.w	r4, sl, sl
 8001daa:	4699      	mov	r9, r3
 8001dac:	46a2      	mov	sl, r4
 8001dae:	eb19 0905 	adds.w	r9, r9, r5
 8001db2:	eb4a 0a06 	adc.w	sl, sl, r6
 8001db6:	f04f 0100 	mov.w	r1, #0
 8001dba:	f04f 0200 	mov.w	r2, #0
 8001dbe:	ea4f 02ca 	mov.w	r2, sl, lsl #3
 8001dc2:	ea42 7259 	orr.w	r2, r2, r9, lsr #29
 8001dc6:	ea4f 01c9 	mov.w	r1, r9, lsl #3
 8001dca:	4689      	mov	r9, r1
 8001dcc:	4692      	mov	sl, r2
 8001dce:	eb19 0005 	adds.w	r0, r9, r5
 8001dd2:	eb4a 0106 	adc.w	r1, sl, r6
 8001dd6:	687b      	ldr	r3, [r7, #4]
 8001dd8:	685b      	ldr	r3, [r3, #4]
 8001dda:	461d      	mov	r5, r3
 8001ddc:	f04f 0600 	mov.w	r6, #0
 8001de0:	196b      	adds	r3, r5, r5
 8001de2:	eb46 0406 	adc.w	r4, r6, r6
 8001de6:	461a      	mov	r2, r3
 8001de8:	4623      	mov	r3, r4
 8001dea:	f7fe fa49 	bl	8000280 <__aeabi_uldivmod>
 8001dee:	4603      	mov	r3, r0
 8001df0:	460c      	mov	r4, r1
 8001df2:	461a      	mov	r2, r3
 8001df4:	4b2c      	ldr	r3, [pc, #176]	; (8001ea8 <UART_SetConfig+0x384>)
 8001df6:	fba3 1302 	umull	r1, r3, r3, r2
 8001dfa:	095b      	lsrs	r3, r3, #5
 8001dfc:	2164      	movs	r1, #100	; 0x64
 8001dfe:	fb01 f303 	mul.w	r3, r1, r3
 8001e02:	1ad3      	subs	r3, r2, r3
 8001e04:	00db      	lsls	r3, r3, #3
 8001e06:	3332      	adds	r3, #50	; 0x32
 8001e08:	4a27      	ldr	r2, [pc, #156]	; (8001ea8 <UART_SetConfig+0x384>)
 8001e0a:	fba2 2303 	umull	r2, r3, r2, r3
 8001e0e:	095b      	lsrs	r3, r3, #5
 8001e10:	005b      	lsls	r3, r3, #1
 8001e12:	f403 73f8 	and.w	r3, r3, #496	; 0x1f0
 8001e16:	4498      	add	r8, r3
 8001e18:	68bb      	ldr	r3, [r7, #8]
 8001e1a:	461d      	mov	r5, r3
 8001e1c:	f04f 0600 	mov.w	r6, #0
 8001e20:	46a9      	mov	r9, r5
 8001e22:	46b2      	mov	sl, r6
 8001e24:	eb19 0309 	adds.w	r3, r9, r9
 8001e28:	eb4a 040a 	adc.w	r4, sl, sl
 8001e2c:	4699      	mov	r9, r3
 8001e2e:	46a2      	mov	sl, r4
 8001e30:	eb19 0905 	adds.w	r9, r9, r5
 8001e34:	eb4a 0a06 	adc.w	sl, sl, r6
 8001e38:	f04f 0100 	mov.w	r1, #0
 8001e3c:	f04f 0200 	mov.w	r2, #0
 8001e40:	ea4f 02ca 	mov.w	r2, sl, lsl #3
 8001e44:	ea42 7259 	orr.w	r2, r2, r9, lsr #29
 8001e48:	ea4f 01c9 	mov.w	r1, r9, lsl #3
 8001e4c:	4689      	mov	r9, r1
 8001e4e:	4692      	mov	sl, r2
 8001e50:	eb19 0005 	adds.w	r0, r9, r5
 8001e54:	eb4a 0106 	adc.w	r1, sl, r6
 8001e58:	687b      	ldr	r3, [r7, #4]
 8001e5a:	685b      	ldr	r3, [r3, #4]
 8001e5c:	461d      	mov	r5, r3
 8001e5e:	f04f 0600 	mov.w	r6, #0
 8001e62:	196b      	adds	r3, r5, r5
 8001e64:	eb46 0406 	adc.w	r4, r6, r6
 8001e68:	461a      	mov	r2, r3
 8001e6a:	4623      	mov	r3, r4
 8001e6c:	f7fe fa08 	bl	8000280 <__aeabi_uldivmod>
 8001e70:	4603      	mov	r3, r0
 8001e72:	460c      	mov	r4, r1
 8001e74:	461a      	mov	r2, r3
 8001e76:	4b0c      	ldr	r3, [pc, #48]	; (8001ea8 <UART_SetConfig+0x384>)
 8001e78:	fba3 1302 	umull	r1, r3, r3, r2
 8001e7c:	095b      	lsrs	r3, r3, #5
 8001e7e:	2164      	movs	r1, #100	; 0x64
 8001e80:	fb01 f303 	mul.w	r3, r1, r3
 8001e84:	1ad3      	subs	r3, r2, r3
 8001e86:	00db      	lsls	r3, r3, #3
 8001e88:	3332      	adds	r3, #50	; 0x32
 8001e8a:	4a07      	ldr	r2, [pc, #28]	; (8001ea8 <UART_SetConfig+0x384>)
 8001e8c:	fba2 2303 	umull	r2, r3, r2, r3
 8001e90:	095b      	lsrs	r3, r3, #5
 8001e92:	f003 0207 	and.w	r2, r3, #7
 8001e96:	687b      	ldr	r3, [r7, #4]
 8001e98:	681b      	ldr	r3, [r3, #0]
 8001e9a:	4442      	add	r2, r8
 8001e9c:	609a      	str	r2, [r3, #8]
    {
      pclk = HAL_RCC_GetPCLK1Freq();
      huart->Instance->BRR = UART_BRR_SAMPLING16(pclk, huart->Init.BaudRate);
    }
  }
}
 8001e9e:	e1b2      	b.n	8002206 <UART_SetConfig+0x6e2>
 8001ea0:	40011000 	.word	0x40011000
 8001ea4:	40011400 	.word	0x40011400
 8001ea8:	51eb851f 	.word	0x51eb851f
    if ((huart->Instance == USART1) || (huart->Instance == USART6))
 8001eac:	687b      	ldr	r3, [r7, #4]
 8001eae:	681b      	ldr	r3, [r3, #0]
 8001eb0:	4ad7      	ldr	r2, [pc, #860]	; (8002210 <UART_SetConfig+0x6ec>)
 8001eb2:	4293      	cmp	r3, r2
 8001eb4:	d005      	beq.n	8001ec2 <UART_SetConfig+0x39e>
 8001eb6:	687b      	ldr	r3, [r7, #4]
 8001eb8:	681b      	ldr	r3, [r3, #0]
 8001eba:	4ad6      	ldr	r2, [pc, #856]	; (8002214 <UART_SetConfig+0x6f0>)
 8001ebc:	4293      	cmp	r3, r2
 8001ebe:	f040 80d1 	bne.w	8002064 <UART_SetConfig+0x540>
      pclk = HAL_RCC_GetPCLK2Freq();
 8001ec2:	f7ff fceb 	bl	800189c <HAL_RCC_GetPCLK2Freq>
 8001ec6:	60b8      	str	r0, [r7, #8]
      huart->Instance->BRR = UART_BRR_SAMPLING16(pclk, huart->Init.BaudRate);
 8001ec8:	68bb      	ldr	r3, [r7, #8]
 8001eca:	469a      	mov	sl, r3
 8001ecc:	f04f 0b00 	mov.w	fp, #0
 8001ed0:	46d0      	mov	r8, sl
 8001ed2:	46d9      	mov	r9, fp
 8001ed4:	eb18 0308 	adds.w	r3, r8, r8
 8001ed8:	eb49 0409 	adc.w	r4, r9, r9
 8001edc:	4698      	mov	r8, r3
 8001ede:	46a1      	mov	r9, r4
 8001ee0:	eb18 080a 	adds.w	r8, r8, sl
 8001ee4:	eb49 090b 	adc.w	r9, r9, fp
 8001ee8:	f04f 0100 	mov.w	r1, #0
 8001eec:	f04f 0200 	mov.w	r2, #0
 8001ef0:	ea4f 02c9 	mov.w	r2, r9, lsl #3
 8001ef4:	ea42 7258 	orr.w	r2, r2, r8, lsr #29
 8001ef8:	ea4f 01c8 	mov.w	r1, r8, lsl #3
 8001efc:	4688      	mov	r8, r1
 8001efe:	4691      	mov	r9, r2
 8001f00:	eb1a 0508 	adds.w	r5, sl, r8
 8001f04:	eb4b 0609 	adc.w	r6, fp, r9
 8001f08:	687b      	ldr	r3, [r7, #4]
 8001f0a:	685b      	ldr	r3, [r3, #4]
 8001f0c:	4619      	mov	r1, r3
 8001f0e:	f04f 0200 	mov.w	r2, #0
 8001f12:	f04f 0300 	mov.w	r3, #0
 8001f16:	f04f 0400 	mov.w	r4, #0
 8001f1a:	0094      	lsls	r4, r2, #2
 8001f1c:	ea44 7491 	orr.w	r4, r4, r1, lsr #30
 8001f20:	008b      	lsls	r3, r1, #2
 8001f22:	461a      	mov	r2, r3
 8001f24:	4623      	mov	r3, r4
 8001f26:	4628      	mov	r0, r5
 8001f28:	4631      	mov	r1, r6
 8001f2a:	f7fe f9a9 	bl	8000280 <__aeabi_uldivmod>
 8001f2e:	4603      	mov	r3, r0
 8001f30:	460c      	mov	r4, r1
 8001f32:	461a      	mov	r2, r3
 8001f34:	4bb8      	ldr	r3, [pc, #736]	; (8002218 <UART_SetConfig+0x6f4>)
 8001f36:	fba3 2302 	umull	r2, r3, r3, r2
 8001f3a:	095b      	lsrs	r3, r3, #5
 8001f3c:	ea4f 1803 	mov.w	r8, r3, lsl #4
 8001f40:	68bb      	ldr	r3, [r7, #8]
 8001f42:	469b      	mov	fp, r3
 8001f44:	f04f 0c00 	mov.w	ip, #0
 8001f48:	46d9      	mov	r9, fp
 8001f4a:	46e2      	mov	sl, ip
 8001f4c:	eb19 0309 	adds.w	r3, r9, r9
 8001f50:	eb4a 040a 	adc.w	r4, sl, sl
 8001f54:	4699      	mov	r9, r3
 8001f56:	46a2      	mov	sl, r4
 8001f58:	eb19 090b 	adds.w	r9, r9, fp
 8001f5c:	eb4a 0a0c 	adc.w	sl, sl, ip
 8001f60:	f04f 0100 	mov.w	r1, #0
 8001f64:	f04f 0200 	mov.w	r2, #0
 8001f68:	ea4f 02ca 	mov.w	r2, sl, lsl #3
 8001f6c:	ea42 7259 	orr.w	r2, r2, r9, lsr #29
 8001f70:	ea4f 01c9 	mov.w	r1, r9, lsl #3
 8001f74:	4689      	mov	r9, r1
 8001f76:	4692      	mov	sl, r2
 8001f78:	eb1b 0509 	adds.w	r5, fp, r9
 8001f7c:	eb4c 060a 	adc.w	r6, ip, sl
 8001f80:	687b      	ldr	r3, [r7, #4]
 8001f82:	685b      	ldr	r3, [r3, #4]
 8001f84:	4619      	mov	r1, r3
 8001f86:	f04f 0200 	mov.w	r2, #0
 8001f8a:	f04f 0300 	mov.w	r3, #0
 8001f8e:	f04f 0400 	mov.w	r4, #0
 8001f92:	0094      	lsls	r4, r2, #2
 8001f94:	ea44 7491 	orr.w	r4, r4, r1, lsr #30
 8001f98:	008b      	lsls	r3, r1, #2
 8001f9a:	461a      	mov	r2, r3
 8001f9c:	4623      	mov	r3, r4
 8001f9e:	4628      	mov	r0, r5
 8001fa0:	4631      	mov	r1, r6
 8001fa2:	f7fe f96d 	bl	8000280 <__aeabi_uldivmod>
 8001fa6:	4603      	mov	r3, r0
 8001fa8:	460c      	mov	r4, r1
 8001faa:	461a      	mov	r2, r3
 8001fac:	4b9a      	ldr	r3, [pc, #616]	; (8002218 <UART_SetConfig+0x6f4>)
 8001fae:	fba3 1302 	umull	r1, r3, r3, r2
 8001fb2:	095b      	lsrs	r3, r3, #5
 8001fb4:	2164      	movs	r1, #100	; 0x64
 8001fb6:	fb01 f303 	mul.w	r3, r1, r3
 8001fba:	1ad3      	subs	r3, r2, r3
 8001fbc:	011b      	lsls	r3, r3, #4
 8001fbe:	3332      	adds	r3, #50	; 0x32
 8001fc0:	4a95      	ldr	r2, [pc, #596]	; (8002218 <UART_SetConfig+0x6f4>)
 8001fc2:	fba2 2303 	umull	r2, r3, r2, r3
 8001fc6:	095b      	lsrs	r3, r3, #5
 8001fc8:	f003 03f0 	and.w	r3, r3, #240	; 0xf0
 8001fcc:	4498      	add	r8, r3
 8001fce:	68bb      	ldr	r3, [r7, #8]
 8001fd0:	469b      	mov	fp, r3
 8001fd2:	f04f 0c00 	mov.w	ip, #0
 8001fd6:	46d9      	mov	r9, fp
 8001fd8:	46e2      	mov	sl, ip
 8001fda:	eb19 0309 	adds.w	r3, r9, r9
 8001fde:	eb4a 040a 	adc.w	r4, sl, sl
 8001fe2:	4699      	mov	r9, r3
 8001fe4:	46a2      	mov	sl, r4
 8001fe6:	eb19 090b 	adds.w	r9, r9, fp
 8001fea:	eb4a 0a0c 	adc.w	sl, sl, ip
 8001fee:	f04f 0100 	mov.w	r1, #0
 8001ff2:	f04f 0200 	mov.w	r2, #0
 8001ff6:	ea4f 02ca 	mov.w	r2, sl, lsl #3
 8001ffa:	ea42 7259 	orr.w	r2, r2, r9, lsr #29
 8001ffe:	ea4f 01c9 	mov.w	r1, r9, lsl #3
 8002002:	4689      	mov	r9, r1
 8002004:	4692      	mov	sl, r2
 8002006:	eb1b 0509 	adds.w	r5, fp, r9
 800200a:	eb4c 060a 	adc.w	r6, ip, sl
 800200e:	687b      	ldr	r3, [r7, #4]
 8002010:	685b      	ldr	r3, [r3, #4]
 8002012:	4619      	mov	r1, r3
 8002014:	f04f 0200 	mov.w	r2, #0
 8002018:	f04f 0300 	mov.w	r3, #0
 800201c:	f04f 0400 	mov.w	r4, #0
 8002020:	0094      	lsls	r4, r2, #2
 8002022:	ea44 7491 	orr.w	r4, r4, r1, lsr #30
 8002026:	008b      	lsls	r3, r1, #2
 8002028:	461a      	mov	r2, r3
 800202a:	4623      	mov	r3, r4
 800202c:	4628      	mov	r0, r5
 800202e:	4631      	mov	r1, r6
 8002030:	f7fe f926 	bl	8000280 <__aeabi_uldivmod>
 8002034:	4603      	mov	r3, r0
 8002036:	460c      	mov	r4, r1
 8002038:	461a      	mov	r2, r3
 800203a:	4b77      	ldr	r3, [pc, #476]	; (8002218 <UART_SetConfig+0x6f4>)
 800203c:	fba3 1302 	umull	r1, r3, r3, r2
 8002040:	095b      	lsrs	r3, r3, #5
 8002042:	2164      	movs	r1, #100	; 0x64
 8002044:	fb01 f303 	mul.w	r3, r1, r3
 8002048:	1ad3      	subs	r3, r2, r3
 800204a:	011b      	lsls	r3, r3, #4
 800204c:	3332      	adds	r3, #50	; 0x32
 800204e:	4a72      	ldr	r2, [pc, #456]	; (8002218 <UART_SetConfig+0x6f4>)
 8002050:	fba2 2303 	umull	r2, r3, r2, r3
 8002054:	095b      	lsrs	r3, r3, #5
 8002056:	f003 020f 	and.w	r2, r3, #15
 800205a:	687b      	ldr	r3, [r7, #4]
 800205c:	681b      	ldr	r3, [r3, #0]
 800205e:	4442      	add	r2, r8
 8002060:	609a      	str	r2, [r3, #8]
 8002062:	e0d0      	b.n	8002206 <UART_SetConfig+0x6e2>
      pclk = HAL_RCC_GetPCLK1Freq();
 8002064:	f7ff fc06 	bl	8001874 <HAL_RCC_GetPCLK1Freq>
 8002068:	60b8      	str	r0, [r7, #8]
      huart->Instance->BRR = UART_BRR_SAMPLING16(pclk, huart->Init.BaudRate);
 800206a:	68bb      	ldr	r3, [r7, #8]
 800206c:	469a      	mov	sl, r3
 800206e:	f04f 0b00 	mov.w	fp, #0
 8002072:	46d0      	mov	r8, sl
 8002074:	46d9      	mov	r9, fp
 8002076:	eb18 0308 	adds.w	r3, r8, r8
 800207a:	eb49 0409 	adc.w	r4, r9, r9
 800207e:	4698      	mov	r8, r3
 8002080:	46a1      	mov	r9, r4
 8002082:	eb18 080a 	adds.w	r8, r8, sl
 8002086:	eb49 090b 	adc.w	r9, r9, fp
 800208a:	f04f 0100 	mov.w	r1, #0
 800208e:	f04f 0200 	mov.w	r2, #0
 8002092:	ea4f 02c9 	mov.w	r2, r9, lsl #3
 8002096:	ea42 7258 	orr.w	r2, r2, r8, lsr #29
 800209a:	ea4f 01c8 	mov.w	r1, r8, lsl #3
 800209e:	4688      	mov	r8, r1
 80020a0:	4691      	mov	r9, r2
 80020a2:	eb1a 0508 	adds.w	r5, sl, r8
 80020a6:	eb4b 0609 	adc.w	r6, fp, r9
 80020aa:	687b      	ldr	r3, [r7, #4]
 80020ac:	685b      	ldr	r3, [r3, #4]
 80020ae:	4619      	mov	r1, r3
 80020b0:	f04f 0200 	mov.w	r2, #0
 80020b4:	f04f 0300 	mov.w	r3, #0
 80020b8:	f04f 0400 	mov.w	r4, #0
 80020bc:	0094      	lsls	r4, r2, #2
 80020be:	ea44 7491 	orr.w	r4, r4, r1, lsr #30
 80020c2:	008b      	lsls	r3, r1, #2
 80020c4:	461a      	mov	r2, r3
 80020c6:	4623      	mov	r3, r4
 80020c8:	4628      	mov	r0, r5
 80020ca:	4631      	mov	r1, r6
 80020cc:	f7fe f8d8 	bl	8000280 <__aeabi_uldivmod>
 80020d0:	4603      	mov	r3, r0
 80020d2:	460c      	mov	r4, r1
 80020d4:	461a      	mov	r2, r3
 80020d6:	4b50      	ldr	r3, [pc, #320]	; (8002218 <UART_SetConfig+0x6f4>)
 80020d8:	fba3 2302 	umull	r2, r3, r3, r2
 80020dc:	095b      	lsrs	r3, r3, #5
 80020de:	ea4f 1803 	mov.w	r8, r3, lsl #4
 80020e2:	68bb      	ldr	r3, [r7, #8]
 80020e4:	469b      	mov	fp, r3
 80020e6:	f04f 0c00 	mov.w	ip, #0
 80020ea:	46d9      	mov	r9, fp
 80020ec:	46e2      	mov	sl, ip
 80020ee:	eb19 0309 	adds.w	r3, r9, r9
 80020f2:	eb4a 040a 	adc.w	r4, sl, sl
 80020f6:	4699      	mov	r9, r3
 80020f8:	46a2      	mov	sl, r4
 80020fa:	eb19 090b 	adds.w	r9, r9, fp
 80020fe:	eb4a 0a0c 	adc.w	sl, sl, ip
 8002102:	f04f 0100 	mov.w	r1, #0
 8002106:	f04f 0200 	mov.w	r2, #0
 800210a:	ea4f 02ca 	mov.w	r2, sl, lsl #3
 800210e:	ea42 7259 	orr.w	r2, r2, r9, lsr #29
 8002112:	ea4f 01c9 	mov.w	r1, r9, lsl #3
 8002116:	4689      	mov	r9, r1
 8002118:	4692      	mov	sl, r2
 800211a:	eb1b 0509 	adds.w	r5, fp, r9
 800211e:	eb4c 060a 	adc.w	r6, ip, sl
 8002122:	687b      	ldr	r3, [r7, #4]
 8002124:	685b      	ldr	r3, [r3, #4]
 8002126:	4619      	mov	r1, r3
 8002128:	f04f 0200 	mov.w	r2, #0
 800212c:	f04f 0300 	mov.w	r3, #0
 8002130:	f04f 0400 	mov.w	r4, #0
 8002134:	0094      	lsls	r4, r2, #2
 8002136:	ea44 7491 	orr.w	r4, r4, r1, lsr #30
 800213a:	008b      	lsls	r3, r1, #2
 800213c:	461a      	mov	r2, r3
 800213e:	4623      	mov	r3, r4
 8002140:	4628      	mov	r0, r5
 8002142:	4631      	mov	r1, r6
 8002144:	f7fe f89c 	bl	8000280 <__aeabi_uldivmod>
 8002148:	4603      	mov	r3, r0
 800214a:	460c      	mov	r4, r1
 800214c:	461a      	mov	r2, r3
 800214e:	4b32      	ldr	r3, [pc, #200]	; (8002218 <UART_SetConfig+0x6f4>)
 8002150:	fba3 1302 	umull	r1, r3, r3, r2
 8002154:	095b      	lsrs	r3, r3, #5
 8002156:	2164      	movs	r1, #100	; 0x64
 8002158:	fb01 f303 	mul.w	r3, r1, r3
 800215c:	1ad3      	subs	r3, r2, r3
 800215e:	011b      	lsls	r3, r3, #4
 8002160:	3332      	adds	r3, #50	; 0x32
 8002162:	4a2d      	ldr	r2, [pc, #180]	; (8002218 <UART_SetConfig+0x6f4>)
 8002164:	fba2 2303 	umull	r2, r3, r2, r3
 8002168:	095b      	lsrs	r3, r3, #5
 800216a:	f003 03f0 	and.w	r3, r3, #240	; 0xf0
 800216e:	4498      	add	r8, r3
 8002170:	68bb      	ldr	r3, [r7, #8]
 8002172:	469b      	mov	fp, r3
 8002174:	f04f 0c00 	mov.w	ip, #0
 8002178:	46d9      	mov	r9, fp
 800217a:	46e2      	mov	sl, ip
 800217c:	eb19 0309 	adds.w	r3, r9, r9
 8002180:	eb4a 040a 	adc.w	r4, sl, sl
 8002184:	4699      	mov	r9, r3
 8002186:	46a2      	mov	sl, r4
 8002188:	eb19 090b 	adds.w	r9, r9, fp
 800218c:	eb4a 0a0c 	adc.w	sl, sl, ip
 8002190:	f04f 0100 	mov.w	r1, #0
 8002194:	f04f 0200 	mov.w	r2, #0
 8002198:	ea4f 02ca 	mov.w	r2, sl, lsl #3
 800219c:	ea42 7259 	orr.w	r2, r2, r9, lsr #29
 80021a0:	ea4f 01c9 	mov.w	r1, r9, lsl #3
 80021a4:	4689      	mov	r9, r1
 80021a6:	4692      	mov	sl, r2
 80021a8:	eb1b 0509 	adds.w	r5, fp, r9
 80021ac:	eb4c 060a 	adc.w	r6, ip, sl
 80021b0:	687b      	ldr	r3, [r7, #4]
 80021b2:	685b      	ldr	r3, [r3, #4]
 80021b4:	4619      	mov	r1, r3
 80021b6:	f04f 0200 	mov.w	r2, #0
 80021ba:	f04f 0300 	mov.w	r3, #0
 80021be:	f04f 0400 	mov.w	r4, #0
 80021c2:	0094      	lsls	r4, r2, #2
 80021c4:	ea44 7491 	orr.w	r4, r4, r1, lsr #30
 80021c8:	008b      	lsls	r3, r1, #2
 80021ca:	461a      	mov	r2, r3
 80021cc:	4623      	mov	r3, r4
 80021ce:	4628      	mov	r0, r5
 80021d0:	4631      	mov	r1, r6
 80021d2:	f7fe f855 	bl	8000280 <__aeabi_uldivmod>
 80021d6:	4603      	mov	r3, r0
 80021d8:	460c      	mov	r4, r1
 80021da:	461a      	mov	r2, r3
 80021dc:	4b0e      	ldr	r3, [pc, #56]	; (8002218 <UART_SetConfig+0x6f4>)
 80021de:	fba3 1302 	umull	r1, r3, r3, r2
 80021e2:	095b      	lsrs	r3, r3, #5
 80021e4:	2164      	movs	r1, #100	; 0x64
 80021e6:	fb01 f303 	mul.w	r3, r1, r3
 80021ea:	1ad3      	subs	r3, r2, r3
 80021ec:	011b      	lsls	r3, r3, #4
 80021ee:	3332      	adds	r3, #50	; 0x32
 80021f0:	4a09      	ldr	r2, [pc, #36]	; (8002218 <UART_SetConfig+0x6f4>)
 80021f2:	fba2 2303 	umull	r2, r3, r2, r3
 80021f6:	095b      	lsrs	r3, r3, #5
 80021f8:	f003 020f 	and.w	r2, r3, #15
 80021fc:	687b      	ldr	r3, [r7, #4]
 80021fe:	681b      	ldr	r3, [r3, #0]
 8002200:	4442      	add	r2, r8
 8002202:	609a      	str	r2, [r3, #8]
}
 8002204:	e7ff      	b.n	8002206 <UART_SetConfig+0x6e2>
 8002206:	bf00      	nop
 8002208:	3714      	adds	r7, #20
 800220a:	46bd      	mov	sp, r7
 800220c:	e8bd 8ff0 	ldmia.w	sp!, {r4, r5, r6, r7, r8, r9, sl, fp, pc}
 8002210:	40011000 	.word	0x40011000
 8002214:	40011400 	.word	0x40011400
 8002218:	51eb851f 	.word	0x51eb851f

0800221c <__errno>:
 800221c:	4b01      	ldr	r3, [pc, #4]	; (8002224 <__errno+0x8>)
 800221e:	6818      	ldr	r0, [r3, #0]
 8002220:	4770      	bx	lr
 8002222:	bf00      	nop
 8002224:	2000000c 	.word	0x2000000c

08002228 <__libc_init_array>:
 8002228:	b570      	push	{r4, r5, r6, lr}
 800222a:	4e0d      	ldr	r6, [pc, #52]	; (8002260 <__libc_init_array+0x38>)
 800222c:	4c0d      	ldr	r4, [pc, #52]	; (8002264 <__libc_init_array+0x3c>)
 800222e:	1ba4      	subs	r4, r4, r6
 8002230:	10a4      	asrs	r4, r4, #2
 8002232:	2500      	movs	r5, #0
 8002234:	42a5      	cmp	r5, r4
 8002236:	d109      	bne.n	800224c <__libc_init_array+0x24>
 8002238:	4e0b      	ldr	r6, [pc, #44]	; (8002268 <__libc_init_array+0x40>)
 800223a:	4c0c      	ldr	r4, [pc, #48]	; (800226c <__libc_init_array+0x44>)
 800223c:	f000 fc26 	bl	8002a8c <_init>
 8002240:	1ba4      	subs	r4, r4, r6
 8002242:	10a4      	asrs	r4, r4, #2
 8002244:	2500      	movs	r5, #0
 8002246:	42a5      	cmp	r5, r4
 8002248:	d105      	bne.n	8002256 <__libc_init_array+0x2e>
 800224a:	bd70      	pop	{r4, r5, r6, pc}
 800224c:	f856 3025 	ldr.w	r3, [r6, r5, lsl #2]
 8002250:	4798      	blx	r3
 8002252:	3501      	adds	r5, #1
 8002254:	e7ee      	b.n	8002234 <__libc_init_array+0xc>
 8002256:	f856 3025 	ldr.w	r3, [r6, r5, lsl #2]
 800225a:	4798      	blx	r3
 800225c:	3501      	adds	r5, #1
 800225e:	e7f2      	b.n	8002246 <__libc_init_array+0x1e>
 8002260:	08002b38 	.word	0x08002b38
 8002264:	08002b38 	.word	0x08002b38
 8002268:	08002b38 	.word	0x08002b38
 800226c:	08002b3c 	.word	0x08002b3c

08002270 <memset>:
 8002270:	4402      	add	r2, r0
 8002272:	4603      	mov	r3, r0
 8002274:	4293      	cmp	r3, r2
 8002276:	d100      	bne.n	800227a <memset+0xa>
 8002278:	4770      	bx	lr
 800227a:	f803 1b01 	strb.w	r1, [r3], #1
 800227e:	e7f9      	b.n	8002274 <memset+0x4>

08002280 <siprintf>:
 8002280:	b40e      	push	{r1, r2, r3}
 8002282:	b500      	push	{lr}
 8002284:	b09c      	sub	sp, #112	; 0x70
 8002286:	ab1d      	add	r3, sp, #116	; 0x74
 8002288:	9002      	str	r0, [sp, #8]
 800228a:	9006      	str	r0, [sp, #24]
 800228c:	f06f 4100 	mvn.w	r1, #2147483648	; 0x80000000
 8002290:	4809      	ldr	r0, [pc, #36]	; (80022b8 <siprintf+0x38>)
 8002292:	9107      	str	r1, [sp, #28]
 8002294:	9104      	str	r1, [sp, #16]
 8002296:	4909      	ldr	r1, [pc, #36]	; (80022bc <siprintf+0x3c>)
 8002298:	f853 2b04 	ldr.w	r2, [r3], #4
 800229c:	9105      	str	r1, [sp, #20]
 800229e:	6800      	ldr	r0, [r0, #0]
 80022a0:	9301      	str	r3, [sp, #4]
 80022a2:	a902      	add	r1, sp, #8
 80022a4:	f000 f866 	bl	8002374 <_svfiprintf_r>
 80022a8:	9b02      	ldr	r3, [sp, #8]
 80022aa:	2200      	movs	r2, #0
 80022ac:	701a      	strb	r2, [r3, #0]
 80022ae:	b01c      	add	sp, #112	; 0x70
 80022b0:	f85d eb04 	ldr.w	lr, [sp], #4
 80022b4:	b003      	add	sp, #12
 80022b6:	4770      	bx	lr
 80022b8:	2000000c 	.word	0x2000000c
 80022bc:	ffff0208 	.word	0xffff0208

080022c0 <__ssputs_r>:
 80022c0:	e92d 47f0 	stmdb	sp!, {r4, r5, r6, r7, r8, r9, sl, lr}
 80022c4:	688e      	ldr	r6, [r1, #8]
 80022c6:	429e      	cmp	r6, r3
 80022c8:	4682      	mov	sl, r0
 80022ca:	460c      	mov	r4, r1
 80022cc:	4690      	mov	r8, r2
 80022ce:	4699      	mov	r9, r3
 80022d0:	d837      	bhi.n	8002342 <__ssputs_r+0x82>
 80022d2:	898a      	ldrh	r2, [r1, #12]
 80022d4:	f412 6f90 	tst.w	r2, #1152	; 0x480
 80022d8:	d031      	beq.n	800233e <__ssputs_r+0x7e>
 80022da:	6825      	ldr	r5, [r4, #0]
 80022dc:	6909      	ldr	r1, [r1, #16]
 80022de:	1a6f      	subs	r7, r5, r1
 80022e0:	6965      	ldr	r5, [r4, #20]
 80022e2:	2302      	movs	r3, #2
 80022e4:	eb05 0545 	add.w	r5, r5, r5, lsl #1
 80022e8:	fb95 f5f3 	sdiv	r5, r5, r3
 80022ec:	f109 0301 	add.w	r3, r9, #1
 80022f0:	443b      	add	r3, r7
 80022f2:	429d      	cmp	r5, r3
 80022f4:	bf38      	it	cc
 80022f6:	461d      	movcc	r5, r3
 80022f8:	0553      	lsls	r3, r2, #21
 80022fa:	d530      	bpl.n	800235e <__ssputs_r+0x9e>
 80022fc:	4629      	mov	r1, r5
 80022fe:	f000 fb2b 	bl	8002958 <_malloc_r>
 8002302:	4606      	mov	r6, r0
 8002304:	b950      	cbnz	r0, 800231c <__ssputs_r+0x5c>
 8002306:	230c      	movs	r3, #12
 8002308:	f8ca 3000 	str.w	r3, [sl]
 800230c:	89a3      	ldrh	r3, [r4, #12]
 800230e:	f043 0340 	orr.w	r3, r3, #64	; 0x40
 8002312:	81a3      	strh	r3, [r4, #12]
 8002314:	f04f 30ff 	mov.w	r0, #4294967295
 8002318:	e8bd 87f0 	ldmia.w	sp!, {r4, r5, r6, r7, r8, r9, sl, pc}
 800231c:	463a      	mov	r2, r7
 800231e:	6921      	ldr	r1, [r4, #16]
 8002320:	f000 faa8 	bl	8002874 <memcpy>
 8002324:	89a3      	ldrh	r3, [r4, #12]
 8002326:	f423 6390 	bic.w	r3, r3, #1152	; 0x480
 800232a:	f043 0380 	orr.w	r3, r3, #128	; 0x80
 800232e:	81a3      	strh	r3, [r4, #12]
 8002330:	6126      	str	r6, [r4, #16]
 8002332:	6165      	str	r5, [r4, #20]
 8002334:	443e      	add	r6, r7
 8002336:	1bed      	subs	r5, r5, r7
 8002338:	6026      	str	r6, [r4, #0]
 800233a:	60a5      	str	r5, [r4, #8]
 800233c:	464e      	mov	r6, r9
 800233e:	454e      	cmp	r6, r9
 8002340:	d900      	bls.n	8002344 <__ssputs_r+0x84>
 8002342:	464e      	mov	r6, r9
 8002344:	4632      	mov	r2, r6
 8002346:	4641      	mov	r1, r8
 8002348:	6820      	ldr	r0, [r4, #0]
 800234a:	f000 fa9e 	bl	800288a <memmove>
 800234e:	68a3      	ldr	r3, [r4, #8]
 8002350:	1b9b      	subs	r3, r3, r6
 8002352:	60a3      	str	r3, [r4, #8]
 8002354:	6823      	ldr	r3, [r4, #0]
 8002356:	441e      	add	r6, r3
 8002358:	6026      	str	r6, [r4, #0]
 800235a:	2000      	movs	r0, #0
 800235c:	e7dc      	b.n	8002318 <__ssputs_r+0x58>
 800235e:	462a      	mov	r2, r5
 8002360:	f000 fb54 	bl	8002a0c <_realloc_r>
 8002364:	4606      	mov	r6, r0
 8002366:	2800      	cmp	r0, #0
 8002368:	d1e2      	bne.n	8002330 <__ssputs_r+0x70>
 800236a:	6921      	ldr	r1, [r4, #16]
 800236c:	4650      	mov	r0, sl
 800236e:	f000 faa5 	bl	80028bc <_free_r>
 8002372:	e7c8      	b.n	8002306 <__ssputs_r+0x46>

08002374 <_svfiprintf_r>:
 8002374:	e92d 4ff0 	stmdb	sp!, {r4, r5, r6, r7, r8, r9, sl, fp, lr}
 8002378:	461d      	mov	r5, r3
 800237a:	898b      	ldrh	r3, [r1, #12]
 800237c:	061f      	lsls	r7, r3, #24
 800237e:	b09d      	sub	sp, #116	; 0x74
 8002380:	4680      	mov	r8, r0
 8002382:	460c      	mov	r4, r1
 8002384:	4616      	mov	r6, r2
 8002386:	d50f      	bpl.n	80023a8 <_svfiprintf_r+0x34>
 8002388:	690b      	ldr	r3, [r1, #16]
 800238a:	b96b      	cbnz	r3, 80023a8 <_svfiprintf_r+0x34>
 800238c:	2140      	movs	r1, #64	; 0x40
 800238e:	f000 fae3 	bl	8002958 <_malloc_r>
 8002392:	6020      	str	r0, [r4, #0]
 8002394:	6120      	str	r0, [r4, #16]
 8002396:	b928      	cbnz	r0, 80023a4 <_svfiprintf_r+0x30>
 8002398:	230c      	movs	r3, #12
 800239a:	f8c8 3000 	str.w	r3, [r8]
 800239e:	f04f 30ff 	mov.w	r0, #4294967295
 80023a2:	e0c8      	b.n	8002536 <_svfiprintf_r+0x1c2>
 80023a4:	2340      	movs	r3, #64	; 0x40
 80023a6:	6163      	str	r3, [r4, #20]
 80023a8:	2300      	movs	r3, #0
 80023aa:	9309      	str	r3, [sp, #36]	; 0x24
 80023ac:	2320      	movs	r3, #32
 80023ae:	f88d 3029 	strb.w	r3, [sp, #41]	; 0x29
 80023b2:	2330      	movs	r3, #48	; 0x30
 80023b4:	f88d 302a 	strb.w	r3, [sp, #42]	; 0x2a
 80023b8:	9503      	str	r5, [sp, #12]
 80023ba:	f04f 0b01 	mov.w	fp, #1
 80023be:	4637      	mov	r7, r6
 80023c0:	463d      	mov	r5, r7
 80023c2:	f815 3b01 	ldrb.w	r3, [r5], #1
 80023c6:	b10b      	cbz	r3, 80023cc <_svfiprintf_r+0x58>
 80023c8:	2b25      	cmp	r3, #37	; 0x25
 80023ca:	d13e      	bne.n	800244a <_svfiprintf_r+0xd6>
 80023cc:	ebb7 0a06 	subs.w	sl, r7, r6
 80023d0:	d00b      	beq.n	80023ea <_svfiprintf_r+0x76>
 80023d2:	4653      	mov	r3, sl
 80023d4:	4632      	mov	r2, r6
 80023d6:	4621      	mov	r1, r4
 80023d8:	4640      	mov	r0, r8
 80023da:	f7ff ff71 	bl	80022c0 <__ssputs_r>
 80023de:	3001      	adds	r0, #1
 80023e0:	f000 80a4 	beq.w	800252c <_svfiprintf_r+0x1b8>
 80023e4:	9b09      	ldr	r3, [sp, #36]	; 0x24
 80023e6:	4453      	add	r3, sl
 80023e8:	9309      	str	r3, [sp, #36]	; 0x24
 80023ea:	783b      	ldrb	r3, [r7, #0]
 80023ec:	2b00      	cmp	r3, #0
 80023ee:	f000 809d 	beq.w	800252c <_svfiprintf_r+0x1b8>
 80023f2:	2300      	movs	r3, #0
 80023f4:	f04f 32ff 	mov.w	r2, #4294967295
 80023f8:	e9cd 2305 	strd	r2, r3, [sp, #20]
 80023fc:	9304      	str	r3, [sp, #16]
 80023fe:	9307      	str	r3, [sp, #28]
 8002400:	f88d 3053 	strb.w	r3, [sp, #83]	; 0x53
 8002404:	931a      	str	r3, [sp, #104]	; 0x68
 8002406:	462f      	mov	r7, r5
 8002408:	2205      	movs	r2, #5
 800240a:	f817 1b01 	ldrb.w	r1, [r7], #1
 800240e:	4850      	ldr	r0, [pc, #320]	; (8002550 <_svfiprintf_r+0x1dc>)
 8002410:	f7fd fee6 	bl	80001e0 <memchr>
 8002414:	9b04      	ldr	r3, [sp, #16]
 8002416:	b9d0      	cbnz	r0, 800244e <_svfiprintf_r+0xda>
 8002418:	06d9      	lsls	r1, r3, #27
 800241a:	bf44      	itt	mi
 800241c:	2220      	movmi	r2, #32
 800241e:	f88d 2053 	strbmi.w	r2, [sp, #83]	; 0x53
 8002422:	071a      	lsls	r2, r3, #28
 8002424:	bf44      	itt	mi
 8002426:	222b      	movmi	r2, #43	; 0x2b
 8002428:	f88d 2053 	strbmi.w	r2, [sp, #83]	; 0x53
 800242c:	782a      	ldrb	r2, [r5, #0]
 800242e:	2a2a      	cmp	r2, #42	; 0x2a
 8002430:	d015      	beq.n	800245e <_svfiprintf_r+0xea>
 8002432:	9a07      	ldr	r2, [sp, #28]
 8002434:	462f      	mov	r7, r5
 8002436:	2000      	movs	r0, #0
 8002438:	250a      	movs	r5, #10
 800243a:	4639      	mov	r1, r7
 800243c:	f811 3b01 	ldrb.w	r3, [r1], #1
 8002440:	3b30      	subs	r3, #48	; 0x30
