
0010.1_TIM2_OC_SQUARE_WAVE.elf:     file format elf32-littlearm

Sections:
Idx Name          Size      VMA       LMA       File off  Algn
  0 .isr_vector   00000188  08000000  08000000  00010000  2**0
                  CONTENTS, ALLOC, LOAD, READONLY, DATA
  1 .text         00003190  08000188  08000188  00010188  2**2
                  CONTENTS, ALLOC, LOAD, READONLY, CODE
  2 .rodata       00000018  08003318  08003318  00013318  2**2
                  CONTENTS, ALLOC, LOAD, READONLY, DATA
  3 .ARM.extab    00000000  08003330  08003330  0002000c  2**0
                  CONTENTS
  4 .ARM          00000008  08003330  08003330  00013330  2**2
                  CONTENTS, ALLOC, LOAD, READONLY, DATA
  5 .preinit_array 00000000  08003338  08003338  0002000c  2**0
                  CONTENTS, ALLOC, LOAD, DATA
  6 .init_array   00000004  08003338  08003338  00013338  2**2
                  CONTENTS, ALLOC, LOAD, DATA
  7 .fini_array   00000004  0800333c  0800333c  0001333c  2**2
                  CONTENTS, ALLOC, LOAD, DATA
  8 .data         0000000c  20000000  08003340  00020000  2**2
                  CONTENTS, ALLOC, LOAD, DATA
  9 .bss          000000a4  2000000c  0800334c  0002000c  2**2
                  ALLOC
 10 ._user_heap_stack 00000600  200000b0  0800334c  000200b0  2**0
                  ALLOC
 11 .ARM.attributes 00000030  00000000  00000000  0002000c  2**0
                  CONTENTS, READONLY
 12 .debug_info   0000a5c3  00000000  00000000  0002003c  2**0
                  CONTENTS, READONLY, DEBUGGING
 13 .debug_abbrev 0000180d  00000000  00000000  0002a5ff  2**0
                  CONTENTS, READONLY, DEBUGGING
 14 .debug_aranges 00000b98  00000000  00000000  0002be10  2**3
                  CONTENTS, READONLY, DEBUGGING
 15 .debug_ranges 00000ad0  00000000  00000000  0002c9a8  2**3
                  CONTENTS, READONLY, DEBUGGING
 16 .debug_macro  0001ff55  00000000  00000000  0002d478  2**0
                  CONTENTS, READONLY, DEBUGGING
 17 .debug_line   000081a9  00000000  00000000  0004d3cd  2**0
                  CONTENTS, READONLY, DEBUGGING
 18 .debug_str    000c548f  00000000  00000000  00055576  2**0
                  CONTENTS, READONLY, DEBUGGING
 19 .comment      0000007b  00000000  00000000  0011aa05  2**0
                  CONTENTS, READONLY
 20 .debug_frame  000030ac  00000000  00000000  0011aa80  2**2
                  CONTENTS, READONLY, DEBUGGING

Disassembly of section .text:

08000188 <__do_global_dtors_aux>:
 8000188:	b510      	push	{r4, lr}
 800018a:	4c05      	ldr	r4, [pc, #20]	; (80001a0 <__do_global_dtors_aux+0x18>)
 800018c:	7823      	ldrb	r3, [r4, #0]
 800018e:	b933      	cbnz	r3, 800019e <__do_global_dtors_aux+0x16>
 8000190:	4b04      	ldr	r3, [pc, #16]	; (80001a4 <__do_global_dtors_aux+0x1c>)
 8000192:	b113      	cbz	r3, 800019a <__do_global_dtors_aux+0x12>
 8000194:	4804      	ldr	r0, [pc, #16]	; (80001a8 <__do_global_dtors_aux+0x20>)
 8000196:	f3af 8000 	nop.w
 800019a:	2301      	movs	r3, #1
 800019c:	7023      	strb	r3, [r4, #0]
 800019e:	bd10      	pop	{r4, pc}
 80001a0:	2000000c 	.word	0x2000000c
 80001a4:	00000000 	.word	0x00000000
 80001a8:	08003300 	.word	0x08003300

080001ac <frame_dummy>:
 80001ac:	b508      	push	{r3, lr}
 80001ae:	4b03      	ldr	r3, [pc, #12]	; (80001bc <frame_dummy+0x10>)
 80001b0:	b11b      	cbz	r3, 80001ba <frame_dummy+0xe>
 80001b2:	4903      	ldr	r1, [pc, #12]	; (80001c0 <frame_dummy+0x14>)
 80001b4:	4803      	ldr	r0, [pc, #12]	; (80001c4 <frame_dummy+0x18>)
 80001b6:	f3af 8000 	nop.w
 80001ba:	bd08      	pop	{r3, pc}
 80001bc:	00000000 	.word	0x00000000
 80001c0:	20000010 	.word	0x20000010
 80001c4:	08003300 	.word	0x08003300

080001c8 <__aeabi_uldivmod>:
 80001c8:	b953      	cbnz	r3, 80001e0 <__aeabi_uldivmod+0x18>
 80001ca:	b94a      	cbnz	r2, 80001e0 <__aeabi_uldivmod+0x18>
 80001cc:	2900      	cmp	r1, #0
 80001ce:	bf08      	it	eq
 80001d0:	2800      	cmpeq	r0, #0
 80001d2:	bf1c      	itt	ne
 80001d4:	f04f 31ff 	movne.w	r1, #4294967295
 80001d8:	f04f 30ff 	movne.w	r0, #4294967295
 80001dc:	f000 b972 	b.w	80004c4 <__aeabi_idiv0>
 80001e0:	f1ad 0c08 	sub.w	ip, sp, #8
 80001e4:	e96d ce04 	strd	ip, lr, [sp, #-16]!
 80001e8:	f000 f806 	bl	80001f8 <__udivmoddi4>
 80001ec:	f8dd e004 	ldr.w	lr, [sp, #4]
 80001f0:	e9dd 2302 	ldrd	r2, r3, [sp, #8]
 80001f4:	b004      	add	sp, #16
 80001f6:	4770      	bx	lr

080001f8 <__udivmoddi4>:
 80001f8:	e92d 47f0 	stmdb	sp!, {r4, r5, r6, r7, r8, r9, sl, lr}
 80001fc:	9e08      	ldr	r6, [sp, #32]
 80001fe:	4604      	mov	r4, r0
 8000200:	4688      	mov	r8, r1
 8000202:	2b00      	cmp	r3, #0
 8000204:	d14b      	bne.n	800029e <__udivmoddi4+0xa6>
 8000206:	428a      	cmp	r2, r1
 8000208:	4615      	mov	r5, r2
 800020a:	d967      	bls.n	80002dc <__udivmoddi4+0xe4>
 800020c:	fab2 f282 	clz	r2, r2
 8000210:	b14a      	cbz	r2, 8000226 <__udivmoddi4+0x2e>
 8000212:	f1c2 0720 	rsb	r7, r2, #32
 8000216:	fa01 f302 	lsl.w	r3, r1, r2
 800021a:	fa20 f707 	lsr.w	r7, r0, r7
 800021e:	4095      	lsls	r5, r2
 8000220:	ea47 0803 	orr.w	r8, r7, r3
 8000224:	4094      	lsls	r4, r2
 8000226:	ea4f 4e15 	mov.w	lr, r5, lsr #16
 800022a:	0c23      	lsrs	r3, r4, #16
 800022c:	fbb8 f7fe 	udiv	r7, r8, lr
 8000230:	fa1f fc85 	uxth.w	ip, r5
 8000234:	fb0e 8817 	mls	r8, lr, r7, r8
 8000238:	ea43 4308 	orr.w	r3, r3, r8, lsl #16
 800023c:	fb07 f10c 	mul.w	r1, r7, ip
 8000240:	4299      	cmp	r1, r3
 8000242:	d909      	bls.n	8000258 <__udivmoddi4+0x60>
 8000244:	18eb      	adds	r3, r5, r3
 8000246:	f107 30ff 	add.w	r0, r7, #4294967295
 800024a:	f080 811b 	bcs.w	8000484 <__udivmoddi4+0x28c>
 800024e:	4299      	cmp	r1, r3
 8000250:	f240 8118 	bls.w	8000484 <__udivmoddi4+0x28c>
 8000254:	3f02      	subs	r7, #2
 8000256:	442b      	add	r3, r5
 8000258:	1a5b      	subs	r3, r3, r1
 800025a:	b2a4      	uxth	r4, r4
 800025c:	fbb3 f0fe 	udiv	r0, r3, lr
 8000260:	fb0e 3310 	mls	r3, lr, r0, r3
 8000264:	ea44 4403 	orr.w	r4, r4, r3, lsl #16
 8000268:	fb00 fc0c 	mul.w	ip, r0, ip
 800026c:	45a4      	cmp	ip, r4
 800026e:	d909      	bls.n	8000284 <__udivmoddi4+0x8c>
 8000270:	192c      	adds	r4, r5, r4
 8000272:	f100 33ff 	add.w	r3, r0, #4294967295
 8000276:	f080 8107 	bcs.w	8000488 <__udivmoddi4+0x290>
 800027a:	45a4      	cmp	ip, r4
 800027c:	f240 8104 	bls.w	8000488 <__udivmoddi4+0x290>
 8000280:	3802      	subs	r0, #2
 8000282:	442c      	add	r4, r5
 8000284:	ea40 4007 	orr.w	r0, r0, r7, lsl #16
 8000288:	eba4 040c 	sub.w	r4, r4, ip
 800028c:	2700      	movs	r7, #0
 800028e:	b11e      	cbz	r6, 8000298 <__udivmoddi4+0xa0>
 8000290:	40d4      	lsrs	r4, r2
 8000292:	2300      	movs	r3, #0
 8000294:	e9c6 4300 	strd	r4, r3, [r6]
 8000298:	4639      	mov	r1, r7
 800029a:	e8bd 87f0 	ldmia.w	sp!, {r4, r5, r6, r7, r8, r9, sl, pc}
 800029e:	428b      	cmp	r3, r1
 80002a0:	d909      	bls.n	80002b6 <__udivmoddi4+0xbe>
 80002a2:	2e00      	cmp	r6, #0
 80002a4:	f000 80eb 	beq.w	800047e <__udivmoddi4+0x286>
 80002a8:	2700      	movs	r7, #0
 80002aa:	e9c6 0100 	strd	r0, r1, [r6]
 80002ae:	4638      	mov	r0, r7
 80002b0:	4639      	mov	r1, r7
 80002b2:	e8bd 87f0 	ldmia.w	sp!, {r4, r5, r6, r7, r8, r9, sl, pc}
 80002b6:	fab3 f783 	clz	r7, r3
 80002ba:	2f00      	cmp	r7, #0
 80002bc:	d147      	bne.n	800034e <__udivmoddi4+0x156>
 80002be:	428b      	cmp	r3, r1
 80002c0:	d302      	bcc.n	80002c8 <__udivmoddi4+0xd0>
 80002c2:	4282      	cmp	r2, r0
 80002c4:	f200 80fa 	bhi.w	80004bc <__udivmoddi4+0x2c4>
 80002c8:	1a84      	subs	r4, r0, r2
 80002ca:	eb61 0303 	sbc.w	r3, r1, r3
 80002ce:	2001      	movs	r0, #1
 80002d0:	4698      	mov	r8, r3
 80002d2:	2e00      	cmp	r6, #0
 80002d4:	d0e0      	beq.n	8000298 <__udivmoddi4+0xa0>
 80002d6:	e9c6 4800 	strd	r4, r8, [r6]
 80002da:	e7dd      	b.n	8000298 <__udivmoddi4+0xa0>
 80002dc:	b902      	cbnz	r2, 80002e0 <__udivmoddi4+0xe8>
 80002de:	deff      	udf	#255	; 0xff
 80002e0:	fab2 f282 	clz	r2, r2
 80002e4:	2a00      	cmp	r2, #0
 80002e6:	f040 808f 	bne.w	8000408 <__udivmoddi4+0x210>
 80002ea:	1b49      	subs	r1, r1, r5
 80002ec:	ea4f 4e15 	mov.w	lr, r5, lsr #16
 80002f0:	fa1f f885 	uxth.w	r8, r5
 80002f4:	2701      	movs	r7, #1
 80002f6:	fbb1 fcfe 	udiv	ip, r1, lr
 80002fa:	0c23      	lsrs	r3, r4, #16
 80002fc:	fb0e 111c 	mls	r1, lr, ip, r1
 8000300:	ea43 4301 	orr.w	r3, r3, r1, lsl #16
 8000304:	fb08 f10c 	mul.w	r1, r8, ip
 8000308:	4299      	cmp	r1, r3
 800030a:	d907      	bls.n	800031c <__udivmoddi4+0x124>
 800030c:	18eb      	adds	r3, r5, r3
 800030e:	f10c 30ff 	add.w	r0, ip, #4294967295
 8000312:	d202      	bcs.n	800031a <__udivmoddi4+0x122>
 8000314:	4299      	cmp	r1, r3
 8000316:	f200 80cd 	bhi.w	80004b4 <__udivmoddi4+0x2bc>
 800031a:	4684      	mov	ip, r0
 800031c:	1a59      	subs	r1, r3, r1
 800031e:	b2a3      	uxth	r3, r4
 8000320:	fbb1 f0fe 	udiv	r0, r1, lr
 8000324:	fb0e 1410 	mls	r4, lr, r0, r1
 8000328:	ea43 4404 	orr.w	r4, r3, r4, lsl #16
 800032c:	fb08 f800 	mul.w	r8, r8, r0
 8000330:	45a0      	cmp	r8, r4
 8000332:	d907      	bls.n	8000344 <__udivmoddi4+0x14c>
 8000334:	192c      	adds	r4, r5, r4
 8000336:	f100 33ff 	add.w	r3, r0, #4294967295
 800033a:	d202      	bcs.n	8000342 <__udivmoddi4+0x14a>
 800033c:	45a0      	cmp	r8, r4
 800033e:	f200 80b6 	bhi.w	80004ae <__udivmoddi4+0x2b6>
 8000342:	4618      	mov	r0, r3
 8000344:	eba4 0408 	sub.w	r4, r4, r8
 8000348:	ea40 400c 	orr.w	r0, r0, ip, lsl #16
 800034c:	e79f      	b.n	800028e <__udivmoddi4+0x96>
 800034e:	f1c7 0c20 	rsb	ip, r7, #32
 8000352:	40bb      	lsls	r3, r7
 8000354:	fa22 fe0c 	lsr.w	lr, r2, ip
 8000358:	ea4e 0e03 	orr.w	lr, lr, r3
 800035c:	fa01 f407 	lsl.w	r4, r1, r7
 8000360:	fa20 f50c 	lsr.w	r5, r0, ip
 8000364:	fa21 f30c 	lsr.w	r3, r1, ip
 8000368:	ea4f 481e 	mov.w	r8, lr, lsr #16
 800036c:	4325      	orrs	r5, r4
 800036e:	fbb3 f9f8 	udiv	r9, r3, r8
 8000372:	0c2c      	lsrs	r4, r5, #16
 8000374:	fb08 3319 	mls	r3, r8, r9, r3
 8000378:	fa1f fa8e 	uxth.w	sl, lr
 800037c:	ea44 4303 	orr.w	r3, r4, r3, lsl #16
 8000380:	fb09 f40a 	mul.w	r4, r9, sl
 8000384:	429c      	cmp	r4, r3
 8000386:	fa02 f207 	lsl.w	r2, r2, r7
 800038a:	fa00 f107 	lsl.w	r1, r0, r7
 800038e:	d90b      	bls.n	80003a8 <__udivmoddi4+0x1b0>
 8000390:	eb1e 0303 	adds.w	r3, lr, r3
 8000394:	f109 30ff 	add.w	r0, r9, #4294967295
 8000398:	f080 8087 	bcs.w	80004aa <__udivmoddi4+0x2b2>
 800039c:	429c      	cmp	r4, r3
 800039e:	f240 8084 	bls.w	80004aa <__udivmoddi4+0x2b2>
 80003a2:	f1a9 0902 	sub.w	r9, r9, #2
 80003a6:	4473      	add	r3, lr
 80003a8:	1b1b      	subs	r3, r3, r4
 80003aa:	b2ad      	uxth	r5, r5
 80003ac:	fbb3 f0f8 	udiv	r0, r3, r8
 80003b0:	fb08 3310 	mls	r3, r8, r0, r3
 80003b4:	ea45 4403 	orr.w	r4, r5, r3, lsl #16
 80003b8:	fb00 fa0a 	mul.w	sl, r0, sl
 80003bc:	45a2      	cmp	sl, r4
 80003be:	d908      	bls.n	80003d2 <__udivmoddi4+0x1da>
 80003c0:	eb1e 0404 	adds.w	r4, lr, r4
 80003c4:	f100 33ff 	add.w	r3, r0, #4294967295
 80003c8:	d26b      	bcs.n	80004a2 <__udivmoddi4+0x2aa>
 80003ca:	45a2      	cmp	sl, r4
 80003cc:	d969      	bls.n	80004a2 <__udivmoddi4+0x2aa>
 80003ce:	3802      	subs	r0, #2
 80003d0:	4474      	add	r4, lr
 80003d2:	ea40 4009 	orr.w	r0, r0, r9, lsl #16
 80003d6:	fba0 8902 	umull	r8, r9, r0, r2
 80003da:	eba4 040a 	sub.w	r4, r4, sl
 80003de:	454c      	cmp	r4, r9
 80003e0:	46c2      	mov	sl, r8
 80003e2:	464b      	mov	r3, r9
 80003e4:	d354      	bcc.n	8000490 <__udivmoddi4+0x298>
 80003e6:	d051      	beq.n	800048c <__udivmoddi4+0x294>
 80003e8:	2e00      	cmp	r6, #0
 80003ea:	d069      	beq.n	80004c0 <__udivmoddi4+0x2c8>
 80003ec:	ebb1 050a 	subs.w	r5, r1, sl
 80003f0:	eb64 0403 	sbc.w	r4, r4, r3
 80003f4:	fa04 fc0c 	lsl.w	ip, r4, ip
 80003f8:	40fd      	lsrs	r5, r7
 80003fa:	40fc      	lsrs	r4, r7
 80003fc:	ea4c 0505 	orr.w	r5, ip, r5
 8000400:	e9c6 5400 	strd	r5, r4, [r6]
 8000404:	2700      	movs	r7, #0
 8000406:	e747      	b.n	8000298 <__udivmoddi4+0xa0>
 8000408:	f1c2 0320 	rsb	r3, r2, #32
 800040c:	fa20 f703 	lsr.w	r7, r0, r3
 8000410:	4095      	lsls	r5, r2
 8000412:	fa01 f002 	lsl.w	r0, r1, r2
 8000416:	fa21 f303 	lsr.w	r3, r1, r3
 800041a:	ea4f 4e15 	mov.w	lr, r5, lsr #16
 800041e:	4338      	orrs	r0, r7
 8000420:	0c01      	lsrs	r1, r0, #16
 8000422:	fbb3 f7fe 	udiv	r7, r3, lr
 8000426:	fa1f f885 	uxth.w	r8, r5
 800042a:	fb0e 3317 	mls	r3, lr, r7, r3
 800042e:	ea41 4103 	orr.w	r1, r1, r3, lsl #16
 8000432:	fb07 f308 	mul.w	r3, r7, r8
 8000436:	428b      	cmp	r3, r1
 8000438:	fa04 f402 	lsl.w	r4, r4, r2
 800043c:	d907      	bls.n	800044e <__udivmoddi4+0x256>
 800043e:	1869      	adds	r1, r5, r1
 8000440:	f107 3cff 	add.w	ip, r7, #4294967295
 8000444:	d22f      	bcs.n	80004a6 <__udivmoddi4+0x2ae>
 8000446:	428b      	cmp	r3, r1
 8000448:	d92d      	bls.n	80004a6 <__udivmoddi4+0x2ae>
 800044a:	3f02      	subs	r7, #2
 800044c:	4429      	add	r1, r5
 800044e:	1acb      	subs	r3, r1, r3
 8000450:	b281      	uxth	r1, r0
 8000452:	fbb3 f0fe 	udiv	r0, r3, lr
 8000456:	fb0e 3310 	mls	r3, lr, r0, r3
 800045a:	ea41 4103 	orr.w	r1, r1, r3, lsl #16
 800045e:	fb00 f308 	mul.w	r3, r0, r8
 8000462:	428b      	cmp	r3, r1
 8000464:	d907      	bls.n	8000476 <__udivmoddi4+0x27e>
 8000466:	1869      	adds	r1, r5, r1
 8000468:	f100 3cff 	add.w	ip, r0, #4294967295
 800046c:	d217      	bcs.n	800049e <__udivmoddi4+0x2a6>
 800046e:	428b      	cmp	r3, r1
 8000470:	d915      	bls.n	800049e <__udivmoddi4+0x2a6>
 8000472:	3802      	subs	r0, #2
 8000474:	4429      	add	r1, r5
 8000476:	1ac9      	subs	r1, r1, r3
 8000478:	ea40 4707 	orr.w	r7, r0, r7, lsl #16
 800047c:	e73b      	b.n	80002f6 <__udivmoddi4+0xfe>
 800047e:	4637      	mov	r7, r6
 8000480:	4630      	mov	r0, r6
 8000482:	e709      	b.n	8000298 <__udivmoddi4+0xa0>
 8000484:	4607      	mov	r7, r0
 8000486:	e6e7      	b.n	8000258 <__udivmoddi4+0x60>
 8000488:	4618      	mov	r0, r3
 800048a:	e6fb      	b.n	8000284 <__udivmoddi4+0x8c>
 800048c:	4541      	cmp	r1, r8
 800048e:	d2ab      	bcs.n	80003e8 <__udivmoddi4+0x1f0>
 8000490:	ebb8 0a02 	subs.w	sl, r8, r2
 8000494:	eb69 020e 	sbc.w	r2, r9, lr
 8000498:	3801      	subs	r0, #1
 800049a:	4613      	mov	r3, r2
 800049c:	e7a4      	b.n	80003e8 <__udivmoddi4+0x1f0>
 800049e:	4660      	mov	r0, ip
 80004a0:	e7e9      	b.n	8000476 <__udivmoddi4+0x27e>
 80004a2:	4618      	mov	r0, r3
 80004a4:	e795      	b.n	80003d2 <__udivmoddi4+0x1da>
 80004a6:	4667      	mov	r7, ip
 80004a8:	e7d1      	b.n	800044e <__udivmoddi4+0x256>
 80004aa:	4681      	mov	r9, r0
 80004ac:	e77c      	b.n	80003a8 <__udivmoddi4+0x1b0>
 80004ae:	3802      	subs	r0, #2
 80004b0:	442c      	add	r4, r5
 80004b2:	e747      	b.n	8000344 <__udivmoddi4+0x14c>
 80004b4:	f1ac 0c02 	sub.w	ip, ip, #2
 80004b8:	442b      	add	r3, r5
 80004ba:	e72f      	b.n	800031c <__udivmoddi4+0x124>
 80004bc:	4638      	mov	r0, r7
 80004be:	e708      	b.n	80002d2 <__udivmoddi4+0xda>
 80004c0:	4637      	mov	r7, r6
 80004c2:	e6e9      	b.n	8000298 <__udivmoddi4+0xa0>

080004c4 <__aeabi_idiv0>:
 80004c4:	4770      	bx	lr
 80004c6:	bf00      	nop

080004c8 <main>:
/**
  * @brief  The application entry point.
  * @retval int
  */
int main(void)
{
 80004c8:	b580      	push	{r7, lr}
 80004ca:	af00      	add	r7, sp, #0
  /* USER CODE END 1 */

  /* MCU Configuration--------------------------------------------------------*/

  /* Reset of all peripherals, Initializes the Flash interface and the Systick. */
  HAL_Init();
 80004cc:	f000 fb9c 	bl	8000c08 <HAL_Init>
  /* USER CODE BEGIN Init */

  /* USER CODE END Init */

  /* Configure the system clock */
  SystemClock_Config();
 80004d0:	f000 f82e 	bl	8000530 <SystemClock_Config>
  /* USER CODE BEGIN SysInit */

  /* USER CODE END SysInit */

  /* Initialize all configured peripherals */
  MX_GPIO_Init();
 80004d4:	f000 f944 	bl	8000760 <MX_GPIO_Init>
  MX_TIM2_Init();
 80004d8:	f000 f894 	bl	8000604 <MX_TIM2_Init>
  MX_USART2_UART_Init();
 80004dc:	f000 f916 	bl	800070c <MX_USART2_UART_Init>
  /* USER CODE BEGIN 2 */
//activate TIM
  if(HAL_TIM_OC_Start_IT(&htim2, TIM_CHANNEL_1)!=HAL_OK)
 80004e0:	2100      	movs	r1, #0
 80004e2:	4812      	ldr	r0, [pc, #72]	; (800052c <main+0x64>)
 80004e4:	f001 fb78 	bl	8001bd8 <HAL_TIM_OC_Start_IT>
 80004e8:	4603      	mov	r3, r0
 80004ea:	2b00      	cmp	r3, #0
 80004ec:	d001      	beq.n	80004f2 <main+0x2a>
{
	Error_Handler();
 80004ee:	f000 f9b5 	bl	800085c <Error_Handler>
}
if(HAL_TIM_OC_Start_IT(&htim2, TIM_CHANNEL_2)!=HAL_OK)
 80004f2:	2104      	movs	r1, #4
 80004f4:	480d      	ldr	r0, [pc, #52]	; (800052c <main+0x64>)
 80004f6:	f001 fb6f 	bl	8001bd8 <HAL_TIM_OC_Start_IT>
 80004fa:	4603      	mov	r3, r0
 80004fc:	2b00      	cmp	r3, #0
 80004fe:	d001      	beq.n	8000504 <main+0x3c>
{
	Error_Handler();
 8000500:	f000 f9ac 	bl	800085c <Error_Handler>
}
if(HAL_TIM_OC_Start_IT(&htim2, TIM_CHANNEL_3)!=HAL_OK)
 8000504:	2108      	movs	r1, #8
 8000506:	4809      	ldr	r0, [pc, #36]	; (800052c <main+0x64>)
 8000508:	f001 fb66 	bl	8001bd8 <HAL_TIM_OC_Start_IT>
 800050c:	4603      	mov	r3, r0
 800050e:	2b00      	cmp	r3, #0
 8000510:	d001      	beq.n	8000516 <main+0x4e>
{
	Error_Handler();
 8000512:	f000 f9a3 	bl	800085c <Error_Handler>
}
if(HAL_TIM_OC_Start_IT(&htim2, TIM_CHANNEL_4)!=HAL_OK)
 8000516:	210c      	movs	r1, #12
 8000518:	4804      	ldr	r0, [pc, #16]	; (800052c <main+0x64>)
 800051a:	f001 fb5d 	bl	8001bd8 <HAL_TIM_OC_Start_IT>
 800051e:	4603      	mov	r3, r0
 8000520:	2b00      	cmp	r3, #0
 8000522:	d001      	beq.n	8000528 <main+0x60>
{
	Error_Handler();
 8000524:	f000 f99a 	bl	800085c <Error_Handler>

/* USER CODE END 2 */

  /* Infinite loop */
  /* USER CODE BEGIN WHILE */
  while (1)
 8000528:	e7fe      	b.n	8000528 <main+0x60>
 800052a:	bf00      	nop
 800052c:	2000002c 	.word	0x2000002c

08000530 <SystemClock_Config>:
/**
  * @brief System Clock Configuration
  * @retval None
  */
void SystemClock_Config(void)
{
 8000530:	b580      	push	{r7, lr}
 8000532:	b094      	sub	sp, #80	; 0x50
 8000534:	af00      	add	r7, sp, #0
  RCC_OscInitTypeDef RCC_OscInitStruct = {0};
 8000536:	f107 0320 	add.w	r3, r7, #32
 800053a:	2230      	movs	r2, #48	; 0x30
 800053c:	2100      	movs	r1, #0
 800053e:	4618      	mov	r0, r3
 8000540:	f002 fed6 	bl	80032f0 <memset>
  RCC_ClkInitTypeDef RCC_ClkInitStruct = {0};
 8000544:	f107 030c 	add.w	r3, r7, #12
 8000548:	2200      	movs	r2, #0
 800054a:	601a      	str	r2, [r3, #0]
 800054c:	605a      	str	r2, [r3, #4]
 800054e:	609a      	str	r2, [r3, #8]
 8000550:	60da      	str	r2, [r3, #12]
 8000552:	611a      	str	r2, [r3, #16]

  /** Configure the main internal regulator output voltage 
  */
  __HAL_RCC_PWR_CLK_ENABLE();
 8000554:	2300      	movs	r3, #0
 8000556:	60bb      	str	r3, [r7, #8]
 8000558:	4b28      	ldr	r3, [pc, #160]	; (80005fc <SystemClock_Config+0xcc>)
 800055a:	6c1b      	ldr	r3, [r3, #64]	; 0x40
 800055c:	4a27      	ldr	r2, [pc, #156]	; (80005fc <SystemClock_Config+0xcc>)
 800055e:	f043 5380 	orr.w	r3, r3, #268435456	; 0x10000000
 8000562:	6413      	str	r3, [r2, #64]	; 0x40
 8000564:	4b25      	ldr	r3, [pc, #148]	; (80005fc <SystemClock_Config+0xcc>)
 8000566:	6c1b      	ldr	r3, [r3, #64]	; 0x40
 8000568:	f003 5380 	and.w	r3, r3, #268435456	; 0x10000000
 800056c:	60bb      	str	r3, [r7, #8]
 800056e:	68bb      	ldr	r3, [r7, #8]
  __HAL_PWR_VOLTAGESCALING_CONFIG(PWR_REGULATOR_VOLTAGE_SCALE1);
 8000570:	2300      	movs	r3, #0
 8000572:	607b      	str	r3, [r7, #4]
 8000574:	4b22      	ldr	r3, [pc, #136]	; (8000600 <SystemClock_Config+0xd0>)
 8000576:	681b      	ldr	r3, [r3, #0]
 8000578:	4a21      	ldr	r2, [pc, #132]	; (8000600 <SystemClock_Config+0xd0>)
 800057a:	f443 4380 	orr.w	r3, r3, #16384	; 0x4000
 800057e:	6013      	str	r3, [r2, #0]
 8000580:	4b1f      	ldr	r3, [pc, #124]	; (8000600 <SystemClock_Config+0xd0>)
 8000582:	681b      	ldr	r3, [r3, #0]
 8000584:	f403 4380 	and.w	r3, r3, #16384	; 0x4000
 8000588:	607b      	str	r3, [r7, #4]
 800058a:	687b      	ldr	r3, [r7, #4]
  /** Initializes the CPU, AHB and APB busses clocks 
  */
  RCC_OscInitStruct.OscillatorType = RCC_OSCILLATORTYPE_HSE;
 800058c:	2301      	movs	r3, #1
 800058e:	623b      	str	r3, [r7, #32]
  RCC_OscInitStruct.HSEState = RCC_HSE_ON;
 8000590:	f44f 3380 	mov.w	r3, #65536	; 0x10000
 8000594:	627b      	str	r3, [r7, #36]	; 0x24
  RCC_OscInitStruct.PLL.PLLState = RCC_PLL_ON;
 8000596:	2302      	movs	r3, #2
 8000598:	63bb      	str	r3, [r7, #56]	; 0x38
  RCC_OscInitStruct.PLL.PLLSource = RCC_PLLSOURCE_HSE;
 800059a:	f44f 0380 	mov.w	r3, #4194304	; 0x400000
 800059e:	63fb      	str	r3, [r7, #60]	; 0x3c
  RCC_OscInitStruct.PLL.PLLM = 8;
 80005a0:	2308      	movs	r3, #8
 80005a2:	643b      	str	r3, [r7, #64]	; 0x40
  RCC_OscInitStruct.PLL.PLLN = 100;
 80005a4:	2364      	movs	r3, #100	; 0x64
 80005a6:	647b      	str	r3, [r7, #68]	; 0x44
  RCC_OscInitStruct.PLL.PLLP = RCC_PLLP_DIV2;
 80005a8:	2302      	movs	r3, #2
 80005aa:	64bb      	str	r3, [r7, #72]	; 0x48
  RCC_OscInitStruct.PLL.PLLQ = 7;
 80005ac:	2307      	movs	r3, #7
 80005ae:	64fb      	str	r3, [r7, #76]	; 0x4c
  if (HAL_RCC_OscConfig(&RCC_OscInitStruct) != HAL_OK)
 80005b0:	f107 0320 	add.w	r3, r7, #32
 80005b4:	4618      	mov	r0, r3
 80005b6:	f000 fe81 	bl	80012bc <HAL_RCC_OscConfig>
 80005ba:	4603      	mov	r3, r0
 80005bc:	2b00      	cmp	r3, #0
 80005be:	d001      	beq.n	80005c4 <SystemClock_Config+0x94>
  {
    Error_Handler();
 80005c0:	f000 f94c 	bl	800085c <Error_Handler>
  }
  /** Initializes the CPU, AHB and APB busses clocks 
  */
  RCC_ClkInitStruct.ClockType = RCC_CLOCKTYPE_HCLK|RCC_CLOCKTYPE_SYSCLK
 80005c4:	230f      	movs	r3, #15
 80005c6:	60fb      	str	r3, [r7, #12]
                              |RCC_CLOCKTYPE_PCLK1|RCC_CLOCKTYPE_PCLK2;
  RCC_ClkInitStruct.SYSCLKSource = RCC_SYSCLKSOURCE_PLLCLK;
 80005c8:	2302      	movs	r3, #2
 80005ca:	613b      	str	r3, [r7, #16]
  RCC_ClkInitStruct.AHBCLKDivider = RCC_SYSCLK_DIV1;
 80005cc:	2300      	movs	r3, #0
 80005ce:	617b      	str	r3, [r7, #20]
  RCC_ClkInitStruct.APB1CLKDivider = RCC_HCLK_DIV2;
 80005d0:	f44f 5380 	mov.w	r3, #4096	; 0x1000
 80005d4:	61bb      	str	r3, [r7, #24]
  RCC_ClkInitStruct.APB2CLKDivider = RCC_HCLK_DIV2;
 80005d6:	f44f 5380 	mov.w	r3, #4096	; 0x1000
 80005da:	61fb      	str	r3, [r7, #28]

  if (HAL_RCC_ClockConfig(&RCC_ClkInitStruct, FLASH_LATENCY_1) != HAL_OK)
 80005dc:	f107 030c 	add.w	r3, r7, #12
 80005e0:	2101      	movs	r1, #1
 80005e2:	4618      	mov	r0, r3
 80005e4:	f001 f8da 	bl	800179c <HAL_RCC_ClockConfig>
 80005e8:	4603      	mov	r3, r0
 80005ea:	2b00      	cmp	r3, #0
 80005ec:	d001      	beq.n	80005f2 <SystemClock_Config+0xc2>
  {
    Error_Handler();
 80005ee:	f000 f935 	bl	800085c <Error_Handler>
  }
}
 80005f2:	bf00      	nop
 80005f4:	3750      	adds	r7, #80	; 0x50
 80005f6:	46bd      	mov	sp, r7
 80005f8:	bd80      	pop	{r7, pc}
 80005fa:	bf00      	nop
 80005fc:	40023800 	.word	0x40023800
 8000600:	40007000 	.word	0x40007000

08000604 <MX_TIM2_Init>:
  * @brief TIM2 Initialization Function
  * @param None
  * @retval None
  */
static void MX_TIM2_Init(void)
{
 8000604:	b580      	push	{r7, lr}
 8000606:	b08a      	sub	sp, #40	; 0x28
 8000608:	af00      	add	r7, sp, #0

  /* USER CODE BEGIN TIM2_Init 0 */

  /* USER CODE END TIM2_Init 0 */

  TIM_MasterConfigTypeDef sMasterConfig = {0};
 800060a:	f107 0320 	add.w	r3, r7, #32
 800060e:	2200      	movs	r2, #0
 8000610:	601a      	str	r2, [r3, #0]
 8000612:	605a      	str	r2, [r3, #4]
  TIM_OC_InitTypeDef sConfigOC = {0};
 8000614:	1d3b      	adds	r3, r7, #4
 8000616:	2200      	movs	r2, #0
 8000618:	601a      	str	r2, [r3, #0]
 800061a:	605a      	str	r2, [r3, #4]
 800061c:	609a      	str	r2, [r3, #8]
 800061e:	60da      	str	r2, [r3, #12]
 8000620:	611a      	str	r2, [r3, #16]
 8000622:	615a      	str	r2, [r3, #20]
 8000624:	619a      	str	r2, [r3, #24]

  /* USER CODE BEGIN TIM2_Init 1 */

  /* USER CODE END TIM2_Init 1 */
  htim2.Instance = TIM2;
 8000626:	4b38      	ldr	r3, [pc, #224]	; (8000708 <MX_TIM2_Init+0x104>)
 8000628:	f04f 4280 	mov.w	r2, #1073741824	; 0x40000000
 800062c:	601a      	str	r2, [r3, #0]
  htim2.Init.Prescaler = 1;
 800062e:	4b36      	ldr	r3, [pc, #216]	; (8000708 <MX_TIM2_Init+0x104>)
 8000630:	2201      	movs	r2, #1
 8000632:	605a      	str	r2, [r3, #4]
  htim2.Init.CounterMode = TIM_COUNTERMODE_UP;
 8000634:	4b34      	ldr	r3, [pc, #208]	; (8000708 <MX_TIM2_Init+0x104>)
 8000636:	2200      	movs	r2, #0
 8000638:	609a      	str	r2, [r3, #8]
  htim2.Init.Period = 0xFFFFFFFF;
 800063a:	4b33      	ldr	r3, [pc, #204]	; (8000708 <MX_TIM2_Init+0x104>)
 800063c:	f04f 32ff 	mov.w	r2, #4294967295
 8000640:	60da      	str	r2, [r3, #12]
  htim2.Init.ClockDivision = TIM_CLOCKDIVISION_DIV1;
 8000642:	4b31      	ldr	r3, [pc, #196]	; (8000708 <MX_TIM2_Init+0x104>)
 8000644:	2200      	movs	r2, #0
 8000646:	611a      	str	r2, [r3, #16]
  htim2.Init.AutoReloadPreload = TIM_AUTORELOAD_PRELOAD_DISABLE;
 8000648:	4b2f      	ldr	r3, [pc, #188]	; (8000708 <MX_TIM2_Init+0x104>)
 800064a:	2200      	movs	r2, #0
 800064c:	619a      	str	r2, [r3, #24]
  if (HAL_TIM_OC_Init(&htim2) != HAL_OK)
 800064e:	482e      	ldr	r0, [pc, #184]	; (8000708 <MX_TIM2_Init+0x104>)
 8000650:	f001 fa96 	bl	8001b80 <HAL_TIM_OC_Init>
 8000654:	4603      	mov	r3, r0
 8000656:	2b00      	cmp	r3, #0
 8000658:	d001      	beq.n	800065e <MX_TIM2_Init+0x5a>
  {
    Error_Handler();
 800065a:	f000 f8ff 	bl	800085c <Error_Handler>
  }
  sMasterConfig.MasterOutputTrigger = TIM_TRGO_RESET;
 800065e:	2300      	movs	r3, #0
 8000660:	623b      	str	r3, [r7, #32]
  sMasterConfig.MasterSlaveMode = TIM_MASTERSLAVEMODE_DISABLE;
 8000662:	2300      	movs	r3, #0
 8000664:	627b      	str	r3, [r7, #36]	; 0x24
  if (HAL_TIMEx_MasterConfigSynchronization(&htim2, &sMasterConfig) != HAL_OK)
 8000666:	f107 0320 	add.w	r3, r7, #32
 800066a:	4619      	mov	r1, r3
 800066c:	4826      	ldr	r0, [pc, #152]	; (8000708 <MX_TIM2_Init+0x104>)
 800066e:	f001 ff81 	bl	8002574 <HAL_TIMEx_MasterConfigSynchronization>
 8000672:	4603      	mov	r3, r0
 8000674:	2b00      	cmp	r3, #0
 8000676:	d001      	beq.n	800067c <MX_TIM2_Init+0x78>
  {
    Error_Handler();
 8000678:	f000 f8f0 	bl	800085c <Error_Handler>
  }
  sConfigOC.OCMode = TIM_OCMODE_TOGGLE;
 800067c:	2330      	movs	r3, #48	; 0x30
 800067e:	607b      	str	r3, [r7, #4]
  sConfigOC.Pulse = 25000;
 8000680:	f246 13a8 	movw	r3, #25000	; 0x61a8
 8000684:	60bb      	str	r3, [r7, #8]
  sConfigOC.OCPolarity = TIM_OCPOLARITY_HIGH;
 8000686:	2300      	movs	r3, #0
 8000688:	60fb      	str	r3, [r7, #12]
  sConfigOC.OCFastMode = TIM_OCFAST_DISABLE;
 800068a:	2300      	movs	r3, #0
 800068c:	617b      	str	r3, [r7, #20]
  if (HAL_TIM_OC_ConfigChannel(&htim2, &sConfigOC, TIM_CHANNEL_1) != HAL_OK)
 800068e:	1d3b      	adds	r3, r7, #4
 8000690:	2200      	movs	r2, #0
 8000692:	4619      	mov	r1, r3
 8000694:	481c      	ldr	r0, [pc, #112]	; (8000708 <MX_TIM2_Init+0x104>)
 8000696:	f001 fc2b 	bl	8001ef0 <HAL_TIM_OC_ConfigChannel>
 800069a:	4603      	mov	r3, r0
 800069c:	2b00      	cmp	r3, #0
 800069e:	d001      	beq.n	80006a4 <MX_TIM2_Init+0xa0>
  {
    Error_Handler();
 80006a0:	f000 f8dc 	bl	800085c <Error_Handler>
  }
  sConfigOC.Pulse = 12500;
 80006a4:	f243 03d4 	movw	r3, #12500	; 0x30d4
 80006a8:	60bb      	str	r3, [r7, #8]
  if (HAL_TIM_OC_ConfigChannel(&htim2, &sConfigOC, TIM_CHANNEL_2) != HAL_OK)
 80006aa:	1d3b      	adds	r3, r7, #4
 80006ac:	2204      	movs	r2, #4
 80006ae:	4619      	mov	r1, r3
 80006b0:	4815      	ldr	r0, [pc, #84]	; (8000708 <MX_TIM2_Init+0x104>)
 80006b2:	f001 fc1d 	bl	8001ef0 <HAL_TIM_OC_ConfigChannel>
 80006b6:	4603      	mov	r3, r0
 80006b8:	2b00      	cmp	r3, #0
 80006ba:	d001      	beq.n	80006c0 <MX_TIM2_Init+0xbc>
  {
    Error_Handler();
 80006bc:	f000 f8ce 	bl	800085c <Error_Handler>
  }
  sConfigOC.Pulse = 6250;
 80006c0:	f641 036a 	movw	r3, #6250	; 0x186a
 80006c4:	60bb      	str	r3, [r7, #8]
  if (HAL_TIM_OC_ConfigChannel(&htim2, &sConfigOC, TIM_CHANNEL_3) != HAL_OK)
 80006c6:	1d3b      	adds	r3, r7, #4
 80006c8:	2208      	movs	r2, #8
 80006ca:	4619      	mov	r1, r3
 80006cc:	480e      	ldr	r0, [pc, #56]	; (8000708 <MX_TIM2_Init+0x104>)
 80006ce:	f001 fc0f 	bl	8001ef0 <HAL_TIM_OC_ConfigChannel>
 80006d2:	4603      	mov	r3, r0
 80006d4:	2b00      	cmp	r3, #0
 80006d6:	d001      	beq.n	80006dc <MX_TIM2_Init+0xd8>
  {
    Error_Handler();
 80006d8:	f000 f8c0 	bl	800085c <Error_Handler>
  }
  sConfigOC.Pulse = 3125;
 80006dc:	f640 4335 	movw	r3, #3125	; 0xc35
 80006e0:	60bb      	str	r3, [r7, #8]
  if (HAL_TIM_OC_ConfigChannel(&htim2, &sConfigOC, TIM_CHANNEL_4) != HAL_OK)
 80006e2:	1d3b      	adds	r3, r7, #4
 80006e4:	220c      	movs	r2, #12
 80006e6:	4619      	mov	r1, r3
 80006e8:	4807      	ldr	r0, [pc, #28]	; (8000708 <MX_TIM2_Init+0x104>)
 80006ea:	f001 fc01 	bl	8001ef0 <HAL_TIM_OC_ConfigChannel>
 80006ee:	4603      	mov	r3, r0
 80006f0:	2b00      	cmp	r3, #0
 80006f2:	d001      	beq.n	80006f8 <MX_TIM2_Init+0xf4>
  {
    Error_Handler();
 80006f4:	f000 f8b2 	bl	800085c <Error_Handler>
  }
  /* USER CODE BEGIN TIM2_Init 2 */

  /* USER CODE END TIM2_Init 2 */
  HAL_TIM_MspPostInit(&htim2);
 80006f8:	4803      	ldr	r0, [pc, #12]	; (8000708 <MX_TIM2_Init+0x104>)
 80006fa:	f000 f959 	bl	80009b0 <HAL_TIM_MspPostInit>

}
 80006fe:	bf00      	nop
 8000700:	3728      	adds	r7, #40	; 0x28
 8000702:	46bd      	mov	sp, r7
 8000704:	bd80      	pop	{r7, pc}
 8000706:	bf00      	nop
 8000708:	2000002c 	.word	0x2000002c

0800070c <MX_USART2_UART_Init>:
  * @brief USART2 Initialization Function
  * @param None
  * @retval None
  */
static void MX_USART2_UART_Init(void)
{
 800070c:	b580      	push	{r7, lr}
 800070e:	af00      	add	r7, sp, #0
  /* USER CODE END USART2_Init 0 */

  /* USER CODE BEGIN USART2_Init 1 */

  /* USER CODE END USART2_Init 1 */
  huart2.Instance = USART2;
 8000710:	4b11      	ldr	r3, [pc, #68]	; (8000758 <MX_USART2_UART_Init+0x4c>)
 8000712:	4a12      	ldr	r2, [pc, #72]	; (800075c <MX_USART2_UART_Init+0x50>)
 8000714:	601a      	str	r2, [r3, #0]
  huart2.Init.BaudRate = 115200;
 8000716:	4b10      	ldr	r3, [pc, #64]	; (8000758 <MX_USART2_UART_Init+0x4c>)
 8000718:	f44f 32e1 	mov.w	r2, #115200	; 0x1c200
 800071c:	605a      	str	r2, [r3, #4]
  huart2.Init.WordLength = UART_WORDLENGTH_8B;
 800071e:	4b0e      	ldr	r3, [pc, #56]	; (8000758 <MX_USART2_UART_Init+0x4c>)
 8000720:	2200      	movs	r2, #0
 8000722:	609a      	str	r2, [r3, #8]
  huart2.Init.StopBits = UART_STOPBITS_1;
 8000724:	4b0c      	ldr	r3, [pc, #48]	; (8000758 <MX_USART2_UART_Init+0x4c>)
 8000726:	2200      	movs	r2, #0
 8000728:	60da      	str	r2, [r3, #12]
  huart2.Init.Parity = UART_PARITY_NONE;
 800072a:	4b0b      	ldr	r3, [pc, #44]	; (8000758 <MX_USART2_UART_Init+0x4c>)
 800072c:	2200      	movs	r2, #0
 800072e:	611a      	str	r2, [r3, #16]
  huart2.Init.Mode = UART_MODE_TX_RX;
 8000730:	4b09      	ldr	r3, [pc, #36]	; (8000758 <MX_USART2_UART_Init+0x4c>)
 8000732:	220c      	movs	r2, #12
 8000734:	615a      	str	r2, [r3, #20]
  huart2.Init.HwFlowCtl = UART_HWCONTROL_NONE;
 8000736:	4b08      	ldr	r3, [pc, #32]	; (8000758 <MX_USART2_UART_Init+0x4c>)
 8000738:	2200      	movs	r2, #0
 800073a:	619a      	str	r2, [r3, #24]
  huart2.Init.OverSampling = UART_OVERSAMPLING_16;
 800073c:	4b06      	ldr	r3, [pc, #24]	; (8000758 <MX_USART2_UART_Init+0x4c>)
 800073e:	2200      	movs	r2, #0
 8000740:	61da      	str	r2, [r3, #28]
  if (HAL_UART_Init(&huart2) != HAL_OK)
 8000742:	4805      	ldr	r0, [pc, #20]	; (8000758 <MX_USART2_UART_Init+0x4c>)
 8000744:	f001 ffa6 	bl	8002694 <HAL_UART_Init>
 8000748:	4603      	mov	r3, r0
 800074a:	2b00      	cmp	r3, #0
 800074c:	d001      	beq.n	8000752 <MX_USART2_UART_Init+0x46>
  {
    Error_Handler();
 800074e:	f000 f885 	bl	800085c <Error_Handler>
  }
  /* USER CODE BEGIN USART2_Init 2 */

  /* USER CODE END USART2_Init 2 */

}
 8000752:	bf00      	nop
 8000754:	bd80      	pop	{r7, pc}
 8000756:	bf00      	nop
 8000758:	2000006c 	.word	0x2000006c
 800075c:	40004400 	.word	0x40004400

08000760 <MX_GPIO_Init>:
  * @brief GPIO Initialization Function
  * @param None
  * @retval None
  */
static void MX_GPIO_Init(void)
{
 8000760:	b580      	push	{r7, lr}
 8000762:	b08a      	sub	sp, #40	; 0x28
 8000764:	af00      	add	r7, sp, #0
  GPIO_InitTypeDef GPIO_InitStruct = {0};
 8000766:	f107 0314 	add.w	r3, r7, #20
 800076a:	2200      	movs	r2, #0
 800076c:	601a      	str	r2, [r3, #0]
 800076e:	605a      	str	r2, [r3, #4]
 8000770:	609a      	str	r2, [r3, #8]
 8000772:	60da      	str	r2, [r3, #12]
 8000774:	611a      	str	r2, [r3, #16]

  /* GPIO Ports Clock Enable */
  __HAL_RCC_GPIOH_CLK_ENABLE();
 8000776:	2300      	movs	r3, #0
 8000778:	613b      	str	r3, [r7, #16]
 800077a:	4b33      	ldr	r3, [pc, #204]	; (8000848 <MX_GPIO_Init+0xe8>)
 800077c:	6b1b      	ldr	r3, [r3, #48]	; 0x30
 800077e:	4a32      	ldr	r2, [pc, #200]	; (8000848 <MX_GPIO_Init+0xe8>)
 8000780:	f043 0380 	orr.w	r3, r3, #128	; 0x80
 8000784:	6313      	str	r3, [r2, #48]	; 0x30
 8000786:	4b30      	ldr	r3, [pc, #192]	; (8000848 <MX_GPIO_Init+0xe8>)
 8000788:	6b1b      	ldr	r3, [r3, #48]	; 0x30
 800078a:	f003 0380 	and.w	r3, r3, #128	; 0x80
 800078e:	613b      	str	r3, [r7, #16]
 8000790:	693b      	ldr	r3, [r7, #16]
  __HAL_RCC_GPIOA_CLK_ENABLE();
 8000792:	2300      	movs	r3, #0
 8000794:	60fb      	str	r3, [r7, #12]
 8000796:	4b2c      	ldr	r3, [pc, #176]	; (8000848 <MX_GPIO_Init+0xe8>)
 8000798:	6b1b      	ldr	r3, [r3, #48]	; 0x30
 800079a:	4a2b      	ldr	r2, [pc, #172]	; (8000848 <MX_GPIO_Init+0xe8>)
 800079c:	f043 0301 	orr.w	r3, r3, #1
 80007a0:	6313      	str	r3, [r2, #48]	; 0x30
 80007a2:	4b29      	ldr	r3, [pc, #164]	; (8000848 <MX_GPIO_Init+0xe8>)
 80007a4:	6b1b      	ldr	r3, [r3, #48]	; 0x30
 80007a6:	f003 0301 	and.w	r3, r3, #1
 80007aa:	60fb      	str	r3, [r7, #12]
 80007ac:	68fb      	ldr	r3, [r7, #12]
  __HAL_RCC_GPIOB_CLK_ENABLE();
 80007ae:	2300      	movs	r3, #0
 80007b0:	60bb      	str	r3, [r7, #8]
 80007b2:	4b25      	ldr	r3, [pc, #148]	; (8000848 <MX_GPIO_Init+0xe8>)
 80007b4:	6b1b      	ldr	r3, [r3, #48]	; 0x30
 80007b6:	4a24      	ldr	r2, [pc, #144]	; (8000848 <MX_GPIO_Init+0xe8>)
 80007b8:	f043 0302 	orr.w	r3, r3, #2
 80007bc:	6313      	str	r3, [r2, #48]	; 0x30
 80007be:	4b22      	ldr	r3, [pc, #136]	; (8000848 <MX_GPIO_Init+0xe8>)
 80007c0:	6b1b      	ldr	r3, [r3, #48]	; 0x30
 80007c2:	f003 0302 	and.w	r3, r3, #2
 80007c6:	60bb      	str	r3, [r7, #8]
 80007c8:	68bb      	ldr	r3, [r7, #8]
  __HAL_RCC_GPIOD_CLK_ENABLE();
 80007ca:	2300      	movs	r3, #0
 80007cc:	607b      	str	r3, [r7, #4]
 80007ce:	4b1e      	ldr	r3, [pc, #120]	; (8000848 <MX_GPIO_Init+0xe8>)
 80007d0:	6b1b      	ldr	r3, [r3, #48]	; 0x30
 80007d2:	4a1d      	ldr	r2, [pc, #116]	; (8000848 <MX_GPIO_Init+0xe8>)
 80007d4:	f043 0308 	orr.w	r3, r3, #8
 80007d8:	6313      	str	r3, [r2, #48]	; 0x30
 80007da:	4b1b      	ldr	r3, [pc, #108]	; (8000848 <MX_GPIO_Init+0xe8>)
 80007dc:	6b1b      	ldr	r3, [r3, #48]	; 0x30
 80007de:	f003 0308 	and.w	r3, r3, #8
 80007e2:	607b      	str	r3, [r7, #4]
 80007e4:	687b      	ldr	r3, [r7, #4]

  /*Configure GPIO pin Output Level */
  HAL_GPIO_WritePin(GPIOD, LD4_Pin|LD3_Pin|LD5_Pin|LD6_Pin, GPIO_PIN_RESET);
 80007e6:	2200      	movs	r2, #0
 80007e8:	f44f 4170 	mov.w	r1, #61440	; 0xf000
 80007ec:	4817      	ldr	r0, [pc, #92]	; (800084c <MX_GPIO_Init+0xec>)
 80007ee:	f000 fd4b 	bl	8001288 <HAL_GPIO_WritePin>

  /*Configure GPIO pin : B1_Pin */
  GPIO_InitStruct.Pin = B1_Pin;
 80007f2:	2301      	movs	r3, #1
 80007f4:	617b      	str	r3, [r7, #20]
  GPIO_InitStruct.Mode = GPIO_MODE_EVT_RISING;
 80007f6:	4b16      	ldr	r3, [pc, #88]	; (8000850 <MX_GPIO_Init+0xf0>)
 80007f8:	61bb      	str	r3, [r7, #24]
  GPIO_InitStruct.Pull = GPIO_NOPULL;
 80007fa:	2300      	movs	r3, #0
 80007fc:	61fb      	str	r3, [r7, #28]
  HAL_GPIO_Init(B1_GPIO_Port, &GPIO_InitStruct);
 80007fe:	f107 0314 	add.w	r3, r7, #20
 8000802:	4619      	mov	r1, r3
 8000804:	4813      	ldr	r0, [pc, #76]	; (8000854 <MX_GPIO_Init+0xf4>)
 8000806:	f000 fba5 	bl	8000f54 <HAL_GPIO_Init>

  /*Configure GPIO pin : BOOT1_Pin */
  GPIO_InitStruct.Pin = BOOT1_Pin;
 800080a:	2304      	movs	r3, #4
 800080c:	617b      	str	r3, [r7, #20]
  GPIO_InitStruct.Mode = GPIO_MODE_INPUT;
 800080e:	2300      	movs	r3, #0
 8000810:	61bb      	str	r3, [r7, #24]
  GPIO_InitStruct.Pull = GPIO_NOPULL;
 8000812:	2300      	movs	r3, #0
 8000814:	61fb      	str	r3, [r7, #28]
  HAL_GPIO_Init(BOOT1_GPIO_Port, &GPIO_InitStruct);
 8000816:	f107 0314 	add.w	r3, r7, #20
 800081a:	4619      	mov	r1, r3
 800081c:	480e      	ldr	r0, [pc, #56]	; (8000858 <MX_GPIO_Init+0xf8>)
 800081e:	f000 fb99 	bl	8000f54 <HAL_GPIO_Init>

  /*Configure GPIO pins : LD4_Pin LD3_Pin LD5_Pin LD6_Pin */
  GPIO_InitStruct.Pin = LD4_Pin|LD3_Pin|LD5_Pin|LD6_Pin;
 8000822:	f44f 4370 	mov.w	r3, #61440	; 0xf000
 8000826:	617b      	str	r3, [r7, #20]
  GPIO_InitStruct.Mode = GPIO_MODE_OUTPUT_PP;
 8000828:	2301      	movs	r3, #1
 800082a:	61bb      	str	r3, [r7, #24]
  GPIO_InitStruct.Pull = GPIO_NOPULL;
 800082c:	2300      	movs	r3, #0
 800082e:	61fb      	str	r3, [r7, #28]
  GPIO_InitStruct.Speed = GPIO_SPEED_FREQ_LOW;
 8000830:	2300      	movs	r3, #0
 8000832:	623b      	str	r3, [r7, #32]
  HAL_GPIO_Init(GPIOD, &GPIO_InitStruct);
 8000834:	f107 0314 	add.w	r3, r7, #20
 8000838:	4619      	mov	r1, r3
 800083a:	4804      	ldr	r0, [pc, #16]	; (800084c <MX_GPIO_Init+0xec>)
 800083c:	f000 fb8a 	bl	8000f54 <HAL_GPIO_Init>

}
 8000840:	bf00      	nop
 8000842:	3728      	adds	r7, #40	; 0x28
 8000844:	46bd      	mov	sp, r7
 8000846:	bd80      	pop	{r7, pc}
 8000848:	40023800 	.word	0x40023800
 800084c:	40020c00 	.word	0x40020c00
 8000850:	10120000 	.word	0x10120000
 8000854:	40020000 	.word	0x40020000
 8000858:	40020400 	.word	0x40020400

0800085c <Error_Handler>:
/**
  * @brief  This function is executed in case of error occurrence.
  * @retval None
  */
void Error_Handler(void)
{
 800085c:	b480      	push	{r7}
 800085e:	af00      	add	r7, sp, #0
	while(1);
 8000860:	e7fe      	b.n	8000860 <Error_Handler+0x4>
	...

08000864 <HAL_TIM_OC_DelayElapsedCallback>:

}
uint32_t ccr_content;
 void HAL_TIM_OC_DelayElapsedCallback(TIM_HandleTypeDef *htim)
{
 8000864:	b580      	push	{r7, lr}
 8000866:	b082      	sub	sp, #8
 8000868:	af00      	add	r7, sp, #0
 800086a:	6078      	str	r0, [r7, #4]
	 /*TIM2_CH1 toggling with frequency = 500hz */
	 if (htim->Channel == HAL_TIM_ACTIVE_CHANNEL_1)
 800086c:	687b      	ldr	r3, [r7, #4]
 800086e:	7f1b      	ldrb	r3, [r3, #28]
 8000870:	2b01      	cmp	r3, #1
 8000872:	d10e      	bne.n	8000892 <HAL_TIM_OC_DelayElapsedCallback+0x2e>
	 {
		 ccr_content = HAL_TIM_ReadCapturedValue(&htim2, TIM_CHANNEL_1);
 8000874:	2100      	movs	r1, #0
 8000876:	4825      	ldr	r0, [pc, #148]	; (800090c <HAL_TIM_OC_DelayElapsedCallback+0xa8>)
 8000878:	f001 fb9a 	bl	8001fb0 <HAL_TIM_ReadCapturedValue>
 800087c:	4602      	mov	r2, r0
 800087e:	4b24      	ldr	r3, [pc, #144]	; (8000910 <HAL_TIM_OC_DelayElapsedCallback+0xac>)
 8000880:	601a      	str	r2, [r3, #0]
		 __HAL_TIM_SET_COMPARE(htim,TIM_CHANNEL_1,ccr_content+ 25000);
 8000882:	4b23      	ldr	r3, [pc, #140]	; (8000910 <HAL_TIM_OC_DelayElapsedCallback+0xac>)
 8000884:	681b      	ldr	r3, [r3, #0]
 8000886:	687a      	ldr	r2, [r7, #4]
 8000888:	6812      	ldr	r2, [r2, #0]
 800088a:	f503 43c3 	add.w	r3, r3, #24960	; 0x6180
 800088e:	3328      	adds	r3, #40	; 0x28
 8000890:	6353      	str	r3, [r2, #52]	; 0x34
	 }
	 /*TIM2_CH2 toggling with frequency = 1000hz */
	 if (htim->Channel == HAL_TIM_ACTIVE_CHANNEL_2)
 8000892:	687b      	ldr	r3, [r7, #4]
 8000894:	7f1b      	ldrb	r3, [r3, #28]
 8000896:	2b02      	cmp	r3, #2
 8000898:	d10e      	bne.n	80008b8 <HAL_TIM_OC_DelayElapsedCallback+0x54>
	 {
		 ccr_content = HAL_TIM_ReadCapturedValue(&htim2, TIM_CHANNEL_2);
 800089a:	2104      	movs	r1, #4
 800089c:	481b      	ldr	r0, [pc, #108]	; (800090c <HAL_TIM_OC_DelayElapsedCallback+0xa8>)
 800089e:	f001 fb87 	bl	8001fb0 <HAL_TIM_ReadCapturedValue>
 80008a2:	4602      	mov	r2, r0
 80008a4:	4b1a      	ldr	r3, [pc, #104]	; (8000910 <HAL_TIM_OC_DelayElapsedCallback+0xac>)
 80008a6:	601a      	str	r2, [r3, #0]
		 __HAL_TIM_SET_COMPARE(htim,TIM_CHANNEL_2,ccr_content+ 12500);
 80008a8:	4b19      	ldr	r3, [pc, #100]	; (8000910 <HAL_TIM_OC_DelayElapsedCallback+0xac>)
 80008aa:	681b      	ldr	r3, [r3, #0]
 80008ac:	687a      	ldr	r2, [r7, #4]
 80008ae:	6812      	ldr	r2, [r2, #0]
 80008b0:	f503 5343 	add.w	r3, r3, #12480	; 0x30c0
 80008b4:	3314      	adds	r3, #20
 80008b6:	6393      	str	r3, [r2, #56]	; 0x38
	 }
	 /*TIM2_CH3 toggling with frequency = 2000hz */
	 if (htim->Channel == HAL_TIM_ACTIVE_CHANNEL_3)
 80008b8:	687b      	ldr	r3, [r7, #4]
 80008ba:	7f1b      	ldrb	r3, [r3, #28]
 80008bc:	2b04      	cmp	r3, #4
 80008be:	d10e      	bne.n	80008de <HAL_TIM_OC_DelayElapsedCallback+0x7a>
	 {
		 ccr_content = HAL_TIM_ReadCapturedValue(&htim2, TIM_CHANNEL_3);
 80008c0:	2108      	movs	r1, #8
 80008c2:	4812      	ldr	r0, [pc, #72]	; (800090c <HAL_TIM_OC_DelayElapsedCallback+0xa8>)
 80008c4:	f001 fb74 	bl	8001fb0 <HAL_TIM_ReadCapturedValue>
 80008c8:	4602      	mov	r2, r0
 80008ca:	4b11      	ldr	r3, [pc, #68]	; (8000910 <HAL_TIM_OC_DelayElapsedCallback+0xac>)
 80008cc:	601a      	str	r2, [r3, #0]
		 __HAL_TIM_SET_COMPARE(htim,TIM_CHANNEL_3,ccr_content+ 6250);
 80008ce:	4b10      	ldr	r3, [pc, #64]	; (8000910 <HAL_TIM_OC_DelayElapsedCallback+0xac>)
 80008d0:	681b      	ldr	r3, [r3, #0]
 80008d2:	687a      	ldr	r2, [r7, #4]
 80008d4:	6812      	ldr	r2, [r2, #0]
 80008d6:	f503 53c3 	add.w	r3, r3, #6240	; 0x1860
 80008da:	330a      	adds	r3, #10
 80008dc:	63d3      	str	r3, [r2, #60]	; 0x3c
	 }
	 /*TIM2_CH4 toggling with frequency = 4000hz */
	 if (htim->Channel == HAL_TIM_ACTIVE_CHANNEL_4)
 80008de:	687b      	ldr	r3, [r7, #4]
 80008e0:	7f1b      	ldrb	r3, [r3, #28]
 80008e2:	2b08      	cmp	r3, #8
 80008e4:	d10d      	bne.n	8000902 <HAL_TIM_OC_DelayElapsedCallback+0x9e>
	 {
		 ccr_content = HAL_TIM_ReadCapturedValue(&htim2, TIM_CHANNEL_4);
 80008e6:	210c      	movs	r1, #12
 80008e8:	4808      	ldr	r0, [pc, #32]	; (800090c <HAL_TIM_OC_DelayElapsedCallback+0xa8>)
 80008ea:	f001 fb61 	bl	8001fb0 <HAL_TIM_ReadCapturedValue>
 80008ee:	4602      	mov	r2, r0
 80008f0:	4b07      	ldr	r3, [pc, #28]	; (8000910 <HAL_TIM_OC_DelayElapsedCallback+0xac>)
 80008f2:	601a      	str	r2, [r3, #0]
		 __HAL_TIM_SET_COMPARE(htim,TIM_CHANNEL_4,ccr_content+ 3125);
 80008f4:	4b06      	ldr	r3, [pc, #24]	; (8000910 <HAL_TIM_OC_DelayElapsedCallback+0xac>)
 80008f6:	681a      	ldr	r2, [r3, #0]
 80008f8:	687b      	ldr	r3, [r7, #4]
 80008fa:	681b      	ldr	r3, [r3, #0]
 80008fc:	f602 4235 	addw	r2, r2, #3125	; 0xc35
 8000900:	641a      	str	r2, [r3, #64]	; 0x40
	 }

}
 8000902:	bf00      	nop
 8000904:	3708      	adds	r7, #8
 8000906:	46bd      	mov	sp, r7
 8000908:	bd80      	pop	{r7, pc}
 800090a:	bf00      	nop
 800090c:	2000002c 	.word	0x2000002c
 8000910:	20000028 	.word	0x20000028

08000914 <HAL_MspInit>:
void HAL_TIM_MspPostInit(TIM_HandleTypeDef *htim);
                    /**
  * Initializes the Global MSP.
  */
void HAL_MspInit(void)
{
 8000914:	b580      	push	{r7, lr}
 8000916:	b082      	sub	sp, #8
 8000918:	af00      	add	r7, sp, #0
  /* USER CODE BEGIN MspInit 0 */

  /* USER CODE END MspInit 0 */

  __HAL_RCC_SYSCFG_CLK_ENABLE();
 800091a:	2300      	movs	r3, #0
 800091c:	607b      	str	r3, [r7, #4]
 800091e:	4b10      	ldr	r3, [pc, #64]	; (8000960 <HAL_MspInit+0x4c>)
 8000920:	6c5b      	ldr	r3, [r3, #68]	; 0x44
 8000922:	4a0f      	ldr	r2, [pc, #60]	; (8000960 <HAL_MspInit+0x4c>)
 8000924:	f443 4380 	orr.w	r3, r3, #16384	; 0x4000
 8000928:	6453      	str	r3, [r2, #68]	; 0x44
 800092a:	4b0d      	ldr	r3, [pc, #52]	; (8000960 <HAL_MspInit+0x4c>)
 800092c:	6c5b      	ldr	r3, [r3, #68]	; 0x44
 800092e:	f403 4380 	and.w	r3, r3, #16384	; 0x4000
 8000932:	607b      	str	r3, [r7, #4]
 8000934:	687b      	ldr	r3, [r7, #4]
  __HAL_RCC_PWR_CLK_ENABLE();
 8000936:	2300      	movs	r3, #0
 8000938:	603b      	str	r3, [r7, #0]
 800093a:	4b09      	ldr	r3, [pc, #36]	; (8000960 <HAL_MspInit+0x4c>)
 800093c:	6c1b      	ldr	r3, [r3, #64]	; 0x40
 800093e:	4a08      	ldr	r2, [pc, #32]	; (8000960 <HAL_MspInit+0x4c>)
 8000940:	f043 5380 	orr.w	r3, r3, #268435456	; 0x10000000
 8000944:	6413      	str	r3, [r2, #64]	; 0x40
 8000946:	4b06      	ldr	r3, [pc, #24]	; (8000960 <HAL_MspInit+0x4c>)
 8000948:	6c1b      	ldr	r3, [r3, #64]	; 0x40
 800094a:	f003 5380 	and.w	r3, r3, #268435456	; 0x10000000
 800094e:	603b      	str	r3, [r7, #0]
 8000950:	683b      	ldr	r3, [r7, #0]

  HAL_NVIC_SetPriorityGrouping(NVIC_PRIORITYGROUP_0);
 8000952:	2007      	movs	r0, #7
 8000954:	f000 fa9a 	bl	8000e8c <HAL_NVIC_SetPriorityGrouping>
  /* System interrupt init*/

  /* USER CODE BEGIN MspInit 1 */

  /* USER CODE END MspInit 1 */
}
 8000958:	bf00      	nop
 800095a:	3708      	adds	r7, #8
 800095c:	46bd      	mov	sp, r7
 800095e:	bd80      	pop	{r7, pc}
 8000960:	40023800 	.word	0x40023800

08000964 <HAL_TIM_OC_MspInit>:
* This function configures the hardware resources used in this example
* @param htim_oc: TIM_OC handle pointer
* @retval None
*/
void HAL_TIM_OC_MspInit(TIM_HandleTypeDef* htim_oc)
{
 8000964:	b580      	push	{r7, lr}
 8000966:	b084      	sub	sp, #16
 8000968:	af00      	add	r7, sp, #0
 800096a:	6078      	str	r0, [r7, #4]
  if(htim_oc->Instance==TIM2)
 800096c:	687b      	ldr	r3, [r7, #4]
 800096e:	681b      	ldr	r3, [r3, #0]
 8000970:	f1b3 4f80 	cmp.w	r3, #1073741824	; 0x40000000
 8000974:	d115      	bne.n	80009a2 <HAL_TIM_OC_MspInit+0x3e>
  {
  /* USER CODE BEGIN TIM2_MspInit 0 */

  /* USER CODE END TIM2_MspInit 0 */
    /* Peripheral clock enable */
    __HAL_RCC_TIM2_CLK_ENABLE();
 8000976:	2300      	movs	r3, #0
 8000978:	60fb      	str	r3, [r7, #12]
 800097a:	4b0c      	ldr	r3, [pc, #48]	; (80009ac <HAL_TIM_OC_MspInit+0x48>)
 800097c:	6c1b      	ldr	r3, [r3, #64]	; 0x40
 800097e:	4a0b      	ldr	r2, [pc, #44]	; (80009ac <HAL_TIM_OC_MspInit+0x48>)
 8000980:	f043 0301 	orr.w	r3, r3, #1
 8000984:	6413      	str	r3, [r2, #64]	; 0x40
 8000986:	4b09      	ldr	r3, [pc, #36]	; (80009ac <HAL_TIM_OC_MspInit+0x48>)
 8000988:	6c1b      	ldr	r3, [r3, #64]	; 0x40
 800098a:	f003 0301 	and.w	r3, r3, #1
 800098e:	60fb      	str	r3, [r7, #12]
 8000990:	68fb      	ldr	r3, [r7, #12]
    /* TIM2 interrupt Init */
    HAL_NVIC_SetPriority(TIM2_IRQn, 0, 0);
 8000992:	2200      	movs	r2, #0
 8000994:	2100      	movs	r1, #0
 8000996:	201c      	movs	r0, #28
 8000998:	f000 fa83 	bl	8000ea2 <HAL_NVIC_SetPriority>
    HAL_NVIC_EnableIRQ(TIM2_IRQn);
 800099c:	201c      	movs	r0, #28
 800099e:	f000 fa9c 	bl	8000eda <HAL_NVIC_EnableIRQ>
  /* USER CODE BEGIN TIM2_MspInit 1 */

  /* USER CODE END TIM2_MspInit 1 */
  }

}
 80009a2:	bf00      	nop
 80009a4:	3710      	adds	r7, #16
 80009a6:	46bd      	mov	sp, r7
 80009a8:	bd80      	pop	{r7, pc}
 80009aa:	bf00      	nop
 80009ac:	40023800 	.word	0x40023800

080009b0 <HAL_TIM_MspPostInit>:

void HAL_TIM_MspPostInit(TIM_HandleTypeDef* htim)
{
 80009b0:	b580      	push	{r7, lr}
 80009b2:	b08a      	sub	sp, #40	; 0x28
 80009b4:	af00      	add	r7, sp, #0
 80009b6:	6078      	str	r0, [r7, #4]
  GPIO_InitTypeDef GPIO_InitStruct = {0};
 80009b8:	f107 0314 	add.w	r3, r7, #20
 80009bc:	2200      	movs	r2, #0
 80009be:	601a      	str	r2, [r3, #0]
 80009c0:	605a      	str	r2, [r3, #4]
 80009c2:	609a      	str	r2, [r3, #8]
 80009c4:	60da      	str	r2, [r3, #12]
 80009c6:	611a      	str	r2, [r3, #16]
  if(htim->Instance==TIM2)
 80009c8:	687b      	ldr	r3, [r7, #4]
 80009ca:	681b      	ldr	r3, [r3, #0]
 80009cc:	f1b3 4f80 	cmp.w	r3, #1073741824	; 0x40000000
 80009d0:	d13d      	bne.n	8000a4e <HAL_TIM_MspPostInit+0x9e>
  {
  /* USER CODE BEGIN TIM2_MspPostInit 0 */

  /* USER CODE END TIM2_MspPostInit 0 */
  
    __HAL_RCC_GPIOA_CLK_ENABLE();
 80009d2:	2300      	movs	r3, #0
 80009d4:	613b      	str	r3, [r7, #16]
 80009d6:	4b20      	ldr	r3, [pc, #128]	; (8000a58 <HAL_TIM_MspPostInit+0xa8>)
 80009d8:	6b1b      	ldr	r3, [r3, #48]	; 0x30
 80009da:	4a1f      	ldr	r2, [pc, #124]	; (8000a58 <HAL_TIM_MspPostInit+0xa8>)
 80009dc:	f043 0301 	orr.w	r3, r3, #1
 80009e0:	6313      	str	r3, [r2, #48]	; 0x30
 80009e2:	4b1d      	ldr	r3, [pc, #116]	; (8000a58 <HAL_TIM_MspPostInit+0xa8>)
 80009e4:	6b1b      	ldr	r3, [r3, #48]	; 0x30
 80009e6:	f003 0301 	and.w	r3, r3, #1
 80009ea:	613b      	str	r3, [r7, #16]
 80009ec:	693b      	ldr	r3, [r7, #16]
    __HAL_RCC_GPIOB_CLK_ENABLE();
 80009ee:	2300      	movs	r3, #0
 80009f0:	60fb      	str	r3, [r7, #12]
 80009f2:	4b19      	ldr	r3, [pc, #100]	; (8000a58 <HAL_TIM_MspPostInit+0xa8>)
 80009f4:	6b1b      	ldr	r3, [r3, #48]	; 0x30
 80009f6:	4a18      	ldr	r2, [pc, #96]	; (8000a58 <HAL_TIM_MspPostInit+0xa8>)
 80009f8:	f043 0302 	orr.w	r3, r3, #2
 80009fc:	6313      	str	r3, [r2, #48]	; 0x30
 80009fe:	4b16      	ldr	r3, [pc, #88]	; (8000a58 <HAL_TIM_MspPostInit+0xa8>)
 8000a00:	6b1b      	ldr	r3, [r3, #48]	; 0x30
 8000a02:	f003 0302 	and.w	r3, r3, #2
 8000a06:	60fb      	str	r3, [r7, #12]
 8000a08:	68fb      	ldr	r3, [r7, #12]
    PA1     ------> TIM2_CH2
    PB10     ------> TIM2_CH3
    PB11     ------> TIM2_CH4
    PA15     ------> TIM2_CH1 
    */
    GPIO_InitStruct.Pin = GPIO_PIN_1|GPIO_PIN_15;
 8000a0a:	f248 0302 	movw	r3, #32770	; 0x8002
 8000a0e:	617b      	str	r3, [r7, #20]
    GPIO_InitStruct.Mode = GPIO_MODE_AF_PP;
 8000a10:	2302      	movs	r3, #2
 8000a12:	61bb      	str	r3, [r7, #24]
    GPIO_InitStruct.Pull = GPIO_NOPULL;
 8000a14:	2300      	movs	r3, #0
 8000a16:	61fb      	str	r3, [r7, #28]
    GPIO_InitStruct.Speed = GPIO_SPEED_FREQ_LOW;
 8000a18:	2300      	movs	r3, #0
 8000a1a:	623b      	str	r3, [r7, #32]
    GPIO_InitStruct.Alternate = GPIO_AF1_TIM2;
 8000a1c:	2301      	movs	r3, #1
 8000a1e:	627b      	str	r3, [r7, #36]	; 0x24
    HAL_GPIO_Init(GPIOA, &GPIO_InitStruct);
 8000a20:	f107 0314 	add.w	r3, r7, #20
 8000a24:	4619      	mov	r1, r3
 8000a26:	480d      	ldr	r0, [pc, #52]	; (8000a5c <HAL_TIM_MspPostInit+0xac>)
 8000a28:	f000 fa94 	bl	8000f54 <HAL_GPIO_Init>

    GPIO_InitStruct.Pin = GPIO_PIN_10|GPIO_PIN_11;
 8000a2c:	f44f 6340 	mov.w	r3, #3072	; 0xc00
 8000a30:	617b      	str	r3, [r7, #20]
    GPIO_InitStruct.Mode = GPIO_MODE_AF_PP;
 8000a32:	2302      	movs	r3, #2
 8000a34:	61bb      	str	r3, [r7, #24]
    GPIO_InitStruct.Pull = GPIO_NOPULL;
 8000a36:	2300      	movs	r3, #0
 8000a38:	61fb      	str	r3, [r7, #28]
    GPIO_InitStruct.Speed = GPIO_SPEED_FREQ_LOW;
 8000a3a:	2300      	movs	r3, #0
 8000a3c:	623b      	str	r3, [r7, #32]
    GPIO_InitStruct.Alternate = GPIO_AF1_TIM2;
 8000a3e:	2301      	movs	r3, #1
 8000a40:	627b      	str	r3, [r7, #36]	; 0x24
    HAL_GPIO_Init(GPIOB, &GPIO_InitStruct);
 8000a42:	f107 0314 	add.w	r3, r7, #20
 8000a46:	4619      	mov	r1, r3
 8000a48:	4805      	ldr	r0, [pc, #20]	; (8000a60 <HAL_TIM_MspPostInit+0xb0>)
 8000a4a:	f000 fa83 	bl	8000f54 <HAL_GPIO_Init>
  /* USER CODE BEGIN TIM2_MspPostInit 1 */

  /* USER CODE END TIM2_MspPostInit 1 */
  }

}
 8000a4e:	bf00      	nop
 8000a50:	3728      	adds	r7, #40	; 0x28
 8000a52:	46bd      	mov	sp, r7
 8000a54:	bd80      	pop	{r7, pc}
 8000a56:	bf00      	nop
 8000a58:	40023800 	.word	0x40023800
 8000a5c:	40020000 	.word	0x40020000
 8000a60:	40020400 	.word	0x40020400

08000a64 <HAL_UART_MspInit>:
* This function configures the hardware resources used in this example
* @param huart: UART handle pointer
* @retval None
*/
void HAL_UART_MspInit(UART_HandleTypeDef* huart)
{
 8000a64:	b580      	push	{r7, lr}
 8000a66:	b08a      	sub	sp, #40	; 0x28
 8000a68:	af00      	add	r7, sp, #0
 8000a6a:	6078      	str	r0, [r7, #4]
  GPIO_InitTypeDef GPIO_InitStruct = {0};
 8000a6c:	f107 0314 	add.w	r3, r7, #20
 8000a70:	2200      	movs	r2, #0
 8000a72:	601a      	str	r2, [r3, #0]
 8000a74:	605a      	str	r2, [r3, #4]
 8000a76:	609a      	str	r2, [r3, #8]
 8000a78:	60da      	str	r2, [r3, #12]
 8000a7a:	611a      	str	r2, [r3, #16]
  if(huart->Instance==USART2)
 8000a7c:	687b      	ldr	r3, [r7, #4]
 8000a7e:	681b      	ldr	r3, [r3, #0]
 8000a80:	4a1d      	ldr	r2, [pc, #116]	; (8000af8 <HAL_UART_MspInit+0x94>)
 8000a82:	4293      	cmp	r3, r2
 8000a84:	d133      	bne.n	8000aee <HAL_UART_MspInit+0x8a>
  {
  /* USER CODE BEGIN USART2_MspInit 0 */

  /* USER CODE END USART2_MspInit 0 */
    /* Peripheral clock enable */
    __HAL_RCC_USART2_CLK_ENABLE();
 8000a86:	2300      	movs	r3, #0
 8000a88:	613b      	str	r3, [r7, #16]
 8000a8a:	4b1c      	ldr	r3, [pc, #112]	; (8000afc <HAL_UART_MspInit+0x98>)
 8000a8c:	6c1b      	ldr	r3, [r3, #64]	; 0x40
 8000a8e:	4a1b      	ldr	r2, [pc, #108]	; (8000afc <HAL_UART_MspInit+0x98>)
 8000a90:	f443 3300 	orr.w	r3, r3, #131072	; 0x20000
 8000a94:	6413      	str	r3, [r2, #64]	; 0x40
 8000a96:	4b19      	ldr	r3, [pc, #100]	; (8000afc <HAL_UART_MspInit+0x98>)
 8000a98:	6c1b      	ldr	r3, [r3, #64]	; 0x40
 8000a9a:	f403 3300 	and.w	r3, r3, #131072	; 0x20000
 8000a9e:	613b      	str	r3, [r7, #16]
 8000aa0:	693b      	ldr	r3, [r7, #16]
  
    __HAL_RCC_GPIOA_CLK_ENABLE();
 8000aa2:	2300      	movs	r3, #0
 8000aa4:	60fb      	str	r3, [r7, #12]
 8000aa6:	4b15      	ldr	r3, [pc, #84]	; (8000afc <HAL_UART_MspInit+0x98>)
 8000aa8:	6b1b      	ldr	r3, [r3, #48]	; 0x30
 8000aaa:	4a14      	ldr	r2, [pc, #80]	; (8000afc <HAL_UART_MspInit+0x98>)
 8000aac:	f043 0301 	orr.w	r3, r3, #1
 8000ab0:	6313      	str	r3, [r2, #48]	; 0x30
 8000ab2:	4b12      	ldr	r3, [pc, #72]	; (8000afc <HAL_UART_MspInit+0x98>)
 8000ab4:	6b1b      	ldr	r3, [r3, #48]	; 0x30
 8000ab6:	f003 0301 	and.w	r3, r3, #1
 8000aba:	60fb      	str	r3, [r7, #12]
 8000abc:	68fb      	ldr	r3, [r7, #12]
    /**USART2 GPIO Configuration    
    PA2     ------> USART2_TX
    PA3     ------> USART2_RX 
    */
    GPIO_InitStruct.Pin = GPIO_PIN_2|GPIO_PIN_3;
 8000abe:	230c      	movs	r3, #12
 8000ac0:	617b      	str	r3, [r7, #20]
    GPIO_InitStruct.Mode = GPIO_MODE_AF_PP;
 8000ac2:	2302      	movs	r3, #2
 8000ac4:	61bb      	str	r3, [r7, #24]
    GPIO_InitStruct.Pull = GPIO_NOPULL;
 8000ac6:	2300      	movs	r3, #0
 8000ac8:	61fb      	str	r3, [r7, #28]
    GPIO_InitStruct.Speed = GPIO_SPEED_FREQ_VERY_HIGH;
 8000aca:	2303      	movs	r3, #3
 8000acc:	623b      	str	r3, [r7, #32]
    GPIO_InitStruct.Alternate = GPIO_AF7_USART2;
 8000ace:	2307      	movs	r3, #7
 8000ad0:	627b      	str	r3, [r7, #36]	; 0x24
    HAL_GPIO_Init(GPIOA, &GPIO_InitStruct);
 8000ad2:	f107 0314 	add.w	r3, r7, #20
 8000ad6:	4619      	mov	r1, r3
 8000ad8:	4809      	ldr	r0, [pc, #36]	; (8000b00 <HAL_UART_MspInit+0x9c>)
 8000ada:	f000 fa3b 	bl	8000f54 <HAL_GPIO_Init>

    /* USART2 interrupt Init */
    HAL_NVIC_SetPriority(USART2_IRQn, 0, 0);
 8000ade:	2200      	movs	r2, #0
 8000ae0:	2100      	movs	r1, #0
 8000ae2:	2026      	movs	r0, #38	; 0x26
 8000ae4:	f000 f9dd 	bl	8000ea2 <HAL_NVIC_SetPriority>
    HAL_NVIC_EnableIRQ(USART2_IRQn);
 8000ae8:	2026      	movs	r0, #38	; 0x26
 8000aea:	f000 f9f6 	bl	8000eda <HAL_NVIC_EnableIRQ>
  /* USER CODE BEGIN USART2_MspInit 1 */

  /* USER CODE END USART2_MspInit 1 */
  }

}
 8000aee:	bf00      	nop
 8000af0:	3728      	adds	r7, #40	; 0x28
 8000af2:	46bd      	mov	sp, r7
 8000af4:	bd80      	pop	{r7, pc}
 8000af6:	bf00      	nop
 8000af8:	40004400 	.word	0x40004400
 8000afc:	40023800 	.word	0x40023800
 8000b00:	40020000 	.word	0x40020000

08000b04 <NMI_Handler>:
/******************************************************************************/
/**
  * @brief This function handles Non maskable interrupt.
  */
void NMI_Handler(void)
{
 8000b04:	b480      	push	{r7}
 8000b06:	af00      	add	r7, sp, #0

  /* USER CODE END NonMaskableInt_IRQn 0 */
  /* USER CODE BEGIN NonMaskableInt_IRQn 1 */

  /* USER CODE END NonMaskableInt_IRQn 1 */
}
 8000b08:	bf00      	nop
 8000b0a:	46bd      	mov	sp, r7
 8000b0c:	f85d 7b04 	ldr.w	r7, [sp], #4
 8000b10:	4770      	bx	lr

08000b12 <HardFault_Handler>:

/**
  * @brief This function handles Hard fault interrupt.
  */
void HardFault_Handler(void)
{
 8000b12:	b480      	push	{r7}
 8000b14:	af00      	add	r7, sp, #0
  /* USER CODE BEGIN HardFault_IRQn 0 */

  /* USER CODE END HardFault_IRQn 0 */
  while (1)
 8000b16:	e7fe      	b.n	8000b16 <HardFault_Handler+0x4>

08000b18 <MemManage_Handler>:

/**
  * @brief This function handles Memory management fault.
  */
void MemManage_Handler(void)
{
 8000b18:	b480      	push	{r7}
 8000b1a:	af00      	add	r7, sp, #0
  /* USER CODE BEGIN MemoryManagement_IRQn 0 */

  /* USER CODE END MemoryManagement_IRQn 0 */
  while (1)
 8000b1c:	e7fe      	b.n	8000b1c <MemManage_Handler+0x4>

08000b1e <BusFault_Handler>:

/**
  * @brief This function handles Pre-fetch fault, memory access fault.
  */
void BusFault_Handler(void)
{
 8000b1e:	b480      	push	{r7}
 8000b20:	af00      	add	r7, sp, #0
  /* USER CODE BEGIN BusFault_IRQn 0 */

  /* USER CODE END BusFault_IRQn 0 */
  while (1)
 8000b22:	e7fe      	b.n	8000b22 <BusFault_Handler+0x4>

08000b24 <UsageFault_Handler>:

/**
  * @brief This function handles Undefined instruction or illegal state.
  */
void UsageFault_Handler(void)
{
 8000b24:	b480      	push	{r7}
 8000b26:	af00      	add	r7, sp, #0
  /* USER CODE BEGIN UsageFault_IRQn 0 */

  /* USER CODE END UsageFault_IRQn 0 */
  while (1)
 8000b28:	e7fe      	b.n	8000b28 <UsageFault_Handler+0x4>

08000b2a <SVC_Handler>:

/**
  * @brief This function handles System service call via SWI instruction.
  */
void SVC_Handler(void)
{
 8000b2a:	b480      	push	{r7}
 8000b2c:	af00      	add	r7, sp, #0

  /* USER CODE END SVCall_IRQn 0 */
  /* USER CODE BEGIN SVCall_IRQn 1 */

  /* USER CODE END SVCall_IRQn 1 */
}
 8000b2e:	bf00      	nop
 8000b30:	46bd      	mov	sp, r7
 8000b32:	f85d 7b04 	ldr.w	r7, [sp], #4
 8000b36:	4770      	bx	lr

08000b38 <DebugMon_Handler>:

/**
  * @brief This function handles Debug monitor.
  */
void DebugMon_Handler(void)
{
 8000b38:	b480      	push	{r7}
 8000b3a:	af00      	add	r7, sp, #0

  /* USER CODE END DebugMonitor_IRQn 0 */
  /* USER CODE BEGIN DebugMonitor_IRQn 1 */

  /* USER CODE END DebugMonitor_IRQn 1 */
}
 8000b3c:	bf00      	nop
 8000b3e:	46bd      	mov	sp, r7
 8000b40:	f85d 7b04 	ldr.w	r7, [sp], #4
 8000b44:	4770      	bx	lr

08000b46 <PendSV_Handler>:

/**
  * @brief This function handles Pendable request for system service.
  */
void PendSV_Handler(void)
{
 8000b46:	b480      	push	{r7}
 8000b48:	af00      	add	r7, sp, #0

  /* USER CODE END PendSV_IRQn 0 */
  /* USER CODE BEGIN PendSV_IRQn 1 */

  /* USER CODE END PendSV_IRQn 1 */
}
 8000b4a:	bf00      	nop
 8000b4c:	46bd      	mov	sp, r7
 8000b4e:	f85d 7b04 	ldr.w	r7, [sp], #4
 8000b52:	4770      	bx	lr

08000b54 <SysTick_Handler>:

/**
  * @brief This function handles System tick timer.
  */
void SysTick_Handler(void)
{
 8000b54:	b580      	push	{r7, lr}
 8000b56:	af00      	add	r7, sp, #0
  /* USER CODE BEGIN SysTick_IRQn 0 */

  /* USER CODE END SysTick_IRQn 0 */
  HAL_IncTick();
 8000b58:	f000 f8a8 	bl	8000cac <HAL_IncTick>
  /* USER CODE BEGIN SysTick_IRQn 1 */

  /* USER CODE END SysTick_IRQn 1 */
}
 8000b5c:	bf00      	nop
 8000b5e:	bd80      	pop	{r7, pc}

08000b60 <TIM2_IRQHandler>:

/**
  * @brief This function handles TIM2 global interrupt.
  */
void TIM2_IRQHandler(void)
{
 8000b60:	b580      	push	{r7, lr}
 8000b62:	af00      	add	r7, sp, #0
  /* USER CODE BEGIN TIM2_IRQn 0 */

  /* USER CODE END TIM2_IRQn 0 */
  HAL_TIM_IRQHandler(&htim2);
 8000b64:	4802      	ldr	r0, [pc, #8]	; (8000b70 <TIM2_IRQHandler+0x10>)
 8000b66:	f001 f8bb 	bl	8001ce0 <HAL_TIM_IRQHandler>
  /* USER CODE BEGIN TIM2_IRQn 1 */

  /* USER CODE END TIM2_IRQn 1 */
}
 8000b6a:	bf00      	nop
 8000b6c:	bd80      	pop	{r7, pc}
 8000b6e:	bf00      	nop
 8000b70:	2000002c 	.word	0x2000002c

08000b74 <USART2_IRQHandler>:

/**
  * @brief This function handles USART2 global interrupt.
  */
void USART2_IRQHandler(void)
{
 8000b74:	b580      	push	{r7, lr}
 8000b76:	af00      	add	r7, sp, #0
  /* USER CODE BEGIN USART2_IRQn 0 */

  /* USER CODE END USART2_IRQn 0 */
  HAL_UART_IRQHandler(&huart2);
 8000b78:	4802      	ldr	r0, [pc, #8]	; (8000b84 <USART2_IRQHandler+0x10>)
 8000b7a:	f001 fdd9 	bl	8002730 <HAL_UART_IRQHandler>
  /* USER CODE BEGIN USART2_IRQn 1 */

  /* USER CODE END USART2_IRQn 1 */
}
 8000b7e:	bf00      	nop
 8000b80:	bd80      	pop	{r7, pc}
 8000b82:	bf00      	nop
 8000b84:	2000006c 	.word	0x2000006c

08000b88 <SystemInit>:
  *         configuration.
  * @param  None
  * @retval None
  */
void SystemInit(void)
{
 8000b88:	b480      	push	{r7}
 8000b8a:	af00      	add	r7, sp, #0
  /* FPU settings ------------------------------------------------------------*/
  #if (__FPU_PRESENT == 1) && (__FPU_USED == 1)
    SCB->CPACR |= ((3UL << 10*2)|(3UL << 11*2));  /* set CP10 and CP11 Full Access */
 8000b8c:	4b08      	ldr	r3, [pc, #32]	; (8000bb0 <SystemInit+0x28>)
 8000b8e:	f8d3 3088 	ldr.w	r3, [r3, #136]	; 0x88
 8000b92:	4a07      	ldr	r2, [pc, #28]	; (8000bb0 <SystemInit+0x28>)
 8000b94:	f443 0370 	orr.w	r3, r3, #15728640	; 0xf00000
 8000b98:	f8c2 3088 	str.w	r3, [r2, #136]	; 0x88

  /* Configure the Vector Table location add offset address ------------------*/
#ifdef VECT_TAB_SRAM
  SCB->VTOR = SRAM_BASE | VECT_TAB_OFFSET; /* Vector Table Relocation in Internal SRAM */
#else
  SCB->VTOR = FLASH_BASE | VECT_TAB_OFFSET; /* Vector Table Relocation in Internal FLASH */
 8000b9c:	4b04      	ldr	r3, [pc, #16]	; (8000bb0 <SystemInit+0x28>)
 8000b9e:	f04f 6200 	mov.w	r2, #134217728	; 0x8000000
 8000ba2:	609a      	str	r2, [r3, #8]
#endif
}
 8000ba4:	bf00      	nop
 8000ba6:	46bd      	mov	sp, r7
 8000ba8:	f85d 7b04 	ldr.w	r7, [sp], #4
 8000bac:	4770      	bx	lr
 8000bae:	bf00      	nop
 8000bb0:	e000ed00 	.word	0xe000ed00

08000bb4 <Reset_Handler>:

    .section  .text.Reset_Handler
  .weak  Reset_Handler
  .type  Reset_Handler, %function
Reset_Handler:  
  ldr   sp, =_estack     /* set stack pointer */
 8000bb4:	f8df d034 	ldr.w	sp, [pc, #52]	; 8000bec <LoopFillZerobss+0x14>

/* Copy the data segment initializers from flash to SRAM */  
  movs  r1, #0
 8000bb8:	2100      	movs	r1, #0
  b  LoopCopyDataInit
 8000bba:	e003      	b.n	8000bc4 <LoopCopyDataInit>

08000bbc <CopyDataInit>:

CopyDataInit:
  ldr  r3, =_sidata
 8000bbc:	4b0c      	ldr	r3, [pc, #48]	; (8000bf0 <LoopFillZerobss+0x18>)
  ldr  r3, [r3, r1]
 8000bbe:	585b      	ldr	r3, [r3, r1]
  str  r3, [r0, r1]
 8000bc0:	5043      	str	r3, [r0, r1]
  adds  r1, r1, #4
 8000bc2:	3104      	adds	r1, #4

08000bc4 <LoopCopyDataInit>:
    
LoopCopyDataInit:
  ldr  r0, =_sdata
 8000bc4:	480b      	ldr	r0, [pc, #44]	; (8000bf4 <LoopFillZerobss+0x1c>)
  ldr  r3, =_edata
 8000bc6:	4b0c      	ldr	r3, [pc, #48]	; (8000bf8 <LoopFillZerobss+0x20>)
  adds  r2, r0, r1
 8000bc8:	1842      	adds	r2, r0, r1
  cmp  r2, r3
 8000bca:	429a      	cmp	r2, r3
  bcc  CopyDataInit
 8000bcc:	d3f6      	bcc.n	8000bbc <CopyDataInit>
  ldr  r2, =_sbss
 8000bce:	4a0b      	ldr	r2, [pc, #44]	; (8000bfc <LoopFillZerobss+0x24>)
  b  LoopFillZerobss
 8000bd0:	e002      	b.n	8000bd8 <LoopFillZerobss>

08000bd2 <FillZerobss>:
/* Zero fill the bss segment. */  
FillZerobss:
  movs  r3, #0
 8000bd2:	2300      	movs	r3, #0
  str  r3, [r2], #4
 8000bd4:	f842 3b04 	str.w	r3, [r2], #4

08000bd8 <LoopFillZerobss>:
    
LoopFillZerobss:
  ldr  r3, = _ebss
 8000bd8:	4b09      	ldr	r3, [pc, #36]	; (8000c00 <LoopFillZerobss+0x28>)
  cmp  r2, r3
 8000bda:	429a      	cmp	r2, r3
  bcc  FillZerobss
 8000bdc:	d3f9      	bcc.n	8000bd2 <FillZerobss>

/* Call the clock system intitialization function.*/
  bl  SystemInit   
 8000bde:	f7ff ffd3 	bl	8000b88 <SystemInit>
/* Call static constructors */
    bl __libc_init_array
 8000be2:	f002 fb61 	bl	80032a8 <__libc_init_array>
/* Call the application's entry point.*/
  bl  main
 8000be6:	f7ff fc6f 	bl	80004c8 <main>
  bx  lr    
 8000bea:	4770      	bx	lr
  ldr   sp, =_estack     /* set stack pointer */
 8000bec:	20020000 	.word	0x20020000
  ldr  r3, =_sidata
 8000bf0:	08003340 	.word	0x08003340
  ldr  r0, =_sdata
 8000bf4:	20000000 	.word	0x20000000
  ldr  r3, =_edata
 8000bf8:	2000000c 	.word	0x2000000c
  ldr  r2, =_sbss
 8000bfc:	2000000c 	.word	0x2000000c
  ldr  r3, = _ebss
 8000c00:	200000b0 	.word	0x200000b0

08000c04 <ADC_IRQHandler>:
 * @retval None       
*/
    .section  .text.Default_Handler,"ax",%progbits
Default_Handler:
Infinite_Loop:
  b  Infinite_Loop
 8000c04:	e7fe      	b.n	8000c04 <ADC_IRQHandler>
	...

08000c08 <HAL_Init>:
  *         need to ensure that the SysTick time base is always set to 1 millisecond
  *         to have correct HAL operation.
  * @retval HAL status
  */
HAL_StatusTypeDef HAL_Init(void)
{
 8000c08:	b580      	push	{r7, lr}
 8000c0a:	af00      	add	r7, sp, #0
  /* Configure Flash prefetch, Instruction cache, Data cache */ 
#if (INSTRUCTION_CACHE_ENABLE != 0U)
  __HAL_FLASH_INSTRUCTION_CACHE_ENABLE();
 8000c0c:	4b0e      	ldr	r3, [pc, #56]	; (8000c48 <HAL_Init+0x40>)
 8000c0e:	681b      	ldr	r3, [r3, #0]
 8000c10:	4a0d      	ldr	r2, [pc, #52]	; (8000c48 <HAL_Init+0x40>)
 8000c12:	f443 7300 	orr.w	r3, r3, #512	; 0x200
 8000c16:	6013      	str	r3, [r2, #0]
#endif /* INSTRUCTION_CACHE_ENABLE */

#if (DATA_CACHE_ENABLE != 0U)
  __HAL_FLASH_DATA_CACHE_ENABLE();
 8000c18:	4b0b      	ldr	r3, [pc, #44]	; (8000c48 <HAL_Init+0x40>)
 8000c1a:	681b      	ldr	r3, [r3, #0]
 8000c1c:	4a0a      	ldr	r2, [pc, #40]	; (8000c48 <HAL_Init+0x40>)
 8000c1e:	f443 6380 	orr.w	r3, r3, #1024	; 0x400
 8000c22:	6013      	str	r3, [r2, #0]
#endif /* DATA_CACHE_ENABLE */

#if (PREFETCH_ENABLE != 0U)
  __HAL_FLASH_PREFETCH_BUFFER_ENABLE();
 8000c24:	4b08      	ldr	r3, [pc, #32]	; (8000c48 <HAL_Init+0x40>)
 8000c26:	681b      	ldr	r3, [r3, #0]
 8000c28:	4a07      	ldr	r2, [pc, #28]	; (8000c48 <HAL_Init+0x40>)
 8000c2a:	f443 7380 	orr.w	r3, r3, #256	; 0x100
 8000c2e:	6013      	str	r3, [r2, #0]
#endif /* PREFETCH_ENABLE */

  /* Set Interrupt Group Priority */
  HAL_NVIC_SetPriorityGrouping(NVIC_PRIORITYGROUP_4);
 8000c30:	2003      	movs	r0, #3
 8000c32:	f000 f92b 	bl	8000e8c <HAL_NVIC_SetPriorityGrouping>

  /* Use systick as time base source and configure 1ms tick (default clock after Reset is HSI) */
  HAL_InitTick(TICK_INT_PRIORITY);
 8000c36:	2000      	movs	r0, #0
 8000c38:	f000 f808 	bl	8000c4c <HAL_InitTick>

  /* Init the low level hardware */
  HAL_MspInit();
 8000c3c:	f7ff fe6a 	bl	8000914 <HAL_MspInit>

  /* Return function status */
  return HAL_OK;
 8000c40:	2300      	movs	r3, #0
}
 8000c42:	4618      	mov	r0, r3
 8000c44:	bd80      	pop	{r7, pc}
 8000c46:	bf00      	nop
 8000c48:	40023c00 	.word	0x40023c00

08000c4c <HAL_InitTick>:
  *       implementation  in user file.
  * @param TickPriority Tick interrupt priority.
  * @retval HAL status
  */
__weak HAL_StatusTypeDef HAL_InitTick(uint32_t TickPriority)
{
 8000c4c:	b580      	push	{r7, lr}
 8000c4e:	b082      	sub	sp, #8
 8000c50:	af00      	add	r7, sp, #0
 8000c52:	6078      	str	r0, [r7, #4]
  /* Configure the SysTick to have interrupt in 1ms time basis*/
  if (HAL_SYSTICK_Config(SystemCoreClock / (1000U / uwTickFreq)) > 0U)
 8000c54:	4b12      	ldr	r3, [pc, #72]	; (8000ca0 <HAL_InitTick+0x54>)
 8000c56:	681a      	ldr	r2, [r3, #0]
 8000c58:	4b12      	ldr	r3, [pc, #72]	; (8000ca4 <HAL_InitTick+0x58>)
 8000c5a:	781b      	ldrb	r3, [r3, #0]
 8000c5c:	4619      	mov	r1, r3
 8000c5e:	f44f 737a 	mov.w	r3, #1000	; 0x3e8
 8000c62:	fbb3 f3f1 	udiv	r3, r3, r1
 8000c66:	fbb2 f3f3 	udiv	r3, r2, r3
 8000c6a:	4618      	mov	r0, r3
 8000c6c:	f000 f943 	bl	8000ef6 <HAL_SYSTICK_Config>
 8000c70:	4603      	mov	r3, r0
 8000c72:	2b00      	cmp	r3, #0
 8000c74:	d001      	beq.n	8000c7a <HAL_InitTick+0x2e>
  {
    return HAL_ERROR;
 8000c76:	2301      	movs	r3, #1
 8000c78:	e00e      	b.n	8000c98 <HAL_InitTick+0x4c>
  }

  /* Configure the SysTick IRQ priority */
  if (TickPriority < (1UL << __NVIC_PRIO_BITS))
 8000c7a:	687b      	ldr	r3, [r7, #4]
 8000c7c:	2b0f      	cmp	r3, #15
 8000c7e:	d80a      	bhi.n	8000c96 <HAL_InitTick+0x4a>
  {
    HAL_NVIC_SetPriority(SysTick_IRQn, TickPriority, 0U);
 8000c80:	2200      	movs	r2, #0
 8000c82:	6879      	ldr	r1, [r7, #4]
 8000c84:	f04f 30ff 	mov.w	r0, #4294967295
 8000c88:	f000 f90b 	bl	8000ea2 <HAL_NVIC_SetPriority>
    uwTickPrio = TickPriority;
 8000c8c:	4a06      	ldr	r2, [pc, #24]	; (8000ca8 <HAL_InitTick+0x5c>)
 8000c8e:	687b      	ldr	r3, [r7, #4]
 8000c90:	6013      	str	r3, [r2, #0]
  {
    return HAL_ERROR;
  }

  /* Return function status */
  return HAL_OK;
 8000c92:	2300      	movs	r3, #0
 8000c94:	e000      	b.n	8000c98 <HAL_InitTick+0x4c>
    return HAL_ERROR;
 8000c96:	2301      	movs	r3, #1
}
 8000c98:	4618      	mov	r0, r3
 8000c9a:	3708      	adds	r7, #8
 8000c9c:	46bd      	mov	sp, r7
 8000c9e:	bd80      	pop	{r7, pc}
 8000ca0:	20000000 	.word	0x20000000
 8000ca4:	20000008 	.word	0x20000008
 8000ca8:	20000004 	.word	0x20000004

08000cac <HAL_IncTick>:
 * @note This function is declared as __weak to be overwritten in case of other 
  *      implementations in user file.
  * @retval None
  */
__weak void HAL_IncTick(void)
{
 8000cac:	b480      	push	{r7}
 8000cae:	af00      	add	r7, sp, #0
  uwTick += uwTickFreq;
 8000cb0:	4b06      	ldr	r3, [pc, #24]	; (8000ccc <HAL_IncTick+0x20>)
 8000cb2:	781b      	ldrb	r3, [r3, #0]
 8000cb4:	461a      	mov	r2, r3
 8000cb6:	4b06      	ldr	r3, [pc, #24]	; (8000cd0 <HAL_IncTick+0x24>)
 8000cb8:	681b      	ldr	r3, [r3, #0]
 8000cba:	4413      	add	r3, r2
 8000cbc:	4a04      	ldr	r2, [pc, #16]	; (8000cd0 <HAL_IncTick+0x24>)
 8000cbe:	6013      	str	r3, [r2, #0]
}
 8000cc0:	bf00      	nop
 8000cc2:	46bd      	mov	sp, r7
 8000cc4:	f85d 7b04 	ldr.w	r7, [sp], #4
 8000cc8:	4770      	bx	lr
 8000cca:	bf00      	nop
 8000ccc:	20000008 	.word	0x20000008
 8000cd0:	200000ac 	.word	0x200000ac

08000cd4 <HAL_GetTick>:
  * @note This function is declared as __weak to be overwritten in case of other 
  *       implementations in user file.
  * @retval tick value
  */
__weak uint32_t HAL_GetTick(void)
{
 8000cd4:	b480      	push	{r7}
 8000cd6:	af00      	add	r7, sp, #0
  return uwTick;
 8000cd8:	4b03      	ldr	r3, [pc, #12]	; (8000ce8 <HAL_GetTick+0x14>)
 8000cda:	681b      	ldr	r3, [r3, #0]
}
 8000cdc:	4618      	mov	r0, r3
 8000cde:	46bd      	mov	sp, r7
 8000ce0:	f85d 7b04 	ldr.w	r7, [sp], #4
 8000ce4:	4770      	bx	lr
 8000ce6:	bf00      	nop
 8000ce8:	200000ac 	.word	0x200000ac

08000cec <__NVIC_SetPriorityGrouping>:
           In case of a conflict between priority grouping and available
           priority bits (__NVIC_PRIO_BITS), the smallest possible priority group is set.
  \param [in]      PriorityGroup  Priority grouping field.
 */
__STATIC_INLINE void __NVIC_SetPriorityGrouping(uint32_t PriorityGroup)
{
 8000cec:	b480      	push	{r7}
 8000cee:	b085      	sub	sp, #20
 8000cf0:	af00      	add	r7, sp, #0
 8000cf2:	6078      	str	r0, [r7, #4]
  uint32_t reg_value;
  uint32_t PriorityGroupTmp = (PriorityGroup & (uint32_t)0x07UL);             /* only values 0..7 are used          */
 8000cf4:	687b      	ldr	r3, [r7, #4]
 8000cf6:	f003 0307 	and.w	r3, r3, #7
 8000cfa:	60fb      	str	r3, [r7, #12]

  reg_value  =  SCB->AIRCR;                                                   /* read old register configuration    */
 8000cfc:	4b0c      	ldr	r3, [pc, #48]	; (8000d30 <__NVIC_SetPriorityGrouping+0x44>)
 8000cfe:	68db      	ldr	r3, [r3, #12]
 8000d00:	60bb      	str	r3, [r7, #8]
  reg_value &= ~((uint32_t)(SCB_AIRCR_VECTKEY_Msk | SCB_AIRCR_PRIGROUP_Msk)); /* clear bits to change               */
 8000d02:	68ba      	ldr	r2, [r7, #8]
 8000d04:	f64f 03ff 	movw	r3, #63743	; 0xf8ff
 8000d08:	4013      	ands	r3, r2
 8000d0a:	60bb      	str	r3, [r7, #8]
  reg_value  =  (reg_value                                   |
                ((uint32_t)0x5FAUL << SCB_AIRCR_VECTKEY_Pos) |
                (PriorityGroupTmp << SCB_AIRCR_PRIGROUP_Pos)  );              /* Insert write key and priority group */
 8000d0c:	68fb      	ldr	r3, [r7, #12]
 8000d0e:	021a      	lsls	r2, r3, #8
                ((uint32_t)0x5FAUL << SCB_AIRCR_VECTKEY_Pos) |
 8000d10:	68bb      	ldr	r3, [r7, #8]
 8000d12:	4313      	orrs	r3, r2
  reg_value  =  (reg_value                                   |
 8000d14:	f043 63bf 	orr.w	r3, r3, #100139008	; 0x5f80000
 8000d18:	f443 3300 	orr.w	r3, r3, #131072	; 0x20000
 8000d1c:	60bb      	str	r3, [r7, #8]
  SCB->AIRCR =  reg_value;
 8000d1e:	4a04      	ldr	r2, [pc, #16]	; (8000d30 <__NVIC_SetPriorityGrouping+0x44>)
 8000d20:	68bb      	ldr	r3, [r7, #8]
 8000d22:	60d3      	str	r3, [r2, #12]
}
 8000d24:	bf00      	nop
 8000d26:	3714      	adds	r7, #20
 8000d28:	46bd      	mov	sp, r7
 8000d2a:	f85d 7b04 	ldr.w	r7, [sp], #4
 8000d2e:	4770      	bx	lr
 8000d30:	e000ed00 	.word	0xe000ed00

08000d34 <__NVIC_GetPriorityGrouping>:
  \brief   Get Priority Grouping
  \details Reads the priority grouping field from the NVIC Interrupt Controller.
  \return                Priority grouping field (SCB->AIRCR [10:8] PRIGROUP field).
 */
__STATIC_INLINE uint32_t __NVIC_GetPriorityGrouping(void)
{
 8000d34:	b480      	push	{r7}
 8000d36:	af00      	add	r7, sp, #0
  return ((uint32_t)((SCB->AIRCR & SCB_AIRCR_PRIGROUP_Msk) >> SCB_AIRCR_PRIGROUP_Pos));
 8000d38:	4b04      	ldr	r3, [pc, #16]	; (8000d4c <__NVIC_GetPriorityGrouping+0x18>)
 8000d3a:	68db      	ldr	r3, [r3, #12]
 8000d3c:	0a1b      	lsrs	r3, r3, #8
 8000d3e:	f003 0307 	and.w	r3, r3, #7
}
 8000d42:	4618      	mov	r0, r3
 8000d44:	46bd      	mov	sp, r7
 8000d46:	f85d 7b04 	ldr.w	r7, [sp], #4
 8000d4a:	4770      	bx	lr
 8000d4c:	e000ed00 	.word	0xe000ed00

08000d50 <__NVIC_EnableIRQ>:
  \details Enables a device specific interrupt in the NVIC interrupt controller.
  \param [in]      IRQn  Device specific interrupt number.
  \note    IRQn must not be negative.
 */
__STATIC_INLINE void __NVIC_EnableIRQ(IRQn_Type IRQn)
{
 8000d50:	b480      	push	{r7}
 8000d52:	b083      	sub	sp, #12
 8000d54:	af00      	add	r7, sp, #0
 8000d56:	4603      	mov	r3, r0
 8000d58:	71fb      	strb	r3, [r7, #7]
  if ((int32_t)(IRQn) >= 0)
 8000d5a:	f997 3007 	ldrsb.w	r3, [r7, #7]
 8000d5e:	2b00      	cmp	r3, #0
 8000d60:	db0b      	blt.n	8000d7a <__NVIC_EnableIRQ+0x2a>
  {
    NVIC->ISER[(((uint32_t)IRQn) >> 5UL)] = (uint32_t)(1UL << (((uint32_t)IRQn) & 0x1FUL));
 8000d62:	79fb      	ldrb	r3, [r7, #7]
 8000d64:	f003 021f 	and.w	r2, r3, #31
 8000d68:	4907      	ldr	r1, [pc, #28]	; (8000d88 <__NVIC_EnableIRQ+0x38>)
 8000d6a:	f997 3007 	ldrsb.w	r3, [r7, #7]
 8000d6e:	095b      	lsrs	r3, r3, #5
 8000d70:	2001      	movs	r0, #1
 8000d72:	fa00 f202 	lsl.w	r2, r0, r2
 8000d76:	f841 2023 	str.w	r2, [r1, r3, lsl #2]
  }
}
 8000d7a:	bf00      	nop
 8000d7c:	370c      	adds	r7, #12
 8000d7e:	46bd      	mov	sp, r7
 8000d80:	f85d 7b04 	ldr.w	r7, [sp], #4
 8000d84:	4770      	bx	lr
 8000d86:	bf00      	nop
 8000d88:	e000e100 	.word	0xe000e100

08000d8c <__NVIC_SetPriority>:
  \param [in]      IRQn  Interrupt number.
  \param [in]  priority  Priority to set.
  \note    The priority cannot be set for every processor exception.
 */
__STATIC_INLINE void __NVIC_SetPriority(IRQn_Type IRQn, uint32_t priority)
{
 8000d8c:	b480      	push	{r7}
 8000d8e:	b083      	sub	sp, #12
 8000d90:	af00      	add	r7, sp, #0
 8000d92:	4603      	mov	r3, r0
 8000d94:	6039      	str	r1, [r7, #0]
 8000d96:	71fb      	strb	r3, [r7, #7]
  if ((int32_t)(IRQn) >= 0)
 8000d98:	f997 3007 	ldrsb.w	r3, [r7, #7]
 8000d9c:	2b00      	cmp	r3, #0
 8000d9e:	db0a      	blt.n	8000db6 <__NVIC_SetPriority+0x2a>
  {
    NVIC->IP[((uint32_t)IRQn)]               = (uint8_t)((priority << (8U - __NVIC_PRIO_BITS)) & (uint32_t)0xFFUL);
 8000da0:	683b      	ldr	r3, [r7, #0]
 8000da2:	b2da      	uxtb	r2, r3
 8000da4:	490c      	ldr	r1, [pc, #48]	; (8000dd8 <__NVIC_SetPriority+0x4c>)
 8000da6:	f997 3007 	ldrsb.w	r3, [r7, #7]
 8000daa:	0112      	lsls	r2, r2, #4
 8000dac:	b2d2      	uxtb	r2, r2
 8000dae:	440b      	add	r3, r1
 8000db0:	f883 2300 	strb.w	r2, [r3, #768]	; 0x300
  }
  else
  {
    SCB->SHP[(((uint32_t)IRQn) & 0xFUL)-4UL] = (uint8_t)((priority << (8U - __NVIC_PRIO_BITS)) & (uint32_t)0xFFUL);
  }
}
 8000db4:	e00a      	b.n	8000dcc <__NVIC_SetPriority+0x40>
    SCB->SHP[(((uint32_t)IRQn) & 0xFUL)-4UL] = (uint8_t)((priority << (8U - __NVIC_PRIO_BITS)) & (uint32_t)0xFFUL);
 8000db6:	683b      	ldr	r3, [r7, #0]
 8000db8:	b2da      	uxtb	r2, r3
 8000dba:	4908      	ldr	r1, [pc, #32]	; (8000ddc <__NVIC_SetPriority+0x50>)
 8000dbc:	79fb      	ldrb	r3, [r7, #7]
 8000dbe:	f003 030f 	and.w	r3, r3, #15
 8000dc2:	3b04      	subs	r3, #4
 8000dc4:	0112      	lsls	r2, r2, #4
 8000dc6:	b2d2      	uxtb	r2, r2
 8000dc8:	440b      	add	r3, r1
 8000dca:	761a      	strb	r2, [r3, #24]
}
 8000dcc:	bf00      	nop
 8000dce:	370c      	adds	r7, #12
 8000dd0:	46bd      	mov	sp, r7
 8000dd2:	f85d 7b04 	ldr.w	r7, [sp], #4
 8000dd6:	4770      	bx	lr
 8000dd8:	e000e100 	.word	0xe000e100
 8000ddc:	e000ed00 	.word	0xe000ed00

08000de0 <NVIC_EncodePriority>:
  \param [in]   PreemptPriority  Preemptive priority value (starting from 0).
  \param [in]       SubPriority  Subpriority value (starting from 0).
  \return                        Encoded priority. Value can be used in the function \ref NVIC_SetPriority().
 */
__STATIC_INLINE uint32_t NVIC_EncodePriority (uint32_t PriorityGroup, uint32_t PreemptPriority, uint32_t SubPriority)
{
 8000de0:	b480      	push	{r7}
 8000de2:	b089      	sub	sp, #36	; 0x24
 8000de4:	af00      	add	r7, sp, #0
 8000de6:	60f8      	str	r0, [r7, #12]
 8000de8:	60b9      	str	r1, [r7, #8]
 8000dea:	607a      	str	r2, [r7, #4]
  uint32_t PriorityGroupTmp = (PriorityGroup & (uint32_t)0x07UL);   /* only values 0..7 are used          */
 8000dec:	68fb      	ldr	r3, [r7, #12]
 8000dee:	f003 0307 	and.w	r3, r3, #7
 8000df2:	61fb      	str	r3, [r7, #28]
  uint32_t PreemptPriorityBits;
  uint32_t SubPriorityBits;

  PreemptPriorityBits = ((7UL - PriorityGroupTmp) > (uint32_t)(__NVIC_PRIO_BITS)) ? (uint32_t)(__NVIC_PRIO_BITS) : (uint32_t)(7UL - PriorityGroupTmp);
 8000df4:	69fb      	ldr	r3, [r7, #28]
 8000df6:	f1c3 0307 	rsb	r3, r3, #7
 8000dfa:	2b04      	cmp	r3, #4
 8000dfc:	bf28      	it	cs
 8000dfe:	2304      	movcs	r3, #4
 8000e00:	61bb      	str	r3, [r7, #24]
  SubPriorityBits     = ((PriorityGroupTmp + (uint32_t)(__NVIC_PRIO_BITS)) < (uint32_t)7UL) ? (uint32_t)0UL : (uint32_t)((PriorityGroupTmp - 7UL) + (uint32_t)(__NVIC_PRIO_BITS));
 8000e02:	69fb      	ldr	r3, [r7, #28]
 8000e04:	3304      	adds	r3, #4
 8000e06:	2b06      	cmp	r3, #6
 8000e08:	d902      	bls.n	8000e10 <NVIC_EncodePriority+0x30>
 8000e0a:	69fb      	ldr	r3, [r7, #28]
 8000e0c:	3b03      	subs	r3, #3
 8000e0e:	e000      	b.n	8000e12 <NVIC_EncodePriority+0x32>
 8000e10:	2300      	movs	r3, #0
 8000e12:	617b      	str	r3, [r7, #20]

  return (
           ((PreemptPriority & (uint32_t)((1UL << (PreemptPriorityBits)) - 1UL)) << SubPriorityBits) |
 8000e14:	f04f 32ff 	mov.w	r2, #4294967295
 8000e18:	69bb      	ldr	r3, [r7, #24]
 8000e1a:	fa02 f303 	lsl.w	r3, r2, r3
 8000e1e:	43da      	mvns	r2, r3
 8000e20:	68bb      	ldr	r3, [r7, #8]
 8000e22:	401a      	ands	r2, r3
 8000e24:	697b      	ldr	r3, [r7, #20]
 8000e26:	409a      	lsls	r2, r3
           ((SubPriority     & (uint32_t)((1UL << (SubPriorityBits    )) - 1UL)))
 8000e28:	f04f 31ff 	mov.w	r1, #4294967295
 8000e2c:	697b      	ldr	r3, [r7, #20]
 8000e2e:	fa01 f303 	lsl.w	r3, r1, r3
 8000e32:	43d9      	mvns	r1, r3
 8000e34:	687b      	ldr	r3, [r7, #4]
 8000e36:	400b      	ands	r3, r1
           ((PreemptPriority & (uint32_t)((1UL << (PreemptPriorityBits)) - 1UL)) << SubPriorityBits) |
 8000e38:	4313      	orrs	r3, r2
         );
}
 8000e3a:	4618      	mov	r0, r3
 8000e3c:	3724      	adds	r7, #36	; 0x24
 8000e3e:	46bd      	mov	sp, r7
 8000e40:	f85d 7b04 	ldr.w	r7, [sp], #4
 8000e44:	4770      	bx	lr
	...

08000e48 <SysTick_Config>:
  \note    When the variable <b>__Vendor_SysTickConfig</b> is set to 1, then the
           function <b>SysTick_Config</b> is not included. In this case, the file <b><i>device</i>.h</b>
           must contain a vendor-specific implementation of this function.
 */
__STATIC_INLINE uint32_t SysTick_Config(uint32_t ticks)
{
 8000e48:	b580      	push	{r7, lr}
 8000e4a:	b082      	sub	sp, #8
 8000e4c:	af00      	add	r7, sp, #0
 8000e4e:	6078      	str	r0, [r7, #4]
  if ((ticks - 1UL) > SysTick_LOAD_RELOAD_Msk)
 8000e50:	687b      	ldr	r3, [r7, #4]
 8000e52:	3b01      	subs	r3, #1
 8000e54:	f1b3 7f80 	cmp.w	r3, #16777216	; 0x1000000
 8000e58:	d301      	bcc.n	8000e5e <SysTick_Config+0x16>
  {
    return (1UL);                                                   /* Reload value impossible */
 8000e5a:	2301      	movs	r3, #1
 8000e5c:	e00f      	b.n	8000e7e <SysTick_Config+0x36>
  }

  SysTick->LOAD  = (uint32_t)(ticks - 1UL);                         /* set reload register */
 8000e5e:	4a0a      	ldr	r2, [pc, #40]	; (8000e88 <SysTick_Config+0x40>)
 8000e60:	687b      	ldr	r3, [r7, #4]
 8000e62:	3b01      	subs	r3, #1
 8000e64:	6053      	str	r3, [r2, #4]
  NVIC_SetPriority (SysTick_IRQn, (1UL << __NVIC_PRIO_BITS) - 1UL); /* set Priority for Systick Interrupt */
 8000e66:	210f      	movs	r1, #15
 8000e68:	f04f 30ff 	mov.w	r0, #4294967295
 8000e6c:	f7ff ff8e 	bl	8000d8c <__NVIC_SetPriority>
  SysTick->VAL   = 0UL;                                             /* Load the SysTick Counter Value */
 8000e70:	4b05      	ldr	r3, [pc, #20]	; (8000e88 <SysTick_Config+0x40>)
 8000e72:	2200      	movs	r2, #0
 8000e74:	609a      	str	r2, [r3, #8]
  SysTick->CTRL  = SysTick_CTRL_CLKSOURCE_Msk |
 8000e76:	4b04      	ldr	r3, [pc, #16]	; (8000e88 <SysTick_Config+0x40>)
 8000e78:	2207      	movs	r2, #7
 8000e7a:	601a      	str	r2, [r3, #0]
                   SysTick_CTRL_TICKINT_Msk   |
                   SysTick_CTRL_ENABLE_Msk;                         /* Enable SysTick IRQ and SysTick Timer */
  return (0UL);                                                     /* Function successful */
 8000e7c:	2300      	movs	r3, #0
}
 8000e7e:	4618      	mov	r0, r3
 8000e80:	3708      	adds	r7, #8
 8000e82:	46bd      	mov	sp, r7
 8000e84:	bd80      	pop	{r7, pc}
 8000e86:	bf00      	nop
 8000e88:	e000e010 	.word	0xe000e010

08000e8c <HAL_NVIC_SetPriorityGrouping>:
  * @note   When the NVIC_PriorityGroup_0 is selected, IRQ preemption is no more possible. 
  *         The pending IRQ priority will be managed only by the subpriority. 
  * @retval None
  */
void HAL_NVIC_SetPriorityGrouping(uint32_t PriorityGroup)
{
 8000e8c:	b580      	push	{r7, lr}
 8000e8e:	b082      	sub	sp, #8
 8000e90:	af00      	add	r7, sp, #0
 8000e92:	6078      	str	r0, [r7, #4]
  /* Check the parameters */
  assert_param(IS_NVIC_PRIORITY_GROUP(PriorityGroup));
  
  /* Set the PRIGROUP[10:8] bits according to the PriorityGroup parameter value */
  NVIC_SetPriorityGrouping(PriorityGroup);
 8000e94:	6878      	ldr	r0, [r7, #4]
 8000e96:	f7ff ff29 	bl	8000cec <__NVIC_SetPriorityGrouping>
}
 8000e9a:	bf00      	nop
 8000e9c:	3708      	adds	r7, #8
 8000e9e:	46bd      	mov	sp, r7
 8000ea0:	bd80      	pop	{r7, pc}

08000ea2 <HAL_NVIC_SetPriority>:
  *         This parameter can be a value between 0 and 15
  *         A lower priority value indicates a higher priority.          
  * @retval None
  */
void HAL_NVIC_SetPriority(IRQn_Type IRQn, uint32_t PreemptPriority, uint32_t SubPriority)
{ 
 8000ea2:	b580      	push	{r7, lr}
 8000ea4:	b086      	sub	sp, #24
 8000ea6:	af00      	add	r7, sp, #0
 8000ea8:	4603      	mov	r3, r0
 8000eaa:	60b9      	str	r1, [r7, #8]
 8000eac:	607a      	str	r2, [r7, #4]
 8000eae:	73fb      	strb	r3, [r7, #15]
  uint32_t prioritygroup = 0x00U;
 8000eb0:	2300      	movs	r3, #0
 8000eb2:	617b      	str	r3, [r7, #20]
  
  /* Check the parameters */
  assert_param(IS_NVIC_SUB_PRIORITY(SubPriority));
  assert_param(IS_NVIC_PREEMPTION_PRIORITY(PreemptPriority));
  
  prioritygroup = NVIC_GetPriorityGrouping();
 8000eb4:	f7ff ff3e 	bl	8000d34 <__NVIC_GetPriorityGrouping>
 8000eb8:	6178      	str	r0, [r7, #20]
  
  NVIC_SetPriority(IRQn, NVIC_EncodePriority(prioritygroup, PreemptPriority, SubPriority));
 8000eba:	687a      	ldr	r2, [r7, #4]
 8000ebc:	68b9      	ldr	r1, [r7, #8]
 8000ebe:	6978      	ldr	r0, [r7, #20]
 8000ec0:	f7ff ff8e 	bl	8000de0 <NVIC_EncodePriority>
 8000ec4:	4602      	mov	r2, r0
 8000ec6:	f997 300f 	ldrsb.w	r3, [r7, #15]
 8000eca:	4611      	mov	r1, r2
 8000ecc:	4618      	mov	r0, r3
 8000ece:	f7ff ff5d 	bl	8000d8c <__NVIC_SetPriority>
}
 8000ed2:	bf00      	nop
 8000ed4:	3718      	adds	r7, #24
 8000ed6:	46bd      	mov	sp, r7
 8000ed8:	bd80      	pop	{r7, pc}

08000eda <HAL_NVIC_EnableIRQ>:
  *         This parameter can be an enumerator of IRQn_Type enumeration
  *         (For the complete STM32 Devices IRQ Channels list, please refer to the appropriate CMSIS device file (stm32f4xxxx.h))
  * @retval None
  */
void HAL_NVIC_EnableIRQ(IRQn_Type IRQn)
{
 8000eda:	b580      	push	{r7, lr}
 8000edc:	b082      	sub	sp, #8
 8000ede:	af00      	add	r7, sp, #0
 8000ee0:	4603      	mov	r3, r0
 8000ee2:	71fb      	strb	r3, [r7, #7]
  /* Check the parameters */
  assert_param(IS_NVIC_DEVICE_IRQ(IRQn));
  
  /* Enable interrupt */
  NVIC_EnableIRQ(IRQn);
 8000ee4:	f997 3007 	ldrsb.w	r3, [r7, #7]
 8000ee8:	4618      	mov	r0, r3
 8000eea:	f7ff ff31 	bl	8000d50 <__NVIC_EnableIRQ>
}
 8000eee:	bf00      	nop
 8000ef0:	3708      	adds	r7, #8
 8000ef2:	46bd      	mov	sp, r7
 8000ef4:	bd80      	pop	{r7, pc}

08000ef6 <HAL_SYSTICK_Config>:
  * @param  TicksNumb Specifies the ticks Number of ticks between two interrupts.
  * @retval status:  - 0  Function succeeded.
  *                  - 1  Function failed.
  */
uint32_t HAL_SYSTICK_Config(uint32_t TicksNumb)
{
 8000ef6:	b580      	push	{r7, lr}
 8000ef8:	b082      	sub	sp, #8
 8000efa:	af00      	add	r7, sp, #0
 8000efc:	6078      	str	r0, [r7, #4]
   return SysTick_Config(TicksNumb);
 8000efe:	6878      	ldr	r0, [r7, #4]
 8000f00:	f7ff ffa2 	bl	8000e48 <SysTick_Config>
 8000f04:	4603      	mov	r3, r0
}
 8000f06:	4618      	mov	r0, r3
 8000f08:	3708      	adds	r7, #8
 8000f0a:	46bd      	mov	sp, r7
 8000f0c:	bd80      	pop	{r7, pc}

08000f0e <HAL_DMA_Abort_IT>:
  * @param  hdma   pointer to a DMA_HandleTypeDef structure that contains
  *                 the configuration information for the specified DMA Stream.
  * @retval HAL status
  */
HAL_StatusTypeDef HAL_DMA_Abort_IT(DMA_HandleTypeDef *hdma)
{
 8000f0e:	b480      	push	{r7}
 8000f10:	b083      	sub	sp, #12
 8000f12:	af00      	add	r7, sp, #0
 8000f14:	6078      	str	r0, [r7, #4]
  if(hdma->State != HAL_DMA_STATE_BUSY)
 8000f16:	687b      	ldr	r3, [r7, #4]
 8000f18:	f893 3035 	ldrb.w	r3, [r3, #53]	; 0x35
 8000f1c:	b2db      	uxtb	r3, r3
 8000f1e:	2b02      	cmp	r3, #2
 8000f20:	d004      	beq.n	8000f2c <HAL_DMA_Abort_IT+0x1e>
  {
    hdma->ErrorCode = HAL_DMA_ERROR_NO_XFER;
 8000f22:	687b      	ldr	r3, [r7, #4]
 8000f24:	2280      	movs	r2, #128	; 0x80
 8000f26:	655a      	str	r2, [r3, #84]	; 0x54
    return HAL_ERROR;
 8000f28:	2301      	movs	r3, #1
 8000f2a:	e00c      	b.n	8000f46 <HAL_DMA_Abort_IT+0x38>
  }
  else
  {
    /* Set Abort State  */
    hdma->State = HAL_DMA_STATE_ABORT;
 8000f2c:	687b      	ldr	r3, [r7, #4]
 8000f2e:	2205      	movs	r2, #5
 8000f30:	f883 2035 	strb.w	r2, [r3, #53]	; 0x35
    
    /* Disable the stream */
    __HAL_DMA_DISABLE(hdma);
 8000f34:	687b      	ldr	r3, [r7, #4]
 8000f36:	681b      	ldr	r3, [r3, #0]
 8000f38:	681a      	ldr	r2, [r3, #0]
 8000f3a:	687b      	ldr	r3, [r7, #4]
 8000f3c:	681b      	ldr	r3, [r3, #0]
 8000f3e:	f022 0201 	bic.w	r2, r2, #1
 8000f42:	601a      	str	r2, [r3, #0]
  }

  return HAL_OK;
 8000f44:	2300      	movs	r3, #0
}
 8000f46:	4618      	mov	r0, r3
 8000f48:	370c      	adds	r7, #12
 8000f4a:	46bd      	mov	sp, r7
 8000f4c:	f85d 7b04 	ldr.w	r7, [sp], #4
 8000f50:	4770      	bx	lr
	...

08000f54 <HAL_GPIO_Init>:
  * @param  GPIO_Init pointer to a GPIO_InitTypeDef structure that contains
  *         the configuration information for the specified GPIO peripheral.
  * @retval None
  */
void HAL_GPIO_Init(GPIO_TypeDef  *GPIOx, GPIO_InitTypeDef *GPIO_Init)
{
 8000f54:	b480      	push	{r7}
 8000f56:	b089      	sub	sp, #36	; 0x24
 8000f58:	af00      	add	r7, sp, #0
 8000f5a:	6078      	str	r0, [r7, #4]
 8000f5c:	6039      	str	r1, [r7, #0]
  uint32_t position;
  uint32_t ioposition = 0x00U;
 8000f5e:	2300      	movs	r3, #0
 8000f60:	617b      	str	r3, [r7, #20]
  uint32_t iocurrent = 0x00U;
 8000f62:	2300      	movs	r3, #0
 8000f64:	613b      	str	r3, [r7, #16]
  uint32_t temp = 0x00U;
 8000f66:	2300      	movs	r3, #0
 8000f68:	61bb      	str	r3, [r7, #24]
  assert_param(IS_GPIO_PIN(GPIO_Init->Pin));
  assert_param(IS_GPIO_MODE(GPIO_Init->Mode));
  assert_param(IS_GPIO_PULL(GPIO_Init->Pull));

  /* Configure the port pins */
  for(position = 0U; position < GPIO_NUMBER; position++)
 8000f6a:	2300      	movs	r3, #0
 8000f6c:	61fb      	str	r3, [r7, #28]
 8000f6e:	e16b      	b.n	8001248 <HAL_GPIO_Init+0x2f4>
  {
    /* Get the IO position */
    ioposition = 0x01U << position;
 8000f70:	2201      	movs	r2, #1
 8000f72:	69fb      	ldr	r3, [r7, #28]
 8000f74:	fa02 f303 	lsl.w	r3, r2, r3
 8000f78:	617b      	str	r3, [r7, #20]
    /* Get the current IO position */
    iocurrent = (uint32_t)(GPIO_Init->Pin) & ioposition;
 8000f7a:	683b      	ldr	r3, [r7, #0]
 8000f7c:	681b      	ldr	r3, [r3, #0]
 8000f7e:	697a      	ldr	r2, [r7, #20]
 8000f80:	4013      	ands	r3, r2
 8000f82:	613b      	str	r3, [r7, #16]

    if(iocurrent == ioposition)
 8000f84:	693a      	ldr	r2, [r7, #16]
 8000f86:	697b      	ldr	r3, [r7, #20]
 8000f88:	429a      	cmp	r2, r3
 8000f8a:	f040 815a 	bne.w	8001242 <HAL_GPIO_Init+0x2ee>
    {
      /*--------------------- GPIO Mode Configuration ------------------------*/
      /* In case of Output or Alternate function mode selection */
      if((GPIO_Init->Mode == GPIO_MODE_OUTPUT_PP) || (GPIO_Init->Mode == GPIO_MODE_AF_PP) ||
 8000f8e:	683b      	ldr	r3, [r7, #0]
 8000f90:	685b      	ldr	r3, [r3, #4]
 8000f92:	2b01      	cmp	r3, #1
 8000f94:	d00b      	beq.n	8000fae <HAL_GPIO_Init+0x5a>
 8000f96:	683b      	ldr	r3, [r7, #0]
 8000f98:	685b      	ldr	r3, [r3, #4]
 8000f9a:	2b02      	cmp	r3, #2
 8000f9c:	d007      	beq.n	8000fae <HAL_GPIO_Init+0x5a>
         (GPIO_Init->Mode == GPIO_MODE_OUTPUT_OD) || (GPIO_Init->Mode == GPIO_MODE_AF_OD))
 8000f9e:	683b      	ldr	r3, [r7, #0]
 8000fa0:	685b      	ldr	r3, [r3, #4]
      if((GPIO_Init->Mode == GPIO_MODE_OUTPUT_PP) || (GPIO_Init->Mode == GPIO_MODE_AF_PP) ||
 8000fa2:	2b11      	cmp	r3, #17
 8000fa4:	d003      	beq.n	8000fae <HAL_GPIO_Init+0x5a>
         (GPIO_Init->Mode == GPIO_MODE_OUTPUT_OD) || (GPIO_Init->Mode == GPIO_MODE_AF_OD))
 8000fa6:	683b      	ldr	r3, [r7, #0]
 8000fa8:	685b      	ldr	r3, [r3, #4]
 8000faa:	2b12      	cmp	r3, #18
 8000fac:	d130      	bne.n	8001010 <HAL_GPIO_Init+0xbc>
      {
        /* Check the Speed parameter */
        assert_param(IS_GPIO_SPEED(GPIO_Init->Speed));
        /* Configure the IO Speed */
        temp = GPIOx->OSPEEDR; 
 8000fae:	687b      	ldr	r3, [r7, #4]
 8000fb0:	689b      	ldr	r3, [r3, #8]
 8000fb2:	61bb      	str	r3, [r7, #24]
        temp &= ~(GPIO_OSPEEDER_OSPEEDR0 << (position * 2U));
 8000fb4:	69fb      	ldr	r3, [r7, #28]
 8000fb6:	005b      	lsls	r3, r3, #1
 8000fb8:	2203      	movs	r2, #3
 8000fba:	fa02 f303 	lsl.w	r3, r2, r3
 8000fbe:	43db      	mvns	r3, r3
 8000fc0:	69ba      	ldr	r2, [r7, #24]
 8000fc2:	4013      	ands	r3, r2
 8000fc4:	61bb      	str	r3, [r7, #24]
        temp |= (GPIO_Init->Speed << (position * 2U));
 8000fc6:	683b      	ldr	r3, [r7, #0]
 8000fc8:	68da      	ldr	r2, [r3, #12]
 8000fca:	69fb      	ldr	r3, [r7, #28]
 8000fcc:	005b      	lsls	r3, r3, #1
 8000fce:	fa02 f303 	lsl.w	r3, r2, r3
 8000fd2:	69ba      	ldr	r2, [r7, #24]
 8000fd4:	4313      	orrs	r3, r2
 8000fd6:	61bb      	str	r3, [r7, #24]
        GPIOx->OSPEEDR = temp;
 8000fd8:	687b      	ldr	r3, [r7, #4]
 8000fda:	69ba      	ldr	r2, [r7, #24]
 8000fdc:	609a      	str	r2, [r3, #8]

        /* Configure the IO Output Type */
        temp = GPIOx->OTYPER;
 8000fde:	687b      	ldr	r3, [r7, #4]
 8000fe0:	685b      	ldr	r3, [r3, #4]
 8000fe2:	61bb      	str	r3, [r7, #24]
        temp &= ~(GPIO_OTYPER_OT_0 << position) ;
 8000fe4:	2201      	movs	r2, #1
 8000fe6:	69fb      	ldr	r3, [r7, #28]
 8000fe8:	fa02 f303 	lsl.w	r3, r2, r3
 8000fec:	43db      	mvns	r3, r3
 8000fee:	69ba      	ldr	r2, [r7, #24]
 8000ff0:	4013      	ands	r3, r2
 8000ff2:	61bb      	str	r3, [r7, #24]
        temp |= (((GPIO_Init->Mode & GPIO_OUTPUT_TYPE) >> 4U) << position);
 8000ff4:	683b      	ldr	r3, [r7, #0]
 8000ff6:	685b      	ldr	r3, [r3, #4]
 8000ff8:	091b      	lsrs	r3, r3, #4
 8000ffa:	f003 0201 	and.w	r2, r3, #1
 8000ffe:	69fb      	ldr	r3, [r7, #28]
 8001000:	fa02 f303 	lsl.w	r3, r2, r3
 8001004:	69ba      	ldr	r2, [r7, #24]
 8001006:	4313      	orrs	r3, r2
 8001008:	61bb      	str	r3, [r7, #24]
        GPIOx->OTYPER = temp;
 800100a:	687b      	ldr	r3, [r7, #4]
 800100c:	69ba      	ldr	r2, [r7, #24]
 800100e:	605a      	str	r2, [r3, #4]
       }

      /* Activate the Pull-up or Pull down resistor for the current IO */
      temp = GPIOx->PUPDR;
 8001010:	687b      	ldr	r3, [r7, #4]
 8001012:	68db      	ldr	r3, [r3, #12]
 8001014:	61bb      	str	r3, [r7, #24]
      temp &= ~(GPIO_PUPDR_PUPDR0 << (position * 2U));
 8001016:	69fb      	ldr	r3, [r7, #28]
 8001018:	005b      	lsls	r3, r3, #1
 800101a:	2203      	movs	r2, #3
 800101c:	fa02 f303 	lsl.w	r3, r2, r3
 8001020:	43db      	mvns	r3, r3
 8001022:	69ba      	ldr	r2, [r7, #24]
 8001024:	4013      	ands	r3, r2
 8001026:	61bb      	str	r3, [r7, #24]
      temp |= ((GPIO_Init->Pull) << (position * 2U));
 8001028:	683b      	ldr	r3, [r7, #0]
 800102a:	689a      	ldr	r2, [r3, #8]
 800102c:	69fb      	ldr	r3, [r7, #28]
 800102e:	005b      	lsls	r3, r3, #1
 8001030:	fa02 f303 	lsl.w	r3, r2, r3
 8001034:	69ba      	ldr	r2, [r7, #24]
 8001036:	4313      	orrs	r3, r2
 8001038:	61bb      	str	r3, [r7, #24]
      GPIOx->PUPDR = temp;
 800103a:	687b      	ldr	r3, [r7, #4]
 800103c:	69ba      	ldr	r2, [r7, #24]
 800103e:	60da      	str	r2, [r3, #12]

      /* In case of Alternate function mode selection */
      if((GPIO_Init->Mode == GPIO_MODE_AF_PP) || (GPIO_Init->Mode == GPIO_MODE_AF_OD))
 8001040:	683b      	ldr	r3, [r7, #0]
 8001042:	685b      	ldr	r3, [r3, #4]
 8001044:	2b02      	cmp	r3, #2
 8001046:	d003      	beq.n	8001050 <HAL_GPIO_Init+0xfc>
 8001048:	683b      	ldr	r3, [r7, #0]
 800104a:	685b      	ldr	r3, [r3, #4]
 800104c:	2b12      	cmp	r3, #18
 800104e:	d123      	bne.n	8001098 <HAL_GPIO_Init+0x144>
      {
        /* Check the Alternate function parameter */
        assert_param(IS_GPIO_AF(GPIO_Init->Alternate));
        /* Configure Alternate function mapped with the current IO */
        temp = GPIOx->AFR[position >> 3U];
 8001050:	69fb      	ldr	r3, [r7, #28]
 8001052:	08da      	lsrs	r2, r3, #3
 8001054:	687b      	ldr	r3, [r7, #4]
 8001056:	3208      	adds	r2, #8
 8001058:	f853 3022 	ldr.w	r3, [r3, r2, lsl #2]
 800105c:	61bb      	str	r3, [r7, #24]
        temp &= ~(0xFU << ((uint32_t)(position & 0x07U) * 4U)) ;
 800105e:	69fb      	ldr	r3, [r7, #28]
 8001060:	f003 0307 	and.w	r3, r3, #7
 8001064:	009b      	lsls	r3, r3, #2
 8001066:	220f      	movs	r2, #15
 8001068:	fa02 f303 	lsl.w	r3, r2, r3
 800106c:	43db      	mvns	r3, r3
 800106e:	69ba      	ldr	r2, [r7, #24]
 8001070:	4013      	ands	r3, r2
 8001072:	61bb      	str	r3, [r7, #24]
        temp |= ((uint32_t)(GPIO_Init->Alternate) << (((uint32_t)position & 0x07U) * 4U));
 8001074:	683b      	ldr	r3, [r7, #0]
 8001076:	691a      	ldr	r2, [r3, #16]
 8001078:	69fb      	ldr	r3, [r7, #28]
 800107a:	f003 0307 	and.w	r3, r3, #7
 800107e:	009b      	lsls	r3, r3, #2
 8001080:	fa02 f303 	lsl.w	r3, r2, r3
 8001084:	69ba      	ldr	r2, [r7, #24]
 8001086:	4313      	orrs	r3, r2
 8001088:	61bb      	str	r3, [r7, #24]
        GPIOx->AFR[position >> 3U] = temp;
 800108a:	69fb      	ldr	r3, [r7, #28]
 800108c:	08da      	lsrs	r2, r3, #3
 800108e:	687b      	ldr	r3, [r7, #4]
 8001090:	3208      	adds	r2, #8
 8001092:	69b9      	ldr	r1, [r7, #24]
 8001094:	f843 1022 	str.w	r1, [r3, r2, lsl #2]
      }

      /* Configure IO Direction mode (Input, Output, Alternate or Analog) */
      temp = GPIOx->MODER;
 8001098:	687b      	ldr	r3, [r7, #4]
 800109a:	681b      	ldr	r3, [r3, #0]
 800109c:	61bb      	str	r3, [r7, #24]
      temp &= ~(GPIO_MODER_MODER0 << (position * 2U));
 800109e:	69fb      	ldr	r3, [r7, #28]
 80010a0:	005b      	lsls	r3, r3, #1
 80010a2:	2203      	movs	r2, #3
 80010a4:	fa02 f303 	lsl.w	r3, r2, r3
 80010a8:	43db      	mvns	r3, r3
 80010aa:	69ba      	ldr	r2, [r7, #24]
 80010ac:	4013      	ands	r3, r2
 80010ae:	61bb      	str	r3, [r7, #24]
      temp |= ((GPIO_Init->Mode & GPIO_MODE) << (position * 2U));
 80010b0:	683b      	ldr	r3, [r7, #0]
 80010b2:	685b      	ldr	r3, [r3, #4]
 80010b4:	f003 0203 	and.w	r2, r3, #3
 80010b8:	69fb      	ldr	r3, [r7, #28]
 80010ba:	005b      	lsls	r3, r3, #1
 80010bc:	fa02 f303 	lsl.w	r3, r2, r3
 80010c0:	69ba      	ldr	r2, [r7, #24]
 80010c2:	4313      	orrs	r3, r2
 80010c4:	61bb      	str	r3, [r7, #24]
      GPIOx->MODER = temp;
 80010c6:	687b      	ldr	r3, [r7, #4]
 80010c8:	69ba      	ldr	r2, [r7, #24]
 80010ca:	601a      	str	r2, [r3, #0]

      /*--------------------- EXTI Mode Configuration ------------------------*/
      /* Configure the External Interrupt or event for the current IO */
      if((GPIO_Init->Mode & EXTI_MODE) == EXTI_MODE)
 80010cc:	683b      	ldr	r3, [r7, #0]
 80010ce:	685b      	ldr	r3, [r3, #4]
 80010d0:	f003 5380 	and.w	r3, r3, #268435456	; 0x10000000
 80010d4:	2b00      	cmp	r3, #0
 80010d6:	f000 80b4 	beq.w	8001242 <HAL_GPIO_Init+0x2ee>
      {
        /* Enable SYSCFG Clock */
        __HAL_RCC_SYSCFG_CLK_ENABLE();
 80010da:	2300      	movs	r3, #0
 80010dc:	60fb      	str	r3, [r7, #12]
 80010de:	4b5f      	ldr	r3, [pc, #380]	; (800125c <HAL_GPIO_Init+0x308>)
 80010e0:	6c5b      	ldr	r3, [r3, #68]	; 0x44
 80010e2:	4a5e      	ldr	r2, [pc, #376]	; (800125c <HAL_GPIO_Init+0x308>)
 80010e4:	f443 4380 	orr.w	r3, r3, #16384	; 0x4000
 80010e8:	6453      	str	r3, [r2, #68]	; 0x44
 80010ea:	4b5c      	ldr	r3, [pc, #368]	; (800125c <HAL_GPIO_Init+0x308>)
 80010ec:	6c5b      	ldr	r3, [r3, #68]	; 0x44
 80010ee:	f403 4380 	and.w	r3, r3, #16384	; 0x4000
 80010f2:	60fb      	str	r3, [r7, #12]
 80010f4:	68fb      	ldr	r3, [r7, #12]

        temp = SYSCFG->EXTICR[position >> 2U];
 80010f6:	4a5a      	ldr	r2, [pc, #360]	; (8001260 <HAL_GPIO_Init+0x30c>)
 80010f8:	69fb      	ldr	r3, [r7, #28]
 80010fa:	089b      	lsrs	r3, r3, #2
 80010fc:	3302      	adds	r3, #2
 80010fe:	f852 3023 	ldr.w	r3, [r2, r3, lsl #2]
 8001102:	61bb      	str	r3, [r7, #24]
        temp &= ~(0x0FU << (4U * (position & 0x03U)));
 8001104:	69fb      	ldr	r3, [r7, #28]
 8001106:	f003 0303 	and.w	r3, r3, #3
 800110a:	009b      	lsls	r3, r3, #2
 800110c:	220f      	movs	r2, #15
 800110e:	fa02 f303 	lsl.w	r3, r2, r3
 8001112:	43db      	mvns	r3, r3
 8001114:	69ba      	ldr	r2, [r7, #24]
 8001116:	4013      	ands	r3, r2
 8001118:	61bb      	str	r3, [r7, #24]
        temp |= ((uint32_t)(GPIO_GET_INDEX(GPIOx)) << (4U * (position & 0x03U)));
 800111a:	687b      	ldr	r3, [r7, #4]
 800111c:	4a51      	ldr	r2, [pc, #324]	; (8001264 <HAL_GPIO_Init+0x310>)
 800111e:	4293      	cmp	r3, r2
 8001120:	d02b      	beq.n	800117a <HAL_GPIO_Init+0x226>
 8001122:	687b      	ldr	r3, [r7, #4]
 8001124:	4a50      	ldr	r2, [pc, #320]	; (8001268 <HAL_GPIO_Init+0x314>)
 8001126:	4293      	cmp	r3, r2
 8001128:	d025      	beq.n	8001176 <HAL_GPIO_Init+0x222>
 800112a:	687b      	ldr	r3, [r7, #4]
 800112c:	4a4f      	ldr	r2, [pc, #316]	; (800126c <HAL_GPIO_Init+0x318>)
 800112e:	4293      	cmp	r3, r2
 8001130:	d01f      	beq.n	8001172 <HAL_GPIO_Init+0x21e>
 8001132:	687b      	ldr	r3, [r7, #4]
 8001134:	4a4e      	ldr	r2, [pc, #312]	; (8001270 <HAL_GPIO_Init+0x31c>)
 8001136:	4293      	cmp	r3, r2
 8001138:	d019      	beq.n	800116e <HAL_GPIO_Init+0x21a>
 800113a:	687b      	ldr	r3, [r7, #4]
 800113c:	4a4d      	ldr	r2, [pc, #308]	; (8001274 <HAL_GPIO_Init+0x320>)
 800113e:	4293      	cmp	r3, r2
 8001140:	d013      	beq.n	800116a <HAL_GPIO_Init+0x216>
 8001142:	687b      	ldr	r3, [r7, #4]
 8001144:	4a4c      	ldr	r2, [pc, #304]	; (8001278 <HAL_GPIO_Init+0x324>)
 8001146:	4293      	cmp	r3, r2
 8001148:	d00d      	beq.n	8001166 <HAL_GPIO_Init+0x212>
 800114a:	687b      	ldr	r3, [r7, #4]
 800114c:	4a4b      	ldr	r2, [pc, #300]	; (800127c <HAL_GPIO_Init+0x328>)
 800114e:	4293      	cmp	r3, r2
 8001150:	d007      	beq.n	8001162 <HAL_GPIO_Init+0x20e>
 8001152:	687b      	ldr	r3, [r7, #4]
 8001154:	4a4a      	ldr	r2, [pc, #296]	; (8001280 <HAL_GPIO_Init+0x32c>)
 8001156:	4293      	cmp	r3, r2
 8001158:	d101      	bne.n	800115e <HAL_GPIO_Init+0x20a>
 800115a:	2307      	movs	r3, #7
 800115c:	e00e      	b.n	800117c <HAL_GPIO_Init+0x228>
 800115e:	2308      	movs	r3, #8
 8001160:	e00c      	b.n	800117c <HAL_GPIO_Init+0x228>
 8001162:	2306      	movs	r3, #6
 8001164:	e00a      	b.n	800117c <HAL_GPIO_Init+0x228>
 8001166:	2305      	movs	r3, #5
 8001168:	e008      	b.n	800117c <HAL_GPIO_Init+0x228>
 800116a:	2304      	movs	r3, #4
 800116c:	e006      	b.n	800117c <HAL_GPIO_Init+0x228>
 800116e:	2303      	movs	r3, #3
 8001170:	e004      	b.n	800117c <HAL_GPIO_Init+0x228>
 8001172:	2302      	movs	r3, #2
 8001174:	e002      	b.n	800117c <HAL_GPIO_Init+0x228>
 8001176:	2301      	movs	r3, #1
 8001178:	e000      	b.n	800117c <HAL_GPIO_Init+0x228>
 800117a:	2300      	movs	r3, #0
 800117c:	69fa      	ldr	r2, [r7, #28]
 800117e:	f002 0203 	and.w	r2, r2, #3
 8001182:	0092      	lsls	r2, r2, #2
 8001184:	4093      	lsls	r3, r2
 8001186:	69ba      	ldr	r2, [r7, #24]
 8001188:	4313      	orrs	r3, r2
 800118a:	61bb      	str	r3, [r7, #24]
        SYSCFG->EXTICR[position >> 2U] = temp;
 800118c:	4934      	ldr	r1, [pc, #208]	; (8001260 <HAL_GPIO_Init+0x30c>)
 800118e:	69fb      	ldr	r3, [r7, #28]
 8001190:	089b      	lsrs	r3, r3, #2
 8001192:	3302      	adds	r3, #2
 8001194:	69ba      	ldr	r2, [r7, #24]
 8001196:	f841 2023 	str.w	r2, [r1, r3, lsl #2]

        /* Clear EXTI line configuration */
        temp = EXTI->IMR;
 800119a:	4b3a      	ldr	r3, [pc, #232]	; (8001284 <HAL_GPIO_Init+0x330>)
 800119c:	681b      	ldr	r3, [r3, #0]
 800119e:	61bb      	str	r3, [r7, #24]
        temp &= ~((uint32_t)iocurrent);
 80011a0:	693b      	ldr	r3, [r7, #16]
 80011a2:	43db      	mvns	r3, r3
 80011a4:	69ba      	ldr	r2, [r7, #24]
 80011a6:	4013      	ands	r3, r2
 80011a8:	61bb      	str	r3, [r7, #24]
        if((GPIO_Init->Mode & GPIO_MODE_IT) == GPIO_MODE_IT)
 80011aa:	683b      	ldr	r3, [r7, #0]
 80011ac:	685b      	ldr	r3, [r3, #4]
 80011ae:	f403 3380 	and.w	r3, r3, #65536	; 0x10000
 80011b2:	2b00      	cmp	r3, #0
 80011b4:	d003      	beq.n	80011be <HAL_GPIO_Init+0x26a>
        {
          temp |= iocurrent;
 80011b6:	69ba      	ldr	r2, [r7, #24]
 80011b8:	693b      	ldr	r3, [r7, #16]
 80011ba:	4313      	orrs	r3, r2
 80011bc:	61bb      	str	r3, [r7, #24]
        }
        EXTI->IMR = temp;
 80011be:	4a31      	ldr	r2, [pc, #196]	; (8001284 <HAL_GPIO_Init+0x330>)
 80011c0:	69bb      	ldr	r3, [r7, #24]
 80011c2:	6013      	str	r3, [r2, #0]

        temp = EXTI->EMR;
 80011c4:	4b2f      	ldr	r3, [pc, #188]	; (8001284 <HAL_GPIO_Init+0x330>)
 80011c6:	685b      	ldr	r3, [r3, #4]
 80011c8:	61bb      	str	r3, [r7, #24]
        temp &= ~((uint32_t)iocurrent);
 80011ca:	693b      	ldr	r3, [r7, #16]
 80011cc:	43db      	mvns	r3, r3
 80011ce:	69ba      	ldr	r2, [r7, #24]
 80011d0:	4013      	ands	r3, r2
 80011d2:	61bb      	str	r3, [r7, #24]
        if((GPIO_Init->Mode & GPIO_MODE_EVT) == GPIO_MODE_EVT)
 80011d4:	683b      	ldr	r3, [r7, #0]
 80011d6:	685b      	ldr	r3, [r3, #4]
 80011d8:	f403 3300 	and.w	r3, r3, #131072	; 0x20000
 80011dc:	2b00      	cmp	r3, #0
 80011de:	d003      	beq.n	80011e8 <HAL_GPIO_Init+0x294>
        {
          temp |= iocurrent;
 80011e0:	69ba      	ldr	r2, [r7, #24]
 80011e2:	693b      	ldr	r3, [r7, #16]
 80011e4:	4313      	orrs	r3, r2
 80011e6:	61bb      	str	r3, [r7, #24]
        }
        EXTI->EMR = temp;
 80011e8:	4a26      	ldr	r2, [pc, #152]	; (8001284 <HAL_GPIO_Init+0x330>)
 80011ea:	69bb      	ldr	r3, [r7, #24]
 80011ec:	6053      	str	r3, [r2, #4]

        /* Clear Rising Falling edge configuration */
        temp = EXTI->RTSR;
 80011ee:	4b25      	ldr	r3, [pc, #148]	; (8001284 <HAL_GPIO_Init+0x330>)
 80011f0:	689b      	ldr	r3, [r3, #8]
 80011f2:	61bb      	str	r3, [r7, #24]
        temp &= ~((uint32_t)iocurrent);
 80011f4:	693b      	ldr	r3, [r7, #16]
 80011f6:	43db      	mvns	r3, r3
 80011f8:	69ba      	ldr	r2, [r7, #24]
 80011fa:	4013      	ands	r3, r2
 80011fc:	61bb      	str	r3, [r7, #24]
        if((GPIO_Init->Mode & RISING_EDGE) == RISING_EDGE)
 80011fe:	683b      	ldr	r3, [r7, #0]
 8001200:	685b      	ldr	r3, [r3, #4]
 8001202:	f403 1380 	and.w	r3, r3, #1048576	; 0x100000
 8001206:	2b00      	cmp	r3, #0
 8001208:	d003      	beq.n	8001212 <HAL_GPIO_Init+0x2be>
        {
          temp |= iocurrent;
 800120a:	69ba      	ldr	r2, [r7, #24]
 800120c:	693b      	ldr	r3, [r7, #16]
 800120e:	4313      	orrs	r3, r2
 8001210:	61bb      	str	r3, [r7, #24]
        }
        EXTI->RTSR = temp;
 8001212:	4a1c      	ldr	r2, [pc, #112]	; (8001284 <HAL_GPIO_Init+0x330>)
 8001214:	69bb      	ldr	r3, [r7, #24]
 8001216:	6093      	str	r3, [r2, #8]

        temp = EXTI->FTSR;
 8001218:	4b1a      	ldr	r3, [pc, #104]	; (8001284 <HAL_GPIO_Init+0x330>)
 800121a:	68db      	ldr	r3, [r3, #12]
 800121c:	61bb      	str	r3, [r7, #24]
        temp &= ~((uint32_t)iocurrent);
 800121e:	693b      	ldr	r3, [r7, #16]
 8001220:	43db      	mvns	r3, r3
 8001222:	69ba      	ldr	r2, [r7, #24]
 8001224:	4013      	ands	r3, r2
 8001226:	61bb      	str	r3, [r7, #24]
        if((GPIO_Init->Mode & FALLING_EDGE) == FALLING_EDGE)
 8001228:	683b      	ldr	r3, [r7, #0]
 800122a:	685b      	ldr	r3, [r3, #4]
 800122c:	f403 1300 	and.w	r3, r3, #2097152	; 0x200000
 8001230:	2b00      	cmp	r3, #0
 8001232:	d003      	beq.n	800123c <HAL_GPIO_Init+0x2e8>
        {
          temp |= iocurrent;
 8001234:	69ba      	ldr	r2, [r7, #24]
 8001236:	693b      	ldr	r3, [r7, #16]
 8001238:	4313      	orrs	r3, r2
 800123a:	61bb      	str	r3, [r7, #24]
        }
        EXTI->FTSR = temp;
 800123c:	4a11      	ldr	r2, [pc, #68]	; (8001284 <HAL_GPIO_Init+0x330>)
 800123e:	69bb      	ldr	r3, [r7, #24]
 8001240:	60d3      	str	r3, [r2, #12]
  for(position = 0U; position < GPIO_NUMBER; position++)
 8001242:	69fb      	ldr	r3, [r7, #28]
 8001244:	3301      	adds	r3, #1
 8001246:	61fb      	str	r3, [r7, #28]
 8001248:	69fb      	ldr	r3, [r7, #28]
 800124a:	2b0f      	cmp	r3, #15
 800124c:	f67f ae90 	bls.w	8000f70 <HAL_GPIO_Init+0x1c>
      }
    }
  }
}
 8001250:	bf00      	nop
 8001252:	3724      	adds	r7, #36	; 0x24
 8001254:	46bd      	mov	sp, r7
 8001256:	f85d 7b04 	ldr.w	r7, [sp], #4
 800125a:	4770      	bx	lr
 800125c:	40023800 	.word	0x40023800
 8001260:	40013800 	.word	0x40013800
 8001264:	40020000 	.word	0x40020000
 8001268:	40020400 	.word	0x40020400
 800126c:	40020800 	.word	0x40020800
 8001270:	40020c00 	.word	0x40020c00
 8001274:	40021000 	.word	0x40021000
 8001278:	40021400 	.word	0x40021400
 800127c:	40021800 	.word	0x40021800
 8001280:	40021c00 	.word	0x40021c00
 8001284:	40013c00 	.word	0x40013c00

08001288 <HAL_GPIO_WritePin>:
  *            @arg GPIO_PIN_RESET: to clear the port pin
  *            @arg GPIO_PIN_SET: to set the port pin
  * @retval None
  */
void HAL_GPIO_WritePin(GPIO_TypeDef* GPIOx, uint16_t GPIO_Pin, GPIO_PinState PinState)
{
 8001288:	b480      	push	{r7}
 800128a:	b083      	sub	sp, #12
 800128c:	af00      	add	r7, sp, #0
 800128e:	6078      	str	r0, [r7, #4]
 8001290:	460b      	mov	r3, r1
 8001292:	807b      	strh	r3, [r7, #2]
 8001294:	4613      	mov	r3, r2
 8001296:	707b      	strb	r3, [r7, #1]
  /* Check the parameters */
  assert_param(IS_GPIO_PIN(GPIO_Pin));
  assert_param(IS_GPIO_PIN_ACTION(PinState));

  if(PinState != GPIO_PIN_RESET)
 8001298:	787b      	ldrb	r3, [r7, #1]
 800129a:	2b00      	cmp	r3, #0
 800129c:	d003      	beq.n	80012a6 <HAL_GPIO_WritePin+0x1e>
  {
    GPIOx->BSRR = GPIO_Pin;
 800129e:	887a      	ldrh	r2, [r7, #2]
 80012a0:	687b      	ldr	r3, [r7, #4]
 80012a2:	619a      	str	r2, [r3, #24]
  }
  else
  {
    GPIOx->BSRR = (uint32_t)GPIO_Pin << 16U;
  }
}
 80012a4:	e003      	b.n	80012ae <HAL_GPIO_WritePin+0x26>
    GPIOx->BSRR = (uint32_t)GPIO_Pin << 16U;
 80012a6:	887b      	ldrh	r3, [r7, #2]
 80012a8:	041a      	lsls	r2, r3, #16
 80012aa:	687b      	ldr	r3, [r7, #4]
 80012ac:	619a      	str	r2, [r3, #24]
}
 80012ae:	bf00      	nop
 80012b0:	370c      	adds	r7, #12
 80012b2:	46bd      	mov	sp, r7
 80012b4:	f85d 7b04 	ldr.w	r7, [sp], #4
 80012b8:	4770      	bx	lr
	...

080012bc <HAL_RCC_OscConfig>:
  *         supported by this API. User should request a transition to HSE Off
  *         first and then HSE On or HSE Bypass.
  * @retval HAL status
  */
__weak HAL_StatusTypeDef HAL_RCC_OscConfig(RCC_OscInitTypeDef  *RCC_OscInitStruct)
{
 80012bc:	b580      	push	{r7, lr}
 80012be:	b086      	sub	sp, #24
 80012c0:	af00      	add	r7, sp, #0
 80012c2:	6078      	str	r0, [r7, #4]
  uint32_t tickstart, pll_config;

  /* Check Null pointer */
  if(RCC_OscInitStruct == NULL)
 80012c4:	687b      	ldr	r3, [r7, #4]
 80012c6:	2b00      	cmp	r3, #0
 80012c8:	d101      	bne.n	80012ce <HAL_RCC_OscConfig+0x12>
  {
    return HAL_ERROR;
 80012ca:	2301      	movs	r3, #1
 80012cc:	e25b      	b.n	8001786 <HAL_RCC_OscConfig+0x4ca>
  }

  /* Check the parameters */
  assert_param(IS_RCC_OSCILLATORTYPE(RCC_OscInitStruct->OscillatorType));
  /*------------------------------- HSE Configuration ------------------------*/
  if(((RCC_OscInitStruct->OscillatorType) & RCC_OSCILLATORTYPE_HSE) == RCC_OSCILLATORTYPE_HSE)
 80012ce:	687b      	ldr	r3, [r7, #4]
 80012d0:	681b      	ldr	r3, [r3, #0]
 80012d2:	f003 0301 	and.w	r3, r3, #1
 80012d6:	2b00      	cmp	r3, #0
 80012d8:	d075      	beq.n	80013c6 <HAL_RCC_OscConfig+0x10a>
  {
    /* Check the parameters */
    assert_param(IS_RCC_HSE(RCC_OscInitStruct->HSEState));
    /* When the HSE is used as system clock or clock source for PLL in these cases HSE will not disabled */
    if((__HAL_RCC_GET_SYSCLK_SOURCE() == RCC_CFGR_SWS_HSE) ||\
 80012da:	4ba3      	ldr	r3, [pc, #652]	; (8001568 <HAL_RCC_OscConfig+0x2ac>)
 80012dc:	689b      	ldr	r3, [r3, #8]
 80012de:	f003 030c 	and.w	r3, r3, #12
 80012e2:	2b04      	cmp	r3, #4
 80012e4:	d00c      	beq.n	8001300 <HAL_RCC_OscConfig+0x44>
      ((__HAL_RCC_GET_SYSCLK_SOURCE() == RCC_CFGR_SWS_PLL) && ((RCC->PLLCFGR & RCC_PLLCFGR_PLLSRC) == RCC_PLLCFGR_PLLSRC_HSE)))
 80012e6:	4ba0      	ldr	r3, [pc, #640]	; (8001568 <HAL_RCC_OscConfig+0x2ac>)
 80012e8:	689b      	ldr	r3, [r3, #8]
 80012ea:	f003 030c 	and.w	r3, r3, #12
    if((__HAL_RCC_GET_SYSCLK_SOURCE() == RCC_CFGR_SWS_HSE) ||\
 80012ee:	2b08      	cmp	r3, #8
 80012f0:	d112      	bne.n	8001318 <HAL_RCC_OscConfig+0x5c>
      ((__HAL_RCC_GET_SYSCLK_SOURCE() == RCC_CFGR_SWS_PLL) && ((RCC->PLLCFGR & RCC_PLLCFGR_PLLSRC) == RCC_PLLCFGR_PLLSRC_HSE)))
 80012f2:	4b9d      	ldr	r3, [pc, #628]	; (8001568 <HAL_RCC_OscConfig+0x2ac>)
 80012f4:	685b      	ldr	r3, [r3, #4]
 80012f6:	f403 0380 	and.w	r3, r3, #4194304	; 0x400000
 80012fa:	f5b3 0f80 	cmp.w	r3, #4194304	; 0x400000
 80012fe:	d10b      	bne.n	8001318 <HAL_RCC_OscConfig+0x5c>
    {
      if((__HAL_RCC_GET_FLAG(RCC_FLAG_HSERDY) != RESET) && (RCC_OscInitStruct->HSEState == RCC_HSE_OFF))
 8001300:	4b99      	ldr	r3, [pc, #612]	; (8001568 <HAL_RCC_OscConfig+0x2ac>)
 8001302:	681b      	ldr	r3, [r3, #0]
 8001304:	f403 3300 	and.w	r3, r3, #131072	; 0x20000
 8001308:	2b00      	cmp	r3, #0
 800130a:	d05b      	beq.n	80013c4 <HAL_RCC_OscConfig+0x108>
 800130c:	687b      	ldr	r3, [r7, #4]
 800130e:	685b      	ldr	r3, [r3, #4]
 8001310:	2b00      	cmp	r3, #0
 8001312:	d157      	bne.n	80013c4 <HAL_RCC_OscConfig+0x108>
      {
        return HAL_ERROR;
 8001314:	2301      	movs	r3, #1
 8001316:	e236      	b.n	8001786 <HAL_RCC_OscConfig+0x4ca>
      }
    }
    else
    {
      /* Set the new HSE configuration ---------------------------------------*/
      __HAL_RCC_HSE_CONFIG(RCC_OscInitStruct->HSEState);
 8001318:	687b      	ldr	r3, [r7, #4]
 800131a:	685b      	ldr	r3, [r3, #4]
 800131c:	f5b3 3f80 	cmp.w	r3, #65536	; 0x10000
 8001320:	d106      	bne.n	8001330 <HAL_RCC_OscConfig+0x74>
 8001322:	4b91      	ldr	r3, [pc, #580]	; (8001568 <HAL_RCC_OscConfig+0x2ac>)
 8001324:	681b      	ldr	r3, [r3, #0]
 8001326:	4a90      	ldr	r2, [pc, #576]	; (8001568 <HAL_RCC_OscConfig+0x2ac>)
 8001328:	f443 3380 	orr.w	r3, r3, #65536	; 0x10000
 800132c:	6013      	str	r3, [r2, #0]
 800132e:	e01d      	b.n	800136c <HAL_RCC_OscConfig+0xb0>
 8001330:	687b      	ldr	r3, [r7, #4]
 8001332:	685b      	ldr	r3, [r3, #4]
 8001334:	f5b3 2fa0 	cmp.w	r3, #327680	; 0x50000
 8001338:	d10c      	bne.n	8001354 <HAL_RCC_OscConfig+0x98>
 800133a:	4b8b      	ldr	r3, [pc, #556]	; (8001568 <HAL_RCC_OscConfig+0x2ac>)
 800133c:	681b      	ldr	r3, [r3, #0]
 800133e:	4a8a      	ldr	r2, [pc, #552]	; (8001568 <HAL_RCC_OscConfig+0x2ac>)
 8001340:	f443 2380 	orr.w	r3, r3, #262144	; 0x40000
 8001344:	6013      	str	r3, [r2, #0]
 8001346:	4b88      	ldr	r3, [pc, #544]	; (8001568 <HAL_RCC_OscConfig+0x2ac>)
 8001348:	681b      	ldr	r3, [r3, #0]
 800134a:	4a87      	ldr	r2, [pc, #540]	; (8001568 <HAL_RCC_OscConfig+0x2ac>)
 800134c:	f443 3380 	orr.w	r3, r3, #65536	; 0x10000
 8001350:	6013      	str	r3, [r2, #0]
 8001352:	e00b      	b.n	800136c <HAL_RCC_OscConfig+0xb0>
 8001354:	4b84      	ldr	r3, [pc, #528]	; (8001568 <HAL_RCC_OscConfig+0x2ac>)
 8001356:	681b      	ldr	r3, [r3, #0]
 8001358:	4a83      	ldr	r2, [pc, #524]	; (8001568 <HAL_RCC_OscConfig+0x2ac>)
 800135a:	f423 3380 	bic.w	r3, r3, #65536	; 0x10000
 800135e:	6013      	str	r3, [r2, #0]
 8001360:	4b81      	ldr	r3, [pc, #516]	; (8001568 <HAL_RCC_OscConfig+0x2ac>)
 8001362:	681b      	ldr	r3, [r3, #0]
 8001364:	4a80      	ldr	r2, [pc, #512]	; (8001568 <HAL_RCC_OscConfig+0x2ac>)
 8001366:	f423 2380 	bic.w	r3, r3, #262144	; 0x40000
 800136a:	6013      	str	r3, [r2, #0]

      /* Check the HSE State */
      if((RCC_OscInitStruct->HSEState) != RCC_HSE_OFF)
 800136c:	687b      	ldr	r3, [r7, #4]
 800136e:	685b      	ldr	r3, [r3, #4]
 8001370:	2b00      	cmp	r3, #0
 8001372:	d013      	beq.n	800139c <HAL_RCC_OscConfig+0xe0>
      {
        /* Get Start Tick */
        tickstart = HAL_GetTick();
 8001374:	f7ff fcae 	bl	8000cd4 <HAL_GetTick>
 8001378:	6138      	str	r0, [r7, #16]

        /* Wait till HSE is ready */
        while(__HAL_RCC_GET_FLAG(RCC_FLAG_HSERDY) == RESET)
 800137a:	e008      	b.n	800138e <HAL_RCC_OscConfig+0xd2>
        {
          if((HAL_GetTick() - tickstart ) > HSE_TIMEOUT_VALUE)
 800137c:	f7ff fcaa 	bl	8000cd4 <HAL_GetTick>
 8001380:	4602      	mov	r2, r0
 8001382:	693b      	ldr	r3, [r7, #16]
 8001384:	1ad3      	subs	r3, r2, r3
 8001386:	2b64      	cmp	r3, #100	; 0x64
 8001388:	d901      	bls.n	800138e <HAL_RCC_OscConfig+0xd2>
          {
            return HAL_TIMEOUT;
 800138a:	2303      	movs	r3, #3
 800138c:	e1fb      	b.n	8001786 <HAL_RCC_OscConfig+0x4ca>
        while(__HAL_RCC_GET_FLAG(RCC_FLAG_HSERDY) == RESET)
 800138e:	4b76      	ldr	r3, [pc, #472]	; (8001568 <HAL_RCC_OscConfig+0x2ac>)
 8001390:	681b      	ldr	r3, [r3, #0]
 8001392:	f403 3300 	and.w	r3, r3, #131072	; 0x20000
 8001396:	2b00      	cmp	r3, #0
 8001398:	d0f0      	beq.n	800137c <HAL_RCC_OscConfig+0xc0>
 800139a:	e014      	b.n	80013c6 <HAL_RCC_OscConfig+0x10a>
        }
      }
      else
      {
        /* Get Start Tick */
        tickstart = HAL_GetTick();
 800139c:	f7ff fc9a 	bl	8000cd4 <HAL_GetTick>
 80013a0:	6138      	str	r0, [r7, #16]

        /* Wait till HSE is bypassed or disabled */
        while(__HAL_RCC_GET_FLAG(RCC_FLAG_HSERDY) != RESET)
 80013a2:	e008      	b.n	80013b6 <HAL_RCC_OscConfig+0xfa>
        {
          if((HAL_GetTick() - tickstart ) > HSE_TIMEOUT_VALUE)
 80013a4:	f7ff fc96 	bl	8000cd4 <HAL_GetTick>
 80013a8:	4602      	mov	r2, r0
 80013aa:	693b      	ldr	r3, [r7, #16]
 80013ac:	1ad3      	subs	r3, r2, r3
 80013ae:	2b64      	cmp	r3, #100	; 0x64
 80013b0:	d901      	bls.n	80013b6 <HAL_RCC_OscConfig+0xfa>
          {
            return HAL_TIMEOUT;
 80013b2:	2303      	movs	r3, #3
 80013b4:	e1e7      	b.n	8001786 <HAL_RCC_OscConfig+0x4ca>
        while(__HAL_RCC_GET_FLAG(RCC_FLAG_HSERDY) != RESET)
 80013b6:	4b6c      	ldr	r3, [pc, #432]	; (8001568 <HAL_RCC_OscConfig+0x2ac>)
 80013b8:	681b      	ldr	r3, [r3, #0]
 80013ba:	f403 3300 	and.w	r3, r3, #131072	; 0x20000
 80013be:	2b00      	cmp	r3, #0
 80013c0:	d1f0      	bne.n	80013a4 <HAL_RCC_OscConfig+0xe8>
 80013c2:	e000      	b.n	80013c6 <HAL_RCC_OscConfig+0x10a>
      if((__HAL_RCC_GET_FLAG(RCC_FLAG_HSERDY) != RESET) && (RCC_OscInitStruct->HSEState == RCC_HSE_OFF))
 80013c4:	bf00      	nop
        }
      }
    }
  }
  /*----------------------------- HSI Configuration --------------------------*/
  if(((RCC_OscInitStruct->OscillatorType) & RCC_OSCILLATORTYPE_HSI) == RCC_OSCILLATORTYPE_HSI)
 80013c6:	687b      	ldr	r3, [r7, #4]
 80013c8:	681b      	ldr	r3, [r3, #0]
 80013ca:	f003 0302 	and.w	r3, r3, #2
 80013ce:	2b00      	cmp	r3, #0
 80013d0:	d063      	beq.n	800149a <HAL_RCC_OscConfig+0x1de>
    /* Check the parameters */
    assert_param(IS_RCC_HSI(RCC_OscInitStruct->HSIState));
    assert_param(IS_RCC_CALIBRATION_VALUE(RCC_OscInitStruct->HSICalibrationValue));

    /* Check if HSI is used as system clock or as PLL source when PLL is selected as system clock */
    if((__HAL_RCC_GET_SYSCLK_SOURCE() == RCC_CFGR_SWS_HSI) ||\
 80013d2:	4b65      	ldr	r3, [pc, #404]	; (8001568 <HAL_RCC_OscConfig+0x2ac>)
 80013d4:	689b      	ldr	r3, [r3, #8]
 80013d6:	f003 030c 	and.w	r3, r3, #12
 80013da:	2b00      	cmp	r3, #0
 80013dc:	d00b      	beq.n	80013f6 <HAL_RCC_OscConfig+0x13a>
      ((__HAL_RCC_GET_SYSCLK_SOURCE() == RCC_CFGR_SWS_PLL) && ((RCC->PLLCFGR & RCC_PLLCFGR_PLLSRC) == RCC_PLLCFGR_PLLSRC_HSI)))
 80013de:	4b62      	ldr	r3, [pc, #392]	; (8001568 <HAL_RCC_OscConfig+0x2ac>)
 80013e0:	689b      	ldr	r3, [r3, #8]
 80013e2:	f003 030c 	and.w	r3, r3, #12
    if((__HAL_RCC_GET_SYSCLK_SOURCE() == RCC_CFGR_SWS_HSI) ||\
 80013e6:	2b08      	cmp	r3, #8
 80013e8:	d11c      	bne.n	8001424 <HAL_RCC_OscConfig+0x168>
      ((__HAL_RCC_GET_SYSCLK_SOURCE() == RCC_CFGR_SWS_PLL) && ((RCC->PLLCFGR & RCC_PLLCFGR_PLLSRC) == RCC_PLLCFGR_PLLSRC_HSI)))
 80013ea:	4b5f      	ldr	r3, [pc, #380]	; (8001568 <HAL_RCC_OscConfig+0x2ac>)
 80013ec:	685b      	ldr	r3, [r3, #4]
 80013ee:	f403 0380 	and.w	r3, r3, #4194304	; 0x400000
 80013f2:	2b00      	cmp	r3, #0
 80013f4:	d116      	bne.n	8001424 <HAL_RCC_OscConfig+0x168>
    {
      /* When HSI is used as system clock it will not disabled */
      if((__HAL_RCC_GET_FLAG(RCC_FLAG_HSIRDY) != RESET) && (RCC_OscInitStruct->HSIState != RCC_HSI_ON))
 80013f6:	4b5c      	ldr	r3, [pc, #368]	; (8001568 <HAL_RCC_OscConfig+0x2ac>)
 80013f8:	681b      	ldr	r3, [r3, #0]
 80013fa:	f003 0302 	and.w	r3, r3, #2
 80013fe:	2b00      	cmp	r3, #0
 8001400:	d005      	beq.n	800140e <HAL_RCC_OscConfig+0x152>
 8001402:	687b      	ldr	r3, [r7, #4]
 8001404:	68db      	ldr	r3, [r3, #12]
 8001406:	2b01      	cmp	r3, #1
 8001408:	d001      	beq.n	800140e <HAL_RCC_OscConfig+0x152>
      {
        return HAL_ERROR;
 800140a:	2301      	movs	r3, #1
 800140c:	e1bb      	b.n	8001786 <HAL_RCC_OscConfig+0x4ca>
      }
      /* Otherwise, just the calibration is allowed */
      else
      {
        /* Adjusts the Internal High Speed oscillator (HSI) calibration value.*/
        __HAL_RCC_HSI_CALIBRATIONVALUE_ADJUST(RCC_OscInitStruct->HSICalibrationValue);
 800140e:	4b56      	ldr	r3, [pc, #344]	; (8001568 <HAL_RCC_OscConfig+0x2ac>)
 8001410:	681b      	ldr	r3, [r3, #0]
 8001412:	f023 02f8 	bic.w	r2, r3, #248	; 0xf8
 8001416:	687b      	ldr	r3, [r7, #4]
 8001418:	691b      	ldr	r3, [r3, #16]
 800141a:	00db      	lsls	r3, r3, #3
 800141c:	4952      	ldr	r1, [pc, #328]	; (8001568 <HAL_RCC_OscConfig+0x2ac>)
 800141e:	4313      	orrs	r3, r2
 8001420:	600b      	str	r3, [r1, #0]
      if((__HAL_RCC_GET_FLAG(RCC_FLAG_HSIRDY) != RESET) && (RCC_OscInitStruct->HSIState != RCC_HSI_ON))
 8001422:	e03a      	b.n	800149a <HAL_RCC_OscConfig+0x1de>
      }
    }
    else
    {
      /* Check the HSI State */
      if((RCC_OscInitStruct->HSIState)!= RCC_HSI_OFF)
 8001424:	687b      	ldr	r3, [r7, #4]
 8001426:	68db      	ldr	r3, [r3, #12]
 8001428:	2b00      	cmp	r3, #0
 800142a:	d020      	beq.n	800146e <HAL_RCC_OscConfig+0x1b2>
      {
        /* Enable the Internal High Speed oscillator (HSI). */
        __HAL_RCC_HSI_ENABLE();
 800142c:	4b4f      	ldr	r3, [pc, #316]	; (800156c <HAL_RCC_OscConfig+0x2b0>)
 800142e:	2201      	movs	r2, #1
 8001430:	601a      	str	r2, [r3, #0]

        /* Get Start Tick*/
        tickstart = HAL_GetTick();
 8001432:	f7ff fc4f 	bl	8000cd4 <HAL_GetTick>
 8001436:	6138      	str	r0, [r7, #16]

        /* Wait till HSI is ready */
        while(__HAL_RCC_GET_FLAG(RCC_FLAG_HSIRDY) == RESET)
 8001438:	e008      	b.n	800144c <HAL_RCC_OscConfig+0x190>
        {
          if((HAL_GetTick() - tickstart ) > HSI_TIMEOUT_VALUE)
 800143a:	f7ff fc4b 	bl	8000cd4 <HAL_GetTick>
 800143e:	4602      	mov	r2, r0
 8001440:	693b      	ldr	r3, [r7, #16]
 8001442:	1ad3      	subs	r3, r2, r3
 8001444:	2b02      	cmp	r3, #2
 8001446:	d901      	bls.n	800144c <HAL_RCC_OscConfig+0x190>
          {
            return HAL_TIMEOUT;
 8001448:	2303      	movs	r3, #3
 800144a:	e19c      	b.n	8001786 <HAL_RCC_OscConfig+0x4ca>
        while(__HAL_RCC_GET_FLAG(RCC_FLAG_HSIRDY) == RESET)
 800144c:	4b46      	ldr	r3, [pc, #280]	; (8001568 <HAL_RCC_OscConfig+0x2ac>)
 800144e:	681b      	ldr	r3, [r3, #0]
 8001450:	f003 0302 	and.w	r3, r3, #2
 8001454:	2b00      	cmp	r3, #0
 8001456:	d0f0      	beq.n	800143a <HAL_RCC_OscConfig+0x17e>
          }
        }

        /* Adjusts the Internal High Speed oscillator (HSI) calibration value. */
        __HAL_RCC_HSI_CALIBRATIONVALUE_ADJUST(RCC_OscInitStruct->HSICalibrationValue);
 8001458:	4b43      	ldr	r3, [pc, #268]	; (8001568 <HAL_RCC_OscConfig+0x2ac>)
 800145a:	681b      	ldr	r3, [r3, #0]
 800145c:	f023 02f8 	bic.w	r2, r3, #248	; 0xf8
 8001460:	687b      	ldr	r3, [r7, #4]
 8001462:	691b      	ldr	r3, [r3, #16]
 8001464:	00db      	lsls	r3, r3, #3
 8001466:	4940      	ldr	r1, [pc, #256]	; (8001568 <HAL_RCC_OscConfig+0x2ac>)
 8001468:	4313      	orrs	r3, r2
 800146a:	600b      	str	r3, [r1, #0]
 800146c:	e015      	b.n	800149a <HAL_RCC_OscConfig+0x1de>
      }
      else
      {
        /* Disable the Internal High Speed oscillator (HSI). */
        __HAL_RCC_HSI_DISABLE();
 800146e:	4b3f      	ldr	r3, [pc, #252]	; (800156c <HAL_RCC_OscConfig+0x2b0>)
 8001470:	2200      	movs	r2, #0
 8001472:	601a      	str	r2, [r3, #0]

        /* Get Start Tick*/
        tickstart = HAL_GetTick();
 8001474:	f7ff fc2e 	bl	8000cd4 <HAL_GetTick>
 8001478:	6138      	str	r0, [r7, #16]

        /* Wait till HSI is ready */
        while(__HAL_RCC_GET_FLAG(RCC_FLAG_HSIRDY) != RESET)
 800147a:	e008      	b.n	800148e <HAL_RCC_OscConfig+0x1d2>
        {
          if((HAL_GetTick() - tickstart ) > HSI_TIMEOUT_VALUE)
 800147c:	f7ff fc2a 	bl	8000cd4 <HAL_GetTick>
 8001480:	4602      	mov	r2, r0
 8001482:	693b      	ldr	r3, [r7, #16]
 8001484:	1ad3      	subs	r3, r2, r3
 8001486:	2b02      	cmp	r3, #2
 8001488:	d901      	bls.n	800148e <HAL_RCC_OscConfig+0x1d2>
          {
            return HAL_TIMEOUT;
 800148a:	2303      	movs	r3, #3
 800148c:	e17b      	b.n	8001786 <HAL_RCC_OscConfig+0x4ca>
        while(__HAL_RCC_GET_FLAG(RCC_FLAG_HSIRDY) != RESET)
 800148e:	4b36      	ldr	r3, [pc, #216]	; (8001568 <HAL_RCC_OscConfig+0x2ac>)
 8001490:	681b      	ldr	r3, [r3, #0]
 8001492:	f003 0302 	and.w	r3, r3, #2
 8001496:	2b00      	cmp	r3, #0
 8001498:	d1f0      	bne.n	800147c <HAL_RCC_OscConfig+0x1c0>
        }
      }
    }
  }
  /*------------------------------ LSI Configuration -------------------------*/
  if(((RCC_OscInitStruct->OscillatorType) & RCC_OSCILLATORTYPE_LSI) == RCC_OSCILLATORTYPE_LSI)
 800149a:	687b      	ldr	r3, [r7, #4]
 800149c:	681b      	ldr	r3, [r3, #0]
 800149e:	f003 0308 	and.w	r3, r3, #8
 80014a2:	2b00      	cmp	r3, #0
 80014a4:	d030      	beq.n	8001508 <HAL_RCC_OscConfig+0x24c>
  {
    /* Check the parameters */
    assert_param(IS_RCC_LSI(RCC_OscInitStruct->LSIState));

    /* Check the LSI State */
    if((RCC_OscInitStruct->LSIState)!= RCC_LSI_OFF)
 80014a6:	687b      	ldr	r3, [r7, #4]
 80014a8:	695b      	ldr	r3, [r3, #20]
 80014aa:	2b00      	cmp	r3, #0
 80014ac:	d016      	beq.n	80014dc <HAL_RCC_OscConfig+0x220>
    {
      /* Enable the Internal Low Speed oscillator (LSI). */
      __HAL_RCC_LSI_ENABLE();
 80014ae:	4b30      	ldr	r3, [pc, #192]	; (8001570 <HAL_RCC_OscConfig+0x2b4>)
 80014b0:	2201      	movs	r2, #1
 80014b2:	601a      	str	r2, [r3, #0]

      /* Get Start Tick*/
      tickstart = HAL_GetTick();
 80014b4:	f7ff fc0e 	bl	8000cd4 <HAL_GetTick>
 80014b8:	6138      	str	r0, [r7, #16]

      /* Wait till LSI is ready */
      while(__HAL_RCC_GET_FLAG(RCC_FLAG_LSIRDY) == RESET)
 80014ba:	e008      	b.n	80014ce <HAL_RCC_OscConfig+0x212>
      {
        if((HAL_GetTick() - tickstart ) > LSI_TIMEOUT_VALUE)
 80014bc:	f7ff fc0a 	bl	8000cd4 <HAL_GetTick>
 80014c0:	4602      	mov	r2, r0
 80014c2:	693b      	ldr	r3, [r7, #16]
 80014c4:	1ad3      	subs	r3, r2, r3
 80014c6:	2b02      	cmp	r3, #2
 80014c8:	d901      	bls.n	80014ce <HAL_RCC_OscConfig+0x212>
        {
          return HAL_TIMEOUT;
 80014ca:	2303      	movs	r3, #3
 80014cc:	e15b      	b.n	8001786 <HAL_RCC_OscConfig+0x4ca>
      while(__HAL_RCC_GET_FLAG(RCC_FLAG_LSIRDY) == RESET)
 80014ce:	4b26      	ldr	r3, [pc, #152]	; (8001568 <HAL_RCC_OscConfig+0x2ac>)
 80014d0:	6f5b      	ldr	r3, [r3, #116]	; 0x74
 80014d2:	f003 0302 	and.w	r3, r3, #2
 80014d6:	2b00      	cmp	r3, #0
 80014d8:	d0f0      	beq.n	80014bc <HAL_RCC_OscConfig+0x200>
 80014da:	e015      	b.n	8001508 <HAL_RCC_OscConfig+0x24c>
      }
    }
    else
    {
      /* Disable the Internal Low Speed oscillator (LSI). */
      __HAL_RCC_LSI_DISABLE();
 80014dc:	4b24      	ldr	r3, [pc, #144]	; (8001570 <HAL_RCC_OscConfig+0x2b4>)
 80014de:	2200      	movs	r2, #0
 80014e0:	601a      	str	r2, [r3, #0]

      /* Get Start Tick */
      tickstart = HAL_GetTick();
 80014e2:	f7ff fbf7 	bl	8000cd4 <HAL_GetTick>
 80014e6:	6138      	str	r0, [r7, #16]

      /* Wait till LSI is ready */
      while(__HAL_RCC_GET_FLAG(RCC_FLAG_LSIRDY) != RESET)
 80014e8:	e008      	b.n	80014fc <HAL_RCC_OscConfig+0x240>
      {
        if((HAL_GetTick() - tickstart ) > LSI_TIMEOUT_VALUE)
 80014ea:	f7ff fbf3 	bl	8000cd4 <HAL_GetTick>
 80014ee:	4602      	mov	r2, r0
 80014f0:	693b      	ldr	r3, [r7, #16]
 80014f2:	1ad3      	subs	r3, r2, r3
 80014f4:	2b02      	cmp	r3, #2
 80014f6:	d901      	bls.n	80014fc <HAL_RCC_OscConfig+0x240>
        {
          return HAL_TIMEOUT;
 80014f8:	2303      	movs	r3, #3
 80014fa:	e144      	b.n	8001786 <HAL_RCC_OscConfig+0x4ca>
      while(__HAL_RCC_GET_FLAG(RCC_FLAG_LSIRDY) != RESET)
 80014fc:	4b1a      	ldr	r3, [pc, #104]	; (8001568 <HAL_RCC_OscConfig+0x2ac>)
 80014fe:	6f5b      	ldr	r3, [r3, #116]	; 0x74
 8001500:	f003 0302 	and.w	r3, r3, #2
 8001504:	2b00      	cmp	r3, #0
 8001506:	d1f0      	bne.n	80014ea <HAL_RCC_OscConfig+0x22e>
        }
      }
    }
  }
  /*------------------------------ LSE Configuration -------------------------*/
  if(((RCC_OscInitStruct->OscillatorType) & RCC_OSCILLATORTYPE_LSE) == RCC_OSCILLATORTYPE_LSE)
 8001508:	687b      	ldr	r3, [r7, #4]
 800150a:	681b      	ldr	r3, [r3, #0]
 800150c:	f003 0304 	and.w	r3, r3, #4
 8001510:	2b00      	cmp	r3, #0
 8001512:	f000 80a0 	beq.w	8001656 <HAL_RCC_OscConfig+0x39a>
  {
    FlagStatus       pwrclkchanged = RESET;
 8001516:	2300      	movs	r3, #0
 8001518:	75fb      	strb	r3, [r7, #23]
    /* Check the parameters */
    assert_param(IS_RCC_LSE(RCC_OscInitStruct->LSEState));

    /* Update LSE configuration in Backup Domain control register    */
    /* Requires to enable write access to Backup Domain of necessary */
    if(__HAL_RCC_PWR_IS_CLK_DISABLED())
 800151a:	4b13      	ldr	r3, [pc, #76]	; (8001568 <HAL_RCC_OscConfig+0x2ac>)
 800151c:	6c1b      	ldr	r3, [r3, #64]	; 0x40
 800151e:	f003 5380 	and.w	r3, r3, #268435456	; 0x10000000
 8001522:	2b00      	cmp	r3, #0
 8001524:	d10f      	bne.n	8001546 <HAL_RCC_OscConfig+0x28a>
    {
      __HAL_RCC_PWR_CLK_ENABLE();
 8001526:	2300      	movs	r3, #0
 8001528:	60bb      	str	r3, [r7, #8]
 800152a:	4b0f      	ldr	r3, [pc, #60]	; (8001568 <HAL_RCC_OscConfig+0x2ac>)
 800152c:	6c1b      	ldr	r3, [r3, #64]	; 0x40
 800152e:	4a0e      	ldr	r2, [pc, #56]	; (8001568 <HAL_RCC_OscConfig+0x2ac>)
 8001530:	f043 5380 	orr.w	r3, r3, #268435456	; 0x10000000
 8001534:	6413      	str	r3, [r2, #64]	; 0x40
 8001536:	4b0c      	ldr	r3, [pc, #48]	; (8001568 <HAL_RCC_OscConfig+0x2ac>)
 8001538:	6c1b      	ldr	r3, [r3, #64]	; 0x40
 800153a:	f003 5380 	and.w	r3, r3, #268435456	; 0x10000000
 800153e:	60bb      	str	r3, [r7, #8]
 8001540:	68bb      	ldr	r3, [r7, #8]
      pwrclkchanged = SET;
 8001542:	2301      	movs	r3, #1
 8001544:	75fb      	strb	r3, [r7, #23]
    }

    if(HAL_IS_BIT_CLR(PWR->CR, PWR_CR_DBP))
 8001546:	4b0b      	ldr	r3, [pc, #44]	; (8001574 <HAL_RCC_OscConfig+0x2b8>)
 8001548:	681b      	ldr	r3, [r3, #0]
 800154a:	f403 7380 	and.w	r3, r3, #256	; 0x100
 800154e:	2b00      	cmp	r3, #0
 8001550:	d121      	bne.n	8001596 <HAL_RCC_OscConfig+0x2da>
    {
      /* Enable write access to Backup domain */
      SET_BIT(PWR->CR, PWR_CR_DBP);
 8001552:	4b08      	ldr	r3, [pc, #32]	; (8001574 <HAL_RCC_OscConfig+0x2b8>)
 8001554:	681b      	ldr	r3, [r3, #0]
 8001556:	4a07      	ldr	r2, [pc, #28]	; (8001574 <HAL_RCC_OscConfig+0x2b8>)
 8001558:	f443 7380 	orr.w	r3, r3, #256	; 0x100
 800155c:	6013      	str	r3, [r2, #0]

      /* Wait for Backup domain Write protection disable */
      tickstart = HAL_GetTick();
 800155e:	f7ff fbb9 	bl	8000cd4 <HAL_GetTick>
 8001562:	6138      	str	r0, [r7, #16]

      while(HAL_IS_BIT_CLR(PWR->CR, PWR_CR_DBP))
 8001564:	e011      	b.n	800158a <HAL_RCC_OscConfig+0x2ce>
 8001566:	bf00      	nop
 8001568:	40023800 	.word	0x40023800
 800156c:	42470000 	.word	0x42470000
 8001570:	42470e80 	.word	0x42470e80
 8001574:	40007000 	.word	0x40007000
      {
        if((HAL_GetTick() - tickstart) > RCC_DBP_TIMEOUT_VALUE)
 8001578:	f7ff fbac 	bl	8000cd4 <HAL_GetTick>
 800157c:	4602      	mov	r2, r0
 800157e:	693b      	ldr	r3, [r7, #16]
 8001580:	1ad3      	subs	r3, r2, r3
 8001582:	2b02      	cmp	r3, #2
 8001584:	d901      	bls.n	800158a <HAL_RCC_OscConfig+0x2ce>
        {
          return HAL_TIMEOUT;
 8001586:	2303      	movs	r3, #3
 8001588:	e0fd      	b.n	8001786 <HAL_RCC_OscConfig+0x4ca>
      while(HAL_IS_BIT_CLR(PWR->CR, PWR_CR_DBP))
 800158a:	4b81      	ldr	r3, [pc, #516]	; (8001790 <HAL_RCC_OscConfig+0x4d4>)
 800158c:	681b      	ldr	r3, [r3, #0]
 800158e:	f403 7380 	and.w	r3, r3, #256	; 0x100
 8001592:	2b00      	cmp	r3, #0
 8001594:	d0f0      	beq.n	8001578 <HAL_RCC_OscConfig+0x2bc>
        }
      }
    }

    /* Set the new LSE configuration -----------------------------------------*/
    __HAL_RCC_LSE_CONFIG(RCC_OscInitStruct->LSEState);
 8001596:	687b      	ldr	r3, [r7, #4]
 8001598:	689b      	ldr	r3, [r3, #8]
 800159a:	2b01      	cmp	r3, #1
 800159c:	d106      	bne.n	80015ac <HAL_RCC_OscConfig+0x2f0>
 800159e:	4b7d      	ldr	r3, [pc, #500]	; (8001794 <HAL_RCC_OscConfig+0x4d8>)
 80015a0:	6f1b      	ldr	r3, [r3, #112]	; 0x70
 80015a2:	4a7c      	ldr	r2, [pc, #496]	; (8001794 <HAL_RCC_OscConfig+0x4d8>)
 80015a4:	f043 0301 	orr.w	r3, r3, #1
 80015a8:	6713      	str	r3, [r2, #112]	; 0x70
 80015aa:	e01c      	b.n	80015e6 <HAL_RCC_OscConfig+0x32a>
 80015ac:	687b      	ldr	r3, [r7, #4]
 80015ae:	689b      	ldr	r3, [r3, #8]
 80015b0:	2b05      	cmp	r3, #5
 80015b2:	d10c      	bne.n	80015ce <HAL_RCC_OscConfig+0x312>
 80015b4:	4b77      	ldr	r3, [pc, #476]	; (8001794 <HAL_RCC_OscConfig+0x4d8>)
 80015b6:	6f1b      	ldr	r3, [r3, #112]	; 0x70
 80015b8:	4a76      	ldr	r2, [pc, #472]	; (8001794 <HAL_RCC_OscConfig+0x4d8>)
 80015ba:	f043 0304 	orr.w	r3, r3, #4
 80015be:	6713      	str	r3, [r2, #112]	; 0x70
 80015c0:	4b74      	ldr	r3, [pc, #464]	; (8001794 <HAL_RCC_OscConfig+0x4d8>)
 80015c2:	6f1b      	ldr	r3, [r3, #112]	; 0x70
 80015c4:	4a73      	ldr	r2, [pc, #460]	; (8001794 <HAL_RCC_OscConfig+0x4d8>)
 80015c6:	f043 0301 	orr.w	r3, r3, #1
 80015ca:	6713      	str	r3, [r2, #112]	; 0x70
 80015cc:	e00b      	b.n	80015e6 <HAL_RCC_OscConfig+0x32a>
 80015ce:	4b71      	ldr	r3, [pc, #452]	; (8001794 <HAL_RCC_OscConfig+0x4d8>)
 80015d0:	6f1b      	ldr	r3, [r3, #112]	; 0x70
 80015d2:	4a70      	ldr	r2, [pc, #448]	; (8001794 <HAL_RCC_OscConfig+0x4d8>)
 80015d4:	f023 0301 	bic.w	r3, r3, #1
 80015d8:	6713      	str	r3, [r2, #112]	; 0x70
 80015da:	4b6e      	ldr	r3, [pc, #440]	; (8001794 <HAL_RCC_OscConfig+0x4d8>)
 80015dc:	6f1b      	ldr	r3, [r3, #112]	; 0x70
 80015de:	4a6d      	ldr	r2, [pc, #436]	; (8001794 <HAL_RCC_OscConfig+0x4d8>)
 80015e0:	f023 0304 	bic.w	r3, r3, #4
 80015e4:	6713      	str	r3, [r2, #112]	; 0x70
    /* Check the LSE State */
    if((RCC_OscInitStruct->LSEState) != RCC_LSE_OFF)
 80015e6:	687b      	ldr	r3, [r7, #4]
 80015e8:	689b      	ldr	r3, [r3, #8]
 80015ea:	2b00      	cmp	r3, #0
 80015ec:	d015      	beq.n	800161a <HAL_RCC_OscConfig+0x35e>
    {
      /* Get Start Tick*/
      tickstart = HAL_GetTick();
 80015ee:	f7ff fb71 	bl	8000cd4 <HAL_GetTick>
 80015f2:	6138      	str	r0, [r7, #16]

      /* Wait till LSE is ready */
      while(__HAL_RCC_GET_FLAG(RCC_FLAG_LSERDY) == RESET)
 80015f4:	e00a      	b.n	800160c <HAL_RCC_OscConfig+0x350>
      {
        if((HAL_GetTick() - tickstart ) > RCC_LSE_TIMEOUT_VALUE)
 80015f6:	f7ff fb6d 	bl	8000cd4 <HAL_GetTick>
 80015fa:	4602      	mov	r2, r0
 80015fc:	693b      	ldr	r3, [r7, #16]
 80015fe:	1ad3      	subs	r3, r2, r3
 8001600:	f241 3288 	movw	r2, #5000	; 0x1388
 8001604:	4293      	cmp	r3, r2
 8001606:	d901      	bls.n	800160c <HAL_RCC_OscConfig+0x350>
        {
          return HAL_TIMEOUT;
 8001608:	2303      	movs	r3, #3
 800160a:	e0bc      	b.n	8001786 <HAL_RCC_OscConfig+0x4ca>
      while(__HAL_RCC_GET_FLAG(RCC_FLAG_LSERDY) == RESET)
 800160c:	4b61      	ldr	r3, [pc, #388]	; (8001794 <HAL_RCC_OscConfig+0x4d8>)
 800160e:	6f1b      	ldr	r3, [r3, #112]	; 0x70
 8001610:	f003 0302 	and.w	r3, r3, #2
 8001614:	2b00      	cmp	r3, #0
 8001616:	d0ee      	beq.n	80015f6 <HAL_RCC_OscConfig+0x33a>
 8001618:	e014      	b.n	8001644 <HAL_RCC_OscConfig+0x388>
      }
    }
    else
    {
      /* Get Start Tick */
      tickstart = HAL_GetTick();
 800161a:	f7ff fb5b 	bl	8000cd4 <HAL_GetTick>
 800161e:	6138      	str	r0, [r7, #16]

      /* Wait till LSE is ready */
      while(__HAL_RCC_GET_FLAG(RCC_FLAG_LSERDY) != RESET)
 8001620:	e00a      	b.n	8001638 <HAL_RCC_OscConfig+0x37c>
      {
        if((HAL_GetTick() - tickstart ) > RCC_LSE_TIMEOUT_VALUE)
 8001622:	f7ff fb57 	bl	8000cd4 <HAL_GetTick>
 8001626:	4602      	mov	r2, r0
 8001628:	693b      	ldr	r3, [r7, #16]
 800162a:	1ad3      	subs	r3, r2, r3
 800162c:	f241 3288 	movw	r2, #5000	; 0x1388
 8001630:	4293      	cmp	r3, r2
 8001632:	d901      	bls.n	8001638 <HAL_RCC_OscConfig+0x37c>
        {
          return HAL_TIMEOUT;
 8001634:	2303      	movs	r3, #3
 8001636:	e0a6      	b.n	8001786 <HAL_RCC_OscConfig+0x4ca>
      while(__HAL_RCC_GET_FLAG(RCC_FLAG_LSERDY) != RESET)
 8001638:	4b56      	ldr	r3, [pc, #344]	; (8001794 <HAL_RCC_OscConfig+0x4d8>)
 800163a:	6f1b      	ldr	r3, [r3, #112]	; 0x70
 800163c:	f003 0302 	and.w	r3, r3, #2
 8001640:	2b00      	cmp	r3, #0
 8001642:	d1ee      	bne.n	8001622 <HAL_RCC_OscConfig+0x366>
        }
      }
    }

    /* Restore clock configuration if changed */
    if(pwrclkchanged == SET)
 8001644:	7dfb      	ldrb	r3, [r7, #23]
 8001646:	2b01      	cmp	r3, #1
 8001648:	d105      	bne.n	8001656 <HAL_RCC_OscConfig+0x39a>
    {
      __HAL_RCC_PWR_CLK_DISABLE();
 800164a:	4b52      	ldr	r3, [pc, #328]	; (8001794 <HAL_RCC_OscConfig+0x4d8>)
 800164c:	6c1b      	ldr	r3, [r3, #64]	; 0x40
 800164e:	4a51      	ldr	r2, [pc, #324]	; (8001794 <HAL_RCC_OscConfig+0x4d8>)
 8001650:	f023 5380 	bic.w	r3, r3, #268435456	; 0x10000000
 8001654:	6413      	str	r3, [r2, #64]	; 0x40
    }
  }
  /*-------------------------------- PLL Configuration -----------------------*/
  /* Check the parameters */
  assert_param(IS_RCC_PLL(RCC_OscInitStruct->PLL.PLLState));
  if ((RCC_OscInitStruct->PLL.PLLState) != RCC_PLL_NONE)
 8001656:	687b      	ldr	r3, [r7, #4]
 8001658:	699b      	ldr	r3, [r3, #24]
 800165a:	2b00      	cmp	r3, #0
 800165c:	f000 8092 	beq.w	8001784 <HAL_RCC_OscConfig+0x4c8>
  {
    /* Check if the PLL is used as system clock or not */
    if(__HAL_RCC_GET_SYSCLK_SOURCE() != RCC_CFGR_SWS_PLL)
 8001660:	4b4c      	ldr	r3, [pc, #304]	; (8001794 <HAL_RCC_OscConfig+0x4d8>)
 8001662:	689b      	ldr	r3, [r3, #8]
 8001664:	f003 030c 	and.w	r3, r3, #12
 8001668:	2b08      	cmp	r3, #8
 800166a:	d05c      	beq.n	8001726 <HAL_RCC_OscConfig+0x46a>
    {
      if((RCC_OscInitStruct->PLL.PLLState) == RCC_PLL_ON)
 800166c:	687b      	ldr	r3, [r7, #4]
 800166e:	699b      	ldr	r3, [r3, #24]
 8001670:	2b02      	cmp	r3, #2
 8001672:	d141      	bne.n	80016f8 <HAL_RCC_OscConfig+0x43c>
        assert_param(IS_RCC_PLLN_VALUE(RCC_OscInitStruct->PLL.PLLN));
        assert_param(IS_RCC_PLLP_VALUE(RCC_OscInitStruct->PLL.PLLP));
        assert_param(IS_RCC_PLLQ_VALUE(RCC_OscInitStruct->PLL.PLLQ));

        /* Disable the main PLL. */
        __HAL_RCC_PLL_DISABLE();
 8001674:	4b48      	ldr	r3, [pc, #288]	; (8001798 <HAL_RCC_OscConfig+0x4dc>)
 8001676:	2200      	movs	r2, #0
 8001678:	601a      	str	r2, [r3, #0]

        /* Get Start Tick */
        tickstart = HAL_GetTick();
 800167a:	f7ff fb2b 	bl	8000cd4 <HAL_GetTick>
 800167e:	6138      	str	r0, [r7, #16]

        /* Wait till PLL is ready */
        while(__HAL_RCC_GET_FLAG(RCC_FLAG_PLLRDY) != RESET)
 8001680:	e008      	b.n	8001694 <HAL_RCC_OscConfig+0x3d8>
        {
          if((HAL_GetTick() - tickstart ) > PLL_TIMEOUT_VALUE)
 8001682:	f7ff fb27 	bl	8000cd4 <HAL_GetTick>
 8001686:	4602      	mov	r2, r0
 8001688:	693b      	ldr	r3, [r7, #16]
 800168a:	1ad3      	subs	r3, r2, r3
 800168c:	2b02      	cmp	r3, #2
 800168e:	d901      	bls.n	8001694 <HAL_RCC_OscConfig+0x3d8>
          {
            return HAL_TIMEOUT;
 8001690:	2303      	movs	r3, #3
 8001692:	e078      	b.n	8001786 <HAL_RCC_OscConfig+0x4ca>
        while(__HAL_RCC_GET_FLAG(RCC_FLAG_PLLRDY) != RESET)
 8001694:	4b3f      	ldr	r3, [pc, #252]	; (8001794 <HAL_RCC_OscConfig+0x4d8>)
 8001696:	681b      	ldr	r3, [r3, #0]
 8001698:	f003 7300 	and.w	r3, r3, #33554432	; 0x2000000
 800169c:	2b00      	cmp	r3, #0
 800169e:	d1f0      	bne.n	8001682 <HAL_RCC_OscConfig+0x3c6>
          }
        }

        /* Configure the main PLL clock source, multiplication and division factors. */
        WRITE_REG(RCC->PLLCFGR, (RCC_OscInitStruct->PLL.PLLSource                                            | \
 80016a0:	687b      	ldr	r3, [r7, #4]
 80016a2:	69da      	ldr	r2, [r3, #28]
 80016a4:	687b      	ldr	r3, [r7, #4]
 80016a6:	6a1b      	ldr	r3, [r3, #32]
 80016a8:	431a      	orrs	r2, r3
 80016aa:	687b      	ldr	r3, [r7, #4]
 80016ac:	6a5b      	ldr	r3, [r3, #36]	; 0x24
 80016ae:	019b      	lsls	r3, r3, #6
 80016b0:	431a      	orrs	r2, r3
 80016b2:	687b      	ldr	r3, [r7, #4]
 80016b4:	6a9b      	ldr	r3, [r3, #40]	; 0x28
 80016b6:	085b      	lsrs	r3, r3, #1
 80016b8:	3b01      	subs	r3, #1
 80016ba:	041b      	lsls	r3, r3, #16
 80016bc:	431a      	orrs	r2, r3
 80016be:	687b      	ldr	r3, [r7, #4]
 80016c0:	6adb      	ldr	r3, [r3, #44]	; 0x2c
 80016c2:	061b      	lsls	r3, r3, #24
 80016c4:	4933      	ldr	r1, [pc, #204]	; (8001794 <HAL_RCC_OscConfig+0x4d8>)
 80016c6:	4313      	orrs	r3, r2
 80016c8:	604b      	str	r3, [r1, #4]
                                 RCC_OscInitStruct->PLL.PLLM                                                 | \
                                 (RCC_OscInitStruct->PLL.PLLN << RCC_PLLCFGR_PLLN_Pos)             | \
                                 (((RCC_OscInitStruct->PLL.PLLP >> 1U) - 1U) << RCC_PLLCFGR_PLLP_Pos) | \
                                 (RCC_OscInitStruct->PLL.PLLQ << RCC_PLLCFGR_PLLQ_Pos)));
        /* Enable the main PLL. */
        __HAL_RCC_PLL_ENABLE();
 80016ca:	4b33      	ldr	r3, [pc, #204]	; (8001798 <HAL_RCC_OscConfig+0x4dc>)
 80016cc:	2201      	movs	r2, #1
 80016ce:	601a      	str	r2, [r3, #0]

        /* Get Start Tick */
        tickstart = HAL_GetTick();
 80016d0:	f7ff fb00 	bl	8000cd4 <HAL_GetTick>
 80016d4:	6138      	str	r0, [r7, #16]

        /* Wait till PLL is ready */
        while(__HAL_RCC_GET_FLAG(RCC_FLAG_PLLRDY) == RESET)
 80016d6:	e008      	b.n	80016ea <HAL_RCC_OscConfig+0x42e>
        {
          if((HAL_GetTick() - tickstart ) > PLL_TIMEOUT_VALUE)
 80016d8:	f7ff fafc 	bl	8000cd4 <HAL_GetTick>
 80016dc:	4602      	mov	r2, r0
 80016de:	693b      	ldr	r3, [r7, #16]
 80016e0:	1ad3      	subs	r3, r2, r3
 80016e2:	2b02      	cmp	r3, #2
 80016e4:	d901      	bls.n	80016ea <HAL_RCC_OscConfig+0x42e>
          {
            return HAL_TIMEOUT;
 80016e6:	2303      	movs	r3, #3
 80016e8:	e04d      	b.n	8001786 <HAL_RCC_OscConfig+0x4ca>
        while(__HAL_RCC_GET_FLAG(RCC_FLAG_PLLRDY) == RESET)
 80016ea:	4b2a      	ldr	r3, [pc, #168]	; (8001794 <HAL_RCC_OscConfig+0x4d8>)
 80016ec:	681b      	ldr	r3, [r3, #0]
 80016ee:	f003 7300 	and.w	r3, r3, #33554432	; 0x2000000
 80016f2:	2b00      	cmp	r3, #0
 80016f4:	d0f0      	beq.n	80016d8 <HAL_RCC_OscConfig+0x41c>
 80016f6:	e045      	b.n	8001784 <HAL_RCC_OscConfig+0x4c8>
        }
      }
      else
      {
        /* Disable the main PLL. */
        __HAL_RCC_PLL_DISABLE();
 80016f8:	4b27      	ldr	r3, [pc, #156]	; (8001798 <HAL_RCC_OscConfig+0x4dc>)
 80016fa:	2200      	movs	r2, #0
 80016fc:	601a      	str	r2, [r3, #0]

        /* Get Start Tick */
        tickstart = HAL_GetTick();
 80016fe:	f7ff fae9 	bl	8000cd4 <HAL_GetTick>
 8001702:	6138      	str	r0, [r7, #16]

        /* Wait till PLL is ready */
        while(__HAL_RCC_GET_FLAG(RCC_FLAG_PLLRDY) != RESET)
 8001704:	e008      	b.n	8001718 <HAL_RCC_OscConfig+0x45c>
        {
          if((HAL_GetTick() - tickstart ) > PLL_TIMEOUT_VALUE)
 8001706:	f7ff fae5 	bl	8000cd4 <HAL_GetTick>
 800170a:	4602      	mov	r2, r0
 800170c:	693b      	ldr	r3, [r7, #16]
 800170e:	1ad3      	subs	r3, r2, r3
 8001710:	2b02      	cmp	r3, #2
 8001712:	d901      	bls.n	8001718 <HAL_RCC_OscConfig+0x45c>
          {
            return HAL_TIMEOUT;
 8001714:	2303      	movs	r3, #3
 8001716:	e036      	b.n	8001786 <HAL_RCC_OscConfig+0x4ca>
        while(__HAL_RCC_GET_FLAG(RCC_FLAG_PLLRDY) != RESET)
 8001718:	4b1e      	ldr	r3, [pc, #120]	; (8001794 <HAL_RCC_OscConfig+0x4d8>)
 800171a:	681b      	ldr	r3, [r3, #0]
 800171c:	f003 7300 	and.w	r3, r3, #33554432	; 0x2000000
 8001720:	2b00      	cmp	r3, #0
 8001722:	d1f0      	bne.n	8001706 <HAL_RCC_OscConfig+0x44a>
 8001724:	e02e      	b.n	8001784 <HAL_RCC_OscConfig+0x4c8>
      }
    }
    else
    {
      /* Check if there is a request to disable the PLL used as System clock source */
      if((RCC_OscInitStruct->PLL.PLLState) == RCC_PLL_OFF)
 8001726:	687b      	ldr	r3, [r7, #4]
 8001728:	699b      	ldr	r3, [r3, #24]
 800172a:	2b01      	cmp	r3, #1
 800172c:	d101      	bne.n	8001732 <HAL_RCC_OscConfig+0x476>
      {
        return HAL_ERROR;
 800172e:	2301      	movs	r3, #1
 8001730:	e029      	b.n	8001786 <HAL_RCC_OscConfig+0x4ca>
      }
      else
      {
        /* Do not return HAL_ERROR if request repeats the current configuration */
        pll_config = RCC->PLLCFGR;
 8001732:	4b18      	ldr	r3, [pc, #96]	; (8001794 <HAL_RCC_OscConfig+0x4d8>)
 8001734:	685b      	ldr	r3, [r3, #4]
 8001736:	60fb      	str	r3, [r7, #12]
        if((READ_BIT(pll_config, RCC_PLLCFGR_PLLSRC) != RCC_OscInitStruct->PLL.PLLSource) ||
 8001738:	68fb      	ldr	r3, [r7, #12]
 800173a:	f403 0280 	and.w	r2, r3, #4194304	; 0x400000
 800173e:	687b      	ldr	r3, [r7, #4]
 8001740:	69db      	ldr	r3, [r3, #28]
 8001742:	429a      	cmp	r2, r3
 8001744:	d11c      	bne.n	8001780 <HAL_RCC_OscConfig+0x4c4>
           (READ_BIT(pll_config, RCC_PLLCFGR_PLLM) != RCC_OscInitStruct->PLL.PLLM) ||
 8001746:	68fb      	ldr	r3, [r7, #12]
 8001748:	f003 023f 	and.w	r2, r3, #63	; 0x3f
 800174c:	687b      	ldr	r3, [r7, #4]
 800174e:	6a1b      	ldr	r3, [r3, #32]
        if((READ_BIT(pll_config, RCC_PLLCFGR_PLLSRC) != RCC_OscInitStruct->PLL.PLLSource) ||
 8001750:	429a      	cmp	r2, r3
 8001752:	d115      	bne.n	8001780 <HAL_RCC_OscConfig+0x4c4>
           (READ_BIT(pll_config, RCC_PLLCFGR_PLLN) != RCC_OscInitStruct->PLL.PLLN) ||
 8001754:	68fa      	ldr	r2, [r7, #12]
 8001756:	f647 73c0 	movw	r3, #32704	; 0x7fc0
 800175a:	4013      	ands	r3, r2
 800175c:	687a      	ldr	r2, [r7, #4]
 800175e:	6a52      	ldr	r2, [r2, #36]	; 0x24
           (READ_BIT(pll_config, RCC_PLLCFGR_PLLM) != RCC_OscInitStruct->PLL.PLLM) ||
 8001760:	4293      	cmp	r3, r2
 8001762:	d10d      	bne.n	8001780 <HAL_RCC_OscConfig+0x4c4>
           (READ_BIT(pll_config, RCC_PLLCFGR_PLLP) != RCC_OscInitStruct->PLL.PLLP) ||
 8001764:	68fb      	ldr	r3, [r7, #12]
 8001766:	f403 3240 	and.w	r2, r3, #196608	; 0x30000
 800176a:	687b      	ldr	r3, [r7, #4]
 800176c:	6a9b      	ldr	r3, [r3, #40]	; 0x28
           (READ_BIT(pll_config, RCC_PLLCFGR_PLLN) != RCC_OscInitStruct->PLL.PLLN) ||
 800176e:	429a      	cmp	r2, r3
 8001770:	d106      	bne.n	8001780 <HAL_RCC_OscConfig+0x4c4>
           (READ_BIT(pll_config, RCC_PLLCFGR_PLLQ) != RCC_OscInitStruct->PLL.PLLQ))
 8001772:	68fb      	ldr	r3, [r7, #12]
 8001774:	f003 6270 	and.w	r2, r3, #251658240	; 0xf000000
 8001778:	687b      	ldr	r3, [r7, #4]
 800177a:	6adb      	ldr	r3, [r3, #44]	; 0x2c
           (READ_BIT(pll_config, RCC_PLLCFGR_PLLP) != RCC_OscInitStruct->PLL.PLLP) ||
 800177c:	429a      	cmp	r2, r3
 800177e:	d001      	beq.n	8001784 <HAL_RCC_OscConfig+0x4c8>
        {
          return HAL_ERROR;
 8001780:	2301      	movs	r3, #1
 8001782:	e000      	b.n	8001786 <HAL_RCC_OscConfig+0x4ca>
        }
      }
    }
  }
  return HAL_OK;
 8001784:	2300      	movs	r3, #0
}
 8001786:	4618      	mov	r0, r3
 8001788:	3718      	adds	r7, #24
 800178a:	46bd      	mov	sp, r7
 800178c:	bd80      	pop	{r7, pc}
 800178e:	bf00      	nop
 8001790:	40007000 	.word	0x40007000
 8001794:	40023800 	.word	0x40023800
 8001798:	42470060 	.word	0x42470060

0800179c <HAL_RCC_ClockConfig>:
  *         HPRE[3:0] bits to ensure that HCLK not exceed the maximum allowed frequency
  *         (for more details refer to section above "Initialization/de-initialization functions")
  * @retval None
  */
HAL_StatusTypeDef HAL_RCC_ClockConfig(RCC_ClkInitTypeDef  *RCC_ClkInitStruct, uint32_t FLatency)
{
 800179c:	b580      	push	{r7, lr}
 800179e:	b084      	sub	sp, #16
 80017a0:	af00      	add	r7, sp, #0
 80017a2:	6078      	str	r0, [r7, #4]
 80017a4:	6039      	str	r1, [r7, #0]
  uint32_t tickstart;

  /* Check Null pointer */
  if(RCC_ClkInitStruct == NULL)
 80017a6:	687b      	ldr	r3, [r7, #4]
 80017a8:	2b00      	cmp	r3, #0
 80017aa:	d101      	bne.n	80017b0 <HAL_RCC_ClockConfig+0x14>
  {
    return HAL_ERROR;
 80017ac:	2301      	movs	r3, #1
 80017ae:	e0cc      	b.n	800194a <HAL_RCC_ClockConfig+0x1ae>
  /* To correctly read data from FLASH memory, the number of wait states (LATENCY)
    must be correctly programmed according to the frequency of the CPU clock
    (HCLK) and the supply voltage of the device. */

  /* Increasing the number of wait states because of higher CPU frequency */
  if(FLatency > __HAL_FLASH_GET_LATENCY())
 80017b0:	4b68      	ldr	r3, [pc, #416]	; (8001954 <HAL_RCC_ClockConfig+0x1b8>)
 80017b2:	681b      	ldr	r3, [r3, #0]
 80017b4:	f003 030f 	and.w	r3, r3, #15
 80017b8:	683a      	ldr	r2, [r7, #0]
 80017ba:	429a      	cmp	r2, r3
 80017bc:	d90c      	bls.n	80017d8 <HAL_RCC_ClockConfig+0x3c>
  {
    /* Program the new number of wait states to the LATENCY bits in the FLASH_ACR register */
    __HAL_FLASH_SET_LATENCY(FLatency);
 80017be:	4b65      	ldr	r3, [pc, #404]	; (8001954 <HAL_RCC_ClockConfig+0x1b8>)
 80017c0:	683a      	ldr	r2, [r7, #0]
 80017c2:	b2d2      	uxtb	r2, r2
 80017c4:	701a      	strb	r2, [r3, #0]

    /* Check that the new number of wait states is taken into account to access the Flash
    memory by reading the FLASH_ACR register */
    if(__HAL_FLASH_GET_LATENCY() != FLatency)
 80017c6:	4b63      	ldr	r3, [pc, #396]	; (8001954 <HAL_RCC_ClockConfig+0x1b8>)
 80017c8:	681b      	ldr	r3, [r3, #0]
 80017ca:	f003 030f 	and.w	r3, r3, #15
 80017ce:	683a      	ldr	r2, [r7, #0]
 80017d0:	429a      	cmp	r2, r3
 80017d2:	d001      	beq.n	80017d8 <HAL_RCC_ClockConfig+0x3c>
    {
      return HAL_ERROR;
 80017d4:	2301      	movs	r3, #1
 80017d6:	e0b8      	b.n	800194a <HAL_RCC_ClockConfig+0x1ae>
    }
  }

  /*-------------------------- HCLK Configuration --------------------------*/
  if(((RCC_ClkInitStruct->ClockType) & RCC_CLOCKTYPE_HCLK) == RCC_CLOCKTYPE_HCLK)
 80017d8:	687b      	ldr	r3, [r7, #4]
 80017da:	681b      	ldr	r3, [r3, #0]
 80017dc:	f003 0302 	and.w	r3, r3, #2
 80017e0:	2b00      	cmp	r3, #0
 80017e2:	d020      	beq.n	8001826 <HAL_RCC_ClockConfig+0x8a>
  {
    /* Set the highest APBx dividers in order to ensure that we do not go through
       a non-spec phase whatever we decrease or increase HCLK. */
    if(((RCC_ClkInitStruct->ClockType) & RCC_CLOCKTYPE_PCLK1) == RCC_CLOCKTYPE_PCLK1)
 80017e4:	687b      	ldr	r3, [r7, #4]
 80017e6:	681b      	ldr	r3, [r3, #0]
 80017e8:	f003 0304 	and.w	r3, r3, #4
 80017ec:	2b00      	cmp	r3, #0
 80017ee:	d005      	beq.n	80017fc <HAL_RCC_ClockConfig+0x60>
    {
      MODIFY_REG(RCC->CFGR, RCC_CFGR_PPRE1, RCC_HCLK_DIV16);
 80017f0:	4b59      	ldr	r3, [pc, #356]	; (8001958 <HAL_RCC_ClockConfig+0x1bc>)
 80017f2:	689b      	ldr	r3, [r3, #8]
 80017f4:	4a58      	ldr	r2, [pc, #352]	; (8001958 <HAL_RCC_ClockConfig+0x1bc>)
 80017f6:	f443 53e0 	orr.w	r3, r3, #7168	; 0x1c00
 80017fa:	6093      	str	r3, [r2, #8]
    }

    if(((RCC_ClkInitStruct->ClockType) & RCC_CLOCKTYPE_PCLK2) == RCC_CLOCKTYPE_PCLK2)
 80017fc:	687b      	ldr	r3, [r7, #4]
 80017fe:	681b      	ldr	r3, [r3, #0]
 8001800:	f003 0308 	and.w	r3, r3, #8
 8001804:	2b00      	cmp	r3, #0
 8001806:	d005      	beq.n	8001814 <HAL_RCC_ClockConfig+0x78>
    {
      MODIFY_REG(RCC->CFGR, RCC_CFGR_PPRE2, (RCC_HCLK_DIV16 << 3));
 8001808:	4b53      	ldr	r3, [pc, #332]	; (8001958 <HAL_RCC_ClockConfig+0x1bc>)
 800180a:	689b      	ldr	r3, [r3, #8]
 800180c:	4a52      	ldr	r2, [pc, #328]	; (8001958 <HAL_RCC_ClockConfig+0x1bc>)
 800180e:	f443 4360 	orr.w	r3, r3, #57344	; 0xe000
 8001812:	6093      	str	r3, [r2, #8]
    }

    assert_param(IS_RCC_HCLK(RCC_ClkInitStruct->AHBCLKDivider));
    MODIFY_REG(RCC->CFGR, RCC_CFGR_HPRE, RCC_ClkInitStruct->AHBCLKDivider);
 8001814:	4b50      	ldr	r3, [pc, #320]	; (8001958 <HAL_RCC_ClockConfig+0x1bc>)
 8001816:	689b      	ldr	r3, [r3, #8]
 8001818:	f023 02f0 	bic.w	r2, r3, #240	; 0xf0
 800181c:	687b      	ldr	r3, [r7, #4]
 800181e:	689b      	ldr	r3, [r3, #8]
 8001820:	494d      	ldr	r1, [pc, #308]	; (8001958 <HAL_RCC_ClockConfig+0x1bc>)
 8001822:	4313      	orrs	r3, r2
 8001824:	608b      	str	r3, [r1, #8]
  }

  /*------------------------- SYSCLK Configuration ---------------------------*/
  if(((RCC_ClkInitStruct->ClockType) & RCC_CLOCKTYPE_SYSCLK) == RCC_CLOCKTYPE_SYSCLK)
 8001826:	687b      	ldr	r3, [r7, #4]
 8001828:	681b      	ldr	r3, [r3, #0]
 800182a:	f003 0301 	and.w	r3, r3, #1
 800182e:	2b00      	cmp	r3, #0
 8001830:	d044      	beq.n	80018bc <HAL_RCC_ClockConfig+0x120>
  {
    assert_param(IS_RCC_SYSCLKSOURCE(RCC_ClkInitStruct->SYSCLKSource));

    /* HSE is selected as System Clock Source */
    if(RCC_ClkInitStruct->SYSCLKSource == RCC_SYSCLKSOURCE_HSE)
 8001832:	687b      	ldr	r3, [r7, #4]
 8001834:	685b      	ldr	r3, [r3, #4]
 8001836:	2b01      	cmp	r3, #1
 8001838:	d107      	bne.n	800184a <HAL_RCC_ClockConfig+0xae>
    {
      /* Check the HSE ready flag */
      if(__HAL_RCC_GET_FLAG(RCC_FLAG_HSERDY) == RESET)
 800183a:	4b47      	ldr	r3, [pc, #284]	; (8001958 <HAL_RCC_ClockConfig+0x1bc>)
 800183c:	681b      	ldr	r3, [r3, #0]
 800183e:	f403 3300 	and.w	r3, r3, #131072	; 0x20000
 8001842:	2b00      	cmp	r3, #0
 8001844:	d119      	bne.n	800187a <HAL_RCC_ClockConfig+0xde>
      {
        return HAL_ERROR;
 8001846:	2301      	movs	r3, #1
 8001848:	e07f      	b.n	800194a <HAL_RCC_ClockConfig+0x1ae>
      }
    }
    /* PLL is selected as System Clock Source */
    else if((RCC_ClkInitStruct->SYSCLKSource == RCC_SYSCLKSOURCE_PLLCLK)   ||
 800184a:	687b      	ldr	r3, [r7, #4]
 800184c:	685b      	ldr	r3, [r3, #4]
 800184e:	2b02      	cmp	r3, #2
 8001850:	d003      	beq.n	800185a <HAL_RCC_ClockConfig+0xbe>
            (RCC_ClkInitStruct->SYSCLKSource == RCC_SYSCLKSOURCE_PLLRCLK))
 8001852:	687b      	ldr	r3, [r7, #4]
 8001854:	685b      	ldr	r3, [r3, #4]
    else if((RCC_ClkInitStruct->SYSCLKSource == RCC_SYSCLKSOURCE_PLLCLK)   ||
 8001856:	2b03      	cmp	r3, #3
 8001858:	d107      	bne.n	800186a <HAL_RCC_ClockConfig+0xce>
    {
      /* Check the PLL ready flag */
      if(__HAL_RCC_GET_FLAG(RCC_FLAG_PLLRDY) == RESET)
 800185a:	4b3f      	ldr	r3, [pc, #252]	; (8001958 <HAL_RCC_ClockConfig+0x1bc>)
 800185c:	681b      	ldr	r3, [r3, #0]
 800185e:	f003 7300 	and.w	r3, r3, #33554432	; 0x2000000
 8001862:	2b00      	cmp	r3, #0
 8001864:	d109      	bne.n	800187a <HAL_RCC_ClockConfig+0xde>
      {
        return HAL_ERROR;
 8001866:	2301      	movs	r3, #1
 8001868:	e06f      	b.n	800194a <HAL_RCC_ClockConfig+0x1ae>
    }
    /* HSI is selected as System Clock Source */
    else
    {
      /* Check the HSI ready flag */
      if(__HAL_RCC_GET_FLAG(RCC_FLAG_HSIRDY) == RESET)
 800186a:	4b3b      	ldr	r3, [pc, #236]	; (8001958 <HAL_RCC_ClockConfig+0x1bc>)
 800186c:	681b      	ldr	r3, [r3, #0]
 800186e:	f003 0302 	and.w	r3, r3, #2
 8001872:	2b00      	cmp	r3, #0
 8001874:	d101      	bne.n	800187a <HAL_RCC_ClockConfig+0xde>
      {
        return HAL_ERROR;
 8001876:	2301      	movs	r3, #1
 8001878:	e067      	b.n	800194a <HAL_RCC_ClockConfig+0x1ae>
      }
    }

    __HAL_RCC_SYSCLK_CONFIG(RCC_ClkInitStruct->SYSCLKSource);
 800187a:	4b37      	ldr	r3, [pc, #220]	; (8001958 <HAL_RCC_ClockConfig+0x1bc>)
 800187c:	689b      	ldr	r3, [r3, #8]
 800187e:	f023 0203 	bic.w	r2, r3, #3
 8001882:	687b      	ldr	r3, [r7, #4]
 8001884:	685b      	ldr	r3, [r3, #4]
 8001886:	4934      	ldr	r1, [pc, #208]	; (8001958 <HAL_RCC_ClockConfig+0x1bc>)
 8001888:	4313      	orrs	r3, r2
 800188a:	608b      	str	r3, [r1, #8]

    /* Get Start Tick */
    tickstart = HAL_GetTick();
 800188c:	f7ff fa22 	bl	8000cd4 <HAL_GetTick>
 8001890:	60f8      	str	r0, [r7, #12]

    while (__HAL_RCC_GET_SYSCLK_SOURCE() != (RCC_ClkInitStruct->SYSCLKSource << RCC_CFGR_SWS_Pos))
 8001892:	e00a      	b.n	80018aa <HAL_RCC_ClockConfig+0x10e>
    {
      if ((HAL_GetTick() - tickstart) > CLOCKSWITCH_TIMEOUT_VALUE)
 8001894:	f7ff fa1e 	bl	8000cd4 <HAL_GetTick>
 8001898:	4602      	mov	r2, r0
 800189a:	68fb      	ldr	r3, [r7, #12]
 800189c:	1ad3      	subs	r3, r2, r3
 800189e:	f241 3288 	movw	r2, #5000	; 0x1388
 80018a2:	4293      	cmp	r3, r2
 80018a4:	d901      	bls.n	80018aa <HAL_RCC_ClockConfig+0x10e>
      {
        return HAL_TIMEOUT;
 80018a6:	2303      	movs	r3, #3
 80018a8:	e04f      	b.n	800194a <HAL_RCC_ClockConfig+0x1ae>
    while (__HAL_RCC_GET_SYSCLK_SOURCE() != (RCC_ClkInitStruct->SYSCLKSource << RCC_CFGR_SWS_Pos))
 80018aa:	4b2b      	ldr	r3, [pc, #172]	; (8001958 <HAL_RCC_ClockConfig+0x1bc>)
 80018ac:	689b      	ldr	r3, [r3, #8]
 80018ae:	f003 020c 	and.w	r2, r3, #12
 80018b2:	687b      	ldr	r3, [r7, #4]
 80018b4:	685b      	ldr	r3, [r3, #4]
 80018b6:	009b      	lsls	r3, r3, #2
 80018b8:	429a      	cmp	r2, r3
 80018ba:	d1eb      	bne.n	8001894 <HAL_RCC_ClockConfig+0xf8>
      }
    }
  }

  /* Decreasing the number of wait states because of lower CPU frequency */
  if(FLatency < __HAL_FLASH_GET_LATENCY())
 80018bc:	4b25      	ldr	r3, [pc, #148]	; (8001954 <HAL_RCC_ClockConfig+0x1b8>)
 80018be:	681b      	ldr	r3, [r3, #0]
 80018c0:	f003 030f 	and.w	r3, r3, #15
 80018c4:	683a      	ldr	r2, [r7, #0]
 80018c6:	429a      	cmp	r2, r3
 80018c8:	d20c      	bcs.n	80018e4 <HAL_RCC_ClockConfig+0x148>
  {
     /* Program the new number of wait states to the LATENCY bits in the FLASH_ACR register */
    __HAL_FLASH_SET_LATENCY(FLatency);
 80018ca:	4b22      	ldr	r3, [pc, #136]	; (8001954 <HAL_RCC_ClockConfig+0x1b8>)
 80018cc:	683a      	ldr	r2, [r7, #0]
 80018ce:	b2d2      	uxtb	r2, r2
 80018d0:	701a      	strb	r2, [r3, #0]

    /* Check that the new number of wait states is taken into account to access the Flash
    memory by reading the FLASH_ACR register */
    if(__HAL_FLASH_GET_LATENCY() != FLatency)
 80018d2:	4b20      	ldr	r3, [pc, #128]	; (8001954 <HAL_RCC_ClockConfig+0x1b8>)
 80018d4:	681b      	ldr	r3, [r3, #0]
 80018d6:	f003 030f 	and.w	r3, r3, #15
 80018da:	683a      	ldr	r2, [r7, #0]
 80018dc:	429a      	cmp	r2, r3
 80018de:	d001      	beq.n	80018e4 <HAL_RCC_ClockConfig+0x148>
    {
      return HAL_ERROR;
 80018e0:	2301      	movs	r3, #1
 80018e2:	e032      	b.n	800194a <HAL_RCC_ClockConfig+0x1ae>
    }
  }

  /*-------------------------- PCLK1 Configuration ---------------------------*/
  if(((RCC_ClkInitStruct->ClockType) & RCC_CLOCKTYPE_PCLK1) == RCC_CLOCKTYPE_PCLK1)
 80018e4:	687b      	ldr	r3, [r7, #4]
 80018e6:	681b      	ldr	r3, [r3, #0]
 80018e8:	f003 0304 	and.w	r3, r3, #4
 80018ec:	2b00      	cmp	r3, #0
 80018ee:	d008      	beq.n	8001902 <HAL_RCC_ClockConfig+0x166>
  {
    assert_param(IS_RCC_PCLK(RCC_ClkInitStruct->APB1CLKDivider));
    MODIFY_REG(RCC->CFGR, RCC_CFGR_PPRE1, RCC_ClkInitStruct->APB1CLKDivider);
 80018f0:	4b19      	ldr	r3, [pc, #100]	; (8001958 <HAL_RCC_ClockConfig+0x1bc>)
 80018f2:	689b      	ldr	r3, [r3, #8]
 80018f4:	f423 52e0 	bic.w	r2, r3, #7168	; 0x1c00
 80018f8:	687b      	ldr	r3, [r7, #4]
 80018fa:	68db      	ldr	r3, [r3, #12]
 80018fc:	4916      	ldr	r1, [pc, #88]	; (8001958 <HAL_RCC_ClockConfig+0x1bc>)
 80018fe:	4313      	orrs	r3, r2
 8001900:	608b      	str	r3, [r1, #8]
  }

  /*-------------------------- PCLK2 Configuration ---------------------------*/
  if(((RCC_ClkInitStruct->ClockType) & RCC_CLOCKTYPE_PCLK2) == RCC_CLOCKTYPE_PCLK2)
 8001902:	687b      	ldr	r3, [r7, #4]
 8001904:	681b      	ldr	r3, [r3, #0]
 8001906:	f003 0308 	and.w	r3, r3, #8
 800190a:	2b00      	cmp	r3, #0
 800190c:	d009      	beq.n	8001922 <HAL_RCC_ClockConfig+0x186>
  {
    assert_param(IS_RCC_PCLK(RCC_ClkInitStruct->APB2CLKDivider));
    MODIFY_REG(RCC->CFGR, RCC_CFGR_PPRE2, ((RCC_ClkInitStruct->APB2CLKDivider) << 3U));
 800190e:	4b12      	ldr	r3, [pc, #72]	; (8001958 <HAL_RCC_ClockConfig+0x1bc>)
 8001910:	689b      	ldr	r3, [r3, #8]
 8001912:	f423 4260 	bic.w	r2, r3, #57344	; 0xe000
 8001916:	687b      	ldr	r3, [r7, #4]
 8001918:	691b      	ldr	r3, [r3, #16]
 800191a:	00db      	lsls	r3, r3, #3
 800191c:	490e      	ldr	r1, [pc, #56]	; (8001958 <HAL_RCC_ClockConfig+0x1bc>)
 800191e:	4313      	orrs	r3, r2
 8001920:	608b      	str	r3, [r1, #8]
  }

  /* Update the SystemCoreClock global variable */
  SystemCoreClock = HAL_RCC_GetSysClockFreq() >> AHBPrescTable[(RCC->CFGR & RCC_CFGR_HPRE)>> RCC_CFGR_HPRE_Pos];
 8001922:	f000 f821 	bl	8001968 <HAL_RCC_GetSysClockFreq>
 8001926:	4601      	mov	r1, r0
 8001928:	4b0b      	ldr	r3, [pc, #44]	; (8001958 <HAL_RCC_ClockConfig+0x1bc>)
 800192a:	689b      	ldr	r3, [r3, #8]
 800192c:	091b      	lsrs	r3, r3, #4
 800192e:	f003 030f 	and.w	r3, r3, #15
 8001932:	4a0a      	ldr	r2, [pc, #40]	; (800195c <HAL_RCC_ClockConfig+0x1c0>)
 8001934:	5cd3      	ldrb	r3, [r2, r3]
 8001936:	fa21 f303 	lsr.w	r3, r1, r3
 800193a:	4a09      	ldr	r2, [pc, #36]	; (8001960 <HAL_RCC_ClockConfig+0x1c4>)
 800193c:	6013      	str	r3, [r2, #0]

  /* Configure the source of time base considering new system clocks settings */
  HAL_InitTick (uwTickPrio);
 800193e:	4b09      	ldr	r3, [pc, #36]	; (8001964 <HAL_RCC_ClockConfig+0x1c8>)
 8001940:	681b      	ldr	r3, [r3, #0]
 8001942:	4618      	mov	r0, r3
 8001944:	f7ff f982 	bl	8000c4c <HAL_InitTick>

  return HAL_OK;
 8001948:	2300      	movs	r3, #0
}
 800194a:	4618      	mov	r0, r3
 800194c:	3710      	adds	r7, #16
 800194e:	46bd      	mov	sp, r7
 8001950:	bd80      	pop	{r7, pc}
 8001952:	bf00      	nop
 8001954:	40023c00 	.word	0x40023c00
 8001958:	40023800 	.word	0x40023800
 800195c:	08003318 	.word	0x08003318
 8001960:	20000000 	.word	0x20000000
 8001964:	20000004 	.word	0x20000004

08001968 <HAL_RCC_GetSysClockFreq>:
  *
  *
  * @retval SYSCLK frequency
  */
__weak uint32_t HAL_RCC_GetSysClockFreq(void)
{
 8001968:	b5f0      	push	{r4, r5, r6, r7, lr}
 800196a:	b085      	sub	sp, #20
 800196c:	af00      	add	r7, sp, #0
  uint32_t pllm = 0U, pllvco = 0U, pllp = 0U;
 800196e:	2300      	movs	r3, #0
 8001970:	607b      	str	r3, [r7, #4]
 8001972:	2300      	movs	r3, #0
 8001974:	60fb      	str	r3, [r7, #12]
 8001976:	2300      	movs	r3, #0
 8001978:	603b      	str	r3, [r7, #0]
  uint32_t sysclockfreq = 0U;
 800197a:	2300      	movs	r3, #0
 800197c:	60bb      	str	r3, [r7, #8]

  /* Get SYSCLK source -------------------------------------------------------*/
  switch (RCC->CFGR & RCC_CFGR_SWS)
 800197e:	4b63      	ldr	r3, [pc, #396]	; (8001b0c <HAL_RCC_GetSysClockFreq+0x1a4>)
 8001980:	689b      	ldr	r3, [r3, #8]
 8001982:	f003 030c 	and.w	r3, r3, #12
 8001986:	2b04      	cmp	r3, #4
 8001988:	d007      	beq.n	800199a <HAL_RCC_GetSysClockFreq+0x32>
 800198a:	2b08      	cmp	r3, #8
 800198c:	d008      	beq.n	80019a0 <HAL_RCC_GetSysClockFreq+0x38>
 800198e:	2b00      	cmp	r3, #0
 8001990:	f040 80b4 	bne.w	8001afc <HAL_RCC_GetSysClockFreq+0x194>
  {
    case RCC_CFGR_SWS_HSI:  /* HSI used as system clock source */
    {
      sysclockfreq = HSI_VALUE;
 8001994:	4b5e      	ldr	r3, [pc, #376]	; (8001b10 <HAL_RCC_GetSysClockFreq+0x1a8>)
 8001996:	60bb      	str	r3, [r7, #8]
       break;
 8001998:	e0b3      	b.n	8001b02 <HAL_RCC_GetSysClockFreq+0x19a>
    }
    case RCC_CFGR_SWS_HSE:  /* HSE used as system clock  source */
    {
      sysclockfreq = HSE_VALUE;
 800199a:	4b5e      	ldr	r3, [pc, #376]	; (8001b14 <HAL_RCC_GetSysClockFreq+0x1ac>)
 800199c:	60bb      	str	r3, [r7, #8]
      break;
 800199e:	e0b0      	b.n	8001b02 <HAL_RCC_GetSysClockFreq+0x19a>
    }
    case RCC_CFGR_SWS_PLL:  /* PLL used as system clock  source */
    {
      /* PLL_VCO = (HSE_VALUE or HSI_VALUE / PLLM) * PLLN
      SYSCLK = PLL_VCO / PLLP */
      pllm = RCC->PLLCFGR & RCC_PLLCFGR_PLLM;
 80019a0:	4b5a      	ldr	r3, [pc, #360]	; (8001b0c <HAL_RCC_GetSysClockFreq+0x1a4>)
 80019a2:	685b      	ldr	r3, [r3, #4]
 80019a4:	f003 033f 	and.w	r3, r3, #63	; 0x3f
 80019a8:	607b      	str	r3, [r7, #4]
      if(__HAL_RCC_GET_PLL_OSCSOURCE() != RCC_PLLSOURCE_HSI)
 80019aa:	4b58      	ldr	r3, [pc, #352]	; (8001b0c <HAL_RCC_GetSysClockFreq+0x1a4>)
 80019ac:	685b      	ldr	r3, [r3, #4]
 80019ae:	f403 0380 	and.w	r3, r3, #4194304	; 0x400000
 80019b2:	2b00      	cmp	r3, #0
 80019b4:	d04a      	beq.n	8001a4c <HAL_RCC_GetSysClockFreq+0xe4>
      {
        /* HSE used as PLL clock source */
        pllvco = (uint32_t) ((((uint64_t) HSE_VALUE * ((uint64_t) ((RCC->PLLCFGR & RCC_PLLCFGR_PLLN) >> RCC_PLLCFGR_PLLN_Pos)))) / (uint64_t)pllm);
 80019b6:	4b55      	ldr	r3, [pc, #340]	; (8001b0c <HAL_RCC_GetSysClockFreq+0x1a4>)
 80019b8:	685b      	ldr	r3, [r3, #4]
 80019ba:	099b      	lsrs	r3, r3, #6
 80019bc:	f04f 0400 	mov.w	r4, #0
 80019c0:	f240 11ff 	movw	r1, #511	; 0x1ff
 80019c4:	f04f 0200 	mov.w	r2, #0
 80019c8:	ea03 0501 	and.w	r5, r3, r1
 80019cc:	ea04 0602 	and.w	r6, r4, r2
 80019d0:	4629      	mov	r1, r5
 80019d2:	4632      	mov	r2, r6
 80019d4:	f04f 0300 	mov.w	r3, #0
 80019d8:	f04f 0400 	mov.w	r4, #0
 80019dc:	0154      	lsls	r4, r2, #5
 80019de:	ea44 64d1 	orr.w	r4, r4, r1, lsr #27
 80019e2:	014b      	lsls	r3, r1, #5
 80019e4:	4619      	mov	r1, r3
 80019e6:	4622      	mov	r2, r4
 80019e8:	1b49      	subs	r1, r1, r5
 80019ea:	eb62 0206 	sbc.w	r2, r2, r6
 80019ee:	f04f 0300 	mov.w	r3, #0
 80019f2:	f04f 0400 	mov.w	r4, #0
 80019f6:	0194      	lsls	r4, r2, #6
 80019f8:	ea44 6491 	orr.w	r4, r4, r1, lsr #26
 80019fc:	018b      	lsls	r3, r1, #6
 80019fe:	1a5b      	subs	r3, r3, r1
 8001a00:	eb64 0402 	sbc.w	r4, r4, r2
 8001a04:	f04f 0100 	mov.w	r1, #0
 8001a08:	f04f 0200 	mov.w	r2, #0
 8001a0c:	00e2      	lsls	r2, r4, #3
 8001a0e:	ea42 7253 	orr.w	r2, r2, r3, lsr #29
 8001a12:	00d9      	lsls	r1, r3, #3
 8001a14:	460b      	mov	r3, r1
 8001a16:	4614      	mov	r4, r2
 8001a18:	195b      	adds	r3, r3, r5
 8001a1a:	eb44 0406 	adc.w	r4, r4, r6
 8001a1e:	f04f 0100 	mov.w	r1, #0
 8001a22:	f04f 0200 	mov.w	r2, #0
 8001a26:	0262      	lsls	r2, r4, #9
 8001a28:	ea42 52d3 	orr.w	r2, r2, r3, lsr #23
 8001a2c:	0259      	lsls	r1, r3, #9
 8001a2e:	460b      	mov	r3, r1
 8001a30:	4614      	mov	r4, r2
 8001a32:	4618      	mov	r0, r3
 8001a34:	4621      	mov	r1, r4
 8001a36:	687b      	ldr	r3, [r7, #4]
 8001a38:	f04f 0400 	mov.w	r4, #0
 8001a3c:	461a      	mov	r2, r3
 8001a3e:	4623      	mov	r3, r4
 8001a40:	f7fe fbc2 	bl	80001c8 <__aeabi_uldivmod>
 8001a44:	4603      	mov	r3, r0
 8001a46:	460c      	mov	r4, r1
 8001a48:	60fb      	str	r3, [r7, #12]
 8001a4a:	e049      	b.n	8001ae0 <HAL_RCC_GetSysClockFreq+0x178>
      }
      else
      {
        /* HSI used as PLL clock source */
        pllvco = (uint32_t) ((((uint64_t) HSI_VALUE * ((uint64_t) ((RCC->PLLCFGR & RCC_PLLCFGR_PLLN) >> RCC_PLLCFGR_PLLN_Pos)))) / (uint64_t)pllm);
 8001a4c:	4b2f      	ldr	r3, [pc, #188]	; (8001b0c <HAL_RCC_GetSysClockFreq+0x1a4>)
 8001a4e:	685b      	ldr	r3, [r3, #4]
 8001a50:	099b      	lsrs	r3, r3, #6
 8001a52:	f04f 0400 	mov.w	r4, #0
 8001a56:	f240 11ff 	movw	r1, #511	; 0x1ff
 8001a5a:	f04f 0200 	mov.w	r2, #0
 8001a5e:	ea03 0501 	and.w	r5, r3, r1
 8001a62:	ea04 0602 	and.w	r6, r4, r2
 8001a66:	4629      	mov	r1, r5
 8001a68:	4632      	mov	r2, r6
 8001a6a:	f04f 0300 	mov.w	r3, #0
 8001a6e:	f04f 0400 	mov.w	r4, #0
 8001a72:	0154      	lsls	r4, r2, #5
 8001a74:	ea44 64d1 	orr.w	r4, r4, r1, lsr #27
 8001a78:	014b      	lsls	r3, r1, #5
 8001a7a:	4619      	mov	r1, r3
 8001a7c:	4622      	mov	r2, r4
 8001a7e:	1b49      	subs	r1, r1, r5
 8001a80:	eb62 0206 	sbc.w	r2, r2, r6
 8001a84:	f04f 0300 	mov.w	r3, #0
 8001a88:	f04f 0400 	mov.w	r4, #0
 8001a8c:	0194      	lsls	r4, r2, #6
 8001a8e:	ea44 6491 	orr.w	r4, r4, r1, lsr #26
 8001a92:	018b      	lsls	r3, r1, #6
 8001a94:	1a5b      	subs	r3, r3, r1
 8001a96:	eb64 0402 	sbc.w	r4, r4, r2
 8001a9a:	f04f 0100 	mov.w	r1, #0
 8001a9e:	f04f 0200 	mov.w	r2, #0
 8001aa2:	00e2      	lsls	r2, r4, #3
 8001aa4:	ea42 7253 	orr.w	r2, r2, r3, lsr #29
 8001aa8:	00d9      	lsls	r1, r3, #3
 8001aaa:	460b      	mov	r3, r1
 8001aac:	4614      	mov	r4, r2
 8001aae:	195b      	adds	r3, r3, r5
 8001ab0:	eb44 0406 	adc.w	r4, r4, r6
 8001ab4:	f04f 0100 	mov.w	r1, #0
 8001ab8:	f04f 0200 	mov.w	r2, #0
 8001abc:	02a2      	lsls	r2, r4, #10
 8001abe:	ea42 5293 	orr.w	r2, r2, r3, lsr #22
 8001ac2:	0299      	lsls	r1, r3, #10
 8001ac4:	460b      	mov	r3, r1
 8001ac6:	4614      	mov	r4, r2
 8001ac8:	4618      	mov	r0, r3
 8001aca:	4621      	mov	r1, r4
 8001acc:	687b      	ldr	r3, [r7, #4]
 8001ace:	f04f 0400 	mov.w	r4, #0
 8001ad2:	461a      	mov	r2, r3
 8001ad4:	4623      	mov	r3, r4
 8001ad6:	f7fe fb77 	bl	80001c8 <__aeabi_uldivmod>
 8001ada:	4603      	mov	r3, r0
 8001adc:	460c      	mov	r4, r1
 8001ade:	60fb      	str	r3, [r7, #12]
      }
      pllp = ((((RCC->PLLCFGR & RCC_PLLCFGR_PLLP) >> RCC_PLLCFGR_PLLP_Pos) + 1U) *2U);
 8001ae0:	4b0a      	ldr	r3, [pc, #40]	; (8001b0c <HAL_RCC_GetSysClockFreq+0x1a4>)
 8001ae2:	685b      	ldr	r3, [r3, #4]
 8001ae4:	0c1b      	lsrs	r3, r3, #16
 8001ae6:	f003 0303 	and.w	r3, r3, #3
 8001aea:	3301      	adds	r3, #1
 8001aec:	005b      	lsls	r3, r3, #1
 8001aee:	603b      	str	r3, [r7, #0]

      sysclockfreq = pllvco/pllp;
 8001af0:	68fa      	ldr	r2, [r7, #12]
 8001af2:	683b      	ldr	r3, [r7, #0]
 8001af4:	fbb2 f3f3 	udiv	r3, r2, r3
 8001af8:	60bb      	str	r3, [r7, #8]
      break;
 8001afa:	e002      	b.n	8001b02 <HAL_RCC_GetSysClockFreq+0x19a>
    }
    default:
    {
      sysclockfreq = HSI_VALUE;
 8001afc:	4b04      	ldr	r3, [pc, #16]	; (8001b10 <HAL_RCC_GetSysClockFreq+0x1a8>)
 8001afe:	60bb      	str	r3, [r7, #8]
      break;
 8001b00:	bf00      	nop
    }
  }
  return sysclockfreq;
 8001b02:	68bb      	ldr	r3, [r7, #8]
}
 8001b04:	4618      	mov	r0, r3
 8001b06:	3714      	adds	r7, #20
 8001b08:	46bd      	mov	sp, r7
 8001b0a:	bdf0      	pop	{r4, r5, r6, r7, pc}
 8001b0c:	40023800 	.word	0x40023800
 8001b10:	00f42400 	.word	0x00f42400
 8001b14:	007a1200 	.word	0x007a1200

08001b18 <HAL_RCC_GetHCLKFreq>:
  * @note   The SystemCoreClock CMSIS variable is used to store System Clock Frequency
  *         and updated within this function
  * @retval HCLK frequency
  */
uint32_t HAL_RCC_GetHCLKFreq(void)
{
 8001b18:	b480      	push	{r7}
 8001b1a:	af00      	add	r7, sp, #0
  return SystemCoreClock;
 8001b1c:	4b03      	ldr	r3, [pc, #12]	; (8001b2c <HAL_RCC_GetHCLKFreq+0x14>)
 8001b1e:	681b      	ldr	r3, [r3, #0]
}
 8001b20:	4618      	mov	r0, r3
 8001b22:	46bd      	mov	sp, r7
 8001b24:	f85d 7b04 	ldr.w	r7, [sp], #4
 8001b28:	4770      	bx	lr
 8001b2a:	bf00      	nop
 8001b2c:	20000000 	.word	0x20000000

08001b30 <HAL_RCC_GetPCLK1Freq>:
  * @note   Each time PCLK1 changes, this function must be called to update the
  *         right PCLK1 value. Otherwise, any configuration based on this function will be incorrect.
  * @retval PCLK1 frequency
  */
uint32_t HAL_RCC_GetPCLK1Freq(void)
{
 8001b30:	b580      	push	{r7, lr}
 8001b32:	af00      	add	r7, sp, #0
  /* Get HCLK source and Compute PCLK1 frequency ---------------------------*/
  return (HAL_RCC_GetHCLKFreq() >> APBPrescTable[(RCC->CFGR & RCC_CFGR_PPRE1)>> RCC_CFGR_PPRE1_Pos]);
 8001b34:	f7ff fff0 	bl	8001b18 <HAL_RCC_GetHCLKFreq>
 8001b38:	4601      	mov	r1, r0
 8001b3a:	4b05      	ldr	r3, [pc, #20]	; (8001b50 <HAL_RCC_GetPCLK1Freq+0x20>)
 8001b3c:	689b      	ldr	r3, [r3, #8]
 8001b3e:	0a9b      	lsrs	r3, r3, #10
 8001b40:	f003 0307 	and.w	r3, r3, #7
 8001b44:	4a03      	ldr	r2, [pc, #12]	; (8001b54 <HAL_RCC_GetPCLK1Freq+0x24>)
 8001b46:	5cd3      	ldrb	r3, [r2, r3]
 8001b48:	fa21 f303 	lsr.w	r3, r1, r3
}
 8001b4c:	4618      	mov	r0, r3
 8001b4e:	bd80      	pop	{r7, pc}
 8001b50:	40023800 	.word	0x40023800
 8001b54:	08003328 	.word	0x08003328

08001b58 <HAL_RCC_GetPCLK2Freq>:
  * @note   Each time PCLK2 changes, this function must be called to update the
  *         right PCLK2 value. Otherwise, any configuration based on this function will be incorrect.
  * @retval PCLK2 frequency
  */
uint32_t HAL_RCC_GetPCLK2Freq(void)
{
 8001b58:	b580      	push	{r7, lr}
 8001b5a:	af00      	add	r7, sp, #0
  /* Get HCLK source and Compute PCLK2 frequency ---------------------------*/
  return (HAL_RCC_GetHCLKFreq()>> APBPrescTable[(RCC->CFGR & RCC_CFGR_PPRE2)>> RCC_CFGR_PPRE2_Pos]);
 8001b5c:	f7ff ffdc 	bl	8001b18 <HAL_RCC_GetHCLKFreq>
 8001b60:	4601      	mov	r1, r0
 8001b62:	4b05      	ldr	r3, [pc, #20]	; (8001b78 <HAL_RCC_GetPCLK2Freq+0x20>)
 8001b64:	689b      	ldr	r3, [r3, #8]
 8001b66:	0b5b      	lsrs	r3, r3, #13
 8001b68:	f003 0307 	and.w	r3, r3, #7
 8001b6c:	4a03      	ldr	r2, [pc, #12]	; (8001b7c <HAL_RCC_GetPCLK2Freq+0x24>)
 8001b6e:	5cd3      	ldrb	r3, [r2, r3]
 8001b70:	fa21 f303 	lsr.w	r3, r1, r3
}
 8001b74:	4618      	mov	r0, r3
 8001b76:	bd80      	pop	{r7, pc}
 8001b78:	40023800 	.word	0x40023800
 8001b7c:	08003328 	.word	0x08003328

08001b80 <HAL_TIM_OC_Init>:
  *         Ex: call @ref HAL_TIM_OC_DeInit() before HAL_TIM_OC_Init()
  * @param  htim TIM Output Compare handle
  * @retval HAL status
  */
HAL_StatusTypeDef HAL_TIM_OC_Init(TIM_HandleTypeDef *htim)
{
 8001b80:	b580      	push	{r7, lr}
 8001b82:	b082      	sub	sp, #8
 8001b84:	af00      	add	r7, sp, #0
 8001b86:	6078      	str	r0, [r7, #4]
  /* Check the TIM handle allocation */
  if (htim == NULL)
 8001b88:	687b      	ldr	r3, [r7, #4]
 8001b8a:	2b00      	cmp	r3, #0
 8001b8c:	d101      	bne.n	8001b92 <HAL_TIM_OC_Init+0x12>
  {
    return HAL_ERROR;
 8001b8e:	2301      	movs	r3, #1
 8001b90:	e01d      	b.n	8001bce <HAL_TIM_OC_Init+0x4e>
  assert_param(IS_TIM_INSTANCE(htim->Instance));
  assert_param(IS_TIM_COUNTER_MODE(htim->Init.CounterMode));
  assert_param(IS_TIM_CLOCKDIVISION_DIV(htim->Init.ClockDivision));
  assert_param(IS_TIM_AUTORELOAD_PRELOAD(htim->Init.AutoReloadPreload));

  if (htim->State == HAL_TIM_STATE_RESET)
 8001b92:	687b      	ldr	r3, [r7, #4]
 8001b94:	f893 303d 	ldrb.w	r3, [r3, #61]	; 0x3d
 8001b98:	b2db      	uxtb	r3, r3
 8001b9a:	2b00      	cmp	r3, #0
 8001b9c:	d106      	bne.n	8001bac <HAL_TIM_OC_Init+0x2c>
  {
    /* Allocate lock resource and initialize it */
    htim->Lock = HAL_UNLOCKED;
 8001b9e:	687b      	ldr	r3, [r7, #4]
 8001ba0:	2200      	movs	r2, #0
 8001ba2:	f883 203c 	strb.w	r2, [r3, #60]	; 0x3c
    }
    /* Init the low level hardware : GPIO, CLOCK, NVIC */
    htim->OC_MspInitCallback(htim);
#else
    /* Init the low level hardware : GPIO, CLOCK, NVIC and DMA */
    HAL_TIM_OC_MspInit(htim);
 8001ba6:	6878      	ldr	r0, [r7, #4]
 8001ba8:	f7fe fedc 	bl	8000964 <HAL_TIM_OC_MspInit>
#endif /* USE_HAL_TIM_REGISTER_CALLBACKS */
  }

  /* Set the TIM state */
  htim->State = HAL_TIM_STATE_BUSY;
 8001bac:	687b      	ldr	r3, [r7, #4]
 8001bae:	2202      	movs	r2, #2
 8001bb0:	f883 203d 	strb.w	r2, [r3, #61]	; 0x3d

  /* Init the base time for the Output Compare */
  TIM_Base_SetConfig(htim->Instance,  &htim->Init);
 8001bb4:	687b      	ldr	r3, [r7, #4]
 8001bb6:	681a      	ldr	r2, [r3, #0]
 8001bb8:	687b      	ldr	r3, [r7, #4]
 8001bba:	3304      	adds	r3, #4
 8001bbc:	4619      	mov	r1, r3
 8001bbe:	4610      	mov	r0, r2
 8001bc0:	f000 fa62 	bl	8002088 <TIM_Base_SetConfig>

  /* Initialize the TIM state*/
  htim->State = HAL_TIM_STATE_READY;
 8001bc4:	687b      	ldr	r3, [r7, #4]
 8001bc6:	2201      	movs	r2, #1
 8001bc8:	f883 203d 	strb.w	r2, [r3, #61]	; 0x3d

  return HAL_OK;
 8001bcc:	2300      	movs	r3, #0
}
 8001bce:	4618      	mov	r0, r3
 8001bd0:	3708      	adds	r7, #8
 8001bd2:	46bd      	mov	sp, r7
 8001bd4:	bd80      	pop	{r7, pc}
	...

08001bd8 <HAL_TIM_OC_Start_IT>:
  *            @arg TIM_CHANNEL_3: TIM Channel 3 selected
  *            @arg TIM_CHANNEL_4: TIM Channel 4 selected
  * @retval HAL status
  */
HAL_StatusTypeDef HAL_TIM_OC_Start_IT(TIM_HandleTypeDef *htim, uint32_t Channel)
{
 8001bd8:	b580      	push	{r7, lr}
 8001bda:	b084      	sub	sp, #16
 8001bdc:	af00      	add	r7, sp, #0
 8001bde:	6078      	str	r0, [r7, #4]
 8001be0:	6039      	str	r1, [r7, #0]
  uint32_t tmpsmcr;

  /* Check the parameters */
  assert_param(IS_TIM_CCX_INSTANCE(htim->Instance, Channel));

  switch (Channel)
 8001be2:	683b      	ldr	r3, [r7, #0]
 8001be4:	2b0c      	cmp	r3, #12
 8001be6:	d841      	bhi.n	8001c6c <HAL_TIM_OC_Start_IT+0x94>
 8001be8:	a201      	add	r2, pc, #4	; (adr r2, 8001bf0 <HAL_TIM_OC_Start_IT+0x18>)
 8001bea:	f852 f023 	ldr.w	pc, [r2, r3, lsl #2]
 8001bee:	bf00      	nop
 8001bf0:	08001c25 	.word	0x08001c25
 8001bf4:	08001c6d 	.word	0x08001c6d
 8001bf8:	08001c6d 	.word	0x08001c6d
 8001bfc:	08001c6d 	.word	0x08001c6d
 8001c00:	08001c37 	.word	0x08001c37
 8001c04:	08001c6d 	.word	0x08001c6d
 8001c08:	08001c6d 	.word	0x08001c6d
 8001c0c:	08001c6d 	.word	0x08001c6d
 8001c10:	08001c49 	.word	0x08001c49
 8001c14:	08001c6d 	.word	0x08001c6d
 8001c18:	08001c6d 	.word	0x08001c6d
 8001c1c:	08001c6d 	.word	0x08001c6d
 8001c20:	08001c5b 	.word	0x08001c5b
  {
    case TIM_CHANNEL_1:
    {
      /* Enable the TIM Capture/Compare 1 interrupt */
      __HAL_TIM_ENABLE_IT(htim, TIM_IT_CC1);
 8001c24:	687b      	ldr	r3, [r7, #4]
 8001c26:	681b      	ldr	r3, [r3, #0]
 8001c28:	68da      	ldr	r2, [r3, #12]
 8001c2a:	687b      	ldr	r3, [r7, #4]
 8001c2c:	681b      	ldr	r3, [r3, #0]
 8001c2e:	f042 0202 	orr.w	r2, r2, #2
 8001c32:	60da      	str	r2, [r3, #12]
      break;
 8001c34:	e01b      	b.n	8001c6e <HAL_TIM_OC_Start_IT+0x96>
    }

    case TIM_CHANNEL_2:
    {
      /* Enable the TIM Capture/Compare 2 interrupt */
      __HAL_TIM_ENABLE_IT(htim, TIM_IT_CC2);
 8001c36:	687b      	ldr	r3, [r7, #4]
 8001c38:	681b      	ldr	r3, [r3, #0]
 8001c3a:	68da      	ldr	r2, [r3, #12]
 8001c3c:	687b      	ldr	r3, [r7, #4]
 8001c3e:	681b      	ldr	r3, [r3, #0]
 8001c40:	f042 0204 	orr.w	r2, r2, #4
 8001c44:	60da      	str	r2, [r3, #12]
      break;
 8001c46:	e012      	b.n	8001c6e <HAL_TIM_OC_Start_IT+0x96>
    }

    case TIM_CHANNEL_3:
    {
      /* Enable the TIM Capture/Compare 3 interrupt */
      __HAL_TIM_ENABLE_IT(htim, TIM_IT_CC3);
 8001c48:	687b      	ldr	r3, [r7, #4]
 8001c4a:	681b      	ldr	r3, [r3, #0]
 8001c4c:	68da      	ldr	r2, [r3, #12]
 8001c4e:	687b      	ldr	r3, [r7, #4]
 8001c50:	681b      	ldr	r3, [r3, #0]
 8001c52:	f042 0208 	orr.w	r2, r2, #8
 8001c56:	60da      	str	r2, [r3, #12]
      break;
 8001c58:	e009      	b.n	8001c6e <HAL_TIM_OC_Start_IT+0x96>
    }

    case TIM_CHANNEL_4:
    {
      /* Enable the TIM Capture/Compare 4 interrupt */
      __HAL_TIM_ENABLE_IT(htim, TIM_IT_CC4);
 8001c5a:	687b      	ldr	r3, [r7, #4]
 8001c5c:	681b      	ldr	r3, [r3, #0]
 8001c5e:	68da      	ldr	r2, [r3, #12]
 8001c60:	687b      	ldr	r3, [r7, #4]
 8001c62:	681b      	ldr	r3, [r3, #0]
 8001c64:	f042 0210 	orr.w	r2, r2, #16
 8001c68:	60da      	str	r2, [r3, #12]
      break;
 8001c6a:	e000      	b.n	8001c6e <HAL_TIM_OC_Start_IT+0x96>
    }

    default:
      break;
 8001c6c:	bf00      	nop
  }

  /* Enable the Output compare channel */
  TIM_CCxChannelCmd(htim->Instance, Channel, TIM_CCx_ENABLE);
 8001c6e:	687b      	ldr	r3, [r7, #4]
 8001c70:	681b      	ldr	r3, [r3, #0]
 8001c72:	2201      	movs	r2, #1
 8001c74:	6839      	ldr	r1, [r7, #0]
 8001c76:	4618      	mov	r0, r3
 8001c78:	f000 fc56 	bl	8002528 <TIM_CCxChannelCmd>

  if (IS_TIM_BREAK_INSTANCE(htim->Instance) != RESET)
 8001c7c:	687b      	ldr	r3, [r7, #4]
 8001c7e:	681b      	ldr	r3, [r3, #0]
 8001c80:	4a15      	ldr	r2, [pc, #84]	; (8001cd8 <HAL_TIM_OC_Start_IT+0x100>)
 8001c82:	4293      	cmp	r3, r2
 8001c84:	d004      	beq.n	8001c90 <HAL_TIM_OC_Start_IT+0xb8>
 8001c86:	687b      	ldr	r3, [r7, #4]
 8001c88:	681b      	ldr	r3, [r3, #0]
 8001c8a:	4a14      	ldr	r2, [pc, #80]	; (8001cdc <HAL_TIM_OC_Start_IT+0x104>)
 8001c8c:	4293      	cmp	r3, r2
 8001c8e:	d101      	bne.n	8001c94 <HAL_TIM_OC_Start_IT+0xbc>
 8001c90:	2301      	movs	r3, #1
 8001c92:	e000      	b.n	8001c96 <HAL_TIM_OC_Start_IT+0xbe>
 8001c94:	2300      	movs	r3, #0
 8001c96:	2b00      	cmp	r3, #0
 8001c98:	d007      	beq.n	8001caa <HAL_TIM_OC_Start_IT+0xd2>
  {
    /* Enable the main output */
    __HAL_TIM_MOE_ENABLE(htim);
 8001c9a:	687b      	ldr	r3, [r7, #4]
 8001c9c:	681b      	ldr	r3, [r3, #0]
 8001c9e:	6c5a      	ldr	r2, [r3, #68]	; 0x44
 8001ca0:	687b      	ldr	r3, [r7, #4]
 8001ca2:	681b      	ldr	r3, [r3, #0]
 8001ca4:	f442 4200 	orr.w	r2, r2, #32768	; 0x8000
 8001ca8:	645a      	str	r2, [r3, #68]	; 0x44
  }

  /* Enable the Peripheral, except in trigger mode where enable is automatically done with trigger */
  tmpsmcr = htim->Instance->SMCR & TIM_SMCR_SMS;
 8001caa:	687b      	ldr	r3, [r7, #4]
 8001cac:	681b      	ldr	r3, [r3, #0]
 8001cae:	689b      	ldr	r3, [r3, #8]
 8001cb0:	f003 0307 	and.w	r3, r3, #7
 8001cb4:	60fb      	str	r3, [r7, #12]
  if (!IS_TIM_SLAVEMODE_TRIGGER_ENABLED(tmpsmcr))
 8001cb6:	68fb      	ldr	r3, [r7, #12]
 8001cb8:	2b06      	cmp	r3, #6
 8001cba:	d007      	beq.n	8001ccc <HAL_TIM_OC_Start_IT+0xf4>
  {
    __HAL_TIM_ENABLE(htim);
 8001cbc:	687b      	ldr	r3, [r7, #4]
 8001cbe:	681b      	ldr	r3, [r3, #0]
 8001cc0:	681a      	ldr	r2, [r3, #0]
 8001cc2:	687b      	ldr	r3, [r7, #4]
 8001cc4:	681b      	ldr	r3, [r3, #0]
 8001cc6:	f042 0201 	orr.w	r2, r2, #1
 8001cca:	601a      	str	r2, [r3, #0]
  }

  /* Return function status */
  return HAL_OK;
 8001ccc:	2300      	movs	r3, #0
}
 8001cce:	4618      	mov	r0, r3
 8001cd0:	3710      	adds	r7, #16
 8001cd2:	46bd      	mov	sp, r7
 8001cd4:	bd80      	pop	{r7, pc}
 8001cd6:	bf00      	nop
 8001cd8:	40010000 	.word	0x40010000
 8001cdc:	40010400 	.word	0x40010400

08001ce0 <HAL_TIM_IRQHandler>:
  * @brief  This function handles TIM interrupts requests.
  * @param  htim TIM  handle
  * @retval None
  */
void HAL_TIM_IRQHandler(TIM_HandleTypeDef *htim)
{
 8001ce0:	b580      	push	{r7, lr}
 8001ce2:	b082      	sub	sp, #8
 8001ce4:	af00      	add	r7, sp, #0
 8001ce6:	6078      	str	r0, [r7, #4]
  /* Capture compare 1 event */
  if (__HAL_TIM_GET_FLAG(htim, TIM_FLAG_CC1) != RESET)
 8001ce8:	687b      	ldr	r3, [r7, #4]
 8001cea:	681b      	ldr	r3, [r3, #0]
 8001cec:	691b      	ldr	r3, [r3, #16]
 8001cee:	f003 0302 	and.w	r3, r3, #2
 8001cf2:	2b02      	cmp	r3, #2
 8001cf4:	d122      	bne.n	8001d3c <HAL_TIM_IRQHandler+0x5c>
  {
    if (__HAL_TIM_GET_IT_SOURCE(htim, TIM_IT_CC1) != RESET)
 8001cf6:	687b      	ldr	r3, [r7, #4]
 8001cf8:	681b      	ldr	r3, [r3, #0]
 8001cfa:	68db      	ldr	r3, [r3, #12]
 8001cfc:	f003 0302 	and.w	r3, r3, #2
 8001d00:	2b02      	cmp	r3, #2
 8001d02:	d11b      	bne.n	8001d3c <HAL_TIM_IRQHandler+0x5c>
    {
      {
        __HAL_TIM_CLEAR_IT(htim, TIM_IT_CC1);
 8001d04:	687b      	ldr	r3, [r7, #4]
 8001d06:	681b      	ldr	r3, [r3, #0]
 8001d08:	f06f 0202 	mvn.w	r2, #2
 8001d0c:	611a      	str	r2, [r3, #16]
        htim->Channel = HAL_TIM_ACTIVE_CHANNEL_1;
 8001d0e:	687b      	ldr	r3, [r7, #4]
 8001d10:	2201      	movs	r2, #1
 8001d12:	771a      	strb	r2, [r3, #28]

        /* Input capture event */
        if ((htim->Instance->CCMR1 & TIM_CCMR1_CC1S) != 0x00U)
 8001d14:	687b      	ldr	r3, [r7, #4]
 8001d16:	681b      	ldr	r3, [r3, #0]
 8001d18:	699b      	ldr	r3, [r3, #24]
 8001d1a:	f003 0303 	and.w	r3, r3, #3
 8001d1e:	2b00      	cmp	r3, #0
 8001d20:	d003      	beq.n	8001d2a <HAL_TIM_IRQHandler+0x4a>
        {
#if (USE_HAL_TIM_REGISTER_CALLBACKS == 1)
          htim->IC_CaptureCallback(htim);
#else
          HAL_TIM_IC_CaptureCallback(htim);
 8001d22:	6878      	ldr	r0, [r7, #4]
 8001d24:	f000 f992 	bl	800204c <HAL_TIM_IC_CaptureCallback>
 8001d28:	e005      	b.n	8001d36 <HAL_TIM_IRQHandler+0x56>
        {
#if (USE_HAL_TIM_REGISTER_CALLBACKS == 1)
          htim->OC_DelayElapsedCallback(htim);
          htim->PWM_PulseFinishedCallback(htim);
#else
          HAL_TIM_OC_DelayElapsedCallback(htim);
 8001d2a:	6878      	ldr	r0, [r7, #4]
 8001d2c:	f7fe fd9a 	bl	8000864 <HAL_TIM_OC_DelayElapsedCallback>
          HAL_TIM_PWM_PulseFinishedCallback(htim);
 8001d30:	6878      	ldr	r0, [r7, #4]
 8001d32:	f000 f995 	bl	8002060 <HAL_TIM_PWM_PulseFinishedCallback>
#endif /* USE_HAL_TIM_REGISTER_CALLBACKS */
        }
        htim->Channel = HAL_TIM_ACTIVE_CHANNEL_CLEARED;
 8001d36:	687b      	ldr	r3, [r7, #4]
 8001d38:	2200      	movs	r2, #0
 8001d3a:	771a      	strb	r2, [r3, #28]
      }
    }
  }
  /* Capture compare 2 event */
  if (__HAL_TIM_GET_FLAG(htim, TIM_FLAG_CC2) != RESET)
 8001d3c:	687b      	ldr	r3, [r7, #4]
 8001d3e:	681b      	ldr	r3, [r3, #0]
 8001d40:	691b      	ldr	r3, [r3, #16]
 8001d42:	f003 0304 	and.w	r3, r3, #4
 8001d46:	2b04      	cmp	r3, #4
 8001d48:	d122      	bne.n	8001d90 <HAL_TIM_IRQHandler+0xb0>
  {
    if (__HAL_TIM_GET_IT_SOURCE(htim, TIM_IT_CC2) != RESET)
 8001d4a:	687b      	ldr	r3, [r7, #4]
 8001d4c:	681b      	ldr	r3, [r3, #0]
 8001d4e:	68db      	ldr	r3, [r3, #12]
 8001d50:	f003 0304 	and.w	r3, r3, #4
 8001d54:	2b04      	cmp	r3, #4
 8001d56:	d11b      	bne.n	8001d90 <HAL_TIM_IRQHandler+0xb0>
    {
      __HAL_TIM_CLEAR_IT(htim, TIM_IT_CC2);
 8001d58:	687b      	ldr	r3, [r7, #4]
 8001d5a:	681b      	ldr	r3, [r3, #0]
 8001d5c:	f06f 0204 	mvn.w	r2, #4
 8001d60:	611a      	str	r2, [r3, #16]
      htim->Channel = HAL_TIM_ACTIVE_CHANNEL_2;
 8001d62:	687b      	ldr	r3, [r7, #4]
 8001d64:	2202      	movs	r2, #2
 8001d66:	771a      	strb	r2, [r3, #28]
      /* Input capture event */
      if ((htim->Instance->CCMR1 & TIM_CCMR1_CC2S) != 0x00U)
 8001d68:	687b      	ldr	r3, [r7, #4]
 8001d6a:	681b      	ldr	r3, [r3, #0]
 8001d6c:	699b      	ldr	r3, [r3, #24]
 8001d6e:	f403 7340 	and.w	r3, r3, #768	; 0x300
 8001d72:	2b00      	cmp	r3, #0
 8001d74:	d003      	beq.n	8001d7e <HAL_TIM_IRQHandler+0x9e>
      {
#if (USE_HAL_TIM_REGISTER_CALLBACKS == 1)
        htim->IC_CaptureCallback(htim);
#else
        HAL_TIM_IC_CaptureCallback(htim);
 8001d76:	6878      	ldr	r0, [r7, #4]
 8001d78:	f000 f968 	bl	800204c <HAL_TIM_IC_CaptureCallback>
 8001d7c:	e005      	b.n	8001d8a <HAL_TIM_IRQHandler+0xaa>
      {
#if (USE_HAL_TIM_REGISTER_CALLBACKS == 1)
        htim->OC_DelayElapsedCallback(htim);
        htim->PWM_PulseFinishedCallback(htim);
#else
        HAL_TIM_OC_DelayElapsedCallback(htim);
 8001d7e:	6878      	ldr	r0, [r7, #4]
 8001d80:	f7fe fd70 	bl	8000864 <HAL_TIM_OC_DelayElapsedCallback>
        HAL_TIM_PWM_PulseFinishedCallback(htim);
 8001d84:	6878      	ldr	r0, [r7, #4]
 8001d86:	f000 f96b 	bl	8002060 <HAL_TIM_PWM_PulseFinishedCallback>
#endif /* USE_HAL_TIM_REGISTER_CALLBACKS */
      }
      htim->Channel = HAL_TIM_ACTIVE_CHANNEL_CLEARED;
 8001d8a:	687b      	ldr	r3, [r7, #4]
 8001d8c:	2200      	movs	r2, #0
 8001d8e:	771a      	strb	r2, [r3, #28]
    }
  }
  /* Capture compare 3 event */
  if (__HAL_TIM_GET_FLAG(htim, TIM_FLAG_CC3) != RESET)
 8001d90:	687b      	ldr	r3, [r7, #4]
 8001d92:	681b      	ldr	r3, [r3, #0]
 8001d94:	691b      	ldr	r3, [r3, #16]
 8001d96:	f003 0308 	and.w	r3, r3, #8
 8001d9a:	2b08      	cmp	r3, #8
 8001d9c:	d122      	bne.n	8001de4 <HAL_TIM_IRQHandler+0x104>
  {
    if (__HAL_TIM_GET_IT_SOURCE(htim, TIM_IT_CC3) != RESET)
 8001d9e:	687b      	ldr	r3, [r7, #4]
 8001da0:	681b      	ldr	r3, [r3, #0]
 8001da2:	68db      	ldr	r3, [r3, #12]
 8001da4:	f003 0308 	and.w	r3, r3, #8
 8001da8:	2b08      	cmp	r3, #8
 8001daa:	d11b      	bne.n	8001de4 <HAL_TIM_IRQHandler+0x104>
    {
      __HAL_TIM_CLEAR_IT(htim, TIM_IT_CC3);
 8001dac:	687b      	ldr	r3, [r7, #4]
 8001dae:	681b      	ldr	r3, [r3, #0]
 8001db0:	f06f 0208 	mvn.w	r2, #8
 8001db4:	611a      	str	r2, [r3, #16]
      htim->Channel = HAL_TIM_ACTIVE_CHANNEL_3;
 8001db6:	687b      	ldr	r3, [r7, #4]
 8001db8:	2204      	movs	r2, #4
 8001dba:	771a      	strb	r2, [r3, #28]
      /* Input capture event */
      if ((htim->Instance->CCMR2 & TIM_CCMR2_CC3S) != 0x00U)
 8001dbc:	687b      	ldr	r3, [r7, #4]
 8001dbe:	681b      	ldr	r3, [r3, #0]
 8001dc0:	69db      	ldr	r3, [r3, #28]
 8001dc2:	f003 0303 	and.w	r3, r3, #3
 8001dc6:	2b00      	cmp	r3, #0
 8001dc8:	d003      	beq.n	8001dd2 <HAL_TIM_IRQHandler+0xf2>
      {
#if (USE_HAL_TIM_REGISTER_CALLBACKS == 1)
        htim->IC_CaptureCallback(htim);
#else
        HAL_TIM_IC_CaptureCallback(htim);
 8001dca:	6878      	ldr	r0, [r7, #4]
 8001dcc:	f000 f93e 	bl	800204c <HAL_TIM_IC_CaptureCallback>
 8001dd0:	e005      	b.n	8001dde <HAL_TIM_IRQHandler+0xfe>
      {
#if (USE_HAL_TIM_REGISTER_CALLBACKS == 1)
        htim->OC_DelayElapsedCallback(htim);
        htim->PWM_PulseFinishedCallback(htim);
#else
        HAL_TIM_OC_DelayElapsedCallback(htim);
 8001dd2:	6878      	ldr	r0, [r7, #4]
 8001dd4:	f7fe fd46 	bl	8000864 <HAL_TIM_OC_DelayElapsedCallback>
        HAL_TIM_PWM_PulseFinishedCallback(htim);
 8001dd8:	6878      	ldr	r0, [r7, #4]
 8001dda:	f000 f941 	bl	8002060 <HAL_TIM_PWM_PulseFinishedCallback>
#endif /* USE_HAL_TIM_REGISTER_CALLBACKS */
      }
      htim->Channel = HAL_TIM_ACTIVE_CHANNEL_CLEARED;
 8001dde:	687b      	ldr	r3, [r7, #4]
 8001de0:	2200      	movs	r2, #0
 8001de2:	771a      	strb	r2, [r3, #28]
    }
  }
  /* Capture compare 4 event */
  if (__HAL_TIM_GET_FLAG(htim, TIM_FLAG_CC4) != RESET)
 8001de4:	687b      	ldr	r3, [r7, #4]
 8001de6:	681b      	ldr	r3, [r3, #0]
 8001de8:	691b      	ldr	r3, [r3, #16]
 8001dea:	f003 0310 	and.w	r3, r3, #16
 8001dee:	2b10      	cmp	r3, #16
 8001df0:	d122      	bne.n	8001e38 <HAL_TIM_IRQHandler+0x158>
  {
    if (__HAL_TIM_GET_IT_SOURCE(htim, TIM_IT_CC4) != RESET)
 8001df2:	687b      	ldr	r3, [r7, #4]
 8001df4:	681b      	ldr	r3, [r3, #0]
 8001df6:	68db      	ldr	r3, [r3, #12]
 8001df8:	f003 0310 	and.w	r3, r3, #16
 8001dfc:	2b10      	cmp	r3, #16
 8001dfe:	d11b      	bne.n	8001e38 <HAL_TIM_IRQHandler+0x158>
    {
      __HAL_TIM_CLEAR_IT(htim, TIM_IT_CC4);
 8001e00:	687b      	ldr	r3, [r7, #4]
 8001e02:	681b      	ldr	r3, [r3, #0]
 8001e04:	f06f 0210 	mvn.w	r2, #16
 8001e08:	611a      	str	r2, [r3, #16]
      htim->Channel = HAL_TIM_ACTIVE_CHANNEL_4;
 8001e0a:	687b      	ldr	r3, [r7, #4]
 8001e0c:	2208      	movs	r2, #8
 8001e0e:	771a      	strb	r2, [r3, #28]
      /* Input capture event */
      if ((htim->Instance->CCMR2 & TIM_CCMR2_CC4S) != 0x00U)
 8001e10:	687b      	ldr	r3, [r7, #4]
 8001e12:	681b      	ldr	r3, [r3, #0]
 8001e14:	69db      	ldr	r3, [r3, #28]
 8001e16:	f403 7340 	and.w	r3, r3, #768	; 0x300
 8001e1a:	2b00      	cmp	r3, #0
 8001e1c:	d003      	beq.n	8001e26 <HAL_TIM_IRQHandler+0x146>
      {
#if (USE_HAL_TIM_REGISTER_CALLBACKS == 1)
        htim->IC_CaptureCallback(htim);
#else
        HAL_TIM_IC_CaptureCallback(htim);
 8001e1e:	6878      	ldr	r0, [r7, #4]
 8001e20:	f000 f914 	bl	800204c <HAL_TIM_IC_CaptureCallback>
 8001e24:	e005      	b.n	8001e32 <HAL_TIM_IRQHandler+0x152>
      {
#if (USE_HAL_TIM_REGISTER_CALLBACKS == 1)
        htim->OC_DelayElapsedCallback(htim);
        htim->PWM_PulseFinishedCallback(htim);
#else
        HAL_TIM_OC_DelayElapsedCallback(htim);
 8001e26:	6878      	ldr	r0, [r7, #4]
 8001e28:	f7fe fd1c 	bl	8000864 <HAL_TIM_OC_DelayElapsedCallback>
        HAL_TIM_PWM_PulseFinishedCallback(htim);
 8001e2c:	6878      	ldr	r0, [r7, #4]
 8001e2e:	f000 f917 	bl	8002060 <HAL_TIM_PWM_PulseFinishedCallback>
#endif /* USE_HAL_TIM_REGISTER_CALLBACKS */
      }
      htim->Channel = HAL_TIM_ACTIVE_CHANNEL_CLEARED;
 8001e32:	687b      	ldr	r3, [r7, #4]
 8001e34:	2200      	movs	r2, #0
 8001e36:	771a      	strb	r2, [r3, #28]
    }
  }
  /* TIM Update event */
  if (__HAL_TIM_GET_FLAG(htim, TIM_FLAG_UPDATE) != RESET)
 8001e38:	687b      	ldr	r3, [r7, #4]
 8001e3a:	681b      	ldr	r3, [r3, #0]
 8001e3c:	691b      	ldr	r3, [r3, #16]
 8001e3e:	f003 0301 	and.w	r3, r3, #1
 8001e42:	2b01      	cmp	r3, #1
 8001e44:	d10e      	bne.n	8001e64 <HAL_TIM_IRQHandler+0x184>
  {
    if (__HAL_TIM_GET_IT_SOURCE(htim, TIM_IT_UPDATE) != RESET)
 8001e46:	687b      	ldr	r3, [r7, #4]
 8001e48:	681b      	ldr	r3, [r3, #0]
 8001e4a:	68db      	ldr	r3, [r3, #12]
 8001e4c:	f003 0301 	and.w	r3, r3, #1
 8001e50:	2b01      	cmp	r3, #1
 8001e52:	d107      	bne.n	8001e64 <HAL_TIM_IRQHandler+0x184>
    {
      __HAL_TIM_CLEAR_IT(htim, TIM_IT_UPDATE);
 8001e54:	687b      	ldr	r3, [r7, #4]
 8001e56:	681b      	ldr	r3, [r3, #0]
 8001e58:	f06f 0201 	mvn.w	r2, #1
 8001e5c:	611a      	str	r2, [r3, #16]
#if (USE_HAL_TIM_REGISTER_CALLBACKS == 1)
      htim->PeriodElapsedCallback(htim);
#else
      HAL_TIM_PeriodElapsedCallback(htim);
 8001e5e:	6878      	ldr	r0, [r7, #4]
 8001e60:	f000 f8ea 	bl	8002038 <HAL_TIM_PeriodElapsedCallback>
#endif /* USE_HAL_TIM_REGISTER_CALLBACKS */
    }
  }
  /* TIM Break input event */
  if (__HAL_TIM_GET_FLAG(htim, TIM_FLAG_BREAK) != RESET)
 8001e64:	687b      	ldr	r3, [r7, #4]
 8001e66:	681b      	ldr	r3, [r3, #0]
 8001e68:	691b      	ldr	r3, [r3, #16]
 8001e6a:	f003 0380 	and.w	r3, r3, #128	; 0x80
 8001e6e:	2b80      	cmp	r3, #128	; 0x80
 8001e70:	d10e      	bne.n	8001e90 <HAL_TIM_IRQHandler+0x1b0>
  {
    if (__HAL_TIM_GET_IT_SOURCE(htim, TIM_IT_BREAK) != RESET)
 8001e72:	687b      	ldr	r3, [r7, #4]
 8001e74:	681b      	ldr	r3, [r3, #0]
 8001e76:	68db      	ldr	r3, [r3, #12]
 8001e78:	f003 0380 	and.w	r3, r3, #128	; 0x80
 8001e7c:	2b80      	cmp	r3, #128	; 0x80
 8001e7e:	d107      	bne.n	8001e90 <HAL_TIM_IRQHandler+0x1b0>
    {
      __HAL_TIM_CLEAR_IT(htim, TIM_IT_BREAK);
 8001e80:	687b      	ldr	r3, [r7, #4]
 8001e82:	681b      	ldr	r3, [r3, #0]
 8001e84:	f06f 0280 	mvn.w	r2, #128	; 0x80
 8001e88:	611a      	str	r2, [r3, #16]
#if (USE_HAL_TIM_REGISTER_CALLBACKS == 1)
      htim->BreakCallback(htim);
#else
      HAL_TIMEx_BreakCallback(htim);
 8001e8a:	6878      	ldr	r0, [r7, #4]
 8001e8c:	f000 fbf8 	bl	8002680 <HAL_TIMEx_BreakCallback>
#endif /* USE_HAL_TIM_REGISTER_CALLBACKS */
    }
  }
  /* TIM Trigger detection event */
  if (__HAL_TIM_GET_FLAG(htim, TIM_FLAG_TRIGGER) != RESET)
 8001e90:	687b      	ldr	r3, [r7, #4]
 8001e92:	681b      	ldr	r3, [r3, #0]
 8001e94:	691b      	ldr	r3, [r3, #16]
 8001e96:	f003 0340 	and.w	r3, r3, #64	; 0x40
 8001e9a:	2b40      	cmp	r3, #64	; 0x40
 8001e9c:	d10e      	bne.n	8001ebc <HAL_TIM_IRQHandler+0x1dc>
  {
    if (__HAL_TIM_GET_IT_SOURCE(htim, TIM_IT_TRIGGER) != RESET)
 8001e9e:	687b      	ldr	r3, [r7, #4]
 8001ea0:	681b      	ldr	r3, [r3, #0]
 8001ea2:	68db      	ldr	r3, [r3, #12]
 8001ea4:	f003 0340 	and.w	r3, r3, #64	; 0x40
 8001ea8:	2b40      	cmp	r3, #64	; 0x40
 8001eaa:	d107      	bne.n	8001ebc <HAL_TIM_IRQHandler+0x1dc>
    {
      __HAL_TIM_CLEAR_IT(htim, TIM_IT_TRIGGER);
 8001eac:	687b      	ldr	r3, [r7, #4]
 8001eae:	681b      	ldr	r3, [r3, #0]
 8001eb0:	f06f 0240 	mvn.w	r2, #64	; 0x40
 8001eb4:	611a      	str	r2, [r3, #16]
#if (USE_HAL_TIM_REGISTER_CALLBACKS == 1)
      htim->TriggerCallback(htim);
#else
      HAL_TIM_TriggerCallback(htim);
 8001eb6:	6878      	ldr	r0, [r7, #4]
 8001eb8:	f000 f8dc 	bl	8002074 <HAL_TIM_TriggerCallback>
#endif /* USE_HAL_TIM_REGISTER_CALLBACKS */
    }
  }
  /* TIM commutation event */
  if (__HAL_TIM_GET_FLAG(htim, TIM_FLAG_COM) != RESET)
 8001ebc:	687b      	ldr	r3, [r7, #4]
 8001ebe:	681b      	ldr	r3, [r3, #0]
 8001ec0:	691b      	ldr	r3, [r3, #16]
 8001ec2:	f003 0320 	and.w	r3, r3, #32
 8001ec6:	2b20      	cmp	r3, #32
 8001ec8:	d10e      	bne.n	8001ee8 <HAL_TIM_IRQHandler+0x208>
  {
    if (__HAL_TIM_GET_IT_SOURCE(htim, TIM_IT_COM) != RESET)
 8001eca:	687b      	ldr	r3, [r7, #4]
 8001ecc:	681b      	ldr	r3, [r3, #0]
 8001ece:	68db      	ldr	r3, [r3, #12]
 8001ed0:	f003 0320 	and.w	r3, r3, #32
 8001ed4:	2b20      	cmp	r3, #32
 8001ed6:	d107      	bne.n	8001ee8 <HAL_TIM_IRQHandler+0x208>
    {
      __HAL_TIM_CLEAR_IT(htim, TIM_FLAG_COM);
 8001ed8:	687b      	ldr	r3, [r7, #4]
 8001eda:	681b      	ldr	r3, [r3, #0]
 8001edc:	f06f 0220 	mvn.w	r2, #32
 8001ee0:	611a      	str	r2, [r3, #16]
#if (USE_HAL_TIM_REGISTER_CALLBACKS == 1)
      htim->CommutationCallback(htim);
#else
      HAL_TIMEx_CommutCallback(htim);
 8001ee2:	6878      	ldr	r0, [r7, #4]
 8001ee4:	f000 fbc2 	bl	800266c <HAL_TIMEx_CommutCallback>
#endif /* USE_HAL_TIM_REGISTER_CALLBACKS */
    }
  }
}
 8001ee8:	bf00      	nop
 8001eea:	3708      	adds	r7, #8
 8001eec:	46bd      	mov	sp, r7
 8001eee:	bd80      	pop	{r7, pc}

08001ef0 <HAL_TIM_OC_ConfigChannel>:
  * @retval HAL status
  */
HAL_StatusTypeDef HAL_TIM_OC_ConfigChannel(TIM_HandleTypeDef *htim,
                                           TIM_OC_InitTypeDef *sConfig,
                                           uint32_t Channel)
{
 8001ef0:	b580      	push	{r7, lr}
 8001ef2:	b084      	sub	sp, #16
 8001ef4:	af00      	add	r7, sp, #0
 8001ef6:	60f8      	str	r0, [r7, #12]
 8001ef8:	60b9      	str	r1, [r7, #8]
 8001efa:	607a      	str	r2, [r7, #4]
  assert_param(IS_TIM_CHANNELS(Channel));
  assert_param(IS_TIM_OC_MODE(sConfig->OCMode));
  assert_param(IS_TIM_OC_POLARITY(sConfig->OCPolarity));

  /* Process Locked */
  __HAL_LOCK(htim);
 8001efc:	68fb      	ldr	r3, [r7, #12]
 8001efe:	f893 303c 	ldrb.w	r3, [r3, #60]	; 0x3c
 8001f02:	2b01      	cmp	r3, #1
 8001f04:	d101      	bne.n	8001f0a <HAL_TIM_OC_ConfigChannel+0x1a>
 8001f06:	2302      	movs	r3, #2
 8001f08:	e04e      	b.n	8001fa8 <HAL_TIM_OC_ConfigChannel+0xb8>
 8001f0a:	68fb      	ldr	r3, [r7, #12]
 8001f0c:	2201      	movs	r2, #1
 8001f0e:	f883 203c 	strb.w	r2, [r3, #60]	; 0x3c

  htim->State = HAL_TIM_STATE_BUSY;
 8001f12:	68fb      	ldr	r3, [r7, #12]
 8001f14:	2202      	movs	r2, #2
 8001f16:	f883 203d 	strb.w	r2, [r3, #61]	; 0x3d

  switch (Channel)
 8001f1a:	687b      	ldr	r3, [r7, #4]
 8001f1c:	2b0c      	cmp	r3, #12
 8001f1e:	d839      	bhi.n	8001f94 <HAL_TIM_OC_ConfigChannel+0xa4>
 8001f20:	a201      	add	r2, pc, #4	; (adr r2, 8001f28 <HAL_TIM_OC_ConfigChannel+0x38>)
 8001f22:	f852 f023 	ldr.w	pc, [r2, r3, lsl #2]
 8001f26:	bf00      	nop
 8001f28:	08001f5d 	.word	0x08001f5d
 8001f2c:	08001f95 	.word	0x08001f95
 8001f30:	08001f95 	.word	0x08001f95
 8001f34:	08001f95 	.word	0x08001f95
 8001f38:	08001f6b 	.word	0x08001f6b
 8001f3c:	08001f95 	.word	0x08001f95
 8001f40:	08001f95 	.word	0x08001f95
 8001f44:	08001f95 	.word	0x08001f95
 8001f48:	08001f79 	.word	0x08001f79
 8001f4c:	08001f95 	.word	0x08001f95
 8001f50:	08001f95 	.word	0x08001f95
 8001f54:	08001f95 	.word	0x08001f95
 8001f58:	08001f87 	.word	0x08001f87
    {
      /* Check the parameters */
      assert_param(IS_TIM_CC1_INSTANCE(htim->Instance));

      /* Configure the TIM Channel 1 in Output Compare */
      TIM_OC1_SetConfig(htim->Instance, sConfig);
 8001f5c:	68fb      	ldr	r3, [r7, #12]
 8001f5e:	681b      	ldr	r3, [r3, #0]
 8001f60:	68b9      	ldr	r1, [r7, #8]
 8001f62:	4618      	mov	r0, r3
 8001f64:	f000 f930 	bl	80021c8 <TIM_OC1_SetConfig>
      break;
 8001f68:	e015      	b.n	8001f96 <HAL_TIM_OC_ConfigChannel+0xa6>
    {
      /* Check the parameters */
      assert_param(IS_TIM_CC2_INSTANCE(htim->Instance));

      /* Configure the TIM Channel 2 in Output Compare */
      TIM_OC2_SetConfig(htim->Instance, sConfig);
 8001f6a:	68fb      	ldr	r3, [r7, #12]
 8001f6c:	681b      	ldr	r3, [r3, #0]
 8001f6e:	68b9      	ldr	r1, [r7, #8]
 8001f70:	4618      	mov	r0, r3
 8001f72:	f000 f999 	bl	80022a8 <TIM_OC2_SetConfig>
      break;
 8001f76:	e00e      	b.n	8001f96 <HAL_TIM_OC_ConfigChannel+0xa6>
    {
      /* Check the parameters */
      assert_param(IS_TIM_CC3_INSTANCE(htim->Instance));

      /* Configure the TIM Channel 3 in Output Compare */
      TIM_OC3_SetConfig(htim->Instance, sConfig);
 8001f78:	68fb      	ldr	r3, [r7, #12]
 8001f7a:	681b      	ldr	r3, [r3, #0]
 8001f7c:	68b9      	ldr	r1, [r7, #8]
 8001f7e:	4618      	mov	r0, r3
 8001f80:	f000 fa08 	bl	8002394 <TIM_OC3_SetConfig>
      break;
 8001f84:	e007      	b.n	8001f96 <HAL_TIM_OC_ConfigChannel+0xa6>
    {
      /* Check the parameters */
      assert_param(IS_TIM_CC4_INSTANCE(htim->Instance));

      /* Configure the TIM Channel 4 in Output Compare */
      TIM_OC4_SetConfig(htim->Instance, sConfig);
 8001f86:	68fb      	ldr	r3, [r7, #12]
 8001f88:	681b      	ldr	r3, [r3, #0]
 8001f8a:	68b9      	ldr	r1, [r7, #8]
 8001f8c:	4618      	mov	r0, r3
 8001f8e:	f000 fa75 	bl	800247c <TIM_OC4_SetConfig>
      break;
 8001f92:	e000      	b.n	8001f96 <HAL_TIM_OC_ConfigChannel+0xa6>
    }

    default:
      break;
 8001f94:	bf00      	nop
  }

  htim->State = HAL_TIM_STATE_READY;
 8001f96:	68fb      	ldr	r3, [r7, #12]
 8001f98:	2201      	movs	r2, #1
 8001f9a:	f883 203d 	strb.w	r2, [r3, #61]	; 0x3d

  __HAL_UNLOCK(htim);
 8001f9e:	68fb      	ldr	r3, [r7, #12]
 8001fa0:	2200      	movs	r2, #0
 8001fa2:	f883 203c 	strb.w	r2, [r3, #60]	; 0x3c

  return HAL_OK;
 8001fa6:	2300      	movs	r3, #0
}
 8001fa8:	4618      	mov	r0, r3
 8001faa:	3710      	adds	r7, #16
 8001fac:	46bd      	mov	sp, r7
 8001fae:	bd80      	pop	{r7, pc}

08001fb0 <HAL_TIM_ReadCapturedValue>:
  *            @arg TIM_CHANNEL_3: TIM Channel 3 selected
  *            @arg TIM_CHANNEL_4: TIM Channel 4 selected
  * @retval Captured value
  */
uint32_t HAL_TIM_ReadCapturedValue(TIM_HandleTypeDef *htim, uint32_t Channel)
{
 8001fb0:	b480      	push	{r7}
 8001fb2:	b085      	sub	sp, #20
 8001fb4:	af00      	add	r7, sp, #0
 8001fb6:	6078      	str	r0, [r7, #4]
 8001fb8:	6039      	str	r1, [r7, #0]
  uint32_t tmpreg = 0U;
 8001fba:	2300      	movs	r3, #0
 8001fbc:	60fb      	str	r3, [r7, #12]

  switch (Channel)
 8001fbe:	683b      	ldr	r3, [r7, #0]
 8001fc0:	2b0c      	cmp	r3, #12
 8001fc2:	d831      	bhi.n	8002028 <HAL_TIM_ReadCapturedValue+0x78>
 8001fc4:	a201      	add	r2, pc, #4	; (adr r2, 8001fcc <HAL_TIM_ReadCapturedValue+0x1c>)
 8001fc6:	f852 f023 	ldr.w	pc, [r2, r3, lsl #2]
 8001fca:	bf00      	nop
 8001fcc:	08002001 	.word	0x08002001
 8001fd0:	08002029 	.word	0x08002029
 8001fd4:	08002029 	.word	0x08002029
 8001fd8:	08002029 	.word	0x08002029
 8001fdc:	0800200b 	.word	0x0800200b
 8001fe0:	08002029 	.word	0x08002029
 8001fe4:	08002029 	.word	0x08002029
 8001fe8:	08002029 	.word	0x08002029
 8001fec:	08002015 	.word	0x08002015
 8001ff0:	08002029 	.word	0x08002029
 8001ff4:	08002029 	.word	0x08002029
 8001ff8:	08002029 	.word	0x08002029
 8001ffc:	0800201f 	.word	0x0800201f
    {
      /* Check the parameters */
      assert_param(IS_TIM_CC1_INSTANCE(htim->Instance));

      /* Return the capture 1 value */
      tmpreg =  htim->Instance->CCR1;
 8002000:	687b      	ldr	r3, [r7, #4]
 8002002:	681b      	ldr	r3, [r3, #0]
 8002004:	6b5b      	ldr	r3, [r3, #52]	; 0x34
 8002006:	60fb      	str	r3, [r7, #12]

      break;
