
0013.1_TIM2_pWM_LE_.elf:     file format elf32-littlearm

Sections:
Idx Name          Size      VMA       LMA       File off  Algn
  0 .isr_vector   00000188  08000000  08000000  00010000  2**0
                  CONTENTS, ALLOC, LOAD, READONLY, DATA
  1 .text         00002dd8  08000188  08000188  00010188  2**2
                  CONTENTS, ALLOC, LOAD, READONLY, CODE
  2 .rodata       00000018  08002f60  08002f60  00012f60  2**2
                  CONTENTS, ALLOC, LOAD, READONLY, DATA
  3 .ARM.extab    00000000  08002f78  08002f78  0002000c  2**0
                  CONTENTS
  4 .ARM          00000008  08002f78  08002f78  00012f78  2**2
                  CONTENTS, ALLOC, LOAD, READONLY, DATA
  5 .preinit_array 00000000  08002f80  08002f80  0002000c  2**0
                  CONTENTS, ALLOC, LOAD, DATA
  6 .init_array   00000004  08002f80  08002f80  00012f80  2**2
                  CONTENTS, ALLOC, LOAD, DATA
  7 .fini_array   00000004  08002f84  08002f84  00012f84  2**2
                  CONTENTS, ALLOC, LOAD, DATA
  8 .data         0000000c  20000000  08002f88  00020000  2**2
                  CONTENTS, ALLOC, LOAD, DATA
  9 .bss          000000a4  2000000c  08002f94  0002000c  2**2
                  ALLOC
 10 ._user_heap_stack 00000600  200000b0  08002f94  000200b0  2**0
                  ALLOC
 11 .ARM.attributes 00000030  00000000  00000000  0002000c  2**0
                  CONTENTS, READONLY
 12 .debug_info   0000a2fd  00000000  00000000  0002003c  2**0
                  CONTENTS, READONLY, DEBUGGING
 13 .debug_abbrev 000017dc  00000000  00000000  0002a339  2**0
                  CONTENTS, READONLY, DEBUGGING
 14 .debug_aranges 00000b90  00000000  00000000  0002bb18  2**3
                  CONTENTS, READONLY, DEBUGGING
 15 .debug_ranges 00000ac8  00000000  00000000  0002c6a8  2**3
                  CONTENTS, READONLY, DEBUGGING
 16 .debug_macro  0001ff55  00000000  00000000  0002d170  2**0
                  CONTENTS, READONLY, DEBUGGING
 17 .debug_line   0000817a  00000000  00000000  0004d0c5  2**0
                  CONTENTS, READONLY, DEBUGGING
 18 .debug_str    000c5487  00000000  00000000  0005523f  2**0
                  CONTENTS, READONLY, DEBUGGING
 19 .comment      0000007b  00000000  00000000  0011a6c6  2**0
                  CONTENTS, READONLY
 20 .debug_frame  0000309c  00000000  00000000  0011a744  2**2
                  CONTENTS, READONLY, DEBUGGING

Disassembly of section .text:

08000188 <__do_global_dtors_aux>:
 8000188:	b510      	push	{r4, lr}
 800018a:	4c05      	ldr	r4, [pc, #20]	; (80001a0 <__do_global_dtors_aux+0x18>)
 800018c:	7823      	ldrb	r3, [r4, #0]
 800018e:	b933      	cbnz	r3, 800019e <__do_global_dtors_aux+0x16>
 8000190:	4b04      	ldr	r3, [pc, #16]	; (80001a4 <__do_global_dtors_aux+0x1c>)
 8000192:	b113      	cbz	r3, 800019a <__do_global_dtors_aux+0x12>
 8000194:	4804      	ldr	r0, [pc, #16]	; (80001a8 <__do_global_dtors_aux+0x20>)
 8000196:	f3af 8000 	nop.w
 800019a:	2301      	movs	r3, #1
 800019c:	7023      	strb	r3, [r4, #0]
 800019e:	bd10      	pop	{r4, pc}
 80001a0:	2000000c 	.word	0x2000000c
 80001a4:	00000000 	.word	0x00000000
 80001a8:	08002f48 	.word	0x08002f48

080001ac <frame_dummy>:
 80001ac:	b508      	push	{r3, lr}
 80001ae:	4b03      	ldr	r3, [pc, #12]	; (80001bc <frame_dummy+0x10>)
 80001b0:	b11b      	cbz	r3, 80001ba <frame_dummy+0xe>
 80001b2:	4903      	ldr	r1, [pc, #12]	; (80001c0 <frame_dummy+0x14>)
 80001b4:	4803      	ldr	r0, [pc, #12]	; (80001c4 <frame_dummy+0x18>)
 80001b6:	f3af 8000 	nop.w
 80001ba:	bd08      	pop	{r3, pc}
 80001bc:	00000000 	.word	0x00000000
 80001c0:	20000010 	.word	0x20000010
 80001c4:	08002f48 	.word	0x08002f48

080001c8 <__aeabi_uldivmod>:
 80001c8:	b953      	cbnz	r3, 80001e0 <__aeabi_uldivmod+0x18>
 80001ca:	b94a      	cbnz	r2, 80001e0 <__aeabi_uldivmod+0x18>
 80001cc:	2900      	cmp	r1, #0
 80001ce:	bf08      	it	eq
 80001d0:	2800      	cmpeq	r0, #0
 80001d2:	bf1c      	itt	ne
 80001d4:	f04f 31ff 	movne.w	r1, #4294967295
 80001d8:	f04f 30ff 	movne.w	r0, #4294967295
 80001dc:	f000 b972 	b.w	80004c4 <__aeabi_idiv0>
 80001e0:	f1ad 0c08 	sub.w	ip, sp, #8
 80001e4:	e96d ce04 	strd	ip, lr, [sp, #-16]!
 80001e8:	f000 f806 	bl	80001f8 <__udivmoddi4>
 80001ec:	f8dd e004 	ldr.w	lr, [sp, #4]
 80001f0:	e9dd 2302 	ldrd	r2, r3, [sp, #8]
 80001f4:	b004      	add	sp, #16
 80001f6:	4770      	bx	lr

080001f8 <__udivmoddi4>:
 80001f8:	e92d 47f0 	stmdb	sp!, {r4, r5, r6, r7, r8, r9, sl, lr}
 80001fc:	9e08      	ldr	r6, [sp, #32]
 80001fe:	4604      	mov	r4, r0
 8000200:	4688      	mov	r8, r1
 8000202:	2b00      	cmp	r3, #0
 8000204:	d14b      	bne.n	800029e <__udivmoddi4+0xa6>
 8000206:	428a      	cmp	r2, r1
 8000208:	4615      	mov	r5, r2
 800020a:	d967      	bls.n	80002dc <__udivmoddi4+0xe4>
 800020c:	fab2 f282 	clz	r2, r2
 8000210:	b14a      	cbz	r2, 8000226 <__udivmoddi4+0x2e>
 8000212:	f1c2 0720 	rsb	r7, r2, #32
 8000216:	fa01 f302 	lsl.w	r3, r1, r2
 800021a:	fa20 f707 	lsr.w	r7, r0, r7
 800021e:	4095      	lsls	r5, r2
 8000220:	ea47 0803 	orr.w	r8, r7, r3
 8000224:	4094      	lsls	r4, r2
 8000226:	ea4f 4e15 	mov.w	lr, r5, lsr #16
 800022a:	0c23      	lsrs	r3, r4, #16
 800022c:	fbb8 f7fe 	udiv	r7, r8, lr
 8000230:	fa1f fc85 	uxth.w	ip, r5
 8000234:	fb0e 8817 	mls	r8, lr, r7, r8
 8000238:	ea43 4308 	orr.w	r3, r3, r8, lsl #16
 800023c:	fb07 f10c 	mul.w	r1, r7, ip
 8000240:	4299      	cmp	r1, r3
 8000242:	d909      	bls.n	8000258 <__udivmoddi4+0x60>
 8000244:	18eb      	adds	r3, r5, r3
 8000246:	f107 30ff 	add.w	r0, r7, #4294967295
 800024a:	f080 811b 	bcs.w	8000484 <__udivmoddi4+0x28c>
 800024e:	4299      	cmp	r1, r3
 8000250:	f240 8118 	bls.w	8000484 <__udivmoddi4+0x28c>
 8000254:	3f02      	subs	r7, #2
 8000256:	442b      	add	r3, r5
 8000258:	1a5b      	subs	r3, r3, r1
 800025a:	b2a4      	uxth	r4, r4
 800025c:	fbb3 f0fe 	udiv	r0, r3, lr
 8000260:	fb0e 3310 	mls	r3, lr, r0, r3
 8000264:	ea44 4403 	orr.w	r4, r4, r3, lsl #16
 8000268:	fb00 fc0c 	mul.w	ip, r0, ip
 800026c:	45a4      	cmp	ip, r4
 800026e:	d909      	bls.n	8000284 <__udivmoddi4+0x8c>
 8000270:	192c      	adds	r4, r5, r4
 8000272:	f100 33ff 	add.w	r3, r0, #4294967295
 8000276:	f080 8107 	bcs.w	8000488 <__udivmoddi4+0x290>
 800027a:	45a4      	cmp	ip, r4
 800027c:	f240 8104 	bls.w	8000488 <__udivmoddi4+0x290>
 8000280:	3802      	subs	r0, #2
 8000282:	442c      	add	r4, r5
 8000284:	ea40 4007 	orr.w	r0, r0, r7, lsl #16
 8000288:	eba4 040c 	sub.w	r4, r4, ip
 800028c:	2700      	movs	r7, #0
 800028e:	b11e      	cbz	r6, 8000298 <__udivmoddi4+0xa0>
 8000290:	40d4      	lsrs	r4, r2
 8000292:	2300      	movs	r3, #0
 8000294:	e9c6 4300 	strd	r4, r3, [r6]
 8000298:	4639      	mov	r1, r7
 800029a:	e8bd 87f0 	ldmia.w	sp!, {r4, r5, r6, r7, r8, r9, sl, pc}
 800029e:	428b      	cmp	r3, r1
 80002a0:	d909      	bls.n	80002b6 <__udivmoddi4+0xbe>
 80002a2:	2e00      	cmp	r6, #0
 80002a4:	f000 80eb 	beq.w	800047e <__udivmoddi4+0x286>
 80002a8:	2700      	movs	r7, #0
 80002aa:	e9c6 0100 	strd	r0, r1, [r6]
 80002ae:	4638      	mov	r0, r7
 80002b0:	4639      	mov	r1, r7
 80002b2:	e8bd 87f0 	ldmia.w	sp!, {r4, r5, r6, r7, r8, r9, sl, pc}
 80002b6:	fab3 f783 	clz	r7, r3
 80002ba:	2f00      	cmp	r7, #0
 80002bc:	d147      	bne.n	800034e <__udivmoddi4+0x156>
 80002be:	428b      	cmp	r3, r1
 80002c0:	d302      	bcc.n	80002c8 <__udivmoddi4+0xd0>
 80002c2:	4282      	cmp	r2, r0
 80002c4:	f200 80fa 	bhi.w	80004bc <__udivmoddi4+0x2c4>
 80002c8:	1a84      	subs	r4, r0, r2
 80002ca:	eb61 0303 	sbc.w	r3, r1, r3
 80002ce:	2001      	movs	r0, #1
 80002d0:	4698      	mov	r8, r3
 80002d2:	2e00      	cmp	r6, #0
 80002d4:	d0e0      	beq.n	8000298 <__udivmoddi4+0xa0>
 80002d6:	e9c6 4800 	strd	r4, r8, [r6]
 80002da:	e7dd      	b.n	8000298 <__udivmoddi4+0xa0>
 80002dc:	b902      	cbnz	r2, 80002e0 <__udivmoddi4+0xe8>
 80002de:	deff      	udf	#255	; 0xff
 80002e0:	fab2 f282 	clz	r2, r2
 80002e4:	2a00      	cmp	r2, #0
 80002e6:	f040 808f 	bne.w	8000408 <__udivmoddi4+0x210>
 80002ea:	1b49      	subs	r1, r1, r5
 80002ec:	ea4f 4e15 	mov.w	lr, r5, lsr #16
 80002f0:	fa1f f885 	uxth.w	r8, r5
 80002f4:	2701      	movs	r7, #1
 80002f6:	fbb1 fcfe 	udiv	ip, r1, lr
 80002fa:	0c23      	lsrs	r3, r4, #16
 80002fc:	fb0e 111c 	mls	r1, lr, ip, r1
 8000300:	ea43 4301 	orr.w	r3, r3, r1, lsl #16
 8000304:	fb08 f10c 	mul.w	r1, r8, ip
 8000308:	4299      	cmp	r1, r3
 800030a:	d907      	bls.n	800031c <__udivmoddi4+0x124>
 800030c:	18eb      	adds	r3, r5, r3
 800030e:	f10c 30ff 	add.w	r0, ip, #4294967295
 8000312:	d202      	bcs.n	800031a <__udivmoddi4+0x122>
 8000314:	4299      	cmp	r1, r3
 8000316:	f200 80cd 	bhi.w	80004b4 <__udivmoddi4+0x2bc>
 800031a:	4684      	mov	ip, r0
 800031c:	1a59      	subs	r1, r3, r1
 800031e:	b2a3      	uxth	r3, r4
 8000320:	fbb1 f0fe 	udiv	r0, r1, lr
 8000324:	fb0e 1410 	mls	r4, lr, r0, r1
 8000328:	ea43 4404 	orr.w	r4, r3, r4, lsl #16
 800032c:	fb08 f800 	mul.w	r8, r8, r0
 8000330:	45a0      	cmp	r8, r4
 8000332:	d907      	bls.n	8000344 <__udivmoddi4+0x14c>
 8000334:	192c      	adds	r4, r5, r4
 8000336:	f100 33ff 	add.w	r3, r0, #4294967295
 800033a:	d202      	bcs.n	8000342 <__udivmoddi4+0x14a>
 800033c:	45a0      	cmp	r8, r4
 800033e:	f200 80b6 	bhi.w	80004ae <__udivmoddi4+0x2b6>
 8000342:	4618      	mov	r0, r3
 8000344:	eba4 0408 	sub.w	r4, r4, r8
 8000348:	ea40 400c 	orr.w	r0, r0, ip, lsl #16
 800034c:	e79f      	b.n	800028e <__udivmoddi4+0x96>
 800034e:	f1c7 0c20 	rsb	ip, r7, #32
 8000352:	40bb      	lsls	r3, r7
 8000354:	fa22 fe0c 	lsr.w	lr, r2, ip
 8000358:	ea4e 0e03 	orr.w	lr, lr, r3
 800035c:	fa01 f407 	lsl.w	r4, r1, r7
 8000360:	fa20 f50c 	lsr.w	r5, r0, ip
 8000364:	fa21 f30c 	lsr.w	r3, r1, ip
 8000368:	ea4f 481e 	mov.w	r8, lr, lsr #16
 800036c:	4325      	orrs	r5, r4
 800036e:	fbb3 f9f8 	udiv	r9, r3, r8
 8000372:	0c2c      	lsrs	r4, r5, #16
 8000374:	fb08 3319 	mls	r3, r8, r9, r3
 8000378:	fa1f fa8e 	uxth.w	sl, lr
 800037c:	ea44 4303 	orr.w	r3, r4, r3, lsl #16
 8000380:	fb09 f40a 	mul.w	r4, r9, sl
 8000384:	429c      	cmp	r4, r3
 8000386:	fa02 f207 	lsl.w	r2, r2, r7
 800038a:	fa00 f107 	lsl.w	r1, r0, r7
 800038e:	d90b      	bls.n	80003a8 <__udivmoddi4+0x1b0>
 8000390:	eb1e 0303 	adds.w	r3, lr, r3
 8000394:	f109 30ff 	add.w	r0, r9, #4294967295
 8000398:	f080 8087 	bcs.w	80004aa <__udivmoddi4+0x2b2>
 800039c:	429c      	cmp	r4, r3
 800039e:	f240 8084 	bls.w	80004aa <__udivmoddi4+0x2b2>
 80003a2:	f1a9 0902 	sub.w	r9, r9, #2
 80003a6:	4473      	add	r3, lr
 80003a8:	1b1b      	subs	r3, r3, r4
 80003aa:	b2ad      	uxth	r5, r5
 80003ac:	fbb3 f0f8 	udiv	r0, r3, r8
 80003b0:	fb08 3310 	mls	r3, r8, r0, r3
 80003b4:	ea45 4403 	orr.w	r4, r5, r3, lsl #16
 80003b8:	fb00 fa0a 	mul.w	sl, r0, sl
 80003bc:	45a2      	cmp	sl, r4
 80003be:	d908      	bls.n	80003d2 <__udivmoddi4+0x1da>
 80003c0:	eb1e 0404 	adds.w	r4, lr, r4
 80003c4:	f100 33ff 	add.w	r3, r0, #4294967295
 80003c8:	d26b      	bcs.n	80004a2 <__udivmoddi4+0x2aa>
 80003ca:	45a2      	cmp	sl, r4
 80003cc:	d969      	bls.n	80004a2 <__udivmoddi4+0x2aa>
 80003ce:	3802      	subs	r0, #2
 80003d0:	4474      	add	r4, lr
 80003d2:	ea40 4009 	orr.w	r0, r0, r9, lsl #16
 80003d6:	fba0 8902 	umull	r8, r9, r0, r2
 80003da:	eba4 040a 	sub.w	r4, r4, sl
 80003de:	454c      	cmp	r4, r9
 80003e0:	46c2      	mov	sl, r8
 80003e2:	464b      	mov	r3, r9
 80003e4:	d354      	bcc.n	8000490 <__udivmoddi4+0x298>
 80003e6:	d051      	beq.n	800048c <__udivmoddi4+0x294>
 80003e8:	2e00      	cmp	r6, #0
 80003ea:	d069      	beq.n	80004c0 <__udivmoddi4+0x2c8>
 80003ec:	ebb1 050a 	subs.w	r5, r1, sl
 80003f0:	eb64 0403 	sbc.w	r4, r4, r3
 80003f4:	fa04 fc0c 	lsl.w	ip, r4, ip
 80003f8:	40fd      	lsrs	r5, r7
 80003fa:	40fc      	lsrs	r4, r7
 80003fc:	ea4c 0505 	orr.w	r5, ip, r5
 8000400:	e9c6 5400 	strd	r5, r4, [r6]
 8000404:	2700      	movs	r7, #0
 8000406:	e747      	b.n	8000298 <__udivmoddi4+0xa0>
 8000408:	f1c2 0320 	rsb	r3, r2, #32
 800040c:	fa20 f703 	lsr.w	r7, r0, r3
 8000410:	4095      	lsls	r5, r2
 8000412:	fa01 f002 	lsl.w	r0, r1, r2
 8000416:	fa21 f303 	lsr.w	r3, r1, r3
 800041a:	ea4f 4e15 	mov.w	lr, r5, lsr #16
 800041e:	4338      	orrs	r0, r7
 8000420:	0c01      	lsrs	r1, r0, #16
 8000422:	fbb3 f7fe 	udiv	r7, r3, lr
 8000426:	fa1f f885 	uxth.w	r8, r5
 800042a:	fb0e 3317 	mls	r3, lr, r7, r3
 800042e:	ea41 4103 	orr.w	r1, r1, r3, lsl #16
 8000432:	fb07 f308 	mul.w	r3, r7, r8
 8000436:	428b      	cmp	r3, r1
 8000438:	fa04 f402 	lsl.w	r4, r4, r2
 800043c:	d907      	bls.n	800044e <__udivmoddi4+0x256>
 800043e:	1869      	adds	r1, r5, r1
 8000440:	f107 3cff 	add.w	ip, r7, #4294967295
 8000444:	d22f      	bcs.n	80004a6 <__udivmoddi4+0x2ae>
 8000446:	428b      	cmp	r3, r1
 8000448:	d92d      	bls.n	80004a6 <__udivmoddi4+0x2ae>
 800044a:	3f02      	subs	r7, #2
 800044c:	4429      	add	r1, r5
 800044e:	1acb      	subs	r3, r1, r3
 8000450:	b281      	uxth	r1, r0
 8000452:	fbb3 f0fe 	udiv	r0, r3, lr
 8000456:	fb0e 3310 	mls	r3, lr, r0, r3
 800045a:	ea41 4103 	orr.w	r1, r1, r3, lsl #16
 800045e:	fb00 f308 	mul.w	r3, r0, r8
 8000462:	428b      	cmp	r3, r1
 8000464:	d907      	bls.n	8000476 <__udivmoddi4+0x27e>
 8000466:	1869      	adds	r1, r5, r1
 8000468:	f100 3cff 	add.w	ip, r0, #4294967295
 800046c:	d217      	bcs.n	800049e <__udivmoddi4+0x2a6>
 800046e:	428b      	cmp	r3, r1
 8000470:	d915      	bls.n	800049e <__udivmoddi4+0x2a6>
 8000472:	3802      	subs	r0, #2
 8000474:	4429      	add	r1, r5
 8000476:	1ac9      	subs	r1, r1, r3
 8000478:	ea40 4707 	orr.w	r7, r0, r7, lsl #16
 800047c:	e73b      	b.n	80002f6 <__udivmoddi4+0xfe>
 800047e:	4637      	mov	r7, r6
 8000480:	4630      	mov	r0, r6
 8000482:	e709      	b.n	8000298 <__udivmoddi4+0xa0>
 8000484:	4607      	mov	r7, r0
 8000486:	e6e7      	b.n	8000258 <__udivmoddi4+0x60>
 8000488:	4618      	mov	r0, r3
 800048a:	e6fb      	b.n	8000284 <__udivmoddi4+0x8c>
 800048c:	4541      	cmp	r1, r8
 800048e:	d2ab      	bcs.n	80003e8 <__udivmoddi4+0x1f0>
 8000490:	ebb8 0a02 	subs.w	sl, r8, r2
 8000494:	eb69 020e 	sbc.w	r2, r9, lr
 8000498:	3801      	subs	r0, #1
 800049a:	4613      	mov	r3, r2
 800049c:	e7a4      	b.n	80003e8 <__udivmoddi4+0x1f0>
 800049e:	4660      	mov	r0, ip
 80004a0:	e7e9      	b.n	8000476 <__udivmoddi4+0x27e>
 80004a2:	4618      	mov	r0, r3
 80004a4:	e795      	b.n	80003d2 <__udivmoddi4+0x1da>
 80004a6:	4667      	mov	r7, ip
 80004a8:	e7d1      	b.n	800044e <__udivmoddi4+0x256>
 80004aa:	4681      	mov	r9, r0
 80004ac:	e77c      	b.n	80003a8 <__udivmoddi4+0x1b0>
 80004ae:	3802      	subs	r0, #2
 80004b0:	442c      	add	r4, r5
 80004b2:	e747      	b.n	8000344 <__udivmoddi4+0x14c>
 80004b4:	f1ac 0c02 	sub.w	ip, ip, #2
 80004b8:	442b      	add	r3, r5
 80004ba:	e72f      	b.n	800031c <__udivmoddi4+0x124>
 80004bc:	4638      	mov	r0, r7
 80004be:	e708      	b.n	80002d2 <__udivmoddi4+0xda>
 80004c0:	4637      	mov	r7, r6
 80004c2:	e6e9      	b.n	8000298 <__udivmoddi4+0xa0>

080004c4 <__aeabi_idiv0>:
 80004c4:	4770      	bx	lr
 80004c6:	bf00      	nop

080004c8 <main>:
/**
  * @brief  The application entry point.
  * @retval int
  */
int main(void)
{
 80004c8:	b580      	push	{r7, lr}
 80004ca:	af00      	add	r7, sp, #0
  /* USER CODE END 1 */

  /* MCU Configuration--------------------------------------------------------*/

  /* Reset of all peripherals, Initializes the Flash interface and the Systick. */
  HAL_Init();
 80004cc:	f000 fb06 	bl	8000adc <HAL_Init>
  /* USER CODE BEGIN Init */

  /* USER CODE END Init */

  /* Configure the system clock */
  SystemClock_Config();
 80004d0:	f000 f83a 	bl	8000548 <SystemClock_Config>
  /* USER CODE BEGIN SysInit */

  /* USER CODE END SysInit */

  /* Initialize all configured peripherals */
  MX_GPIO_Init();
 80004d4:	f000 f924 	bl	8000720 <MX_GPIO_Init>
  MX_TIM2_Init();
 80004d8:	f000 f8a0 	bl	800061c <MX_TIM2_Init>
  MX_USART2_UART_Init();
 80004dc:	f000 f8f6 	bl	80006cc <MX_USART2_UART_Init>
  /* USER CODE BEGIN 2 */

  if (HAL_TIM_PWM_Start(&htim2,TIM_CHANNEL_1)!= HAL_OK)
 80004e0:	2100      	movs	r1, #0
 80004e2:	4817      	ldr	r0, [pc, #92]	; (8000540 <main+0x78>)
 80004e4:	f001 fb04 	bl	8001af0 <HAL_TIM_PWM_Start>
 80004e8:	4603      	mov	r3, r0
 80004ea:	2b00      	cmp	r3, #0
 80004ec:	d00f      	beq.n	800050e <main+0x46>
  {
  	Error_Handler();
 80004ee:	f000 f995 	bl	800081c <Error_Handler>
  //      {
  //    	  brightness =0;
  //      }
  	while (1)
  	{
  		 while (brightness<htim2.Init.Period)
 80004f2:	e00c      	b.n	800050e <main+0x46>
  		 {
  			 brightness+=10;
 80004f4:	4b13      	ldr	r3, [pc, #76]	; (8000544 <main+0x7c>)
 80004f6:	681b      	ldr	r3, [r3, #0]
 80004f8:	330a      	adds	r3, #10
 80004fa:	4a12      	ldr	r2, [pc, #72]	; (8000544 <main+0x7c>)
 80004fc:	6013      	str	r3, [r2, #0]
  			   __HAL_TIM_SET_COMPARE(&htim2,TIM_CHANNEL_1,brightness);
 80004fe:	4b10      	ldr	r3, [pc, #64]	; (8000540 <main+0x78>)
 8000500:	681b      	ldr	r3, [r3, #0]
 8000502:	4a10      	ldr	r2, [pc, #64]	; (8000544 <main+0x7c>)
 8000504:	6812      	ldr	r2, [r2, #0]
 8000506:	635a      	str	r2, [r3, #52]	; 0x34
  				  HAL_Delay(1);
 8000508:	2001      	movs	r0, #1
 800050a:	f000 fb59 	bl	8000bc0 <HAL_Delay>
  		 while (brightness<htim2.Init.Period)
 800050e:	4b0c      	ldr	r3, [pc, #48]	; (8000540 <main+0x78>)
 8000510:	68da      	ldr	r2, [r3, #12]
 8000512:	4b0c      	ldr	r3, [pc, #48]	; (8000544 <main+0x7c>)
 8000514:	681b      	ldr	r3, [r3, #0]
 8000516:	429a      	cmp	r2, r3
 8000518:	d8ec      	bhi.n	80004f4 <main+0x2c>

  		  }
  		 while (brightness>0)
 800051a:	e00c      	b.n	8000536 <main+0x6e>
  		 {
  			 brightness-=10;
 800051c:	4b09      	ldr	r3, [pc, #36]	; (8000544 <main+0x7c>)
 800051e:	681b      	ldr	r3, [r3, #0]
 8000520:	3b0a      	subs	r3, #10
 8000522:	4a08      	ldr	r2, [pc, #32]	; (8000544 <main+0x7c>)
 8000524:	6013      	str	r3, [r2, #0]
  			   __HAL_TIM_SET_COMPARE(&htim2,TIM_CHANNEL_1,brightness);
 8000526:	4b06      	ldr	r3, [pc, #24]	; (8000540 <main+0x78>)
 8000528:	681b      	ldr	r3, [r3, #0]
 800052a:	4a06      	ldr	r2, [pc, #24]	; (8000544 <main+0x7c>)
 800052c:	6812      	ldr	r2, [r2, #0]
 800052e:	635a      	str	r2, [r3, #52]	; 0x34
  				  HAL_Delay(1);
 8000530:	2001      	movs	r0, #1
 8000532:	f000 fb45 	bl	8000bc0 <HAL_Delay>
  		 while (brightness>0)
 8000536:	4b03      	ldr	r3, [pc, #12]	; (8000544 <main+0x7c>)
 8000538:	681b      	ldr	r3, [r3, #0]
 800053a:	2b00      	cmp	r3, #0
 800053c:	d1ee      	bne.n	800051c <main+0x54>
  		 while (brightness<htim2.Init.Period)
 800053e:	e7e6      	b.n	800050e <main+0x46>
 8000540:	2000002c 	.word	0x2000002c
 8000544:	20000028 	.word	0x20000028

08000548 <SystemClock_Config>:
/**
  * @brief System Clock Configuration
  * @retval None
  */
void SystemClock_Config(void)
{
 8000548:	b580      	push	{r7, lr}
 800054a:	b094      	sub	sp, #80	; 0x50
 800054c:	af00      	add	r7, sp, #0
  RCC_OscInitTypeDef RCC_OscInitStruct = {0};
 800054e:	f107 0320 	add.w	r3, r7, #32
 8000552:	2230      	movs	r2, #48	; 0x30
 8000554:	2100      	movs	r1, #0
 8000556:	4618      	mov	r0, r3
 8000558:	f002 fcee 	bl	8002f38 <memset>
  RCC_ClkInitTypeDef RCC_ClkInitStruct = {0};
 800055c:	f107 030c 	add.w	r3, r7, #12
 8000560:	2200      	movs	r2, #0
 8000562:	601a      	str	r2, [r3, #0]
 8000564:	605a      	str	r2, [r3, #4]
 8000566:	609a      	str	r2, [r3, #8]
 8000568:	60da      	str	r2, [r3, #12]
 800056a:	611a      	str	r2, [r3, #16]

  /** Configure the main internal regulator output voltage 
  */
  __HAL_RCC_PWR_CLK_ENABLE();
 800056c:	2300      	movs	r3, #0
 800056e:	60bb      	str	r3, [r7, #8]
 8000570:	4b28      	ldr	r3, [pc, #160]	; (8000614 <SystemClock_Config+0xcc>)
 8000572:	6c1b      	ldr	r3, [r3, #64]	; 0x40
 8000574:	4a27      	ldr	r2, [pc, #156]	; (8000614 <SystemClock_Config+0xcc>)
 8000576:	f043 5380 	orr.w	r3, r3, #268435456	; 0x10000000
 800057a:	6413      	str	r3, [r2, #64]	; 0x40
 800057c:	4b25      	ldr	r3, [pc, #148]	; (8000614 <SystemClock_Config+0xcc>)
 800057e:	6c1b      	ldr	r3, [r3, #64]	; 0x40
 8000580:	f003 5380 	and.w	r3, r3, #268435456	; 0x10000000
 8000584:	60bb      	str	r3, [r7, #8]
 8000586:	68bb      	ldr	r3, [r7, #8]
  __HAL_PWR_VOLTAGESCALING_CONFIG(PWR_REGULATOR_VOLTAGE_SCALE1);
 8000588:	2300      	movs	r3, #0
 800058a:	607b      	str	r3, [r7, #4]
 800058c:	4b22      	ldr	r3, [pc, #136]	; (8000618 <SystemClock_Config+0xd0>)
 800058e:	681b      	ldr	r3, [r3, #0]
 8000590:	4a21      	ldr	r2, [pc, #132]	; (8000618 <SystemClock_Config+0xd0>)
 8000592:	f443 4380 	orr.w	r3, r3, #16384	; 0x4000
 8000596:	6013      	str	r3, [r2, #0]
 8000598:	4b1f      	ldr	r3, [pc, #124]	; (8000618 <SystemClock_Config+0xd0>)
 800059a:	681b      	ldr	r3, [r3, #0]
 800059c:	f403 4380 	and.w	r3, r3, #16384	; 0x4000
 80005a0:	607b      	str	r3, [r7, #4]
 80005a2:	687b      	ldr	r3, [r7, #4]
  /** Initializes the CPU, AHB and APB busses clocks 
  */
  RCC_OscInitStruct.OscillatorType = RCC_OSCILLATORTYPE_HSE;
 80005a4:	2301      	movs	r3, #1
 80005a6:	623b      	str	r3, [r7, #32]
  RCC_OscInitStruct.HSEState = RCC_HSE_ON;
 80005a8:	f44f 3380 	mov.w	r3, #65536	; 0x10000
 80005ac:	627b      	str	r3, [r7, #36]	; 0x24
  RCC_OscInitStruct.PLL.PLLState = RCC_PLL_ON;
 80005ae:	2302      	movs	r3, #2
 80005b0:	63bb      	str	r3, [r7, #56]	; 0x38
  RCC_OscInitStruct.PLL.PLLSource = RCC_PLLSOURCE_HSE;
 80005b2:	f44f 0380 	mov.w	r3, #4194304	; 0x400000
 80005b6:	63fb      	str	r3, [r7, #60]	; 0x3c
  RCC_OscInitStruct.PLL.PLLM = 8;
 80005b8:	2308      	movs	r3, #8
 80005ba:	643b      	str	r3, [r7, #64]	; 0x40
  RCC_OscInitStruct.PLL.PLLN = 100;
 80005bc:	2364      	movs	r3, #100	; 0x64
 80005be:	647b      	str	r3, [r7, #68]	; 0x44
  RCC_OscInitStruct.PLL.PLLP = RCC_PLLP_DIV2;
 80005c0:	2302      	movs	r3, #2
 80005c2:	64bb      	str	r3, [r7, #72]	; 0x48
  RCC_OscInitStruct.PLL.PLLQ = 7;
 80005c4:	2307      	movs	r3, #7
 80005c6:	64fb      	str	r3, [r7, #76]	; 0x4c
  if (HAL_RCC_OscConfig(&RCC_OscInitStruct) != HAL_OK)
 80005c8:	f107 0320 	add.w	r3, r7, #32
 80005cc:	4618      	mov	r0, r3
 80005ce:	f000 fe01 	bl	80011d4 <HAL_RCC_OscConfig>
 80005d2:	4603      	mov	r3, r0
 80005d4:	2b00      	cmp	r3, #0
 80005d6:	d001      	beq.n	80005dc <SystemClock_Config+0x94>
  {
    Error_Handler();
 80005d8:	f000 f920 	bl	800081c <Error_Handler>
  }
  /** Initializes the CPU, AHB and APB busses clocks 
  */
  RCC_ClkInitStruct.ClockType = RCC_CLOCKTYPE_HCLK|RCC_CLOCKTYPE_SYSCLK
 80005dc:	230f      	movs	r3, #15
 80005de:	60fb      	str	r3, [r7, #12]
                              |RCC_CLOCKTYPE_PCLK1|RCC_CLOCKTYPE_PCLK2;
  RCC_ClkInitStruct.SYSCLKSource = RCC_SYSCLKSOURCE_PLLCLK;
 80005e0:	2302      	movs	r3, #2
 80005e2:	613b      	str	r3, [r7, #16]
  RCC_ClkInitStruct.AHBCLKDivider = RCC_SYSCLK_DIV1;
 80005e4:	2300      	movs	r3, #0
 80005e6:	617b      	str	r3, [r7, #20]
  RCC_ClkInitStruct.APB1CLKDivider = RCC_HCLK_DIV2;
 80005e8:	f44f 5380 	mov.w	r3, #4096	; 0x1000
 80005ec:	61bb      	str	r3, [r7, #24]
  RCC_ClkInitStruct.APB2CLKDivider = RCC_HCLK_DIV2;
 80005ee:	f44f 5380 	mov.w	r3, #4096	; 0x1000
 80005f2:	61fb      	str	r3, [r7, #28]

  if (HAL_RCC_ClockConfig(&RCC_ClkInitStruct, FLASH_LATENCY_1) != HAL_OK)
 80005f4:	f107 030c 	add.w	r3, r7, #12
 80005f8:	2101      	movs	r1, #1
 80005fa:	4618      	mov	r0, r3
 80005fc:	f001 f85a 	bl	80016b4 <HAL_RCC_ClockConfig>
 8000600:	4603      	mov	r3, r0
 8000602:	2b00      	cmp	r3, #0
 8000604:	d001      	beq.n	800060a <SystemClock_Config+0xc2>
  {
    Error_Handler();
 8000606:	f000 f909 	bl	800081c <Error_Handler>
  }
}
 800060a:	bf00      	nop
 800060c:	3750      	adds	r7, #80	; 0x50
 800060e:	46bd      	mov	sp, r7
 8000610:	bd80      	pop	{r7, pc}
 8000612:	bf00      	nop
 8000614:	40023800 	.word	0x40023800
 8000618:	40007000 	.word	0x40007000

0800061c <MX_TIM2_Init>:
  * @brief TIM2 Initialization Function
  * @param None
  * @retval None
  */
static void MX_TIM2_Init(void)
{
 800061c:	b580      	push	{r7, lr}
 800061e:	b08a      	sub	sp, #40	; 0x28
 8000620:	af00      	add	r7, sp, #0

  /* USER CODE BEGIN TIM2_Init 0 */

  /* USER CODE END TIM2_Init 0 */

  TIM_MasterConfigTypeDef sMasterConfig = {0};
 8000622:	f107 0320 	add.w	r3, r7, #32
 8000626:	2200      	movs	r2, #0
 8000628:	601a      	str	r2, [r3, #0]
 800062a:	605a      	str	r2, [r3, #4]
  TIM_OC_InitTypeDef sConfigOC = {0};
 800062c:	1d3b      	adds	r3, r7, #4
 800062e:	2200      	movs	r2, #0
 8000630:	601a      	str	r2, [r3, #0]
 8000632:	605a      	str	r2, [r3, #4]
 8000634:	609a      	str	r2, [r3, #8]
 8000636:	60da      	str	r2, [r3, #12]
 8000638:	611a      	str	r2, [r3, #16]
 800063a:	615a      	str	r2, [r3, #20]
 800063c:	619a      	str	r2, [r3, #24]

  /* USER CODE BEGIN TIM2_Init 1 */

  /* USER CODE END TIM2_Init 1 */
  htim2.Instance = TIM2;
 800063e:	4b22      	ldr	r3, [pc, #136]	; (80006c8 <MX_TIM2_Init+0xac>)
 8000640:	f04f 4280 	mov.w	r2, #1073741824	; 0x40000000
 8000644:	601a      	str	r2, [r3, #0]
  htim2.Init.Prescaler = 4;
 8000646:	4b20      	ldr	r3, [pc, #128]	; (80006c8 <MX_TIM2_Init+0xac>)
 8000648:	2204      	movs	r2, #4
 800064a:	605a      	str	r2, [r3, #4]
  htim2.Init.CounterMode = TIM_COUNTERMODE_UP;
 800064c:	4b1e      	ldr	r3, [pc, #120]	; (80006c8 <MX_TIM2_Init+0xac>)
 800064e:	2200      	movs	r2, #0
 8000650:	609a      	str	r2, [r3, #8]
  htim2.Init.Period = 10000-1;
 8000652:	4b1d      	ldr	r3, [pc, #116]	; (80006c8 <MX_TIM2_Init+0xac>)
 8000654:	f242 720f 	movw	r2, #9999	; 0x270f
 8000658:	60da      	str	r2, [r3, #12]
  htim2.Init.ClockDivision = TIM_CLOCKDIVISION_DIV1;
 800065a:	4b1b      	ldr	r3, [pc, #108]	; (80006c8 <MX_TIM2_Init+0xac>)
 800065c:	2200      	movs	r2, #0
 800065e:	611a      	str	r2, [r3, #16]
  htim2.Init.AutoReloadPreload = TIM_AUTORELOAD_PRELOAD_DISABLE;
 8000660:	4b19      	ldr	r3, [pc, #100]	; (80006c8 <MX_TIM2_Init+0xac>)
 8000662:	2200      	movs	r2, #0
 8000664:	619a      	str	r2, [r3, #24]
  if (HAL_TIM_PWM_Init(&htim2) != HAL_OK)
 8000666:	4818      	ldr	r0, [pc, #96]	; (80006c8 <MX_TIM2_Init+0xac>)
 8000668:	f001 fa16 	bl	8001a98 <HAL_TIM_PWM_Init>
 800066c:	4603      	mov	r3, r0
 800066e:	2b00      	cmp	r3, #0
 8000670:	d001      	beq.n	8000676 <MX_TIM2_Init+0x5a>
  {
    Error_Handler();
 8000672:	f000 f8d3 	bl	800081c <Error_Handler>
  }
  sMasterConfig.MasterOutputTrigger = TIM_TRGO_RESET;
 8000676:	2300      	movs	r3, #0
 8000678:	623b      	str	r3, [r7, #32]
  sMasterConfig.MasterSlaveMode = TIM_MASTERSLAVEMODE_DISABLE;
 800067a:	2300      	movs	r3, #0
 800067c:	627b      	str	r3, [r7, #36]	; 0x24
  if (HAL_TIMEx_MasterConfigSynchronization(&htim2, &sMasterConfig) != HAL_OK)
 800067e:	f107 0320 	add.w	r3, r7, #32
 8000682:	4619      	mov	r1, r3
 8000684:	4810      	ldr	r0, [pc, #64]	; (80006c8 <MX_TIM2_Init+0xac>)
 8000686:	f001 fdad 	bl	80021e4 <HAL_TIMEx_MasterConfigSynchronization>
 800068a:	4603      	mov	r3, r0
 800068c:	2b00      	cmp	r3, #0
 800068e:	d001      	beq.n	8000694 <MX_TIM2_Init+0x78>
  {
    Error_Handler();
 8000690:	f000 f8c4 	bl	800081c <Error_Handler>
  }
  sConfigOC.OCMode = TIM_OCMODE_PWM1;
 8000694:	2360      	movs	r3, #96	; 0x60
 8000696:	607b      	str	r3, [r7, #4]
  sConfigOC.Pulse = 0;
 8000698:	2300      	movs	r3, #0
 800069a:	60bb      	str	r3, [r7, #8]
  sConfigOC.OCPolarity = TIM_OCPOLARITY_HIGH;
 800069c:	2300      	movs	r3, #0
 800069e:	60fb      	str	r3, [r7, #12]
  sConfigOC.OCFastMode = TIM_OCFAST_DISABLE;
 80006a0:	2300      	movs	r3, #0
 80006a2:	617b      	str	r3, [r7, #20]
  if (HAL_TIM_PWM_ConfigChannel(&htim2, &sConfigOC, TIM_CHANNEL_1) != HAL_OK)
 80006a4:	1d3b      	adds	r3, r7, #4
 80006a6:	2200      	movs	r2, #0
 80006a8:	4619      	mov	r1, r3
 80006aa:	4807      	ldr	r0, [pc, #28]	; (80006c8 <MX_TIM2_Init+0xac>)
 80006ac:	f001 fa5e 	bl	8001b6c <HAL_TIM_PWM_ConfigChannel>
 80006b0:	4603      	mov	r3, r0
 80006b2:	2b00      	cmp	r3, #0
 80006b4:	d001      	beq.n	80006ba <MX_TIM2_Init+0x9e>
  {
    Error_Handler();
 80006b6:	f000 f8b1 	bl	800081c <Error_Handler>
  }
  /* USER CODE BEGIN TIM2_Init 2 */

  /* USER CODE END TIM2_Init 2 */
  HAL_TIM_MspPostInit(&htim2);
 80006ba:	4803      	ldr	r0, [pc, #12]	; (80006c8 <MX_TIM2_Init+0xac>)
 80006bc:	f000 f906 	bl	80008cc <HAL_TIM_MspPostInit>

}
 80006c0:	bf00      	nop
 80006c2:	3728      	adds	r7, #40	; 0x28
 80006c4:	46bd      	mov	sp, r7
 80006c6:	bd80      	pop	{r7, pc}
 80006c8:	2000002c 	.word	0x2000002c

080006cc <MX_USART2_UART_Init>:
  * @brief USART2 Initialization Function
  * @param None
  * @retval None
  */
static void MX_USART2_UART_Init(void)
{
 80006cc:	b580      	push	{r7, lr}
 80006ce:	af00      	add	r7, sp, #0
  /* USER CODE END USART2_Init 0 */

  /* USER CODE BEGIN USART2_Init 1 */

  /* USER CODE END USART2_Init 1 */
  huart2.Instance = USART2;
 80006d0:	4b11      	ldr	r3, [pc, #68]	; (8000718 <MX_USART2_UART_Init+0x4c>)
 80006d2:	4a12      	ldr	r2, [pc, #72]	; (800071c <MX_USART2_UART_Init+0x50>)
 80006d4:	601a      	str	r2, [r3, #0]
  huart2.Init.BaudRate = 115200;
 80006d6:	4b10      	ldr	r3, [pc, #64]	; (8000718 <MX_USART2_UART_Init+0x4c>)
 80006d8:	f44f 32e1 	mov.w	r2, #115200	; 0x1c200
 80006dc:	605a      	str	r2, [r3, #4]
  huart2.Init.WordLength = UART_WORDLENGTH_8B;
 80006de:	4b0e      	ldr	r3, [pc, #56]	; (8000718 <MX_USART2_UART_Init+0x4c>)
 80006e0:	2200      	movs	r2, #0
 80006e2:	609a      	str	r2, [r3, #8]
  huart2.Init.StopBits = UART_STOPBITS_1;
 80006e4:	4b0c      	ldr	r3, [pc, #48]	; (8000718 <MX_USART2_UART_Init+0x4c>)
 80006e6:	2200      	movs	r2, #0
 80006e8:	60da      	str	r2, [r3, #12]
  huart2.Init.Parity = UART_PARITY_NONE;
 80006ea:	4b0b      	ldr	r3, [pc, #44]	; (8000718 <MX_USART2_UART_Init+0x4c>)
 80006ec:	2200      	movs	r2, #0
 80006ee:	611a      	str	r2, [r3, #16]
  huart2.Init.Mode = UART_MODE_TX_RX;
 80006f0:	4b09      	ldr	r3, [pc, #36]	; (8000718 <MX_USART2_UART_Init+0x4c>)
 80006f2:	220c      	movs	r2, #12
 80006f4:	615a      	str	r2, [r3, #20]
  huart2.Init.HwFlowCtl = UART_HWCONTROL_NONE;
 80006f6:	4b08      	ldr	r3, [pc, #32]	; (8000718 <MX_USART2_UART_Init+0x4c>)
 80006f8:	2200      	movs	r2, #0
 80006fa:	619a      	str	r2, [r3, #24]
  huart2.Init.OverSampling = UART_OVERSAMPLING_16;
 80006fc:	4b06      	ldr	r3, [pc, #24]	; (8000718 <MX_USART2_UART_Init+0x4c>)
 80006fe:	2200      	movs	r2, #0
 8000700:	61da      	str	r2, [r3, #28]
  if (HAL_UART_Init(&huart2) != HAL_OK)
 8000702:	4805      	ldr	r0, [pc, #20]	; (8000718 <MX_USART2_UART_Init+0x4c>)
 8000704:	f001 fdea 	bl	80022dc <HAL_UART_Init>
 8000708:	4603      	mov	r3, r0
 800070a:	2b00      	cmp	r3, #0
 800070c:	d001      	beq.n	8000712 <MX_USART2_UART_Init+0x46>
  {
    Error_Handler();
 800070e:	f000 f885 	bl	800081c <Error_Handler>
  }
  /* USER CODE BEGIN USART2_Init 2 */

  /* USER CODE END USART2_Init 2 */

}
 8000712:	bf00      	nop
 8000714:	bd80      	pop	{r7, pc}
 8000716:	bf00      	nop
 8000718:	2000006c 	.word	0x2000006c
 800071c:	40004400 	.word	0x40004400

08000720 <MX_GPIO_Init>:
  * @brief GPIO Initialization Function
  * @param None
  * @retval None
  */
static void MX_GPIO_Init(void)
{
 8000720:	b580      	push	{r7, lr}
 8000722:	b08a      	sub	sp, #40	; 0x28
 8000724:	af00      	add	r7, sp, #0
  GPIO_InitTypeDef GPIO_InitStruct = {0};
 8000726:	f107 0314 	add.w	r3, r7, #20
 800072a:	2200      	movs	r2, #0
 800072c:	601a      	str	r2, [r3, #0]
 800072e:	605a      	str	r2, [r3, #4]
 8000730:	609a      	str	r2, [r3, #8]
 8000732:	60da      	str	r2, [r3, #12]
 8000734:	611a      	str	r2, [r3, #16]

  /* GPIO Ports Clock Enable */
  __HAL_RCC_GPIOH_CLK_ENABLE();
 8000736:	2300      	movs	r3, #0
 8000738:	613b      	str	r3, [r7, #16]
 800073a:	4b33      	ldr	r3, [pc, #204]	; (8000808 <MX_GPIO_Init+0xe8>)
 800073c:	6b1b      	ldr	r3, [r3, #48]	; 0x30
 800073e:	4a32      	ldr	r2, [pc, #200]	; (8000808 <MX_GPIO_Init+0xe8>)
 8000740:	f043 0380 	orr.w	r3, r3, #128	; 0x80
 8000744:	6313      	str	r3, [r2, #48]	; 0x30
 8000746:	4b30      	ldr	r3, [pc, #192]	; (8000808 <MX_GPIO_Init+0xe8>)
 8000748:	6b1b      	ldr	r3, [r3, #48]	; 0x30
 800074a:	f003 0380 	and.w	r3, r3, #128	; 0x80
 800074e:	613b      	str	r3, [r7, #16]
 8000750:	693b      	ldr	r3, [r7, #16]
  __HAL_RCC_GPIOA_CLK_ENABLE();
 8000752:	2300      	movs	r3, #0
 8000754:	60fb      	str	r3, [r7, #12]
 8000756:	4b2c      	ldr	r3, [pc, #176]	; (8000808 <MX_GPIO_Init+0xe8>)
 8000758:	6b1b      	ldr	r3, [r3, #48]	; 0x30
 800075a:	4a2b      	ldr	r2, [pc, #172]	; (8000808 <MX_GPIO_Init+0xe8>)
 800075c:	f043 0301 	orr.w	r3, r3, #1
 8000760:	6313      	str	r3, [r2, #48]	; 0x30
 8000762:	4b29      	ldr	r3, [pc, #164]	; (8000808 <MX_GPIO_Init+0xe8>)
 8000764:	6b1b      	ldr	r3, [r3, #48]	; 0x30
 8000766:	f003 0301 	and.w	r3, r3, #1
 800076a:	60fb      	str	r3, [r7, #12]
 800076c:	68fb      	ldr	r3, [r7, #12]
  __HAL_RCC_GPIOB_CLK_ENABLE();
 800076e:	2300      	movs	r3, #0
 8000770:	60bb      	str	r3, [r7, #8]
 8000772:	4b25      	ldr	r3, [pc, #148]	; (8000808 <MX_GPIO_Init+0xe8>)
 8000774:	6b1b      	ldr	r3, [r3, #48]	; 0x30
 8000776:	4a24      	ldr	r2, [pc, #144]	; (8000808 <MX_GPIO_Init+0xe8>)
 8000778:	f043 0302 	orr.w	r3, r3, #2
 800077c:	6313      	str	r3, [r2, #48]	; 0x30
 800077e:	4b22      	ldr	r3, [pc, #136]	; (8000808 <MX_GPIO_Init+0xe8>)
 8000780:	6b1b      	ldr	r3, [r3, #48]	; 0x30
 8000782:	f003 0302 	and.w	r3, r3, #2
 8000786:	60bb      	str	r3, [r7, #8]
 8000788:	68bb      	ldr	r3, [r7, #8]
  __HAL_RCC_GPIOD_CLK_ENABLE();
 800078a:	2300      	movs	r3, #0
 800078c:	607b      	str	r3, [r7, #4]
 800078e:	4b1e      	ldr	r3, [pc, #120]	; (8000808 <MX_GPIO_Init+0xe8>)
 8000790:	6b1b      	ldr	r3, [r3, #48]	; 0x30
 8000792:	4a1d      	ldr	r2, [pc, #116]	; (8000808 <MX_GPIO_Init+0xe8>)
 8000794:	f043 0308 	orr.w	r3, r3, #8
 8000798:	6313      	str	r3, [r2, #48]	; 0x30
 800079a:	4b1b      	ldr	r3, [pc, #108]	; (8000808 <MX_GPIO_Init+0xe8>)
 800079c:	6b1b      	ldr	r3, [r3, #48]	; 0x30
 800079e:	f003 0308 	and.w	r3, r3, #8
 80007a2:	607b      	str	r3, [r7, #4]
 80007a4:	687b      	ldr	r3, [r7, #4]

  /*Configure GPIO pin Output Level */
  HAL_GPIO_WritePin(GPIOD, LD4_Pin|LD3_Pin|LD5_Pin|LD6_Pin, GPIO_PIN_RESET);
 80007a6:	2200      	movs	r2, #0
 80007a8:	f44f 4170 	mov.w	r1, #61440	; 0xf000
 80007ac:	4817      	ldr	r0, [pc, #92]	; (800080c <MX_GPIO_Init+0xec>)
 80007ae:	f000 fcf7 	bl	80011a0 <HAL_GPIO_WritePin>

  /*Configure GPIO pin : B1_Pin */
  GPIO_InitStruct.Pin = B1_Pin;
 80007b2:	2301      	movs	r3, #1
 80007b4:	617b      	str	r3, [r7, #20]
  GPIO_InitStruct.Mode = GPIO_MODE_IT_RISING;
 80007b6:	4b16      	ldr	r3, [pc, #88]	; (8000810 <MX_GPIO_Init+0xf0>)
 80007b8:	61bb      	str	r3, [r7, #24]
  GPIO_InitStruct.Pull = GPIO_NOPULL;
 80007ba:	2300      	movs	r3, #0
 80007bc:	61fb      	str	r3, [r7, #28]
  HAL_GPIO_Init(B1_GPIO_Port, &GPIO_InitStruct);
 80007be:	f107 0314 	add.w	r3, r7, #20
 80007c2:	4619      	mov	r1, r3
 80007c4:	4813      	ldr	r0, [pc, #76]	; (8000814 <MX_GPIO_Init+0xf4>)
 80007c6:	f000 fb51 	bl	8000e6c <HAL_GPIO_Init>

  /*Configure GPIO pin : BOOT1_Pin */
  GPIO_InitStruct.Pin = BOOT1_Pin;
 80007ca:	2304      	movs	r3, #4
 80007cc:	617b      	str	r3, [r7, #20]
  GPIO_InitStruct.Mode = GPIO_MODE_INPUT;
 80007ce:	2300      	movs	r3, #0
 80007d0:	61bb      	str	r3, [r7, #24]
  GPIO_InitStruct.Pull = GPIO_NOPULL;
 80007d2:	2300      	movs	r3, #0
 80007d4:	61fb      	str	r3, [r7, #28]
  HAL_GPIO_Init(BOOT1_GPIO_Port, &GPIO_InitStruct);
 80007d6:	f107 0314 	add.w	r3, r7, #20
 80007da:	4619      	mov	r1, r3
 80007dc:	480e      	ldr	r0, [pc, #56]	; (8000818 <MX_GPIO_Init+0xf8>)
 80007de:	f000 fb45 	bl	8000e6c <HAL_GPIO_Init>

  /*Configure GPIO pins : LD4_Pin LD3_Pin LD5_Pin LD6_Pin */
  GPIO_InitStruct.Pin = LD4_Pin|LD3_Pin|LD5_Pin|LD6_Pin;
 80007e2:	f44f 4370 	mov.w	r3, #61440	; 0xf000
 80007e6:	617b      	str	r3, [r7, #20]
  GPIO_InitStruct.Mode = GPIO_MODE_OUTPUT_PP;
 80007e8:	2301      	movs	r3, #1
 80007ea:	61bb      	str	r3, [r7, #24]
  GPIO_InitStruct.Pull = GPIO_NOPULL;
 80007ec:	2300      	movs	r3, #0
 80007ee:	61fb      	str	r3, [r7, #28]
  GPIO_InitStruct.Speed = GPIO_SPEED_FREQ_LOW;
 80007f0:	2300      	movs	r3, #0
 80007f2:	623b      	str	r3, [r7, #32]
  HAL_GPIO_Init(GPIOD, &GPIO_InitStruct);
 80007f4:	f107 0314 	add.w	r3, r7, #20
 80007f8:	4619      	mov	r1, r3
 80007fa:	4804      	ldr	r0, [pc, #16]	; (800080c <MX_GPIO_Init+0xec>)
 80007fc:	f000 fb36 	bl	8000e6c <HAL_GPIO_Init>

}
 8000800:	bf00      	nop
 8000802:	3728      	adds	r7, #40	; 0x28
 8000804:	46bd      	mov	sp, r7
 8000806:	bd80      	pop	{r7, pc}
 8000808:	40023800 	.word	0x40023800
 800080c:	40020c00 	.word	0x40020c00
 8000810:	10110000 	.word	0x10110000
 8000814:	40020000 	.word	0x40020000
 8000818:	40020400 	.word	0x40020400

0800081c <Error_Handler>:
/**
  * @brief  This function is executed in case of error occurrence.
  * @retval None
  */
void Error_Handler(void)
{
 800081c:	b480      	push	{r7}
 800081e:	af00      	add	r7, sp, #0
  /* USER CODE BEGIN Error_Handler_Debug */
  /* User can add his own implementation to report the HAL error return state */

  /* USER CODE END Error_Handler_Debug */
}
 8000820:	bf00      	nop
 8000822:	46bd      	mov	sp, r7
 8000824:	f85d 7b04 	ldr.w	r7, [sp], #4
 8000828:	4770      	bx	lr
	...

0800082c <HAL_MspInit>:
void HAL_TIM_MspPostInit(TIM_HandleTypeDef *htim);
                    /**
  * Initializes the Global MSP.
  */
void HAL_MspInit(void)
{
 800082c:	b580      	push	{r7, lr}
 800082e:	b082      	sub	sp, #8
 8000830:	af00      	add	r7, sp, #0
  /* USER CODE BEGIN MspInit 0 */

  /* USER CODE END MspInit 0 */

  __HAL_RCC_SYSCFG_CLK_ENABLE();
 8000832:	2300      	movs	r3, #0
 8000834:	607b      	str	r3, [r7, #4]
 8000836:	4b14      	ldr	r3, [pc, #80]	; (8000888 <HAL_MspInit+0x5c>)
 8000838:	6c5b      	ldr	r3, [r3, #68]	; 0x44
 800083a:	4a13      	ldr	r2, [pc, #76]	; (8000888 <HAL_MspInit+0x5c>)
 800083c:	f443 4380 	orr.w	r3, r3, #16384	; 0x4000
 8000840:	6453      	str	r3, [r2, #68]	; 0x44
 8000842:	4b11      	ldr	r3, [pc, #68]	; (8000888 <HAL_MspInit+0x5c>)
 8000844:	6c5b      	ldr	r3, [r3, #68]	; 0x44
 8000846:	f403 4380 	and.w	r3, r3, #16384	; 0x4000
 800084a:	607b      	str	r3, [r7, #4]
 800084c:	687b      	ldr	r3, [r7, #4]
  __HAL_RCC_PWR_CLK_ENABLE();
 800084e:	2300      	movs	r3, #0
 8000850:	603b      	str	r3, [r7, #0]
 8000852:	4b0d      	ldr	r3, [pc, #52]	; (8000888 <HAL_MspInit+0x5c>)
 8000854:	6c1b      	ldr	r3, [r3, #64]	; 0x40
 8000856:	4a0c      	ldr	r2, [pc, #48]	; (8000888 <HAL_MspInit+0x5c>)
 8000858:	f043 5380 	orr.w	r3, r3, #268435456	; 0x10000000
 800085c:	6413      	str	r3, [r2, #64]	; 0x40
 800085e:	4b0a      	ldr	r3, [pc, #40]	; (8000888 <HAL_MspInit+0x5c>)
 8000860:	6c1b      	ldr	r3, [r3, #64]	; 0x40
 8000862:	f003 5380 	and.w	r3, r3, #268435456	; 0x10000000
 8000866:	603b      	str	r3, [r7, #0]
 8000868:	683b      	ldr	r3, [r7, #0]

  HAL_NVIC_SetPriorityGrouping(NVIC_PRIORITYGROUP_0);
 800086a:	2007      	movs	r0, #7
 800086c:	f000 fa9a 	bl	8000da4 <HAL_NVIC_SetPriorityGrouping>

  /* System interrupt init*/

  /* Peripheral interrupt init */
  /* RCC_IRQn interrupt configuration */
  HAL_NVIC_SetPriority(RCC_IRQn, 0, 0);
 8000870:	2200      	movs	r2, #0
 8000872:	2100      	movs	r1, #0
 8000874:	2005      	movs	r0, #5
 8000876:	f000 faa0 	bl	8000dba <HAL_NVIC_SetPriority>
  HAL_NVIC_EnableIRQ(RCC_IRQn);
 800087a:	2005      	movs	r0, #5
 800087c:	f000 fab9 	bl	8000df2 <HAL_NVIC_EnableIRQ>

  /* USER CODE BEGIN MspInit 1 */

  /* USER CODE END MspInit 1 */
}
 8000880:	bf00      	nop
 8000882:	3708      	adds	r7, #8
 8000884:	46bd      	mov	sp, r7
 8000886:	bd80      	pop	{r7, pc}
 8000888:	40023800 	.word	0x40023800

0800088c <HAL_TIM_PWM_MspInit>:
* This function configures the hardware resources used in this example
* @param htim_pwm: TIM_PWM handle pointer
* @retval None
*/
void HAL_TIM_PWM_MspInit(TIM_HandleTypeDef* htim_pwm)
{
 800088c:	b480      	push	{r7}
 800088e:	b085      	sub	sp, #20
 8000890:	af00      	add	r7, sp, #0
 8000892:	6078      	str	r0, [r7, #4]
  if(htim_pwm->Instance==TIM2)
 8000894:	687b      	ldr	r3, [r7, #4]
 8000896:	681b      	ldr	r3, [r3, #0]
 8000898:	f1b3 4f80 	cmp.w	r3, #1073741824	; 0x40000000
 800089c:	d10d      	bne.n	80008ba <HAL_TIM_PWM_MspInit+0x2e>
  {
  /* USER CODE BEGIN TIM2_MspInit 0 */

  /* USER CODE END TIM2_MspInit 0 */
    /* Peripheral clock enable */
    __HAL_RCC_TIM2_CLK_ENABLE();
 800089e:	2300      	movs	r3, #0
 80008a0:	60fb      	str	r3, [r7, #12]
 80008a2:	4b09      	ldr	r3, [pc, #36]	; (80008c8 <HAL_TIM_PWM_MspInit+0x3c>)
 80008a4:	6c1b      	ldr	r3, [r3, #64]	; 0x40
 80008a6:	4a08      	ldr	r2, [pc, #32]	; (80008c8 <HAL_TIM_PWM_MspInit+0x3c>)
 80008a8:	f043 0301 	orr.w	r3, r3, #1
 80008ac:	6413      	str	r3, [r2, #64]	; 0x40
 80008ae:	4b06      	ldr	r3, [pc, #24]	; (80008c8 <HAL_TIM_PWM_MspInit+0x3c>)
 80008b0:	6c1b      	ldr	r3, [r3, #64]	; 0x40
 80008b2:	f003 0301 	and.w	r3, r3, #1
 80008b6:	60fb      	str	r3, [r7, #12]
 80008b8:	68fb      	ldr	r3, [r7, #12]
  /* USER CODE BEGIN TIM2_MspInit 1 */

  /* USER CODE END TIM2_MspInit 1 */
  }

}
 80008ba:	bf00      	nop
 80008bc:	3714      	adds	r7, #20
 80008be:	46bd      	mov	sp, r7
 80008c0:	f85d 7b04 	ldr.w	r7, [sp], #4
 80008c4:	4770      	bx	lr
 80008c6:	bf00      	nop
 80008c8:	40023800 	.word	0x40023800

080008cc <HAL_TIM_MspPostInit>:

void HAL_TIM_MspPostInit(TIM_HandleTypeDef* htim)
{
 80008cc:	b580      	push	{r7, lr}
 80008ce:	b088      	sub	sp, #32
 80008d0:	af00      	add	r7, sp, #0
 80008d2:	6078      	str	r0, [r7, #4]
  GPIO_InitTypeDef GPIO_InitStruct = {0};
 80008d4:	f107 030c 	add.w	r3, r7, #12
 80008d8:	2200      	movs	r2, #0
 80008da:	601a      	str	r2, [r3, #0]
 80008dc:	605a      	str	r2, [r3, #4]
 80008de:	609a      	str	r2, [r3, #8]
 80008e0:	60da      	str	r2, [r3, #12]
 80008e2:	611a      	str	r2, [r3, #16]
  if(htim->Instance==TIM2)
 80008e4:	687b      	ldr	r3, [r7, #4]
 80008e6:	681b      	ldr	r3, [r3, #0]
 80008e8:	f1b3 4f80 	cmp.w	r3, #1073741824	; 0x40000000
 80008ec:	d11e      	bne.n	800092c <HAL_TIM_MspPostInit+0x60>
  {
  /* USER CODE BEGIN TIM2_MspPostInit 0 */

  /* USER CODE END TIM2_MspPostInit 0 */
  
    __HAL_RCC_GPIOA_CLK_ENABLE();
 80008ee:	2300      	movs	r3, #0
 80008f0:	60bb      	str	r3, [r7, #8]
 80008f2:	4b10      	ldr	r3, [pc, #64]	; (8000934 <HAL_TIM_MspPostInit+0x68>)
 80008f4:	6b1b      	ldr	r3, [r3, #48]	; 0x30
 80008f6:	4a0f      	ldr	r2, [pc, #60]	; (8000934 <HAL_TIM_MspPostInit+0x68>)
 80008f8:	f043 0301 	orr.w	r3, r3, #1
 80008fc:	6313      	str	r3, [r2, #48]	; 0x30
 80008fe:	4b0d      	ldr	r3, [pc, #52]	; (8000934 <HAL_TIM_MspPostInit+0x68>)
 8000900:	6b1b      	ldr	r3, [r3, #48]	; 0x30
 8000902:	f003 0301 	and.w	r3, r3, #1
 8000906:	60bb      	str	r3, [r7, #8]
 8000908:	68bb      	ldr	r3, [r7, #8]
    /**TIM2 GPIO Configuration    
    PA15     ------> TIM2_CH1 
    */
    GPIO_InitStruct.Pin = GPIO_PIN_15;
 800090a:	f44f 4300 	mov.w	r3, #32768	; 0x8000
 800090e:	60fb      	str	r3, [r7, #12]
    GPIO_InitStruct.Mode = GPIO_MODE_AF_PP;
 8000910:	2302      	movs	r3, #2
 8000912:	613b      	str	r3, [r7, #16]
    GPIO_InitStruct.Pull = GPIO_NOPULL;
 8000914:	2300      	movs	r3, #0
 8000916:	617b      	str	r3, [r7, #20]
    GPIO_InitStruct.Speed = GPIO_SPEED_FREQ_LOW;
 8000918:	2300      	movs	r3, #0
 800091a:	61bb      	str	r3, [r7, #24]
    GPIO_InitStruct.Alternate = GPIO_AF1_TIM2;
 800091c:	2301      	movs	r3, #1
 800091e:	61fb      	str	r3, [r7, #28]
    HAL_GPIO_Init(GPIOA, &GPIO_InitStruct);
 8000920:	f107 030c 	add.w	r3, r7, #12
 8000924:	4619      	mov	r1, r3
 8000926:	4804      	ldr	r0, [pc, #16]	; (8000938 <HAL_TIM_MspPostInit+0x6c>)
 8000928:	f000 faa0 	bl	8000e6c <HAL_GPIO_Init>
  /* USER CODE BEGIN TIM2_MspPostInit 1 */

  /* USER CODE END TIM2_MspPostInit 1 */
  }

}
 800092c:	bf00      	nop
 800092e:	3720      	adds	r7, #32
 8000930:	46bd      	mov	sp, r7
 8000932:	bd80      	pop	{r7, pc}
 8000934:	40023800 	.word	0x40023800
 8000938:	40020000 	.word	0x40020000

0800093c <HAL_UART_MspInit>:
* This function configures the hardware resources used in this example
* @param huart: UART handle pointer
* @retval None
*/
void HAL_UART_MspInit(UART_HandleTypeDef* huart)
{
 800093c:	b580      	push	{r7, lr}
 800093e:	b08a      	sub	sp, #40	; 0x28
 8000940:	af00      	add	r7, sp, #0
 8000942:	6078      	str	r0, [r7, #4]
  GPIO_InitTypeDef GPIO_InitStruct = {0};
 8000944:	f107 0314 	add.w	r3, r7, #20
 8000948:	2200      	movs	r2, #0
 800094a:	601a      	str	r2, [r3, #0]
 800094c:	605a      	str	r2, [r3, #4]
 800094e:	609a      	str	r2, [r3, #8]
 8000950:	60da      	str	r2, [r3, #12]
 8000952:	611a      	str	r2, [r3, #16]
  if(huart->Instance==USART2)
 8000954:	687b      	ldr	r3, [r7, #4]
 8000956:	681b      	ldr	r3, [r3, #0]
 8000958:	4a1d      	ldr	r2, [pc, #116]	; (80009d0 <HAL_UART_MspInit+0x94>)
 800095a:	4293      	cmp	r3, r2
 800095c:	d133      	bne.n	80009c6 <HAL_UART_MspInit+0x8a>
  {
  /* USER CODE BEGIN USART2_MspInit 0 */

  /* USER CODE END USART2_MspInit 0 */
    /* Peripheral clock enable */
    __HAL_RCC_USART2_CLK_ENABLE();
 800095e:	2300      	movs	r3, #0
 8000960:	613b      	str	r3, [r7, #16]
 8000962:	4b1c      	ldr	r3, [pc, #112]	; (80009d4 <HAL_UART_MspInit+0x98>)
 8000964:	6c1b      	ldr	r3, [r3, #64]	; 0x40
 8000966:	4a1b      	ldr	r2, [pc, #108]	; (80009d4 <HAL_UART_MspInit+0x98>)
 8000968:	f443 3300 	orr.w	r3, r3, #131072	; 0x20000
 800096c:	6413      	str	r3, [r2, #64]	; 0x40
 800096e:	4b19      	ldr	r3, [pc, #100]	; (80009d4 <HAL_UART_MspInit+0x98>)
 8000970:	6c1b      	ldr	r3, [r3, #64]	; 0x40
 8000972:	f403 3300 	and.w	r3, r3, #131072	; 0x20000
 8000976:	613b      	str	r3, [r7, #16]
 8000978:	693b      	ldr	r3, [r7, #16]
  
    __HAL_RCC_GPIOA_CLK_ENABLE();
 800097a:	2300      	movs	r3, #0
 800097c:	60fb      	str	r3, [r7, #12]
 800097e:	4b15      	ldr	r3, [pc, #84]	; (80009d4 <HAL_UART_MspInit+0x98>)
 8000980:	6b1b      	ldr	r3, [r3, #48]	; 0x30
 8000982:	4a14      	ldr	r2, [pc, #80]	; (80009d4 <HAL_UART_MspInit+0x98>)
 8000984:	f043 0301 	orr.w	r3, r3, #1
 8000988:	6313      	str	r3, [r2, #48]	; 0x30
 800098a:	4b12      	ldr	r3, [pc, #72]	; (80009d4 <HAL_UART_MspInit+0x98>)
 800098c:	6b1b      	ldr	r3, [r3, #48]	; 0x30
 800098e:	f003 0301 	and.w	r3, r3, #1
 8000992:	60fb      	str	r3, [r7, #12]
 8000994:	68fb      	ldr	r3, [r7, #12]
    /**USART2 GPIO Configuration    
    PA2     ------> USART2_TX
    PA3     ------> USART2_RX 
    */
    GPIO_InitStruct.Pin = GPIO_PIN_2|GPIO_PIN_3;
 8000996:	230c      	movs	r3, #12
 8000998:	617b      	str	r3, [r7, #20]
    GPIO_InitStruct.Mode = GPIO_MODE_AF_PP;
 800099a:	2302      	movs	r3, #2
 800099c:	61bb      	str	r3, [r7, #24]
    GPIO_InitStruct.Pull = GPIO_NOPULL;
 800099e:	2300      	movs	r3, #0
 80009a0:	61fb      	str	r3, [r7, #28]
    GPIO_InitStruct.Speed = GPIO_SPEED_FREQ_VERY_HIGH;
 80009a2:	2303      	movs	r3, #3
 80009a4:	623b      	str	r3, [r7, #32]
    GPIO_InitStruct.Alternate = GPIO_AF7_USART2;
 80009a6:	2307      	movs	r3, #7
 80009a8:	627b      	str	r3, [r7, #36]	; 0x24
    HAL_GPIO_Init(GPIOA, &GPIO_InitStruct);
 80009aa:	f107 0314 	add.w	r3, r7, #20
 80009ae:	4619      	mov	r1, r3
 80009b0:	4809      	ldr	r0, [pc, #36]	; (80009d8 <HAL_UART_MspInit+0x9c>)
 80009b2:	f000 fa5b 	bl	8000e6c <HAL_GPIO_Init>

    /* USART2 interrupt Init */
    HAL_NVIC_SetPriority(USART2_IRQn, 0, 0);
 80009b6:	2200      	movs	r2, #0
 80009b8:	2100      	movs	r1, #0
 80009ba:	2026      	movs	r0, #38	; 0x26
 80009bc:	f000 f9fd 	bl	8000dba <HAL_NVIC_SetPriority>
    HAL_NVIC_EnableIRQ(USART2_IRQn);
 80009c0:	2026      	movs	r0, #38	; 0x26
 80009c2:	f000 fa16 	bl	8000df2 <HAL_NVIC_EnableIRQ>
  /* USER CODE BEGIN USART2_MspInit 1 */

  /* USER CODE END USART2_MspInit 1 */
  }

}
 80009c6:	bf00      	nop
 80009c8:	3728      	adds	r7, #40	; 0x28
 80009ca:	46bd      	mov	sp, r7
 80009cc:	bd80      	pop	{r7, pc}
 80009ce:	bf00      	nop
 80009d0:	40004400 	.word	0x40004400
 80009d4:	40023800 	.word	0x40023800
 80009d8:	40020000 	.word	0x40020000

080009dc <NMI_Handler>:
/******************************************************************************/
/**
  * @brief This function handles Non maskable interrupt.
  */
void NMI_Handler(void)
{
 80009dc:	b480      	push	{r7}
 80009de:	af00      	add	r7, sp, #0

  /* USER CODE END NonMaskableInt_IRQn 0 */
  /* USER CODE BEGIN NonMaskableInt_IRQn 1 */

  /* USER CODE END NonMaskableInt_IRQn 1 */
}
 80009e0:	bf00      	nop
 80009e2:	46bd      	mov	sp, r7
 80009e4:	f85d 7b04 	ldr.w	r7, [sp], #4
 80009e8:	4770      	bx	lr

080009ea <HardFault_Handler>:

/**
  * @brief This function handles Hard fault interrupt.
  */
void HardFault_Handler(void)
{
 80009ea:	b480      	push	{r7}
 80009ec:	af00      	add	r7, sp, #0
  /* USER CODE BEGIN HardFault_IRQn 0 */

  /* USER CODE END HardFault_IRQn 0 */
  while (1)
 80009ee:	e7fe      	b.n	80009ee <HardFault_Handler+0x4>

080009f0 <MemManage_Handler>:

/**
  * @brief This function handles Memory management fault.
  */
void MemManage_Handler(void)
{
 80009f0:	b480      	push	{r7}
 80009f2:	af00      	add	r7, sp, #0
  /* USER CODE BEGIN MemoryManagement_IRQn 0 */

  /* USER CODE END MemoryManagement_IRQn 0 */
  while (1)
 80009f4:	e7fe      	b.n	80009f4 <MemManage_Handler+0x4>

080009f6 <BusFault_Handler>:

/**
  * @brief This function handles Pre-fetch fault, memory access fault.
  */
void BusFault_Handler(void)
{
 80009f6:	b480      	push	{r7}
 80009f8:	af00      	add	r7, sp, #0
  /* USER CODE BEGIN BusFault_IRQn 0 */

  /* USER CODE END BusFault_IRQn 0 */
  while (1)
 80009fa:	e7fe      	b.n	80009fa <BusFault_Handler+0x4>

080009fc <UsageFault_Handler>:

/**
  * @brief This function handles Undefined instruction or illegal state.
  */
void UsageFault_Handler(void)
{
 80009fc:	b480      	push	{r7}
 80009fe:	af00      	add	r7, sp, #0
  /* USER CODE BEGIN UsageFault_IRQn 0 */

  /* USER CODE END UsageFault_IRQn 0 */
  while (1)
 8000a00:	e7fe      	b.n	8000a00 <UsageFault_Handler+0x4>

08000a02 <SVC_Handler>:

/**
  * @brief This function handles System service call via SWI instruction.
  */
void SVC_Handler(void)
{
 8000a02:	b480      	push	{r7}
 8000a04:	af00      	add	r7, sp, #0

  /* USER CODE END SVCall_IRQn 0 */
  /* USER CODE BEGIN SVCall_IRQn 1 */

  /* USER CODE END SVCall_IRQn 1 */
}
 8000a06:	bf00      	nop
 8000a08:	46bd      	mov	sp, r7
 8000a0a:	f85d 7b04 	ldr.w	r7, [sp], #4
 8000a0e:	4770      	bx	lr

08000a10 <DebugMon_Handler>:

/**
  * @brief This function handles Debug monitor.
  */
void DebugMon_Handler(void)
{
 8000a10:	b480      	push	{r7}
 8000a12:	af00      	add	r7, sp, #0

  /* USER CODE END DebugMonitor_IRQn 0 */
  /* USER CODE BEGIN DebugMonitor_IRQn 1 */

  /* USER CODE END DebugMonitor_IRQn 1 */
}
 8000a14:	bf00      	nop
 8000a16:	46bd      	mov	sp, r7
 8000a18:	f85d 7b04 	ldr.w	r7, [sp], #4
 8000a1c:	4770      	bx	lr

08000a1e <PendSV_Handler>:

/**
  * @brief This function handles Pendable request for system service.
  */
void PendSV_Handler(void)
{
 8000a1e:	b480      	push	{r7}
 8000a20:	af00      	add	r7, sp, #0

  /* USER CODE END PendSV_IRQn 0 */
  /* USER CODE BEGIN PendSV_IRQn 1 */

  /* USER CODE END PendSV_IRQn 1 */
}
 8000a22:	bf00      	nop
 8000a24:	46bd      	mov	sp, r7
 8000a26:	f85d 7b04 	ldr.w	r7, [sp], #4
 8000a2a:	4770      	bx	lr

08000a2c <SysTick_Handler>:

/**
  * @brief This function handles System tick timer.
  */
void SysTick_Handler(void)
{
 8000a2c:	b580      	push	{r7, lr}
 8000a2e:	af00      	add	r7, sp, #0
  /* USER CODE BEGIN SysTick_IRQn 0 */

  /* USER CODE END SysTick_IRQn 0 */
  HAL_IncTick();
 8000a30:	f000 f8a6 	bl	8000b80 <HAL_IncTick>
  /* USER CODE BEGIN SysTick_IRQn 1 */

  /* USER CODE END SysTick_IRQn 1 */
}
 8000a34:	bf00      	nop
 8000a36:	bd80      	pop	{r7, pc}

08000a38 <RCC_IRQHandler>:

/**
  * @brief This function handles RCC global interrupt.
  */
void RCC_IRQHandler(void)
{
 8000a38:	b480      	push	{r7}
 8000a3a:	af00      	add	r7, sp, #0

  /* USER CODE END RCC_IRQn 0 */
  /* USER CODE BEGIN RCC_IRQn 1 */

  /* USER CODE END RCC_IRQn 1 */
}
 8000a3c:	bf00      	nop
 8000a3e:	46bd      	mov	sp, r7
 8000a40:	f85d 7b04 	ldr.w	r7, [sp], #4
 8000a44:	4770      	bx	lr
	...

08000a48 <USART2_IRQHandler>:

/**
  * @brief This function handles USART2 global interrupt.
  */
void USART2_IRQHandler(void)
{
 8000a48:	b580      	push	{r7, lr}
 8000a4a:	af00      	add	r7, sp, #0
  /* USER CODE BEGIN USART2_IRQn 0 */

  /* USER CODE END USART2_IRQn 0 */
  HAL_UART_IRQHandler(&huart2);
 8000a4c:	4802      	ldr	r0, [pc, #8]	; (8000a58 <USART2_IRQHandler+0x10>)
 8000a4e:	f001 fc93 	bl	8002378 <HAL_UART_IRQHandler>
  /* USER CODE BEGIN USART2_IRQn 1 */

  /* USER CODE END USART2_IRQn 1 */
}
 8000a52:	bf00      	nop
 8000a54:	bd80      	pop	{r7, pc}
 8000a56:	bf00      	nop
 8000a58:	2000006c 	.word	0x2000006c

08000a5c <SystemInit>:
  *         configuration.
  * @param  None
  * @retval None
  */
void SystemInit(void)
{
 8000a5c:	b480      	push	{r7}
 8000a5e:	af00      	add	r7, sp, #0
  /* FPU settings ------------------------------------------------------------*/
  #if (__FPU_PRESENT == 1) && (__FPU_USED == 1)
    SCB->CPACR |= ((3UL << 10*2)|(3UL << 11*2));  /* set CP10 and CP11 Full Access */
 8000a60:	4b08      	ldr	r3, [pc, #32]	; (8000a84 <SystemInit+0x28>)
 8000a62:	f8d3 3088 	ldr.w	r3, [r3, #136]	; 0x88
 8000a66:	4a07      	ldr	r2, [pc, #28]	; (8000a84 <SystemInit+0x28>)
 8000a68:	f443 0370 	orr.w	r3, r3, #15728640	; 0xf00000
 8000a6c:	f8c2 3088 	str.w	r3, [r2, #136]	; 0x88

  /* Configure the Vector Table location add offset address ------------------*/
#ifdef VECT_TAB_SRAM
  SCB->VTOR = SRAM_BASE | VECT_TAB_OFFSET; /* Vector Table Relocation in Internal SRAM */
#else
  SCB->VTOR = FLASH_BASE | VECT_TAB_OFFSET; /* Vector Table Relocation in Internal FLASH */
 8000a70:	4b04      	ldr	r3, [pc, #16]	; (8000a84 <SystemInit+0x28>)
 8000a72:	f04f 6200 	mov.w	r2, #134217728	; 0x8000000
 8000a76:	609a      	str	r2, [r3, #8]
#endif
}
 8000a78:	bf00      	nop
 8000a7a:	46bd      	mov	sp, r7
 8000a7c:	f85d 7b04 	ldr.w	r7, [sp], #4
 8000a80:	4770      	bx	lr
 8000a82:	bf00      	nop
 8000a84:	e000ed00 	.word	0xe000ed00

08000a88 <Reset_Handler>:

    .section  .text.Reset_Handler
  .weak  Reset_Handler
  .type  Reset_Handler, %function
Reset_Handler:  
  ldr   sp, =_estack     /* set stack pointer */
 8000a88:	f8df d034 	ldr.w	sp, [pc, #52]	; 8000ac0 <LoopFillZerobss+0x14>

/* Copy the data segment initializers from flash to SRAM */  
  movs  r1, #0
 8000a8c:	2100      	movs	r1, #0
  b  LoopCopyDataInit
 8000a8e:	e003      	b.n	8000a98 <LoopCopyDataInit>

08000a90 <CopyDataInit>:

CopyDataInit:
  ldr  r3, =_sidata
 8000a90:	4b0c      	ldr	r3, [pc, #48]	; (8000ac4 <LoopFillZerobss+0x18>)
  ldr  r3, [r3, r1]
 8000a92:	585b      	ldr	r3, [r3, r1]
  str  r3, [r0, r1]
 8000a94:	5043      	str	r3, [r0, r1]
  adds  r1, r1, #4
 8000a96:	3104      	adds	r1, #4

08000a98 <LoopCopyDataInit>:
    
LoopCopyDataInit:
  ldr  r0, =_sdata
 8000a98:	480b      	ldr	r0, [pc, #44]	; (8000ac8 <LoopFillZerobss+0x1c>)
  ldr  r3, =_edata
 8000a9a:	4b0c      	ldr	r3, [pc, #48]	; (8000acc <LoopFillZerobss+0x20>)
  adds  r2, r0, r1
 8000a9c:	1842      	adds	r2, r0, r1
  cmp  r2, r3
 8000a9e:	429a      	cmp	r2, r3
  bcc  CopyDataInit
 8000aa0:	d3f6      	bcc.n	8000a90 <CopyDataInit>
  ldr  r2, =_sbss
 8000aa2:	4a0b      	ldr	r2, [pc, #44]	; (8000ad0 <LoopFillZerobss+0x24>)
  b  LoopFillZerobss
 8000aa4:	e002      	b.n	8000aac <LoopFillZerobss>

08000aa6 <FillZerobss>:
/* Zero fill the bss segment. */  
FillZerobss:
  movs  r3, #0
 8000aa6:	2300      	movs	r3, #0
  str  r3, [r2], #4
 8000aa8:	f842 3b04 	str.w	r3, [r2], #4

08000aac <LoopFillZerobss>:
    
LoopFillZerobss:
  ldr  r3, = _ebss
 8000aac:	4b09      	ldr	r3, [pc, #36]	; (8000ad4 <LoopFillZerobss+0x28>)
  cmp  r2, r3
 8000aae:	429a      	cmp	r2, r3
  bcc  FillZerobss
 8000ab0:	d3f9      	bcc.n	8000aa6 <FillZerobss>

/* Call the clock system intitialization function.*/
  bl  SystemInit   
 8000ab2:	f7ff ffd3 	bl	8000a5c <SystemInit>
/* Call static constructors */
    bl __libc_init_array
 8000ab6:	f002 fa1b 	bl	8002ef0 <__libc_init_array>
/* Call the application's entry point.*/
  bl  main
 8000aba:	f7ff fd05 	bl	80004c8 <main>
  bx  lr    
 8000abe:	4770      	bx	lr
  ldr   sp, =_estack     /* set stack pointer */
 8000ac0:	20020000 	.word	0x20020000
  ldr  r3, =_sidata
 8000ac4:	08002f88 	.word	0x08002f88
  ldr  r0, =_sdata
 8000ac8:	20000000 	.word	0x20000000
  ldr  r3, =_edata
 8000acc:	2000000c 	.word	0x2000000c
  ldr  r2, =_sbss
 8000ad0:	2000000c 	.word	0x2000000c
  ldr  r3, = _ebss
 8000ad4:	200000b0 	.word	0x200000b0

08000ad8 <ADC_IRQHandler>:
 * @retval None       
*/
    .section  .text.Default_Handler,"ax",%progbits
Default_Handler:
Infinite_Loop:
  b  Infinite_Loop
 8000ad8:	e7fe      	b.n	8000ad8 <ADC_IRQHandler>
	...

08000adc <HAL_Init>:
  *         need to ensure that the SysTick time base is always set to 1 millisecond
  *         to have correct HAL operation.
  * @retval HAL status
  */
HAL_StatusTypeDef HAL_Init(void)
{
 8000adc:	b580      	push	{r7, lr}
 8000ade:	af00      	add	r7, sp, #0
  /* Configure Flash prefetch, Instruction cache, Data cache */ 
#if (INSTRUCTION_CACHE_ENABLE != 0U)
  __HAL_FLASH_INSTRUCTION_CACHE_ENABLE();
 8000ae0:	4b0e      	ldr	r3, [pc, #56]	; (8000b1c <HAL_Init+0x40>)
 8000ae2:	681b      	ldr	r3, [r3, #0]
 8000ae4:	4a0d      	ldr	r2, [pc, #52]	; (8000b1c <HAL_Init+0x40>)
 8000ae6:	f443 7300 	orr.w	r3, r3, #512	; 0x200
 8000aea:	6013      	str	r3, [r2, #0]
#endif /* INSTRUCTION_CACHE_ENABLE */

#if (DATA_CACHE_ENABLE != 0U)
  __HAL_FLASH_DATA_CACHE_ENABLE();
 8000aec:	4b0b      	ldr	r3, [pc, #44]	; (8000b1c <HAL_Init+0x40>)
 8000aee:	681b      	ldr	r3, [r3, #0]
 8000af0:	4a0a      	ldr	r2, [pc, #40]	; (8000b1c <HAL_Init+0x40>)
 8000af2:	f443 6380 	orr.w	r3, r3, #1024	; 0x400
 8000af6:	6013      	str	r3, [r2, #0]
#endif /* DATA_CACHE_ENABLE */

#if (PREFETCH_ENABLE != 0U)
  __HAL_FLASH_PREFETCH_BUFFER_ENABLE();
 8000af8:	4b08      	ldr	r3, [pc, #32]	; (8000b1c <HAL_Init+0x40>)
 8000afa:	681b      	ldr	r3, [r3, #0]
 8000afc:	4a07      	ldr	r2, [pc, #28]	; (8000b1c <HAL_Init+0x40>)
 8000afe:	f443 7380 	orr.w	r3, r3, #256	; 0x100
 8000b02:	6013      	str	r3, [r2, #0]
#endif /* PREFETCH_ENABLE */

  /* Set Interrupt Group Priority */
  HAL_NVIC_SetPriorityGrouping(NVIC_PRIORITYGROUP_4);
 8000b04:	2003      	movs	r0, #3
 8000b06:	f000 f94d 	bl	8000da4 <HAL_NVIC_SetPriorityGrouping>

  /* Use systick as time base source and configure 1ms tick (default clock after Reset is HSI) */
  HAL_InitTick(TICK_INT_PRIORITY);
 8000b0a:	2000      	movs	r0, #0
 8000b0c:	f000 f808 	bl	8000b20 <HAL_InitTick>

  /* Init the low level hardware */
  HAL_MspInit();
 8000b10:	f7ff fe8c 	bl	800082c <HAL_MspInit>

  /* Return function status */
  return HAL_OK;
 8000b14:	2300      	movs	r3, #0
}
 8000b16:	4618      	mov	r0, r3
 8000b18:	bd80      	pop	{r7, pc}
 8000b1a:	bf00      	nop
 8000b1c:	40023c00 	.word	0x40023c00

08000b20 <HAL_InitTick>:
  *       implementation  in user file.
  * @param TickPriority Tick interrupt priority.
  * @retval HAL status
  */
__weak HAL_StatusTypeDef HAL_InitTick(uint32_t TickPriority)
{
 8000b20:	b580      	push	{r7, lr}
 8000b22:	b082      	sub	sp, #8
 8000b24:	af00      	add	r7, sp, #0
 8000b26:	6078      	str	r0, [r7, #4]
  /* Configure the SysTick to have interrupt in 1ms time basis*/
  if (HAL_SYSTICK_Config(SystemCoreClock / (1000U / uwTickFreq)) > 0U)
 8000b28:	4b12      	ldr	r3, [pc, #72]	; (8000b74 <HAL_InitTick+0x54>)
 8000b2a:	681a      	ldr	r2, [r3, #0]
 8000b2c:	4b12      	ldr	r3, [pc, #72]	; (8000b78 <HAL_InitTick+0x58>)
 8000b2e:	781b      	ldrb	r3, [r3, #0]
 8000b30:	4619      	mov	r1, r3
 8000b32:	f44f 737a 	mov.w	r3, #1000	; 0x3e8
 8000b36:	fbb3 f3f1 	udiv	r3, r3, r1
 8000b3a:	fbb2 f3f3 	udiv	r3, r2, r3
 8000b3e:	4618      	mov	r0, r3
 8000b40:	f000 f965 	bl	8000e0e <HAL_SYSTICK_Config>
 8000b44:	4603      	mov	r3, r0
 8000b46:	2b00      	cmp	r3, #0
 8000b48:	d001      	beq.n	8000b4e <HAL_InitTick+0x2e>
  {
    return HAL_ERROR;
 8000b4a:	2301      	movs	r3, #1
 8000b4c:	e00e      	b.n	8000b6c <HAL_InitTick+0x4c>
  }

  /* Configure the SysTick IRQ priority */
  if (TickPriority < (1UL << __NVIC_PRIO_BITS))
 8000b4e:	687b      	ldr	r3, [r7, #4]
 8000b50:	2b0f      	cmp	r3, #15
 8000b52:	d80a      	bhi.n	8000b6a <HAL_InitTick+0x4a>
  {
    HAL_NVIC_SetPriority(SysTick_IRQn, TickPriority, 0U);
 8000b54:	2200      	movs	r2, #0
 8000b56:	6879      	ldr	r1, [r7, #4]
 8000b58:	f04f 30ff 	mov.w	r0, #4294967295
 8000b5c:	f000 f92d 	bl	8000dba <HAL_NVIC_SetPriority>
    uwTickPrio = TickPriority;
 8000b60:	4a06      	ldr	r2, [pc, #24]	; (8000b7c <HAL_InitTick+0x5c>)
 8000b62:	687b      	ldr	r3, [r7, #4]
 8000b64:	6013      	str	r3, [r2, #0]
  {
    return HAL_ERROR;
  }

  /* Return function status */
  return HAL_OK;
 8000b66:	2300      	movs	r3, #0
 8000b68:	e000      	b.n	8000b6c <HAL_InitTick+0x4c>
    return HAL_ERROR;
 8000b6a:	2301      	movs	r3, #1
}
 8000b6c:	4618      	mov	r0, r3
 8000b6e:	3708      	adds	r7, #8
 8000b70:	46bd      	mov	sp, r7
 8000b72:	bd80      	pop	{r7, pc}
 8000b74:	20000000 	.word	0x20000000
 8000b78:	20000008 	.word	0x20000008
 8000b7c:	20000004 	.word	0x20000004

08000b80 <HAL_IncTick>:
 * @note This function is declared as __weak to be overwritten in case of other 
  *      implementations in user file.
  * @retval None
  */
__weak void HAL_IncTick(void)
{
 8000b80:	b480      	push	{r7}
 8000b82:	af00      	add	r7, sp, #0
  uwTick += uwTickFreq;
 8000b84:	4b06      	ldr	r3, [pc, #24]	; (8000ba0 <HAL_IncTick+0x20>)
 8000b86:	781b      	ldrb	r3, [r3, #0]
 8000b88:	461a      	mov	r2, r3
 8000b8a:	4b06      	ldr	r3, [pc, #24]	; (8000ba4 <HAL_IncTick+0x24>)
 8000b8c:	681b      	ldr	r3, [r3, #0]
 8000b8e:	4413      	add	r3, r2
 8000b90:	4a04      	ldr	r2, [pc, #16]	; (8000ba4 <HAL_IncTick+0x24>)
 8000b92:	6013      	str	r3, [r2, #0]
}
 8000b94:	bf00      	nop
 8000b96:	46bd      	mov	sp, r7
 8000b98:	f85d 7b04 	ldr.w	r7, [sp], #4
 8000b9c:	4770      	bx	lr
 8000b9e:	bf00      	nop
 8000ba0:	20000008 	.word	0x20000008
 8000ba4:	200000ac 	.word	0x200000ac

08000ba8 <HAL_GetTick>:
  * @note This function is declared as __weak to be overwritten in case of other 
  *       implementations in user file.
  * @retval tick value
  */
__weak uint32_t HAL_GetTick(void)
{
 8000ba8:	b480      	push	{r7}
 8000baa:	af00      	add	r7, sp, #0
  return uwTick;
 8000bac:	4b03      	ldr	r3, [pc, #12]	; (8000bbc <HAL_GetTick+0x14>)
 8000bae:	681b      	ldr	r3, [r3, #0]
}
 8000bb0:	4618      	mov	r0, r3
 8000bb2:	46bd      	mov	sp, r7
 8000bb4:	f85d 7b04 	ldr.w	r7, [sp], #4
 8000bb8:	4770      	bx	lr
 8000bba:	bf00      	nop
 8000bbc:	200000ac 	.word	0x200000ac

08000bc0 <HAL_Delay>:
  *       implementations in user file.
  * @param Delay specifies the delay time length, in milliseconds.
  * @retval None
  */
__weak void HAL_Delay(uint32_t Delay)
{
 8000bc0:	b580      	push	{r7, lr}
 8000bc2:	b084      	sub	sp, #16
 8000bc4:	af00      	add	r7, sp, #0
 8000bc6:	6078      	str	r0, [r7, #4]
  uint32_t tickstart = HAL_GetTick();
 8000bc8:	f7ff ffee 	bl	8000ba8 <HAL_GetTick>
 8000bcc:	60b8      	str	r0, [r7, #8]
  uint32_t wait = Delay;
 8000bce:	687b      	ldr	r3, [r7, #4]
 8000bd0:	60fb      	str	r3, [r7, #12]

  /* Add a freq to guarantee minimum wait */
  if (wait < HAL_MAX_DELAY)
 8000bd2:	68fb      	ldr	r3, [r7, #12]
 8000bd4:	f1b3 3fff 	cmp.w	r3, #4294967295
 8000bd8:	d005      	beq.n	8000be6 <HAL_Delay+0x26>
  {
    wait += (uint32_t)(uwTickFreq);
 8000bda:	4b09      	ldr	r3, [pc, #36]	; (8000c00 <HAL_Delay+0x40>)
 8000bdc:	781b      	ldrb	r3, [r3, #0]
 8000bde:	461a      	mov	r2, r3
 8000be0:	68fb      	ldr	r3, [r7, #12]
 8000be2:	4413      	add	r3, r2
 8000be4:	60fb      	str	r3, [r7, #12]
  }

  while((HAL_GetTick() - tickstart) < wait)
 8000be6:	bf00      	nop
 8000be8:	f7ff ffde 	bl	8000ba8 <HAL_GetTick>
 8000bec:	4602      	mov	r2, r0
 8000bee:	68bb      	ldr	r3, [r7, #8]
 8000bf0:	1ad3      	subs	r3, r2, r3
 8000bf2:	68fa      	ldr	r2, [r7, #12]
 8000bf4:	429a      	cmp	r2, r3
 8000bf6:	d8f7      	bhi.n	8000be8 <HAL_Delay+0x28>
  {
  }
}
 8000bf8:	bf00      	nop
 8000bfa:	3710      	adds	r7, #16
 8000bfc:	46bd      	mov	sp, r7
 8000bfe:	bd80      	pop	{r7, pc}
 8000c00:	20000008 	.word	0x20000008

08000c04 <__NVIC_SetPriorityGrouping>:
           In case of a conflict between priority grouping and available
           priority bits (__NVIC_PRIO_BITS), the smallest possible priority group is set.
  \param [in]      PriorityGroup  Priority grouping field.
 */
__STATIC_INLINE void __NVIC_SetPriorityGrouping(uint32_t PriorityGroup)
{
 8000c04:	b480      	push	{r7}
 8000c06:	b085      	sub	sp, #20
 8000c08:	af00      	add	r7, sp, #0
 8000c0a:	6078      	str	r0, [r7, #4]
  uint32_t reg_value;
  uint32_t PriorityGroupTmp = (PriorityGroup & (uint32_t)0x07UL);             /* only values 0..7 are used          */
 8000c0c:	687b      	ldr	r3, [r7, #4]
 8000c0e:	f003 0307 	and.w	r3, r3, #7
 8000c12:	60fb      	str	r3, [r7, #12]

  reg_value  =  SCB->AIRCR;                                                   /* read old register configuration    */
 8000c14:	4b0c      	ldr	r3, [pc, #48]	; (8000c48 <__NVIC_SetPriorityGrouping+0x44>)
 8000c16:	68db      	ldr	r3, [r3, #12]
 8000c18:	60bb      	str	r3, [r7, #8]
  reg_value &= ~((uint32_t)(SCB_AIRCR_VECTKEY_Msk | SCB_AIRCR_PRIGROUP_Msk)); /* clear bits to change               */
 8000c1a:	68ba      	ldr	r2, [r7, #8]
 8000c1c:	f64f 03ff 	movw	r3, #63743	; 0xf8ff
 8000c20:	4013      	ands	r3, r2
 8000c22:	60bb      	str	r3, [r7, #8]
  reg_value  =  (reg_value                                   |
                ((uint32_t)0x5FAUL << SCB_AIRCR_VECTKEY_Pos) |
                (PriorityGroupTmp << SCB_AIRCR_PRIGROUP_Pos)  );              /* Insert write key and priority group */
 8000c24:	68fb      	ldr	r3, [r7, #12]
 8000c26:	021a      	lsls	r2, r3, #8
                ((uint32_t)0x5FAUL << SCB_AIRCR_VECTKEY_Pos) |
 8000c28:	68bb      	ldr	r3, [r7, #8]
 8000c2a:	4313      	orrs	r3, r2
  reg_value  =  (reg_value                                   |
 8000c2c:	f043 63bf 	orr.w	r3, r3, #100139008	; 0x5f80000
 8000c30:	f443 3300 	orr.w	r3, r3, #131072	; 0x20000
 8000c34:	60bb      	str	r3, [r7, #8]
  SCB->AIRCR =  reg_value;
 8000c36:	4a04      	ldr	r2, [pc, #16]	; (8000c48 <__NVIC_SetPriorityGrouping+0x44>)
 8000c38:	68bb      	ldr	r3, [r7, #8]
 8000c3a:	60d3      	str	r3, [r2, #12]
}
 8000c3c:	bf00      	nop
 8000c3e:	3714      	adds	r7, #20
 8000c40:	46bd      	mov	sp, r7
 8000c42:	f85d 7b04 	ldr.w	r7, [sp], #4
 8000c46:	4770      	bx	lr
 8000c48:	e000ed00 	.word	0xe000ed00

08000c4c <__NVIC_GetPriorityGrouping>:
  \brief   Get Priority Grouping
  \details Reads the priority grouping field from the NVIC Interrupt Controller.
  \return                Priority grouping field (SCB->AIRCR [10:8] PRIGROUP field).
 */
__STATIC_INLINE uint32_t __NVIC_GetPriorityGrouping(void)
{
 8000c4c:	b480      	push	{r7}
 8000c4e:	af00      	add	r7, sp, #0
  return ((uint32_t)((SCB->AIRCR & SCB_AIRCR_PRIGROUP_Msk) >> SCB_AIRCR_PRIGROUP_Pos));
 8000c50:	4b04      	ldr	r3, [pc, #16]	; (8000c64 <__NVIC_GetPriorityGrouping+0x18>)
 8000c52:	68db      	ldr	r3, [r3, #12]
 8000c54:	0a1b      	lsrs	r3, r3, #8
 8000c56:	f003 0307 	and.w	r3, r3, #7
}
 8000c5a:	4618      	mov	r0, r3
 8000c5c:	46bd      	mov	sp, r7
 8000c5e:	f85d 7b04 	ldr.w	r7, [sp], #4
 8000c62:	4770      	bx	lr
 8000c64:	e000ed00 	.word	0xe000ed00

08000c68 <__NVIC_EnableIRQ>:
  \details Enables a device specific interrupt in the NVIC interrupt controller.
  \param [in]      IRQn  Device specific interrupt number.
  \note    IRQn must not be negative.
 */
__STATIC_INLINE void __NVIC_EnableIRQ(IRQn_Type IRQn)
{
 8000c68:	b480      	push	{r7}
 8000c6a:	b083      	sub	sp, #12
 8000c6c:	af00      	add	r7, sp, #0
 8000c6e:	4603      	mov	r3, r0
 8000c70:	71fb      	strb	r3, [r7, #7]
  if ((int32_t)(IRQn) >= 0)
 8000c72:	f997 3007 	ldrsb.w	r3, [r7, #7]
 8000c76:	2b00      	cmp	r3, #0
 8000c78:	db0b      	blt.n	8000c92 <__NVIC_EnableIRQ+0x2a>
  {
    NVIC->ISER[(((uint32_t)IRQn) >> 5UL)] = (uint32_t)(1UL << (((uint32_t)IRQn) & 0x1FUL));
 8000c7a:	79fb      	ldrb	r3, [r7, #7]
 8000c7c:	f003 021f 	and.w	r2, r3, #31
 8000c80:	4907      	ldr	r1, [pc, #28]	; (8000ca0 <__NVIC_EnableIRQ+0x38>)
 8000c82:	f997 3007 	ldrsb.w	r3, [r7, #7]
 8000c86:	095b      	lsrs	r3, r3, #5
 8000c88:	2001      	movs	r0, #1
 8000c8a:	fa00 f202 	lsl.w	r2, r0, r2
 8000c8e:	f841 2023 	str.w	r2, [r1, r3, lsl #2]
  }
}
 8000c92:	bf00      	nop
 8000c94:	370c      	adds	r7, #12
 8000c96:	46bd      	mov	sp, r7
 8000c98:	f85d 7b04 	ldr.w	r7, [sp], #4
 8000c9c:	4770      	bx	lr
 8000c9e:	bf00      	nop
 8000ca0:	e000e100 	.word	0xe000e100

08000ca4 <__NVIC_SetPriority>:
  \param [in]      IRQn  Interrupt number.
  \param [in]  priority  Priority to set.
  \note    The priority cannot be set for every processor exception.
 */
__STATIC_INLINE void __NVIC_SetPriority(IRQn_Type IRQn, uint32_t priority)
{
 8000ca4:	b480      	push	{r7}
 8000ca6:	b083      	sub	sp, #12
 8000ca8:	af00      	add	r7, sp, #0
 8000caa:	4603      	mov	r3, r0
 8000cac:	6039      	str	r1, [r7, #0]
 8000cae:	71fb      	strb	r3, [r7, #7]
  if ((int32_t)(IRQn) >= 0)
 8000cb0:	f997 3007 	ldrsb.w	r3, [r7, #7]
 8000cb4:	2b00      	cmp	r3, #0
 8000cb6:	db0a      	blt.n	8000cce <__NVIC_SetPriority+0x2a>
  {
    NVIC->IP[((uint32_t)IRQn)]               = (uint8_t)((priority << (8U - __NVIC_PRIO_BITS)) & (uint32_t)0xFFUL);
 8000cb8:	683b      	ldr	r3, [r7, #0]
 8000cba:	b2da      	uxtb	r2, r3
 8000cbc:	490c      	ldr	r1, [pc, #48]	; (8000cf0 <__NVIC_SetPriority+0x4c>)
 8000cbe:	f997 3007 	ldrsb.w	r3, [r7, #7]
 8000cc2:	0112      	lsls	r2, r2, #4
 8000cc4:	b2d2      	uxtb	r2, r2
 8000cc6:	440b      	add	r3, r1
 8000cc8:	f883 2300 	strb.w	r2, [r3, #768]	; 0x300
  }
  else
  {
    SCB->SHP[(((uint32_t)IRQn) & 0xFUL)-4UL] = (uint8_t)((priority << (8U - __NVIC_PRIO_BITS)) & (uint32_t)0xFFUL);
  }
}
 8000ccc:	e00a      	b.n	8000ce4 <__NVIC_SetPriority+0x40>
    SCB->SHP[(((uint32_t)IRQn) & 0xFUL)-4UL] = (uint8_t)((priority << (8U - __NVIC_PRIO_BITS)) & (uint32_t)0xFFUL);
 8000cce:	683b      	ldr	r3, [r7, #0]
 8000cd0:	b2da      	uxtb	r2, r3
 8000cd2:	4908      	ldr	r1, [pc, #32]	; (8000cf4 <__NVIC_SetPriority+0x50>)
 8000cd4:	79fb      	ldrb	r3, [r7, #7]
 8000cd6:	f003 030f 	and.w	r3, r3, #15
 8000cda:	3b04      	subs	r3, #4
 8000cdc:	0112      	lsls	r2, r2, #4
 8000cde:	b2d2      	uxtb	r2, r2
 8000ce0:	440b      	add	r3, r1
 8000ce2:	761a      	strb	r2, [r3, #24]
}
 8000ce4:	bf00      	nop
 8000ce6:	370c      	adds	r7, #12
 8000ce8:	46bd      	mov	sp, r7
 8000cea:	f85d 7b04 	ldr.w	r7, [sp], #4
 8000cee:	4770      	bx	lr
 8000cf0:	e000e100 	.word	0xe000e100
 8000cf4:	e000ed00 	.word	0xe000ed00

08000cf8 <NVIC_EncodePriority>:
  \param [in]   PreemptPriority  Preemptive priority value (starting from 0).
  \param [in]       SubPriority  Subpriority value (starting from 0).
  \return                        Encoded priority. Value can be used in the function \ref NVIC_SetPriority().
 */
__STATIC_INLINE uint32_t NVIC_EncodePriority (uint32_t PriorityGroup, uint32_t PreemptPriority, uint32_t SubPriority)
{
 8000cf8:	b480      	push	{r7}
 8000cfa:	b089      	sub	sp, #36	; 0x24
 8000cfc:	af00      	add	r7, sp, #0
 8000cfe:	60f8      	str	r0, [r7, #12]
 8000d00:	60b9      	str	r1, [r7, #8]
 8000d02:	607a      	str	r2, [r7, #4]
  uint32_t PriorityGroupTmp = (PriorityGroup & (uint32_t)0x07UL);   /* only values 0..7 are used          */
 8000d04:	68fb      	ldr	r3, [r7, #12]
 8000d06:	f003 0307 	and.w	r3, r3, #7
 8000d0a:	61fb      	str	r3, [r7, #28]
  uint32_t PreemptPriorityBits;
  uint32_t SubPriorityBits;

  PreemptPriorityBits = ((7UL - PriorityGroupTmp) > (uint32_t)(__NVIC_PRIO_BITS)) ? (uint32_t)(__NVIC_PRIO_BITS) : (uint32_t)(7UL - PriorityGroupTmp);
 8000d0c:	69fb      	ldr	r3, [r7, #28]
 8000d0e:	f1c3 0307 	rsb	r3, r3, #7
 8000d12:	2b04      	cmp	r3, #4
 8000d14:	bf28      	it	cs
 8000d16:	2304      	movcs	r3, #4
 8000d18:	61bb      	str	r3, [r7, #24]
  SubPriorityBits     = ((PriorityGroupTmp + (uint32_t)(__NVIC_PRIO_BITS)) < (uint32_t)7UL) ? (uint32_t)0UL : (uint32_t)((PriorityGroupTmp - 7UL) + (uint32_t)(__NVIC_PRIO_BITS));
 8000d1a:	69fb      	ldr	r3, [r7, #28]
 8000d1c:	3304      	adds	r3, #4
 8000d1e:	2b06      	cmp	r3, #6
 8000d20:	d902      	bls.n	8000d28 <NVIC_EncodePriority+0x30>
 8000d22:	69fb      	ldr	r3, [r7, #28]
 8000d24:	3b03      	subs	r3, #3
 8000d26:	e000      	b.n	8000d2a <NVIC_EncodePriority+0x32>
 8000d28:	2300      	movs	r3, #0
 8000d2a:	617b      	str	r3, [r7, #20]

  return (
           ((PreemptPriority & (uint32_t)((1UL << (PreemptPriorityBits)) - 1UL)) << SubPriorityBits) |
 8000d2c:	f04f 32ff 	mov.w	r2, #4294967295
 8000d30:	69bb      	ldr	r3, [r7, #24]
 8000d32:	fa02 f303 	lsl.w	r3, r2, r3
 8000d36:	43da      	mvns	r2, r3
 8000d38:	68bb      	ldr	r3, [r7, #8]
 8000d3a:	401a      	ands	r2, r3
 8000d3c:	697b      	ldr	r3, [r7, #20]
 8000d3e:	409a      	lsls	r2, r3
           ((SubPriority     & (uint32_t)((1UL << (SubPriorityBits    )) - 1UL)))
 8000d40:	f04f 31ff 	mov.w	r1, #4294967295
 8000d44:	697b      	ldr	r3, [r7, #20]
 8000d46:	fa01 f303 	lsl.w	r3, r1, r3
 8000d4a:	43d9      	mvns	r1, r3
 8000d4c:	687b      	ldr	r3, [r7, #4]
 8000d4e:	400b      	ands	r3, r1
           ((PreemptPriority & (uint32_t)((1UL << (PreemptPriorityBits)) - 1UL)) << SubPriorityBits) |
 8000d50:	4313      	orrs	r3, r2
         );
}
 8000d52:	4618      	mov	r0, r3
 8000d54:	3724      	adds	r7, #36	; 0x24
 8000d56:	46bd      	mov	sp, r7
 8000d58:	f85d 7b04 	ldr.w	r7, [sp], #4
 8000d5c:	4770      	bx	lr
	...

08000d60 <SysTick_Config>:
  \note    When the variable <b>__Vendor_SysTickConfig</b> is set to 1, then the
           function <b>SysTick_Config</b> is not included. In this case, the file <b><i>device</i>.h</b>
           must contain a vendor-specific implementation of this function.
 */
__STATIC_INLINE uint32_t SysTick_Config(uint32_t ticks)
{
 8000d60:	b580      	push	{r7, lr}
 8000d62:	b082      	sub	sp, #8
 8000d64:	af00      	add	r7, sp, #0
 8000d66:	6078      	str	r0, [r7, #4]
  if ((ticks - 1UL) > SysTick_LOAD_RELOAD_Msk)
 8000d68:	687b      	ldr	r3, [r7, #4]
 8000d6a:	3b01      	subs	r3, #1
 8000d6c:	f1b3 7f80 	cmp.w	r3, #16777216	; 0x1000000
 8000d70:	d301      	bcc.n	8000d76 <SysTick_Config+0x16>
  {
    return (1UL);                                                   /* Reload value impossible */
 8000d72:	2301      	movs	r3, #1
 8000d74:	e00f      	b.n	8000d96 <SysTick_Config+0x36>
  }

  SysTick->LOAD  = (uint32_t)(ticks - 1UL);                         /* set reload register */
 8000d76:	4a0a      	ldr	r2, [pc, #40]	; (8000da0 <SysTick_Config+0x40>)
 8000d78:	687b      	ldr	r3, [r7, #4]
 8000d7a:	3b01      	subs	r3, #1
 8000d7c:	6053      	str	r3, [r2, #4]
  NVIC_SetPriority (SysTick_IRQn, (1UL << __NVIC_PRIO_BITS) - 1UL); /* set Priority for Systick Interrupt */
 8000d7e:	210f      	movs	r1, #15
 8000d80:	f04f 30ff 	mov.w	r0, #4294967295
 8000d84:	f7ff ff8e 	bl	8000ca4 <__NVIC_SetPriority>
  SysTick->VAL   = 0UL;                                             /* Load the SysTick Counter Value */
 8000d88:	4b05      	ldr	r3, [pc, #20]	; (8000da0 <SysTick_Config+0x40>)
 8000d8a:	2200      	movs	r2, #0
 8000d8c:	609a      	str	r2, [r3, #8]
  SysTick->CTRL  = SysTick_CTRL_CLKSOURCE_Msk |
 8000d8e:	4b04      	ldr	r3, [pc, #16]	; (8000da0 <SysTick_Config+0x40>)
 8000d90:	2207      	movs	r2, #7
 8000d92:	601a      	str	r2, [r3, #0]
                   SysTick_CTRL_TICKINT_Msk   |
                   SysTick_CTRL_ENABLE_Msk;                         /* Enable SysTick IRQ and SysTick Timer */
  return (0UL);                                                     /* Function successful */
 8000d94:	2300      	movs	r3, #0
}
 8000d96:	4618      	mov	r0, r3
 8000d98:	3708      	adds	r7, #8
 8000d9a:	46bd      	mov	sp, r7
 8000d9c:	bd80      	pop	{r7, pc}
 8000d9e:	bf00      	nop
 8000da0:	e000e010 	.word	0xe000e010

08000da4 <HAL_NVIC_SetPriorityGrouping>:
  * @note   When the NVIC_PriorityGroup_0 is selected, IRQ preemption is no more possible. 
  *         The pending IRQ priority will be managed only by the subpriority. 
  * @retval None
  */
void HAL_NVIC_SetPriorityGrouping(uint32_t PriorityGroup)
{
 8000da4:	b580      	push	{r7, lr}
 8000da6:	b082      	sub	sp, #8
 8000da8:	af00      	add	r7, sp, #0
 8000daa:	6078      	str	r0, [r7, #4]
  /* Check the parameters */
  assert_param(IS_NVIC_PRIORITY_GROUP(PriorityGroup));
  
  /* Set the PRIGROUP[10:8] bits according to the PriorityGroup parameter value */
  NVIC_SetPriorityGrouping(PriorityGroup);
 8000dac:	6878      	ldr	r0, [r7, #4]
 8000dae:	f7ff ff29 	bl	8000c04 <__NVIC_SetPriorityGrouping>
}
 8000db2:	bf00      	nop
 8000db4:	3708      	adds	r7, #8
 8000db6:	46bd      	mov	sp, r7
 8000db8:	bd80      	pop	{r7, pc}

08000dba <HAL_NVIC_SetPriority>:
  *         This parameter can be a value between 0 and 15
  *         A lower priority value indicates a higher priority.          
  * @retval None
  */
void HAL_NVIC_SetPriority(IRQn_Type IRQn, uint32_t PreemptPriority, uint32_t SubPriority)
{ 
 8000dba:	b580      	push	{r7, lr}
 8000dbc:	b086      	sub	sp, #24
 8000dbe:	af00      	add	r7, sp, #0
 8000dc0:	4603      	mov	r3, r0
 8000dc2:	60b9      	str	r1, [r7, #8]
 8000dc4:	607a      	str	r2, [r7, #4]
 8000dc6:	73fb      	strb	r3, [r7, #15]
  uint32_t prioritygroup = 0x00U;
 8000dc8:	2300      	movs	r3, #0
 8000dca:	617b      	str	r3, [r7, #20]
  
  /* Check the parameters */
  assert_param(IS_NVIC_SUB_PRIORITY(SubPriority));
  assert_param(IS_NVIC_PREEMPTION_PRIORITY(PreemptPriority));
  
  prioritygroup = NVIC_GetPriorityGrouping();
 8000dcc:	f7ff ff3e 	bl	8000c4c <__NVIC_GetPriorityGrouping>
 8000dd0:	6178      	str	r0, [r7, #20]
  
  NVIC_SetPriority(IRQn, NVIC_EncodePriority(prioritygroup, PreemptPriority, SubPriority));
 8000dd2:	687a      	ldr	r2, [r7, #4]
 8000dd4:	68b9      	ldr	r1, [r7, #8]
 8000dd6:	6978      	ldr	r0, [r7, #20]
 8000dd8:	f7ff ff8e 	bl	8000cf8 <NVIC_EncodePriority>
 8000ddc:	4602      	mov	r2, r0
 8000dde:	f997 300f 	ldrsb.w	r3, [r7, #15]
 8000de2:	4611      	mov	r1, r2
 8000de4:	4618      	mov	r0, r3
 8000de6:	f7ff ff5d 	bl	8000ca4 <__NVIC_SetPriority>
}
 8000dea:	bf00      	nop
 8000dec:	3718      	adds	r7, #24
 8000dee:	46bd      	mov	sp, r7
 8000df0:	bd80      	pop	{r7, pc}

08000df2 <HAL_NVIC_EnableIRQ>:
  *         This parameter can be an enumerator of IRQn_Type enumeration
  *         (For the complete STM32 Devices IRQ Channels list, please refer to the appropriate CMSIS device file (stm32f4xxxx.h))
  * @retval None
  */
void HAL_NVIC_EnableIRQ(IRQn_Type IRQn)
{
 8000df2:	b580      	push	{r7, lr}
 8000df4:	b082      	sub	sp, #8
 8000df6:	af00      	add	r7, sp, #0
 8000df8:	4603      	mov	r3, r0
 8000dfa:	71fb      	strb	r3, [r7, #7]
  /* Check the parameters */
  assert_param(IS_NVIC_DEVICE_IRQ(IRQn));
  
  /* Enable interrupt */
  NVIC_EnableIRQ(IRQn);
 8000dfc:	f997 3007 	ldrsb.w	r3, [r7, #7]
 8000e00:	4618      	mov	r0, r3
 8000e02:	f7ff ff31 	bl	8000c68 <__NVIC_EnableIRQ>
}
 8000e06:	bf00      	nop
 8000e08:	3708      	adds	r7, #8
 8000e0a:	46bd      	mov	sp, r7
 8000e0c:	bd80      	pop	{r7, pc}

08000e0e <HAL_SYSTICK_Config>:
  * @param  TicksNumb Specifies the ticks Number of ticks between two interrupts.
  * @retval status:  - 0  Function succeeded.
  *                  - 1  Function failed.
  */
uint32_t HAL_SYSTICK_Config(uint32_t TicksNumb)
{
 8000e0e:	b580      	push	{r7, lr}
 8000e10:	b082      	sub	sp, #8
 8000e12:	af00      	add	r7, sp, #0
 8000e14:	6078      	str	r0, [r7, #4]
   return SysTick_Config(TicksNumb);
 8000e16:	6878      	ldr	r0, [r7, #4]
 8000e18:	f7ff ffa2 	bl	8000d60 <SysTick_Config>
 8000e1c:	4603      	mov	r3, r0
}
 8000e1e:	4618      	mov	r0, r3
 8000e20:	3708      	adds	r7, #8
 8000e22:	46bd      	mov	sp, r7
 8000e24:	bd80      	pop	{r7, pc}

08000e26 <HAL_DMA_Abort_IT>:
  * @param  hdma   pointer to a DMA_HandleTypeDef structure that contains
  *                 the configuration information for the specified DMA Stream.
  * @retval HAL status
  */
HAL_StatusTypeDef HAL_DMA_Abort_IT(DMA_HandleTypeDef *hdma)
{
 8000e26:	b480      	push	{r7}
 8000e28:	b083      	sub	sp, #12
 8000e2a:	af00      	add	r7, sp, #0
 8000e2c:	6078      	str	r0, [r7, #4]
  if(hdma->State != HAL_DMA_STATE_BUSY)
 8000e2e:	687b      	ldr	r3, [r7, #4]
 8000e30:	f893 3035 	ldrb.w	r3, [r3, #53]	; 0x35
 8000e34:	b2db      	uxtb	r3, r3
 8000e36:	2b02      	cmp	r3, #2
 8000e38:	d004      	beq.n	8000e44 <HAL_DMA_Abort_IT+0x1e>
  {
    hdma->ErrorCode = HAL_DMA_ERROR_NO_XFER;
 8000e3a:	687b      	ldr	r3, [r7, #4]
 8000e3c:	2280      	movs	r2, #128	; 0x80
 8000e3e:	655a      	str	r2, [r3, #84]	; 0x54
    return HAL_ERROR;
 8000e40:	2301      	movs	r3, #1
 8000e42:	e00c      	b.n	8000e5e <HAL_DMA_Abort_IT+0x38>
  }
  else
  {
    /* Set Abort State  */
    hdma->State = HAL_DMA_STATE_ABORT;
 8000e44:	687b      	ldr	r3, [r7, #4]
 8000e46:	2205      	movs	r2, #5
 8000e48:	f883 2035 	strb.w	r2, [r3, #53]	; 0x35
    
    /* Disable the stream */
    __HAL_DMA_DISABLE(hdma);
 8000e4c:	687b      	ldr	r3, [r7, #4]
 8000e4e:	681b      	ldr	r3, [r3, #0]
 8000e50:	681a      	ldr	r2, [r3, #0]
 8000e52:	687b      	ldr	r3, [r7, #4]
 8000e54:	681b      	ldr	r3, [r3, #0]
 8000e56:	f022 0201 	bic.w	r2, r2, #1
 8000e5a:	601a      	str	r2, [r3, #0]
  }

  return HAL_OK;
 8000e5c:	2300      	movs	r3, #0
}
 8000e5e:	4618      	mov	r0, r3
 8000e60:	370c      	adds	r7, #12
 8000e62:	46bd      	mov	sp, r7
 8000e64:	f85d 7b04 	ldr.w	r7, [sp], #4
 8000e68:	4770      	bx	lr
	...

08000e6c <HAL_GPIO_Init>:
  * @param  GPIO_Init pointer to a GPIO_InitTypeDef structure that contains
  *         the configuration information for the specified GPIO peripheral.
  * @retval None
  */
void HAL_GPIO_Init(GPIO_TypeDef  *GPIOx, GPIO_InitTypeDef *GPIO_Init)
{
 8000e6c:	b480      	push	{r7}
 8000e6e:	b089      	sub	sp, #36	; 0x24
 8000e70:	af00      	add	r7, sp, #0
 8000e72:	6078      	str	r0, [r7, #4]
 8000e74:	6039      	str	r1, [r7, #0]
  uint32_t position;
  uint32_t ioposition = 0x00U;
 8000e76:	2300      	movs	r3, #0
 8000e78:	617b      	str	r3, [r7, #20]
  uint32_t iocurrent = 0x00U;
 8000e7a:	2300      	movs	r3, #0
 8000e7c:	613b      	str	r3, [r7, #16]
  uint32_t temp = 0x00U;
 8000e7e:	2300      	movs	r3, #0
 8000e80:	61bb      	str	r3, [r7, #24]
  assert_param(IS_GPIO_PIN(GPIO_Init->Pin));
  assert_param(IS_GPIO_MODE(GPIO_Init->Mode));
  assert_param(IS_GPIO_PULL(GPIO_Init->Pull));

  /* Configure the port pins */
  for(position = 0U; position < GPIO_NUMBER; position++)
 8000e82:	2300      	movs	r3, #0
 8000e84:	61fb      	str	r3, [r7, #28]
 8000e86:	e16b      	b.n	8001160 <HAL_GPIO_Init+0x2f4>
  {
    /* Get the IO position */
    ioposition = 0x01U << position;
 8000e88:	2201      	movs	r2, #1
 8000e8a:	69fb      	ldr	r3, [r7, #28]
 8000e8c:	fa02 f303 	lsl.w	r3, r2, r3
 8000e90:	617b      	str	r3, [r7, #20]
    /* Get the current IO position */
    iocurrent = (uint32_t)(GPIO_Init->Pin) & ioposition;
 8000e92:	683b      	ldr	r3, [r7, #0]
 8000e94:	681b      	ldr	r3, [r3, #0]
 8000e96:	697a      	ldr	r2, [r7, #20]
 8000e98:	4013      	ands	r3, r2
 8000e9a:	613b      	str	r3, [r7, #16]

    if(iocurrent == ioposition)
 8000e9c:	693a      	ldr	r2, [r7, #16]
 8000e9e:	697b      	ldr	r3, [r7, #20]
 8000ea0:	429a      	cmp	r2, r3
 8000ea2:	f040 815a 	bne.w	800115a <HAL_GPIO_Init+0x2ee>
    {
      /*--------------------- GPIO Mode Configuration ------------------------*/
      /* In case of Output or Alternate function mode selection */
      if((GPIO_Init->Mode == GPIO_MODE_OUTPUT_PP) || (GPIO_Init->Mode == GPIO_MODE_AF_PP) ||
 8000ea6:	683b      	ldr	r3, [r7, #0]
 8000ea8:	685b      	ldr	r3, [r3, #4]
 8000eaa:	2b01      	cmp	r3, #1
 8000eac:	d00b      	beq.n	8000ec6 <HAL_GPIO_Init+0x5a>
 8000eae:	683b      	ldr	r3, [r7, #0]
 8000eb0:	685b      	ldr	r3, [r3, #4]
 8000eb2:	2b02      	cmp	r3, #2
 8000eb4:	d007      	beq.n	8000ec6 <HAL_GPIO_Init+0x5a>
         (GPIO_Init->Mode == GPIO_MODE_OUTPUT_OD) || (GPIO_Init->Mode == GPIO_MODE_AF_OD))
 8000eb6:	683b      	ldr	r3, [r7, #0]
 8000eb8:	685b      	ldr	r3, [r3, #4]
      if((GPIO_Init->Mode == GPIO_MODE_OUTPUT_PP) || (GPIO_Init->Mode == GPIO_MODE_AF_PP) ||
 8000eba:	2b11      	cmp	r3, #17
 8000ebc:	d003      	beq.n	8000ec6 <HAL_GPIO_Init+0x5a>
         (GPIO_Init->Mode == GPIO_MODE_OUTPUT_OD) || (GPIO_Init->Mode == GPIO_MODE_AF_OD))
 8000ebe:	683b      	ldr	r3, [r7, #0]
 8000ec0:	685b      	ldr	r3, [r3, #4]
 8000ec2:	2b12      	cmp	r3, #18
 8000ec4:	d130      	bne.n	8000f28 <HAL_GPIO_Init+0xbc>
      {
        /* Check the Speed parameter */
        assert_param(IS_GPIO_SPEED(GPIO_Init->Speed));
        /* Configure the IO Speed */
        temp = GPIOx->OSPEEDR; 
 8000ec6:	687b      	ldr	r3, [r7, #4]
 8000ec8:	689b      	ldr	r3, [r3, #8]
 8000eca:	61bb      	str	r3, [r7, #24]
        temp &= ~(GPIO_OSPEEDER_OSPEEDR0 << (position * 2U));
 8000ecc:	69fb      	ldr	r3, [r7, #28]
 8000ece:	005b      	lsls	r3, r3, #1
 8000ed0:	2203      	movs	r2, #3
 8000ed2:	fa02 f303 	lsl.w	r3, r2, r3
 8000ed6:	43db      	mvns	r3, r3
 8000ed8:	69ba      	ldr	r2, [r7, #24]
 8000eda:	4013      	ands	r3, r2
 8000edc:	61bb      	str	r3, [r7, #24]
        temp |= (GPIO_Init->Speed << (position * 2U));
 8000ede:	683b      	ldr	r3, [r7, #0]
 8000ee0:	68da      	ldr	r2, [r3, #12]
 8000ee2:	69fb      	ldr	r3, [r7, #28]
 8000ee4:	005b      	lsls	r3, r3, #1
 8000ee6:	fa02 f303 	lsl.w	r3, r2, r3
 8000eea:	69ba      	ldr	r2, [r7, #24]
 8000eec:	4313      	orrs	r3, r2
 8000eee:	61bb      	str	r3, [r7, #24]
        GPIOx->OSPEEDR = temp;
 8000ef0:	687b      	ldr	r3, [r7, #4]
 8000ef2:	69ba      	ldr	r2, [r7, #24]
 8000ef4:	609a      	str	r2, [r3, #8]

        /* Configure the IO Output Type */
        temp = GPIOx->OTYPER;
 8000ef6:	687b      	ldr	r3, [r7, #4]
 8000ef8:	685b      	ldr	r3, [r3, #4]
 8000efa:	61bb      	str	r3, [r7, #24]
        temp &= ~(GPIO_OTYPER_OT_0 << position) ;
 8000efc:	2201      	movs	r2, #1
 8000efe:	69fb      	ldr	r3, [r7, #28]
 8000f00:	fa02 f303 	lsl.w	r3, r2, r3
 8000f04:	43db      	mvns	r3, r3
 8000f06:	69ba      	ldr	r2, [r7, #24]
 8000f08:	4013      	ands	r3, r2
 8000f0a:	61bb      	str	r3, [r7, #24]
        temp |= (((GPIO_Init->Mode & GPIO_OUTPUT_TYPE) >> 4U) << position);
 8000f0c:	683b      	ldr	r3, [r7, #0]
 8000f0e:	685b      	ldr	r3, [r3, #4]
 8000f10:	091b      	lsrs	r3, r3, #4
 8000f12:	f003 0201 	and.w	r2, r3, #1
 8000f16:	69fb      	ldr	r3, [r7, #28]
 8000f18:	fa02 f303 	lsl.w	r3, r2, r3
 8000f1c:	69ba      	ldr	r2, [r7, #24]
 8000f1e:	4313      	orrs	r3, r2
 8000f20:	61bb      	str	r3, [r7, #24]
        GPIOx->OTYPER = temp;
 8000f22:	687b      	ldr	r3, [r7, #4]
 8000f24:	69ba      	ldr	r2, [r7, #24]
 8000f26:	605a      	str	r2, [r3, #4]
       }

      /* Activate the Pull-up or Pull down resistor for the current IO */
      temp = GPIOx->PUPDR;
 8000f28:	687b      	ldr	r3, [r7, #4]
 8000f2a:	68db      	ldr	r3, [r3, #12]
 8000f2c:	61bb      	str	r3, [r7, #24]
      temp &= ~(GPIO_PUPDR_PUPDR0 << (position * 2U));
 8000f2e:	69fb      	ldr	r3, [r7, #28]
 8000f30:	005b      	lsls	r3, r3, #1
 8000f32:	2203      	movs	r2, #3
 8000f34:	fa02 f303 	lsl.w	r3, r2, r3
 8000f38:	43db      	mvns	r3, r3
 8000f3a:	69ba      	ldr	r2, [r7, #24]
 8000f3c:	4013      	ands	r3, r2
 8000f3e:	61bb      	str	r3, [r7, #24]
      temp |= ((GPIO_Init->Pull) << (position * 2U));
 8000f40:	683b      	ldr	r3, [r7, #0]
 8000f42:	689a      	ldr	r2, [r3, #8]
 8000f44:	69fb      	ldr	r3, [r7, #28]
 8000f46:	005b      	lsls	r3, r3, #1
 8000f48:	fa02 f303 	lsl.w	r3, r2, r3
 8000f4c:	69ba      	ldr	r2, [r7, #24]
 8000f4e:	4313      	orrs	r3, r2
 8000f50:	61bb      	str	r3, [r7, #24]
      GPIOx->PUPDR = temp;
 8000f52:	687b      	ldr	r3, [r7, #4]
 8000f54:	69ba      	ldr	r2, [r7, #24]
 8000f56:	60da      	str	r2, [r3, #12]

      /* In case of Alternate function mode selection */
      if((GPIO_Init->Mode == GPIO_MODE_AF_PP) || (GPIO_Init->Mode == GPIO_MODE_AF_OD))
 8000f58:	683b      	ldr	r3, [r7, #0]
 8000f5a:	685b      	ldr	r3, [r3, #4]
 8000f5c:	2b02      	cmp	r3, #2
 8000f5e:	d003      	beq.n	8000f68 <HAL_GPIO_Init+0xfc>
 8000f60:	683b      	ldr	r3, [r7, #0]
 8000f62:	685b      	ldr	r3, [r3, #4]
 8000f64:	2b12      	cmp	r3, #18
 8000f66:	d123      	bne.n	8000fb0 <HAL_GPIO_Init+0x144>
      {
        /* Check the Alternate function parameter */
        assert_param(IS_GPIO_AF(GPIO_Init->Alternate));
        /* Configure Alternate function mapped with the current IO */
        temp = GPIOx->AFR[position >> 3U];
 8000f68:	69fb      	ldr	r3, [r7, #28]
 8000f6a:	08da      	lsrs	r2, r3, #3
 8000f6c:	687b      	ldr	r3, [r7, #4]
 8000f6e:	3208      	adds	r2, #8
 8000f70:	f853 3022 	ldr.w	r3, [r3, r2, lsl #2]
 8000f74:	61bb      	str	r3, [r7, #24]
        temp &= ~(0xFU << ((uint32_t)(position & 0x07U) * 4U)) ;
 8000f76:	69fb      	ldr	r3, [r7, #28]
 8000f78:	f003 0307 	and.w	r3, r3, #7
 8000f7c:	009b      	lsls	r3, r3, #2
 8000f7e:	220f      	movs	r2, #15
 8000f80:	fa02 f303 	lsl.w	r3, r2, r3
 8000f84:	43db      	mvns	r3, r3
 8000f86:	69ba      	ldr	r2, [r7, #24]
 8000f88:	4013      	ands	r3, r2
 8000f8a:	61bb      	str	r3, [r7, #24]
        temp |= ((uint32_t)(GPIO_Init->Alternate) << (((uint32_t)position & 0x07U) * 4U));
 8000f8c:	683b      	ldr	r3, [r7, #0]
 8000f8e:	691a      	ldr	r2, [r3, #16]
 8000f90:	69fb      	ldr	r3, [r7, #28]
 8000f92:	f003 0307 	and.w	r3, r3, #7
 8000f96:	009b      	lsls	r3, r3, #2
 8000f98:	fa02 f303 	lsl.w	r3, r2, r3
 8000f9c:	69ba      	ldr	r2, [r7, #24]
 8000f9e:	4313      	orrs	r3, r2
 8000fa0:	61bb      	str	r3, [r7, #24]
        GPIOx->AFR[position >> 3U] = temp;
 8000fa2:	69fb      	ldr	r3, [r7, #28]
 8000fa4:	08da      	lsrs	r2, r3, #3
 8000fa6:	687b      	ldr	r3, [r7, #4]
 8000fa8:	3208      	adds	r2, #8
 8000faa:	69b9      	ldr	r1, [r7, #24]
 8000fac:	f843 1022 	str.w	r1, [r3, r2, lsl #2]
      }

      /* Configure IO Direction mode (Input, Output, Alternate or Analog) */
      temp = GPIOx->MODER;
 8000fb0:	687b      	ldr	r3, [r7, #4]
 8000fb2:	681b      	ldr	r3, [r3, #0]
 8000fb4:	61bb      	str	r3, [r7, #24]
      temp &= ~(GPIO_MODER_MODER0 << (position * 2U));
 8000fb6:	69fb      	ldr	r3, [r7, #28]
 8000fb8:	005b      	lsls	r3, r3, #1
 8000fba:	2203      	movs	r2, #3
 8000fbc:	fa02 f303 	lsl.w	r3, r2, r3
 8000fc0:	43db      	mvns	r3, r3
 8000fc2:	69ba      	ldr	r2, [r7, #24]
 8000fc4:	4013      	ands	r3, r2
 8000fc6:	61bb      	str	r3, [r7, #24]
      temp |= ((GPIO_Init->Mode & GPIO_MODE) << (position * 2U));
 8000fc8:	683b      	ldr	r3, [r7, #0]
 8000fca:	685b      	ldr	r3, [r3, #4]
 8000fcc:	f003 0203 	and.w	r2, r3, #3
 8000fd0:	69fb      	ldr	r3, [r7, #28]
 8000fd2:	005b      	lsls	r3, r3, #1
 8000fd4:	fa02 f303 	lsl.w	r3, r2, r3
 8000fd8:	69ba      	ldr	r2, [r7, #24]
 8000fda:	4313      	orrs	r3, r2
 8000fdc:	61bb      	str	r3, [r7, #24]
      GPIOx->MODER = temp;
 8000fde:	687b      	ldr	r3, [r7, #4]
 8000fe0:	69ba      	ldr	r2, [r7, #24]
 8000fe2:	601a      	str	r2, [r3, #0]

      /*--------------------- EXTI Mode Configuration ------------------------*/
      /* Configure the External Interrupt or event for the current IO */
      if((GPIO_Init->Mode & EXTI_MODE) == EXTI_MODE)
 8000fe4:	683b      	ldr	r3, [r7, #0]
 8000fe6:	685b      	ldr	r3, [r3, #4]
 8000fe8:	f003 5380 	and.w	r3, r3, #268435456	; 0x10000000
 8000fec:	2b00      	cmp	r3, #0
 8000fee:	f000 80b4 	beq.w	800115a <HAL_GPIO_Init+0x2ee>
      {
        /* Enable SYSCFG Clock */
        __HAL_RCC_SYSCFG_CLK_ENABLE();
 8000ff2:	2300      	movs	r3, #0
 8000ff4:	60fb      	str	r3, [r7, #12]
 8000ff6:	4b5f      	ldr	r3, [pc, #380]	; (8001174 <HAL_GPIO_Init+0x308>)
 8000ff8:	6c5b      	ldr	r3, [r3, #68]	; 0x44
 8000ffa:	4a5e      	ldr	r2, [pc, #376]	; (8001174 <HAL_GPIO_Init+0x308>)
 8000ffc:	f443 4380 	orr.w	r3, r3, #16384	; 0x4000
 8001000:	6453      	str	r3, [r2, #68]	; 0x44
 8001002:	4b5c      	ldr	r3, [pc, #368]	; (8001174 <HAL_GPIO_Init+0x308>)
 8001004:	6c5b      	ldr	r3, [r3, #68]	; 0x44
 8001006:	f403 4380 	and.w	r3, r3, #16384	; 0x4000
 800100a:	60fb      	str	r3, [r7, #12]
 800100c:	68fb      	ldr	r3, [r7, #12]

        temp = SYSCFG->EXTICR[position >> 2U];
 800100e:	4a5a      	ldr	r2, [pc, #360]	; (8001178 <HAL_GPIO_Init+0x30c>)
 8001010:	69fb      	ldr	r3, [r7, #28]
 8001012:	089b      	lsrs	r3, r3, #2
 8001014:	3302      	adds	r3, #2
 8001016:	f852 3023 	ldr.w	r3, [r2, r3, lsl #2]
 800101a:	61bb      	str	r3, [r7, #24]
        temp &= ~(0x0FU << (4U * (position & 0x03U)));
 800101c:	69fb      	ldr	r3, [r7, #28]
 800101e:	f003 0303 	and.w	r3, r3, #3
 8001022:	009b      	lsls	r3, r3, #2
 8001024:	220f      	movs	r2, #15
 8001026:	fa02 f303 	lsl.w	r3, r2, r3
 800102a:	43db      	mvns	r3, r3
 800102c:	69ba      	ldr	r2, [r7, #24]
 800102e:	4013      	ands	r3, r2
 8001030:	61bb      	str	r3, [r7, #24]
        temp |= ((uint32_t)(GPIO_GET_INDEX(GPIOx)) << (4U * (position & 0x03U)));
 8001032:	687b      	ldr	r3, [r7, #4]
 8001034:	4a51      	ldr	r2, [pc, #324]	; (800117c <HAL_GPIO_Init+0x310>)
 8001036:	4293      	cmp	r3, r2
 8001038:	d02b      	beq.n	8001092 <HAL_GPIO_Init+0x226>
 800103a:	687b      	ldr	r3, [r7, #4]
 800103c:	4a50      	ldr	r2, [pc, #320]	; (8001180 <HAL_GPIO_Init+0x314>)
 800103e:	4293      	cmp	r3, r2
 8001040:	d025      	beq.n	800108e <HAL_GPIO_Init+0x222>
 8001042:	687b      	ldr	r3, [r7, #4]
 8001044:	4a4f      	ldr	r2, [pc, #316]	; (8001184 <HAL_GPIO_Init+0x318>)
 8001046:	4293      	cmp	r3, r2
 8001048:	d01f      	beq.n	800108a <HAL_GPIO_Init+0x21e>
 800104a:	687b      	ldr	r3, [r7, #4]
 800104c:	4a4e      	ldr	r2, [pc, #312]	; (8001188 <HAL_GPIO_Init+0x31c>)
 800104e:	4293      	cmp	r3, r2
 8001050:	d019      	beq.n	8001086 <HAL_GPIO_Init+0x21a>
 8001052:	687b      	ldr	r3, [r7, #4]
 8001054:	4a4d      	ldr	r2, [pc, #308]	; (800118c <HAL_GPIO_Init+0x320>)
 8001056:	4293      	cmp	r3, r2
 8001058:	d013      	beq.n	8001082 <HAL_GPIO_Init+0x216>
 800105a:	687b      	ldr	r3, [r7, #4]
 800105c:	4a4c      	ldr	r2, [pc, #304]	; (8001190 <HAL_GPIO_Init+0x324>)
 800105e:	4293      	cmp	r3, r2
 8001060:	d00d      	beq.n	800107e <HAL_GPIO_Init+0x212>
 8001062:	687b      	ldr	r3, [r7, #4]
 8001064:	4a4b      	ldr	r2, [pc, #300]	; (8001194 <HAL_GPIO_Init+0x328>)
 8001066:	4293      	cmp	r3, r2
 8001068:	d007      	beq.n	800107a <HAL_GPIO_Init+0x20e>
 800106a:	687b      	ldr	r3, [r7, #4]
 800106c:	4a4a      	ldr	r2, [pc, #296]	; (8001198 <HAL_GPIO_Init+0x32c>)
 800106e:	4293      	cmp	r3, r2
 8001070:	d101      	bne.n	8001076 <HAL_GPIO_Init+0x20a>
 8001072:	2307      	movs	r3, #7
 8001074:	e00e      	b.n	8001094 <HAL_GPIO_Init+0x228>
 8001076:	2308      	movs	r3, #8
 8001078:	e00c      	b.n	8001094 <HAL_GPIO_Init+0x228>
 800107a:	2306      	movs	r3, #6
 800107c:	e00a      	b.n	8001094 <HAL_GPIO_Init+0x228>
 800107e:	2305      	movs	r3, #5
 8001080:	e008      	b.n	8001094 <HAL_GPIO_Init+0x228>
 8001082:	2304      	movs	r3, #4
 8001084:	e006      	b.n	8001094 <HAL_GPIO_Init+0x228>
 8001086:	2303      	movs	r3, #3
 8001088:	e004      	b.n	8001094 <HAL_GPIO_Init+0x228>
 800108a:	2302      	movs	r3, #2
 800108c:	e002      	b.n	8001094 <HAL_GPIO_Init+0x228>
 800108e:	2301      	movs	r3, #1
 8001090:	e000      	b.n	8001094 <HAL_GPIO_Init+0x228>
 8001092:	2300      	movs	r3, #0
 8001094:	69fa      	ldr	r2, [r7, #28]
 8001096:	f002 0203 	and.w	r2, r2, #3
 800109a:	0092      	lsls	r2, r2, #2
 800109c:	4093      	lsls	r3, r2
 800109e:	69ba      	ldr	r2, [r7, #24]
 80010a0:	4313      	orrs	r3, r2
 80010a2:	61bb      	str	r3, [r7, #24]
        SYSCFG->EXTICR[position >> 2U] = temp;
 80010a4:	4934      	ldr	r1, [pc, #208]	; (8001178 <HAL_GPIO_Init+0x30c>)
 80010a6:	69fb      	ldr	r3, [r7, #28]
 80010a8:	089b      	lsrs	r3, r3, #2
 80010aa:	3302      	adds	r3, #2
 80010ac:	69ba      	ldr	r2, [r7, #24]
 80010ae:	f841 2023 	str.w	r2, [r1, r3, lsl #2]

        /* Clear EXTI line configuration */
        temp = EXTI->IMR;
 80010b2:	4b3a      	ldr	r3, [pc, #232]	; (800119c <HAL_GPIO_Init+0x330>)
 80010b4:	681b      	ldr	r3, [r3, #0]
 80010b6:	61bb      	str	r3, [r7, #24]
        temp &= ~((uint32_t)iocurrent);
 80010b8:	693b      	ldr	r3, [r7, #16]
 80010ba:	43db      	mvns	r3, r3
 80010bc:	69ba      	ldr	r2, [r7, #24]
 80010be:	4013      	ands	r3, r2
 80010c0:	61bb      	str	r3, [r7, #24]
        if((GPIO_Init->Mode & GPIO_MODE_IT) == GPIO_MODE_IT)
 80010c2:	683b      	ldr	r3, [r7, #0]
 80010c4:	685b      	ldr	r3, [r3, #4]
 80010c6:	f403 3380 	and.w	r3, r3, #65536	; 0x10000
 80010ca:	2b00      	cmp	r3, #0
 80010cc:	d003      	beq.n	80010d6 <HAL_GPIO_Init+0x26a>
        {
          temp |= iocurrent;
 80010ce:	69ba      	ldr	r2, [r7, #24]
 80010d0:	693b      	ldr	r3, [r7, #16]
 80010d2:	4313      	orrs	r3, r2
 80010d4:	61bb      	str	r3, [r7, #24]
        }
        EXTI->IMR = temp;
 80010d6:	4a31      	ldr	r2, [pc, #196]	; (800119c <HAL_GPIO_Init+0x330>)
 80010d8:	69bb      	ldr	r3, [r7, #24]
 80010da:	6013      	str	r3, [r2, #0]

        temp = EXTI->EMR;
 80010dc:	4b2f      	ldr	r3, [pc, #188]	; (800119c <HAL_GPIO_Init+0x330>)
 80010de:	685b      	ldr	r3, [r3, #4]
 80010e0:	61bb      	str	r3, [r7, #24]
        temp &= ~((uint32_t)iocurrent);
 80010e2:	693b      	ldr	r3, [r7, #16]
 80010e4:	43db      	mvns	r3, r3
 80010e6:	69ba      	ldr	r2, [r7, #24]
 80010e8:	4013      	ands	r3, r2
 80010ea:	61bb      	str	r3, [r7, #24]
        if((GPIO_Init->Mode & GPIO_MODE_EVT) == GPIO_MODE_EVT)
 80010ec:	683b      	ldr	r3, [r7, #0]
 80010ee:	685b      	ldr	r3, [r3, #4]
 80010f0:	f403 3300 	and.w	r3, r3, #131072	; 0x20000
 80010f4:	2b00      	cmp	r3, #0
 80010f6:	d003      	beq.n	8001100 <HAL_GPIO_Init+0x294>
        {
          temp |= iocurrent;
 80010f8:	69ba      	ldr	r2, [r7, #24]
 80010fa:	693b      	ldr	r3, [r7, #16]
 80010fc:	4313      	orrs	r3, r2
 80010fe:	61bb      	str	r3, [r7, #24]
        }
        EXTI->EMR = temp;
 8001100:	4a26      	ldr	r2, [pc, #152]	; (800119c <HAL_GPIO_Init+0x330>)
 8001102:	69bb      	ldr	r3, [r7, #24]
 8001104:	6053      	str	r3, [r2, #4]

        /* Clear Rising Falling edge configuration */
        temp = EXTI->RTSR;
 8001106:	4b25      	ldr	r3, [pc, #148]	; (800119c <HAL_GPIO_Init+0x330>)
 8001108:	689b      	ldr	r3, [r3, #8]
 800110a:	61bb      	str	r3, [r7, #24]
        temp &= ~((uint32_t)iocurrent);
 800110c:	693b      	ldr	r3, [r7, #16]
 800110e:	43db      	mvns	r3, r3
 8001110:	69ba      	ldr	r2, [r7, #24]
 8001112:	4013      	ands	r3, r2
 8001114:	61bb      	str	r3, [r7, #24]
        if((GPIO_Init->Mode & RISING_EDGE) == RISING_EDGE)
 8001116:	683b      	ldr	r3, [r7, #0]
 8001118:	685b      	ldr	r3, [r3, #4]
 800111a:	f403 1380 	and.w	r3, r3, #1048576	; 0x100000
 800111e:	2b00      	cmp	r3, #0
 8001120:	d003      	beq.n	800112a <HAL_GPIO_Init+0x2be>
        {
          temp |= iocurrent;
 8001122:	69ba      	ldr	r2, [r7, #24]
 8001124:	693b      	ldr	r3, [r7, #16]
 8001126:	4313      	orrs	r3, r2
 8001128:	61bb      	str	r3, [r7, #24]
        }
        EXTI->RTSR = temp;
 800112a:	4a1c      	ldr	r2, [pc, #112]	; (800119c <HAL_GPIO_Init+0x330>)
 800112c:	69bb      	ldr	r3, [r7, #24]
 800112e:	6093      	str	r3, [r2, #8]

        temp = EXTI->FTSR;
 8001130:	4b1a      	ldr	r3, [pc, #104]	; (800119c <HAL_GPIO_Init+0x330>)
 8001132:	68db      	ldr	r3, [r3, #12]
 8001134:	61bb      	str	r3, [r7, #24]
        temp &= ~((uint32_t)iocurrent);
 8001136:	693b      	ldr	r3, [r7, #16]
 8001138:	43db      	mvns	r3, r3
 800113a:	69ba      	ldr	r2, [r7, #24]
 800113c:	4013      	ands	r3, r2
 800113e:	61bb      	str	r3, [r7, #24]
        if((GPIO_Init->Mode & FALLING_EDGE) == FALLING_EDGE)
 8001140:	683b      	ldr	r3, [r7, #0]
 8001142:	685b      	ldr	r3, [r3, #4]
 8001144:	f403 1300 	and.w	r3, r3, #2097152	; 0x200000
 8001148:	2b00      	cmp	r3, #0
 800114a:	d003      	beq.n	8001154 <HAL_GPIO_Init+0x2e8>
        {
          temp |= iocurrent;
 800114c:	69ba      	ldr	r2, [r7, #24]
 800114e:	693b      	ldr	r3, [r7, #16]
 8001150:	4313      	orrs	r3, r2
 8001152:	61bb      	str	r3, [r7, #24]
        }
        EXTI->FTSR = temp;
 8001154:	4a11      	ldr	r2, [pc, #68]	; (800119c <HAL_GPIO_Init+0x330>)
 8001156:	69bb      	ldr	r3, [r7, #24]
 8001158:	60d3      	str	r3, [r2, #12]
  for(position = 0U; position < GPIO_NUMBER; position++)
 800115a:	69fb      	ldr	r3, [r7, #28]
 800115c:	3301      	adds	r3, #1
 800115e:	61fb      	str	r3, [r7, #28]
 8001160:	69fb      	ldr	r3, [r7, #28]
 8001162:	2b0f      	cmp	r3, #15
 8001164:	f67f ae90 	bls.w	8000e88 <HAL_GPIO_Init+0x1c>
      }
    }
  }
}
 8001168:	bf00      	nop
 800116a:	3724      	adds	r7, #36	; 0x24
 800116c:	46bd      	mov	sp, r7
 800116e:	f85d 7b04 	ldr.w	r7, [sp], #4
 8001172:	4770      	bx	lr
 8001174:	40023800 	.word	0x40023800
 8001178:	40013800 	.word	0x40013800
 800117c:	40020000 	.word	0x40020000
 8001180:	40020400 	.word	0x40020400
 8001184:	40020800 	.word	0x40020800
 8001188:	40020c00 	.word	0x40020c00
 800118c:	40021000 	.word	0x40021000
 8001190:	40021400 	.word	0x40021400
 8001194:	40021800 	.word	0x40021800
 8001198:	40021c00 	.word	0x40021c00
 800119c:	40013c00 	.word	0x40013c00

080011a0 <HAL_GPIO_WritePin>:
  *            @arg GPIO_PIN_RESET: to clear the port pin
  *            @arg GPIO_PIN_SET: to set the port pin
  * @retval None
  */
void HAL_GPIO_WritePin(GPIO_TypeDef* GPIOx, uint16_t GPIO_Pin, GPIO_PinState PinState)
{
 80011a0:	b480      	push	{r7}
 80011a2:	b083      	sub	sp, #12
 80011a4:	af00      	add	r7, sp, #0
 80011a6:	6078      	str	r0, [r7, #4]
 80011a8:	460b      	mov	r3, r1
 80011aa:	807b      	strh	r3, [r7, #2]
 80011ac:	4613      	mov	r3, r2
 80011ae:	707b      	strb	r3, [r7, #1]
  /* Check the parameters */
  assert_param(IS_GPIO_PIN(GPIO_Pin));
  assert_param(IS_GPIO_PIN_ACTION(PinState));

  if(PinState != GPIO_PIN_RESET)
 80011b0:	787b      	ldrb	r3, [r7, #1]
 80011b2:	2b00      	cmp	r3, #0
 80011b4:	d003      	beq.n	80011be <HAL_GPIO_WritePin+0x1e>
  {
    GPIOx->BSRR = GPIO_Pin;
 80011b6:	887a      	ldrh	r2, [r7, #2]
 80011b8:	687b      	ldr	r3, [r7, #4]
 80011ba:	619a      	str	r2, [r3, #24]
  }
  else
  {
    GPIOx->BSRR = (uint32_t)GPIO_Pin << 16U;
  }
}
 80011bc:	e003      	b.n	80011c6 <HAL_GPIO_WritePin+0x26>
    GPIOx->BSRR = (uint32_t)GPIO_Pin << 16U;
 80011be:	887b      	ldrh	r3, [r7, #2]
 80011c0:	041a      	lsls	r2, r3, #16
 80011c2:	687b      	ldr	r3, [r7, #4]
 80011c4:	619a      	str	r2, [r3, #24]
}
 80011c6:	bf00      	nop
 80011c8:	370c      	adds	r7, #12
 80011ca:	46bd      	mov	sp, r7
 80011cc:	f85d 7b04 	ldr.w	r7, [sp], #4
 80011d0:	4770      	bx	lr
	...

080011d4 <HAL_RCC_OscConfig>:
  *         supported by this API. User should request a transition to HSE Off
  *         first and then HSE On or HSE Bypass.
  * @retval HAL status
  */
__weak HAL_StatusTypeDef HAL_RCC_OscConfig(RCC_OscInitTypeDef  *RCC_OscInitStruct)
{
 80011d4:	b580      	push	{r7, lr}
 80011d6:	b086      	sub	sp, #24
 80011d8:	af00      	add	r7, sp, #0
 80011da:	6078      	str	r0, [r7, #4]
  uint32_t tickstart, pll_config;

  /* Check Null pointer */
  if(RCC_OscInitStruct == NULL)
 80011dc:	687b      	ldr	r3, [r7, #4]
 80011de:	2b00      	cmp	r3, #0
 80011e0:	d101      	bne.n	80011e6 <HAL_RCC_OscConfig+0x12>
  {
    return HAL_ERROR;
 80011e2:	2301      	movs	r3, #1
 80011e4:	e25b      	b.n	800169e <HAL_RCC_OscConfig+0x4ca>
  }

  /* Check the parameters */
  assert_param(IS_RCC_OSCILLATORTYPE(RCC_OscInitStruct->OscillatorType));
  /*------------------------------- HSE Configuration ------------------------*/
  if(((RCC_OscInitStruct->OscillatorType) & RCC_OSCILLATORTYPE_HSE) == RCC_OSCILLATORTYPE_HSE)
 80011e6:	687b      	ldr	r3, [r7, #4]
 80011e8:	681b      	ldr	r3, [r3, #0]
 80011ea:	f003 0301 	and.w	r3, r3, #1
 80011ee:	2b00      	cmp	r3, #0
 80011f0:	d075      	beq.n	80012de <HAL_RCC_OscConfig+0x10a>
  {
    /* Check the parameters */
    assert_param(IS_RCC_HSE(RCC_OscInitStruct->HSEState));
    /* When the HSE is used as system clock or clock source for PLL in these cases HSE will not disabled */
    if((__HAL_RCC_GET_SYSCLK_SOURCE() == RCC_CFGR_SWS_HSE) ||\
 80011f2:	4ba3      	ldr	r3, [pc, #652]	; (8001480 <HAL_RCC_OscConfig+0x2ac>)
 80011f4:	689b      	ldr	r3, [r3, #8]
 80011f6:	f003 030c 	and.w	r3, r3, #12
 80011fa:	2b04      	cmp	r3, #4
 80011fc:	d00c      	beq.n	8001218 <HAL_RCC_OscConfig+0x44>
      ((__HAL_RCC_GET_SYSCLK_SOURCE() == RCC_CFGR_SWS_PLL) && ((RCC->PLLCFGR & RCC_PLLCFGR_PLLSRC) == RCC_PLLCFGR_PLLSRC_HSE)))
 80011fe:	4ba0      	ldr	r3, [pc, #640]	; (8001480 <HAL_RCC_OscConfig+0x2ac>)
 8001200:	689b      	ldr	r3, [r3, #8]
 8001202:	f003 030c 	and.w	r3, r3, #12
    if((__HAL_RCC_GET_SYSCLK_SOURCE() == RCC_CFGR_SWS_HSE) ||\
 8001206:	2b08      	cmp	r3, #8
 8001208:	d112      	bne.n	8001230 <HAL_RCC_OscConfig+0x5c>
      ((__HAL_RCC_GET_SYSCLK_SOURCE() == RCC_CFGR_SWS_PLL) && ((RCC->PLLCFGR & RCC_PLLCFGR_PLLSRC) == RCC_PLLCFGR_PLLSRC_HSE)))
 800120a:	4b9d      	ldr	r3, [pc, #628]	; (8001480 <HAL_RCC_OscConfig+0x2ac>)
 800120c:	685b      	ldr	r3, [r3, #4]
 800120e:	f403 0380 	and.w	r3, r3, #4194304	; 0x400000
 8001212:	f5b3 0f80 	cmp.w	r3, #4194304	; 0x400000
 8001216:	d10b      	bne.n	8001230 <HAL_RCC_OscConfig+0x5c>
    {
      if((__HAL_RCC_GET_FLAG(RCC_FLAG_HSERDY) != RESET) && (RCC_OscInitStruct->HSEState == RCC_HSE_OFF))
 8001218:	4b99      	ldr	r3, [pc, #612]	; (8001480 <HAL_RCC_OscConfig+0x2ac>)
 800121a:	681b      	ldr	r3, [r3, #0]
 800121c:	f403 3300 	and.w	r3, r3, #131072	; 0x20000
 8001220:	2b00      	cmp	r3, #0
 8001222:	d05b      	beq.n	80012dc <HAL_RCC_OscConfig+0x108>
 8001224:	687b      	ldr	r3, [r7, #4]
 8001226:	685b      	ldr	r3, [r3, #4]
 8001228:	2b00      	cmp	r3, #0
 800122a:	d157      	bne.n	80012dc <HAL_RCC_OscConfig+0x108>
      {
        return HAL_ERROR;
 800122c:	2301      	movs	r3, #1
 800122e:	e236      	b.n	800169e <HAL_RCC_OscConfig+0x4ca>
      }
    }
    else
    {
      /* Set the new HSE configuration ---------------------------------------*/
      __HAL_RCC_HSE_CONFIG(RCC_OscInitStruct->HSEState);
 8001230:	687b      	ldr	r3, [r7, #4]
 8001232:	685b      	ldr	r3, [r3, #4]
 8001234:	f5b3 3f80 	cmp.w	r3, #65536	; 0x10000
 8001238:	d106      	bne.n	8001248 <HAL_RCC_OscConfig+0x74>
 800123a:	4b91      	ldr	r3, [pc, #580]	; (8001480 <HAL_RCC_OscConfig+0x2ac>)
 800123c:	681b      	ldr	r3, [r3, #0]
 800123e:	4a90      	ldr	r2, [pc, #576]	; (8001480 <HAL_RCC_OscConfig+0x2ac>)
 8001240:	f443 3380 	orr.w	r3, r3, #65536	; 0x10000
 8001244:	6013      	str	r3, [r2, #0]
 8001246:	e01d      	b.n	8001284 <HAL_RCC_OscConfig+0xb0>
 8001248:	687b      	ldr	r3, [r7, #4]
 800124a:	685b      	ldr	r3, [r3, #4]
 800124c:	f5b3 2fa0 	cmp.w	r3, #327680	; 0x50000
 8001250:	d10c      	bne.n	800126c <HAL_RCC_OscConfig+0x98>
 8001252:	4b8b      	ldr	r3, [pc, #556]	; (8001480 <HAL_RCC_OscConfig+0x2ac>)
 8001254:	681b      	ldr	r3, [r3, #0]
 8001256:	4a8a      	ldr	r2, [pc, #552]	; (8001480 <HAL_RCC_OscConfig+0x2ac>)
 8001258:	f443 2380 	orr.w	r3, r3, #262144	; 0x40000
 800125c:	6013      	str	r3, [r2, #0]
 800125e:	4b88      	ldr	r3, [pc, #544]	; (8001480 <HAL_RCC_OscConfig+0x2ac>)
 8001260:	681b      	ldr	r3, [r3, #0]
 8001262:	4a87      	ldr	r2, [pc, #540]	; (8001480 <HAL_RCC_OscConfig+0x2ac>)
 8001264:	f443 3380 	orr.w	r3, r3, #65536	; 0x10000
 8001268:	6013      	str	r3, [r2, #0]
 800126a:	e00b      	b.n	8001284 <HAL_RCC_OscConfig+0xb0>
 800126c:	4b84      	ldr	r3, [pc, #528]	; (8001480 <HAL_RCC_OscConfig+0x2ac>)
 800126e:	681b      	ldr	r3, [r3, #0]
 8001270:	4a83      	ldr	r2, [pc, #524]	; (8001480 <HAL_RCC_OscConfig+0x2ac>)
 8001272:	f423 3380 	bic.w	r3, r3, #65536	; 0x10000
 8001276:	6013      	str	r3, [r2, #0]
 8001278:	4b81      	ldr	r3, [pc, #516]	; (8001480 <HAL_RCC_OscConfig+0x2ac>)
 800127a:	681b      	ldr	r3, [r3, #0]
 800127c:	4a80      	ldr	r2, [pc, #512]	; (8001480 <HAL_RCC_OscConfig+0x2ac>)
 800127e:	f423 2380 	bic.w	r3, r3, #262144	; 0x40000
 8001282:	6013      	str	r3, [r2, #0]

      /* Check the HSE State */
      if((RCC_OscInitStruct->HSEState) != RCC_HSE_OFF)
 8001284:	687b      	ldr	r3, [r7, #4]
 8001286:	685b      	ldr	r3, [r3, #4]
 8001288:	2b00      	cmp	r3, #0
 800128a:	d013      	beq.n	80012b4 <HAL_RCC_OscConfig+0xe0>
      {
        /* Get Start Tick */
        tickstart = HAL_GetTick();
 800128c:	f7ff fc8c 	bl	8000ba8 <HAL_GetTick>
 8001290:	6138      	str	r0, [r7, #16]

        /* Wait till HSE is ready */
        while(__HAL_RCC_GET_FLAG(RCC_FLAG_HSERDY) == RESET)
 8001292:	e008      	b.n	80012a6 <HAL_RCC_OscConfig+0xd2>
        {
          if((HAL_GetTick() - tickstart ) > HSE_TIMEOUT_VALUE)
 8001294:	f7ff fc88 	bl	8000ba8 <HAL_GetTick>
 8001298:	4602      	mov	r2, r0
 800129a:	693b      	ldr	r3, [r7, #16]
 800129c:	1ad3      	subs	r3, r2, r3
 800129e:	2b64      	cmp	r3, #100	; 0x64
 80012a0:	d901      	bls.n	80012a6 <HAL_RCC_OscConfig+0xd2>
          {
            return HAL_TIMEOUT;
 80012a2:	2303      	movs	r3, #3
 80012a4:	e1fb      	b.n	800169e <HAL_RCC_OscConfig+0x4ca>
        while(__HAL_RCC_GET_FLAG(RCC_FLAG_HSERDY) == RESET)
 80012a6:	4b76      	ldr	r3, [pc, #472]	; (8001480 <HAL_RCC_OscConfig+0x2ac>)
 80012a8:	681b      	ldr	r3, [r3, #0]
 80012aa:	f403 3300 	and.w	r3, r3, #131072	; 0x20000
 80012ae:	2b00      	cmp	r3, #0
 80012b0:	d0f0      	beq.n	8001294 <HAL_RCC_OscConfig+0xc0>
 80012b2:	e014      	b.n	80012de <HAL_RCC_OscConfig+0x10a>
        }
      }
      else
      {
        /* Get Start Tick */
        tickstart = HAL_GetTick();
 80012b4:	f7ff fc78 	bl	8000ba8 <HAL_GetTick>
 80012b8:	6138      	str	r0, [r7, #16]

        /* Wait till HSE is bypassed or disabled */
        while(__HAL_RCC_GET_FLAG(RCC_FLAG_HSERDY) != RESET)
 80012ba:	e008      	b.n	80012ce <HAL_RCC_OscConfig+0xfa>
        {
          if((HAL_GetTick() - tickstart ) > HSE_TIMEOUT_VALUE)
 80012bc:	f7ff fc74 	bl	8000ba8 <HAL_GetTick>
 80012c0:	4602      	mov	r2, r0
 80012c2:	693b      	ldr	r3, [r7, #16]
 80012c4:	1ad3      	subs	r3, r2, r3
 80012c6:	2b64      	cmp	r3, #100	; 0x64
 80012c8:	d901      	bls.n	80012ce <HAL_RCC_OscConfig+0xfa>
          {
            return HAL_TIMEOUT;
 80012ca:	2303      	movs	r3, #3
 80012cc:	e1e7      	b.n	800169e <HAL_RCC_OscConfig+0x4ca>
        while(__HAL_RCC_GET_FLAG(RCC_FLAG_HSERDY) != RESET)
 80012ce:	4b6c      	ldr	r3, [pc, #432]	; (8001480 <HAL_RCC_OscConfig+0x2ac>)
 80012d0:	681b      	ldr	r3, [r3, #0]
 80012d2:	f403 3300 	and.w	r3, r3, #131072	; 0x20000
 80012d6:	2b00      	cmp	r3, #0
 80012d8:	d1f0      	bne.n	80012bc <HAL_RCC_OscConfig+0xe8>
 80012da:	e000      	b.n	80012de <HAL_RCC_OscConfig+0x10a>
      if((__HAL_RCC_GET_FLAG(RCC_FLAG_HSERDY) != RESET) && (RCC_OscInitStruct->HSEState == RCC_HSE_OFF))
 80012dc:	bf00      	nop
        }
      }
    }
  }
  /*----------------------------- HSI Configuration --------------------------*/
  if(((RCC_OscInitStruct->OscillatorType) & RCC_OSCILLATORTYPE_HSI) == RCC_OSCILLATORTYPE_HSI)
 80012de:	687b      	ldr	r3, [r7, #4]
 80012e0:	681b      	ldr	r3, [r3, #0]
 80012e2:	f003 0302 	and.w	r3, r3, #2
 80012e6:	2b00      	cmp	r3, #0
 80012e8:	d063      	beq.n	80013b2 <HAL_RCC_OscConfig+0x1de>
    /* Check the parameters */
    assert_param(IS_RCC_HSI(RCC_OscInitStruct->HSIState));
    assert_param(IS_RCC_CALIBRATION_VALUE(RCC_OscInitStruct->HSICalibrationValue));

    /* Check if HSI is used as system clock or as PLL source when PLL is selected as system clock */
    if((__HAL_RCC_GET_SYSCLK_SOURCE() == RCC_CFGR_SWS_HSI) ||\
 80012ea:	4b65      	ldr	r3, [pc, #404]	; (8001480 <HAL_RCC_OscConfig+0x2ac>)
 80012ec:	689b      	ldr	r3, [r3, #8]
 80012ee:	f003 030c 	and.w	r3, r3, #12
 80012f2:	2b00      	cmp	r3, #0
 80012f4:	d00b      	beq.n	800130e <HAL_RCC_OscConfig+0x13a>
      ((__HAL_RCC_GET_SYSCLK_SOURCE() == RCC_CFGR_SWS_PLL) && ((RCC->PLLCFGR & RCC_PLLCFGR_PLLSRC) == RCC_PLLCFGR_PLLSRC_HSI)))
 80012f6:	4b62      	ldr	r3, [pc, #392]	; (8001480 <HAL_RCC_OscConfig+0x2ac>)
 80012f8:	689b      	ldr	r3, [r3, #8]
 80012fa:	f003 030c 	and.w	r3, r3, #12
    if((__HAL_RCC_GET_SYSCLK_SOURCE() == RCC_CFGR_SWS_HSI) ||\
 80012fe:	2b08      	cmp	r3, #8
 8001300:	d11c      	bne.n	800133c <HAL_RCC_OscConfig+0x168>
      ((__HAL_RCC_GET_SYSCLK_SOURCE() == RCC_CFGR_SWS_PLL) && ((RCC->PLLCFGR & RCC_PLLCFGR_PLLSRC) == RCC_PLLCFGR_PLLSRC_HSI)))
 8001302:	4b5f      	ldr	r3, [pc, #380]	; (8001480 <HAL_RCC_OscConfig+0x2ac>)
 8001304:	685b      	ldr	r3, [r3, #4]
 8001306:	f403 0380 	and.w	r3, r3, #4194304	; 0x400000
 800130a:	2b00      	cmp	r3, #0
 800130c:	d116      	bne.n	800133c <HAL_RCC_OscConfig+0x168>
    {
      /* When HSI is used as system clock it will not disabled */
      if((__HAL_RCC_GET_FLAG(RCC_FLAG_HSIRDY) != RESET) && (RCC_OscInitStruct->HSIState != RCC_HSI_ON))
 800130e:	4b5c      	ldr	r3, [pc, #368]	; (8001480 <HAL_RCC_OscConfig+0x2ac>)
 8001310:	681b      	ldr	r3, [r3, #0]
 8001312:	f003 0302 	and.w	r3, r3, #2
 8001316:	2b00      	cmp	r3, #0
 8001318:	d005      	beq.n	8001326 <HAL_RCC_OscConfig+0x152>
 800131a:	687b      	ldr	r3, [r7, #4]
 800131c:	68db      	ldr	r3, [r3, #12]
 800131e:	2b01      	cmp	r3, #1
 8001320:	d001      	beq.n	8001326 <HAL_RCC_OscConfig+0x152>
      {
        return HAL_ERROR;
 8001322:	2301      	movs	r3, #1
 8001324:	e1bb      	b.n	800169e <HAL_RCC_OscConfig+0x4ca>
      }
      /* Otherwise, just the calibration is allowed */
      else
      {
        /* Adjusts the Internal High Speed oscillator (HSI) calibration value.*/
        __HAL_RCC_HSI_CALIBRATIONVALUE_ADJUST(RCC_OscInitStruct->HSICalibrationValue);
 8001326:	4b56      	ldr	r3, [pc, #344]	; (8001480 <HAL_RCC_OscConfig+0x2ac>)
 8001328:	681b      	ldr	r3, [r3, #0]
 800132a:	f023 02f8 	bic.w	r2, r3, #248	; 0xf8
 800132e:	687b      	ldr	r3, [r7, #4]
 8001330:	691b      	ldr	r3, [r3, #16]
 8001332:	00db      	lsls	r3, r3, #3
 8001334:	4952      	ldr	r1, [pc, #328]	; (8001480 <HAL_RCC_OscConfig+0x2ac>)
 8001336:	4313      	orrs	r3, r2
 8001338:	600b      	str	r3, [r1, #0]
      if((__HAL_RCC_GET_FLAG(RCC_FLAG_HSIRDY) != RESET) && (RCC_OscInitStruct->HSIState != RCC_HSI_ON))
 800133a:	e03a      	b.n	80013b2 <HAL_RCC_OscConfig+0x1de>
      }
    }
    else
    {
      /* Check the HSI State */
      if((RCC_OscInitStruct->HSIState)!= RCC_HSI_OFF)
 800133c:	687b      	ldr	r3, [r7, #4]
 800133e:	68db      	ldr	r3, [r3, #12]
 8001340:	2b00      	cmp	r3, #0
 8001342:	d020      	beq.n	8001386 <HAL_RCC_OscConfig+0x1b2>
      {
        /* Enable the Internal High Speed oscillator (HSI). */
        __HAL_RCC_HSI_ENABLE();
 8001344:	4b4f      	ldr	r3, [pc, #316]	; (8001484 <HAL_RCC_OscConfig+0x2b0>)
 8001346:	2201      	movs	r2, #1
 8001348:	601a      	str	r2, [r3, #0]

        /* Get Start Tick*/
        tickstart = HAL_GetTick();
 800134a:	f7ff fc2d 	bl	8000ba8 <HAL_GetTick>
 800134e:	6138      	str	r0, [r7, #16]

        /* Wait till HSI is ready */
        while(__HAL_RCC_GET_FLAG(RCC_FLAG_HSIRDY) == RESET)
 8001350:	e008      	b.n	8001364 <HAL_RCC_OscConfig+0x190>
        {
          if((HAL_GetTick() - tickstart ) > HSI_TIMEOUT_VALUE)
 8001352:	f7ff fc29 	bl	8000ba8 <HAL_GetTick>
 8001356:	4602      	mov	r2, r0
 8001358:	693b      	ldr	r3, [r7, #16]
 800135a:	1ad3      	subs	r3, r2, r3
 800135c:	2b02      	cmp	r3, #2
 800135e:	d901      	bls.n	8001364 <HAL_RCC_OscConfig+0x190>
          {
            return HAL_TIMEOUT;
 8001360:	2303      	movs	r3, #3
 8001362:	e19c      	b.n	800169e <HAL_RCC_OscConfig+0x4ca>
        while(__HAL_RCC_GET_FLAG(RCC_FLAG_HSIRDY) == RESET)
 8001364:	4b46      	ldr	r3, [pc, #280]	; (8001480 <HAL_RCC_OscConfig+0x2ac>)
 8001366:	681b      	ldr	r3, [r3, #0]
 8001368:	f003 0302 	and.w	r3, r3, #2
 800136c:	2b00      	cmp	r3, #0
 800136e:	d0f0      	beq.n	8001352 <HAL_RCC_OscConfig+0x17e>
          }
        }

        /* Adjusts the Internal High Speed oscillator (HSI) calibration value. */
        __HAL_RCC_HSI_CALIBRATIONVALUE_ADJUST(RCC_OscInitStruct->HSICalibrationValue);
 8001370:	4b43      	ldr	r3, [pc, #268]	; (8001480 <HAL_RCC_OscConfig+0x2ac>)
 8001372:	681b      	ldr	r3, [r3, #0]
 8001374:	f023 02f8 	bic.w	r2, r3, #248	; 0xf8
 8001378:	687b      	ldr	r3, [r7, #4]
 800137a:	691b      	ldr	r3, [r3, #16]
 800137c:	00db      	lsls	r3, r3, #3
 800137e:	4940      	ldr	r1, [pc, #256]	; (8001480 <HAL_RCC_OscConfig+0x2ac>)
 8001380:	4313      	orrs	r3, r2
 8001382:	600b      	str	r3, [r1, #0]
 8001384:	e015      	b.n	80013b2 <HAL_RCC_OscConfig+0x1de>
      }
      else
      {
        /* Disable the Internal High Speed oscillator (HSI). */
        __HAL_RCC_HSI_DISABLE();
 8001386:	4b3f      	ldr	r3, [pc, #252]	; (8001484 <HAL_RCC_OscConfig+0x2b0>)
 8001388:	2200      	movs	r2, #0
 800138a:	601a      	str	r2, [r3, #0]

        /* Get Start Tick*/
        tickstart = HAL_GetTick();
 800138c:	f7ff fc0c 	bl	8000ba8 <HAL_GetTick>
 8001390:	6138      	str	r0, [r7, #16]

        /* Wait till HSI is ready */
        while(__HAL_RCC_GET_FLAG(RCC_FLAG_HSIRDY) != RESET)
 8001392:	e008      	b.n	80013a6 <HAL_RCC_OscConfig+0x1d2>
        {
          if((HAL_GetTick() - tickstart ) > HSI_TIMEOUT_VALUE)
 8001394:	f7ff fc08 	bl	8000ba8 <HAL_GetTick>
 8001398:	4602      	mov	r2, r0
 800139a:	693b      	ldr	r3, [r7, #16]
 800139c:	1ad3      	subs	r3, r2, r3
 800139e:	2b02      	cmp	r3, #2
 80013a0:	d901      	bls.n	80013a6 <HAL_RCC_OscConfig+0x1d2>
          {
            return HAL_TIMEOUT;
 80013a2:	2303      	movs	r3, #3
 80013a4:	e17b      	b.n	800169e <HAL_RCC_OscConfig+0x4ca>
        while(__HAL_RCC_GET_FLAG(RCC_FLAG_HSIRDY) != RESET)
 80013a6:	4b36      	ldr	r3, [pc, #216]	; (8001480 <HAL_RCC_OscConfig+0x2ac>)
 80013a8:	681b      	ldr	r3, [r3, #0]
 80013aa:	f003 0302 	and.w	r3, r3, #2
 80013ae:	2b00      	cmp	r3, #0
 80013b0:	d1f0      	bne.n	8001394 <HAL_RCC_OscConfig+0x1c0>
        }
      }
    }
  }
  /*------------------------------ LSI Configuration -------------------------*/
  if(((RCC_OscInitStruct->OscillatorType) & RCC_OSCILLATORTYPE_LSI) == RCC_OSCILLATORTYPE_LSI)
 80013b2:	687b      	ldr	r3, [r7, #4]
 80013b4:	681b      	ldr	r3, [r3, #0]
 80013b6:	f003 0308 	and.w	r3, r3, #8
 80013ba:	2b00      	cmp	r3, #0
 80013bc:	d030      	beq.n	8001420 <HAL_RCC_OscConfig+0x24c>
  {
    /* Check the parameters */
    assert_param(IS_RCC_LSI(RCC_OscInitStruct->LSIState));

    /* Check the LSI State */
    if((RCC_OscInitStruct->LSIState)!= RCC_LSI_OFF)
 80013be:	687b      	ldr	r3, [r7, #4]
 80013c0:	695b      	ldr	r3, [r3, #20]
 80013c2:	2b00      	cmp	r3, #0
 80013c4:	d016      	beq.n	80013f4 <HAL_RCC_OscConfig+0x220>
    {
      /* Enable the Internal Low Speed oscillator (LSI). */
      __HAL_RCC_LSI_ENABLE();
 80013c6:	4b30      	ldr	r3, [pc, #192]	; (8001488 <HAL_RCC_OscConfig+0x2b4>)
 80013c8:	2201      	movs	r2, #1
 80013ca:	601a      	str	r2, [r3, #0]

      /* Get Start Tick*/
      tickstart = HAL_GetTick();
 80013cc:	f7ff fbec 	bl	8000ba8 <HAL_GetTick>
 80013d0:	6138      	str	r0, [r7, #16]

      /* Wait till LSI is ready */
      while(__HAL_RCC_GET_FLAG(RCC_FLAG_LSIRDY) == RESET)
 80013d2:	e008      	b.n	80013e6 <HAL_RCC_OscConfig+0x212>
      {
        if((HAL_GetTick() - tickstart ) > LSI_TIMEOUT_VALUE)
 80013d4:	f7ff fbe8 	bl	8000ba8 <HAL_GetTick>
 80013d8:	4602      	mov	r2, r0
 80013da:	693b      	ldr	r3, [r7, #16]
 80013dc:	1ad3      	subs	r3, r2, r3
 80013de:	2b02      	cmp	r3, #2
 80013e0:	d901      	bls.n	80013e6 <HAL_RCC_OscConfig+0x212>
        {
          return HAL_TIMEOUT;
 80013e2:	2303      	movs	r3, #3
 80013e4:	e15b      	b.n	800169e <HAL_RCC_OscConfig+0x4ca>
      while(__HAL_RCC_GET_FLAG(RCC_FLAG_LSIRDY) == RESET)
 80013e6:	4b26      	ldr	r3, [pc, #152]	; (8001480 <HAL_RCC_OscConfig+0x2ac>)
 80013e8:	6f5b      	ldr	r3, [r3, #116]	; 0x74
 80013ea:	f003 0302 	and.w	r3, r3, #2
 80013ee:	2b00      	cmp	r3, #0
 80013f0:	d0f0      	beq.n	80013d4 <HAL_RCC_OscConfig+0x200>
 80013f2:	e015      	b.n	8001420 <HAL_RCC_OscConfig+0x24c>
      }
    }
    else
    {
      /* Disable the Internal Low Speed oscillator (LSI). */
      __HAL_RCC_LSI_DISABLE();
 80013f4:	4b24      	ldr	r3, [pc, #144]	; (8001488 <HAL_RCC_OscConfig+0x2b4>)
 80013f6:	2200      	movs	r2, #0
 80013f8:	601a      	str	r2, [r3, #0]

      /* Get Start Tick */
      tickstart = HAL_GetTick();
 80013fa:	f7ff fbd5 	bl	8000ba8 <HAL_GetTick>
 80013fe:	6138      	str	r0, [r7, #16]

      /* Wait till LSI is ready */
      while(__HAL_RCC_GET_FLAG(RCC_FLAG_LSIRDY) != RESET)
 8001400:	e008      	b.n	8001414 <HAL_RCC_OscConfig+0x240>
      {
        if((HAL_GetTick() - tickstart ) > LSI_TIMEOUT_VALUE)
 8001402:	f7ff fbd1 	bl	8000ba8 <HAL_GetTick>
 8001406:	4602      	mov	r2, r0
 8001408:	693b      	ldr	r3, [r7, #16]
 800140a:	1ad3      	subs	r3, r2, r3
 800140c:	2b02      	cmp	r3, #2
 800140e:	d901      	bls.n	8001414 <HAL_RCC_OscConfig+0x240>
        {
          return HAL_TIMEOUT;
 8001410:	2303      	movs	r3, #3
 8001412:	e144      	b.n	800169e <HAL_RCC_OscConfig+0x4ca>
      while(__HAL_RCC_GET_FLAG(RCC_FLAG_LSIRDY) != RESET)
 8001414:	4b1a      	ldr	r3, [pc, #104]	; (8001480 <HAL_RCC_OscConfig+0x2ac>)
 8001416:	6f5b      	ldr	r3, [r3, #116]	; 0x74
 8001418:	f003 0302 	and.w	r3, r3, #2
 800141c:	2b00      	cmp	r3, #0
 800141e:	d1f0      	bne.n	8001402 <HAL_RCC_OscConfig+0x22e>
        }
      }
    }
  }
  /*------------------------------ LSE Configuration -------------------------*/
  if(((RCC_OscInitStruct->OscillatorType) & RCC_OSCILLATORTYPE_LSE) == RCC_OSCILLATORTYPE_LSE)
 8001420:	687b      	ldr	r3, [r7, #4]
 8001422:	681b      	ldr	r3, [r3, #0]
 8001424:	f003 0304 	and.w	r3, r3, #4
 8001428:	2b00      	cmp	r3, #0
 800142a:	f000 80a0 	beq.w	800156e <HAL_RCC_OscConfig+0x39a>
  {
    FlagStatus       pwrclkchanged = RESET;
 800142e:	2300      	movs	r3, #0
 8001430:	75fb      	strb	r3, [r7, #23]
    /* Check the parameters */
    assert_param(IS_RCC_LSE(RCC_OscInitStruct->LSEState));

    /* Update LSE configuration in Backup Domain control register    */
    /* Requires to enable write access to Backup Domain of necessary */
    if(__HAL_RCC_PWR_IS_CLK_DISABLED())
 8001432:	4b13      	ldr	r3, [pc, #76]	; (8001480 <HAL_RCC_OscConfig+0x2ac>)
 8001434:	6c1b      	ldr	r3, [r3, #64]	; 0x40
 8001436:	f003 5380 	and.w	r3, r3, #268435456	; 0x10000000
 800143a:	2b00      	cmp	r3, #0
 800143c:	d10f      	bne.n	800145e <HAL_RCC_OscConfig+0x28a>
    {
      __HAL_RCC_PWR_CLK_ENABLE();
 800143e:	2300      	movs	r3, #0
 8001440:	60bb      	str	r3, [r7, #8]
 8001442:	4b0f      	ldr	r3, [pc, #60]	; (8001480 <HAL_RCC_OscConfig+0x2ac>)
 8001444:	6c1b      	ldr	r3, [r3, #64]	; 0x40
 8001446:	4a0e      	ldr	r2, [pc, #56]	; (8001480 <HAL_RCC_OscConfig+0x2ac>)
 8001448:	f043 5380 	orr.w	r3, r3, #268435456	; 0x10000000
 800144c:	6413      	str	r3, [r2, #64]	; 0x40
 800144e:	4b0c      	ldr	r3, [pc, #48]	; (8001480 <HAL_RCC_OscConfig+0x2ac>)
 8001450:	6c1b      	ldr	r3, [r3, #64]	; 0x40
 8001452:	f003 5380 	and.w	r3, r3, #268435456	; 0x10000000
 8001456:	60bb      	str	r3, [r7, #8]
 8001458:	68bb      	ldr	r3, [r7, #8]
      pwrclkchanged = SET;
 800145a:	2301      	movs	r3, #1
 800145c:	75fb      	strb	r3, [r7, #23]
    }

    if(HAL_IS_BIT_CLR(PWR->CR, PWR_CR_DBP))
 800145e:	4b0b      	ldr	r3, [pc, #44]	; (800148c <HAL_RCC_OscConfig+0x2b8>)
 8001460:	681b      	ldr	r3, [r3, #0]
 8001462:	f403 7380 	and.w	r3, r3, #256	; 0x100
 8001466:	2b00      	cmp	r3, #0
 8001468:	d121      	bne.n	80014ae <HAL_RCC_OscConfig+0x2da>
    {
      /* Enable write access to Backup domain */
      SET_BIT(PWR->CR, PWR_CR_DBP);
 800146a:	4b08      	ldr	r3, [pc, #32]	; (800148c <HAL_RCC_OscConfig+0x2b8>)
 800146c:	681b      	ldr	r3, [r3, #0]
 800146e:	4a07      	ldr	r2, [pc, #28]	; (800148c <HAL_RCC_OscConfig+0x2b8>)
 8001470:	f443 7380 	orr.w	r3, r3, #256	; 0x100
 8001474:	6013      	str	r3, [r2, #0]

      /* Wait for Backup domain Write protection disable */
      tickstart = HAL_GetTick();
 8001476:	f7ff fb97 	bl	8000ba8 <HAL_GetTick>
 800147a:	6138      	str	r0, [r7, #16]

      while(HAL_IS_BIT_CLR(PWR->CR, PWR_CR_DBP))
 800147c:	e011      	b.n	80014a2 <HAL_RCC_OscConfig+0x2ce>
 800147e:	bf00      	nop
 8001480:	40023800 	.word	0x40023800
 8001484:	42470000 	.word	0x42470000
 8001488:	42470e80 	.word	0x42470e80
 800148c:	40007000 	.word	0x40007000
      {
        if((HAL_GetTick() - tickstart) > RCC_DBP_TIMEOUT_VALUE)
 8001490:	f7ff fb8a 	bl	8000ba8 <HAL_GetTick>
 8001494:	4602      	mov	r2, r0
 8001496:	693b      	ldr	r3, [r7, #16]
 8001498:	1ad3      	subs	r3, r2, r3
 800149a:	2b02      	cmp	r3, #2
 800149c:	d901      	bls.n	80014a2 <HAL_RCC_OscConfig+0x2ce>
        {
          return HAL_TIMEOUT;
 800149e:	2303      	movs	r3, #3
 80014a0:	e0fd      	b.n	800169e <HAL_RCC_OscConfig+0x4ca>
      while(HAL_IS_BIT_CLR(PWR->CR, PWR_CR_DBP))
 80014a2:	4b81      	ldr	r3, [pc, #516]	; (80016a8 <HAL_RCC_OscConfig+0x4d4>)
 80014a4:	681b      	ldr	r3, [r3, #0]
 80014a6:	f403 7380 	and.w	r3, r3, #256	; 0x100
 80014aa:	2b00      	cmp	r3, #0
 80014ac:	d0f0      	beq.n	8001490 <HAL_RCC_OscConfig+0x2bc>
        }
      }
    }

    /* Set the new LSE configuration -----------------------------------------*/
    __HAL_RCC_LSE_CONFIG(RCC_OscInitStruct->LSEState);
 80014ae:	687b      	ldr	r3, [r7, #4]
 80014b0:	689b      	ldr	r3, [r3, #8]
 80014b2:	2b01      	cmp	r3, #1
 80014b4:	d106      	bne.n	80014c4 <HAL_RCC_OscConfig+0x2f0>
 80014b6:	4b7d      	ldr	r3, [pc, #500]	; (80016ac <HAL_RCC_OscConfig+0x4d8>)
 80014b8:	6f1b      	ldr	r3, [r3, #112]	; 0x70
 80014ba:	4a7c      	ldr	r2, [pc, #496]	; (80016ac <HAL_RCC_OscConfig+0x4d8>)
 80014bc:	f043 0301 	orr.w	r3, r3, #1
 80014c0:	6713      	str	r3, [r2, #112]	; 0x70
 80014c2:	e01c      	b.n	80014fe <HAL_RCC_OscConfig+0x32a>
 80014c4:	687b      	ldr	r3, [r7, #4]
 80014c6:	689b      	ldr	r3, [r3, #8]
 80014c8:	2b05      	cmp	r3, #5
 80014ca:	d10c      	bne.n	80014e6 <HAL_RCC_OscConfig+0x312>
 80014cc:	4b77      	ldr	r3, [pc, #476]	; (80016ac <HAL_RCC_OscConfig+0x4d8>)
 80014ce:	6f1b      	ldr	r3, [r3, #112]	; 0x70
 80014d0:	4a76      	ldr	r2, [pc, #472]	; (80016ac <HAL_RCC_OscConfig+0x4d8>)
 80014d2:	f043 0304 	orr.w	r3, r3, #4
 80014d6:	6713      	str	r3, [r2, #112]	; 0x70
 80014d8:	4b74      	ldr	r3, [pc, #464]	; (80016ac <HAL_RCC_OscConfig+0x4d8>)
 80014da:	6f1b      	ldr	r3, [r3, #112]	; 0x70
 80014dc:	4a73      	ldr	r2, [pc, #460]	; (80016ac <HAL_RCC_OscConfig+0x4d8>)
 80014de:	f043 0301 	orr.w	r3, r3, #1
 80014e2:	6713      	str	r3, [r2, #112]	; 0x70
 80014e4:	e00b      	b.n	80014fe <HAL_RCC_OscConfig+0x32a>
 80014e6:	4b71      	ldr	r3, [pc, #452]	; (80016ac <HAL_RCC_OscConfig+0x4d8>)
 80014e8:	6f1b      	ldr	r3, [r3, #112]	; 0x70
 80014ea:	4a70      	ldr	r2, [pc, #448]	; (80016ac <HAL_RCC_OscConfig+0x4d8>)
 80014ec:	f023 0301 	bic.w	r3, r3, #1
 80014f0:	6713      	str	r3, [r2, #112]	; 0x70
 80014f2:	4b6e      	ldr	r3, [pc, #440]	; (80016ac <HAL_RCC_OscConfig+0x4d8>)
 80014f4:	6f1b      	ldr	r3, [r3, #112]	; 0x70
 80014f6:	4a6d      	ldr	r2, [pc, #436]	; (80016ac <HAL_RCC_OscConfig+0x4d8>)
 80014f8:	f023 0304 	bic.w	r3, r3, #4
 80014fc:	6713      	str	r3, [r2, #112]	; 0x70
    /* Check the LSE State */
    if((RCC_OscInitStruct->LSEState) != RCC_LSE_OFF)
 80014fe:	687b      	ldr	r3, [r7, #4]
 8001500:	689b      	ldr	r3, [r3, #8]
 8001502:	2b00      	cmp	r3, #0
 8001504:	d015      	beq.n	8001532 <HAL_RCC_OscConfig+0x35e>
    {
      /* Get Start Tick*/
      tickstart = HAL_GetTick();
 8001506:	f7ff fb4f 	bl	8000ba8 <HAL_GetTick>
 800150a:	6138      	str	r0, [r7, #16]

      /* Wait till LSE is ready */
      while(__HAL_RCC_GET_FLAG(RCC_FLAG_LSERDY) == RESET)
 800150c:	e00a      	b.n	8001524 <HAL_RCC_OscConfig+0x350>
      {
        if((HAL_GetTick() - tickstart ) > RCC_LSE_TIMEOUT_VALUE)
 800150e:	f7ff fb4b 	bl	8000ba8 <HAL_GetTick>
 8001512:	4602      	mov	r2, r0
 8001514:	693b      	ldr	r3, [r7, #16]
 8001516:	1ad3      	subs	r3, r2, r3
 8001518:	f241 3288 	movw	r2, #5000	; 0x1388
 800151c:	4293      	cmp	r3, r2
 800151e:	d901      	bls.n	8001524 <HAL_RCC_OscConfig+0x350>
        {
          return HAL_TIMEOUT;
 8001520:	2303      	movs	r3, #3
 8001522:	e0bc      	b.n	800169e <HAL_RCC_OscConfig+0x4ca>
      while(__HAL_RCC_GET_FLAG(RCC_FLAG_LSERDY) == RESET)
 8001524:	4b61      	ldr	r3, [pc, #388]	; (80016ac <HAL_RCC_OscConfig+0x4d8>)
 8001526:	6f1b      	ldr	r3, [r3, #112]	; 0x70
 8001528:	f003 0302 	and.w	r3, r3, #2
 800152c:	2b00      	cmp	r3, #0
 800152e:	d0ee      	beq.n	800150e <HAL_RCC_OscConfig+0x33a>
 8001530:	e014      	b.n	800155c <HAL_RCC_OscConfig+0x388>
      }
    }
    else
    {
      /* Get Start Tick */
      tickstart = HAL_GetTick();
 8001532:	f7ff fb39 	bl	8000ba8 <HAL_GetTick>
 8001536:	6138      	str	r0, [r7, #16]

      /* Wait till LSE is ready */
      while(__HAL_RCC_GET_FLAG(RCC_FLAG_LSERDY) != RESET)
 8001538:	e00a      	b.n	8001550 <HAL_RCC_OscConfig+0x37c>
      {
        if((HAL_GetTick() - tickstart ) > RCC_LSE_TIMEOUT_VALUE)
 800153a:	f7ff fb35 	bl	8000ba8 <HAL_GetTick>
 800153e:	4602      	mov	r2, r0
 8001540:	693b      	ldr	r3, [r7, #16]
 8001542:	1ad3      	subs	r3, r2, r3
 8001544:	f241 3288 	movw	r2, #5000	; 0x1388
 8001548:	4293      	cmp	r3, r2
 800154a:	d901      	bls.n	8001550 <HAL_RCC_OscConfig+0x37c>
        {
          return HAL_TIMEOUT;
 800154c:	2303      	movs	r3, #3
 800154e:	e0a6      	b.n	800169e <HAL_RCC_OscConfig+0x4ca>
      while(__HAL_RCC_GET_FLAG(RCC_FLAG_LSERDY) != RESET)
 8001550:	4b56      	ldr	r3, [pc, #344]	; (80016ac <HAL_RCC_OscConfig+0x4d8>)
 8001552:	6f1b      	ldr	r3, [r3, #112]	; 0x70
 8001554:	f003 0302 	and.w	r3, r3, #2
 8001558:	2b00      	cmp	r3, #0
 800155a:	d1ee      	bne.n	800153a <HAL_RCC_OscConfig+0x366>
        }
      }
    }

    /* Restore clock configuration if changed */
    if(pwrclkchanged == SET)
 800155c:	7dfb      	ldrb	r3, [r7, #23]
 800155e:	2b01      	cmp	r3, #1
 8001560:	d105      	bne.n	800156e <HAL_RCC_OscConfig+0x39a>
    {
      __HAL_RCC_PWR_CLK_DISABLE();
 8001562:	4b52      	ldr	r3, [pc, #328]	; (80016ac <HAL_RCC_OscConfig+0x4d8>)
 8001564:	6c1b      	ldr	r3, [r3, #64]	; 0x40
 8001566:	4a51      	ldr	r2, [pc, #324]	; (80016ac <HAL_RCC_OscConfig+0x4d8>)
 8001568:	f023 5380 	bic.w	r3, r3, #268435456	; 0x10000000
 800156c:	6413      	str	r3, [r2, #64]	; 0x40
    }
  }
  /*-------------------------------- PLL Configuration -----------------------*/
  /* Check the parameters */
  assert_param(IS_RCC_PLL(RCC_OscInitStruct->PLL.PLLState));
  if ((RCC_OscInitStruct->PLL.PLLState) != RCC_PLL_NONE)
 800156e:	687b      	ldr	r3, [r7, #4]
 8001570:	699b      	ldr	r3, [r3, #24]
 8001572:	2b00      	cmp	r3, #0
 8001574:	f000 8092 	beq.w	800169c <HAL_RCC_OscConfig+0x4c8>
  {
    /* Check if the PLL is used as system clock or not */
    if(__HAL_RCC_GET_SYSCLK_SOURCE() != RCC_CFGR_SWS_PLL)
 8001578:	4b4c      	ldr	r3, [pc, #304]	; (80016ac <HAL_RCC_OscConfig+0x4d8>)
 800157a:	689b      	ldr	r3, [r3, #8]
 800157c:	f003 030c 	and.w	r3, r3, #12
 8001580:	2b08      	cmp	r3, #8
 8001582:	d05c      	beq.n	800163e <HAL_RCC_OscConfig+0x46a>
    {
      if((RCC_OscInitStruct->PLL.PLLState) == RCC_PLL_ON)
 8001584:	687b      	ldr	r3, [r7, #4]
 8001586:	699b      	ldr	r3, [r3, #24]
 8001588:	2b02      	cmp	r3, #2
 800158a:	d141      	bne.n	8001610 <HAL_RCC_OscConfig+0x43c>
        assert_param(IS_RCC_PLLN_VALUE(RCC_OscInitStruct->PLL.PLLN));
        assert_param(IS_RCC_PLLP_VALUE(RCC_OscInitStruct->PLL.PLLP));
        assert_param(IS_RCC_PLLQ_VALUE(RCC_OscInitStruct->PLL.PLLQ));

        /* Disable the main PLL. */
        __HAL_RCC_PLL_DISABLE();
 800158c:	4b48      	ldr	r3, [pc, #288]	; (80016b0 <HAL_RCC_OscConfig+0x4dc>)
 800158e:	2200      	movs	r2, #0
 8001590:	601a      	str	r2, [r3, #0]

        /* Get Start Tick */
        tickstart = HAL_GetTick();
 8001592:	f7ff fb09 	bl	8000ba8 <HAL_GetTick>
 8001596:	6138      	str	r0, [r7, #16]

        /* Wait till PLL is ready */
        while(__HAL_RCC_GET_FLAG(RCC_FLAG_PLLRDY) != RESET)
 8001598:	e008      	b.n	80015ac <HAL_RCC_OscConfig+0x3d8>
        {
          if((HAL_GetTick() - tickstart ) > PLL_TIMEOUT_VALUE)
 800159a:	f7ff fb05 	bl	8000ba8 <HAL_GetTick>
 800159e:	4602      	mov	r2, r0
 80015a0:	693b      	ldr	r3, [r7, #16]
 80015a2:	1ad3      	subs	r3, r2, r3
 80015a4:	2b02      	cmp	r3, #2
 80015a6:	d901      	bls.n	80015ac <HAL_RCC_OscConfig+0x3d8>
          {
            return HAL_TIMEOUT;
 80015a8:	2303      	movs	r3, #3
 80015aa:	e078      	b.n	800169e <HAL_RCC_OscConfig+0x4ca>
        while(__HAL_RCC_GET_FLAG(RCC_FLAG_PLLRDY) != RESET)
 80015ac:	4b3f      	ldr	r3, [pc, #252]	; (80016ac <HAL_RCC_OscConfig+0x4d8>)
 80015ae:	681b      	ldr	r3, [r3, #0]
 80015b0:	f003 7300 	and.w	r3, r3, #33554432	; 0x2000000
 80015b4:	2b00      	cmp	r3, #0
 80015b6:	d1f0      	bne.n	800159a <HAL_RCC_OscConfig+0x3c6>
          }
        }

        /* Configure the main PLL clock source, multiplication and division factors. */
        WRITE_REG(RCC->PLLCFGR, (RCC_OscInitStruct->PLL.PLLSource                                            | \
 80015b8:	687b      	ldr	r3, [r7, #4]
 80015ba:	69da      	ldr	r2, [r3, #28]
 80015bc:	687b      	ldr	r3, [r7, #4]
 80015be:	6a1b      	ldr	r3, [r3, #32]
 80015c0:	431a      	orrs	r2, r3
 80015c2:	687b      	ldr	r3, [r7, #4]
 80015c4:	6a5b      	ldr	r3, [r3, #36]	; 0x24
 80015c6:	019b      	lsls	r3, r3, #6
 80015c8:	431a      	orrs	r2, r3
 80015ca:	687b      	ldr	r3, [r7, #4]
 80015cc:	6a9b      	ldr	r3, [r3, #40]	; 0x28
 80015ce:	085b      	lsrs	r3, r3, #1
 80015d0:	3b01      	subs	r3, #1
 80015d2:	041b      	lsls	r3, r3, #16
 80015d4:	431a      	orrs	r2, r3
 80015d6:	687b      	ldr	r3, [r7, #4]
 80015d8:	6adb      	ldr	r3, [r3, #44]	; 0x2c
 80015da:	061b      	lsls	r3, r3, #24
 80015dc:	4933      	ldr	r1, [pc, #204]	; (80016ac <HAL_RCC_OscConfig+0x4d8>)
 80015de:	4313      	orrs	r3, r2
 80015e0:	604b      	str	r3, [r1, #4]
                                 RCC_OscInitStruct->PLL.PLLM                                                 | \
                                 (RCC_OscInitStruct->PLL.PLLN << RCC_PLLCFGR_PLLN_Pos)             | \
                                 (((RCC_OscInitStruct->PLL.PLLP >> 1U) - 1U) << RCC_PLLCFGR_PLLP_Pos) | \
                                 (RCC_OscInitStruct->PLL.PLLQ << RCC_PLLCFGR_PLLQ_Pos)));
        /* Enable the main PLL. */
        __HAL_RCC_PLL_ENABLE();
 80015e2:	4b33      	ldr	r3, [pc, #204]	; (80016b0 <HAL_RCC_OscConfig+0x4dc>)
 80015e4:	2201      	movs	r2, #1
 80015e6:	601a      	str	r2, [r3, #0]

        /* Get Start Tick */
        tickstart = HAL_GetTick();
 80015e8:	f7ff fade 	bl	8000ba8 <HAL_GetTick>
 80015ec:	6138      	str	r0, [r7, #16]

        /* Wait till PLL is ready */
        while(__HAL_RCC_GET_FLAG(RCC_FLAG_PLLRDY) == RESET)
 80015ee:	e008      	b.n	8001602 <HAL_RCC_OscConfig+0x42e>
        {
          if((HAL_GetTick() - tickstart ) > PLL_TIMEOUT_VALUE)
 80015f0:	f7ff fada 	bl	8000ba8 <HAL_GetTick>
 80015f4:	4602      	mov	r2, r0
 80015f6:	693b      	ldr	r3, [r7, #16]
 80015f8:	1ad3      	subs	r3, r2, r3
 80015fa:	2b02      	cmp	r3, #2
 80015fc:	d901      	bls.n	8001602 <HAL_RCC_OscConfig+0x42e>
          {
            return HAL_TIMEOUT;
 80015fe:	2303      	movs	r3, #3
 8001600:	e04d      	b.n	800169e <HAL_RCC_OscConfig+0x4ca>
        while(__HAL_RCC_GET_FLAG(RCC_FLAG_PLLRDY) == RESET)
 8001602:	4b2a      	ldr	r3, [pc, #168]	; (80016ac <HAL_RCC_OscConfig+0x4d8>)
 8001604:	681b      	ldr	r3, [r3, #0]
 8001606:	f003 7300 	and.w	r3, r3, #33554432	; 0x2000000
 800160a:	2b00      	cmp	r3, #0
 800160c:	d0f0      	beq.n	80015f0 <HAL_RCC_OscConfig+0x41c>
 800160e:	e045      	b.n	800169c <HAL_RCC_OscConfig+0x4c8>
        }
      }
      else
      {
        /* Disable the main PLL. */
        __HAL_RCC_PLL_DISABLE();
 8001610:	4b27      	ldr	r3, [pc, #156]	; (80016b0 <HAL_RCC_OscConfig+0x4dc>)
 8001612:	2200      	movs	r2, #0
 8001614:	601a      	str	r2, [r3, #0]

        /* Get Start Tick */
        tickstart = HAL_GetTick();
 8001616:	f7ff fac7 	bl	8000ba8 <HAL_GetTick>
 800161a:	6138      	str	r0, [r7, #16]

        /* Wait till PLL is ready */
        while(__HAL_RCC_GET_FLAG(RCC_FLAG_PLLRDY) != RESET)
 800161c:	e008      	b.n	8001630 <HAL_RCC_OscConfig+0x45c>
        {
          if((HAL_GetTick() - tickstart ) > PLL_TIMEOUT_VALUE)
 800161e:	f7ff fac3 	bl	8000ba8 <HAL_GetTick>
 8001622:	4602      	mov	r2, r0
 8001624:	693b      	ldr	r3, [r7, #16]
 8001626:	1ad3      	subs	r3, r2, r3
 8001628:	2b02      	cmp	r3, #2
 800162a:	d901      	bls.n	8001630 <HAL_RCC_OscConfig+0x45c>
          {
            return HAL_TIMEOUT;
 800162c:	2303      	movs	r3, #3
 800162e:	e036      	b.n	800169e <HAL_RCC_OscConfig+0x4ca>
        while(__HAL_RCC_GET_FLAG(RCC_FLAG_PLLRDY) != RESET)
 8001630:	4b1e      	ldr	r3, [pc, #120]	; (80016ac <HAL_RCC_OscConfig+0x4d8>)
 8001632:	681b      	ldr	r3, [r3, #0]
 8001634:	f003 7300 	and.w	r3, r3, #33554432	; 0x2000000
 8001638:	2b00      	cmp	r3, #0
 800163a:	d1f0      	bne.n	800161e <HAL_RCC_OscConfig+0x44a>
 800163c:	e02e      	b.n	800169c <HAL_RCC_OscConfig+0x4c8>
      }
    }
    else
    {
      /* Check if there is a request to disable the PLL used as System clock source */
      if((RCC_OscInitStruct->PLL.PLLState) == RCC_PLL_OFF)
 800163e:	687b      	ldr	r3, [r7, #4]
 8001640:	699b      	ldr	r3, [r3, #24]
 8001642:	2b01      	cmp	r3, #1
 8001644:	d101      	bne.n	800164a <HAL_RCC_OscConfig+0x476>
      {
        return HAL_ERROR;
 8001646:	2301      	movs	r3, #1
 8001648:	e029      	b.n	800169e <HAL_RCC_OscConfig+0x4ca>
      }
      else
      {
        /* Do not return HAL_ERROR if request repeats the current configuration */
        pll_config = RCC->PLLCFGR;
 800164a:	4b18      	ldr	r3, [pc, #96]	; (80016ac <HAL_RCC_OscConfig+0x4d8>)
 800164c:	685b      	ldr	r3, [r3, #4]
 800164e:	60fb      	str	r3, [r7, #12]
        if((READ_BIT(pll_config, RCC_PLLCFGR_PLLSRC) != RCC_OscInitStruct->PLL.PLLSource) ||
 8001650:	68fb      	ldr	r3, [r7, #12]
 8001652:	f403 0280 	and.w	r2, r3, #4194304	; 0x400000
 8001656:	687b      	ldr	r3, [r7, #4]
 8001658:	69db      	ldr	r3, [r3, #28]
 800165a:	429a      	cmp	r2, r3
 800165c:	d11c      	bne.n	8001698 <HAL_RCC_OscConfig+0x4c4>
           (READ_BIT(pll_config, RCC_PLLCFGR_PLLM) != RCC_OscInitStruct->PLL.PLLM) ||
 800165e:	68fb      	ldr	r3, [r7, #12]
 8001660:	f003 023f 	and.w	r2, r3, #63	; 0x3f
 8001664:	687b      	ldr	r3, [r7, #4]
 8001666:	6a1b      	ldr	r3, [r3, #32]
        if((READ_BIT(pll_config, RCC_PLLCFGR_PLLSRC) != RCC_OscInitStruct->PLL.PLLSource) ||
 8001668:	429a      	cmp	r2, r3
 800166a:	d115      	bne.n	8001698 <HAL_RCC_OscConfig+0x4c4>
           (READ_BIT(pll_config, RCC_PLLCFGR_PLLN) != RCC_OscInitStruct->PLL.PLLN) ||
 800166c:	68fa      	ldr	r2, [r7, #12]
 800166e:	f647 73c0 	movw	r3, #32704	; 0x7fc0
 8001672:	4013      	ands	r3, r2
 8001674:	687a      	ldr	r2, [r7, #4]
 8001676:	6a52      	ldr	r2, [r2, #36]	; 0x24
           (READ_BIT(pll_config, RCC_PLLCFGR_PLLM) != RCC_OscInitStruct->PLL.PLLM) ||
 8001678:	4293      	cmp	r3, r2
 800167a:	d10d      	bne.n	8001698 <HAL_RCC_OscConfig+0x4c4>
           (READ_BIT(pll_config, RCC_PLLCFGR_PLLP) != RCC_OscInitStruct->PLL.PLLP) ||
 800167c:	68fb      	ldr	r3, [r7, #12]
 800167e:	f403 3240 	and.w	r2, r3, #196608	; 0x30000
 8001682:	687b      	ldr	r3, [r7, #4]
 8001684:	6a9b      	ldr	r3, [r3, #40]	; 0x28
           (READ_BIT(pll_config, RCC_PLLCFGR_PLLN) != RCC_OscInitStruct->PLL.PLLN) ||
 8001686:	429a      	cmp	r2, r3
 8001688:	d106      	bne.n	8001698 <HAL_RCC_OscConfig+0x4c4>
           (READ_BIT(pll_config, RCC_PLLCFGR_PLLQ) != RCC_OscInitStruct->PLL.PLLQ))
 800168a:	68fb      	ldr	r3, [r7, #12]
 800168c:	f003 6270 	and.w	r2, r3, #251658240	; 0xf000000
 8001690:	687b      	ldr	r3, [r7, #4]
 8001692:	6adb      	ldr	r3, [r3, #44]	; 0x2c
           (READ_BIT(pll_config, RCC_PLLCFGR_PLLP) != RCC_OscInitStruct->PLL.PLLP) ||
 8001694:	429a      	cmp	r2, r3
 8001696:	d001      	beq.n	800169c <HAL_RCC_OscConfig+0x4c8>
        {
          return HAL_ERROR;
 8001698:	2301      	movs	r3, #1
 800169a:	e000      	b.n	800169e <HAL_RCC_OscConfig+0x4ca>
        }
      }
    }
  }
  return HAL_OK;
 800169c:	2300      	movs	r3, #0
}
 800169e:	4618      	mov	r0, r3
 80016a0:	3718      	adds	r7, #24
 80016a2:	46bd      	mov	sp, r7
 80016a4:	bd80      	pop	{r7, pc}
 80016a6:	bf00      	nop
 80016a8:	40007000 	.word	0x40007000
 80016ac:	40023800 	.word	0x40023800
 80016b0:	42470060 	.word	0x42470060

080016b4 <HAL_RCC_ClockConfig>:
  *         HPRE[3:0] bits to ensure that HCLK not exceed the maximum allowed frequency
  *         (for more details refer to section above "Initialization/de-initialization functions")
  * @retval None
  */
HAL_StatusTypeDef HAL_RCC_ClockConfig(RCC_ClkInitTypeDef  *RCC_ClkInitStruct, uint32_t FLatency)
{
 80016b4:	b580      	push	{r7, lr}
 80016b6:	b084      	sub	sp, #16
 80016b8:	af00      	add	r7, sp, #0
 80016ba:	6078      	str	r0, [r7, #4]
 80016bc:	6039      	str	r1, [r7, #0]
  uint32_t tickstart;

  /* Check Null pointer */
  if(RCC_ClkInitStruct == NULL)
 80016be:	687b      	ldr	r3, [r7, #4]
 80016c0:	2b00      	cmp	r3, #0
 80016c2:	d101      	bne.n	80016c8 <HAL_RCC_ClockConfig+0x14>
  {
    return HAL_ERROR;
 80016c4:	2301      	movs	r3, #1
 80016c6:	e0cc      	b.n	8001862 <HAL_RCC_ClockConfig+0x1ae>
  /* To correctly read data from FLASH memory, the number of wait states (LATENCY)
    must be correctly programmed according to the frequency of the CPU clock
    (HCLK) and the supply voltage of the device. */

  /* Increasing the number of wait states because of higher CPU frequency */
  if(FLatency > __HAL_FLASH_GET_LATENCY())
 80016c8:	4b68      	ldr	r3, [pc, #416]	; (800186c <HAL_RCC_ClockConfig+0x1b8>)
 80016ca:	681b      	ldr	r3, [r3, #0]
 80016cc:	f003 030f 	and.w	r3, r3, #15
 80016d0:	683a      	ldr	r2, [r7, #0]
 80016d2:	429a      	cmp	r2, r3
 80016d4:	d90c      	bls.n	80016f0 <HAL_RCC_ClockConfig+0x3c>
  {
    /* Program the new number of wait states to the LATENCY bits in the FLASH_ACR register */
    __HAL_FLASH_SET_LATENCY(FLatency);
 80016d6:	4b65      	ldr	r3, [pc, #404]	; (800186c <HAL_RCC_ClockConfig+0x1b8>)
 80016d8:	683a      	ldr	r2, [r7, #0]
 80016da:	b2d2      	uxtb	r2, r2
 80016dc:	701a      	strb	r2, [r3, #0]

    /* Check that the new number of wait states is taken into account to access the Flash
    memory by reading the FLASH_ACR register */
    if(__HAL_FLASH_GET_LATENCY() != FLatency)
 80016de:	4b63      	ldr	r3, [pc, #396]	; (800186c <HAL_RCC_ClockConfig+0x1b8>)
 80016e0:	681b      	ldr	r3, [r3, #0]
 80016e2:	f003 030f 	and.w	r3, r3, #15
 80016e6:	683a      	ldr	r2, [r7, #0]
 80016e8:	429a      	cmp	r2, r3
 80016ea:	d001      	beq.n	80016f0 <HAL_RCC_ClockConfig+0x3c>
    {
      return HAL_ERROR;
 80016ec:	2301      	movs	r3, #1
 80016ee:	e0b8      	b.n	8001862 <HAL_RCC_ClockConfig+0x1ae>
    }
  }

  /*-------------------------- HCLK Configuration --------------------------*/
  if(((RCC_ClkInitStruct->ClockType) & RCC_CLOCKTYPE_HCLK) == RCC_CLOCKTYPE_HCLK)
 80016f0:	687b      	ldr	r3, [r7, #4]
 80016f2:	681b      	ldr	r3, [r3, #0]
 80016f4:	f003 0302 	and.w	r3, r3, #2
 80016f8:	2b00      	cmp	r3, #0
 80016fa:	d020      	beq.n	800173e <HAL_RCC_ClockConfig+0x8a>
  {
    /* Set the highest APBx dividers in order to ensure that we do not go through
       a non-spec phase whatever we decrease or increase HCLK. */
    if(((RCC_ClkInitStruct->ClockType) & RCC_CLOCKTYPE_PCLK1) == RCC_CLOCKTYPE_PCLK1)
 80016fc:	687b      	ldr	r3, [r7, #4]
 80016fe:	681b      	ldr	r3, [r3, #0]
 8001700:	f003 0304 	and.w	r3, r3, #4
 8001704:	2b00      	cmp	r3, #0
 8001706:	d005      	beq.n	8001714 <HAL_RCC_ClockConfig+0x60>
    {
      MODIFY_REG(RCC->CFGR, RCC_CFGR_PPRE1, RCC_HCLK_DIV16);
 8001708:	4b59      	ldr	r3, [pc, #356]	; (8001870 <HAL_RCC_ClockConfig+0x1bc>)
 800170a:	689b      	ldr	r3, [r3, #8]
 800170c:	4a58      	ldr	r2, [pc, #352]	; (8001870 <HAL_RCC_ClockConfig+0x1bc>)
 800170e:	f443 53e0 	orr.w	r3, r3, #7168	; 0x1c00
 8001712:	6093      	str	r3, [r2, #8]
    }

    if(((RCC_ClkInitStruct->ClockType) & RCC_CLOCKTYPE_PCLK2) == RCC_CLOCKTYPE_PCLK2)
 8001714:	687b      	ldr	r3, [r7, #4]
 8001716:	681b      	ldr	r3, [r3, #0]
 8001718:	f003 0308 	and.w	r3, r3, #8
 800171c:	2b00      	cmp	r3, #0
 800171e:	d005      	beq.n	800172c <HAL_RCC_ClockConfig+0x78>
    {
      MODIFY_REG(RCC->CFGR, RCC_CFGR_PPRE2, (RCC_HCLK_DIV16 << 3));
 8001720:	4b53      	ldr	r3, [pc, #332]	; (8001870 <HAL_RCC_ClockConfig+0x1bc>)
 8001722:	689b      	ldr	r3, [r3, #8]
 8001724:	4a52      	ldr	r2, [pc, #328]	; (8001870 <HAL_RCC_ClockConfig+0x1bc>)
 8001726:	f443 4360 	orr.w	r3, r3, #57344	; 0xe000
 800172a:	6093      	str	r3, [r2, #8]
    }

    assert_param(IS_RCC_HCLK(RCC_ClkInitStruct->AHBCLKDivider));
    MODIFY_REG(RCC->CFGR, RCC_CFGR_HPRE, RCC_ClkInitStruct->AHBCLKDivider);
 800172c:	4b50      	ldr	r3, [pc, #320]	; (8001870 <HAL_RCC_ClockConfig+0x1bc>)
 800172e:	689b      	ldr	r3, [r3, #8]
 8001730:	f023 02f0 	bic.w	r2, r3, #240	; 0xf0
 8001734:	687b      	ldr	r3, [r7, #4]
 8001736:	689b      	ldr	r3, [r3, #8]
 8001738:	494d      	ldr	r1, [pc, #308]	; (8001870 <HAL_RCC_ClockConfig+0x1bc>)
 800173a:	4313      	orrs	r3, r2
 800173c:	608b      	str	r3, [r1, #8]
  }

  /*------------------------- SYSCLK Configuration ---------------------------*/
  if(((RCC_ClkInitStruct->ClockType) & RCC_CLOCKTYPE_SYSCLK) == RCC_CLOCKTYPE_SYSCLK)
 800173e:	687b      	ldr	r3, [r7, #4]
 8001740:	681b      	ldr	r3, [r3, #0]
 8001742:	f003 0301 	and.w	r3, r3, #1
 8001746:	2b00      	cmp	r3, #0
 8001748:	d044      	beq.n	80017d4 <HAL_RCC_ClockConfig+0x120>
  {
    assert_param(IS_RCC_SYSCLKSOURCE(RCC_ClkInitStruct->SYSCLKSource));

    /* HSE is selected as System Clock Source */
    if(RCC_ClkInitStruct->SYSCLKSource == RCC_SYSCLKSOURCE_HSE)
 800174a:	687b      	ldr	r3, [r7, #4]
 800174c:	685b      	ldr	r3, [r3, #4]
 800174e:	2b01      	cmp	r3, #1
 8001750:	d107      	bne.n	8001762 <HAL_RCC_ClockConfig+0xae>
    {
      /* Check the HSE ready flag */
      if(__HAL_RCC_GET_FLAG(RCC_FLAG_HSERDY) == RESET)
 8001752:	4b47      	ldr	r3, [pc, #284]	; (8001870 <HAL_RCC_ClockConfig+0x1bc>)
 8001754:	681b      	ldr	r3, [r3, #0]
 8001756:	f403 3300 	and.w	r3, r3, #131072	; 0x20000
 800175a:	2b00      	cmp	r3, #0
 800175c:	d119      	bne.n	8001792 <HAL_RCC_ClockConfig+0xde>
      {
        return HAL_ERROR;
 800175e:	2301      	movs	r3, #1
 8001760:	e07f      	b.n	8001862 <HAL_RCC_ClockConfig+0x1ae>
      }
    }
    /* PLL is selected as System Clock Source */
    else if((RCC_ClkInitStruct->SYSCLKSource == RCC_SYSCLKSOURCE_PLLCLK)   ||
 8001762:	687b      	ldr	r3, [r7, #4]
 8001764:	685b      	ldr	r3, [r3, #4]
 8001766:	2b02      	cmp	r3, #2
 8001768:	d003      	beq.n	8001772 <HAL_RCC_ClockConfig+0xbe>
            (RCC_ClkInitStruct->SYSCLKSource == RCC_SYSCLKSOURCE_PLLRCLK))
 800176a:	687b      	ldr	r3, [r7, #4]
 800176c:	685b      	ldr	r3, [r3, #4]
    else if((RCC_ClkInitStruct->SYSCLKSource == RCC_SYSCLKSOURCE_PLLCLK)   ||
 800176e:	2b03      	cmp	r3, #3
 8001770:	d107      	bne.n	8001782 <HAL_RCC_ClockConfig+0xce>
    {
      /* Check the PLL ready flag */
      if(__HAL_RCC_GET_FLAG(RCC_FLAG_PLLRDY) == RESET)
 8001772:	4b3f      	ldr	r3, [pc, #252]	; (8001870 <HAL_RCC_ClockConfig+0x1bc>)
 8001774:	681b      	ldr	r3, [r3, #0]
 8001776:	f003 7300 	and.w	r3, r3, #33554432	; 0x2000000
 800177a:	2b00      	cmp	r3, #0
 800177c:	d109      	bne.n	8001792 <HAL_RCC_ClockConfig+0xde>
      {
        return HAL_ERROR;
 800177e:	2301      	movs	r3, #1
 8001780:	e06f      	b.n	8001862 <HAL_RCC_ClockConfig+0x1ae>
    }
    /* HSI is selected as System Clock Source */
    else
    {
      /* Check the HSI ready flag */
      if(__HAL_RCC_GET_FLAG(RCC_FLAG_HSIRDY) == RESET)
 8001782:	4b3b      	ldr	r3, [pc, #236]	; (8001870 <HAL_RCC_ClockConfig+0x1bc>)
 8001784:	681b      	ldr	r3, [r3, #0]
 8001786:	f003 0302 	and.w	r3, r3, #2
 800178a:	2b00      	cmp	r3, #0
 800178c:	d101      	bne.n	8001792 <HAL_RCC_ClockConfig+0xde>
      {
        return HAL_ERROR;
 800178e:	2301      	movs	r3, #1
 8001790:	e067      	b.n	8001862 <HAL_RCC_ClockConfig+0x1ae>
      }
    }

    __HAL_RCC_SYSCLK_CONFIG(RCC_ClkInitStruct->SYSCLKSource);
 8001792:	4b37      	ldr	r3, [pc, #220]	; (8001870 <HAL_RCC_ClockConfig+0x1bc>)
 8001794:	689b      	ldr	r3, [r3, #8]
 8001796:	f023 0203 	bic.w	r2, r3, #3
 800179a:	687b      	ldr	r3, [r7, #4]
 800179c:	685b      	ldr	r3, [r3, #4]
 800179e:	4934      	ldr	r1, [pc, #208]	; (8001870 <HAL_RCC_ClockConfig+0x1bc>)
 80017a0:	4313      	orrs	r3, r2
 80017a2:	608b      	str	r3, [r1, #8]

    /* Get Start Tick */
    tickstart = HAL_GetTick();
 80017a4:	f7ff fa00 	bl	8000ba8 <HAL_GetTick>
 80017a8:	60f8      	str	r0, [r7, #12]

    while (__HAL_RCC_GET_SYSCLK_SOURCE() != (RCC_ClkInitStruct->SYSCLKSource << RCC_CFGR_SWS_Pos))
 80017aa:	e00a      	b.n	80017c2 <HAL_RCC_ClockConfig+0x10e>
    {
      if ((HAL_GetTick() - tickstart) > CLOCKSWITCH_TIMEOUT_VALUE)
 80017ac:	f7ff f9fc 	bl	8000ba8 <HAL_GetTick>
 80017b0:	4602      	mov	r2, r0
 80017b2:	68fb      	ldr	r3, [r7, #12]
 80017b4:	1ad3      	subs	r3, r2, r3
 80017b6:	f241 3288 	movw	r2, #5000	; 0x1388
 80017ba:	4293      	cmp	r3, r2
 80017bc:	d901      	bls.n	80017c2 <HAL_RCC_ClockConfig+0x10e>
      {
        return HAL_TIMEOUT;
 80017be:	2303      	movs	r3, #3
 80017c0:	e04f      	b.n	8001862 <HAL_RCC_ClockConfig+0x1ae>
    while (__HAL_RCC_GET_SYSCLK_SOURCE() != (RCC_ClkInitStruct->SYSCLKSource << RCC_CFGR_SWS_Pos))
 80017c2:	4b2b      	ldr	r3, [pc, #172]	; (8001870 <HAL_RCC_ClockConfig+0x1bc>)
 80017c4:	689b      	ldr	r3, [r3, #8]
 80017c6:	f003 020c 	and.w	r2, r3, #12
 80017ca:	687b      	ldr	r3, [r7, #4]
 80017cc:	685b      	ldr	r3, [r3, #4]
 80017ce:	009b      	lsls	r3, r3, #2
 80017d0:	429a      	cmp	r2, r3
 80017d2:	d1eb      	bne.n	80017ac <HAL_RCC_ClockConfig+0xf8>
      }
    }
  }

  /* Decreasing the number of wait states because of lower CPU frequency */
  if(FLatency < __HAL_FLASH_GET_LATENCY())
 80017d4:	4b25      	ldr	r3, [pc, #148]	; (800186c <HAL_RCC_ClockConfig+0x1b8>)
 80017d6:	681b      	ldr	r3, [r3, #0]
 80017d8:	f003 030f 	and.w	r3, r3, #15
 80017dc:	683a      	ldr	r2, [r7, #0]
 80017de:	429a      	cmp	r2, r3
 80017e0:	d20c      	bcs.n	80017fc <HAL_RCC_ClockConfig+0x148>
  {
     /* Program the new number of wait states to the LATENCY bits in the FLASH_ACR register */
    __HAL_FLASH_SET_LATENCY(FLatency);
 80017e2:	4b22      	ldr	r3, [pc, #136]	; (800186c <HAL_RCC_ClockConfig+0x1b8>)
 80017e4:	683a      	ldr	r2, [r7, #0]
 80017e6:	b2d2      	uxtb	r2, r2
 80017e8:	701a      	strb	r2, [r3, #0]

    /* Check that the new number of wait states is taken into account to access the Flash
    memory by reading the FLASH_ACR register */
    if(__HAL_FLASH_GET_LATENCY() != FLatency)
 80017ea:	4b20      	ldr	r3, [pc, #128]	; (800186c <HAL_RCC_ClockConfig+0x1b8>)
 80017ec:	681b      	ldr	r3, [r3, #0]
 80017ee:	f003 030f 	and.w	r3, r3, #15
 80017f2:	683a      	ldr	r2, [r7, #0]
 80017f4:	429a      	cmp	r2, r3
 80017f6:	d001      	beq.n	80017fc <HAL_RCC_ClockConfig+0x148>
    {
      return HAL_ERROR;
 80017f8:	2301      	movs	r3, #1
 80017fa:	e032      	b.n	8001862 <HAL_RCC_ClockConfig+0x1ae>
    }
  }

  /*-------------------------- PCLK1 Configuration ---------------------------*/
  if(((RCC_ClkInitStruct->ClockType) & RCC_CLOCKTYPE_PCLK1) == RCC_CLOCKTYPE_PCLK1)
 80017fc:	687b      	ldr	r3, [r7, #4]
 80017fe:	681b      	ldr	r3, [r3, #0]
 8001800:	f003 0304 	and.w	r3, r3, #4
 8001804:	2b00      	cmp	r3, #0
 8001806:	d008      	beq.n	800181a <HAL_RCC_ClockConfig+0x166>
  {
    assert_param(IS_RCC_PCLK(RCC_ClkInitStruct->APB1CLKDivider));
    MODIFY_REG(RCC->CFGR, RCC_CFGR_PPRE1, RCC_ClkInitStruct->APB1CLKDivider);
 8001808:	4b19      	ldr	r3, [pc, #100]	; (8001870 <HAL_RCC_ClockConfig+0x1bc>)
 800180a:	689b      	ldr	r3, [r3, #8]
 800180c:	f423 52e0 	bic.w	r2, r3, #7168	; 0x1c00
 8001810:	687b      	ldr	r3, [r7, #4]
 8001812:	68db      	ldr	r3, [r3, #12]
 8001814:	4916      	ldr	r1, [pc, #88]	; (8001870 <HAL_RCC_ClockConfig+0x1bc>)
 8001816:	4313      	orrs	r3, r2
 8001818:	608b      	str	r3, [r1, #8]
  }

  /*-------------------------- PCLK2 Configuration ---------------------------*/
  if(((RCC_ClkInitStruct->ClockType) & RCC_CLOCKTYPE_PCLK2) == RCC_CLOCKTYPE_PCLK2)
 800181a:	687b      	ldr	r3, [r7, #4]
 800181c:	681b      	ldr	r3, [r3, #0]
 800181e:	f003 0308 	and.w	r3, r3, #8
 8001822:	2b00      	cmp	r3, #0
 8001824:	d009      	beq.n	800183a <HAL_RCC_ClockConfig+0x186>
  {
    assert_param(IS_RCC_PCLK(RCC_ClkInitStruct->APB2CLKDivider));
    MODIFY_REG(RCC->CFGR, RCC_CFGR_PPRE2, ((RCC_ClkInitStruct->APB2CLKDivider) << 3U));
 8001826:	4b12      	ldr	r3, [pc, #72]	; (8001870 <HAL_RCC_ClockConfig+0x1bc>)
 8001828:	689b      	ldr	r3, [r3, #8]
 800182a:	f423 4260 	bic.w	r2, r3, #57344	; 0xe000
 800182e:	687b      	ldr	r3, [r7, #4]
 8001830:	691b      	ldr	r3, [r3, #16]
 8001832:	00db      	lsls	r3, r3, #3
 8001834:	490e      	ldr	r1, [pc, #56]	; (8001870 <HAL_RCC_ClockConfig+0x1bc>)
 8001836:	4313      	orrs	r3, r2
 8001838:	608b      	str	r3, [r1, #8]
  }

  /* Update the SystemCoreClock global variable */
  SystemCoreClock = HAL_RCC_GetSysClockFreq() >> AHBPrescTable[(RCC->CFGR & RCC_CFGR_HPRE)>> RCC_CFGR_HPRE_Pos];
 800183a:	f000 f821 	bl	8001880 <HAL_RCC_GetSysClockFreq>
 800183e:	4601      	mov	r1, r0
 8001840:	4b0b      	ldr	r3, [pc, #44]	; (8001870 <HAL_RCC_ClockConfig+0x1bc>)
 8001842:	689b      	ldr	r3, [r3, #8]
 8001844:	091b      	lsrs	r3, r3, #4
 8001846:	f003 030f 	and.w	r3, r3, #15
 800184a:	4a0a      	ldr	r2, [pc, #40]	; (8001874 <HAL_RCC_ClockConfig+0x1c0>)
 800184c:	5cd3      	ldrb	r3, [r2, r3]
 800184e:	fa21 f303 	lsr.w	r3, r1, r3
 8001852:	4a09      	ldr	r2, [pc, #36]	; (8001878 <HAL_RCC_ClockConfig+0x1c4>)
 8001854:	6013      	str	r3, [r2, #0]

  /* Configure the source of time base considering new system clocks settings */
  HAL_InitTick (uwTickPrio);
 8001856:	4b09      	ldr	r3, [pc, #36]	; (800187c <HAL_RCC_ClockConfig+0x1c8>)
 8001858:	681b      	ldr	r3, [r3, #0]
 800185a:	4618      	mov	r0, r3
 800185c:	f7ff f960 	bl	8000b20 <HAL_InitTick>

  return HAL_OK;
 8001860:	2300      	movs	r3, #0
}
 8001862:	4618      	mov	r0, r3
 8001864:	3710      	adds	r7, #16
 8001866:	46bd      	mov	sp, r7
 8001868:	bd80      	pop	{r7, pc}
 800186a:	bf00      	nop
 800186c:	40023c00 	.word	0x40023c00
 8001870:	40023800 	.word	0x40023800
 8001874:	08002f60 	.word	0x08002f60
 8001878:	20000000 	.word	0x20000000
 800187c:	20000004 	.word	0x20000004

08001880 <HAL_RCC_GetSysClockFreq>:
  *
  *
  * @retval SYSCLK frequency
  */
__weak uint32_t HAL_RCC_GetSysClockFreq(void)
{
 8001880:	b5f0      	push	{r4, r5, r6, r7, lr}
 8001882:	b085      	sub	sp, #20
 8001884:	af00      	add	r7, sp, #0
  uint32_t pllm = 0U, pllvco = 0U, pllp = 0U;
 8001886:	2300      	movs	r3, #0
 8001888:	607b      	str	r3, [r7, #4]
 800188a:	2300      	movs	r3, #0
 800188c:	60fb      	str	r3, [r7, #12]
 800188e:	2300      	movs	r3, #0
 8001890:	603b      	str	r3, [r7, #0]
  uint32_t sysclockfreq = 0U;
 8001892:	2300      	movs	r3, #0
 8001894:	60bb      	str	r3, [r7, #8]

  /* Get SYSCLK source -------------------------------------------------------*/
  switch (RCC->CFGR & RCC_CFGR_SWS)
 8001896:	4b63      	ldr	r3, [pc, #396]	; (8001a24 <HAL_RCC_GetSysClockFreq+0x1a4>)
 8001898:	689b      	ldr	r3, [r3, #8]
 800189a:	f003 030c 	and.w	r3, r3, #12
 800189e:	2b04      	cmp	r3, #4
 80018a0:	d007      	beq.n	80018b2 <HAL_RCC_GetSysClockFreq+0x32>
 80018a2:	2b08      	cmp	r3, #8
 80018a4:	d008      	beq.n	80018b8 <HAL_RCC_GetSysClockFreq+0x38>
 80018a6:	2b00      	cmp	r3, #0
 80018a8:	f040 80b4 	bne.w	8001a14 <HAL_RCC_GetSysClockFreq+0x194>
  {
    case RCC_CFGR_SWS_HSI:  /* HSI used as system clock source */
    {
      sysclockfreq = HSI_VALUE;
 80018ac:	4b5e      	ldr	r3, [pc, #376]	; (8001a28 <HAL_RCC_GetSysClockFreq+0x1a8>)
 80018ae:	60bb      	str	r3, [r7, #8]
       break;
 80018b0:	e0b3      	b.n	8001a1a <HAL_RCC_GetSysClockFreq+0x19a>
    }
    case RCC_CFGR_SWS_HSE:  /* HSE used as system clock  source */
    {
      sysclockfreq = HSE_VALUE;
 80018b2:	4b5e      	ldr	r3, [pc, #376]	; (8001a2c <HAL_RCC_GetSysClockFreq+0x1ac>)
 80018b4:	60bb      	str	r3, [r7, #8]
      break;
 80018b6:	e0b0      	b.n	8001a1a <HAL_RCC_GetSysClockFreq+0x19a>
    }
    case RCC_CFGR_SWS_PLL:  /* PLL used as system clock  source */
    {
      /* PLL_VCO = (HSE_VALUE or HSI_VALUE / PLLM) * PLLN
      SYSCLK = PLL_VCO / PLLP */
      pllm = RCC->PLLCFGR & RCC_PLLCFGR_PLLM;
 80018b8:	4b5a      	ldr	r3, [pc, #360]	; (8001a24 <HAL_RCC_GetSysClockFreq+0x1a4>)
 80018ba:	685b      	ldr	r3, [r3, #4]
 80018bc:	f003 033f 	and.w	r3, r3, #63	; 0x3f
 80018c0:	607b      	str	r3, [r7, #4]
      if(__HAL_RCC_GET_PLL_OSCSOURCE() != RCC_PLLSOURCE_HSI)
 80018c2:	4b58      	ldr	r3, [pc, #352]	; (8001a24 <HAL_RCC_GetSysClockFreq+0x1a4>)
 80018c4:	685b      	ldr	r3, [r3, #4]
 80018c6:	f403 0380 	and.w	r3, r3, #4194304	; 0x400000
 80018ca:	2b00      	cmp	r3, #0
 80018cc:	d04a      	beq.n	8001964 <HAL_RCC_GetSysClockFreq+0xe4>
      {
        /* HSE used as PLL clock source */
        pllvco = (uint32_t) ((((uint64_t) HSE_VALUE * ((uint64_t) ((RCC->PLLCFGR & RCC_PLLCFGR_PLLN) >> RCC_PLLCFGR_PLLN_Pos)))) / (uint64_t)pllm);
 80018ce:	4b55      	ldr	r3, [pc, #340]	; (8001a24 <HAL_RCC_GetSysClockFreq+0x1a4>)
 80018d0:	685b      	ldr	r3, [r3, #4]
 80018d2:	099b      	lsrs	r3, r3, #6
 80018d4:	f04f 0400 	mov.w	r4, #0
 80018d8:	f240 11ff 	movw	r1, #511	; 0x1ff
 80018dc:	f04f 0200 	mov.w	r2, #0
 80018e0:	ea03 0501 	and.w	r5, r3, r1
 80018e4:	ea04 0602 	and.w	r6, r4, r2
 80018e8:	4629      	mov	r1, r5
 80018ea:	4632      	mov	r2, r6
 80018ec:	f04f 0300 	mov.w	r3, #0
 80018f0:	f04f 0400 	mov.w	r4, #0
 80018f4:	0154      	lsls	r4, r2, #5
 80018f6:	ea44 64d1 	orr.w	r4, r4, r1, lsr #27
 80018fa:	014b      	lsls	r3, r1, #5
 80018fc:	4619      	mov	r1, r3
 80018fe:	4622      	mov	r2, r4
 8001900:	1b49      	subs	r1, r1, r5
 8001902:	eb62 0206 	sbc.w	r2, r2, r6
 8001906:	f04f 0300 	mov.w	r3, #0
 800190a:	f04f 0400 	mov.w	r4, #0
 800190e:	0194      	lsls	r4, r2, #6
 8001910:	ea44 6491 	orr.w	r4, r4, r1, lsr #26
 8001914:	018b      	lsls	r3, r1, #6
 8001916:	1a5b      	subs	r3, r3, r1
 8001918:	eb64 0402 	sbc.w	r4, r4, r2
 800191c:	f04f 0100 	mov.w	r1, #0
 8001920:	f04f 0200 	mov.w	r2, #0
 8001924:	00e2      	lsls	r2, r4, #3
 8001926:	ea42 7253 	orr.w	r2, r2, r3, lsr #29
 800192a:	00d9      	lsls	r1, r3, #3
 800192c:	460b      	mov	r3, r1
 800192e:	4614      	mov	r4, r2
 8001930:	195b      	adds	r3, r3, r5
 8001932:	eb44 0406 	adc.w	r4, r4, r6
 8001936:	f04f 0100 	mov.w	r1, #0
 800193a:	f04f 0200 	mov.w	r2, #0
 800193e:	0262      	lsls	r2, r4, #9
 8001940:	ea42 52d3 	orr.w	r2, r2, r3, lsr #23
 8001944:	0259      	lsls	r1, r3, #9
 8001946:	460b      	mov	r3, r1
 8001948:	4614      	mov	r4, r2
 800194a:	4618      	mov	r0, r3
 800194c:	4621      	mov	r1, r4
 800194e:	687b      	ldr	r3, [r7, #4]
 8001950:	f04f 0400 	mov.w	r4, #0
 8001954:	461a      	mov	r2, r3
 8001956:	4623      	mov	r3, r4
 8001958:	f7fe fc36 	bl	80001c8 <__aeabi_uldivmod>
 800195c:	4603      	mov	r3, r0
 800195e:	460c      	mov	r4, r1
 8001960:	60fb      	str	r3, [r7, #12]
 8001962:	e049      	b.n	80019f8 <HAL_RCC_GetSysClockFreq+0x178>
      }
      else
      {
        /* HSI used as PLL clock source */
        pllvco = (uint32_t) ((((uint64_t) HSI_VALUE * ((uint64_t) ((RCC->PLLCFGR & RCC_PLLCFGR_PLLN) >> RCC_PLLCFGR_PLLN_Pos)))) / (uint64_t)pllm);
 8001964:	4b2f      	ldr	r3, [pc, #188]	; (8001a24 <HAL_RCC_GetSysClockFreq+0x1a4>)
 8001966:	685b      	ldr	r3, [r3, #4]
 8001968:	099b      	lsrs	r3, r3, #6
 800196a:	f04f 0400 	mov.w	r4, #0
 800196e:	f240 11ff 	movw	r1, #511	; 0x1ff
 8001972:	f04f 0200 	mov.w	r2, #0
 8001976:	ea03 0501 	and.w	r5, r3, r1
 800197a:	ea04 0602 	and.w	r6, r4, r2
 800197e:	4629      	mov	r1, r5
 8001980:	4632      	mov	r2, r6
 8001982:	f04f 0300 	mov.w	r3, #0
 8001986:	f04f 0400 	mov.w	r4, #0
 800198a:	0154      	lsls	r4, r2, #5
 800198c:	ea44 64d1 	orr.w	r4, r4, r1, lsr #27
 8001990:	014b      	lsls	r3, r1, #5
 8001992:	4619      	mov	r1, r3
 8001994:	4622      	mov	r2, r4
 8001996:	1b49      	subs	r1, r1, r5
 8001998:	eb62 0206 	sbc.w	r2, r2, r6
 800199c:	f04f 0300 	mov.w	r3, #0
 80019a0:	f04f 0400 	mov.w	r4, #0
 80019a4:	0194      	lsls	r4, r2, #6
 80019a6:	ea44 6491 	orr.w	r4, r4, r1, lsr #26
 80019aa:	018b      	lsls	r3, r1, #6
 80019ac:	1a5b      	subs	r3, r3, r1
 80019ae:	eb64 0402 	sbc.w	r4, r4, r2
 80019b2:	f04f 0100 	mov.w	r1, #0
 80019b6:	f04f 0200 	mov.w	r2, #0
 80019ba:	00e2      	lsls	r2, r4, #3
 80019bc:	ea42 7253 	orr.w	r2, r2, r3, lsr #29
 80019c0:	00d9      	lsls	r1, r3, #3
 80019c2:	460b      	mov	r3, r1
 80019c4:	4614      	mov	r4, r2
 80019c6:	195b      	adds	r3, r3, r5
 80019c8:	eb44 0406 	adc.w	r4, r4, r6
 80019cc:	f04f 0100 	mov.w	r1, #0
 80019d0:	f04f 0200 	mov.w	r2, #0
 80019d4:	02a2      	lsls	r2, r4, #10
 80019d6:	ea42 5293 	orr.w	r2, r2, r3, lsr #22
 80019da:	0299      	lsls	r1, r3, #10
 80019dc:	460b      	mov	r3, r1
 80019de:	4614      	mov	r4, r2
 80019e0:	4618      	mov	r0, r3
 80019e2:	4621      	mov	r1, r4
 80019e4:	687b      	ldr	r3, [r7, #4]
 80019e6:	f04f 0400 	mov.w	r4, #0
 80019ea:	461a      	mov	r2, r3
 80019ec:	4623      	mov	r3, r4
 80019ee:	f7fe fbeb 	bl	80001c8 <__aeabi_uldivmod>
 80019f2:	4603      	mov	r3, r0
 80019f4:	460c      	mov	r4, r1
 80019f6:	60fb      	str	r3, [r7, #12]
      }
      pllp = ((((RCC->PLLCFGR & RCC_PLLCFGR_PLLP) >> RCC_PLLCFGR_PLLP_Pos) + 1U) *2U);
 80019f8:	4b0a      	ldr	r3, [pc, #40]	; (8001a24 <HAL_RCC_GetSysClockFreq+0x1a4>)
 80019fa:	685b      	ldr	r3, [r3, #4]
 80019fc:	0c1b      	lsrs	r3, r3, #16
 80019fe:	f003 0303 	and.w	r3, r3, #3
 8001a02:	3301      	adds	r3, #1
 8001a04:	005b      	lsls	r3, r3, #1
 8001a06:	603b      	str	r3, [r7, #0]

      sysclockfreq = pllvco/pllp;
 8001a08:	68fa      	ldr	r2, [r7, #12]
 8001a0a:	683b      	ldr	r3, [r7, #0]
 8001a0c:	fbb2 f3f3 	udiv	r3, r2, r3
 8001a10:	60bb      	str	r3, [r7, #8]
      break;
 8001a12:	e002      	b.n	8001a1a <HAL_RCC_GetSysClockFreq+0x19a>
    }
    default:
    {
      sysclockfreq = HSI_VALUE;
 8001a14:	4b04      	ldr	r3, [pc, #16]	; (8001a28 <HAL_RCC_GetSysClockFreq+0x1a8>)
 8001a16:	60bb      	str	r3, [r7, #8]
      break;
 8001a18:	bf00      	nop
    }
  }
  return sysclockfreq;
 8001a1a:	68bb      	ldr	r3, [r7, #8]
}
 8001a1c:	4618      	mov	r0, r3
 8001a1e:	3714      	adds	r7, #20
 8001a20:	46bd      	mov	sp, r7
 8001a22:	bdf0      	pop	{r4, r5, r6, r7, pc}
 8001a24:	40023800 	.word	0x40023800
 8001a28:	00f42400 	.word	0x00f42400
 8001a2c:	007a1200 	.word	0x007a1200

08001a30 <HAL_RCC_GetHCLKFreq>:
  * @note   The SystemCoreClock CMSIS variable is used to store System Clock Frequency
  *         and updated within this function
  * @retval HCLK frequency
  */
uint32_t HAL_RCC_GetHCLKFreq(void)
{
 8001a30:	b480      	push	{r7}
 8001a32:	af00      	add	r7, sp, #0
  return SystemCoreClock;
 8001a34:	4b03      	ldr	r3, [pc, #12]	; (8001a44 <HAL_RCC_GetHCLKFreq+0x14>)
 8001a36:	681b      	ldr	r3, [r3, #0]
}
 8001a38:	4618      	mov	r0, r3
 8001a3a:	46bd      	mov	sp, r7
 8001a3c:	f85d 7b04 	ldr.w	r7, [sp], #4
 8001a40:	4770      	bx	lr
 8001a42:	bf00      	nop
 8001a44:	20000000 	.word	0x20000000

08001a48 <HAL_RCC_GetPCLK1Freq>:
  * @note   Each time PCLK1 changes, this function must be called to update the
  *         right PCLK1 value. Otherwise, any configuration based on this function will be incorrect.
  * @retval PCLK1 frequency
  */
uint32_t HAL_RCC_GetPCLK1Freq(void)
{
 8001a48:	b580      	push	{r7, lr}
 8001a4a:	af00      	add	r7, sp, #0
  /* Get HCLK source and Compute PCLK1 frequency ---------------------------*/
  return (HAL_RCC_GetHCLKFreq() >> APBPrescTable[(RCC->CFGR & RCC_CFGR_PPRE1)>> RCC_CFGR_PPRE1_Pos]);
 8001a4c:	f7ff fff0 	bl	8001a30 <HAL_RCC_GetHCLKFreq>
 8001a50:	4601      	mov	r1, r0
 8001a52:	4b05      	ldr	r3, [pc, #20]	; (8001a68 <HAL_RCC_GetPCLK1Freq+0x20>)
 8001a54:	689b      	ldr	r3, [r3, #8]
 8001a56:	0a9b      	lsrs	r3, r3, #10
 8001a58:	f003 0307 	and.w	r3, r3, #7
 8001a5c:	4a03      	ldr	r2, [pc, #12]	; (8001a6c <HAL_RCC_GetPCLK1Freq+0x24>)
 8001a5e:	5cd3      	ldrb	r3, [r2, r3]
 8001a60:	fa21 f303 	lsr.w	r3, r1, r3
}
 8001a64:	4618      	mov	r0, r3
 8001a66:	bd80      	pop	{r7, pc}
 8001a68:	40023800 	.word	0x40023800
 8001a6c:	08002f70 	.word	0x08002f70

08001a70 <HAL_RCC_GetPCLK2Freq>:
  * @note   Each time PCLK2 changes, this function must be called to update the
  *         right PCLK2 value. Otherwise, any configuration based on this function will be incorrect.
  * @retval PCLK2 frequency
  */
uint32_t HAL_RCC_GetPCLK2Freq(void)
{
 8001a70:	b580      	push	{r7, lr}
 8001a72:	af00      	add	r7, sp, #0
  /* Get HCLK source and Compute PCLK2 frequency ---------------------------*/
  return (HAL_RCC_GetHCLKFreq()>> APBPrescTable[(RCC->CFGR & RCC_CFGR_PPRE2)>> RCC_CFGR_PPRE2_Pos]);
 8001a74:	f7ff ffdc 	bl	8001a30 <HAL_RCC_GetHCLKFreq>
 8001a78:	4601      	mov	r1, r0
 8001a7a:	4b05      	ldr	r3, [pc, #20]	; (8001a90 <HAL_RCC_GetPCLK2Freq+0x20>)
 8001a7c:	689b      	ldr	r3, [r3, #8]
 8001a7e:	0b5b      	lsrs	r3, r3, #13
 8001a80:	f003 0307 	and.w	r3, r3, #7
 8001a84:	4a03      	ldr	r2, [pc, #12]	; (8001a94 <HAL_RCC_GetPCLK2Freq+0x24>)
 8001a86:	5cd3      	ldrb	r3, [r2, r3]
 8001a88:	fa21 f303 	lsr.w	r3, r1, r3
}
 8001a8c:	4618      	mov	r0, r3
 8001a8e:	bd80      	pop	{r7, pc}
 8001a90:	40023800 	.word	0x40023800
 8001a94:	08002f70 	.word	0x08002f70

08001a98 <HAL_TIM_PWM_Init>:
  *         Ex: call @ref HAL_TIM_PWM_DeInit() before HAL_TIM_PWM_Init()
  * @param  htim TIM PWM handle
  * @retval HAL status
  */
HAL_StatusTypeDef HAL_TIM_PWM_Init(TIM_HandleTypeDef *htim)
{
 8001a98:	b580      	push	{r7, lr}
 8001a9a:	b082      	sub	sp, #8
 8001a9c:	af00      	add	r7, sp, #0
 8001a9e:	6078      	str	r0, [r7, #4]
  /* Check the TIM handle allocation */
  if (htim == NULL)
 8001aa0:	687b      	ldr	r3, [r7, #4]
 8001aa2:	2b00      	cmp	r3, #0
 8001aa4:	d101      	bne.n	8001aaa <HAL_TIM_PWM_Init+0x12>
  {
    return HAL_ERROR;
 8001aa6:	2301      	movs	r3, #1
 8001aa8:	e01d      	b.n	8001ae6 <HAL_TIM_PWM_Init+0x4e>
  assert_param(IS_TIM_INSTANCE(htim->Instance));
  assert_param(IS_TIM_COUNTER_MODE(htim->Init.CounterMode));
  assert_param(IS_TIM_CLOCKDIVISION_DIV(htim->Init.ClockDivision));
  assert_param(IS_TIM_AUTORELOAD_PRELOAD(htim->Init.AutoReloadPreload));

  if (htim->State == HAL_TIM_STATE_RESET)
 8001aaa:	687b      	ldr	r3, [r7, #4]
 8001aac:	f893 303d 	ldrb.w	r3, [r3, #61]	; 0x3d
 8001ab0:	b2db      	uxtb	r3, r3
 8001ab2:	2b00      	cmp	r3, #0
 8001ab4:	d106      	bne.n	8001ac4 <HAL_TIM_PWM_Init+0x2c>
  {
    /* Allocate lock resource and initialize it */
    htim->Lock = HAL_UNLOCKED;
 8001ab6:	687b      	ldr	r3, [r7, #4]
 8001ab8:	2200      	movs	r2, #0
 8001aba:	f883 203c 	strb.w	r2, [r3, #60]	; 0x3c
    }
    /* Init the low level hardware : GPIO, CLOCK, NVIC */
    htim->PWM_MspInitCallback(htim);
#else
    /* Init the low level hardware : GPIO, CLOCK, NVIC and DMA */
    HAL_TIM_PWM_MspInit(htim);
 8001abe:	6878      	ldr	r0, [r7, #4]
 8001ac0:	f7fe fee4 	bl	800088c <HAL_TIM_PWM_MspInit>
#endif /* USE_HAL_TIM_REGISTER_CALLBACKS */
  }

  /* Set the TIM state */
  htim->State = HAL_TIM_STATE_BUSY;
 8001ac4:	687b      	ldr	r3, [r7, #4]
 8001ac6:	2202      	movs	r2, #2
 8001ac8:	f883 203d 	strb.w	r2, [r3, #61]	; 0x3d

  /* Init the base time for the PWM */
  TIM_Base_SetConfig(htim->Instance, &htim->Init);
 8001acc:	687b      	ldr	r3, [r7, #4]
 8001ace:	681a      	ldr	r2, [r3, #0]
 8001ad0:	687b      	ldr	r3, [r7, #4]
 8001ad2:	3304      	adds	r3, #4
 8001ad4:	4619      	mov	r1, r3
 8001ad6:	4610      	mov	r0, r2
 8001ad8:	f000 f90e 	bl	8001cf8 <TIM_Base_SetConfig>

  /* Initialize the TIM state*/
  htim->State = HAL_TIM_STATE_READY;
 8001adc:	687b      	ldr	r3, [r7, #4]
 8001ade:	2201      	movs	r2, #1
 8001ae0:	f883 203d 	strb.w	r2, [r3, #61]	; 0x3d

  return HAL_OK;
 8001ae4:	2300      	movs	r3, #0
}
 8001ae6:	4618      	mov	r0, r3
 8001ae8:	3708      	adds	r7, #8
 8001aea:	46bd      	mov	sp, r7
 8001aec:	bd80      	pop	{r7, pc}
	...

08001af0 <HAL_TIM_PWM_Start>:
  *            @arg TIM_CHANNEL_3: TIM Channel 3 selected
  *            @arg TIM_CHANNEL_4: TIM Channel 4 selected
  * @retval HAL status
  */
HAL_StatusTypeDef HAL_TIM_PWM_Start(TIM_HandleTypeDef *htim, uint32_t Channel)
{
 8001af0:	b580      	push	{r7, lr}
 8001af2:	b084      	sub	sp, #16
 8001af4:	af00      	add	r7, sp, #0
 8001af6:	6078      	str	r0, [r7, #4]
 8001af8:	6039      	str	r1, [r7, #0]

  /* Check the parameters */
  assert_param(IS_TIM_CCX_INSTANCE(htim->Instance, Channel));

  /* Enable the Capture compare channel */
  TIM_CCxChannelCmd(htim->Instance, Channel, TIM_CCx_ENABLE);
 8001afa:	687b      	ldr	r3, [r7, #4]
 8001afc:	681b      	ldr	r3, [r3, #0]
 8001afe:	2201      	movs	r2, #1
 8001b00:	6839      	ldr	r1, [r7, #0]
 8001b02:	4618      	mov	r0, r3
 8001b04:	f000 fb48 	bl	8002198 <TIM_CCxChannelCmd>

  if (IS_TIM_BREAK_INSTANCE(htim->Instance) != RESET)
 8001b08:	687b      	ldr	r3, [r7, #4]
 8001b0a:	681b      	ldr	r3, [r3, #0]
 8001b0c:	4a15      	ldr	r2, [pc, #84]	; (8001b64 <HAL_TIM_PWM_Start+0x74>)
 8001b0e:	4293      	cmp	r3, r2
 8001b10:	d004      	beq.n	8001b1c <HAL_TIM_PWM_Start+0x2c>
 8001b12:	687b      	ldr	r3, [r7, #4]
 8001b14:	681b      	ldr	r3, [r3, #0]
 8001b16:	4a14      	ldr	r2, [pc, #80]	; (8001b68 <HAL_TIM_PWM_Start+0x78>)
 8001b18:	4293      	cmp	r3, r2
 8001b1a:	d101      	bne.n	8001b20 <HAL_TIM_PWM_Start+0x30>
 8001b1c:	2301      	movs	r3, #1
 8001b1e:	e000      	b.n	8001b22 <HAL_TIM_PWM_Start+0x32>
 8001b20:	2300      	movs	r3, #0
 8001b22:	2b00      	cmp	r3, #0
 8001b24:	d007      	beq.n	8001b36 <HAL_TIM_PWM_Start+0x46>
  {
    /* Enable the main output */
    __HAL_TIM_MOE_ENABLE(htim);
 8001b26:	687b      	ldr	r3, [r7, #4]
 8001b28:	681b      	ldr	r3, [r3, #0]
 8001b2a:	6c5a      	ldr	r2, [r3, #68]	; 0x44
 8001b2c:	687b      	ldr	r3, [r7, #4]
 8001b2e:	681b      	ldr	r3, [r3, #0]
 8001b30:	f442 4200 	orr.w	r2, r2, #32768	; 0x8000
 8001b34:	645a      	str	r2, [r3, #68]	; 0x44
  }

  /* Enable the Peripheral, except in trigger mode where enable is automatically done with trigger */
  tmpsmcr = htim->Instance->SMCR & TIM_SMCR_SMS;
 8001b36:	687b      	ldr	r3, [r7, #4]
 8001b38:	681b      	ldr	r3, [r3, #0]
 8001b3a:	689b      	ldr	r3, [r3, #8]
 8001b3c:	f003 0307 	and.w	r3, r3, #7
 8001b40:	60fb      	str	r3, [r7, #12]
  if (!IS_TIM_SLAVEMODE_TRIGGER_ENABLED(tmpsmcr))
 8001b42:	68fb      	ldr	r3, [r7, #12]
 8001b44:	2b06      	cmp	r3, #6
 8001b46:	d007      	beq.n	8001b58 <HAL_TIM_PWM_Start+0x68>
  {
    __HAL_TIM_ENABLE(htim);
 8001b48:	687b      	ldr	r3, [r7, #4]
 8001b4a:	681b      	ldr	r3, [r3, #0]
 8001b4c:	681a      	ldr	r2, [r3, #0]
 8001b4e:	687b      	ldr	r3, [r7, #4]
 8001b50:	681b      	ldr	r3, [r3, #0]
 8001b52:	f042 0201 	orr.w	r2, r2, #1
 8001b56:	601a      	str	r2, [r3, #0]
  }

  /* Return function status */
  return HAL_OK;
 8001b58:	2300      	movs	r3, #0
}
 8001b5a:	4618      	mov	r0, r3
 8001b5c:	3710      	adds	r7, #16
 8001b5e:	46bd      	mov	sp, r7
 8001b60:	bd80      	pop	{r7, pc}
 8001b62:	bf00      	nop
 8001b64:	40010000 	.word	0x40010000
 8001b68:	40010400 	.word	0x40010400

08001b6c <HAL_TIM_PWM_ConfigChannel>:
  * @retval HAL status
  */
HAL_StatusTypeDef HAL_TIM_PWM_ConfigChannel(TIM_HandleTypeDef *htim,
                                            TIM_OC_InitTypeDef *sConfig,
                                            uint32_t Channel)
{
 8001b6c:	b580      	push	{r7, lr}
 8001b6e:	b084      	sub	sp, #16
 8001b70:	af00      	add	r7, sp, #0
 8001b72:	60f8      	str	r0, [r7, #12]
 8001b74:	60b9      	str	r1, [r7, #8]
 8001b76:	607a      	str	r2, [r7, #4]
  assert_param(IS_TIM_PWM_MODE(sConfig->OCMode));
  assert_param(IS_TIM_OC_POLARITY(sConfig->OCPolarity));
  assert_param(IS_TIM_FAST_STATE(sConfig->OCFastMode));

  /* Process Locked */
  __HAL_LOCK(htim);
 8001b78:	68fb      	ldr	r3, [r7, #12]
 8001b7a:	f893 303c 	ldrb.w	r3, [r3, #60]	; 0x3c
 8001b7e:	2b01      	cmp	r3, #1
 8001b80:	d101      	bne.n	8001b86 <HAL_TIM_PWM_ConfigChannel+0x1a>
 8001b82:	2302      	movs	r3, #2
 8001b84:	e0b4      	b.n	8001cf0 <HAL_TIM_PWM_ConfigChannel+0x184>
 8001b86:	68fb      	ldr	r3, [r7, #12]
 8001b88:	2201      	movs	r2, #1
 8001b8a:	f883 203c 	strb.w	r2, [r3, #60]	; 0x3c

  htim->State = HAL_TIM_STATE_BUSY;
 8001b8e:	68fb      	ldr	r3, [r7, #12]
 8001b90:	2202      	movs	r2, #2
 8001b92:	f883 203d 	strb.w	r2, [r3, #61]	; 0x3d

  switch (Channel)
 8001b96:	687b      	ldr	r3, [r7, #4]
 8001b98:	2b0c      	cmp	r3, #12
 8001b9a:	f200 809f 	bhi.w	8001cdc <HAL_TIM_PWM_ConfigChannel+0x170>
 8001b9e:	a201      	add	r2, pc, #4	; (adr r2, 8001ba4 <HAL_TIM_PWM_ConfigChannel+0x38>)
 8001ba0:	f852 f023 	ldr.w	pc, [r2, r3, lsl #2]
 8001ba4:	08001bd9 	.word	0x08001bd9
 8001ba8:	08001cdd 	.word	0x08001cdd
 8001bac:	08001cdd 	.word	0x08001cdd
 8001bb0:	08001cdd 	.word	0x08001cdd
 8001bb4:	08001c19 	.word	0x08001c19
 8001bb8:	08001cdd 	.word	0x08001cdd
 8001bbc:	08001cdd 	.word	0x08001cdd
 8001bc0:	08001cdd 	.word	0x08001cdd
 8001bc4:	08001c5b 	.word	0x08001c5b
 8001bc8:	08001cdd 	.word	0x08001cdd
 8001bcc:	08001cdd 	.word	0x08001cdd
 8001bd0:	08001cdd 	.word	0x08001cdd
 8001bd4:	08001c9b 	.word	0x08001c9b
    {
      /* Check the parameters */
      assert_param(IS_TIM_CC1_INSTANCE(htim->Instance));

      /* Configure the Channel 1 in PWM mode */
      TIM_OC1_SetConfig(htim->Instance, sConfig);
 8001bd8:	68fb      	ldr	r3, [r7, #12]
 8001bda:	681b      	ldr	r3, [r3, #0]
 8001bdc:	68b9      	ldr	r1, [r7, #8]
 8001bde:	4618      	mov	r0, r3
 8001be0:	f000 f92a 	bl	8001e38 <TIM_OC1_SetConfig>

      /* Set the Preload enable bit for channel1 */
      htim->Instance->CCMR1 |= TIM_CCMR1_OC1PE;
 8001be4:	68fb      	ldr	r3, [r7, #12]
 8001be6:	681b      	ldr	r3, [r3, #0]
 8001be8:	699a      	ldr	r2, [r3, #24]
 8001bea:	68fb      	ldr	r3, [r7, #12]
 8001bec:	681b      	ldr	r3, [r3, #0]
 8001bee:	f042 0208 	orr.w	r2, r2, #8
 8001bf2:	619a      	str	r2, [r3, #24]

      /* Configure the Output Fast mode */
      htim->Instance->CCMR1 &= ~TIM_CCMR1_OC1FE;
 8001bf4:	68fb      	ldr	r3, [r7, #12]
 8001bf6:	681b      	ldr	r3, [r3, #0]
 8001bf8:	699a      	ldr	r2, [r3, #24]
 8001bfa:	68fb      	ldr	r3, [r7, #12]
 8001bfc:	681b      	ldr	r3, [r3, #0]
 8001bfe:	f022 0204 	bic.w	r2, r2, #4
 8001c02:	619a      	str	r2, [r3, #24]
      htim->Instance->CCMR1 |= sConfig->OCFastMode;
 8001c04:	68fb      	ldr	r3, [r7, #12]
 8001c06:	681b      	ldr	r3, [r3, #0]
 8001c08:	6999      	ldr	r1, [r3, #24]
 8001c0a:	68bb      	ldr	r3, [r7, #8]
 8001c0c:	691a      	ldr	r2, [r3, #16]
 8001c0e:	68fb      	ldr	r3, [r7, #12]
 8001c10:	681b      	ldr	r3, [r3, #0]
 8001c12:	430a      	orrs	r2, r1
 8001c14:	619a      	str	r2, [r3, #24]
      break;
 8001c16:	e062      	b.n	8001cde <HAL_TIM_PWM_ConfigChannel+0x172>
    {
      /* Check the parameters */
      assert_param(IS_TIM_CC2_INSTANCE(htim->Instance));

      /* Configure the Channel 2 in PWM mode */
      TIM_OC2_SetConfig(htim->Instance, sConfig);
 8001c18:	68fb      	ldr	r3, [r7, #12]
 8001c1a:	681b      	ldr	r3, [r3, #0]
 8001c1c:	68b9      	ldr	r1, [r7, #8]
 8001c1e:	4618      	mov	r0, r3
 8001c20:	f000 f97a 	bl	8001f18 <TIM_OC2_SetConfig>

      /* Set the Preload enable bit for channel2 */
      htim->Instance->CCMR1 |= TIM_CCMR1_OC2PE;
 8001c24:	68fb      	ldr	r3, [r7, #12]
 8001c26:	681b      	ldr	r3, [r3, #0]
 8001c28:	699a      	ldr	r2, [r3, #24]
 8001c2a:	68fb      	ldr	r3, [r7, #12]
 8001c2c:	681b      	ldr	r3, [r3, #0]
 8001c2e:	f442 6200 	orr.w	r2, r2, #2048	; 0x800
 8001c32:	619a      	str	r2, [r3, #24]

      /* Configure the Output Fast mode */
      htim->Instance->CCMR1 &= ~TIM_CCMR1_OC2FE;
 8001c34:	68fb      	ldr	r3, [r7, #12]
 8001c36:	681b      	ldr	r3, [r3, #0]
 8001c38:	699a      	ldr	r2, [r3, #24]
 8001c3a:	68fb      	ldr	r3, [r7, #12]
 8001c3c:	681b      	ldr	r3, [r3, #0]
 8001c3e:	f422 6280 	bic.w	r2, r2, #1024	; 0x400
 8001c42:	619a      	str	r2, [r3, #24]
      htim->Instance->CCMR1 |= sConfig->OCFastMode << 8U;
 8001c44:	68fb      	ldr	r3, [r7, #12]
 8001c46:	681b      	ldr	r3, [r3, #0]
 8001c48:	6999      	ldr	r1, [r3, #24]
 8001c4a:	68bb      	ldr	r3, [r7, #8]
 8001c4c:	691b      	ldr	r3, [r3, #16]
 8001c4e:	021a      	lsls	r2, r3, #8
 8001c50:	68fb      	ldr	r3, [r7, #12]
 8001c52:	681b      	ldr	r3, [r3, #0]
 8001c54:	430a      	orrs	r2, r1
 8001c56:	619a      	str	r2, [r3, #24]
      break;
 8001c58:	e041      	b.n	8001cde <HAL_TIM_PWM_ConfigChannel+0x172>
    {
      /* Check the parameters */
      assert_param(IS_TIM_CC3_INSTANCE(htim->Instance));

      /* Configure the Channel 3 in PWM mode */
      TIM_OC3_SetConfig(htim->Instance, sConfig);
 8001c5a:	68fb      	ldr	r3, [r7, #12]
 8001c5c:	681b      	ldr	r3, [r3, #0]
 8001c5e:	68b9      	ldr	r1, [r7, #8]
 8001c60:	4618      	mov	r0, r3
 8001c62:	f000 f9cf 	bl	8002004 <TIM_OC3_SetConfig>

      /* Set the Preload enable bit for channel3 */
      htim->Instance->CCMR2 |= TIM_CCMR2_OC3PE;
 8001c66:	68fb      	ldr	r3, [r7, #12]
 8001c68:	681b      	ldr	r3, [r3, #0]
 8001c6a:	69da      	ldr	r2, [r3, #28]
 8001c6c:	68fb      	ldr	r3, [r7, #12]
 8001c6e:	681b      	ldr	r3, [r3, #0]
 8001c70:	f042 0208 	orr.w	r2, r2, #8
 8001c74:	61da      	str	r2, [r3, #28]

      /* Configure the Output Fast mode */
      htim->Instance->CCMR2 &= ~TIM_CCMR2_OC3FE;
 8001c76:	68fb      	ldr	r3, [r7, #12]
 8001c78:	681b      	ldr	r3, [r3, #0]
 8001c7a:	69da      	ldr	r2, [r3, #28]
 8001c7c:	68fb      	ldr	r3, [r7, #12]
 8001c7e:	681b      	ldr	r3, [r3, #0]
 8001c80:	f022 0204 	bic.w	r2, r2, #4
 8001c84:	61da      	str	r2, [r3, #28]
      htim->Instance->CCMR2 |= sConfig->OCFastMode;
 8001c86:	68fb      	ldr	r3, [r7, #12]
 8001c88:	681b      	ldr	r3, [r3, #0]
 8001c8a:	69d9      	ldr	r1, [r3, #28]
 8001c8c:	68bb      	ldr	r3, [r7, #8]
 8001c8e:	691a      	ldr	r2, [r3, #16]
 8001c90:	68fb      	ldr	r3, [r7, #12]
 8001c92:	681b      	ldr	r3, [r3, #0]
 8001c94:	430a      	orrs	r2, r1
 8001c96:	61da      	str	r2, [r3, #28]
      break;
 8001c98:	e021      	b.n	8001cde <HAL_TIM_PWM_ConfigChannel+0x172>
    {
      /* Check the parameters */
      assert_param(IS_TIM_CC4_INSTANCE(htim->Instance));

      /* Configure the Channel 4 in PWM mode */
      TIM_OC4_SetConfig(htim->Instance, sConfig);
 8001c9a:	68fb      	ldr	r3, [r7, #12]
 8001c9c:	681b      	ldr	r3, [r3, #0]
 8001c9e:	68b9      	ldr	r1, [r7, #8]
 8001ca0:	4618      	mov	r0, r3
 8001ca2:	f000 fa23 	bl	80020ec <TIM_OC4_SetConfig>

      /* Set the Preload enable bit for channel4 */
      htim->Instance->CCMR2 |= TIM_CCMR2_OC4PE;
 8001ca6:	68fb      	ldr	r3, [r7, #12]
 8001ca8:	681b      	ldr	r3, [r3, #0]
 8001caa:	69da      	ldr	r2, [r3, #28]
 8001cac:	68fb      	ldr	r3, [r7, #12]
 8001cae:	681b      	ldr	r3, [r3, #0]
 8001cb0:	f442 6200 	orr.w	r2, r2, #2048	; 0x800
 8001cb4:	61da      	str	r2, [r3, #28]

      /* Configure the Output Fast mode */
      htim->Instance->CCMR2 &= ~TIM_CCMR2_OC4FE;
 8001cb6:	68fb      	ldr	r3, [r7, #12]
 8001cb8:	681b      	ldr	r3, [r3, #0]
 8001cba:	69da      	ldr	r2, [r3, #28]
 8001cbc:	68fb      	ldr	r3, [r7, #12]
 8001cbe:	681b      	ldr	r3, [r3, #0]
 8001cc0:	f422 6280 	bic.w	r2, r2, #1024	; 0x400
 8001cc4:	61da      	str	r2, [r3, #28]
      htim->Instance->CCMR2 |= sConfig->OCFastMode << 8U;
 8001cc6:	68fb      	ldr	r3, [r7, #12]
 8001cc8:	681b      	ldr	r3, [r3, #0]
 8001cca:	69d9      	ldr	r1, [r3, #28]
 8001ccc:	68bb      	ldr	r3, [r7, #8]
 8001cce:	691b      	ldr	r3, [r3, #16]
 8001cd0:	021a      	lsls	r2, r3, #8
 8001cd2:	68fb      	ldr	r3, [r7, #12]
 8001cd4:	681b      	ldr	r3, [r3, #0]
 8001cd6:	430a      	orrs	r2, r1
 8001cd8:	61da      	str	r2, [r3, #28]
      break;
 8001cda:	e000      	b.n	8001cde <HAL_TIM_PWM_ConfigChannel+0x172>
    }

    default:
      break;
 8001cdc:	bf00      	nop
  }

  htim->State = HAL_TIM_STATE_READY;
 8001cde:	68fb      	ldr	r3, [r7, #12]
 8001ce0:	2201      	movs	r2, #1
 8001ce2:	f883 203d 	strb.w	r2, [r3, #61]	; 0x3d

  __HAL_UNLOCK(htim);
 8001ce6:	68fb      	ldr	r3, [r7, #12]
 8001ce8:	2200      	movs	r2, #0
 8001cea:	f883 203c 	strb.w	r2, [r3, #60]	; 0x3c

  return HAL_OK;
 8001cee:	2300      	movs	r3, #0
}
 8001cf0:	4618      	mov	r0, r3
 8001cf2:	3710      	adds	r7, #16
 8001cf4:	46bd      	mov	sp, r7
 8001cf6:	bd80      	pop	{r7, pc}

08001cf8 <TIM_Base_SetConfig>:
  * @param  TIMx TIM peripheral
  * @param  Structure TIM Base configuration structure
  * @retval None
  */
void TIM_Base_SetConfig(TIM_TypeDef *TIMx, TIM_Base_InitTypeDef *Structure)
{
 8001cf8:	b480      	push	{r7}
 8001cfa:	b085      	sub	sp, #20
 8001cfc:	af00      	add	r7, sp, #0
 8001cfe:	6078      	str	r0, [r7, #4]
 8001d00:	6039      	str	r1, [r7, #0]
  uint32_t tmpcr1;
  tmpcr1 = TIMx->CR1;
 8001d02:	687b      	ldr	r3, [r7, #4]
 8001d04:	681b      	ldr	r3, [r3, #0]
 8001d06:	60fb      	str	r3, [r7, #12]

  /* Set TIM Time Base Unit parameters ---------------------------------------*/
  if (IS_TIM_COUNTER_MODE_SELECT_INSTANCE(TIMx))
 8001d08:	687b      	ldr	r3, [r7, #4]
 8001d0a:	4a40      	ldr	r2, [pc, #256]	; (8001e0c <TIM_Base_SetConfig+0x114>)
 8001d0c:	4293      	cmp	r3, r2
 8001d0e:	d013      	beq.n	8001d38 <TIM_Base_SetConfig+0x40>
 8001d10:	687b      	ldr	r3, [r7, #4]
 8001d12:	f1b3 4f80 	cmp.w	r3, #1073741824	; 0x40000000
 8001d16:	d00f      	beq.n	8001d38 <TIM_Base_SetConfig+0x40>
 8001d18:	687b      	ldr	r3, [r7, #4]
 8001d1a:	4a3d      	ldr	r2, [pc, #244]	; (8001e10 <TIM_Base_SetConfig+0x118>)
 8001d1c:	4293      	cmp	r3, r2
 8001d1e:	d00b      	beq.n	8001d38 <TIM_Base_SetConfig+0x40>
 8001d20:	687b      	ldr	r3, [r7, #4]
 8001d22:	4a3c      	ldr	r2, [pc, #240]	; (8001e14 <TIM_Base_SetConfig+0x11c>)
 8001d24:	4293      	cmp	r3, r2
 8001d26:	d007      	beq.n	8001d38 <TIM_Base_SetConfig+0x40>
 8001d28:	687b      	ldr	r3, [r7, #4]
 8001d2a:	4a3b      	ldr	r2, [pc, #236]	; (8001e18 <TIM_Base_SetConfig+0x120>)
 8001d2c:	4293      	cmp	r3, r2
 8001d2e:	d003      	beq.n	8001d38 <TIM_Base_SetConfig+0x40>
 8001d30:	687b      	ldr	r3, [r7, #4]
 8001d32:	4a3a      	ldr	r2, [pc, #232]	; (8001e1c <TIM_Base_SetConfig+0x124>)
 8001d34:	4293      	cmp	r3, r2
 8001d36:	d108      	bne.n	8001d4a <TIM_Base_SetConfig+0x52>
  {
    /* Select the Counter Mode */
    tmpcr1 &= ~(TIM_CR1_DIR | TIM_CR1_CMS);
 8001d38:	68fb      	ldr	r3, [r7, #12]
 8001d3a:	f023 0370 	bic.w	r3, r3, #112	; 0x70
 8001d3e:	60fb      	str	r3, [r7, #12]
    tmpcr1 |= Structure->CounterMode;
 8001d40:	683b      	ldr	r3, [r7, #0]
 8001d42:	685b      	ldr	r3, [r3, #4]
 8001d44:	68fa      	ldr	r2, [r7, #12]
 8001d46:	4313      	orrs	r3, r2
 8001d48:	60fb      	str	r3, [r7, #12]
  }

  if (IS_TIM_CLOCK_DIVISION_INSTANCE(TIMx))
 8001d4a:	687b      	ldr	r3, [r7, #4]
 8001d4c:	4a2f      	ldr	r2, [pc, #188]	; (8001e0c <TIM_Base_SetConfig+0x114>)
 8001d4e:	4293      	cmp	r3, r2
 8001d50:	d02b      	beq.n	8001daa <TIM_Base_SetConfig+0xb2>
 8001d52:	687b      	ldr	r3, [r7, #4]
 8001d54:	f1b3 4f80 	cmp.w	r3, #1073741824	; 0x40000000
 8001d58:	d027      	beq.n	8001daa <TIM_Base_SetConfig+0xb2>
 8001d5a:	687b      	ldr	r3, [r7, #4]
 8001d5c:	4a2c      	ldr	r2, [pc, #176]	; (8001e10 <TIM_Base_SetConfig+0x118>)
 8001d5e:	4293      	cmp	r3, r2
 8001d60:	d023      	beq.n	8001daa <TIM_Base_SetConfig+0xb2>
 8001d62:	687b      	ldr	r3, [r7, #4]
 8001d64:	4a2b      	ldr	r2, [pc, #172]	; (8001e14 <TIM_Base_SetConfig+0x11c>)
 8001d66:	4293      	cmp	r3, r2
 8001d68:	d01f      	beq.n	8001daa <TIM_Base_SetConfig+0xb2>
 8001d6a:	687b      	ldr	r3, [r7, #4]
 8001d6c:	4a2a      	ldr	r2, [pc, #168]	; (8001e18 <TIM_Base_SetConfig+0x120>)
 8001d6e:	4293      	cmp	r3, r2
 8001d70:	d01b      	beq.n	8001daa <TIM_Base_SetConfig+0xb2>
 8001d72:	687b      	ldr	r3, [r7, #4]
 8001d74:	4a29      	ldr	r2, [pc, #164]	; (8001e1c <TIM_Base_SetConfig+0x124>)
 8001d76:	4293      	cmp	r3, r2
 8001d78:	d017      	beq.n	8001daa <TIM_Base_SetConfig+0xb2>
 8001d7a:	687b      	ldr	r3, [r7, #4]
 8001d7c:	4a28      	ldr	r2, [pc, #160]	; (8001e20 <TIM_Base_SetConfig+0x128>)
 8001d7e:	4293      	cmp	r3, r2
 8001d80:	d013      	beq.n	8001daa <TIM_Base_SetConfig+0xb2>
 8001d82:	687b      	ldr	r3, [r7, #4]
 8001d84:	4a27      	ldr	r2, [pc, #156]	; (8001e24 <TIM_Base_SetConfig+0x12c>)
 8001d86:	4293      	cmp	r3, r2
 8001d88:	d00f      	beq.n	8001daa <TIM_Base_SetConfig+0xb2>
 8001d8a:	687b      	ldr	r3, [r7, #4]
 8001d8c:	4a26      	ldr	r2, [pc, #152]	; (8001e28 <TIM_Base_SetConfig+0x130>)
 8001d8e:	4293      	cmp	r3, r2
 8001d90:	d00b      	beq.n	8001daa <TIM_Base_SetConfig+0xb2>
 8001d92:	687b      	ldr	r3, [r7, #4]
 8001d94:	4a25      	ldr	r2, [pc, #148]	; (8001e2c <TIM_Base_SetConfig+0x134>)
 8001d96:	4293      	cmp	r3, r2
 8001d98:	d007      	beq.n	8001daa <TIM_Base_SetConfig+0xb2>
 8001d9a:	687b      	ldr	r3, [r7, #4]
 8001d9c:	4a24      	ldr	r2, [pc, #144]	; (8001e30 <TIM_Base_SetConfig+0x138>)
 8001d9e:	4293      	cmp	r3, r2
 8001da0:	d003      	beq.n	8001daa <TIM_Base_SetConfig+0xb2>
 8001da2:	687b      	ldr	r3, [r7, #4]
 8001da4:	4a23      	ldr	r2, [pc, #140]	; (8001e34 <TIM_Base_SetConfig+0x13c>)
 8001da6:	4293      	cmp	r3, r2
 8001da8:	d108      	bne.n	8001dbc <TIM_Base_SetConfig+0xc4>
  {
    /* Set the clock division */
    tmpcr1 &= ~TIM_CR1_CKD;
 8001daa:	68fb      	ldr	r3, [r7, #12]
 8001dac:	f423 7340 	bic.w	r3, r3, #768	; 0x300
 8001db0:	60fb      	str	r3, [r7, #12]
    tmpcr1 |= (uint32_t)Structure->ClockDivision;
 8001db2:	683b      	ldr	r3, [r7, #0]
 8001db4:	68db      	ldr	r3, [r3, #12]
 8001db6:	68fa      	ldr	r2, [r7, #12]
 8001db8:	4313      	orrs	r3, r2
 8001dba:	60fb      	str	r3, [r7, #12]
  }

  /* Set the auto-reload preload */
  MODIFY_REG(tmpcr1, TIM_CR1_ARPE, Structure->AutoReloadPreload);
 8001dbc:	68fb      	ldr	r3, [r7, #12]
 8001dbe:	f023 0280 	bic.w	r2, r3, #128	; 0x80
 8001dc2:	683b      	ldr	r3, [r7, #0]
 8001dc4:	695b      	ldr	r3, [r3, #20]
 8001dc6:	4313      	orrs	r3, r2
 8001dc8:	60fb      	str	r3, [r7, #12]

  TIMx->CR1 = tmpcr1;
 8001dca:	687b      	ldr	r3, [r7, #4]
 8001dcc:	68fa      	ldr	r2, [r7, #12]
 8001dce:	601a      	str	r2, [r3, #0]

  /* Set the Autoreload value */
  TIMx->ARR = (uint32_t)Structure->Period ;
 8001dd0:	683b      	ldr	r3, [r7, #0]
 8001dd2:	689a      	ldr	r2, [r3, #8]
 8001dd4:	687b      	ldr	r3, [r7, #4]
 8001dd6:	62da      	str	r2, [r3, #44]	; 0x2c

  /* Set the Prescaler value */
  TIMx->PSC = Structure->Prescaler;
 8001dd8:	683b      	ldr	r3, [r7, #0]
 8001dda:	681a      	ldr	r2, [r3, #0]
 8001ddc:	687b      	ldr	r3, [r7, #4]
 8001dde:	629a      	str	r2, [r3, #40]	; 0x28

  if (IS_TIM_REPETITION_COUNTER_INSTANCE(TIMx))
 8001de0:	687b      	ldr	r3, [r7, #4]
 8001de2:	4a0a      	ldr	r2, [pc, #40]	; (8001e0c <TIM_Base_SetConfig+0x114>)
 8001de4:	4293      	cmp	r3, r2
 8001de6:	d003      	beq.n	8001df0 <TIM_Base_SetConfig+0xf8>
 8001de8:	687b      	ldr	r3, [r7, #4]
 8001dea:	4a0c      	ldr	r2, [pc, #48]	; (8001e1c <TIM_Base_SetConfig+0x124>)
 8001dec:	4293      	cmp	r3, r2
 8001dee:	d103      	bne.n	8001df8 <TIM_Base_SetConfig+0x100>
  {
    /* Set the Repetition Counter value */
    TIMx->RCR = Structure->RepetitionCounter;
 8001df0:	683b      	ldr	r3, [r7, #0]
 8001df2:	691a      	ldr	r2, [r3, #16]
 8001df4:	687b      	ldr	r3, [r7, #4]
 8001df6:	631a      	str	r2, [r3, #48]	; 0x30
  }

  /* Generate an update event to reload the Prescaler
     and the repetition counter (only for advanced timer) value immediately */
  TIMx->EGR = TIM_EGR_UG;
 8001df8:	687b      	ldr	r3, [r7, #4]
 8001dfa:	2201      	movs	r2, #1
 8001dfc:	615a      	str	r2, [r3, #20]
}
 8001dfe:	bf00      	nop
 8001e00:	3714      	adds	r7, #20
 8001e02:	46bd      	mov	sp, r7
 8001e04:	f85d 7b04 	ldr.w	r7, [sp], #4
 8001e08:	4770      	bx	lr
 8001e0a:	bf00      	nop
 8001e0c:	40010000 	.word	0x40010000
 8001e10:	40000400 	.word	0x40000400
 8001e14:	40000800 	.word	0x40000800
 8001e18:	40000c00 	.word	0x40000c00
 8001e1c:	40010400 	.word	0x40010400
 8001e20:	40014000 	.word	0x40014000
 8001e24:	40014400 	.word	0x40014400
 8001e28:	40014800 	.word	0x40014800
 8001e2c:	40001800 	.word	0x40001800
 8001e30:	40001c00 	.word	0x40001c00
 8001e34:	40002000 	.word	0x40002000

08001e38 <TIM_OC1_SetConfig>:
  * @param  TIMx to select the TIM peripheral
  * @param  OC_Config The ouput configuration structure
  * @retval None
  */
static void TIM_OC1_SetConfig(TIM_TypeDef *TIMx, TIM_OC_InitTypeDef *OC_Config)
{
 8001e38:	b480      	push	{r7}
 8001e3a:	b087      	sub	sp, #28
 8001e3c:	af00      	add	r7, sp, #0
 8001e3e:	6078      	str	r0, [r7, #4]
 8001e40:	6039      	str	r1, [r7, #0]
  uint32_t tmpccmrx;
  uint32_t tmpccer;
  uint32_t tmpcr2;

  /* Disable the Channel 1: Reset the CC1E Bit */
  TIMx->CCER &= ~TIM_CCER_CC1E;
 8001e42:	687b      	ldr	r3, [r7, #4]
 8001e44:	6a1b      	ldr	r3, [r3, #32]
 8001e46:	f023 0201 	bic.w	r2, r3, #1
 8001e4a:	687b      	ldr	r3, [r7, #4]
 8001e4c:	621a      	str	r2, [r3, #32]

  /* Get the TIMx CCER register value */
  tmpccer = TIMx->CCER;
 8001e4e:	687b      	ldr	r3, [r7, #4]
 8001e50:	6a1b      	ldr	r3, [r3, #32]
 8001e52:	617b      	str	r3, [r7, #20]
  /* Get the TIMx CR2 register value */
  tmpcr2 =  TIMx->CR2;
 8001e54:	687b      	ldr	r3, [r7, #4]
 8001e56:	685b      	ldr	r3, [r3, #4]
 8001e58:	613b      	str	r3, [r7, #16]

  /* Get the TIMx CCMR1 register value */
  tmpccmrx = TIMx->CCMR1;
 8001e5a:	687b      	ldr	r3, [r7, #4]
 8001e5c:	699b      	ldr	r3, [r3, #24]
 8001e5e:	60fb      	str	r3, [r7, #12]

  /* Reset the Output Compare Mode Bits */
  tmpccmrx &= ~TIM_CCMR1_OC1M;
 8001e60:	68fb      	ldr	r3, [r7, #12]
 8001e62:	f023 0370 	bic.w	r3, r3, #112	; 0x70
 8001e66:	60fb      	str	r3, [r7, #12]
  tmpccmrx &= ~TIM_CCMR1_CC1S;
 8001e68:	68fb      	ldr	r3, [r7, #12]
 8001e6a:	f023 0303 	bic.w	r3, r3, #3
 8001e6e:	60fb      	str	r3, [r7, #12]
  /* Select the Output Compare Mode */
  tmpccmrx |= OC_Config->OCMode;
 8001e70:	683b      	ldr	r3, [r7, #0]
 8001e72:	681b      	ldr	r3, [r3, #0]
 8001e74:	68fa      	ldr	r2, [r7, #12]
 8001e76:	4313      	orrs	r3, r2
 8001e78:	60fb      	str	r3, [r7, #12]

  /* Reset the Output Polarity level */
  tmpccer &= ~TIM_CCER_CC1P;
 8001e7a:	697b      	ldr	r3, [r7, #20]
 8001e7c:	f023 0302 	bic.w	r3, r3, #2
 8001e80:	617b      	str	r3, [r7, #20]
  /* Set the Output Compare Polarity */
  tmpccer |= OC_Config->OCPolarity;
 8001e82:	683b      	ldr	r3, [r7, #0]
 8001e84:	689b      	ldr	r3, [r3, #8]
 8001e86:	697a      	ldr	r2, [r7, #20]
 8001e88:	4313      	orrs	r3, r2
 8001e8a:	617b      	str	r3, [r7, #20]

  if (IS_TIM_CCXN_INSTANCE(TIMx, TIM_CHANNEL_1))
 8001e8c:	687b      	ldr	r3, [r7, #4]
 8001e8e:	4a20      	ldr	r2, [pc, #128]	; (8001f10 <TIM_OC1_SetConfig+0xd8>)
 8001e90:	4293      	cmp	r3, r2
 8001e92:	d003      	beq.n	8001e9c <TIM_OC1_SetConfig+0x64>
 8001e94:	687b      	ldr	r3, [r7, #4]
 8001e96:	4a1f      	ldr	r2, [pc, #124]	; (8001f14 <TIM_OC1_SetConfig+0xdc>)
 8001e98:	4293      	cmp	r3, r2
 8001e9a:	d10c      	bne.n	8001eb6 <TIM_OC1_SetConfig+0x7e>
  {
    /* Check parameters */
    assert_param(IS_TIM_OCN_POLARITY(OC_Config->OCNPolarity));

    /* Reset the Output N Polarity level */
    tmpccer &= ~TIM_CCER_CC1NP;
 8001e9c:	697b      	ldr	r3, [r7, #20]
 8001e9e:	f023 0308 	bic.w	r3, r3, #8
 8001ea2:	617b      	str	r3, [r7, #20]
    /* Set the Output N Polarity */
    tmpccer |= OC_Config->OCNPolarity;
 8001ea4:	683b      	ldr	r3, [r7, #0]
 8001ea6:	68db      	ldr	r3, [r3, #12]
 8001ea8:	697a      	ldr	r2, [r7, #20]
 8001eaa:	4313      	orrs	r3, r2
 8001eac:	617b      	str	r3, [r7, #20]
    /* Reset the Output N State */
    tmpccer &= ~TIM_CCER_CC1NE;
 8001eae:	697b      	ldr	r3, [r7, #20]
 8001eb0:	f023 0304 	bic.w	r3, r3, #4
 8001eb4:	617b      	str	r3, [r7, #20]
  }

  if (IS_TIM_BREAK_INSTANCE(TIMx))
 8001eb6:	687b      	ldr	r3, [r7, #4]
 8001eb8:	4a15      	ldr	r2, [pc, #84]	; (8001f10 <TIM_OC1_SetConfig+0xd8>)
 8001eba:	4293      	cmp	r3, r2
 8001ebc:	d003      	beq.n	8001ec6 <TIM_OC1_SetConfig+0x8e>
 8001ebe:	687b      	ldr	r3, [r7, #4]
 8001ec0:	4a14      	ldr	r2, [pc, #80]	; (8001f14 <TIM_OC1_SetConfig+0xdc>)
 8001ec2:	4293      	cmp	r3, r2
 8001ec4:	d111      	bne.n	8001eea <TIM_OC1_SetConfig+0xb2>
    /* Check parameters */
    assert_param(IS_TIM_OCNIDLE_STATE(OC_Config->OCNIdleState));
    assert_param(IS_TIM_OCIDLE_STATE(OC_Config->OCIdleState));

    /* Reset the Output Compare and Output Compare N IDLE State */
    tmpcr2 &= ~TIM_CR2_OIS1;
 8001ec6:	693b      	ldr	r3, [r7, #16]
 8001ec8:	f423 7380 	bic.w	r3, r3, #256	; 0x100
 8001ecc:	613b      	str	r3, [r7, #16]
    tmpcr2 &= ~TIM_CR2_OIS1N;
 8001ece:	693b      	ldr	r3, [r7, #16]
 8001ed0:	f423 7300 	bic.w	r3, r3, #512	; 0x200
 8001ed4:	613b      	str	r3, [r7, #16]
    /* Set the Output Idle state */
    tmpcr2 |= OC_Config->OCIdleState;
 8001ed6:	683b      	ldr	r3, [r7, #0]
 8001ed8:	695b      	ldr	r3, [r3, #20]
 8001eda:	693a      	ldr	r2, [r7, #16]
 8001edc:	4313      	orrs	r3, r2
 8001ede:	613b      	str	r3, [r7, #16]
    /* Set the Output N Idle state */
    tmpcr2 |= OC_Config->OCNIdleState;
 8001ee0:	683b      	ldr	r3, [r7, #0]
 8001ee2:	699b      	ldr	r3, [r3, #24]
 8001ee4:	693a      	ldr	r2, [r7, #16]
 8001ee6:	4313      	orrs	r3, r2
 8001ee8:	613b      	str	r3, [r7, #16]
  }

  /* Write to TIMx CR2 */
  TIMx->CR2 = tmpcr2;
 8001eea:	687b      	ldr	r3, [r7, #4]
 8001eec:	693a      	ldr	r2, [r7, #16]
 8001eee:	605a      	str	r2, [r3, #4]

  /* Write to TIMx CCMR1 */
  TIMx->CCMR1 = tmpccmrx;
 8001ef0:	687b      	ldr	r3, [r7, #4]
 8001ef2:	68fa      	ldr	r2, [r7, #12]
 8001ef4:	619a      	str	r2, [r3, #24]

  /* Set the Capture Compare Register value */
  TIMx->CCR1 = OC_Config->Pulse;
 8001ef6:	683b      	ldr	r3, [r7, #0]
 8001ef8:	685a      	ldr	r2, [r3, #4]
 8001efa:	687b      	ldr	r3, [r7, #4]
 8001efc:	635a      	str	r2, [r3, #52]	; 0x34

  /* Write to TIMx CCER */
  TIMx->CCER = tmpccer;
 8001efe:	687b      	ldr	r3, [r7, #4]
 8001f00:	697a      	ldr	r2, [r7, #20]
 8001f02:	621a      	str	r2, [r3, #32]
}
 8001f04:	bf00      	nop
 8001f06:	371c      	adds	r7, #28
 8001f08:	46bd      	mov	sp, r7
 8001f0a:	f85d 7b04 	ldr.w	r7, [sp], #4
 8001f0e:	4770      	bx	lr
 8001f10:	40010000 	.word	0x40010000
 8001f14:	40010400 	.word	0x40010400

08001f18 <TIM_OC2_SetConfig>:
  * @param  TIMx to select the TIM peripheral
  * @param  OC_Config The ouput configuration structure
  * @retval None
  */
void TIM_OC2_SetConfig(TIM_TypeDef *TIMx, TIM_OC_InitTypeDef *OC_Config)
{
 8001f18:	b480      	push	{r7}
 8001f1a:	b087      	sub	sp, #28
 8001f1c:	af00      	add	r7, sp, #0
 8001f1e:	6078      	str	r0, [r7, #4]
 8001f20:	6039      	str	r1, [r7, #0]
  uint32_t tmpccmrx;
  uint32_t tmpccer;
  uint32_t tmpcr2;

  /* Disable the Channel 2: Reset the CC2E Bit */
  TIMx->CCER &= ~TIM_CCER_CC2E;
 8001f22:	687b      	ldr	r3, [r7, #4]
 8001f24:	6a1b      	ldr	r3, [r3, #32]
 8001f26:	f023 0210 	bic.w	r2, r3, #16
 8001f2a:	687b      	ldr	r3, [r7, #4]
 8001f2c:	621a      	str	r2, [r3, #32]

  /* Get the TIMx CCER register value */
  tmpccer = TIMx->CCER;
 8001f2e:	687b      	ldr	r3, [r7, #4]
 8001f30:	6a1b      	ldr	r3, [r3, #32]
 8001f32:	617b      	str	r3, [r7, #20]
  /* Get the TIMx CR2 register value */
  tmpcr2 =  TIMx->CR2;
 8001f34:	687b      	ldr	r3, [r7, #4]
 8001f36:	685b      	ldr	r3, [r3, #4]
 8001f38:	613b      	str	r3, [r7, #16]

  /* Get the TIMx CCMR1 register value */
  tmpccmrx = TIMx->CCMR1;
 8001f3a:	687b      	ldr	r3, [r7, #4]
 8001f3c:	699b      	ldr	r3, [r3, #24]
 8001f3e:	60fb      	str	r3, [r7, #12]

  /* Reset the Output Compare mode and Capture/Compare selection Bits */
  tmpccmrx &= ~TIM_CCMR1_OC2M;
 8001f40:	68fb      	ldr	r3, [r7, #12]
 8001f42:	f423 43e0 	bic.w	r3, r3, #28672	; 0x7000
 8001f46:	60fb      	str	r3, [r7, #12]
  tmpccmrx &= ~TIM_CCMR1_CC2S;
 8001f48:	68fb      	ldr	r3, [r7, #12]
 8001f4a:	f423 7340 	bic.w	r3, r3, #768	; 0x300
 8001f4e:	60fb      	str	r3, [r7, #12]

  /* Select the Output Compare Mode */
  tmpccmrx |= (OC_Config->OCMode << 8U);
 8001f50:	683b      	ldr	r3, [r7, #0]
 8001f52:	681b      	ldr	r3, [r3, #0]
 8001f54:	021b      	lsls	r3, r3, #8
 8001f56:	68fa      	ldr	r2, [r7, #12]
 8001f58:	4313      	orrs	r3, r2
 8001f5a:	60fb      	str	r3, [r7, #12]

  /* Reset the Output Polarity level */
  tmpccer &= ~TIM_CCER_CC2P;
 8001f5c:	697b      	ldr	r3, [r7, #20]
 8001f5e:	f023 0320 	bic.w	r3, r3, #32
 8001f62:	617b      	str	r3, [r7, #20]
  /* Set the Output Compare Polarity */
  tmpccer |= (OC_Config->OCPolarity << 4U);
 8001f64:	683b      	ldr	r3, [r7, #0]
 8001f66:	689b      	ldr	r3, [r3, #8]
 8001f68:	011b      	lsls	r3, r3, #4
 8001f6a:	697a      	ldr	r2, [r7, #20]
 8001f6c:	4313      	orrs	r3, r2
 8001f6e:	617b      	str	r3, [r7, #20]

  if (IS_TIM_CCXN_INSTANCE(TIMx, TIM_CHANNEL_2))
 8001f70:	687b      	ldr	r3, [r7, #4]
 8001f72:	4a22      	ldr	r2, [pc, #136]	; (8001ffc <TIM_OC2_SetConfig+0xe4>)
 8001f74:	4293      	cmp	r3, r2
 8001f76:	d003      	beq.n	8001f80 <TIM_OC2_SetConfig+0x68>
 8001f78:	687b      	ldr	r3, [r7, #4]
 8001f7a:	4a21      	ldr	r2, [pc, #132]	; (8002000 <TIM_OC2_SetConfig+0xe8>)
 8001f7c:	4293      	cmp	r3, r2
 8001f7e:	d10d      	bne.n	8001f9c <TIM_OC2_SetConfig+0x84>
  {
    assert_param(IS_TIM_OCN_POLARITY(OC_Config->OCNPolarity));

    /* Reset the Output N Polarity level */
    tmpccer &= ~TIM_CCER_CC2NP;
 8001f80:	697b      	ldr	r3, [r7, #20]
 8001f82:	f023 0380 	bic.w	r3, r3, #128	; 0x80
 8001f86:	617b      	str	r3, [r7, #20]
    /* Set the Output N Polarity */
    tmpccer |= (OC_Config->OCNPolarity << 4U);
 8001f88:	683b      	ldr	r3, [r7, #0]
 8001f8a:	68db      	ldr	r3, [r3, #12]
 8001f8c:	011b      	lsls	r3, r3, #4
 8001f8e:	697a      	ldr	r2, [r7, #20]
 8001f90:	4313      	orrs	r3, r2
 8001f92:	617b      	str	r3, [r7, #20]
    /* Reset the Output N State */
    tmpccer &= ~TIM_CCER_CC2NE;
 8001f94:	697b      	ldr	r3, [r7, #20]
 8001f96:	f023 0340 	bic.w	r3, r3, #64	; 0x40
 8001f9a:	617b      	str	r3, [r7, #20]

  }

  if (IS_TIM_BREAK_INSTANCE(TIMx))
 8001f9c:	687b      	ldr	r3, [r7, #4]
 8001f9e:	4a17      	ldr	r2, [pc, #92]	; (8001ffc <TIM_OC2_SetConfig+0xe4>)
 8001fa0:	4293      	cmp	r3, r2
 8001fa2:	d003      	beq.n	8001fac <TIM_OC2_SetConfig+0x94>
 8001fa4:	687b      	ldr	r3, [r7, #4]
 8001fa6:	4a16      	ldr	r2, [pc, #88]	; (8002000 <TIM_OC2_SetConfig+0xe8>)
 8001fa8:	4293      	cmp	r3, r2
 8001faa:	d113      	bne.n	8001fd4 <TIM_OC2_SetConfig+0xbc>
    /* Check parameters */
    assert_param(IS_TIM_OCNIDLE_STATE(OC_Config->OCNIdleState));
    assert_param(IS_TIM_OCIDLE_STATE(OC_Config->OCIdleState));

    /* Reset the Output Compare and Output Compare N IDLE State */
    tmpcr2 &= ~TIM_CR2_OIS2;
 8001fac:	693b      	ldr	r3, [r7, #16]
 8001fae:	f423 6380 	bic.w	r3, r3, #1024	; 0x400
 8001fb2:	613b      	str	r3, [r7, #16]
    tmpcr2 &= ~TIM_CR2_OIS2N;
 8001fb4:	693b      	ldr	r3, [r7, #16]
 8001fb6:	f423 6300 	bic.w	r3, r3, #2048	; 0x800
 8001fba:	613b      	str	r3, [r7, #16]
    /* Set the Output Idle state */
    tmpcr2 |= (OC_Config->OCIdleState << 2U);
 8001fbc:	683b      	ldr	r3, [r7, #0]
 8001fbe:	695b      	ldr	r3, [r3, #20]
 8001fc0:	009b      	lsls	r3, r3, #2
 8001fc2:	693a      	ldr	r2, [r7, #16]
 8001fc4:	4313      	orrs	r3, r2
 8001fc6:	613b      	str	r3, [r7, #16]
    /* Set the Output N Idle state */
    tmpcr2 |= (OC_Config->OCNIdleState << 2U);
 8001fc8:	683b      	ldr	r3, [r7, #0]
 8001fca:	699b      	ldr	r3, [r3, #24]
 8001fcc:	009b      	lsls	r3, r3, #2
 8001fce:	693a      	ldr	r2, [r7, #16]
 8001fd0:	4313      	orrs	r3, r2
 8001fd2:	613b      	str	r3, [r7, #16]
  }

  /* Write to TIMx CR2 */
  TIMx->CR2 = tmpcr2;
 8001fd4:	687b      	ldr	r3, [r7, #4]
 8001fd6:	693a      	ldr	r2, [r7, #16]
 8001fd8:	605a      	str	r2, [r3, #4]

  /* Write to TIMx CCMR1 */
  TIMx->CCMR1 = tmpccmrx;
 8001fda:	687b      	ldr	r3, [r7, #4]
 8001fdc:	68fa      	ldr	r2, [r7, #12]
 8001fde:	619a      	str	r2, [r3, #24]

  /* Set the Capture Compare Register value */
  TIMx->CCR2 = OC_Config->Pulse;
 8001fe0:	683b      	ldr	r3, [r7, #0]
 8001fe2:	685a      	ldr	r2, [r3, #4]
 8001fe4:	687b      	ldr	r3, [r7, #4]
 8001fe6:	639a      	str	r2, [r3, #56]	; 0x38

  /* Write to TIMx CCER */
  TIMx->CCER = tmpccer;
 8001fe8:	687b      	ldr	r3, [r7, #4]
 8001fea:	697a      	ldr	r2, [r7, #20]
 8001fec:	621a      	str	r2, [r3, #32]
}
 8001fee:	bf00      	nop
 8001ff0:	371c      	adds	r7, #28
 8001ff2:	46bd      	mov	sp, r7
 8001ff4:	f85d 7b04 	ldr.w	r7, [sp], #4
 8001ff8:	4770      	bx	lr
 8001ffa:	bf00      	nop
 8001ffc:	40010000 	.word	0x40010000
