
005_PLL_SYSCLK.elf:     file format elf32-littlearm

Sections:
Idx Name          Size      VMA       LMA       File off  Algn
  0 .isr_vector   00000188  08000000  08000000  00010000  2**0
                  CONTENTS, ALLOC, LOAD, READONLY, DATA
  1 .text         000028dc  08000190  08000190  00010190  2**4
                  CONTENTS, ALLOC, LOAD, READONLY, CODE
  2 .rodata       0000008c  08002a6c  08002a6c  00012a6c  2**2
                  CONTENTS, ALLOC, LOAD, READONLY, DATA
  3 .ARM.extab    00000000  08002af8  08002af8  00020070  2**0
                  CONTENTS
  4 .ARM          00000008  08002af8  08002af8  00012af8  2**2
                  CONTENTS, ALLOC, LOAD, READONLY, DATA
  5 .preinit_array 00000000  08002b00  08002b00  00020070  2**0
                  CONTENTS, ALLOC, LOAD, DATA
  6 .init_array   00000004  08002b00  08002b00  00012b00  2**2
                  CONTENTS, ALLOC, LOAD, DATA
  7 .fini_array   00000004  08002b04  08002b04  00012b04  2**2
                  CONTENTS, ALLOC, LOAD, DATA
  8 .data         00000070  20000000  08002b08  00020000  2**2
                  CONTENTS, ALLOC, LOAD, DATA
  9 .bss          00000070  20000070  08002b78  00020070  2**2
                  ALLOC
 10 ._user_heap_stack 00000600  200000e0  08002b78  000200e0  2**0
                  ALLOC
 11 .ARM.attributes 00000030  00000000  00000000  00020070  2**0
                  CONTENTS, READONLY
 12 .debug_info   000066f0  00000000  00000000  000200a0  2**0
                  CONTENTS, READONLY, DEBUGGING
 13 .debug_abbrev 00001256  00000000  00000000  00026790  2**0
                  CONTENTS, READONLY, DEBUGGING
 14 .debug_aranges 000005a0  00000000  00000000  000279e8  2**3
                  CONTENTS, READONLY, DEBUGGING
 15 .debug_ranges 000004f8  00000000  00000000  00027f88  2**3
                  CONTENTS, READONLY, DEBUGGING
 16 .debug_macro  00020e75  00000000  00000000  00028480  2**0
                  CONTENTS, READONLY, DEBUGGING
 17 .debug_line   00005baf  00000000  00000000  000492f5  2**0
                  CONTENTS, READONLY, DEBUGGING
 18 .debug_str    000c6deb  00000000  00000000  0004eea4  2**0
                  CONTENTS, READONLY, DEBUGGING
 19 .comment      0000007b  00000000  00000000  00115c8f  2**0
                  CONTENTS, READONLY
 20 .debug_frame  000018e8  00000000  00000000  00115d0c  2**2
                  CONTENTS, READONLY, DEBUGGING

Disassembly of section .text:

08000190 <__do_global_dtors_aux>:
 8000190:	b510      	push	{r4, lr}
 8000192:	4c05      	ldr	r4, [pc, #20]	; (80001a8 <__do_global_dtors_aux+0x18>)
 8000194:	7823      	ldrb	r3, [r4, #0]
 8000196:	b933      	cbnz	r3, 80001a6 <__do_global_dtors_aux+0x16>
 8000198:	4b04      	ldr	r3, [pc, #16]	; (80001ac <__do_global_dtors_aux+0x1c>)
 800019a:	b113      	cbz	r3, 80001a2 <__do_global_dtors_aux+0x12>
 800019c:	4804      	ldr	r0, [pc, #16]	; (80001b0 <__do_global_dtors_aux+0x20>)
 800019e:	f3af 8000 	nop.w
 80001a2:	2301      	movs	r3, #1
 80001a4:	7023      	strb	r3, [r4, #0]
 80001a6:	bd10      	pop	{r4, pc}
 80001a8:	20000070 	.word	0x20000070
 80001ac:	00000000 	.word	0x00000000
 80001b0:	08002a54 	.word	0x08002a54

080001b4 <frame_dummy>:
 80001b4:	b508      	push	{r3, lr}
 80001b6:	4b03      	ldr	r3, [pc, #12]	; (80001c4 <frame_dummy+0x10>)
 80001b8:	b11b      	cbz	r3, 80001c2 <frame_dummy+0xe>
 80001ba:	4903      	ldr	r1, [pc, #12]	; (80001c8 <frame_dummy+0x14>)
 80001bc:	4803      	ldr	r0, [pc, #12]	; (80001cc <frame_dummy+0x18>)
 80001be:	f3af 8000 	nop.w
 80001c2:	bd08      	pop	{r3, pc}
 80001c4:	00000000 	.word	0x00000000
 80001c8:	20000074 	.word	0x20000074
 80001cc:	08002a54 	.word	0x08002a54

080001d0 <strlen>:
 80001d0:	4603      	mov	r3, r0
 80001d2:	f813 2b01 	ldrb.w	r2, [r3], #1
 80001d6:	2a00      	cmp	r2, #0
 80001d8:	d1fb      	bne.n	80001d2 <strlen+0x2>
 80001da:	1a18      	subs	r0, r3, r0
 80001dc:	3801      	subs	r0, #1
 80001de:	4770      	bx	lr

080001e0 <memchr>:
 80001e0:	f001 01ff 	and.w	r1, r1, #255	; 0xff
 80001e4:	2a10      	cmp	r2, #16
 80001e6:	db2b      	blt.n	8000240 <memchr+0x60>
 80001e8:	f010 0f07 	tst.w	r0, #7
 80001ec:	d008      	beq.n	8000200 <memchr+0x20>
 80001ee:	f810 3b01 	ldrb.w	r3, [r0], #1
 80001f2:	3a01      	subs	r2, #1
 80001f4:	428b      	cmp	r3, r1
 80001f6:	d02d      	beq.n	8000254 <memchr+0x74>
 80001f8:	f010 0f07 	tst.w	r0, #7
 80001fc:	b342      	cbz	r2, 8000250 <memchr+0x70>
 80001fe:	d1f6      	bne.n	80001ee <memchr+0xe>
 8000200:	b4f0      	push	{r4, r5, r6, r7}
 8000202:	ea41 2101 	orr.w	r1, r1, r1, lsl #8
 8000206:	ea41 4101 	orr.w	r1, r1, r1, lsl #16
 800020a:	f022 0407 	bic.w	r4, r2, #7
 800020e:	f07f 0700 	mvns.w	r7, #0
 8000212:	2300      	movs	r3, #0
 8000214:	e8f0 5602 	ldrd	r5, r6, [r0], #8
 8000218:	3c08      	subs	r4, #8
 800021a:	ea85 0501 	eor.w	r5, r5, r1
 800021e:	ea86 0601 	eor.w	r6, r6, r1
 8000222:	fa85 f547 	uadd8	r5, r5, r7
 8000226:	faa3 f587 	sel	r5, r3, r7
 800022a:	fa86 f647 	uadd8	r6, r6, r7
 800022e:	faa5 f687 	sel	r6, r5, r7
 8000232:	b98e      	cbnz	r6, 8000258 <memchr+0x78>
 8000234:	d1ee      	bne.n	8000214 <memchr+0x34>
 8000236:	bcf0      	pop	{r4, r5, r6, r7}
 8000238:	f001 01ff 	and.w	r1, r1, #255	; 0xff
 800023c:	f002 0207 	and.w	r2, r2, #7
 8000240:	b132      	cbz	r2, 8000250 <memchr+0x70>
 8000242:	f810 3b01 	ldrb.w	r3, [r0], #1
 8000246:	3a01      	subs	r2, #1
 8000248:	ea83 0301 	eor.w	r3, r3, r1
 800024c:	b113      	cbz	r3, 8000254 <memchr+0x74>
 800024e:	d1f8      	bne.n	8000242 <memchr+0x62>
 8000250:	2000      	movs	r0, #0
 8000252:	4770      	bx	lr
 8000254:	3801      	subs	r0, #1
 8000256:	4770      	bx	lr
 8000258:	2d00      	cmp	r5, #0
 800025a:	bf06      	itte	eq
 800025c:	4635      	moveq	r5, r6
 800025e:	3803      	subeq	r0, #3
 8000260:	3807      	subne	r0, #7
 8000262:	f015 0f01 	tst.w	r5, #1
 8000266:	d107      	bne.n	8000278 <memchr+0x98>
 8000268:	3001      	adds	r0, #1
 800026a:	f415 7f80 	tst.w	r5, #256	; 0x100
 800026e:	bf02      	ittt	eq
 8000270:	3001      	addeq	r0, #1
 8000272:	f415 3fc0 	tsteq.w	r5, #98304	; 0x18000
 8000276:	3001      	addeq	r0, #1
 8000278:	bcf0      	pop	{r4, r5, r6, r7}
 800027a:	3801      	subs	r0, #1
 800027c:	4770      	bx	lr
 800027e:	bf00      	nop

08000280 <__aeabi_uldivmod>:
 8000280:	b953      	cbnz	r3, 8000298 <__aeabi_uldivmod+0x18>
 8000282:	b94a      	cbnz	r2, 8000298 <__aeabi_uldivmod+0x18>
 8000284:	2900      	cmp	r1, #0
 8000286:	bf08      	it	eq
 8000288:	2800      	cmpeq	r0, #0
 800028a:	bf1c      	itt	ne
 800028c:	f04f 31ff 	movne.w	r1, #4294967295
 8000290:	f04f 30ff 	movne.w	r0, #4294967295
 8000294:	f000 b972 	b.w	800057c <__aeabi_idiv0>
 8000298:	f1ad 0c08 	sub.w	ip, sp, #8
 800029c:	e96d ce04 	strd	ip, lr, [sp, #-16]!
 80002a0:	f000 f806 	bl	80002b0 <__udivmoddi4>
 80002a4:	f8dd e004 	ldr.w	lr, [sp, #4]
 80002a8:	e9dd 2302 	ldrd	r2, r3, [sp, #8]
 80002ac:	b004      	add	sp, #16
 80002ae:	4770      	bx	lr

080002b0 <__udivmoddi4>:
 80002b0:	e92d 47f0 	stmdb	sp!, {r4, r5, r6, r7, r8, r9, sl, lr}
 80002b4:	9e08      	ldr	r6, [sp, #32]
 80002b6:	4604      	mov	r4, r0
 80002b8:	4688      	mov	r8, r1
 80002ba:	2b00      	cmp	r3, #0
 80002bc:	d14b      	bne.n	8000356 <__udivmoddi4+0xa6>
 80002be:	428a      	cmp	r2, r1
 80002c0:	4615      	mov	r5, r2
 80002c2:	d967      	bls.n	8000394 <__udivmoddi4+0xe4>
 80002c4:	fab2 f282 	clz	r2, r2
 80002c8:	b14a      	cbz	r2, 80002de <__udivmoddi4+0x2e>
 80002ca:	f1c2 0720 	rsb	r7, r2, #32
 80002ce:	fa01 f302 	lsl.w	r3, r1, r2
 80002d2:	fa20 f707 	lsr.w	r7, r0, r7
 80002d6:	4095      	lsls	r5, r2
 80002d8:	ea47 0803 	orr.w	r8, r7, r3
 80002dc:	4094      	lsls	r4, r2
 80002de:	ea4f 4e15 	mov.w	lr, r5, lsr #16
 80002e2:	0c23      	lsrs	r3, r4, #16
 80002e4:	fbb8 f7fe 	udiv	r7, r8, lr
 80002e8:	fa1f fc85 	uxth.w	ip, r5
 80002ec:	fb0e 8817 	mls	r8, lr, r7, r8
 80002f0:	ea43 4308 	orr.w	r3, r3, r8, lsl #16
 80002f4:	fb07 f10c 	mul.w	r1, r7, ip
 80002f8:	4299      	cmp	r1, r3
 80002fa:	d909      	bls.n	8000310 <__udivmoddi4+0x60>
 80002fc:	18eb      	adds	r3, r5, r3
 80002fe:	f107 30ff 	add.w	r0, r7, #4294967295
 8000302:	f080 811b 	bcs.w	800053c <__udivmoddi4+0x28c>
 8000306:	4299      	cmp	r1, r3
 8000308:	f240 8118 	bls.w	800053c <__udivmoddi4+0x28c>
 800030c:	3f02      	subs	r7, #2
 800030e:	442b      	add	r3, r5
 8000310:	1a5b      	subs	r3, r3, r1
 8000312:	b2a4      	uxth	r4, r4
 8000314:	fbb3 f0fe 	udiv	r0, r3, lr
 8000318:	fb0e 3310 	mls	r3, lr, r0, r3
 800031c:	ea44 4403 	orr.w	r4, r4, r3, lsl #16
 8000320:	fb00 fc0c 	mul.w	ip, r0, ip
 8000324:	45a4      	cmp	ip, r4
 8000326:	d909      	bls.n	800033c <__udivmoddi4+0x8c>
 8000328:	192c      	adds	r4, r5, r4
 800032a:	f100 33ff 	add.w	r3, r0, #4294967295
 800032e:	f080 8107 	bcs.w	8000540 <__udivmoddi4+0x290>
 8000332:	45a4      	cmp	ip, r4
 8000334:	f240 8104 	bls.w	8000540 <__udivmoddi4+0x290>
 8000338:	3802      	subs	r0, #2
 800033a:	442c      	add	r4, r5
 800033c:	ea40 4007 	orr.w	r0, r0, r7, lsl #16
 8000340:	eba4 040c 	sub.w	r4, r4, ip
 8000344:	2700      	movs	r7, #0
 8000346:	b11e      	cbz	r6, 8000350 <__udivmoddi4+0xa0>
 8000348:	40d4      	lsrs	r4, r2
 800034a:	2300      	movs	r3, #0
 800034c:	e9c6 4300 	strd	r4, r3, [r6]
 8000350:	4639      	mov	r1, r7
 8000352:	e8bd 87f0 	ldmia.w	sp!, {r4, r5, r6, r7, r8, r9, sl, pc}
 8000356:	428b      	cmp	r3, r1
 8000358:	d909      	bls.n	800036e <__udivmoddi4+0xbe>
 800035a:	2e00      	cmp	r6, #0
 800035c:	f000 80eb 	beq.w	8000536 <__udivmoddi4+0x286>
 8000360:	2700      	movs	r7, #0
 8000362:	e9c6 0100 	strd	r0, r1, [r6]
 8000366:	4638      	mov	r0, r7
 8000368:	4639      	mov	r1, r7
 800036a:	e8bd 87f0 	ldmia.w	sp!, {r4, r5, r6, r7, r8, r9, sl, pc}
 800036e:	fab3 f783 	clz	r7, r3
 8000372:	2f00      	cmp	r7, #0
 8000374:	d147      	bne.n	8000406 <__udivmoddi4+0x156>
 8000376:	428b      	cmp	r3, r1
 8000378:	d302      	bcc.n	8000380 <__udivmoddi4+0xd0>
 800037a:	4282      	cmp	r2, r0
 800037c:	f200 80fa 	bhi.w	8000574 <__udivmoddi4+0x2c4>
 8000380:	1a84      	subs	r4, r0, r2
 8000382:	eb61 0303 	sbc.w	r3, r1, r3
 8000386:	2001      	movs	r0, #1
 8000388:	4698      	mov	r8, r3
 800038a:	2e00      	cmp	r6, #0
 800038c:	d0e0      	beq.n	8000350 <__udivmoddi4+0xa0>
 800038e:	e9c6 4800 	strd	r4, r8, [r6]
 8000392:	e7dd      	b.n	8000350 <__udivmoddi4+0xa0>
 8000394:	b902      	cbnz	r2, 8000398 <__udivmoddi4+0xe8>
 8000396:	deff      	udf	#255	; 0xff
 8000398:	fab2 f282 	clz	r2, r2
 800039c:	2a00      	cmp	r2, #0
 800039e:	f040 808f 	bne.w	80004c0 <__udivmoddi4+0x210>
 80003a2:	1b49      	subs	r1, r1, r5
 80003a4:	ea4f 4e15 	mov.w	lr, r5, lsr #16
 80003a8:	fa1f f885 	uxth.w	r8, r5
 80003ac:	2701      	movs	r7, #1
 80003ae:	fbb1 fcfe 	udiv	ip, r1, lr
 80003b2:	0c23      	lsrs	r3, r4, #16
 80003b4:	fb0e 111c 	mls	r1, lr, ip, r1
 80003b8:	ea43 4301 	orr.w	r3, r3, r1, lsl #16
 80003bc:	fb08 f10c 	mul.w	r1, r8, ip
 80003c0:	4299      	cmp	r1, r3
 80003c2:	d907      	bls.n	80003d4 <__udivmoddi4+0x124>
 80003c4:	18eb      	adds	r3, r5, r3
 80003c6:	f10c 30ff 	add.w	r0, ip, #4294967295
 80003ca:	d202      	bcs.n	80003d2 <__udivmoddi4+0x122>
 80003cc:	4299      	cmp	r1, r3
 80003ce:	f200 80cd 	bhi.w	800056c <__udivmoddi4+0x2bc>
 80003d2:	4684      	mov	ip, r0
 80003d4:	1a59      	subs	r1, r3, r1
 80003d6:	b2a3      	uxth	r3, r4
 80003d8:	fbb1 f0fe 	udiv	r0, r1, lr
 80003dc:	fb0e 1410 	mls	r4, lr, r0, r1
 80003e0:	ea43 4404 	orr.w	r4, r3, r4, lsl #16
 80003e4:	fb08 f800 	mul.w	r8, r8, r0
 80003e8:	45a0      	cmp	r8, r4
 80003ea:	d907      	bls.n	80003fc <__udivmoddi4+0x14c>
 80003ec:	192c      	adds	r4, r5, r4
 80003ee:	f100 33ff 	add.w	r3, r0, #4294967295
 80003f2:	d202      	bcs.n	80003fa <__udivmoddi4+0x14a>
 80003f4:	45a0      	cmp	r8, r4
 80003f6:	f200 80b6 	bhi.w	8000566 <__udivmoddi4+0x2b6>
 80003fa:	4618      	mov	r0, r3
 80003fc:	eba4 0408 	sub.w	r4, r4, r8
 8000400:	ea40 400c 	orr.w	r0, r0, ip, lsl #16
 8000404:	e79f      	b.n	8000346 <__udivmoddi4+0x96>
 8000406:	f1c7 0c20 	rsb	ip, r7, #32
 800040a:	40bb      	lsls	r3, r7
 800040c:	fa22 fe0c 	lsr.w	lr, r2, ip
 8000410:	ea4e 0e03 	orr.w	lr, lr, r3
 8000414:	fa01 f407 	lsl.w	r4, r1, r7
 8000418:	fa20 f50c 	lsr.w	r5, r0, ip
 800041c:	fa21 f30c 	lsr.w	r3, r1, ip
 8000420:	ea4f 481e 	mov.w	r8, lr, lsr #16
 8000424:	4325      	orrs	r5, r4
 8000426:	fbb3 f9f8 	udiv	r9, r3, r8
 800042a:	0c2c      	lsrs	r4, r5, #16
 800042c:	fb08 3319 	mls	r3, r8, r9, r3
 8000430:	fa1f fa8e 	uxth.w	sl, lr
 8000434:	ea44 4303 	orr.w	r3, r4, r3, lsl #16
 8000438:	fb09 f40a 	mul.w	r4, r9, sl
 800043c:	429c      	cmp	r4, r3
 800043e:	fa02 f207 	lsl.w	r2, r2, r7
 8000442:	fa00 f107 	lsl.w	r1, r0, r7
 8000446:	d90b      	bls.n	8000460 <__udivmoddi4+0x1b0>
 8000448:	eb1e 0303 	adds.w	r3, lr, r3
 800044c:	f109 30ff 	add.w	r0, r9, #4294967295
 8000450:	f080 8087 	bcs.w	8000562 <__udivmoddi4+0x2b2>
 8000454:	429c      	cmp	r4, r3
 8000456:	f240 8084 	bls.w	8000562 <__udivmoddi4+0x2b2>
 800045a:	f1a9 0902 	sub.w	r9, r9, #2
 800045e:	4473      	add	r3, lr
 8000460:	1b1b      	subs	r3, r3, r4
 8000462:	b2ad      	uxth	r5, r5
 8000464:	fbb3 f0f8 	udiv	r0, r3, r8
 8000468:	fb08 3310 	mls	r3, r8, r0, r3
 800046c:	ea45 4403 	orr.w	r4, r5, r3, lsl #16
 8000470:	fb00 fa0a 	mul.w	sl, r0, sl
 8000474:	45a2      	cmp	sl, r4
 8000476:	d908      	bls.n	800048a <__udivmoddi4+0x1da>
 8000478:	eb1e 0404 	adds.w	r4, lr, r4
 800047c:	f100 33ff 	add.w	r3, r0, #4294967295
 8000480:	d26b      	bcs.n	800055a <__udivmoddi4+0x2aa>
 8000482:	45a2      	cmp	sl, r4
 8000484:	d969      	bls.n	800055a <__udivmoddi4+0x2aa>
 8000486:	3802      	subs	r0, #2
 8000488:	4474      	add	r4, lr
 800048a:	ea40 4009 	orr.w	r0, r0, r9, lsl #16
 800048e:	fba0 8902 	umull	r8, r9, r0, r2
 8000492:	eba4 040a 	sub.w	r4, r4, sl
 8000496:	454c      	cmp	r4, r9
 8000498:	46c2      	mov	sl, r8
 800049a:	464b      	mov	r3, r9
 800049c:	d354      	bcc.n	8000548 <__udivmoddi4+0x298>
 800049e:	d051      	beq.n	8000544 <__udivmoddi4+0x294>
 80004a0:	2e00      	cmp	r6, #0
 80004a2:	d069      	beq.n	8000578 <__udivmoddi4+0x2c8>
 80004a4:	ebb1 050a 	subs.w	r5, r1, sl
 80004a8:	eb64 0403 	sbc.w	r4, r4, r3
 80004ac:	fa04 fc0c 	lsl.w	ip, r4, ip
 80004b0:	40fd      	lsrs	r5, r7
 80004b2:	40fc      	lsrs	r4, r7
 80004b4:	ea4c 0505 	orr.w	r5, ip, r5
 80004b8:	e9c6 5400 	strd	r5, r4, [r6]
 80004bc:	2700      	movs	r7, #0
 80004be:	e747      	b.n	8000350 <__udivmoddi4+0xa0>
 80004c0:	f1c2 0320 	rsb	r3, r2, #32
 80004c4:	fa20 f703 	lsr.w	r7, r0, r3
 80004c8:	4095      	lsls	r5, r2
 80004ca:	fa01 f002 	lsl.w	r0, r1, r2
 80004ce:	fa21 f303 	lsr.w	r3, r1, r3
 80004d2:	ea4f 4e15 	mov.w	lr, r5, lsr #16
 80004d6:	4338      	orrs	r0, r7
 80004d8:	0c01      	lsrs	r1, r0, #16
 80004da:	fbb3 f7fe 	udiv	r7, r3, lr
 80004de:	fa1f f885 	uxth.w	r8, r5
 80004e2:	fb0e 3317 	mls	r3, lr, r7, r3
 80004e6:	ea41 4103 	orr.w	r1, r1, r3, lsl #16
 80004ea:	fb07 f308 	mul.w	r3, r7, r8
 80004ee:	428b      	cmp	r3, r1
 80004f0:	fa04 f402 	lsl.w	r4, r4, r2
 80004f4:	d907      	bls.n	8000506 <__udivmoddi4+0x256>
 80004f6:	1869      	adds	r1, r5, r1
 80004f8:	f107 3cff 	add.w	ip, r7, #4294967295
 80004fc:	d22f      	bcs.n	800055e <__udivmoddi4+0x2ae>
 80004fe:	428b      	cmp	r3, r1
 8000500:	d92d      	bls.n	800055e <__udivmoddi4+0x2ae>
 8000502:	3f02      	subs	r7, #2
 8000504:	4429      	add	r1, r5
 8000506:	1acb      	subs	r3, r1, r3
 8000508:	b281      	uxth	r1, r0
 800050a:	fbb3 f0fe 	udiv	r0, r3, lr
 800050e:	fb0e 3310 	mls	r3, lr, r0, r3
 8000512:	ea41 4103 	orr.w	r1, r1, r3, lsl #16
 8000516:	fb00 f308 	mul.w	r3, r0, r8
 800051a:	428b      	cmp	r3, r1
 800051c:	d907      	bls.n	800052e <__udivmoddi4+0x27e>
 800051e:	1869      	adds	r1, r5, r1
 8000520:	f100 3cff 	add.w	ip, r0, #4294967295
 8000524:	d217      	bcs.n	8000556 <__udivmoddi4+0x2a6>
 8000526:	428b      	cmp	r3, r1
 8000528:	d915      	bls.n	8000556 <__udivmoddi4+0x2a6>
 800052a:	3802      	subs	r0, #2
 800052c:	4429      	add	r1, r5
 800052e:	1ac9      	subs	r1, r1, r3
 8000530:	ea40 4707 	orr.w	r7, r0, r7, lsl #16
 8000534:	e73b      	b.n	80003ae <__udivmoddi4+0xfe>
 8000536:	4637      	mov	r7, r6
 8000538:	4630      	mov	r0, r6
 800053a:	e709      	b.n	8000350 <__udivmoddi4+0xa0>
 800053c:	4607      	mov	r7, r0
 800053e:	e6e7      	b.n	8000310 <__udivmoddi4+0x60>
 8000540:	4618      	mov	r0, r3
 8000542:	e6fb      	b.n	800033c <__udivmoddi4+0x8c>
 8000544:	4541      	cmp	r1, r8
 8000546:	d2ab      	bcs.n	80004a0 <__udivmoddi4+0x1f0>
 8000548:	ebb8 0a02 	subs.w	sl, r8, r2
 800054c:	eb69 020e 	sbc.w	r2, r9, lr
 8000550:	3801      	subs	r0, #1
 8000552:	4613      	mov	r3, r2
 8000554:	e7a4      	b.n	80004a0 <__udivmoddi4+0x1f0>
 8000556:	4660      	mov	r0, ip
 8000558:	e7e9      	b.n	800052e <__udivmoddi4+0x27e>
 800055a:	4618      	mov	r0, r3
 800055c:	e795      	b.n	800048a <__udivmoddi4+0x1da>
 800055e:	4667      	mov	r7, ip
 8000560:	e7d1      	b.n	8000506 <__udivmoddi4+0x256>
 8000562:	4681      	mov	r9, r0
 8000564:	e77c      	b.n	8000460 <__udivmoddi4+0x1b0>
 8000566:	3802      	subs	r0, #2
 8000568:	442c      	add	r4, r5
 800056a:	e747      	b.n	80003fc <__udivmoddi4+0x14c>
 800056c:	f1ac 0c02 	sub.w	ip, ip, #2
 8000570:	442b      	add	r3, r5
 8000572:	e72f      	b.n	80003d4 <__udivmoddi4+0x124>
 8000574:	4638      	mov	r0, r7
 8000576:	e708      	b.n	800038a <__udivmoddi4+0xda>
 8000578:	4637      	mov	r7, r6
 800057a:	e6e9      	b.n	8000350 <__udivmoddi4+0xa0>

0800057c <__aeabi_idiv0>:
 800057c:	4770      	bx	lr
 800057e:	bf00      	nop

08000580 <SysTick_Handler>:
#include "main.h"



void SysTick_Handler (void)
{
 8000580:	b580      	push	{r7, lr}
 8000582:	af00      	add	r7, sp, #0
	HAL_IncTick();
 8000584:	f000 fa2a 	bl	80009dc <HAL_IncTick>
	HAL_SYSTICK_IRQHandler();
 8000588:	f000 fb76 	bl	8000c78 <HAL_SYSTICK_IRQHandler>
}
 800058c:	bf00      	nop
 800058e:	bd80      	pop	{r7, pc}

08000590 <main>:




int main (void)
{
 8000590:	b580      	push	{r7, lr}
 8000592:	b0aa      	sub	sp, #168	; 0xa8
 8000594:	af00      	add	r7, sp, #0
	char msg[100];
	RCC_OscInitTypeDef osc_init;
	RCC_ClkInitTypeDef clk_init;

    HAL_Init();
 8000596:	f000 f9cf 	bl	8000938 <HAL_Init>

	UART2_Init();
 800059a:	f000 f8c1 	bl	8000720 <UART2_Init>
//-------------------------------------------------------------
	osc_init.OscillatorType = RCC_OSCILLATORTYPE_HSE;
 800059e:	2301      	movs	r3, #1
 80005a0:	617b      	str	r3, [r7, #20]
	osc_init.HSEState       = RCC_HSE_ON ;
 80005a2:	f44f 3380 	mov.w	r3, #65536	; 0x10000
 80005a6:	61bb      	str	r3, [r7, #24]

	if (HAL_RCC_OscConfig(&osc_init) != HAL_OK)
 80005a8:	f107 0314 	add.w	r3, r7, #20
 80005ac:	4618      	mov	r0, r3
 80005ae:	f000 fd0b 	bl	8000fc8 <HAL_RCC_OscConfig>
 80005b2:	4603      	mov	r3, r0
 80005b4:	2b00      	cmp	r3, #0
 80005b6:	d001      	beq.n	80005bc <main+0x2c>
		{
		Error_handler();
 80005b8:	f000 f8d8 	bl	800076c <Error_handler>
		}

	clk_init.SYSCLKSource   = RCC_SYSCLKSOURCE_HSE ;
 80005bc:	2301      	movs	r3, #1
 80005be:	607b      	str	r3, [r7, #4]
	clk_init.ClockType      = RCC_CLOCKTYPE_SYSCLK |RCC_CLOCKTYPE_HCLK |\
 80005c0:	230f      	movs	r3, #15
 80005c2:	603b      	str	r3, [r7, #0]
			                  RCC_CLOCKTYPE_PCLK1 |RCC_CLOCKTYPE_PCLK2;

	clk_init.AHBCLKDivider  = RCC_SYSCLK_DIV2;
 80005c4:	2380      	movs	r3, #128	; 0x80
 80005c6:	60bb      	str	r3, [r7, #8]
    clk_init.APB1CLKDivider = RCC_HCLK_DIV2 ;
 80005c8:	f44f 5380 	mov.w	r3, #4096	; 0x1000
 80005cc:	60fb      	str	r3, [r7, #12]
    clk_init.APB2CLKDivider = RCC_HCLK_DIV2 ;
 80005ce:	f44f 5380 	mov.w	r3, #4096	; 0x1000
 80005d2:	613b      	str	r3, [r7, #16]
	//program carefully flash latency becz we use less than 30mhz
    if (HAL_RCC_ClockConfig(&clk_init, FLASH_ACR_LATENCY_0WS)!= HAL_OK)
 80005d4:	463b      	mov	r3, r7
 80005d6:	2100      	movs	r1, #0
 80005d8:	4618      	mov	r0, r3
 80005da:	f000 ff65 	bl	80014a8 <HAL_RCC_ClockConfig>
 80005de:	4603      	mov	r3, r0
 80005e0:	2b00      	cmp	r3, #0
 80005e2:	d001      	beq.n	80005e8 <main+0x58>
            {
    		Error_handler();
 80005e4:	f000 f8c2 	bl	800076c <Error_handler>
    		}

    __HAL_RCC_HSI_DISABLE();       //turn off HSI to save current
 80005e8:	4b46      	ldr	r3, [pc, #280]	; (8000704 <main+0x174>)
 80005ea:	2200      	movs	r2, #0
 80005ec:	601a      	str	r2, [r3, #0]

    /*--------------------------------configure systick
     *
     *
     */
    HAL_SYSTICK_Config(HAL_RCC_GetHCLKFreq()/1000);              //4mhz/1000   hclk /1ms
 80005ee:	f001 f919 	bl	8001824 <HAL_RCC_GetHCLKFreq>
 80005f2:	4602      	mov	r2, r0
 80005f4:	4b44      	ldr	r3, [pc, #272]	; (8000708 <main+0x178>)
 80005f6:	fba3 2302 	umull	r2, r3, r3, r2
 80005fa:	099b      	lsrs	r3, r3, #6
 80005fc:	4618      	mov	r0, r3
 80005fe:	f000 fb12 	bl	8000c26 <HAL_SYSTICK_Config>
    HAL_SYSTICK_CLKSourceConfig(HAL_RCC_GetHCLKFreq());
 8000602:	f001 f90f 	bl	8001824 <HAL_RCC_GetHCLKFreq>
 8000606:	4603      	mov	r3, r0
 8000608:	4618      	mov	r0, r3
 800060a:	f000 fb19 	bl	8000c40 <HAL_SYSTICK_CLKSourceConfig>
    UART2_Init();
 800060e:	f000 f887 	bl	8000720 <UART2_Init>
//-----------------------------------------------------------------------------
    memset(msg,0,sizeof(msg));
 8000612:	f107 0344 	add.w	r3, r7, #68	; 0x44
 8000616:	2264      	movs	r2, #100	; 0x64
 8000618:	2100      	movs	r1, #0
 800061a:	4618      	mov	r0, r3
 800061c:	f001 fe0c 	bl	8002238 <memset>
    sprintf(msg,"SYSCLK : %ld\r\n",HAL_RCC_GetSysClockFreq());
 8000620:	f001 f828 	bl	8001674 <HAL_RCC_GetSysClockFreq>
 8000624:	4602      	mov	r2, r0
 8000626:	f107 0344 	add.w	r3, r7, #68	; 0x44
 800062a:	4938      	ldr	r1, [pc, #224]	; (800070c <main+0x17c>)
 800062c:	4618      	mov	r0, r3
 800062e:	f001 fe0b 	bl	8002248 <siprintf>
    HAL_UART_Transmit(&huart2, (uint8_t*)msg, strlen(msg), HAL_MAX_DELAY);
 8000632:	f107 0344 	add.w	r3, r7, #68	; 0x44
 8000636:	4618      	mov	r0, r3
 8000638:	f7ff fdca 	bl	80001d0 <strlen>
 800063c:	4603      	mov	r3, r0
 800063e:	b29a      	uxth	r2, r3
 8000640:	f107 0144 	add.w	r1, r7, #68	; 0x44
 8000644:	f04f 33ff 	mov.w	r3, #4294967295
 8000648:	4831      	ldr	r0, [pc, #196]	; (8000710 <main+0x180>)
 800064a:	f001 f96c 	bl	8001926 <HAL_UART_Transmit>

    memset(msg,0,sizeof(msg));
 800064e:	f107 0344 	add.w	r3, r7, #68	; 0x44
 8000652:	2264      	movs	r2, #100	; 0x64
 8000654:	2100      	movs	r1, #0
 8000656:	4618      	mov	r0, r3
 8000658:	f001 fdee 	bl	8002238 <memset>
    sprintf(msg,"HCLK   : %ld\r\n",HAL_RCC_GetHCLKFreq());
 800065c:	f001 f8e2 	bl	8001824 <HAL_RCC_GetHCLKFreq>
 8000660:	4602      	mov	r2, r0
 8000662:	f107 0344 	add.w	r3, r7, #68	; 0x44
 8000666:	492b      	ldr	r1, [pc, #172]	; (8000714 <main+0x184>)
 8000668:	4618      	mov	r0, r3
 800066a:	f001 fded 	bl	8002248 <siprintf>
    HAL_UART_Transmit(&huart2, (uint8_t*)msg, strlen(msg), HAL_MAX_DELAY);
 800066e:	f107 0344 	add.w	r3, r7, #68	; 0x44
 8000672:	4618      	mov	r0, r3
 8000674:	f7ff fdac 	bl	80001d0 <strlen>
 8000678:	4603      	mov	r3, r0
 800067a:	b29a      	uxth	r2, r3
 800067c:	f107 0144 	add.w	r1, r7, #68	; 0x44
 8000680:	f04f 33ff 	mov.w	r3, #4294967295
 8000684:	4822      	ldr	r0, [pc, #136]	; (8000710 <main+0x180>)
 8000686:	f001 f94e 	bl	8001926 <HAL_UART_Transmit>

    memset(msg,0,sizeof(msg));
 800068a:	f107 0344 	add.w	r3, r7, #68	; 0x44
 800068e:	2264      	movs	r2, #100	; 0x64
 8000690:	2100      	movs	r1, #0
 8000692:	4618      	mov	r0, r3
 8000694:	f001 fdd0 	bl	8002238 <memset>
    sprintf(msg,"PCLK1  : %ld\r\n",HAL_RCC_GetPCLK1Freq());
 8000698:	f001 f8d0 	bl	800183c <HAL_RCC_GetPCLK1Freq>
 800069c:	4602      	mov	r2, r0
 800069e:	f107 0344 	add.w	r3, r7, #68	; 0x44
 80006a2:	491d      	ldr	r1, [pc, #116]	; (8000718 <main+0x188>)
 80006a4:	4618      	mov	r0, r3
 80006a6:	f001 fdcf 	bl	8002248 <siprintf>
    HAL_UART_Transmit(&huart2, (uint8_t*)msg, strlen(msg), HAL_MAX_DELAY);
 80006aa:	f107 0344 	add.w	r3, r7, #68	; 0x44
 80006ae:	4618      	mov	r0, r3
 80006b0:	f7ff fd8e 	bl	80001d0 <strlen>
 80006b4:	4603      	mov	r3, r0
 80006b6:	b29a      	uxth	r2, r3
 80006b8:	f107 0144 	add.w	r1, r7, #68	; 0x44
 80006bc:	f04f 33ff 	mov.w	r3, #4294967295
 80006c0:	4813      	ldr	r0, [pc, #76]	; (8000710 <main+0x180>)
 80006c2:	f001 f930 	bl	8001926 <HAL_UART_Transmit>

    memset(msg,0,sizeof(msg));
 80006c6:	f107 0344 	add.w	r3, r7, #68	; 0x44
 80006ca:	2264      	movs	r2, #100	; 0x64
 80006cc:	2100      	movs	r1, #0
 80006ce:	4618      	mov	r0, r3
 80006d0:	f001 fdb2 	bl	8002238 <memset>
    sprintf(msg,"PCLK2  : %ld\r\n",HAL_RCC_GetPCLK2Freq());
 80006d4:	f001 f8c6 	bl	8001864 <HAL_RCC_GetPCLK2Freq>
 80006d8:	4602      	mov	r2, r0
 80006da:	f107 0344 	add.w	r3, r7, #68	; 0x44
 80006de:	490f      	ldr	r1, [pc, #60]	; (800071c <main+0x18c>)
 80006e0:	4618      	mov	r0, r3
 80006e2:	f001 fdb1 	bl	8002248 <siprintf>
    HAL_UART_Transmit(&huart2, (uint8_t*)msg, strlen(msg), HAL_MAX_DELAY);
 80006e6:	f107 0344 	add.w	r3, r7, #68	; 0x44
 80006ea:	4618      	mov	r0, r3
 80006ec:	f7ff fd70 	bl	80001d0 <strlen>
 80006f0:	4603      	mov	r3, r0
 80006f2:	b29a      	uxth	r2, r3
 80006f4:	f107 0144 	add.w	r1, r7, #68	; 0x44
 80006f8:	f04f 33ff 	mov.w	r3, #4294967295
 80006fc:	4804      	ldr	r0, [pc, #16]	; (8000710 <main+0x180>)
 80006fe:	f001 f912 	bl	8001926 <HAL_UART_Transmit>

	 while(1);
 8000702:	e7fe      	b.n	8000702 <main+0x172>
 8000704:	42470000 	.word	0x42470000
 8000708:	10624dd3 	.word	0x10624dd3
 800070c:	08002a6c 	.word	0x08002a6c
 8000710:	20000098 	.word	0x20000098
 8000714:	08002a7c 	.word	0x08002a7c
 8000718:	08002a8c 	.word	0x08002a8c
 800071c:	08002a9c 	.word	0x08002a9c

08000720 <UART2_Init>:




void UART2_Init(void)
{
 8000720:	b580      	push	{r7, lr}
 8000722:	af00      	add	r7, sp, #0
	huart2.Instance = USART2;
 8000724:	4b0f      	ldr	r3, [pc, #60]	; (8000764 <UART2_Init+0x44>)
 8000726:	4a10      	ldr	r2, [pc, #64]	; (8000768 <UART2_Init+0x48>)
 8000728:	601a      	str	r2, [r3, #0]
	huart2.Init.BaudRate=115200;
 800072a:	4b0e      	ldr	r3, [pc, #56]	; (8000764 <UART2_Init+0x44>)
 800072c:	f44f 32e1 	mov.w	r2, #115200	; 0x1c200
 8000730:	605a      	str	r2, [r3, #4]
	huart2.Init.HwFlowCtl=UART_HWCONTROL_NONE ;
 8000732:	4b0c      	ldr	r3, [pc, #48]	; (8000764 <UART2_Init+0x44>)
 8000734:	2200      	movs	r2, #0
 8000736:	619a      	str	r2, [r3, #24]
	huart2.Init.Mode=UART_MODE_TX_RX ;
 8000738:	4b0a      	ldr	r3, [pc, #40]	; (8000764 <UART2_Init+0x44>)
 800073a:	220c      	movs	r2, #12
 800073c:	615a      	str	r2, [r3, #20]
//	huart2.Init.OverSampling=UART_OVERSAMPLING_16 ;
    huart2.Init.Parity=UART_PARITY_NONE ;
 800073e:	4b09      	ldr	r3, [pc, #36]	; (8000764 <UART2_Init+0x44>)
 8000740:	2200      	movs	r2, #0
 8000742:	611a      	str	r2, [r3, #16]
    huart2.Init.StopBits=UART_STOPBITS_1 ;
 8000744:	4b07      	ldr	r3, [pc, #28]	; (8000764 <UART2_Init+0x44>)
 8000746:	2200      	movs	r2, #0
 8000748:	60da      	str	r2, [r3, #12]
    huart2.Init.WordLength=UART_WORDLENGTH_8B ;
 800074a:	4b06      	ldr	r3, [pc, #24]	; (8000764 <UART2_Init+0x44>)
 800074c:	2200      	movs	r2, #0
 800074e:	609a      	str	r2, [r3, #8]

   if ( HAL_UART_Init(&huart2) != HAL_OK)
 8000750:	4804      	ldr	r0, [pc, #16]	; (8000764 <UART2_Init+0x44>)
 8000752:	f001 f89b 	bl	800188c <HAL_UART_Init>
 8000756:	4603      	mov	r3, r0
 8000758:	2b00      	cmp	r3, #0
 800075a:	d001      	beq.n	8000760 <UART2_Init+0x40>
   {
	   //there is a problem
	   Error_handler();
 800075c:	f000 f806 	bl	800076c <Error_handler>
   }
}
 8000760:	bf00      	nop
 8000762:	bd80      	pop	{r7, pc}
 8000764:	20000098 	.word	0x20000098
 8000768:	40004400 	.word	0x40004400

0800076c <Error_handler>:

void Error_handler()
{
 800076c:	b480      	push	{r7}
 800076e:	af00      	add	r7, sp, #0
	while(1);
 8000770:	e7fe      	b.n	8000770 <Error_handler+0x4>
	...

08000774 <HAL_MspInit>:
 *      Author: Developer
 */
#include "main.h"
#include "stm32f4xx_hal_gpio.h"
 void HAL_MspInit(void)
{
 8000774:	b580      	push	{r7, lr}
 8000776:	af00      	add	r7, sp, #0
  /* NOTE : This function should not be modified, when the callback is needed,
            the HAL_MspInit could be implemented in the user file
   */
	 //1.priority grouping
	 // we use default one it is under hal driver layer under hal_cortex.c
	 HAL_NVIC_SetPriorityGrouping(NVIC_PRIORITYGROUP_4);
 8000778:	2003      	movs	r0, #3
 800077a:	f000 fa1f 	bl	8000bbc <HAL_NVIC_SetPriorityGrouping>
	 //2.system exceptions
	 SCB->SHCSR |=SCB_SHCSR_USGFAULTENA_Msk ; //enable usage
 800077e:	4b13      	ldr	r3, [pc, #76]	; (80007cc <HAL_MspInit+0x58>)
 8000780:	6a5b      	ldr	r3, [r3, #36]	; 0x24
 8000782:	4a12      	ldr	r2, [pc, #72]	; (80007cc <HAL_MspInit+0x58>)
 8000784:	f443 2380 	orr.w	r3, r3, #262144	; 0x40000
 8000788:	6253      	str	r3, [r2, #36]	; 0x24
	 SCB->SHCSR |=SCB_SHCSR_BUSFAULTENA_Msk ; //mem
 800078a:	4b10      	ldr	r3, [pc, #64]	; (80007cc <HAL_MspInit+0x58>)
 800078c:	6a5b      	ldr	r3, [r3, #36]	; 0x24
 800078e:	4a0f      	ldr	r2, [pc, #60]	; (80007cc <HAL_MspInit+0x58>)
 8000790:	f443 3300 	orr.w	r3, r3, #131072	; 0x20000
 8000794:	6253      	str	r3, [r2, #36]	; 0x24
	 SCB->SHCSR |=SCB_SHCSR_MEMFAULTENA_Msk ; //bus
 8000796:	4b0d      	ldr	r3, [pc, #52]	; (80007cc <HAL_MspInit+0x58>)
 8000798:	6a5b      	ldr	r3, [r3, #36]	; 0x24
 800079a:	4a0c      	ldr	r2, [pc, #48]	; (80007cc <HAL_MspInit+0x58>)
 800079c:	f443 3380 	orr.w	r3, r3, #65536	; 0x10000
 80007a0:	6253      	str	r3, [r2, #36]	; 0x24
	 //3.priority for system exceptions

	 HAL_NVIC_SetPriority(MemoryManagement_IRQn, 0, 0);
 80007a2:	2200      	movs	r2, #0
 80007a4:	2100      	movs	r1, #0
 80007a6:	f06f 000b 	mvn.w	r0, #11
 80007aa:	f000 fa12 	bl	8000bd2 <HAL_NVIC_SetPriority>
	 HAL_NVIC_SetPriority(BusFault_IRQn, 0, 0);
 80007ae:	2200      	movs	r2, #0
 80007b0:	2100      	movs	r1, #0
 80007b2:	f06f 000a 	mvn.w	r0, #10
 80007b6:	f000 fa0c 	bl	8000bd2 <HAL_NVIC_SetPriority>
	 HAL_NVIC_SetPriority(UsageFault_IRQn, 0, 0);
 80007ba:	2200      	movs	r2, #0
 80007bc:	2100      	movs	r1, #0
 80007be:	f06f 0009 	mvn.w	r0, #9
 80007c2:	f000 fa06 	bl	8000bd2 <HAL_NVIC_SetPriority>
}
 80007c6:	bf00      	nop
 80007c8:	bd80      	pop	{r7, pc}
 80007ca:	bf00      	nop
 80007cc:	e000ed00 	.word	0xe000ed00

080007d0 <HAL_UART_MspInit>:


  void HAL_UART_MspInit(UART_HandleTypeDef *huart)
 {
 80007d0:	b580      	push	{r7, lr}
 80007d2:	b08a      	sub	sp, #40	; 0x28
 80007d4:	af00      	add	r7, sp, #0
 80007d6:	6078      	str	r0, [r7, #4]
	  // low level initialization

	  //enable clock for usart2
	  __HAL_RCC_USART2_CLK_ENABLE();
 80007d8:	2300      	movs	r3, #0
 80007da:	613b      	str	r3, [r7, #16]
 80007dc:	4b1e      	ldr	r3, [pc, #120]	; (8000858 <HAL_UART_MspInit+0x88>)
 80007de:	6c1b      	ldr	r3, [r3, #64]	; 0x40
 80007e0:	4a1d      	ldr	r2, [pc, #116]	; (8000858 <HAL_UART_MspInit+0x88>)
 80007e2:	f443 3300 	orr.w	r3, r3, #131072	; 0x20000
 80007e6:	6413      	str	r3, [r2, #64]	; 0x40
 80007e8:	4b1b      	ldr	r3, [pc, #108]	; (8000858 <HAL_UART_MspInit+0x88>)
 80007ea:	6c1b      	ldr	r3, [r3, #64]	; 0x40
 80007ec:	f403 3300 	and.w	r3, r3, #131072	; 0x20000
 80007f0:	613b      	str	r3, [r7, #16]
 80007f2:	693b      	ldr	r3, [r7, #16]

	  //pin muxing

      __HAL_RCC_GPIOA_CLK_ENABLE();
 80007f4:	2300      	movs	r3, #0
 80007f6:	60fb      	str	r3, [r7, #12]
 80007f8:	4b17      	ldr	r3, [pc, #92]	; (8000858 <HAL_UART_MspInit+0x88>)
 80007fa:	6b1b      	ldr	r3, [r3, #48]	; 0x30
 80007fc:	4a16      	ldr	r2, [pc, #88]	; (8000858 <HAL_UART_MspInit+0x88>)
 80007fe:	f043 0301 	orr.w	r3, r3, #1
 8000802:	6313      	str	r3, [r2, #48]	; 0x30
 8000804:	4b14      	ldr	r3, [pc, #80]	; (8000858 <HAL_UART_MspInit+0x88>)
 8000806:	6b1b      	ldr	r3, [r3, #48]	; 0x30
 8000808:	f003 0301 	and.w	r3, r3, #1
 800080c:	60fb      	str	r3, [r7, #12]
 800080e:	68fb      	ldr	r3, [r7, #12]
	  GPIO_InitTypeDef gpioa_uart;
	  gpioa_uart.Pin =GPIO_PIN_2;
 8000810:	2304      	movs	r3, #4
 8000812:	617b      	str	r3, [r7, #20]
	  gpioa_uart.Mode =GPIO_MODE_AF_PP;
 8000814:	2302      	movs	r3, #2
 8000816:	61bb      	str	r3, [r7, #24]
	  gpioa_uart.Speed =GPIO_SPEED_FREQ_HIGH;
 8000818:	2302      	movs	r3, #2
 800081a:	623b      	str	r3, [r7, #32]
	  gpioa_uart.Pull=GPIO_PULLUP;
 800081c:	2301      	movs	r3, #1
 800081e:	61fb      	str	r3, [r7, #28]
	  gpioa_uart.Alternate=GPIO_AF7_USART2;
 8000820:	2307      	movs	r3, #7
 8000822:	627b      	str	r3, [r7, #36]	; 0x24

	  HAL_GPIO_Init(GPIOA, &gpioa_uart);
 8000824:	f107 0314 	add.w	r3, r7, #20
 8000828:	4619      	mov	r1, r3
 800082a:	480c      	ldr	r0, [pc, #48]	; (800085c <HAL_UART_MspInit+0x8c>)
 800082c:	f000 fa32 	bl	8000c94 <HAL_GPIO_Init>

	  gpioa_uart.Pin =GPIO_PIN_3;
 8000830:	2308      	movs	r3, #8
 8000832:	617b      	str	r3, [r7, #20]
	  HAL_GPIO_Init(GPIOA, &gpioa_uart);
 8000834:	f107 0314 	add.w	r3, r7, #20
 8000838:	4619      	mov	r1, r3
 800083a:	4808      	ldr	r0, [pc, #32]	; (800085c <HAL_UART_MspInit+0x8c>)
 800083c:	f000 fa2a 	bl	8000c94 <HAL_GPIO_Init>

	  //enable irq ,priority NVIC
	  HAL_NVIC_EnableIRQ(USART2_IRQn);
 8000840:	2026      	movs	r0, #38	; 0x26
 8000842:	f000 f9e2 	bl	8000c0a <HAL_NVIC_EnableIRQ>
	  HAL_NVIC_SetPriority(USART2_IRQn, 15, 0);
 8000846:	2200      	movs	r2, #0
 8000848:	210f      	movs	r1, #15
 800084a:	2026      	movs	r0, #38	; 0x26
 800084c:	f000 f9c1 	bl	8000bd2 <HAL_NVIC_SetPriority>
 }
 8000850:	bf00      	nop
 8000852:	3728      	adds	r7, #40	; 0x28
 8000854:	46bd      	mov	sp, r7
 8000856:	bd80      	pop	{r7, pc}
 8000858:	40023800 	.word	0x40023800
 800085c:	40020000 	.word	0x40020000

08000860 <_sbrk>:
/**
 _sbrk
 Increase program data space. Malloc and related functions depend on this
**/
caddr_t _sbrk(int incr)
{
 8000860:	b580      	push	{r7, lr}
 8000862:	b084      	sub	sp, #16
 8000864:	af00      	add	r7, sp, #0
 8000866:	6078      	str	r0, [r7, #4]
	extern char end asm("end");
	static char *heap_end;
	char *prev_heap_end;

	if (heap_end == 0)
 8000868:	4b11      	ldr	r3, [pc, #68]	; (80008b0 <_sbrk+0x50>)
 800086a:	681b      	ldr	r3, [r3, #0]
 800086c:	2b00      	cmp	r3, #0
 800086e:	d102      	bne.n	8000876 <_sbrk+0x16>
		heap_end = &end;
 8000870:	4b0f      	ldr	r3, [pc, #60]	; (80008b0 <_sbrk+0x50>)
 8000872:	4a10      	ldr	r2, [pc, #64]	; (80008b4 <_sbrk+0x54>)
 8000874:	601a      	str	r2, [r3, #0]

	prev_heap_end = heap_end;
 8000876:	4b0e      	ldr	r3, [pc, #56]	; (80008b0 <_sbrk+0x50>)
 8000878:	681b      	ldr	r3, [r3, #0]
 800087a:	60fb      	str	r3, [r7, #12]
	if (heap_end + incr > stack_ptr)
 800087c:	4b0c      	ldr	r3, [pc, #48]	; (80008b0 <_sbrk+0x50>)
 800087e:	681a      	ldr	r2, [r3, #0]
 8000880:	687b      	ldr	r3, [r7, #4]
 8000882:	4413      	add	r3, r2
 8000884:	466a      	mov	r2, sp
 8000886:	4293      	cmp	r3, r2
 8000888:	d907      	bls.n	800089a <_sbrk+0x3a>
	{
		errno = ENOMEM;
 800088a:	f001 fcab 	bl	80021e4 <__errno>
 800088e:	4602      	mov	r2, r0
 8000890:	230c      	movs	r3, #12
 8000892:	6013      	str	r3, [r2, #0]
		return (caddr_t) -1;
 8000894:	f04f 33ff 	mov.w	r3, #4294967295
 8000898:	e006      	b.n	80008a8 <_sbrk+0x48>
	}

	heap_end += incr;
 800089a:	4b05      	ldr	r3, [pc, #20]	; (80008b0 <_sbrk+0x50>)
 800089c:	681a      	ldr	r2, [r3, #0]
 800089e:	687b      	ldr	r3, [r7, #4]
 80008a0:	4413      	add	r3, r2
 80008a2:	4a03      	ldr	r2, [pc, #12]	; (80008b0 <_sbrk+0x50>)
 80008a4:	6013      	str	r3, [r2, #0]

	return (caddr_t) prev_heap_end;
 80008a6:	68fb      	ldr	r3, [r7, #12]
}
 80008a8:	4618      	mov	r0, r3
 80008aa:	3710      	adds	r7, #16
 80008ac:	46bd      	mov	sp, r7
 80008ae:	bd80      	pop	{r7, pc}
 80008b0:	2000008c 	.word	0x2000008c
 80008b4:	200000e0 	.word	0x200000e0

080008b8 <SystemInit>:
  *         configuration.
  * @param  None
  * @retval None
  */
void SystemInit(void)
{
 80008b8:	b480      	push	{r7}
 80008ba:	af00      	add	r7, sp, #0
  /* FPU settings ------------------------------------------------------------*/
  #if (__FPU_PRESENT == 1) && (__FPU_USED == 1)
    SCB->CPACR |= ((3UL << 10*2)|(3UL << 11*2));  /* set CP10 and CP11 Full Access */
 80008bc:	4b08      	ldr	r3, [pc, #32]	; (80008e0 <SystemInit+0x28>)
 80008be:	f8d3 3088 	ldr.w	r3, [r3, #136]	; 0x88
 80008c2:	4a07      	ldr	r2, [pc, #28]	; (80008e0 <SystemInit+0x28>)
 80008c4:	f443 0370 	orr.w	r3, r3, #15728640	; 0xf00000
 80008c8:	f8c2 3088 	str.w	r3, [r2, #136]	; 0x88

  /* Configure the Vector Table location add offset address ------------------*/
#ifdef VECT_TAB_SRAM
  SCB->VTOR = SRAM_BASE | VECT_TAB_OFFSET; /* Vector Table Relocation in Internal SRAM */
#else
  SCB->VTOR = FLASH_BASE | VECT_TAB_OFFSET; /* Vector Table Relocation in Internal FLASH */
 80008cc:	4b04      	ldr	r3, [pc, #16]	; (80008e0 <SystemInit+0x28>)
 80008ce:	f04f 6200 	mov.w	r2, #134217728	; 0x8000000
 80008d2:	609a      	str	r2, [r3, #8]
#endif
}
 80008d4:	bf00      	nop
 80008d6:	46bd      	mov	sp, r7
 80008d8:	f85d 7b04 	ldr.w	r7, [sp], #4
 80008dc:	4770      	bx	lr
 80008de:	bf00      	nop
 80008e0:	e000ed00 	.word	0xe000ed00

080008e4 <Reset_Handler>:

    .section  .text.Reset_Handler
  .weak  Reset_Handler
  .type  Reset_Handler, %function
Reset_Handler:  
  ldr   sp, =_estack     /* set stack pointer */
 80008e4:	f8df d034 	ldr.w	sp, [pc, #52]	; 800091c <LoopFillZerobss+0x14>

/* Copy the data segment initializers from flash to SRAM */  
  movs  r1, #0
 80008e8:	2100      	movs	r1, #0
  b  LoopCopyDataInit
 80008ea:	e003      	b.n	80008f4 <LoopCopyDataInit>

080008ec <CopyDataInit>:

CopyDataInit:
  ldr  r3, =_sidata
 80008ec:	4b0c      	ldr	r3, [pc, #48]	; (8000920 <LoopFillZerobss+0x18>)
  ldr  r3, [r3, r1]
 80008ee:	585b      	ldr	r3, [r3, r1]
  str  r3, [r0, r1]
 80008f0:	5043      	str	r3, [r0, r1]
  adds  r1, r1, #4
 80008f2:	3104      	adds	r1, #4

080008f4 <LoopCopyDataInit>:
    
LoopCopyDataInit:
  ldr  r0, =_sdata
 80008f4:	480b      	ldr	r0, [pc, #44]	; (8000924 <LoopFillZerobss+0x1c>)
  ldr  r3, =_edata
 80008f6:	4b0c      	ldr	r3, [pc, #48]	; (8000928 <LoopFillZerobss+0x20>)
  adds  r2, r0, r1
 80008f8:	1842      	adds	r2, r0, r1
  cmp  r2, r3
 80008fa:	429a      	cmp	r2, r3
  bcc  CopyDataInit
 80008fc:	d3f6      	bcc.n	80008ec <CopyDataInit>
  ldr  r2, =_sbss
 80008fe:	4a0b      	ldr	r2, [pc, #44]	; (800092c <LoopFillZerobss+0x24>)
  b  LoopFillZerobss
 8000900:	e002      	b.n	8000908 <LoopFillZerobss>

08000902 <FillZerobss>:
/* Zero fill the bss segment. */  
FillZerobss:
  movs  r3, #0
 8000902:	2300      	movs	r3, #0
  str  r3, [r2], #4
 8000904:	f842 3b04 	str.w	r3, [r2], #4

08000908 <LoopFillZerobss>:
    
LoopFillZerobss:
  ldr  r3, = _ebss
 8000908:	4b09      	ldr	r3, [pc, #36]	; (8000930 <LoopFillZerobss+0x28>)
  cmp  r2, r3
 800090a:	429a      	cmp	r2, r3
  bcc  FillZerobss
 800090c:	d3f9      	bcc.n	8000902 <FillZerobss>

/* Call the clock system intitialization function.*/
  bl  SystemInit   
 800090e:	f7ff ffd3 	bl	80008b8 <SystemInit>
/* Call static constructors */
    bl __libc_init_array
 8000912:	f001 fc6d 	bl	80021f0 <__libc_init_array>
/* Call the application's entry point.*/
  bl  main
 8000916:	f7ff fe3b 	bl	8000590 <main>
  bx  lr    
 800091a:	4770      	bx	lr
  ldr   sp, =_estack     /* set stack pointer */
 800091c:	20020000 	.word	0x20020000
  ldr  r3, =_sidata
 8000920:	08002b08 	.word	0x08002b08
  ldr  r0, =_sdata
 8000924:	20000000 	.word	0x20000000
  ldr  r3, =_edata
 8000928:	20000070 	.word	0x20000070
  ldr  r2, =_sbss
 800092c:	20000070 	.word	0x20000070
  ldr  r3, = _ebss
 8000930:	200000e0 	.word	0x200000e0

08000934 <ADC_IRQHandler>:
 * @retval None       
*/
    .section  .text.Default_Handler,"ax",%progbits
Default_Handler:
Infinite_Loop:
  b  Infinite_Loop
 8000934:	e7fe      	b.n	8000934 <ADC_IRQHandler>
	...

08000938 <HAL_Init>:
  *         need to ensure that the SysTick time base is always set to 1 millisecond
  *         to have correct HAL operation.
  * @retval HAL status
  */
HAL_StatusTypeDef HAL_Init(void)
{
 8000938:	b580      	push	{r7, lr}
 800093a:	af00      	add	r7, sp, #0
  /* Configure Flash prefetch, Instruction cache, Data cache */ 
#if (INSTRUCTION_CACHE_ENABLE != 0U)
  __HAL_FLASH_INSTRUCTION_CACHE_ENABLE();
 800093c:	4b0e      	ldr	r3, [pc, #56]	; (8000978 <HAL_Init+0x40>)
 800093e:	681b      	ldr	r3, [r3, #0]
 8000940:	4a0d      	ldr	r2, [pc, #52]	; (8000978 <HAL_Init+0x40>)
 8000942:	f443 7300 	orr.w	r3, r3, #512	; 0x200
 8000946:	6013      	str	r3, [r2, #0]
#endif /* INSTRUCTION_CACHE_ENABLE */

#if (DATA_CACHE_ENABLE != 0U)
  __HAL_FLASH_DATA_CACHE_ENABLE();
 8000948:	4b0b      	ldr	r3, [pc, #44]	; (8000978 <HAL_Init+0x40>)
 800094a:	681b      	ldr	r3, [r3, #0]
 800094c:	4a0a      	ldr	r2, [pc, #40]	; (8000978 <HAL_Init+0x40>)
 800094e:	f443 6380 	orr.w	r3, r3, #1024	; 0x400
 8000952:	6013      	str	r3, [r2, #0]
#endif /* DATA_CACHE_ENABLE */

#if (PREFETCH_ENABLE != 0U)
  __HAL_FLASH_PREFETCH_BUFFER_ENABLE();
 8000954:	4b08      	ldr	r3, [pc, #32]	; (8000978 <HAL_Init+0x40>)
 8000956:	681b      	ldr	r3, [r3, #0]
 8000958:	4a07      	ldr	r2, [pc, #28]	; (8000978 <HAL_Init+0x40>)
 800095a:	f443 7380 	orr.w	r3, r3, #256	; 0x100
 800095e:	6013      	str	r3, [r2, #0]
#endif /* PREFETCH_ENABLE */

  /* Set Interrupt Group Priority */
  HAL_NVIC_SetPriorityGrouping(NVIC_PRIORITYGROUP_4);
 8000960:	2003      	movs	r0, #3
 8000962:	f000 f92b 	bl	8000bbc <HAL_NVIC_SetPriorityGrouping>

  /* Use systick as time base source and configure 1ms tick (default clock after Reset is HSI) */
  HAL_InitTick(TICK_INT_PRIORITY);
 8000966:	2000      	movs	r0, #0
 8000968:	f000 f808 	bl	800097c <HAL_InitTick>

  /* Init the low level hardware */
  HAL_MspInit();
 800096c:	f7ff ff02 	bl	8000774 <HAL_MspInit>

  /* Return function status */
  return HAL_OK;
 8000970:	2300      	movs	r3, #0
}
 8000972:	4618      	mov	r0, r3
 8000974:	bd80      	pop	{r7, pc}
 8000976:	bf00      	nop
 8000978:	40023c00 	.word	0x40023c00

0800097c <HAL_InitTick>:
  *       implementation  in user file.
  * @param TickPriority Tick interrupt priority.
  * @retval HAL status
  */
__weak HAL_StatusTypeDef HAL_InitTick(uint32_t TickPriority)
{
 800097c:	b580      	push	{r7, lr}
 800097e:	b082      	sub	sp, #8
 8000980:	af00      	add	r7, sp, #0
 8000982:	6078      	str	r0, [r7, #4]
  /* Configure the SysTick to have interrupt in 1ms time basis*/
  if (HAL_SYSTICK_Config(SystemCoreClock / (1000U / uwTickFreq)) > 0U)
 8000984:	4b12      	ldr	r3, [pc, #72]	; (80009d0 <HAL_InitTick+0x54>)
 8000986:	681a      	ldr	r2, [r3, #0]
 8000988:	4b12      	ldr	r3, [pc, #72]	; (80009d4 <HAL_InitTick+0x58>)
 800098a:	781b      	ldrb	r3, [r3, #0]
 800098c:	4619      	mov	r1, r3
 800098e:	f44f 737a 	mov.w	r3, #1000	; 0x3e8
 8000992:	fbb3 f3f1 	udiv	r3, r3, r1
 8000996:	fbb2 f3f3 	udiv	r3, r2, r3
 800099a:	4618      	mov	r0, r3
 800099c:	f000 f943 	bl	8000c26 <HAL_SYSTICK_Config>
 80009a0:	4603      	mov	r3, r0
 80009a2:	2b00      	cmp	r3, #0
 80009a4:	d001      	beq.n	80009aa <HAL_InitTick+0x2e>
  {
    return HAL_ERROR;
 80009a6:	2301      	movs	r3, #1
 80009a8:	e00e      	b.n	80009c8 <HAL_InitTick+0x4c>
  }

  /* Configure the SysTick IRQ priority */
  if (TickPriority < (1UL << __NVIC_PRIO_BITS))
 80009aa:	687b      	ldr	r3, [r7, #4]
 80009ac:	2b0f      	cmp	r3, #15
 80009ae:	d80a      	bhi.n	80009c6 <HAL_InitTick+0x4a>
  {
    HAL_NVIC_SetPriority(SysTick_IRQn, TickPriority, 0U);
 80009b0:	2200      	movs	r2, #0
 80009b2:	6879      	ldr	r1, [r7, #4]
 80009b4:	f04f 30ff 	mov.w	r0, #4294967295
 80009b8:	f000 f90b 	bl	8000bd2 <HAL_NVIC_SetPriority>
    uwTickPrio = TickPriority;
 80009bc:	4a06      	ldr	r2, [pc, #24]	; (80009d8 <HAL_InitTick+0x5c>)
 80009be:	687b      	ldr	r3, [r7, #4]
 80009c0:	6013      	str	r3, [r2, #0]
  {
    return HAL_ERROR;
  }

  /* Return function status */
  return HAL_OK;
 80009c2:	2300      	movs	r3, #0
 80009c4:	e000      	b.n	80009c8 <HAL_InitTick+0x4c>
    return HAL_ERROR;
 80009c6:	2301      	movs	r3, #1
}
 80009c8:	4618      	mov	r0, r3
 80009ca:	3708      	adds	r7, #8
 80009cc:	46bd      	mov	sp, r7
 80009ce:	bd80      	pop	{r7, pc}
 80009d0:	20000000 	.word	0x20000000
 80009d4:	20000008 	.word	0x20000008
 80009d8:	20000004 	.word	0x20000004

080009dc <HAL_IncTick>:
 * @note This function is declared as __weak to be overwritten in case of other 
  *      implementations in user file.
  * @retval None
  */
__weak void HAL_IncTick(void)
{
 80009dc:	b480      	push	{r7}
 80009de:	af00      	add	r7, sp, #0
  uwTick += uwTickFreq;
 80009e0:	4b06      	ldr	r3, [pc, #24]	; (80009fc <HAL_IncTick+0x20>)
 80009e2:	781b      	ldrb	r3, [r3, #0]
 80009e4:	461a      	mov	r2, r3
 80009e6:	4b06      	ldr	r3, [pc, #24]	; (8000a00 <HAL_IncTick+0x24>)
 80009e8:	681b      	ldr	r3, [r3, #0]
 80009ea:	4413      	add	r3, r2
 80009ec:	4a04      	ldr	r2, [pc, #16]	; (8000a00 <HAL_IncTick+0x24>)
 80009ee:	6013      	str	r3, [r2, #0]
}
 80009f0:	bf00      	nop
 80009f2:	46bd      	mov	sp, r7
 80009f4:	f85d 7b04 	ldr.w	r7, [sp], #4
 80009f8:	4770      	bx	lr
 80009fa:	bf00      	nop
 80009fc:	20000008 	.word	0x20000008
 8000a00:	200000d8 	.word	0x200000d8

08000a04 <HAL_GetTick>:
  * @note This function is declared as __weak to be overwritten in case of other 
  *       implementations in user file.
  * @retval tick value
  */
__weak uint32_t HAL_GetTick(void)
{
 8000a04:	b480      	push	{r7}
 8000a06:	af00      	add	r7, sp, #0
  return uwTick;
 8000a08:	4b03      	ldr	r3, [pc, #12]	; (8000a18 <HAL_GetTick+0x14>)
 8000a0a:	681b      	ldr	r3, [r3, #0]
}
 8000a0c:	4618      	mov	r0, r3
 8000a0e:	46bd      	mov	sp, r7
 8000a10:	f85d 7b04 	ldr.w	r7, [sp], #4
 8000a14:	4770      	bx	lr
 8000a16:	bf00      	nop
 8000a18:	200000d8 	.word	0x200000d8

08000a1c <__NVIC_SetPriorityGrouping>:
           In case of a conflict between priority grouping and available
           priority bits (__NVIC_PRIO_BITS), the smallest possible priority group is set.
  \param [in]      PriorityGroup  Priority grouping field.
 */
__STATIC_INLINE void __NVIC_SetPriorityGrouping(uint32_t PriorityGroup)
{
 8000a1c:	b480      	push	{r7}
 8000a1e:	b085      	sub	sp, #20
 8000a20:	af00      	add	r7, sp, #0
 8000a22:	6078      	str	r0, [r7, #4]
  uint32_t reg_value;
  uint32_t PriorityGroupTmp = (PriorityGroup & (uint32_t)0x07UL);             /* only values 0..7 are used          */
 8000a24:	687b      	ldr	r3, [r7, #4]
 8000a26:	f003 0307 	and.w	r3, r3, #7
 8000a2a:	60fb      	str	r3, [r7, #12]

  reg_value  =  SCB->AIRCR;                                                   /* read old register configuration    */
 8000a2c:	4b0c      	ldr	r3, [pc, #48]	; (8000a60 <__NVIC_SetPriorityGrouping+0x44>)
 8000a2e:	68db      	ldr	r3, [r3, #12]
 8000a30:	60bb      	str	r3, [r7, #8]
  reg_value &= ~((uint32_t)(SCB_AIRCR_VECTKEY_Msk | SCB_AIRCR_PRIGROUP_Msk)); /* clear bits to change               */
 8000a32:	68ba      	ldr	r2, [r7, #8]
 8000a34:	f64f 03ff 	movw	r3, #63743	; 0xf8ff
 8000a38:	4013      	ands	r3, r2
 8000a3a:	60bb      	str	r3, [r7, #8]
  reg_value  =  (reg_value                                   |
                ((uint32_t)0x5FAUL << SCB_AIRCR_VECTKEY_Pos) |
                (PriorityGroupTmp << SCB_AIRCR_PRIGROUP_Pos)  );              /* Insert write key and priority group */
 8000a3c:	68fb      	ldr	r3, [r7, #12]
 8000a3e:	021a      	lsls	r2, r3, #8
                ((uint32_t)0x5FAUL << SCB_AIRCR_VECTKEY_Pos) |
 8000a40:	68bb      	ldr	r3, [r7, #8]
 8000a42:	4313      	orrs	r3, r2
  reg_value  =  (reg_value                                   |
 8000a44:	f043 63bf 	orr.w	r3, r3, #100139008	; 0x5f80000
 8000a48:	f443 3300 	orr.w	r3, r3, #131072	; 0x20000
 8000a4c:	60bb      	str	r3, [r7, #8]
  SCB->AIRCR =  reg_value;
 8000a4e:	4a04      	ldr	r2, [pc, #16]	; (8000a60 <__NVIC_SetPriorityGrouping+0x44>)
 8000a50:	68bb      	ldr	r3, [r7, #8]
 8000a52:	60d3      	str	r3, [r2, #12]
}
 8000a54:	bf00      	nop
 8000a56:	3714      	adds	r7, #20
 8000a58:	46bd      	mov	sp, r7
 8000a5a:	f85d 7b04 	ldr.w	r7, [sp], #4
 8000a5e:	4770      	bx	lr
 8000a60:	e000ed00 	.word	0xe000ed00

08000a64 <__NVIC_GetPriorityGrouping>:
  \brief   Get Priority Grouping
  \details Reads the priority grouping field from the NVIC Interrupt Controller.
  \return                Priority grouping field (SCB->AIRCR [10:8] PRIGROUP field).
 */
__STATIC_INLINE uint32_t __NVIC_GetPriorityGrouping(void)
{
 8000a64:	b480      	push	{r7}
 8000a66:	af00      	add	r7, sp, #0
  return ((uint32_t)((SCB->AIRCR & SCB_AIRCR_PRIGROUP_Msk) >> SCB_AIRCR_PRIGROUP_Pos));
 8000a68:	4b04      	ldr	r3, [pc, #16]	; (8000a7c <__NVIC_GetPriorityGrouping+0x18>)
 8000a6a:	68db      	ldr	r3, [r3, #12]
 8000a6c:	0a1b      	lsrs	r3, r3, #8
 8000a6e:	f003 0307 	and.w	r3, r3, #7
}
 8000a72:	4618      	mov	r0, r3
 8000a74:	46bd      	mov	sp, r7
 8000a76:	f85d 7b04 	ldr.w	r7, [sp], #4
 8000a7a:	4770      	bx	lr
 8000a7c:	e000ed00 	.word	0xe000ed00

08000a80 <__NVIC_EnableIRQ>:
  \details Enables a device specific interrupt in the NVIC interrupt controller.
  \param [in]      IRQn  Device specific interrupt number.
  \note    IRQn must not be negative.
 */
__STATIC_INLINE void __NVIC_EnableIRQ(IRQn_Type IRQn)
{
 8000a80:	b480      	push	{r7}
 8000a82:	b083      	sub	sp, #12
 8000a84:	af00      	add	r7, sp, #0
 8000a86:	4603      	mov	r3, r0
 8000a88:	71fb      	strb	r3, [r7, #7]
  if ((int32_t)(IRQn) >= 0)
 8000a8a:	f997 3007 	ldrsb.w	r3, [r7, #7]
 8000a8e:	2b00      	cmp	r3, #0
 8000a90:	db0b      	blt.n	8000aaa <__NVIC_EnableIRQ+0x2a>
  {
    NVIC->ISER[(((uint32_t)IRQn) >> 5UL)] = (uint32_t)(1UL << (((uint32_t)IRQn) & 0x1FUL));
 8000a92:	79fb      	ldrb	r3, [r7, #7]
 8000a94:	f003 021f 	and.w	r2, r3, #31
 8000a98:	4907      	ldr	r1, [pc, #28]	; (8000ab8 <__NVIC_EnableIRQ+0x38>)
 8000a9a:	f997 3007 	ldrsb.w	r3, [r7, #7]
 8000a9e:	095b      	lsrs	r3, r3, #5
 8000aa0:	2001      	movs	r0, #1
 8000aa2:	fa00 f202 	lsl.w	r2, r0, r2
 8000aa6:	f841 2023 	str.w	r2, [r1, r3, lsl #2]
  }
}
 8000aaa:	bf00      	nop
 8000aac:	370c      	adds	r7, #12
 8000aae:	46bd      	mov	sp, r7
 8000ab0:	f85d 7b04 	ldr.w	r7, [sp], #4
 8000ab4:	4770      	bx	lr
 8000ab6:	bf00      	nop
 8000ab8:	e000e100 	.word	0xe000e100

08000abc <__NVIC_SetPriority>:
  \param [in]      IRQn  Interrupt number.
  \param [in]  priority  Priority to set.
  \note    The priority cannot be set for every processor exception.
 */
__STATIC_INLINE void __NVIC_SetPriority(IRQn_Type IRQn, uint32_t priority)
{
 8000abc:	b480      	push	{r7}
 8000abe:	b083      	sub	sp, #12
 8000ac0:	af00      	add	r7, sp, #0
 8000ac2:	4603      	mov	r3, r0
 8000ac4:	6039      	str	r1, [r7, #0]
 8000ac6:	71fb      	strb	r3, [r7, #7]
  if ((int32_t)(IRQn) >= 0)
 8000ac8:	f997 3007 	ldrsb.w	r3, [r7, #7]
 8000acc:	2b00      	cmp	r3, #0
 8000ace:	db0a      	blt.n	8000ae6 <__NVIC_SetPriority+0x2a>
  {
    NVIC->IP[((uint32_t)IRQn)]               = (uint8_t)((priority << (8U - __NVIC_PRIO_BITS)) & (uint32_t)0xFFUL);
 8000ad0:	683b      	ldr	r3, [r7, #0]
 8000ad2:	b2da      	uxtb	r2, r3
 8000ad4:	490c      	ldr	r1, [pc, #48]	; (8000b08 <__NVIC_SetPriority+0x4c>)
 8000ad6:	f997 3007 	ldrsb.w	r3, [r7, #7]
 8000ada:	0112      	lsls	r2, r2, #4
 8000adc:	b2d2      	uxtb	r2, r2
 8000ade:	440b      	add	r3, r1
 8000ae0:	f883 2300 	strb.w	r2, [r3, #768]	; 0x300
  }
  else
  {
    SCB->SHP[(((uint32_t)IRQn) & 0xFUL)-4UL] = (uint8_t)((priority << (8U - __NVIC_PRIO_BITS)) & (uint32_t)0xFFUL);
  }
}
 8000ae4:	e00a      	b.n	8000afc <__NVIC_SetPriority+0x40>
    SCB->SHP[(((uint32_t)IRQn) & 0xFUL)-4UL] = (uint8_t)((priority << (8U - __NVIC_PRIO_BITS)) & (uint32_t)0xFFUL);
 8000ae6:	683b      	ldr	r3, [r7, #0]
 8000ae8:	b2da      	uxtb	r2, r3
 8000aea:	4908      	ldr	r1, [pc, #32]	; (8000b0c <__NVIC_SetPriority+0x50>)
 8000aec:	79fb      	ldrb	r3, [r7, #7]
 8000aee:	f003 030f 	and.w	r3, r3, #15
 8000af2:	3b04      	subs	r3, #4
 8000af4:	0112      	lsls	r2, r2, #4
 8000af6:	b2d2      	uxtb	r2, r2
 8000af8:	440b      	add	r3, r1
 8000afa:	761a      	strb	r2, [r3, #24]
}
 8000afc:	bf00      	nop
 8000afe:	370c      	adds	r7, #12
 8000b00:	46bd      	mov	sp, r7
 8000b02:	f85d 7b04 	ldr.w	r7, [sp], #4
 8000b06:	4770      	bx	lr
 8000b08:	e000e100 	.word	0xe000e100
 8000b0c:	e000ed00 	.word	0xe000ed00

08000b10 <NVIC_EncodePriority>:
  \param [in]   PreemptPriority  Preemptive priority value (starting from 0).
  \param [in]       SubPriority  Subpriority value (starting from 0).
  \return                        Encoded priority. Value can be used in the function \ref NVIC_SetPriority().
 */
__STATIC_INLINE uint32_t NVIC_EncodePriority (uint32_t PriorityGroup, uint32_t PreemptPriority, uint32_t SubPriority)
{
 8000b10:	b480      	push	{r7}
 8000b12:	b089      	sub	sp, #36	; 0x24
 8000b14:	af00      	add	r7, sp, #0
 8000b16:	60f8      	str	r0, [r7, #12]
 8000b18:	60b9      	str	r1, [r7, #8]
 8000b1a:	607a      	str	r2, [r7, #4]
  uint32_t PriorityGroupTmp = (PriorityGroup & (uint32_t)0x07UL);   /* only values 0..7 are used          */
 8000b1c:	68fb      	ldr	r3, [r7, #12]
 8000b1e:	f003 0307 	and.w	r3, r3, #7
 8000b22:	61fb      	str	r3, [r7, #28]
  uint32_t PreemptPriorityBits;
  uint32_t SubPriorityBits;

  PreemptPriorityBits = ((7UL - PriorityGroupTmp) > (uint32_t)(__NVIC_PRIO_BITS)) ? (uint32_t)(__NVIC_PRIO_BITS) : (uint32_t)(7UL - PriorityGroupTmp);
 8000b24:	69fb      	ldr	r3, [r7, #28]
 8000b26:	f1c3 0307 	rsb	r3, r3, #7
 8000b2a:	2b04      	cmp	r3, #4
 8000b2c:	bf28      	it	cs
 8000b2e:	2304      	movcs	r3, #4
 8000b30:	61bb      	str	r3, [r7, #24]
  SubPriorityBits     = ((PriorityGroupTmp + (uint32_t)(__NVIC_PRIO_BITS)) < (uint32_t)7UL) ? (uint32_t)0UL : (uint32_t)((PriorityGroupTmp - 7UL) + (uint32_t)(__NVIC_PRIO_BITS));
 8000b32:	69fb      	ldr	r3, [r7, #28]
 8000b34:	3304      	adds	r3, #4
 8000b36:	2b06      	cmp	r3, #6
 8000b38:	d902      	bls.n	8000b40 <NVIC_EncodePriority+0x30>
 8000b3a:	69fb      	ldr	r3, [r7, #28]
 8000b3c:	3b03      	subs	r3, #3
 8000b3e:	e000      	b.n	8000b42 <NVIC_EncodePriority+0x32>
 8000b40:	2300      	movs	r3, #0
 8000b42:	617b      	str	r3, [r7, #20]

  return (
           ((PreemptPriority & (uint32_t)((1UL << (PreemptPriorityBits)) - 1UL)) << SubPriorityBits) |
 8000b44:	f04f 32ff 	mov.w	r2, #4294967295
 8000b48:	69bb      	ldr	r3, [r7, #24]
 8000b4a:	fa02 f303 	lsl.w	r3, r2, r3
 8000b4e:	43da      	mvns	r2, r3
 8000b50:	68bb      	ldr	r3, [r7, #8]
 8000b52:	401a      	ands	r2, r3
 8000b54:	697b      	ldr	r3, [r7, #20]
 8000b56:	409a      	lsls	r2, r3
           ((SubPriority     & (uint32_t)((1UL << (SubPriorityBits    )) - 1UL)))
 8000b58:	f04f 31ff 	mov.w	r1, #4294967295
 8000b5c:	697b      	ldr	r3, [r7, #20]
 8000b5e:	fa01 f303 	lsl.w	r3, r1, r3
 8000b62:	43d9      	mvns	r1, r3
 8000b64:	687b      	ldr	r3, [r7, #4]
 8000b66:	400b      	ands	r3, r1
           ((PreemptPriority & (uint32_t)((1UL << (PreemptPriorityBits)) - 1UL)) << SubPriorityBits) |
 8000b68:	4313      	orrs	r3, r2
         );
}
 8000b6a:	4618      	mov	r0, r3
 8000b6c:	3724      	adds	r7, #36	; 0x24
 8000b6e:	46bd      	mov	sp, r7
 8000b70:	f85d 7b04 	ldr.w	r7, [sp], #4
 8000b74:	4770      	bx	lr
	...

08000b78 <SysTick_Config>:
  \note    When the variable <b>__Vendor_SysTickConfig</b> is set to 1, then the
           function <b>SysTick_Config</b> is not included. In this case, the file <b><i>device</i>.h</b>
           must contain a vendor-specific implementation of this function.
 */
__STATIC_INLINE uint32_t SysTick_Config(uint32_t ticks)
{
 8000b78:	b580      	push	{r7, lr}
 8000b7a:	b082      	sub	sp, #8
 8000b7c:	af00      	add	r7, sp, #0
 8000b7e:	6078      	str	r0, [r7, #4]
  if ((ticks - 1UL) > SysTick_LOAD_RELOAD_Msk)
 8000b80:	687b      	ldr	r3, [r7, #4]
 8000b82:	3b01      	subs	r3, #1
 8000b84:	f1b3 7f80 	cmp.w	r3, #16777216	; 0x1000000
 8000b88:	d301      	bcc.n	8000b8e <SysTick_Config+0x16>
  {
    return (1UL);                                                   /* Reload value impossible */
 8000b8a:	2301      	movs	r3, #1
 8000b8c:	e00f      	b.n	8000bae <SysTick_Config+0x36>
  }

  SysTick->LOAD  = (uint32_t)(ticks - 1UL);                         /* set reload register */
 8000b8e:	4a0a      	ldr	r2, [pc, #40]	; (8000bb8 <SysTick_Config+0x40>)
 8000b90:	687b      	ldr	r3, [r7, #4]
 8000b92:	3b01      	subs	r3, #1
 8000b94:	6053      	str	r3, [r2, #4]
  NVIC_SetPriority (SysTick_IRQn, (1UL << __NVIC_PRIO_BITS) - 1UL); /* set Priority for Systick Interrupt */
 8000b96:	210f      	movs	r1, #15
 8000b98:	f04f 30ff 	mov.w	r0, #4294967295
 8000b9c:	f7ff ff8e 	bl	8000abc <__NVIC_SetPriority>
  SysTick->VAL   = 0UL;                                             /* Load the SysTick Counter Value */
 8000ba0:	4b05      	ldr	r3, [pc, #20]	; (8000bb8 <SysTick_Config+0x40>)
 8000ba2:	2200      	movs	r2, #0
 8000ba4:	609a      	str	r2, [r3, #8]
  SysTick->CTRL  = SysTick_CTRL_CLKSOURCE_Msk |
 8000ba6:	4b04      	ldr	r3, [pc, #16]	; (8000bb8 <SysTick_Config+0x40>)
 8000ba8:	2207      	movs	r2, #7
 8000baa:	601a      	str	r2, [r3, #0]
                   SysTick_CTRL_TICKINT_Msk   |
                   SysTick_CTRL_ENABLE_Msk;                         /* Enable SysTick IRQ and SysTick Timer */
  return (0UL);                                                     /* Function successful */
 8000bac:	2300      	movs	r3, #0
}
 8000bae:	4618      	mov	r0, r3
 8000bb0:	3708      	adds	r7, #8
 8000bb2:	46bd      	mov	sp, r7
 8000bb4:	bd80      	pop	{r7, pc}
 8000bb6:	bf00      	nop
 8000bb8:	e000e010 	.word	0xe000e010

08000bbc <HAL_NVIC_SetPriorityGrouping>:
  * @note   When the NVIC_PriorityGroup_0 is selected, IRQ preemption is no more possible. 
  *         The pending IRQ priority will be managed only by the subpriority. 
  * @retval None
  */
void HAL_NVIC_SetPriorityGrouping(uint32_t PriorityGroup)
{
 8000bbc:	b580      	push	{r7, lr}
 8000bbe:	b082      	sub	sp, #8
 8000bc0:	af00      	add	r7, sp, #0
 8000bc2:	6078      	str	r0, [r7, #4]
  /* Check the parameters */
  assert_param(IS_NVIC_PRIORITY_GROUP(PriorityGroup));
  
  /* Set the PRIGROUP[10:8] bits according to the PriorityGroup parameter value */
  NVIC_SetPriorityGrouping(PriorityGroup);
 8000bc4:	6878      	ldr	r0, [r7, #4]
 8000bc6:	f7ff ff29 	bl	8000a1c <__NVIC_SetPriorityGrouping>
}
 8000bca:	bf00      	nop
 8000bcc:	3708      	adds	r7, #8
 8000bce:	46bd      	mov	sp, r7
 8000bd0:	bd80      	pop	{r7, pc}

08000bd2 <HAL_NVIC_SetPriority>:
  *         This parameter can be a value between 0 and 15
  *         A lower priority value indicates a higher priority.          
  * @retval None
  */
void HAL_NVIC_SetPriority(IRQn_Type IRQn, uint32_t PreemptPriority, uint32_t SubPriority)
{ 
 8000bd2:	b580      	push	{r7, lr}
 8000bd4:	b086      	sub	sp, #24
 8000bd6:	af00      	add	r7, sp, #0
 8000bd8:	4603      	mov	r3, r0
 8000bda:	60b9      	str	r1, [r7, #8]
 8000bdc:	607a      	str	r2, [r7, #4]
 8000bde:	73fb      	strb	r3, [r7, #15]
  uint32_t prioritygroup = 0x00U;
 8000be0:	2300      	movs	r3, #0
 8000be2:	617b      	str	r3, [r7, #20]
  
  /* Check the parameters */
  assert_param(IS_NVIC_SUB_PRIORITY(SubPriority));
  assert_param(IS_NVIC_PREEMPTION_PRIORITY(PreemptPriority));
  
  prioritygroup = NVIC_GetPriorityGrouping();
 8000be4:	f7ff ff3e 	bl	8000a64 <__NVIC_GetPriorityGrouping>
 8000be8:	6178      	str	r0, [r7, #20]
  
  NVIC_SetPriority(IRQn, NVIC_EncodePriority(prioritygroup, PreemptPriority, SubPriority));
 8000bea:	687a      	ldr	r2, [r7, #4]
 8000bec:	68b9      	ldr	r1, [r7, #8]
 8000bee:	6978      	ldr	r0, [r7, #20]
 8000bf0:	f7ff ff8e 	bl	8000b10 <NVIC_EncodePriority>
 8000bf4:	4602      	mov	r2, r0
 8000bf6:	f997 300f 	ldrsb.w	r3, [r7, #15]
 8000bfa:	4611      	mov	r1, r2
 8000bfc:	4618      	mov	r0, r3
 8000bfe:	f7ff ff5d 	bl	8000abc <__NVIC_SetPriority>
}
 8000c02:	bf00      	nop
 8000c04:	3718      	adds	r7, #24
 8000c06:	46bd      	mov	sp, r7
 8000c08:	bd80      	pop	{r7, pc}

08000c0a <HAL_NVIC_EnableIRQ>:
  *         This parameter can be an enumerator of IRQn_Type enumeration
  *         (For the complete STM32 Devices IRQ Channels list, please refer to the appropriate CMSIS device file (stm32f4xxxx.h))
  * @retval None
  */
void HAL_NVIC_EnableIRQ(IRQn_Type IRQn)
{
 8000c0a:	b580      	push	{r7, lr}
 8000c0c:	b082      	sub	sp, #8
 8000c0e:	af00      	add	r7, sp, #0
 8000c10:	4603      	mov	r3, r0
 8000c12:	71fb      	strb	r3, [r7, #7]
  /* Check the parameters */
  assert_param(IS_NVIC_DEVICE_IRQ(IRQn));
  
  /* Enable interrupt */
  NVIC_EnableIRQ(IRQn);
 8000c14:	f997 3007 	ldrsb.w	r3, [r7, #7]
 8000c18:	4618      	mov	r0, r3
 8000c1a:	f7ff ff31 	bl	8000a80 <__NVIC_EnableIRQ>
}
 8000c1e:	bf00      	nop
 8000c20:	3708      	adds	r7, #8
 8000c22:	46bd      	mov	sp, r7
 8000c24:	bd80      	pop	{r7, pc}

08000c26 <HAL_SYSTICK_Config>:
  * @param  TicksNumb Specifies the ticks Number of ticks between two interrupts.
  * @retval status:  - 0  Function succeeded.
  *                  - 1  Function failed.
  */
uint32_t HAL_SYSTICK_Config(uint32_t TicksNumb)
{
 8000c26:	b580      	push	{r7, lr}
 8000c28:	b082      	sub	sp, #8
 8000c2a:	af00      	add	r7, sp, #0
 8000c2c:	6078      	str	r0, [r7, #4]
   return SysTick_Config(TicksNumb);
 8000c2e:	6878      	ldr	r0, [r7, #4]
 8000c30:	f7ff ffa2 	bl	8000b78 <SysTick_Config>
 8000c34:	4603      	mov	r3, r0
}
 8000c36:	4618      	mov	r0, r3
 8000c38:	3708      	adds	r7, #8
 8000c3a:	46bd      	mov	sp, r7
 8000c3c:	bd80      	pop	{r7, pc}
	...

08000c40 <HAL_SYSTICK_CLKSourceConfig>:
  *             @arg SYSTICK_CLKSOURCE_HCLK_DIV8: AHB clock divided by 8 selected as SysTick clock source.
  *             @arg SYSTICK_CLKSOURCE_HCLK: AHB clock selected as SysTick clock source.
  * @retval None
  */
void HAL_SYSTICK_CLKSourceConfig(uint32_t CLKSource)
{
 8000c40:	b480      	push	{r7}
 8000c42:	b083      	sub	sp, #12
 8000c44:	af00      	add	r7, sp, #0
 8000c46:	6078      	str	r0, [r7, #4]
  /* Check the parameters */
  assert_param(IS_SYSTICK_CLK_SOURCE(CLKSource));
  if (CLKSource == SYSTICK_CLKSOURCE_HCLK)
 8000c48:	687b      	ldr	r3, [r7, #4]
 8000c4a:	2b04      	cmp	r3, #4
 8000c4c:	d106      	bne.n	8000c5c <HAL_SYSTICK_CLKSourceConfig+0x1c>
  {
    SysTick->CTRL |= SYSTICK_CLKSOURCE_HCLK;
 8000c4e:	4b09      	ldr	r3, [pc, #36]	; (8000c74 <HAL_SYSTICK_CLKSourceConfig+0x34>)
 8000c50:	681b      	ldr	r3, [r3, #0]
 8000c52:	4a08      	ldr	r2, [pc, #32]	; (8000c74 <HAL_SYSTICK_CLKSourceConfig+0x34>)
 8000c54:	f043 0304 	orr.w	r3, r3, #4
 8000c58:	6013      	str	r3, [r2, #0]
  }
  else
  {
    SysTick->CTRL &= ~SYSTICK_CLKSOURCE_HCLK;
  }
}
 8000c5a:	e005      	b.n	8000c68 <HAL_SYSTICK_CLKSourceConfig+0x28>
    SysTick->CTRL &= ~SYSTICK_CLKSOURCE_HCLK;
 8000c5c:	4b05      	ldr	r3, [pc, #20]	; (8000c74 <HAL_SYSTICK_CLKSourceConfig+0x34>)
 8000c5e:	681b      	ldr	r3, [r3, #0]
 8000c60:	4a04      	ldr	r2, [pc, #16]	; (8000c74 <HAL_SYSTICK_CLKSourceConfig+0x34>)
 8000c62:	f023 0304 	bic.w	r3, r3, #4
 8000c66:	6013      	str	r3, [r2, #0]
}
 8000c68:	bf00      	nop
 8000c6a:	370c      	adds	r7, #12
 8000c6c:	46bd      	mov	sp, r7
 8000c6e:	f85d 7b04 	ldr.w	r7, [sp], #4
 8000c72:	4770      	bx	lr
 8000c74:	e000e010 	.word	0xe000e010

08000c78 <HAL_SYSTICK_IRQHandler>:
/**
  * @brief  This function handles SYSTICK interrupt request.
  * @retval None
  */
void HAL_SYSTICK_IRQHandler(void)
{
 8000c78:	b580      	push	{r7, lr}
 8000c7a:	af00      	add	r7, sp, #0
  HAL_SYSTICK_Callback();
 8000c7c:	f000 f802 	bl	8000c84 <HAL_SYSTICK_Callback>
}
 8000c80:	bf00      	nop
 8000c82:	bd80      	pop	{r7, pc}

08000c84 <HAL_SYSTICK_Callback>:
/**
  * @brief  SYSTICK callback.
  * @retval None
  */
__weak void HAL_SYSTICK_Callback(void)
{
 8000c84:	b480      	push	{r7}
 8000c86:	af00      	add	r7, sp, #0
  /* NOTE : This function Should not be modified, when the callback is needed,
            the HAL_SYSTICK_Callback could be implemented in the user file
   */
}
 8000c88:	bf00      	nop
 8000c8a:	46bd      	mov	sp, r7
 8000c8c:	f85d 7b04 	ldr.w	r7, [sp], #4
 8000c90:	4770      	bx	lr
	...

08000c94 <HAL_GPIO_Init>:
  * @param  GPIO_Init pointer to a GPIO_InitTypeDef structure that contains
  *         the configuration information for the specified GPIO peripheral.
  * @retval None
  */
void HAL_GPIO_Init(GPIO_TypeDef  *GPIOx, GPIO_InitTypeDef *GPIO_Init)
{
 8000c94:	b480      	push	{r7}
 8000c96:	b089      	sub	sp, #36	; 0x24
 8000c98:	af00      	add	r7, sp, #0
 8000c9a:	6078      	str	r0, [r7, #4]
 8000c9c:	6039      	str	r1, [r7, #0]
  uint32_t position;
  uint32_t ioposition = 0x00U;
 8000c9e:	2300      	movs	r3, #0
 8000ca0:	617b      	str	r3, [r7, #20]
  uint32_t iocurrent = 0x00U;
 8000ca2:	2300      	movs	r3, #0
 8000ca4:	613b      	str	r3, [r7, #16]
  uint32_t temp = 0x00U;
 8000ca6:	2300      	movs	r3, #0
 8000ca8:	61bb      	str	r3, [r7, #24]
  assert_param(IS_GPIO_PIN(GPIO_Init->Pin));
  assert_param(IS_GPIO_MODE(GPIO_Init->Mode));
  assert_param(IS_GPIO_PULL(GPIO_Init->Pull));

  /* Configure the port pins */
  for(position = 0U; position < GPIO_NUMBER; position++)
 8000caa:	2300      	movs	r3, #0
 8000cac:	61fb      	str	r3, [r7, #28]
 8000cae:	e16b      	b.n	8000f88 <HAL_GPIO_Init+0x2f4>
  {
    /* Get the IO position */
    ioposition = 0x01U << position;
 8000cb0:	2201      	movs	r2, #1
 8000cb2:	69fb      	ldr	r3, [r7, #28]
 8000cb4:	fa02 f303 	lsl.w	r3, r2, r3
 8000cb8:	617b      	str	r3, [r7, #20]
    /* Get the current IO position */
    iocurrent = (uint32_t)(GPIO_Init->Pin) & ioposition;
 8000cba:	683b      	ldr	r3, [r7, #0]
 8000cbc:	681b      	ldr	r3, [r3, #0]
 8000cbe:	697a      	ldr	r2, [r7, #20]
 8000cc0:	4013      	ands	r3, r2
 8000cc2:	613b      	str	r3, [r7, #16]

    if(iocurrent == ioposition)
 8000cc4:	693a      	ldr	r2, [r7, #16]
 8000cc6:	697b      	ldr	r3, [r7, #20]
 8000cc8:	429a      	cmp	r2, r3
 8000cca:	f040 815a 	bne.w	8000f82 <HAL_GPIO_Init+0x2ee>
    {
      /*--------------------- GPIO Mode Configuration ------------------------*/
      /* In case of Output or Alternate function mode selection */
      if((GPIO_Init->Mode == GPIO_MODE_OUTPUT_PP) || (GPIO_Init->Mode == GPIO_MODE_AF_PP) ||
 8000cce:	683b      	ldr	r3, [r7, #0]
 8000cd0:	685b      	ldr	r3, [r3, #4]
 8000cd2:	2b01      	cmp	r3, #1
 8000cd4:	d00b      	beq.n	8000cee <HAL_GPIO_Init+0x5a>
 8000cd6:	683b      	ldr	r3, [r7, #0]
 8000cd8:	685b      	ldr	r3, [r3, #4]
 8000cda:	2b02      	cmp	r3, #2
 8000cdc:	d007      	beq.n	8000cee <HAL_GPIO_Init+0x5a>
         (GPIO_Init->Mode == GPIO_MODE_OUTPUT_OD) || (GPIO_Init->Mode == GPIO_MODE_AF_OD))
 8000cde:	683b      	ldr	r3, [r7, #0]
 8000ce0:	685b      	ldr	r3, [r3, #4]
      if((GPIO_Init->Mode == GPIO_MODE_OUTPUT_PP) || (GPIO_Init->Mode == GPIO_MODE_AF_PP) ||
 8000ce2:	2b11      	cmp	r3, #17
 8000ce4:	d003      	beq.n	8000cee <HAL_GPIO_Init+0x5a>
         (GPIO_Init->Mode == GPIO_MODE_OUTPUT_OD) || (GPIO_Init->Mode == GPIO_MODE_AF_OD))
 8000ce6:	683b      	ldr	r3, [r7, #0]
 8000ce8:	685b      	ldr	r3, [r3, #4]
 8000cea:	2b12      	cmp	r3, #18
 8000cec:	d130      	bne.n	8000d50 <HAL_GPIO_Init+0xbc>
      {
        /* Check the Speed parameter */
        assert_param(IS_GPIO_SPEED(GPIO_Init->Speed));
        /* Configure the IO Speed */
        temp = GPIOx->OSPEEDR; 
 8000cee:	687b      	ldr	r3, [r7, #4]
 8000cf0:	689b      	ldr	r3, [r3, #8]
 8000cf2:	61bb      	str	r3, [r7, #24]
        temp &= ~(GPIO_OSPEEDER_OSPEEDR0 << (position * 2U));
 8000cf4:	69fb      	ldr	r3, [r7, #28]
 8000cf6:	005b      	lsls	r3, r3, #1
 8000cf8:	2203      	movs	r2, #3
 8000cfa:	fa02 f303 	lsl.w	r3, r2, r3
 8000cfe:	43db      	mvns	r3, r3
 8000d00:	69ba      	ldr	r2, [r7, #24]
 8000d02:	4013      	ands	r3, r2
 8000d04:	61bb      	str	r3, [r7, #24]
        temp |= (GPIO_Init->Speed << (position * 2U));
 8000d06:	683b      	ldr	r3, [r7, #0]
 8000d08:	68da      	ldr	r2, [r3, #12]
 8000d0a:	69fb      	ldr	r3, [r7, #28]
 8000d0c:	005b      	lsls	r3, r3, #1
 8000d0e:	fa02 f303 	lsl.w	r3, r2, r3
 8000d12:	69ba      	ldr	r2, [r7, #24]
 8000d14:	4313      	orrs	r3, r2
 8000d16:	61bb      	str	r3, [r7, #24]
        GPIOx->OSPEEDR = temp;
 8000d18:	687b      	ldr	r3, [r7, #4]
 8000d1a:	69ba      	ldr	r2, [r7, #24]
 8000d1c:	609a      	str	r2, [r3, #8]

        /* Configure the IO Output Type */
        temp = GPIOx->OTYPER;
 8000d1e:	687b      	ldr	r3, [r7, #4]
 8000d20:	685b      	ldr	r3, [r3, #4]
 8000d22:	61bb      	str	r3, [r7, #24]
        temp &= ~(GPIO_OTYPER_OT_0 << position) ;
 8000d24:	2201      	movs	r2, #1
 8000d26:	69fb      	ldr	r3, [r7, #28]
 8000d28:	fa02 f303 	lsl.w	r3, r2, r3
 8000d2c:	43db      	mvns	r3, r3
 8000d2e:	69ba      	ldr	r2, [r7, #24]
 8000d30:	4013      	ands	r3, r2
 8000d32:	61bb      	str	r3, [r7, #24]
        temp |= (((GPIO_Init->Mode & GPIO_OUTPUT_TYPE) >> 4U) << position);
 8000d34:	683b      	ldr	r3, [r7, #0]
 8000d36:	685b      	ldr	r3, [r3, #4]
 8000d38:	091b      	lsrs	r3, r3, #4
 8000d3a:	f003 0201 	and.w	r2, r3, #1
 8000d3e:	69fb      	ldr	r3, [r7, #28]
 8000d40:	fa02 f303 	lsl.w	r3, r2, r3
 8000d44:	69ba      	ldr	r2, [r7, #24]
 8000d46:	4313      	orrs	r3, r2
 8000d48:	61bb      	str	r3, [r7, #24]
        GPIOx->OTYPER = temp;
 8000d4a:	687b      	ldr	r3, [r7, #4]
 8000d4c:	69ba      	ldr	r2, [r7, #24]
 8000d4e:	605a      	str	r2, [r3, #4]
       }

      /* Activate the Pull-up or Pull down resistor for the current IO */
      temp = GPIOx->PUPDR;
 8000d50:	687b      	ldr	r3, [r7, #4]
 8000d52:	68db      	ldr	r3, [r3, #12]
 8000d54:	61bb      	str	r3, [r7, #24]
      temp &= ~(GPIO_PUPDR_PUPDR0 << (position * 2U));
 8000d56:	69fb      	ldr	r3, [r7, #28]
 8000d58:	005b      	lsls	r3, r3, #1
 8000d5a:	2203      	movs	r2, #3
 8000d5c:	fa02 f303 	lsl.w	r3, r2, r3
 8000d60:	43db      	mvns	r3, r3
 8000d62:	69ba      	ldr	r2, [r7, #24]
 8000d64:	4013      	ands	r3, r2
 8000d66:	61bb      	str	r3, [r7, #24]
      temp |= ((GPIO_Init->Pull) << (position * 2U));
 8000d68:	683b      	ldr	r3, [r7, #0]
 8000d6a:	689a      	ldr	r2, [r3, #8]
 8000d6c:	69fb      	ldr	r3, [r7, #28]
 8000d6e:	005b      	lsls	r3, r3, #1
 8000d70:	fa02 f303 	lsl.w	r3, r2, r3
 8000d74:	69ba      	ldr	r2, [r7, #24]
 8000d76:	4313      	orrs	r3, r2
 8000d78:	61bb      	str	r3, [r7, #24]
      GPIOx->PUPDR = temp;
 8000d7a:	687b      	ldr	r3, [r7, #4]
 8000d7c:	69ba      	ldr	r2, [r7, #24]
 8000d7e:	60da      	str	r2, [r3, #12]

      /* In case of Alternate function mode selection */
      if((GPIO_Init->Mode == GPIO_MODE_AF_PP) || (GPIO_Init->Mode == GPIO_MODE_AF_OD))
 8000d80:	683b      	ldr	r3, [r7, #0]
 8000d82:	685b      	ldr	r3, [r3, #4]
 8000d84:	2b02      	cmp	r3, #2
 8000d86:	d003      	beq.n	8000d90 <HAL_GPIO_Init+0xfc>
 8000d88:	683b      	ldr	r3, [r7, #0]
 8000d8a:	685b      	ldr	r3, [r3, #4]
 8000d8c:	2b12      	cmp	r3, #18
 8000d8e:	d123      	bne.n	8000dd8 <HAL_GPIO_Init+0x144>
      {
        /* Check the Alternate function parameter */
        assert_param(IS_GPIO_AF(GPIO_Init->Alternate));
        /* Configure Alternate function mapped with the current IO */
        temp = GPIOx->AFR[position >> 3U];
 8000d90:	69fb      	ldr	r3, [r7, #28]
 8000d92:	08da      	lsrs	r2, r3, #3
 8000d94:	687b      	ldr	r3, [r7, #4]
 8000d96:	3208      	adds	r2, #8
 8000d98:	f853 3022 	ldr.w	r3, [r3, r2, lsl #2]
 8000d9c:	61bb      	str	r3, [r7, #24]
        temp &= ~(0xFU << ((uint32_t)(position & 0x07U) * 4U)) ;
 8000d9e:	69fb      	ldr	r3, [r7, #28]
 8000da0:	f003 0307 	and.w	r3, r3, #7
 8000da4:	009b      	lsls	r3, r3, #2
 8000da6:	220f      	movs	r2, #15
 8000da8:	fa02 f303 	lsl.w	r3, r2, r3
 8000dac:	43db      	mvns	r3, r3
 8000dae:	69ba      	ldr	r2, [r7, #24]
 8000db0:	4013      	ands	r3, r2
 8000db2:	61bb      	str	r3, [r7, #24]
        temp |= ((uint32_t)(GPIO_Init->Alternate) << (((uint32_t)position & 0x07U) * 4U));
 8000db4:	683b      	ldr	r3, [r7, #0]
 8000db6:	691a      	ldr	r2, [r3, #16]
 8000db8:	69fb      	ldr	r3, [r7, #28]
 8000dba:	f003 0307 	and.w	r3, r3, #7
 8000dbe:	009b      	lsls	r3, r3, #2
 8000dc0:	fa02 f303 	lsl.w	r3, r2, r3
 8000dc4:	69ba      	ldr	r2, [r7, #24]
 8000dc6:	4313      	orrs	r3, r2
 8000dc8:	61bb      	str	r3, [r7, #24]
        GPIOx->AFR[position >> 3U] = temp;
 8000dca:	69fb      	ldr	r3, [r7, #28]
 8000dcc:	08da      	lsrs	r2, r3, #3
 8000dce:	687b      	ldr	r3, [r7, #4]
 8000dd0:	3208      	adds	r2, #8
 8000dd2:	69b9      	ldr	r1, [r7, #24]
 8000dd4:	f843 1022 	str.w	r1, [r3, r2, lsl #2]
      }

      /* Configure IO Direction mode (Input, Output, Alternate or Analog) */
      temp = GPIOx->MODER;
 8000dd8:	687b      	ldr	r3, [r7, #4]
 8000dda:	681b      	ldr	r3, [r3, #0]
 8000ddc:	61bb      	str	r3, [r7, #24]
      temp &= ~(GPIO_MODER_MODER0 << (position * 2U));
 8000dde:	69fb      	ldr	r3, [r7, #28]
 8000de0:	005b      	lsls	r3, r3, #1
 8000de2:	2203      	movs	r2, #3
 8000de4:	fa02 f303 	lsl.w	r3, r2, r3
 8000de8:	43db      	mvns	r3, r3
 8000dea:	69ba      	ldr	r2, [r7, #24]
 8000dec:	4013      	ands	r3, r2
 8000dee:	61bb      	str	r3, [r7, #24]
      temp |= ((GPIO_Init->Mode & GPIO_MODE) << (position * 2U));
 8000df0:	683b      	ldr	r3, [r7, #0]
 8000df2:	685b      	ldr	r3, [r3, #4]
 8000df4:	f003 0203 	and.w	r2, r3, #3
 8000df8:	69fb      	ldr	r3, [r7, #28]
 8000dfa:	005b      	lsls	r3, r3, #1
 8000dfc:	fa02 f303 	lsl.w	r3, r2, r3
 8000e00:	69ba      	ldr	r2, [r7, #24]
 8000e02:	4313      	orrs	r3, r2
 8000e04:	61bb      	str	r3, [r7, #24]
      GPIOx->MODER = temp;
 8000e06:	687b      	ldr	r3, [r7, #4]
 8000e08:	69ba      	ldr	r2, [r7, #24]
 8000e0a:	601a      	str	r2, [r3, #0]

      /*--------------------- EXTI Mode Configuration ------------------------*/
      /* Configure the External Interrupt or event for the current IO */
      if((GPIO_Init->Mode & EXTI_MODE) == EXTI_MODE)
 8000e0c:	683b      	ldr	r3, [r7, #0]
 8000e0e:	685b      	ldr	r3, [r3, #4]
 8000e10:	f003 5380 	and.w	r3, r3, #268435456	; 0x10000000
 8000e14:	2b00      	cmp	r3, #0
 8000e16:	f000 80b4 	beq.w	8000f82 <HAL_GPIO_Init+0x2ee>
      {
        /* Enable SYSCFG Clock */
        __HAL_RCC_SYSCFG_CLK_ENABLE();
 8000e1a:	2300      	movs	r3, #0
 8000e1c:	60fb      	str	r3, [r7, #12]
 8000e1e:	4b5f      	ldr	r3, [pc, #380]	; (8000f9c <HAL_GPIO_Init+0x308>)
 8000e20:	6c5b      	ldr	r3, [r3, #68]	; 0x44
 8000e22:	4a5e      	ldr	r2, [pc, #376]	; (8000f9c <HAL_GPIO_Init+0x308>)
 8000e24:	f443 4380 	orr.w	r3, r3, #16384	; 0x4000
 8000e28:	6453      	str	r3, [r2, #68]	; 0x44
 8000e2a:	4b5c      	ldr	r3, [pc, #368]	; (8000f9c <HAL_GPIO_Init+0x308>)
 8000e2c:	6c5b      	ldr	r3, [r3, #68]	; 0x44
 8000e2e:	f403 4380 	and.w	r3, r3, #16384	; 0x4000
 8000e32:	60fb      	str	r3, [r7, #12]
 8000e34:	68fb      	ldr	r3, [r7, #12]

        temp = SYSCFG->EXTICR[position >> 2U];
 8000e36:	4a5a      	ldr	r2, [pc, #360]	; (8000fa0 <HAL_GPIO_Init+0x30c>)
 8000e38:	69fb      	ldr	r3, [r7, #28]
 8000e3a:	089b      	lsrs	r3, r3, #2
 8000e3c:	3302      	adds	r3, #2
 8000e3e:	f852 3023 	ldr.w	r3, [r2, r3, lsl #2]
 8000e42:	61bb      	str	r3, [r7, #24]
        temp &= ~(0x0FU << (4U * (position & 0x03U)));
 8000e44:	69fb      	ldr	r3, [r7, #28]
 8000e46:	f003 0303 	and.w	r3, r3, #3
 8000e4a:	009b      	lsls	r3, r3, #2
 8000e4c:	220f      	movs	r2, #15
 8000e4e:	fa02 f303 	lsl.w	r3, r2, r3
 8000e52:	43db      	mvns	r3, r3
 8000e54:	69ba      	ldr	r2, [r7, #24]
 8000e56:	4013      	ands	r3, r2
 8000e58:	61bb      	str	r3, [r7, #24]
        temp |= ((uint32_t)(GPIO_GET_INDEX(GPIOx)) << (4U * (position & 0x03U)));
 8000e5a:	687b      	ldr	r3, [r7, #4]
 8000e5c:	4a51      	ldr	r2, [pc, #324]	; (8000fa4 <HAL_GPIO_Init+0x310>)
 8000e5e:	4293      	cmp	r3, r2
 8000e60:	d02b      	beq.n	8000eba <HAL_GPIO_Init+0x226>
 8000e62:	687b      	ldr	r3, [r7, #4]
 8000e64:	4a50      	ldr	r2, [pc, #320]	; (8000fa8 <HAL_GPIO_Init+0x314>)
 8000e66:	4293      	cmp	r3, r2
 8000e68:	d025      	beq.n	8000eb6 <HAL_GPIO_Init+0x222>
 8000e6a:	687b      	ldr	r3, [r7, #4]
 8000e6c:	4a4f      	ldr	r2, [pc, #316]	; (8000fac <HAL_GPIO_Init+0x318>)
 8000e6e:	4293      	cmp	r3, r2
 8000e70:	d01f      	beq.n	8000eb2 <HAL_GPIO_Init+0x21e>
 8000e72:	687b      	ldr	r3, [r7, #4]
 8000e74:	4a4e      	ldr	r2, [pc, #312]	; (8000fb0 <HAL_GPIO_Init+0x31c>)
 8000e76:	4293      	cmp	r3, r2
 8000e78:	d019      	beq.n	8000eae <HAL_GPIO_Init+0x21a>
 8000e7a:	687b      	ldr	r3, [r7, #4]
 8000e7c:	4a4d      	ldr	r2, [pc, #308]	; (8000fb4 <HAL_GPIO_Init+0x320>)
 8000e7e:	4293      	cmp	r3, r2
 8000e80:	d013      	beq.n	8000eaa <HAL_GPIO_Init+0x216>
 8000e82:	687b      	ldr	r3, [r7, #4]
 8000e84:	4a4c      	ldr	r2, [pc, #304]	; (8000fb8 <HAL_GPIO_Init+0x324>)
 8000e86:	4293      	cmp	r3, r2
 8000e88:	d00d      	beq.n	8000ea6 <HAL_GPIO_Init+0x212>
 8000e8a:	687b      	ldr	r3, [r7, #4]
 8000e8c:	4a4b      	ldr	r2, [pc, #300]	; (8000fbc <HAL_GPIO_Init+0x328>)
 8000e8e:	4293      	cmp	r3, r2
 8000e90:	d007      	beq.n	8000ea2 <HAL_GPIO_Init+0x20e>
 8000e92:	687b      	ldr	r3, [r7, #4]
 8000e94:	4a4a      	ldr	r2, [pc, #296]	; (8000fc0 <HAL_GPIO_Init+0x32c>)
 8000e96:	4293      	cmp	r3, r2
 8000e98:	d101      	bne.n	8000e9e <HAL_GPIO_Init+0x20a>
 8000e9a:	2307      	movs	r3, #7
 8000e9c:	e00e      	b.n	8000ebc <HAL_GPIO_Init+0x228>
 8000e9e:	2308      	movs	r3, #8
 8000ea0:	e00c      	b.n	8000ebc <HAL_GPIO_Init+0x228>
 8000ea2:	2306      	movs	r3, #6
 8000ea4:	e00a      	b.n	8000ebc <HAL_GPIO_Init+0x228>
 8000ea6:	2305      	movs	r3, #5
 8000ea8:	e008      	b.n	8000ebc <HAL_GPIO_Init+0x228>
 8000eaa:	2304      	movs	r3, #4
 8000eac:	e006      	b.n	8000ebc <HAL_GPIO_Init+0x228>
 8000eae:	2303      	movs	r3, #3
 8000eb0:	e004      	b.n	8000ebc <HAL_GPIO_Init+0x228>
 8000eb2:	2302      	movs	r3, #2
 8000eb4:	e002      	b.n	8000ebc <HAL_GPIO_Init+0x228>
 8000eb6:	2301      	movs	r3, #1
 8000eb8:	e000      	b.n	8000ebc <HAL_GPIO_Init+0x228>
 8000eba:	2300      	movs	r3, #0
 8000ebc:	69fa      	ldr	r2, [r7, #28]
 8000ebe:	f002 0203 	and.w	r2, r2, #3
 8000ec2:	0092      	lsls	r2, r2, #2
 8000ec4:	4093      	lsls	r3, r2
 8000ec6:	69ba      	ldr	r2, [r7, #24]
 8000ec8:	4313      	orrs	r3, r2
 8000eca:	61bb      	str	r3, [r7, #24]
        SYSCFG->EXTICR[position >> 2U] = temp;
 8000ecc:	4934      	ldr	r1, [pc, #208]	; (8000fa0 <HAL_GPIO_Init+0x30c>)
 8000ece:	69fb      	ldr	r3, [r7, #28]
 8000ed0:	089b      	lsrs	r3, r3, #2
 8000ed2:	3302      	adds	r3, #2
 8000ed4:	69ba      	ldr	r2, [r7, #24]
 8000ed6:	f841 2023 	str.w	r2, [r1, r3, lsl #2]

        /* Clear EXTI line configuration */
        temp = EXTI->IMR;
 8000eda:	4b3a      	ldr	r3, [pc, #232]	; (8000fc4 <HAL_GPIO_Init+0x330>)
 8000edc:	681b      	ldr	r3, [r3, #0]
 8000ede:	61bb      	str	r3, [r7, #24]
        temp &= ~((uint32_t)iocurrent);
 8000ee0:	693b      	ldr	r3, [r7, #16]
 8000ee2:	43db      	mvns	r3, r3
 8000ee4:	69ba      	ldr	r2, [r7, #24]
 8000ee6:	4013      	ands	r3, r2
 8000ee8:	61bb      	str	r3, [r7, #24]
        if((GPIO_Init->Mode & GPIO_MODE_IT) == GPIO_MODE_IT)
 8000eea:	683b      	ldr	r3, [r7, #0]
 8000eec:	685b      	ldr	r3, [r3, #4]
 8000eee:	f403 3380 	and.w	r3, r3, #65536	; 0x10000
 8000ef2:	2b00      	cmp	r3, #0
 8000ef4:	d003      	beq.n	8000efe <HAL_GPIO_Init+0x26a>
        {
          temp |= iocurrent;
 8000ef6:	69ba      	ldr	r2, [r7, #24]
 8000ef8:	693b      	ldr	r3, [r7, #16]
 8000efa:	4313      	orrs	r3, r2
 8000efc:	61bb      	str	r3, [r7, #24]
        }
        EXTI->IMR = temp;
 8000efe:	4a31      	ldr	r2, [pc, #196]	; (8000fc4 <HAL_GPIO_Init+0x330>)
 8000f00:	69bb      	ldr	r3, [r7, #24]
 8000f02:	6013      	str	r3, [r2, #0]

        temp = EXTI->EMR;
 8000f04:	4b2f      	ldr	r3, [pc, #188]	; (8000fc4 <HAL_GPIO_Init+0x330>)
 8000f06:	685b      	ldr	r3, [r3, #4]
 8000f08:	61bb      	str	r3, [r7, #24]
        temp &= ~((uint32_t)iocurrent);
 8000f0a:	693b      	ldr	r3, [r7, #16]
 8000f0c:	43db      	mvns	r3, r3
 8000f0e:	69ba      	ldr	r2, [r7, #24]
 8000f10:	4013      	ands	r3, r2
 8000f12:	61bb      	str	r3, [r7, #24]
        if((GPIO_Init->Mode & GPIO_MODE_EVT) == GPIO_MODE_EVT)
 8000f14:	683b      	ldr	r3, [r7, #0]
 8000f16:	685b      	ldr	r3, [r3, #4]
 8000f18:	f403 3300 	and.w	r3, r3, #131072	; 0x20000
 8000f1c:	2b00      	cmp	r3, #0
 8000f1e:	d003      	beq.n	8000f28 <HAL_GPIO_Init+0x294>
        {
          temp |= iocurrent;
 8000f20:	69ba      	ldr	r2, [r7, #24]
 8000f22:	693b      	ldr	r3, [r7, #16]
 8000f24:	4313      	orrs	r3, r2
 8000f26:	61bb      	str	r3, [r7, #24]
        }
        EXTI->EMR = temp;
 8000f28:	4a26      	ldr	r2, [pc, #152]	; (8000fc4 <HAL_GPIO_Init+0x330>)
 8000f2a:	69bb      	ldr	r3, [r7, #24]
 8000f2c:	6053      	str	r3, [r2, #4]

        /* Clear Rising Falling edge configuration */
        temp = EXTI->RTSR;
 8000f2e:	4b25      	ldr	r3, [pc, #148]	; (8000fc4 <HAL_GPIO_Init+0x330>)
 8000f30:	689b      	ldr	r3, [r3, #8]
 8000f32:	61bb      	str	r3, [r7, #24]
        temp &= ~((uint32_t)iocurrent);
 8000f34:	693b      	ldr	r3, [r7, #16]
 8000f36:	43db      	mvns	r3, r3
 8000f38:	69ba      	ldr	r2, [r7, #24]
 8000f3a:	4013      	ands	r3, r2
 8000f3c:	61bb      	str	r3, [r7, #24]
        if((GPIO_Init->Mode & RISING_EDGE) == RISING_EDGE)
 8000f3e:	683b      	ldr	r3, [r7, #0]
 8000f40:	685b      	ldr	r3, [r3, #4]
 8000f42:	f403 1380 	and.w	r3, r3, #1048576	; 0x100000
 8000f46:	2b00      	cmp	r3, #0
 8000f48:	d003      	beq.n	8000f52 <HAL_GPIO_Init+0x2be>
        {
          temp |= iocurrent;
 8000f4a:	69ba      	ldr	r2, [r7, #24]
 8000f4c:	693b      	ldr	r3, [r7, #16]
 8000f4e:	4313      	orrs	r3, r2
 8000f50:	61bb      	str	r3, [r7, #24]
        }
        EXTI->RTSR = temp;
 8000f52:	4a1c      	ldr	r2, [pc, #112]	; (8000fc4 <HAL_GPIO_Init+0x330>)
 8000f54:	69bb      	ldr	r3, [r7, #24]
 8000f56:	6093      	str	r3, [r2, #8]

        temp = EXTI->FTSR;
 8000f58:	4b1a      	ldr	r3, [pc, #104]	; (8000fc4 <HAL_GPIO_Init+0x330>)
 8000f5a:	68db      	ldr	r3, [r3, #12]
 8000f5c:	61bb      	str	r3, [r7, #24]
        temp &= ~((uint32_t)iocurrent);
 8000f5e:	693b      	ldr	r3, [r7, #16]
 8000f60:	43db      	mvns	r3, r3
 8000f62:	69ba      	ldr	r2, [r7, #24]
 8000f64:	4013      	ands	r3, r2
 8000f66:	61bb      	str	r3, [r7, #24]
        if((GPIO_Init->Mode & FALLING_EDGE) == FALLING_EDGE)
 8000f68:	683b      	ldr	r3, [r7, #0]
 8000f6a:	685b      	ldr	r3, [r3, #4]
 8000f6c:	f403 1300 	and.w	r3, r3, #2097152	; 0x200000
 8000f70:	2b00      	cmp	r3, #0
 8000f72:	d003      	beq.n	8000f7c <HAL_GPIO_Init+0x2e8>
        {
          temp |= iocurrent;
 8000f74:	69ba      	ldr	r2, [r7, #24]
 8000f76:	693b      	ldr	r3, [r7, #16]
 8000f78:	4313      	orrs	r3, r2
 8000f7a:	61bb      	str	r3, [r7, #24]
        }
        EXTI->FTSR = temp;
 8000f7c:	4a11      	ldr	r2, [pc, #68]	; (8000fc4 <HAL_GPIO_Init+0x330>)
 8000f7e:	69bb      	ldr	r3, [r7, #24]
 8000f80:	60d3      	str	r3, [r2, #12]
  for(position = 0U; position < GPIO_NUMBER; position++)
 8000f82:	69fb      	ldr	r3, [r7, #28]
 8000f84:	3301      	adds	r3, #1
 8000f86:	61fb      	str	r3, [r7, #28]
 8000f88:	69fb      	ldr	r3, [r7, #28]
 8000f8a:	2b0f      	cmp	r3, #15
 8000f8c:	f67f ae90 	bls.w	8000cb0 <HAL_GPIO_Init+0x1c>
      }
    }
  }
}
 8000f90:	bf00      	nop
 8000f92:	3724      	adds	r7, #36	; 0x24
 8000f94:	46bd      	mov	sp, r7
 8000f96:	f85d 7b04 	ldr.w	r7, [sp], #4
 8000f9a:	4770      	bx	lr
 8000f9c:	40023800 	.word	0x40023800
 8000fa0:	40013800 	.word	0x40013800
 8000fa4:	40020000 	.word	0x40020000
 8000fa8:	40020400 	.word	0x40020400
 8000fac:	40020800 	.word	0x40020800
 8000fb0:	40020c00 	.word	0x40020c00
 8000fb4:	40021000 	.word	0x40021000
 8000fb8:	40021400 	.word	0x40021400
 8000fbc:	40021800 	.word	0x40021800
 8000fc0:	40021c00 	.word	0x40021c00
 8000fc4:	40013c00 	.word	0x40013c00

08000fc8 <HAL_RCC_OscConfig>:
  *         supported by this API. User should request a transition to HSE Off
  *         first and then HSE On or HSE Bypass.
  * @retval HAL status
  */
__weak HAL_StatusTypeDef HAL_RCC_OscConfig(RCC_OscInitTypeDef  *RCC_OscInitStruct)
{
 8000fc8:	b580      	push	{r7, lr}
 8000fca:	b086      	sub	sp, #24
 8000fcc:	af00      	add	r7, sp, #0
 8000fce:	6078      	str	r0, [r7, #4]
  uint32_t tickstart, pll_config;

  /* Check Null pointer */
  if(RCC_OscInitStruct == NULL)
 8000fd0:	687b      	ldr	r3, [r7, #4]
 8000fd2:	2b00      	cmp	r3, #0
 8000fd4:	d101      	bne.n	8000fda <HAL_RCC_OscConfig+0x12>
  {
    return HAL_ERROR;
 8000fd6:	2301      	movs	r3, #1
 8000fd8:	e25b      	b.n	8001492 <HAL_RCC_OscConfig+0x4ca>
  }

  /* Check the parameters */
  assert_param(IS_RCC_OSCILLATORTYPE(RCC_OscInitStruct->OscillatorType));
  /*------------------------------- HSE Configuration ------------------------*/
  if(((RCC_OscInitStruct->OscillatorType) & RCC_OSCILLATORTYPE_HSE) == RCC_OSCILLATORTYPE_HSE)
 8000fda:	687b      	ldr	r3, [r7, #4]
 8000fdc:	681b      	ldr	r3, [r3, #0]
 8000fde:	f003 0301 	and.w	r3, r3, #1
 8000fe2:	2b00      	cmp	r3, #0
 8000fe4:	d075      	beq.n	80010d2 <HAL_RCC_OscConfig+0x10a>
  {
    /* Check the parameters */
    assert_param(IS_RCC_HSE(RCC_OscInitStruct->HSEState));
    /* When the HSE is used as system clock or clock source for PLL in these cases HSE will not disabled */
    if((__HAL_RCC_GET_SYSCLK_SOURCE() == RCC_CFGR_SWS_HSE) ||\
 8000fe6:	4ba3      	ldr	r3, [pc, #652]	; (8001274 <HAL_RCC_OscConfig+0x2ac>)
 8000fe8:	689b      	ldr	r3, [r3, #8]
 8000fea:	f003 030c 	and.w	r3, r3, #12
 8000fee:	2b04      	cmp	r3, #4
 8000ff0:	d00c      	beq.n	800100c <HAL_RCC_OscConfig+0x44>
      ((__HAL_RCC_GET_SYSCLK_SOURCE() == RCC_CFGR_SWS_PLL) && ((RCC->PLLCFGR & RCC_PLLCFGR_PLLSRC) == RCC_PLLCFGR_PLLSRC_HSE)))
 8000ff2:	4ba0      	ldr	r3, [pc, #640]	; (8001274 <HAL_RCC_OscConfig+0x2ac>)
 8000ff4:	689b      	ldr	r3, [r3, #8]
 8000ff6:	f003 030c 	and.w	r3, r3, #12
    if((__HAL_RCC_GET_SYSCLK_SOURCE() == RCC_CFGR_SWS_HSE) ||\
 8000ffa:	2b08      	cmp	r3, #8
 8000ffc:	d112      	bne.n	8001024 <HAL_RCC_OscConfig+0x5c>
      ((__HAL_RCC_GET_SYSCLK_SOURCE() == RCC_CFGR_SWS_PLL) && ((RCC->PLLCFGR & RCC_PLLCFGR_PLLSRC) == RCC_PLLCFGR_PLLSRC_HSE)))
 8000ffe:	4b9d      	ldr	r3, [pc, #628]	; (8001274 <HAL_RCC_OscConfig+0x2ac>)
 8001000:	685b      	ldr	r3, [r3, #4]
 8001002:	f403 0380 	and.w	r3, r3, #4194304	; 0x400000
 8001006:	f5b3 0f80 	cmp.w	r3, #4194304	; 0x400000
 800100a:	d10b      	bne.n	8001024 <HAL_RCC_OscConfig+0x5c>
    {
      if((__HAL_RCC_GET_FLAG(RCC_FLAG_HSERDY) != RESET) && (RCC_OscInitStruct->HSEState == RCC_HSE_OFF))
 800100c:	4b99      	ldr	r3, [pc, #612]	; (8001274 <HAL_RCC_OscConfig+0x2ac>)
 800100e:	681b      	ldr	r3, [r3, #0]
 8001010:	f403 3300 	and.w	r3, r3, #131072	; 0x20000
 8001014:	2b00      	cmp	r3, #0
 8001016:	d05b      	beq.n	80010d0 <HAL_RCC_OscConfig+0x108>
 8001018:	687b      	ldr	r3, [r7, #4]
 800101a:	685b      	ldr	r3, [r3, #4]
 800101c:	2b00      	cmp	r3, #0
 800101e:	d157      	bne.n	80010d0 <HAL_RCC_OscConfig+0x108>
      {
        return HAL_ERROR;
 8001020:	2301      	movs	r3, #1
 8001022:	e236      	b.n	8001492 <HAL_RCC_OscConfig+0x4ca>
      }
    }
    else
    {
      /* Set the new HSE configuration ---------------------------------------*/
      __HAL_RCC_HSE_CONFIG(RCC_OscInitStruct->HSEState);
 8001024:	687b      	ldr	r3, [r7, #4]
 8001026:	685b      	ldr	r3, [r3, #4]
 8001028:	f5b3 3f80 	cmp.w	r3, #65536	; 0x10000
 800102c:	d106      	bne.n	800103c <HAL_RCC_OscConfig+0x74>
 800102e:	4b91      	ldr	r3, [pc, #580]	; (8001274 <HAL_RCC_OscConfig+0x2ac>)
 8001030:	681b      	ldr	r3, [r3, #0]
 8001032:	4a90      	ldr	r2, [pc, #576]	; (8001274 <HAL_RCC_OscConfig+0x2ac>)
 8001034:	f443 3380 	orr.w	r3, r3, #65536	; 0x10000
 8001038:	6013      	str	r3, [r2, #0]
 800103a:	e01d      	b.n	8001078 <HAL_RCC_OscConfig+0xb0>
 800103c:	687b      	ldr	r3, [r7, #4]
 800103e:	685b      	ldr	r3, [r3, #4]
 8001040:	f5b3 2fa0 	cmp.w	r3, #327680	; 0x50000
 8001044:	d10c      	bne.n	8001060 <HAL_RCC_OscConfig+0x98>
 8001046:	4b8b      	ldr	r3, [pc, #556]	; (8001274 <HAL_RCC_OscConfig+0x2ac>)
 8001048:	681b      	ldr	r3, [r3, #0]
 800104a:	4a8a      	ldr	r2, [pc, #552]	; (8001274 <HAL_RCC_OscConfig+0x2ac>)
 800104c:	f443 2380 	orr.w	r3, r3, #262144	; 0x40000
 8001050:	6013      	str	r3, [r2, #0]
 8001052:	4b88      	ldr	r3, [pc, #544]	; (8001274 <HAL_RCC_OscConfig+0x2ac>)
 8001054:	681b      	ldr	r3, [r3, #0]
 8001056:	4a87      	ldr	r2, [pc, #540]	; (8001274 <HAL_RCC_OscConfig+0x2ac>)
 8001058:	f443 3380 	orr.w	r3, r3, #65536	; 0x10000
 800105c:	6013      	str	r3, [r2, #0]
 800105e:	e00b      	b.n	8001078 <HAL_RCC_OscConfig+0xb0>
 8001060:	4b84      	ldr	r3, [pc, #528]	; (8001274 <HAL_RCC_OscConfig+0x2ac>)
 8001062:	681b      	ldr	r3, [r3, #0]
 8001064:	4a83      	ldr	r2, [pc, #524]	; (8001274 <HAL_RCC_OscConfig+0x2ac>)
 8001066:	f423 3380 	bic.w	r3, r3, #65536	; 0x10000
 800106a:	6013      	str	r3, [r2, #0]
 800106c:	4b81      	ldr	r3, [pc, #516]	; (8001274 <HAL_RCC_OscConfig+0x2ac>)
 800106e:	681b      	ldr	r3, [r3, #0]
 8001070:	4a80      	ldr	r2, [pc, #512]	; (8001274 <HAL_RCC_OscConfig+0x2ac>)
 8001072:	f423 2380 	bic.w	r3, r3, #262144	; 0x40000
 8001076:	6013      	str	r3, [r2, #0]

      /* Check the HSE State */
      if((RCC_OscInitStruct->HSEState) != RCC_HSE_OFF)
 8001078:	687b      	ldr	r3, [r7, #4]
 800107a:	685b      	ldr	r3, [r3, #4]
 800107c:	2b00      	cmp	r3, #0
 800107e:	d013      	beq.n	80010a8 <HAL_RCC_OscConfig+0xe0>
      {
        /* Get Start Tick */
        tickstart = HAL_GetTick();
 8001080:	f7ff fcc0 	bl	8000a04 <HAL_GetTick>
 8001084:	6138      	str	r0, [r7, #16]

        /* Wait till HSE is ready */
        while(__HAL_RCC_GET_FLAG(RCC_FLAG_HSERDY) == RESET)
 8001086:	e008      	b.n	800109a <HAL_RCC_OscConfig+0xd2>
        {
          if((HAL_GetTick() - tickstart ) > HSE_TIMEOUT_VALUE)
 8001088:	f7ff fcbc 	bl	8000a04 <HAL_GetTick>
 800108c:	4602      	mov	r2, r0
 800108e:	693b      	ldr	r3, [r7, #16]
 8001090:	1ad3      	subs	r3, r2, r3
 8001092:	2b64      	cmp	r3, #100	; 0x64
 8001094:	d901      	bls.n	800109a <HAL_RCC_OscConfig+0xd2>
          {
            return HAL_TIMEOUT;
 8001096:	2303      	movs	r3, #3
 8001098:	e1fb      	b.n	8001492 <HAL_RCC_OscConfig+0x4ca>
        while(__HAL_RCC_GET_FLAG(RCC_FLAG_HSERDY) == RESET)
 800109a:	4b76      	ldr	r3, [pc, #472]	; (8001274 <HAL_RCC_OscConfig+0x2ac>)
 800109c:	681b      	ldr	r3, [r3, #0]
 800109e:	f403 3300 	and.w	r3, r3, #131072	; 0x20000
 80010a2:	2b00      	cmp	r3, #0
 80010a4:	d0f0      	beq.n	8001088 <HAL_RCC_OscConfig+0xc0>
 80010a6:	e014      	b.n	80010d2 <HAL_RCC_OscConfig+0x10a>
        }
      }
      else
      {
        /* Get Start Tick */
        tickstart = HAL_GetTick();
 80010a8:	f7ff fcac 	bl	8000a04 <HAL_GetTick>
 80010ac:	6138      	str	r0, [r7, #16]

        /* Wait till HSE is bypassed or disabled */
        while(__HAL_RCC_GET_FLAG(RCC_FLAG_HSERDY) != RESET)
 80010ae:	e008      	b.n	80010c2 <HAL_RCC_OscConfig+0xfa>
        {
          if((HAL_GetTick() - tickstart ) > HSE_TIMEOUT_VALUE)
 80010b0:	f7ff fca8 	bl	8000a04 <HAL_GetTick>
 80010b4:	4602      	mov	r2, r0
 80010b6:	693b      	ldr	r3, [r7, #16]
 80010b8:	1ad3      	subs	r3, r2, r3
 80010ba:	2b64      	cmp	r3, #100	; 0x64
 80010bc:	d901      	bls.n	80010c2 <HAL_RCC_OscConfig+0xfa>
          {
            return HAL_TIMEOUT;
 80010be:	2303      	movs	r3, #3
 80010c0:	e1e7      	b.n	8001492 <HAL_RCC_OscConfig+0x4ca>
        while(__HAL_RCC_GET_FLAG(RCC_FLAG_HSERDY) != RESET)
 80010c2:	4b6c      	ldr	r3, [pc, #432]	; (8001274 <HAL_RCC_OscConfig+0x2ac>)
 80010c4:	681b      	ldr	r3, [r3, #0]
 80010c6:	f403 3300 	and.w	r3, r3, #131072	; 0x20000
 80010ca:	2b00      	cmp	r3, #0
 80010cc:	d1f0      	bne.n	80010b0 <HAL_RCC_OscConfig+0xe8>
 80010ce:	e000      	b.n	80010d2 <HAL_RCC_OscConfig+0x10a>
      if((__HAL_RCC_GET_FLAG(RCC_FLAG_HSERDY) != RESET) && (RCC_OscInitStruct->HSEState == RCC_HSE_OFF))
 80010d0:	bf00      	nop
        }
      }
    }
  }
  /*----------------------------- HSI Configuration --------------------------*/
  if(((RCC_OscInitStruct->OscillatorType) & RCC_OSCILLATORTYPE_HSI) == RCC_OSCILLATORTYPE_HSI)
 80010d2:	687b      	ldr	r3, [r7, #4]
 80010d4:	681b      	ldr	r3, [r3, #0]
 80010d6:	f003 0302 	and.w	r3, r3, #2
 80010da:	2b00      	cmp	r3, #0
 80010dc:	d063      	beq.n	80011a6 <HAL_RCC_OscConfig+0x1de>
    /* Check the parameters */
    assert_param(IS_RCC_HSI(RCC_OscInitStruct->HSIState));
    assert_param(IS_RCC_CALIBRATION_VALUE(RCC_OscInitStruct->HSICalibrationValue));

    /* Check if HSI is used as system clock or as PLL source when PLL is selected as system clock */
    if((__HAL_RCC_GET_SYSCLK_SOURCE() == RCC_CFGR_SWS_HSI) ||\
 80010de:	4b65      	ldr	r3, [pc, #404]	; (8001274 <HAL_RCC_OscConfig+0x2ac>)
 80010e0:	689b      	ldr	r3, [r3, #8]
 80010e2:	f003 030c 	and.w	r3, r3, #12
 80010e6:	2b00      	cmp	r3, #0
 80010e8:	d00b      	beq.n	8001102 <HAL_RCC_OscConfig+0x13a>
      ((__HAL_RCC_GET_SYSCLK_SOURCE() == RCC_CFGR_SWS_PLL) && ((RCC->PLLCFGR & RCC_PLLCFGR_PLLSRC) == RCC_PLLCFGR_PLLSRC_HSI)))
 80010ea:	4b62      	ldr	r3, [pc, #392]	; (8001274 <HAL_RCC_OscConfig+0x2ac>)
 80010ec:	689b      	ldr	r3, [r3, #8]
 80010ee:	f003 030c 	and.w	r3, r3, #12
    if((__HAL_RCC_GET_SYSCLK_SOURCE() == RCC_CFGR_SWS_HSI) ||\
 80010f2:	2b08      	cmp	r3, #8
 80010f4:	d11c      	bne.n	8001130 <HAL_RCC_OscConfig+0x168>
      ((__HAL_RCC_GET_SYSCLK_SOURCE() == RCC_CFGR_SWS_PLL) && ((RCC->PLLCFGR & RCC_PLLCFGR_PLLSRC) == RCC_PLLCFGR_PLLSRC_HSI)))
 80010f6:	4b5f      	ldr	r3, [pc, #380]	; (8001274 <HAL_RCC_OscConfig+0x2ac>)
 80010f8:	685b      	ldr	r3, [r3, #4]
 80010fa:	f403 0380 	and.w	r3, r3, #4194304	; 0x400000
 80010fe:	2b00      	cmp	r3, #0
 8001100:	d116      	bne.n	8001130 <HAL_RCC_OscConfig+0x168>
    {
      /* When HSI is used as system clock it will not disabled */
      if((__HAL_RCC_GET_FLAG(RCC_FLAG_HSIRDY) != RESET) && (RCC_OscInitStruct->HSIState != RCC_HSI_ON))
 8001102:	4b5c      	ldr	r3, [pc, #368]	; (8001274 <HAL_RCC_OscConfig+0x2ac>)
 8001104:	681b      	ldr	r3, [r3, #0]
 8001106:	f003 0302 	and.w	r3, r3, #2
 800110a:	2b00      	cmp	r3, #0
 800110c:	d005      	beq.n	800111a <HAL_RCC_OscConfig+0x152>
 800110e:	687b      	ldr	r3, [r7, #4]
 8001110:	68db      	ldr	r3, [r3, #12]
 8001112:	2b01      	cmp	r3, #1
 8001114:	d001      	beq.n	800111a <HAL_RCC_OscConfig+0x152>
      {
        return HAL_ERROR;
 8001116:	2301      	movs	r3, #1
 8001118:	e1bb      	b.n	8001492 <HAL_RCC_OscConfig+0x4ca>
      }
      /* Otherwise, just the calibration is allowed */
      else
      {
        /* Adjusts the Internal High Speed oscillator (HSI) calibration value.*/
        __HAL_RCC_HSI_CALIBRATIONVALUE_ADJUST(RCC_OscInitStruct->HSICalibrationValue);
 800111a:	4b56      	ldr	r3, [pc, #344]	; (8001274 <HAL_RCC_OscConfig+0x2ac>)
 800111c:	681b      	ldr	r3, [r3, #0]
 800111e:	f023 02f8 	bic.w	r2, r3, #248	; 0xf8
 8001122:	687b      	ldr	r3, [r7, #4]
 8001124:	691b      	ldr	r3, [r3, #16]
 8001126:	00db      	lsls	r3, r3, #3
 8001128:	4952      	ldr	r1, [pc, #328]	; (8001274 <HAL_RCC_OscConfig+0x2ac>)
 800112a:	4313      	orrs	r3, r2
 800112c:	600b      	str	r3, [r1, #0]
      if((__HAL_RCC_GET_FLAG(RCC_FLAG_HSIRDY) != RESET) && (RCC_OscInitStruct->HSIState != RCC_HSI_ON))
 800112e:	e03a      	b.n	80011a6 <HAL_RCC_OscConfig+0x1de>
      }
    }
    else
    {
      /* Check the HSI State */
      if((RCC_OscInitStruct->HSIState)!= RCC_HSI_OFF)
 8001130:	687b      	ldr	r3, [r7, #4]
 8001132:	68db      	ldr	r3, [r3, #12]
 8001134:	2b00      	cmp	r3, #0
 8001136:	d020      	beq.n	800117a <HAL_RCC_OscConfig+0x1b2>
      {
        /* Enable the Internal High Speed oscillator (HSI). */
        __HAL_RCC_HSI_ENABLE();
 8001138:	4b4f      	ldr	r3, [pc, #316]	; (8001278 <HAL_RCC_OscConfig+0x2b0>)
 800113a:	2201      	movs	r2, #1
 800113c:	601a      	str	r2, [r3, #0]

        /* Get Start Tick*/
        tickstart = HAL_GetTick();
 800113e:	f7ff fc61 	bl	8000a04 <HAL_GetTick>
 8001142:	6138      	str	r0, [r7, #16]

        /* Wait till HSI is ready */
        while(__HAL_RCC_GET_FLAG(RCC_FLAG_HSIRDY) == RESET)
 8001144:	e008      	b.n	8001158 <HAL_RCC_OscConfig+0x190>
        {
          if((HAL_GetTick() - tickstart ) > HSI_TIMEOUT_VALUE)
 8001146:	f7ff fc5d 	bl	8000a04 <HAL_GetTick>
 800114a:	4602      	mov	r2, r0
 800114c:	693b      	ldr	r3, [r7, #16]
 800114e:	1ad3      	subs	r3, r2, r3
 8001150:	2b02      	cmp	r3, #2
 8001152:	d901      	bls.n	8001158 <HAL_RCC_OscConfig+0x190>
          {
            return HAL_TIMEOUT;
 8001154:	2303      	movs	r3, #3
 8001156:	e19c      	b.n	8001492 <HAL_RCC_OscConfig+0x4ca>
        while(__HAL_RCC_GET_FLAG(RCC_FLAG_HSIRDY) == RESET)
 8001158:	4b46      	ldr	r3, [pc, #280]	; (8001274 <HAL_RCC_OscConfig+0x2ac>)
 800115a:	681b      	ldr	r3, [r3, #0]
 800115c:	f003 0302 	and.w	r3, r3, #2
 8001160:	2b00      	cmp	r3, #0
 8001162:	d0f0      	beq.n	8001146 <HAL_RCC_OscConfig+0x17e>
          }
        }

        /* Adjusts the Internal High Speed oscillator (HSI) calibration value. */
        __HAL_RCC_HSI_CALIBRATIONVALUE_ADJUST(RCC_OscInitStruct->HSICalibrationValue);
 8001164:	4b43      	ldr	r3, [pc, #268]	; (8001274 <HAL_RCC_OscConfig+0x2ac>)
 8001166:	681b      	ldr	r3, [r3, #0]
 8001168:	f023 02f8 	bic.w	r2, r3, #248	; 0xf8
 800116c:	687b      	ldr	r3, [r7, #4]
 800116e:	691b      	ldr	r3, [r3, #16]
 8001170:	00db      	lsls	r3, r3, #3
 8001172:	4940      	ldr	r1, [pc, #256]	; (8001274 <HAL_RCC_OscConfig+0x2ac>)
 8001174:	4313      	orrs	r3, r2
 8001176:	600b      	str	r3, [r1, #0]
 8001178:	e015      	b.n	80011a6 <HAL_RCC_OscConfig+0x1de>
      }
      else
      {
        /* Disable the Internal High Speed oscillator (HSI). */
        __HAL_RCC_HSI_DISABLE();
 800117a:	4b3f      	ldr	r3, [pc, #252]	; (8001278 <HAL_RCC_OscConfig+0x2b0>)
 800117c:	2200      	movs	r2, #0
 800117e:	601a      	str	r2, [r3, #0]

        /* Get Start Tick*/
        tickstart = HAL_GetTick();
 8001180:	f7ff fc40 	bl	8000a04 <HAL_GetTick>
 8001184:	6138      	str	r0, [r7, #16]

        /* Wait till HSI is ready */
        while(__HAL_RCC_GET_FLAG(RCC_FLAG_HSIRDY) != RESET)
 8001186:	e008      	b.n	800119a <HAL_RCC_OscConfig+0x1d2>
        {
          if((HAL_GetTick() - tickstart ) > HSI_TIMEOUT_VALUE)
 8001188:	f7ff fc3c 	bl	8000a04 <HAL_GetTick>
 800118c:	4602      	mov	r2, r0
 800118e:	693b      	ldr	r3, [r7, #16]
 8001190:	1ad3      	subs	r3, r2, r3
 8001192:	2b02      	cmp	r3, #2
 8001194:	d901      	bls.n	800119a <HAL_RCC_OscConfig+0x1d2>
          {
            return HAL_TIMEOUT;
 8001196:	2303      	movs	r3, #3
 8001198:	e17b      	b.n	8001492 <HAL_RCC_OscConfig+0x4ca>
        while(__HAL_RCC_GET_FLAG(RCC_FLAG_HSIRDY) != RESET)
 800119a:	4b36      	ldr	r3, [pc, #216]	; (8001274 <HAL_RCC_OscConfig+0x2ac>)
 800119c:	681b      	ldr	r3, [r3, #0]
 800119e:	f003 0302 	and.w	r3, r3, #2
 80011a2:	2b00      	cmp	r3, #0
 80011a4:	d1f0      	bne.n	8001188 <HAL_RCC_OscConfig+0x1c0>
        }
      }
    }
  }
  /*------------------------------ LSI Configuration -------------------------*/
  if(((RCC_OscInitStruct->OscillatorType) & RCC_OSCILLATORTYPE_LSI) == RCC_OSCILLATORTYPE_LSI)
 80011a6:	687b      	ldr	r3, [r7, #4]
 80011a8:	681b      	ldr	r3, [r3, #0]
 80011aa:	f003 0308 	and.w	r3, r3, #8
 80011ae:	2b00      	cmp	r3, #0
 80011b0:	d030      	beq.n	8001214 <HAL_RCC_OscConfig+0x24c>
  {
    /* Check the parameters */
    assert_param(IS_RCC_LSI(RCC_OscInitStruct->LSIState));

    /* Check the LSI State */
    if((RCC_OscInitStruct->LSIState)!= RCC_LSI_OFF)
 80011b2:	687b      	ldr	r3, [r7, #4]
 80011b4:	695b      	ldr	r3, [r3, #20]
 80011b6:	2b00      	cmp	r3, #0
 80011b8:	d016      	beq.n	80011e8 <HAL_RCC_OscConfig+0x220>
    {
      /* Enable the Internal Low Speed oscillator (LSI). */
      __HAL_RCC_LSI_ENABLE();
 80011ba:	4b30      	ldr	r3, [pc, #192]	; (800127c <HAL_RCC_OscConfig+0x2b4>)
 80011bc:	2201      	movs	r2, #1
 80011be:	601a      	str	r2, [r3, #0]

      /* Get Start Tick*/
      tickstart = HAL_GetTick();
 80011c0:	f7ff fc20 	bl	8000a04 <HAL_GetTick>
 80011c4:	6138      	str	r0, [r7, #16]

      /* Wait till LSI is ready */
      while(__HAL_RCC_GET_FLAG(RCC_FLAG_LSIRDY) == RESET)
 80011c6:	e008      	b.n	80011da <HAL_RCC_OscConfig+0x212>
      {
        if((HAL_GetTick() - tickstart ) > LSI_TIMEOUT_VALUE)
 80011c8:	f7ff fc1c 	bl	8000a04 <HAL_GetTick>
 80011cc:	4602      	mov	r2, r0
 80011ce:	693b      	ldr	r3, [r7, #16]
 80011d0:	1ad3      	subs	r3, r2, r3
 80011d2:	2b02      	cmp	r3, #2
 80011d4:	d901      	bls.n	80011da <HAL_RCC_OscConfig+0x212>
        {
          return HAL_TIMEOUT;
 80011d6:	2303      	movs	r3, #3
 80011d8:	e15b      	b.n	8001492 <HAL_RCC_OscConfig+0x4ca>
      while(__HAL_RCC_GET_FLAG(RCC_FLAG_LSIRDY) == RESET)
 80011da:	4b26      	ldr	r3, [pc, #152]	; (8001274 <HAL_RCC_OscConfig+0x2ac>)
 80011dc:	6f5b      	ldr	r3, [r3, #116]	; 0x74
 80011de:	f003 0302 	and.w	r3, r3, #2
 80011e2:	2b00      	cmp	r3, #0
 80011e4:	d0f0      	beq.n	80011c8 <HAL_RCC_OscConfig+0x200>
 80011e6:	e015      	b.n	8001214 <HAL_RCC_OscConfig+0x24c>
      }
    }
    else
    {
      /* Disable the Internal Low Speed oscillator (LSI). */
      __HAL_RCC_LSI_DISABLE();
 80011e8:	4b24      	ldr	r3, [pc, #144]	; (800127c <HAL_RCC_OscConfig+0x2b4>)
 80011ea:	2200      	movs	r2, #0
 80011ec:	601a      	str	r2, [r3, #0]

      /* Get Start Tick */
      tickstart = HAL_GetTick();
 80011ee:	f7ff fc09 	bl	8000a04 <HAL_GetTick>
 80011f2:	6138      	str	r0, [r7, #16]

      /* Wait till LSI is ready */
      while(__HAL_RCC_GET_FLAG(RCC_FLAG_LSIRDY) != RESET)
 80011f4:	e008      	b.n	8001208 <HAL_RCC_OscConfig+0x240>
      {
        if((HAL_GetTick() - tickstart ) > LSI_TIMEOUT_VALUE)
 80011f6:	f7ff fc05 	bl	8000a04 <HAL_GetTick>
 80011fa:	4602      	mov	r2, r0
 80011fc:	693b      	ldr	r3, [r7, #16]
 80011fe:	1ad3      	subs	r3, r2, r3
 8001200:	2b02      	cmp	r3, #2
 8001202:	d901      	bls.n	8001208 <HAL_RCC_OscConfig+0x240>
        {
          return HAL_TIMEOUT;
 8001204:	2303      	movs	r3, #3
 8001206:	e144      	b.n	8001492 <HAL_RCC_OscConfig+0x4ca>
      while(__HAL_RCC_GET_FLAG(RCC_FLAG_LSIRDY) != RESET)
 8001208:	4b1a      	ldr	r3, [pc, #104]	; (8001274 <HAL_RCC_OscConfig+0x2ac>)
 800120a:	6f5b      	ldr	r3, [r3, #116]	; 0x74
 800120c:	f003 0302 	and.w	r3, r3, #2
 8001210:	2b00      	cmp	r3, #0
 8001212:	d1f0      	bne.n	80011f6 <HAL_RCC_OscConfig+0x22e>
        }
      }
    }
  }
  /*------------------------------ LSE Configuration -------------------------*/
  if(((RCC_OscInitStruct->OscillatorType) & RCC_OSCILLATORTYPE_LSE) == RCC_OSCILLATORTYPE_LSE)
 8001214:	687b      	ldr	r3, [r7, #4]
 8001216:	681b      	ldr	r3, [r3, #0]
 8001218:	f003 0304 	and.w	r3, r3, #4
 800121c:	2b00      	cmp	r3, #0
 800121e:	f000 80a0 	beq.w	8001362 <HAL_RCC_OscConfig+0x39a>
  {
    FlagStatus       pwrclkchanged = RESET;
 8001222:	2300      	movs	r3, #0
 8001224:	75fb      	strb	r3, [r7, #23]
    /* Check the parameters */
    assert_param(IS_RCC_LSE(RCC_OscInitStruct->LSEState));

    /* Update LSE configuration in Backup Domain control register    */
    /* Requires to enable write access to Backup Domain of necessary */
    if(__HAL_RCC_PWR_IS_CLK_DISABLED())
 8001226:	4b13      	ldr	r3, [pc, #76]	; (8001274 <HAL_RCC_OscConfig+0x2ac>)
 8001228:	6c1b      	ldr	r3, [r3, #64]	; 0x40
 800122a:	f003 5380 	and.w	r3, r3, #268435456	; 0x10000000
 800122e:	2b00      	cmp	r3, #0
 8001230:	d10f      	bne.n	8001252 <HAL_RCC_OscConfig+0x28a>
    {
      __HAL_RCC_PWR_CLK_ENABLE();
 8001232:	2300      	movs	r3, #0
 8001234:	60bb      	str	r3, [r7, #8]
 8001236:	4b0f      	ldr	r3, [pc, #60]	; (8001274 <HAL_RCC_OscConfig+0x2ac>)
 8001238:	6c1b      	ldr	r3, [r3, #64]	; 0x40
 800123a:	4a0e      	ldr	r2, [pc, #56]	; (8001274 <HAL_RCC_OscConfig+0x2ac>)
 800123c:	f043 5380 	orr.w	r3, r3, #268435456	; 0x10000000
 8001240:	6413      	str	r3, [r2, #64]	; 0x40
 8001242:	4b0c      	ldr	r3, [pc, #48]	; (8001274 <HAL_RCC_OscConfig+0x2ac>)
 8001244:	6c1b      	ldr	r3, [r3, #64]	; 0x40
 8001246:	f003 5380 	and.w	r3, r3, #268435456	; 0x10000000
 800124a:	60bb      	str	r3, [r7, #8]
 800124c:	68bb      	ldr	r3, [r7, #8]
      pwrclkchanged = SET;
 800124e:	2301      	movs	r3, #1
 8001250:	75fb      	strb	r3, [r7, #23]
    }

    if(HAL_IS_BIT_CLR(PWR->CR, PWR_CR_DBP))
 8001252:	4b0b      	ldr	r3, [pc, #44]	; (8001280 <HAL_RCC_OscConfig+0x2b8>)
 8001254:	681b      	ldr	r3, [r3, #0]
 8001256:	f403 7380 	and.w	r3, r3, #256	; 0x100
 800125a:	2b00      	cmp	r3, #0
 800125c:	d121      	bne.n	80012a2 <HAL_RCC_OscConfig+0x2da>
    {
      /* Enable write access to Backup domain */
      SET_BIT(PWR->CR, PWR_CR_DBP);
 800125e:	4b08      	ldr	r3, [pc, #32]	; (8001280 <HAL_RCC_OscConfig+0x2b8>)
 8001260:	681b      	ldr	r3, [r3, #0]
 8001262:	4a07      	ldr	r2, [pc, #28]	; (8001280 <HAL_RCC_OscConfig+0x2b8>)
 8001264:	f443 7380 	orr.w	r3, r3, #256	; 0x100
 8001268:	6013      	str	r3, [r2, #0]

      /* Wait for Backup domain Write protection disable */
      tickstart = HAL_GetTick();
 800126a:	f7ff fbcb 	bl	8000a04 <HAL_GetTick>
 800126e:	6138      	str	r0, [r7, #16]

      while(HAL_IS_BIT_CLR(PWR->CR, PWR_CR_DBP))
 8001270:	e011      	b.n	8001296 <HAL_RCC_OscConfig+0x2ce>
 8001272:	bf00      	nop
 8001274:	40023800 	.word	0x40023800
 8001278:	42470000 	.word	0x42470000
 800127c:	42470e80 	.word	0x42470e80
 8001280:	40007000 	.word	0x40007000
      {
        if((HAL_GetTick() - tickstart) > RCC_DBP_TIMEOUT_VALUE)
 8001284:	f7ff fbbe 	bl	8000a04 <HAL_GetTick>
 8001288:	4602      	mov	r2, r0
 800128a:	693b      	ldr	r3, [r7, #16]
 800128c:	1ad3      	subs	r3, r2, r3
 800128e:	2b02      	cmp	r3, #2
 8001290:	d901      	bls.n	8001296 <HAL_RCC_OscConfig+0x2ce>
        {
          return HAL_TIMEOUT;
 8001292:	2303      	movs	r3, #3
 8001294:	e0fd      	b.n	8001492 <HAL_RCC_OscConfig+0x4ca>
      while(HAL_IS_BIT_CLR(PWR->CR, PWR_CR_DBP))
 8001296:	4b81      	ldr	r3, [pc, #516]	; (800149c <HAL_RCC_OscConfig+0x4d4>)
 8001298:	681b      	ldr	r3, [r3, #0]
 800129a:	f403 7380 	and.w	r3, r3, #256	; 0x100
 800129e:	2b00      	cmp	r3, #0
 80012a0:	d0f0      	beq.n	8001284 <HAL_RCC_OscConfig+0x2bc>
        }
      }
    }

    /* Set the new LSE configuration -----------------------------------------*/
    __HAL_RCC_LSE_CONFIG(RCC_OscInitStruct->LSEState);
 80012a2:	687b      	ldr	r3, [r7, #4]
 80012a4:	689b      	ldr	r3, [r3, #8]
 80012a6:	2b01      	cmp	r3, #1
 80012a8:	d106      	bne.n	80012b8 <HAL_RCC_OscConfig+0x2f0>
 80012aa:	4b7d      	ldr	r3, [pc, #500]	; (80014a0 <HAL_RCC_OscConfig+0x4d8>)
 80012ac:	6f1b      	ldr	r3, [r3, #112]	; 0x70
 80012ae:	4a7c      	ldr	r2, [pc, #496]	; (80014a0 <HAL_RCC_OscConfig+0x4d8>)
 80012b0:	f043 0301 	orr.w	r3, r3, #1
 80012b4:	6713      	str	r3, [r2, #112]	; 0x70
 80012b6:	e01c      	b.n	80012f2 <HAL_RCC_OscConfig+0x32a>
 80012b8:	687b      	ldr	r3, [r7, #4]
 80012ba:	689b      	ldr	r3, [r3, #8]
 80012bc:	2b05      	cmp	r3, #5
 80012be:	d10c      	bne.n	80012da <HAL_RCC_OscConfig+0x312>
 80012c0:	4b77      	ldr	r3, [pc, #476]	; (80014a0 <HAL_RCC_OscConfig+0x4d8>)
 80012c2:	6f1b      	ldr	r3, [r3, #112]	; 0x70
 80012c4:	4a76      	ldr	r2, [pc, #472]	; (80014a0 <HAL_RCC_OscConfig+0x4d8>)
 80012c6:	f043 0304 	orr.w	r3, r3, #4
 80012ca:	6713      	str	r3, [r2, #112]	; 0x70
 80012cc:	4b74      	ldr	r3, [pc, #464]	; (80014a0 <HAL_RCC_OscConfig+0x4d8>)
 80012ce:	6f1b      	ldr	r3, [r3, #112]	; 0x70
 80012d0:	4a73      	ldr	r2, [pc, #460]	; (80014a0 <HAL_RCC_OscConfig+0x4d8>)
 80012d2:	f043 0301 	orr.w	r3, r3, #1
 80012d6:	6713      	str	r3, [r2, #112]	; 0x70
 80012d8:	e00b      	b.n	80012f2 <HAL_RCC_OscConfig+0x32a>
 80012da:	4b71      	ldr	r3, [pc, #452]	; (80014a0 <HAL_RCC_OscConfig+0x4d8>)
 80012dc:	6f1b      	ldr	r3, [r3, #112]	; 0x70
 80012de:	4a70      	ldr	r2, [pc, #448]	; (80014a0 <HAL_RCC_OscConfig+0x4d8>)
 80012e0:	f023 0301 	bic.w	r3, r3, #1
 80012e4:	6713      	str	r3, [r2, #112]	; 0x70
 80012e6:	4b6e      	ldr	r3, [pc, #440]	; (80014a0 <HAL_RCC_OscConfig+0x4d8>)
 80012e8:	6f1b      	ldr	r3, [r3, #112]	; 0x70
 80012ea:	4a6d      	ldr	r2, [pc, #436]	; (80014a0 <HAL_RCC_OscConfig+0x4d8>)
 80012ec:	f023 0304 	bic.w	r3, r3, #4
 80012f0:	6713      	str	r3, [r2, #112]	; 0x70
    /* Check the LSE State */
    if((RCC_OscInitStruct->LSEState) != RCC_LSE_OFF)
 80012f2:	687b      	ldr	r3, [r7, #4]
 80012f4:	689b      	ldr	r3, [r3, #8]
 80012f6:	2b00      	cmp	r3, #0
 80012f8:	d015      	beq.n	8001326 <HAL_RCC_OscConfig+0x35e>
    {
      /* Get Start Tick*/
      tickstart = HAL_GetTick();
 80012fa:	f7ff fb83 	bl	8000a04 <HAL_GetTick>
 80012fe:	6138      	str	r0, [r7, #16]

      /* Wait till LSE is ready */
      while(__HAL_RCC_GET_FLAG(RCC_FLAG_LSERDY) == RESET)
 8001300:	e00a      	b.n	8001318 <HAL_RCC_OscConfig+0x350>
      {
        if((HAL_GetTick() - tickstart ) > RCC_LSE_TIMEOUT_VALUE)
 8001302:	f7ff fb7f 	bl	8000a04 <HAL_GetTick>
 8001306:	4602      	mov	r2, r0
 8001308:	693b      	ldr	r3, [r7, #16]
 800130a:	1ad3      	subs	r3, r2, r3
 800130c:	f241 3288 	movw	r2, #5000	; 0x1388
 8001310:	4293      	cmp	r3, r2
 8001312:	d901      	bls.n	8001318 <HAL_RCC_OscConfig+0x350>
        {
          return HAL_TIMEOUT;
 8001314:	2303      	movs	r3, #3
 8001316:	e0bc      	b.n	8001492 <HAL_RCC_OscConfig+0x4ca>
      while(__HAL_RCC_GET_FLAG(RCC_FLAG_LSERDY) == RESET)
 8001318:	4b61      	ldr	r3, [pc, #388]	; (80014a0 <HAL_RCC_OscConfig+0x4d8>)
 800131a:	6f1b      	ldr	r3, [r3, #112]	; 0x70
 800131c:	f003 0302 	and.w	r3, r3, #2
 8001320:	2b00      	cmp	r3, #0
 8001322:	d0ee      	beq.n	8001302 <HAL_RCC_OscConfig+0x33a>
 8001324:	e014      	b.n	8001350 <HAL_RCC_OscConfig+0x388>
      }
    }
    else
    {
      /* Get Start Tick */
      tickstart = HAL_GetTick();
 8001326:	f7ff fb6d 	bl	8000a04 <HAL_GetTick>
 800132a:	6138      	str	r0, [r7, #16]

      /* Wait till LSE is ready */
      while(__HAL_RCC_GET_FLAG(RCC_FLAG_LSERDY) != RESET)
 800132c:	e00a      	b.n	8001344 <HAL_RCC_OscConfig+0x37c>
      {
        if((HAL_GetTick() - tickstart ) > RCC_LSE_TIMEOUT_VALUE)
 800132e:	f7ff fb69 	bl	8000a04 <HAL_GetTick>
 8001332:	4602      	mov	r2, r0
 8001334:	693b      	ldr	r3, [r7, #16]
 8001336:	1ad3      	subs	r3, r2, r3
 8001338:	f241 3288 	movw	r2, #5000	; 0x1388
 800133c:	4293      	cmp	r3, r2
 800133e:	d901      	bls.n	8001344 <HAL_RCC_OscConfig+0x37c>
        {
          return HAL_TIMEOUT;
 8001340:	2303      	movs	r3, #3
 8001342:	e0a6      	b.n	8001492 <HAL_RCC_OscConfig+0x4ca>
      while(__HAL_RCC_GET_FLAG(RCC_FLAG_LSERDY) != RESET)
 8001344:	4b56      	ldr	r3, [pc, #344]	; (80014a0 <HAL_RCC_OscConfig+0x4d8>)
 8001346:	6f1b      	ldr	r3, [r3, #112]	; 0x70
 8001348:	f003 0302 	and.w	r3, r3, #2
 800134c:	2b00      	cmp	r3, #0
 800134e:	d1ee      	bne.n	800132e <HAL_RCC_OscConfig+0x366>
        }
      }
    }

    /* Restore clock configuration if changed */
    if(pwrclkchanged == SET)
 8001350:	7dfb      	ldrb	r3, [r7, #23]
 8001352:	2b01      	cmp	r3, #1
 8001354:	d105      	bne.n	8001362 <HAL_RCC_OscConfig+0x39a>
    {
      __HAL_RCC_PWR_CLK_DISABLE();
 8001356:	4b52      	ldr	r3, [pc, #328]	; (80014a0 <HAL_RCC_OscConfig+0x4d8>)
 8001358:	6c1b      	ldr	r3, [r3, #64]	; 0x40
 800135a:	4a51      	ldr	r2, [pc, #324]	; (80014a0 <HAL_RCC_OscConfig+0x4d8>)
 800135c:	f023 5380 	bic.w	r3, r3, #268435456	; 0x10000000
 8001360:	6413      	str	r3, [r2, #64]	; 0x40
    }
  }
  /*-------------------------------- PLL Configuration -----------------------*/
  /* Check the parameters */
  assert_param(IS_RCC_PLL(RCC_OscInitStruct->PLL.PLLState));
  if ((RCC_OscInitStruct->PLL.PLLState) != RCC_PLL_NONE)
 8001362:	687b      	ldr	r3, [r7, #4]
 8001364:	699b      	ldr	r3, [r3, #24]
 8001366:	2b00      	cmp	r3, #0
 8001368:	f000 8092 	beq.w	8001490 <HAL_RCC_OscConfig+0x4c8>
  {
    /* Check if the PLL is used as system clock or not */
    if(__HAL_RCC_GET_SYSCLK_SOURCE() != RCC_CFGR_SWS_PLL)
 800136c:	4b4c      	ldr	r3, [pc, #304]	; (80014a0 <HAL_RCC_OscConfig+0x4d8>)
 800136e:	689b      	ldr	r3, [r3, #8]
 8001370:	f003 030c 	and.w	r3, r3, #12
 8001374:	2b08      	cmp	r3, #8
 8001376:	d05c      	beq.n	8001432 <HAL_RCC_OscConfig+0x46a>
    {
      if((RCC_OscInitStruct->PLL.PLLState) == RCC_PLL_ON)
 8001378:	687b      	ldr	r3, [r7, #4]
 800137a:	699b      	ldr	r3, [r3, #24]
 800137c:	2b02      	cmp	r3, #2
 800137e:	d141      	bne.n	8001404 <HAL_RCC_OscConfig+0x43c>
        assert_param(IS_RCC_PLLN_VALUE(RCC_OscInitStruct->PLL.PLLN));
        assert_param(IS_RCC_PLLP_VALUE(RCC_OscInitStruct->PLL.PLLP));
        assert_param(IS_RCC_PLLQ_VALUE(RCC_OscInitStruct->PLL.PLLQ));

        /* Disable the main PLL. */
        __HAL_RCC_PLL_DISABLE();
 8001380:	4b48      	ldr	r3, [pc, #288]	; (80014a4 <HAL_RCC_OscConfig+0x4dc>)
 8001382:	2200      	movs	r2, #0
 8001384:	601a      	str	r2, [r3, #0]

        /* Get Start Tick */
        tickstart = HAL_GetTick();
 8001386:	f7ff fb3d 	bl	8000a04 <HAL_GetTick>
 800138a:	6138      	str	r0, [r7, #16]

        /* Wait till PLL is ready */
        while(__HAL_RCC_GET_FLAG(RCC_FLAG_PLLRDY) != RESET)
 800138c:	e008      	b.n	80013a0 <HAL_RCC_OscConfig+0x3d8>
        {
          if((HAL_GetTick() - tickstart ) > PLL_TIMEOUT_VALUE)
 800138e:	f7ff fb39 	bl	8000a04 <HAL_GetTick>
 8001392:	4602      	mov	r2, r0
 8001394:	693b      	ldr	r3, [r7, #16]
 8001396:	1ad3      	subs	r3, r2, r3
 8001398:	2b02      	cmp	r3, #2
 800139a:	d901      	bls.n	80013a0 <HAL_RCC_OscConfig+0x3d8>
          {
            return HAL_TIMEOUT;
 800139c:	2303      	movs	r3, #3
 800139e:	e078      	b.n	8001492 <HAL_RCC_OscConfig+0x4ca>
        while(__HAL_RCC_GET_FLAG(RCC_FLAG_PLLRDY) != RESET)
 80013a0:	4b3f      	ldr	r3, [pc, #252]	; (80014a0 <HAL_RCC_OscConfig+0x4d8>)
 80013a2:	681b      	ldr	r3, [r3, #0]
 80013a4:	f003 7300 	and.w	r3, r3, #33554432	; 0x2000000
 80013a8:	2b00      	cmp	r3, #0
 80013aa:	d1f0      	bne.n	800138e <HAL_RCC_OscConfig+0x3c6>
          }
        }

        /* Configure the main PLL clock source, multiplication and division factors. */
        WRITE_REG(RCC->PLLCFGR, (RCC_OscInitStruct->PLL.PLLSource                                            | \
 80013ac:	687b      	ldr	r3, [r7, #4]
 80013ae:	69da      	ldr	r2, [r3, #28]
 80013b0:	687b      	ldr	r3, [r7, #4]
 80013b2:	6a1b      	ldr	r3, [r3, #32]
 80013b4:	431a      	orrs	r2, r3
 80013b6:	687b      	ldr	r3, [r7, #4]
 80013b8:	6a5b      	ldr	r3, [r3, #36]	; 0x24
 80013ba:	019b      	lsls	r3, r3, #6
 80013bc:	431a      	orrs	r2, r3
 80013be:	687b      	ldr	r3, [r7, #4]
 80013c0:	6a9b      	ldr	r3, [r3, #40]	; 0x28
 80013c2:	085b      	lsrs	r3, r3, #1
 80013c4:	3b01      	subs	r3, #1
 80013c6:	041b      	lsls	r3, r3, #16
 80013c8:	431a      	orrs	r2, r3
 80013ca:	687b      	ldr	r3, [r7, #4]
 80013cc:	6adb      	ldr	r3, [r3, #44]	; 0x2c
 80013ce:	061b      	lsls	r3, r3, #24
 80013d0:	4933      	ldr	r1, [pc, #204]	; (80014a0 <HAL_RCC_OscConfig+0x4d8>)
 80013d2:	4313      	orrs	r3, r2
 80013d4:	604b      	str	r3, [r1, #4]
                                 RCC_OscInitStruct->PLL.PLLM                                                 | \
                                 (RCC_OscInitStruct->PLL.PLLN << RCC_PLLCFGR_PLLN_Pos)             | \
                                 (((RCC_OscInitStruct->PLL.PLLP >> 1U) - 1U) << RCC_PLLCFGR_PLLP_Pos) | \
                                 (RCC_OscInitStruct->PLL.PLLQ << RCC_PLLCFGR_PLLQ_Pos)));
        /* Enable the main PLL. */
        __HAL_RCC_PLL_ENABLE();
 80013d6:	4b33      	ldr	r3, [pc, #204]	; (80014a4 <HAL_RCC_OscConfig+0x4dc>)
 80013d8:	2201      	movs	r2, #1
 80013da:	601a      	str	r2, [r3, #0]

        /* Get Start Tick */
        tickstart = HAL_GetTick();
 80013dc:	f7ff fb12 	bl	8000a04 <HAL_GetTick>
 80013e0:	6138      	str	r0, [r7, #16]

        /* Wait till PLL is ready */
        while(__HAL_RCC_GET_FLAG(RCC_FLAG_PLLRDY) == RESET)
 80013e2:	e008      	b.n	80013f6 <HAL_RCC_OscConfig+0x42e>
        {
          if((HAL_GetTick() - tickstart ) > PLL_TIMEOUT_VALUE)
 80013e4:	f7ff fb0e 	bl	8000a04 <HAL_GetTick>
 80013e8:	4602      	mov	r2, r0
 80013ea:	693b      	ldr	r3, [r7, #16]
 80013ec:	1ad3      	subs	r3, r2, r3
 80013ee:	2b02      	cmp	r3, #2
 80013f0:	d901      	bls.n	80013f6 <HAL_RCC_OscConfig+0x42e>
          {
            return HAL_TIMEOUT;
 80013f2:	2303      	movs	r3, #3
 80013f4:	e04d      	b.n	8001492 <HAL_RCC_OscConfig+0x4ca>
        while(__HAL_RCC_GET_FLAG(RCC_FLAG_PLLRDY) == RESET)
 80013f6:	4b2a      	ldr	r3, [pc, #168]	; (80014a0 <HAL_RCC_OscConfig+0x4d8>)
 80013f8:	681b      	ldr	r3, [r3, #0]
 80013fa:	f003 7300 	and.w	r3, r3, #33554432	; 0x2000000
 80013fe:	2b00      	cmp	r3, #0
 8001400:	d0f0      	beq.n	80013e4 <HAL_RCC_OscConfig+0x41c>
 8001402:	e045      	b.n	8001490 <HAL_RCC_OscConfig+0x4c8>
        }
      }
      else
      {
        /* Disable the main PLL. */
        __HAL_RCC_PLL_DISABLE();
 8001404:	4b27      	ldr	r3, [pc, #156]	; (80014a4 <HAL_RCC_OscConfig+0x4dc>)
 8001406:	2200      	movs	r2, #0
 8001408:	601a      	str	r2, [r3, #0]

        /* Get Start Tick */
        tickstart = HAL_GetTick();
 800140a:	f7ff fafb 	bl	8000a04 <HAL_GetTick>
 800140e:	6138      	str	r0, [r7, #16]

        /* Wait till PLL is ready */
        while(__HAL_RCC_GET_FLAG(RCC_FLAG_PLLRDY) != RESET)
 8001410:	e008      	b.n	8001424 <HAL_RCC_OscConfig+0x45c>
        {
          if((HAL_GetTick() - tickstart ) > PLL_TIMEOUT_VALUE)
 8001412:	f7ff faf7 	bl	8000a04 <HAL_GetTick>
 8001416:	4602      	mov	r2, r0
 8001418:	693b      	ldr	r3, [r7, #16]
 800141a:	1ad3      	subs	r3, r2, r3
 800141c:	2b02      	cmp	r3, #2
 800141e:	d901      	bls.n	8001424 <HAL_RCC_OscConfig+0x45c>
          {
            return HAL_TIMEOUT;
 8001420:	2303      	movs	r3, #3
 8001422:	e036      	b.n	8001492 <HAL_RCC_OscConfig+0x4ca>
        while(__HAL_RCC_GET_FLAG(RCC_FLAG_PLLRDY) != RESET)
 8001424:	4b1e      	ldr	r3, [pc, #120]	; (80014a0 <HAL_RCC_OscConfig+0x4d8>)
 8001426:	681b      	ldr	r3, [r3, #0]
 8001428:	f003 7300 	and.w	r3, r3, #33554432	; 0x2000000
 800142c:	2b00      	cmp	r3, #0
 800142e:	d1f0      	bne.n	8001412 <HAL_RCC_OscConfig+0x44a>
 8001430:	e02e      	b.n	8001490 <HAL_RCC_OscConfig+0x4c8>
      }
    }
    else
    {
      /* Check if there is a request to disable the PLL used as System clock source */
      if((RCC_OscInitStruct->PLL.PLLState) == RCC_PLL_OFF)
 8001432:	687b      	ldr	r3, [r7, #4]
 8001434:	699b      	ldr	r3, [r3, #24]
 8001436:	2b01      	cmp	r3, #1
 8001438:	d101      	bne.n	800143e <HAL_RCC_OscConfig+0x476>
      {
        return HAL_ERROR;
 800143a:	2301      	movs	r3, #1
 800143c:	e029      	b.n	8001492 <HAL_RCC_OscConfig+0x4ca>
      }
      else
      {
        /* Do not return HAL_ERROR if request repeats the current configuration */
        pll_config = RCC->PLLCFGR;
 800143e:	4b18      	ldr	r3, [pc, #96]	; (80014a0 <HAL_RCC_OscConfig+0x4d8>)
 8001440:	685b      	ldr	r3, [r3, #4]
 8001442:	60fb      	str	r3, [r7, #12]
        if((READ_BIT(pll_config, RCC_PLLCFGR_PLLSRC) != RCC_OscInitStruct->PLL.PLLSource) ||
 8001444:	68fb      	ldr	r3, [r7, #12]
 8001446:	f403 0280 	and.w	r2, r3, #4194304	; 0x400000
 800144a:	687b      	ldr	r3, [r7, #4]
 800144c:	69db      	ldr	r3, [r3, #28]
 800144e:	429a      	cmp	r2, r3
 8001450:	d11c      	bne.n	800148c <HAL_RCC_OscConfig+0x4c4>
           (READ_BIT(pll_config, RCC_PLLCFGR_PLLM) != RCC_OscInitStruct->PLL.PLLM) ||
 8001452:	68fb      	ldr	r3, [r7, #12]
 8001454:	f003 023f 	and.w	r2, r3, #63	; 0x3f
 8001458:	687b      	ldr	r3, [r7, #4]
 800145a:	6a1b      	ldr	r3, [r3, #32]
        if((READ_BIT(pll_config, RCC_PLLCFGR_PLLSRC) != RCC_OscInitStruct->PLL.PLLSource) ||
 800145c:	429a      	cmp	r2, r3
 800145e:	d115      	bne.n	800148c <HAL_RCC_OscConfig+0x4c4>
           (READ_BIT(pll_config, RCC_PLLCFGR_PLLN) != RCC_OscInitStruct->PLL.PLLN) ||
 8001460:	68fa      	ldr	r2, [r7, #12]
 8001462:	f647 73c0 	movw	r3, #32704	; 0x7fc0
 8001466:	4013      	ands	r3, r2
 8001468:	687a      	ldr	r2, [r7, #4]
 800146a:	6a52      	ldr	r2, [r2, #36]	; 0x24
           (READ_BIT(pll_config, RCC_PLLCFGR_PLLM) != RCC_OscInitStruct->PLL.PLLM) ||
 800146c:	4293      	cmp	r3, r2
 800146e:	d10d      	bne.n	800148c <HAL_RCC_OscConfig+0x4c4>
           (READ_BIT(pll_config, RCC_PLLCFGR_PLLP) != RCC_OscInitStruct->PLL.PLLP) ||
 8001470:	68fb      	ldr	r3, [r7, #12]
 8001472:	f403 3240 	and.w	r2, r3, #196608	; 0x30000
 8001476:	687b      	ldr	r3, [r7, #4]
 8001478:	6a9b      	ldr	r3, [r3, #40]	; 0x28
           (READ_BIT(pll_config, RCC_PLLCFGR_PLLN) != RCC_OscInitStruct->PLL.PLLN) ||
 800147a:	429a      	cmp	r2, r3
 800147c:	d106      	bne.n	800148c <HAL_RCC_OscConfig+0x4c4>
           (READ_BIT(pll_config, RCC_PLLCFGR_PLLQ) != RCC_OscInitStruct->PLL.PLLQ))
 800147e:	68fb      	ldr	r3, [r7, #12]
 8001480:	f003 6270 	and.w	r2, r3, #251658240	; 0xf000000
 8001484:	687b      	ldr	r3, [r7, #4]
 8001486:	6adb      	ldr	r3, [r3, #44]	; 0x2c
           (READ_BIT(pll_config, RCC_PLLCFGR_PLLP) != RCC_OscInitStruct->PLL.PLLP) ||
 8001488:	429a      	cmp	r2, r3
 800148a:	d001      	beq.n	8001490 <HAL_RCC_OscConfig+0x4c8>
        {
          return HAL_ERROR;
 800148c:	2301      	movs	r3, #1
 800148e:	e000      	b.n	8001492 <HAL_RCC_OscConfig+0x4ca>
        }
      }
    }
  }
  return HAL_OK;
 8001490:	2300      	movs	r3, #0
}
 8001492:	4618      	mov	r0, r3
 8001494:	3718      	adds	r7, #24
 8001496:	46bd      	mov	sp, r7
 8001498:	bd80      	pop	{r7, pc}
 800149a:	bf00      	nop
 800149c:	40007000 	.word	0x40007000
 80014a0:	40023800 	.word	0x40023800
 80014a4:	42470060 	.word	0x42470060

080014a8 <HAL_RCC_ClockConfig>:
  *         HPRE[3:0] bits to ensure that HCLK not exceed the maximum allowed frequency
  *         (for more details refer to section above "Initialization/de-initialization functions")
  * @retval None
  */
HAL_StatusTypeDef HAL_RCC_ClockConfig(RCC_ClkInitTypeDef  *RCC_ClkInitStruct, uint32_t FLatency)
{
 80014a8:	b580      	push	{r7, lr}
 80014aa:	b084      	sub	sp, #16
 80014ac:	af00      	add	r7, sp, #0
 80014ae:	6078      	str	r0, [r7, #4]
 80014b0:	6039      	str	r1, [r7, #0]
  uint32_t tickstart;

  /* Check Null pointer */
  if(RCC_ClkInitStruct == NULL)
 80014b2:	687b      	ldr	r3, [r7, #4]
 80014b4:	2b00      	cmp	r3, #0
 80014b6:	d101      	bne.n	80014bc <HAL_RCC_ClockConfig+0x14>
  {
    return HAL_ERROR;
 80014b8:	2301      	movs	r3, #1
 80014ba:	e0cc      	b.n	8001656 <HAL_RCC_ClockConfig+0x1ae>
  /* To correctly read data from FLASH memory, the number of wait states (LATENCY)
    must be correctly programmed according to the frequency of the CPU clock
    (HCLK) and the supply voltage of the device. */

  /* Increasing the number of wait states because of higher CPU frequency */
  if(FLatency > __HAL_FLASH_GET_LATENCY())
 80014bc:	4b68      	ldr	r3, [pc, #416]	; (8001660 <HAL_RCC_ClockConfig+0x1b8>)
 80014be:	681b      	ldr	r3, [r3, #0]
 80014c0:	f003 030f 	and.w	r3, r3, #15
 80014c4:	683a      	ldr	r2, [r7, #0]
 80014c6:	429a      	cmp	r2, r3
 80014c8:	d90c      	bls.n	80014e4 <HAL_RCC_ClockConfig+0x3c>
  {
    /* Program the new number of wait states to the LATENCY bits in the FLASH_ACR register */
    __HAL_FLASH_SET_LATENCY(FLatency);
 80014ca:	4b65      	ldr	r3, [pc, #404]	; (8001660 <HAL_RCC_ClockConfig+0x1b8>)
 80014cc:	683a      	ldr	r2, [r7, #0]
 80014ce:	b2d2      	uxtb	r2, r2
 80014d0:	701a      	strb	r2, [r3, #0]

    /* Check that the new number of wait states is taken into account to access the Flash
    memory by reading the FLASH_ACR register */
    if(__HAL_FLASH_GET_LATENCY() != FLatency)
 80014d2:	4b63      	ldr	r3, [pc, #396]	; (8001660 <HAL_RCC_ClockConfig+0x1b8>)
 80014d4:	681b      	ldr	r3, [r3, #0]
 80014d6:	f003 030f 	and.w	r3, r3, #15
 80014da:	683a      	ldr	r2, [r7, #0]
 80014dc:	429a      	cmp	r2, r3
 80014de:	d001      	beq.n	80014e4 <HAL_RCC_ClockConfig+0x3c>
    {
      return HAL_ERROR;
 80014e0:	2301      	movs	r3, #1
 80014e2:	e0b8      	b.n	8001656 <HAL_RCC_ClockConfig+0x1ae>
    }
  }

  /*-------------------------- HCLK Configuration --------------------------*/
  if(((RCC_ClkInitStruct->ClockType) & RCC_CLOCKTYPE_HCLK) == RCC_CLOCKTYPE_HCLK)
 80014e4:	687b      	ldr	r3, [r7, #4]
 80014e6:	681b      	ldr	r3, [r3, #0]
 80014e8:	f003 0302 	and.w	r3, r3, #2
 80014ec:	2b00      	cmp	r3, #0
 80014ee:	d020      	beq.n	8001532 <HAL_RCC_ClockConfig+0x8a>
  {
    /* Set the highest APBx dividers in order to ensure that we do not go through
       a non-spec phase whatever we decrease or increase HCLK. */
    if(((RCC_ClkInitStruct->ClockType) & RCC_CLOCKTYPE_PCLK1) == RCC_CLOCKTYPE_PCLK1)
 80014f0:	687b      	ldr	r3, [r7, #4]
 80014f2:	681b      	ldr	r3, [r3, #0]
 80014f4:	f003 0304 	and.w	r3, r3, #4
 80014f8:	2b00      	cmp	r3, #0
 80014fa:	d005      	beq.n	8001508 <HAL_RCC_ClockConfig+0x60>
    {
      MODIFY_REG(RCC->CFGR, RCC_CFGR_PPRE1, RCC_HCLK_DIV16);
 80014fc:	4b59      	ldr	r3, [pc, #356]	; (8001664 <HAL_RCC_ClockConfig+0x1bc>)
 80014fe:	689b      	ldr	r3, [r3, #8]
 8001500:	4a58      	ldr	r2, [pc, #352]	; (8001664 <HAL_RCC_ClockConfig+0x1bc>)
 8001502:	f443 53e0 	orr.w	r3, r3, #7168	; 0x1c00
 8001506:	6093      	str	r3, [r2, #8]
    }

    if(((RCC_ClkInitStruct->ClockType) & RCC_CLOCKTYPE_PCLK2) == RCC_CLOCKTYPE_PCLK2)
 8001508:	687b      	ldr	r3, [r7, #4]
 800150a:	681b      	ldr	r3, [r3, #0]
 800150c:	f003 0308 	and.w	r3, r3, #8
 8001510:	2b00      	cmp	r3, #0
 8001512:	d005      	beq.n	8001520 <HAL_RCC_ClockConfig+0x78>
    {
      MODIFY_REG(RCC->CFGR, RCC_CFGR_PPRE2, (RCC_HCLK_DIV16 << 3));
 8001514:	4b53      	ldr	r3, [pc, #332]	; (8001664 <HAL_RCC_ClockConfig+0x1bc>)
 8001516:	689b      	ldr	r3, [r3, #8]
 8001518:	4a52      	ldr	r2, [pc, #328]	; (8001664 <HAL_RCC_ClockConfig+0x1bc>)
 800151a:	f443 4360 	orr.w	r3, r3, #57344	; 0xe000
 800151e:	6093      	str	r3, [r2, #8]
    }

    assert_param(IS_RCC_HCLK(RCC_ClkInitStruct->AHBCLKDivider));
    MODIFY_REG(RCC->CFGR, RCC_CFGR_HPRE, RCC_ClkInitStruct->AHBCLKDivider);
 8001520:	4b50      	ldr	r3, [pc, #320]	; (8001664 <HAL_RCC_ClockConfig+0x1bc>)
 8001522:	689b      	ldr	r3, [r3, #8]
 8001524:	f023 02f0 	bic.w	r2, r3, #240	; 0xf0
 8001528:	687b      	ldr	r3, [r7, #4]
 800152a:	689b      	ldr	r3, [r3, #8]
 800152c:	494d      	ldr	r1, [pc, #308]	; (8001664 <HAL_RCC_ClockConfig+0x1bc>)
 800152e:	4313      	orrs	r3, r2
 8001530:	608b      	str	r3, [r1, #8]
  }

  /*------------------------- SYSCLK Configuration ---------------------------*/
  if(((RCC_ClkInitStruct->ClockType) & RCC_CLOCKTYPE_SYSCLK) == RCC_CLOCKTYPE_SYSCLK)
 8001532:	687b      	ldr	r3, [r7, #4]
 8001534:	681b      	ldr	r3, [r3, #0]
 8001536:	f003 0301 	and.w	r3, r3, #1
 800153a:	2b00      	cmp	r3, #0
 800153c:	d044      	beq.n	80015c8 <HAL_RCC_ClockConfig+0x120>
  {
    assert_param(IS_RCC_SYSCLKSOURCE(RCC_ClkInitStruct->SYSCLKSource));

    /* HSE is selected as System Clock Source */
    if(RCC_ClkInitStruct->SYSCLKSource == RCC_SYSCLKSOURCE_HSE)
 800153e:	687b      	ldr	r3, [r7, #4]
 8001540:	685b      	ldr	r3, [r3, #4]
 8001542:	2b01      	cmp	r3, #1
 8001544:	d107      	bne.n	8001556 <HAL_RCC_ClockConfig+0xae>
    {
      /* Check the HSE ready flag */
      if(__HAL_RCC_GET_FLAG(RCC_FLAG_HSERDY) == RESET)
 8001546:	4b47      	ldr	r3, [pc, #284]	; (8001664 <HAL_RCC_ClockConfig+0x1bc>)
 8001548:	681b      	ldr	r3, [r3, #0]
 800154a:	f403 3300 	and.w	r3, r3, #131072	; 0x20000
 800154e:	2b00      	cmp	r3, #0
 8001550:	d119      	bne.n	8001586 <HAL_RCC_ClockConfig+0xde>
      {
        return HAL_ERROR;
 8001552:	2301      	movs	r3, #1
 8001554:	e07f      	b.n	8001656 <HAL_RCC_ClockConfig+0x1ae>
      }
    }
    /* PLL is selected as System Clock Source */
    else if((RCC_ClkInitStruct->SYSCLKSource == RCC_SYSCLKSOURCE_PLLCLK)   ||
 8001556:	687b      	ldr	r3, [r7, #4]
 8001558:	685b      	ldr	r3, [r3, #4]
 800155a:	2b02      	cmp	r3, #2
 800155c:	d003      	beq.n	8001566 <HAL_RCC_ClockConfig+0xbe>
            (RCC_ClkInitStruct->SYSCLKSource == RCC_SYSCLKSOURCE_PLLRCLK))
 800155e:	687b      	ldr	r3, [r7, #4]
 8001560:	685b      	ldr	r3, [r3, #4]
    else if((RCC_ClkInitStruct->SYSCLKSource == RCC_SYSCLKSOURCE_PLLCLK)   ||
 8001562:	2b03      	cmp	r3, #3
 8001564:	d107      	bne.n	8001576 <HAL_RCC_ClockConfig+0xce>
    {
      /* Check the PLL ready flag */
      if(__HAL_RCC_GET_FLAG(RCC_FLAG_PLLRDY) == RESET)
 8001566:	4b3f      	ldr	r3, [pc, #252]	; (8001664 <HAL_RCC_ClockConfig+0x1bc>)
 8001568:	681b      	ldr	r3, [r3, #0]
 800156a:	f003 7300 	and.w	r3, r3, #33554432	; 0x2000000
 800156e:	2b00      	cmp	r3, #0
 8001570:	d109      	bne.n	8001586 <HAL_RCC_ClockConfig+0xde>
      {
        return HAL_ERROR;
 8001572:	2301      	movs	r3, #1
 8001574:	e06f      	b.n	8001656 <HAL_RCC_ClockConfig+0x1ae>
    }
    /* HSI is selected as System Clock Source */
    else
    {
      /* Check the HSI ready flag */
      if(__HAL_RCC_GET_FLAG(RCC_FLAG_HSIRDY) == RESET)
 8001576:	4b3b      	ldr	r3, [pc, #236]	; (8001664 <HAL_RCC_ClockConfig+0x1bc>)
 8001578:	681b      	ldr	r3, [r3, #0]
 800157a:	f003 0302 	and.w	r3, r3, #2
 800157e:	2b00      	cmp	r3, #0
 8001580:	d101      	bne.n	8001586 <HAL_RCC_ClockConfig+0xde>
      {
        return HAL_ERROR;
 8001582:	2301      	movs	r3, #1
 8001584:	e067      	b.n	8001656 <HAL_RCC_ClockConfig+0x1ae>
      }
    }

    __HAL_RCC_SYSCLK_CONFIG(RCC_ClkInitStruct->SYSCLKSource);
 8001586:	4b37      	ldr	r3, [pc, #220]	; (8001664 <HAL_RCC_ClockConfig+0x1bc>)
 8001588:	689b      	ldr	r3, [r3, #8]
 800158a:	f023 0203 	bic.w	r2, r3, #3
 800158e:	687b      	ldr	r3, [r7, #4]
 8001590:	685b      	ldr	r3, [r3, #4]
 8001592:	4934      	ldr	r1, [pc, #208]	; (8001664 <HAL_RCC_ClockConfig+0x1bc>)
 8001594:	4313      	orrs	r3, r2
 8001596:	608b      	str	r3, [r1, #8]

    /* Get Start Tick */
    tickstart = HAL_GetTick();
 8001598:	f7ff fa34 	bl	8000a04 <HAL_GetTick>
 800159c:	60f8      	str	r0, [r7, #12]

    while (__HAL_RCC_GET_SYSCLK_SOURCE() != (RCC_ClkInitStruct->SYSCLKSource << RCC_CFGR_SWS_Pos))
 800159e:	e00a      	b.n	80015b6 <HAL_RCC_ClockConfig+0x10e>
    {
      if ((HAL_GetTick() - tickstart) > CLOCKSWITCH_TIMEOUT_VALUE)
 80015a0:	f7ff fa30 	bl	8000a04 <HAL_GetTick>
 80015a4:	4602      	mov	r2, r0
 80015a6:	68fb      	ldr	r3, [r7, #12]
 80015a8:	1ad3      	subs	r3, r2, r3
 80015aa:	f241 3288 	movw	r2, #5000	; 0x1388
 80015ae:	4293      	cmp	r3, r2
 80015b0:	d901      	bls.n	80015b6 <HAL_RCC_ClockConfig+0x10e>
      {
        return HAL_TIMEOUT;
 80015b2:	2303      	movs	r3, #3
 80015b4:	e04f      	b.n	8001656 <HAL_RCC_ClockConfig+0x1ae>
    while (__HAL_RCC_GET_SYSCLK_SOURCE() != (RCC_ClkInitStruct->SYSCLKSource << RCC_CFGR_SWS_Pos))
 80015b6:	4b2b      	ldr	r3, [pc, #172]	; (8001664 <HAL_RCC_ClockConfig+0x1bc>)
 80015b8:	689b      	ldr	r3, [r3, #8]
 80015ba:	f003 020c 	and.w	r2, r3, #12
 80015be:	687b      	ldr	r3, [r7, #4]
 80015c0:	685b      	ldr	r3, [r3, #4]
 80015c2:	009b      	lsls	r3, r3, #2
 80015c4:	429a      	cmp	r2, r3
 80015c6:	d1eb      	bne.n	80015a0 <HAL_RCC_ClockConfig+0xf8>
      }
    }
  }

  /* Decreasing the number of wait states because of lower CPU frequency */
  if(FLatency < __HAL_FLASH_GET_LATENCY())
 80015c8:	4b25      	ldr	r3, [pc, #148]	; (8001660 <HAL_RCC_ClockConfig+0x1b8>)
 80015ca:	681b      	ldr	r3, [r3, #0]
 80015cc:	f003 030f 	and.w	r3, r3, #15
 80015d0:	683a      	ldr	r2, [r7, #0]
 80015d2:	429a      	cmp	r2, r3
 80015d4:	d20c      	bcs.n	80015f0 <HAL_RCC_ClockConfig+0x148>
  {
     /* Program the new number of wait states to the LATENCY bits in the FLASH_ACR register */
    __HAL_FLASH_SET_LATENCY(FLatency);
 80015d6:	4b22      	ldr	r3, [pc, #136]	; (8001660 <HAL_RCC_ClockConfig+0x1b8>)
 80015d8:	683a      	ldr	r2, [r7, #0]
 80015da:	b2d2      	uxtb	r2, r2
 80015dc:	701a      	strb	r2, [r3, #0]

    /* Check that the new number of wait states is taken into account to access the Flash
    memory by reading the FLASH_ACR register */
    if(__HAL_FLASH_GET_LATENCY() != FLatency)
 80015de:	4b20      	ldr	r3, [pc, #128]	; (8001660 <HAL_RCC_ClockConfig+0x1b8>)
 80015e0:	681b      	ldr	r3, [r3, #0]
 80015e2:	f003 030f 	and.w	r3, r3, #15
 80015e6:	683a      	ldr	r2, [r7, #0]
 80015e8:	429a      	cmp	r2, r3
 80015ea:	d001      	beq.n	80015f0 <HAL_RCC_ClockConfig+0x148>
    {
      return HAL_ERROR;
 80015ec:	2301      	movs	r3, #1
 80015ee:	e032      	b.n	8001656 <HAL_RCC_ClockConfig+0x1ae>
    }
  }

  /*-------------------------- PCLK1 Configuration ---------------------------*/
  if(((RCC_ClkInitStruct->ClockType) & RCC_CLOCKTYPE_PCLK1) == RCC_CLOCKTYPE_PCLK1)
 80015f0:	687b      	ldr	r3, [r7, #4]
 80015f2:	681b      	ldr	r3, [r3, #0]
 80015f4:	f003 0304 	and.w	r3, r3, #4
 80015f8:	2b00      	cmp	r3, #0
 80015fa:	d008      	beq.n	800160e <HAL_RCC_ClockConfig+0x166>
  {
    assert_param(IS_RCC_PCLK(RCC_ClkInitStruct->APB1CLKDivider));
    MODIFY_REG(RCC->CFGR, RCC_CFGR_PPRE1, RCC_ClkInitStruct->APB1CLKDivider);
 80015fc:	4b19      	ldr	r3, [pc, #100]	; (8001664 <HAL_RCC_ClockConfig+0x1bc>)
 80015fe:	689b      	ldr	r3, [r3, #8]
 8001600:	f423 52e0 	bic.w	r2, r3, #7168	; 0x1c00
 8001604:	687b      	ldr	r3, [r7, #4]
 8001606:	68db      	ldr	r3, [r3, #12]
 8001608:	4916      	ldr	r1, [pc, #88]	; (8001664 <HAL_RCC_ClockConfig+0x1bc>)
 800160a:	4313      	orrs	r3, r2
 800160c:	608b      	str	r3, [r1, #8]
  }

  /*-------------------------- PCLK2 Configuration ---------------------------*/
  if(((RCC_ClkInitStruct->ClockType) & RCC_CLOCKTYPE_PCLK2) == RCC_CLOCKTYPE_PCLK2)
 800160e:	687b      	ldr	r3, [r7, #4]
 8001610:	681b      	ldr	r3, [r3, #0]
 8001612:	f003 0308 	and.w	r3, r3, #8
 8001616:	2b00      	cmp	r3, #0
 8001618:	d009      	beq.n	800162e <HAL_RCC_ClockConfig+0x186>
  {
    assert_param(IS_RCC_PCLK(RCC_ClkInitStruct->APB2CLKDivider));
    MODIFY_REG(RCC->CFGR, RCC_CFGR_PPRE2, ((RCC_ClkInitStruct->APB2CLKDivider) << 3U));
 800161a:	4b12      	ldr	r3, [pc, #72]	; (8001664 <HAL_RCC_ClockConfig+0x1bc>)
 800161c:	689b      	ldr	r3, [r3, #8]
 800161e:	f423 4260 	bic.w	r2, r3, #57344	; 0xe000
 8001622:	687b      	ldr	r3, [r7, #4]
 8001624:	691b      	ldr	r3, [r3, #16]
 8001626:	00db      	lsls	r3, r3, #3
 8001628:	490e      	ldr	r1, [pc, #56]	; (8001664 <HAL_RCC_ClockConfig+0x1bc>)
 800162a:	4313      	orrs	r3, r2
 800162c:	608b      	str	r3, [r1, #8]
  }

  /* Update the SystemCoreClock global variable */
  SystemCoreClock = HAL_RCC_GetSysClockFreq() >> AHBPrescTable[(RCC->CFGR & RCC_CFGR_HPRE)>> RCC_CFGR_HPRE_Pos];
 800162e:	f000 f821 	bl	8001674 <HAL_RCC_GetSysClockFreq>
 8001632:	4601      	mov	r1, r0
 8001634:	4b0b      	ldr	r3, [pc, #44]	; (8001664 <HAL_RCC_ClockConfig+0x1bc>)
 8001636:	689b      	ldr	r3, [r3, #8]
 8001638:	091b      	lsrs	r3, r3, #4
 800163a:	f003 030f 	and.w	r3, r3, #15
 800163e:	4a0a      	ldr	r2, [pc, #40]	; (8001668 <HAL_RCC_ClockConfig+0x1c0>)
 8001640:	5cd3      	ldrb	r3, [r2, r3]
 8001642:	fa21 f303 	lsr.w	r3, r1, r3
 8001646:	4a09      	ldr	r2, [pc, #36]	; (800166c <HAL_RCC_ClockConfig+0x1c4>)
 8001648:	6013      	str	r3, [r2, #0]

  /* Configure the source of time base considering new system clocks settings */
  HAL_InitTick (uwTickPrio);
 800164a:	4b09      	ldr	r3, [pc, #36]	; (8001670 <HAL_RCC_ClockConfig+0x1c8>)
 800164c:	681b      	ldr	r3, [r3, #0]
 800164e:	4618      	mov	r0, r3
 8001650:	f7ff f994 	bl	800097c <HAL_InitTick>

  return HAL_OK;
 8001654:	2300      	movs	r3, #0
}
 8001656:	4618      	mov	r0, r3
 8001658:	3710      	adds	r7, #16
 800165a:	46bd      	mov	sp, r7
 800165c:	bd80      	pop	{r7, pc}
 800165e:	bf00      	nop
 8001660:	40023c00 	.word	0x40023c00
 8001664:	40023800 	.word	0x40023800
 8001668:	08002aac 	.word	0x08002aac
 800166c:	20000000 	.word	0x20000000
 8001670:	20000004 	.word	0x20000004

08001674 <HAL_RCC_GetSysClockFreq>:
  *
  *
  * @retval SYSCLK frequency
  */
__weak uint32_t HAL_RCC_GetSysClockFreq(void)
{
 8001674:	b5f0      	push	{r4, r5, r6, r7, lr}
 8001676:	b085      	sub	sp, #20
 8001678:	af00      	add	r7, sp, #0
  uint32_t pllm = 0U, pllvco = 0U, pllp = 0U;
 800167a:	2300      	movs	r3, #0
 800167c:	607b      	str	r3, [r7, #4]
 800167e:	2300      	movs	r3, #0
 8001680:	60fb      	str	r3, [r7, #12]
 8001682:	2300      	movs	r3, #0
 8001684:	603b      	str	r3, [r7, #0]
  uint32_t sysclockfreq = 0U;
 8001686:	2300      	movs	r3, #0
 8001688:	60bb      	str	r3, [r7, #8]

  /* Get SYSCLK source -------------------------------------------------------*/
  switch (RCC->CFGR & RCC_CFGR_SWS)
 800168a:	4b63      	ldr	r3, [pc, #396]	; (8001818 <HAL_RCC_GetSysClockFreq+0x1a4>)
 800168c:	689b      	ldr	r3, [r3, #8]
 800168e:	f003 030c 	and.w	r3, r3, #12
 8001692:	2b04      	cmp	r3, #4
 8001694:	d007      	beq.n	80016a6 <HAL_RCC_GetSysClockFreq+0x32>
 8001696:	2b08      	cmp	r3, #8
 8001698:	d008      	beq.n	80016ac <HAL_RCC_GetSysClockFreq+0x38>
 800169a:	2b00      	cmp	r3, #0
 800169c:	f040 80b4 	bne.w	8001808 <HAL_RCC_GetSysClockFreq+0x194>
  {
    case RCC_CFGR_SWS_HSI:  /* HSI used as system clock source */
    {
      sysclockfreq = HSI_VALUE;
 80016a0:	4b5e      	ldr	r3, [pc, #376]	; (800181c <HAL_RCC_GetSysClockFreq+0x1a8>)
 80016a2:	60bb      	str	r3, [r7, #8]
       break;
 80016a4:	e0b3      	b.n	800180e <HAL_RCC_GetSysClockFreq+0x19a>
    }
    case RCC_CFGR_SWS_HSE:  /* HSE used as system clock  source */
    {
      sysclockfreq = HSE_VALUE;
 80016a6:	4b5e      	ldr	r3, [pc, #376]	; (8001820 <HAL_RCC_GetSysClockFreq+0x1ac>)
 80016a8:	60bb      	str	r3, [r7, #8]
      break;
 80016aa:	e0b0      	b.n	800180e <HAL_RCC_GetSysClockFreq+0x19a>
    }
    case RCC_CFGR_SWS_PLL:  /* PLL used as system clock  source */
    {
      /* PLL_VCO = (HSE_VALUE or HSI_VALUE / PLLM) * PLLN
      SYSCLK = PLL_VCO / PLLP */
      pllm = RCC->PLLCFGR & RCC_PLLCFGR_PLLM;
 80016ac:	4b5a      	ldr	r3, [pc, #360]	; (8001818 <HAL_RCC_GetSysClockFreq+0x1a4>)
 80016ae:	685b      	ldr	r3, [r3, #4]
 80016b0:	f003 033f 	and.w	r3, r3, #63	; 0x3f
 80016b4:	607b      	str	r3, [r7, #4]
      if(__HAL_RCC_GET_PLL_OSCSOURCE() != RCC_PLLSOURCE_HSI)
 80016b6:	4b58      	ldr	r3, [pc, #352]	; (8001818 <HAL_RCC_GetSysClockFreq+0x1a4>)
 80016b8:	685b      	ldr	r3, [r3, #4]
 80016ba:	f403 0380 	and.w	r3, r3, #4194304	; 0x400000
 80016be:	2b00      	cmp	r3, #0
 80016c0:	d04a      	beq.n	8001758 <HAL_RCC_GetSysClockFreq+0xe4>
      {
        /* HSE used as PLL clock source */
        pllvco = (uint32_t) ((((uint64_t) HSE_VALUE * ((uint64_t) ((RCC->PLLCFGR & RCC_PLLCFGR_PLLN) >> RCC_PLLCFGR_PLLN_Pos)))) / (uint64_t)pllm);
 80016c2:	4b55      	ldr	r3, [pc, #340]	; (8001818 <HAL_RCC_GetSysClockFreq+0x1a4>)
 80016c4:	685b      	ldr	r3, [r3, #4]
 80016c6:	099b      	lsrs	r3, r3, #6
 80016c8:	f04f 0400 	mov.w	r4, #0
 80016cc:	f240 11ff 	movw	r1, #511	; 0x1ff
 80016d0:	f04f 0200 	mov.w	r2, #0
 80016d4:	ea03 0501 	and.w	r5, r3, r1
 80016d8:	ea04 0602 	and.w	r6, r4, r2
 80016dc:	4629      	mov	r1, r5
 80016de:	4632      	mov	r2, r6
 80016e0:	f04f 0300 	mov.w	r3, #0
 80016e4:	f04f 0400 	mov.w	r4, #0
 80016e8:	0154      	lsls	r4, r2, #5
 80016ea:	ea44 64d1 	orr.w	r4, r4, r1, lsr #27
 80016ee:	014b      	lsls	r3, r1, #5
 80016f0:	4619      	mov	r1, r3
 80016f2:	4622      	mov	r2, r4
 80016f4:	1b49      	subs	r1, r1, r5
 80016f6:	eb62 0206 	sbc.w	r2, r2, r6
 80016fa:	f04f 0300 	mov.w	r3, #0
 80016fe:	f04f 0400 	mov.w	r4, #0
 8001702:	0194      	lsls	r4, r2, #6
 8001704:	ea44 6491 	orr.w	r4, r4, r1, lsr #26
 8001708:	018b      	lsls	r3, r1, #6
 800170a:	1a5b      	subs	r3, r3, r1
 800170c:	eb64 0402 	sbc.w	r4, r4, r2
 8001710:	f04f 0100 	mov.w	r1, #0
 8001714:	f04f 0200 	mov.w	r2, #0
 8001718:	00e2      	lsls	r2, r4, #3
 800171a:	ea42 7253 	orr.w	r2, r2, r3, lsr #29
 800171e:	00d9      	lsls	r1, r3, #3
 8001720:	460b      	mov	r3, r1
 8001722:	4614      	mov	r4, r2
 8001724:	195b      	adds	r3, r3, r5
 8001726:	eb44 0406 	adc.w	r4, r4, r6
 800172a:	f04f 0100 	mov.w	r1, #0
 800172e:	f04f 0200 	mov.w	r2, #0
 8001732:	0262      	lsls	r2, r4, #9
 8001734:	ea42 52d3 	orr.w	r2, r2, r3, lsr #23
 8001738:	0259      	lsls	r1, r3, #9
 800173a:	460b      	mov	r3, r1
 800173c:	4614      	mov	r4, r2
 800173e:	4618      	mov	r0, r3
 8001740:	4621      	mov	r1, r4
 8001742:	687b      	ldr	r3, [r7, #4]
 8001744:	f04f 0400 	mov.w	r4, #0
 8001748:	461a      	mov	r2, r3
 800174a:	4623      	mov	r3, r4
 800174c:	f7fe fd98 	bl	8000280 <__aeabi_uldivmod>
 8001750:	4603      	mov	r3, r0
 8001752:	460c      	mov	r4, r1
 8001754:	60fb      	str	r3, [r7, #12]
 8001756:	e049      	b.n	80017ec <HAL_RCC_GetSysClockFreq+0x178>
      }
      else
      {
        /* HSI used as PLL clock source */
        pllvco = (uint32_t) ((((uint64_t) HSI_VALUE * ((uint64_t) ((RCC->PLLCFGR & RCC_PLLCFGR_PLLN) >> RCC_PLLCFGR_PLLN_Pos)))) / (uint64_t)pllm);
 8001758:	4b2f      	ldr	r3, [pc, #188]	; (8001818 <HAL_RCC_GetSysClockFreq+0x1a4>)
 800175a:	685b      	ldr	r3, [r3, #4]
 800175c:	099b      	lsrs	r3, r3, #6
 800175e:	f04f 0400 	mov.w	r4, #0
 8001762:	f240 11ff 	movw	r1, #511	; 0x1ff
 8001766:	f04f 0200 	mov.w	r2, #0
 800176a:	ea03 0501 	and.w	r5, r3, r1
 800176e:	ea04 0602 	and.w	r6, r4, r2
 8001772:	4629      	mov	r1, r5
 8001774:	4632      	mov	r2, r6
 8001776:	f04f 0300 	mov.w	r3, #0
 800177a:	f04f 0400 	mov.w	r4, #0
 800177e:	0154      	lsls	r4, r2, #5
 8001780:	ea44 64d1 	orr.w	r4, r4, r1, lsr #27
 8001784:	014b      	lsls	r3, r1, #5
 8001786:	4619      	mov	r1, r3
 8001788:	4622      	mov	r2, r4
 800178a:	1b49      	subs	r1, r1, r5
 800178c:	eb62 0206 	sbc.w	r2, r2, r6
 8001790:	f04f 0300 	mov.w	r3, #0
 8001794:	f04f 0400 	mov.w	r4, #0
 8001798:	0194      	lsls	r4, r2, #6
 800179a:	ea44 6491 	orr.w	r4, r4, r1, lsr #26
 800179e:	018b      	lsls	r3, r1, #6
 80017a0:	1a5b      	subs	r3, r3, r1
 80017a2:	eb64 0402 	sbc.w	r4, r4, r2
 80017a6:	f04f 0100 	mov.w	r1, #0
 80017aa:	f04f 0200 	mov.w	r2, #0
 80017ae:	00e2      	lsls	r2, r4, #3
 80017b0:	ea42 7253 	orr.w	r2, r2, r3, lsr #29
 80017b4:	00d9      	lsls	r1, r3, #3
 80017b6:	460b      	mov	r3, r1
 80017b8:	4614      	mov	r4, r2
 80017ba:	195b      	adds	r3, r3, r5
 80017bc:	eb44 0406 	adc.w	r4, r4, r6
 80017c0:	f04f 0100 	mov.w	r1, #0
 80017c4:	f04f 0200 	mov.w	r2, #0
 80017c8:	02a2      	lsls	r2, r4, #10
 80017ca:	ea42 5293 	orr.w	r2, r2, r3, lsr #22
 80017ce:	0299      	lsls	r1, r3, #10
 80017d0:	460b      	mov	r3, r1
 80017d2:	4614      	mov	r4, r2
 80017d4:	4618      	mov	r0, r3
 80017d6:	4621      	mov	r1, r4
 80017d8:	687b      	ldr	r3, [r7, #4]
 80017da:	f04f 0400 	mov.w	r4, #0
 80017de:	461a      	mov	r2, r3
 80017e0:	4623      	mov	r3, r4
 80017e2:	f7fe fd4d 	bl	8000280 <__aeabi_uldivmod>
 80017e6:	4603      	mov	r3, r0
 80017e8:	460c      	mov	r4, r1
 80017ea:	60fb      	str	r3, [r7, #12]
      }
      pllp = ((((RCC->PLLCFGR & RCC_PLLCFGR_PLLP) >> RCC_PLLCFGR_PLLP_Pos) + 1U) *2U);
 80017ec:	4b0a      	ldr	r3, [pc, #40]	; (8001818 <HAL_RCC_GetSysClockFreq+0x1a4>)
 80017ee:	685b      	ldr	r3, [r3, #4]
 80017f0:	0c1b      	lsrs	r3, r3, #16
 80017f2:	f003 0303 	and.w	r3, r3, #3
 80017f6:	3301      	adds	r3, #1
 80017f8:	005b      	lsls	r3, r3, #1
 80017fa:	603b      	str	r3, [r7, #0]

      sysclockfreq = pllvco/pllp;
 80017fc:	68fa      	ldr	r2, [r7, #12]
 80017fe:	683b      	ldr	r3, [r7, #0]
 8001800:	fbb2 f3f3 	udiv	r3, r2, r3
 8001804:	60bb      	str	r3, [r7, #8]
      break;
 8001806:	e002      	b.n	800180e <HAL_RCC_GetSysClockFreq+0x19a>
    }
    default:
    {
      sysclockfreq = HSI_VALUE;
 8001808:	4b04      	ldr	r3, [pc, #16]	; (800181c <HAL_RCC_GetSysClockFreq+0x1a8>)
 800180a:	60bb      	str	r3, [r7, #8]
      break;
 800180c:	bf00      	nop
    }
  }
  return sysclockfreq;
 800180e:	68bb      	ldr	r3, [r7, #8]
}
 8001810:	4618      	mov	r0, r3
 8001812:	3714      	adds	r7, #20
 8001814:	46bd      	mov	sp, r7
 8001816:	bdf0      	pop	{r4, r5, r6, r7, pc}
 8001818:	40023800 	.word	0x40023800
 800181c:	00f42400 	.word	0x00f42400
 8001820:	007a1200 	.word	0x007a1200

08001824 <HAL_RCC_GetHCLKFreq>:
  * @note   The SystemCoreClock CMSIS variable is used to store System Clock Frequency
  *         and updated within this function
  * @retval HCLK frequency
  */
uint32_t HAL_RCC_GetHCLKFreq(void)
{
 8001824:	b480      	push	{r7}
 8001826:	af00      	add	r7, sp, #0
  return SystemCoreClock;
 8001828:	4b03      	ldr	r3, [pc, #12]	; (8001838 <HAL_RCC_GetHCLKFreq+0x14>)
 800182a:	681b      	ldr	r3, [r3, #0]
}
 800182c:	4618      	mov	r0, r3
 800182e:	46bd      	mov	sp, r7
 8001830:	f85d 7b04 	ldr.w	r7, [sp], #4
 8001834:	4770      	bx	lr
 8001836:	bf00      	nop
 8001838:	20000000 	.word	0x20000000

0800183c <HAL_RCC_GetPCLK1Freq>:
  * @note   Each time PCLK1 changes, this function must be called to update the
  *         right PCLK1 value. Otherwise, any configuration based on this function will be incorrect.
  * @retval PCLK1 frequency
  */
uint32_t HAL_RCC_GetPCLK1Freq(void)
{
 800183c:	b580      	push	{r7, lr}
 800183e:	af00      	add	r7, sp, #0
  /* Get HCLK source and Compute PCLK1 frequency ---------------------------*/
  return (HAL_RCC_GetHCLKFreq() >> APBPrescTable[(RCC->CFGR & RCC_CFGR_PPRE1)>> RCC_CFGR_PPRE1_Pos]);
 8001840:	f7ff fff0 	bl	8001824 <HAL_RCC_GetHCLKFreq>
 8001844:	4601      	mov	r1, r0
 8001846:	4b05      	ldr	r3, [pc, #20]	; (800185c <HAL_RCC_GetPCLK1Freq+0x20>)
 8001848:	689b      	ldr	r3, [r3, #8]
 800184a:	0a9b      	lsrs	r3, r3, #10
 800184c:	f003 0307 	and.w	r3, r3, #7
 8001850:	4a03      	ldr	r2, [pc, #12]	; (8001860 <HAL_RCC_GetPCLK1Freq+0x24>)
 8001852:	5cd3      	ldrb	r3, [r2, r3]
 8001854:	fa21 f303 	lsr.w	r3, r1, r3
}
 8001858:	4618      	mov	r0, r3
 800185a:	bd80      	pop	{r7, pc}
 800185c:	40023800 	.word	0x40023800
 8001860:	08002abc 	.word	0x08002abc

08001864 <HAL_RCC_GetPCLK2Freq>:
  * @note   Each time PCLK2 changes, this function must be called to update the
  *         right PCLK2 value. Otherwise, any configuration based on this function will be incorrect.
  * @retval PCLK2 frequency
  */
uint32_t HAL_RCC_GetPCLK2Freq(void)
{
 8001864:	b580      	push	{r7, lr}
 8001866:	af00      	add	r7, sp, #0
  /* Get HCLK source and Compute PCLK2 frequency ---------------------------*/
  return (HAL_RCC_GetHCLKFreq()>> APBPrescTable[(RCC->CFGR & RCC_CFGR_PPRE2)>> RCC_CFGR_PPRE2_Pos]);
 8001868:	f7ff ffdc 	bl	8001824 <HAL_RCC_GetHCLKFreq>
 800186c:	4601      	mov	r1, r0
 800186e:	4b05      	ldr	r3, [pc, #20]	; (8001884 <HAL_RCC_GetPCLK2Freq+0x20>)
 8001870:	689b      	ldr	r3, [r3, #8]
 8001872:	0b5b      	lsrs	r3, r3, #13
 8001874:	f003 0307 	and.w	r3, r3, #7
 8001878:	4a03      	ldr	r2, [pc, #12]	; (8001888 <HAL_RCC_GetPCLK2Freq+0x24>)
 800187a:	5cd3      	ldrb	r3, [r2, r3]
 800187c:	fa21 f303 	lsr.w	r3, r1, r3
}
 8001880:	4618      	mov	r0, r3
 8001882:	bd80      	pop	{r7, pc}
 8001884:	40023800 	.word	0x40023800
 8001888:	08002abc 	.word	0x08002abc

0800188c <HAL_UART_Init>:
  * @param  huart  Pointer to a UART_HandleTypeDef structure that contains
  *                the configuration information for the specified UART module.
  * @retval HAL status
  */
HAL_StatusTypeDef HAL_UART_Init(UART_HandleTypeDef *huart)
{
 800188c:	b580      	push	{r7, lr}
 800188e:	b082      	sub	sp, #8
 8001890:	af00      	add	r7, sp, #0
 8001892:	6078      	str	r0, [r7, #4]
  /* Check the UART handle allocation */
  if (huart == NULL)
 8001894:	687b      	ldr	r3, [r7, #4]
 8001896:	2b00      	cmp	r3, #0
 8001898:	d101      	bne.n	800189e <HAL_UART_Init+0x12>
  {
    return HAL_ERROR;
 800189a:	2301      	movs	r3, #1
 800189c:	e03f      	b.n	800191e <HAL_UART_Init+0x92>
    assert_param(IS_UART_INSTANCE(huart->Instance));
  }
  assert_param(IS_UART_WORD_LENGTH(huart->Init.WordLength));
  assert_param(IS_UART_OVERSAMPLING(huart->Init.OverSampling));

  if (huart->gState == HAL_UART_STATE_RESET)
 800189e:	687b      	ldr	r3, [r7, #4]
 80018a0:	f893 3039 	ldrb.w	r3, [r3, #57]	; 0x39
 80018a4:	b2db      	uxtb	r3, r3
 80018a6:	2b00      	cmp	r3, #0
 80018a8:	d106      	bne.n	80018b8 <HAL_UART_Init+0x2c>
  {
    /* Allocate lock resource and initialize it */
    huart->Lock = HAL_UNLOCKED;
 80018aa:	687b      	ldr	r3, [r7, #4]
 80018ac:	2200      	movs	r2, #0
 80018ae:	f883 2038 	strb.w	r2, [r3, #56]	; 0x38

    /* Init the low level hardware */
    huart->MspInitCallback(huart);
#else
    /* Init the low level hardware : GPIO, CLOCK */
    HAL_UART_MspInit(huart);
 80018b2:	6878      	ldr	r0, [r7, #4]
 80018b4:	f7fe ff8c 	bl	80007d0 <HAL_UART_MspInit>
#endif /* (USE_HAL_UART_REGISTER_CALLBACKS) */
  }

  huart->gState = HAL_UART_STATE_BUSY;
 80018b8:	687b      	ldr	r3, [r7, #4]
 80018ba:	2224      	movs	r2, #36	; 0x24
 80018bc:	f883 2039 	strb.w	r2, [r3, #57]	; 0x39

  /* Disable the peripheral */
  __HAL_UART_DISABLE(huart);
 80018c0:	687b      	ldr	r3, [r7, #4]
 80018c2:	681b      	ldr	r3, [r3, #0]
 80018c4:	68da      	ldr	r2, [r3, #12]
 80018c6:	687b      	ldr	r3, [r7, #4]
 80018c8:	681b      	ldr	r3, [r3, #0]
 80018ca:	f422 5200 	bic.w	r2, r2, #8192	; 0x2000
 80018ce:	60da      	str	r2, [r3, #12]

  /* Set the UART Communication parameters */
  UART_SetConfig(huart);
 80018d0:	6878      	ldr	r0, [r7, #4]
 80018d2:	f000 f90b 	bl	8001aec <UART_SetConfig>

  /* In asynchronous mode, the following bits must be kept cleared:
     - LINEN and CLKEN bits in the USART_CR2 register,
     - SCEN, HDSEL and IREN  bits in the USART_CR3 register.*/
  CLEAR_BIT(huart->Instance->CR2, (USART_CR2_LINEN | USART_CR2_CLKEN));
 80018d6:	687b      	ldr	r3, [r7, #4]
 80018d8:	681b      	ldr	r3, [r3, #0]
 80018da:	691a      	ldr	r2, [r3, #16]
 80018dc:	687b      	ldr	r3, [r7, #4]
 80018de:	681b      	ldr	r3, [r3, #0]
 80018e0:	f422 4290 	bic.w	r2, r2, #18432	; 0x4800
 80018e4:	611a      	str	r2, [r3, #16]
  CLEAR_BIT(huart->Instance->CR3, (USART_CR3_SCEN | USART_CR3_HDSEL | USART_CR3_IREN));
 80018e6:	687b      	ldr	r3, [r7, #4]
 80018e8:	681b      	ldr	r3, [r3, #0]
 80018ea:	695a      	ldr	r2, [r3, #20]
 80018ec:	687b      	ldr	r3, [r7, #4]
 80018ee:	681b      	ldr	r3, [r3, #0]
 80018f0:	f022 022a 	bic.w	r2, r2, #42	; 0x2a
 80018f4:	615a      	str	r2, [r3, #20]

  /* Enable the peripheral */
  __HAL_UART_ENABLE(huart);
 80018f6:	687b      	ldr	r3, [r7, #4]
 80018f8:	681b      	ldr	r3, [r3, #0]
 80018fa:	68da      	ldr	r2, [r3, #12]
 80018fc:	687b      	ldr	r3, [r7, #4]
 80018fe:	681b      	ldr	r3, [r3, #0]
 8001900:	f442 5200 	orr.w	r2, r2, #8192	; 0x2000
 8001904:	60da      	str	r2, [r3, #12]

  /* Initialize the UART state */
  huart->ErrorCode = HAL_UART_ERROR_NONE;
 8001906:	687b      	ldr	r3, [r7, #4]
 8001908:	2200      	movs	r2, #0
 800190a:	63da      	str	r2, [r3, #60]	; 0x3c
  huart->gState = HAL_UART_STATE_READY;
 800190c:	687b      	ldr	r3, [r7, #4]
 800190e:	2220      	movs	r2, #32
 8001910:	f883 2039 	strb.w	r2, [r3, #57]	; 0x39
  huart->RxState = HAL_UART_STATE_READY;
 8001914:	687b      	ldr	r3, [r7, #4]
 8001916:	2220      	movs	r2, #32
 8001918:	f883 203a 	strb.w	r2, [r3, #58]	; 0x3a

  return HAL_OK;
 800191c:	2300      	movs	r3, #0
}
 800191e:	4618      	mov	r0, r3
 8001920:	3708      	adds	r7, #8
 8001922:	46bd      	mov	sp, r7
 8001924:	bd80      	pop	{r7, pc}

08001926 <HAL_UART_Transmit>:
  * @param  Size  Amount of data elements (u8 or u16) to be sent
  * @param  Timeout Timeout duration
  * @retval HAL status
  */
HAL_StatusTypeDef HAL_UART_Transmit(UART_HandleTypeDef *huart, uint8_t *pData, uint16_t Size, uint32_t Timeout)
{
 8001926:	b580      	push	{r7, lr}
 8001928:	b088      	sub	sp, #32
 800192a:	af02      	add	r7, sp, #8
 800192c:	60f8      	str	r0, [r7, #12]
 800192e:	60b9      	str	r1, [r7, #8]
 8001930:	603b      	str	r3, [r7, #0]
 8001932:	4613      	mov	r3, r2
 8001934:	80fb      	strh	r3, [r7, #6]
  uint16_t *tmp;
  uint32_t tickstart = 0U;
 8001936:	2300      	movs	r3, #0
 8001938:	617b      	str	r3, [r7, #20]

  /* Check that a Tx process is not already ongoing */
  if (huart->gState == HAL_UART_STATE_READY)
 800193a:	68fb      	ldr	r3, [r7, #12]
 800193c:	f893 3039 	ldrb.w	r3, [r3, #57]	; 0x39
 8001940:	b2db      	uxtb	r3, r3
 8001942:	2b20      	cmp	r3, #32
 8001944:	f040 8083 	bne.w	8001a4e <HAL_UART_Transmit+0x128>
  {
    if ((pData == NULL) || (Size == 0U))
 8001948:	68bb      	ldr	r3, [r7, #8]
 800194a:	2b00      	cmp	r3, #0
 800194c:	d002      	beq.n	8001954 <HAL_UART_Transmit+0x2e>
 800194e:	88fb      	ldrh	r3, [r7, #6]
 8001950:	2b00      	cmp	r3, #0
 8001952:	d101      	bne.n	8001958 <HAL_UART_Transmit+0x32>
    {
      return  HAL_ERROR;
 8001954:	2301      	movs	r3, #1
 8001956:	e07b      	b.n	8001a50 <HAL_UART_Transmit+0x12a>
    }

    /* Process Locked */
    __HAL_LOCK(huart);
 8001958:	68fb      	ldr	r3, [r7, #12]
 800195a:	f893 3038 	ldrb.w	r3, [r3, #56]	; 0x38
 800195e:	2b01      	cmp	r3, #1
 8001960:	d101      	bne.n	8001966 <HAL_UART_Transmit+0x40>
 8001962:	2302      	movs	r3, #2
 8001964:	e074      	b.n	8001a50 <HAL_UART_Transmit+0x12a>
 8001966:	68fb      	ldr	r3, [r7, #12]
 8001968:	2201      	movs	r2, #1
 800196a:	f883 2038 	strb.w	r2, [r3, #56]	; 0x38

    huart->ErrorCode = HAL_UART_ERROR_NONE;
 800196e:	68fb      	ldr	r3, [r7, #12]
 8001970:	2200      	movs	r2, #0
 8001972:	63da      	str	r2, [r3, #60]	; 0x3c
    huart->gState = HAL_UART_STATE_BUSY_TX;
 8001974:	68fb      	ldr	r3, [r7, #12]
 8001976:	2221      	movs	r2, #33	; 0x21
 8001978:	f883 2039 	strb.w	r2, [r3, #57]	; 0x39

    /* Init tickstart for timeout managment */
    tickstart = HAL_GetTick();
 800197c:	f7ff f842 	bl	8000a04 <HAL_GetTick>
 8001980:	6178      	str	r0, [r7, #20]

    huart->TxXferSize = Size;
 8001982:	68fb      	ldr	r3, [r7, #12]
 8001984:	88fa      	ldrh	r2, [r7, #6]
 8001986:	849a      	strh	r2, [r3, #36]	; 0x24
    huart->TxXferCount = Size;
 8001988:	68fb      	ldr	r3, [r7, #12]
 800198a:	88fa      	ldrh	r2, [r7, #6]
 800198c:	84da      	strh	r2, [r3, #38]	; 0x26

    /* Process Unlocked */
    __HAL_UNLOCK(huart);
 800198e:	68fb      	ldr	r3, [r7, #12]
 8001990:	2200      	movs	r2, #0
 8001992:	f883 2038 	strb.w	r2, [r3, #56]	; 0x38

    while (huart->TxXferCount > 0U)
 8001996:	e042      	b.n	8001a1e <HAL_UART_Transmit+0xf8>
    {
      huart->TxXferCount--;
 8001998:	68fb      	ldr	r3, [r7, #12]
 800199a:	8cdb      	ldrh	r3, [r3, #38]	; 0x26
 800199c:	b29b      	uxth	r3, r3
 800199e:	3b01      	subs	r3, #1
 80019a0:	b29a      	uxth	r2, r3
 80019a2:	68fb      	ldr	r3, [r7, #12]
 80019a4:	84da      	strh	r2, [r3, #38]	; 0x26
      if (huart->Init.WordLength == UART_WORDLENGTH_9B)
 80019a6:	68fb      	ldr	r3, [r7, #12]
 80019a8:	689b      	ldr	r3, [r3, #8]
 80019aa:	f5b3 5f80 	cmp.w	r3, #4096	; 0x1000
 80019ae:	d122      	bne.n	80019f6 <HAL_UART_Transmit+0xd0>
      {
        if (UART_WaitOnFlagUntilTimeout(huart, UART_FLAG_TXE, RESET, tickstart, Timeout) != HAL_OK)
 80019b0:	683b      	ldr	r3, [r7, #0]
 80019b2:	9300      	str	r3, [sp, #0]
 80019b4:	697b      	ldr	r3, [r7, #20]
 80019b6:	2200      	movs	r2, #0
 80019b8:	2180      	movs	r1, #128	; 0x80
 80019ba:	68f8      	ldr	r0, [r7, #12]
 80019bc:	f000 f84c 	bl	8001a58 <UART_WaitOnFlagUntilTimeout>
 80019c0:	4603      	mov	r3, r0
 80019c2:	2b00      	cmp	r3, #0
 80019c4:	d001      	beq.n	80019ca <HAL_UART_Transmit+0xa4>
        {
          return HAL_TIMEOUT;
 80019c6:	2303      	movs	r3, #3
 80019c8:	e042      	b.n	8001a50 <HAL_UART_Transmit+0x12a>
        }
        tmp = (uint16_t *) pData;
 80019ca:	68bb      	ldr	r3, [r7, #8]
 80019cc:	613b      	str	r3, [r7, #16]
        huart->Instance->DR = (*tmp & (uint16_t)0x01FF);
 80019ce:	693b      	ldr	r3, [r7, #16]
 80019d0:	881b      	ldrh	r3, [r3, #0]
 80019d2:	461a      	mov	r2, r3
 80019d4:	68fb      	ldr	r3, [r7, #12]
 80019d6:	681b      	ldr	r3, [r3, #0]
 80019d8:	f3c2 0208 	ubfx	r2, r2, #0, #9
 80019dc:	605a      	str	r2, [r3, #4]
        if (huart->Init.Parity == UART_PARITY_NONE)
 80019de:	68fb      	ldr	r3, [r7, #12]
 80019e0:	691b      	ldr	r3, [r3, #16]
 80019e2:	2b00      	cmp	r3, #0
 80019e4:	d103      	bne.n	80019ee <HAL_UART_Transmit+0xc8>
        {
          pData += 2U;
 80019e6:	68bb      	ldr	r3, [r7, #8]
 80019e8:	3302      	adds	r3, #2
 80019ea:	60bb      	str	r3, [r7, #8]
 80019ec:	e017      	b.n	8001a1e <HAL_UART_Transmit+0xf8>
        }
        else
        {
          pData += 1U;
 80019ee:	68bb      	ldr	r3, [r7, #8]
 80019f0:	3301      	adds	r3, #1
 80019f2:	60bb      	str	r3, [r7, #8]
 80019f4:	e013      	b.n	8001a1e <HAL_UART_Transmit+0xf8>
        }
      }
      else
      {
        if (UART_WaitOnFlagUntilTimeout(huart, UART_FLAG_TXE, RESET, tickstart, Timeout) != HAL_OK)
 80019f6:	683b      	ldr	r3, [r7, #0]
 80019f8:	9300      	str	r3, [sp, #0]
 80019fa:	697b      	ldr	r3, [r7, #20]
 80019fc:	2200      	movs	r2, #0
 80019fe:	2180      	movs	r1, #128	; 0x80
 8001a00:	68f8      	ldr	r0, [r7, #12]
 8001a02:	f000 f829 	bl	8001a58 <UART_WaitOnFlagUntilTimeout>
 8001a06:	4603      	mov	r3, r0
 8001a08:	2b00      	cmp	r3, #0
 8001a0a:	d001      	beq.n	8001a10 <HAL_UART_Transmit+0xea>
        {
          return HAL_TIMEOUT;
 8001a0c:	2303      	movs	r3, #3
 8001a0e:	e01f      	b.n	8001a50 <HAL_UART_Transmit+0x12a>
        }
        huart->Instance->DR = (*pData++ & (uint8_t)0xFF);
 8001a10:	68bb      	ldr	r3, [r7, #8]
 8001a12:	1c5a      	adds	r2, r3, #1
 8001a14:	60ba      	str	r2, [r7, #8]
 8001a16:	781a      	ldrb	r2, [r3, #0]
 8001a18:	68fb      	ldr	r3, [r7, #12]
 8001a1a:	681b      	ldr	r3, [r3, #0]
 8001a1c:	605a      	str	r2, [r3, #4]
    while (huart->TxXferCount > 0U)
 8001a1e:	68fb      	ldr	r3, [r7, #12]
 8001a20:	8cdb      	ldrh	r3, [r3, #38]	; 0x26
 8001a22:	b29b      	uxth	r3, r3
 8001a24:	2b00      	cmp	r3, #0
 8001a26:	d1b7      	bne.n	8001998 <HAL_UART_Transmit+0x72>
      }
    }

    if (UART_WaitOnFlagUntilTimeout(huart, UART_FLAG_TC, RESET, tickstart, Timeout) != HAL_OK)
 8001a28:	683b      	ldr	r3, [r7, #0]
 8001a2a:	9300      	str	r3, [sp, #0]
 8001a2c:	697b      	ldr	r3, [r7, #20]
 8001a2e:	2200      	movs	r2, #0
 8001a30:	2140      	movs	r1, #64	; 0x40
 8001a32:	68f8      	ldr	r0, [r7, #12]
 8001a34:	f000 f810 	bl	8001a58 <UART_WaitOnFlagUntilTimeout>
 8001a38:	4603      	mov	r3, r0
 8001a3a:	2b00      	cmp	r3, #0
 8001a3c:	d001      	beq.n	8001a42 <HAL_UART_Transmit+0x11c>
    {
      return HAL_TIMEOUT;
 8001a3e:	2303      	movs	r3, #3
 8001a40:	e006      	b.n	8001a50 <HAL_UART_Transmit+0x12a>
    }

    /* At end of Tx process, restore huart->gState to Ready */
    huart->gState = HAL_UART_STATE_READY;
 8001a42:	68fb      	ldr	r3, [r7, #12]
 8001a44:	2220      	movs	r2, #32
 8001a46:	f883 2039 	strb.w	r2, [r3, #57]	; 0x39

    return HAL_OK;
 8001a4a:	2300      	movs	r3, #0
 8001a4c:	e000      	b.n	8001a50 <HAL_UART_Transmit+0x12a>
  }
  else
  {
    return HAL_BUSY;
 8001a4e:	2302      	movs	r3, #2
  }
}
 8001a50:	4618      	mov	r0, r3
 8001a52:	3718      	adds	r7, #24
 8001a54:	46bd      	mov	sp, r7
 8001a56:	bd80      	pop	{r7, pc}

08001a58 <UART_WaitOnFlagUntilTimeout>:
  * @param  Tickstart Tick start value
  * @param  Timeout Timeout duration
  * @retval HAL status
  */
static HAL_StatusTypeDef UART_WaitOnFlagUntilTimeout(UART_HandleTypeDef *huart, uint32_t Flag, FlagStatus Status, uint32_t Tickstart, uint32_t Timeout)
{
 8001a58:	b580      	push	{r7, lr}
 8001a5a:	b084      	sub	sp, #16
 8001a5c:	af00      	add	r7, sp, #0
 8001a5e:	60f8      	str	r0, [r7, #12]
 8001a60:	60b9      	str	r1, [r7, #8]
 8001a62:	603b      	str	r3, [r7, #0]
 8001a64:	4613      	mov	r3, r2
 8001a66:	71fb      	strb	r3, [r7, #7]
  /* Wait until flag is set */
  while ((__HAL_UART_GET_FLAG(huart, Flag) ? SET : RESET) == Status)
 8001a68:	e02c      	b.n	8001ac4 <UART_WaitOnFlagUntilTimeout+0x6c>
  {
    /* Check for the Timeout */
    if (Timeout != HAL_MAX_DELAY)
 8001a6a:	69bb      	ldr	r3, [r7, #24]
 8001a6c:	f1b3 3fff 	cmp.w	r3, #4294967295
 8001a70:	d028      	beq.n	8001ac4 <UART_WaitOnFlagUntilTimeout+0x6c>
    {
      if ((Timeout == 0U) || ((HAL_GetTick() - Tickstart) > Timeout))
 8001a72:	69bb      	ldr	r3, [r7, #24]
 8001a74:	2b00      	cmp	r3, #0
 8001a76:	d007      	beq.n	8001a88 <UART_WaitOnFlagUntilTimeout+0x30>
 8001a78:	f7fe ffc4 	bl	8000a04 <HAL_GetTick>
 8001a7c:	4602      	mov	r2, r0
 8001a7e:	683b      	ldr	r3, [r7, #0]
 8001a80:	1ad3      	subs	r3, r2, r3
 8001a82:	69ba      	ldr	r2, [r7, #24]
 8001a84:	429a      	cmp	r2, r3
 8001a86:	d21d      	bcs.n	8001ac4 <UART_WaitOnFlagUntilTimeout+0x6c>
      {
        /* Disable TXE, RXNE, PE and ERR (Frame error, noise error, overrun error) interrupts for the interrupt process */
        CLEAR_BIT(huart->Instance->CR1, (USART_CR1_RXNEIE | USART_CR1_PEIE | USART_CR1_TXEIE));
 8001a88:	68fb      	ldr	r3, [r7, #12]
 8001a8a:	681b      	ldr	r3, [r3, #0]
 8001a8c:	68da      	ldr	r2, [r3, #12]
 8001a8e:	68fb      	ldr	r3, [r7, #12]
 8001a90:	681b      	ldr	r3, [r3, #0]
 8001a92:	f422 72d0 	bic.w	r2, r2, #416	; 0x1a0
 8001a96:	60da      	str	r2, [r3, #12]
        CLEAR_BIT(huart->Instance->CR3, USART_CR3_EIE);
 8001a98:	68fb      	ldr	r3, [r7, #12]
 8001a9a:	681b      	ldr	r3, [r3, #0]
 8001a9c:	695a      	ldr	r2, [r3, #20]
 8001a9e:	68fb      	ldr	r3, [r7, #12]
 8001aa0:	681b      	ldr	r3, [r3, #0]
 8001aa2:	f022 0201 	bic.w	r2, r2, #1
 8001aa6:	615a      	str	r2, [r3, #20]

        huart->gState  = HAL_UART_STATE_READY;
 8001aa8:	68fb      	ldr	r3, [r7, #12]
 8001aaa:	2220      	movs	r2, #32
 8001aac:	f883 2039 	strb.w	r2, [r3, #57]	; 0x39
        huart->RxState = HAL_UART_STATE_READY;
 8001ab0:	68fb      	ldr	r3, [r7, #12]
 8001ab2:	2220      	movs	r2, #32
 8001ab4:	f883 203a 	strb.w	r2, [r3, #58]	; 0x3a

        /* Process Unlocked */
        __HAL_UNLOCK(huart);
 8001ab8:	68fb      	ldr	r3, [r7, #12]
 8001aba:	2200      	movs	r2, #0
 8001abc:	f883 2038 	strb.w	r2, [r3, #56]	; 0x38

        return HAL_TIMEOUT;
 8001ac0:	2303      	movs	r3, #3
 8001ac2:	e00f      	b.n	8001ae4 <UART_WaitOnFlagUntilTimeout+0x8c>
  while ((__HAL_UART_GET_FLAG(huart, Flag) ? SET : RESET) == Status)
 8001ac4:	68fb      	ldr	r3, [r7, #12]
 8001ac6:	681b      	ldr	r3, [r3, #0]
 8001ac8:	681a      	ldr	r2, [r3, #0]
 8001aca:	68bb      	ldr	r3, [r7, #8]
 8001acc:	4013      	ands	r3, r2
 8001ace:	68ba      	ldr	r2, [r7, #8]
 8001ad0:	429a      	cmp	r2, r3
 8001ad2:	bf0c      	ite	eq
 8001ad4:	2301      	moveq	r3, #1
 8001ad6:	2300      	movne	r3, #0
 8001ad8:	b2db      	uxtb	r3, r3
 8001ada:	461a      	mov	r2, r3
 8001adc:	79fb      	ldrb	r3, [r7, #7]
 8001ade:	429a      	cmp	r2, r3
 8001ae0:	d0c3      	beq.n	8001a6a <UART_WaitOnFlagUntilTimeout+0x12>
      }
    }
  }
  return HAL_OK;
 8001ae2:	2300      	movs	r3, #0
}
 8001ae4:	4618      	mov	r0, r3
 8001ae6:	3710      	adds	r7, #16
 8001ae8:	46bd      	mov	sp, r7
 8001aea:	bd80      	pop	{r7, pc}

08001aec <UART_SetConfig>:
  * @param  huart  Pointer to a UART_HandleTypeDef structure that contains
  *                the configuration information for the specified UART module.
  * @retval None
  */
static void UART_SetConfig(UART_HandleTypeDef *huart)
{
 8001aec:	e92d 4ff0 	stmdb	sp!, {r4, r5, r6, r7, r8, r9, sl, fp, lr}
 8001af0:	b085      	sub	sp, #20
 8001af2:	af00      	add	r7, sp, #0
 8001af4:	6078      	str	r0, [r7, #4]
  assert_param(IS_UART_MODE(huart->Init.Mode));

  /*-------------------------- USART CR2 Configuration -----------------------*/
  /* Configure the UART Stop Bits: Set STOP[13:12] bits
     according to huart->Init.StopBits value */
  MODIFY_REG(huart->Instance->CR2, USART_CR2_STOP, huart->Init.StopBits);
 8001af6:	687b      	ldr	r3, [r7, #4]
 8001af8:	681b      	ldr	r3, [r3, #0]
 8001afa:	691b      	ldr	r3, [r3, #16]
 8001afc:	f423 5140 	bic.w	r1, r3, #12288	; 0x3000
 8001b00:	687b      	ldr	r3, [r7, #4]
 8001b02:	68da      	ldr	r2, [r3, #12]
 8001b04:	687b      	ldr	r3, [r7, #4]
 8001b06:	681b      	ldr	r3, [r3, #0]
 8001b08:	430a      	orrs	r2, r1
 8001b0a:	611a      	str	r2, [r3, #16]
     Set the M bits according to huart->Init.WordLength value
     Set PCE and PS bits according to huart->Init.Parity value
     Set TE and RE bits according to huart->Init.Mode value
     Set OVER8 bit according to huart->Init.OverSampling value */

  tmpreg = (uint32_t)huart->Init.WordLength | huart->Init.Parity | huart->Init.Mode | huart->Init.OverSampling;
 8001b0c:	687b      	ldr	r3, [r7, #4]
 8001b0e:	689a      	ldr	r2, [r3, #8]
 8001b10:	687b      	ldr	r3, [r7, #4]
 8001b12:	691b      	ldr	r3, [r3, #16]
 8001b14:	431a      	orrs	r2, r3
 8001b16:	687b      	ldr	r3, [r7, #4]
 8001b18:	695b      	ldr	r3, [r3, #20]
 8001b1a:	431a      	orrs	r2, r3
 8001b1c:	687b      	ldr	r3, [r7, #4]
 8001b1e:	69db      	ldr	r3, [r3, #28]
 8001b20:	4313      	orrs	r3, r2
 8001b22:	60fb      	str	r3, [r7, #12]
  MODIFY_REG(huart->Instance->CR1,
 8001b24:	687b      	ldr	r3, [r7, #4]
 8001b26:	681b      	ldr	r3, [r3, #0]
 8001b28:	68db      	ldr	r3, [r3, #12]
 8001b2a:	f423 4316 	bic.w	r3, r3, #38400	; 0x9600
 8001b2e:	f023 030c 	bic.w	r3, r3, #12
 8001b32:	687a      	ldr	r2, [r7, #4]
 8001b34:	6812      	ldr	r2, [r2, #0]
 8001b36:	68f9      	ldr	r1, [r7, #12]
 8001b38:	430b      	orrs	r3, r1
 8001b3a:	60d3      	str	r3, [r2, #12]
             (uint32_t)(USART_CR1_M | USART_CR1_PCE | USART_CR1_PS | USART_CR1_TE | USART_CR1_RE | USART_CR1_OVER8),
             tmpreg);

  /*-------------------------- USART CR3 Configuration -----------------------*/
  /* Configure the UART HFC: Set CTSE and RTSE bits according to huart->Init.HwFlowCtl value */
  MODIFY_REG(huart->Instance->CR3, (USART_CR3_RTSE | USART_CR3_CTSE), huart->Init.HwFlowCtl);
 8001b3c:	687b      	ldr	r3, [r7, #4]
 8001b3e:	681b      	ldr	r3, [r3, #0]
 8001b40:	695b      	ldr	r3, [r3, #20]
 8001b42:	f423 7140 	bic.w	r1, r3, #768	; 0x300
 8001b46:	687b      	ldr	r3, [r7, #4]
 8001b48:	699a      	ldr	r2, [r3, #24]
 8001b4a:	687b      	ldr	r3, [r7, #4]
 8001b4c:	681b      	ldr	r3, [r3, #0]
 8001b4e:	430a      	orrs	r2, r1
 8001b50:	615a      	str	r2, [r3, #20]

  /* Check the Over Sampling */
  if (huart->Init.OverSampling == UART_OVERSAMPLING_8)
 8001b52:	687b      	ldr	r3, [r7, #4]
 8001b54:	69db      	ldr	r3, [r3, #28]
 8001b56:	f5b3 4f00 	cmp.w	r3, #32768	; 0x8000
 8001b5a:	f040 818b 	bne.w	8001e74 <UART_SetConfig+0x388>
    {
      pclk = HAL_RCC_GetPCLK2Freq();
      huart->Instance->BRR = UART_BRR_SAMPLING8(pclk, huart->Init.BaudRate);
    }
#elif defined(USART6)
    if ((huart->Instance == USART1) || (huart->Instance == USART6))
 8001b5e:	687b      	ldr	r3, [r7, #4]
 8001b60:	681b      	ldr	r3, [r3, #0]
 8001b62:	4ac1      	ldr	r2, [pc, #772]	; (8001e68 <UART_SetConfig+0x37c>)
 8001b64:	4293      	cmp	r3, r2
 8001b66:	d005      	beq.n	8001b74 <UART_SetConfig+0x88>
 8001b68:	687b      	ldr	r3, [r7, #4]
 8001b6a:	681b      	ldr	r3, [r3, #0]
 8001b6c:	4abf      	ldr	r2, [pc, #764]	; (8001e6c <UART_SetConfig+0x380>)
 8001b6e:	4293      	cmp	r3, r2
 8001b70:	f040 80bd 	bne.w	8001cee <UART_SetConfig+0x202>
    {
      pclk = HAL_RCC_GetPCLK2Freq();
 8001b74:	f7ff fe76 	bl	8001864 <HAL_RCC_GetPCLK2Freq>
 8001b78:	60b8      	str	r0, [r7, #8]
      huart->Instance->BRR = UART_BRR_SAMPLING8(pclk, huart->Init.BaudRate);
 8001b7a:	68bb      	ldr	r3, [r7, #8]
 8001b7c:	461d      	mov	r5, r3
 8001b7e:	f04f 0600 	mov.w	r6, #0
 8001b82:	46a8      	mov	r8, r5
 8001b84:	46b1      	mov	r9, r6
 8001b86:	eb18 0308 	adds.w	r3, r8, r8
 8001b8a:	eb49 0409 	adc.w	r4, r9, r9
 8001b8e:	4698      	mov	r8, r3
 8001b90:	46a1      	mov	r9, r4
 8001b92:	eb18 0805 	adds.w	r8, r8, r5
 8001b96:	eb49 0906 	adc.w	r9, r9, r6
 8001b9a:	f04f 0100 	mov.w	r1, #0
 8001b9e:	f04f 0200 	mov.w	r2, #0
 8001ba2:	ea4f 02c9 	mov.w	r2, r9, lsl #3
 8001ba6:	ea42 7258 	orr.w	r2, r2, r8, lsr #29
 8001baa:	ea4f 01c8 	mov.w	r1, r8, lsl #3
 8001bae:	4688      	mov	r8, r1
 8001bb0:	4691      	mov	r9, r2
 8001bb2:	eb18 0005 	adds.w	r0, r8, r5
 8001bb6:	eb49 0106 	adc.w	r1, r9, r6
 8001bba:	687b      	ldr	r3, [r7, #4]
 8001bbc:	685b      	ldr	r3, [r3, #4]
 8001bbe:	461d      	mov	r5, r3
 8001bc0:	f04f 0600 	mov.w	r6, #0
 8001bc4:	196b      	adds	r3, r5, r5
 8001bc6:	eb46 0406 	adc.w	r4, r6, r6
 8001bca:	461a      	mov	r2, r3
 8001bcc:	4623      	mov	r3, r4
 8001bce:	f7fe fb57 	bl	8000280 <__aeabi_uldivmod>
 8001bd2:	4603      	mov	r3, r0
 8001bd4:	460c      	mov	r4, r1
 8001bd6:	461a      	mov	r2, r3
 8001bd8:	4ba5      	ldr	r3, [pc, #660]	; (8001e70 <UART_SetConfig+0x384>)
 8001bda:	fba3 2302 	umull	r2, r3, r3, r2
 8001bde:	095b      	lsrs	r3, r3, #5
 8001be0:	ea4f 1803 	mov.w	r8, r3, lsl #4
 8001be4:	68bb      	ldr	r3, [r7, #8]
 8001be6:	461d      	mov	r5, r3
 8001be8:	f04f 0600 	mov.w	r6, #0
 8001bec:	46a9      	mov	r9, r5
 8001bee:	46b2      	mov	sl, r6
 8001bf0:	eb19 0309 	adds.w	r3, r9, r9
 8001bf4:	eb4a 040a 	adc.w	r4, sl, sl
 8001bf8:	4699      	mov	r9, r3
 8001bfa:	46a2      	mov	sl, r4
 8001bfc:	eb19 0905 	adds.w	r9, r9, r5
 8001c00:	eb4a 0a06 	adc.w	sl, sl, r6
 8001c04:	f04f 0100 	mov.w	r1, #0
 8001c08:	f04f 0200 	mov.w	r2, #0
 8001c0c:	ea4f 02ca 	mov.w	r2, sl, lsl #3
 8001c10:	ea42 7259 	orr.w	r2, r2, r9, lsr #29
 8001c14:	ea4f 01c9 	mov.w	r1, r9, lsl #3
 8001c18:	4689      	mov	r9, r1
 8001c1a:	4692      	mov	sl, r2
 8001c1c:	eb19 0005 	adds.w	r0, r9, r5
 8001c20:	eb4a 0106 	adc.w	r1, sl, r6
 8001c24:	687b      	ldr	r3, [r7, #4]
 8001c26:	685b      	ldr	r3, [r3, #4]
 8001c28:	461d      	mov	r5, r3
 8001c2a:	f04f 0600 	mov.w	r6, #0
 8001c2e:	196b      	adds	r3, r5, r5
 8001c30:	eb46 0406 	adc.w	r4, r6, r6
 8001c34:	461a      	mov	r2, r3
 8001c36:	4623      	mov	r3, r4
 8001c38:	f7fe fb22 	bl	8000280 <__aeabi_uldivmod>
 8001c3c:	4603      	mov	r3, r0
 8001c3e:	460c      	mov	r4, r1
 8001c40:	461a      	mov	r2, r3
 8001c42:	4b8b      	ldr	r3, [pc, #556]	; (8001e70 <UART_SetConfig+0x384>)
 8001c44:	fba3 1302 	umull	r1, r3, r3, r2
 8001c48:	095b      	lsrs	r3, r3, #5
 8001c4a:	2164      	movs	r1, #100	; 0x64
 8001c4c:	fb01 f303 	mul.w	r3, r1, r3
 8001c50:	1ad3      	subs	r3, r2, r3
 8001c52:	00db      	lsls	r3, r3, #3
 8001c54:	3332      	adds	r3, #50	; 0x32
 8001c56:	4a86      	ldr	r2, [pc, #536]	; (8001e70 <UART_SetConfig+0x384>)
 8001c58:	fba2 2303 	umull	r2, r3, r2, r3
 8001c5c:	095b      	lsrs	r3, r3, #5
 8001c5e:	005b      	lsls	r3, r3, #1
 8001c60:	f403 73f8 	and.w	r3, r3, #496	; 0x1f0
 8001c64:	4498      	add	r8, r3
 8001c66:	68bb      	ldr	r3, [r7, #8]
 8001c68:	461d      	mov	r5, r3
 8001c6a:	f04f 0600 	mov.w	r6, #0
 8001c6e:	46a9      	mov	r9, r5
 8001c70:	46b2      	mov	sl, r6
 8001c72:	eb19 0309 	adds.w	r3, r9, r9
 8001c76:	eb4a 040a 	adc.w	r4, sl, sl
 8001c7a:	4699      	mov	r9, r3
 8001c7c:	46a2      	mov	sl, r4
 8001c7e:	eb19 0905 	adds.w	r9, r9, r5
 8001c82:	eb4a 0a06 	adc.w	sl, sl, r6
 8001c86:	f04f 0100 	mov.w	r1, #0
 8001c8a:	f04f 0200 	mov.w	r2, #0
 8001c8e:	ea4f 02ca 	mov.w	r2, sl, lsl #3
 8001c92:	ea42 7259 	orr.w	r2, r2, r9, lsr #29
 8001c96:	ea4f 01c9 	mov.w	r1, r9, lsl #3
 8001c9a:	4689      	mov	r9, r1
 8001c9c:	4692      	mov	sl, r2
 8001c9e:	eb19 0005 	adds.w	r0, r9, r5
 8001ca2:	eb4a 0106 	adc.w	r1, sl, r6
 8001ca6:	687b      	ldr	r3, [r7, #4]
 8001ca8:	685b      	ldr	r3, [r3, #4]
 8001caa:	461d      	mov	r5, r3
 8001cac:	f04f 0600 	mov.w	r6, #0
 8001cb0:	196b      	adds	r3, r5, r5
 8001cb2:	eb46 0406 	adc.w	r4, r6, r6
 8001cb6:	461a      	mov	r2, r3
 8001cb8:	4623      	mov	r3, r4
 8001cba:	f7fe fae1 	bl	8000280 <__aeabi_uldivmod>
 8001cbe:	4603      	mov	r3, r0
 8001cc0:	460c      	mov	r4, r1
 8001cc2:	461a      	mov	r2, r3
 8001cc4:	4b6a      	ldr	r3, [pc, #424]	; (8001e70 <UART_SetConfig+0x384>)
 8001cc6:	fba3 1302 	umull	r1, r3, r3, r2
 8001cca:	095b      	lsrs	r3, r3, #5
 8001ccc:	2164      	movs	r1, #100	; 0x64
 8001cce:	fb01 f303 	mul.w	r3, r1, r3
 8001cd2:	1ad3      	subs	r3, r2, r3
 8001cd4:	00db      	lsls	r3, r3, #3
 8001cd6:	3332      	adds	r3, #50	; 0x32
 8001cd8:	4a65      	ldr	r2, [pc, #404]	; (8001e70 <UART_SetConfig+0x384>)
 8001cda:	fba2 2303 	umull	r2, r3, r2, r3
 8001cde:	095b      	lsrs	r3, r3, #5
 8001ce0:	f003 0207 	and.w	r2, r3, #7
 8001ce4:	687b      	ldr	r3, [r7, #4]
 8001ce6:	681b      	ldr	r3, [r3, #0]
 8001ce8:	4442      	add	r2, r8
 8001cea:	609a      	str	r2, [r3, #8]
 8001cec:	e26f      	b.n	80021ce <UART_SetConfig+0x6e2>
      huart->Instance->BRR = UART_BRR_SAMPLING8(pclk, huart->Init.BaudRate);
    }
#endif /* USART6 */
    else
    {
      pclk = HAL_RCC_GetPCLK1Freq();
 8001cee:	f7ff fda5 	bl	800183c <HAL_RCC_GetPCLK1Freq>
 8001cf2:	60b8      	str	r0, [r7, #8]
      huart->Instance->BRR = UART_BRR_SAMPLING8(pclk, huart->Init.BaudRate);
 8001cf4:	68bb      	ldr	r3, [r7, #8]
 8001cf6:	461d      	mov	r5, r3
 8001cf8:	f04f 0600 	mov.w	r6, #0
 8001cfc:	46a8      	mov	r8, r5
 8001cfe:	46b1      	mov	r9, r6
 8001d00:	eb18 0308 	adds.w	r3, r8, r8
 8001d04:	eb49 0409 	adc.w	r4, r9, r9
 8001d08:	4698      	mov	r8, r3
 8001d0a:	46a1      	mov	r9, r4
 8001d0c:	eb18 0805 	adds.w	r8, r8, r5
 8001d10:	eb49 0906 	adc.w	r9, r9, r6
 8001d14:	f04f 0100 	mov.w	r1, #0
 8001d18:	f04f 0200 	mov.w	r2, #0
 8001d1c:	ea4f 02c9 	mov.w	r2, r9, lsl #3
 8001d20:	ea42 7258 	orr.w	r2, r2, r8, lsr #29
 8001d24:	ea4f 01c8 	mov.w	r1, r8, lsl #3
 8001d28:	4688      	mov	r8, r1
 8001d2a:	4691      	mov	r9, r2
 8001d2c:	eb18 0005 	adds.w	r0, r8, r5
 8001d30:	eb49 0106 	adc.w	r1, r9, r6
 8001d34:	687b      	ldr	r3, [r7, #4]
 8001d36:	685b      	ldr	r3, [r3, #4]
 8001d38:	461d      	mov	r5, r3
 8001d3a:	f04f 0600 	mov.w	r6, #0
 8001d3e:	196b      	adds	r3, r5, r5
 8001d40:	eb46 0406 	adc.w	r4, r6, r6
 8001d44:	461a      	mov	r2, r3
 8001d46:	4623      	mov	r3, r4
 8001d48:	f7fe fa9a 	bl	8000280 <__aeabi_uldivmod>
 8001d4c:	4603      	mov	r3, r0
 8001d4e:	460c      	mov	r4, r1
 8001d50:	461a      	mov	r2, r3
 8001d52:	4b47      	ldr	r3, [pc, #284]	; (8001e70 <UART_SetConfig+0x384>)
 8001d54:	fba3 2302 	umull	r2, r3, r3, r2
 8001d58:	095b      	lsrs	r3, r3, #5
 8001d5a:	ea4f 1803 	mov.w	r8, r3, lsl #4
 8001d5e:	68bb      	ldr	r3, [r7, #8]
 8001d60:	461d      	mov	r5, r3
 8001d62:	f04f 0600 	mov.w	r6, #0
 8001d66:	46a9      	mov	r9, r5
 8001d68:	46b2      	mov	sl, r6
 8001d6a:	eb19 0309 	adds.w	r3, r9, r9
 8001d6e:	eb4a 040a 	adc.w	r4, sl, sl
 8001d72:	4699      	mov	r9, r3
 8001d74:	46a2      	mov	sl, r4
 8001d76:	eb19 0905 	adds.w	r9, r9, r5
 8001d7a:	eb4a 0a06 	adc.w	sl, sl, r6
 8001d7e:	f04f 0100 	mov.w	r1, #0
 8001d82:	f04f 0200 	mov.w	r2, #0
 8001d86:	ea4f 02ca 	mov.w	r2, sl, lsl #3
 8001d8a:	ea42 7259 	orr.w	r2, r2, r9, lsr #29
 8001d8e:	ea4f 01c9 	mov.w	r1, r9, lsl #3
 8001d92:	4689      	mov	r9, r1
 8001d94:	4692      	mov	sl, r2
 8001d96:	eb19 0005 	adds.w	r0, r9, r5
 8001d9a:	eb4a 0106 	adc.w	r1, sl, r6
 8001d9e:	687b      	ldr	r3, [r7, #4]
 8001da0:	685b      	ldr	r3, [r3, #4]
 8001da2:	461d      	mov	r5, r3
 8001da4:	f04f 0600 	mov.w	r6, #0
 8001da8:	196b      	adds	r3, r5, r5
 8001daa:	eb46 0406 	adc.w	r4, r6, r6
 8001dae:	461a      	mov	r2, r3
 8001db0:	4623      	mov	r3, r4
 8001db2:	f7fe fa65 	bl	8000280 <__aeabi_uldivmod>
 8001db6:	4603      	mov	r3, r0
 8001db8:	460c      	mov	r4, r1
 8001dba:	461a      	mov	r2, r3
 8001dbc:	4b2c      	ldr	r3, [pc, #176]	; (8001e70 <UART_SetConfig+0x384>)
 8001dbe:	fba3 1302 	umull	r1, r3, r3, r2
 8001dc2:	095b      	lsrs	r3, r3, #5
 8001dc4:	2164      	movs	r1, #100	; 0x64
 8001dc6:	fb01 f303 	mul.w	r3, r1, r3
 8001dca:	1ad3      	subs	r3, r2, r3
 8001dcc:	00db      	lsls	r3, r3, #3
 8001dce:	3332      	adds	r3, #50	; 0x32
 8001dd0:	4a27      	ldr	r2, [pc, #156]	; (8001e70 <UART_SetConfig+0x384>)
 8001dd2:	fba2 2303 	umull	r2, r3, r2, r3
 8001dd6:	095b      	lsrs	r3, r3, #5
 8001dd8:	005b      	lsls	r3, r3, #1
 8001dda:	f403 73f8 	and.w	r3, r3, #496	; 0x1f0
 8001dde:	4498      	add	r8, r3
 8001de0:	68bb      	ldr	r3, [r7, #8]
 8001de2:	461d      	mov	r5, r3
 8001de4:	f04f 0600 	mov.w	r6, #0
 8001de8:	46a9      	mov	r9, r5
 8001dea:	46b2      	mov	sl, r6
 8001dec:	eb19 0309 	adds.w	r3, r9, r9
 8001df0:	eb4a 040a 	adc.w	r4, sl, sl
 8001df4:	4699      	mov	r9, r3
 8001df6:	46a2      	mov	sl, r4
 8001df8:	eb19 0905 	adds.w	r9, r9, r5
 8001dfc:	eb4a 0a06 	adc.w	sl, sl, r6
 8001e00:	f04f 0100 	mov.w	r1, #0
 8001e04:	f04f 0200 	mov.w	r2, #0
 8001e08:	ea4f 02ca 	mov.w	r2, sl, lsl #3
 8001e0c:	ea42 7259 	orr.w	r2, r2, r9, lsr #29
 8001e10:	ea4f 01c9 	mov.w	r1, r9, lsl #3
 8001e14:	4689      	mov	r9, r1
 8001e16:	4692      	mov	sl, r2
 8001e18:	eb19 0005 	adds.w	r0, r9, r5
 8001e1c:	eb4a 0106 	adc.w	r1, sl, r6
 8001e20:	687b      	ldr	r3, [r7, #4]
 8001e22:	685b      	ldr	r3, [r3, #4]
 8001e24:	461d      	mov	r5, r3
 8001e26:	f04f 0600 	mov.w	r6, #0
 8001e2a:	196b      	adds	r3, r5, r5
 8001e2c:	eb46 0406 	adc.w	r4, r6, r6
 8001e30:	461a      	mov	r2, r3
 8001e32:	4623      	mov	r3, r4
 8001e34:	f7fe fa24 	bl	8000280 <__aeabi_uldivmod>
 8001e38:	4603      	mov	r3, r0
 8001e3a:	460c      	mov	r4, r1
 8001e3c:	461a      	mov	r2, r3
 8001e3e:	4b0c      	ldr	r3, [pc, #48]	; (8001e70 <UART_SetConfig+0x384>)
 8001e40:	fba3 1302 	umull	r1, r3, r3, r2
 8001e44:	095b      	lsrs	r3, r3, #5
 8001e46:	2164      	movs	r1, #100	; 0x64
 8001e48:	fb01 f303 	mul.w	r3, r1, r3
 8001e4c:	1ad3      	subs	r3, r2, r3
 8001e4e:	00db      	lsls	r3, r3, #3
 8001e50:	3332      	adds	r3, #50	; 0x32
 8001e52:	4a07      	ldr	r2, [pc, #28]	; (8001e70 <UART_SetConfig+0x384>)
 8001e54:	fba2 2303 	umull	r2, r3, r2, r3
 8001e58:	095b      	lsrs	r3, r3, #5
 8001e5a:	f003 0207 	and.w	r2, r3, #7
 8001e5e:	687b      	ldr	r3, [r7, #4]
 8001e60:	681b      	ldr	r3, [r3, #0]
 8001e62:	4442      	add	r2, r8
 8001e64:	609a      	str	r2, [r3, #8]
    {
      pclk = HAL_RCC_GetPCLK1Freq();
      huart->Instance->BRR = UART_BRR_SAMPLING16(pclk, huart->Init.BaudRate);
    }
  }
}
 8001e66:	e1b2      	b.n	80021ce <UART_SetConfig+0x6e2>
 8001e68:	40011000 	.word	0x40011000
 8001e6c:	40011400 	.word	0x40011400
 8001e70:	51eb851f 	.word	0x51eb851f
    if ((huart->Instance == USART1) || (huart->Instance == USART6))
 8001e74:	687b      	ldr	r3, [r7, #4]
 8001e76:	681b      	ldr	r3, [r3, #0]
 8001e78:	4ad7      	ldr	r2, [pc, #860]	; (80021d8 <UART_SetConfig+0x6ec>)
 8001e7a:	4293      	cmp	r3, r2
 8001e7c:	d005      	beq.n	8001e8a <UART_SetConfig+0x39e>
 8001e7e:	687b      	ldr	r3, [r7, #4]
 8001e80:	681b      	ldr	r3, [r3, #0]
 8001e82:	4ad6      	ldr	r2, [pc, #856]	; (80021dc <UART_SetConfig+0x6f0>)
 8001e84:	4293      	cmp	r3, r2
 8001e86:	f040 80d1 	bne.w	800202c <UART_SetConfig+0x540>
      pclk = HAL_RCC_GetPCLK2Freq();
 8001e8a:	f7ff fceb 	bl	8001864 <HAL_RCC_GetPCLK2Freq>
 8001e8e:	60b8      	str	r0, [r7, #8]
      huart->Instance->BRR = UART_BRR_SAMPLING16(pclk, huart->Init.BaudRate);
 8001e90:	68bb      	ldr	r3, [r7, #8]
 8001e92:	469a      	mov	sl, r3
 8001e94:	f04f 0b00 	mov.w	fp, #0
 8001e98:	46d0      	mov	r8, sl
 8001e9a:	46d9      	mov	r9, fp
 8001e9c:	eb18 0308 	adds.w	r3, r8, r8
 8001ea0:	eb49 0409 	adc.w	r4, r9, r9
 8001ea4:	4698      	mov	r8, r3
 8001ea6:	46a1      	mov	r9, r4
 8001ea8:	eb18 080a 	adds.w	r8, r8, sl
 8001eac:	eb49 090b 	adc.w	r9, r9, fp
 8001eb0:	f04f 0100 	mov.w	r1, #0
 8001eb4:	f04f 0200 	mov.w	r2, #0
 8001eb8:	ea4f 02c9 	mov.w	r2, r9, lsl #3
 8001ebc:	ea42 7258 	orr.w	r2, r2, r8, lsr #29
 8001ec0:	ea4f 01c8 	mov.w	r1, r8, lsl #3
 8001ec4:	4688      	mov	r8, r1
 8001ec6:	4691      	mov	r9, r2
 8001ec8:	eb1a 0508 	adds.w	r5, sl, r8
 8001ecc:	eb4b 0609 	adc.w	r6, fp, r9
 8001ed0:	687b      	ldr	r3, [r7, #4]
 8001ed2:	685b      	ldr	r3, [r3, #4]
 8001ed4:	4619      	mov	r1, r3
 8001ed6:	f04f 0200 	mov.w	r2, #0
 8001eda:	f04f 0300 	mov.w	r3, #0
 8001ede:	f04f 0400 	mov.w	r4, #0
 8001ee2:	0094      	lsls	r4, r2, #2
 8001ee4:	ea44 7491 	orr.w	r4, r4, r1, lsr #30
 8001ee8:	008b      	lsls	r3, r1, #2
 8001eea:	461a      	mov	r2, r3
 8001eec:	4623      	mov	r3, r4
 8001eee:	4628      	mov	r0, r5
 8001ef0:	4631      	mov	r1, r6
 8001ef2:	f7fe f9c5 	bl	8000280 <__aeabi_uldivmod>
 8001ef6:	4603      	mov	r3, r0
 8001ef8:	460c      	mov	r4, r1
 8001efa:	461a      	mov	r2, r3
 8001efc:	4bb8      	ldr	r3, [pc, #736]	; (80021e0 <UART_SetConfig+0x6f4>)
 8001efe:	fba3 2302 	umull	r2, r3, r3, r2
 8001f02:	095b      	lsrs	r3, r3, #5
 8001f04:	ea4f 1803 	mov.w	r8, r3, lsl #4
 8001f08:	68bb      	ldr	r3, [r7, #8]
 8001f0a:	469b      	mov	fp, r3
 8001f0c:	f04f 0c00 	mov.w	ip, #0
 8001f10:	46d9      	mov	r9, fp
 8001f12:	46e2      	mov	sl, ip
 8001f14:	eb19 0309 	adds.w	r3, r9, r9
 8001f18:	eb4a 040a 	adc.w	r4, sl, sl
 8001f1c:	4699      	mov	r9, r3
 8001f1e:	46a2      	mov	sl, r4
 8001f20:	eb19 090b 	adds.w	r9, r9, fp
 8001f24:	eb4a 0a0c 	adc.w	sl, sl, ip
 8001f28:	f04f 0100 	mov.w	r1, #0
 8001f2c:	f04f 0200 	mov.w	r2, #0
 8001f30:	ea4f 02ca 	mov.w	r2, sl, lsl #3
 8001f34:	ea42 7259 	orr.w	r2, r2, r9, lsr #29
 8001f38:	ea4f 01c9 	mov.w	r1, r9, lsl #3
 8001f3c:	4689      	mov	r9, r1
 8001f3e:	4692      	mov	sl, r2
 8001f40:	eb1b 0509 	adds.w	r5, fp, r9
 8001f44:	eb4c 060a 	adc.w	r6, ip, sl
 8001f48:	687b      	ldr	r3, [r7, #4]
 8001f4a:	685b      	ldr	r3, [r3, #4]
 8001f4c:	4619      	mov	r1, r3
 8001f4e:	f04f 0200 	mov.w	r2, #0
 8001f52:	f04f 0300 	mov.w	r3, #0
 8001f56:	f04f 0400 	mov.w	r4, #0
 8001f5a:	0094      	lsls	r4, r2, #2
 8001f5c:	ea44 7491 	orr.w	r4, r4, r1, lsr #30
 8001f60:	008b      	lsls	r3, r1, #2
 8001f62:	461a      	mov	r2, r3
 8001f64:	4623      	mov	r3, r4
 8001f66:	4628      	mov	r0, r5
 8001f68:	4631      	mov	r1, r6
 8001f6a:	f7fe f989 	bl	8000280 <__aeabi_uldivmod>
 8001f6e:	4603      	mov	r3, r0
 8001f70:	460c      	mov	r4, r1
 8001f72:	461a      	mov	r2, r3
 8001f74:	4b9a      	ldr	r3, [pc, #616]	; (80021e0 <UART_SetConfig+0x6f4>)
 8001f76:	fba3 1302 	umull	r1, r3, r3, r2
 8001f7a:	095b      	lsrs	r3, r3, #5
 8001f7c:	2164      	movs	r1, #100	; 0x64
 8001f7e:	fb01 f303 	mul.w	r3, r1, r3
 8001f82:	1ad3      	subs	r3, r2, r3
 8001f84:	011b      	lsls	r3, r3, #4
 8001f86:	3332      	adds	r3, #50	; 0x32
 8001f88:	4a95      	ldr	r2, [pc, #596]	; (80021e0 <UART_SetConfig+0x6f4>)
 8001f8a:	fba2 2303 	umull	r2, r3, r2, r3
 8001f8e:	095b      	lsrs	r3, r3, #5
 8001f90:	f003 03f0 	and.w	r3, r3, #240	; 0xf0
 8001f94:	4498      	add	r8, r3
 8001f96:	68bb      	ldr	r3, [r7, #8]
 8001f98:	469b      	mov	fp, r3
 8001f9a:	f04f 0c00 	mov.w	ip, #0
 8001f9e:	46d9      	mov	r9, fp
 8001fa0:	46e2      	mov	sl, ip
 8001fa2:	eb19 0309 	adds.w	r3, r9, r9
 8001fa6:	eb4a 040a 	adc.w	r4, sl, sl
 8001faa:	4699      	mov	r9, r3
 8001fac:	46a2      	mov	sl, r4
 8001fae:	eb19 090b 	adds.w	r9, r9, fp
 8001fb2:	eb4a 0a0c 	adc.w	sl, sl, ip
 8001fb6:	f04f 0100 	mov.w	r1, #0
 8001fba:	f04f 0200 	mov.w	r2, #0
 8001fbe:	ea4f 02ca 	mov.w	r2, sl, lsl #3
 8001fc2:	ea42 7259 	orr.w	r2, r2, r9, lsr #29
 8001fc6:	ea4f 01c9 	mov.w	r1, r9, lsl #3
 8001fca:	4689      	mov	r9, r1
 8001fcc:	4692      	mov	sl, r2
 8001fce:	eb1b 0509 	adds.w	r5, fp, r9
 8001fd2:	eb4c 060a 	adc.w	r6, ip, sl
 8001fd6:	687b      	ldr	r3, [r7, #4]
 8001fd8:	685b      	ldr	r3, [r3, #4]
 8001fda:	4619      	mov	r1, r3
 8001fdc:	f04f 0200 	mov.w	r2, #0
 8001fe0:	f04f 0300 	mov.w	r3, #0
 8001fe4:	f04f 0400 	mov.w	r4, #0
 8001fe8:	0094      	lsls	r4, r2, #2
 8001fea:	ea44 7491 	orr.w	r4, r4, r1, lsr #30
 8001fee:	008b      	lsls	r3, r1, #2
 8001ff0:	461a      	mov	r2, r3
 8001ff2:	4623      	mov	r3, r4
 8001ff4:	4628      	mov	r0, r5
 8001ff6:	4631      	mov	r1, r6
 8001ff8:	f7fe f942 	bl	8000280 <__aeabi_uldivmod>
 8001ffc:	4603      	mov	r3, r0
 8001ffe:	460c      	mov	r4, r1
 8002000:	461a      	mov	r2, r3
 8002002:	4b77      	ldr	r3, [pc, #476]	; (80021e0 <UART_SetConfig+0x6f4>)
 8002004:	fba3 1302 	umull	r1, r3, r3, r2
 8002008:	095b      	lsrs	r3, r3, #5
 800200a:	2164      	movs	r1, #100	; 0x64
 800200c:	fb01 f303 	mul.w	r3, r1, r3
 8002010:	1ad3      	subs	r3, r2, r3
 8002012:	011b      	lsls	r3, r3, #4
 8002014:	3332      	adds	r3, #50	; 0x32
 8002016:	4a72      	ldr	r2, [pc, #456]	; (80021e0 <UART_SetConfig+0x6f4>)
 8002018:	fba2 2303 	umull	r2, r3, r2, r3
 800201c:	095b      	lsrs	r3, r3, #5
 800201e:	f003 020f 	and.w	r2, r3, #15
 8002022:	687b      	ldr	r3, [r7, #4]
 8002024:	681b      	ldr	r3, [r3, #0]
 8002026:	4442      	add	r2, r8
 8002028:	609a      	str	r2, [r3, #8]
 800202a:	e0d0      	b.n	80021ce <UART_SetConfig+0x6e2>
      pclk = HAL_RCC_GetPCLK1Freq();
 800202c:	f7ff fc06 	bl	800183c <HAL_RCC_GetPCLK1Freq>
 8002030:	60b8      	str	r0, [r7, #8]
      huart->Instance->BRR = UART_BRR_SAMPLING16(pclk, huart->Init.BaudRate);
 8002032:	68bb      	ldr	r3, [r7, #8]
 8002034:	469a      	mov	sl, r3
 8002036:	f04f 0b00 	mov.w	fp, #0
 800203a:	46d0      	mov	r8, sl
 800203c:	46d9      	mov	r9, fp
 800203e:	eb18 0308 	adds.w	r3, r8, r8
 8002042:	eb49 0409 	adc.w	r4, r9, r9
 8002046:	4698      	mov	r8, r3
 8002048:	46a1      	mov	r9, r4
 800204a:	eb18 080a 	adds.w	r8, r8, sl
 800204e:	eb49 090b 	adc.w	r9, r9, fp
 8002052:	f04f 0100 	mov.w	r1, #0
 8002056:	f04f 0200 	mov.w	r2, #0
 800205a:	ea4f 02c9 	mov.w	r2, r9, lsl #3
 800205e:	ea42 7258 	orr.w	r2, r2, r8, lsr #29
 8002062:	ea4f 01c8 	mov.w	r1, r8, lsl #3
 8002066:	4688      	mov	r8, r1
 8002068:	4691      	mov	r9, r2
 800206a:	eb1a 0508 	adds.w	r5, sl, r8
 800206e:	eb4b 0609 	adc.w	r6, fp, r9
 8002072:	687b      	ldr	r3, [r7, #4]
 8002074:	685b      	ldr	r3, [r3, #4]
 8002076:	4619      	mov	r1, r3
 8002078:	f04f 0200 	mov.w	r2, #0
 800207c:	f04f 0300 	mov.w	r3, #0
 8002080:	f04f 0400 	mov.w	r4, #0
 8002084:	0094      	lsls	r4, r2, #2
 8002086:	ea44 7491 	orr.w	r4, r4, r1, lsr #30
 800208a:	008b      	lsls	r3, r1, #2
 800208c:	461a      	mov	r2, r3
 800208e:	4623      	mov	r3, r4
 8002090:	4628      	mov	r0, r5
 8002092:	4631      	mov	r1, r6
 8002094:	f7fe f8f4 	bl	8000280 <__aeabi_uldivmod>
 8002098:	4603      	mov	r3, r0
 800209a:	460c      	mov	r4, r1
 800209c:	461a      	mov	r2, r3
 800209e:	4b50      	ldr	r3, [pc, #320]	; (80021e0 <UART_SetConfig+0x6f4>)
 80020a0:	fba3 2302 	umull	r2, r3, r3, r2
 80020a4:	095b      	lsrs	r3, r3, #5
 80020a6:	ea4f 1803 	mov.w	r8, r3, lsl #4
 80020aa:	68bb      	ldr	r3, [r7, #8]
 80020ac:	469b      	mov	fp, r3
 80020ae:	f04f 0c00 	mov.w	ip, #0
 80020b2:	46d9      	mov	r9, fp
 80020b4:	46e2      	mov	sl, ip
 80020b6:	eb19 0309 	adds.w	r3, r9, r9
 80020ba:	eb4a 040a 	adc.w	r4, sl, sl
 80020be:	4699      	mov	r9, r3
 80020c0:	46a2      	mov	sl, r4
 80020c2:	eb19 090b 	adds.w	r9, r9, fp
 80020c6:	eb4a 0a0c 	adc.w	sl, sl, ip
 80020ca:	f04f 0100 	mov.w	r1, #0
 80020ce:	f04f 0200 	mov.w	r2, #0
 80020d2:	ea4f 02ca 	mov.w	r2, sl, lsl #3
 80020d6:	ea42 7259 	orr.w	r2, r2, r9, lsr #29
 80020da:	ea4f 01c9 	mov.w	r1, r9, lsl #3
 80020de:	4689      	mov	r9, r1
 80020e0:	4692      	mov	sl, r2
 80020e2:	eb1b 0509 	adds.w	r5, fp, r9
 80020e6:	eb4c 060a 	adc.w	r6, ip, sl
 80020ea:	687b      	ldr	r3, [r7, #4]
 80020ec:	685b      	ldr	r3, [r3, #4]
 80020ee:	4619      	mov	r1, r3
 80020f0:	f04f 0200 	mov.w	r2, #0
 80020f4:	f04f 0300 	mov.w	r3, #0
 80020f8:	f04f 0400 	mov.w	r4, #0
 80020fc:	0094      	lsls	r4, r2, #2
 80020fe:	ea44 7491 	orr.w	r4, r4, r1, lsr #30
 8002102:	008b      	lsls	r3, r1, #2
 8002104:	461a      	mov	r2, r3
 8002106:	4623      	mov	r3, r4
 8002108:	4628      	mov	r0, r5
 800210a:	4631      	mov	r1, r6
 800210c:	f7fe f8b8 	bl	8000280 <__aeabi_uldivmod>
 8002110:	4603      	mov	r3, r0
 8002112:	460c      	mov	r4, r1
 8002114:	461a      	mov	r2, r3
 8002116:	4b32      	ldr	r3, [pc, #200]	; (80021e0 <UART_SetConfig+0x6f4>)
 8002118:	fba3 1302 	umull	r1, r3, r3, r2
 800211c:	095b      	lsrs	r3, r3, #5
 800211e:	2164      	movs	r1, #100	; 0x64
 8002120:	fb01 f303 	mul.w	r3, r1, r3
 8002124:	1ad3      	subs	r3, r2, r3
 8002126:	011b      	lsls	r3, r3, #4
 8002128:	3332      	adds	r3, #50	; 0x32
 800212a:	4a2d      	ldr	r2, [pc, #180]	; (80021e0 <UART_SetConfig+0x6f4>)
 800212c:	fba2 2303 	umull	r2, r3, r2, r3
 8002130:	095b      	lsrs	r3, r3, #5
 8002132:	f003 03f0 	and.w	r3, r3, #240	; 0xf0
 8002136:	4498      	add	r8, r3
 8002138:	68bb      	ldr	r3, [r7, #8]
 800213a:	469b      	mov	fp, r3
 800213c:	f04f 0c00 	mov.w	ip, #0
 8002140:	46d9      	mov	r9, fp
 8002142:	46e2      	mov	sl, ip
 8002144:	eb19 0309 	adds.w	r3, r9, r9
 8002148:	eb4a 040a 	adc.w	r4, sl, sl
 800214c:	4699      	mov	r9, r3
 800214e:	46a2      	mov	sl, r4
 8002150:	eb19 090b 	adds.w	r9, r9, fp
 8002154:	eb4a 0a0c 	adc.w	sl, sl, ip
 8002158:	f04f 0100 	mov.w	r1, #0
 800215c:	f04f 0200 	mov.w	r2, #0
 8002160:	ea4f 02ca 	mov.w	r2, sl, lsl #3
 8002164:	ea42 7259 	orr.w	r2, r2, r9, lsr #29
 8002168:	ea4f 01c9 	mov.w	r1, r9, lsl #3
 800216c:	4689      	mov	r9, r1
 800216e:	4692      	mov	sl, r2
 8002170:	eb1b 0509 	adds.w	r5, fp, r9
 8002174:	eb4c 060a 	adc.w	r6, ip, sl
 8002178:	687b      	ldr	r3, [r7, #4]
 800217a:	685b      	ldr	r3, [r3, #4]
 800217c:	4619      	mov	r1, r3
 800217e:	f04f 0200 	mov.w	r2, #0
 8002182:	f04f 0300 	mov.w	r3, #0
 8002186:	f04f 0400 	mov.w	r4, #0
 800218a:	0094      	lsls	r4, r2, #2
 800218c:	ea44 7491 	orr.w	r4, r4, r1, lsr #30
 8002190:	008b      	lsls	r3, r1, #2
 8002192:	461a      	mov	r2, r3
 8002194:	4623      	mov	r3, r4
 8002196:	4628      	mov	r0, r5
 8002198:	4631      	mov	r1, r6
 800219a:	f7fe f871 	bl	8000280 <__aeabi_uldivmod>
 800219e:	4603      	mov	r3, r0
 80021a0:	460c      	mov	r4, r1
 80021a2:	461a      	mov	r2, r3
 80021a4:	4b0e      	ldr	r3, [pc, #56]	; (80021e0 <UART_SetConfig+0x6f4>)
 80021a6:	fba3 1302 	umull	r1, r3, r3, r2
 80021aa:	095b      	lsrs	r3, r3, #5
 80021ac:	2164      	movs	r1, #100	; 0x64
 80021ae:	fb01 f303 	mul.w	r3, r1, r3
 80021b2:	1ad3      	subs	r3, r2, r3
 80021b4:	011b      	lsls	r3, r3, #4
 80021b6:	3332      	adds	r3, #50	; 0x32
 80021b8:	4a09      	ldr	r2, [pc, #36]	; (80021e0 <UART_SetConfig+0x6f4>)
 80021ba:	fba2 2303 	umull	r2, r3, r2, r3
 80021be:	095b      	lsrs	r3, r3, #5
 80021c0:	f003 020f 	and.w	r2, r3, #15
 80021c4:	687b      	ldr	r3, [r7, #4]
 80021c6:	681b      	ldr	r3, [r3, #0]
 80021c8:	4442      	add	r2, r8
 80021ca:	609a      	str	r2, [r3, #8]
}
 80021cc:	e7ff      	b.n	80021ce <UART_SetConfig+0x6e2>
 80021ce:	bf00      	nop
 80021d0:	3714      	adds	r7, #20
 80021d2:	46bd      	mov	sp, r7
 80021d4:	e8bd 8ff0 	ldmia.w	sp!, {r4, r5, r6, r7, r8, r9, sl, fp, pc}
 80021d8:	40011000 	.word	0x40011000
 80021dc:	40011400 	.word	0x40011400
 80021e0:	51eb851f 	.word	0x51eb851f

080021e4 <__errno>:
 80021e4:	4b01      	ldr	r3, [pc, #4]	; (80021ec <__errno+0x8>)
 80021e6:	6818      	ldr	r0, [r3, #0]
 80021e8:	4770      	bx	lr
 80021ea:	bf00      	nop
 80021ec:	2000000c 	.word	0x2000000c

080021f0 <__libc_init_array>:
 80021f0:	b570      	push	{r4, r5, r6, lr}
 80021f2:	4e0d      	ldr	r6, [pc, #52]	; (8002228 <__libc_init_array+0x38>)
 80021f4:	4c0d      	ldr	r4, [pc, #52]	; (800222c <__libc_init_array+0x3c>)
 80021f6:	1ba4      	subs	r4, r4, r6
 80021f8:	10a4      	asrs	r4, r4, #2
 80021fa:	2500      	movs	r5, #0
 80021fc:	42a5      	cmp	r5, r4
 80021fe:	d109      	bne.n	8002214 <__libc_init_array+0x24>
 8002200:	4e0b      	ldr	r6, [pc, #44]	; (8002230 <__libc_init_array+0x40>)
 8002202:	4c0c      	ldr	r4, [pc, #48]	; (8002234 <__libc_init_array+0x44>)
 8002204:	f000 fc26 	bl	8002a54 <_init>
 8002208:	1ba4      	subs	r4, r4, r6
 800220a:	10a4      	asrs	r4, r4, #2
 800220c:	2500      	movs	r5, #0
 800220e:	42a5      	cmp	r5, r4
 8002210:	d105      	bne.n	800221e <__libc_init_array+0x2e>
 8002212:	bd70      	pop	{r4, r5, r6, pc}
 8002214:	f856 3025 	ldr.w	r3, [r6, r5, lsl #2]
 8002218:	4798      	blx	r3
 800221a:	3501      	adds	r5, #1
 800221c:	e7ee      	b.n	80021fc <__libc_init_array+0xc>
 800221e:	f856 3025 	ldr.w	r3, [r6, r5, lsl #2]
 8002222:	4798      	blx	r3
 8002224:	3501      	adds	r5, #1
 8002226:	e7f2      	b.n	800220e <__libc_init_array+0x1e>
 8002228:	08002b00 	.word	0x08002b00
 800222c:	08002b00 	.word	0x08002b00
 8002230:	08002b00 	.word	0x08002b00
 8002234:	08002b04 	.word	0x08002b04

08002238 <memset>:
 8002238:	4402      	add	r2, r0
 800223a:	4603      	mov	r3, r0
 800223c:	4293      	cmp	r3, r2
 800223e:	d100      	bne.n	8002242 <memset+0xa>
 8002240:	4770      	bx	lr
 8002242:	f803 1b01 	strb.w	r1, [r3], #1
 8002246:	e7f9      	b.n	800223c <memset+0x4>

08002248 <siprintf>:
 8002248:	b40e      	push	{r1, r2, r3}
 800224a:	b500      	push	{lr}
 800224c:	b09c      	sub	sp, #112	; 0x70
 800224e:	ab1d      	add	r3, sp, #116	; 0x74
 8002250:	9002      	str	r0, [sp, #8]
 8002252:	9006      	str	r0, [sp, #24]
 8002254:	f06f 4100 	mvn.w	r1, #2147483648	; 0x80000000
 8002258:	4809      	ldr	r0, [pc, #36]	; (8002280 <siprintf+0x38>)
 800225a:	9107      	str	r1, [sp, #28]
 800225c:	9104      	str	r1, [sp, #16]
 800225e:	4909      	ldr	r1, [pc, #36]	; (8002284 <siprintf+0x3c>)
 8002260:	f853 2b04 	ldr.w	r2, [r3], #4
 8002264:	9105      	str	r1, [sp, #20]
 8002266:	6800      	ldr	r0, [r0, #0]
 8002268:	9301      	str	r3, [sp, #4]
 800226a:	a902      	add	r1, sp, #8
 800226c:	f000 f866 	bl	800233c <_svfiprintf_r>
 8002270:	9b02      	ldr	r3, [sp, #8]
 8002272:	2200      	movs	r2, #0
 8002274:	701a      	strb	r2, [r3, #0]
 8002276:	b01c      	add	sp, #112	; 0x70
 8002278:	f85d eb04 	ldr.w	lr, [sp], #4
 800227c:	b003      	add	sp, #12
 800227e:	4770      	bx	lr
 8002280:	2000000c 	.word	0x2000000c
 8002284:	ffff0208 	.word	0xffff0208

08002288 <__ssputs_r>:
 8002288:	e92d 47f0 	stmdb	sp!, {r4, r5, r6, r7, r8, r9, sl, lr}
 800228c:	688e      	ldr	r6, [r1, #8]
 800228e:	429e      	cmp	r6, r3
 8002290:	4682      	mov	sl, r0
 8002292:	460c      	mov	r4, r1
 8002294:	4690      	mov	r8, r2
 8002296:	4699      	mov	r9, r3
 8002298:	d837      	bhi.n	800230a <__ssputs_r+0x82>
 800229a:	898a      	ldrh	r2, [r1, #12]
 800229c:	f412 6f90 	tst.w	r2, #1152	; 0x480
 80022a0:	d031      	beq.n	8002306 <__ssputs_r+0x7e>
 80022a2:	6825      	ldr	r5, [r4, #0]
 80022a4:	6909      	ldr	r1, [r1, #16]
 80022a6:	1a6f      	subs	r7, r5, r1
 80022a8:	6965      	ldr	r5, [r4, #20]
 80022aa:	2302      	movs	r3, #2
 80022ac:	eb05 0545 	add.w	r5, r5, r5, lsl #1
 80022b0:	fb95 f5f3 	sdiv	r5, r5, r3
 80022b4:	f109 0301 	add.w	r3, r9, #1
 80022b8:	443b      	add	r3, r7
 80022ba:	429d      	cmp	r5, r3
 80022bc:	bf38      	it	cc
 80022be:	461d      	movcc	r5, r3
 80022c0:	0553      	lsls	r3, r2, #21
 80022c2:	d530      	bpl.n	8002326 <__ssputs_r+0x9e>
 80022c4:	4629      	mov	r1, r5
 80022c6:	f000 fb2b 	bl	8002920 <_malloc_r>
 80022ca:	4606      	mov	r6, r0
 80022cc:	b950      	cbnz	r0, 80022e4 <__ssputs_r+0x5c>
 80022ce:	230c      	movs	r3, #12
 80022d0:	f8ca 3000 	str.w	r3, [sl]
 80022d4:	89a3      	ldrh	r3, [r4, #12]
 80022d6:	f043 0340 	orr.w	r3, r3, #64	; 0x40
 80022da:	81a3      	strh	r3, [r4, #12]
 80022dc:	f04f 30ff 	mov.w	r0, #4294967295
 80022e0:	e8bd 87f0 	ldmia.w	sp!, {r4, r5, r6, r7, r8, r9, sl, pc}
 80022e4:	463a      	mov	r2, r7
 80022e6:	6921      	ldr	r1, [r4, #16]
 80022e8:	f000 faa8 	bl	800283c <memcpy>
 80022ec:	89a3      	ldrh	r3, [r4, #12]
 80022ee:	f423 6390 	bic.w	r3, r3, #1152	; 0x480
 80022f2:	f043 0380 	orr.w	r3, r3, #128	; 0x80
 80022f6:	81a3      	strh	r3, [r4, #12]
 80022f8:	6126      	str	r6, [r4, #16]
 80022fa:	6165      	str	r5, [r4, #20]
 80022fc:	443e      	add	r6, r7
 80022fe:	1bed      	subs	r5, r5, r7
 8002300:	6026      	str	r6, [r4, #0]
 8002302:	60a5      	str	r5, [r4, #8]
 8002304:	464e      	mov	r6, r9
 8002306:	454e      	cmp	r6, r9
 8002308:	d900      	bls.n	800230c <__ssputs_r+0x84>
 800230a:	464e      	mov	r6, r9
 800230c:	4632      	mov	r2, r6
 800230e:	4641      	mov	r1, r8
 8002310:	6820      	ldr	r0, [r4, #0]
 8002312:	f000 fa9e 	bl	8002852 <memmove>
 8002316:	68a3      	ldr	r3, [r4, #8]
 8002318:	1b9b      	subs	r3, r3, r6
 800231a:	60a3      	str	r3, [r4, #8]
 800231c:	6823      	ldr	r3, [r4, #0]
 800231e:	441e      	add	r6, r3
 8002320:	6026      	str	r6, [r4, #0]
 8002322:	2000      	movs	r0, #0
 8002324:	e7dc      	b.n	80022e0 <__ssputs_r+0x58>
 8002326:	462a      	mov	r2, r5
 8002328:	f000 fb54 	bl	80029d4 <_realloc_r>
 800232c:	4606      	mov	r6, r0
 800232e:	2800      	cmp	r0, #0
 8002330:	d1e2      	bne.n	80022f8 <__ssputs_r+0x70>
 8002332:	6921      	ldr	r1, [r4, #16]
 8002334:	4650      	mov	r0, sl
 8002336:	f000 faa5 	bl	8002884 <_free_r>
 800233a:	e7c8      	b.n	80022ce <__ssputs_r+0x46>

0800233c <_svfiprintf_r>:
 800233c:	e92d 4ff0 	stmdb	sp!, {r4, r5, r6, r7, r8, r9, sl, fp, lr}
 8002340:	461d      	mov	r5, r3
 8002342:	898b      	ldrh	r3, [r1, #12]
 8002344:	061f      	lsls	r7, r3, #24
 8002346:	b09d      	sub	sp, #116	; 0x74
 8002348:	4680      	mov	r8, r0
 800234a:	460c      	mov	r4, r1
 800234c:	4616      	mov	r6, r2
 800234e:	d50f      	bpl.n	8002370 <_svfiprintf_r+0x34>
 8002350:	690b      	ldr	r3, [r1, #16]
 8002352:	b96b      	cbnz	r3, 8002370 <_svfiprintf_r+0x34>
 8002354:	2140      	movs	r1, #64	; 0x40
 8002356:	f000 fae3 	bl	8002920 <_malloc_r>
 800235a:	6020      	str	r0, [r4, #0]
 800235c:	6120      	str	r0, [r4, #16]
 800235e:	b928      	cbnz	r0, 800236c <_svfiprintf_r+0x30>
 8002360:	230c      	movs	r3, #12
 8002362:	f8c8 3000 	str.w	r3, [r8]
 8002366:	f04f 30ff 	mov.w	r0, #4294967295
 800236a:	e0c8      	b.n	80024fe <_svfiprintf_r+0x1c2>
 800236c:	2340      	movs	r3, #64	; 0x40
 800236e:	6163      	str	r3, [r4, #20]
 8002370:	2300      	movs	r3, #0
 8002372:	9309      	str	r3, [sp, #36]	; 0x24
 8002374:	2320      	movs	r3, #32
 8002376:	f88d 3029 	strb.w	r3, [sp, #41]	; 0x29
 800237a:	2330      	movs	r3, #48	; 0x30
 800237c:	f88d 302a 	strb.w	r3, [sp, #42]	; 0x2a
 8002380:	9503      	str	r5, [sp, #12]
 8002382:	f04f 0b01 	mov.w	fp, #1
 8002386:	4637      	mov	r7, r6
 8002388:	463d      	mov	r5, r7
 800238a:	f815 3b01 	ldrb.w	r3, [r5], #1
 800238e:	b10b      	cbz	r3, 8002394 <_svfiprintf_r+0x58>
 8002390:	2b25      	cmp	r3, #37	; 0x25
 8002392:	d13e      	bne.n	8002412 <_svfiprintf_r+0xd6>
 8002394:	ebb7 0a06 	subs.w	sl, r7, r6
 8002398:	d00b      	beq.n	80023b2 <_svfiprintf_r+0x76>
 800239a:	4653      	mov	r3, sl
 800239c:	4632      	mov	r2, r6
 800239e:	4621      	mov	r1, r4
 80023a0:	4640      	mov	r0, r8
 80023a2:	f7ff ff71 	bl	8002288 <__ssputs_r>
 80023a6:	3001      	adds	r0, #1
 80023a8:	f000 80a4 	beq.w	80024f4 <_svfiprintf_r+0x1b8>
 80023ac:	9b09      	ldr	r3, [sp, #36]	; 0x24
 80023ae:	4453      	add	r3, sl
 80023b0:	9309      	str	r3, [sp, #36]	; 0x24
 80023b2:	783b      	ldrb	r3, [r7, #0]
 80023b4:	2b00      	cmp	r3, #0
 80023b6:	f000 809d 	beq.w	80024f4 <_svfiprintf_r+0x1b8>
 80023ba:	2300      	movs	r3, #0
 80023bc:	f04f 32ff 	mov.w	r2, #4294967295
 80023c0:	e9cd 2305 	strd	r2, r3, [sp, #20]
 80023c4:	9304      	str	r3, [sp, #16]
 80023c6:	9307      	str	r3, [sp, #28]
 80023c8:	f88d 3053 	strb.w	r3, [sp, #83]	; 0x53
 80023cc:	931a      	str	r3, [sp, #104]	; 0x68
 80023ce:	462f      	mov	r7, r5
 80023d0:	2205      	movs	r2, #5
 80023d2:	f817 1b01 	ldrb.w	r1, [r7], #1
 80023d6:	4850      	ldr	r0, [pc, #320]	; (8002518 <_svfiprintf_r+0x1dc>)
 80023d8:	f7fd ff02 	bl	80001e0 <memchr>
 80023dc:	9b04      	ldr	r3, [sp, #16]
 80023de:	b9d0      	cbnz	r0, 8002416 <_svfiprintf_r+0xda>
 80023e0:	06d9      	lsls	r1, r3, #27
 80023e2:	bf44      	itt	mi
 80023e4:	2220      	movmi	r2, #32
 80023e6:	f88d 2053 	strbmi.w	r2, [sp, #83]	; 0x53
 80023ea:	071a      	lsls	r2, r3, #28
 80023ec:	bf44      	itt	mi
 80023ee:	222b      	movmi	r2, #43	; 0x2b
 80023f0:	f88d 2053 	strbmi.w	r2, [sp, #83]	; 0x53
 80023f4:	782a      	ldrb	r2, [r5, #0]
 80023f6:	2a2a      	cmp	r2, #42	; 0x2a
 80023f8:	d015      	beq.n	8002426 <_svfiprintf_r+0xea>
 80023fa:	9a07      	ldr	r2, [sp, #28]
 80023fc:	462f      	mov	r7, r5
 80023fe:	2000      	movs	r0, #0
 8002400:	250a      	movs	r5, #10
 8002402:	4639      	mov	r1, r7
 8002404:	f811 3b01 	ldrb.w	r3, [r1], #1
 8002408:	3b30      	subs	r3, #48	; 0x30
 800240a:	2b09      	cmp	r3, #9
 800240c:	d94d      	bls.n	80024aa <_svfiprintf_r+0x16e>
 800240e:	b1b8      	cbz	r0, 8002440 <_svfiprintf_r+0x104>
 8002410:	e00f      	b.n	8002432 <_svfiprintf_r+0xf6>
 8002412:	462f      	mov	r7, r5
 8002414:	e7b8      	b.n	8002388 <_svfiprintf_r+0x4c>
 8002416:	4a40      	ldr	r2, [pc, #256]	; (8002518 <_svfiprintf_r+0x1dc>)
 8002418:	1a80      	subs	r0, r0, r2
 800241a:	fa0b f000 	lsl.w	r0, fp, r0
 800241e:	4318      	orrs	r0, r3
 8002420:	9004      	str	r0, [sp, #16]
 8002422:	463d      	mov	r5, r7
 8002424:	e7d3      	b.n	80023ce <_svfiprintf_r+0x92>
 8002426:	9a03      	ldr	r2, [sp, #12]
 8002428:	1d11      	adds	r1, r2, #4
 800242a:	6812      	ldr	r2, [r2, #0]
 800242c:	9103      	str	r1, [sp, #12]
 800242e:	2a00      	cmp	r2, #0
 8002430:	db01      	blt.n	8002436 <_svfiprintf_r+0xfa>
 8002432:	9207      	str	r2, [sp, #28]
 8002434:	e004      	b.n	8002440 <_svfiprintf_r+0x104>
 8002436:	4252      	negs	r2, r2
 8002438:	f043 0302 	orr.w	r3, r3, #2
 800243c:	9207      	str	r2, [sp, #28]
 800243e:	9304      	str	r3, [sp, #16]
 8002440:	783b      	ldrb	r3, [r7, #0]
 8002442:	2b2e      	cmp	r3, #46	; 0x2e
 8002444:	d10c      	bne.n	8002460 <_svfiprintf_r+0x124>
 8002446:	787b      	ldrb	r3, [r7, #1]
 8002448:	2b2a      	cmp	r3, #42	; 0x2a
 800244a:	d133      	bne.n	80024b4 <_svfiprintf_r+0x178>
 800244c:	9b03      	ldr	r3, [sp, #12]
 800244e:	1d1a      	adds	r2, r3, #4
 8002450:	681b      	ldr	r3, [r3, #0]
 8002452:	9203      	str	r2, [sp, #12]
 8002454:	2b00      	cmp	r3, #0
 8002456:	bfb8      	it	lt
 8002458:	f04f 33ff 	movlt.w	r3, #4294967295
 800245c:	3702      	adds	r7, #2
 800245e:	9305      	str	r3, [sp, #20]
 8002460:	4d2e      	ldr	r5, [pc, #184]	; (800251c <_svfiprintf_r+0x1e0>)
 8002462:	7839      	ldrb	r1, [r7, #0]
 8002464:	2203      	movs	r2, #3
