
006_timer_basic_10micro_led2_intrupt2.elf:     file format elf32-littlearm

Sections:
Idx Name          Size      VMA       LMA       File off  Algn
  0 .isr_vector   00000188  08000000  08000000  00010000  2**0
                  CONTENTS, ALLOC, LOAD, READONLY, DATA
  1 .text         000019dc  08000188  08000188  00010188  2**2
                  CONTENTS, ALLOC, LOAD, READONLY, CODE
  2 .rodata       00000010  08001b64  08001b64  00011b64  2**2
                  CONTENTS, ALLOC, LOAD, READONLY, DATA
  3 .ARM.extab    00000000  08001b74  08001b74  0002000c  2**0
                  CONTENTS
  4 .ARM          00000008  08001b74  08001b74  00011b74  2**2
                  CONTENTS, ALLOC, LOAD, READONLY, DATA
  5 .preinit_array 00000000  08001b7c  08001b7c  0002000c  2**0
                  CONTENTS, ALLOC, LOAD, DATA
  6 .init_array   00000004  08001b7c  08001b7c  00011b7c  2**2
                  CONTENTS, ALLOC, LOAD, DATA
  7 .fini_array   00000004  08001b80  08001b80  00011b80  2**2
                  CONTENTS, ALLOC, LOAD, DATA
  8 .data         0000000c  20000000  08001b84  00020000  2**2
                  CONTENTS, ALLOC, LOAD, DATA
  9 .bss          00000060  2000000c  08001b90  0002000c  2**2
                  ALLOC
 10 ._user_heap_stack 00000604  2000006c  08001b90  0002006c  2**0
                  ALLOC
 11 .ARM.attributes 00000030  00000000  00000000  0002000c  2**0
                  CONTENTS, READONLY
 12 .debug_info   0000890d  00000000  00000000  0002003c  2**0
                  CONTENTS, READONLY, DEBUGGING
 13 .debug_abbrev 00001389  00000000  00000000  00028949  2**0
                  CONTENTS, READONLY, DEBUGGING
 14 .debug_aranges 000008c8  00000000  00000000  00029cd8  2**3
                  CONTENTS, READONLY, DEBUGGING
 15 .debug_ranges 00000820  00000000  00000000  0002a5a0  2**3
                  CONTENTS, READONLY, DEBUGGING
 16 .debug_macro  0002134a  00000000  00000000  0002adc0  2**0
                  CONTENTS, READONLY, DEBUGGING
 17 .debug_line   00006e3e  00000000  00000000  0004c10a  2**0
                  CONTENTS, READONLY, DEBUGGING
 18 .debug_str    000cbebe  00000000  00000000  00052f48  2**0
                  CONTENTS, READONLY, DEBUGGING
 19 .comment      0000007b  00000000  00000000  0011ee06  2**0
                  CONTENTS, READONLY
 20 .debug_frame  00002440  00000000  00000000  0011ee84  2**2
                  CONTENTS, READONLY, DEBUGGING

Disassembly of section .text:

08000188 <__do_global_dtors_aux>:
 8000188:	b510      	push	{r4, lr}
 800018a:	4c05      	ldr	r4, [pc, #20]	; (80001a0 <__do_global_dtors_aux+0x18>)
 800018c:	7823      	ldrb	r3, [r4, #0]
 800018e:	b933      	cbnz	r3, 800019e <__do_global_dtors_aux+0x16>
 8000190:	4b04      	ldr	r3, [pc, #16]	; (80001a4 <__do_global_dtors_aux+0x1c>)
 8000192:	b113      	cbz	r3, 800019a <__do_global_dtors_aux+0x12>
 8000194:	4804      	ldr	r0, [pc, #16]	; (80001a8 <__do_global_dtors_aux+0x20>)
 8000196:	f3af 8000 	nop.w
 800019a:	2301      	movs	r3, #1
 800019c:	7023      	strb	r3, [r4, #0]
 800019e:	bd10      	pop	{r4, pc}
 80001a0:	2000000c 	.word	0x2000000c
 80001a4:	00000000 	.word	0x00000000
 80001a8:	08001b4c 	.word	0x08001b4c

080001ac <frame_dummy>:
 80001ac:	b508      	push	{r3, lr}
 80001ae:	4b03      	ldr	r3, [pc, #12]	; (80001bc <frame_dummy+0x10>)
 80001b0:	b11b      	cbz	r3, 80001ba <frame_dummy+0xe>
 80001b2:	4903      	ldr	r1, [pc, #12]	; (80001c0 <frame_dummy+0x14>)
 80001b4:	4803      	ldr	r0, [pc, #12]	; (80001c4 <frame_dummy+0x18>)
 80001b6:	f3af 8000 	nop.w
 80001ba:	bd08      	pop	{r3, pc}
 80001bc:	00000000 	.word	0x00000000
 80001c0:	20000010 	.word	0x20000010
 80001c4:	08001b4c 	.word	0x08001b4c

080001c8 <__aeabi_uldivmod>:
 80001c8:	b953      	cbnz	r3, 80001e0 <__aeabi_uldivmod+0x18>
 80001ca:	b94a      	cbnz	r2, 80001e0 <__aeabi_uldivmod+0x18>
 80001cc:	2900      	cmp	r1, #0
 80001ce:	bf08      	it	eq
 80001d0:	2800      	cmpeq	r0, #0
 80001d2:	bf1c      	itt	ne
 80001d4:	f04f 31ff 	movne.w	r1, #4294967295
 80001d8:	f04f 30ff 	movne.w	r0, #4294967295
 80001dc:	f000 b972 	b.w	80004c4 <__aeabi_idiv0>
 80001e0:	f1ad 0c08 	sub.w	ip, sp, #8
 80001e4:	e96d ce04 	strd	ip, lr, [sp, #-16]!
 80001e8:	f000 f806 	bl	80001f8 <__udivmoddi4>
 80001ec:	f8dd e004 	ldr.w	lr, [sp, #4]
 80001f0:	e9dd 2302 	ldrd	r2, r3, [sp, #8]
 80001f4:	b004      	add	sp, #16
 80001f6:	4770      	bx	lr

080001f8 <__udivmoddi4>:
 80001f8:	e92d 47f0 	stmdb	sp!, {r4, r5, r6, r7, r8, r9, sl, lr}
 80001fc:	9e08      	ldr	r6, [sp, #32]
 80001fe:	4604      	mov	r4, r0
 8000200:	4688      	mov	r8, r1
 8000202:	2b00      	cmp	r3, #0
 8000204:	d14b      	bne.n	800029e <__udivmoddi4+0xa6>
 8000206:	428a      	cmp	r2, r1
 8000208:	4615      	mov	r5, r2
 800020a:	d967      	bls.n	80002dc <__udivmoddi4+0xe4>
 800020c:	fab2 f282 	clz	r2, r2
 8000210:	b14a      	cbz	r2, 8000226 <__udivmoddi4+0x2e>
 8000212:	f1c2 0720 	rsb	r7, r2, #32
 8000216:	fa01 f302 	lsl.w	r3, r1, r2
 800021a:	fa20 f707 	lsr.w	r7, r0, r7
 800021e:	4095      	lsls	r5, r2
 8000220:	ea47 0803 	orr.w	r8, r7, r3
 8000224:	4094      	lsls	r4, r2
 8000226:	ea4f 4e15 	mov.w	lr, r5, lsr #16
 800022a:	0c23      	lsrs	r3, r4, #16
 800022c:	fbb8 f7fe 	udiv	r7, r8, lr
 8000230:	fa1f fc85 	uxth.w	ip, r5
 8000234:	fb0e 8817 	mls	r8, lr, r7, r8
 8000238:	ea43 4308 	orr.w	r3, r3, r8, lsl #16
 800023c:	fb07 f10c 	mul.w	r1, r7, ip
 8000240:	4299      	cmp	r1, r3
 8000242:	d909      	bls.n	8000258 <__udivmoddi4+0x60>
 8000244:	18eb      	adds	r3, r5, r3
 8000246:	f107 30ff 	add.w	r0, r7, #4294967295
 800024a:	f080 811b 	bcs.w	8000484 <__udivmoddi4+0x28c>
 800024e:	4299      	cmp	r1, r3
 8000250:	f240 8118 	bls.w	8000484 <__udivmoddi4+0x28c>
 8000254:	3f02      	subs	r7, #2
 8000256:	442b      	add	r3, r5
 8000258:	1a5b      	subs	r3, r3, r1
 800025a:	b2a4      	uxth	r4, r4
 800025c:	fbb3 f0fe 	udiv	r0, r3, lr
 8000260:	fb0e 3310 	mls	r3, lr, r0, r3
 8000264:	ea44 4403 	orr.w	r4, r4, r3, lsl #16
 8000268:	fb00 fc0c 	mul.w	ip, r0, ip
 800026c:	45a4      	cmp	ip, r4
 800026e:	d909      	bls.n	8000284 <__udivmoddi4+0x8c>
 8000270:	192c      	adds	r4, r5, r4
 8000272:	f100 33ff 	add.w	r3, r0, #4294967295
 8000276:	f080 8107 	bcs.w	8000488 <__udivmoddi4+0x290>
 800027a:	45a4      	cmp	ip, r4
 800027c:	f240 8104 	bls.w	8000488 <__udivmoddi4+0x290>
 8000280:	3802      	subs	r0, #2
 8000282:	442c      	add	r4, r5
 8000284:	ea40 4007 	orr.w	r0, r0, r7, lsl #16
 8000288:	eba4 040c 	sub.w	r4, r4, ip
 800028c:	2700      	movs	r7, #0
 800028e:	b11e      	cbz	r6, 8000298 <__udivmoddi4+0xa0>
 8000290:	40d4      	lsrs	r4, r2
 8000292:	2300      	movs	r3, #0
 8000294:	e9c6 4300 	strd	r4, r3, [r6]
 8000298:	4639      	mov	r1, r7
 800029a:	e8bd 87f0 	ldmia.w	sp!, {r4, r5, r6, r7, r8, r9, sl, pc}
 800029e:	428b      	cmp	r3, r1
 80002a0:	d909      	bls.n	80002b6 <__udivmoddi4+0xbe>
 80002a2:	2e00      	cmp	r6, #0
 80002a4:	f000 80eb 	beq.w	800047e <__udivmoddi4+0x286>
 80002a8:	2700      	movs	r7, #0
 80002aa:	e9c6 0100 	strd	r0, r1, [r6]
 80002ae:	4638      	mov	r0, r7
 80002b0:	4639      	mov	r1, r7
 80002b2:	e8bd 87f0 	ldmia.w	sp!, {r4, r5, r6, r7, r8, r9, sl, pc}
 80002b6:	fab3 f783 	clz	r7, r3
 80002ba:	2f00      	cmp	r7, #0
 80002bc:	d147      	bne.n	800034e <__udivmoddi4+0x156>
 80002be:	428b      	cmp	r3, r1
 80002c0:	d302      	bcc.n	80002c8 <__udivmoddi4+0xd0>
 80002c2:	4282      	cmp	r2, r0
 80002c4:	f200 80fa 	bhi.w	80004bc <__udivmoddi4+0x2c4>
 80002c8:	1a84      	subs	r4, r0, r2
 80002ca:	eb61 0303 	sbc.w	r3, r1, r3
 80002ce:	2001      	movs	r0, #1
 80002d0:	4698      	mov	r8, r3
 80002d2:	2e00      	cmp	r6, #0
 80002d4:	d0e0      	beq.n	8000298 <__udivmoddi4+0xa0>
 80002d6:	e9c6 4800 	strd	r4, r8, [r6]
 80002da:	e7dd      	b.n	8000298 <__udivmoddi4+0xa0>
 80002dc:	b902      	cbnz	r2, 80002e0 <__udivmoddi4+0xe8>
 80002de:	deff      	udf	#255	; 0xff
 80002e0:	fab2 f282 	clz	r2, r2
 80002e4:	2a00      	cmp	r2, #0
 80002e6:	f040 808f 	bne.w	8000408 <__udivmoddi4+0x210>
 80002ea:	1b49      	subs	r1, r1, r5
 80002ec:	ea4f 4e15 	mov.w	lr, r5, lsr #16
 80002f0:	fa1f f885 	uxth.w	r8, r5
 80002f4:	2701      	movs	r7, #1
 80002f6:	fbb1 fcfe 	udiv	ip, r1, lr
 80002fa:	0c23      	lsrs	r3, r4, #16
 80002fc:	fb0e 111c 	mls	r1, lr, ip, r1
 8000300:	ea43 4301 	orr.w	r3, r3, r1, lsl #16
 8000304:	fb08 f10c 	mul.w	r1, r8, ip
 8000308:	4299      	cmp	r1, r3
 800030a:	d907      	bls.n	800031c <__udivmoddi4+0x124>
 800030c:	18eb      	adds	r3, r5, r3
 800030e:	f10c 30ff 	add.w	r0, ip, #4294967295
 8000312:	d202      	bcs.n	800031a <__udivmoddi4+0x122>
 8000314:	4299      	cmp	r1, r3
 8000316:	f200 80cd 	bhi.w	80004b4 <__udivmoddi4+0x2bc>
 800031a:	4684      	mov	ip, r0
 800031c:	1a59      	subs	r1, r3, r1
 800031e:	b2a3      	uxth	r3, r4
 8000320:	fbb1 f0fe 	udiv	r0, r1, lr
 8000324:	fb0e 1410 	mls	r4, lr, r0, r1
 8000328:	ea43 4404 	orr.w	r4, r3, r4, lsl #16
 800032c:	fb08 f800 	mul.w	r8, r8, r0
 8000330:	45a0      	cmp	r8, r4
 8000332:	d907      	bls.n	8000344 <__udivmoddi4+0x14c>
 8000334:	192c      	adds	r4, r5, r4
 8000336:	f100 33ff 	add.w	r3, r0, #4294967295
 800033a:	d202      	bcs.n	8000342 <__udivmoddi4+0x14a>
 800033c:	45a0      	cmp	r8, r4
 800033e:	f200 80b6 	bhi.w	80004ae <__udivmoddi4+0x2b6>
 8000342:	4618      	mov	r0, r3
 8000344:	eba4 0408 	sub.w	r4, r4, r8
 8000348:	ea40 400c 	orr.w	r0, r0, ip, lsl #16
 800034c:	e79f      	b.n	800028e <__udivmoddi4+0x96>
 800034e:	f1c7 0c20 	rsb	ip, r7, #32
 8000352:	40bb      	lsls	r3, r7
 8000354:	fa22 fe0c 	lsr.w	lr, r2, ip
 8000358:	ea4e 0e03 	orr.w	lr, lr, r3
 800035c:	fa01 f407 	lsl.w	r4, r1, r7
 8000360:	fa20 f50c 	lsr.w	r5, r0, ip
 8000364:	fa21 f30c 	lsr.w	r3, r1, ip
 8000368:	ea4f 481e 	mov.w	r8, lr, lsr #16
 800036c:	4325      	orrs	r5, r4
 800036e:	fbb3 f9f8 	udiv	r9, r3, r8
 8000372:	0c2c      	lsrs	r4, r5, #16
 8000374:	fb08 3319 	mls	r3, r8, r9, r3
 8000378:	fa1f fa8e 	uxth.w	sl, lr
 800037c:	ea44 4303 	orr.w	r3, r4, r3, lsl #16
 8000380:	fb09 f40a 	mul.w	r4, r9, sl
 8000384:	429c      	cmp	r4, r3
 8000386:	fa02 f207 	lsl.w	r2, r2, r7
 800038a:	fa00 f107 	lsl.w	r1, r0, r7
 800038e:	d90b      	bls.n	80003a8 <__udivmoddi4+0x1b0>
 8000390:	eb1e 0303 	adds.w	r3, lr, r3
 8000394:	f109 30ff 	add.w	r0, r9, #4294967295
 8000398:	f080 8087 	bcs.w	80004aa <__udivmoddi4+0x2b2>
 800039c:	429c      	cmp	r4, r3
 800039e:	f240 8084 	bls.w	80004aa <__udivmoddi4+0x2b2>
 80003a2:	f1a9 0902 	sub.w	r9, r9, #2
 80003a6:	4473      	add	r3, lr
 80003a8:	1b1b      	subs	r3, r3, r4
 80003aa:	b2ad      	uxth	r5, r5
 80003ac:	fbb3 f0f8 	udiv	r0, r3, r8
 80003b0:	fb08 3310 	mls	r3, r8, r0, r3
 80003b4:	ea45 4403 	orr.w	r4, r5, r3, lsl #16
 80003b8:	fb00 fa0a 	mul.w	sl, r0, sl
 80003bc:	45a2      	cmp	sl, r4
 80003be:	d908      	bls.n	80003d2 <__udivmoddi4+0x1da>
 80003c0:	eb1e 0404 	adds.w	r4, lr, r4
 80003c4:	f100 33ff 	add.w	r3, r0, #4294967295
 80003c8:	d26b      	bcs.n	80004a2 <__udivmoddi4+0x2aa>
 80003ca:	45a2      	cmp	sl, r4
 80003cc:	d969      	bls.n	80004a2 <__udivmoddi4+0x2aa>
 80003ce:	3802      	subs	r0, #2
 80003d0:	4474      	add	r4, lr
 80003d2:	ea40 4009 	orr.w	r0, r0, r9, lsl #16
 80003d6:	fba0 8902 	umull	r8, r9, r0, r2
 80003da:	eba4 040a 	sub.w	r4, r4, sl
 80003de:	454c      	cmp	r4, r9
 80003e0:	46c2      	mov	sl, r8
 80003e2:	464b      	mov	r3, r9
 80003e4:	d354      	bcc.n	8000490 <__udivmoddi4+0x298>
 80003e6:	d051      	beq.n	800048c <__udivmoddi4+0x294>
 80003e8:	2e00      	cmp	r6, #0
 80003ea:	d069      	beq.n	80004c0 <__udivmoddi4+0x2c8>
 80003ec:	ebb1 050a 	subs.w	r5, r1, sl
 80003f0:	eb64 0403 	sbc.w	r4, r4, r3
 80003f4:	fa04 fc0c 	lsl.w	ip, r4, ip
 80003f8:	40fd      	lsrs	r5, r7
 80003fa:	40fc      	lsrs	r4, r7
 80003fc:	ea4c 0505 	orr.w	r5, ip, r5
 8000400:	e9c6 5400 	strd	r5, r4, [r6]
 8000404:	2700      	movs	r7, #0
 8000406:	e747      	b.n	8000298 <__udivmoddi4+0xa0>
 8000408:	f1c2 0320 	rsb	r3, r2, #32
 800040c:	fa20 f703 	lsr.w	r7, r0, r3
 8000410:	4095      	lsls	r5, r2
 8000412:	fa01 f002 	lsl.w	r0, r1, r2
 8000416:	fa21 f303 	lsr.w	r3, r1, r3
 800041a:	ea4f 4e15 	mov.w	lr, r5, lsr #16
 800041e:	4338      	orrs	r0, r7
 8000420:	0c01      	lsrs	r1, r0, #16
 8000422:	fbb3 f7fe 	udiv	r7, r3, lr
 8000426:	fa1f f885 	uxth.w	r8, r5
 800042a:	fb0e 3317 	mls	r3, lr, r7, r3
 800042e:	ea41 4103 	orr.w	r1, r1, r3, lsl #16
 8000432:	fb07 f308 	mul.w	r3, r7, r8
 8000436:	428b      	cmp	r3, r1
 8000438:	fa04 f402 	lsl.w	r4, r4, r2
 800043c:	d907      	bls.n	800044e <__udivmoddi4+0x256>
 800043e:	1869      	adds	r1, r5, r1
 8000440:	f107 3cff 	add.w	ip, r7, #4294967295
 8000444:	d22f      	bcs.n	80004a6 <__udivmoddi4+0x2ae>
 8000446:	428b      	cmp	r3, r1
 8000448:	d92d      	bls.n	80004a6 <__udivmoddi4+0x2ae>
 800044a:	3f02      	subs	r7, #2
 800044c:	4429      	add	r1, r5
 800044e:	1acb      	subs	r3, r1, r3
 8000450:	b281      	uxth	r1, r0
 8000452:	fbb3 f0fe 	udiv	r0, r3, lr
 8000456:	fb0e 3310 	mls	r3, lr, r0, r3
 800045a:	ea41 4103 	orr.w	r1, r1, r3, lsl #16
 800045e:	fb00 f308 	mul.w	r3, r0, r8
 8000462:	428b      	cmp	r3, r1
 8000464:	d907      	bls.n	8000476 <__udivmoddi4+0x27e>
 8000466:	1869      	adds	r1, r5, r1
 8000468:	f100 3cff 	add.w	ip, r0, #4294967295
 800046c:	d217      	bcs.n	800049e <__udivmoddi4+0x2a6>
 800046e:	428b      	cmp	r3, r1
 8000470:	d915      	bls.n	800049e <__udivmoddi4+0x2a6>
 8000472:	3802      	subs	r0, #2
 8000474:	4429      	add	r1, r5
 8000476:	1ac9      	subs	r1, r1, r3
 8000478:	ea40 4707 	orr.w	r7, r0, r7, lsl #16
 800047c:	e73b      	b.n	80002f6 <__udivmoddi4+0xfe>
 800047e:	4637      	mov	r7, r6
 8000480:	4630      	mov	r0, r6
 8000482:	e709      	b.n	8000298 <__udivmoddi4+0xa0>
 8000484:	4607      	mov	r7, r0
 8000486:	e6e7      	b.n	8000258 <__udivmoddi4+0x60>
 8000488:	4618      	mov	r0, r3
 800048a:	e6fb      	b.n	8000284 <__udivmoddi4+0x8c>
 800048c:	4541      	cmp	r1, r8
 800048e:	d2ab      	bcs.n	80003e8 <__udivmoddi4+0x1f0>
 8000490:	ebb8 0a02 	subs.w	sl, r8, r2
 8000494:	eb69 020e 	sbc.w	r2, r9, lr
 8000498:	3801      	subs	r0, #1
 800049a:	4613      	mov	r3, r2
 800049c:	e7a4      	b.n	80003e8 <__udivmoddi4+0x1f0>
 800049e:	4660      	mov	r0, ip
 80004a0:	e7e9      	b.n	8000476 <__udivmoddi4+0x27e>
 80004a2:	4618      	mov	r0, r3
 80004a4:	e795      	b.n	80003d2 <__udivmoddi4+0x1da>
 80004a6:	4667      	mov	r7, ip
 80004a8:	e7d1      	b.n	800044e <__udivmoddi4+0x256>
 80004aa:	4681      	mov	r9, r0
 80004ac:	e77c      	b.n	80003a8 <__udivmoddi4+0x1b0>
 80004ae:	3802      	subs	r0, #2
 80004b0:	442c      	add	r4, r5
 80004b2:	e747      	b.n	8000344 <__udivmoddi4+0x14c>
 80004b4:	f1ac 0c02 	sub.w	ip, ip, #2
 80004b8:	442b      	add	r3, r5
 80004ba:	e72f      	b.n	800031c <__udivmoddi4+0x124>
 80004bc:	4638      	mov	r0, r7
 80004be:	e708      	b.n	80002d2 <__udivmoddi4+0xda>
 80004c0:	4637      	mov	r7, r6
 80004c2:	e6e9      	b.n	8000298 <__udivmoddi4+0xa0>

080004c4 <__aeabi_idiv0>:
 80004c4:	4770      	bx	lr
 80004c6:	bf00      	nop

080004c8 <SysTick_Handler>:
#include "main.h"


extern TIM_HandleTypeDef htimer6;
void SysTick_Handler (void)
{
 80004c8:	b580      	push	{r7, lr}
 80004ca:	af00      	add	r7, sp, #0
	HAL_IncTick();
 80004cc:	f000 f99a 	bl	8000804 <HAL_IncTick>
	HAL_SYSTICK_IRQHandler();
 80004d0:	f000 fae6 	bl	8000aa0 <HAL_SYSTICK_IRQHandler>
}
 80004d4:	bf00      	nop
 80004d6:	bd80      	pop	{r7, pc}

080004d8 <TIM6_DAC_IRQHandler>:

void TIM6_DAC_IRQHandler ()
{
 80004d8:	b580      	push	{r7, lr}
 80004da:	af00      	add	r7, sp, #0
	HAL_TIM_IRQHandler(&htimer6);
 80004dc:	4802      	ldr	r0, [pc, #8]	; (80004e8 <TIM6_DAC_IRQHandler+0x10>)
 80004de:	f001 f92c 	bl	800173a <HAL_TIM_IRQHandler>
}
 80004e2:	bf00      	nop
 80004e4:	bd80      	pop	{r7, pc}
 80004e6:	bf00      	nop
 80004e8:	20000028 	.word	0x20000028

080004ec <main>:




int main (void)
{
 80004ec:	b580      	push	{r7, lr}
 80004ee:	af00      	add	r7, sp, #0



    HAL_Init();
 80004f0:	f000 f936 	bl	8000760 <HAL_Init>
    SystemClock_Config();
 80004f4:	f000 f80a 	bl	800050c <SystemClock_Config>
    GPIO_inti();
 80004f8:	f000 f84e 	bl	8000598 <GPIO_inti>

    TIMER6_Init();
 80004fc:	f000 f878 	bl	80005f0 <TIMER6_Init>
    while(1)
    {
    //lets start timer
    HAL_TIM_Base_Start_IT(&htimer6);
 8000500:	4801      	ldr	r0, [pc, #4]	; (8000508 <main+0x1c>)
 8000502:	f001 f8f6 	bl	80016f2 <HAL_TIM_Base_Start_IT>
 8000506:	e7fb      	b.n	8000500 <main+0x14>
 8000508:	20000028 	.word	0x20000028

0800050c <SystemClock_Config>:
return 0;
}


void SystemClock_Config()
{
 800050c:	b580      	push	{r7, lr}
 800050e:	b092      	sub	sp, #72	; 0x48
 8000510:	af00      	add	r7, sp, #0
 //we use by default clokc internal rc osc
	RCC_OscInitTypeDef osc_init;
	RCC_ClkInitTypeDef clk_init;

	osc_init.OscillatorType     =RCC_OSCILLATORTYPE_HSI;
 8000512:	2302      	movs	r3, #2
 8000514:	61bb      	str	r3, [r7, #24]
	osc_init.HSIState           =RCC_HSI_ON;
 8000516:	2301      	movs	r3, #1
 8000518:	627b      	str	r3, [r7, #36]	; 0x24
	osc_init.HSICalibrationValue=RCC_HSICALIBRATION_DEFAULT;
 800051a:	2310      	movs	r3, #16
 800051c:	62bb      	str	r3, [r7, #40]	; 0x28
	osc_init.PLL.PLLState       =RCC_PLL_ON;
 800051e:	2302      	movs	r3, #2
 8000520:	633b      	str	r3, [r7, #48]	; 0x30
	osc_init.PLL.PLLSource      =RCC_PLLSOURCE_HSI;
 8000522:	2300      	movs	r3, #0
 8000524:	637b      	str	r3, [r7, #52]	; 0x34
	osc_init.PLL.PLLM           =16;
 8000526:	2310      	movs	r3, #16
 8000528:	63bb      	str	r3, [r7, #56]	; 0x38
	osc_init.PLL.PLLN           =100;
 800052a:	2364      	movs	r3, #100	; 0x64
 800052c:	63fb      	str	r3, [r7, #60]	; 0x3c
	osc_init.PLL.PLLP           =RCC_PLLP_DIV2;
 800052e:	2302      	movs	r3, #2
 8000530:	643b      	str	r3, [r7, #64]	; 0x40

	if (HAL_RCC_OscConfig(&osc_init)!= HAL_OK)
 8000532:	f107 0318 	add.w	r3, r7, #24
 8000536:	4618      	mov	r0, r3
 8000538:	f000 fc76 	bl	8000e28 <HAL_RCC_OscConfig>
 800053c:	4603      	mov	r3, r0
 800053e:	2b00      	cmp	r3, #0
 8000540:	d001      	beq.n	8000546 <SystemClock_Config+0x3a>
	{
		Error_handler();
 8000542:	f000 f851 	bl	80005e8 <Error_handler>
	}

	clk_init.SYSCLKSource   = RCC_SYSCLKSOURCE_PLLCLK ;
 8000546:	2302      	movs	r3, #2
 8000548:	60bb      	str	r3, [r7, #8]
	clk_init.ClockType =  RCC_CLOCKTYPE_SYSCLK |RCC_CLOCKTYPE_HCLK |\
 800054a:	230f      	movs	r3, #15
 800054c:	607b      	str	r3, [r7, #4]
                           RCC_CLOCKTYPE_PCLK1 |RCC_CLOCKTYPE_PCLK2;
	clk_init.AHBCLKDivider  = RCC_SYSCLK_DIV1;
 800054e:	2300      	movs	r3, #0
 8000550:	60fb      	str	r3, [r7, #12]
    clk_init.APB1CLKDivider = RCC_HCLK_DIV2 ;
 8000552:	f44f 5380 	mov.w	r3, #4096	; 0x1000
 8000556:	613b      	str	r3, [r7, #16]
    clk_init.APB2CLKDivider = RCC_HCLK_DIV2 ;
 8000558:	f44f 5380 	mov.w	r3, #4096	; 0x1000
 800055c:	617b      	str	r3, [r7, #20]


	if (HAL_RCC_ClockConfig(&clk_init, FLASH_ACR_LATENCY_1WS)!= HAL_OK)
 800055e:	1d3b      	adds	r3, r7, #4
 8000560:	2101      	movs	r1, #1
 8000562:	4618      	mov	r0, r3
 8000564:	f000 fed0 	bl	8001308 <HAL_RCC_ClockConfig>
 8000568:	4603      	mov	r3, r0
 800056a:	2b00      	cmp	r3, #0
 800056c:	d001      	beq.n	8000572 <SystemClock_Config+0x66>
	{
		Error_handler();
 800056e:	f000 f83b 	bl	80005e8 <Error_handler>

    /*--------------------------------configure systick
     *
     *
     */
    HAL_SYSTICK_Config(HAL_RCC_GetHCLKFreq()/1000);              //4mhz/1000   hclk /1ms
 8000572:	f001 f887 	bl	8001684 <HAL_RCC_GetHCLKFreq>
 8000576:	4602      	mov	r2, r0
 8000578:	4b06      	ldr	r3, [pc, #24]	; (8000594 <SystemClock_Config+0x88>)
 800057a:	fba3 2302 	umull	r2, r3, r3, r2
 800057e:	099b      	lsrs	r3, r3, #6
 8000580:	4618      	mov	r0, r3
 8000582:	f000 fa64 	bl	8000a4e <HAL_SYSTICK_Config>
    HAL_SYSTICK_CLKSourceConfig(SYSTICK_CLKSOURCE_HCLK);
 8000586:	2004      	movs	r0, #4
 8000588:	f000 fa6e 	bl	8000a68 <HAL_SYSTICK_CLKSourceConfig>
}
 800058c:	bf00      	nop
 800058e:	3748      	adds	r7, #72	; 0x48
 8000590:	46bd      	mov	sp, r7
 8000592:	bd80      	pop	{r7, pc}
 8000594:	10624dd3 	.word	0x10624dd3

08000598 <GPIO_inti>:


void GPIO_inti()
{
 8000598:	b580      	push	{r7, lr}
 800059a:	b086      	sub	sp, #24
 800059c:	af00      	add	r7, sp, #0
	__HAL_RCC_GPIOD_CLK_ENABLE();
 800059e:	2300      	movs	r3, #0
 80005a0:	603b      	str	r3, [r7, #0]
 80005a2:	4b0f      	ldr	r3, [pc, #60]	; (80005e0 <GPIO_inti+0x48>)
 80005a4:	6b1b      	ldr	r3, [r3, #48]	; 0x30
 80005a6:	4a0e      	ldr	r2, [pc, #56]	; (80005e0 <GPIO_inti+0x48>)
 80005a8:	f043 0308 	orr.w	r3, r3, #8
 80005ac:	6313      	str	r3, [r2, #48]	; 0x30
 80005ae:	4b0c      	ldr	r3, [pc, #48]	; (80005e0 <GPIO_inti+0x48>)
 80005b0:	6b1b      	ldr	r3, [r3, #48]	; 0x30
 80005b2:	f003 0308 	and.w	r3, r3, #8
 80005b6:	603b      	str	r3, [r7, #0]
 80005b8:	683b      	ldr	r3, [r7, #0]
	GPIO_InitTypeDef ledgpio;
	ledgpio.Mode =GPIO_MODE_OUTPUT_PP;
 80005ba:	2301      	movs	r3, #1
 80005bc:	60bb      	str	r3, [r7, #8]
	ledgpio.Pin  =GPIO_PIN_12;
 80005be:	f44f 5380 	mov.w	r3, #4096	; 0x1000
 80005c2:	607b      	str	r3, [r7, #4]
	ledgpio.Speed=GPIO_SPEED_FREQ_HIGH;
 80005c4:	2302      	movs	r3, #2
 80005c6:	613b      	str	r3, [r7, #16]
	ledgpio.Pull=GPIO_NOPULL;
 80005c8:	2300      	movs	r3, #0
 80005ca:	60fb      	str	r3, [r7, #12]

	HAL_GPIO_Init(GPIOD, &ledgpio);
 80005cc:	1d3b      	adds	r3, r7, #4
 80005ce:	4619      	mov	r1, r3
 80005d0:	4804      	ldr	r0, [pc, #16]	; (80005e4 <GPIO_inti+0x4c>)
 80005d2:	f000 fa73 	bl	8000abc <HAL_GPIO_Init>
}
 80005d6:	bf00      	nop
 80005d8:	3718      	adds	r7, #24
 80005da:	46bd      	mov	sp, r7
 80005dc:	bd80      	pop	{r7, pc}
 80005de:	bf00      	nop
 80005e0:	40023800 	.word	0x40023800
 80005e4:	40020c00 	.word	0x40020c00

080005e8 <Error_handler>:

void Error_handler()
{
 80005e8:	b480      	push	{r7}
 80005ea:	af00      	add	r7, sp, #0
	while(1);
 80005ec:	e7fe      	b.n	80005ec <Error_handler+0x4>
	...

080005f0 <TIMER6_Init>:
}

void TIMER6_Init()
{
 80005f0:	b580      	push	{r7, lr}
 80005f2:	af00      	add	r7, sp, #0
	htimer6.Instance       = TIM6;
 80005f4:	4b09      	ldr	r3, [pc, #36]	; (800061c <TIMER6_Init+0x2c>)
 80005f6:	4a0a      	ldr	r2, [pc, #40]	; (8000620 <TIMER6_Init+0x30>)
 80005f8:	601a      	str	r2, [r3, #0]
	htimer6.Init.Prescaler = 9;
 80005fa:	4b08      	ldr	r3, [pc, #32]	; (800061c <TIMER6_Init+0x2c>)
 80005fc:	2209      	movs	r2, #9
 80005fe:	605a      	str	r2, [r3, #4]
	htimer6.Init.Period    = 50 -1;
 8000600:	4b06      	ldr	r3, [pc, #24]	; (800061c <TIMER6_Init+0x2c>)
 8000602:	2231      	movs	r2, #49	; 0x31
 8000604:	60da      	str	r2, [r3, #12]

	if (HAL_TIM_Base_Init(&htimer6)!=HAL_OK)
 8000606:	4805      	ldr	r0, [pc, #20]	; (800061c <TIMER6_Init+0x2c>)
 8000608:	f001 f848 	bl	800169c <HAL_TIM_Base_Init>
 800060c:	4603      	mov	r3, r0
 800060e:	2b00      	cmp	r3, #0
 8000610:	d001      	beq.n	8000616 <TIMER6_Init+0x26>
	{
		Error_handler();
 8000612:	f7ff ffe9 	bl	80005e8 <Error_handler>
	}
}
 8000616:	bf00      	nop
 8000618:	bd80      	pop	{r7, pc}
 800061a:	bf00      	nop
 800061c:	20000028 	.word	0x20000028
 8000620:	40001000 	.word	0x40001000

08000624 <HAL_TIM_PeriodElapsedCallback>:




 void HAL_TIM_PeriodElapsedCallback(TIM_HandleTypeDef *htim)
{
 8000624:	b580      	push	{r7, lr}
 8000626:	b082      	sub	sp, #8
 8000628:	af00      	add	r7, sp, #0
 800062a:	6078      	str	r0, [r7, #4]
	 HAL_GPIO_TogglePin(GPIOD, GPIO_PIN_12);
 800062c:	f44f 5180 	mov.w	r1, #4096	; 0x1000
 8000630:	4803      	ldr	r0, [pc, #12]	; (8000640 <HAL_TIM_PeriodElapsedCallback+0x1c>)
 8000632:	f000 fbdd 	bl	8000df0 <HAL_GPIO_TogglePin>

}
 8000636:	bf00      	nop
 8000638:	3708      	adds	r7, #8
 800063a:	46bd      	mov	sp, r7
 800063c:	bd80      	pop	{r7, pc}
 800063e:	bf00      	nop
 8000640:	40020c00 	.word	0x40020c00

08000644 <HAL_MspInit>:
 *      Author: Developer
 */
#include "main.h"
#include "stm32f4xx_hal_gpio.h"
 void HAL_MspInit(void)
{
 8000644:	b580      	push	{r7, lr}
 8000646:	af00      	add	r7, sp, #0
  /* NOTE : This function should not be modified, when the callback is needed,
            the HAL_MspInit could be implemented in the user file
   */
	 //1.priority grouping
	 // we use default one it is under hal driver layer under hal_cortex.c
	 HAL_NVIC_SetPriorityGrouping(NVIC_PRIORITYGROUP_4);
 8000648:	2003      	movs	r0, #3
 800064a:	f000 f9cb 	bl	80009e4 <HAL_NVIC_SetPriorityGrouping>
	 //2.system exceptions
	 SCB->SHCSR |=SCB_SHCSR_USGFAULTENA_Msk ; //enable usage
 800064e:	4b13      	ldr	r3, [pc, #76]	; (800069c <HAL_MspInit+0x58>)
 8000650:	6a5b      	ldr	r3, [r3, #36]	; 0x24
 8000652:	4a12      	ldr	r2, [pc, #72]	; (800069c <HAL_MspInit+0x58>)
 8000654:	f443 2380 	orr.w	r3, r3, #262144	; 0x40000
 8000658:	6253      	str	r3, [r2, #36]	; 0x24
	 SCB->SHCSR |=SCB_SHCSR_BUSFAULTENA_Msk ; //mem
 800065a:	4b10      	ldr	r3, [pc, #64]	; (800069c <HAL_MspInit+0x58>)
 800065c:	6a5b      	ldr	r3, [r3, #36]	; 0x24
 800065e:	4a0f      	ldr	r2, [pc, #60]	; (800069c <HAL_MspInit+0x58>)
 8000660:	f443 3300 	orr.w	r3, r3, #131072	; 0x20000
 8000664:	6253      	str	r3, [r2, #36]	; 0x24
	 SCB->SHCSR |=SCB_SHCSR_MEMFAULTENA_Msk ; //bus
 8000666:	4b0d      	ldr	r3, [pc, #52]	; (800069c <HAL_MspInit+0x58>)
 8000668:	6a5b      	ldr	r3, [r3, #36]	; 0x24
 800066a:	4a0c      	ldr	r2, [pc, #48]	; (800069c <HAL_MspInit+0x58>)
 800066c:	f443 3380 	orr.w	r3, r3, #65536	; 0x10000
 8000670:	6253      	str	r3, [r2, #36]	; 0x24
	 //3.priority for system exceptions

	 HAL_NVIC_SetPriority(MemoryManagement_IRQn, 0, 0);
 8000672:	2200      	movs	r2, #0
 8000674:	2100      	movs	r1, #0
 8000676:	f06f 000b 	mvn.w	r0, #11
 800067a:	f000 f9be 	bl	80009fa <HAL_NVIC_SetPriority>
	 HAL_NVIC_SetPriority(BusFault_IRQn, 0, 0);
 800067e:	2200      	movs	r2, #0
 8000680:	2100      	movs	r1, #0
 8000682:	f06f 000a 	mvn.w	r0, #10
 8000686:	f000 f9b8 	bl	80009fa <HAL_NVIC_SetPriority>
	 HAL_NVIC_SetPriority(UsageFault_IRQn, 0, 0);
 800068a:	2200      	movs	r2, #0
 800068c:	2100      	movs	r1, #0
 800068e:	f06f 0009 	mvn.w	r0, #9
 8000692:	f000 f9b2 	bl	80009fa <HAL_NVIC_SetPriority>
}
 8000696:	bf00      	nop
 8000698:	bd80      	pop	{r7, pc}
 800069a:	bf00      	nop
 800069c:	e000ed00 	.word	0xe000ed00

080006a0 <HAL_TIM_Base_MspInit>:


 void HAL_TIM_Base_MspInit(TIM_HandleTypeDef *htimer)
 {
 80006a0:	b580      	push	{r7, lr}
 80006a2:	b084      	sub	sp, #16
 80006a4:	af00      	add	r7, sp, #0
 80006a6:	6078      	str	r0, [r7, #4]
	 //1.enable clock for TIM6
	 __HAL_RCC_TIM6_CLK_ENABLE();
 80006a8:	2300      	movs	r3, #0
 80006aa:	60fb      	str	r3, [r7, #12]
 80006ac:	4b0b      	ldr	r3, [pc, #44]	; (80006dc <HAL_TIM_Base_MspInit+0x3c>)
 80006ae:	6c1b      	ldr	r3, [r3, #64]	; 0x40
 80006b0:	4a0a      	ldr	r2, [pc, #40]	; (80006dc <HAL_TIM_Base_MspInit+0x3c>)
 80006b2:	f043 0310 	orr.w	r3, r3, #16
 80006b6:	6413      	str	r3, [r2, #64]	; 0x40
 80006b8:	4b08      	ldr	r3, [pc, #32]	; (80006dc <HAL_TIM_Base_MspInit+0x3c>)
 80006ba:	6c1b      	ldr	r3, [r3, #64]	; 0x40
 80006bc:	f003 0310 	and.w	r3, r3, #16
 80006c0:	60fb      	str	r3, [r7, #12]
 80006c2:	68fb      	ldr	r3, [r7, #12]

	 //2.enable IRQ TIM6
	 HAL_NVIC_EnableIRQ(TIM6_DAC_IRQn);
 80006c4:	2036      	movs	r0, #54	; 0x36
 80006c6:	f000 f9b4 	bl	8000a32 <HAL_NVIC_EnableIRQ>

	 //3. setup priority for tim6
	 HAL_NVIC_SetPriority(TIM6_DAC_IRQn, 15, 0);
 80006ca:	2200      	movs	r2, #0
 80006cc:	210f      	movs	r1, #15
 80006ce:	2036      	movs	r0, #54	; 0x36
 80006d0:	f000 f993 	bl	80009fa <HAL_NVIC_SetPriority>


 }
 80006d4:	bf00      	nop
 80006d6:	3710      	adds	r7, #16
 80006d8:	46bd      	mov	sp, r7
 80006da:	bd80      	pop	{r7, pc}
 80006dc:	40023800 	.word	0x40023800

080006e0 <SystemInit>:
  *         configuration.
  * @param  None
  * @retval None
  */
void SystemInit(void)
{
 80006e0:	b480      	push	{r7}
 80006e2:	af00      	add	r7, sp, #0
  /* FPU settings ------------------------------------------------------------*/
  #if (__FPU_PRESENT == 1) && (__FPU_USED == 1)
    SCB->CPACR |= ((3UL << 10*2)|(3UL << 11*2));  /* set CP10 and CP11 Full Access */
 80006e4:	4b08      	ldr	r3, [pc, #32]	; (8000708 <SystemInit+0x28>)
 80006e6:	f8d3 3088 	ldr.w	r3, [r3, #136]	; 0x88
 80006ea:	4a07      	ldr	r2, [pc, #28]	; (8000708 <SystemInit+0x28>)
 80006ec:	f443 0370 	orr.w	r3, r3, #15728640	; 0xf00000
 80006f0:	f8c2 3088 	str.w	r3, [r2, #136]	; 0x88

  /* Configure the Vector Table location add offset address ------------------*/
#ifdef VECT_TAB_SRAM
  SCB->VTOR = SRAM_BASE | VECT_TAB_OFFSET; /* Vector Table Relocation in Internal SRAM */
#else
  SCB->VTOR = FLASH_BASE | VECT_TAB_OFFSET; /* Vector Table Relocation in Internal FLASH */
 80006f4:	4b04      	ldr	r3, [pc, #16]	; (8000708 <SystemInit+0x28>)
 80006f6:	f04f 6200 	mov.w	r2, #134217728	; 0x8000000
 80006fa:	609a      	str	r2, [r3, #8]
#endif
}
 80006fc:	bf00      	nop
 80006fe:	46bd      	mov	sp, r7
 8000700:	f85d 7b04 	ldr.w	r7, [sp], #4
 8000704:	4770      	bx	lr
 8000706:	bf00      	nop
 8000708:	e000ed00 	.word	0xe000ed00

0800070c <Reset_Handler>:

    .section  .text.Reset_Handler
  .weak  Reset_Handler
  .type  Reset_Handler, %function
Reset_Handler:  
  ldr   sp, =_estack     /* set stack pointer */
 800070c:	f8df d034 	ldr.w	sp, [pc, #52]	; 8000744 <LoopFillZerobss+0x14>

/* Copy the data segment initializers from flash to SRAM */  
  movs  r1, #0
 8000710:	2100      	movs	r1, #0
  b  LoopCopyDataInit
 8000712:	e003      	b.n	800071c <LoopCopyDataInit>

08000714 <CopyDataInit>:

CopyDataInit:
  ldr  r3, =_sidata
 8000714:	4b0c      	ldr	r3, [pc, #48]	; (8000748 <LoopFillZerobss+0x18>)
  ldr  r3, [r3, r1]
 8000716:	585b      	ldr	r3, [r3, r1]
  str  r3, [r0, r1]
 8000718:	5043      	str	r3, [r0, r1]
  adds  r1, r1, #4
 800071a:	3104      	adds	r1, #4

0800071c <LoopCopyDataInit>:
    
LoopCopyDataInit:
  ldr  r0, =_sdata
 800071c:	480b      	ldr	r0, [pc, #44]	; (800074c <LoopFillZerobss+0x1c>)
  ldr  r3, =_edata
 800071e:	4b0c      	ldr	r3, [pc, #48]	; (8000750 <LoopFillZerobss+0x20>)
  adds  r2, r0, r1
 8000720:	1842      	adds	r2, r0, r1
  cmp  r2, r3
 8000722:	429a      	cmp	r2, r3
  bcc  CopyDataInit
 8000724:	d3f6      	bcc.n	8000714 <CopyDataInit>
  ldr  r2, =_sbss
 8000726:	4a0b      	ldr	r2, [pc, #44]	; (8000754 <LoopFillZerobss+0x24>)
  b  LoopFillZerobss
 8000728:	e002      	b.n	8000730 <LoopFillZerobss>

0800072a <FillZerobss>:
/* Zero fill the bss segment. */  
FillZerobss:
  movs  r3, #0
 800072a:	2300      	movs	r3, #0
  str  r3, [r2], #4
 800072c:	f842 3b04 	str.w	r3, [r2], #4

08000730 <LoopFillZerobss>:
    
LoopFillZerobss:
  ldr  r3, = _ebss
 8000730:	4b09      	ldr	r3, [pc, #36]	; (8000758 <LoopFillZerobss+0x28>)
  cmp  r2, r3
 8000732:	429a      	cmp	r2, r3
  bcc  FillZerobss
 8000734:	d3f9      	bcc.n	800072a <FillZerobss>

/* Call the clock system intitialization function.*/
  bl  SystemInit   
 8000736:	f7ff ffd3 	bl	80006e0 <SystemInit>
/* Call static constructors */
    bl __libc_init_array
 800073a:	f001 f9e3 	bl	8001b04 <__libc_init_array>
/* Call the application's entry point.*/
  bl  main
 800073e:	f7ff fed5 	bl	80004ec <main>
  bx  lr    
 8000742:	4770      	bx	lr
  ldr   sp, =_estack     /* set stack pointer */
 8000744:	20020000 	.word	0x20020000
  ldr  r3, =_sidata
 8000748:	08001b84 	.word	0x08001b84
  ldr  r0, =_sdata
 800074c:	20000000 	.word	0x20000000
  ldr  r3, =_edata
 8000750:	2000000c 	.word	0x2000000c
  ldr  r2, =_sbss
 8000754:	2000000c 	.word	0x2000000c
  ldr  r3, = _ebss
 8000758:	2000006c 	.word	0x2000006c

0800075c <ADC_IRQHandler>:
 * @retval None       
*/
    .section  .text.Default_Handler,"ax",%progbits
Default_Handler:
Infinite_Loop:
  b  Infinite_Loop
 800075c:	e7fe      	b.n	800075c <ADC_IRQHandler>
	...

08000760 <HAL_Init>:
  *         need to ensure that the SysTick time base is always set to 1 millisecond
  *         to have correct HAL operation.
  * @retval HAL status
  */
HAL_StatusTypeDef HAL_Init(void)
{
 8000760:	b580      	push	{r7, lr}
 8000762:	af00      	add	r7, sp, #0
  /* Configure Flash prefetch, Instruction cache, Data cache */ 
#if (INSTRUCTION_CACHE_ENABLE != 0U)
  __HAL_FLASH_INSTRUCTION_CACHE_ENABLE();
 8000764:	4b0e      	ldr	r3, [pc, #56]	; (80007a0 <HAL_Init+0x40>)
 8000766:	681b      	ldr	r3, [r3, #0]
 8000768:	4a0d      	ldr	r2, [pc, #52]	; (80007a0 <HAL_Init+0x40>)
 800076a:	f443 7300 	orr.w	r3, r3, #512	; 0x200
 800076e:	6013      	str	r3, [r2, #0]
#endif /* INSTRUCTION_CACHE_ENABLE */

#if (DATA_CACHE_ENABLE != 0U)
  __HAL_FLASH_DATA_CACHE_ENABLE();
 8000770:	4b0b      	ldr	r3, [pc, #44]	; (80007a0 <HAL_Init+0x40>)
 8000772:	681b      	ldr	r3, [r3, #0]
 8000774:	4a0a      	ldr	r2, [pc, #40]	; (80007a0 <HAL_Init+0x40>)
 8000776:	f443 6380 	orr.w	r3, r3, #1024	; 0x400
 800077a:	6013      	str	r3, [r2, #0]
#endif /* DATA_CACHE_ENABLE */

#if (PREFETCH_ENABLE != 0U)
  __HAL_FLASH_PREFETCH_BUFFER_ENABLE();
 800077c:	4b08      	ldr	r3, [pc, #32]	; (80007a0 <HAL_Init+0x40>)
 800077e:	681b      	ldr	r3, [r3, #0]
 8000780:	4a07      	ldr	r2, [pc, #28]	; (80007a0 <HAL_Init+0x40>)
 8000782:	f443 7380 	orr.w	r3, r3, #256	; 0x100
 8000786:	6013      	str	r3, [r2, #0]
#endif /* PREFETCH_ENABLE */

  /* Set Interrupt Group Priority */
  HAL_NVIC_SetPriorityGrouping(NVIC_PRIORITYGROUP_4);
 8000788:	2003      	movs	r0, #3
 800078a:	f000 f92b 	bl	80009e4 <HAL_NVIC_SetPriorityGrouping>

  /* Use systick as time base source and configure 1ms tick (default clock after Reset is HSI) */
  HAL_InitTick(TICK_INT_PRIORITY);
 800078e:	2000      	movs	r0, #0
 8000790:	f000 f808 	bl	80007a4 <HAL_InitTick>

  /* Init the low level hardware */
  HAL_MspInit();
 8000794:	f7ff ff56 	bl	8000644 <HAL_MspInit>

  /* Return function status */
  return HAL_OK;
 8000798:	2300      	movs	r3, #0
}
 800079a:	4618      	mov	r0, r3
 800079c:	bd80      	pop	{r7, pc}
 800079e:	bf00      	nop
 80007a0:	40023c00 	.word	0x40023c00

080007a4 <HAL_InitTick>:
  *       implementation  in user file.
  * @param TickPriority Tick interrupt priority.
  * @retval HAL status
  */
__weak HAL_StatusTypeDef HAL_InitTick(uint32_t TickPriority)
{
 80007a4:	b580      	push	{r7, lr}
 80007a6:	b082      	sub	sp, #8
 80007a8:	af00      	add	r7, sp, #0
 80007aa:	6078      	str	r0, [r7, #4]
  /* Configure the SysTick to have interrupt in 1ms time basis*/
  if (HAL_SYSTICK_Config(SystemCoreClock / (1000U / uwTickFreq)) > 0U)
 80007ac:	4b12      	ldr	r3, [pc, #72]	; (80007f8 <HAL_InitTick+0x54>)
 80007ae:	681a      	ldr	r2, [r3, #0]
 80007b0:	4b12      	ldr	r3, [pc, #72]	; (80007fc <HAL_InitTick+0x58>)
 80007b2:	781b      	ldrb	r3, [r3, #0]
 80007b4:	4619      	mov	r1, r3
 80007b6:	f44f 737a 	mov.w	r3, #1000	; 0x3e8
 80007ba:	fbb3 f3f1 	udiv	r3, r3, r1
 80007be:	fbb2 f3f3 	udiv	r3, r2, r3
 80007c2:	4618      	mov	r0, r3
 80007c4:	f000 f943 	bl	8000a4e <HAL_SYSTICK_Config>
 80007c8:	4603      	mov	r3, r0
 80007ca:	2b00      	cmp	r3, #0
 80007cc:	d001      	beq.n	80007d2 <HAL_InitTick+0x2e>
  {
    return HAL_ERROR;
 80007ce:	2301      	movs	r3, #1
 80007d0:	e00e      	b.n	80007f0 <HAL_InitTick+0x4c>
  }

  /* Configure the SysTick IRQ priority */
  if (TickPriority < (1UL << __NVIC_PRIO_BITS))
 80007d2:	687b      	ldr	r3, [r7, #4]
 80007d4:	2b0f      	cmp	r3, #15
 80007d6:	d80a      	bhi.n	80007ee <HAL_InitTick+0x4a>
  {
    HAL_NVIC_SetPriority(SysTick_IRQn, TickPriority, 0U);
 80007d8:	2200      	movs	r2, #0
 80007da:	6879      	ldr	r1, [r7, #4]
 80007dc:	f04f 30ff 	mov.w	r0, #4294967295
 80007e0:	f000 f90b 	bl	80009fa <HAL_NVIC_SetPriority>
    uwTickPrio = TickPriority;
 80007e4:	4a06      	ldr	r2, [pc, #24]	; (8000800 <HAL_InitTick+0x5c>)
 80007e6:	687b      	ldr	r3, [r7, #4]
 80007e8:	6013      	str	r3, [r2, #0]
  {
    return HAL_ERROR;
  }

  /* Return function status */
  return HAL_OK;
 80007ea:	2300      	movs	r3, #0
 80007ec:	e000      	b.n	80007f0 <HAL_InitTick+0x4c>
    return HAL_ERROR;
 80007ee:	2301      	movs	r3, #1
}
 80007f0:	4618      	mov	r0, r3
 80007f2:	3708      	adds	r7, #8
 80007f4:	46bd      	mov	sp, r7
 80007f6:	bd80      	pop	{r7, pc}
 80007f8:	20000000 	.word	0x20000000
 80007fc:	20000008 	.word	0x20000008
 8000800:	20000004 	.word	0x20000004

08000804 <HAL_IncTick>:
 * @note This function is declared as __weak to be overwritten in case of other 
  *      implementations in user file.
  * @retval None
  */
__weak void HAL_IncTick(void)
{
 8000804:	b480      	push	{r7}
 8000806:	af00      	add	r7, sp, #0
  uwTick += uwTickFreq;
 8000808:	4b06      	ldr	r3, [pc, #24]	; (8000824 <HAL_IncTick+0x20>)
 800080a:	781b      	ldrb	r3, [r3, #0]
 800080c:	461a      	mov	r2, r3
 800080e:	4b06      	ldr	r3, [pc, #24]	; (8000828 <HAL_IncTick+0x24>)
 8000810:	681b      	ldr	r3, [r3, #0]
 8000812:	4413      	add	r3, r2
 8000814:	4a04      	ldr	r2, [pc, #16]	; (8000828 <HAL_IncTick+0x24>)
 8000816:	6013      	str	r3, [r2, #0]
}
 8000818:	bf00      	nop
 800081a:	46bd      	mov	sp, r7
 800081c:	f85d 7b04 	ldr.w	r7, [sp], #4
 8000820:	4770      	bx	lr
 8000822:	bf00      	nop
 8000824:	20000008 	.word	0x20000008
 8000828:	20000068 	.word	0x20000068

0800082c <HAL_GetTick>:
  * @note This function is declared as __weak to be overwritten in case of other 
  *       implementations in user file.
  * @retval tick value
  */
__weak uint32_t HAL_GetTick(void)
{
 800082c:	b480      	push	{r7}
 800082e:	af00      	add	r7, sp, #0
  return uwTick;
 8000830:	4b03      	ldr	r3, [pc, #12]	; (8000840 <HAL_GetTick+0x14>)
 8000832:	681b      	ldr	r3, [r3, #0]
}
 8000834:	4618      	mov	r0, r3
 8000836:	46bd      	mov	sp, r7
 8000838:	f85d 7b04 	ldr.w	r7, [sp], #4
 800083c:	4770      	bx	lr
 800083e:	bf00      	nop
 8000840:	20000068 	.word	0x20000068

08000844 <__NVIC_SetPriorityGrouping>:
           In case of a conflict between priority grouping and available
           priority bits (__NVIC_PRIO_BITS), the smallest possible priority group is set.
  \param [in]      PriorityGroup  Priority grouping field.
 */
__STATIC_INLINE void __NVIC_SetPriorityGrouping(uint32_t PriorityGroup)
{
 8000844:	b480      	push	{r7}
 8000846:	b085      	sub	sp, #20
 8000848:	af00      	add	r7, sp, #0
 800084a:	6078      	str	r0, [r7, #4]
  uint32_t reg_value;
  uint32_t PriorityGroupTmp = (PriorityGroup & (uint32_t)0x07UL);             /* only values 0..7 are used          */
 800084c:	687b      	ldr	r3, [r7, #4]
 800084e:	f003 0307 	and.w	r3, r3, #7
 8000852:	60fb      	str	r3, [r7, #12]

  reg_value  =  SCB->AIRCR;                                                   /* read old register configuration    */
 8000854:	4b0c      	ldr	r3, [pc, #48]	; (8000888 <__NVIC_SetPriorityGrouping+0x44>)
 8000856:	68db      	ldr	r3, [r3, #12]
 8000858:	60bb      	str	r3, [r7, #8]
  reg_value &= ~((uint32_t)(SCB_AIRCR_VECTKEY_Msk | SCB_AIRCR_PRIGROUP_Msk)); /* clear bits to change               */
 800085a:	68ba      	ldr	r2, [r7, #8]
 800085c:	f64f 03ff 	movw	r3, #63743	; 0xf8ff
 8000860:	4013      	ands	r3, r2
 8000862:	60bb      	str	r3, [r7, #8]
  reg_value  =  (reg_value                                   |
                ((uint32_t)0x5FAUL << SCB_AIRCR_VECTKEY_Pos) |
                (PriorityGroupTmp << SCB_AIRCR_PRIGROUP_Pos)  );              /* Insert write key and priority group */
 8000864:	68fb      	ldr	r3, [r7, #12]
 8000866:	021a      	lsls	r2, r3, #8
                ((uint32_t)0x5FAUL << SCB_AIRCR_VECTKEY_Pos) |
 8000868:	68bb      	ldr	r3, [r7, #8]
 800086a:	4313      	orrs	r3, r2
  reg_value  =  (reg_value                                   |
 800086c:	f043 63bf 	orr.w	r3, r3, #100139008	; 0x5f80000
 8000870:	f443 3300 	orr.w	r3, r3, #131072	; 0x20000
 8000874:	60bb      	str	r3, [r7, #8]
  SCB->AIRCR =  reg_value;
 8000876:	4a04      	ldr	r2, [pc, #16]	; (8000888 <__NVIC_SetPriorityGrouping+0x44>)
 8000878:	68bb      	ldr	r3, [r7, #8]
 800087a:	60d3      	str	r3, [r2, #12]
}
 800087c:	bf00      	nop
 800087e:	3714      	adds	r7, #20
 8000880:	46bd      	mov	sp, r7
 8000882:	f85d 7b04 	ldr.w	r7, [sp], #4
 8000886:	4770      	bx	lr
 8000888:	e000ed00 	.word	0xe000ed00

0800088c <__NVIC_GetPriorityGrouping>:
  \brief   Get Priority Grouping
  \details Reads the priority grouping field from the NVIC Interrupt Controller.
  \return                Priority grouping field (SCB->AIRCR [10:8] PRIGROUP field).
 */
__STATIC_INLINE uint32_t __NVIC_GetPriorityGrouping(void)
{
 800088c:	b480      	push	{r7}
 800088e:	af00      	add	r7, sp, #0
  return ((uint32_t)((SCB->AIRCR & SCB_AIRCR_PRIGROUP_Msk) >> SCB_AIRCR_PRIGROUP_Pos));
 8000890:	4b04      	ldr	r3, [pc, #16]	; (80008a4 <__NVIC_GetPriorityGrouping+0x18>)
 8000892:	68db      	ldr	r3, [r3, #12]
 8000894:	0a1b      	lsrs	r3, r3, #8
 8000896:	f003 0307 	and.w	r3, r3, #7
}
 800089a:	4618      	mov	r0, r3
 800089c:	46bd      	mov	sp, r7
 800089e:	f85d 7b04 	ldr.w	r7, [sp], #4
 80008a2:	4770      	bx	lr
 80008a4:	e000ed00 	.word	0xe000ed00

080008a8 <__NVIC_EnableIRQ>:
  \details Enables a device specific interrupt in the NVIC interrupt controller.
  \param [in]      IRQn  Device specific interrupt number.
  \note    IRQn must not be negative.
 */
__STATIC_INLINE void __NVIC_EnableIRQ(IRQn_Type IRQn)
{
 80008a8:	b480      	push	{r7}
 80008aa:	b083      	sub	sp, #12
 80008ac:	af00      	add	r7, sp, #0
 80008ae:	4603      	mov	r3, r0
 80008b0:	71fb      	strb	r3, [r7, #7]
  if ((int32_t)(IRQn) >= 0)
 80008b2:	f997 3007 	ldrsb.w	r3, [r7, #7]
 80008b6:	2b00      	cmp	r3, #0
 80008b8:	db0b      	blt.n	80008d2 <__NVIC_EnableIRQ+0x2a>
  {
    NVIC->ISER[(((uint32_t)IRQn) >> 5UL)] = (uint32_t)(1UL << (((uint32_t)IRQn) & 0x1FUL));
 80008ba:	79fb      	ldrb	r3, [r7, #7]
 80008bc:	f003 021f 	and.w	r2, r3, #31
 80008c0:	4907      	ldr	r1, [pc, #28]	; (80008e0 <__NVIC_EnableIRQ+0x38>)
 80008c2:	f997 3007 	ldrsb.w	r3, [r7, #7]
 80008c6:	095b      	lsrs	r3, r3, #5
 80008c8:	2001      	movs	r0, #1
 80008ca:	fa00 f202 	lsl.w	r2, r0, r2
 80008ce:	f841 2023 	str.w	r2, [r1, r3, lsl #2]
  }
}
 80008d2:	bf00      	nop
 80008d4:	370c      	adds	r7, #12
 80008d6:	46bd      	mov	sp, r7
 80008d8:	f85d 7b04 	ldr.w	r7, [sp], #4
 80008dc:	4770      	bx	lr
 80008de:	bf00      	nop
 80008e0:	e000e100 	.word	0xe000e100

080008e4 <__NVIC_SetPriority>:
  \param [in]      IRQn  Interrupt number.
  \param [in]  priority  Priority to set.
  \note    The priority cannot be set for every processor exception.
 */
__STATIC_INLINE void __NVIC_SetPriority(IRQn_Type IRQn, uint32_t priority)
{
 80008e4:	b480      	push	{r7}
 80008e6:	b083      	sub	sp, #12
 80008e8:	af00      	add	r7, sp, #0
 80008ea:	4603      	mov	r3, r0
 80008ec:	6039      	str	r1, [r7, #0]
 80008ee:	71fb      	strb	r3, [r7, #7]
  if ((int32_t)(IRQn) >= 0)
 80008f0:	f997 3007 	ldrsb.w	r3, [r7, #7]
 80008f4:	2b00      	cmp	r3, #0
 80008f6:	db0a      	blt.n	800090e <__NVIC_SetPriority+0x2a>
  {
    NVIC->IP[((uint32_t)IRQn)]               = (uint8_t)((priority << (8U - __NVIC_PRIO_BITS)) & (uint32_t)0xFFUL);
 80008f8:	683b      	ldr	r3, [r7, #0]
 80008fa:	b2da      	uxtb	r2, r3
 80008fc:	490c      	ldr	r1, [pc, #48]	; (8000930 <__NVIC_SetPriority+0x4c>)
 80008fe:	f997 3007 	ldrsb.w	r3, [r7, #7]
 8000902:	0112      	lsls	r2, r2, #4
 8000904:	b2d2      	uxtb	r2, r2
 8000906:	440b      	add	r3, r1
 8000908:	f883 2300 	strb.w	r2, [r3, #768]	; 0x300
  }
  else
  {
    SCB->SHP[(((uint32_t)IRQn) & 0xFUL)-4UL] = (uint8_t)((priority << (8U - __NVIC_PRIO_BITS)) & (uint32_t)0xFFUL);
  }
}
 800090c:	e00a      	b.n	8000924 <__NVIC_SetPriority+0x40>
    SCB->SHP[(((uint32_t)IRQn) & 0xFUL)-4UL] = (uint8_t)((priority << (8U - __NVIC_PRIO_BITS)) & (uint32_t)0xFFUL);
 800090e:	683b      	ldr	r3, [r7, #0]
 8000910:	b2da      	uxtb	r2, r3
 8000912:	4908      	ldr	r1, [pc, #32]	; (8000934 <__NVIC_SetPriority+0x50>)
 8000914:	79fb      	ldrb	r3, [r7, #7]
 8000916:	f003 030f 	and.w	r3, r3, #15
 800091a:	3b04      	subs	r3, #4
 800091c:	0112      	lsls	r2, r2, #4
 800091e:	b2d2      	uxtb	r2, r2
 8000920:	440b      	add	r3, r1
 8000922:	761a      	strb	r2, [r3, #24]
}
 8000924:	bf00      	nop
 8000926:	370c      	adds	r7, #12
 8000928:	46bd      	mov	sp, r7
 800092a:	f85d 7b04 	ldr.w	r7, [sp], #4
 800092e:	4770      	bx	lr
 8000930:	e000e100 	.word	0xe000e100
 8000934:	e000ed00 	.word	0xe000ed00

08000938 <NVIC_EncodePriority>:
  \param [in]   PreemptPriority  Preemptive priority value (starting from 0).
  \param [in]       SubPriority  Subpriority value (starting from 0).
  \return                        Encoded priority. Value can be used in the function \ref NVIC_SetPriority().
 */
__STATIC_INLINE uint32_t NVIC_EncodePriority (uint32_t PriorityGroup, uint32_t PreemptPriority, uint32_t SubPriority)
{
 8000938:	b480      	push	{r7}
 800093a:	b089      	sub	sp, #36	; 0x24
 800093c:	af00      	add	r7, sp, #0
 800093e:	60f8      	str	r0, [r7, #12]
 8000940:	60b9      	str	r1, [r7, #8]
 8000942:	607a      	str	r2, [r7, #4]
  uint32_t PriorityGroupTmp = (PriorityGroup & (uint32_t)0x07UL);   /* only values 0..7 are used          */
 8000944:	68fb      	ldr	r3, [r7, #12]
 8000946:	f003 0307 	and.w	r3, r3, #7
 800094a:	61fb      	str	r3, [r7, #28]
  uint32_t PreemptPriorityBits;
  uint32_t SubPriorityBits;

  PreemptPriorityBits = ((7UL - PriorityGroupTmp) > (uint32_t)(__NVIC_PRIO_BITS)) ? (uint32_t)(__NVIC_PRIO_BITS) : (uint32_t)(7UL - PriorityGroupTmp);
 800094c:	69fb      	ldr	r3, [r7, #28]
 800094e:	f1c3 0307 	rsb	r3, r3, #7
 8000952:	2b04      	cmp	r3, #4
 8000954:	bf28      	it	cs
 8000956:	2304      	movcs	r3, #4
 8000958:	61bb      	str	r3, [r7, #24]
  SubPriorityBits     = ((PriorityGroupTmp + (uint32_t)(__NVIC_PRIO_BITS)) < (uint32_t)7UL) ? (uint32_t)0UL : (uint32_t)((PriorityGroupTmp - 7UL) + (uint32_t)(__NVIC_PRIO_BITS));
 800095a:	69fb      	ldr	r3, [r7, #28]
 800095c:	3304      	adds	r3, #4
 800095e:	2b06      	cmp	r3, #6
 8000960:	d902      	bls.n	8000968 <NVIC_EncodePriority+0x30>
 8000962:	69fb      	ldr	r3, [r7, #28]
 8000964:	3b03      	subs	r3, #3
 8000966:	e000      	b.n	800096a <NVIC_EncodePriority+0x32>
 8000968:	2300      	movs	r3, #0
 800096a:	617b      	str	r3, [r7, #20]

  return (
           ((PreemptPriority & (uint32_t)((1UL << (PreemptPriorityBits)) - 1UL)) << SubPriorityBits) |
 800096c:	f04f 32ff 	mov.w	r2, #4294967295
 8000970:	69bb      	ldr	r3, [r7, #24]
 8000972:	fa02 f303 	lsl.w	r3, r2, r3
 8000976:	43da      	mvns	r2, r3
 8000978:	68bb      	ldr	r3, [r7, #8]
 800097a:	401a      	ands	r2, r3
 800097c:	697b      	ldr	r3, [r7, #20]
 800097e:	409a      	lsls	r2, r3
           ((SubPriority     & (uint32_t)((1UL << (SubPriorityBits    )) - 1UL)))
 8000980:	f04f 31ff 	mov.w	r1, #4294967295
 8000984:	697b      	ldr	r3, [r7, #20]
 8000986:	fa01 f303 	lsl.w	r3, r1, r3
 800098a:	43d9      	mvns	r1, r3
 800098c:	687b      	ldr	r3, [r7, #4]
 800098e:	400b      	ands	r3, r1
           ((PreemptPriority & (uint32_t)((1UL << (PreemptPriorityBits)) - 1UL)) << SubPriorityBits) |
 8000990:	4313      	orrs	r3, r2
         );
}
 8000992:	4618      	mov	r0, r3
 8000994:	3724      	adds	r7, #36	; 0x24
 8000996:	46bd      	mov	sp, r7
 8000998:	f85d 7b04 	ldr.w	r7, [sp], #4
 800099c:	4770      	bx	lr
	...

080009a0 <SysTick_Config>:
  \note    When the variable <b>__Vendor_SysTickConfig</b> is set to 1, then the
           function <b>SysTick_Config</b> is not included. In this case, the file <b><i>device</i>.h</b>
           must contain a vendor-specific implementation of this function.
 */
__STATIC_INLINE uint32_t SysTick_Config(uint32_t ticks)
{
 80009a0:	b580      	push	{r7, lr}
 80009a2:	b082      	sub	sp, #8
 80009a4:	af00      	add	r7, sp, #0
 80009a6:	6078      	str	r0, [r7, #4]
  if ((ticks - 1UL) > SysTick_LOAD_RELOAD_Msk)
 80009a8:	687b      	ldr	r3, [r7, #4]
 80009aa:	3b01      	subs	r3, #1
 80009ac:	f1b3 7f80 	cmp.w	r3, #16777216	; 0x1000000
 80009b0:	d301      	bcc.n	80009b6 <SysTick_Config+0x16>
  {
    return (1UL);                                                   /* Reload value impossible */
 80009b2:	2301      	movs	r3, #1
 80009b4:	e00f      	b.n	80009d6 <SysTick_Config+0x36>
  }

  SysTick->LOAD  = (uint32_t)(ticks - 1UL);                         /* set reload register */
 80009b6:	4a0a      	ldr	r2, [pc, #40]	; (80009e0 <SysTick_Config+0x40>)
 80009b8:	687b      	ldr	r3, [r7, #4]
 80009ba:	3b01      	subs	r3, #1
 80009bc:	6053      	str	r3, [r2, #4]
  NVIC_SetPriority (SysTick_IRQn, (1UL << __NVIC_PRIO_BITS) - 1UL); /* set Priority for Systick Interrupt */
 80009be:	210f      	movs	r1, #15
 80009c0:	f04f 30ff 	mov.w	r0, #4294967295
 80009c4:	f7ff ff8e 	bl	80008e4 <__NVIC_SetPriority>
  SysTick->VAL   = 0UL;                                             /* Load the SysTick Counter Value */
 80009c8:	4b05      	ldr	r3, [pc, #20]	; (80009e0 <SysTick_Config+0x40>)
 80009ca:	2200      	movs	r2, #0
 80009cc:	609a      	str	r2, [r3, #8]
  SysTick->CTRL  = SysTick_CTRL_CLKSOURCE_Msk |
 80009ce:	4b04      	ldr	r3, [pc, #16]	; (80009e0 <SysTick_Config+0x40>)
 80009d0:	2207      	movs	r2, #7
 80009d2:	601a      	str	r2, [r3, #0]
                   SysTick_CTRL_TICKINT_Msk   |
                   SysTick_CTRL_ENABLE_Msk;                         /* Enable SysTick IRQ and SysTick Timer */
  return (0UL);                                                     /* Function successful */
 80009d4:	2300      	movs	r3, #0
}
 80009d6:	4618      	mov	r0, r3
 80009d8:	3708      	adds	r7, #8
 80009da:	46bd      	mov	sp, r7
 80009dc:	bd80      	pop	{r7, pc}
 80009de:	bf00      	nop
 80009e0:	e000e010 	.word	0xe000e010

080009e4 <HAL_NVIC_SetPriorityGrouping>:
  * @note   When the NVIC_PriorityGroup_0 is selected, IRQ preemption is no more possible. 
  *         The pending IRQ priority will be managed only by the subpriority. 
  * @retval None
  */
void HAL_NVIC_SetPriorityGrouping(uint32_t PriorityGroup)
{
 80009e4:	b580      	push	{r7, lr}
 80009e6:	b082      	sub	sp, #8
 80009e8:	af00      	add	r7, sp, #0
 80009ea:	6078      	str	r0, [r7, #4]
  /* Check the parameters */
  assert_param(IS_NVIC_PRIORITY_GROUP(PriorityGroup));
  
  /* Set the PRIGROUP[10:8] bits according to the PriorityGroup parameter value */
  NVIC_SetPriorityGrouping(PriorityGroup);
 80009ec:	6878      	ldr	r0, [r7, #4]
 80009ee:	f7ff ff29 	bl	8000844 <__NVIC_SetPriorityGrouping>
}
 80009f2:	bf00      	nop
 80009f4:	3708      	adds	r7, #8
 80009f6:	46bd      	mov	sp, r7
 80009f8:	bd80      	pop	{r7, pc}

080009fa <HAL_NVIC_SetPriority>:
  *         This parameter can be a value between 0 and 15
  *         A lower priority value indicates a higher priority.          
  * @retval None
  */
void HAL_NVIC_SetPriority(IRQn_Type IRQn, uint32_t PreemptPriority, uint32_t SubPriority)
{ 
 80009fa:	b580      	push	{r7, lr}
 80009fc:	b086      	sub	sp, #24
 80009fe:	af00      	add	r7, sp, #0
 8000a00:	4603      	mov	r3, r0
 8000a02:	60b9      	str	r1, [r7, #8]
 8000a04:	607a      	str	r2, [r7, #4]
 8000a06:	73fb      	strb	r3, [r7, #15]
  uint32_t prioritygroup = 0x00U;
 8000a08:	2300      	movs	r3, #0
 8000a0a:	617b      	str	r3, [r7, #20]
  
  /* Check the parameters */
  assert_param(IS_NVIC_SUB_PRIORITY(SubPriority));
  assert_param(IS_NVIC_PREEMPTION_PRIORITY(PreemptPriority));
  
  prioritygroup = NVIC_GetPriorityGrouping();
 8000a0c:	f7ff ff3e 	bl	800088c <__NVIC_GetPriorityGrouping>
 8000a10:	6178      	str	r0, [r7, #20]
  
  NVIC_SetPriority(IRQn, NVIC_EncodePriority(prioritygroup, PreemptPriority, SubPriority));
 8000a12:	687a      	ldr	r2, [r7, #4]
 8000a14:	68b9      	ldr	r1, [r7, #8]
 8000a16:	6978      	ldr	r0, [r7, #20]
 8000a18:	f7ff ff8e 	bl	8000938 <NVIC_EncodePriority>
 8000a1c:	4602      	mov	r2, r0
 8000a1e:	f997 300f 	ldrsb.w	r3, [r7, #15]
 8000a22:	4611      	mov	r1, r2
 8000a24:	4618      	mov	r0, r3
 8000a26:	f7ff ff5d 	bl	80008e4 <__NVIC_SetPriority>
}
 8000a2a:	bf00      	nop
 8000a2c:	3718      	adds	r7, #24
 8000a2e:	46bd      	mov	sp, r7
 8000a30:	bd80      	pop	{r7, pc}

08000a32 <HAL_NVIC_EnableIRQ>:
  *         This parameter can be an enumerator of IRQn_Type enumeration
  *         (For the complete STM32 Devices IRQ Channels list, please refer to the appropriate CMSIS device file (stm32f4xxxx.h))
  * @retval None
  */
void HAL_NVIC_EnableIRQ(IRQn_Type IRQn)
{
 8000a32:	b580      	push	{r7, lr}
 8000a34:	b082      	sub	sp, #8
 8000a36:	af00      	add	r7, sp, #0
 8000a38:	4603      	mov	r3, r0
 8000a3a:	71fb      	strb	r3, [r7, #7]
  /* Check the parameters */
  assert_param(IS_NVIC_DEVICE_IRQ(IRQn));
  
  /* Enable interrupt */
  NVIC_EnableIRQ(IRQn);
 8000a3c:	f997 3007 	ldrsb.w	r3, [r7, #7]
 8000a40:	4618      	mov	r0, r3
 8000a42:	f7ff ff31 	bl	80008a8 <__NVIC_EnableIRQ>
}
 8000a46:	bf00      	nop
 8000a48:	3708      	adds	r7, #8
 8000a4a:	46bd      	mov	sp, r7
 8000a4c:	bd80      	pop	{r7, pc}

08000a4e <HAL_SYSTICK_Config>:
  * @param  TicksNumb Specifies the ticks Number of ticks between two interrupts.
  * @retval status:  - 0  Function succeeded.
  *                  - 1  Function failed.
  */
uint32_t HAL_SYSTICK_Config(uint32_t TicksNumb)
{
 8000a4e:	b580      	push	{r7, lr}
 8000a50:	b082      	sub	sp, #8
 8000a52:	af00      	add	r7, sp, #0
 8000a54:	6078      	str	r0, [r7, #4]
   return SysTick_Config(TicksNumb);
 8000a56:	6878      	ldr	r0, [r7, #4]
 8000a58:	f7ff ffa2 	bl	80009a0 <SysTick_Config>
 8000a5c:	4603      	mov	r3, r0
}
 8000a5e:	4618      	mov	r0, r3
 8000a60:	3708      	adds	r7, #8
 8000a62:	46bd      	mov	sp, r7
 8000a64:	bd80      	pop	{r7, pc}
	...

08000a68 <HAL_SYSTICK_CLKSourceConfig>:
  *             @arg SYSTICK_CLKSOURCE_HCLK_DIV8: AHB clock divided by 8 selected as SysTick clock source.
  *             @arg SYSTICK_CLKSOURCE_HCLK: AHB clock selected as SysTick clock source.
  * @retval None
  */
void HAL_SYSTICK_CLKSourceConfig(uint32_t CLKSource)
{
 8000a68:	b480      	push	{r7}
 8000a6a:	b083      	sub	sp, #12
 8000a6c:	af00      	add	r7, sp, #0
 8000a6e:	6078      	str	r0, [r7, #4]
  /* Check the parameters */
  assert_param(IS_SYSTICK_CLK_SOURCE(CLKSource));
  if (CLKSource == SYSTICK_CLKSOURCE_HCLK)
 8000a70:	687b      	ldr	r3, [r7, #4]
 8000a72:	2b04      	cmp	r3, #4
 8000a74:	d106      	bne.n	8000a84 <HAL_SYSTICK_CLKSourceConfig+0x1c>
  {
    SysTick->CTRL |= SYSTICK_CLKSOURCE_HCLK;
 8000a76:	4b09      	ldr	r3, [pc, #36]	; (8000a9c <HAL_SYSTICK_CLKSourceConfig+0x34>)
 8000a78:	681b      	ldr	r3, [r3, #0]
 8000a7a:	4a08      	ldr	r2, [pc, #32]	; (8000a9c <HAL_SYSTICK_CLKSourceConfig+0x34>)
 8000a7c:	f043 0304 	orr.w	r3, r3, #4
 8000a80:	6013      	str	r3, [r2, #0]
  }
  else
  {
    SysTick->CTRL &= ~SYSTICK_CLKSOURCE_HCLK;
  }
}
 8000a82:	e005      	b.n	8000a90 <HAL_SYSTICK_CLKSourceConfig+0x28>
    SysTick->CTRL &= ~SYSTICK_CLKSOURCE_HCLK;
 8000a84:	4b05      	ldr	r3, [pc, #20]	; (8000a9c <HAL_SYSTICK_CLKSourceConfig+0x34>)
 8000a86:	681b      	ldr	r3, [r3, #0]
 8000a88:	4a04      	ldr	r2, [pc, #16]	; (8000a9c <HAL_SYSTICK_CLKSourceConfig+0x34>)
 8000a8a:	f023 0304 	bic.w	r3, r3, #4
 8000a8e:	6013      	str	r3, [r2, #0]
}
 8000a90:	bf00      	nop
 8000a92:	370c      	adds	r7, #12
 8000a94:	46bd      	mov	sp, r7
 8000a96:	f85d 7b04 	ldr.w	r7, [sp], #4
 8000a9a:	4770      	bx	lr
 8000a9c:	e000e010 	.word	0xe000e010

08000aa0 <HAL_SYSTICK_IRQHandler>:
/**
  * @brief  This function handles SYSTICK interrupt request.
  * @retval None
  */
void HAL_SYSTICK_IRQHandler(void)
{
 8000aa0:	b580      	push	{r7, lr}
 8000aa2:	af00      	add	r7, sp, #0
  HAL_SYSTICK_Callback();
 8000aa4:	f000 f802 	bl	8000aac <HAL_SYSTICK_Callback>
}
 8000aa8:	bf00      	nop
 8000aaa:	bd80      	pop	{r7, pc}

08000aac <HAL_SYSTICK_Callback>:
/**
  * @brief  SYSTICK callback.
  * @retval None
  */
__weak void HAL_SYSTICK_Callback(void)
{
 8000aac:	b480      	push	{r7}
 8000aae:	af00      	add	r7, sp, #0
  /* NOTE : This function Should not be modified, when the callback is needed,
            the HAL_SYSTICK_Callback could be implemented in the user file
   */
}
 8000ab0:	bf00      	nop
 8000ab2:	46bd      	mov	sp, r7
 8000ab4:	f85d 7b04 	ldr.w	r7, [sp], #4
 8000ab8:	4770      	bx	lr
	...

08000abc <HAL_GPIO_Init>:
  * @param  GPIO_Init pointer to a GPIO_InitTypeDef structure that contains
  *         the configuration information for the specified GPIO peripheral.
  * @retval None
  */
void HAL_GPIO_Init(GPIO_TypeDef  *GPIOx, GPIO_InitTypeDef *GPIO_Init)
{
 8000abc:	b480      	push	{r7}
 8000abe:	b089      	sub	sp, #36	; 0x24
 8000ac0:	af00      	add	r7, sp, #0
 8000ac2:	6078      	str	r0, [r7, #4]
 8000ac4:	6039      	str	r1, [r7, #0]
  uint32_t position;
  uint32_t ioposition = 0x00U;
 8000ac6:	2300      	movs	r3, #0
 8000ac8:	617b      	str	r3, [r7, #20]
  uint32_t iocurrent = 0x00U;
 8000aca:	2300      	movs	r3, #0
 8000acc:	613b      	str	r3, [r7, #16]
  uint32_t temp = 0x00U;
 8000ace:	2300      	movs	r3, #0
 8000ad0:	61bb      	str	r3, [r7, #24]
  assert_param(IS_GPIO_PIN(GPIO_Init->Pin));
  assert_param(IS_GPIO_MODE(GPIO_Init->Mode));
  assert_param(IS_GPIO_PULL(GPIO_Init->Pull));

  /* Configure the port pins */
  for(position = 0U; position < GPIO_NUMBER; position++)
 8000ad2:	2300      	movs	r3, #0
 8000ad4:	61fb      	str	r3, [r7, #28]
 8000ad6:	e16b      	b.n	8000db0 <HAL_GPIO_Init+0x2f4>
  {
    /* Get the IO position */
    ioposition = 0x01U << position;
 8000ad8:	2201      	movs	r2, #1
 8000ada:	69fb      	ldr	r3, [r7, #28]
 8000adc:	fa02 f303 	lsl.w	r3, r2, r3
 8000ae0:	617b      	str	r3, [r7, #20]
    /* Get the current IO position */
    iocurrent = (uint32_t)(GPIO_Init->Pin) & ioposition;
 8000ae2:	683b      	ldr	r3, [r7, #0]
 8000ae4:	681b      	ldr	r3, [r3, #0]
 8000ae6:	697a      	ldr	r2, [r7, #20]
 8000ae8:	4013      	ands	r3, r2
 8000aea:	613b      	str	r3, [r7, #16]

    if(iocurrent == ioposition)
 8000aec:	693a      	ldr	r2, [r7, #16]
 8000aee:	697b      	ldr	r3, [r7, #20]
 8000af0:	429a      	cmp	r2, r3
 8000af2:	f040 815a 	bne.w	8000daa <HAL_GPIO_Init+0x2ee>
    {
      /*--------------------- GPIO Mode Configuration ------------------------*/
      /* In case of Output or Alternate function mode selection */
      if((GPIO_Init->Mode == GPIO_MODE_OUTPUT_PP) || (GPIO_Init->Mode == GPIO_MODE_AF_PP) ||
 8000af6:	683b      	ldr	r3, [r7, #0]
 8000af8:	685b      	ldr	r3, [r3, #4]
 8000afa:	2b01      	cmp	r3, #1
 8000afc:	d00b      	beq.n	8000b16 <HAL_GPIO_Init+0x5a>
 8000afe:	683b      	ldr	r3, [r7, #0]
 8000b00:	685b      	ldr	r3, [r3, #4]
 8000b02:	2b02      	cmp	r3, #2
 8000b04:	d007      	beq.n	8000b16 <HAL_GPIO_Init+0x5a>
         (GPIO_Init->Mode == GPIO_MODE_OUTPUT_OD) || (GPIO_Init->Mode == GPIO_MODE_AF_OD))
 8000b06:	683b      	ldr	r3, [r7, #0]
 8000b08:	685b      	ldr	r3, [r3, #4]
      if((GPIO_Init->Mode == GPIO_MODE_OUTPUT_PP) || (GPIO_Init->Mode == GPIO_MODE_AF_PP) ||
 8000b0a:	2b11      	cmp	r3, #17
 8000b0c:	d003      	beq.n	8000b16 <HAL_GPIO_Init+0x5a>
         (GPIO_Init->Mode == GPIO_MODE_OUTPUT_OD) || (GPIO_Init->Mode == GPIO_MODE_AF_OD))
 8000b0e:	683b      	ldr	r3, [r7, #0]
 8000b10:	685b      	ldr	r3, [r3, #4]
 8000b12:	2b12      	cmp	r3, #18
 8000b14:	d130      	bne.n	8000b78 <HAL_GPIO_Init+0xbc>
      {
        /* Check the Speed parameter */
        assert_param(IS_GPIO_SPEED(GPIO_Init->Speed));
        /* Configure the IO Speed */
        temp = GPIOx->OSPEEDR; 
 8000b16:	687b      	ldr	r3, [r7, #4]
 8000b18:	689b      	ldr	r3, [r3, #8]
 8000b1a:	61bb      	str	r3, [r7, #24]
        temp &= ~(GPIO_OSPEEDER_OSPEEDR0 << (position * 2U));
 8000b1c:	69fb      	ldr	r3, [r7, #28]
 8000b1e:	005b      	lsls	r3, r3, #1
 8000b20:	2203      	movs	r2, #3
 8000b22:	fa02 f303 	lsl.w	r3, r2, r3
 8000b26:	43db      	mvns	r3, r3
 8000b28:	69ba      	ldr	r2, [r7, #24]
 8000b2a:	4013      	ands	r3, r2
 8000b2c:	61bb      	str	r3, [r7, #24]
        temp |= (GPIO_Init->Speed << (position * 2U));
 8000b2e:	683b      	ldr	r3, [r7, #0]
 8000b30:	68da      	ldr	r2, [r3, #12]
 8000b32:	69fb      	ldr	r3, [r7, #28]
 8000b34:	005b      	lsls	r3, r3, #1
 8000b36:	fa02 f303 	lsl.w	r3, r2, r3
 8000b3a:	69ba      	ldr	r2, [r7, #24]
 8000b3c:	4313      	orrs	r3, r2
 8000b3e:	61bb      	str	r3, [r7, #24]
        GPIOx->OSPEEDR = temp;
 8000b40:	687b      	ldr	r3, [r7, #4]
 8000b42:	69ba      	ldr	r2, [r7, #24]
 8000b44:	609a      	str	r2, [r3, #8]

        /* Configure the IO Output Type */
        temp = GPIOx->OTYPER;
 8000b46:	687b      	ldr	r3, [r7, #4]
 8000b48:	685b      	ldr	r3, [r3, #4]
 8000b4a:	61bb      	str	r3, [r7, #24]
        temp &= ~(GPIO_OTYPER_OT_0 << position) ;
 8000b4c:	2201      	movs	r2, #1
 8000b4e:	69fb      	ldr	r3, [r7, #28]
 8000b50:	fa02 f303 	lsl.w	r3, r2, r3
 8000b54:	43db      	mvns	r3, r3
 8000b56:	69ba      	ldr	r2, [r7, #24]
 8000b58:	4013      	ands	r3, r2
 8000b5a:	61bb      	str	r3, [r7, #24]
        temp |= (((GPIO_Init->Mode & GPIO_OUTPUT_TYPE) >> 4U) << position);
 8000b5c:	683b      	ldr	r3, [r7, #0]
 8000b5e:	685b      	ldr	r3, [r3, #4]
 8000b60:	091b      	lsrs	r3, r3, #4
 8000b62:	f003 0201 	and.w	r2, r3, #1
 8000b66:	69fb      	ldr	r3, [r7, #28]
 8000b68:	fa02 f303 	lsl.w	r3, r2, r3
 8000b6c:	69ba      	ldr	r2, [r7, #24]
 8000b6e:	4313      	orrs	r3, r2
 8000b70:	61bb      	str	r3, [r7, #24]
        GPIOx->OTYPER = temp;
 8000b72:	687b      	ldr	r3, [r7, #4]
 8000b74:	69ba      	ldr	r2, [r7, #24]
 8000b76:	605a      	str	r2, [r3, #4]
       }

      /* Activate the Pull-up or Pull down resistor for the current IO */
      temp = GPIOx->PUPDR;
 8000b78:	687b      	ldr	r3, [r7, #4]
 8000b7a:	68db      	ldr	r3, [r3, #12]
 8000b7c:	61bb      	str	r3, [r7, #24]
      temp &= ~(GPIO_PUPDR_PUPDR0 << (position * 2U));
 8000b7e:	69fb      	ldr	r3, [r7, #28]
 8000b80:	005b      	lsls	r3, r3, #1
 8000b82:	2203      	movs	r2, #3
 8000b84:	fa02 f303 	lsl.w	r3, r2, r3
 8000b88:	43db      	mvns	r3, r3
 8000b8a:	69ba      	ldr	r2, [r7, #24]
 8000b8c:	4013      	ands	r3, r2
 8000b8e:	61bb      	str	r3, [r7, #24]
      temp |= ((GPIO_Init->Pull) << (position * 2U));
 8000b90:	683b      	ldr	r3, [r7, #0]
 8000b92:	689a      	ldr	r2, [r3, #8]
 8000b94:	69fb      	ldr	r3, [r7, #28]
 8000b96:	005b      	lsls	r3, r3, #1
 8000b98:	fa02 f303 	lsl.w	r3, r2, r3
 8000b9c:	69ba      	ldr	r2, [r7, #24]
 8000b9e:	4313      	orrs	r3, r2
 8000ba0:	61bb      	str	r3, [r7, #24]
      GPIOx->PUPDR = temp;
 8000ba2:	687b      	ldr	r3, [r7, #4]
 8000ba4:	69ba      	ldr	r2, [r7, #24]
 8000ba6:	60da      	str	r2, [r3, #12]

      /* In case of Alternate function mode selection */
      if((GPIO_Init->Mode == GPIO_MODE_AF_PP) || (GPIO_Init->Mode == GPIO_MODE_AF_OD))
 8000ba8:	683b      	ldr	r3, [r7, #0]
 8000baa:	685b      	ldr	r3, [r3, #4]
 8000bac:	2b02      	cmp	r3, #2
 8000bae:	d003      	beq.n	8000bb8 <HAL_GPIO_Init+0xfc>
 8000bb0:	683b      	ldr	r3, [r7, #0]
 8000bb2:	685b      	ldr	r3, [r3, #4]
 8000bb4:	2b12      	cmp	r3, #18
 8000bb6:	d123      	bne.n	8000c00 <HAL_GPIO_Init+0x144>
      {
        /* Check the Alternate function parameter */
        assert_param(IS_GPIO_AF(GPIO_Init->Alternate));
        /* Configure Alternate function mapped with the current IO */
        temp = GPIOx->AFR[position >> 3U];
 8000bb8:	69fb      	ldr	r3, [r7, #28]
 8000bba:	08da      	lsrs	r2, r3, #3
 8000bbc:	687b      	ldr	r3, [r7, #4]
 8000bbe:	3208      	adds	r2, #8
 8000bc0:	f853 3022 	ldr.w	r3, [r3, r2, lsl #2]
 8000bc4:	61bb      	str	r3, [r7, #24]
        temp &= ~(0xFU << ((uint32_t)(position & 0x07U) * 4U)) ;
 8000bc6:	69fb      	ldr	r3, [r7, #28]
 8000bc8:	f003 0307 	and.w	r3, r3, #7
 8000bcc:	009b      	lsls	r3, r3, #2
 8000bce:	220f      	movs	r2, #15
 8000bd0:	fa02 f303 	lsl.w	r3, r2, r3
 8000bd4:	43db      	mvns	r3, r3
 8000bd6:	69ba      	ldr	r2, [r7, #24]
 8000bd8:	4013      	ands	r3, r2
 8000bda:	61bb      	str	r3, [r7, #24]
        temp |= ((uint32_t)(GPIO_Init->Alternate) << (((uint32_t)position & 0x07U) * 4U));
 8000bdc:	683b      	ldr	r3, [r7, #0]
 8000bde:	691a      	ldr	r2, [r3, #16]
 8000be0:	69fb      	ldr	r3, [r7, #28]
 8000be2:	f003 0307 	and.w	r3, r3, #7
 8000be6:	009b      	lsls	r3, r3, #2
 8000be8:	fa02 f303 	lsl.w	r3, r2, r3
 8000bec:	69ba      	ldr	r2, [r7, #24]
 8000bee:	4313      	orrs	r3, r2
 8000bf0:	61bb      	str	r3, [r7, #24]
        GPIOx->AFR[position >> 3U] = temp;
 8000bf2:	69fb      	ldr	r3, [r7, #28]
 8000bf4:	08da      	lsrs	r2, r3, #3
 8000bf6:	687b      	ldr	r3, [r7, #4]
 8000bf8:	3208      	adds	r2, #8
 8000bfa:	69b9      	ldr	r1, [r7, #24]
 8000bfc:	f843 1022 	str.w	r1, [r3, r2, lsl #2]
      }

      /* Configure IO Direction mode (Input, Output, Alternate or Analog) */
      temp = GPIOx->MODER;
 8000c00:	687b      	ldr	r3, [r7, #4]
 8000c02:	681b      	ldr	r3, [r3, #0]
 8000c04:	61bb      	str	r3, [r7, #24]
      temp &= ~(GPIO_MODER_MODER0 << (position * 2U));
 8000c06:	69fb      	ldr	r3, [r7, #28]
 8000c08:	005b      	lsls	r3, r3, #1
 8000c0a:	2203      	movs	r2, #3
 8000c0c:	fa02 f303 	lsl.w	r3, r2, r3
 8000c10:	43db      	mvns	r3, r3
 8000c12:	69ba      	ldr	r2, [r7, #24]
 8000c14:	4013      	ands	r3, r2
 8000c16:	61bb      	str	r3, [r7, #24]
      temp |= ((GPIO_Init->Mode & GPIO_MODE) << (position * 2U));
 8000c18:	683b      	ldr	r3, [r7, #0]
 8000c1a:	685b      	ldr	r3, [r3, #4]
 8000c1c:	f003 0203 	and.w	r2, r3, #3
 8000c20:	69fb      	ldr	r3, [r7, #28]
 8000c22:	005b      	lsls	r3, r3, #1
 8000c24:	fa02 f303 	lsl.w	r3, r2, r3
 8000c28:	69ba      	ldr	r2, [r7, #24]
 8000c2a:	4313      	orrs	r3, r2
 8000c2c:	61bb      	str	r3, [r7, #24]
      GPIOx->MODER = temp;
 8000c2e:	687b      	ldr	r3, [r7, #4]
 8000c30:	69ba      	ldr	r2, [r7, #24]
 8000c32:	601a      	str	r2, [r3, #0]

      /*--------------------- EXTI Mode Configuration ------------------------*/
      /* Configure the External Interrupt or event for the current IO */
      if((GPIO_Init->Mode & EXTI_MODE) == EXTI_MODE)
 8000c34:	683b      	ldr	r3, [r7, #0]
 8000c36:	685b      	ldr	r3, [r3, #4]
 8000c38:	f003 5380 	and.w	r3, r3, #268435456	; 0x10000000
 8000c3c:	2b00      	cmp	r3, #0
 8000c3e:	f000 80b4 	beq.w	8000daa <HAL_GPIO_Init+0x2ee>
      {
        /* Enable SYSCFG Clock */
        __HAL_RCC_SYSCFG_CLK_ENABLE();
 8000c42:	2300      	movs	r3, #0
 8000c44:	60fb      	str	r3, [r7, #12]
 8000c46:	4b5f      	ldr	r3, [pc, #380]	; (8000dc4 <HAL_GPIO_Init+0x308>)
 8000c48:	6c5b      	ldr	r3, [r3, #68]	; 0x44
 8000c4a:	4a5e      	ldr	r2, [pc, #376]	; (8000dc4 <HAL_GPIO_Init+0x308>)
 8000c4c:	f443 4380 	orr.w	r3, r3, #16384	; 0x4000
 8000c50:	6453      	str	r3, [r2, #68]	; 0x44
 8000c52:	4b5c      	ldr	r3, [pc, #368]	; (8000dc4 <HAL_GPIO_Init+0x308>)
 8000c54:	6c5b      	ldr	r3, [r3, #68]	; 0x44
 8000c56:	f403 4380 	and.w	r3, r3, #16384	; 0x4000
 8000c5a:	60fb      	str	r3, [r7, #12]
 8000c5c:	68fb      	ldr	r3, [r7, #12]

        temp = SYSCFG->EXTICR[position >> 2U];
 8000c5e:	4a5a      	ldr	r2, [pc, #360]	; (8000dc8 <HAL_GPIO_Init+0x30c>)
 8000c60:	69fb      	ldr	r3, [r7, #28]
 8000c62:	089b      	lsrs	r3, r3, #2
 8000c64:	3302      	adds	r3, #2
 8000c66:	f852 3023 	ldr.w	r3, [r2, r3, lsl #2]
 8000c6a:	61bb      	str	r3, [r7, #24]
        temp &= ~(0x0FU << (4U * (position & 0x03U)));
 8000c6c:	69fb      	ldr	r3, [r7, #28]
 8000c6e:	f003 0303 	and.w	r3, r3, #3
 8000c72:	009b      	lsls	r3, r3, #2
 8000c74:	220f      	movs	r2, #15
 8000c76:	fa02 f303 	lsl.w	r3, r2, r3
 8000c7a:	43db      	mvns	r3, r3
 8000c7c:	69ba      	ldr	r2, [r7, #24]
 8000c7e:	4013      	ands	r3, r2
 8000c80:	61bb      	str	r3, [r7, #24]
        temp |= ((uint32_t)(GPIO_GET_INDEX(GPIOx)) << (4U * (position & 0x03U)));
 8000c82:	687b      	ldr	r3, [r7, #4]
 8000c84:	4a51      	ldr	r2, [pc, #324]	; (8000dcc <HAL_GPIO_Init+0x310>)
 8000c86:	4293      	cmp	r3, r2
 8000c88:	d02b      	beq.n	8000ce2 <HAL_GPIO_Init+0x226>
 8000c8a:	687b      	ldr	r3, [r7, #4]
 8000c8c:	4a50      	ldr	r2, [pc, #320]	; (8000dd0 <HAL_GPIO_Init+0x314>)
 8000c8e:	4293      	cmp	r3, r2
 8000c90:	d025      	beq.n	8000cde <HAL_GPIO_Init+0x222>
 8000c92:	687b      	ldr	r3, [r7, #4]
 8000c94:	4a4f      	ldr	r2, [pc, #316]	; (8000dd4 <HAL_GPIO_Init+0x318>)
 8000c96:	4293      	cmp	r3, r2
 8000c98:	d01f      	beq.n	8000cda <HAL_GPIO_Init+0x21e>
 8000c9a:	687b      	ldr	r3, [r7, #4]
 8000c9c:	4a4e      	ldr	r2, [pc, #312]	; (8000dd8 <HAL_GPIO_Init+0x31c>)
 8000c9e:	4293      	cmp	r3, r2
 8000ca0:	d019      	beq.n	8000cd6 <HAL_GPIO_Init+0x21a>
 8000ca2:	687b      	ldr	r3, [r7, #4]
 8000ca4:	4a4d      	ldr	r2, [pc, #308]	; (8000ddc <HAL_GPIO_Init+0x320>)
 8000ca6:	4293      	cmp	r3, r2
 8000ca8:	d013      	beq.n	8000cd2 <HAL_GPIO_Init+0x216>
 8000caa:	687b      	ldr	r3, [r7, #4]
 8000cac:	4a4c      	ldr	r2, [pc, #304]	; (8000de0 <HAL_GPIO_Init+0x324>)
 8000cae:	4293      	cmp	r3, r2
 8000cb0:	d00d      	beq.n	8000cce <HAL_GPIO_Init+0x212>
 8000cb2:	687b      	ldr	r3, [r7, #4]
 8000cb4:	4a4b      	ldr	r2, [pc, #300]	; (8000de4 <HAL_GPIO_Init+0x328>)
 8000cb6:	4293      	cmp	r3, r2
 8000cb8:	d007      	beq.n	8000cca <HAL_GPIO_Init+0x20e>
 8000cba:	687b      	ldr	r3, [r7, #4]
 8000cbc:	4a4a      	ldr	r2, [pc, #296]	; (8000de8 <HAL_GPIO_Init+0x32c>)
 8000cbe:	4293      	cmp	r3, r2
 8000cc0:	d101      	bne.n	8000cc6 <HAL_GPIO_Init+0x20a>
 8000cc2:	2307      	movs	r3, #7
 8000cc4:	e00e      	b.n	8000ce4 <HAL_GPIO_Init+0x228>
 8000cc6:	2308      	movs	r3, #8
 8000cc8:	e00c      	b.n	8000ce4 <HAL_GPIO_Init+0x228>
 8000cca:	2306      	movs	r3, #6
 8000ccc:	e00a      	b.n	8000ce4 <HAL_GPIO_Init+0x228>
 8000cce:	2305      	movs	r3, #5
 8000cd0:	e008      	b.n	8000ce4 <HAL_GPIO_Init+0x228>
 8000cd2:	2304      	movs	r3, #4
 8000cd4:	e006      	b.n	8000ce4 <HAL_GPIO_Init+0x228>
 8000cd6:	2303      	movs	r3, #3
 8000cd8:	e004      	b.n	8000ce4 <HAL_GPIO_Init+0x228>
 8000cda:	2302      	movs	r3, #2
 8000cdc:	e002      	b.n	8000ce4 <HAL_GPIO_Init+0x228>
 8000cde:	2301      	movs	r3, #1
 8000ce0:	e000      	b.n	8000ce4 <HAL_GPIO_Init+0x228>
 8000ce2:	2300      	movs	r3, #0
 8000ce4:	69fa      	ldr	r2, [r7, #28]
 8000ce6:	f002 0203 	and.w	r2, r2, #3
 8000cea:	0092      	lsls	r2, r2, #2
 8000cec:	4093      	lsls	r3, r2
 8000cee:	69ba      	ldr	r2, [r7, #24]
 8000cf0:	4313      	orrs	r3, r2
 8000cf2:	61bb      	str	r3, [r7, #24]
        SYSCFG->EXTICR[position >> 2U] = temp;
 8000cf4:	4934      	ldr	r1, [pc, #208]	; (8000dc8 <HAL_GPIO_Init+0x30c>)
 8000cf6:	69fb      	ldr	r3, [r7, #28]
 8000cf8:	089b      	lsrs	r3, r3, #2
 8000cfa:	3302      	adds	r3, #2
 8000cfc:	69ba      	ldr	r2, [r7, #24]
 8000cfe:	f841 2023 	str.w	r2, [r1, r3, lsl #2]

        /* Clear EXTI line configuration */
        temp = EXTI->IMR;
 8000d02:	4b3a      	ldr	r3, [pc, #232]	; (8000dec <HAL_GPIO_Init+0x330>)
 8000d04:	681b      	ldr	r3, [r3, #0]
 8000d06:	61bb      	str	r3, [r7, #24]
        temp &= ~((uint32_t)iocurrent);
 8000d08:	693b      	ldr	r3, [r7, #16]
 8000d0a:	43db      	mvns	r3, r3
 8000d0c:	69ba      	ldr	r2, [r7, #24]
 8000d0e:	4013      	ands	r3, r2
 8000d10:	61bb      	str	r3, [r7, #24]
        if((GPIO_Init->Mode & GPIO_MODE_IT) == GPIO_MODE_IT)
 8000d12:	683b      	ldr	r3, [r7, #0]
 8000d14:	685b      	ldr	r3, [r3, #4]
 8000d16:	f403 3380 	and.w	r3, r3, #65536	; 0x10000
 8000d1a:	2b00      	cmp	r3, #0
 8000d1c:	d003      	beq.n	8000d26 <HAL_GPIO_Init+0x26a>
        {
          temp |= iocurrent;
 8000d1e:	69ba      	ldr	r2, [r7, #24]
 8000d20:	693b      	ldr	r3, [r7, #16]
 8000d22:	4313      	orrs	r3, r2
 8000d24:	61bb      	str	r3, [r7, #24]
        }
        EXTI->IMR = temp;
 8000d26:	4a31      	ldr	r2, [pc, #196]	; (8000dec <HAL_GPIO_Init+0x330>)
 8000d28:	69bb      	ldr	r3, [r7, #24]
 8000d2a:	6013      	str	r3, [r2, #0]

        temp = EXTI->EMR;
 8000d2c:	4b2f      	ldr	r3, [pc, #188]	; (8000dec <HAL_GPIO_Init+0x330>)
 8000d2e:	685b      	ldr	r3, [r3, #4]
 8000d30:	61bb      	str	r3, [r7, #24]
        temp &= ~((uint32_t)iocurrent);
 8000d32:	693b      	ldr	r3, [r7, #16]
 8000d34:	43db      	mvns	r3, r3
 8000d36:	69ba      	ldr	r2, [r7, #24]
 8000d38:	4013      	ands	r3, r2
 8000d3a:	61bb      	str	r3, [r7, #24]
        if((GPIO_Init->Mode & GPIO_MODE_EVT) == GPIO_MODE_EVT)
 8000d3c:	683b      	ldr	r3, [r7, #0]
 8000d3e:	685b      	ldr	r3, [r3, #4]
 8000d40:	f403 3300 	and.w	r3, r3, #131072	; 0x20000
 8000d44:	2b00      	cmp	r3, #0
 8000d46:	d003      	beq.n	8000d50 <HAL_GPIO_Init+0x294>
        {
          temp |= iocurrent;
 8000d48:	69ba      	ldr	r2, [r7, #24]
 8000d4a:	693b      	ldr	r3, [r7, #16]
 8000d4c:	4313      	orrs	r3, r2
 8000d4e:	61bb      	str	r3, [r7, #24]
        }
        EXTI->EMR = temp;
 8000d50:	4a26      	ldr	r2, [pc, #152]	; (8000dec <HAL_GPIO_Init+0x330>)
 8000d52:	69bb      	ldr	r3, [r7, #24]
 8000d54:	6053      	str	r3, [r2, #4]

        /* Clear Rising Falling edge configuration */
        temp = EXTI->RTSR;
 8000d56:	4b25      	ldr	r3, [pc, #148]	; (8000dec <HAL_GPIO_Init+0x330>)
 8000d58:	689b      	ldr	r3, [r3, #8]
 8000d5a:	61bb      	str	r3, [r7, #24]
        temp &= ~((uint32_t)iocurrent);
 8000d5c:	693b      	ldr	r3, [r7, #16]
 8000d5e:	43db      	mvns	r3, r3
 8000d60:	69ba      	ldr	r2, [r7, #24]
 8000d62:	4013      	ands	r3, r2
 8000d64:	61bb      	str	r3, [r7, #24]
        if((GPIO_Init->Mode & RISING_EDGE) == RISING_EDGE)
 8000d66:	683b      	ldr	r3, [r7, #0]
 8000d68:	685b      	ldr	r3, [r3, #4]
 8000d6a:	f403 1380 	and.w	r3, r3, #1048576	; 0x100000
 8000d6e:	2b00      	cmp	r3, #0
 8000d70:	d003      	beq.n	8000d7a <HAL_GPIO_Init+0x2be>
        {
          temp |= iocurrent;
 8000d72:	69ba      	ldr	r2, [r7, #24]
 8000d74:	693b      	ldr	r3, [r7, #16]
 8000d76:	4313      	orrs	r3, r2
 8000d78:	61bb      	str	r3, [r7, #24]
        }
        EXTI->RTSR = temp;
 8000d7a:	4a1c      	ldr	r2, [pc, #112]	; (8000dec <HAL_GPIO_Init+0x330>)
 8000d7c:	69bb      	ldr	r3, [r7, #24]
 8000d7e:	6093      	str	r3, [r2, #8]

        temp = EXTI->FTSR;
 8000d80:	4b1a      	ldr	r3, [pc, #104]	; (8000dec <HAL_GPIO_Init+0x330>)
 8000d82:	68db      	ldr	r3, [r3, #12]
 8000d84:	61bb      	str	r3, [r7, #24]
        temp &= ~((uint32_t)iocurrent);
 8000d86:	693b      	ldr	r3, [r7, #16]
 8000d88:	43db      	mvns	r3, r3
 8000d8a:	69ba      	ldr	r2, [r7, #24]
 8000d8c:	4013      	ands	r3, r2
 8000d8e:	61bb      	str	r3, [r7, #24]
        if((GPIO_Init->Mode & FALLING_EDGE) == FALLING_EDGE)
 8000d90:	683b      	ldr	r3, [r7, #0]
 8000d92:	685b      	ldr	r3, [r3, #4]
 8000d94:	f403 1300 	and.w	r3, r3, #2097152	; 0x200000
 8000d98:	2b00      	cmp	r3, #0
 8000d9a:	d003      	beq.n	8000da4 <HAL_GPIO_Init+0x2e8>
        {
          temp |= iocurrent;
 8000d9c:	69ba      	ldr	r2, [r7, #24]
 8000d9e:	693b      	ldr	r3, [r7, #16]
 8000da0:	4313      	orrs	r3, r2
 8000da2:	61bb      	str	r3, [r7, #24]
        }
        EXTI->FTSR = temp;
 8000da4:	4a11      	ldr	r2, [pc, #68]	; (8000dec <HAL_GPIO_Init+0x330>)
 8000da6:	69bb      	ldr	r3, [r7, #24]
 8000da8:	60d3      	str	r3, [r2, #12]
  for(position = 0U; position < GPIO_NUMBER; position++)
 8000daa:	69fb      	ldr	r3, [r7, #28]
 8000dac:	3301      	adds	r3, #1
 8000dae:	61fb      	str	r3, [r7, #28]
 8000db0:	69fb      	ldr	r3, [r7, #28]
 8000db2:	2b0f      	cmp	r3, #15
 8000db4:	f67f ae90 	bls.w	8000ad8 <HAL_GPIO_Init+0x1c>
      }
    }
  }
}
 8000db8:	bf00      	nop
 8000dba:	3724      	adds	r7, #36	; 0x24
 8000dbc:	46bd      	mov	sp, r7
 8000dbe:	f85d 7b04 	ldr.w	r7, [sp], #4
 8000dc2:	4770      	bx	lr
 8000dc4:	40023800 	.word	0x40023800
 8000dc8:	40013800 	.word	0x40013800
 8000dcc:	40020000 	.word	0x40020000
 8000dd0:	40020400 	.word	0x40020400
 8000dd4:	40020800 	.word	0x40020800
 8000dd8:	40020c00 	.word	0x40020c00
 8000ddc:	40021000 	.word	0x40021000
 8000de0:	40021400 	.word	0x40021400
 8000de4:	40021800 	.word	0x40021800
 8000de8:	40021c00 	.word	0x40021c00
 8000dec:	40013c00 	.word	0x40013c00

08000df0 <HAL_GPIO_TogglePin>:
  *                      x can be (A..I) to select the GPIO peripheral for STM32F40XX and STM32F427X devices.
  * @param  GPIO_Pin Specifies the pins to be toggled.
  * @retval None
  */
void HAL_GPIO_TogglePin(GPIO_TypeDef* GPIOx, uint16_t GPIO_Pin)
{
 8000df0:	b480      	push	{r7}
 8000df2:	b083      	sub	sp, #12
 8000df4:	af00      	add	r7, sp, #0
 8000df6:	6078      	str	r0, [r7, #4]
 8000df8:	460b      	mov	r3, r1
 8000dfa:	807b      	strh	r3, [r7, #2]
  /* Check the parameters */
  assert_param(IS_GPIO_PIN(GPIO_Pin));

  if ((GPIOx->ODR & GPIO_Pin) == GPIO_Pin)
 8000dfc:	687b      	ldr	r3, [r7, #4]
 8000dfe:	695a      	ldr	r2, [r3, #20]
 8000e00:	887b      	ldrh	r3, [r7, #2]
 8000e02:	401a      	ands	r2, r3
 8000e04:	887b      	ldrh	r3, [r7, #2]
 8000e06:	429a      	cmp	r2, r3
 8000e08:	d104      	bne.n	8000e14 <HAL_GPIO_TogglePin+0x24>
  {
    GPIOx->BSRR = (uint32_t)GPIO_Pin << GPIO_NUMBER;
 8000e0a:	887b      	ldrh	r3, [r7, #2]
 8000e0c:	041a      	lsls	r2, r3, #16
 8000e0e:	687b      	ldr	r3, [r7, #4]
 8000e10:	619a      	str	r2, [r3, #24]
  }
  else
  {
    GPIOx->BSRR = GPIO_Pin;
  }
}
 8000e12:	e002      	b.n	8000e1a <HAL_GPIO_TogglePin+0x2a>
    GPIOx->BSRR = GPIO_Pin;
 8000e14:	887a      	ldrh	r2, [r7, #2]
 8000e16:	687b      	ldr	r3, [r7, #4]
 8000e18:	619a      	str	r2, [r3, #24]
}
 8000e1a:	bf00      	nop
 8000e1c:	370c      	adds	r7, #12
 8000e1e:	46bd      	mov	sp, r7
 8000e20:	f85d 7b04 	ldr.w	r7, [sp], #4
 8000e24:	4770      	bx	lr
	...

08000e28 <HAL_RCC_OscConfig>:
  *         supported by this API. User should request a transition to HSE Off
  *         first and then HSE On or HSE Bypass.
  * @retval HAL status
  */
__weak HAL_StatusTypeDef HAL_RCC_OscConfig(RCC_OscInitTypeDef  *RCC_OscInitStruct)
{
 8000e28:	b580      	push	{r7, lr}
 8000e2a:	b086      	sub	sp, #24
 8000e2c:	af00      	add	r7, sp, #0
 8000e2e:	6078      	str	r0, [r7, #4]
  uint32_t tickstart, pll_config;

  /* Check Null pointer */
  if(RCC_OscInitStruct == NULL)
 8000e30:	687b      	ldr	r3, [r7, #4]
 8000e32:	2b00      	cmp	r3, #0
 8000e34:	d101      	bne.n	8000e3a <HAL_RCC_OscConfig+0x12>
  {
    return HAL_ERROR;
 8000e36:	2301      	movs	r3, #1
 8000e38:	e25b      	b.n	80012f2 <HAL_RCC_OscConfig+0x4ca>
  }

  /* Check the parameters */
  assert_param(IS_RCC_OSCILLATORTYPE(RCC_OscInitStruct->OscillatorType));
  /*------------------------------- HSE Configuration ------------------------*/
  if(((RCC_OscInitStruct->OscillatorType) & RCC_OSCILLATORTYPE_HSE) == RCC_OSCILLATORTYPE_HSE)
 8000e3a:	687b      	ldr	r3, [r7, #4]
 8000e3c:	681b      	ldr	r3, [r3, #0]
 8000e3e:	f003 0301 	and.w	r3, r3, #1
 8000e42:	2b00      	cmp	r3, #0
 8000e44:	d075      	beq.n	8000f32 <HAL_RCC_OscConfig+0x10a>
  {
    /* Check the parameters */
    assert_param(IS_RCC_HSE(RCC_OscInitStruct->HSEState));
    /* When the HSE is used as system clock or clock source for PLL in these cases HSE will not disabled */
    if((__HAL_RCC_GET_SYSCLK_SOURCE() == RCC_CFGR_SWS_HSE) ||\
 8000e46:	4ba3      	ldr	r3, [pc, #652]	; (80010d4 <HAL_RCC_OscConfig+0x2ac>)
 8000e48:	689b      	ldr	r3, [r3, #8]
 8000e4a:	f003 030c 	and.w	r3, r3, #12
 8000e4e:	2b04      	cmp	r3, #4
 8000e50:	d00c      	beq.n	8000e6c <HAL_RCC_OscConfig+0x44>
      ((__HAL_RCC_GET_SYSCLK_SOURCE() == RCC_CFGR_SWS_PLL) && ((RCC->PLLCFGR & RCC_PLLCFGR_PLLSRC) == RCC_PLLCFGR_PLLSRC_HSE)))
 8000e52:	4ba0      	ldr	r3, [pc, #640]	; (80010d4 <HAL_RCC_OscConfig+0x2ac>)
 8000e54:	689b      	ldr	r3, [r3, #8]
 8000e56:	f003 030c 	and.w	r3, r3, #12
    if((__HAL_RCC_GET_SYSCLK_SOURCE() == RCC_CFGR_SWS_HSE) ||\
 8000e5a:	2b08      	cmp	r3, #8
 8000e5c:	d112      	bne.n	8000e84 <HAL_RCC_OscConfig+0x5c>
      ((__HAL_RCC_GET_SYSCLK_SOURCE() == RCC_CFGR_SWS_PLL) && ((RCC->PLLCFGR & RCC_PLLCFGR_PLLSRC) == RCC_PLLCFGR_PLLSRC_HSE)))
 8000e5e:	4b9d      	ldr	r3, [pc, #628]	; (80010d4 <HAL_RCC_OscConfig+0x2ac>)
 8000e60:	685b      	ldr	r3, [r3, #4]
 8000e62:	f403 0380 	and.w	r3, r3, #4194304	; 0x400000
 8000e66:	f5b3 0f80 	cmp.w	r3, #4194304	; 0x400000
 8000e6a:	d10b      	bne.n	8000e84 <HAL_RCC_OscConfig+0x5c>
    {
      if((__HAL_RCC_GET_FLAG(RCC_FLAG_HSERDY) != RESET) && (RCC_OscInitStruct->HSEState == RCC_HSE_OFF))
 8000e6c:	4b99      	ldr	r3, [pc, #612]	; (80010d4 <HAL_RCC_OscConfig+0x2ac>)
 8000e6e:	681b      	ldr	r3, [r3, #0]
 8000e70:	f403 3300 	and.w	r3, r3, #131072	; 0x20000
 8000e74:	2b00      	cmp	r3, #0
 8000e76:	d05b      	beq.n	8000f30 <HAL_RCC_OscConfig+0x108>
 8000e78:	687b      	ldr	r3, [r7, #4]
 8000e7a:	685b      	ldr	r3, [r3, #4]
 8000e7c:	2b00      	cmp	r3, #0
 8000e7e:	d157      	bne.n	8000f30 <HAL_RCC_OscConfig+0x108>
      {
        return HAL_ERROR;
 8000e80:	2301      	movs	r3, #1
 8000e82:	e236      	b.n	80012f2 <HAL_RCC_OscConfig+0x4ca>
      }
    }
    else
    {
      /* Set the new HSE configuration ---------------------------------------*/
      __HAL_RCC_HSE_CONFIG(RCC_OscInitStruct->HSEState);
 8000e84:	687b      	ldr	r3, [r7, #4]
 8000e86:	685b      	ldr	r3, [r3, #4]
 8000e88:	f5b3 3f80 	cmp.w	r3, #65536	; 0x10000
 8000e8c:	d106      	bne.n	8000e9c <HAL_RCC_OscConfig+0x74>
 8000e8e:	4b91      	ldr	r3, [pc, #580]	; (80010d4 <HAL_RCC_OscConfig+0x2ac>)
 8000e90:	681b      	ldr	r3, [r3, #0]
 8000e92:	4a90      	ldr	r2, [pc, #576]	; (80010d4 <HAL_RCC_OscConfig+0x2ac>)
 8000e94:	f443 3380 	orr.w	r3, r3, #65536	; 0x10000
 8000e98:	6013      	str	r3, [r2, #0]
 8000e9a:	e01d      	b.n	8000ed8 <HAL_RCC_OscConfig+0xb0>
 8000e9c:	687b      	ldr	r3, [r7, #4]
 8000e9e:	685b      	ldr	r3, [r3, #4]
 8000ea0:	f5b3 2fa0 	cmp.w	r3, #327680	; 0x50000
 8000ea4:	d10c      	bne.n	8000ec0 <HAL_RCC_OscConfig+0x98>
 8000ea6:	4b8b      	ldr	r3, [pc, #556]	; (80010d4 <HAL_RCC_OscConfig+0x2ac>)
 8000ea8:	681b      	ldr	r3, [r3, #0]
 8000eaa:	4a8a      	ldr	r2, [pc, #552]	; (80010d4 <HAL_RCC_OscConfig+0x2ac>)
 8000eac:	f443 2380 	orr.w	r3, r3, #262144	; 0x40000
 8000eb0:	6013      	str	r3, [r2, #0]
 8000eb2:	4b88      	ldr	r3, [pc, #544]	; (80010d4 <HAL_RCC_OscConfig+0x2ac>)
 8000eb4:	681b      	ldr	r3, [r3, #0]
 8000eb6:	4a87      	ldr	r2, [pc, #540]	; (80010d4 <HAL_RCC_OscConfig+0x2ac>)
 8000eb8:	f443 3380 	orr.w	r3, r3, #65536	; 0x10000
 8000ebc:	6013      	str	r3, [r2, #0]
 8000ebe:	e00b      	b.n	8000ed8 <HAL_RCC_OscConfig+0xb0>
 8000ec0:	4b84      	ldr	r3, [pc, #528]	; (80010d4 <HAL_RCC_OscConfig+0x2ac>)
 8000ec2:	681b      	ldr	r3, [r3, #0]
 8000ec4:	4a83      	ldr	r2, [pc, #524]	; (80010d4 <HAL_RCC_OscConfig+0x2ac>)
 8000ec6:	f423 3380 	bic.w	r3, r3, #65536	; 0x10000
 8000eca:	6013      	str	r3, [r2, #0]
 8000ecc:	4b81      	ldr	r3, [pc, #516]	; (80010d4 <HAL_RCC_OscConfig+0x2ac>)
 8000ece:	681b      	ldr	r3, [r3, #0]
 8000ed0:	4a80      	ldr	r2, [pc, #512]	; (80010d4 <HAL_RCC_OscConfig+0x2ac>)
 8000ed2:	f423 2380 	bic.w	r3, r3, #262144	; 0x40000
 8000ed6:	6013      	str	r3, [r2, #0]

      /* Check the HSE State */
      if((RCC_OscInitStruct->HSEState) != RCC_HSE_OFF)
 8000ed8:	687b      	ldr	r3, [r7, #4]
 8000eda:	685b      	ldr	r3, [r3, #4]
 8000edc:	2b00      	cmp	r3, #0
 8000ede:	d013      	beq.n	8000f08 <HAL_RCC_OscConfig+0xe0>
      {
        /* Get Start Tick */
        tickstart = HAL_GetTick();
 8000ee0:	f7ff fca4 	bl	800082c <HAL_GetTick>
 8000ee4:	6138      	str	r0, [r7, #16]

        /* Wait till HSE is ready */
        while(__HAL_RCC_GET_FLAG(RCC_FLAG_HSERDY) == RESET)
 8000ee6:	e008      	b.n	8000efa <HAL_RCC_OscConfig+0xd2>
        {
          if((HAL_GetTick() - tickstart ) > HSE_TIMEOUT_VALUE)
 8000ee8:	f7ff fca0 	bl	800082c <HAL_GetTick>
 8000eec:	4602      	mov	r2, r0
 8000eee:	693b      	ldr	r3, [r7, #16]
 8000ef0:	1ad3      	subs	r3, r2, r3
 8000ef2:	2b64      	cmp	r3, #100	; 0x64
 8000ef4:	d901      	bls.n	8000efa <HAL_RCC_OscConfig+0xd2>
          {
            return HAL_TIMEOUT;
 8000ef6:	2303      	movs	r3, #3
 8000ef8:	e1fb      	b.n	80012f2 <HAL_RCC_OscConfig+0x4ca>
        while(__HAL_RCC_GET_FLAG(RCC_FLAG_HSERDY) == RESET)
 8000efa:	4b76      	ldr	r3, [pc, #472]	; (80010d4 <HAL_RCC_OscConfig+0x2ac>)
 8000efc:	681b      	ldr	r3, [r3, #0]
 8000efe:	f403 3300 	and.w	r3, r3, #131072	; 0x20000
 8000f02:	2b00      	cmp	r3, #0
 8000f04:	d0f0      	beq.n	8000ee8 <HAL_RCC_OscConfig+0xc0>
 8000f06:	e014      	b.n	8000f32 <HAL_RCC_OscConfig+0x10a>
        }
      }
      else
      {
        /* Get Start Tick */
        tickstart = HAL_GetTick();
 8000f08:	f7ff fc90 	bl	800082c <HAL_GetTick>
 8000f0c:	6138      	str	r0, [r7, #16]

        /* Wait till HSE is bypassed or disabled */
        while(__HAL_RCC_GET_FLAG(RCC_FLAG_HSERDY) != RESET)
 8000f0e:	e008      	b.n	8000f22 <HAL_RCC_OscConfig+0xfa>
        {
          if((HAL_GetTick() - tickstart ) > HSE_TIMEOUT_VALUE)
 8000f10:	f7ff fc8c 	bl	800082c <HAL_GetTick>
 8000f14:	4602      	mov	r2, r0
 8000f16:	693b      	ldr	r3, [r7, #16]
 8000f18:	1ad3      	subs	r3, r2, r3
 8000f1a:	2b64      	cmp	r3, #100	; 0x64
 8000f1c:	d901      	bls.n	8000f22 <HAL_RCC_OscConfig+0xfa>
          {
            return HAL_TIMEOUT;
 8000f1e:	2303      	movs	r3, #3
 8000f20:	e1e7      	b.n	80012f2 <HAL_RCC_OscConfig+0x4ca>
        while(__HAL_RCC_GET_FLAG(RCC_FLAG_HSERDY) != RESET)
 8000f22:	4b6c      	ldr	r3, [pc, #432]	; (80010d4 <HAL_RCC_OscConfig+0x2ac>)
 8000f24:	681b      	ldr	r3, [r3, #0]
 8000f26:	f403 3300 	and.w	r3, r3, #131072	; 0x20000
 8000f2a:	2b00      	cmp	r3, #0
 8000f2c:	d1f0      	bne.n	8000f10 <HAL_RCC_OscConfig+0xe8>
 8000f2e:	e000      	b.n	8000f32 <HAL_RCC_OscConfig+0x10a>
      if((__HAL_RCC_GET_FLAG(RCC_FLAG_HSERDY) != RESET) && (RCC_OscInitStruct->HSEState == RCC_HSE_OFF))
 8000f30:	bf00      	nop
        }
      }
    }
  }
  /*----------------------------- HSI Configuration --------------------------*/
  if(((RCC_OscInitStruct->OscillatorType) & RCC_OSCILLATORTYPE_HSI) == RCC_OSCILLATORTYPE_HSI)
 8000f32:	687b      	ldr	r3, [r7, #4]
 8000f34:	681b      	ldr	r3, [r3, #0]
 8000f36:	f003 0302 	and.w	r3, r3, #2
 8000f3a:	2b00      	cmp	r3, #0
 8000f3c:	d063      	beq.n	8001006 <HAL_RCC_OscConfig+0x1de>
    /* Check the parameters */
    assert_param(IS_RCC_HSI(RCC_OscInitStruct->HSIState));
    assert_param(IS_RCC_CALIBRATION_VALUE(RCC_OscInitStruct->HSICalibrationValue));

    /* Check if HSI is used as system clock or as PLL source when PLL is selected as system clock */
    if((__HAL_RCC_GET_SYSCLK_SOURCE() == RCC_CFGR_SWS_HSI) ||\
 8000f3e:	4b65      	ldr	r3, [pc, #404]	; (80010d4 <HAL_RCC_OscConfig+0x2ac>)
 8000f40:	689b      	ldr	r3, [r3, #8]
 8000f42:	f003 030c 	and.w	r3, r3, #12
 8000f46:	2b00      	cmp	r3, #0
 8000f48:	d00b      	beq.n	8000f62 <HAL_RCC_OscConfig+0x13a>
      ((__HAL_RCC_GET_SYSCLK_SOURCE() == RCC_CFGR_SWS_PLL) && ((RCC->PLLCFGR & RCC_PLLCFGR_PLLSRC) == RCC_PLLCFGR_PLLSRC_HSI)))
 8000f4a:	4b62      	ldr	r3, [pc, #392]	; (80010d4 <HAL_RCC_OscConfig+0x2ac>)
 8000f4c:	689b      	ldr	r3, [r3, #8]
 8000f4e:	f003 030c 	and.w	r3, r3, #12
    if((__HAL_RCC_GET_SYSCLK_SOURCE() == RCC_CFGR_SWS_HSI) ||\
 8000f52:	2b08      	cmp	r3, #8
 8000f54:	d11c      	bne.n	8000f90 <HAL_RCC_OscConfig+0x168>
      ((__HAL_RCC_GET_SYSCLK_SOURCE() == RCC_CFGR_SWS_PLL) && ((RCC->PLLCFGR & RCC_PLLCFGR_PLLSRC) == RCC_PLLCFGR_PLLSRC_HSI)))
 8000f56:	4b5f      	ldr	r3, [pc, #380]	; (80010d4 <HAL_RCC_OscConfig+0x2ac>)
 8000f58:	685b      	ldr	r3, [r3, #4]
 8000f5a:	f403 0380 	and.w	r3, r3, #4194304	; 0x400000
 8000f5e:	2b00      	cmp	r3, #0
 8000f60:	d116      	bne.n	8000f90 <HAL_RCC_OscConfig+0x168>
    {
      /* When HSI is used as system clock it will not disabled */
      if((__HAL_RCC_GET_FLAG(RCC_FLAG_HSIRDY) != RESET) && (RCC_OscInitStruct->HSIState != RCC_HSI_ON))
 8000f62:	4b5c      	ldr	r3, [pc, #368]	; (80010d4 <HAL_RCC_OscConfig+0x2ac>)
 8000f64:	681b      	ldr	r3, [r3, #0]
 8000f66:	f003 0302 	and.w	r3, r3, #2
 8000f6a:	2b00      	cmp	r3, #0
 8000f6c:	d005      	beq.n	8000f7a <HAL_RCC_OscConfig+0x152>
 8000f6e:	687b      	ldr	r3, [r7, #4]
 8000f70:	68db      	ldr	r3, [r3, #12]
 8000f72:	2b01      	cmp	r3, #1
 8000f74:	d001      	beq.n	8000f7a <HAL_RCC_OscConfig+0x152>
      {
        return HAL_ERROR;
 8000f76:	2301      	movs	r3, #1
 8000f78:	e1bb      	b.n	80012f2 <HAL_RCC_OscConfig+0x4ca>
      }
      /* Otherwise, just the calibration is allowed */
      else
      {
        /* Adjusts the Internal High Speed oscillator (HSI) calibration value.*/
        __HAL_RCC_HSI_CALIBRATIONVALUE_ADJUST(RCC_OscInitStruct->HSICalibrationValue);
 8000f7a:	4b56      	ldr	r3, [pc, #344]	; (80010d4 <HAL_RCC_OscConfig+0x2ac>)
 8000f7c:	681b      	ldr	r3, [r3, #0]
 8000f7e:	f023 02f8 	bic.w	r2, r3, #248	; 0xf8
 8000f82:	687b      	ldr	r3, [r7, #4]
 8000f84:	691b      	ldr	r3, [r3, #16]
 8000f86:	00db      	lsls	r3, r3, #3
 8000f88:	4952      	ldr	r1, [pc, #328]	; (80010d4 <HAL_RCC_OscConfig+0x2ac>)
 8000f8a:	4313      	orrs	r3, r2
 8000f8c:	600b      	str	r3, [r1, #0]
      if((__HAL_RCC_GET_FLAG(RCC_FLAG_HSIRDY) != RESET) && (RCC_OscInitStruct->HSIState != RCC_HSI_ON))
 8000f8e:	e03a      	b.n	8001006 <HAL_RCC_OscConfig+0x1de>
      }
    }
    else
    {
      /* Check the HSI State */
      if((RCC_OscInitStruct->HSIState)!= RCC_HSI_OFF)
 8000f90:	687b      	ldr	r3, [r7, #4]
 8000f92:	68db      	ldr	r3, [r3, #12]
 8000f94:	2b00      	cmp	r3, #0
 8000f96:	d020      	beq.n	8000fda <HAL_RCC_OscConfig+0x1b2>
      {
        /* Enable the Internal High Speed oscillator (HSI). */
        __HAL_RCC_HSI_ENABLE();
 8000f98:	4b4f      	ldr	r3, [pc, #316]	; (80010d8 <HAL_RCC_OscConfig+0x2b0>)
 8000f9a:	2201      	movs	r2, #1
 8000f9c:	601a      	str	r2, [r3, #0]

        /* Get Start Tick*/
        tickstart = HAL_GetTick();
 8000f9e:	f7ff fc45 	bl	800082c <HAL_GetTick>
 8000fa2:	6138      	str	r0, [r7, #16]

        /* Wait till HSI is ready */
        while(__HAL_RCC_GET_FLAG(RCC_FLAG_HSIRDY) == RESET)
 8000fa4:	e008      	b.n	8000fb8 <HAL_RCC_OscConfig+0x190>
        {
          if((HAL_GetTick() - tickstart ) > HSI_TIMEOUT_VALUE)
 8000fa6:	f7ff fc41 	bl	800082c <HAL_GetTick>
 8000faa:	4602      	mov	r2, r0
 8000fac:	693b      	ldr	r3, [r7, #16]
 8000fae:	1ad3      	subs	r3, r2, r3
 8000fb0:	2b02      	cmp	r3, #2
 8000fb2:	d901      	bls.n	8000fb8 <HAL_RCC_OscConfig+0x190>
          {
            return HAL_TIMEOUT;
 8000fb4:	2303      	movs	r3, #3
 8000fb6:	e19c      	b.n	80012f2 <HAL_RCC_OscConfig+0x4ca>
        while(__HAL_RCC_GET_FLAG(RCC_FLAG_HSIRDY) == RESET)
 8000fb8:	4b46      	ldr	r3, [pc, #280]	; (80010d4 <HAL_RCC_OscConfig+0x2ac>)
 8000fba:	681b      	ldr	r3, [r3, #0]
 8000fbc:	f003 0302 	and.w	r3, r3, #2
 8000fc0:	2b00      	cmp	r3, #0
 8000fc2:	d0f0      	beq.n	8000fa6 <HAL_RCC_OscConfig+0x17e>
          }
        }

        /* Adjusts the Internal High Speed oscillator (HSI) calibration value. */
        __HAL_RCC_HSI_CALIBRATIONVALUE_ADJUST(RCC_OscInitStruct->HSICalibrationValue);
 8000fc4:	4b43      	ldr	r3, [pc, #268]	; (80010d4 <HAL_RCC_OscConfig+0x2ac>)
 8000fc6:	681b      	ldr	r3, [r3, #0]
 8000fc8:	f023 02f8 	bic.w	r2, r3, #248	; 0xf8
 8000fcc:	687b      	ldr	r3, [r7, #4]
 8000fce:	691b      	ldr	r3, [r3, #16]
 8000fd0:	00db      	lsls	r3, r3, #3
 8000fd2:	4940      	ldr	r1, [pc, #256]	; (80010d4 <HAL_RCC_OscConfig+0x2ac>)
 8000fd4:	4313      	orrs	r3, r2
 8000fd6:	600b      	str	r3, [r1, #0]
 8000fd8:	e015      	b.n	8001006 <HAL_RCC_OscConfig+0x1de>
      }
      else
      {
        /* Disable the Internal High Speed oscillator (HSI). */
        __HAL_RCC_HSI_DISABLE();
 8000fda:	4b3f      	ldr	r3, [pc, #252]	; (80010d8 <HAL_RCC_OscConfig+0x2b0>)
 8000fdc:	2200      	movs	r2, #0
 8000fde:	601a      	str	r2, [r3, #0]

        /* Get Start Tick*/
        tickstart = HAL_GetTick();
 8000fe0:	f7ff fc24 	bl	800082c <HAL_GetTick>
 8000fe4:	6138      	str	r0, [r7, #16]

        /* Wait till HSI is ready */
        while(__HAL_RCC_GET_FLAG(RCC_FLAG_HSIRDY) != RESET)
 8000fe6:	e008      	b.n	8000ffa <HAL_RCC_OscConfig+0x1d2>
        {
          if((HAL_GetTick() - tickstart ) > HSI_TIMEOUT_VALUE)
 8000fe8:	f7ff fc20 	bl	800082c <HAL_GetTick>
 8000fec:	4602      	mov	r2, r0
 8000fee:	693b      	ldr	r3, [r7, #16]
 8000ff0:	1ad3      	subs	r3, r2, r3
 8000ff2:	2b02      	cmp	r3, #2
 8000ff4:	d901      	bls.n	8000ffa <HAL_RCC_OscConfig+0x1d2>
          {
            return HAL_TIMEOUT;
 8000ff6:	2303      	movs	r3, #3
 8000ff8:	e17b      	b.n	80012f2 <HAL_RCC_OscConfig+0x4ca>
        while(__HAL_RCC_GET_FLAG(RCC_FLAG_HSIRDY) != RESET)
 8000ffa:	4b36      	ldr	r3, [pc, #216]	; (80010d4 <HAL_RCC_OscConfig+0x2ac>)
 8000ffc:	681b      	ldr	r3, [r3, #0]
 8000ffe:	f003 0302 	and.w	r3, r3, #2
 8001002:	2b00      	cmp	r3, #0
 8001004:	d1f0      	bne.n	8000fe8 <HAL_RCC_OscConfig+0x1c0>
        }
      }
    }
  }
  /*------------------------------ LSI Configuration -------------------------*/
  if(((RCC_OscInitStruct->OscillatorType) & RCC_OSCILLATORTYPE_LSI) == RCC_OSCILLATORTYPE_LSI)
 8001006:	687b      	ldr	r3, [r7, #4]
 8001008:	681b      	ldr	r3, [r3, #0]
 800100a:	f003 0308 	and.w	r3, r3, #8
 800100e:	2b00      	cmp	r3, #0
 8001010:	d030      	beq.n	8001074 <HAL_RCC_OscConfig+0x24c>
  {
    /* Check the parameters */
    assert_param(IS_RCC_LSI(RCC_OscInitStruct->LSIState));

    /* Check the LSI State */
    if((RCC_OscInitStruct->LSIState)!= RCC_LSI_OFF)
 8001012:	687b      	ldr	r3, [r7, #4]
 8001014:	695b      	ldr	r3, [r3, #20]
 8001016:	2b00      	cmp	r3, #0
 8001018:	d016      	beq.n	8001048 <HAL_RCC_OscConfig+0x220>
    {
      /* Enable the Internal Low Speed oscillator (LSI). */
      __HAL_RCC_LSI_ENABLE();
 800101a:	4b30      	ldr	r3, [pc, #192]	; (80010dc <HAL_RCC_OscConfig+0x2b4>)
 800101c:	2201      	movs	r2, #1
 800101e:	601a      	str	r2, [r3, #0]

      /* Get Start Tick*/
      tickstart = HAL_GetTick();
 8001020:	f7ff fc04 	bl	800082c <HAL_GetTick>
 8001024:	6138      	str	r0, [r7, #16]

      /* Wait till LSI is ready */
      while(__HAL_RCC_GET_FLAG(RCC_FLAG_LSIRDY) == RESET)
 8001026:	e008      	b.n	800103a <HAL_RCC_OscConfig+0x212>
      {
        if((HAL_GetTick() - tickstart ) > LSI_TIMEOUT_VALUE)
 8001028:	f7ff fc00 	bl	800082c <HAL_GetTick>
 800102c:	4602      	mov	r2, r0
 800102e:	693b      	ldr	r3, [r7, #16]
 8001030:	1ad3      	subs	r3, r2, r3
 8001032:	2b02      	cmp	r3, #2
 8001034:	d901      	bls.n	800103a <HAL_RCC_OscConfig+0x212>
        {
          return HAL_TIMEOUT;
 8001036:	2303      	movs	r3, #3
 8001038:	e15b      	b.n	80012f2 <HAL_RCC_OscConfig+0x4ca>
      while(__HAL_RCC_GET_FLAG(RCC_FLAG_LSIRDY) == RESET)
 800103a:	4b26      	ldr	r3, [pc, #152]	; (80010d4 <HAL_RCC_OscConfig+0x2ac>)
 800103c:	6f5b      	ldr	r3, [r3, #116]	; 0x74
 800103e:	f003 0302 	and.w	r3, r3, #2
 8001042:	2b00      	cmp	r3, #0
 8001044:	d0f0      	beq.n	8001028 <HAL_RCC_OscConfig+0x200>
 8001046:	e015      	b.n	8001074 <HAL_RCC_OscConfig+0x24c>
      }
    }
    else
    {
      /* Disable the Internal Low Speed oscillator (LSI). */
      __HAL_RCC_LSI_DISABLE();
 8001048:	4b24      	ldr	r3, [pc, #144]	; (80010dc <HAL_RCC_OscConfig+0x2b4>)
 800104a:	2200      	movs	r2, #0
 800104c:	601a      	str	r2, [r3, #0]

      /* Get Start Tick */
      tickstart = HAL_GetTick();
 800104e:	f7ff fbed 	bl	800082c <HAL_GetTick>
 8001052:	6138      	str	r0, [r7, #16]

      /* Wait till LSI is ready */
      while(__HAL_RCC_GET_FLAG(RCC_FLAG_LSIRDY) != RESET)
 8001054:	e008      	b.n	8001068 <HAL_RCC_OscConfig+0x240>
      {
        if((HAL_GetTick() - tickstart ) > LSI_TIMEOUT_VALUE)
 8001056:	f7ff fbe9 	bl	800082c <HAL_GetTick>
 800105a:	4602      	mov	r2, r0
 800105c:	693b      	ldr	r3, [r7, #16]
 800105e:	1ad3      	subs	r3, r2, r3
 8001060:	2b02      	cmp	r3, #2
 8001062:	d901      	bls.n	8001068 <HAL_RCC_OscConfig+0x240>
        {
          return HAL_TIMEOUT;
 8001064:	2303      	movs	r3, #3
 8001066:	e144      	b.n	80012f2 <HAL_RCC_OscConfig+0x4ca>
      while(__HAL_RCC_GET_FLAG(RCC_FLAG_LSIRDY) != RESET)
 8001068:	4b1a      	ldr	r3, [pc, #104]	; (80010d4 <HAL_RCC_OscConfig+0x2ac>)
 800106a:	6f5b      	ldr	r3, [r3, #116]	; 0x74
 800106c:	f003 0302 	and.w	r3, r3, #2
 8001070:	2b00      	cmp	r3, #0
 8001072:	d1f0      	bne.n	8001056 <HAL_RCC_OscConfig+0x22e>
        }
      }
    }
  }
  /*------------------------------ LSE Configuration -------------------------*/
  if(((RCC_OscInitStruct->OscillatorType) & RCC_OSCILLATORTYPE_LSE) == RCC_OSCILLATORTYPE_LSE)
 8001074:	687b      	ldr	r3, [r7, #4]
 8001076:	681b      	ldr	r3, [r3, #0]
 8001078:	f003 0304 	and.w	r3, r3, #4
 800107c:	2b00      	cmp	r3, #0
 800107e:	f000 80a0 	beq.w	80011c2 <HAL_RCC_OscConfig+0x39a>
  {
    FlagStatus       pwrclkchanged = RESET;
 8001082:	2300      	movs	r3, #0
 8001084:	75fb      	strb	r3, [r7, #23]
    /* Check the parameters */
    assert_param(IS_RCC_LSE(RCC_OscInitStruct->LSEState));

    /* Update LSE configuration in Backup Domain control register    */
    /* Requires to enable write access to Backup Domain of necessary */
    if(__HAL_RCC_PWR_IS_CLK_DISABLED())
 8001086:	4b13      	ldr	r3, [pc, #76]	; (80010d4 <HAL_RCC_OscConfig+0x2ac>)
 8001088:	6c1b      	ldr	r3, [r3, #64]	; 0x40
 800108a:	f003 5380 	and.w	r3, r3, #268435456	; 0x10000000
 800108e:	2b00      	cmp	r3, #0
 8001090:	d10f      	bne.n	80010b2 <HAL_RCC_OscConfig+0x28a>
    {
      __HAL_RCC_PWR_CLK_ENABLE();
 8001092:	2300      	movs	r3, #0
 8001094:	60bb      	str	r3, [r7, #8]
 8001096:	4b0f      	ldr	r3, [pc, #60]	; (80010d4 <HAL_RCC_OscConfig+0x2ac>)
 8001098:	6c1b      	ldr	r3, [r3, #64]	; 0x40
 800109a:	4a0e      	ldr	r2, [pc, #56]	; (80010d4 <HAL_RCC_OscConfig+0x2ac>)
 800109c:	f043 5380 	orr.w	r3, r3, #268435456	; 0x10000000
 80010a0:	6413      	str	r3, [r2, #64]	; 0x40
 80010a2:	4b0c      	ldr	r3, [pc, #48]	; (80010d4 <HAL_RCC_OscConfig+0x2ac>)
 80010a4:	6c1b      	ldr	r3, [r3, #64]	; 0x40
 80010a6:	f003 5380 	and.w	r3, r3, #268435456	; 0x10000000
 80010aa:	60bb      	str	r3, [r7, #8]
 80010ac:	68bb      	ldr	r3, [r7, #8]
      pwrclkchanged = SET;
 80010ae:	2301      	movs	r3, #1
 80010b0:	75fb      	strb	r3, [r7, #23]
    }

    if(HAL_IS_BIT_CLR(PWR->CR, PWR_CR_DBP))
 80010b2:	4b0b      	ldr	r3, [pc, #44]	; (80010e0 <HAL_RCC_OscConfig+0x2b8>)
 80010b4:	681b      	ldr	r3, [r3, #0]
 80010b6:	f403 7380 	and.w	r3, r3, #256	; 0x100
 80010ba:	2b00      	cmp	r3, #0
 80010bc:	d121      	bne.n	8001102 <HAL_RCC_OscConfig+0x2da>
    {
      /* Enable write access to Backup domain */
      SET_BIT(PWR->CR, PWR_CR_DBP);
 80010be:	4b08      	ldr	r3, [pc, #32]	; (80010e0 <HAL_RCC_OscConfig+0x2b8>)
 80010c0:	681b      	ldr	r3, [r3, #0]
 80010c2:	4a07      	ldr	r2, [pc, #28]	; (80010e0 <HAL_RCC_OscConfig+0x2b8>)
 80010c4:	f443 7380 	orr.w	r3, r3, #256	; 0x100
 80010c8:	6013      	str	r3, [r2, #0]

      /* Wait for Backup domain Write protection disable */
      tickstart = HAL_GetTick();
 80010ca:	f7ff fbaf 	bl	800082c <HAL_GetTick>
 80010ce:	6138      	str	r0, [r7, #16]

      while(HAL_IS_BIT_CLR(PWR->CR, PWR_CR_DBP))
 80010d0:	e011      	b.n	80010f6 <HAL_RCC_OscConfig+0x2ce>
 80010d2:	bf00      	nop
 80010d4:	40023800 	.word	0x40023800
 80010d8:	42470000 	.word	0x42470000
 80010dc:	42470e80 	.word	0x42470e80
 80010e0:	40007000 	.word	0x40007000
      {
        if((HAL_GetTick() - tickstart) > RCC_DBP_TIMEOUT_VALUE)
 80010e4:	f7ff fba2 	bl	800082c <HAL_GetTick>
 80010e8:	4602      	mov	r2, r0
 80010ea:	693b      	ldr	r3, [r7, #16]
 80010ec:	1ad3      	subs	r3, r2, r3
 80010ee:	2b02      	cmp	r3, #2
 80010f0:	d901      	bls.n	80010f6 <HAL_RCC_OscConfig+0x2ce>
        {
          return HAL_TIMEOUT;
 80010f2:	2303      	movs	r3, #3
 80010f4:	e0fd      	b.n	80012f2 <HAL_RCC_OscConfig+0x4ca>
      while(HAL_IS_BIT_CLR(PWR->CR, PWR_CR_DBP))
 80010f6:	4b81      	ldr	r3, [pc, #516]	; (80012fc <HAL_RCC_OscConfig+0x4d4>)
 80010f8:	681b      	ldr	r3, [r3, #0]
 80010fa:	f403 7380 	and.w	r3, r3, #256	; 0x100
 80010fe:	2b00      	cmp	r3, #0
 8001100:	d0f0      	beq.n	80010e4 <HAL_RCC_OscConfig+0x2bc>
        }
      }
    }

    /* Set the new LSE configuration -----------------------------------------*/
    __HAL_RCC_LSE_CONFIG(RCC_OscInitStruct->LSEState);
 8001102:	687b      	ldr	r3, [r7, #4]
 8001104:	689b      	ldr	r3, [r3, #8]
 8001106:	2b01      	cmp	r3, #1
 8001108:	d106      	bne.n	8001118 <HAL_RCC_OscConfig+0x2f0>
 800110a:	4b7d      	ldr	r3, [pc, #500]	; (8001300 <HAL_RCC_OscConfig+0x4d8>)
 800110c:	6f1b      	ldr	r3, [r3, #112]	; 0x70
 800110e:	4a7c      	ldr	r2, [pc, #496]	; (8001300 <HAL_RCC_OscConfig+0x4d8>)
 8001110:	f043 0301 	orr.w	r3, r3, #1
 8001114:	6713      	str	r3, [r2, #112]	; 0x70
 8001116:	e01c      	b.n	8001152 <HAL_RCC_OscConfig+0x32a>
 8001118:	687b      	ldr	r3, [r7, #4]
 800111a:	689b      	ldr	r3, [r3, #8]
 800111c:	2b05      	cmp	r3, #5
 800111e:	d10c      	bne.n	800113a <HAL_RCC_OscConfig+0x312>
 8001120:	4b77      	ldr	r3, [pc, #476]	; (8001300 <HAL_RCC_OscConfig+0x4d8>)
 8001122:	6f1b      	ldr	r3, [r3, #112]	; 0x70
 8001124:	4a76      	ldr	r2, [pc, #472]	; (8001300 <HAL_RCC_OscConfig+0x4d8>)
 8001126:	f043 0304 	orr.w	r3, r3, #4
 800112a:	6713      	str	r3, [r2, #112]	; 0x70
 800112c:	4b74      	ldr	r3, [pc, #464]	; (8001300 <HAL_RCC_OscConfig+0x4d8>)
 800112e:	6f1b      	ldr	r3, [r3, #112]	; 0x70
 8001130:	4a73      	ldr	r2, [pc, #460]	; (8001300 <HAL_RCC_OscConfig+0x4d8>)
 8001132:	f043 0301 	orr.w	r3, r3, #1
 8001136:	6713      	str	r3, [r2, #112]	; 0x70
 8001138:	e00b      	b.n	8001152 <HAL_RCC_OscConfig+0x32a>
 800113a:	4b71      	ldr	r3, [pc, #452]	; (8001300 <HAL_RCC_OscConfig+0x4d8>)
 800113c:	6f1b      	ldr	r3, [r3, #112]	; 0x70
 800113e:	4a70      	ldr	r2, [pc, #448]	; (8001300 <HAL_RCC_OscConfig+0x4d8>)
 8001140:	f023 0301 	bic.w	r3, r3, #1
 8001144:	6713      	str	r3, [r2, #112]	; 0x70
 8001146:	4b6e      	ldr	r3, [pc, #440]	; (8001300 <HAL_RCC_OscConfig+0x4d8>)
 8001148:	6f1b      	ldr	r3, [r3, #112]	; 0x70
 800114a:	4a6d      	ldr	r2, [pc, #436]	; (8001300 <HAL_RCC_OscConfig+0x4d8>)
 800114c:	f023 0304 	bic.w	r3, r3, #4
 8001150:	6713      	str	r3, [r2, #112]	; 0x70
    /* Check the LSE State */
    if((RCC_OscInitStruct->LSEState) != RCC_LSE_OFF)
 8001152:	687b      	ldr	r3, [r7, #4]
 8001154:	689b      	ldr	r3, [r3, #8]
 8001156:	2b00      	cmp	r3, #0
 8001158:	d015      	beq.n	8001186 <HAL_RCC_OscConfig+0x35e>
    {
      /* Get Start Tick*/
      tickstart = HAL_GetTick();
 800115a:	f7ff fb67 	bl	800082c <HAL_GetTick>
 800115e:	6138      	str	r0, [r7, #16]

      /* Wait till LSE is ready */
      while(__HAL_RCC_GET_FLAG(RCC_FLAG_LSERDY) == RESET)
 8001160:	e00a      	b.n	8001178 <HAL_RCC_OscConfig+0x350>
      {
        if((HAL_GetTick() - tickstart ) > RCC_LSE_TIMEOUT_VALUE)
 8001162:	f7ff fb63 	bl	800082c <HAL_GetTick>
 8001166:	4602      	mov	r2, r0
 8001168:	693b      	ldr	r3, [r7, #16]
 800116a:	1ad3      	subs	r3, r2, r3
 800116c:	f241 3288 	movw	r2, #5000	; 0x1388
 8001170:	4293      	cmp	r3, r2
 8001172:	d901      	bls.n	8001178 <HAL_RCC_OscConfig+0x350>
        {
          return HAL_TIMEOUT;
 8001174:	2303      	movs	r3, #3
 8001176:	e0bc      	b.n	80012f2 <HAL_RCC_OscConfig+0x4ca>
      while(__HAL_RCC_GET_FLAG(RCC_FLAG_LSERDY) == RESET)
 8001178:	4b61      	ldr	r3, [pc, #388]	; (8001300 <HAL_RCC_OscConfig+0x4d8>)
 800117a:	6f1b      	ldr	r3, [r3, #112]	; 0x70
 800117c:	f003 0302 	and.w	r3, r3, #2
 8001180:	2b00      	cmp	r3, #0
 8001182:	d0ee      	beq.n	8001162 <HAL_RCC_OscConfig+0x33a>
 8001184:	e014      	b.n	80011b0 <HAL_RCC_OscConfig+0x388>
      }
    }
    else
    {
      /* Get Start Tick */
      tickstart = HAL_GetTick();
 8001186:	f7ff fb51 	bl	800082c <HAL_GetTick>
 800118a:	6138      	str	r0, [r7, #16]

      /* Wait till LSE is ready */
      while(__HAL_RCC_GET_FLAG(RCC_FLAG_LSERDY) != RESET)
 800118c:	e00a      	b.n	80011a4 <HAL_RCC_OscConfig+0x37c>
      {
        if((HAL_GetTick() - tickstart ) > RCC_LSE_TIMEOUT_VALUE)
 800118e:	f7ff fb4d 	bl	800082c <HAL_GetTick>
 8001192:	4602      	mov	r2, r0
 8001194:	693b      	ldr	r3, [r7, #16]
 8001196:	1ad3      	subs	r3, r2, r3
 8001198:	f241 3288 	movw	r2, #5000	; 0x1388
 800119c:	4293      	cmp	r3, r2
 800119e:	d901      	bls.n	80011a4 <HAL_RCC_OscConfig+0x37c>
        {
          return HAL_TIMEOUT;
 80011a0:	2303      	movs	r3, #3
 80011a2:	e0a6      	b.n	80012f2 <HAL_RCC_OscConfig+0x4ca>
      while(__HAL_RCC_GET_FLAG(RCC_FLAG_LSERDY) != RESET)
 80011a4:	4b56      	ldr	r3, [pc, #344]	; (8001300 <HAL_RCC_OscConfig+0x4d8>)
 80011a6:	6f1b      	ldr	r3, [r3, #112]	; 0x70
 80011a8:	f003 0302 	and.w	r3, r3, #2
 80011ac:	2b00      	cmp	r3, #0
 80011ae:	d1ee      	bne.n	800118e <HAL_RCC_OscConfig+0x366>
        }
      }
    }

    /* Restore clock configuration if changed */
    if(pwrclkchanged == SET)
 80011b0:	7dfb      	ldrb	r3, [r7, #23]
 80011b2:	2b01      	cmp	r3, #1
 80011b4:	d105      	bne.n	80011c2 <HAL_RCC_OscConfig+0x39a>
    {
      __HAL_RCC_PWR_CLK_DISABLE();
 80011b6:	4b52      	ldr	r3, [pc, #328]	; (8001300 <HAL_RCC_OscConfig+0x4d8>)
 80011b8:	6c1b      	ldr	r3, [r3, #64]	; 0x40
 80011ba:	4a51      	ldr	r2, [pc, #324]	; (8001300 <HAL_RCC_OscConfig+0x4d8>)
 80011bc:	f023 5380 	bic.w	r3, r3, #268435456	; 0x10000000
 80011c0:	6413      	str	r3, [r2, #64]	; 0x40
    }
  }
  /*-------------------------------- PLL Configuration -----------------------*/
  /* Check the parameters */
  assert_param(IS_RCC_PLL(RCC_OscInitStruct->PLL.PLLState));
  if ((RCC_OscInitStruct->PLL.PLLState) != RCC_PLL_NONE)
 80011c2:	687b      	ldr	r3, [r7, #4]
 80011c4:	699b      	ldr	r3, [r3, #24]
 80011c6:	2b00      	cmp	r3, #0
 80011c8:	f000 8092 	beq.w	80012f0 <HAL_RCC_OscConfig+0x4c8>
  {
    /* Check if the PLL is used as system clock or not */
    if(__HAL_RCC_GET_SYSCLK_SOURCE() != RCC_CFGR_SWS_PLL)
 80011cc:	4b4c      	ldr	r3, [pc, #304]	; (8001300 <HAL_RCC_OscConfig+0x4d8>)
 80011ce:	689b      	ldr	r3, [r3, #8]
 80011d0:	f003 030c 	and.w	r3, r3, #12
 80011d4:	2b08      	cmp	r3, #8
 80011d6:	d05c      	beq.n	8001292 <HAL_RCC_OscConfig+0x46a>
    {
      if((RCC_OscInitStruct->PLL.PLLState) == RCC_PLL_ON)
 80011d8:	687b      	ldr	r3, [r7, #4]
 80011da:	699b      	ldr	r3, [r3, #24]
 80011dc:	2b02      	cmp	r3, #2
 80011de:	d141      	bne.n	8001264 <HAL_RCC_OscConfig+0x43c>
        assert_param(IS_RCC_PLLN_VALUE(RCC_OscInitStruct->PLL.PLLN));
        assert_param(IS_RCC_PLLP_VALUE(RCC_OscInitStruct->PLL.PLLP));
        assert_param(IS_RCC_PLLQ_VALUE(RCC_OscInitStruct->PLL.PLLQ));

        /* Disable the main PLL. */
        __HAL_RCC_PLL_DISABLE();
 80011e0:	4b48      	ldr	r3, [pc, #288]	; (8001304 <HAL_RCC_OscConfig+0x4dc>)
 80011e2:	2200      	movs	r2, #0
 80011e4:	601a      	str	r2, [r3, #0]

        /* Get Start Tick */
        tickstart = HAL_GetTick();
 80011e6:	f7ff fb21 	bl	800082c <HAL_GetTick>
 80011ea:	6138      	str	r0, [r7, #16]

        /* Wait till PLL is ready */
        while(__HAL_RCC_GET_FLAG(RCC_FLAG_PLLRDY) != RESET)
 80011ec:	e008      	b.n	8001200 <HAL_RCC_OscConfig+0x3d8>
        {
          if((HAL_GetTick() - tickstart ) > PLL_TIMEOUT_VALUE)
 80011ee:	f7ff fb1d 	bl	800082c <HAL_GetTick>
 80011f2:	4602      	mov	r2, r0
 80011f4:	693b      	ldr	r3, [r7, #16]
 80011f6:	1ad3      	subs	r3, r2, r3
 80011f8:	2b02      	cmp	r3, #2
 80011fa:	d901      	bls.n	8001200 <HAL_RCC_OscConfig+0x3d8>
          {
            return HAL_TIMEOUT;
 80011fc:	2303      	movs	r3, #3
 80011fe:	e078      	b.n	80012f2 <HAL_RCC_OscConfig+0x4ca>
        while(__HAL_RCC_GET_FLAG(RCC_FLAG_PLLRDY) != RESET)
 8001200:	4b3f      	ldr	r3, [pc, #252]	; (8001300 <HAL_RCC_OscConfig+0x4d8>)
 8001202:	681b      	ldr	r3, [r3, #0]
 8001204:	f003 7300 	and.w	r3, r3, #33554432	; 0x2000000
 8001208:	2b00      	cmp	r3, #0
 800120a:	d1f0      	bne.n	80011ee <HAL_RCC_OscConfig+0x3c6>
          }
        }

        /* Configure the main PLL clock source, multiplication and division factors. */
        WRITE_REG(RCC->PLLCFGR, (RCC_OscInitStruct->PLL.PLLSource                                            | \
 800120c:	687b      	ldr	r3, [r7, #4]
 800120e:	69da      	ldr	r2, [r3, #28]
 8001210:	687b      	ldr	r3, [r7, #4]
 8001212:	6a1b      	ldr	r3, [r3, #32]
 8001214:	431a      	orrs	r2, r3
 8001216:	687b      	ldr	r3, [r7, #4]
 8001218:	6a5b      	ldr	r3, [r3, #36]	; 0x24
 800121a:	019b      	lsls	r3, r3, #6
 800121c:	431a      	orrs	r2, r3
 800121e:	687b      	ldr	r3, [r7, #4]
 8001220:	6a9b      	ldr	r3, [r3, #40]	; 0x28
 8001222:	085b      	lsrs	r3, r3, #1
 8001224:	3b01      	subs	r3, #1
 8001226:	041b      	lsls	r3, r3, #16
 8001228:	431a      	orrs	r2, r3
 800122a:	687b      	ldr	r3, [r7, #4]
 800122c:	6adb      	ldr	r3, [r3, #44]	; 0x2c
 800122e:	061b      	lsls	r3, r3, #24
 8001230:	4933      	ldr	r1, [pc, #204]	; (8001300 <HAL_RCC_OscConfig+0x4d8>)
 8001232:	4313      	orrs	r3, r2
 8001234:	604b      	str	r3, [r1, #4]
                                 RCC_OscInitStruct->PLL.PLLM                                                 | \
                                 (RCC_OscInitStruct->PLL.PLLN << RCC_PLLCFGR_PLLN_Pos)             | \
                                 (((RCC_OscInitStruct->PLL.PLLP >> 1U) - 1U) << RCC_PLLCFGR_PLLP_Pos) | \
                                 (RCC_OscInitStruct->PLL.PLLQ << RCC_PLLCFGR_PLLQ_Pos)));
        /* Enable the main PLL. */
        __HAL_RCC_PLL_ENABLE();
 8001236:	4b33      	ldr	r3, [pc, #204]	; (8001304 <HAL_RCC_OscConfig+0x4dc>)
 8001238:	2201      	movs	r2, #1
 800123a:	601a      	str	r2, [r3, #0]

        /* Get Start Tick */
        tickstart = HAL_GetTick();
 800123c:	f7ff faf6 	bl	800082c <HAL_GetTick>
 8001240:	6138      	str	r0, [r7, #16]

        /* Wait till PLL is ready */
        while(__HAL_RCC_GET_FLAG(RCC_FLAG_PLLRDY) == RESET)
 8001242:	e008      	b.n	8001256 <HAL_RCC_OscConfig+0x42e>
        {
          if((HAL_GetTick() - tickstart ) > PLL_TIMEOUT_VALUE)
 8001244:	f7ff faf2 	bl	800082c <HAL_GetTick>
 8001248:	4602      	mov	r2, r0
 800124a:	693b      	ldr	r3, [r7, #16]
 800124c:	1ad3      	subs	r3, r2, r3
 800124e:	2b02      	cmp	r3, #2
 8001250:	d901      	bls.n	8001256 <HAL_RCC_OscConfig+0x42e>
          {
            return HAL_TIMEOUT;
 8001252:	2303      	movs	r3, #3
 8001254:	e04d      	b.n	80012f2 <HAL_RCC_OscConfig+0x4ca>
        while(__HAL_RCC_GET_FLAG(RCC_FLAG_PLLRDY) == RESET)
 8001256:	4b2a      	ldr	r3, [pc, #168]	; (8001300 <HAL_RCC_OscConfig+0x4d8>)
 8001258:	681b      	ldr	r3, [r3, #0]
 800125a:	f003 7300 	and.w	r3, r3, #33554432	; 0x2000000
 800125e:	2b00      	cmp	r3, #0
 8001260:	d0f0      	beq.n	8001244 <HAL_RCC_OscConfig+0x41c>
 8001262:	e045      	b.n	80012f0 <HAL_RCC_OscConfig+0x4c8>
        }
      }
      else
      {
        /* Disable the main PLL. */
        __HAL_RCC_PLL_DISABLE();
 8001264:	4b27      	ldr	r3, [pc, #156]	; (8001304 <HAL_RCC_OscConfig+0x4dc>)
 8001266:	2200      	movs	r2, #0
 8001268:	601a      	str	r2, [r3, #0]

        /* Get Start Tick */
        tickstart = HAL_GetTick();
 800126a:	f7ff fadf 	bl	800082c <HAL_GetTick>
 800126e:	6138      	str	r0, [r7, #16]

        /* Wait till PLL is ready */
        while(__HAL_RCC_GET_FLAG(RCC_FLAG_PLLRDY) != RESET)
 8001270:	e008      	b.n	8001284 <HAL_RCC_OscConfig+0x45c>
        {
          if((HAL_GetTick() - tickstart ) > PLL_TIMEOUT_VALUE)
 8001272:	f7ff fadb 	bl	800082c <HAL_GetTick>
 8001276:	4602      	mov	r2, r0
 8001278:	693b      	ldr	r3, [r7, #16]
 800127a:	1ad3      	subs	r3, r2, r3
 800127c:	2b02      	cmp	r3, #2
 800127e:	d901      	bls.n	8001284 <HAL_RCC_OscConfig+0x45c>
          {
            return HAL_TIMEOUT;
 8001280:	2303      	movs	r3, #3
 8001282:	e036      	b.n	80012f2 <HAL_RCC_OscConfig+0x4ca>
        while(__HAL_RCC_GET_FLAG(RCC_FLAG_PLLRDY) != RESET)
 8001284:	4b1e      	ldr	r3, [pc, #120]	; (8001300 <HAL_RCC_OscConfig+0x4d8>)
 8001286:	681b      	ldr	r3, [r3, #0]
 8001288:	f003 7300 	and.w	r3, r3, #33554432	; 0x2000000
 800128c:	2b00      	cmp	r3, #0
 800128e:	d1f0      	bne.n	8001272 <HAL_RCC_OscConfig+0x44a>
 8001290:	e02e      	b.n	80012f0 <HAL_RCC_OscConfig+0x4c8>
      }
    }
    else
    {
      /* Check if there is a request to disable the PLL used as System clock source */
      if((RCC_OscInitStruct->PLL.PLLState) == RCC_PLL_OFF)
 8001292:	687b      	ldr	r3, [r7, #4]
 8001294:	699b      	ldr	r3, [r3, #24]
 8001296:	2b01      	cmp	r3, #1
 8001298:	d101      	bne.n	800129e <HAL_RCC_OscConfig+0x476>
      {
        return HAL_ERROR;
 800129a:	2301      	movs	r3, #1
 800129c:	e029      	b.n	80012f2 <HAL_RCC_OscConfig+0x4ca>
      }
      else
      {
        /* Do not return HAL_ERROR if request repeats the current configuration */
        pll_config = RCC->PLLCFGR;
 800129e:	4b18      	ldr	r3, [pc, #96]	; (8001300 <HAL_RCC_OscConfig+0x4d8>)
 80012a0:	685b      	ldr	r3, [r3, #4]
 80012a2:	60fb      	str	r3, [r7, #12]
        if((READ_BIT(pll_config, RCC_PLLCFGR_PLLSRC) != RCC_OscInitStruct->PLL.PLLSource) ||
 80012a4:	68fb      	ldr	r3, [r7, #12]
 80012a6:	f403 0280 	and.w	r2, r3, #4194304	; 0x400000
 80012aa:	687b      	ldr	r3, [r7, #4]
 80012ac:	69db      	ldr	r3, [r3, #28]
 80012ae:	429a      	cmp	r2, r3
 80012b0:	d11c      	bne.n	80012ec <HAL_RCC_OscConfig+0x4c4>
           (READ_BIT(pll_config, RCC_PLLCFGR_PLLM) != RCC_OscInitStruct->PLL.PLLM) ||
 80012b2:	68fb      	ldr	r3, [r7, #12]
 80012b4:	f003 023f 	and.w	r2, r3, #63	; 0x3f
 80012b8:	687b      	ldr	r3, [r7, #4]
 80012ba:	6a1b      	ldr	r3, [r3, #32]
        if((READ_BIT(pll_config, RCC_PLLCFGR_PLLSRC) != RCC_OscInitStruct->PLL.PLLSource) ||
 80012bc:	429a      	cmp	r2, r3
 80012be:	d115      	bne.n	80012ec <HAL_RCC_OscConfig+0x4c4>
           (READ_BIT(pll_config, RCC_PLLCFGR_PLLN) != RCC_OscInitStruct->PLL.PLLN) ||
 80012c0:	68fa      	ldr	r2, [r7, #12]
 80012c2:	f647 73c0 	movw	r3, #32704	; 0x7fc0
 80012c6:	4013      	ands	r3, r2
 80012c8:	687a      	ldr	r2, [r7, #4]
 80012ca:	6a52      	ldr	r2, [r2, #36]	; 0x24
           (READ_BIT(pll_config, RCC_PLLCFGR_PLLM) != RCC_OscInitStruct->PLL.PLLM) ||
 80012cc:	4293      	cmp	r3, r2
 80012ce:	d10d      	bne.n	80012ec <HAL_RCC_OscConfig+0x4c4>
           (READ_BIT(pll_config, RCC_PLLCFGR_PLLP) != RCC_OscInitStruct->PLL.PLLP) ||
 80012d0:	68fb      	ldr	r3, [r7, #12]
 80012d2:	f403 3240 	and.w	r2, r3, #196608	; 0x30000
 80012d6:	687b      	ldr	r3, [r7, #4]
 80012d8:	6a9b      	ldr	r3, [r3, #40]	; 0x28
           (READ_BIT(pll_config, RCC_PLLCFGR_PLLN) != RCC_OscInitStruct->PLL.PLLN) ||
 80012da:	429a      	cmp	r2, r3
 80012dc:	d106      	bne.n	80012ec <HAL_RCC_OscConfig+0x4c4>
           (READ_BIT(pll_config, RCC_PLLCFGR_PLLQ) != RCC_OscInitStruct->PLL.PLLQ))
 80012de:	68fb      	ldr	r3, [r7, #12]
 80012e0:	f003 6270 	and.w	r2, r3, #251658240	; 0xf000000
 80012e4:	687b      	ldr	r3, [r7, #4]
 80012e6:	6adb      	ldr	r3, [r3, #44]	; 0x2c
           (READ_BIT(pll_config, RCC_PLLCFGR_PLLP) != RCC_OscInitStruct->PLL.PLLP) ||
 80012e8:	429a      	cmp	r2, r3
 80012ea:	d001      	beq.n	80012f0 <HAL_RCC_OscConfig+0x4c8>
        {
          return HAL_ERROR;
 80012ec:	2301      	movs	r3, #1
 80012ee:	e000      	b.n	80012f2 <HAL_RCC_OscConfig+0x4ca>
        }
      }
    }
  }
  return HAL_OK;
 80012f0:	2300      	movs	r3, #0
}
 80012f2:	4618      	mov	r0, r3
 80012f4:	3718      	adds	r7, #24
 80012f6:	46bd      	mov	sp, r7
 80012f8:	bd80      	pop	{r7, pc}
 80012fa:	bf00      	nop
 80012fc:	40007000 	.word	0x40007000
 8001300:	40023800 	.word	0x40023800
 8001304:	42470060 	.word	0x42470060

08001308 <HAL_RCC_ClockConfig>:
  *         HPRE[3:0] bits to ensure that HCLK not exceed the maximum allowed frequency
  *         (for more details refer to section above "Initialization/de-initialization functions")
  * @retval None
  */
HAL_StatusTypeDef HAL_RCC_ClockConfig(RCC_ClkInitTypeDef  *RCC_ClkInitStruct, uint32_t FLatency)
{
 8001308:	b580      	push	{r7, lr}
 800130a:	b084      	sub	sp, #16
 800130c:	af00      	add	r7, sp, #0
 800130e:	6078      	str	r0, [r7, #4]
 8001310:	6039      	str	r1, [r7, #0]
  uint32_t tickstart;

  /* Check Null pointer */
  if(RCC_ClkInitStruct == NULL)
 8001312:	687b      	ldr	r3, [r7, #4]
 8001314:	2b00      	cmp	r3, #0
 8001316:	d101      	bne.n	800131c <HAL_RCC_ClockConfig+0x14>
  {
    return HAL_ERROR;
 8001318:	2301      	movs	r3, #1
 800131a:	e0cc      	b.n	80014b6 <HAL_RCC_ClockConfig+0x1ae>
  /* To correctly read data from FLASH memory, the number of wait states (LATENCY)
    must be correctly programmed according to the frequency of the CPU clock
    (HCLK) and the supply voltage of the device. */

  /* Increasing the number of wait states because of higher CPU frequency */
  if(FLatency > __HAL_FLASH_GET_LATENCY())
 800131c:	4b68      	ldr	r3, [pc, #416]	; (80014c0 <HAL_RCC_ClockConfig+0x1b8>)
 800131e:	681b      	ldr	r3, [r3, #0]
 8001320:	f003 030f 	and.w	r3, r3, #15
 8001324:	683a      	ldr	r2, [r7, #0]
 8001326:	429a      	cmp	r2, r3
 8001328:	d90c      	bls.n	8001344 <HAL_RCC_ClockConfig+0x3c>
  {
    /* Program the new number of wait states to the LATENCY bits in the FLASH_ACR register */
    __HAL_FLASH_SET_LATENCY(FLatency);
 800132a:	4b65      	ldr	r3, [pc, #404]	; (80014c0 <HAL_RCC_ClockConfig+0x1b8>)
 800132c:	683a      	ldr	r2, [r7, #0]
 800132e:	b2d2      	uxtb	r2, r2
 8001330:	701a      	strb	r2, [r3, #0]

    /* Check that the new number of wait states is taken into account to access the Flash
    memory by reading the FLASH_ACR register */
    if(__HAL_FLASH_GET_LATENCY() != FLatency)
 8001332:	4b63      	ldr	r3, [pc, #396]	; (80014c0 <HAL_RCC_ClockConfig+0x1b8>)
 8001334:	681b      	ldr	r3, [r3, #0]
 8001336:	f003 030f 	and.w	r3, r3, #15
 800133a:	683a      	ldr	r2, [r7, #0]
 800133c:	429a      	cmp	r2, r3
 800133e:	d001      	beq.n	8001344 <HAL_RCC_ClockConfig+0x3c>
    {
      return HAL_ERROR;
 8001340:	2301      	movs	r3, #1
 8001342:	e0b8      	b.n	80014b6 <HAL_RCC_ClockConfig+0x1ae>
    }
  }

  /*-------------------------- HCLK Configuration --------------------------*/
  if(((RCC_ClkInitStruct->ClockType) & RCC_CLOCKTYPE_HCLK) == RCC_CLOCKTYPE_HCLK)
 8001344:	687b      	ldr	r3, [r7, #4]
 8001346:	681b      	ldr	r3, [r3, #0]
 8001348:	f003 0302 	and.w	r3, r3, #2
 800134c:	2b00      	cmp	r3, #0
 800134e:	d020      	beq.n	8001392 <HAL_RCC_ClockConfig+0x8a>
  {
    /* Set the highest APBx dividers in order to ensure that we do not go through
       a non-spec phase whatever we decrease or increase HCLK. */
    if(((RCC_ClkInitStruct->ClockType) & RCC_CLOCKTYPE_PCLK1) == RCC_CLOCKTYPE_PCLK1)
 8001350:	687b      	ldr	r3, [r7, #4]
 8001352:	681b      	ldr	r3, [r3, #0]
 8001354:	f003 0304 	and.w	r3, r3, #4
 8001358:	2b00      	cmp	r3, #0
 800135a:	d005      	beq.n	8001368 <HAL_RCC_ClockConfig+0x60>
    {
      MODIFY_REG(RCC->CFGR, RCC_CFGR_PPRE1, RCC_HCLK_DIV16);
 800135c:	4b59      	ldr	r3, [pc, #356]	; (80014c4 <HAL_RCC_ClockConfig+0x1bc>)
 800135e:	689b      	ldr	r3, [r3, #8]
 8001360:	4a58      	ldr	r2, [pc, #352]	; (80014c4 <HAL_RCC_ClockConfig+0x1bc>)
 8001362:	f443 53e0 	orr.w	r3, r3, #7168	; 0x1c00
 8001366:	6093      	str	r3, [r2, #8]
    }

    if(((RCC_ClkInitStruct->ClockType) & RCC_CLOCKTYPE_PCLK2) == RCC_CLOCKTYPE_PCLK2)
 8001368:	687b      	ldr	r3, [r7, #4]
 800136a:	681b      	ldr	r3, [r3, #0]
 800136c:	f003 0308 	and.w	r3, r3, #8
 8001370:	2b00      	cmp	r3, #0
 8001372:	d005      	beq.n	8001380 <HAL_RCC_ClockConfig+0x78>
    {
      MODIFY_REG(RCC->CFGR, RCC_CFGR_PPRE2, (RCC_HCLK_DIV16 << 3));
 8001374:	4b53      	ldr	r3, [pc, #332]	; (80014c4 <HAL_RCC_ClockConfig+0x1bc>)
 8001376:	689b      	ldr	r3, [r3, #8]
 8001378:	4a52      	ldr	r2, [pc, #328]	; (80014c4 <HAL_RCC_ClockConfig+0x1bc>)
 800137a:	f443 4360 	orr.w	r3, r3, #57344	; 0xe000
 800137e:	6093      	str	r3, [r2, #8]
    }

    assert_param(IS_RCC_HCLK(RCC_ClkInitStruct->AHBCLKDivider));
    MODIFY_REG(RCC->CFGR, RCC_CFGR_HPRE, RCC_ClkInitStruct->AHBCLKDivider);
 8001380:	4b50      	ldr	r3, [pc, #320]	; (80014c4 <HAL_RCC_ClockConfig+0x1bc>)
 8001382:	689b      	ldr	r3, [r3, #8]
 8001384:	f023 02f0 	bic.w	r2, r3, #240	; 0xf0
 8001388:	687b      	ldr	r3, [r7, #4]
 800138a:	689b      	ldr	r3, [r3, #8]
 800138c:	494d      	ldr	r1, [pc, #308]	; (80014c4 <HAL_RCC_ClockConfig+0x1bc>)
 800138e:	4313      	orrs	r3, r2
 8001390:	608b      	str	r3, [r1, #8]
  }

  /*------------------------- SYSCLK Configuration ---------------------------*/
  if(((RCC_ClkInitStruct->ClockType) & RCC_CLOCKTYPE_SYSCLK) == RCC_CLOCKTYPE_SYSCLK)
 8001392:	687b      	ldr	r3, [r7, #4]
 8001394:	681b      	ldr	r3, [r3, #0]
 8001396:	f003 0301 	and.w	r3, r3, #1
 800139a:	2b00      	cmp	r3, #0
 800139c:	d044      	beq.n	8001428 <HAL_RCC_ClockConfig+0x120>
  {
    assert_param(IS_RCC_SYSCLKSOURCE(RCC_ClkInitStruct->SYSCLKSource));

    /* HSE is selected as System Clock Source */
    if(RCC_ClkInitStruct->SYSCLKSource == RCC_SYSCLKSOURCE_HSE)
 800139e:	687b      	ldr	r3, [r7, #4]
 80013a0:	685b      	ldr	r3, [r3, #4]
 80013a2:	2b01      	cmp	r3, #1
 80013a4:	d107      	bne.n	80013b6 <HAL_RCC_ClockConfig+0xae>
    {
      /* Check the HSE ready flag */
      if(__HAL_RCC_GET_FLAG(RCC_FLAG_HSERDY) == RESET)
 80013a6:	4b47      	ldr	r3, [pc, #284]	; (80014c4 <HAL_RCC_ClockConfig+0x1bc>)
 80013a8:	681b      	ldr	r3, [r3, #0]
 80013aa:	f403 3300 	and.w	r3, r3, #131072	; 0x20000
 80013ae:	2b00      	cmp	r3, #0
 80013b0:	d119      	bne.n	80013e6 <HAL_RCC_ClockConfig+0xde>
      {
        return HAL_ERROR;
 80013b2:	2301      	movs	r3, #1
 80013b4:	e07f      	b.n	80014b6 <HAL_RCC_ClockConfig+0x1ae>
      }
    }
    /* PLL is selected as System Clock Source */
    else if((RCC_ClkInitStruct->SYSCLKSource == RCC_SYSCLKSOURCE_PLLCLK)   ||
 80013b6:	687b      	ldr	r3, [r7, #4]
 80013b8:	685b      	ldr	r3, [r3, #4]
 80013ba:	2b02      	cmp	r3, #2
 80013bc:	d003      	beq.n	80013c6 <HAL_RCC_ClockConfig+0xbe>
            (RCC_ClkInitStruct->SYSCLKSource == RCC_SYSCLKSOURCE_PLLRCLK))
 80013be:	687b      	ldr	r3, [r7, #4]
 80013c0:	685b      	ldr	r3, [r3, #4]
    else if((RCC_ClkInitStruct->SYSCLKSource == RCC_SYSCLKSOURCE_PLLCLK)   ||
 80013c2:	2b03      	cmp	r3, #3
 80013c4:	d107      	bne.n	80013d6 <HAL_RCC_ClockConfig+0xce>
    {
      /* Check the PLL ready flag */
      if(__HAL_RCC_GET_FLAG(RCC_FLAG_PLLRDY) == RESET)
 80013c6:	4b3f      	ldr	r3, [pc, #252]	; (80014c4 <HAL_RCC_ClockConfig+0x1bc>)
 80013c8:	681b      	ldr	r3, [r3, #0]
 80013ca:	f003 7300 	and.w	r3, r3, #33554432	; 0x2000000
 80013ce:	2b00      	cmp	r3, #0
 80013d0:	d109      	bne.n	80013e6 <HAL_RCC_ClockConfig+0xde>
      {
        return HAL_ERROR;
 80013d2:	2301      	movs	r3, #1
 80013d4:	e06f      	b.n	80014b6 <HAL_RCC_ClockConfig+0x1ae>
    }
    /* HSI is selected as System Clock Source */
    else
    {
      /* Check the HSI ready flag */
      if(__HAL_RCC_GET_FLAG(RCC_FLAG_HSIRDY) == RESET)
 80013d6:	4b3b      	ldr	r3, [pc, #236]	; (80014c4 <HAL_RCC_ClockConfig+0x1bc>)
 80013d8:	681b      	ldr	r3, [r3, #0]
 80013da:	f003 0302 	and.w	r3, r3, #2
 80013de:	2b00      	cmp	r3, #0
 80013e0:	d101      	bne.n	80013e6 <HAL_RCC_ClockConfig+0xde>
      {
        return HAL_ERROR;
 80013e2:	2301      	movs	r3, #1
 80013e4:	e067      	b.n	80014b6 <HAL_RCC_ClockConfig+0x1ae>
      }
    }

    __HAL_RCC_SYSCLK_CONFIG(RCC_ClkInitStruct->SYSCLKSource);
 80013e6:	4b37      	ldr	r3, [pc, #220]	; (80014c4 <HAL_RCC_ClockConfig+0x1bc>)
 80013e8:	689b      	ldr	r3, [r3, #8]
 80013ea:	f023 0203 	bic.w	r2, r3, #3
 80013ee:	687b      	ldr	r3, [r7, #4]
 80013f0:	685b      	ldr	r3, [r3, #4]
 80013f2:	4934      	ldr	r1, [pc, #208]	; (80014c4 <HAL_RCC_ClockConfig+0x1bc>)
 80013f4:	4313      	orrs	r3, r2
 80013f6:	608b      	str	r3, [r1, #8]

    /* Get Start Tick */
    tickstart = HAL_GetTick();
 80013f8:	f7ff fa18 	bl	800082c <HAL_GetTick>
 80013fc:	60f8      	str	r0, [r7, #12]

    while (__HAL_RCC_GET_SYSCLK_SOURCE() != (RCC_ClkInitStruct->SYSCLKSource << RCC_CFGR_SWS_Pos))
 80013fe:	e00a      	b.n	8001416 <HAL_RCC_ClockConfig+0x10e>
    {
      if ((HAL_GetTick() - tickstart) > CLOCKSWITCH_TIMEOUT_VALUE)
 8001400:	f7ff fa14 	bl	800082c <HAL_GetTick>
 8001404:	4602      	mov	r2, r0
 8001406:	68fb      	ldr	r3, [r7, #12]
 8001408:	1ad3      	subs	r3, r2, r3
 800140a:	f241 3288 	movw	r2, #5000	; 0x1388
 800140e:	4293      	cmp	r3, r2
 8001410:	d901      	bls.n	8001416 <HAL_RCC_ClockConfig+0x10e>
      {
        return HAL_TIMEOUT;
 8001412:	2303      	movs	r3, #3
 8001414:	e04f      	b.n	80014b6 <HAL_RCC_ClockConfig+0x1ae>
    while (__HAL_RCC_GET_SYSCLK_SOURCE() != (RCC_ClkInitStruct->SYSCLKSource << RCC_CFGR_SWS_Pos))
 8001416:	4b2b      	ldr	r3, [pc, #172]	; (80014c4 <HAL_RCC_ClockConfig+0x1bc>)
 8001418:	689b      	ldr	r3, [r3, #8]
 800141a:	f003 020c 	and.w	r2, r3, #12
 800141e:	687b      	ldr	r3, [r7, #4]
 8001420:	685b      	ldr	r3, [r3, #4]
 8001422:	009b      	lsls	r3, r3, #2
 8001424:	429a      	cmp	r2, r3
 8001426:	d1eb      	bne.n	8001400 <HAL_RCC_ClockConfig+0xf8>
      }
    }
  }

  /* Decreasing the number of wait states because of lower CPU frequency */
  if(FLatency < __HAL_FLASH_GET_LATENCY())
 8001428:	4b25      	ldr	r3, [pc, #148]	; (80014c0 <HAL_RCC_ClockConfig+0x1b8>)
 800142a:	681b      	ldr	r3, [r3, #0]
 800142c:	f003 030f 	and.w	r3, r3, #15
 8001430:	683a      	ldr	r2, [r7, #0]
 8001432:	429a      	cmp	r2, r3
 8001434:	d20c      	bcs.n	8001450 <HAL_RCC_ClockConfig+0x148>
  {
     /* Program the new number of wait states to the LATENCY bits in the FLASH_ACR register */
    __HAL_FLASH_SET_LATENCY(FLatency);
 8001436:	4b22      	ldr	r3, [pc, #136]	; (80014c0 <HAL_RCC_ClockConfig+0x1b8>)
 8001438:	683a      	ldr	r2, [r7, #0]
 800143a:	b2d2      	uxtb	r2, r2
 800143c:	701a      	strb	r2, [r3, #0]

    /* Check that the new number of wait states is taken into account to access the Flash
    memory by reading the FLASH_ACR register */
    if(__HAL_FLASH_GET_LATENCY() != FLatency)
 800143e:	4b20      	ldr	r3, [pc, #128]	; (80014c0 <HAL_RCC_ClockConfig+0x1b8>)
 8001440:	681b      	ldr	r3, [r3, #0]
 8001442:	f003 030f 	and.w	r3, r3, #15
 8001446:	683a      	ldr	r2, [r7, #0]
 8001448:	429a      	cmp	r2, r3
 800144a:	d001      	beq.n	8001450 <HAL_RCC_ClockConfig+0x148>
    {
      return HAL_ERROR;
 800144c:	2301      	movs	r3, #1
 800144e:	e032      	b.n	80014b6 <HAL_RCC_ClockConfig+0x1ae>
    }
  }

  /*-------------------------- PCLK1 Configuration ---------------------------*/
  if(((RCC_ClkInitStruct->ClockType) & RCC_CLOCKTYPE_PCLK1) == RCC_CLOCKTYPE_PCLK1)
 8001450:	687b      	ldr	r3, [r7, #4]
 8001452:	681b      	ldr	r3, [r3, #0]
 8001454:	f003 0304 	and.w	r3, r3, #4
 8001458:	2b00      	cmp	r3, #0
 800145a:	d008      	beq.n	800146e <HAL_RCC_ClockConfig+0x166>
  {
    assert_param(IS_RCC_PCLK(RCC_ClkInitStruct->APB1CLKDivider));
    MODIFY_REG(RCC->CFGR, RCC_CFGR_PPRE1, RCC_ClkInitStruct->APB1CLKDivider);
 800145c:	4b19      	ldr	r3, [pc, #100]	; (80014c4 <HAL_RCC_ClockConfig+0x1bc>)
 800145e:	689b      	ldr	r3, [r3, #8]
 8001460:	f423 52e0 	bic.w	r2, r3, #7168	; 0x1c00
 8001464:	687b      	ldr	r3, [r7, #4]
 8001466:	68db      	ldr	r3, [r3, #12]
 8001468:	4916      	ldr	r1, [pc, #88]	; (80014c4 <HAL_RCC_ClockConfig+0x1bc>)
 800146a:	4313      	orrs	r3, r2
 800146c:	608b      	str	r3, [r1, #8]
  }

  /*-------------------------- PCLK2 Configuration ---------------------------*/
  if(((RCC_ClkInitStruct->ClockType) & RCC_CLOCKTYPE_PCLK2) == RCC_CLOCKTYPE_PCLK2)
 800146e:	687b      	ldr	r3, [r7, #4]
 8001470:	681b      	ldr	r3, [r3, #0]
 8001472:	f003 0308 	and.w	r3, r3, #8
 8001476:	2b00      	cmp	r3, #0
 8001478:	d009      	beq.n	800148e <HAL_RCC_ClockConfig+0x186>
  {
    assert_param(IS_RCC_PCLK(RCC_ClkInitStruct->APB2CLKDivider));
    MODIFY_REG(RCC->CFGR, RCC_CFGR_PPRE2, ((RCC_ClkInitStruct->APB2CLKDivider) << 3U));
 800147a:	4b12      	ldr	r3, [pc, #72]	; (80014c4 <HAL_RCC_ClockConfig+0x1bc>)
 800147c:	689b      	ldr	r3, [r3, #8]
 800147e:	f423 4260 	bic.w	r2, r3, #57344	; 0xe000
 8001482:	687b      	ldr	r3, [r7, #4]
 8001484:	691b      	ldr	r3, [r3, #16]
 8001486:	00db      	lsls	r3, r3, #3
 8001488:	490e      	ldr	r1, [pc, #56]	; (80014c4 <HAL_RCC_ClockConfig+0x1bc>)
 800148a:	4313      	orrs	r3, r2
 800148c:	608b      	str	r3, [r1, #8]
  }

  /* Update the SystemCoreClock global variable */
  SystemCoreClock = HAL_RCC_GetSysClockFreq() >> AHBPrescTable[(RCC->CFGR & RCC_CFGR_HPRE)>> RCC_CFGR_HPRE_Pos];
 800148e:	f000 f821 	bl	80014d4 <HAL_RCC_GetSysClockFreq>
 8001492:	4601      	mov	r1, r0
 8001494:	4b0b      	ldr	r3, [pc, #44]	; (80014c4 <HAL_RCC_ClockConfig+0x1bc>)
 8001496:	689b      	ldr	r3, [r3, #8]
 8001498:	091b      	lsrs	r3, r3, #4
 800149a:	f003 030f 	and.w	r3, r3, #15
 800149e:	4a0a      	ldr	r2, [pc, #40]	; (80014c8 <HAL_RCC_ClockConfig+0x1c0>)
 80014a0:	5cd3      	ldrb	r3, [r2, r3]
 80014a2:	fa21 f303 	lsr.w	r3, r1, r3
 80014a6:	4a09      	ldr	r2, [pc, #36]	; (80014cc <HAL_RCC_ClockConfig+0x1c4>)
 80014a8:	6013      	str	r3, [r2, #0]

  /* Configure the source of time base considering new system clocks settings */
  HAL_InitTick (uwTickPrio);
 80014aa:	4b09      	ldr	r3, [pc, #36]	; (80014d0 <HAL_RCC_ClockConfig+0x1c8>)
 80014ac:	681b      	ldr	r3, [r3, #0]
 80014ae:	4618      	mov	r0, r3
 80014b0:	f7ff f978 	bl	80007a4 <HAL_InitTick>

  return HAL_OK;
 80014b4:	2300      	movs	r3, #0
}
 80014b6:	4618      	mov	r0, r3
 80014b8:	3710      	adds	r7, #16
 80014ba:	46bd      	mov	sp, r7
 80014bc:	bd80      	pop	{r7, pc}
 80014be:	bf00      	nop
 80014c0:	40023c00 	.word	0x40023c00
 80014c4:	40023800 	.word	0x40023800
 80014c8:	08001b64 	.word	0x08001b64
 80014cc:	20000000 	.word	0x20000000
 80014d0:	20000004 	.word	0x20000004

080014d4 <HAL_RCC_GetSysClockFreq>:
  *
  *
  * @retval SYSCLK frequency
  */
__weak uint32_t HAL_RCC_GetSysClockFreq(void)
{
 80014d4:	b5f0      	push	{r4, r5, r6, r7, lr}
 80014d6:	b085      	sub	sp, #20
 80014d8:	af00      	add	r7, sp, #0
  uint32_t pllm = 0U, pllvco = 0U, pllp = 0U;
 80014da:	2300      	movs	r3, #0
 80014dc:	607b      	str	r3, [r7, #4]
 80014de:	2300      	movs	r3, #0
 80014e0:	60fb      	str	r3, [r7, #12]
 80014e2:	2300      	movs	r3, #0
 80014e4:	603b      	str	r3, [r7, #0]
  uint32_t sysclockfreq = 0U;
 80014e6:	2300      	movs	r3, #0
 80014e8:	60bb      	str	r3, [r7, #8]

  /* Get SYSCLK source -------------------------------------------------------*/
  switch (RCC->CFGR & RCC_CFGR_SWS)
 80014ea:	4b63      	ldr	r3, [pc, #396]	; (8001678 <HAL_RCC_GetSysClockFreq+0x1a4>)
 80014ec:	689b      	ldr	r3, [r3, #8]
 80014ee:	f003 030c 	and.w	r3, r3, #12
 80014f2:	2b04      	cmp	r3, #4
 80014f4:	d007      	beq.n	8001506 <HAL_RCC_GetSysClockFreq+0x32>
 80014f6:	2b08      	cmp	r3, #8
 80014f8:	d008      	beq.n	800150c <HAL_RCC_GetSysClockFreq+0x38>
 80014fa:	2b00      	cmp	r3, #0
 80014fc:	f040 80b4 	bne.w	8001668 <HAL_RCC_GetSysClockFreq+0x194>
  {
    case RCC_CFGR_SWS_HSI:  /* HSI used as system clock source */
    {
      sysclockfreq = HSI_VALUE;
 8001500:	4b5e      	ldr	r3, [pc, #376]	; (800167c <HAL_RCC_GetSysClockFreq+0x1a8>)
 8001502:	60bb      	str	r3, [r7, #8]
       break;
 8001504:	e0b3      	b.n	800166e <HAL_RCC_GetSysClockFreq+0x19a>
    }
    case RCC_CFGR_SWS_HSE:  /* HSE used as system clock  source */
    {
      sysclockfreq = HSE_VALUE;
 8001506:	4b5e      	ldr	r3, [pc, #376]	; (8001680 <HAL_RCC_GetSysClockFreq+0x1ac>)
 8001508:	60bb      	str	r3, [r7, #8]
      break;
 800150a:	e0b0      	b.n	800166e <HAL_RCC_GetSysClockFreq+0x19a>
    }
    case RCC_CFGR_SWS_PLL:  /* PLL used as system clock  source */
    {
      /* PLL_VCO = (HSE_VALUE or HSI_VALUE / PLLM) * PLLN
      SYSCLK = PLL_VCO / PLLP */
      pllm = RCC->PLLCFGR & RCC_PLLCFGR_PLLM;
 800150c:	4b5a      	ldr	r3, [pc, #360]	; (8001678 <HAL_RCC_GetSysClockFreq+0x1a4>)
 800150e:	685b      	ldr	r3, [r3, #4]
 8001510:	f003 033f 	and.w	r3, r3, #63	; 0x3f
 8001514:	607b      	str	r3, [r7, #4]
      if(__HAL_RCC_GET_PLL_OSCSOURCE() != RCC_PLLSOURCE_HSI)
 8001516:	4b58      	ldr	r3, [pc, #352]	; (8001678 <HAL_RCC_GetSysClockFreq+0x1a4>)
 8001518:	685b      	ldr	r3, [r3, #4]
 800151a:	f403 0380 	and.w	r3, r3, #4194304	; 0x400000
 800151e:	2b00      	cmp	r3, #0
 8001520:	d04a      	beq.n	80015b8 <HAL_RCC_GetSysClockFreq+0xe4>
      {
        /* HSE used as PLL clock source */
        pllvco = (uint32_t) ((((uint64_t) HSE_VALUE * ((uint64_t) ((RCC->PLLCFGR & RCC_PLLCFGR_PLLN) >> RCC_PLLCFGR_PLLN_Pos)))) / (uint64_t)pllm);
 8001522:	4b55      	ldr	r3, [pc, #340]	; (8001678 <HAL_RCC_GetSysClockFreq+0x1a4>)
 8001524:	685b      	ldr	r3, [r3, #4]
 8001526:	099b      	lsrs	r3, r3, #6
 8001528:	f04f 0400 	mov.w	r4, #0
 800152c:	f240 11ff 	movw	r1, #511	; 0x1ff
 8001530:	f04f 0200 	mov.w	r2, #0
 8001534:	ea03 0501 	and.w	r5, r3, r1
 8001538:	ea04 0602 	and.w	r6, r4, r2
 800153c:	4629      	mov	r1, r5
 800153e:	4632      	mov	r2, r6
 8001540:	f04f 0300 	mov.w	r3, #0
 8001544:	f04f 0400 	mov.w	r4, #0
 8001548:	0154      	lsls	r4, r2, #5
 800154a:	ea44 64d1 	orr.w	r4, r4, r1, lsr #27
 800154e:	014b      	lsls	r3, r1, #5
 8001550:	4619      	mov	r1, r3
 8001552:	4622      	mov	r2, r4
 8001554:	1b49      	subs	r1, r1, r5
 8001556:	eb62 0206 	sbc.w	r2, r2, r6
 800155a:	f04f 0300 	mov.w	r3, #0
 800155e:	f04f 0400 	mov.w	r4, #0
 8001562:	0194      	lsls	r4, r2, #6
 8001564:	ea44 6491 	orr.w	r4, r4, r1, lsr #26
 8001568:	018b      	lsls	r3, r1, #6
 800156a:	1a5b      	subs	r3, r3, r1
 800156c:	eb64 0402 	sbc.w	r4, r4, r2
 8001570:	f04f 0100 	mov.w	r1, #0
 8001574:	f04f 0200 	mov.w	r2, #0
 8001578:	00e2      	lsls	r2, r4, #3
 800157a:	ea42 7253 	orr.w	r2, r2, r3, lsr #29
 800157e:	00d9      	lsls	r1, r3, #3
 8001580:	460b      	mov	r3, r1
 8001582:	4614      	mov	r4, r2
 8001584:	195b      	adds	r3, r3, r5
 8001586:	eb44 0406 	adc.w	r4, r4, r6
 800158a:	f04f 0100 	mov.w	r1, #0
 800158e:	f04f 0200 	mov.w	r2, #0
 8001592:	0262      	lsls	r2, r4, #9
 8001594:	ea42 52d3 	orr.w	r2, r2, r3, lsr #23
 8001598:	0259      	lsls	r1, r3, #9
 800159a:	460b      	mov	r3, r1
 800159c:	4614      	mov	r4, r2
 800159e:	4618      	mov	r0, r3
 80015a0:	4621      	mov	r1, r4
 80015a2:	687b      	ldr	r3, [r7, #4]
 80015a4:	f04f 0400 	mov.w	r4, #0
 80015a8:	461a      	mov	r2, r3
 80015aa:	4623      	mov	r3, r4
 80015ac:	f7fe fe0c 	bl	80001c8 <__aeabi_uldivmod>
 80015b0:	4603      	mov	r3, r0
 80015b2:	460c      	mov	r4, r1
 80015b4:	60fb      	str	r3, [r7, #12]
 80015b6:	e049      	b.n	800164c <HAL_RCC_GetSysClockFreq+0x178>
      }
      else
      {
        /* HSI used as PLL clock source */
        pllvco = (uint32_t) ((((uint64_t) HSI_VALUE * ((uint64_t) ((RCC->PLLCFGR & RCC_PLLCFGR_PLLN) >> RCC_PLLCFGR_PLLN_Pos)))) / (uint64_t)pllm);
 80015b8:	4b2f      	ldr	r3, [pc, #188]	; (8001678 <HAL_RCC_GetSysClockFreq+0x1a4>)
 80015ba:	685b      	ldr	r3, [r3, #4]
 80015bc:	099b      	lsrs	r3, r3, #6
 80015be:	f04f 0400 	mov.w	r4, #0
 80015c2:	f240 11ff 	movw	r1, #511	; 0x1ff
 80015c6:	f04f 0200 	mov.w	r2, #0
 80015ca:	ea03 0501 	and.w	r5, r3, r1
 80015ce:	ea04 0602 	and.w	r6, r4, r2
 80015d2:	4629      	mov	r1, r5
 80015d4:	4632      	mov	r2, r6
 80015d6:	f04f 0300 	mov.w	r3, #0
 80015da:	f04f 0400 	mov.w	r4, #0
 80015de:	0154      	lsls	r4, r2, #5
 80015e0:	ea44 64d1 	orr.w	r4, r4, r1, lsr #27
 80015e4:	014b      	lsls	r3, r1, #5
 80015e6:	4619      	mov	r1, r3
 80015e8:	4622      	mov	r2, r4
 80015ea:	1b49      	subs	r1, r1, r5
 80015ec:	eb62 0206 	sbc.w	r2, r2, r6
 80015f0:	f04f 0300 	mov.w	r3, #0
 80015f4:	f04f 0400 	mov.w	r4, #0
 80015f8:	0194      	lsls	r4, r2, #6
 80015fa:	ea44 6491 	orr.w	r4, r4, r1, lsr #26
 80015fe:	018b      	lsls	r3, r1, #6
 8001600:	1a5b      	subs	r3, r3, r1
 8001602:	eb64 0402 	sbc.w	r4, r4, r2
 8001606:	f04f 0100 	mov.w	r1, #0
 800160a:	f04f 0200 	mov.w	r2, #0
 800160e:	00e2      	lsls	r2, r4, #3
 8001610:	ea42 7253 	orr.w	r2, r2, r3, lsr #29
 8001614:	00d9      	lsls	r1, r3, #3
 8001616:	460b      	mov	r3, r1
 8001618:	4614      	mov	r4, r2
 800161a:	195b      	adds	r3, r3, r5
 800161c:	eb44 0406 	adc.w	r4, r4, r6
 8001620:	f04f 0100 	mov.w	r1, #0
 8001624:	f04f 0200 	mov.w	r2, #0
 8001628:	02a2      	lsls	r2, r4, #10
 800162a:	ea42 5293 	orr.w	r2, r2, r3, lsr #22
 800162e:	0299      	lsls	r1, r3, #10
 8001630:	460b      	mov	r3, r1
 8001632:	4614      	mov	r4, r2
 8001634:	4618      	mov	r0, r3
 8001636:	4621      	mov	r1, r4
 8001638:	687b      	ldr	r3, [r7, #4]
 800163a:	f04f 0400 	mov.w	r4, #0
 800163e:	461a      	mov	r2, r3
 8001640:	4623      	mov	r3, r4
 8001642:	f7fe fdc1 	bl	80001c8 <__aeabi_uldivmod>
 8001646:	4603      	mov	r3, r0
 8001648:	460c      	mov	r4, r1
 800164a:	60fb      	str	r3, [r7, #12]
      }
      pllp = ((((RCC->PLLCFGR & RCC_PLLCFGR_PLLP) >> RCC_PLLCFGR_PLLP_Pos) + 1U) *2U);
 800164c:	4b0a      	ldr	r3, [pc, #40]	; (8001678 <HAL_RCC_GetSysClockFreq+0x1a4>)
 800164e:	685b      	ldr	r3, [r3, #4]
 8001650:	0c1b      	lsrs	r3, r3, #16
 8001652:	f003 0303 	and.w	r3, r3, #3
 8001656:	3301      	adds	r3, #1
 8001658:	005b      	lsls	r3, r3, #1
 800165a:	603b      	str	r3, [r7, #0]

      sysclockfreq = pllvco/pllp;
 800165c:	68fa      	ldr	r2, [r7, #12]
 800165e:	683b      	ldr	r3, [r7, #0]
 8001660:	fbb2 f3f3 	udiv	r3, r2, r3
 8001664:	60bb      	str	r3, [r7, #8]
      break;
 8001666:	e002      	b.n	800166e <HAL_RCC_GetSysClockFreq+0x19a>
    }
    default:
    {
      sysclockfreq = HSI_VALUE;
 8001668:	4b04      	ldr	r3, [pc, #16]	; (800167c <HAL_RCC_GetSysClockFreq+0x1a8>)
 800166a:	60bb      	str	r3, [r7, #8]
      break;
 800166c:	bf00      	nop
    }
  }
  return sysclockfreq;
 800166e:	68bb      	ldr	r3, [r7, #8]
}
 8001670:	4618      	mov	r0, r3
 8001672:	3714      	adds	r7, #20
 8001674:	46bd      	mov	sp, r7
 8001676:	bdf0      	pop	{r4, r5, r6, r7, pc}
 8001678:	40023800 	.word	0x40023800
 800167c:	00f42400 	.word	0x00f42400
 8001680:	007a1200 	.word	0x007a1200

08001684 <HAL_RCC_GetHCLKFreq>:
  * @note   The SystemCoreClock CMSIS variable is used to store System Clock Frequency
  *         and updated within this function
  * @retval HCLK frequency
  */
uint32_t HAL_RCC_GetHCLKFreq(void)
{
 8001684:	b480      	push	{r7}
 8001686:	af00      	add	r7, sp, #0
  return SystemCoreClock;
 8001688:	4b03      	ldr	r3, [pc, #12]	; (8001698 <HAL_RCC_GetHCLKFreq+0x14>)
 800168a:	681b      	ldr	r3, [r3, #0]
}
 800168c:	4618      	mov	r0, r3
 800168e:	46bd      	mov	sp, r7
 8001690:	f85d 7b04 	ldr.w	r7, [sp], #4
 8001694:	4770      	bx	lr
 8001696:	bf00      	nop
 8001698:	20000000 	.word	0x20000000

0800169c <HAL_TIM_Base_Init>:
  *         Ex: call @ref HAL_TIM_Base_DeInit() before HAL_TIM_Base_Init()
  * @param  htim TIM Base handle
  * @retval HAL status
  */
HAL_StatusTypeDef HAL_TIM_Base_Init(TIM_HandleTypeDef *htim)
{
 800169c:	b580      	push	{r7, lr}
 800169e:	b082      	sub	sp, #8
 80016a0:	af00      	add	r7, sp, #0
 80016a2:	6078      	str	r0, [r7, #4]
  /* Check the TIM handle allocation */
  if (htim == NULL)
 80016a4:	687b      	ldr	r3, [r7, #4]
 80016a6:	2b00      	cmp	r3, #0
 80016a8:	d101      	bne.n	80016ae <HAL_TIM_Base_Init+0x12>
  {
    return HAL_ERROR;
 80016aa:	2301      	movs	r3, #1
 80016ac:	e01d      	b.n	80016ea <HAL_TIM_Base_Init+0x4e>
  assert_param(IS_TIM_INSTANCE(htim->Instance));
  assert_param(IS_TIM_COUNTER_MODE(htim->Init.CounterMode));
  assert_param(IS_TIM_CLOCKDIVISION_DIV(htim->Init.ClockDivision));
  assert_param(IS_TIM_AUTORELOAD_PRELOAD(htim->Init.AutoReloadPreload));

  if (htim->State == HAL_TIM_STATE_RESET)
 80016ae:	687b      	ldr	r3, [r7, #4]
 80016b0:	f893 303d 	ldrb.w	r3, [r3, #61]	; 0x3d
 80016b4:	b2db      	uxtb	r3, r3
 80016b6:	2b00      	cmp	r3, #0
 80016b8:	d106      	bne.n	80016c8 <HAL_TIM_Base_Init+0x2c>
  {
    /* Allocate lock resource and initialize it */
    htim->Lock = HAL_UNLOCKED;
 80016ba:	687b      	ldr	r3, [r7, #4]
 80016bc:	2200      	movs	r2, #0
 80016be:	f883 203c 	strb.w	r2, [r3, #60]	; 0x3c
    }
    /* Init the low level hardware : GPIO, CLOCK, NVIC */
    htim->Base_MspInitCallback(htim);
#else
    /* Init the low level hardware : GPIO, CLOCK, NVIC */
    HAL_TIM_Base_MspInit(htim);
 80016c2:	6878      	ldr	r0, [r7, #4]
 80016c4:	f7fe ffec 	bl	80006a0 <HAL_TIM_Base_MspInit>
#endif /* USE_HAL_TIM_REGISTER_CALLBACKS */
  }

  /* Set the TIM state */
  htim->State = HAL_TIM_STATE_BUSY;
 80016c8:	687b      	ldr	r3, [r7, #4]
 80016ca:	2202      	movs	r2, #2
 80016cc:	f883 203d 	strb.w	r2, [r3, #61]	; 0x3d

  /* Set the Time Base configuration */
  TIM_Base_SetConfig(htim->Instance, &htim->Init);
 80016d0:	687b      	ldr	r3, [r7, #4]
 80016d2:	681a      	ldr	r2, [r3, #0]
 80016d4:	687b      	ldr	r3, [r7, #4]
 80016d6:	3304      	adds	r3, #4
 80016d8:	4619      	mov	r1, r3
 80016da:	4610      	mov	r0, r2
 80016dc:	f000 f95e 	bl	800199c <TIM_Base_SetConfig>

  /* Initialize the TIM state*/
  htim->State = HAL_TIM_STATE_READY;
 80016e0:	687b      	ldr	r3, [r7, #4]
 80016e2:	2201      	movs	r2, #1
 80016e4:	f883 203d 	strb.w	r2, [r3, #61]	; 0x3d

  return HAL_OK;
 80016e8:	2300      	movs	r3, #0
}
 80016ea:	4618      	mov	r0, r3
 80016ec:	3708      	adds	r7, #8
 80016ee:	46bd      	mov	sp, r7
 80016f0:	bd80      	pop	{r7, pc}

080016f2 <HAL_TIM_Base_Start_IT>:
  * @brief  Starts the TIM Base generation in interrupt mode.
  * @param  htim TIM Base handle
  * @retval HAL status
  */
HAL_StatusTypeDef HAL_TIM_Base_Start_IT(TIM_HandleTypeDef *htim)
{
 80016f2:	b480      	push	{r7}
 80016f4:	b085      	sub	sp, #20
 80016f6:	af00      	add	r7, sp, #0
 80016f8:	6078      	str	r0, [r7, #4]

  /* Check the parameters */
  assert_param(IS_TIM_INSTANCE(htim->Instance));

  /* Enable the TIM Update interrupt */
  __HAL_TIM_ENABLE_IT(htim, TIM_IT_UPDATE);
 80016fa:	687b      	ldr	r3, [r7, #4]
 80016fc:	681b      	ldr	r3, [r3, #0]
 80016fe:	68da      	ldr	r2, [r3, #12]
 8001700:	687b      	ldr	r3, [r7, #4]
 8001702:	681b      	ldr	r3, [r3, #0]
 8001704:	f042 0201 	orr.w	r2, r2, #1
 8001708:	60da      	str	r2, [r3, #12]

  /* Enable the Peripheral, except in trigger mode where enable is automatically done with trigger */
  tmpsmcr = htim->Instance->SMCR & TIM_SMCR_SMS;
 800170a:	687b      	ldr	r3, [r7, #4]
 800170c:	681b      	ldr	r3, [r3, #0]
 800170e:	689b      	ldr	r3, [r3, #8]
 8001710:	f003 0307 	and.w	r3, r3, #7
 8001714:	60fb      	str	r3, [r7, #12]
  if (!IS_TIM_SLAVEMODE_TRIGGER_ENABLED(tmpsmcr))
 8001716:	68fb      	ldr	r3, [r7, #12]
 8001718:	2b06      	cmp	r3, #6
 800171a:	d007      	beq.n	800172c <HAL_TIM_Base_Start_IT+0x3a>
  {
    __HAL_TIM_ENABLE(htim);
 800171c:	687b      	ldr	r3, [r7, #4]
 800171e:	681b      	ldr	r3, [r3, #0]
 8001720:	681a      	ldr	r2, [r3, #0]
 8001722:	687b      	ldr	r3, [r7, #4]
 8001724:	681b      	ldr	r3, [r3, #0]
 8001726:	f042 0201 	orr.w	r2, r2, #1
 800172a:	601a      	str	r2, [r3, #0]
  }

  /* Return function status */
  return HAL_OK;
 800172c:	2300      	movs	r3, #0
}
 800172e:	4618      	mov	r0, r3
 8001730:	3714      	adds	r7, #20
 8001732:	46bd      	mov	sp, r7
 8001734:	f85d 7b04 	ldr.w	r7, [sp], #4
 8001738:	4770      	bx	lr

0800173a <HAL_TIM_IRQHandler>:
  * @brief  This function handles TIM interrupts requests.
  * @param  htim TIM  handle
  * @retval None
  */
void HAL_TIM_IRQHandler(TIM_HandleTypeDef *htim)
{
 800173a:	b580      	push	{r7, lr}
 800173c:	b082      	sub	sp, #8
 800173e:	af00      	add	r7, sp, #0
 8001740:	6078      	str	r0, [r7, #4]
  /* Capture compare 1 event */
  if (__HAL_TIM_GET_FLAG(htim, TIM_FLAG_CC1) != RESET)
 8001742:	687b      	ldr	r3, [r7, #4]
 8001744:	681b      	ldr	r3, [r3, #0]
 8001746:	691b      	ldr	r3, [r3, #16]
 8001748:	f003 0302 	and.w	r3, r3, #2
 800174c:	2b02      	cmp	r3, #2
 800174e:	d122      	bne.n	8001796 <HAL_TIM_IRQHandler+0x5c>
  {
    if (__HAL_TIM_GET_IT_SOURCE(htim, TIM_IT_CC1) != RESET)
 8001750:	687b      	ldr	r3, [r7, #4]
 8001752:	681b      	ldr	r3, [r3, #0]
 8001754:	68db      	ldr	r3, [r3, #12]
 8001756:	f003 0302 	and.w	r3, r3, #2
 800175a:	2b02      	cmp	r3, #2
 800175c:	d11b      	bne.n	8001796 <HAL_TIM_IRQHandler+0x5c>
    {
      {
        __HAL_TIM_CLEAR_IT(htim, TIM_IT_CC1);
 800175e:	687b      	ldr	r3, [r7, #4]
 8001760:	681b      	ldr	r3, [r3, #0]
 8001762:	f06f 0202 	mvn.w	r2, #2
 8001766:	611a      	str	r2, [r3, #16]
        htim->Channel = HAL_TIM_ACTIVE_CHANNEL_1;
 8001768:	687b      	ldr	r3, [r7, #4]
 800176a:	2201      	movs	r2, #1
 800176c:	771a      	strb	r2, [r3, #28]

        /* Input capture event */
        if ((htim->Instance->CCMR1 & TIM_CCMR1_CC1S) != 0x00U)
 800176e:	687b      	ldr	r3, [r7, #4]
 8001770:	681b      	ldr	r3, [r3, #0]
 8001772:	699b      	ldr	r3, [r3, #24]
 8001774:	f003 0303 	and.w	r3, r3, #3
 8001778:	2b00      	cmp	r3, #0
 800177a:	d003      	beq.n	8001784 <HAL_TIM_IRQHandler+0x4a>
        {
#if (USE_HAL_TIM_REGISTER_CALLBACKS == 1)
          htim->IC_CaptureCallback(htim);
#else
          HAL_TIM_IC_CaptureCallback(htim);
 800177c:	6878      	ldr	r0, [r7, #4]
 800177e:	f000 f8ee 	bl	800195e <HAL_TIM_IC_CaptureCallback>
 8001782:	e005      	b.n	8001790 <HAL_TIM_IRQHandler+0x56>
        {
#if (USE_HAL_TIM_REGISTER_CALLBACKS == 1)
          htim->OC_DelayElapsedCallback(htim);
          htim->PWM_PulseFinishedCallback(htim);
#else
          HAL_TIM_OC_DelayElapsedCallback(htim);
 8001784:	6878      	ldr	r0, [r7, #4]
 8001786:	f000 f8e0 	bl	800194a <HAL_TIM_OC_DelayElapsedCallback>
          HAL_TIM_PWM_PulseFinishedCallback(htim);
 800178a:	6878      	ldr	r0, [r7, #4]
 800178c:	f000 f8f1 	bl	8001972 <HAL_TIM_PWM_PulseFinishedCallback>
#endif /* USE_HAL_TIM_REGISTER_CALLBACKS */
        }
        htim->Channel = HAL_TIM_ACTIVE_CHANNEL_CLEARED;
 8001790:	687b      	ldr	r3, [r7, #4]
 8001792:	2200      	movs	r2, #0
 8001794:	771a      	strb	r2, [r3, #28]
      }
    }
  }
  /* Capture compare 2 event */
  if (__HAL_TIM_GET_FLAG(htim, TIM_FLAG_CC2) != RESET)
 8001796:	687b      	ldr	r3, [r7, #4]
 8001798:	681b      	ldr	r3, [r3, #0]
 800179a:	691b      	ldr	r3, [r3, #16]
 800179c:	f003 0304 	and.w	r3, r3, #4
 80017a0:	2b04      	cmp	r3, #4
 80017a2:	d122      	bne.n	80017ea <HAL_TIM_IRQHandler+0xb0>
  {
    if (__HAL_TIM_GET_IT_SOURCE(htim, TIM_IT_CC2) != RESET)
 80017a4:	687b      	ldr	r3, [r7, #4]
 80017a6:	681b      	ldr	r3, [r3, #0]
 80017a8:	68db      	ldr	r3, [r3, #12]
 80017aa:	f003 0304 	and.w	r3, r3, #4
 80017ae:	2b04      	cmp	r3, #4
 80017b0:	d11b      	bne.n	80017ea <HAL_TIM_IRQHandler+0xb0>
    {
      __HAL_TIM_CLEAR_IT(htim, TIM_IT_CC2);
 80017b2:	687b      	ldr	r3, [r7, #4]
 80017b4:	681b      	ldr	r3, [r3, #0]
 80017b6:	f06f 0204 	mvn.w	r2, #4
 80017ba:	611a      	str	r2, [r3, #16]
      htim->Channel = HAL_TIM_ACTIVE_CHANNEL_2;
 80017bc:	687b      	ldr	r3, [r7, #4]
 80017be:	2202      	movs	r2, #2
 80017c0:	771a      	strb	r2, [r3, #28]
      /* Input capture event */
      if ((htim->Instance->CCMR1 & TIM_CCMR1_CC2S) != 0x00U)
 80017c2:	687b      	ldr	r3, [r7, #4]
 80017c4:	681b      	ldr	r3, [r3, #0]
 80017c6:	699b      	ldr	r3, [r3, #24]
 80017c8:	f403 7340 	and.w	r3, r3, #768	; 0x300
 80017cc:	2b00      	cmp	r3, #0
 80017ce:	d003      	beq.n	80017d8 <HAL_TIM_IRQHandler+0x9e>
      {
#if (USE_HAL_TIM_REGISTER_CALLBACKS == 1)
        htim->IC_CaptureCallback(htim);
#else
        HAL_TIM_IC_CaptureCallback(htim);
 80017d0:	6878      	ldr	r0, [r7, #4]
 80017d2:	f000 f8c4 	bl	800195e <HAL_TIM_IC_CaptureCallback>
 80017d6:	e005      	b.n	80017e4 <HAL_TIM_IRQHandler+0xaa>
      {
#if (USE_HAL_TIM_REGISTER_CALLBACKS == 1)
        htim->OC_DelayElapsedCallback(htim);
        htim->PWM_PulseFinishedCallback(htim);
#else
        HAL_TIM_OC_DelayElapsedCallback(htim);
 80017d8:	6878      	ldr	r0, [r7, #4]
 80017da:	f000 f8b6 	bl	800194a <HAL_TIM_OC_DelayElapsedCallback>
        HAL_TIM_PWM_PulseFinishedCallback(htim);
 80017de:	6878      	ldr	r0, [r7, #4]
 80017e0:	f000 f8c7 	bl	8001972 <HAL_TIM_PWM_PulseFinishedCallback>
#endif /* USE_HAL_TIM_REGISTER_CALLBACKS */
      }
      htim->Channel = HAL_TIM_ACTIVE_CHANNEL_CLEARED;
 80017e4:	687b      	ldr	r3, [r7, #4]
 80017e6:	2200      	movs	r2, #0
 80017e8:	771a      	strb	r2, [r3, #28]
    }
  }
  /* Capture compare 3 event */
  if (__HAL_TIM_GET_FLAG(htim, TIM_FLAG_CC3) != RESET)
 80017ea:	687b      	ldr	r3, [r7, #4]
 80017ec:	681b      	ldr	r3, [r3, #0]
 80017ee:	691b      	ldr	r3, [r3, #16]
 80017f0:	f003 0308 	and.w	r3, r3, #8
 80017f4:	2b08      	cmp	r3, #8
 80017f6:	d122      	bne.n	800183e <HAL_TIM_IRQHandler+0x104>
  {
    if (__HAL_TIM_GET_IT_SOURCE(htim, TIM_IT_CC3) != RESET)
 80017f8:	687b      	ldr	r3, [r7, #4]
 80017fa:	681b      	ldr	r3, [r3, #0]
 80017fc:	68db      	ldr	r3, [r3, #12]
 80017fe:	f003 0308 	and.w	r3, r3, #8
 8001802:	2b08      	cmp	r3, #8
 8001804:	d11b      	bne.n	800183e <HAL_TIM_IRQHandler+0x104>
    {
      __HAL_TIM_CLEAR_IT(htim, TIM_IT_CC3);
 8001806:	687b      	ldr	r3, [r7, #4]
 8001808:	681b      	ldr	r3, [r3, #0]
 800180a:	f06f 0208 	mvn.w	r2, #8
 800180e:	611a      	str	r2, [r3, #16]
      htim->Channel = HAL_TIM_ACTIVE_CHANNEL_3;
 8001810:	687b      	ldr	r3, [r7, #4]
 8001812:	2204      	movs	r2, #4
 8001814:	771a      	strb	r2, [r3, #28]
      /* Input capture event */
      if ((htim->Instance->CCMR2 & TIM_CCMR2_CC3S) != 0x00U)
 8001816:	687b      	ldr	r3, [r7, #4]
 8001818:	681b      	ldr	r3, [r3, #0]
 800181a:	69db      	ldr	r3, [r3, #28]
 800181c:	f003 0303 	and.w	r3, r3, #3
 8001820:	2b00      	cmp	r3, #0
 8001822:	d003      	beq.n	800182c <HAL_TIM_IRQHandler+0xf2>
      {
#if (USE_HAL_TIM_REGISTER_CALLBACKS == 1)
        htim->IC_CaptureCallback(htim);
#else
        HAL_TIM_IC_CaptureCallback(htim);
 8001824:	6878      	ldr	r0, [r7, #4]
 8001826:	f000 f89a 	bl	800195e <HAL_TIM_IC_CaptureCallback>
 800182a:	e005      	b.n	8001838 <HAL_TIM_IRQHandler+0xfe>
      {
#if (USE_HAL_TIM_REGISTER_CALLBACKS == 1)
        htim->OC_DelayElapsedCallback(htim);
        htim->PWM_PulseFinishedCallback(htim);
#else
        HAL_TIM_OC_DelayElapsedCallback(htim);
 800182c:	6878      	ldr	r0, [r7, #4]
 800182e:	f000 f88c 	bl	800194a <HAL_TIM_OC_DelayElapsedCallback>
        HAL_TIM_PWM_PulseFinishedCallback(htim);
 8001832:	6878      	ldr	r0, [r7, #4]
 8001834:	f000 f89d 	bl	8001972 <HAL_TIM_PWM_PulseFinishedCallback>
#endif /* USE_HAL_TIM_REGISTER_CALLBACKS */
      }
      htim->Channel = HAL_TIM_ACTIVE_CHANNEL_CLEARED;
 8001838:	687b      	ldr	r3, [r7, #4]
 800183a:	2200      	movs	r2, #0
 800183c:	771a      	strb	r2, [r3, #28]
    }
  }
  /* Capture compare 4 event */
  if (__HAL_TIM_GET_FLAG(htim, TIM_FLAG_CC4) != RESET)
 800183e:	687b      	ldr	r3, [r7, #4]
 8001840:	681b      	ldr	r3, [r3, #0]
 8001842:	691b      	ldr	r3, [r3, #16]
 8001844:	f003 0310 	and.w	r3, r3, #16
 8001848:	2b10      	cmp	r3, #16
 800184a:	d122      	bne.n	8001892 <HAL_TIM_IRQHandler+0x158>
  {
    if (__HAL_TIM_GET_IT_SOURCE(htim, TIM_IT_CC4) != RESET)
 800184c:	687b      	ldr	r3, [r7, #4]
 800184e:	681b      	ldr	r3, [r3, #0]
 8001850:	68db      	ldr	r3, [r3, #12]
 8001852:	f003 0310 	and.w	r3, r3, #16
 8001856:	2b10      	cmp	r3, #16
 8001858:	d11b      	bne.n	8001892 <HAL_TIM_IRQHandler+0x158>
    {
      __HAL_TIM_CLEAR_IT(htim, TIM_IT_CC4);
 800185a:	687b      	ldr	r3, [r7, #4]
 800185c:	681b      	ldr	r3, [r3, #0]
 800185e:	f06f 0210 	mvn.w	r2, #16
 8001862:	611a      	str	r2, [r3, #16]
      htim->Channel = HAL_TIM_ACTIVE_CHANNEL_4;
 8001864:	687b      	ldr	r3, [r7, #4]
 8001866:	2208      	movs	r2, #8
 8001868:	771a      	strb	r2, [r3, #28]
      /* Input capture event */
      if ((htim->Instance->CCMR2 & TIM_CCMR2_CC4S) != 0x00U)
 800186a:	687b      	ldr	r3, [r7, #4]
 800186c:	681b      	ldr	r3, [r3, #0]
 800186e:	69db      	ldr	r3, [r3, #28]
 8001870:	f403 7340 	and.w	r3, r3, #768	; 0x300
 8001874:	2b00      	cmp	r3, #0
 8001876:	d003      	beq.n	8001880 <HAL_TIM_IRQHandler+0x146>
      {
#if (USE_HAL_TIM_REGISTER_CALLBACKS == 1)
        htim->IC_CaptureCallback(htim);
#else
        HAL_TIM_IC_CaptureCallback(htim);
 8001878:	6878      	ldr	r0, [r7, #4]
 800187a:	f000 f870 	bl	800195e <HAL_TIM_IC_CaptureCallback>
 800187e:	e005      	b.n	800188c <HAL_TIM_IRQHandler+0x152>
      {
#if (USE_HAL_TIM_REGISTER_CALLBACKS == 1)
        htim->OC_DelayElapsedCallback(htim);
        htim->PWM_PulseFinishedCallback(htim);
#else
        HAL_TIM_OC_DelayElapsedCallback(htim);
 8001880:	6878      	ldr	r0, [r7, #4]
 8001882:	f000 f862 	bl	800194a <HAL_TIM_OC_DelayElapsedCallback>
        HAL_TIM_PWM_PulseFinishedCallback(htim);
 8001886:	6878      	ldr	r0, [r7, #4]
 8001888:	f000 f873 	bl	8001972 <HAL_TIM_PWM_PulseFinishedCallback>
#endif /* USE_HAL_TIM_REGISTER_CALLBACKS */
      }
      htim->Channel = HAL_TIM_ACTIVE_CHANNEL_CLEARED;
 800188c:	687b      	ldr	r3, [r7, #4]
 800188e:	2200      	movs	r2, #0
 8001890:	771a      	strb	r2, [r3, #28]
    }
  }
  /* TIM Update event */
  if (__HAL_TIM_GET_FLAG(htim, TIM_FLAG_UPDATE) != RESET)
 8001892:	687b      	ldr	r3, [r7, #4]
 8001894:	681b      	ldr	r3, [r3, #0]
 8001896:	691b      	ldr	r3, [r3, #16]
 8001898:	f003 0301 	and.w	r3, r3, #1
 800189c:	2b01      	cmp	r3, #1
 800189e:	d10e      	bne.n	80018be <HAL_TIM_IRQHandler+0x184>
  {
    if (__HAL_TIM_GET_IT_SOURCE(htim, TIM_IT_UPDATE) != RESET)
 80018a0:	687b      	ldr	r3, [r7, #4]
 80018a2:	681b      	ldr	r3, [r3, #0]
 80018a4:	68db      	ldr	r3, [r3, #12]
 80018a6:	f003 0301 	and.w	r3, r3, #1
 80018aa:	2b01      	cmp	r3, #1
 80018ac:	d107      	bne.n	80018be <HAL_TIM_IRQHandler+0x184>
    {
      __HAL_TIM_CLEAR_IT(htim, TIM_IT_UPDATE);
 80018ae:	687b      	ldr	r3, [r7, #4]
 80018b0:	681b      	ldr	r3, [r3, #0]
 80018b2:	f06f 0201 	mvn.w	r2, #1
 80018b6:	611a      	str	r2, [r3, #16]
#if (USE_HAL_TIM_REGISTER_CALLBACKS == 1)
      htim->PeriodElapsedCallback(htim);
#else
      HAL_TIM_PeriodElapsedCallback(htim);
 80018b8:	6878      	ldr	r0, [r7, #4]
 80018ba:	f7fe feb3 	bl	8000624 <HAL_TIM_PeriodElapsedCallback>
#endif /* USE_HAL_TIM_REGISTER_CALLBACKS */
    }
  }
  /* TIM Break input event */
  if (__HAL_TIM_GET_FLAG(htim, TIM_FLAG_BREAK) != RESET)
 80018be:	687b      	ldr	r3, [r7, #4]
 80018c0:	681b      	ldr	r3, [r3, #0]
 80018c2:	691b      	ldr	r3, [r3, #16]
 80018c4:	f003 0380 	and.w	r3, r3, #128	; 0x80
 80018c8:	2b80      	cmp	r3, #128	; 0x80
 80018ca:	d10e      	bne.n	80018ea <HAL_TIM_IRQHandler+0x1b0>
  {
    if (__HAL_TIM_GET_IT_SOURCE(htim, TIM_IT_BREAK) != RESET)
 80018cc:	687b      	ldr	r3, [r7, #4]
 80018ce:	681b      	ldr	r3, [r3, #0]
 80018d0:	68db      	ldr	r3, [r3, #12]
 80018d2:	f003 0380 	and.w	r3, r3, #128	; 0x80
 80018d6:	2b80      	cmp	r3, #128	; 0x80
 80018d8:	d107      	bne.n	80018ea <HAL_TIM_IRQHandler+0x1b0>
    {
      __HAL_TIM_CLEAR_IT(htim, TIM_IT_BREAK);
 80018da:	687b      	ldr	r3, [r7, #4]
 80018dc:	681b      	ldr	r3, [r3, #0]
 80018de:	f06f 0280 	mvn.w	r2, #128	; 0x80
 80018e2:	611a      	str	r2, [r3, #16]
#if (USE_HAL_TIM_REGISTER_CALLBACKS == 1)
      htim->BreakCallback(htim);
#else
      HAL_TIMEx_BreakCallback(htim);
 80018e4:	6878      	ldr	r0, [r7, #4]
 80018e6:	f000 f903 	bl	8001af0 <HAL_TIMEx_BreakCallback>
#endif /* USE_HAL_TIM_REGISTER_CALLBACKS */
    }
  }
  /* TIM Trigger detection event */
  if (__HAL_TIM_GET_FLAG(htim, TIM_FLAG_TRIGGER) != RESET)
 80018ea:	687b      	ldr	r3, [r7, #4]
 80018ec:	681b      	ldr	r3, [r3, #0]
 80018ee:	691b      	ldr	r3, [r3, #16]
 80018f0:	f003 0340 	and.w	r3, r3, #64	; 0x40
 80018f4:	2b40      	cmp	r3, #64	; 0x40
 80018f6:	d10e      	bne.n	8001916 <HAL_TIM_IRQHandler+0x1dc>
  {
    if (__HAL_TIM_GET_IT_SOURCE(htim, TIM_IT_TRIGGER) != RESET)
 80018f8:	687b      	ldr	r3, [r7, #4]
 80018fa:	681b      	ldr	r3, [r3, #0]
 80018fc:	68db      	ldr	r3, [r3, #12]
 80018fe:	f003 0340 	and.w	r3, r3, #64	; 0x40
 8001902:	2b40      	cmp	r3, #64	; 0x40
 8001904:	d107      	bne.n	8001916 <HAL_TIM_IRQHandler+0x1dc>
    {
      __HAL_TIM_CLEAR_IT(htim, TIM_IT_TRIGGER);
 8001906:	687b      	ldr	r3, [r7, #4]
 8001908:	681b      	ldr	r3, [r3, #0]
 800190a:	f06f 0240 	mvn.w	r2, #64	; 0x40
 800190e:	611a      	str	r2, [r3, #16]
#if (USE_HAL_TIM_REGISTER_CALLBACKS == 1)
      htim->TriggerCallback(htim);
#else
      HAL_TIM_TriggerCallback(htim);
 8001910:	6878      	ldr	r0, [r7, #4]
 8001912:	f000 f838 	bl	8001986 <HAL_TIM_TriggerCallback>
#endif /* USE_HAL_TIM_REGISTER_CALLBACKS */
    }
  }
  /* TIM commutation event */
  if (__HAL_TIM_GET_FLAG(htim, TIM_FLAG_COM) != RESET)
 8001916:	687b      	ldr	r3, [r7, #4]
 8001918:	681b      	ldr	r3, [r3, #0]
 800191a:	691b      	ldr	r3, [r3, #16]
 800191c:	f003 0320 	and.w	r3, r3, #32
 8001920:	2b20      	cmp	r3, #32
 8001922:	d10e      	bne.n	8001942 <HAL_TIM_IRQHandler+0x208>
  {
    if (__HAL_TIM_GET_IT_SOURCE(htim, TIM_IT_COM) != RESET)
 8001924:	687b      	ldr	r3, [r7, #4]
 8001926:	681b      	ldr	r3, [r3, #0]
 8001928:	68db      	ldr	r3, [r3, #12]
 800192a:	f003 0320 	and.w	r3, r3, #32
 800192e:	2b20      	cmp	r3, #32
 8001930:	d107      	bne.n	8001942 <HAL_TIM_IRQHandler+0x208>
    {
      __HAL_TIM_CLEAR_IT(htim, TIM_FLAG_COM);
 8001932:	687b      	ldr	r3, [r7, #4]
 8001934:	681b      	ldr	r3, [r3, #0]
 8001936:	f06f 0220 	mvn.w	r2, #32
 800193a:	611a      	str	r2, [r3, #16]
#if (USE_HAL_TIM_REGISTER_CALLBACKS == 1)
      htim->CommutationCallback(htim);
#else
      HAL_TIMEx_CommutCallback(htim);
 800193c:	6878      	ldr	r0, [r7, #4]
 800193e:	f000 f8cd 	bl	8001adc <HAL_TIMEx_CommutCallback>
#endif /* USE_HAL_TIM_REGISTER_CALLBACKS */
    }
  }
}
 8001942:	bf00      	nop
 8001944:	3708      	adds	r7, #8
 8001946:	46bd      	mov	sp, r7
 8001948:	bd80      	pop	{r7, pc}

0800194a <HAL_TIM_OC_DelayElapsedCallback>:
  * @brief  Output Compare callback in non-blocking mode
  * @param  htim TIM OC handle
  * @retval None
  */
__weak void HAL_TIM_OC_DelayElapsedCallback(TIM_HandleTypeDef *htim)
{
 800194a:	b480      	push	{r7}
 800194c:	b083      	sub	sp, #12
 800194e:	af00      	add	r7, sp, #0
 8001950:	6078      	str	r0, [r7, #4]
  UNUSED(htim);

  /* NOTE : This function should not be modified, when the callback is needed,
            the HAL_TIM_OC_DelayElapsedCallback could be implemented in the user file
   */
}
 8001952:	bf00      	nop
 8001954:	370c      	adds	r7, #12
 8001956:	46bd      	mov	sp, r7
 8001958:	f85d 7b04 	ldr.w	r7, [sp], #4
 800195c:	4770      	bx	lr

0800195e <HAL_TIM_IC_CaptureCallback>:
  * @brief  Input Capture callback in non-blocking mode
  * @param  htim TIM IC handle
  * @retval None
  */
__weak void HAL_TIM_IC_CaptureCallback(TIM_HandleTypeDef *htim)
{
 800195e:	b480      	push	{r7}
 8001960:	b083      	sub	sp, #12
 8001962:	af00      	add	r7, sp, #0
 8001964:	6078      	str	r0, [r7, #4]
  UNUSED(htim);

  /* NOTE : This function should not be modified, when the callback is needed,
            the HAL_TIM_IC_CaptureCallback could be implemented in the user file
   */
}
 8001966:	bf00      	nop
 8001968:	370c      	adds	r7, #12
 800196a:	46bd      	mov	sp, r7
 800196c:	f85d 7b04 	ldr.w	r7, [sp], #4
 8001970:	4770      	bx	lr

08001972 <HAL_TIM_PWM_PulseFinishedCallback>:
  * @brief  PWM Pulse finished callback in non-blocking mode
  * @param  htim TIM handle
  * @retval None
  */
__weak void HAL_TIM_PWM_PulseFinishedCallback(TIM_HandleTypeDef *htim)
{
 8001972:	b480      	push	{r7}
 8001974:	b083      	sub	sp, #12
 8001976:	af00      	add	r7, sp, #0
 8001978:	6078      	str	r0, [r7, #4]
  UNUSED(htim);

  /* NOTE : This function should not be modified, when the callback is needed,
            the HAL_TIM_PWM_PulseFinishedCallback could be implemented in the user file
   */
}
 800197a:	bf00      	nop
 800197c:	370c      	adds	r7, #12
 800197e:	46bd      	mov	sp, r7
 8001980:	f85d 7b04 	ldr.w	r7, [sp], #4
 8001984:	4770      	bx	lr

08001986 <HAL_TIM_TriggerCallback>:
  * @brief  Hall Trigger detection callback in non-blocking mode
  * @param  htim TIM handle
  * @retval None
  */
__weak void HAL_TIM_TriggerCallback(TIM_HandleTypeDef *htim)
{
 8001986:	b480      	push	{r7}
 8001988:	b083      	sub	sp, #12
 800198a:	af00      	add	r7, sp, #0
 800198c:	6078      	str	r0, [r7, #4]
  UNUSED(htim);

  /* NOTE : This function should not be modified, when the callback is needed,
            the HAL_TIM_TriggerCallback could be implemented in the user file
   */
}
 800198e:	bf00      	nop
 8001990:	370c      	adds	r7, #12
 8001992:	46bd      	mov	sp, r7
 8001994:	f85d 7b04 	ldr.w	r7, [sp], #4
 8001998:	4770      	bx	lr
	...

0800199c <TIM_Base_SetConfig>:
  * @param  TIMx TIM peripheral
  * @param  Structure TIM Base configuration structure
  * @retval None
  */
void TIM_Base_SetConfig(TIM_TypeDef *TIMx, TIM_Base_InitTypeDef *Structure)
{
 800199c:	b480      	push	{r7}
 800199e:	b085      	sub	sp, #20
 80019a0:	af00      	add	r7, sp, #0
 80019a2:	6078      	str	r0, [r7, #4]
 80019a4:	6039      	str	r1, [r7, #0]
  uint32_t tmpcr1;
  tmpcr1 = TIMx->CR1;
 80019a6:	687b      	ldr	r3, [r7, #4]
 80019a8:	681b      	ldr	r3, [r3, #0]
 80019aa:	60fb      	str	r3, [r7, #12]

  /* Set TIM Time Base Unit parameters ---------------------------------------*/
  if (IS_TIM_COUNTER_MODE_SELECT_INSTANCE(TIMx))
 80019ac:	687b      	ldr	r3, [r7, #4]
 80019ae:	4a40      	ldr	r2, [pc, #256]	; (8001ab0 <TIM_Base_SetConfig+0x114>)
 80019b0:	4293      	cmp	r3, r2
 80019b2:	d013      	beq.n	80019dc <TIM_Base_SetConfig+0x40>
 80019b4:	687b      	ldr	r3, [r7, #4]
 80019b6:	f1b3 4f80 	cmp.w	r3, #1073741824	; 0x40000000
 80019ba:	d00f      	beq.n	80019dc <TIM_Base_SetConfig+0x40>
 80019bc:	687b      	ldr	r3, [r7, #4]
 80019be:	4a3d      	ldr	r2, [pc, #244]	; (8001ab4 <TIM_Base_SetConfig+0x118>)
 80019c0:	4293      	cmp	r3, r2
 80019c2:	d00b      	beq.n	80019dc <TIM_Base_SetConfig+0x40>
 80019c4:	687b      	ldr	r3, [r7, #4]
 80019c6:	4a3c      	ldr	r2, [pc, #240]	; (8001ab8 <TIM_Base_SetConfig+0x11c>)
 80019c8:	4293      	cmp	r3, r2
 80019ca:	d007      	beq.n	80019dc <TIM_Base_SetConfig+0x40>
 80019cc:	687b      	ldr	r3, [r7, #4]
 80019ce:	4a3b      	ldr	r2, [pc, #236]	; (8001abc <TIM_Base_SetConfig+0x120>)
 80019d0:	4293      	cmp	r3, r2
 80019d2:	d003      	beq.n	80019dc <TIM_Base_SetConfig+0x40>
 80019d4:	687b      	ldr	r3, [r7, #4]
 80019d6:	4a3a      	ldr	r2, [pc, #232]	; (8001ac0 <TIM_Base_SetConfig+0x124>)
 80019d8:	4293      	cmp	r3, r2
 80019da:	d108      	bne.n	80019ee <TIM_Base_SetConfig+0x52>
  {
    /* Select the Counter Mode */
    tmpcr1 &= ~(TIM_CR1_DIR | TIM_CR1_CMS);
 80019dc:	68fb      	ldr	r3, [r7, #12]
 80019de:	f023 0370 	bic.w	r3, r3, #112	; 0x70
 80019e2:	60fb      	str	r3, [r7, #12]
    tmpcr1 |= Structure->CounterMode;
 80019e4:	683b      	ldr	r3, [r7, #0]
 80019e6:	685b      	ldr	r3, [r3, #4]
 80019e8:	68fa      	ldr	r2, [r7, #12]
 80019ea:	4313      	orrs	r3, r2
 80019ec:	60fb      	str	r3, [r7, #12]
  }

  if (IS_TIM_CLOCK_DIVISION_INSTANCE(TIMx))
 80019ee:	687b      	ldr	r3, [r7, #4]
 80019f0:	4a2f      	ldr	r2, [pc, #188]	; (8001ab0 <TIM_Base_SetConfig+0x114>)
 80019f2:	4293      	cmp	r3, r2
 80019f4:	d02b      	beq.n	8001a4e <TIM_Base_SetConfig+0xb2>
 80019f6:	687b      	ldr	r3, [r7, #4]
 80019f8:	f1b3 4f80 	cmp.w	r3, #1073741824	; 0x40000000
 80019fc:	d027      	beq.n	8001a4e <TIM_Base_SetConfig+0xb2>
 80019fe:	687b      	ldr	r3, [r7, #4]
 8001a00:	4a2c      	ldr	r2, [pc, #176]	; (8001ab4 <TIM_Base_SetConfig+0x118>)
 8001a02:	4293      	cmp	r3, r2
 8001a04:	d023      	beq.n	8001a4e <TIM_Base_SetConfig+0xb2>
 8001a06:	687b      	ldr	r3, [r7, #4]
 8001a08:	4a2b      	ldr	r2, [pc, #172]	; (8001ab8 <TIM_Base_SetConfig+0x11c>)
 8001a0a:	4293      	cmp	r3, r2
 8001a0c:	d01f      	beq.n	8001a4e <TIM_Base_SetConfig+0xb2>
 8001a0e:	687b      	ldr	r3, [r7, #4]
 8001a10:	4a2a      	ldr	r2, [pc, #168]	; (8001abc <TIM_Base_SetConfig+0x120>)
 8001a12:	4293      	cmp	r3, r2
 8001a14:	d01b      	beq.n	8001a4e <TIM_Base_SetConfig+0xb2>
 8001a16:	687b      	ldr	r3, [r7, #4]
 8001a18:	4a29      	ldr	r2, [pc, #164]	; (8001ac0 <TIM_Base_SetConfig+0x124>)
 8001a1a:	4293      	cmp	r3, r2
 8001a1c:	d017      	beq.n	8001a4e <TIM_Base_SetConfig+0xb2>
 8001a1e:	687b      	ldr	r3, [r7, #4]
 8001a20:	4a28      	ldr	r2, [pc, #160]	; (8001ac4 <TIM_Base_SetConfig+0x128>)
 8001a22:	4293      	cmp	r3, r2
 8001a24:	d013      	beq.n	8001a4e <TIM_Base_SetConfig+0xb2>
 8001a26:	687b      	ldr	r3, [r7, #4]
 8001a28:	4a27      	ldr	r2, [pc, #156]	; (8001ac8 <TIM_Base_SetConfig+0x12c>)
 8001a2a:	4293      	cmp	r3, r2
 8001a2c:	d00f      	beq.n	8001a4e <TIM_Base_SetConfig+0xb2>
 8001a2e:	687b      	ldr	r3, [r7, #4]
 8001a30:	4a26      	ldr	r2, [pc, #152]	; (8001acc <TIM_Base_SetConfig+0x130>)
 8001a32:	4293      	cmp	r3, r2
 8001a34:	d00b      	beq.n	8001a4e <TIM_Base_SetConfig+0xb2>
 8001a36:	687b      	ldr	r3, [r7, #4]
 8001a38:	4a25      	ldr	r2, [pc, #148]	; (8001ad0 <TIM_Base_SetConfig+0x134>)
 8001a3a:	4293      	cmp	r3, r2
 8001a3c:	d007      	beq.n	8001a4e <TIM_Base_SetConfig+0xb2>
 8001a3e:	687b      	ldr	r3, [r7, #4]
 8001a40:	4a24      	ldr	r2, [pc, #144]	; (8001ad4 <TIM_Base_SetConfig+0x138>)
 8001a42:	4293      	cmp	r3, r2
 8001a44:	d003      	beq.n	8001a4e <TIM_Base_SetConfig+0xb2>
 8001a46:	687b      	ldr	r3, [r7, #4]
 8001a48:	4a23      	ldr	r2, [pc, #140]	; (8001ad8 <TIM_Base_SetConfig+0x13c>)
 8001a4a:	4293      	cmp	r3, r2
 8001a4c:	d108      	bne.n	8001a60 <TIM_Base_SetConfig+0xc4>
  {
    /* Set the clock division */
    tmpcr1 &= ~TIM_CR1_CKD;
 8001a4e:	68fb      	ldr	r3, [r7, #12]
 8001a50:	f423 7340 	bic.w	r3, r3, #768	; 0x300
 8001a54:	60fb      	str	r3, [r7, #12]
    tmpcr1 |= (uint32_t)Structure->ClockDivision;
 8001a56:	683b      	ldr	r3, [r7, #0]
 8001a58:	68db      	ldr	r3, [r3, #12]
 8001a5a:	68fa      	ldr	r2, [r7, #12]
 8001a5c:	4313      	orrs	r3, r2
 8001a5e:	60fb      	str	r3, [r7, #12]
  }

  /* Set the auto-reload preload */
  MODIFY_REG(tmpcr1, TIM_CR1_ARPE, Structure->AutoReloadPreload);
 8001a60:	68fb      	ldr	r3, [r7, #12]
 8001a62:	f023 0280 	bic.w	r2, r3, #128	; 0x80
 8001a66:	683b      	ldr	r3, [r7, #0]
 8001a68:	695b      	ldr	r3, [r3, #20]
 8001a6a:	4313      	orrs	r3, r2
 8001a6c:	60fb      	str	r3, [r7, #12]

  TIMx->CR1 = tmpcr1;
 8001a6e:	687b      	ldr	r3, [r7, #4]
 8001a70:	68fa      	ldr	r2, [r7, #12]
 8001a72:	601a      	str	r2, [r3, #0]

  /* Set the Autoreload value */
  TIMx->ARR = (uint32_t)Structure->Period ;
 8001a74:	683b      	ldr	r3, [r7, #0]
 8001a76:	689a      	ldr	r2, [r3, #8]
 8001a78:	687b      	ldr	r3, [r7, #4]
 8001a7a:	62da      	str	r2, [r3, #44]	; 0x2c

  /* Set the Prescaler value */
  TIMx->PSC = Structure->Prescaler;
 8001a7c:	683b      	ldr	r3, [r7, #0]
 8001a7e:	681a      	ldr	r2, [r3, #0]
 8001a80:	687b      	ldr	r3, [r7, #4]
 8001a82:	629a      	str	r2, [r3, #40]	; 0x28

  if (IS_TIM_REPETITION_COUNTER_INSTANCE(TIMx))
 8001a84:	687b      	ldr	r3, [r7, #4]
 8001a86:	4a0a      	ldr	r2, [pc, #40]	; (8001ab0 <TIM_Base_SetConfig+0x114>)
 8001a88:	4293      	cmp	r3, r2
 8001a8a:	d003      	beq.n	8001a94 <TIM_Base_SetConfig+0xf8>
 8001a8c:	687b      	ldr	r3, [r7, #4]
 8001a8e:	4a0c      	ldr	r2, [pc, #48]	; (8001ac0 <TIM_Base_SetConfig+0x124>)
 8001a90:	4293      	cmp	r3, r2
 8001a92:	d103      	bne.n	8001a9c <TIM_Base_SetConfig+0x100>
  {
    /* Set the Repetition Counter value */
    TIMx->RCR = Structure->RepetitionCounter;
 8001a94:	683b      	ldr	r3, [r7, #0]
 8001a96:	691a      	ldr	r2, [r3, #16]
 8001a98:	687b      	ldr	r3, [r7, #4]
 8001a9a:	631a      	str	r2, [r3, #48]	; 0x30
  }

  /* Generate an update event to reload the Prescaler
     and the repetition counter (only for advanced timer) value immediately */
  TIMx->EGR = TIM_EGR_UG;
 8001a9c:	687b      	ldr	r3, [r7, #4]
 8001a9e:	2201      	movs	r2, #1
 8001aa0:	615a      	str	r2, [r3, #20]
}
 8001aa2:	bf00      	nop
 8001aa4:	3714      	adds	r7, #20
 8001aa6:	46bd      	mov	sp, r7
 8001aa8:	f85d 7b04 	ldr.w	r7, [sp], #4
 8001aac:	4770      	bx	lr
 8001aae:	bf00      	nop
 8001ab0:	40010000 	.word	0x40010000
 8001ab4:	40000400 	.word	0x40000400
 8001ab8:	40000800 	.word	0x40000800
 8001abc:	40000c00 	.word	0x40000c00
 8001ac0:	40010400 	.word	0x40010400
 8001ac4:	40014000 	.word	0x40014000
 8001ac8:	40014400 	.word	0x40014400
 8001acc:	40014800 	.word	0x40014800
 8001ad0:	40001800 	.word	0x40001800
 8001ad4:	40001c00 	.word	0x40001c00
 8001ad8:	40002000 	.word	0x40002000

08001adc <HAL_TIMEx_CommutCallback>:
  * @brief  Hall commutation changed callback in non-blocking mode
  * @param  htim TIM handle
  * @retval None
  */
__weak void HAL_TIMEx_CommutCallback(TIM_HandleTypeDef *htim)
{
 8001adc:	b480      	push	{r7}
 8001ade:	b083      	sub	sp, #12
 8001ae0:	af00      	add	r7, sp, #0
 8001ae2:	6078      	str	r0, [r7, #4]
  UNUSED(htim);

  /* NOTE : This function should not be modified, when the callback is needed,
            the HAL_TIMEx_CommutCallback could be implemented in the user file
   */
}
 8001ae4:	bf00      	nop
 8001ae6:	370c      	adds	r7, #12
 8001ae8:	46bd      	mov	sp, r7
 8001aea:	f85d 7b04 	ldr.w	r7, [sp], #4
 8001aee:	4770      	bx	lr

08001af0 <HAL_TIMEx_BreakCallback>:
  * @brief  Hall Break detection callback in non-blocking mode
  * @param  htim TIM handle
  * @retval None
  */
__weak void HAL_TIMEx_BreakCallback(TIM_HandleTypeDef *htim)
{
 8001af0:	b480      	push	{r7}
 8001af2:	b083      	sub	sp, #12
 8001af4:	af00      	add	r7, sp, #0
 8001af6:	6078      	str	r0, [r7, #4]
  UNUSED(htim);

  /* NOTE : This function should not be modified, when the callback is needed,
            the HAL_TIMEx_BreakCallback could be implemented in the user file
   */
}
 8001af8:	bf00      	nop
 8001afa:	370c      	adds	r7, #12
 8001afc:	46bd      	mov	sp, r7
 8001afe:	f85d 7b04 	ldr.w	r7, [sp], #4
 8001b02:	4770      	bx	lr

08001b04 <__libc_init_array>:
 8001b04:	b570      	push	{r4, r5, r6, lr}
 8001b06:	4e0d      	ldr	r6, [pc, #52]	; (8001b3c <__libc_init_array+0x38>)
 8001b08:	4c0d      	ldr	r4, [pc, #52]	; (8001b40 <__libc_init_array+0x3c>)
 8001b0a:	1ba4      	subs	r4, r4, r6
 8001b0c:	10a4      	asrs	r4, r4, #2
 8001b0e:	2500      	movs	r5, #0
 8001b10:	42a5      	cmp	r5, r4
 8001b12:	d109      	bne.n	8001b28 <__libc_init_array+0x24>
 8001b14:	4e0b      	ldr	r6, [pc, #44]	; (8001b44 <__libc_init_array+0x40>)
 8001b16:	4c0c      	ldr	r4, [pc, #48]	; (8001b48 <__libc_init_array+0x44>)
 8001b18:	f000 f818 	bl	8001b4c <_init>
 8001b1c:	1ba4      	subs	r4, r4, r6
 8001b1e:	10a4      	asrs	r4, r4, #2
 8001b20:	2500      	movs	r5, #0
 8001b22:	42a5      	cmp	r5, r4
 8001b24:	d105      	bne.n	8001b32 <__libc_init_array+0x2e>
 8001b26:	bd70      	pop	{r4, r5, r6, pc}
 8001b28:	f856 3025 	ldr.w	r3, [r6, r5, lsl #2]
 8001b2c:	4798      	blx	r3
 8001b2e:	3501      	adds	r5, #1
 8001b30:	e7ee      	b.n	8001b10 <__libc_init_array+0xc>
 8001b32:	f856 3025 	ldr.w	r3, [r6, r5, lsl #2]
 8001b36:	4798      	blx	r3
 8001b38:	3501      	adds	r5, #1
 8001b3a:	e7f2      	b.n	8001b22 <__libc_init_array+0x1e>
 8001b3c:	08001b7c 	.word	0x08001b7c
 8001b40:	08001b7c 	.word	0x08001b7c
 8001b44:	08001b7c 	.word	0x08001b7c
 8001b48:	08001b80 	.word	0x08001b80

08001b4c <_init>:
 8001b4c:	b5f8      	push	{r3, r4, r5, r6, r7, lr}
 8001b4e:	bf00      	nop
 8001b50:	bcf8      	pop	{r3, r4, r5, r6, r7}
 8001b52:	bc08      	pop	{r3}
 8001b54:	469e      	mov	lr, r3
 8001b56:	4770      	bx	lr

08001b58 <_fini>:
 8001b58:	b5f8      	push	{r3, r4, r5, r6, r7, lr}
 8001b5a:	bf00      	nop
 8001b5c:	bcf8      	pop	{r3, r4, r5, r6, r7}
 8001b5e:	bc08      	pop	{r3}
 8001b60:	469e      	mov	lr, r3
 8001b62:	4770      	bx	lr
