
007_timer_IC_1.elf:     file format elf32-littlearm

Sections:
Idx Name          Size      VMA       LMA       File off  Algn
  0 .isr_vector   00000188  08000000  08000000  00010000  2**0
                  CONTENTS, ALLOC, LOAD, READONLY, DATA
  1 .text         00001e2c  08000188  08000188  00010188  2**2
                  CONTENTS, ALLOC, LOAD, READONLY, CODE
  2 .rodata       00000010  08001fb4  08001fb4  00011fb4  2**2
                  CONTENTS, ALLOC, LOAD, READONLY, DATA
  3 .ARM.extab    00000000  08001fc4  08001fc4  0002000c  2**0
                  CONTENTS
  4 .ARM          00000008  08001fc4  08001fc4  00011fc4  2**2
                  CONTENTS, ALLOC, LOAD, READONLY, DATA
  5 .preinit_array 00000000  08001fcc  08001fcc  0002000c  2**0
                  CONTENTS, ALLOC, LOAD, DATA
  6 .init_array   00000004  08001fcc  08001fcc  00011fcc  2**2
                  CONTENTS, ALLOC, LOAD, DATA
  7 .fini_array   00000004  08001fd0  08001fd0  00011fd0  2**2
                  CONTENTS, ALLOC, LOAD, DATA
  8 .data         0000000c  20000000  08001fd4  00020000  2**2
                  CONTENTS, ALLOC, LOAD, DATA
  9 .bss          00000070  2000000c  08001fe0  0002000c  2**2
                  ALLOC
 10 ._user_heap_stack 00000604  2000007c  08001fe0  0002007c  2**0
                  ALLOC
 11 .ARM.attributes 00000030  00000000  00000000  0002000c  2**0
                  CONTENTS, READONLY
 12 .debug_info   00008a79  00000000  00000000  0002003c  2**0
                  CONTENTS, READONLY, DEBUGGING
 13 .debug_abbrev 0000137a  00000000  00000000  00028ab5  2**0
                  CONTENTS, READONLY, DEBUGGING
 14 .debug_aranges 000008c8  00000000  00000000  00029e30  2**3
                  CONTENTS, READONLY, DEBUGGING
 15 .debug_ranges 00000820  00000000  00000000  0002a6f8  2**3
                  CONTENTS, READONLY, DEBUGGING
 16 .debug_macro  0002134a  00000000  00000000  0002af18  2**0
                  CONTENTS, READONLY, DEBUGGING
 17 .debug_line   00006e4d  00000000  00000000  0004c262  2**0
                  CONTENTS, READONLY, DEBUGGING
 18 .debug_str    000cbec7  00000000  00000000  000530af  2**0
                  CONTENTS, READONLY, DEBUGGING
 19 .comment      0000007b  00000000  00000000  0011ef76  2**0
                  CONTENTS, READONLY
 20 .debug_frame  00002438  00000000  00000000  0011eff4  2**2
                  CONTENTS, READONLY, DEBUGGING

Disassembly of section .text:

08000188 <__do_global_dtors_aux>:
 8000188:	b510      	push	{r4, lr}
 800018a:	4c05      	ldr	r4, [pc, #20]	; (80001a0 <__do_global_dtors_aux+0x18>)
 800018c:	7823      	ldrb	r3, [r4, #0]
 800018e:	b933      	cbnz	r3, 800019e <__do_global_dtors_aux+0x16>
 8000190:	4b04      	ldr	r3, [pc, #16]	; (80001a4 <__do_global_dtors_aux+0x1c>)
 8000192:	b113      	cbz	r3, 800019a <__do_global_dtors_aux+0x12>
 8000194:	4804      	ldr	r0, [pc, #16]	; (80001a8 <__do_global_dtors_aux+0x20>)
 8000196:	f3af 8000 	nop.w
 800019a:	2301      	movs	r3, #1
 800019c:	7023      	strb	r3, [r4, #0]
 800019e:	bd10      	pop	{r4, pc}
 80001a0:	2000000c 	.word	0x2000000c
 80001a4:	00000000 	.word	0x00000000
 80001a8:	08001f9c 	.word	0x08001f9c

080001ac <frame_dummy>:
 80001ac:	b508      	push	{r3, lr}
 80001ae:	4b03      	ldr	r3, [pc, #12]	; (80001bc <frame_dummy+0x10>)
 80001b0:	b11b      	cbz	r3, 80001ba <frame_dummy+0xe>
 80001b2:	4903      	ldr	r1, [pc, #12]	; (80001c0 <frame_dummy+0x14>)
 80001b4:	4803      	ldr	r0, [pc, #12]	; (80001c4 <frame_dummy+0x18>)
 80001b6:	f3af 8000 	nop.w
 80001ba:	bd08      	pop	{r3, pc}
 80001bc:	00000000 	.word	0x00000000
 80001c0:	20000010 	.word	0x20000010
 80001c4:	08001f9c 	.word	0x08001f9c

080001c8 <__aeabi_uldivmod>:
 80001c8:	b953      	cbnz	r3, 80001e0 <__aeabi_uldivmod+0x18>
 80001ca:	b94a      	cbnz	r2, 80001e0 <__aeabi_uldivmod+0x18>
 80001cc:	2900      	cmp	r1, #0
 80001ce:	bf08      	it	eq
 80001d0:	2800      	cmpeq	r0, #0
 80001d2:	bf1c      	itt	ne
 80001d4:	f04f 31ff 	movne.w	r1, #4294967295
 80001d8:	f04f 30ff 	movne.w	r0, #4294967295
 80001dc:	f000 b972 	b.w	80004c4 <__aeabi_idiv0>
 80001e0:	f1ad 0c08 	sub.w	ip, sp, #8
 80001e4:	e96d ce04 	strd	ip, lr, [sp, #-16]!
 80001e8:	f000 f806 	bl	80001f8 <__udivmoddi4>
 80001ec:	f8dd e004 	ldr.w	lr, [sp, #4]
 80001f0:	e9dd 2302 	ldrd	r2, r3, [sp, #8]
 80001f4:	b004      	add	sp, #16
 80001f6:	4770      	bx	lr

080001f8 <__udivmoddi4>:
 80001f8:	e92d 47f0 	stmdb	sp!, {r4, r5, r6, r7, r8, r9, sl, lr}
 80001fc:	9e08      	ldr	r6, [sp, #32]
 80001fe:	4604      	mov	r4, r0
 8000200:	4688      	mov	r8, r1
 8000202:	2b00      	cmp	r3, #0
 8000204:	d14b      	bne.n	800029e <__udivmoddi4+0xa6>
 8000206:	428a      	cmp	r2, r1
 8000208:	4615      	mov	r5, r2
 800020a:	d967      	bls.n	80002dc <__udivmoddi4+0xe4>
 800020c:	fab2 f282 	clz	r2, r2
 8000210:	b14a      	cbz	r2, 8000226 <__udivmoddi4+0x2e>
 8000212:	f1c2 0720 	rsb	r7, r2, #32
 8000216:	fa01 f302 	lsl.w	r3, r1, r2
 800021a:	fa20 f707 	lsr.w	r7, r0, r7
 800021e:	4095      	lsls	r5, r2
 8000220:	ea47 0803 	orr.w	r8, r7, r3
 8000224:	4094      	lsls	r4, r2
 8000226:	ea4f 4e15 	mov.w	lr, r5, lsr #16
 800022a:	0c23      	lsrs	r3, r4, #16
 800022c:	fbb8 f7fe 	udiv	r7, r8, lr
 8000230:	fa1f fc85 	uxth.w	ip, r5
 8000234:	fb0e 8817 	mls	r8, lr, r7, r8
 8000238:	ea43 4308 	orr.w	r3, r3, r8, lsl #16
 800023c:	fb07 f10c 	mul.w	r1, r7, ip
 8000240:	4299      	cmp	r1, r3
 8000242:	d909      	bls.n	8000258 <__udivmoddi4+0x60>
 8000244:	18eb      	adds	r3, r5, r3
 8000246:	f107 30ff 	add.w	r0, r7, #4294967295
 800024a:	f080 811b 	bcs.w	8000484 <__udivmoddi4+0x28c>
 800024e:	4299      	cmp	r1, r3
 8000250:	f240 8118 	bls.w	8000484 <__udivmoddi4+0x28c>
 8000254:	3f02      	subs	r7, #2
 8000256:	442b      	add	r3, r5
 8000258:	1a5b      	subs	r3, r3, r1
 800025a:	b2a4      	uxth	r4, r4
 800025c:	fbb3 f0fe 	udiv	r0, r3, lr
 8000260:	fb0e 3310 	mls	r3, lr, r0, r3
 8000264:	ea44 4403 	orr.w	r4, r4, r3, lsl #16
 8000268:	fb00 fc0c 	mul.w	ip, r0, ip
 800026c:	45a4      	cmp	ip, r4
 800026e:	d909      	bls.n	8000284 <__udivmoddi4+0x8c>
 8000270:	192c      	adds	r4, r5, r4
 8000272:	f100 33ff 	add.w	r3, r0, #4294967295
 8000276:	f080 8107 	bcs.w	8000488 <__udivmoddi4+0x290>
 800027a:	45a4      	cmp	ip, r4
 800027c:	f240 8104 	bls.w	8000488 <__udivmoddi4+0x290>
 8000280:	3802      	subs	r0, #2
 8000282:	442c      	add	r4, r5
 8000284:	ea40 4007 	orr.w	r0, r0, r7, lsl #16
 8000288:	eba4 040c 	sub.w	r4, r4, ip
 800028c:	2700      	movs	r7, #0
 800028e:	b11e      	cbz	r6, 8000298 <__udivmoddi4+0xa0>
 8000290:	40d4      	lsrs	r4, r2
 8000292:	2300      	movs	r3, #0
 8000294:	e9c6 4300 	strd	r4, r3, [r6]
 8000298:	4639      	mov	r1, r7
 800029a:	e8bd 87f0 	ldmia.w	sp!, {r4, r5, r6, r7, r8, r9, sl, pc}
 800029e:	428b      	cmp	r3, r1
 80002a0:	d909      	bls.n	80002b6 <__udivmoddi4+0xbe>
 80002a2:	2e00      	cmp	r6, #0
 80002a4:	f000 80eb 	beq.w	800047e <__udivmoddi4+0x286>
 80002a8:	2700      	movs	r7, #0
 80002aa:	e9c6 0100 	strd	r0, r1, [r6]
 80002ae:	4638      	mov	r0, r7
 80002b0:	4639      	mov	r1, r7
 80002b2:	e8bd 87f0 	ldmia.w	sp!, {r4, r5, r6, r7, r8, r9, sl, pc}
 80002b6:	fab3 f783 	clz	r7, r3
 80002ba:	2f00      	cmp	r7, #0
 80002bc:	d147      	bne.n	800034e <__udivmoddi4+0x156>
 80002be:	428b      	cmp	r3, r1
 80002c0:	d302      	bcc.n	80002c8 <__udivmoddi4+0xd0>
 80002c2:	4282      	cmp	r2, r0
 80002c4:	f200 80fa 	bhi.w	80004bc <__udivmoddi4+0x2c4>
 80002c8:	1a84      	subs	r4, r0, r2
 80002ca:	eb61 0303 	sbc.w	r3, r1, r3
 80002ce:	2001      	movs	r0, #1
 80002d0:	4698      	mov	r8, r3
 80002d2:	2e00      	cmp	r6, #0
 80002d4:	d0e0      	beq.n	8000298 <__udivmoddi4+0xa0>
 80002d6:	e9c6 4800 	strd	r4, r8, [r6]
 80002da:	e7dd      	b.n	8000298 <__udivmoddi4+0xa0>
 80002dc:	b902      	cbnz	r2, 80002e0 <__udivmoddi4+0xe8>
 80002de:	deff      	udf	#255	; 0xff
 80002e0:	fab2 f282 	clz	r2, r2
 80002e4:	2a00      	cmp	r2, #0
 80002e6:	f040 808f 	bne.w	8000408 <__udivmoddi4+0x210>
 80002ea:	1b49      	subs	r1, r1, r5
 80002ec:	ea4f 4e15 	mov.w	lr, r5, lsr #16
 80002f0:	fa1f f885 	uxth.w	r8, r5
 80002f4:	2701      	movs	r7, #1
 80002f6:	fbb1 fcfe 	udiv	ip, r1, lr
 80002fa:	0c23      	lsrs	r3, r4, #16
 80002fc:	fb0e 111c 	mls	r1, lr, ip, r1
 8000300:	ea43 4301 	orr.w	r3, r3, r1, lsl #16
 8000304:	fb08 f10c 	mul.w	r1, r8, ip
 8000308:	4299      	cmp	r1, r3
 800030a:	d907      	bls.n	800031c <__udivmoddi4+0x124>
 800030c:	18eb      	adds	r3, r5, r3
 800030e:	f10c 30ff 	add.w	r0, ip, #4294967295
 8000312:	d202      	bcs.n	800031a <__udivmoddi4+0x122>
 8000314:	4299      	cmp	r1, r3
 8000316:	f200 80cd 	bhi.w	80004b4 <__udivmoddi4+0x2bc>
 800031a:	4684      	mov	ip, r0
 800031c:	1a59      	subs	r1, r3, r1
 800031e:	b2a3      	uxth	r3, r4
 8000320:	fbb1 f0fe 	udiv	r0, r1, lr
 8000324:	fb0e 1410 	mls	r4, lr, r0, r1
 8000328:	ea43 4404 	orr.w	r4, r3, r4, lsl #16
 800032c:	fb08 f800 	mul.w	r8, r8, r0
 8000330:	45a0      	cmp	r8, r4
 8000332:	d907      	bls.n	8000344 <__udivmoddi4+0x14c>
 8000334:	192c      	adds	r4, r5, r4
 8000336:	f100 33ff 	add.w	r3, r0, #4294967295
 800033a:	d202      	bcs.n	8000342 <__udivmoddi4+0x14a>
 800033c:	45a0      	cmp	r8, r4
 800033e:	f200 80b6 	bhi.w	80004ae <__udivmoddi4+0x2b6>
 8000342:	4618      	mov	r0, r3
 8000344:	eba4 0408 	sub.w	r4, r4, r8
 8000348:	ea40 400c 	orr.w	r0, r0, ip, lsl #16
 800034c:	e79f      	b.n	800028e <__udivmoddi4+0x96>
 800034e:	f1c7 0c20 	rsb	ip, r7, #32
 8000352:	40bb      	lsls	r3, r7
 8000354:	fa22 fe0c 	lsr.w	lr, r2, ip
 8000358:	ea4e 0e03 	orr.w	lr, lr, r3
 800035c:	fa01 f407 	lsl.w	r4, r1, r7
 8000360:	fa20 f50c 	lsr.w	r5, r0, ip
 8000364:	fa21 f30c 	lsr.w	r3, r1, ip
 8000368:	ea4f 481e 	mov.w	r8, lr, lsr #16
 800036c:	4325      	orrs	r5, r4
 800036e:	fbb3 f9f8 	udiv	r9, r3, r8
 8000372:	0c2c      	lsrs	r4, r5, #16
 8000374:	fb08 3319 	mls	r3, r8, r9, r3
 8000378:	fa1f fa8e 	uxth.w	sl, lr
 800037c:	ea44 4303 	orr.w	r3, r4, r3, lsl #16
 8000380:	fb09 f40a 	mul.w	r4, r9, sl
 8000384:	429c      	cmp	r4, r3
 8000386:	fa02 f207 	lsl.w	r2, r2, r7
 800038a:	fa00 f107 	lsl.w	r1, r0, r7
 800038e:	d90b      	bls.n	80003a8 <__udivmoddi4+0x1b0>
 8000390:	eb1e 0303 	adds.w	r3, lr, r3
 8000394:	f109 30ff 	add.w	r0, r9, #4294967295
 8000398:	f080 8087 	bcs.w	80004aa <__udivmoddi4+0x2b2>
 800039c:	429c      	cmp	r4, r3
 800039e:	f240 8084 	bls.w	80004aa <__udivmoddi4+0x2b2>
 80003a2:	f1a9 0902 	sub.w	r9, r9, #2
 80003a6:	4473      	add	r3, lr
 80003a8:	1b1b      	subs	r3, r3, r4
 80003aa:	b2ad      	uxth	r5, r5
 80003ac:	fbb3 f0f8 	udiv	r0, r3, r8
 80003b0:	fb08 3310 	mls	r3, r8, r0, r3
 80003b4:	ea45 4403 	orr.w	r4, r5, r3, lsl #16
 80003b8:	fb00 fa0a 	mul.w	sl, r0, sl
 80003bc:	45a2      	cmp	sl, r4
 80003be:	d908      	bls.n	80003d2 <__udivmoddi4+0x1da>
 80003c0:	eb1e 0404 	adds.w	r4, lr, r4
 80003c4:	f100 33ff 	add.w	r3, r0, #4294967295
 80003c8:	d26b      	bcs.n	80004a2 <__udivmoddi4+0x2aa>
 80003ca:	45a2      	cmp	sl, r4
 80003cc:	d969      	bls.n	80004a2 <__udivmoddi4+0x2aa>
 80003ce:	3802      	subs	r0, #2
 80003d0:	4474      	add	r4, lr
 80003d2:	ea40 4009 	orr.w	r0, r0, r9, lsl #16
 80003d6:	fba0 8902 	umull	r8, r9, r0, r2
 80003da:	eba4 040a 	sub.w	r4, r4, sl
 80003de:	454c      	cmp	r4, r9
 80003e0:	46c2      	mov	sl, r8
 80003e2:	464b      	mov	r3, r9
 80003e4:	d354      	bcc.n	8000490 <__udivmoddi4+0x298>
 80003e6:	d051      	beq.n	800048c <__udivmoddi4+0x294>
 80003e8:	2e00      	cmp	r6, #0
 80003ea:	d069      	beq.n	80004c0 <__udivmoddi4+0x2c8>
 80003ec:	ebb1 050a 	subs.w	r5, r1, sl
 80003f0:	eb64 0403 	sbc.w	r4, r4, r3
 80003f4:	fa04 fc0c 	lsl.w	ip, r4, ip
 80003f8:	40fd      	lsrs	r5, r7
 80003fa:	40fc      	lsrs	r4, r7
 80003fc:	ea4c 0505 	orr.w	r5, ip, r5
 8000400:	e9c6 5400 	strd	r5, r4, [r6]
 8000404:	2700      	movs	r7, #0
 8000406:	e747      	b.n	8000298 <__udivmoddi4+0xa0>
 8000408:	f1c2 0320 	rsb	r3, r2, #32
 800040c:	fa20 f703 	lsr.w	r7, r0, r3
 8000410:	4095      	lsls	r5, r2
 8000412:	fa01 f002 	lsl.w	r0, r1, r2
 8000416:	fa21 f303 	lsr.w	r3, r1, r3
 800041a:	ea4f 4e15 	mov.w	lr, r5, lsr #16
 800041e:	4338      	orrs	r0, r7
 8000420:	0c01      	lsrs	r1, r0, #16
 8000422:	fbb3 f7fe 	udiv	r7, r3, lr
 8000426:	fa1f f885 	uxth.w	r8, r5
 800042a:	fb0e 3317 	mls	r3, lr, r7, r3
 800042e:	ea41 4103 	orr.w	r1, r1, r3, lsl #16
 8000432:	fb07 f308 	mul.w	r3, r7, r8
 8000436:	428b      	cmp	r3, r1
 8000438:	fa04 f402 	lsl.w	r4, r4, r2
 800043c:	d907      	bls.n	800044e <__udivmoddi4+0x256>
 800043e:	1869      	adds	r1, r5, r1
 8000440:	f107 3cff 	add.w	ip, r7, #4294967295
 8000444:	d22f      	bcs.n	80004a6 <__udivmoddi4+0x2ae>
 8000446:	428b      	cmp	r3, r1
 8000448:	d92d      	bls.n	80004a6 <__udivmoddi4+0x2ae>
 800044a:	3f02      	subs	r7, #2
 800044c:	4429      	add	r1, r5
 800044e:	1acb      	subs	r3, r1, r3
 8000450:	b281      	uxth	r1, r0
 8000452:	fbb3 f0fe 	udiv	r0, r3, lr
 8000456:	fb0e 3310 	mls	r3, lr, r0, r3
 800045a:	ea41 4103 	orr.w	r1, r1, r3, lsl #16
 800045e:	fb00 f308 	mul.w	r3, r0, r8
 8000462:	428b      	cmp	r3, r1
 8000464:	d907      	bls.n	8000476 <__udivmoddi4+0x27e>
 8000466:	1869      	adds	r1, r5, r1
 8000468:	f100 3cff 	add.w	ip, r0, #4294967295
 800046c:	d217      	bcs.n	800049e <__udivmoddi4+0x2a6>
 800046e:	428b      	cmp	r3, r1
 8000470:	d915      	bls.n	800049e <__udivmoddi4+0x2a6>
 8000472:	3802      	subs	r0, #2
 8000474:	4429      	add	r1, r5
 8000476:	1ac9      	subs	r1, r1, r3
 8000478:	ea40 4707 	orr.w	r7, r0, r7, lsl #16
 800047c:	e73b      	b.n	80002f6 <__udivmoddi4+0xfe>
 800047e:	4637      	mov	r7, r6
 8000480:	4630      	mov	r0, r6
 8000482:	e709      	b.n	8000298 <__udivmoddi4+0xa0>
 8000484:	4607      	mov	r7, r0
 8000486:	e6e7      	b.n	8000258 <__udivmoddi4+0x60>
 8000488:	4618      	mov	r0, r3
 800048a:	e6fb      	b.n	8000284 <__udivmoddi4+0x8c>
 800048c:	4541      	cmp	r1, r8
 800048e:	d2ab      	bcs.n	80003e8 <__udivmoddi4+0x1f0>
 8000490:	ebb8 0a02 	subs.w	sl, r8, r2
 8000494:	eb69 020e 	sbc.w	r2, r9, lr
 8000498:	3801      	subs	r0, #1
 800049a:	4613      	mov	r3, r2
 800049c:	e7a4      	b.n	80003e8 <__udivmoddi4+0x1f0>
 800049e:	4660      	mov	r0, ip
 80004a0:	e7e9      	b.n	8000476 <__udivmoddi4+0x27e>
 80004a2:	4618      	mov	r0, r3
 80004a4:	e795      	b.n	80003d2 <__udivmoddi4+0x1da>
 80004a6:	4667      	mov	r7, ip
 80004a8:	e7d1      	b.n	800044e <__udivmoddi4+0x256>
 80004aa:	4681      	mov	r9, r0
 80004ac:	e77c      	b.n	80003a8 <__udivmoddi4+0x1b0>
 80004ae:	3802      	subs	r0, #2
 80004b0:	442c      	add	r4, r5
 80004b2:	e747      	b.n	8000344 <__udivmoddi4+0x14c>
 80004b4:	f1ac 0c02 	sub.w	ip, ip, #2
 80004b8:	442b      	add	r3, r5
 80004ba:	e72f      	b.n	800031c <__udivmoddi4+0x124>
 80004bc:	4638      	mov	r0, r7
 80004be:	e708      	b.n	80002d2 <__udivmoddi4+0xda>
 80004c0:	4637      	mov	r7, r6
 80004c2:	e6e9      	b.n	8000298 <__udivmoddi4+0xa0>

080004c4 <__aeabi_idiv0>:
 80004c4:	4770      	bx	lr
 80004c6:	bf00      	nop

080004c8 <SysTick_Handler>:
#include "main.h"


extern TIM_HandleTypeDef htimer2;
void SysTick_Handler (void)
{
 80004c8:	b580      	push	{r7, lr}
 80004ca:	af00      	add	r7, sp, #0
	HAL_IncTick();
 80004cc:	f000 f9ca 	bl	8000864 <HAL_IncTick>
	HAL_SYSTICK_IRQHandler();
 80004d0:	f000 fb16 	bl	8000b00 <HAL_SYSTICK_IRQHandler>
}
 80004d4:	bf00      	nop
 80004d6:	bd80      	pop	{r7, pc}

080004d8 <TIM2_IRQHandler>:

void TIM2_IRQHandler()
{
 80004d8:	b580      	push	{r7, lr}
 80004da:	af00      	add	r7, sp, #0
	HAL_TIM_IRQHandler(&htimer2);
 80004dc:	4802      	ldr	r0, [pc, #8]	; (80004e8 <TIM2_IRQHandler+0x10>)
 80004de:	f001 f984 	bl	80017ea <HAL_TIM_IRQHandler>
}
 80004e2:	bf00      	nop
 80004e4:	bd80      	pop	{r7, pc}
 80004e6:	bf00      	nop
 80004e8:	20000038 	.word	0x20000038

080004ec <main>:




int main (void)
{
 80004ec:	b580      	push	{r7, lr}
 80004ee:	af00      	add	r7, sp, #0



    HAL_Init();
 80004f0:	f000 f966 	bl	80007c0 <HAL_Init>
    SystemClock_Config();
 80004f4:	f000 f808 	bl	8000508 <SystemClock_Config>
    GPIO_inti();
 80004f8:	f000 f84c 	bl	8000594 <GPIO_inti>
    TIMER2_Init();
 80004fc:	f000 f876 	bl	80005ec <TIMER2_Init>
    LSE_configuration();
 8000500:	f000 f8a8 	bl	8000654 <LSE_configuration>
    while(1);
 8000504:	e7fe      	b.n	8000504 <main+0x18>
	...

08000508 <SystemClock_Config>:
return 0;
}


void SystemClock_Config()
{
 8000508:	b580      	push	{r7, lr}
 800050a:	b092      	sub	sp, #72	; 0x48
 800050c:	af00      	add	r7, sp, #0
	RCC_ClkInitTypeDef clk_init;


	//osc_init.OscillatorType     =RCC_OSCILLATORTYPE_HSE ;
	//osc_init.HSEState           =RCC_HSE_ON;
	osc_init.OscillatorType     =RCC_OSCILLATORTYPE_HSI ;
 800050e:	2302      	movs	r3, #2
 8000510:	61bb      	str	r3, [r7, #24]
	osc_init.HSIState           =RCC_HSI_ON;
 8000512:	2301      	movs	r3, #1
 8000514:	627b      	str	r3, [r7, #36]	; 0x24

	osc_init.HSICalibrationValue=RCC_HSICALIBRATION_DEFAULT;
 8000516:	2310      	movs	r3, #16
 8000518:	62bb      	str	r3, [r7, #40]	; 0x28
	osc_init.PLL.PLLState       =RCC_PLL_ON;
 800051a:	2302      	movs	r3, #2
 800051c:	633b      	str	r3, [r7, #48]	; 0x30
	osc_init.PLL.PLLSource      =RCC_PLLSOURCE_HSI;
 800051e:	2300      	movs	r3, #0
 8000520:	637b      	str	r3, [r7, #52]	; 0x34
	osc_init.PLL.PLLM           =16;
 8000522:	2310      	movs	r3, #16
 8000524:	63bb      	str	r3, [r7, #56]	; 0x38
	osc_init.PLL.PLLN           =100;
 8000526:	2364      	movs	r3, #100	; 0x64
 8000528:	63fb      	str	r3, [r7, #60]	; 0x3c
	osc_init.PLL.PLLP           =RCC_PLLP_DIV2;
 800052a:	2302      	movs	r3, #2
 800052c:	643b      	str	r3, [r7, #64]	; 0x40

	if (HAL_RCC_OscConfig(&osc_init)!= HAL_OK)
 800052e:	f107 0318 	add.w	r3, r7, #24
 8000532:	4618      	mov	r0, r3
 8000534:	f000 fc8c 	bl	8000e50 <HAL_RCC_OscConfig>
 8000538:	4603      	mov	r3, r0
 800053a:	2b00      	cmp	r3, #0
 800053c:	d001      	beq.n	8000542 <SystemClock_Config+0x3a>
	{
		Error_handler();
 800053e:	f000 f851 	bl	80005e4 <Error_handler>
	}

	clk_init.SYSCLKSource   = RCC_SYSCLKSOURCE_PLLCLK ;
 8000542:	2302      	movs	r3, #2
 8000544:	60bb      	str	r3, [r7, #8]
	clk_init.ClockType =  RCC_CLOCKTYPE_SYSCLK |RCC_CLOCKTYPE_HCLK |\
 8000546:	230f      	movs	r3, #15
 8000548:	607b      	str	r3, [r7, #4]
                           RCC_CLOCKTYPE_PCLK1 |RCC_CLOCKTYPE_PCLK2;
	clk_init.AHBCLKDivider  = RCC_SYSCLK_DIV1;
 800054a:	2300      	movs	r3, #0
 800054c:	60fb      	str	r3, [r7, #12]
    clk_init.APB1CLKDivider = RCC_HCLK_DIV2 ;
 800054e:	f44f 5380 	mov.w	r3, #4096	; 0x1000
 8000552:	613b      	str	r3, [r7, #16]
    clk_init.APB2CLKDivider = RCC_HCLK_DIV2 ;
 8000554:	f44f 5380 	mov.w	r3, #4096	; 0x1000
 8000558:	617b      	str	r3, [r7, #20]


	if (HAL_RCC_ClockConfig(&clk_init, FLASH_ACR_LATENCY_1WS)!= HAL_OK)
 800055a:	1d3b      	adds	r3, r7, #4
 800055c:	2101      	movs	r1, #1
 800055e:	4618      	mov	r0, r3
 8000560:	f000 fee6 	bl	8001330 <HAL_RCC_ClockConfig>
 8000564:	4603      	mov	r3, r0
 8000566:	2b00      	cmp	r3, #0
 8000568:	d001      	beq.n	800056e <SystemClock_Config+0x66>
	{
		Error_handler();
 800056a:	f000 f83b 	bl	80005e4 <Error_handler>

    /*--------------------------------configure systick
     *
     *
     */
    HAL_SYSTICK_Config(HAL_RCC_GetHCLKFreq()/1000);              //4mhz/1000   hclk /1ms
 800056e:	f001 f905 	bl	800177c <HAL_RCC_GetHCLKFreq>
 8000572:	4602      	mov	r2, r0
 8000574:	4b06      	ldr	r3, [pc, #24]	; (8000590 <SystemClock_Config+0x88>)
 8000576:	fba3 2302 	umull	r2, r3, r3, r2
 800057a:	099b      	lsrs	r3, r3, #6
 800057c:	4618      	mov	r0, r3
 800057e:	f000 fa96 	bl	8000aae <HAL_SYSTICK_Config>
    HAL_SYSTICK_CLKSourceConfig(SYSTICK_CLKSOURCE_HCLK);
 8000582:	2004      	movs	r0, #4
 8000584:	f000 faa0 	bl	8000ac8 <HAL_SYSTICK_CLKSourceConfig>
}
 8000588:	bf00      	nop
 800058a:	3748      	adds	r7, #72	; 0x48
 800058c:	46bd      	mov	sp, r7
 800058e:	bd80      	pop	{r7, pc}
 8000590:	10624dd3 	.word	0x10624dd3

08000594 <GPIO_inti>:


void GPIO_inti()
{
 8000594:	b580      	push	{r7, lr}
 8000596:	b086      	sub	sp, #24
 8000598:	af00      	add	r7, sp, #0
	__HAL_RCC_GPIOD_CLK_ENABLE();
 800059a:	2300      	movs	r3, #0
 800059c:	603b      	str	r3, [r7, #0]
 800059e:	4b0f      	ldr	r3, [pc, #60]	; (80005dc <GPIO_inti+0x48>)
 80005a0:	6b1b      	ldr	r3, [r3, #48]	; 0x30
 80005a2:	4a0e      	ldr	r2, [pc, #56]	; (80005dc <GPIO_inti+0x48>)
 80005a4:	f043 0308 	orr.w	r3, r3, #8
 80005a8:	6313      	str	r3, [r2, #48]	; 0x30
 80005aa:	4b0c      	ldr	r3, [pc, #48]	; (80005dc <GPIO_inti+0x48>)
 80005ac:	6b1b      	ldr	r3, [r3, #48]	; 0x30
 80005ae:	f003 0308 	and.w	r3, r3, #8
 80005b2:	603b      	str	r3, [r7, #0]
 80005b4:	683b      	ldr	r3, [r7, #0]
	GPIO_InitTypeDef ledgpio;
	ledgpio.Mode =GPIO_MODE_OUTPUT_PP;
 80005b6:	2301      	movs	r3, #1
 80005b8:	60bb      	str	r3, [r7, #8]
	ledgpio.Pin  =GPIO_PIN_12;
 80005ba:	f44f 5380 	mov.w	r3, #4096	; 0x1000
 80005be:	607b      	str	r3, [r7, #4]
	ledgpio.Speed=GPIO_SPEED_FREQ_HIGH;
 80005c0:	2302      	movs	r3, #2
 80005c2:	613b      	str	r3, [r7, #16]
	ledgpio.Pull=GPIO_NOPULL;
 80005c4:	2300      	movs	r3, #0
 80005c6:	60fb      	str	r3, [r7, #12]

	HAL_GPIO_Init(GPIOD, &ledgpio);
 80005c8:	1d3b      	adds	r3, r7, #4
 80005ca:	4619      	mov	r1, r3
 80005cc:	4804      	ldr	r0, [pc, #16]	; (80005e0 <GPIO_inti+0x4c>)
 80005ce:	f000 faa5 	bl	8000b1c <HAL_GPIO_Init>
}
 80005d2:	bf00      	nop
 80005d4:	3718      	adds	r7, #24
 80005d6:	46bd      	mov	sp, r7
 80005d8:	bd80      	pop	{r7, pc}
 80005da:	bf00      	nop
 80005dc:	40023800 	.word	0x40023800
 80005e0:	40020c00 	.word	0x40020c00

080005e4 <Error_handler>:

void Error_handler()
{
 80005e4:	b480      	push	{r7}
 80005e6:	af00      	add	r7, sp, #0
	while(1);
 80005e8:	e7fe      	b.n	80005e8 <Error_handler+0x4>
	...

080005ec <TIMER2_Init>:
}



void TIMER2_Init()
{
 80005ec:	b580      	push	{r7, lr}
 80005ee:	af00      	add	r7, sp, #0
	htimer2.Instance         = TIM2;
 80005f0:	4b16      	ldr	r3, [pc, #88]	; (800064c <TIMER2_Init+0x60>)
 80005f2:	f04f 4280 	mov.w	r2, #1073741824	; 0x40000000
 80005f6:	601a      	str	r2, [r3, #0]
	htimer2.Init.CounterMode = TIM_COUNTERMODE_UP ;
 80005f8:	4b14      	ldr	r3, [pc, #80]	; (800064c <TIMER2_Init+0x60>)
 80005fa:	2200      	movs	r2, #0
 80005fc:	609a      	str	r2, [r3, #8]
	htimer2.Init.Period      = 0xFFFFFFFF;
 80005fe:	4b13      	ldr	r3, [pc, #76]	; (800064c <TIMER2_Init+0x60>)
 8000600:	f04f 32ff 	mov.w	r2, #4294967295
 8000604:	60da      	str	r2, [r3, #12]
	htimer2.Init.Prescaler   = 1;
 8000606:	4b11      	ldr	r3, [pc, #68]	; (800064c <TIMER2_Init+0x60>)
 8000608:	2201      	movs	r2, #1
 800060a:	605a      	str	r2, [r3, #4]

	if(HAL_TIM_IC_Init(&htimer2)!= HAL_OK)
 800060c:	480f      	ldr	r0, [pc, #60]	; (800064c <TIMER2_Init+0x60>)
 800060e:	f001 f8c1 	bl	8001794 <HAL_TIM_IC_Init>
 8000612:	4603      	mov	r3, r0
 8000614:	2b00      	cmp	r3, #0
 8000616:	d001      	beq.n	800061c <TIMER2_Init+0x30>
	{
		Error_handler();
 8000618:	f7ff ffe4 	bl	80005e4 <Error_handler>
	}

	timer2IC_Config.ICFilter    =0x0;                    //0000: No filter, sampling is done at fDTS
 800061c:	4b0c      	ldr	r3, [pc, #48]	; (8000650 <TIMER2_Init+0x64>)
 800061e:	2200      	movs	r2, #0
 8000620:	60da      	str	r2, [r3, #12]
	timer2IC_Config.ICPolarity  =TIM_ICPOLARITY_RISING ;
 8000622:	4b0b      	ldr	r3, [pc, #44]	; (8000650 <TIMER2_Init+0x64>)
 8000624:	2200      	movs	r2, #0
 8000626:	601a      	str	r2, [r3, #0]
	timer2IC_Config.ICPrescaler =TIM_ICPSC_DIV1  ;
 8000628:	4b09      	ldr	r3, [pc, #36]	; (8000650 <TIMER2_Init+0x64>)
 800062a:	2200      	movs	r2, #0
 800062c:	609a      	str	r2, [r3, #8]
	timer2IC_Config.ICSelection =TIM_ICSELECTION_DIRECTTI ;
 800062e:	4b08      	ldr	r3, [pc, #32]	; (8000650 <TIMER2_Init+0x64>)
 8000630:	2201      	movs	r2, #1
 8000632:	605a      	str	r2, [r3, #4]

	if(HAL_TIM_IC_ConfigChannel(&htimer2, &timer2IC_Config, TIM_CHANNEL_1)!= HAL_OK)
 8000634:	2200      	movs	r2, #0
 8000636:	4906      	ldr	r1, [pc, #24]	; (8000650 <TIMER2_Init+0x64>)
 8000638:	4804      	ldr	r0, [pc, #16]	; (800064c <TIMER2_Init+0x60>)
 800063a:	f001 f9de 	bl	80019fa <HAL_TIM_IC_ConfigChannel>
 800063e:	4603      	mov	r3, r0
 8000640:	2b00      	cmp	r3, #0
 8000642:	d001      	beq.n	8000648 <TIMER2_Init+0x5c>
	{
		Error_handler();
 8000644:	f7ff ffce 	bl	80005e4 <Error_handler>
	}
}
 8000648:	bf00      	nop
 800064a:	bd80      	pop	{r7, pc}
 800064c:	20000038 	.word	0x20000038
 8000650:	20000028 	.word	0x20000028

08000654 <LSE_configuration>:

// we dont have LSE on board
void LSE_configuration()
{
 8000654:	b580      	push	{r7, lr}
 8000656:	af00      	add	r7, sp, #0
	}
#endif
	//.now we take this signal to output on MCO1 pin8 of board

	  //50mhz PLL
	  HAL_RCC_MCOConfig(RCC_MCO1, RCC_MCO1SOURCE_PLLCLK, RCC_MCODIV_1);
 8000658:	2200      	movs	r2, #0
 800065a:	f44f 01c0 	mov.w	r1, #6291456	; 0x600000
 800065e:	2000      	movs	r0, #0
 8000660:	f000 ff4c 	bl	80014fc <HAL_RCC_MCOConfig>
	//16mhz HSI
	 // HAL_RCC_MCOConfig(RCC_MCO1, RCC_MCO1SOURCE_HSI, RCC_MCODIV_1);

	  //8mhz HSE
	  //HAL_RCC_MCOConfig(RCC_MCO1, RCC_MCO1SOURCE_HSE, RCC_MCODIV_1);
}
 8000664:	bf00      	nop
 8000666:	bd80      	pop	{r7, pc}

08000668 <HAL_MspInit>:
 *      Author: Developer
 */
#include "main.h"
#include "stm32f4xx_hal_gpio.h"
 void HAL_MspInit(void)
{
 8000668:	b580      	push	{r7, lr}
 800066a:	af00      	add	r7, sp, #0
  /* NOTE : This function should not be modified, when the callback is needed,
            the HAL_MspInit could be implemented in the user file
   */
	 //1.priority grouping
	 // we use default one it is under hal driver layer under hal_cortex.c
	 HAL_NVIC_SetPriorityGrouping(NVIC_PRIORITYGROUP_4);
 800066c:	2003      	movs	r0, #3
 800066e:	f000 f9e9 	bl	8000a44 <HAL_NVIC_SetPriorityGrouping>
	 //2.system exceptions
	 SCB->SHCSR |=SCB_SHCSR_USGFAULTENA_Msk ; //enable usage
 8000672:	4b13      	ldr	r3, [pc, #76]	; (80006c0 <HAL_MspInit+0x58>)
 8000674:	6a5b      	ldr	r3, [r3, #36]	; 0x24
 8000676:	4a12      	ldr	r2, [pc, #72]	; (80006c0 <HAL_MspInit+0x58>)
 8000678:	f443 2380 	orr.w	r3, r3, #262144	; 0x40000
 800067c:	6253      	str	r3, [r2, #36]	; 0x24
	 SCB->SHCSR |=SCB_SHCSR_BUSFAULTENA_Msk ; //mem
 800067e:	4b10      	ldr	r3, [pc, #64]	; (80006c0 <HAL_MspInit+0x58>)
 8000680:	6a5b      	ldr	r3, [r3, #36]	; 0x24
 8000682:	4a0f      	ldr	r2, [pc, #60]	; (80006c0 <HAL_MspInit+0x58>)
 8000684:	f443 3300 	orr.w	r3, r3, #131072	; 0x20000
 8000688:	6253      	str	r3, [r2, #36]	; 0x24
	 SCB->SHCSR |=SCB_SHCSR_MEMFAULTENA_Msk ; //bus
 800068a:	4b0d      	ldr	r3, [pc, #52]	; (80006c0 <HAL_MspInit+0x58>)
 800068c:	6a5b      	ldr	r3, [r3, #36]	; 0x24
 800068e:	4a0c      	ldr	r2, [pc, #48]	; (80006c0 <HAL_MspInit+0x58>)
 8000690:	f443 3380 	orr.w	r3, r3, #65536	; 0x10000
 8000694:	6253      	str	r3, [r2, #36]	; 0x24
	 //3.priority for system exceptions

	 HAL_NVIC_SetPriority(MemoryManagement_IRQn, 0, 0);
 8000696:	2200      	movs	r2, #0
 8000698:	2100      	movs	r1, #0
 800069a:	f06f 000b 	mvn.w	r0, #11
 800069e:	f000 f9dc 	bl	8000a5a <HAL_NVIC_SetPriority>
	 HAL_NVIC_SetPriority(BusFault_IRQn, 0, 0);
 80006a2:	2200      	movs	r2, #0
 80006a4:	2100      	movs	r1, #0
 80006a6:	f06f 000a 	mvn.w	r0, #10
 80006aa:	f000 f9d6 	bl	8000a5a <HAL_NVIC_SetPriority>
	 HAL_NVIC_SetPriority(UsageFault_IRQn, 0, 0);
 80006ae:	2200      	movs	r2, #0
 80006b0:	2100      	movs	r1, #0
 80006b2:	f06f 0009 	mvn.w	r0, #9
 80006b6:	f000 f9d0 	bl	8000a5a <HAL_NVIC_SetPriority>
}
 80006ba:	bf00      	nop
 80006bc:	bd80      	pop	{r7, pc}
 80006be:	bf00      	nop
 80006c0:	e000ed00 	.word	0xe000ed00

080006c4 <HAL_TIM_IC_MspInit>:


  void HAL_TIM_IC_MspInit(TIM_HandleTypeDef *htim)
 {
 80006c4:	b580      	push	{r7, lr}
 80006c6:	b08a      	sub	sp, #40	; 0x28
 80006c8:	af00      	add	r7, sp, #0
 80006ca:	6078      	str	r0, [r7, #4]
	  //1.enable clk
	  __HAL_RCC_TIM2_CLK_ENABLE();
 80006cc:	2300      	movs	r3, #0
 80006ce:	613b      	str	r3, [r7, #16]
 80006d0:	4b19      	ldr	r3, [pc, #100]	; (8000738 <HAL_TIM_IC_MspInit+0x74>)
 80006d2:	6c1b      	ldr	r3, [r3, #64]	; 0x40
 80006d4:	4a18      	ldr	r2, [pc, #96]	; (8000738 <HAL_TIM_IC_MspInit+0x74>)
 80006d6:	f043 0301 	orr.w	r3, r3, #1
 80006da:	6413      	str	r3, [r2, #64]	; 0x40
 80006dc:	4b16      	ldr	r3, [pc, #88]	; (8000738 <HAL_TIM_IC_MspInit+0x74>)
 80006de:	6c1b      	ldr	r3, [r3, #64]	; 0x40
 80006e0:	f003 0301 	and.w	r3, r3, #1
 80006e4:	613b      	str	r3, [r7, #16]
 80006e6:	693b      	ldr	r3, [r7, #16]
	  __HAL_RCC_GPIOA_CLK_ENABLE();
 80006e8:	2300      	movs	r3, #0
 80006ea:	60fb      	str	r3, [r7, #12]
 80006ec:	4b12      	ldr	r3, [pc, #72]	; (8000738 <HAL_TIM_IC_MspInit+0x74>)
 80006ee:	6b1b      	ldr	r3, [r3, #48]	; 0x30
 80006f0:	4a11      	ldr	r2, [pc, #68]	; (8000738 <HAL_TIM_IC_MspInit+0x74>)
 80006f2:	f043 0301 	orr.w	r3, r3, #1
 80006f6:	6313      	str	r3, [r2, #48]	; 0x30
 80006f8:	4b0f      	ldr	r3, [pc, #60]	; (8000738 <HAL_TIM_IC_MspInit+0x74>)
 80006fa:	6b1b      	ldr	r3, [r3, #48]	; 0x30
 80006fc:	f003 0301 	and.w	r3, r3, #1
 8000700:	60fb      	str	r3, [r7, #12]
 8000702:	68fb      	ldr	r3, [r7, #12]

	  //2. configure gpio to behave as tim2 channel 1
	  GPIO_InitTypeDef TIM2_ch1;
	  TIM2_ch1.Pin      =GPIO_PIN_15 ;
 8000704:	f44f 4300 	mov.w	r3, #32768	; 0x8000
 8000708:	617b      	str	r3, [r7, #20]
	  TIM2_ch1.Mode     =GPIO_MODE_AF_PP;
 800070a:	2302      	movs	r3, #2
 800070c:	61bb      	str	r3, [r7, #24]
	  TIM2_ch1.Alternate=GPIO_AF1_TIM2;
 800070e:	2301      	movs	r3, #1
 8000710:	627b      	str	r3, [r7, #36]	; 0x24
	  HAL_GPIO_Init(GPIOA,&TIM2_ch1);
 8000712:	f107 0314 	add.w	r3, r7, #20
 8000716:	4619      	mov	r1, r3
 8000718:	4808      	ldr	r0, [pc, #32]	; (800073c <HAL_TIM_IC_MspInit+0x78>)
 800071a:	f000 f9ff 	bl	8000b1c <HAL_GPIO_Init>

	  //3.nvic settings
	  HAL_NVIC_SetPriority(TIM2_IRQn, 15, 0);
 800071e:	2200      	movs	r2, #0
 8000720:	210f      	movs	r1, #15
 8000722:	201c      	movs	r0, #28
 8000724:	f000 f999 	bl	8000a5a <HAL_NVIC_SetPriority>
	  HAL_NVIC_EnableIRQ(TIM2_IRQn);
 8000728:	201c      	movs	r0, #28
 800072a:	f000 f9b2 	bl	8000a92 <HAL_NVIC_EnableIRQ>
 }
 800072e:	bf00      	nop
 8000730:	3728      	adds	r7, #40	; 0x28
 8000732:	46bd      	mov	sp, r7
 8000734:	bd80      	pop	{r7, pc}
 8000736:	bf00      	nop
 8000738:	40023800 	.word	0x40023800
 800073c:	40020000 	.word	0x40020000

08000740 <SystemInit>:
  *         configuration.
  * @param  None
  * @retval None
  */
void SystemInit(void)
{
 8000740:	b480      	push	{r7}
 8000742:	af00      	add	r7, sp, #0
  /* FPU settings ------------------------------------------------------------*/
  #if (__FPU_PRESENT == 1) && (__FPU_USED == 1)
    SCB->CPACR |= ((3UL << 10*2)|(3UL << 11*2));  /* set CP10 and CP11 Full Access */
 8000744:	4b08      	ldr	r3, [pc, #32]	; (8000768 <SystemInit+0x28>)
 8000746:	f8d3 3088 	ldr.w	r3, [r3, #136]	; 0x88
 800074a:	4a07      	ldr	r2, [pc, #28]	; (8000768 <SystemInit+0x28>)
 800074c:	f443 0370 	orr.w	r3, r3, #15728640	; 0xf00000
 8000750:	f8c2 3088 	str.w	r3, [r2, #136]	; 0x88

  /* Configure the Vector Table location add offset address ------------------*/
#ifdef VECT_TAB_SRAM
  SCB->VTOR = SRAM_BASE | VECT_TAB_OFFSET; /* Vector Table Relocation in Internal SRAM */
#else
  SCB->VTOR = FLASH_BASE | VECT_TAB_OFFSET; /* Vector Table Relocation in Internal FLASH */
 8000754:	4b04      	ldr	r3, [pc, #16]	; (8000768 <SystemInit+0x28>)
 8000756:	f04f 6200 	mov.w	r2, #134217728	; 0x8000000
 800075a:	609a      	str	r2, [r3, #8]
#endif
}
 800075c:	bf00      	nop
 800075e:	46bd      	mov	sp, r7
 8000760:	f85d 7b04 	ldr.w	r7, [sp], #4
 8000764:	4770      	bx	lr
 8000766:	bf00      	nop
 8000768:	e000ed00 	.word	0xe000ed00

0800076c <Reset_Handler>:

    .section  .text.Reset_Handler
  .weak  Reset_Handler
  .type  Reset_Handler, %function
Reset_Handler:  
  ldr   sp, =_estack     /* set stack pointer */
 800076c:	f8df d034 	ldr.w	sp, [pc, #52]	; 80007a4 <LoopFillZerobss+0x14>

/* Copy the data segment initializers from flash to SRAM */  
  movs  r1, #0
 8000770:	2100      	movs	r1, #0
  b  LoopCopyDataInit
 8000772:	e003      	b.n	800077c <LoopCopyDataInit>

08000774 <CopyDataInit>:

CopyDataInit:
  ldr  r3, =_sidata
 8000774:	4b0c      	ldr	r3, [pc, #48]	; (80007a8 <LoopFillZerobss+0x18>)
  ldr  r3, [r3, r1]
 8000776:	585b      	ldr	r3, [r3, r1]
  str  r3, [r0, r1]
 8000778:	5043      	str	r3, [r0, r1]
  adds  r1, r1, #4
 800077a:	3104      	adds	r1, #4

0800077c <LoopCopyDataInit>:
    
LoopCopyDataInit:
  ldr  r0, =_sdata
 800077c:	480b      	ldr	r0, [pc, #44]	; (80007ac <LoopFillZerobss+0x1c>)
  ldr  r3, =_edata
 800077e:	4b0c      	ldr	r3, [pc, #48]	; (80007b0 <LoopFillZerobss+0x20>)
  adds  r2, r0, r1
 8000780:	1842      	adds	r2, r0, r1
  cmp  r2, r3
 8000782:	429a      	cmp	r2, r3
  bcc  CopyDataInit
 8000784:	d3f6      	bcc.n	8000774 <CopyDataInit>
  ldr  r2, =_sbss
 8000786:	4a0b      	ldr	r2, [pc, #44]	; (80007b4 <LoopFillZerobss+0x24>)
  b  LoopFillZerobss
 8000788:	e002      	b.n	8000790 <LoopFillZerobss>

0800078a <FillZerobss>:
/* Zero fill the bss segment. */  
FillZerobss:
  movs  r3, #0
 800078a:	2300      	movs	r3, #0
  str  r3, [r2], #4
 800078c:	f842 3b04 	str.w	r3, [r2], #4

08000790 <LoopFillZerobss>:
    
LoopFillZerobss:
  ldr  r3, = _ebss
 8000790:	4b09      	ldr	r3, [pc, #36]	; (80007b8 <LoopFillZerobss+0x28>)
  cmp  r2, r3
 8000792:	429a      	cmp	r2, r3
  bcc  FillZerobss
 8000794:	d3f9      	bcc.n	800078a <FillZerobss>

/* Call the clock system intitialization function.*/
  bl  SystemInit   
 8000796:	f7ff ffd3 	bl	8000740 <SystemInit>
/* Call static constructors */
    bl __libc_init_array
 800079a:	f001 fbdb 	bl	8001f54 <__libc_init_array>
/* Call the application's entry point.*/
  bl  main
 800079e:	f7ff fea5 	bl	80004ec <main>
  bx  lr    
 80007a2:	4770      	bx	lr
  ldr   sp, =_estack     /* set stack pointer */
 80007a4:	20020000 	.word	0x20020000
  ldr  r3, =_sidata
 80007a8:	08001fd4 	.word	0x08001fd4
  ldr  r0, =_sdata
 80007ac:	20000000 	.word	0x20000000
  ldr  r3, =_edata
 80007b0:	2000000c 	.word	0x2000000c
  ldr  r2, =_sbss
 80007b4:	2000000c 	.word	0x2000000c
  ldr  r3, = _ebss
 80007b8:	2000007c 	.word	0x2000007c

080007bc <ADC_IRQHandler>:
 * @retval None       
*/
    .section  .text.Default_Handler,"ax",%progbits
Default_Handler:
Infinite_Loop:
  b  Infinite_Loop
 80007bc:	e7fe      	b.n	80007bc <ADC_IRQHandler>
	...

080007c0 <HAL_Init>:
  *         need to ensure that the SysTick time base is always set to 1 millisecond
  *         to have correct HAL operation.
  * @retval HAL status
  */
HAL_StatusTypeDef HAL_Init(void)
{
 80007c0:	b580      	push	{r7, lr}
 80007c2:	af00      	add	r7, sp, #0
  /* Configure Flash prefetch, Instruction cache, Data cache */ 
#if (INSTRUCTION_CACHE_ENABLE != 0U)
  __HAL_FLASH_INSTRUCTION_CACHE_ENABLE();
 80007c4:	4b0e      	ldr	r3, [pc, #56]	; (8000800 <HAL_Init+0x40>)
 80007c6:	681b      	ldr	r3, [r3, #0]
 80007c8:	4a0d      	ldr	r2, [pc, #52]	; (8000800 <HAL_Init+0x40>)
 80007ca:	f443 7300 	orr.w	r3, r3, #512	; 0x200
 80007ce:	6013      	str	r3, [r2, #0]
#endif /* INSTRUCTION_CACHE_ENABLE */

#if (DATA_CACHE_ENABLE != 0U)
  __HAL_FLASH_DATA_CACHE_ENABLE();
 80007d0:	4b0b      	ldr	r3, [pc, #44]	; (8000800 <HAL_Init+0x40>)
 80007d2:	681b      	ldr	r3, [r3, #0]
 80007d4:	4a0a      	ldr	r2, [pc, #40]	; (8000800 <HAL_Init+0x40>)
 80007d6:	f443 6380 	orr.w	r3, r3, #1024	; 0x400
 80007da:	6013      	str	r3, [r2, #0]
#endif /* DATA_CACHE_ENABLE */

#if (PREFETCH_ENABLE != 0U)
  __HAL_FLASH_PREFETCH_BUFFER_ENABLE();
 80007dc:	4b08      	ldr	r3, [pc, #32]	; (8000800 <HAL_Init+0x40>)
 80007de:	681b      	ldr	r3, [r3, #0]
 80007e0:	4a07      	ldr	r2, [pc, #28]	; (8000800 <HAL_Init+0x40>)
 80007e2:	f443 7380 	orr.w	r3, r3, #256	; 0x100
 80007e6:	6013      	str	r3, [r2, #0]
#endif /* PREFETCH_ENABLE */

  /* Set Interrupt Group Priority */
  HAL_NVIC_SetPriorityGrouping(NVIC_PRIORITYGROUP_4);
 80007e8:	2003      	movs	r0, #3
 80007ea:	f000 f92b 	bl	8000a44 <HAL_NVIC_SetPriorityGrouping>

  /* Use systick as time base source and configure 1ms tick (default clock after Reset is HSI) */
  HAL_InitTick(TICK_INT_PRIORITY);
 80007ee:	2000      	movs	r0, #0
 80007f0:	f000 f808 	bl	8000804 <HAL_InitTick>

  /* Init the low level hardware */
  HAL_MspInit();
 80007f4:	f7ff ff38 	bl	8000668 <HAL_MspInit>

  /* Return function status */
  return HAL_OK;
 80007f8:	2300      	movs	r3, #0
}
 80007fa:	4618      	mov	r0, r3
 80007fc:	bd80      	pop	{r7, pc}
 80007fe:	bf00      	nop
 8000800:	40023c00 	.word	0x40023c00

08000804 <HAL_InitTick>:
  *       implementation  in user file.
  * @param TickPriority Tick interrupt priority.
  * @retval HAL status
  */
__weak HAL_StatusTypeDef HAL_InitTick(uint32_t TickPriority)
{
 8000804:	b580      	push	{r7, lr}
 8000806:	b082      	sub	sp, #8
 8000808:	af00      	add	r7, sp, #0
 800080a:	6078      	str	r0, [r7, #4]
  /* Configure the SysTick to have interrupt in 1ms time basis*/
  if (HAL_SYSTICK_Config(SystemCoreClock / (1000U / uwTickFreq)) > 0U)
 800080c:	4b12      	ldr	r3, [pc, #72]	; (8000858 <HAL_InitTick+0x54>)
 800080e:	681a      	ldr	r2, [r3, #0]
 8000810:	4b12      	ldr	r3, [pc, #72]	; (800085c <HAL_InitTick+0x58>)
 8000812:	781b      	ldrb	r3, [r3, #0]
 8000814:	4619      	mov	r1, r3
 8000816:	f44f 737a 	mov.w	r3, #1000	; 0x3e8
 800081a:	fbb3 f3f1 	udiv	r3, r3, r1
 800081e:	fbb2 f3f3 	udiv	r3, r2, r3
 8000822:	4618      	mov	r0, r3
 8000824:	f000 f943 	bl	8000aae <HAL_SYSTICK_Config>
 8000828:	4603      	mov	r3, r0
 800082a:	2b00      	cmp	r3, #0
 800082c:	d001      	beq.n	8000832 <HAL_InitTick+0x2e>
  {
    return HAL_ERROR;
 800082e:	2301      	movs	r3, #1
 8000830:	e00e      	b.n	8000850 <HAL_InitTick+0x4c>
  }

  /* Configure the SysTick IRQ priority */
  if (TickPriority < (1UL << __NVIC_PRIO_BITS))
 8000832:	687b      	ldr	r3, [r7, #4]
 8000834:	2b0f      	cmp	r3, #15
 8000836:	d80a      	bhi.n	800084e <HAL_InitTick+0x4a>
  {
    HAL_NVIC_SetPriority(SysTick_IRQn, TickPriority, 0U);
 8000838:	2200      	movs	r2, #0
 800083a:	6879      	ldr	r1, [r7, #4]
 800083c:	f04f 30ff 	mov.w	r0, #4294967295
 8000840:	f000 f90b 	bl	8000a5a <HAL_NVIC_SetPriority>
    uwTickPrio = TickPriority;
 8000844:	4a06      	ldr	r2, [pc, #24]	; (8000860 <HAL_InitTick+0x5c>)
 8000846:	687b      	ldr	r3, [r7, #4]
 8000848:	6013      	str	r3, [r2, #0]
  {
    return HAL_ERROR;
  }

  /* Return function status */
  return HAL_OK;
 800084a:	2300      	movs	r3, #0
 800084c:	e000      	b.n	8000850 <HAL_InitTick+0x4c>
    return HAL_ERROR;
 800084e:	2301      	movs	r3, #1
}
 8000850:	4618      	mov	r0, r3
 8000852:	3708      	adds	r7, #8
 8000854:	46bd      	mov	sp, r7
 8000856:	bd80      	pop	{r7, pc}
 8000858:	20000000 	.word	0x20000000
 800085c:	20000008 	.word	0x20000008
 8000860:	20000004 	.word	0x20000004

08000864 <HAL_IncTick>:
 * @note This function is declared as __weak to be overwritten in case of other 
  *      implementations in user file.
  * @retval None
  */
__weak void HAL_IncTick(void)
{
 8000864:	b480      	push	{r7}
 8000866:	af00      	add	r7, sp, #0
  uwTick += uwTickFreq;
 8000868:	4b06      	ldr	r3, [pc, #24]	; (8000884 <HAL_IncTick+0x20>)
 800086a:	781b      	ldrb	r3, [r3, #0]
 800086c:	461a      	mov	r2, r3
 800086e:	4b06      	ldr	r3, [pc, #24]	; (8000888 <HAL_IncTick+0x24>)
 8000870:	681b      	ldr	r3, [r3, #0]
 8000872:	4413      	add	r3, r2
 8000874:	4a04      	ldr	r2, [pc, #16]	; (8000888 <HAL_IncTick+0x24>)
 8000876:	6013      	str	r3, [r2, #0]
}
 8000878:	bf00      	nop
 800087a:	46bd      	mov	sp, r7
 800087c:	f85d 7b04 	ldr.w	r7, [sp], #4
 8000880:	4770      	bx	lr
 8000882:	bf00      	nop
 8000884:	20000008 	.word	0x20000008
 8000888:	20000078 	.word	0x20000078

0800088c <HAL_GetTick>:
  * @note This function is declared as __weak to be overwritten in case of other 
  *       implementations in user file.
  * @retval tick value
  */
__weak uint32_t HAL_GetTick(void)
{
 800088c:	b480      	push	{r7}
 800088e:	af00      	add	r7, sp, #0
  return uwTick;
 8000890:	4b03      	ldr	r3, [pc, #12]	; (80008a0 <HAL_GetTick+0x14>)
 8000892:	681b      	ldr	r3, [r3, #0]
}
 8000894:	4618      	mov	r0, r3
 8000896:	46bd      	mov	sp, r7
 8000898:	f85d 7b04 	ldr.w	r7, [sp], #4
 800089c:	4770      	bx	lr
 800089e:	bf00      	nop
 80008a0:	20000078 	.word	0x20000078

080008a4 <__NVIC_SetPriorityGrouping>:
           In case of a conflict between priority grouping and available
           priority bits (__NVIC_PRIO_BITS), the smallest possible priority group is set.
  \param [in]      PriorityGroup  Priority grouping field.
 */
__STATIC_INLINE void __NVIC_SetPriorityGrouping(uint32_t PriorityGroup)
{
 80008a4:	b480      	push	{r7}
 80008a6:	b085      	sub	sp, #20
 80008a8:	af00      	add	r7, sp, #0
 80008aa:	6078      	str	r0, [r7, #4]
  uint32_t reg_value;
  uint32_t PriorityGroupTmp = (PriorityGroup & (uint32_t)0x07UL);             /* only values 0..7 are used          */
 80008ac:	687b      	ldr	r3, [r7, #4]
 80008ae:	f003 0307 	and.w	r3, r3, #7
 80008b2:	60fb      	str	r3, [r7, #12]

  reg_value  =  SCB->AIRCR;                                                   /* read old register configuration    */
 80008b4:	4b0c      	ldr	r3, [pc, #48]	; (80008e8 <__NVIC_SetPriorityGrouping+0x44>)
 80008b6:	68db      	ldr	r3, [r3, #12]
 80008b8:	60bb      	str	r3, [r7, #8]
  reg_value &= ~((uint32_t)(SCB_AIRCR_VECTKEY_Msk | SCB_AIRCR_PRIGROUP_Msk)); /* clear bits to change               */
 80008ba:	68ba      	ldr	r2, [r7, #8]
 80008bc:	f64f 03ff 	movw	r3, #63743	; 0xf8ff
 80008c0:	4013      	ands	r3, r2
 80008c2:	60bb      	str	r3, [r7, #8]
  reg_value  =  (reg_value                                   |
                ((uint32_t)0x5FAUL << SCB_AIRCR_VECTKEY_Pos) |
                (PriorityGroupTmp << SCB_AIRCR_PRIGROUP_Pos)  );              /* Insert write key and priority group */
 80008c4:	68fb      	ldr	r3, [r7, #12]
 80008c6:	021a      	lsls	r2, r3, #8
                ((uint32_t)0x5FAUL << SCB_AIRCR_VECTKEY_Pos) |
 80008c8:	68bb      	ldr	r3, [r7, #8]
 80008ca:	4313      	orrs	r3, r2
  reg_value  =  (reg_value                                   |
 80008cc:	f043 63bf 	orr.w	r3, r3, #100139008	; 0x5f80000
 80008d0:	f443 3300 	orr.w	r3, r3, #131072	; 0x20000
 80008d4:	60bb      	str	r3, [r7, #8]
  SCB->AIRCR =  reg_value;
 80008d6:	4a04      	ldr	r2, [pc, #16]	; (80008e8 <__NVIC_SetPriorityGrouping+0x44>)
 80008d8:	68bb      	ldr	r3, [r7, #8]
 80008da:	60d3      	str	r3, [r2, #12]
}
 80008dc:	bf00      	nop
 80008de:	3714      	adds	r7, #20
 80008e0:	46bd      	mov	sp, r7
 80008e2:	f85d 7b04 	ldr.w	r7, [sp], #4
 80008e6:	4770      	bx	lr
 80008e8:	e000ed00 	.word	0xe000ed00

080008ec <__NVIC_GetPriorityGrouping>:
  \brief   Get Priority Grouping
  \details Reads the priority grouping field from the NVIC Interrupt Controller.
  \return                Priority grouping field (SCB->AIRCR [10:8] PRIGROUP field).
 */
__STATIC_INLINE uint32_t __NVIC_GetPriorityGrouping(void)
{
 80008ec:	b480      	push	{r7}
 80008ee:	af00      	add	r7, sp, #0
  return ((uint32_t)((SCB->AIRCR & SCB_AIRCR_PRIGROUP_Msk) >> SCB_AIRCR_PRIGROUP_Pos));
 80008f0:	4b04      	ldr	r3, [pc, #16]	; (8000904 <__NVIC_GetPriorityGrouping+0x18>)
 80008f2:	68db      	ldr	r3, [r3, #12]
 80008f4:	0a1b      	lsrs	r3, r3, #8
 80008f6:	f003 0307 	and.w	r3, r3, #7
}
 80008fa:	4618      	mov	r0, r3
 80008fc:	46bd      	mov	sp, r7
 80008fe:	f85d 7b04 	ldr.w	r7, [sp], #4
 8000902:	4770      	bx	lr
 8000904:	e000ed00 	.word	0xe000ed00

08000908 <__NVIC_EnableIRQ>:
  \details Enables a device specific interrupt in the NVIC interrupt controller.
  \param [in]      IRQn  Device specific interrupt number.
  \note    IRQn must not be negative.
 */
__STATIC_INLINE void __NVIC_EnableIRQ(IRQn_Type IRQn)
{
 8000908:	b480      	push	{r7}
 800090a:	b083      	sub	sp, #12
 800090c:	af00      	add	r7, sp, #0
 800090e:	4603      	mov	r3, r0
 8000910:	71fb      	strb	r3, [r7, #7]
  if ((int32_t)(IRQn) >= 0)
 8000912:	f997 3007 	ldrsb.w	r3, [r7, #7]
 8000916:	2b00      	cmp	r3, #0
 8000918:	db0b      	blt.n	8000932 <__NVIC_EnableIRQ+0x2a>
  {
    NVIC->ISER[(((uint32_t)IRQn) >> 5UL)] = (uint32_t)(1UL << (((uint32_t)IRQn) & 0x1FUL));
 800091a:	79fb      	ldrb	r3, [r7, #7]
 800091c:	f003 021f 	and.w	r2, r3, #31
 8000920:	4907      	ldr	r1, [pc, #28]	; (8000940 <__NVIC_EnableIRQ+0x38>)
 8000922:	f997 3007 	ldrsb.w	r3, [r7, #7]
 8000926:	095b      	lsrs	r3, r3, #5
 8000928:	2001      	movs	r0, #1
 800092a:	fa00 f202 	lsl.w	r2, r0, r2
 800092e:	f841 2023 	str.w	r2, [r1, r3, lsl #2]
  }
}
 8000932:	bf00      	nop
 8000934:	370c      	adds	r7, #12
 8000936:	46bd      	mov	sp, r7
 8000938:	f85d 7b04 	ldr.w	r7, [sp], #4
 800093c:	4770      	bx	lr
 800093e:	bf00      	nop
 8000940:	e000e100 	.word	0xe000e100

08000944 <__NVIC_SetPriority>:
  \param [in]      IRQn  Interrupt number.
  \param [in]  priority  Priority to set.
  \note    The priority cannot be set for every processor exception.
 */
__STATIC_INLINE void __NVIC_SetPriority(IRQn_Type IRQn, uint32_t priority)
{
 8000944:	b480      	push	{r7}
 8000946:	b083      	sub	sp, #12
 8000948:	af00      	add	r7, sp, #0
 800094a:	4603      	mov	r3, r0
 800094c:	6039      	str	r1, [r7, #0]
 800094e:	71fb      	strb	r3, [r7, #7]
  if ((int32_t)(IRQn) >= 0)
 8000950:	f997 3007 	ldrsb.w	r3, [r7, #7]
 8000954:	2b00      	cmp	r3, #0
 8000956:	db0a      	blt.n	800096e <__NVIC_SetPriority+0x2a>
  {
    NVIC->IP[((uint32_t)IRQn)]               = (uint8_t)((priority << (8U - __NVIC_PRIO_BITS)) & (uint32_t)0xFFUL);
 8000958:	683b      	ldr	r3, [r7, #0]
 800095a:	b2da      	uxtb	r2, r3
 800095c:	490c      	ldr	r1, [pc, #48]	; (8000990 <__NVIC_SetPriority+0x4c>)
 800095e:	f997 3007 	ldrsb.w	r3, [r7, #7]
 8000962:	0112      	lsls	r2, r2, #4
 8000964:	b2d2      	uxtb	r2, r2
 8000966:	440b      	add	r3, r1
 8000968:	f883 2300 	strb.w	r2, [r3, #768]	; 0x300
  }
  else
  {
    SCB->SHP[(((uint32_t)IRQn) & 0xFUL)-4UL] = (uint8_t)((priority << (8U - __NVIC_PRIO_BITS)) & (uint32_t)0xFFUL);
  }
}
 800096c:	e00a      	b.n	8000984 <__NVIC_SetPriority+0x40>
    SCB->SHP[(((uint32_t)IRQn) & 0xFUL)-4UL] = (uint8_t)((priority << (8U - __NVIC_PRIO_BITS)) & (uint32_t)0xFFUL);
 800096e:	683b      	ldr	r3, [r7, #0]
 8000970:	b2da      	uxtb	r2, r3
 8000972:	4908      	ldr	r1, [pc, #32]	; (8000994 <__NVIC_SetPriority+0x50>)
 8000974:	79fb      	ldrb	r3, [r7, #7]
 8000976:	f003 030f 	and.w	r3, r3, #15
 800097a:	3b04      	subs	r3, #4
 800097c:	0112      	lsls	r2, r2, #4
 800097e:	b2d2      	uxtb	r2, r2
 8000980:	440b      	add	r3, r1
 8000982:	761a      	strb	r2, [r3, #24]
}
 8000984:	bf00      	nop
 8000986:	370c      	adds	r7, #12
 8000988:	46bd      	mov	sp, r7
 800098a:	f85d 7b04 	ldr.w	r7, [sp], #4
 800098e:	4770      	bx	lr
 8000990:	e000e100 	.word	0xe000e100
 8000994:	e000ed00 	.word	0xe000ed00

08000998 <NVIC_EncodePriority>:
  \param [in]   PreemptPriority  Preemptive priority value (starting from 0).
  \param [in]       SubPriority  Subpriority value (starting from 0).
  \return                        Encoded priority. Value can be used in the function \ref NVIC_SetPriority().
 */
__STATIC_INLINE uint32_t NVIC_EncodePriority (uint32_t PriorityGroup, uint32_t PreemptPriority, uint32_t SubPriority)
{
 8000998:	b480      	push	{r7}
 800099a:	b089      	sub	sp, #36	; 0x24
 800099c:	af00      	add	r7, sp, #0
 800099e:	60f8      	str	r0, [r7, #12]
 80009a0:	60b9      	str	r1, [r7, #8]
 80009a2:	607a      	str	r2, [r7, #4]
  uint32_t PriorityGroupTmp = (PriorityGroup & (uint32_t)0x07UL);   /* only values 0..7 are used          */
 80009a4:	68fb      	ldr	r3, [r7, #12]
 80009a6:	f003 0307 	and.w	r3, r3, #7
 80009aa:	61fb      	str	r3, [r7, #28]
  uint32_t PreemptPriorityBits;
  uint32_t SubPriorityBits;

  PreemptPriorityBits = ((7UL - PriorityGroupTmp) > (uint32_t)(__NVIC_PRIO_BITS)) ? (uint32_t)(__NVIC_PRIO_BITS) : (uint32_t)(7UL - PriorityGroupTmp);
 80009ac:	69fb      	ldr	r3, [r7, #28]
 80009ae:	f1c3 0307 	rsb	r3, r3, #7
 80009b2:	2b04      	cmp	r3, #4
 80009b4:	bf28      	it	cs
 80009b6:	2304      	movcs	r3, #4
 80009b8:	61bb      	str	r3, [r7, #24]
  SubPriorityBits     = ((PriorityGroupTmp + (uint32_t)(__NVIC_PRIO_BITS)) < (uint32_t)7UL) ? (uint32_t)0UL : (uint32_t)((PriorityGroupTmp - 7UL) + (uint32_t)(__NVIC_PRIO_BITS));
 80009ba:	69fb      	ldr	r3, [r7, #28]
 80009bc:	3304      	adds	r3, #4
 80009be:	2b06      	cmp	r3, #6
 80009c0:	d902      	bls.n	80009c8 <NVIC_EncodePriority+0x30>
 80009c2:	69fb      	ldr	r3, [r7, #28]
 80009c4:	3b03      	subs	r3, #3
 80009c6:	e000      	b.n	80009ca <NVIC_EncodePriority+0x32>
 80009c8:	2300      	movs	r3, #0
 80009ca:	617b      	str	r3, [r7, #20]

  return (
           ((PreemptPriority & (uint32_t)((1UL << (PreemptPriorityBits)) - 1UL)) << SubPriorityBits) |
 80009cc:	f04f 32ff 	mov.w	r2, #4294967295
 80009d0:	69bb      	ldr	r3, [r7, #24]
 80009d2:	fa02 f303 	lsl.w	r3, r2, r3
 80009d6:	43da      	mvns	r2, r3
 80009d8:	68bb      	ldr	r3, [r7, #8]
 80009da:	401a      	ands	r2, r3
 80009dc:	697b      	ldr	r3, [r7, #20]
 80009de:	409a      	lsls	r2, r3
           ((SubPriority     & (uint32_t)((1UL << (SubPriorityBits    )) - 1UL)))
 80009e0:	f04f 31ff 	mov.w	r1, #4294967295
 80009e4:	697b      	ldr	r3, [r7, #20]
 80009e6:	fa01 f303 	lsl.w	r3, r1, r3
 80009ea:	43d9      	mvns	r1, r3
 80009ec:	687b      	ldr	r3, [r7, #4]
 80009ee:	400b      	ands	r3, r1
           ((PreemptPriority & (uint32_t)((1UL << (PreemptPriorityBits)) - 1UL)) << SubPriorityBits) |
 80009f0:	4313      	orrs	r3, r2
         );
}
 80009f2:	4618      	mov	r0, r3
 80009f4:	3724      	adds	r7, #36	; 0x24
 80009f6:	46bd      	mov	sp, r7
 80009f8:	f85d 7b04 	ldr.w	r7, [sp], #4
 80009fc:	4770      	bx	lr
	...

08000a00 <SysTick_Config>:
  \note    When the variable <b>__Vendor_SysTickConfig</b> is set to 1, then the
           function <b>SysTick_Config</b> is not included. In this case, the file <b><i>device</i>.h</b>
           must contain a vendor-specific implementation of this function.
 */
__STATIC_INLINE uint32_t SysTick_Config(uint32_t ticks)
{
 8000a00:	b580      	push	{r7, lr}
 8000a02:	b082      	sub	sp, #8
 8000a04:	af00      	add	r7, sp, #0
 8000a06:	6078      	str	r0, [r7, #4]
  if ((ticks - 1UL) > SysTick_LOAD_RELOAD_Msk)
 8000a08:	687b      	ldr	r3, [r7, #4]
 8000a0a:	3b01      	subs	r3, #1
 8000a0c:	f1b3 7f80 	cmp.w	r3, #16777216	; 0x1000000
 8000a10:	d301      	bcc.n	8000a16 <SysTick_Config+0x16>
  {
    return (1UL);                                                   /* Reload value impossible */
 8000a12:	2301      	movs	r3, #1
 8000a14:	e00f      	b.n	8000a36 <SysTick_Config+0x36>
  }

  SysTick->LOAD  = (uint32_t)(ticks - 1UL);                         /* set reload register */
 8000a16:	4a0a      	ldr	r2, [pc, #40]	; (8000a40 <SysTick_Config+0x40>)
 8000a18:	687b      	ldr	r3, [r7, #4]
 8000a1a:	3b01      	subs	r3, #1
 8000a1c:	6053      	str	r3, [r2, #4]
  NVIC_SetPriority (SysTick_IRQn, (1UL << __NVIC_PRIO_BITS) - 1UL); /* set Priority for Systick Interrupt */
 8000a1e:	210f      	movs	r1, #15
 8000a20:	f04f 30ff 	mov.w	r0, #4294967295
 8000a24:	f7ff ff8e 	bl	8000944 <__NVIC_SetPriority>
  SysTick->VAL   = 0UL;                                             /* Load the SysTick Counter Value */
 8000a28:	4b05      	ldr	r3, [pc, #20]	; (8000a40 <SysTick_Config+0x40>)
 8000a2a:	2200      	movs	r2, #0
 8000a2c:	609a      	str	r2, [r3, #8]
  SysTick->CTRL  = SysTick_CTRL_CLKSOURCE_Msk |
 8000a2e:	4b04      	ldr	r3, [pc, #16]	; (8000a40 <SysTick_Config+0x40>)
 8000a30:	2207      	movs	r2, #7
 8000a32:	601a      	str	r2, [r3, #0]
                   SysTick_CTRL_TICKINT_Msk   |
                   SysTick_CTRL_ENABLE_Msk;                         /* Enable SysTick IRQ and SysTick Timer */
  return (0UL);                                                     /* Function successful */
 8000a34:	2300      	movs	r3, #0
}
 8000a36:	4618      	mov	r0, r3
 8000a38:	3708      	adds	r7, #8
 8000a3a:	46bd      	mov	sp, r7
 8000a3c:	bd80      	pop	{r7, pc}
 8000a3e:	bf00      	nop
 8000a40:	e000e010 	.word	0xe000e010

08000a44 <HAL_NVIC_SetPriorityGrouping>:
  * @note   When the NVIC_PriorityGroup_0 is selected, IRQ preemption is no more possible. 
  *         The pending IRQ priority will be managed only by the subpriority. 
  * @retval None
  */
void HAL_NVIC_SetPriorityGrouping(uint32_t PriorityGroup)
{
 8000a44:	b580      	push	{r7, lr}
 8000a46:	b082      	sub	sp, #8
 8000a48:	af00      	add	r7, sp, #0
 8000a4a:	6078      	str	r0, [r7, #4]
  /* Check the parameters */
  assert_param(IS_NVIC_PRIORITY_GROUP(PriorityGroup));
  
  /* Set the PRIGROUP[10:8] bits according to the PriorityGroup parameter value */
  NVIC_SetPriorityGrouping(PriorityGroup);
 8000a4c:	6878      	ldr	r0, [r7, #4]
 8000a4e:	f7ff ff29 	bl	80008a4 <__NVIC_SetPriorityGrouping>
}
 8000a52:	bf00      	nop
 8000a54:	3708      	adds	r7, #8
 8000a56:	46bd      	mov	sp, r7
 8000a58:	bd80      	pop	{r7, pc}

08000a5a <HAL_NVIC_SetPriority>:
  *         This parameter can be a value between 0 and 15
  *         A lower priority value indicates a higher priority.          
  * @retval None
  */
void HAL_NVIC_SetPriority(IRQn_Type IRQn, uint32_t PreemptPriority, uint32_t SubPriority)
{ 
 8000a5a:	b580      	push	{r7, lr}
 8000a5c:	b086      	sub	sp, #24
 8000a5e:	af00      	add	r7, sp, #0
 8000a60:	4603      	mov	r3, r0
 8000a62:	60b9      	str	r1, [r7, #8]
 8000a64:	607a      	str	r2, [r7, #4]
 8000a66:	73fb      	strb	r3, [r7, #15]
  uint32_t prioritygroup = 0x00U;
 8000a68:	2300      	movs	r3, #0
 8000a6a:	617b      	str	r3, [r7, #20]
  
  /* Check the parameters */
  assert_param(IS_NVIC_SUB_PRIORITY(SubPriority));
  assert_param(IS_NVIC_PREEMPTION_PRIORITY(PreemptPriority));
  
  prioritygroup = NVIC_GetPriorityGrouping();
 8000a6c:	f7ff ff3e 	bl	80008ec <__NVIC_GetPriorityGrouping>
 8000a70:	6178      	str	r0, [r7, #20]
  
  NVIC_SetPriority(IRQn, NVIC_EncodePriority(prioritygroup, PreemptPriority, SubPriority));
 8000a72:	687a      	ldr	r2, [r7, #4]
 8000a74:	68b9      	ldr	r1, [r7, #8]
 8000a76:	6978      	ldr	r0, [r7, #20]
 8000a78:	f7ff ff8e 	bl	8000998 <NVIC_EncodePriority>
 8000a7c:	4602      	mov	r2, r0
 8000a7e:	f997 300f 	ldrsb.w	r3, [r7, #15]
 8000a82:	4611      	mov	r1, r2
 8000a84:	4618      	mov	r0, r3
 8000a86:	f7ff ff5d 	bl	8000944 <__NVIC_SetPriority>
}
 8000a8a:	bf00      	nop
 8000a8c:	3718      	adds	r7, #24
 8000a8e:	46bd      	mov	sp, r7
 8000a90:	bd80      	pop	{r7, pc}

08000a92 <HAL_NVIC_EnableIRQ>:
  *         This parameter can be an enumerator of IRQn_Type enumeration
  *         (For the complete STM32 Devices IRQ Channels list, please refer to the appropriate CMSIS device file (stm32f4xxxx.h))
  * @retval None
  */
void HAL_NVIC_EnableIRQ(IRQn_Type IRQn)
{
 8000a92:	b580      	push	{r7, lr}
 8000a94:	b082      	sub	sp, #8
 8000a96:	af00      	add	r7, sp, #0
 8000a98:	4603      	mov	r3, r0
 8000a9a:	71fb      	strb	r3, [r7, #7]
  /* Check the parameters */
  assert_param(IS_NVIC_DEVICE_IRQ(IRQn));
  
  /* Enable interrupt */
  NVIC_EnableIRQ(IRQn);
 8000a9c:	f997 3007 	ldrsb.w	r3, [r7, #7]
 8000aa0:	4618      	mov	r0, r3
 8000aa2:	f7ff ff31 	bl	8000908 <__NVIC_EnableIRQ>
}
 8000aa6:	bf00      	nop
 8000aa8:	3708      	adds	r7, #8
 8000aaa:	46bd      	mov	sp, r7
 8000aac:	bd80      	pop	{r7, pc}

08000aae <HAL_SYSTICK_Config>:
  * @param  TicksNumb Specifies the ticks Number of ticks between two interrupts.
  * @retval status:  - 0  Function succeeded.
  *                  - 1  Function failed.
  */
uint32_t HAL_SYSTICK_Config(uint32_t TicksNumb)
{
 8000aae:	b580      	push	{r7, lr}
 8000ab0:	b082      	sub	sp, #8
 8000ab2:	af00      	add	r7, sp, #0
 8000ab4:	6078      	str	r0, [r7, #4]
   return SysTick_Config(TicksNumb);
 8000ab6:	6878      	ldr	r0, [r7, #4]
 8000ab8:	f7ff ffa2 	bl	8000a00 <SysTick_Config>
 8000abc:	4603      	mov	r3, r0
}
 8000abe:	4618      	mov	r0, r3
 8000ac0:	3708      	adds	r7, #8
 8000ac2:	46bd      	mov	sp, r7
 8000ac4:	bd80      	pop	{r7, pc}
	...

08000ac8 <HAL_SYSTICK_CLKSourceConfig>:
  *             @arg SYSTICK_CLKSOURCE_HCLK_DIV8: AHB clock divided by 8 selected as SysTick clock source.
  *             @arg SYSTICK_CLKSOURCE_HCLK: AHB clock selected as SysTick clock source.
  * @retval None
  */
void HAL_SYSTICK_CLKSourceConfig(uint32_t CLKSource)
{
 8000ac8:	b480      	push	{r7}
 8000aca:	b083      	sub	sp, #12
 8000acc:	af00      	add	r7, sp, #0
 8000ace:	6078      	str	r0, [r7, #4]
  /* Check the parameters */
  assert_param(IS_SYSTICK_CLK_SOURCE(CLKSource));
  if (CLKSource == SYSTICK_CLKSOURCE_HCLK)
 8000ad0:	687b      	ldr	r3, [r7, #4]
 8000ad2:	2b04      	cmp	r3, #4
 8000ad4:	d106      	bne.n	8000ae4 <HAL_SYSTICK_CLKSourceConfig+0x1c>
  {
    SysTick->CTRL |= SYSTICK_CLKSOURCE_HCLK;
 8000ad6:	4b09      	ldr	r3, [pc, #36]	; (8000afc <HAL_SYSTICK_CLKSourceConfig+0x34>)
 8000ad8:	681b      	ldr	r3, [r3, #0]
 8000ada:	4a08      	ldr	r2, [pc, #32]	; (8000afc <HAL_SYSTICK_CLKSourceConfig+0x34>)
 8000adc:	f043 0304 	orr.w	r3, r3, #4
 8000ae0:	6013      	str	r3, [r2, #0]
  }
  else
  {
    SysTick->CTRL &= ~SYSTICK_CLKSOURCE_HCLK;
  }
}
 8000ae2:	e005      	b.n	8000af0 <HAL_SYSTICK_CLKSourceConfig+0x28>
    SysTick->CTRL &= ~SYSTICK_CLKSOURCE_HCLK;
 8000ae4:	4b05      	ldr	r3, [pc, #20]	; (8000afc <HAL_SYSTICK_CLKSourceConfig+0x34>)
 8000ae6:	681b      	ldr	r3, [r3, #0]
 8000ae8:	4a04      	ldr	r2, [pc, #16]	; (8000afc <HAL_SYSTICK_CLKSourceConfig+0x34>)
 8000aea:	f023 0304 	bic.w	r3, r3, #4
 8000aee:	6013      	str	r3, [r2, #0]
}
 8000af0:	bf00      	nop
 8000af2:	370c      	adds	r7, #12
 8000af4:	46bd      	mov	sp, r7
 8000af6:	f85d 7b04 	ldr.w	r7, [sp], #4
 8000afa:	4770      	bx	lr
 8000afc:	e000e010 	.word	0xe000e010

08000b00 <HAL_SYSTICK_IRQHandler>:
/**
  * @brief  This function handles SYSTICK interrupt request.
  * @retval None
  */
void HAL_SYSTICK_IRQHandler(void)
{
 8000b00:	b580      	push	{r7, lr}
 8000b02:	af00      	add	r7, sp, #0
  HAL_SYSTICK_Callback();
 8000b04:	f000 f802 	bl	8000b0c <HAL_SYSTICK_Callback>
}
 8000b08:	bf00      	nop
 8000b0a:	bd80      	pop	{r7, pc}

08000b0c <HAL_SYSTICK_Callback>:
/**
  * @brief  SYSTICK callback.
  * @retval None
  */
__weak void HAL_SYSTICK_Callback(void)
{
 8000b0c:	b480      	push	{r7}
 8000b0e:	af00      	add	r7, sp, #0
  /* NOTE : This function Should not be modified, when the callback is needed,
            the HAL_SYSTICK_Callback could be implemented in the user file
   */
}
 8000b10:	bf00      	nop
 8000b12:	46bd      	mov	sp, r7
 8000b14:	f85d 7b04 	ldr.w	r7, [sp], #4
 8000b18:	4770      	bx	lr
	...

08000b1c <HAL_GPIO_Init>:
  * @param  GPIO_Init pointer to a GPIO_InitTypeDef structure that contains
  *         the configuration information for the specified GPIO peripheral.
  * @retval None
  */
void HAL_GPIO_Init(GPIO_TypeDef  *GPIOx, GPIO_InitTypeDef *GPIO_Init)
{
 8000b1c:	b480      	push	{r7}
 8000b1e:	b089      	sub	sp, #36	; 0x24
 8000b20:	af00      	add	r7, sp, #0
 8000b22:	6078      	str	r0, [r7, #4]
 8000b24:	6039      	str	r1, [r7, #0]
  uint32_t position;
  uint32_t ioposition = 0x00U;
 8000b26:	2300      	movs	r3, #0
 8000b28:	617b      	str	r3, [r7, #20]
  uint32_t iocurrent = 0x00U;
 8000b2a:	2300      	movs	r3, #0
 8000b2c:	613b      	str	r3, [r7, #16]
  uint32_t temp = 0x00U;
 8000b2e:	2300      	movs	r3, #0
 8000b30:	61bb      	str	r3, [r7, #24]
  assert_param(IS_GPIO_PIN(GPIO_Init->Pin));
  assert_param(IS_GPIO_MODE(GPIO_Init->Mode));
  assert_param(IS_GPIO_PULL(GPIO_Init->Pull));

  /* Configure the port pins */
  for(position = 0U; position < GPIO_NUMBER; position++)
 8000b32:	2300      	movs	r3, #0
 8000b34:	61fb      	str	r3, [r7, #28]
 8000b36:	e16b      	b.n	8000e10 <HAL_GPIO_Init+0x2f4>
  {
    /* Get the IO position */
    ioposition = 0x01U << position;
 8000b38:	2201      	movs	r2, #1
 8000b3a:	69fb      	ldr	r3, [r7, #28]
 8000b3c:	fa02 f303 	lsl.w	r3, r2, r3
 8000b40:	617b      	str	r3, [r7, #20]
    /* Get the current IO position */
    iocurrent = (uint32_t)(GPIO_Init->Pin) & ioposition;
 8000b42:	683b      	ldr	r3, [r7, #0]
 8000b44:	681b      	ldr	r3, [r3, #0]
 8000b46:	697a      	ldr	r2, [r7, #20]
 8000b48:	4013      	ands	r3, r2
 8000b4a:	613b      	str	r3, [r7, #16]

    if(iocurrent == ioposition)
 8000b4c:	693a      	ldr	r2, [r7, #16]
 8000b4e:	697b      	ldr	r3, [r7, #20]
 8000b50:	429a      	cmp	r2, r3
 8000b52:	f040 815a 	bne.w	8000e0a <HAL_GPIO_Init+0x2ee>
    {
      /*--------------------- GPIO Mode Configuration ------------------------*/
      /* In case of Output or Alternate function mode selection */
      if((GPIO_Init->Mode == GPIO_MODE_OUTPUT_PP) || (GPIO_Init->Mode == GPIO_MODE_AF_PP) ||
 8000b56:	683b      	ldr	r3, [r7, #0]
 8000b58:	685b      	ldr	r3, [r3, #4]
 8000b5a:	2b01      	cmp	r3, #1
 8000b5c:	d00b      	beq.n	8000b76 <HAL_GPIO_Init+0x5a>
 8000b5e:	683b      	ldr	r3, [r7, #0]
 8000b60:	685b      	ldr	r3, [r3, #4]
 8000b62:	2b02      	cmp	r3, #2
 8000b64:	d007      	beq.n	8000b76 <HAL_GPIO_Init+0x5a>
         (GPIO_Init->Mode == GPIO_MODE_OUTPUT_OD) || (GPIO_Init->Mode == GPIO_MODE_AF_OD))
 8000b66:	683b      	ldr	r3, [r7, #0]
 8000b68:	685b      	ldr	r3, [r3, #4]
      if((GPIO_Init->Mode == GPIO_MODE_OUTPUT_PP) || (GPIO_Init->Mode == GPIO_MODE_AF_PP) ||
 8000b6a:	2b11      	cmp	r3, #17
 8000b6c:	d003      	beq.n	8000b76 <HAL_GPIO_Init+0x5a>
         (GPIO_Init->Mode == GPIO_MODE_OUTPUT_OD) || (GPIO_Init->Mode == GPIO_MODE_AF_OD))
 8000b6e:	683b      	ldr	r3, [r7, #0]
 8000b70:	685b      	ldr	r3, [r3, #4]
 8000b72:	2b12      	cmp	r3, #18
 8000b74:	d130      	bne.n	8000bd8 <HAL_GPIO_Init+0xbc>
      {
        /* Check the Speed parameter */
        assert_param(IS_GPIO_SPEED(GPIO_Init->Speed));
        /* Configure the IO Speed */
        temp = GPIOx->OSPEEDR; 
 8000b76:	687b      	ldr	r3, [r7, #4]
 8000b78:	689b      	ldr	r3, [r3, #8]
 8000b7a:	61bb      	str	r3, [r7, #24]
        temp &= ~(GPIO_OSPEEDER_OSPEEDR0 << (position * 2U));
 8000b7c:	69fb      	ldr	r3, [r7, #28]
 8000b7e:	005b      	lsls	r3, r3, #1
 8000b80:	2203      	movs	r2, #3
 8000b82:	fa02 f303 	lsl.w	r3, r2, r3
 8000b86:	43db      	mvns	r3, r3
 8000b88:	69ba      	ldr	r2, [r7, #24]
 8000b8a:	4013      	ands	r3, r2
 8000b8c:	61bb      	str	r3, [r7, #24]
        temp |= (GPIO_Init->Speed << (position * 2U));
 8000b8e:	683b      	ldr	r3, [r7, #0]
 8000b90:	68da      	ldr	r2, [r3, #12]
 8000b92:	69fb      	ldr	r3, [r7, #28]
 8000b94:	005b      	lsls	r3, r3, #1
 8000b96:	fa02 f303 	lsl.w	r3, r2, r3
 8000b9a:	69ba      	ldr	r2, [r7, #24]
 8000b9c:	4313      	orrs	r3, r2
 8000b9e:	61bb      	str	r3, [r7, #24]
        GPIOx->OSPEEDR = temp;
 8000ba0:	687b      	ldr	r3, [r7, #4]
 8000ba2:	69ba      	ldr	r2, [r7, #24]
 8000ba4:	609a      	str	r2, [r3, #8]

        /* Configure the IO Output Type */
        temp = GPIOx->OTYPER;
 8000ba6:	687b      	ldr	r3, [r7, #4]
 8000ba8:	685b      	ldr	r3, [r3, #4]
 8000baa:	61bb      	str	r3, [r7, #24]
        temp &= ~(GPIO_OTYPER_OT_0 << position) ;
 8000bac:	2201      	movs	r2, #1
 8000bae:	69fb      	ldr	r3, [r7, #28]
 8000bb0:	fa02 f303 	lsl.w	r3, r2, r3
 8000bb4:	43db      	mvns	r3, r3
 8000bb6:	69ba      	ldr	r2, [r7, #24]
 8000bb8:	4013      	ands	r3, r2
 8000bba:	61bb      	str	r3, [r7, #24]
        temp |= (((GPIO_Init->Mode & GPIO_OUTPUT_TYPE) >> 4U) << position);
 8000bbc:	683b      	ldr	r3, [r7, #0]
 8000bbe:	685b      	ldr	r3, [r3, #4]
 8000bc0:	091b      	lsrs	r3, r3, #4
 8000bc2:	f003 0201 	and.w	r2, r3, #1
 8000bc6:	69fb      	ldr	r3, [r7, #28]
 8000bc8:	fa02 f303 	lsl.w	r3, r2, r3
 8000bcc:	69ba      	ldr	r2, [r7, #24]
 8000bce:	4313      	orrs	r3, r2
 8000bd0:	61bb      	str	r3, [r7, #24]
        GPIOx->OTYPER = temp;
 8000bd2:	687b      	ldr	r3, [r7, #4]
 8000bd4:	69ba      	ldr	r2, [r7, #24]
 8000bd6:	605a      	str	r2, [r3, #4]
       }

      /* Activate the Pull-up or Pull down resistor for the current IO */
      temp = GPIOx->PUPDR;
 8000bd8:	687b      	ldr	r3, [r7, #4]
 8000bda:	68db      	ldr	r3, [r3, #12]
 8000bdc:	61bb      	str	r3, [r7, #24]
      temp &= ~(GPIO_PUPDR_PUPDR0 << (position * 2U));
 8000bde:	69fb      	ldr	r3, [r7, #28]
 8000be0:	005b      	lsls	r3, r3, #1
 8000be2:	2203      	movs	r2, #3
 8000be4:	fa02 f303 	lsl.w	r3, r2, r3
 8000be8:	43db      	mvns	r3, r3
 8000bea:	69ba      	ldr	r2, [r7, #24]
 8000bec:	4013      	ands	r3, r2
 8000bee:	61bb      	str	r3, [r7, #24]
      temp |= ((GPIO_Init->Pull) << (position * 2U));
 8000bf0:	683b      	ldr	r3, [r7, #0]
 8000bf2:	689a      	ldr	r2, [r3, #8]
 8000bf4:	69fb      	ldr	r3, [r7, #28]
 8000bf6:	005b      	lsls	r3, r3, #1
 8000bf8:	fa02 f303 	lsl.w	r3, r2, r3
 8000bfc:	69ba      	ldr	r2, [r7, #24]
 8000bfe:	4313      	orrs	r3, r2
 8000c00:	61bb      	str	r3, [r7, #24]
      GPIOx->PUPDR = temp;
 8000c02:	687b      	ldr	r3, [r7, #4]
 8000c04:	69ba      	ldr	r2, [r7, #24]
 8000c06:	60da      	str	r2, [r3, #12]

      /* In case of Alternate function mode selection */
      if((GPIO_Init->Mode == GPIO_MODE_AF_PP) || (GPIO_Init->Mode == GPIO_MODE_AF_OD))
 8000c08:	683b      	ldr	r3, [r7, #0]
 8000c0a:	685b      	ldr	r3, [r3, #4]
 8000c0c:	2b02      	cmp	r3, #2
 8000c0e:	d003      	beq.n	8000c18 <HAL_GPIO_Init+0xfc>
 8000c10:	683b      	ldr	r3, [r7, #0]
 8000c12:	685b      	ldr	r3, [r3, #4]
 8000c14:	2b12      	cmp	r3, #18
 8000c16:	d123      	bne.n	8000c60 <HAL_GPIO_Init+0x144>
      {
        /* Check the Alternate function parameter */
        assert_param(IS_GPIO_AF(GPIO_Init->Alternate));
        /* Configure Alternate function mapped with the current IO */
        temp = GPIOx->AFR[position >> 3U];
 8000c18:	69fb      	ldr	r3, [r7, #28]
 8000c1a:	08da      	lsrs	r2, r3, #3
 8000c1c:	687b      	ldr	r3, [r7, #4]
 8000c1e:	3208      	adds	r2, #8
 8000c20:	f853 3022 	ldr.w	r3, [r3, r2, lsl #2]
 8000c24:	61bb      	str	r3, [r7, #24]
        temp &= ~(0xFU << ((uint32_t)(position & 0x07U) * 4U)) ;
 8000c26:	69fb      	ldr	r3, [r7, #28]
 8000c28:	f003 0307 	and.w	r3, r3, #7
 8000c2c:	009b      	lsls	r3, r3, #2
 8000c2e:	220f      	movs	r2, #15
 8000c30:	fa02 f303 	lsl.w	r3, r2, r3
 8000c34:	43db      	mvns	r3, r3
 8000c36:	69ba      	ldr	r2, [r7, #24]
 8000c38:	4013      	ands	r3, r2
 8000c3a:	61bb      	str	r3, [r7, #24]
        temp |= ((uint32_t)(GPIO_Init->Alternate) << (((uint32_t)position & 0x07U) * 4U));
 8000c3c:	683b      	ldr	r3, [r7, #0]
 8000c3e:	691a      	ldr	r2, [r3, #16]
 8000c40:	69fb      	ldr	r3, [r7, #28]
 8000c42:	f003 0307 	and.w	r3, r3, #7
 8000c46:	009b      	lsls	r3, r3, #2
 8000c48:	fa02 f303 	lsl.w	r3, r2, r3
 8000c4c:	69ba      	ldr	r2, [r7, #24]
 8000c4e:	4313      	orrs	r3, r2
 8000c50:	61bb      	str	r3, [r7, #24]
        GPIOx->AFR[position >> 3U] = temp;
 8000c52:	69fb      	ldr	r3, [r7, #28]
 8000c54:	08da      	lsrs	r2, r3, #3
 8000c56:	687b      	ldr	r3, [r7, #4]
 8000c58:	3208      	adds	r2, #8
 8000c5a:	69b9      	ldr	r1, [r7, #24]
 8000c5c:	f843 1022 	str.w	r1, [r3, r2, lsl #2]
      }

      /* Configure IO Direction mode (Input, Output, Alternate or Analog) */
      temp = GPIOx->MODER;
 8000c60:	687b      	ldr	r3, [r7, #4]
 8000c62:	681b      	ldr	r3, [r3, #0]
 8000c64:	61bb      	str	r3, [r7, #24]
      temp &= ~(GPIO_MODER_MODER0 << (position * 2U));
 8000c66:	69fb      	ldr	r3, [r7, #28]
 8000c68:	005b      	lsls	r3, r3, #1
 8000c6a:	2203      	movs	r2, #3
 8000c6c:	fa02 f303 	lsl.w	r3, r2, r3
 8000c70:	43db      	mvns	r3, r3
 8000c72:	69ba      	ldr	r2, [r7, #24]
 8000c74:	4013      	ands	r3, r2
 8000c76:	61bb      	str	r3, [r7, #24]
      temp |= ((GPIO_Init->Mode & GPIO_MODE) << (position * 2U));
 8000c78:	683b      	ldr	r3, [r7, #0]
 8000c7a:	685b      	ldr	r3, [r3, #4]
 8000c7c:	f003 0203 	and.w	r2, r3, #3
 8000c80:	69fb      	ldr	r3, [r7, #28]
 8000c82:	005b      	lsls	r3, r3, #1
 8000c84:	fa02 f303 	lsl.w	r3, r2, r3
 8000c88:	69ba      	ldr	r2, [r7, #24]
 8000c8a:	4313      	orrs	r3, r2
 8000c8c:	61bb      	str	r3, [r7, #24]
      GPIOx->MODER = temp;
 8000c8e:	687b      	ldr	r3, [r7, #4]
 8000c90:	69ba      	ldr	r2, [r7, #24]
 8000c92:	601a      	str	r2, [r3, #0]

      /*--------------------- EXTI Mode Configuration ------------------------*/
      /* Configure the External Interrupt or event for the current IO */
      if((GPIO_Init->Mode & EXTI_MODE) == EXTI_MODE)
 8000c94:	683b      	ldr	r3, [r7, #0]
 8000c96:	685b      	ldr	r3, [r3, #4]
 8000c98:	f003 5380 	and.w	r3, r3, #268435456	; 0x10000000
 8000c9c:	2b00      	cmp	r3, #0
 8000c9e:	f000 80b4 	beq.w	8000e0a <HAL_GPIO_Init+0x2ee>
      {
        /* Enable SYSCFG Clock */
        __HAL_RCC_SYSCFG_CLK_ENABLE();
 8000ca2:	2300      	movs	r3, #0
 8000ca4:	60fb      	str	r3, [r7, #12]
 8000ca6:	4b5f      	ldr	r3, [pc, #380]	; (8000e24 <HAL_GPIO_Init+0x308>)
 8000ca8:	6c5b      	ldr	r3, [r3, #68]	; 0x44
 8000caa:	4a5e      	ldr	r2, [pc, #376]	; (8000e24 <HAL_GPIO_Init+0x308>)
 8000cac:	f443 4380 	orr.w	r3, r3, #16384	; 0x4000
 8000cb0:	6453      	str	r3, [r2, #68]	; 0x44
 8000cb2:	4b5c      	ldr	r3, [pc, #368]	; (8000e24 <HAL_GPIO_Init+0x308>)
 8000cb4:	6c5b      	ldr	r3, [r3, #68]	; 0x44
 8000cb6:	f403 4380 	and.w	r3, r3, #16384	; 0x4000
 8000cba:	60fb      	str	r3, [r7, #12]
 8000cbc:	68fb      	ldr	r3, [r7, #12]

        temp = SYSCFG->EXTICR[position >> 2U];
 8000cbe:	4a5a      	ldr	r2, [pc, #360]	; (8000e28 <HAL_GPIO_Init+0x30c>)
 8000cc0:	69fb      	ldr	r3, [r7, #28]
 8000cc2:	089b      	lsrs	r3, r3, #2
 8000cc4:	3302      	adds	r3, #2
 8000cc6:	f852 3023 	ldr.w	r3, [r2, r3, lsl #2]
 8000cca:	61bb      	str	r3, [r7, #24]
        temp &= ~(0x0FU << (4U * (position & 0x03U)));
 8000ccc:	69fb      	ldr	r3, [r7, #28]
 8000cce:	f003 0303 	and.w	r3, r3, #3
 8000cd2:	009b      	lsls	r3, r3, #2
 8000cd4:	220f      	movs	r2, #15
 8000cd6:	fa02 f303 	lsl.w	r3, r2, r3
 8000cda:	43db      	mvns	r3, r3
 8000cdc:	69ba      	ldr	r2, [r7, #24]
 8000cde:	4013      	ands	r3, r2
 8000ce0:	61bb      	str	r3, [r7, #24]
        temp |= ((uint32_t)(GPIO_GET_INDEX(GPIOx)) << (4U * (position & 0x03U)));
 8000ce2:	687b      	ldr	r3, [r7, #4]
 8000ce4:	4a51      	ldr	r2, [pc, #324]	; (8000e2c <HAL_GPIO_Init+0x310>)
 8000ce6:	4293      	cmp	r3, r2
 8000ce8:	d02b      	beq.n	8000d42 <HAL_GPIO_Init+0x226>
 8000cea:	687b      	ldr	r3, [r7, #4]
 8000cec:	4a50      	ldr	r2, [pc, #320]	; (8000e30 <HAL_GPIO_Init+0x314>)
 8000cee:	4293      	cmp	r3, r2
 8000cf0:	d025      	beq.n	8000d3e <HAL_GPIO_Init+0x222>
 8000cf2:	687b      	ldr	r3, [r7, #4]
 8000cf4:	4a4f      	ldr	r2, [pc, #316]	; (8000e34 <HAL_GPIO_Init+0x318>)
 8000cf6:	4293      	cmp	r3, r2
 8000cf8:	d01f      	beq.n	8000d3a <HAL_GPIO_Init+0x21e>
 8000cfa:	687b      	ldr	r3, [r7, #4]
 8000cfc:	4a4e      	ldr	r2, [pc, #312]	; (8000e38 <HAL_GPIO_Init+0x31c>)
 8000cfe:	4293      	cmp	r3, r2
 8000d00:	d019      	beq.n	8000d36 <HAL_GPIO_Init+0x21a>
 8000d02:	687b      	ldr	r3, [r7, #4]
 8000d04:	4a4d      	ldr	r2, [pc, #308]	; (8000e3c <HAL_GPIO_Init+0x320>)
 8000d06:	4293      	cmp	r3, r2
 8000d08:	d013      	beq.n	8000d32 <HAL_GPIO_Init+0x216>
 8000d0a:	687b      	ldr	r3, [r7, #4]
 8000d0c:	4a4c      	ldr	r2, [pc, #304]	; (8000e40 <HAL_GPIO_Init+0x324>)
 8000d0e:	4293      	cmp	r3, r2
 8000d10:	d00d      	beq.n	8000d2e <HAL_GPIO_Init+0x212>
 8000d12:	687b      	ldr	r3, [r7, #4]
 8000d14:	4a4b      	ldr	r2, [pc, #300]	; (8000e44 <HAL_GPIO_Init+0x328>)
 8000d16:	4293      	cmp	r3, r2
 8000d18:	d007      	beq.n	8000d2a <HAL_GPIO_Init+0x20e>
 8000d1a:	687b      	ldr	r3, [r7, #4]
 8000d1c:	4a4a      	ldr	r2, [pc, #296]	; (8000e48 <HAL_GPIO_Init+0x32c>)
 8000d1e:	4293      	cmp	r3, r2
 8000d20:	d101      	bne.n	8000d26 <HAL_GPIO_Init+0x20a>
 8000d22:	2307      	movs	r3, #7
 8000d24:	e00e      	b.n	8000d44 <HAL_GPIO_Init+0x228>
 8000d26:	2308      	movs	r3, #8
 8000d28:	e00c      	b.n	8000d44 <HAL_GPIO_Init+0x228>
 8000d2a:	2306      	movs	r3, #6
 8000d2c:	e00a      	b.n	8000d44 <HAL_GPIO_Init+0x228>
 8000d2e:	2305      	movs	r3, #5
 8000d30:	e008      	b.n	8000d44 <HAL_GPIO_Init+0x228>
 8000d32:	2304      	movs	r3, #4
 8000d34:	e006      	b.n	8000d44 <HAL_GPIO_Init+0x228>
 8000d36:	2303      	movs	r3, #3
 8000d38:	e004      	b.n	8000d44 <HAL_GPIO_Init+0x228>
 8000d3a:	2302      	movs	r3, #2
 8000d3c:	e002      	b.n	8000d44 <HAL_GPIO_Init+0x228>
 8000d3e:	2301      	movs	r3, #1
 8000d40:	e000      	b.n	8000d44 <HAL_GPIO_Init+0x228>
 8000d42:	2300      	movs	r3, #0
 8000d44:	69fa      	ldr	r2, [r7, #28]
 8000d46:	f002 0203 	and.w	r2, r2, #3
 8000d4a:	0092      	lsls	r2, r2, #2
 8000d4c:	4093      	lsls	r3, r2
 8000d4e:	69ba      	ldr	r2, [r7, #24]
 8000d50:	4313      	orrs	r3, r2
 8000d52:	61bb      	str	r3, [r7, #24]
        SYSCFG->EXTICR[position >> 2U] = temp;
 8000d54:	4934      	ldr	r1, [pc, #208]	; (8000e28 <HAL_GPIO_Init+0x30c>)
 8000d56:	69fb      	ldr	r3, [r7, #28]
 8000d58:	089b      	lsrs	r3, r3, #2
 8000d5a:	3302      	adds	r3, #2
 8000d5c:	69ba      	ldr	r2, [r7, #24]
 8000d5e:	f841 2023 	str.w	r2, [r1, r3, lsl #2]

        /* Clear EXTI line configuration */
        temp = EXTI->IMR;
 8000d62:	4b3a      	ldr	r3, [pc, #232]	; (8000e4c <HAL_GPIO_Init+0x330>)
 8000d64:	681b      	ldr	r3, [r3, #0]
 8000d66:	61bb      	str	r3, [r7, #24]
        temp &= ~((uint32_t)iocurrent);
 8000d68:	693b      	ldr	r3, [r7, #16]
 8000d6a:	43db      	mvns	r3, r3
 8000d6c:	69ba      	ldr	r2, [r7, #24]
 8000d6e:	4013      	ands	r3, r2
 8000d70:	61bb      	str	r3, [r7, #24]
        if((GPIO_Init->Mode & GPIO_MODE_IT) == GPIO_MODE_IT)
 8000d72:	683b      	ldr	r3, [r7, #0]
 8000d74:	685b      	ldr	r3, [r3, #4]
 8000d76:	f403 3380 	and.w	r3, r3, #65536	; 0x10000
 8000d7a:	2b00      	cmp	r3, #0
 8000d7c:	d003      	beq.n	8000d86 <HAL_GPIO_Init+0x26a>
        {
          temp |= iocurrent;
 8000d7e:	69ba      	ldr	r2, [r7, #24]
 8000d80:	693b      	ldr	r3, [r7, #16]
 8000d82:	4313      	orrs	r3, r2
 8000d84:	61bb      	str	r3, [r7, #24]
        }
        EXTI->IMR = temp;
 8000d86:	4a31      	ldr	r2, [pc, #196]	; (8000e4c <HAL_GPIO_Init+0x330>)
 8000d88:	69bb      	ldr	r3, [r7, #24]
 8000d8a:	6013      	str	r3, [r2, #0]

        temp = EXTI->EMR;
 8000d8c:	4b2f      	ldr	r3, [pc, #188]	; (8000e4c <HAL_GPIO_Init+0x330>)
 8000d8e:	685b      	ldr	r3, [r3, #4]
 8000d90:	61bb      	str	r3, [r7, #24]
        temp &= ~((uint32_t)iocurrent);
 8000d92:	693b      	ldr	r3, [r7, #16]
 8000d94:	43db      	mvns	r3, r3
 8000d96:	69ba      	ldr	r2, [r7, #24]
 8000d98:	4013      	ands	r3, r2
 8000d9a:	61bb      	str	r3, [r7, #24]
        if((GPIO_Init->Mode & GPIO_MODE_EVT) == GPIO_MODE_EVT)
 8000d9c:	683b      	ldr	r3, [r7, #0]
 8000d9e:	685b      	ldr	r3, [r3, #4]
 8000da0:	f403 3300 	and.w	r3, r3, #131072	; 0x20000
 8000da4:	2b00      	cmp	r3, #0
 8000da6:	d003      	beq.n	8000db0 <HAL_GPIO_Init+0x294>
        {
          temp |= iocurrent;
 8000da8:	69ba      	ldr	r2, [r7, #24]
 8000daa:	693b      	ldr	r3, [r7, #16]
 8000dac:	4313      	orrs	r3, r2
 8000dae:	61bb      	str	r3, [r7, #24]
        }
        EXTI->EMR = temp;
 8000db0:	4a26      	ldr	r2, [pc, #152]	; (8000e4c <HAL_GPIO_Init+0x330>)
 8000db2:	69bb      	ldr	r3, [r7, #24]
 8000db4:	6053      	str	r3, [r2, #4]

        /* Clear Rising Falling edge configuration */
        temp = EXTI->RTSR;
 8000db6:	4b25      	ldr	r3, [pc, #148]	; (8000e4c <HAL_GPIO_Init+0x330>)
 8000db8:	689b      	ldr	r3, [r3, #8]
 8000dba:	61bb      	str	r3, [r7, #24]
        temp &= ~((uint32_t)iocurrent);
 8000dbc:	693b      	ldr	r3, [r7, #16]
 8000dbe:	43db      	mvns	r3, r3
 8000dc0:	69ba      	ldr	r2, [r7, #24]
 8000dc2:	4013      	ands	r3, r2
 8000dc4:	61bb      	str	r3, [r7, #24]
        if((GPIO_Init->Mode & RISING_EDGE) == RISING_EDGE)
 8000dc6:	683b      	ldr	r3, [r7, #0]
 8000dc8:	685b      	ldr	r3, [r3, #4]
 8000dca:	f403 1380 	and.w	r3, r3, #1048576	; 0x100000
 8000dce:	2b00      	cmp	r3, #0
 8000dd0:	d003      	beq.n	8000dda <HAL_GPIO_Init+0x2be>
        {
          temp |= iocurrent;
 8000dd2:	69ba      	ldr	r2, [r7, #24]
 8000dd4:	693b      	ldr	r3, [r7, #16]
 8000dd6:	4313      	orrs	r3, r2
 8000dd8:	61bb      	str	r3, [r7, #24]
        }
        EXTI->RTSR = temp;
 8000dda:	4a1c      	ldr	r2, [pc, #112]	; (8000e4c <HAL_GPIO_Init+0x330>)
 8000ddc:	69bb      	ldr	r3, [r7, #24]
 8000dde:	6093      	str	r3, [r2, #8]

        temp = EXTI->FTSR;
 8000de0:	4b1a      	ldr	r3, [pc, #104]	; (8000e4c <HAL_GPIO_Init+0x330>)
 8000de2:	68db      	ldr	r3, [r3, #12]
 8000de4:	61bb      	str	r3, [r7, #24]
        temp &= ~((uint32_t)iocurrent);
 8000de6:	693b      	ldr	r3, [r7, #16]
 8000de8:	43db      	mvns	r3, r3
 8000dea:	69ba      	ldr	r2, [r7, #24]
 8000dec:	4013      	ands	r3, r2
 8000dee:	61bb      	str	r3, [r7, #24]
        if((GPIO_Init->Mode & FALLING_EDGE) == FALLING_EDGE)
 8000df0:	683b      	ldr	r3, [r7, #0]
 8000df2:	685b      	ldr	r3, [r3, #4]
 8000df4:	f403 1300 	and.w	r3, r3, #2097152	; 0x200000
 8000df8:	2b00      	cmp	r3, #0
 8000dfa:	d003      	beq.n	8000e04 <HAL_GPIO_Init+0x2e8>
        {
          temp |= iocurrent;
 8000dfc:	69ba      	ldr	r2, [r7, #24]
 8000dfe:	693b      	ldr	r3, [r7, #16]
 8000e00:	4313      	orrs	r3, r2
 8000e02:	61bb      	str	r3, [r7, #24]
        }
        EXTI->FTSR = temp;
 8000e04:	4a11      	ldr	r2, [pc, #68]	; (8000e4c <HAL_GPIO_Init+0x330>)
 8000e06:	69bb      	ldr	r3, [r7, #24]
 8000e08:	60d3      	str	r3, [r2, #12]
  for(position = 0U; position < GPIO_NUMBER; position++)
 8000e0a:	69fb      	ldr	r3, [r7, #28]
 8000e0c:	3301      	adds	r3, #1
 8000e0e:	61fb      	str	r3, [r7, #28]
 8000e10:	69fb      	ldr	r3, [r7, #28]
 8000e12:	2b0f      	cmp	r3, #15
 8000e14:	f67f ae90 	bls.w	8000b38 <HAL_GPIO_Init+0x1c>
      }
    }
  }
}
 8000e18:	bf00      	nop
 8000e1a:	3724      	adds	r7, #36	; 0x24
 8000e1c:	46bd      	mov	sp, r7
 8000e1e:	f85d 7b04 	ldr.w	r7, [sp], #4
 8000e22:	4770      	bx	lr
 8000e24:	40023800 	.word	0x40023800
 8000e28:	40013800 	.word	0x40013800
 8000e2c:	40020000 	.word	0x40020000
 8000e30:	40020400 	.word	0x40020400
 8000e34:	40020800 	.word	0x40020800
 8000e38:	40020c00 	.word	0x40020c00
 8000e3c:	40021000 	.word	0x40021000
 8000e40:	40021400 	.word	0x40021400
 8000e44:	40021800 	.word	0x40021800
 8000e48:	40021c00 	.word	0x40021c00
 8000e4c:	40013c00 	.word	0x40013c00

08000e50 <HAL_RCC_OscConfig>:
  *         supported by this API. User should request a transition to HSE Off
  *         first and then HSE On or HSE Bypass.
  * @retval HAL status
  */
__weak HAL_StatusTypeDef HAL_RCC_OscConfig(RCC_OscInitTypeDef  *RCC_OscInitStruct)
{
 8000e50:	b580      	push	{r7, lr}
 8000e52:	b086      	sub	sp, #24
 8000e54:	af00      	add	r7, sp, #0
 8000e56:	6078      	str	r0, [r7, #4]
  uint32_t tickstart, pll_config;

  /* Check Null pointer */
  if(RCC_OscInitStruct == NULL)
 8000e58:	687b      	ldr	r3, [r7, #4]
 8000e5a:	2b00      	cmp	r3, #0
 8000e5c:	d101      	bne.n	8000e62 <HAL_RCC_OscConfig+0x12>
  {
    return HAL_ERROR;
 8000e5e:	2301      	movs	r3, #1
 8000e60:	e25b      	b.n	800131a <HAL_RCC_OscConfig+0x4ca>
  }

  /* Check the parameters */
  assert_param(IS_RCC_OSCILLATORTYPE(RCC_OscInitStruct->OscillatorType));
  /*------------------------------- HSE Configuration ------------------------*/
  if(((RCC_OscInitStruct->OscillatorType) & RCC_OSCILLATORTYPE_HSE) == RCC_OSCILLATORTYPE_HSE)
 8000e62:	687b      	ldr	r3, [r7, #4]
 8000e64:	681b      	ldr	r3, [r3, #0]
 8000e66:	f003 0301 	and.w	r3, r3, #1
 8000e6a:	2b00      	cmp	r3, #0
 8000e6c:	d075      	beq.n	8000f5a <HAL_RCC_OscConfig+0x10a>
  {
    /* Check the parameters */
    assert_param(IS_RCC_HSE(RCC_OscInitStruct->HSEState));
    /* When the HSE is used as system clock or clock source for PLL in these cases HSE will not disabled */
    if((__HAL_RCC_GET_SYSCLK_SOURCE() == RCC_CFGR_SWS_HSE) ||\
 8000e6e:	4ba3      	ldr	r3, [pc, #652]	; (80010fc <HAL_RCC_OscConfig+0x2ac>)
 8000e70:	689b      	ldr	r3, [r3, #8]
 8000e72:	f003 030c 	and.w	r3, r3, #12
 8000e76:	2b04      	cmp	r3, #4
 8000e78:	d00c      	beq.n	8000e94 <HAL_RCC_OscConfig+0x44>
      ((__HAL_RCC_GET_SYSCLK_SOURCE() == RCC_CFGR_SWS_PLL) && ((RCC->PLLCFGR & RCC_PLLCFGR_PLLSRC) == RCC_PLLCFGR_PLLSRC_HSE)))
 8000e7a:	4ba0      	ldr	r3, [pc, #640]	; (80010fc <HAL_RCC_OscConfig+0x2ac>)
 8000e7c:	689b      	ldr	r3, [r3, #8]
 8000e7e:	f003 030c 	and.w	r3, r3, #12
    if((__HAL_RCC_GET_SYSCLK_SOURCE() == RCC_CFGR_SWS_HSE) ||\
 8000e82:	2b08      	cmp	r3, #8
 8000e84:	d112      	bne.n	8000eac <HAL_RCC_OscConfig+0x5c>
      ((__HAL_RCC_GET_SYSCLK_SOURCE() == RCC_CFGR_SWS_PLL) && ((RCC->PLLCFGR & RCC_PLLCFGR_PLLSRC) == RCC_PLLCFGR_PLLSRC_HSE)))
 8000e86:	4b9d      	ldr	r3, [pc, #628]	; (80010fc <HAL_RCC_OscConfig+0x2ac>)
 8000e88:	685b      	ldr	r3, [r3, #4]
 8000e8a:	f403 0380 	and.w	r3, r3, #4194304	; 0x400000
 8000e8e:	f5b3 0f80 	cmp.w	r3, #4194304	; 0x400000
 8000e92:	d10b      	bne.n	8000eac <HAL_RCC_OscConfig+0x5c>
    {
      if((__HAL_RCC_GET_FLAG(RCC_FLAG_HSERDY) != RESET) && (RCC_OscInitStruct->HSEState == RCC_HSE_OFF))
 8000e94:	4b99      	ldr	r3, [pc, #612]	; (80010fc <HAL_RCC_OscConfig+0x2ac>)
 8000e96:	681b      	ldr	r3, [r3, #0]
 8000e98:	f403 3300 	and.w	r3, r3, #131072	; 0x20000
 8000e9c:	2b00      	cmp	r3, #0
 8000e9e:	d05b      	beq.n	8000f58 <HAL_RCC_OscConfig+0x108>
 8000ea0:	687b      	ldr	r3, [r7, #4]
 8000ea2:	685b      	ldr	r3, [r3, #4]
 8000ea4:	2b00      	cmp	r3, #0
 8000ea6:	d157      	bne.n	8000f58 <HAL_RCC_OscConfig+0x108>
      {
        return HAL_ERROR;
 8000ea8:	2301      	movs	r3, #1
 8000eaa:	e236      	b.n	800131a <HAL_RCC_OscConfig+0x4ca>
      }
    }
    else
    {
      /* Set the new HSE configuration ---------------------------------------*/
      __HAL_RCC_HSE_CONFIG(RCC_OscInitStruct->HSEState);
 8000eac:	687b      	ldr	r3, [r7, #4]
 8000eae:	685b      	ldr	r3, [r3, #4]
 8000eb0:	f5b3 3f80 	cmp.w	r3, #65536	; 0x10000
 8000eb4:	d106      	bne.n	8000ec4 <HAL_RCC_OscConfig+0x74>
 8000eb6:	4b91      	ldr	r3, [pc, #580]	; (80010fc <HAL_RCC_OscConfig+0x2ac>)
 8000eb8:	681b      	ldr	r3, [r3, #0]
 8000eba:	4a90      	ldr	r2, [pc, #576]	; (80010fc <HAL_RCC_OscConfig+0x2ac>)
 8000ebc:	f443 3380 	orr.w	r3, r3, #65536	; 0x10000
 8000ec0:	6013      	str	r3, [r2, #0]
 8000ec2:	e01d      	b.n	8000f00 <HAL_RCC_OscConfig+0xb0>
 8000ec4:	687b      	ldr	r3, [r7, #4]
 8000ec6:	685b      	ldr	r3, [r3, #4]
 8000ec8:	f5b3 2fa0 	cmp.w	r3, #327680	; 0x50000
 8000ecc:	d10c      	bne.n	8000ee8 <HAL_RCC_OscConfig+0x98>
 8000ece:	4b8b      	ldr	r3, [pc, #556]	; (80010fc <HAL_RCC_OscConfig+0x2ac>)
 8000ed0:	681b      	ldr	r3, [r3, #0]
 8000ed2:	4a8a      	ldr	r2, [pc, #552]	; (80010fc <HAL_RCC_OscConfig+0x2ac>)
 8000ed4:	f443 2380 	orr.w	r3, r3, #262144	; 0x40000
 8000ed8:	6013      	str	r3, [r2, #0]
 8000eda:	4b88      	ldr	r3, [pc, #544]	; (80010fc <HAL_RCC_OscConfig+0x2ac>)
 8000edc:	681b      	ldr	r3, [r3, #0]
 8000ede:	4a87      	ldr	r2, [pc, #540]	; (80010fc <HAL_RCC_OscConfig+0x2ac>)
 8000ee0:	f443 3380 	orr.w	r3, r3, #65536	; 0x10000
 8000ee4:	6013      	str	r3, [r2, #0]
 8000ee6:	e00b      	b.n	8000f00 <HAL_RCC_OscConfig+0xb0>
 8000ee8:	4b84      	ldr	r3, [pc, #528]	; (80010fc <HAL_RCC_OscConfig+0x2ac>)
 8000eea:	681b      	ldr	r3, [r3, #0]
 8000eec:	4a83      	ldr	r2, [pc, #524]	; (80010fc <HAL_RCC_OscConfig+0x2ac>)
 8000eee:	f423 3380 	bic.w	r3, r3, #65536	; 0x10000
 8000ef2:	6013      	str	r3, [r2, #0]
 8000ef4:	4b81      	ldr	r3, [pc, #516]	; (80010fc <HAL_RCC_OscConfig+0x2ac>)
 8000ef6:	681b      	ldr	r3, [r3, #0]
 8000ef8:	4a80      	ldr	r2, [pc, #512]	; (80010fc <HAL_RCC_OscConfig+0x2ac>)
 8000efa:	f423 2380 	bic.w	r3, r3, #262144	; 0x40000
 8000efe:	6013      	str	r3, [r2, #0]

      /* Check the HSE State */
      if((RCC_OscInitStruct->HSEState) != RCC_HSE_OFF)
 8000f00:	687b      	ldr	r3, [r7, #4]
 8000f02:	685b      	ldr	r3, [r3, #4]
 8000f04:	2b00      	cmp	r3, #0
 8000f06:	d013      	beq.n	8000f30 <HAL_RCC_OscConfig+0xe0>
      {
        /* Get Start Tick */
        tickstart = HAL_GetTick();
 8000f08:	f7ff fcc0 	bl	800088c <HAL_GetTick>
 8000f0c:	6138      	str	r0, [r7, #16]

        /* Wait till HSE is ready */
        while(__HAL_RCC_GET_FLAG(RCC_FLAG_HSERDY) == RESET)
 8000f0e:	e008      	b.n	8000f22 <HAL_RCC_OscConfig+0xd2>
        {
          if((HAL_GetTick() - tickstart ) > HSE_TIMEOUT_VALUE)
 8000f10:	f7ff fcbc 	bl	800088c <HAL_GetTick>
 8000f14:	4602      	mov	r2, r0
 8000f16:	693b      	ldr	r3, [r7, #16]
 8000f18:	1ad3      	subs	r3, r2, r3
 8000f1a:	2b64      	cmp	r3, #100	; 0x64
 8000f1c:	d901      	bls.n	8000f22 <HAL_RCC_OscConfig+0xd2>
          {
            return HAL_TIMEOUT;
 8000f1e:	2303      	movs	r3, #3
 8000f20:	e1fb      	b.n	800131a <HAL_RCC_OscConfig+0x4ca>
        while(__HAL_RCC_GET_FLAG(RCC_FLAG_HSERDY) == RESET)
 8000f22:	4b76      	ldr	r3, [pc, #472]	; (80010fc <HAL_RCC_OscConfig+0x2ac>)
 8000f24:	681b      	ldr	r3, [r3, #0]
 8000f26:	f403 3300 	and.w	r3, r3, #131072	; 0x20000
 8000f2a:	2b00      	cmp	r3, #0
 8000f2c:	d0f0      	beq.n	8000f10 <HAL_RCC_OscConfig+0xc0>
 8000f2e:	e014      	b.n	8000f5a <HAL_RCC_OscConfig+0x10a>
        }
      }
      else
      {
        /* Get Start Tick */
        tickstart = HAL_GetTick();
 8000f30:	f7ff fcac 	bl	800088c <HAL_GetTick>
 8000f34:	6138      	str	r0, [r7, #16]

        /* Wait till HSE is bypassed or disabled */
        while(__HAL_RCC_GET_FLAG(RCC_FLAG_HSERDY) != RESET)
 8000f36:	e008      	b.n	8000f4a <HAL_RCC_OscConfig+0xfa>
        {
          if((HAL_GetTick() - tickstart ) > HSE_TIMEOUT_VALUE)
 8000f38:	f7ff fca8 	bl	800088c <HAL_GetTick>
 8000f3c:	4602      	mov	r2, r0
 8000f3e:	693b      	ldr	r3, [r7, #16]
 8000f40:	1ad3      	subs	r3, r2, r3
 8000f42:	2b64      	cmp	r3, #100	; 0x64
 8000f44:	d901      	bls.n	8000f4a <HAL_RCC_OscConfig+0xfa>
          {
            return HAL_TIMEOUT;
 8000f46:	2303      	movs	r3, #3
 8000f48:	e1e7      	b.n	800131a <HAL_RCC_OscConfig+0x4ca>
        while(__HAL_RCC_GET_FLAG(RCC_FLAG_HSERDY) != RESET)
 8000f4a:	4b6c      	ldr	r3, [pc, #432]	; (80010fc <HAL_RCC_OscConfig+0x2ac>)
 8000f4c:	681b      	ldr	r3, [r3, #0]
 8000f4e:	f403 3300 	and.w	r3, r3, #131072	; 0x20000
 8000f52:	2b00      	cmp	r3, #0
 8000f54:	d1f0      	bne.n	8000f38 <HAL_RCC_OscConfig+0xe8>
 8000f56:	e000      	b.n	8000f5a <HAL_RCC_OscConfig+0x10a>
      if((__HAL_RCC_GET_FLAG(RCC_FLAG_HSERDY) != RESET) && (RCC_OscInitStruct->HSEState == RCC_HSE_OFF))
 8000f58:	bf00      	nop
        }
      }
    }
  }
  /*----------------------------- HSI Configuration --------------------------*/
  if(((RCC_OscInitStruct->OscillatorType) & RCC_OSCILLATORTYPE_HSI) == RCC_OSCILLATORTYPE_HSI)
 8000f5a:	687b      	ldr	r3, [r7, #4]
 8000f5c:	681b      	ldr	r3, [r3, #0]
 8000f5e:	f003 0302 	and.w	r3, r3, #2
 8000f62:	2b00      	cmp	r3, #0
 8000f64:	d063      	beq.n	800102e <HAL_RCC_OscConfig+0x1de>
    /* Check the parameters */
    assert_param(IS_RCC_HSI(RCC_OscInitStruct->HSIState));
    assert_param(IS_RCC_CALIBRATION_VALUE(RCC_OscInitStruct->HSICalibrationValue));

    /* Check if HSI is used as system clock or as PLL source when PLL is selected as system clock */
    if((__HAL_RCC_GET_SYSCLK_SOURCE() == RCC_CFGR_SWS_HSI) ||\
 8000f66:	4b65      	ldr	r3, [pc, #404]	; (80010fc <HAL_RCC_OscConfig+0x2ac>)
 8000f68:	689b      	ldr	r3, [r3, #8]
 8000f6a:	f003 030c 	and.w	r3, r3, #12
 8000f6e:	2b00      	cmp	r3, #0
 8000f70:	d00b      	beq.n	8000f8a <HAL_RCC_OscConfig+0x13a>
      ((__HAL_RCC_GET_SYSCLK_SOURCE() == RCC_CFGR_SWS_PLL) && ((RCC->PLLCFGR & RCC_PLLCFGR_PLLSRC) == RCC_PLLCFGR_PLLSRC_HSI)))
 8000f72:	4b62      	ldr	r3, [pc, #392]	; (80010fc <HAL_RCC_OscConfig+0x2ac>)
 8000f74:	689b      	ldr	r3, [r3, #8]
 8000f76:	f003 030c 	and.w	r3, r3, #12
    if((__HAL_RCC_GET_SYSCLK_SOURCE() == RCC_CFGR_SWS_HSI) ||\
 8000f7a:	2b08      	cmp	r3, #8
 8000f7c:	d11c      	bne.n	8000fb8 <HAL_RCC_OscConfig+0x168>
      ((__HAL_RCC_GET_SYSCLK_SOURCE() == RCC_CFGR_SWS_PLL) && ((RCC->PLLCFGR & RCC_PLLCFGR_PLLSRC) == RCC_PLLCFGR_PLLSRC_HSI)))
 8000f7e:	4b5f      	ldr	r3, [pc, #380]	; (80010fc <HAL_RCC_OscConfig+0x2ac>)
 8000f80:	685b      	ldr	r3, [r3, #4]
 8000f82:	f403 0380 	and.w	r3, r3, #4194304	; 0x400000
 8000f86:	2b00      	cmp	r3, #0
 8000f88:	d116      	bne.n	8000fb8 <HAL_RCC_OscConfig+0x168>
    {
      /* When HSI is used as system clock it will not disabled */
      if((__HAL_RCC_GET_FLAG(RCC_FLAG_HSIRDY) != RESET) && (RCC_OscInitStruct->HSIState != RCC_HSI_ON))
 8000f8a:	4b5c      	ldr	r3, [pc, #368]	; (80010fc <HAL_RCC_OscConfig+0x2ac>)
 8000f8c:	681b      	ldr	r3, [r3, #0]
 8000f8e:	f003 0302 	and.w	r3, r3, #2
 8000f92:	2b00      	cmp	r3, #0
 8000f94:	d005      	beq.n	8000fa2 <HAL_RCC_OscConfig+0x152>
 8000f96:	687b      	ldr	r3, [r7, #4]
 8000f98:	68db      	ldr	r3, [r3, #12]
 8000f9a:	2b01      	cmp	r3, #1
 8000f9c:	d001      	beq.n	8000fa2 <HAL_RCC_OscConfig+0x152>
      {
        return HAL_ERROR;
 8000f9e:	2301      	movs	r3, #1
 8000fa0:	e1bb      	b.n	800131a <HAL_RCC_OscConfig+0x4ca>
      }
      /* Otherwise, just the calibration is allowed */
      else
      {
        /* Adjusts the Internal High Speed oscillator (HSI) calibration value.*/
        __HAL_RCC_HSI_CALIBRATIONVALUE_ADJUST(RCC_OscInitStruct->HSICalibrationValue);
 8000fa2:	4b56      	ldr	r3, [pc, #344]	; (80010fc <HAL_RCC_OscConfig+0x2ac>)
 8000fa4:	681b      	ldr	r3, [r3, #0]
 8000fa6:	f023 02f8 	bic.w	r2, r3, #248	; 0xf8
 8000faa:	687b      	ldr	r3, [r7, #4]
 8000fac:	691b      	ldr	r3, [r3, #16]
 8000fae:	00db      	lsls	r3, r3, #3
 8000fb0:	4952      	ldr	r1, [pc, #328]	; (80010fc <HAL_RCC_OscConfig+0x2ac>)
 8000fb2:	4313      	orrs	r3, r2
 8000fb4:	600b      	str	r3, [r1, #0]
      if((__HAL_RCC_GET_FLAG(RCC_FLAG_HSIRDY) != RESET) && (RCC_OscInitStruct->HSIState != RCC_HSI_ON))
 8000fb6:	e03a      	b.n	800102e <HAL_RCC_OscConfig+0x1de>
      }
    }
    else
    {
      /* Check the HSI State */
      if((RCC_OscInitStruct->HSIState)!= RCC_HSI_OFF)
 8000fb8:	687b      	ldr	r3, [r7, #4]
 8000fba:	68db      	ldr	r3, [r3, #12]
 8000fbc:	2b00      	cmp	r3, #0
 8000fbe:	d020      	beq.n	8001002 <HAL_RCC_OscConfig+0x1b2>
      {
        /* Enable the Internal High Speed oscillator (HSI). */
        __HAL_RCC_HSI_ENABLE();
 8000fc0:	4b4f      	ldr	r3, [pc, #316]	; (8001100 <HAL_RCC_OscConfig+0x2b0>)
 8000fc2:	2201      	movs	r2, #1
 8000fc4:	601a      	str	r2, [r3, #0]

        /* Get Start Tick*/
        tickstart = HAL_GetTick();
 8000fc6:	f7ff fc61 	bl	800088c <HAL_GetTick>
 8000fca:	6138      	str	r0, [r7, #16]

        /* Wait till HSI is ready */
        while(__HAL_RCC_GET_FLAG(RCC_FLAG_HSIRDY) == RESET)
 8000fcc:	e008      	b.n	8000fe0 <HAL_RCC_OscConfig+0x190>
        {
          if((HAL_GetTick() - tickstart ) > HSI_TIMEOUT_VALUE)
 8000fce:	f7ff fc5d 	bl	800088c <HAL_GetTick>
 8000fd2:	4602      	mov	r2, r0
 8000fd4:	693b      	ldr	r3, [r7, #16]
 8000fd6:	1ad3      	subs	r3, r2, r3
 8000fd8:	2b02      	cmp	r3, #2
 8000fda:	d901      	bls.n	8000fe0 <HAL_RCC_OscConfig+0x190>
          {
            return HAL_TIMEOUT;
 8000fdc:	2303      	movs	r3, #3
 8000fde:	e19c      	b.n	800131a <HAL_RCC_OscConfig+0x4ca>
        while(__HAL_RCC_GET_FLAG(RCC_FLAG_HSIRDY) == RESET)
 8000fe0:	4b46      	ldr	r3, [pc, #280]	; (80010fc <HAL_RCC_OscConfig+0x2ac>)
 8000fe2:	681b      	ldr	r3, [r3, #0]
 8000fe4:	f003 0302 	and.w	r3, r3, #2
 8000fe8:	2b00      	cmp	r3, #0
 8000fea:	d0f0      	beq.n	8000fce <HAL_RCC_OscConfig+0x17e>
          }
        }

        /* Adjusts the Internal High Speed oscillator (HSI) calibration value. */
        __HAL_RCC_HSI_CALIBRATIONVALUE_ADJUST(RCC_OscInitStruct->HSICalibrationValue);
 8000fec:	4b43      	ldr	r3, [pc, #268]	; (80010fc <HAL_RCC_OscConfig+0x2ac>)
 8000fee:	681b      	ldr	r3, [r3, #0]
 8000ff0:	f023 02f8 	bic.w	r2, r3, #248	; 0xf8
 8000ff4:	687b      	ldr	r3, [r7, #4]
 8000ff6:	691b      	ldr	r3, [r3, #16]
 8000ff8:	00db      	lsls	r3, r3, #3
 8000ffa:	4940      	ldr	r1, [pc, #256]	; (80010fc <HAL_RCC_OscConfig+0x2ac>)
 8000ffc:	4313      	orrs	r3, r2
 8000ffe:	600b      	str	r3, [r1, #0]
 8001000:	e015      	b.n	800102e <HAL_RCC_OscConfig+0x1de>
      }
      else
      {
        /* Disable the Internal High Speed oscillator (HSI). */
        __HAL_RCC_HSI_DISABLE();
 8001002:	4b3f      	ldr	r3, [pc, #252]	; (8001100 <HAL_RCC_OscConfig+0x2b0>)
 8001004:	2200      	movs	r2, #0
 8001006:	601a      	str	r2, [r3, #0]

        /* Get Start Tick*/
        tickstart = HAL_GetTick();
 8001008:	f7ff fc40 	bl	800088c <HAL_GetTick>
 800100c:	6138      	str	r0, [r7, #16]

        /* Wait till HSI is ready */
        while(__HAL_RCC_GET_FLAG(RCC_FLAG_HSIRDY) != RESET)
 800100e:	e008      	b.n	8001022 <HAL_RCC_OscConfig+0x1d2>
        {
          if((HAL_GetTick() - tickstart ) > HSI_TIMEOUT_VALUE)
 8001010:	f7ff fc3c 	bl	800088c <HAL_GetTick>
 8001014:	4602      	mov	r2, r0
 8001016:	693b      	ldr	r3, [r7, #16]
 8001018:	1ad3      	subs	r3, r2, r3
 800101a:	2b02      	cmp	r3, #2
 800101c:	d901      	bls.n	8001022 <HAL_RCC_OscConfig+0x1d2>
          {
            return HAL_TIMEOUT;
 800101e:	2303      	movs	r3, #3
 8001020:	e17b      	b.n	800131a <HAL_RCC_OscConfig+0x4ca>
        while(__HAL_RCC_GET_FLAG(RCC_FLAG_HSIRDY) != RESET)
 8001022:	4b36      	ldr	r3, [pc, #216]	; (80010fc <HAL_RCC_OscConfig+0x2ac>)
 8001024:	681b      	ldr	r3, [r3, #0]
 8001026:	f003 0302 	and.w	r3, r3, #2
 800102a:	2b00      	cmp	r3, #0
 800102c:	d1f0      	bne.n	8001010 <HAL_RCC_OscConfig+0x1c0>
        }
      }
    }
  }
  /*------------------------------ LSI Configuration -------------------------*/
  if(((RCC_OscInitStruct->OscillatorType) & RCC_OSCILLATORTYPE_LSI) == RCC_OSCILLATORTYPE_LSI)
 800102e:	687b      	ldr	r3, [r7, #4]
 8001030:	681b      	ldr	r3, [r3, #0]
 8001032:	f003 0308 	and.w	r3, r3, #8
 8001036:	2b00      	cmp	r3, #0
 8001038:	d030      	beq.n	800109c <HAL_RCC_OscConfig+0x24c>
  {
    /* Check the parameters */
    assert_param(IS_RCC_LSI(RCC_OscInitStruct->LSIState));

    /* Check the LSI State */
    if((RCC_OscInitStruct->LSIState)!= RCC_LSI_OFF)
 800103a:	687b      	ldr	r3, [r7, #4]
 800103c:	695b      	ldr	r3, [r3, #20]
 800103e:	2b00      	cmp	r3, #0
 8001040:	d016      	beq.n	8001070 <HAL_RCC_OscConfig+0x220>
    {
      /* Enable the Internal Low Speed oscillator (LSI). */
      __HAL_RCC_LSI_ENABLE();
 8001042:	4b30      	ldr	r3, [pc, #192]	; (8001104 <HAL_RCC_OscConfig+0x2b4>)
 8001044:	2201      	movs	r2, #1
 8001046:	601a      	str	r2, [r3, #0]

      /* Get Start Tick*/
      tickstart = HAL_GetTick();
 8001048:	f7ff fc20 	bl	800088c <HAL_GetTick>
 800104c:	6138      	str	r0, [r7, #16]

      /* Wait till LSI is ready */
      while(__HAL_RCC_GET_FLAG(RCC_FLAG_LSIRDY) == RESET)
 800104e:	e008      	b.n	8001062 <HAL_RCC_OscConfig+0x212>
      {
        if((HAL_GetTick() - tickstart ) > LSI_TIMEOUT_VALUE)
 8001050:	f7ff fc1c 	bl	800088c <HAL_GetTick>
 8001054:	4602      	mov	r2, r0
 8001056:	693b      	ldr	r3, [r7, #16]
 8001058:	1ad3      	subs	r3, r2, r3
 800105a:	2b02      	cmp	r3, #2
 800105c:	d901      	bls.n	8001062 <HAL_RCC_OscConfig+0x212>
        {
          return HAL_TIMEOUT;
 800105e:	2303      	movs	r3, #3
 8001060:	e15b      	b.n	800131a <HAL_RCC_OscConfig+0x4ca>
      while(__HAL_RCC_GET_FLAG(RCC_FLAG_LSIRDY) == RESET)
 8001062:	4b26      	ldr	r3, [pc, #152]	; (80010fc <HAL_RCC_OscConfig+0x2ac>)
 8001064:	6f5b      	ldr	r3, [r3, #116]	; 0x74
 8001066:	f003 0302 	and.w	r3, r3, #2
 800106a:	2b00      	cmp	r3, #0
 800106c:	d0f0      	beq.n	8001050 <HAL_RCC_OscConfig+0x200>
 800106e:	e015      	b.n	800109c <HAL_RCC_OscConfig+0x24c>
      }
    }
    else
    {
      /* Disable the Internal Low Speed oscillator (LSI). */
      __HAL_RCC_LSI_DISABLE();
 8001070:	4b24      	ldr	r3, [pc, #144]	; (8001104 <HAL_RCC_OscConfig+0x2b4>)
 8001072:	2200      	movs	r2, #0
 8001074:	601a      	str	r2, [r3, #0]

      /* Get Start Tick */
      tickstart = HAL_GetTick();
 8001076:	f7ff fc09 	bl	800088c <HAL_GetTick>
 800107a:	6138      	str	r0, [r7, #16]

      /* Wait till LSI is ready */
      while(__HAL_RCC_GET_FLAG(RCC_FLAG_LSIRDY) != RESET)
 800107c:	e008      	b.n	8001090 <HAL_RCC_OscConfig+0x240>
      {
        if((HAL_GetTick() - tickstart ) > LSI_TIMEOUT_VALUE)
 800107e:	f7ff fc05 	bl	800088c <HAL_GetTick>
 8001082:	4602      	mov	r2, r0
 8001084:	693b      	ldr	r3, [r7, #16]
 8001086:	1ad3      	subs	r3, r2, r3
 8001088:	2b02      	cmp	r3, #2
 800108a:	d901      	bls.n	8001090 <HAL_RCC_OscConfig+0x240>
        {
          return HAL_TIMEOUT;
 800108c:	2303      	movs	r3, #3
 800108e:	e144      	b.n	800131a <HAL_RCC_OscConfig+0x4ca>
      while(__HAL_RCC_GET_FLAG(RCC_FLAG_LSIRDY) != RESET)
 8001090:	4b1a      	ldr	r3, [pc, #104]	; (80010fc <HAL_RCC_OscConfig+0x2ac>)
 8001092:	6f5b      	ldr	r3, [r3, #116]	; 0x74
 8001094:	f003 0302 	and.w	r3, r3, #2
 8001098:	2b00      	cmp	r3, #0
 800109a:	d1f0      	bne.n	800107e <HAL_RCC_OscConfig+0x22e>
        }
      }
    }
  }
  /*------------------------------ LSE Configuration -------------------------*/
  if(((RCC_OscInitStruct->OscillatorType) & RCC_OSCILLATORTYPE_LSE) == RCC_OSCILLATORTYPE_LSE)
 800109c:	687b      	ldr	r3, [r7, #4]
 800109e:	681b      	ldr	r3, [r3, #0]
 80010a0:	f003 0304 	and.w	r3, r3, #4
 80010a4:	2b00      	cmp	r3, #0
 80010a6:	f000 80a0 	beq.w	80011ea <HAL_RCC_OscConfig+0x39a>
  {
    FlagStatus       pwrclkchanged = RESET;
 80010aa:	2300      	movs	r3, #0
 80010ac:	75fb      	strb	r3, [r7, #23]
    /* Check the parameters */
    assert_param(IS_RCC_LSE(RCC_OscInitStruct->LSEState));

    /* Update LSE configuration in Backup Domain control register    */
    /* Requires to enable write access to Backup Domain of necessary */
    if(__HAL_RCC_PWR_IS_CLK_DISABLED())
 80010ae:	4b13      	ldr	r3, [pc, #76]	; (80010fc <HAL_RCC_OscConfig+0x2ac>)
 80010b0:	6c1b      	ldr	r3, [r3, #64]	; 0x40
 80010b2:	f003 5380 	and.w	r3, r3, #268435456	; 0x10000000
 80010b6:	2b00      	cmp	r3, #0
 80010b8:	d10f      	bne.n	80010da <HAL_RCC_OscConfig+0x28a>
    {
      __HAL_RCC_PWR_CLK_ENABLE();
 80010ba:	2300      	movs	r3, #0
 80010bc:	60bb      	str	r3, [r7, #8]
 80010be:	4b0f      	ldr	r3, [pc, #60]	; (80010fc <HAL_RCC_OscConfig+0x2ac>)
 80010c0:	6c1b      	ldr	r3, [r3, #64]	; 0x40
 80010c2:	4a0e      	ldr	r2, [pc, #56]	; (80010fc <HAL_RCC_OscConfig+0x2ac>)
 80010c4:	f043 5380 	orr.w	r3, r3, #268435456	; 0x10000000
 80010c8:	6413      	str	r3, [r2, #64]	; 0x40
 80010ca:	4b0c      	ldr	r3, [pc, #48]	; (80010fc <HAL_RCC_OscConfig+0x2ac>)
 80010cc:	6c1b      	ldr	r3, [r3, #64]	; 0x40
 80010ce:	f003 5380 	and.w	r3, r3, #268435456	; 0x10000000
 80010d2:	60bb      	str	r3, [r7, #8]
 80010d4:	68bb      	ldr	r3, [r7, #8]
      pwrclkchanged = SET;
 80010d6:	2301      	movs	r3, #1
 80010d8:	75fb      	strb	r3, [r7, #23]
    }

    if(HAL_IS_BIT_CLR(PWR->CR, PWR_CR_DBP))
 80010da:	4b0b      	ldr	r3, [pc, #44]	; (8001108 <HAL_RCC_OscConfig+0x2b8>)
 80010dc:	681b      	ldr	r3, [r3, #0]
 80010de:	f403 7380 	and.w	r3, r3, #256	; 0x100
 80010e2:	2b00      	cmp	r3, #0
 80010e4:	d121      	bne.n	800112a <HAL_RCC_OscConfig+0x2da>
    {
      /* Enable write access to Backup domain */
      SET_BIT(PWR->CR, PWR_CR_DBP);
 80010e6:	4b08      	ldr	r3, [pc, #32]	; (8001108 <HAL_RCC_OscConfig+0x2b8>)
 80010e8:	681b      	ldr	r3, [r3, #0]
 80010ea:	4a07      	ldr	r2, [pc, #28]	; (8001108 <HAL_RCC_OscConfig+0x2b8>)
 80010ec:	f443 7380 	orr.w	r3, r3, #256	; 0x100
 80010f0:	6013      	str	r3, [r2, #0]

      /* Wait for Backup domain Write protection disable */
      tickstart = HAL_GetTick();
 80010f2:	f7ff fbcb 	bl	800088c <HAL_GetTick>
 80010f6:	6138      	str	r0, [r7, #16]

      while(HAL_IS_BIT_CLR(PWR->CR, PWR_CR_DBP))
 80010f8:	e011      	b.n	800111e <HAL_RCC_OscConfig+0x2ce>
 80010fa:	bf00      	nop
 80010fc:	40023800 	.word	0x40023800
 8001100:	42470000 	.word	0x42470000
 8001104:	42470e80 	.word	0x42470e80
 8001108:	40007000 	.word	0x40007000
      {
        if((HAL_GetTick() - tickstart) > RCC_DBP_TIMEOUT_VALUE)
 800110c:	f7ff fbbe 	bl	800088c <HAL_GetTick>
 8001110:	4602      	mov	r2, r0
 8001112:	693b      	ldr	r3, [r7, #16]
 8001114:	1ad3      	subs	r3, r2, r3
 8001116:	2b02      	cmp	r3, #2
 8001118:	d901      	bls.n	800111e <HAL_RCC_OscConfig+0x2ce>
        {
          return HAL_TIMEOUT;
 800111a:	2303      	movs	r3, #3
 800111c:	e0fd      	b.n	800131a <HAL_RCC_OscConfig+0x4ca>
      while(HAL_IS_BIT_CLR(PWR->CR, PWR_CR_DBP))
 800111e:	4b81      	ldr	r3, [pc, #516]	; (8001324 <HAL_RCC_OscConfig+0x4d4>)
 8001120:	681b      	ldr	r3, [r3, #0]
 8001122:	f403 7380 	and.w	r3, r3, #256	; 0x100
 8001126:	2b00      	cmp	r3, #0
 8001128:	d0f0      	beq.n	800110c <HAL_RCC_OscConfig+0x2bc>
        }
      }
    }

    /* Set the new LSE configuration -----------------------------------------*/
    __HAL_RCC_LSE_CONFIG(RCC_OscInitStruct->LSEState);
 800112a:	687b      	ldr	r3, [r7, #4]
 800112c:	689b      	ldr	r3, [r3, #8]
 800112e:	2b01      	cmp	r3, #1
 8001130:	d106      	bne.n	8001140 <HAL_RCC_OscConfig+0x2f0>
 8001132:	4b7d      	ldr	r3, [pc, #500]	; (8001328 <HAL_RCC_OscConfig+0x4d8>)
 8001134:	6f1b      	ldr	r3, [r3, #112]	; 0x70
 8001136:	4a7c      	ldr	r2, [pc, #496]	; (8001328 <HAL_RCC_OscConfig+0x4d8>)
 8001138:	f043 0301 	orr.w	r3, r3, #1
 800113c:	6713      	str	r3, [r2, #112]	; 0x70
 800113e:	e01c      	b.n	800117a <HAL_RCC_OscConfig+0x32a>
 8001140:	687b      	ldr	r3, [r7, #4]
 8001142:	689b      	ldr	r3, [r3, #8]
 8001144:	2b05      	cmp	r3, #5
 8001146:	d10c      	bne.n	8001162 <HAL_RCC_OscConfig+0x312>
 8001148:	4b77      	ldr	r3, [pc, #476]	; (8001328 <HAL_RCC_OscConfig+0x4d8>)
 800114a:	6f1b      	ldr	r3, [r3, #112]	; 0x70
 800114c:	4a76      	ldr	r2, [pc, #472]	; (8001328 <HAL_RCC_OscConfig+0x4d8>)
 800114e:	f043 0304 	orr.w	r3, r3, #4
 8001152:	6713      	str	r3, [r2, #112]	; 0x70
 8001154:	4b74      	ldr	r3, [pc, #464]	; (8001328 <HAL_RCC_OscConfig+0x4d8>)
 8001156:	6f1b      	ldr	r3, [r3, #112]	; 0x70
 8001158:	4a73      	ldr	r2, [pc, #460]	; (8001328 <HAL_RCC_OscConfig+0x4d8>)
 800115a:	f043 0301 	orr.w	r3, r3, #1
 800115e:	6713      	str	r3, [r2, #112]	; 0x70
 8001160:	e00b      	b.n	800117a <HAL_RCC_OscConfig+0x32a>
 8001162:	4b71      	ldr	r3, [pc, #452]	; (8001328 <HAL_RCC_OscConfig+0x4d8>)
 8001164:	6f1b      	ldr	r3, [r3, #112]	; 0x70
 8001166:	4a70      	ldr	r2, [pc, #448]	; (8001328 <HAL_RCC_OscConfig+0x4d8>)
 8001168:	f023 0301 	bic.w	r3, r3, #1
 800116c:	6713      	str	r3, [r2, #112]	; 0x70
 800116e:	4b6e      	ldr	r3, [pc, #440]	; (8001328 <HAL_RCC_OscConfig+0x4d8>)
 8001170:	6f1b      	ldr	r3, [r3, #112]	; 0x70
 8001172:	4a6d      	ldr	r2, [pc, #436]	; (8001328 <HAL_RCC_OscConfig+0x4d8>)
 8001174:	f023 0304 	bic.w	r3, r3, #4
 8001178:	6713      	str	r3, [r2, #112]	; 0x70
    /* Check the LSE State */
    if((RCC_OscInitStruct->LSEState) != RCC_LSE_OFF)
 800117a:	687b      	ldr	r3, [r7, #4]
 800117c:	689b      	ldr	r3, [r3, #8]
 800117e:	2b00      	cmp	r3, #0
 8001180:	d015      	beq.n	80011ae <HAL_RCC_OscConfig+0x35e>
    {
      /* Get Start Tick*/
      tickstart = HAL_GetTick();
 8001182:	f7ff fb83 	bl	800088c <HAL_GetTick>
 8001186:	6138      	str	r0, [r7, #16]

      /* Wait till LSE is ready */
      while(__HAL_RCC_GET_FLAG(RCC_FLAG_LSERDY) == RESET)
 8001188:	e00a      	b.n	80011a0 <HAL_RCC_OscConfig+0x350>
      {
        if((HAL_GetTick() - tickstart ) > RCC_LSE_TIMEOUT_VALUE)
 800118a:	f7ff fb7f 	bl	800088c <HAL_GetTick>
 800118e:	4602      	mov	r2, r0
 8001190:	693b      	ldr	r3, [r7, #16]
 8001192:	1ad3      	subs	r3, r2, r3
 8001194:	f241 3288 	movw	r2, #5000	; 0x1388
 8001198:	4293      	cmp	r3, r2
 800119a:	d901      	bls.n	80011a0 <HAL_RCC_OscConfig+0x350>
        {
          return HAL_TIMEOUT;
 800119c:	2303      	movs	r3, #3
 800119e:	e0bc      	b.n	800131a <HAL_RCC_OscConfig+0x4ca>
      while(__HAL_RCC_GET_FLAG(RCC_FLAG_LSERDY) == RESET)
 80011a0:	4b61      	ldr	r3, [pc, #388]	; (8001328 <HAL_RCC_OscConfig+0x4d8>)
 80011a2:	6f1b      	ldr	r3, [r3, #112]	; 0x70
 80011a4:	f003 0302 	and.w	r3, r3, #2
 80011a8:	2b00      	cmp	r3, #0
 80011aa:	d0ee      	beq.n	800118a <HAL_RCC_OscConfig+0x33a>
 80011ac:	e014      	b.n	80011d8 <HAL_RCC_OscConfig+0x388>
      }
    }
    else
    {
      /* Get Start Tick */
      tickstart = HAL_GetTick();
 80011ae:	f7ff fb6d 	bl	800088c <HAL_GetTick>
 80011b2:	6138      	str	r0, [r7, #16]

      /* Wait till LSE is ready */
      while(__HAL_RCC_GET_FLAG(RCC_FLAG_LSERDY) != RESET)
 80011b4:	e00a      	b.n	80011cc <HAL_RCC_OscConfig+0x37c>
      {
        if((HAL_GetTick() - tickstart ) > RCC_LSE_TIMEOUT_VALUE)
 80011b6:	f7ff fb69 	bl	800088c <HAL_GetTick>
 80011ba:	4602      	mov	r2, r0
 80011bc:	693b      	ldr	r3, [r7, #16]
 80011be:	1ad3      	subs	r3, r2, r3
 80011c0:	f241 3288 	movw	r2, #5000	; 0x1388
 80011c4:	4293      	cmp	r3, r2
 80011c6:	d901      	bls.n	80011cc <HAL_RCC_OscConfig+0x37c>
        {
          return HAL_TIMEOUT;
 80011c8:	2303      	movs	r3, #3
 80011ca:	e0a6      	b.n	800131a <HAL_RCC_OscConfig+0x4ca>
      while(__HAL_RCC_GET_FLAG(RCC_FLAG_LSERDY) != RESET)
 80011cc:	4b56      	ldr	r3, [pc, #344]	; (8001328 <HAL_RCC_OscConfig+0x4d8>)
 80011ce:	6f1b      	ldr	r3, [r3, #112]	; 0x70
 80011d0:	f003 0302 	and.w	r3, r3, #2
 80011d4:	2b00      	cmp	r3, #0
 80011d6:	d1ee      	bne.n	80011b6 <HAL_RCC_OscConfig+0x366>
        }
      }
    }

    /* Restore clock configuration if changed */
    if(pwrclkchanged == SET)
 80011d8:	7dfb      	ldrb	r3, [r7, #23]
 80011da:	2b01      	cmp	r3, #1
 80011dc:	d105      	bne.n	80011ea <HAL_RCC_OscConfig+0x39a>
    {
      __HAL_RCC_PWR_CLK_DISABLE();
 80011de:	4b52      	ldr	r3, [pc, #328]	; (8001328 <HAL_RCC_OscConfig+0x4d8>)
 80011e0:	6c1b      	ldr	r3, [r3, #64]	; 0x40
 80011e2:	4a51      	ldr	r2, [pc, #324]	; (8001328 <HAL_RCC_OscConfig+0x4d8>)
 80011e4:	f023 5380 	bic.w	r3, r3, #268435456	; 0x10000000
 80011e8:	6413      	str	r3, [r2, #64]	; 0x40
    }
  }
  /*-------------------------------- PLL Configuration -----------------------*/
  /* Check the parameters */
  assert_param(IS_RCC_PLL(RCC_OscInitStruct->PLL.PLLState));
  if ((RCC_OscInitStruct->PLL.PLLState) != RCC_PLL_NONE)
 80011ea:	687b      	ldr	r3, [r7, #4]
 80011ec:	699b      	ldr	r3, [r3, #24]
 80011ee:	2b00      	cmp	r3, #0
 80011f0:	f000 8092 	beq.w	8001318 <HAL_RCC_OscConfig+0x4c8>
  {
    /* Check if the PLL is used as system clock or not */
    if(__HAL_RCC_GET_SYSCLK_SOURCE() != RCC_CFGR_SWS_PLL)
 80011f4:	4b4c      	ldr	r3, [pc, #304]	; (8001328 <HAL_RCC_OscConfig+0x4d8>)
 80011f6:	689b      	ldr	r3, [r3, #8]
 80011f8:	f003 030c 	and.w	r3, r3, #12
 80011fc:	2b08      	cmp	r3, #8
 80011fe:	d05c      	beq.n	80012ba <HAL_RCC_OscConfig+0x46a>
    {
      if((RCC_OscInitStruct->PLL.PLLState) == RCC_PLL_ON)
 8001200:	687b      	ldr	r3, [r7, #4]
 8001202:	699b      	ldr	r3, [r3, #24]
 8001204:	2b02      	cmp	r3, #2
 8001206:	d141      	bne.n	800128c <HAL_RCC_OscConfig+0x43c>
        assert_param(IS_RCC_PLLN_VALUE(RCC_OscInitStruct->PLL.PLLN));
        assert_param(IS_RCC_PLLP_VALUE(RCC_OscInitStruct->PLL.PLLP));
        assert_param(IS_RCC_PLLQ_VALUE(RCC_OscInitStruct->PLL.PLLQ));

        /* Disable the main PLL. */
        __HAL_RCC_PLL_DISABLE();
 8001208:	4b48      	ldr	r3, [pc, #288]	; (800132c <HAL_RCC_OscConfig+0x4dc>)
 800120a:	2200      	movs	r2, #0
 800120c:	601a      	str	r2, [r3, #0]

        /* Get Start Tick */
        tickstart = HAL_GetTick();
 800120e:	f7ff fb3d 	bl	800088c <HAL_GetTick>
 8001212:	6138      	str	r0, [r7, #16]

        /* Wait till PLL is ready */
        while(__HAL_RCC_GET_FLAG(RCC_FLAG_PLLRDY) != RESET)
 8001214:	e008      	b.n	8001228 <HAL_RCC_OscConfig+0x3d8>
        {
          if((HAL_GetTick() - tickstart ) > PLL_TIMEOUT_VALUE)
 8001216:	f7ff fb39 	bl	800088c <HAL_GetTick>
 800121a:	4602      	mov	r2, r0
 800121c:	693b      	ldr	r3, [r7, #16]
 800121e:	1ad3      	subs	r3, r2, r3
 8001220:	2b02      	cmp	r3, #2
 8001222:	d901      	bls.n	8001228 <HAL_RCC_OscConfig+0x3d8>
          {
            return HAL_TIMEOUT;
 8001224:	2303      	movs	r3, #3
 8001226:	e078      	b.n	800131a <HAL_RCC_OscConfig+0x4ca>
        while(__HAL_RCC_GET_FLAG(RCC_FLAG_PLLRDY) != RESET)
 8001228:	4b3f      	ldr	r3, [pc, #252]	; (8001328 <HAL_RCC_OscConfig+0x4d8>)
 800122a:	681b      	ldr	r3, [r3, #0]
 800122c:	f003 7300 	and.w	r3, r3, #33554432	; 0x2000000
 8001230:	2b00      	cmp	r3, #0
 8001232:	d1f0      	bne.n	8001216 <HAL_RCC_OscConfig+0x3c6>
          }
        }

        /* Configure the main PLL clock source, multiplication and division factors. */
        WRITE_REG(RCC->PLLCFGR, (RCC_OscInitStruct->PLL.PLLSource                                            | \
 8001234:	687b      	ldr	r3, [r7, #4]
 8001236:	69da      	ldr	r2, [r3, #28]
 8001238:	687b      	ldr	r3, [r7, #4]
 800123a:	6a1b      	ldr	r3, [r3, #32]
 800123c:	431a      	orrs	r2, r3
 800123e:	687b      	ldr	r3, [r7, #4]
 8001240:	6a5b      	ldr	r3, [r3, #36]	; 0x24
 8001242:	019b      	lsls	r3, r3, #6
 8001244:	431a      	orrs	r2, r3
 8001246:	687b      	ldr	r3, [r7, #4]
 8001248:	6a9b      	ldr	r3, [r3, #40]	; 0x28
 800124a:	085b      	lsrs	r3, r3, #1
 800124c:	3b01      	subs	r3, #1
 800124e:	041b      	lsls	r3, r3, #16
 8001250:	431a      	orrs	r2, r3
 8001252:	687b      	ldr	r3, [r7, #4]
 8001254:	6adb      	ldr	r3, [r3, #44]	; 0x2c
 8001256:	061b      	lsls	r3, r3, #24
 8001258:	4933      	ldr	r1, [pc, #204]	; (8001328 <HAL_RCC_OscConfig+0x4d8>)
 800125a:	4313      	orrs	r3, r2
 800125c:	604b      	str	r3, [r1, #4]
                                 RCC_OscInitStruct->PLL.PLLM                                                 | \
                                 (RCC_OscInitStruct->PLL.PLLN << RCC_PLLCFGR_PLLN_Pos)             | \
                                 (((RCC_OscInitStruct->PLL.PLLP >> 1U) - 1U) << RCC_PLLCFGR_PLLP_Pos) | \
                                 (RCC_OscInitStruct->PLL.PLLQ << RCC_PLLCFGR_PLLQ_Pos)));
        /* Enable the main PLL. */
        __HAL_RCC_PLL_ENABLE();
 800125e:	4b33      	ldr	r3, [pc, #204]	; (800132c <HAL_RCC_OscConfig+0x4dc>)
 8001260:	2201      	movs	r2, #1
 8001262:	601a      	str	r2, [r3, #0]

        /* Get Start Tick */
        tickstart = HAL_GetTick();
 8001264:	f7ff fb12 	bl	800088c <HAL_GetTick>
 8001268:	6138      	str	r0, [r7, #16]

        /* Wait till PLL is ready */
        while(__HAL_RCC_GET_FLAG(RCC_FLAG_PLLRDY) == RESET)
 800126a:	e008      	b.n	800127e <HAL_RCC_OscConfig+0x42e>
        {
          if((HAL_GetTick() - tickstart ) > PLL_TIMEOUT_VALUE)
 800126c:	f7ff fb0e 	bl	800088c <HAL_GetTick>
 8001270:	4602      	mov	r2, r0
 8001272:	693b      	ldr	r3, [r7, #16]
 8001274:	1ad3      	subs	r3, r2, r3
 8001276:	2b02      	cmp	r3, #2
 8001278:	d901      	bls.n	800127e <HAL_RCC_OscConfig+0x42e>
          {
            return HAL_TIMEOUT;
 800127a:	2303      	movs	r3, #3
 800127c:	e04d      	b.n	800131a <HAL_RCC_OscConfig+0x4ca>
        while(__HAL_RCC_GET_FLAG(RCC_FLAG_PLLRDY) == RESET)
 800127e:	4b2a      	ldr	r3, [pc, #168]	; (8001328 <HAL_RCC_OscConfig+0x4d8>)
 8001280:	681b      	ldr	r3, [r3, #0]
 8001282:	f003 7300 	and.w	r3, r3, #33554432	; 0x2000000
 8001286:	2b00      	cmp	r3, #0
 8001288:	d0f0      	beq.n	800126c <HAL_RCC_OscConfig+0x41c>
 800128a:	e045      	b.n	8001318 <HAL_RCC_OscConfig+0x4c8>
        }
      }
      else
      {
        /* Disable the main PLL. */
        __HAL_RCC_PLL_DISABLE();
 800128c:	4b27      	ldr	r3, [pc, #156]	; (800132c <HAL_RCC_OscConfig+0x4dc>)
 800128e:	2200      	movs	r2, #0
 8001290:	601a      	str	r2, [r3, #0]

        /* Get Start Tick */
        tickstart = HAL_GetTick();
 8001292:	f7ff fafb 	bl	800088c <HAL_GetTick>
 8001296:	6138      	str	r0, [r7, #16]

        /* Wait till PLL is ready */
        while(__HAL_RCC_GET_FLAG(RCC_FLAG_PLLRDY) != RESET)
 8001298:	e008      	b.n	80012ac <HAL_RCC_OscConfig+0x45c>
        {
          if((HAL_GetTick() - tickstart ) > PLL_TIMEOUT_VALUE)
 800129a:	f7ff faf7 	bl	800088c <HAL_GetTick>
 800129e:	4602      	mov	r2, r0
 80012a0:	693b      	ldr	r3, [r7, #16]
 80012a2:	1ad3      	subs	r3, r2, r3
 80012a4:	2b02      	cmp	r3, #2
 80012a6:	d901      	bls.n	80012ac <HAL_RCC_OscConfig+0x45c>
          {
            return HAL_TIMEOUT;
 80012a8:	2303      	movs	r3, #3
 80012aa:	e036      	b.n	800131a <HAL_RCC_OscConfig+0x4ca>
        while(__HAL_RCC_GET_FLAG(RCC_FLAG_PLLRDY) != RESET)
 80012ac:	4b1e      	ldr	r3, [pc, #120]	; (8001328 <HAL_RCC_OscConfig+0x4d8>)
 80012ae:	681b      	ldr	r3, [r3, #0]
 80012b0:	f003 7300 	and.w	r3, r3, #33554432	; 0x2000000
 80012b4:	2b00      	cmp	r3, #0
 80012b6:	d1f0      	bne.n	800129a <HAL_RCC_OscConfig+0x44a>
 80012b8:	e02e      	b.n	8001318 <HAL_RCC_OscConfig+0x4c8>
      }
    }
    else
    {
      /* Check if there is a request to disable the PLL used as System clock source */
      if((RCC_OscInitStruct->PLL.PLLState) == RCC_PLL_OFF)
 80012ba:	687b      	ldr	r3, [r7, #4]
 80012bc:	699b      	ldr	r3, [r3, #24]
 80012be:	2b01      	cmp	r3, #1
 80012c0:	d101      	bne.n	80012c6 <HAL_RCC_OscConfig+0x476>
      {
        return HAL_ERROR;
 80012c2:	2301      	movs	r3, #1
 80012c4:	e029      	b.n	800131a <HAL_RCC_OscConfig+0x4ca>
      }
      else
      {
        /* Do not return HAL_ERROR if request repeats the current configuration */
        pll_config = RCC->PLLCFGR;
 80012c6:	4b18      	ldr	r3, [pc, #96]	; (8001328 <HAL_RCC_OscConfig+0x4d8>)
 80012c8:	685b      	ldr	r3, [r3, #4]
 80012ca:	60fb      	str	r3, [r7, #12]
        if((READ_BIT(pll_config, RCC_PLLCFGR_PLLSRC) != RCC_OscInitStruct->PLL.PLLSource) ||
 80012cc:	68fb      	ldr	r3, [r7, #12]
 80012ce:	f403 0280 	and.w	r2, r3, #4194304	; 0x400000
 80012d2:	687b      	ldr	r3, [r7, #4]
 80012d4:	69db      	ldr	r3, [r3, #28]
 80012d6:	429a      	cmp	r2, r3
 80012d8:	d11c      	bne.n	8001314 <HAL_RCC_OscConfig+0x4c4>
           (READ_BIT(pll_config, RCC_PLLCFGR_PLLM) != RCC_OscInitStruct->PLL.PLLM) ||
 80012da:	68fb      	ldr	r3, [r7, #12]
 80012dc:	f003 023f 	and.w	r2, r3, #63	; 0x3f
 80012e0:	687b      	ldr	r3, [r7, #4]
 80012e2:	6a1b      	ldr	r3, [r3, #32]
        if((READ_BIT(pll_config, RCC_PLLCFGR_PLLSRC) != RCC_OscInitStruct->PLL.PLLSource) ||
 80012e4:	429a      	cmp	r2, r3
 80012e6:	d115      	bne.n	8001314 <HAL_RCC_OscConfig+0x4c4>
           (READ_BIT(pll_config, RCC_PLLCFGR_PLLN) != RCC_OscInitStruct->PLL.PLLN) ||
 80012e8:	68fa      	ldr	r2, [r7, #12]
 80012ea:	f647 73c0 	movw	r3, #32704	; 0x7fc0
 80012ee:	4013      	ands	r3, r2
 80012f0:	687a      	ldr	r2, [r7, #4]
 80012f2:	6a52      	ldr	r2, [r2, #36]	; 0x24
           (READ_BIT(pll_config, RCC_PLLCFGR_PLLM) != RCC_OscInitStruct->PLL.PLLM) ||
 80012f4:	4293      	cmp	r3, r2
 80012f6:	d10d      	bne.n	8001314 <HAL_RCC_OscConfig+0x4c4>
           (READ_BIT(pll_config, RCC_PLLCFGR_PLLP) != RCC_OscInitStruct->PLL.PLLP) ||
 80012f8:	68fb      	ldr	r3, [r7, #12]
 80012fa:	f403 3240 	and.w	r2, r3, #196608	; 0x30000
 80012fe:	687b      	ldr	r3, [r7, #4]
 8001300:	6a9b      	ldr	r3, [r3, #40]	; 0x28
           (READ_BIT(pll_config, RCC_PLLCFGR_PLLN) != RCC_OscInitStruct->PLL.PLLN) ||
 8001302:	429a      	cmp	r2, r3
 8001304:	d106      	bne.n	8001314 <HAL_RCC_OscConfig+0x4c4>
           (READ_BIT(pll_config, RCC_PLLCFGR_PLLQ) != RCC_OscInitStruct->PLL.PLLQ))
 8001306:	68fb      	ldr	r3, [r7, #12]
 8001308:	f003 6270 	and.w	r2, r3, #251658240	; 0xf000000
 800130c:	687b      	ldr	r3, [r7, #4]
 800130e:	6adb      	ldr	r3, [r3, #44]	; 0x2c
           (READ_BIT(pll_config, RCC_PLLCFGR_PLLP) != RCC_OscInitStruct->PLL.PLLP) ||
 8001310:	429a      	cmp	r2, r3
 8001312:	d001      	beq.n	8001318 <HAL_RCC_OscConfig+0x4c8>
        {
          return HAL_ERROR;
 8001314:	2301      	movs	r3, #1
 8001316:	e000      	b.n	800131a <HAL_RCC_OscConfig+0x4ca>
        }
      }
    }
  }
  return HAL_OK;
 8001318:	2300      	movs	r3, #0
}
 800131a:	4618      	mov	r0, r3
 800131c:	3718      	adds	r7, #24
 800131e:	46bd      	mov	sp, r7
 8001320:	bd80      	pop	{r7, pc}
 8001322:	bf00      	nop
 8001324:	40007000 	.word	0x40007000
 8001328:	40023800 	.word	0x40023800
 800132c:	42470060 	.word	0x42470060

08001330 <HAL_RCC_ClockConfig>:
  *         HPRE[3:0] bits to ensure that HCLK not exceed the maximum allowed frequency
  *         (for more details refer to section above "Initialization/de-initialization functions")
  * @retval None
  */
HAL_StatusTypeDef HAL_RCC_ClockConfig(RCC_ClkInitTypeDef  *RCC_ClkInitStruct, uint32_t FLatency)
{
 8001330:	b580      	push	{r7, lr}
 8001332:	b084      	sub	sp, #16
 8001334:	af00      	add	r7, sp, #0
 8001336:	6078      	str	r0, [r7, #4]
 8001338:	6039      	str	r1, [r7, #0]
  uint32_t tickstart;

  /* Check Null pointer */
  if(RCC_ClkInitStruct == NULL)
 800133a:	687b      	ldr	r3, [r7, #4]
 800133c:	2b00      	cmp	r3, #0
 800133e:	d101      	bne.n	8001344 <HAL_RCC_ClockConfig+0x14>
  {
    return HAL_ERROR;
 8001340:	2301      	movs	r3, #1
 8001342:	e0cc      	b.n	80014de <HAL_RCC_ClockConfig+0x1ae>
  /* To correctly read data from FLASH memory, the number of wait states (LATENCY)
    must be correctly programmed according to the frequency of the CPU clock
    (HCLK) and the supply voltage of the device. */

  /* Increasing the number of wait states because of higher CPU frequency */
  if(FLatency > __HAL_FLASH_GET_LATENCY())
 8001344:	4b68      	ldr	r3, [pc, #416]	; (80014e8 <HAL_RCC_ClockConfig+0x1b8>)
 8001346:	681b      	ldr	r3, [r3, #0]
 8001348:	f003 030f 	and.w	r3, r3, #15
 800134c:	683a      	ldr	r2, [r7, #0]
 800134e:	429a      	cmp	r2, r3
 8001350:	d90c      	bls.n	800136c <HAL_RCC_ClockConfig+0x3c>
  {
    /* Program the new number of wait states to the LATENCY bits in the FLASH_ACR register */
    __HAL_FLASH_SET_LATENCY(FLatency);
 8001352:	4b65      	ldr	r3, [pc, #404]	; (80014e8 <HAL_RCC_ClockConfig+0x1b8>)
 8001354:	683a      	ldr	r2, [r7, #0]
 8001356:	b2d2      	uxtb	r2, r2
 8001358:	701a      	strb	r2, [r3, #0]

    /* Check that the new number of wait states is taken into account to access the Flash
    memory by reading the FLASH_ACR register */
    if(__HAL_FLASH_GET_LATENCY() != FLatency)
 800135a:	4b63      	ldr	r3, [pc, #396]	; (80014e8 <HAL_RCC_ClockConfig+0x1b8>)
 800135c:	681b      	ldr	r3, [r3, #0]
 800135e:	f003 030f 	and.w	r3, r3, #15
 8001362:	683a      	ldr	r2, [r7, #0]
 8001364:	429a      	cmp	r2, r3
 8001366:	d001      	beq.n	800136c <HAL_RCC_ClockConfig+0x3c>
    {
      return HAL_ERROR;
 8001368:	2301      	movs	r3, #1
 800136a:	e0b8      	b.n	80014de <HAL_RCC_ClockConfig+0x1ae>
    }
  }

  /*-------------------------- HCLK Configuration --------------------------*/
  if(((RCC_ClkInitStruct->ClockType) & RCC_CLOCKTYPE_HCLK) == RCC_CLOCKTYPE_HCLK)
 800136c:	687b      	ldr	r3, [r7, #4]
 800136e:	681b      	ldr	r3, [r3, #0]
 8001370:	f003 0302 	and.w	r3, r3, #2
 8001374:	2b00      	cmp	r3, #0
 8001376:	d020      	beq.n	80013ba <HAL_RCC_ClockConfig+0x8a>
  {
    /* Set the highest APBx dividers in order to ensure that we do not go through
       a non-spec phase whatever we decrease or increase HCLK. */
    if(((RCC_ClkInitStruct->ClockType) & RCC_CLOCKTYPE_PCLK1) == RCC_CLOCKTYPE_PCLK1)
 8001378:	687b      	ldr	r3, [r7, #4]
 800137a:	681b      	ldr	r3, [r3, #0]
 800137c:	f003 0304 	and.w	r3, r3, #4
 8001380:	2b00      	cmp	r3, #0
 8001382:	d005      	beq.n	8001390 <HAL_RCC_ClockConfig+0x60>
    {
      MODIFY_REG(RCC->CFGR, RCC_CFGR_PPRE1, RCC_HCLK_DIV16);
 8001384:	4b59      	ldr	r3, [pc, #356]	; (80014ec <HAL_RCC_ClockConfig+0x1bc>)
 8001386:	689b      	ldr	r3, [r3, #8]
 8001388:	4a58      	ldr	r2, [pc, #352]	; (80014ec <HAL_RCC_ClockConfig+0x1bc>)
 800138a:	f443 53e0 	orr.w	r3, r3, #7168	; 0x1c00
 800138e:	6093      	str	r3, [r2, #8]
    }

    if(((RCC_ClkInitStruct->ClockType) & RCC_CLOCKTYPE_PCLK2) == RCC_CLOCKTYPE_PCLK2)
 8001390:	687b      	ldr	r3, [r7, #4]
 8001392:	681b      	ldr	r3, [r3, #0]
 8001394:	f003 0308 	and.w	r3, r3, #8
 8001398:	2b00      	cmp	r3, #0
 800139a:	d005      	beq.n	80013a8 <HAL_RCC_ClockConfig+0x78>
    {
      MODIFY_REG(RCC->CFGR, RCC_CFGR_PPRE2, (RCC_HCLK_DIV16 << 3));
 800139c:	4b53      	ldr	r3, [pc, #332]	; (80014ec <HAL_RCC_ClockConfig+0x1bc>)
 800139e:	689b      	ldr	r3, [r3, #8]
 80013a0:	4a52      	ldr	r2, [pc, #328]	; (80014ec <HAL_RCC_ClockConfig+0x1bc>)
 80013a2:	f443 4360 	orr.w	r3, r3, #57344	; 0xe000
 80013a6:	6093      	str	r3, [r2, #8]
    }

    assert_param(IS_RCC_HCLK(RCC_ClkInitStruct->AHBCLKDivider));
    MODIFY_REG(RCC->CFGR, RCC_CFGR_HPRE, RCC_ClkInitStruct->AHBCLKDivider);
 80013a8:	4b50      	ldr	r3, [pc, #320]	; (80014ec <HAL_RCC_ClockConfig+0x1bc>)
 80013aa:	689b      	ldr	r3, [r3, #8]
 80013ac:	f023 02f0 	bic.w	r2, r3, #240	; 0xf0
 80013b0:	687b      	ldr	r3, [r7, #4]
 80013b2:	689b      	ldr	r3, [r3, #8]
 80013b4:	494d      	ldr	r1, [pc, #308]	; (80014ec <HAL_RCC_ClockConfig+0x1bc>)
 80013b6:	4313      	orrs	r3, r2
 80013b8:	608b      	str	r3, [r1, #8]
  }

  /*------------------------- SYSCLK Configuration ---------------------------*/
  if(((RCC_ClkInitStruct->ClockType) & RCC_CLOCKTYPE_SYSCLK) == RCC_CLOCKTYPE_SYSCLK)
 80013ba:	687b      	ldr	r3, [r7, #4]
 80013bc:	681b      	ldr	r3, [r3, #0]
 80013be:	f003 0301 	and.w	r3, r3, #1
 80013c2:	2b00      	cmp	r3, #0
 80013c4:	d044      	beq.n	8001450 <HAL_RCC_ClockConfig+0x120>
  {
    assert_param(IS_RCC_SYSCLKSOURCE(RCC_ClkInitStruct->SYSCLKSource));

    /* HSE is selected as System Clock Source */
    if(RCC_ClkInitStruct->SYSCLKSource == RCC_SYSCLKSOURCE_HSE)
 80013c6:	687b      	ldr	r3, [r7, #4]
 80013c8:	685b      	ldr	r3, [r3, #4]
 80013ca:	2b01      	cmp	r3, #1
 80013cc:	d107      	bne.n	80013de <HAL_RCC_ClockConfig+0xae>
    {
      /* Check the HSE ready flag */
      if(__HAL_RCC_GET_FLAG(RCC_FLAG_HSERDY) == RESET)
 80013ce:	4b47      	ldr	r3, [pc, #284]	; (80014ec <HAL_RCC_ClockConfig+0x1bc>)
 80013d0:	681b      	ldr	r3, [r3, #0]
 80013d2:	f403 3300 	and.w	r3, r3, #131072	; 0x20000
 80013d6:	2b00      	cmp	r3, #0
 80013d8:	d119      	bne.n	800140e <HAL_RCC_ClockConfig+0xde>
      {
        return HAL_ERROR;
 80013da:	2301      	movs	r3, #1
 80013dc:	e07f      	b.n	80014de <HAL_RCC_ClockConfig+0x1ae>
      }
    }
    /* PLL is selected as System Clock Source */
    else if((RCC_ClkInitStruct->SYSCLKSource == RCC_SYSCLKSOURCE_PLLCLK)   ||
 80013de:	687b      	ldr	r3, [r7, #4]
 80013e0:	685b      	ldr	r3, [r3, #4]
 80013e2:	2b02      	cmp	r3, #2
 80013e4:	d003      	beq.n	80013ee <HAL_RCC_ClockConfig+0xbe>
            (RCC_ClkInitStruct->SYSCLKSource == RCC_SYSCLKSOURCE_PLLRCLK))
 80013e6:	687b      	ldr	r3, [r7, #4]
 80013e8:	685b      	ldr	r3, [r3, #4]
    else if((RCC_ClkInitStruct->SYSCLKSource == RCC_SYSCLKSOURCE_PLLCLK)   ||
 80013ea:	2b03      	cmp	r3, #3
 80013ec:	d107      	bne.n	80013fe <HAL_RCC_ClockConfig+0xce>
    {
      /* Check the PLL ready flag */
      if(__HAL_RCC_GET_FLAG(RCC_FLAG_PLLRDY) == RESET)
 80013ee:	4b3f      	ldr	r3, [pc, #252]	; (80014ec <HAL_RCC_ClockConfig+0x1bc>)
 80013f0:	681b      	ldr	r3, [r3, #0]
 80013f2:	f003 7300 	and.w	r3, r3, #33554432	; 0x2000000
 80013f6:	2b00      	cmp	r3, #0
 80013f8:	d109      	bne.n	800140e <HAL_RCC_ClockConfig+0xde>
      {
        return HAL_ERROR;
 80013fa:	2301      	movs	r3, #1
 80013fc:	e06f      	b.n	80014de <HAL_RCC_ClockConfig+0x1ae>
    }
    /* HSI is selected as System Clock Source */
    else
    {
      /* Check the HSI ready flag */
      if(__HAL_RCC_GET_FLAG(RCC_FLAG_HSIRDY) == RESET)
 80013fe:	4b3b      	ldr	r3, [pc, #236]	; (80014ec <HAL_RCC_ClockConfig+0x1bc>)
 8001400:	681b      	ldr	r3, [r3, #0]
 8001402:	f003 0302 	and.w	r3, r3, #2
 8001406:	2b00      	cmp	r3, #0
 8001408:	d101      	bne.n	800140e <HAL_RCC_ClockConfig+0xde>
      {
        return HAL_ERROR;
 800140a:	2301      	movs	r3, #1
 800140c:	e067      	b.n	80014de <HAL_RCC_ClockConfig+0x1ae>
      }
    }

    __HAL_RCC_SYSCLK_CONFIG(RCC_ClkInitStruct->SYSCLKSource);
 800140e:	4b37      	ldr	r3, [pc, #220]	; (80014ec <HAL_RCC_ClockConfig+0x1bc>)
 8001410:	689b      	ldr	r3, [r3, #8]
 8001412:	f023 0203 	bic.w	r2, r3, #3
 8001416:	687b      	ldr	r3, [r7, #4]
 8001418:	685b      	ldr	r3, [r3, #4]
 800141a:	4934      	ldr	r1, [pc, #208]	; (80014ec <HAL_RCC_ClockConfig+0x1bc>)
 800141c:	4313      	orrs	r3, r2
 800141e:	608b      	str	r3, [r1, #8]

    /* Get Start Tick */
    tickstart = HAL_GetTick();
 8001420:	f7ff fa34 	bl	800088c <HAL_GetTick>
 8001424:	60f8      	str	r0, [r7, #12]

    while (__HAL_RCC_GET_SYSCLK_SOURCE() != (RCC_ClkInitStruct->SYSCLKSource << RCC_CFGR_SWS_Pos))
 8001426:	e00a      	b.n	800143e <HAL_RCC_ClockConfig+0x10e>
    {
      if ((HAL_GetTick() - tickstart) > CLOCKSWITCH_TIMEOUT_VALUE)
 8001428:	f7ff fa30 	bl	800088c <HAL_GetTick>
 800142c:	4602      	mov	r2, r0
 800142e:	68fb      	ldr	r3, [r7, #12]
 8001430:	1ad3      	subs	r3, r2, r3
 8001432:	f241 3288 	movw	r2, #5000	; 0x1388
 8001436:	4293      	cmp	r3, r2
 8001438:	d901      	bls.n	800143e <HAL_RCC_ClockConfig+0x10e>
      {
        return HAL_TIMEOUT;
 800143a:	2303      	movs	r3, #3
 800143c:	e04f      	b.n	80014de <HAL_RCC_ClockConfig+0x1ae>
    while (__HAL_RCC_GET_SYSCLK_SOURCE() != (RCC_ClkInitStruct->SYSCLKSource << RCC_CFGR_SWS_Pos))
 800143e:	4b2b      	ldr	r3, [pc, #172]	; (80014ec <HAL_RCC_ClockConfig+0x1bc>)
 8001440:	689b      	ldr	r3, [r3, #8]
 8001442:	f003 020c 	and.w	r2, r3, #12
 8001446:	687b      	ldr	r3, [r7, #4]
 8001448:	685b      	ldr	r3, [r3, #4]
 800144a:	009b      	lsls	r3, r3, #2
 800144c:	429a      	cmp	r2, r3
 800144e:	d1eb      	bne.n	8001428 <HAL_RCC_ClockConfig+0xf8>
      }
    }
  }

  /* Decreasing the number of wait states because of lower CPU frequency */
  if(FLatency < __HAL_FLASH_GET_LATENCY())
 8001450:	4b25      	ldr	r3, [pc, #148]	; (80014e8 <HAL_RCC_ClockConfig+0x1b8>)
 8001452:	681b      	ldr	r3, [r3, #0]
 8001454:	f003 030f 	and.w	r3, r3, #15
 8001458:	683a      	ldr	r2, [r7, #0]
 800145a:	429a      	cmp	r2, r3
 800145c:	d20c      	bcs.n	8001478 <HAL_RCC_ClockConfig+0x148>
  {
     /* Program the new number of wait states to the LATENCY bits in the FLASH_ACR register */
    __HAL_FLASH_SET_LATENCY(FLatency);
 800145e:	4b22      	ldr	r3, [pc, #136]	; (80014e8 <HAL_RCC_ClockConfig+0x1b8>)
 8001460:	683a      	ldr	r2, [r7, #0]
 8001462:	b2d2      	uxtb	r2, r2
 8001464:	701a      	strb	r2, [r3, #0]

    /* Check that the new number of wait states is taken into account to access the Flash
    memory by reading the FLASH_ACR register */
    if(__HAL_FLASH_GET_LATENCY() != FLatency)
 8001466:	4b20      	ldr	r3, [pc, #128]	; (80014e8 <HAL_RCC_ClockConfig+0x1b8>)
 8001468:	681b      	ldr	r3, [r3, #0]
 800146a:	f003 030f 	and.w	r3, r3, #15
 800146e:	683a      	ldr	r2, [r7, #0]
 8001470:	429a      	cmp	r2, r3
 8001472:	d001      	beq.n	8001478 <HAL_RCC_ClockConfig+0x148>
    {
      return HAL_ERROR;
 8001474:	2301      	movs	r3, #1
 8001476:	e032      	b.n	80014de <HAL_RCC_ClockConfig+0x1ae>
    }
  }

  /*-------------------------- PCLK1 Configuration ---------------------------*/
  if(((RCC_ClkInitStruct->ClockType) & RCC_CLOCKTYPE_PCLK1) == RCC_CLOCKTYPE_PCLK1)
 8001478:	687b      	ldr	r3, [r7, #4]
 800147a:	681b      	ldr	r3, [r3, #0]
 800147c:	f003 0304 	and.w	r3, r3, #4
 8001480:	2b00      	cmp	r3, #0
 8001482:	d008      	beq.n	8001496 <HAL_RCC_ClockConfig+0x166>
  {
    assert_param(IS_RCC_PCLK(RCC_ClkInitStruct->APB1CLKDivider));
    MODIFY_REG(RCC->CFGR, RCC_CFGR_PPRE1, RCC_ClkInitStruct->APB1CLKDivider);
 8001484:	4b19      	ldr	r3, [pc, #100]	; (80014ec <HAL_RCC_ClockConfig+0x1bc>)
 8001486:	689b      	ldr	r3, [r3, #8]
 8001488:	f423 52e0 	bic.w	r2, r3, #7168	; 0x1c00
 800148c:	687b      	ldr	r3, [r7, #4]
 800148e:	68db      	ldr	r3, [r3, #12]
 8001490:	4916      	ldr	r1, [pc, #88]	; (80014ec <HAL_RCC_ClockConfig+0x1bc>)
 8001492:	4313      	orrs	r3, r2
 8001494:	608b      	str	r3, [r1, #8]
  }

  /*-------------------------- PCLK2 Configuration ---------------------------*/
  if(((RCC_ClkInitStruct->ClockType) & RCC_CLOCKTYPE_PCLK2) == RCC_CLOCKTYPE_PCLK2)
 8001496:	687b      	ldr	r3, [r7, #4]
 8001498:	681b      	ldr	r3, [r3, #0]
 800149a:	f003 0308 	and.w	r3, r3, #8
 800149e:	2b00      	cmp	r3, #0
 80014a0:	d009      	beq.n	80014b6 <HAL_RCC_ClockConfig+0x186>
  {
    assert_param(IS_RCC_PCLK(RCC_ClkInitStruct->APB2CLKDivider));
    MODIFY_REG(RCC->CFGR, RCC_CFGR_PPRE2, ((RCC_ClkInitStruct->APB2CLKDivider) << 3U));
 80014a2:	4b12      	ldr	r3, [pc, #72]	; (80014ec <HAL_RCC_ClockConfig+0x1bc>)
 80014a4:	689b      	ldr	r3, [r3, #8]
 80014a6:	f423 4260 	bic.w	r2, r3, #57344	; 0xe000
 80014aa:	687b      	ldr	r3, [r7, #4]
 80014ac:	691b      	ldr	r3, [r3, #16]
 80014ae:	00db      	lsls	r3, r3, #3
 80014b0:	490e      	ldr	r1, [pc, #56]	; (80014ec <HAL_RCC_ClockConfig+0x1bc>)
 80014b2:	4313      	orrs	r3, r2
 80014b4:	608b      	str	r3, [r1, #8]
  }

  /* Update the SystemCoreClock global variable */
  SystemCoreClock = HAL_RCC_GetSysClockFreq() >> AHBPrescTable[(RCC->CFGR & RCC_CFGR_HPRE)>> RCC_CFGR_HPRE_Pos];
 80014b6:	f000 f889 	bl	80015cc <HAL_RCC_GetSysClockFreq>
 80014ba:	4601      	mov	r1, r0
 80014bc:	4b0b      	ldr	r3, [pc, #44]	; (80014ec <HAL_RCC_ClockConfig+0x1bc>)
 80014be:	689b      	ldr	r3, [r3, #8]
 80014c0:	091b      	lsrs	r3, r3, #4
 80014c2:	f003 030f 	and.w	r3, r3, #15
 80014c6:	4a0a      	ldr	r2, [pc, #40]	; (80014f0 <HAL_RCC_ClockConfig+0x1c0>)
 80014c8:	5cd3      	ldrb	r3, [r2, r3]
 80014ca:	fa21 f303 	lsr.w	r3, r1, r3
 80014ce:	4a09      	ldr	r2, [pc, #36]	; (80014f4 <HAL_RCC_ClockConfig+0x1c4>)
 80014d0:	6013      	str	r3, [r2, #0]

  /* Configure the source of time base considering new system clocks settings */
  HAL_InitTick (uwTickPrio);
 80014d2:	4b09      	ldr	r3, [pc, #36]	; (80014f8 <HAL_RCC_ClockConfig+0x1c8>)
 80014d4:	681b      	ldr	r3, [r3, #0]
 80014d6:	4618      	mov	r0, r3
 80014d8:	f7ff f994 	bl	8000804 <HAL_InitTick>

  return HAL_OK;
 80014dc:	2300      	movs	r3, #0
}
 80014de:	4618      	mov	r0, r3
 80014e0:	3710      	adds	r7, #16
 80014e2:	46bd      	mov	sp, r7
 80014e4:	bd80      	pop	{r7, pc}
 80014e6:	bf00      	nop
 80014e8:	40023c00 	.word	0x40023c00
 80014ec:	40023800 	.word	0x40023800
 80014f0:	08001fb4 	.word	0x08001fb4
 80014f4:	20000000 	.word	0x20000000
 80014f8:	20000004 	.word	0x20000004

080014fc <HAL_RCC_MCOConfig>:
  * @note  For STM32F410Rx devices to output I2SCLK clock on MCO2 you should have
  *        at last one of the SPI clocks enabled (SPI1, SPI2 or SPI5).
  * @retval None
  */
void HAL_RCC_MCOConfig(uint32_t RCC_MCOx, uint32_t RCC_MCOSource, uint32_t RCC_MCODiv)
{
 80014fc:	b580      	push	{r7, lr}
 80014fe:	b08c      	sub	sp, #48	; 0x30
 8001500:	af00      	add	r7, sp, #0
 8001502:	60f8      	str	r0, [r7, #12]
 8001504:	60b9      	str	r1, [r7, #8]
 8001506:	607a      	str	r2, [r7, #4]
  GPIO_InitTypeDef GPIO_InitStruct;
  /* Check the parameters */
  assert_param(IS_RCC_MCO(RCC_MCOx));
  assert_param(IS_RCC_MCODIV(RCC_MCODiv));
  /* RCC_MCO1 */
  if(RCC_MCOx == RCC_MCO1)
 8001508:	68fb      	ldr	r3, [r7, #12]
 800150a:	2b00      	cmp	r3, #0
 800150c:	d129      	bne.n	8001562 <HAL_RCC_MCOConfig+0x66>
  {
    assert_param(IS_RCC_MCO1SOURCE(RCC_MCOSource));

    /* MCO1 Clock Enable */
    __MCO1_CLK_ENABLE();
 800150e:	2300      	movs	r3, #0
 8001510:	61bb      	str	r3, [r7, #24]
 8001512:	4b2b      	ldr	r3, [pc, #172]	; (80015c0 <HAL_RCC_MCOConfig+0xc4>)
 8001514:	6b1b      	ldr	r3, [r3, #48]	; 0x30
 8001516:	4a2a      	ldr	r2, [pc, #168]	; (80015c0 <HAL_RCC_MCOConfig+0xc4>)
 8001518:	f043 0301 	orr.w	r3, r3, #1
 800151c:	6313      	str	r3, [r2, #48]	; 0x30
 800151e:	4b28      	ldr	r3, [pc, #160]	; (80015c0 <HAL_RCC_MCOConfig+0xc4>)
 8001520:	6b1b      	ldr	r3, [r3, #48]	; 0x30
 8001522:	f003 0301 	and.w	r3, r3, #1
 8001526:	61bb      	str	r3, [r7, #24]
 8001528:	69bb      	ldr	r3, [r7, #24]

    /* Configure the MCO1 pin in alternate function mode */
    GPIO_InitStruct.Pin = MCO1_PIN;
 800152a:	f44f 7380 	mov.w	r3, #256	; 0x100
 800152e:	61fb      	str	r3, [r7, #28]
    GPIO_InitStruct.Mode = GPIO_MODE_AF_PP;
 8001530:	2302      	movs	r3, #2
 8001532:	623b      	str	r3, [r7, #32]
    GPIO_InitStruct.Speed = GPIO_SPEED_FREQ_VERY_HIGH;
 8001534:	2303      	movs	r3, #3
 8001536:	62bb      	str	r3, [r7, #40]	; 0x28
    GPIO_InitStruct.Pull = GPIO_NOPULL;
 8001538:	2300      	movs	r3, #0
 800153a:	627b      	str	r3, [r7, #36]	; 0x24
    GPIO_InitStruct.Alternate = GPIO_AF0_MCO;
 800153c:	2300      	movs	r3, #0
 800153e:	62fb      	str	r3, [r7, #44]	; 0x2c
    HAL_GPIO_Init(MCO1_GPIO_PORT, &GPIO_InitStruct);
 8001540:	f107 031c 	add.w	r3, r7, #28
 8001544:	4619      	mov	r1, r3
 8001546:	481f      	ldr	r0, [pc, #124]	; (80015c4 <HAL_RCC_MCOConfig+0xc8>)
 8001548:	f7ff fae8 	bl	8000b1c <HAL_GPIO_Init>

    /* Mask MCO1 and MCO1PRE[2:0] bits then Select MCO1 clock source and prescaler */
    MODIFY_REG(RCC->CFGR, (RCC_CFGR_MCO1 | RCC_CFGR_MCO1PRE), (RCC_MCOSource | RCC_MCODiv));
 800154c:	4b1c      	ldr	r3, [pc, #112]	; (80015c0 <HAL_RCC_MCOConfig+0xc4>)
 800154e:	689b      	ldr	r3, [r3, #8]
 8001550:	f023 62ec 	bic.w	r2, r3, #123731968	; 0x7600000
 8001554:	68b9      	ldr	r1, [r7, #8]
 8001556:	687b      	ldr	r3, [r7, #4]
 8001558:	430b      	orrs	r3, r1
 800155a:	4919      	ldr	r1, [pc, #100]	; (80015c0 <HAL_RCC_MCOConfig+0xc4>)
 800155c:	4313      	orrs	r3, r2
 800155e:	608b      	str	r3, [r1, #8]
#if defined(RCC_CFGR_MCO2EN)
    __HAL_RCC_MCO2_ENABLE();
#endif /* RCC_CFGR_MCO2EN */
  }
#endif /* RCC_CFGR_MCO2 */
}
 8001560:	e029      	b.n	80015b6 <HAL_RCC_MCOConfig+0xba>
    __MCO2_CLK_ENABLE();
 8001562:	2300      	movs	r3, #0
 8001564:	617b      	str	r3, [r7, #20]
 8001566:	4b16      	ldr	r3, [pc, #88]	; (80015c0 <HAL_RCC_MCOConfig+0xc4>)
 8001568:	6b1b      	ldr	r3, [r3, #48]	; 0x30
 800156a:	4a15      	ldr	r2, [pc, #84]	; (80015c0 <HAL_RCC_MCOConfig+0xc4>)
 800156c:	f043 0304 	orr.w	r3, r3, #4
 8001570:	6313      	str	r3, [r2, #48]	; 0x30
 8001572:	4b13      	ldr	r3, [pc, #76]	; (80015c0 <HAL_RCC_MCOConfig+0xc4>)
 8001574:	6b1b      	ldr	r3, [r3, #48]	; 0x30
 8001576:	f003 0304 	and.w	r3, r3, #4
 800157a:	617b      	str	r3, [r7, #20]
 800157c:	697b      	ldr	r3, [r7, #20]
    GPIO_InitStruct.Pin = MCO2_PIN;
 800157e:	f44f 7300 	mov.w	r3, #512	; 0x200
 8001582:	61fb      	str	r3, [r7, #28]
    GPIO_InitStruct.Mode = GPIO_MODE_AF_PP;
 8001584:	2302      	movs	r3, #2
 8001586:	623b      	str	r3, [r7, #32]
    GPIO_InitStruct.Speed = GPIO_SPEED_FREQ_VERY_HIGH;
 8001588:	2303      	movs	r3, #3
 800158a:	62bb      	str	r3, [r7, #40]	; 0x28
    GPIO_InitStruct.Pull = GPIO_NOPULL;
 800158c:	2300      	movs	r3, #0
 800158e:	627b      	str	r3, [r7, #36]	; 0x24
    GPIO_InitStruct.Alternate = GPIO_AF0_MCO;
 8001590:	2300      	movs	r3, #0
 8001592:	62fb      	str	r3, [r7, #44]	; 0x2c
    HAL_GPIO_Init(MCO2_GPIO_PORT, &GPIO_InitStruct);
 8001594:	f107 031c 	add.w	r3, r7, #28
 8001598:	4619      	mov	r1, r3
 800159a:	480b      	ldr	r0, [pc, #44]	; (80015c8 <HAL_RCC_MCOConfig+0xcc>)
 800159c:	f7ff fabe 	bl	8000b1c <HAL_GPIO_Init>
    MODIFY_REG(RCC->CFGR, (RCC_CFGR_MCO2 | RCC_CFGR_MCO2PRE), (RCC_MCOSource | (RCC_MCODiv << 3U)));
 80015a0:	4b07      	ldr	r3, [pc, #28]	; (80015c0 <HAL_RCC_MCOConfig+0xc4>)
 80015a2:	689b      	ldr	r3, [r3, #8]
 80015a4:	f023 4278 	bic.w	r2, r3, #4160749568	; 0xf8000000
 80015a8:	687b      	ldr	r3, [r7, #4]
 80015aa:	00d9      	lsls	r1, r3, #3
 80015ac:	68bb      	ldr	r3, [r7, #8]
 80015ae:	430b      	orrs	r3, r1
 80015b0:	4903      	ldr	r1, [pc, #12]	; (80015c0 <HAL_RCC_MCOConfig+0xc4>)
 80015b2:	4313      	orrs	r3, r2
 80015b4:	608b      	str	r3, [r1, #8]
}
 80015b6:	bf00      	nop
 80015b8:	3730      	adds	r7, #48	; 0x30
 80015ba:	46bd      	mov	sp, r7
 80015bc:	bd80      	pop	{r7, pc}
 80015be:	bf00      	nop
 80015c0:	40023800 	.word	0x40023800
 80015c4:	40020000 	.word	0x40020000
 80015c8:	40020800 	.word	0x40020800

080015cc <HAL_RCC_GetSysClockFreq>:
  *
  *
  * @retval SYSCLK frequency
  */
__weak uint32_t HAL_RCC_GetSysClockFreq(void)
{
 80015cc:	b5f0      	push	{r4, r5, r6, r7, lr}
 80015ce:	b085      	sub	sp, #20
 80015d0:	af00      	add	r7, sp, #0
  uint32_t pllm = 0U, pllvco = 0U, pllp = 0U;
 80015d2:	2300      	movs	r3, #0
 80015d4:	607b      	str	r3, [r7, #4]
 80015d6:	2300      	movs	r3, #0
 80015d8:	60fb      	str	r3, [r7, #12]
 80015da:	2300      	movs	r3, #0
 80015dc:	603b      	str	r3, [r7, #0]
  uint32_t sysclockfreq = 0U;
 80015de:	2300      	movs	r3, #0
 80015e0:	60bb      	str	r3, [r7, #8]

  /* Get SYSCLK source -------------------------------------------------------*/
  switch (RCC->CFGR & RCC_CFGR_SWS)
 80015e2:	4b63      	ldr	r3, [pc, #396]	; (8001770 <HAL_RCC_GetSysClockFreq+0x1a4>)
 80015e4:	689b      	ldr	r3, [r3, #8]
 80015e6:	f003 030c 	and.w	r3, r3, #12
 80015ea:	2b04      	cmp	r3, #4
 80015ec:	d007      	beq.n	80015fe <HAL_RCC_GetSysClockFreq+0x32>
 80015ee:	2b08      	cmp	r3, #8
 80015f0:	d008      	beq.n	8001604 <HAL_RCC_GetSysClockFreq+0x38>
 80015f2:	2b00      	cmp	r3, #0
 80015f4:	f040 80b4 	bne.w	8001760 <HAL_RCC_GetSysClockFreq+0x194>
  {
    case RCC_CFGR_SWS_HSI:  /* HSI used as system clock source */
    {
      sysclockfreq = HSI_VALUE;
 80015f8:	4b5e      	ldr	r3, [pc, #376]	; (8001774 <HAL_RCC_GetSysClockFreq+0x1a8>)
 80015fa:	60bb      	str	r3, [r7, #8]
       break;
 80015fc:	e0b3      	b.n	8001766 <HAL_RCC_GetSysClockFreq+0x19a>
    }
    case RCC_CFGR_SWS_HSE:  /* HSE used as system clock  source */
    {
      sysclockfreq = HSE_VALUE;
 80015fe:	4b5e      	ldr	r3, [pc, #376]	; (8001778 <HAL_RCC_GetSysClockFreq+0x1ac>)
 8001600:	60bb      	str	r3, [r7, #8]
      break;
 8001602:	e0b0      	b.n	8001766 <HAL_RCC_GetSysClockFreq+0x19a>
    }
    case RCC_CFGR_SWS_PLL:  /* PLL used as system clock  source */
    {
      /* PLL_VCO = (HSE_VALUE or HSI_VALUE / PLLM) * PLLN
      SYSCLK = PLL_VCO / PLLP */
      pllm = RCC->PLLCFGR & RCC_PLLCFGR_PLLM;
 8001604:	4b5a      	ldr	r3, [pc, #360]	; (8001770 <HAL_RCC_GetSysClockFreq+0x1a4>)
 8001606:	685b      	ldr	r3, [r3, #4]
 8001608:	f003 033f 	and.w	r3, r3, #63	; 0x3f
 800160c:	607b      	str	r3, [r7, #4]
      if(__HAL_RCC_GET_PLL_OSCSOURCE() != RCC_PLLSOURCE_HSI)
 800160e:	4b58      	ldr	r3, [pc, #352]	; (8001770 <HAL_RCC_GetSysClockFreq+0x1a4>)
 8001610:	685b      	ldr	r3, [r3, #4]
 8001612:	f403 0380 	and.w	r3, r3, #4194304	; 0x400000
 8001616:	2b00      	cmp	r3, #0
 8001618:	d04a      	beq.n	80016b0 <HAL_RCC_GetSysClockFreq+0xe4>
      {
        /* HSE used as PLL clock source */
        pllvco = (uint32_t) ((((uint64_t) HSE_VALUE * ((uint64_t) ((RCC->PLLCFGR & RCC_PLLCFGR_PLLN) >> RCC_PLLCFGR_PLLN_Pos)))) / (uint64_t)pllm);
 800161a:	4b55      	ldr	r3, [pc, #340]	; (8001770 <HAL_RCC_GetSysClockFreq+0x1a4>)
 800161c:	685b      	ldr	r3, [r3, #4]
 800161e:	099b      	lsrs	r3, r3, #6
 8001620:	f04f 0400 	mov.w	r4, #0
 8001624:	f240 11ff 	movw	r1, #511	; 0x1ff
 8001628:	f04f 0200 	mov.w	r2, #0
 800162c:	ea03 0501 	and.w	r5, r3, r1
 8001630:	ea04 0602 	and.w	r6, r4, r2
 8001634:	4629      	mov	r1, r5
 8001636:	4632      	mov	r2, r6
 8001638:	f04f 0300 	mov.w	r3, #0
 800163c:	f04f 0400 	mov.w	r4, #0
 8001640:	0154      	lsls	r4, r2, #5
 8001642:	ea44 64d1 	orr.w	r4, r4, r1, lsr #27
 8001646:	014b      	lsls	r3, r1, #5
 8001648:	4619      	mov	r1, r3
 800164a:	4622      	mov	r2, r4
 800164c:	1b49      	subs	r1, r1, r5
 800164e:	eb62 0206 	sbc.w	r2, r2, r6
 8001652:	f04f 0300 	mov.w	r3, #0
 8001656:	f04f 0400 	mov.w	r4, #0
 800165a:	0194      	lsls	r4, r2, #6
 800165c:	ea44 6491 	orr.w	r4, r4, r1, lsr #26
 8001660:	018b      	lsls	r3, r1, #6
 8001662:	1a5b      	subs	r3, r3, r1
 8001664:	eb64 0402 	sbc.w	r4, r4, r2
 8001668:	f04f 0100 	mov.w	r1, #0
 800166c:	f04f 0200 	mov.w	r2, #0
 8001670:	00e2      	lsls	r2, r4, #3
 8001672:	ea42 7253 	orr.w	r2, r2, r3, lsr #29
 8001676:	00d9      	lsls	r1, r3, #3
 8001678:	460b      	mov	r3, r1
 800167a:	4614      	mov	r4, r2
 800167c:	195b      	adds	r3, r3, r5
 800167e:	eb44 0406 	adc.w	r4, r4, r6
 8001682:	f04f 0100 	mov.w	r1, #0
 8001686:	f04f 0200 	mov.w	r2, #0
 800168a:	0262      	lsls	r2, r4, #9
 800168c:	ea42 52d3 	orr.w	r2, r2, r3, lsr #23
 8001690:	0259      	lsls	r1, r3, #9
 8001692:	460b      	mov	r3, r1
 8001694:	4614      	mov	r4, r2
 8001696:	4618      	mov	r0, r3
 8001698:	4621      	mov	r1, r4
 800169a:	687b      	ldr	r3, [r7, #4]
 800169c:	f04f 0400 	mov.w	r4, #0
 80016a0:	461a      	mov	r2, r3
 80016a2:	4623      	mov	r3, r4
 80016a4:	f7fe fd90 	bl	80001c8 <__aeabi_uldivmod>
 80016a8:	4603      	mov	r3, r0
 80016aa:	460c      	mov	r4, r1
 80016ac:	60fb      	str	r3, [r7, #12]
 80016ae:	e049      	b.n	8001744 <HAL_RCC_GetSysClockFreq+0x178>
      }
      else
      {
        /* HSI used as PLL clock source */
        pllvco = (uint32_t) ((((uint64_t) HSI_VALUE * ((uint64_t) ((RCC->PLLCFGR & RCC_PLLCFGR_PLLN) >> RCC_PLLCFGR_PLLN_Pos)))) / (uint64_t)pllm);
 80016b0:	4b2f      	ldr	r3, [pc, #188]	; (8001770 <HAL_RCC_GetSysClockFreq+0x1a4>)
 80016b2:	685b      	ldr	r3, [r3, #4]
 80016b4:	099b      	lsrs	r3, r3, #6
 80016b6:	f04f 0400 	mov.w	r4, #0
 80016ba:	f240 11ff 	movw	r1, #511	; 0x1ff
 80016be:	f04f 0200 	mov.w	r2, #0
 80016c2:	ea03 0501 	and.w	r5, r3, r1
 80016c6:	ea04 0602 	and.w	r6, r4, r2
 80016ca:	4629      	mov	r1, r5
 80016cc:	4632      	mov	r2, r6
 80016ce:	f04f 0300 	mov.w	r3, #0
 80016d2:	f04f 0400 	mov.w	r4, #0
 80016d6:	0154      	lsls	r4, r2, #5
 80016d8:	ea44 64d1 	orr.w	r4, r4, r1, lsr #27
 80016dc:	014b      	lsls	r3, r1, #5
 80016de:	4619      	mov	r1, r3
 80016e0:	4622      	mov	r2, r4
 80016e2:	1b49      	subs	r1, r1, r5
 80016e4:	eb62 0206 	sbc.w	r2, r2, r6
 80016e8:	f04f 0300 	mov.w	r3, #0
 80016ec:	f04f 0400 	mov.w	r4, #0
 80016f0:	0194      	lsls	r4, r2, #6
 80016f2:	ea44 6491 	orr.w	r4, r4, r1, lsr #26
 80016f6:	018b      	lsls	r3, r1, #6
 80016f8:	1a5b      	subs	r3, r3, r1
 80016fa:	eb64 0402 	sbc.w	r4, r4, r2
 80016fe:	f04f 0100 	mov.w	r1, #0
 8001702:	f04f 0200 	mov.w	r2, #0
 8001706:	00e2      	lsls	r2, r4, #3
 8001708:	ea42 7253 	orr.w	r2, r2, r3, lsr #29
 800170c:	00d9      	lsls	r1, r3, #3
 800170e:	460b      	mov	r3, r1
 8001710:	4614      	mov	r4, r2
 8001712:	195b      	adds	r3, r3, r5
 8001714:	eb44 0406 	adc.w	r4, r4, r6
 8001718:	f04f 0100 	mov.w	r1, #0
 800171c:	f04f 0200 	mov.w	r2, #0
 8001720:	02a2      	lsls	r2, r4, #10
 8001722:	ea42 5293 	orr.w	r2, r2, r3, lsr #22
 8001726:	0299      	lsls	r1, r3, #10
 8001728:	460b      	mov	r3, r1
 800172a:	4614      	mov	r4, r2
 800172c:	4618      	mov	r0, r3
 800172e:	4621      	mov	r1, r4
 8001730:	687b      	ldr	r3, [r7, #4]
 8001732:	f04f 0400 	mov.w	r4, #0
 8001736:	461a      	mov	r2, r3
 8001738:	4623      	mov	r3, r4
 800173a:	f7fe fd45 	bl	80001c8 <__aeabi_uldivmod>
 800173e:	4603      	mov	r3, r0
 8001740:	460c      	mov	r4, r1
 8001742:	60fb      	str	r3, [r7, #12]
      }
      pllp = ((((RCC->PLLCFGR & RCC_PLLCFGR_PLLP) >> RCC_PLLCFGR_PLLP_Pos) + 1U) *2U);
 8001744:	4b0a      	ldr	r3, [pc, #40]	; (8001770 <HAL_RCC_GetSysClockFreq+0x1a4>)
 8001746:	685b      	ldr	r3, [r3, #4]
 8001748:	0c1b      	lsrs	r3, r3, #16
 800174a:	f003 0303 	and.w	r3, r3, #3
 800174e:	3301      	adds	r3, #1
 8001750:	005b      	lsls	r3, r3, #1
 8001752:	603b      	str	r3, [r7, #0]

      sysclockfreq = pllvco/pllp;
 8001754:	68fa      	ldr	r2, [r7, #12]
 8001756:	683b      	ldr	r3, [r7, #0]
 8001758:	fbb2 f3f3 	udiv	r3, r2, r3
 800175c:	60bb      	str	r3, [r7, #8]
      break;
 800175e:	e002      	b.n	8001766 <HAL_RCC_GetSysClockFreq+0x19a>
    }
    default:
    {
      sysclockfreq = HSI_VALUE;
 8001760:	4b04      	ldr	r3, [pc, #16]	; (8001774 <HAL_RCC_GetSysClockFreq+0x1a8>)
 8001762:	60bb      	str	r3, [r7, #8]
      break;
 8001764:	bf00      	nop
    }
  }
  return sysclockfreq;
 8001766:	68bb      	ldr	r3, [r7, #8]
}
 8001768:	4618      	mov	r0, r3
 800176a:	3714      	adds	r7, #20
 800176c:	46bd      	mov	sp, r7
 800176e:	bdf0      	pop	{r4, r5, r6, r7, pc}
 8001770:	40023800 	.word	0x40023800
 8001774:	00f42400 	.word	0x00f42400
 8001778:	007a1200 	.word	0x007a1200

0800177c <HAL_RCC_GetHCLKFreq>:
  * @note   The SystemCoreClock CMSIS variable is used to store System Clock Frequency
  *         and updated within this function
  * @retval HCLK frequency
  */
uint32_t HAL_RCC_GetHCLKFreq(void)
{
 800177c:	b480      	push	{r7}
 800177e:	af00      	add	r7, sp, #0
  return SystemCoreClock;
 8001780:	4b03      	ldr	r3, [pc, #12]	; (8001790 <HAL_RCC_GetHCLKFreq+0x14>)
 8001782:	681b      	ldr	r3, [r3, #0]
}
 8001784:	4618      	mov	r0, r3
 8001786:	46bd      	mov	sp, r7
 8001788:	f85d 7b04 	ldr.w	r7, [sp], #4
 800178c:	4770      	bx	lr
 800178e:	bf00      	nop
 8001790:	20000000 	.word	0x20000000

08001794 <HAL_TIM_IC_Init>:
  *         Ex: call @ref HAL_TIM_IC_DeInit() before HAL_TIM_IC_Init()
  * @param  htim TIM Input Capture handle
  * @retval HAL status
  */
HAL_StatusTypeDef HAL_TIM_IC_Init(TIM_HandleTypeDef *htim)
{
 8001794:	b580      	push	{r7, lr}
 8001796:	b082      	sub	sp, #8
 8001798:	af00      	add	r7, sp, #0
 800179a:	6078      	str	r0, [r7, #4]
  /* Check the TIM handle allocation */
  if (htim == NULL)
 800179c:	687b      	ldr	r3, [r7, #4]
 800179e:	2b00      	cmp	r3, #0
 80017a0:	d101      	bne.n	80017a6 <HAL_TIM_IC_Init+0x12>
  {
    return HAL_ERROR;
 80017a2:	2301      	movs	r3, #1
 80017a4:	e01d      	b.n	80017e2 <HAL_TIM_IC_Init+0x4e>
  assert_param(IS_TIM_INSTANCE(htim->Instance));
  assert_param(IS_TIM_COUNTER_MODE(htim->Init.CounterMode));
  assert_param(IS_TIM_CLOCKDIVISION_DIV(htim->Init.ClockDivision));
  assert_param(IS_TIM_AUTORELOAD_PRELOAD(htim->Init.AutoReloadPreload));

  if (htim->State == HAL_TIM_STATE_RESET)
 80017a6:	687b      	ldr	r3, [r7, #4]
 80017a8:	f893 303d 	ldrb.w	r3, [r3, #61]	; 0x3d
 80017ac:	b2db      	uxtb	r3, r3
 80017ae:	2b00      	cmp	r3, #0
 80017b0:	d106      	bne.n	80017c0 <HAL_TIM_IC_Init+0x2c>
  {
    /* Allocate lock resource and initialize it */
    htim->Lock = HAL_UNLOCKED;
 80017b2:	687b      	ldr	r3, [r7, #4]
 80017b4:	2200      	movs	r2, #0
 80017b6:	f883 203c 	strb.w	r2, [r3, #60]	; 0x3c
    }
    /* Init the low level hardware : GPIO, CLOCK, NVIC */
    htim->IC_MspInitCallback(htim);
#else
    /* Init the low level hardware : GPIO, CLOCK, NVIC and DMA */
    HAL_TIM_IC_MspInit(htim);
 80017ba:	6878      	ldr	r0, [r7, #4]
 80017bc:	f7fe ff82 	bl	80006c4 <HAL_TIM_IC_MspInit>
#endif /* USE_HAL_TIM_REGISTER_CALLBACKS */
  }

  /* Set the TIM state */
  htim->State = HAL_TIM_STATE_BUSY;
 80017c0:	687b      	ldr	r3, [r7, #4]
 80017c2:	2202      	movs	r2, #2
 80017c4:	f883 203d 	strb.w	r2, [r3, #61]	; 0x3d

  /* Init the base time for the input capture */
  TIM_Base_SetConfig(htim->Instance, &htim->Init);
 80017c8:	687b      	ldr	r3, [r7, #4]
 80017ca:	681a      	ldr	r2, [r3, #0]
 80017cc:	687b      	ldr	r3, [r7, #4]
 80017ce:	3304      	adds	r3, #4
 80017d0:	4619      	mov	r1, r3
 80017d2:	4610      	mov	r0, r2
 80017d4:	f000 f9e0 	bl	8001b98 <TIM_Base_SetConfig>

  /* Initialize the TIM state*/
  htim->State = HAL_TIM_STATE_READY;
 80017d8:	687b      	ldr	r3, [r7, #4]
 80017da:	2201      	movs	r2, #1
 80017dc:	f883 203d 	strb.w	r2, [r3, #61]	; 0x3d

  return HAL_OK;
 80017e0:	2300      	movs	r3, #0
}
 80017e2:	4618      	mov	r0, r3
 80017e4:	3708      	adds	r7, #8
 80017e6:	46bd      	mov	sp, r7
 80017e8:	bd80      	pop	{r7, pc}

080017ea <HAL_TIM_IRQHandler>:
  * @brief  This function handles TIM interrupts requests.
  * @param  htim TIM  handle
  * @retval None
  */
void HAL_TIM_IRQHandler(TIM_HandleTypeDef *htim)
{
 80017ea:	b580      	push	{r7, lr}
 80017ec:	b082      	sub	sp, #8
 80017ee:	af00      	add	r7, sp, #0
 80017f0:	6078      	str	r0, [r7, #4]
  /* Capture compare 1 event */
  if (__HAL_TIM_GET_FLAG(htim, TIM_FLAG_CC1) != RESET)
 80017f2:	687b      	ldr	r3, [r7, #4]
 80017f4:	681b      	ldr	r3, [r3, #0]
 80017f6:	691b      	ldr	r3, [r3, #16]
 80017f8:	f003 0302 	and.w	r3, r3, #2
 80017fc:	2b02      	cmp	r3, #2
 80017fe:	d122      	bne.n	8001846 <HAL_TIM_IRQHandler+0x5c>
  {
    if (__HAL_TIM_GET_IT_SOURCE(htim, TIM_IT_CC1) != RESET)
 8001800:	687b      	ldr	r3, [r7, #4]
 8001802:	681b      	ldr	r3, [r3, #0]
 8001804:	68db      	ldr	r3, [r3, #12]
 8001806:	f003 0302 	and.w	r3, r3, #2
 800180a:	2b02      	cmp	r3, #2
 800180c:	d11b      	bne.n	8001846 <HAL_TIM_IRQHandler+0x5c>
    {
      {
        __HAL_TIM_CLEAR_IT(htim, TIM_IT_CC1);
 800180e:	687b      	ldr	r3, [r7, #4]
 8001810:	681b      	ldr	r3, [r3, #0]
 8001812:	f06f 0202 	mvn.w	r2, #2
 8001816:	611a      	str	r2, [r3, #16]
        htim->Channel = HAL_TIM_ACTIVE_CHANNEL_1;
 8001818:	687b      	ldr	r3, [r7, #4]
 800181a:	2201      	movs	r2, #1
 800181c:	771a      	strb	r2, [r3, #28]

        /* Input capture event */
        if ((htim->Instance->CCMR1 & TIM_CCMR1_CC1S) != 0x00U)
 800181e:	687b      	ldr	r3, [r7, #4]
 8001820:	681b      	ldr	r3, [r3, #0]
 8001822:	699b      	ldr	r3, [r3, #24]
 8001824:	f003 0303 	and.w	r3, r3, #3
 8001828:	2b00      	cmp	r3, #0
 800182a:	d003      	beq.n	8001834 <HAL_TIM_IRQHandler+0x4a>
        {
#if (USE_HAL_TIM_REGISTER_CALLBACKS == 1)
          htim->IC_CaptureCallback(htim);
#else
          HAL_TIM_IC_CaptureCallback(htim);
 800182c:	6878      	ldr	r0, [r7, #4]
 800182e:	f000 f994 	bl	8001b5a <HAL_TIM_IC_CaptureCallback>
 8001832:	e005      	b.n	8001840 <HAL_TIM_IRQHandler+0x56>
        {
#if (USE_HAL_TIM_REGISTER_CALLBACKS == 1)
          htim->OC_DelayElapsedCallback(htim);
          htim->PWM_PulseFinishedCallback(htim);
#else
          HAL_TIM_OC_DelayElapsedCallback(htim);
 8001834:	6878      	ldr	r0, [r7, #4]
 8001836:	f000 f986 	bl	8001b46 <HAL_TIM_OC_DelayElapsedCallback>
          HAL_TIM_PWM_PulseFinishedCallback(htim);
 800183a:	6878      	ldr	r0, [r7, #4]
 800183c:	f000 f997 	bl	8001b6e <HAL_TIM_PWM_PulseFinishedCallback>
#endif /* USE_HAL_TIM_REGISTER_CALLBACKS */
        }
        htim->Channel = HAL_TIM_ACTIVE_CHANNEL_CLEARED;
 8001840:	687b      	ldr	r3, [r7, #4]
 8001842:	2200      	movs	r2, #0
 8001844:	771a      	strb	r2, [r3, #28]
      }
    }
  }
  /* Capture compare 2 event */
  if (__HAL_TIM_GET_FLAG(htim, TIM_FLAG_CC2) != RESET)
 8001846:	687b      	ldr	r3, [r7, #4]
 8001848:	681b      	ldr	r3, [r3, #0]
 800184a:	691b      	ldr	r3, [r3, #16]
 800184c:	f003 0304 	and.w	r3, r3, #4
 8001850:	2b04      	cmp	r3, #4
 8001852:	d122      	bne.n	800189a <HAL_TIM_IRQHandler+0xb0>
  {
    if (__HAL_TIM_GET_IT_SOURCE(htim, TIM_IT_CC2) != RESET)
 8001854:	687b      	ldr	r3, [r7, #4]
 8001856:	681b      	ldr	r3, [r3, #0]
 8001858:	68db      	ldr	r3, [r3, #12]
 800185a:	f003 0304 	and.w	r3, r3, #4
 800185e:	2b04      	cmp	r3, #4
 8001860:	d11b      	bne.n	800189a <HAL_TIM_IRQHandler+0xb0>
    {
      __HAL_TIM_CLEAR_IT(htim, TIM_IT_CC2);
 8001862:	687b      	ldr	r3, [r7, #4]
 8001864:	681b      	ldr	r3, [r3, #0]
 8001866:	f06f 0204 	mvn.w	r2, #4
 800186a:	611a      	str	r2, [r3, #16]
      htim->Channel = HAL_TIM_ACTIVE_CHANNEL_2;
 800186c:	687b      	ldr	r3, [r7, #4]
 800186e:	2202      	movs	r2, #2
 8001870:	771a      	strb	r2, [r3, #28]
      /* Input capture event */
      if ((htim->Instance->CCMR1 & TIM_CCMR1_CC2S) != 0x00U)
 8001872:	687b      	ldr	r3, [r7, #4]
 8001874:	681b      	ldr	r3, [r3, #0]
 8001876:	699b      	ldr	r3, [r3, #24]
 8001878:	f403 7340 	and.w	r3, r3, #768	; 0x300
 800187c:	2b00      	cmp	r3, #0
 800187e:	d003      	beq.n	8001888 <HAL_TIM_IRQHandler+0x9e>
      {
#if (USE_HAL_TIM_REGISTER_CALLBACKS == 1)
        htim->IC_CaptureCallback(htim);
#else
        HAL_TIM_IC_CaptureCallback(htim);
 8001880:	6878      	ldr	r0, [r7, #4]
 8001882:	f000 f96a 	bl	8001b5a <HAL_TIM_IC_CaptureCallback>
 8001886:	e005      	b.n	8001894 <HAL_TIM_IRQHandler+0xaa>
      {
#if (USE_HAL_TIM_REGISTER_CALLBACKS == 1)
        htim->OC_DelayElapsedCallback(htim);
        htim->PWM_PulseFinishedCallback(htim);
#else
        HAL_TIM_OC_DelayElapsedCallback(htim);
 8001888:	6878      	ldr	r0, [r7, #4]
 800188a:	f000 f95c 	bl	8001b46 <HAL_TIM_OC_DelayElapsedCallback>
        HAL_TIM_PWM_PulseFinishedCallback(htim);
 800188e:	6878      	ldr	r0, [r7, #4]
 8001890:	f000 f96d 	bl	8001b6e <HAL_TIM_PWM_PulseFinishedCallback>
#endif /* USE_HAL_TIM_REGISTER_CALLBACKS */
      }
      htim->Channel = HAL_TIM_ACTIVE_CHANNEL_CLEARED;
 8001894:	687b      	ldr	r3, [r7, #4]
 8001896:	2200      	movs	r2, #0
 8001898:	771a      	strb	r2, [r3, #28]
    }
  }
  /* Capture compare 3 event */
  if (__HAL_TIM_GET_FLAG(htim, TIM_FLAG_CC3) != RESET)
 800189a:	687b      	ldr	r3, [r7, #4]
 800189c:	681b      	ldr	r3, [r3, #0]
 800189e:	691b      	ldr	r3, [r3, #16]
 80018a0:	f003 0308 	and.w	r3, r3, #8
 80018a4:	2b08      	cmp	r3, #8
 80018a6:	d122      	bne.n	80018ee <HAL_TIM_IRQHandler+0x104>
  {
    if (__HAL_TIM_GET_IT_SOURCE(htim, TIM_IT_CC3) != RESET)
 80018a8:	687b      	ldr	r3, [r7, #4]
 80018aa:	681b      	ldr	r3, [r3, #0]
 80018ac:	68db      	ldr	r3, [r3, #12]
 80018ae:	f003 0308 	and.w	r3, r3, #8
 80018b2:	2b08      	cmp	r3, #8
 80018b4:	d11b      	bne.n	80018ee <HAL_TIM_IRQHandler+0x104>
    {
      __HAL_TIM_CLEAR_IT(htim, TIM_IT_CC3);
 80018b6:	687b      	ldr	r3, [r7, #4]
 80018b8:	681b      	ldr	r3, [r3, #0]
 80018ba:	f06f 0208 	mvn.w	r2, #8
 80018be:	611a      	str	r2, [r3, #16]
      htim->Channel = HAL_TIM_ACTIVE_CHANNEL_3;
 80018c0:	687b      	ldr	r3, [r7, #4]
 80018c2:	2204      	movs	r2, #4
 80018c4:	771a      	strb	r2, [r3, #28]
      /* Input capture event */
      if ((htim->Instance->CCMR2 & TIM_CCMR2_CC3S) != 0x00U)
 80018c6:	687b      	ldr	r3, [r7, #4]
 80018c8:	681b      	ldr	r3, [r3, #0]
 80018ca:	69db      	ldr	r3, [r3, #28]
 80018cc:	f003 0303 	and.w	r3, r3, #3
 80018d0:	2b00      	cmp	r3, #0
 80018d2:	d003      	beq.n	80018dc <HAL_TIM_IRQHandler+0xf2>
      {
#if (USE_HAL_TIM_REGISTER_CALLBACKS == 1)
        htim->IC_CaptureCallback(htim);
#else
        HAL_TIM_IC_CaptureCallback(htim);
 80018d4:	6878      	ldr	r0, [r7, #4]
 80018d6:	f000 f940 	bl	8001b5a <HAL_TIM_IC_CaptureCallback>
 80018da:	e005      	b.n	80018e8 <HAL_TIM_IRQHandler+0xfe>
      {
#if (USE_HAL_TIM_REGISTER_CALLBACKS == 1)
        htim->OC_DelayElapsedCallback(htim);
        htim->PWM_PulseFinishedCallback(htim);
#else
        HAL_TIM_OC_DelayElapsedCallback(htim);
 80018dc:	6878      	ldr	r0, [r7, #4]
 80018de:	f000 f932 	bl	8001b46 <HAL_TIM_OC_DelayElapsedCallback>
        HAL_TIM_PWM_PulseFinishedCallback(htim);
 80018e2:	6878      	ldr	r0, [r7, #4]
 80018e4:	f000 f943 	bl	8001b6e <HAL_TIM_PWM_PulseFinishedCallback>
#endif /* USE_HAL_TIM_REGISTER_CALLBACKS */
      }
      htim->Channel = HAL_TIM_ACTIVE_CHANNEL_CLEARED;
 80018e8:	687b      	ldr	r3, [r7, #4]
 80018ea:	2200      	movs	r2, #0
 80018ec:	771a      	strb	r2, [r3, #28]
    }
  }
  /* Capture compare 4 event */
  if (__HAL_TIM_GET_FLAG(htim, TIM_FLAG_CC4) != RESET)
 80018ee:	687b      	ldr	r3, [r7, #4]
 80018f0:	681b      	ldr	r3, [r3, #0]
 80018f2:	691b      	ldr	r3, [r3, #16]
 80018f4:	f003 0310 	and.w	r3, r3, #16
 80018f8:	2b10      	cmp	r3, #16
 80018fa:	d122      	bne.n	8001942 <HAL_TIM_IRQHandler+0x158>
  {
    if (__HAL_TIM_GET_IT_SOURCE(htim, TIM_IT_CC4) != RESET)
 80018fc:	687b      	ldr	r3, [r7, #4]
 80018fe:	681b      	ldr	r3, [r3, #0]
 8001900:	68db      	ldr	r3, [r3, #12]
 8001902:	f003 0310 	and.w	r3, r3, #16
 8001906:	2b10      	cmp	r3, #16
 8001908:	d11b      	bne.n	8001942 <HAL_TIM_IRQHandler+0x158>
    {
      __HAL_TIM_CLEAR_IT(htim, TIM_IT_CC4);
 800190a:	687b      	ldr	r3, [r7, #4]
 800190c:	681b      	ldr	r3, [r3, #0]
 800190e:	f06f 0210 	mvn.w	r2, #16
 8001912:	611a      	str	r2, [r3, #16]
      htim->Channel = HAL_TIM_ACTIVE_CHANNEL_4;
 8001914:	687b      	ldr	r3, [r7, #4]
 8001916:	2208      	movs	r2, #8
 8001918:	771a      	strb	r2, [r3, #28]
      /* Input capture event */
      if ((htim->Instance->CCMR2 & TIM_CCMR2_CC4S) != 0x00U)
 800191a:	687b      	ldr	r3, [r7, #4]
 800191c:	681b      	ldr	r3, [r3, #0]
 800191e:	69db      	ldr	r3, [r3, #28]
 8001920:	f403 7340 	and.w	r3, r3, #768	; 0x300
 8001924:	2b00      	cmp	r3, #0
 8001926:	d003      	beq.n	8001930 <HAL_TIM_IRQHandler+0x146>
      {
#if (USE_HAL_TIM_REGISTER_CALLBACKS == 1)
        htim->IC_CaptureCallback(htim);
#else
        HAL_TIM_IC_CaptureCallback(htim);
 8001928:	6878      	ldr	r0, [r7, #4]
 800192a:	f000 f916 	bl	8001b5a <HAL_TIM_IC_CaptureCallback>
 800192e:	e005      	b.n	800193c <HAL_TIM_IRQHandler+0x152>
      {
#if (USE_HAL_TIM_REGISTER_CALLBACKS == 1)
        htim->OC_DelayElapsedCallback(htim);
        htim->PWM_PulseFinishedCallback(htim);
#else
        HAL_TIM_OC_DelayElapsedCallback(htim);
 8001930:	6878      	ldr	r0, [r7, #4]
 8001932:	f000 f908 	bl	8001b46 <HAL_TIM_OC_DelayElapsedCallback>
        HAL_TIM_PWM_PulseFinishedCallback(htim);
 8001936:	6878      	ldr	r0, [r7, #4]
 8001938:	f000 f919 	bl	8001b6e <HAL_TIM_PWM_PulseFinishedCallback>
#endif /* USE_HAL_TIM_REGISTER_CALLBACKS */
      }
      htim->Channel = HAL_TIM_ACTIVE_CHANNEL_CLEARED;
 800193c:	687b      	ldr	r3, [r7, #4]
 800193e:	2200      	movs	r2, #0
 8001940:	771a      	strb	r2, [r3, #28]
    }
  }
  /* TIM Update event */
  if (__HAL_TIM_GET_FLAG(htim, TIM_FLAG_UPDATE) != RESET)
 8001942:	687b      	ldr	r3, [r7, #4]
 8001944:	681b      	ldr	r3, [r3, #0]
 8001946:	691b      	ldr	r3, [r3, #16]
 8001948:	f003 0301 	and.w	r3, r3, #1
 800194c:	2b01      	cmp	r3, #1
 800194e:	d10e      	bne.n	800196e <HAL_TIM_IRQHandler+0x184>
  {
    if (__HAL_TIM_GET_IT_SOURCE(htim, TIM_IT_UPDATE) != RESET)
 8001950:	687b      	ldr	r3, [r7, #4]
 8001952:	681b      	ldr	r3, [r3, #0]
 8001954:	68db      	ldr	r3, [r3, #12]
 8001956:	f003 0301 	and.w	r3, r3, #1
 800195a:	2b01      	cmp	r3, #1
 800195c:	d107      	bne.n	800196e <HAL_TIM_IRQHandler+0x184>
    {
      __HAL_TIM_CLEAR_IT(htim, TIM_IT_UPDATE);
 800195e:	687b      	ldr	r3, [r7, #4]
 8001960:	681b      	ldr	r3, [r3, #0]
 8001962:	f06f 0201 	mvn.w	r2, #1
 8001966:	611a      	str	r2, [r3, #16]
#if (USE_HAL_TIM_REGISTER_CALLBACKS == 1)
      htim->PeriodElapsedCallback(htim);
#else
      HAL_TIM_PeriodElapsedCallback(htim);
 8001968:	6878      	ldr	r0, [r7, #4]
 800196a:	f000 f8e2 	bl	8001b32 <HAL_TIM_PeriodElapsedCallback>
#endif /* USE_HAL_TIM_REGISTER_CALLBACKS */
    }
  }
  /* TIM Break input event */
  if (__HAL_TIM_GET_FLAG(htim, TIM_FLAG_BREAK) != RESET)
 800196e:	687b      	ldr	r3, [r7, #4]
 8001970:	681b      	ldr	r3, [r3, #0]
 8001972:	691b      	ldr	r3, [r3, #16]
 8001974:	f003 0380 	and.w	r3, r3, #128	; 0x80
 8001978:	2b80      	cmp	r3, #128	; 0x80
 800197a:	d10e      	bne.n	800199a <HAL_TIM_IRQHandler+0x1b0>
  {
    if (__HAL_TIM_GET_IT_SOURCE(htim, TIM_IT_BREAK) != RESET)
 800197c:	687b      	ldr	r3, [r7, #4]
 800197e:	681b      	ldr	r3, [r3, #0]
 8001980:	68db      	ldr	r3, [r3, #12]
 8001982:	f003 0380 	and.w	r3, r3, #128	; 0x80
 8001986:	2b80      	cmp	r3, #128	; 0x80
 8001988:	d107      	bne.n	800199a <HAL_TIM_IRQHandler+0x1b0>
    {
      __HAL_TIM_CLEAR_IT(htim, TIM_IT_BREAK);
 800198a:	687b      	ldr	r3, [r7, #4]
 800198c:	681b      	ldr	r3, [r3, #0]
 800198e:	f06f 0280 	mvn.w	r2, #128	; 0x80
 8001992:	611a      	str	r2, [r3, #16]
#if (USE_HAL_TIM_REGISTER_CALLBACKS == 1)
      htim->BreakCallback(htim);
#else
      HAL_TIMEx_BreakCallback(htim);
 8001994:	6878      	ldr	r0, [r7, #4]
 8001996:	f000 fad3 	bl	8001f40 <HAL_TIMEx_BreakCallback>
#endif /* USE_HAL_TIM_REGISTER_CALLBACKS */
    }
  }
  /* TIM Trigger detection event */
  if (__HAL_TIM_GET_FLAG(htim, TIM_FLAG_TRIGGER) != RESET)
 800199a:	687b      	ldr	r3, [r7, #4]
 800199c:	681b      	ldr	r3, [r3, #0]
 800199e:	691b      	ldr	r3, [r3, #16]
 80019a0:	f003 0340 	and.w	r3, r3, #64	; 0x40
 80019a4:	2b40      	cmp	r3, #64	; 0x40
 80019a6:	d10e      	bne.n	80019c6 <HAL_TIM_IRQHandler+0x1dc>
  {
    if (__HAL_TIM_GET_IT_SOURCE(htim, TIM_IT_TRIGGER) != RESET)
 80019a8:	687b      	ldr	r3, [r7, #4]
 80019aa:	681b      	ldr	r3, [r3, #0]
 80019ac:	68db      	ldr	r3, [r3, #12]
 80019ae:	f003 0340 	and.w	r3, r3, #64	; 0x40
 80019b2:	2b40      	cmp	r3, #64	; 0x40
 80019b4:	d107      	bne.n	80019c6 <HAL_TIM_IRQHandler+0x1dc>
    {
      __HAL_TIM_CLEAR_IT(htim, TIM_IT_TRIGGER);
 80019b6:	687b      	ldr	r3, [r7, #4]
 80019b8:	681b      	ldr	r3, [r3, #0]
 80019ba:	f06f 0240 	mvn.w	r2, #64	; 0x40
 80019be:	611a      	str	r2, [r3, #16]
#if (USE_HAL_TIM_REGISTER_CALLBACKS == 1)
      htim->TriggerCallback(htim);
#else
      HAL_TIM_TriggerCallback(htim);
 80019c0:	6878      	ldr	r0, [r7, #4]
 80019c2:	f000 f8de 	bl	8001b82 <HAL_TIM_TriggerCallback>
#endif /* USE_HAL_TIM_REGISTER_CALLBACKS */
    }
  }
  /* TIM commutation event */
  if (__HAL_TIM_GET_FLAG(htim, TIM_FLAG_COM) != RESET)
 80019c6:	687b      	ldr	r3, [r7, #4]
 80019c8:	681b      	ldr	r3, [r3, #0]
 80019ca:	691b      	ldr	r3, [r3, #16]
 80019cc:	f003 0320 	and.w	r3, r3, #32
 80019d0:	2b20      	cmp	r3, #32
 80019d2:	d10e      	bne.n	80019f2 <HAL_TIM_IRQHandler+0x208>
  {
    if (__HAL_TIM_GET_IT_SOURCE(htim, TIM_IT_COM) != RESET)
 80019d4:	687b      	ldr	r3, [r7, #4]
 80019d6:	681b      	ldr	r3, [r3, #0]
 80019d8:	68db      	ldr	r3, [r3, #12]
 80019da:	f003 0320 	and.w	r3, r3, #32
 80019de:	2b20      	cmp	r3, #32
 80019e0:	d107      	bne.n	80019f2 <HAL_TIM_IRQHandler+0x208>
    {
      __HAL_TIM_CLEAR_IT(htim, TIM_FLAG_COM);
 80019e2:	687b      	ldr	r3, [r7, #4]
 80019e4:	681b      	ldr	r3, [r3, #0]
 80019e6:	f06f 0220 	mvn.w	r2, #32
 80019ea:	611a      	str	r2, [r3, #16]
#if (USE_HAL_TIM_REGISTER_CALLBACKS == 1)
      htim->CommutationCallback(htim);
#else
      HAL_TIMEx_CommutCallback(htim);
 80019ec:	6878      	ldr	r0, [r7, #4]
 80019ee:	f000 fa9d 	bl	8001f2c <HAL_TIMEx_CommutCallback>
#endif /* USE_HAL_TIM_REGISTER_CALLBACKS */
    }
  }
}
 80019f2:	bf00      	nop
 80019f4:	3708      	adds	r7, #8
 80019f6:	46bd      	mov	sp, r7
 80019f8:	bd80      	pop	{r7, pc}

080019fa <HAL_TIM_IC_ConfigChannel>:
  *            @arg TIM_CHANNEL_3: TIM Channel 3 selected
  *            @arg TIM_CHANNEL_4: TIM Channel 4 selected
  * @retval HAL status
  */
HAL_StatusTypeDef HAL_TIM_IC_ConfigChannel(TIM_HandleTypeDef *htim, TIM_IC_InitTypeDef *sConfig, uint32_t Channel)
{
 80019fa:	b580      	push	{r7, lr}
 80019fc:	b084      	sub	sp, #16
 80019fe:	af00      	add	r7, sp, #0
 8001a00:	60f8      	str	r0, [r7, #12]
 8001a02:	60b9      	str	r1, [r7, #8]
 8001a04:	607a      	str	r2, [r7, #4]
  assert_param(IS_TIM_IC_SELECTION(sConfig->ICSelection));
  assert_param(IS_TIM_IC_PRESCALER(sConfig->ICPrescaler));
  assert_param(IS_TIM_IC_FILTER(sConfig->ICFilter));

  /* Process Locked */
  __HAL_LOCK(htim);
 8001a06:	68fb      	ldr	r3, [r7, #12]
 8001a08:	f893 303c 	ldrb.w	r3, [r3, #60]	; 0x3c
 8001a0c:	2b01      	cmp	r3, #1
 8001a0e:	d101      	bne.n	8001a14 <HAL_TIM_IC_ConfigChannel+0x1a>
 8001a10:	2302      	movs	r3, #2
 8001a12:	e08a      	b.n	8001b2a <HAL_TIM_IC_ConfigChannel+0x130>
 8001a14:	68fb      	ldr	r3, [r7, #12]
 8001a16:	2201      	movs	r2, #1
 8001a18:	f883 203c 	strb.w	r2, [r3, #60]	; 0x3c

  htim->State = HAL_TIM_STATE_BUSY;
 8001a1c:	68fb      	ldr	r3, [r7, #12]
 8001a1e:	2202      	movs	r2, #2
 8001a20:	f883 203d 	strb.w	r2, [r3, #61]	; 0x3d

  if (Channel == TIM_CHANNEL_1)
 8001a24:	687b      	ldr	r3, [r7, #4]
 8001a26:	2b00      	cmp	r3, #0
 8001a28:	d11b      	bne.n	8001a62 <HAL_TIM_IC_ConfigChannel+0x68>
  {
    /* TI1 Configuration */
    TIM_TI1_SetConfig(htim->Instance,
 8001a2a:	68fb      	ldr	r3, [r7, #12]
 8001a2c:	6818      	ldr	r0, [r3, #0]
 8001a2e:	68bb      	ldr	r3, [r7, #8]
 8001a30:	6819      	ldr	r1, [r3, #0]
 8001a32:	68bb      	ldr	r3, [r7, #8]
 8001a34:	685a      	ldr	r2, [r3, #4]
 8001a36:	68bb      	ldr	r3, [r7, #8]
 8001a38:	68db      	ldr	r3, [r3, #12]
 8001a3a:	f000 f94d 	bl	8001cd8 <TIM_TI1_SetConfig>
                      sConfig->ICPolarity,
                      sConfig->ICSelection,
                      sConfig->ICFilter);

    /* Reset the IC1PSC Bits */
    htim->Instance->CCMR1 &= ~TIM_CCMR1_IC1PSC;
 8001a3e:	68fb      	ldr	r3, [r7, #12]
 8001a40:	681b      	ldr	r3, [r3, #0]
 8001a42:	699a      	ldr	r2, [r3, #24]
 8001a44:	68fb      	ldr	r3, [r7, #12]
 8001a46:	681b      	ldr	r3, [r3, #0]
 8001a48:	f022 020c 	bic.w	r2, r2, #12
 8001a4c:	619a      	str	r2, [r3, #24]

    /* Set the IC1PSC value */
    htim->Instance->CCMR1 |= sConfig->ICPrescaler;
 8001a4e:	68fb      	ldr	r3, [r7, #12]
 8001a50:	681b      	ldr	r3, [r3, #0]
 8001a52:	6999      	ldr	r1, [r3, #24]
 8001a54:	68bb      	ldr	r3, [r7, #8]
 8001a56:	689a      	ldr	r2, [r3, #8]
 8001a58:	68fb      	ldr	r3, [r7, #12]
 8001a5a:	681b      	ldr	r3, [r3, #0]
 8001a5c:	430a      	orrs	r2, r1
 8001a5e:	619a      	str	r2, [r3, #24]
 8001a60:	e05a      	b.n	8001b18 <HAL_TIM_IC_ConfigChannel+0x11e>
  }
  else if (Channel == TIM_CHANNEL_2)
 8001a62:	687b      	ldr	r3, [r7, #4]
 8001a64:	2b04      	cmp	r3, #4
 8001a66:	d11c      	bne.n	8001aa2 <HAL_TIM_IC_ConfigChannel+0xa8>
  {
    /* TI2 Configuration */
    assert_param(IS_TIM_CC2_INSTANCE(htim->Instance));

    TIM_TI2_SetConfig(htim->Instance,
 8001a68:	68fb      	ldr	r3, [r7, #12]
 8001a6a:	6818      	ldr	r0, [r3, #0]
 8001a6c:	68bb      	ldr	r3, [r7, #8]
 8001a6e:	6819      	ldr	r1, [r3, #0]
 8001a70:	68bb      	ldr	r3, [r7, #8]
 8001a72:	685a      	ldr	r2, [r3, #4]
 8001a74:	68bb      	ldr	r3, [r7, #8]
 8001a76:	68db      	ldr	r3, [r3, #12]
 8001a78:	f000 f9a2 	bl	8001dc0 <TIM_TI2_SetConfig>
                      sConfig->ICPolarity,
                      sConfig->ICSelection,
                      sConfig->ICFilter);

    /* Reset the IC2PSC Bits */
    htim->Instance->CCMR1 &= ~TIM_CCMR1_IC2PSC;
 8001a7c:	68fb      	ldr	r3, [r7, #12]
 8001a7e:	681b      	ldr	r3, [r3, #0]
 8001a80:	699a      	ldr	r2, [r3, #24]
 8001a82:	68fb      	ldr	r3, [r7, #12]
 8001a84:	681b      	ldr	r3, [r3, #0]
 8001a86:	f422 6240 	bic.w	r2, r2, #3072	; 0xc00
 8001a8a:	619a      	str	r2, [r3, #24]

    /* Set the IC2PSC value */
    htim->Instance->CCMR1 |= (sConfig->ICPrescaler << 8U);
 8001a8c:	68fb      	ldr	r3, [r7, #12]
 8001a8e:	681b      	ldr	r3, [r3, #0]
 8001a90:	6999      	ldr	r1, [r3, #24]
 8001a92:	68bb      	ldr	r3, [r7, #8]
 8001a94:	689b      	ldr	r3, [r3, #8]
 8001a96:	021a      	lsls	r2, r3, #8
 8001a98:	68fb      	ldr	r3, [r7, #12]
 8001a9a:	681b      	ldr	r3, [r3, #0]
 8001a9c:	430a      	orrs	r2, r1
 8001a9e:	619a      	str	r2, [r3, #24]
 8001aa0:	e03a      	b.n	8001b18 <HAL_TIM_IC_ConfigChannel+0x11e>
  }
  else if (Channel == TIM_CHANNEL_3)
 8001aa2:	687b      	ldr	r3, [r7, #4]
 8001aa4:	2b08      	cmp	r3, #8
 8001aa6:	d11b      	bne.n	8001ae0 <HAL_TIM_IC_ConfigChannel+0xe6>
  {
    /* TI3 Configuration */
    assert_param(IS_TIM_CC3_INSTANCE(htim->Instance));

    TIM_TI3_SetConfig(htim->Instance,
 8001aa8:	68fb      	ldr	r3, [r7, #12]
 8001aaa:	6818      	ldr	r0, [r3, #0]
 8001aac:	68bb      	ldr	r3, [r7, #8]
 8001aae:	6819      	ldr	r1, [r3, #0]
 8001ab0:	68bb      	ldr	r3, [r7, #8]
 8001ab2:	685a      	ldr	r2, [r3, #4]
 8001ab4:	68bb      	ldr	r3, [r7, #8]
 8001ab6:	68db      	ldr	r3, [r3, #12]
 8001ab8:	f000 f9bf 	bl	8001e3a <TIM_TI3_SetConfig>
                      sConfig->ICPolarity,
                      sConfig->ICSelection,
                      sConfig->ICFilter);

    /* Reset the IC3PSC Bits */
    htim->Instance->CCMR2 &= ~TIM_CCMR2_IC3PSC;
 8001abc:	68fb      	ldr	r3, [r7, #12]
 8001abe:	681b      	ldr	r3, [r3, #0]
 8001ac0:	69da      	ldr	r2, [r3, #28]
 8001ac2:	68fb      	ldr	r3, [r7, #12]
 8001ac4:	681b      	ldr	r3, [r3, #0]
 8001ac6:	f022 020c 	bic.w	r2, r2, #12
 8001aca:	61da      	str	r2, [r3, #28]

    /* Set the IC3PSC value */
    htim->Instance->CCMR2 |= sConfig->ICPrescaler;
 8001acc:	68fb      	ldr	r3, [r7, #12]
 8001ace:	681b      	ldr	r3, [r3, #0]
 8001ad0:	69d9      	ldr	r1, [r3, #28]
 8001ad2:	68bb      	ldr	r3, [r7, #8]
 8001ad4:	689a      	ldr	r2, [r3, #8]
 8001ad6:	68fb      	ldr	r3, [r7, #12]
 8001ad8:	681b      	ldr	r3, [r3, #0]
 8001ada:	430a      	orrs	r2, r1
 8001adc:	61da      	str	r2, [r3, #28]
 8001ade:	e01b      	b.n	8001b18 <HAL_TIM_IC_ConfigChannel+0x11e>
  else
  {
    /* TI4 Configuration */
    assert_param(IS_TIM_CC4_INSTANCE(htim->Instance));

    TIM_TI4_SetConfig(htim->Instance,
 8001ae0:	68fb      	ldr	r3, [r7, #12]
 8001ae2:	6818      	ldr	r0, [r3, #0]
 8001ae4:	68bb      	ldr	r3, [r7, #8]
 8001ae6:	6819      	ldr	r1, [r3, #0]
 8001ae8:	68bb      	ldr	r3, [r7, #8]
 8001aea:	685a      	ldr	r2, [r3, #4]
 8001aec:	68bb      	ldr	r3, [r7, #8]
 8001aee:	68db      	ldr	r3, [r3, #12]
 8001af0:	f000 f9df 	bl	8001eb2 <TIM_TI4_SetConfig>
                      sConfig->ICPolarity,
                      sConfig->ICSelection,
                      sConfig->ICFilter);

    /* Reset the IC4PSC Bits */
    htim->Instance->CCMR2 &= ~TIM_CCMR2_IC4PSC;
 8001af4:	68fb      	ldr	r3, [r7, #12]
 8001af6:	681b      	ldr	r3, [r3, #0]
 8001af8:	69da      	ldr	r2, [r3, #28]
 8001afa:	68fb      	ldr	r3, [r7, #12]
 8001afc:	681b      	ldr	r3, [r3, #0]
 8001afe:	f422 6240 	bic.w	r2, r2, #3072	; 0xc00
 8001b02:	61da      	str	r2, [r3, #28]

    /* Set the IC4PSC value */
    htim->Instance->CCMR2 |= (sConfig->ICPrescaler << 8U);
 8001b04:	68fb      	ldr	r3, [r7, #12]
 8001b06:	681b      	ldr	r3, [r3, #0]
 8001b08:	69d9      	ldr	r1, [r3, #28]
 8001b0a:	68bb      	ldr	r3, [r7, #8]
 8001b0c:	689b      	ldr	r3, [r3, #8]
 8001b0e:	021a      	lsls	r2, r3, #8
 8001b10:	68fb      	ldr	r3, [r7, #12]
 8001b12:	681b      	ldr	r3, [r3, #0]
 8001b14:	430a      	orrs	r2, r1
 8001b16:	61da      	str	r2, [r3, #28]
  }

  htim->State = HAL_TIM_STATE_READY;
 8001b18:	68fb      	ldr	r3, [r7, #12]
 8001b1a:	2201      	movs	r2, #1
 8001b1c:	f883 203d 	strb.w	r2, [r3, #61]	; 0x3d

  __HAL_UNLOCK(htim);
 8001b20:	68fb      	ldr	r3, [r7, #12]
 8001b22:	2200      	movs	r2, #0
 8001b24:	f883 203c 	strb.w	r2, [r3, #60]	; 0x3c

  return HAL_OK;
 8001b28:	2300      	movs	r3, #0
}
 8001b2a:	4618      	mov	r0, r3
 8001b2c:	3710      	adds	r7, #16
 8001b2e:	46bd      	mov	sp, r7
 8001b30:	bd80      	pop	{r7, pc}

08001b32 <HAL_TIM_PeriodElapsedCallback>:
  * @brief  Period elapsed callback in non-blocking mode
  * @param  htim TIM handle
  * @retval None
  */
__weak void HAL_TIM_PeriodElapsedCallback(TIM_HandleTypeDef *htim)
{
 8001b32:	b480      	push	{r7}
 8001b34:	b083      	sub	sp, #12
 8001b36:	af00      	add	r7, sp, #0
 8001b38:	6078      	str	r0, [r7, #4]
  UNUSED(htim);

  /* NOTE : This function should not be modified, when the callback is needed,
            the HAL_TIM_PeriodElapsedCallback could be implemented in the user file
   */
}
 8001b3a:	bf00      	nop
 8001b3c:	370c      	adds	r7, #12
 8001b3e:	46bd      	mov	sp, r7
 8001b40:	f85d 7b04 	ldr.w	r7, [sp], #4
 8001b44:	4770      	bx	lr

08001b46 <HAL_TIM_OC_DelayElapsedCallback>:
  * @brief  Output Compare callback in non-blocking mode
  * @param  htim TIM OC handle
  * @retval None
  */
__weak void HAL_TIM_OC_DelayElapsedCallback(TIM_HandleTypeDef *htim)
{
 8001b46:	b480      	push	{r7}
 8001b48:	b083      	sub	sp, #12
 8001b4a:	af00      	add	r7, sp, #0
 8001b4c:	6078      	str	r0, [r7, #4]
  UNUSED(htim);

  /* NOTE : This function should not be modified, when the callback is needed,
            the HAL_TIM_OC_DelayElapsedCallback could be implemented in the user file
   */
}
 8001b4e:	bf00      	nop
 8001b50:	370c      	adds	r7, #12
 8001b52:	46bd      	mov	sp, r7
 8001b54:	f85d 7b04 	ldr.w	r7, [sp], #4
 8001b58:	4770      	bx	lr

08001b5a <HAL_TIM_IC_CaptureCallback>:
  * @brief  Input Capture callback in non-blocking mode
  * @param  htim TIM IC handle
  * @retval None
  */
__weak void HAL_TIM_IC_CaptureCallback(TIM_HandleTypeDef *htim)
{
 8001b5a:	b480      	push	{r7}
 8001b5c:	b083      	sub	sp, #12
 8001b5e:	af00      	add	r7, sp, #0
 8001b60:	6078      	str	r0, [r7, #4]
  UNUSED(htim);

  /* NOTE : This function should not be modified, when the callback is needed,
            the HAL_TIM_IC_CaptureCallback could be implemented in the user file
   */
}
 8001b62:	bf00      	nop
 8001b64:	370c      	adds	r7, #12
 8001b66:	46bd      	mov	sp, r7
 8001b68:	f85d 7b04 	ldr.w	r7, [sp], #4
 8001b6c:	4770      	bx	lr

08001b6e <HAL_TIM_PWM_PulseFinishedCallback>:
  * @brief  PWM Pulse finished callback in non-blocking mode
  * @param  htim TIM handle
  * @retval None
  */
__weak void HAL_TIM_PWM_PulseFinishedCallback(TIM_HandleTypeDef *htim)
{
 8001b6e:	b480      	push	{r7}
 8001b70:	b083      	sub	sp, #12
 8001b72:	af00      	add	r7, sp, #0
 8001b74:	6078      	str	r0, [r7, #4]
  UNUSED(htim);

  /* NOTE : This function should not be modified, when the callback is needed,
            the HAL_TIM_PWM_PulseFinishedCallback could be implemented in the user file
   */
}
 8001b76:	bf00      	nop
 8001b78:	370c      	adds	r7, #12
 8001b7a:	46bd      	mov	sp, r7
 8001b7c:	f85d 7b04 	ldr.w	r7, [sp], #4
 8001b80:	4770      	bx	lr

08001b82 <HAL_TIM_TriggerCallback>:
  * @brief  Hall Trigger detection callback in non-blocking mode
  * @param  htim TIM handle
  * @retval None
  */
__weak void HAL_TIM_TriggerCallback(TIM_HandleTypeDef *htim)
{
 8001b82:	b480      	push	{r7}
 8001b84:	b083      	sub	sp, #12
 8001b86:	af00      	add	r7, sp, #0
 8001b88:	6078      	str	r0, [r7, #4]
  UNUSED(htim);

  /* NOTE : This function should not be modified, when the callback is needed,
            the HAL_TIM_TriggerCallback could be implemented in the user file
   */
}
 8001b8a:	bf00      	nop
 8001b8c:	370c      	adds	r7, #12
 8001b8e:	46bd      	mov	sp, r7
 8001b90:	f85d 7b04 	ldr.w	r7, [sp], #4
 8001b94:	4770      	bx	lr
	...

08001b98 <TIM_Base_SetConfig>:
  * @param  TIMx TIM peripheral
  * @param  Structure TIM Base configuration structure
  * @retval None
  */
void TIM_Base_SetConfig(TIM_TypeDef *TIMx, TIM_Base_InitTypeDef *Structure)
{
 8001b98:	b480      	push	{r7}
 8001b9a:	b085      	sub	sp, #20
 8001b9c:	af00      	add	r7, sp, #0
 8001b9e:	6078      	str	r0, [r7, #4]
 8001ba0:	6039      	str	r1, [r7, #0]
  uint32_t tmpcr1;
  tmpcr1 = TIMx->CR1;
 8001ba2:	687b      	ldr	r3, [r7, #4]
 8001ba4:	681b      	ldr	r3, [r3, #0]
 8001ba6:	60fb      	str	r3, [r7, #12]

  /* Set TIM Time Base Unit parameters ---------------------------------------*/
  if (IS_TIM_COUNTER_MODE_SELECT_INSTANCE(TIMx))
 8001ba8:	687b      	ldr	r3, [r7, #4]
 8001baa:	4a40      	ldr	r2, [pc, #256]	; (8001cac <TIM_Base_SetConfig+0x114>)
 8001bac:	4293      	cmp	r3, r2
 8001bae:	d013      	beq.n	8001bd8 <TIM_Base_SetConfig+0x40>
 8001bb0:	687b      	ldr	r3, [r7, #4]
 8001bb2:	f1b3 4f80 	cmp.w	r3, #1073741824	; 0x40000000
 8001bb6:	d00f      	beq.n	8001bd8 <TIM_Base_SetConfig+0x40>
 8001bb8:	687b      	ldr	r3, [r7, #4]
 8001bba:	4a3d      	ldr	r2, [pc, #244]	; (8001cb0 <TIM_Base_SetConfig+0x118>)
 8001bbc:	4293      	cmp	r3, r2
 8001bbe:	d00b      	beq.n	8001bd8 <TIM_Base_SetConfig+0x40>
 8001bc0:	687b      	ldr	r3, [r7, #4]
 8001bc2:	4a3c      	ldr	r2, [pc, #240]	; (8001cb4 <TIM_Base_SetConfig+0x11c>)
 8001bc4:	4293      	cmp	r3, r2
 8001bc6:	d007      	beq.n	8001bd8 <TIM_Base_SetConfig+0x40>
 8001bc8:	687b      	ldr	r3, [r7, #4]
 8001bca:	4a3b      	ldr	r2, [pc, #236]	; (8001cb8 <TIM_Base_SetConfig+0x120>)
 8001bcc:	4293      	cmp	r3, r2
 8001bce:	d003      	beq.n	8001bd8 <TIM_Base_SetConfig+0x40>
 8001bd0:	687b      	ldr	r3, [r7, #4]
 8001bd2:	4a3a      	ldr	r2, [pc, #232]	; (8001cbc <TIM_Base_SetConfig+0x124>)
 8001bd4:	4293      	cmp	r3, r2
 8001bd6:	d108      	bne.n	8001bea <TIM_Base_SetConfig+0x52>
  {
    /* Select the Counter Mode */
    tmpcr1 &= ~(TIM_CR1_DIR | TIM_CR1_CMS);
 8001bd8:	68fb      	ldr	r3, [r7, #12]
 8001bda:	f023 0370 	bic.w	r3, r3, #112	; 0x70
 8001bde:	60fb      	str	r3, [r7, #12]
    tmpcr1 |= Structure->CounterMode;
 8001be0:	683b      	ldr	r3, [r7, #0]
 8001be2:	685b      	ldr	r3, [r3, #4]
 8001be4:	68fa      	ldr	r2, [r7, #12]
 8001be6:	4313      	orrs	r3, r2
 8001be8:	60fb      	str	r3, [r7, #12]
  }

  if (IS_TIM_CLOCK_DIVISION_INSTANCE(TIMx))
 8001bea:	687b      	ldr	r3, [r7, #4]
 8001bec:	4a2f      	ldr	r2, [pc, #188]	; (8001cac <TIM_Base_SetConfig+0x114>)
 8001bee:	4293      	cmp	r3, r2
 8001bf0:	d02b      	beq.n	8001c4a <TIM_Base_SetConfig+0xb2>
 8001bf2:	687b      	ldr	r3, [r7, #4]
 8001bf4:	f1b3 4f80 	cmp.w	r3, #1073741824	; 0x40000000
 8001bf8:	d027      	beq.n	8001c4a <TIM_Base_SetConfig+0xb2>
 8001bfa:	687b      	ldr	r3, [r7, #4]
 8001bfc:	4a2c      	ldr	r2, [pc, #176]	; (8001cb0 <TIM_Base_SetConfig+0x118>)
 8001bfe:	4293      	cmp	r3, r2
 8001c00:	d023      	beq.n	8001c4a <TIM_Base_SetConfig+0xb2>
 8001c02:	687b      	ldr	r3, [r7, #4]
 8001c04:	4a2b      	ldr	r2, [pc, #172]	; (8001cb4 <TIM_Base_SetConfig+0x11c>)
 8001c06:	4293      	cmp	r3, r2
 8001c08:	d01f      	beq.n	8001c4a <TIM_Base_SetConfig+0xb2>
 8001c0a:	687b      	ldr	r3, [r7, #4]
 8001c0c:	4a2a      	ldr	r2, [pc, #168]	; (8001cb8 <TIM_Base_SetConfig+0x120>)
 8001c0e:	4293      	cmp	r3, r2
 8001c10:	d01b      	beq.n	8001c4a <TIM_Base_SetConfig+0xb2>
 8001c12:	687b      	ldr	r3, [r7, #4]
 8001c14:	4a29      	ldr	r2, [pc, #164]	; (8001cbc <TIM_Base_SetConfig+0x124>)
 8001c16:	4293      	cmp	r3, r2
 8001c18:	d017      	beq.n	8001c4a <TIM_Base_SetConfig+0xb2>
 8001c1a:	687b      	ldr	r3, [r7, #4]
 8001c1c:	4a28      	ldr	r2, [pc, #160]	; (8001cc0 <TIM_Base_SetConfig+0x128>)
 8001c1e:	4293      	cmp	r3, r2
 8001c20:	d013      	beq.n	8001c4a <TIM_Base_SetConfig+0xb2>
 8001c22:	687b      	ldr	r3, [r7, #4]
 8001c24:	4a27      	ldr	r2, [pc, #156]	; (8001cc4 <TIM_Base_SetConfig+0x12c>)
 8001c26:	4293      	cmp	r3, r2
 8001c28:	d00f      	beq.n	8001c4a <TIM_Base_SetConfig+0xb2>
 8001c2a:	687b      	ldr	r3, [r7, #4]
 8001c2c:	4a26      	ldr	r2, [pc, #152]	; (8001cc8 <TIM_Base_SetConfig+0x130>)
 8001c2e:	4293      	cmp	r3, r2
 8001c30:	d00b      	beq.n	8001c4a <TIM_Base_SetConfig+0xb2>
 8001c32:	687b      	ldr	r3, [r7, #4]
 8001c34:	4a25      	ldr	r2, [pc, #148]	; (8001ccc <TIM_Base_SetConfig+0x134>)
 8001c36:	4293      	cmp	r3, r2
 8001c38:	d007      	beq.n	8001c4a <TIM_Base_SetConfig+0xb2>
 8001c3a:	687b      	ldr	r3, [r7, #4]
 8001c3c:	4a24      	ldr	r2, [pc, #144]	; (8001cd0 <TIM_Base_SetConfig+0x138>)
 8001c3e:	4293      	cmp	r3, r2
 8001c40:	d003      	beq.n	8001c4a <TIM_Base_SetConfig+0xb2>
 8001c42:	687b      	ldr	r3, [r7, #4]
 8001c44:	4a23      	ldr	r2, [pc, #140]	; (8001cd4 <TIM_Base_SetConfig+0x13c>)
 8001c46:	4293      	cmp	r3, r2
 8001c48:	d108      	bne.n	8001c5c <TIM_Base_SetConfig+0xc4>
  {
    /* Set the clock division */
    tmpcr1 &= ~TIM_CR1_CKD;
 8001c4a:	68fb      	ldr	r3, [r7, #12]
 8001c4c:	f423 7340 	bic.w	r3, r3, #768	; 0x300
 8001c50:	60fb      	str	r3, [r7, #12]
    tmpcr1 |= (uint32_t)Structure->ClockDivision;
 8001c52:	683b      	ldr	r3, [r7, #0]
 8001c54:	68db      	ldr	r3, [r3, #12]
 8001c56:	68fa      	ldr	r2, [r7, #12]
 8001c58:	4313      	orrs	r3, r2
 8001c5a:	60fb      	str	r3, [r7, #12]
  }

  /* Set the auto-reload preload */
  MODIFY_REG(tmpcr1, TIM_CR1_ARPE, Structure->AutoReloadPreload);
 8001c5c:	68fb      	ldr	r3, [r7, #12]
 8001c5e:	f023 0280 	bic.w	r2, r3, #128	; 0x80
 8001c62:	683b      	ldr	r3, [r7, #0]
 8001c64:	695b      	ldr	r3, [r3, #20]
 8001c66:	4313      	orrs	r3, r2
 8001c68:	60fb      	str	r3, [r7, #12]

  TIMx->CR1 = tmpcr1;
 8001c6a:	687b      	ldr	r3, [r7, #4]
 8001c6c:	68fa      	ldr	r2, [r7, #12]
 8001c6e:	601a      	str	r2, [r3, #0]

  /* Set the Autoreload value */
  TIMx->ARR = (uint32_t)Structure->Period ;
 8001c70:	683b      	ldr	r3, [r7, #0]
 8001c72:	689a      	ldr	r2, [r3, #8]
 8001c74:	687b      	ldr	r3, [r7, #4]
 8001c76:	62da      	str	r2, [r3, #44]	; 0x2c

  /* Set the Prescaler value */
  TIMx->PSC = Structure->Prescaler;
 8001c78:	683b      	ldr	r3, [r7, #0]
 8001c7a:	681a      	ldr	r2, [r3, #0]
 8001c7c:	687b      	ldr	r3, [r7, #4]
 8001c7e:	629a      	str	r2, [r3, #40]	; 0x28

  if (IS_TIM_REPETITION_COUNTER_INSTANCE(TIMx))
 8001c80:	687b      	ldr	r3, [r7, #4]
 8001c82:	4a0a      	ldr	r2, [pc, #40]	; (8001cac <TIM_Base_SetConfig+0x114>)
 8001c84:	4293      	cmp	r3, r2
 8001c86:	d003      	beq.n	8001c90 <TIM_Base_SetConfig+0xf8>
 8001c88:	687b      	ldr	r3, [r7, #4]
 8001c8a:	4a0c      	ldr	r2, [pc, #48]	; (8001cbc <TIM_Base_SetConfig+0x124>)
 8001c8c:	4293      	cmp	r3, r2
 8001c8e:	d103      	bne.n	8001c98 <TIM_Base_SetConfig+0x100>
  {
    /* Set the Repetition Counter value */
    TIMx->RCR = Structure->RepetitionCounter;
 8001c90:	683b      	ldr	r3, [r7, #0]
 8001c92:	691a      	ldr	r2, [r3, #16]
 8001c94:	687b      	ldr	r3, [r7, #4]
 8001c96:	631a      	str	r2, [r3, #48]	; 0x30
  }

  /* Generate an update event to reload the Prescaler
     and the repetition counter (only for advanced timer) value immediately */
  TIMx->EGR = TIM_EGR_UG;
 8001c98:	687b      	ldr	r3, [r7, #4]
 8001c9a:	2201      	movs	r2, #1
 8001c9c:	615a      	str	r2, [r3, #20]
}
 8001c9e:	bf00      	nop
 8001ca0:	3714      	adds	r7, #20
 8001ca2:	46bd      	mov	sp, r7
 8001ca4:	f85d 7b04 	ldr.w	r7, [sp], #4
 8001ca8:	4770      	bx	lr
 8001caa:	bf00      	nop
 8001cac:	40010000 	.word	0x40010000
 8001cb0:	40000400 	.word	0x40000400
 8001cb4:	40000800 	.word	0x40000800
 8001cb8:	40000c00 	.word	0x40000c00
 8001cbc:	40010400 	.word	0x40010400
 8001cc0:	40014000 	.word	0x40014000
 8001cc4:	40014400 	.word	0x40014400
 8001cc8:	40014800 	.word	0x40014800
 8001ccc:	40001800 	.word	0x40001800
 8001cd0:	40001c00 	.word	0x40001c00
 8001cd4:	40002000 	.word	0x40002000

08001cd8 <TIM_TI1_SetConfig>:
  *       (on channel2 path) is used as the input signal. Therefore CCMR1 must be
  *        protected against un-initialized filter and polarity values.
  */
void TIM_TI1_SetConfig(TIM_TypeDef *TIMx, uint32_t TIM_ICPolarity, uint32_t TIM_ICSelection,
                       uint32_t TIM_ICFilter)
{
 8001cd8:	b480      	push	{r7}
 8001cda:	b087      	sub	sp, #28
 8001cdc:	af00      	add	r7, sp, #0
 8001cde:	60f8      	str	r0, [r7, #12]
 8001ce0:	60b9      	str	r1, [r7, #8]
 8001ce2:	607a      	str	r2, [r7, #4]
 8001ce4:	603b      	str	r3, [r7, #0]
  uint32_t tmpccmr1;
  uint32_t tmpccer;

  /* Disable the Channel 1: Reset the CC1E Bit */
  TIMx->CCER &= ~TIM_CCER_CC1E;
 8001ce6:	68fb      	ldr	r3, [r7, #12]
 8001ce8:	6a1b      	ldr	r3, [r3, #32]
 8001cea:	f023 0201 	bic.w	r2, r3, #1
 8001cee:	68fb      	ldr	r3, [r7, #12]
 8001cf0:	621a      	str	r2, [r3, #32]
  tmpccmr1 = TIMx->CCMR1;
 8001cf2:	68fb      	ldr	r3, [r7, #12]
 8001cf4:	699b      	ldr	r3, [r3, #24]
 8001cf6:	617b      	str	r3, [r7, #20]
  tmpccer = TIMx->CCER;
 8001cf8:	68fb      	ldr	r3, [r7, #12]
 8001cfa:	6a1b      	ldr	r3, [r3, #32]
 8001cfc:	613b      	str	r3, [r7, #16]

  /* Select the Input */
  if (IS_TIM_CC2_INSTANCE(TIMx) != RESET)
 8001cfe:	68fb      	ldr	r3, [r7, #12]
 8001d00:	4a28      	ldr	r2, [pc, #160]	; (8001da4 <TIM_TI1_SetConfig+0xcc>)
 8001d02:	4293      	cmp	r3, r2
 8001d04:	d01b      	beq.n	8001d3e <TIM_TI1_SetConfig+0x66>
 8001d06:	68fb      	ldr	r3, [r7, #12]
 8001d08:	f1b3 4f80 	cmp.w	r3, #1073741824	; 0x40000000
 8001d0c:	d017      	beq.n	8001d3e <TIM_TI1_SetConfig+0x66>
 8001d0e:	68fb      	ldr	r3, [r7, #12]
 8001d10:	4a25      	ldr	r2, [pc, #148]	; (8001da8 <TIM_TI1_SetConfig+0xd0>)
 8001d12:	4293      	cmp	r3, r2
 8001d14:	d013      	beq.n	8001d3e <TIM_TI1_SetConfig+0x66>
 8001d16:	68fb      	ldr	r3, [r7, #12]
 8001d18:	4a24      	ldr	r2, [pc, #144]	; (8001dac <TIM_TI1_SetConfig+0xd4>)
 8001d1a:	4293      	cmp	r3, r2
 8001d1c:	d00f      	beq.n	8001d3e <TIM_TI1_SetConfig+0x66>
 8001d1e:	68fb      	ldr	r3, [r7, #12]
 8001d20:	4a23      	ldr	r2, [pc, #140]	; (8001db0 <TIM_TI1_SetConfig+0xd8>)
 8001d22:	4293      	cmp	r3, r2
 8001d24:	d00b      	beq.n	8001d3e <TIM_TI1_SetConfig+0x66>
 8001d26:	68fb      	ldr	r3, [r7, #12]
 8001d28:	4a22      	ldr	r2, [pc, #136]	; (8001db4 <TIM_TI1_SetConfig+0xdc>)
 8001d2a:	4293      	cmp	r3, r2
 8001d2c:	d007      	beq.n	8001d3e <TIM_TI1_SetConfig+0x66>
 8001d2e:	68fb      	ldr	r3, [r7, #12]
 8001d30:	4a21      	ldr	r2, [pc, #132]	; (8001db8 <TIM_TI1_SetConfig+0xe0>)
 8001d32:	4293      	cmp	r3, r2
 8001d34:	d003      	beq.n	8001d3e <TIM_TI1_SetConfig+0x66>
 8001d36:	68fb      	ldr	r3, [r7, #12]
 8001d38:	4a20      	ldr	r2, [pc, #128]	; (8001dbc <TIM_TI1_SetConfig+0xe4>)
 8001d3a:	4293      	cmp	r3, r2
 8001d3c:	d101      	bne.n	8001d42 <TIM_TI1_SetConfig+0x6a>
 8001d3e:	2301      	movs	r3, #1
 8001d40:	e000      	b.n	8001d44 <TIM_TI1_SetConfig+0x6c>
 8001d42:	2300      	movs	r3, #0
 8001d44:	2b00      	cmp	r3, #0
 8001d46:	d008      	beq.n	8001d5a <TIM_TI1_SetConfig+0x82>
  {
    tmpccmr1 &= ~TIM_CCMR1_CC1S;
 8001d48:	697b      	ldr	r3, [r7, #20]
 8001d4a:	f023 0303 	bic.w	r3, r3, #3
 8001d4e:	617b      	str	r3, [r7, #20]
    tmpccmr1 |= TIM_ICSelection;
 8001d50:	697a      	ldr	r2, [r7, #20]
 8001d52:	687b      	ldr	r3, [r7, #4]
 8001d54:	4313      	orrs	r3, r2
 8001d56:	617b      	str	r3, [r7, #20]
 8001d58:	e003      	b.n	8001d62 <TIM_TI1_SetConfig+0x8a>
  }
  else
  {
    tmpccmr1 |= TIM_CCMR1_CC1S_0;
 8001d5a:	697b      	ldr	r3, [r7, #20]
 8001d5c:	f043 0301 	orr.w	r3, r3, #1
 8001d60:	617b      	str	r3, [r7, #20]
  }

  /* Set the filter */
  tmpccmr1 &= ~TIM_CCMR1_IC1F;
 8001d62:	697b      	ldr	r3, [r7, #20]
 8001d64:	f023 03f0 	bic.w	r3, r3, #240	; 0xf0
 8001d68:	617b      	str	r3, [r7, #20]
  tmpccmr1 |= ((TIM_ICFilter << 4U) & TIM_CCMR1_IC1F);
 8001d6a:	683b      	ldr	r3, [r7, #0]
 8001d6c:	011b      	lsls	r3, r3, #4
 8001d6e:	b2db      	uxtb	r3, r3
 8001d70:	697a      	ldr	r2, [r7, #20]
 8001d72:	4313      	orrs	r3, r2
 8001d74:	617b      	str	r3, [r7, #20]

  /* Select the Polarity and set the CC1E Bit */
  tmpccer &= ~(TIM_CCER_CC1P | TIM_CCER_CC1NP);
 8001d76:	693b      	ldr	r3, [r7, #16]
 8001d78:	f023 030a 	bic.w	r3, r3, #10
 8001d7c:	613b      	str	r3, [r7, #16]
  tmpccer |= (TIM_ICPolarity & (TIM_CCER_CC1P | TIM_CCER_CC1NP));
 8001d7e:	68bb      	ldr	r3, [r7, #8]
 8001d80:	f003 030a 	and.w	r3, r3, #10
 8001d84:	693a      	ldr	r2, [r7, #16]
 8001d86:	4313      	orrs	r3, r2
 8001d88:	613b      	str	r3, [r7, #16]

  /* Write to TIMx CCMR1 and CCER registers */
  TIMx->CCMR1 = tmpccmr1;
 8001d8a:	68fb      	ldr	r3, [r7, #12]
 8001d8c:	697a      	ldr	r2, [r7, #20]
 8001d8e:	619a      	str	r2, [r3, #24]
  TIMx->CCER = tmpccer;
 8001d90:	68fb      	ldr	r3, [r7, #12]
 8001d92:	693a      	ldr	r2, [r7, #16]
 8001d94:	621a      	str	r2, [r3, #32]
}
 8001d96:	bf00      	nop
 8001d98:	371c      	adds	r7, #28
 8001d9a:	46bd      	mov	sp, r7
 8001d9c:	f85d 7b04 	ldr.w	r7, [sp], #4
 8001da0:	4770      	bx	lr
 8001da2:	bf00      	nop
 8001da4:	40010000 	.word	0x40010000
 8001da8:	40000400 	.word	0x40000400
 8001dac:	40000800 	.word	0x40000800
 8001db0:	40000c00 	.word	0x40000c00
 8001db4:	40010400 	.word	0x40010400
 8001db8:	40014000 	.word	0x40014000
 8001dbc:	40001800 	.word	0x40001800

08001dc0 <TIM_TI2_SetConfig>:
  *       (on channel1 path) is used as the input signal. Therefore CCMR1 must be
  *        protected against un-initialized filter and polarity values.
  */
static void TIM_TI2_SetConfig(TIM_TypeDef *TIMx, uint32_t TIM_ICPolarity, uint32_t TIM_ICSelection,
                              uint32_t TIM_ICFilter)
{
 8001dc0:	b480      	push	{r7}
 8001dc2:	b087      	sub	sp, #28
 8001dc4:	af00      	add	r7, sp, #0
 8001dc6:	60f8      	str	r0, [r7, #12]
 8001dc8:	60b9      	str	r1, [r7, #8]
 8001dca:	607a      	str	r2, [r7, #4]
 8001dcc:	603b      	str	r3, [r7, #0]
  uint32_t tmpccmr1;
  uint32_t tmpccer;

  /* Disable the Channel 2: Reset the CC2E Bit */
  TIMx->CCER &= ~TIM_CCER_CC2E;
 8001dce:	68fb      	ldr	r3, [r7, #12]
 8001dd0:	6a1b      	ldr	r3, [r3, #32]
 8001dd2:	f023 0210 	bic.w	r2, r3, #16
 8001dd6:	68fb      	ldr	r3, [r7, #12]
 8001dd8:	621a      	str	r2, [r3, #32]
  tmpccmr1 = TIMx->CCMR1;
 8001dda:	68fb      	ldr	r3, [r7, #12]
 8001ddc:	699b      	ldr	r3, [r3, #24]
 8001dde:	617b      	str	r3, [r7, #20]
  tmpccer = TIMx->CCER;
 8001de0:	68fb      	ldr	r3, [r7, #12]
 8001de2:	6a1b      	ldr	r3, [r3, #32]
 8001de4:	613b      	str	r3, [r7, #16]

  /* Select the Input */
  tmpccmr1 &= ~TIM_CCMR1_CC2S;
 8001de6:	697b      	ldr	r3, [r7, #20]
 8001de8:	f423 7340 	bic.w	r3, r3, #768	; 0x300
 8001dec:	617b      	str	r3, [r7, #20]
  tmpccmr1 |= (TIM_ICSelection << 8U);
 8001dee:	687b      	ldr	r3, [r7, #4]
 8001df0:	021b      	lsls	r3, r3, #8
 8001df2:	697a      	ldr	r2, [r7, #20]
 8001df4:	4313      	orrs	r3, r2
 8001df6:	617b      	str	r3, [r7, #20]

  /* Set the filter */
  tmpccmr1 &= ~TIM_CCMR1_IC2F;
 8001df8:	697b      	ldr	r3, [r7, #20]
 8001dfa:	f423 4370 	bic.w	r3, r3, #61440	; 0xf000
 8001dfe:	617b      	str	r3, [r7, #20]
  tmpccmr1 |= ((TIM_ICFilter << 12U) & TIM_CCMR1_IC2F);
 8001e00:	683b      	ldr	r3, [r7, #0]
 8001e02:	031b      	lsls	r3, r3, #12
 8001e04:	b29b      	uxth	r3, r3
 8001e06:	697a      	ldr	r2, [r7, #20]
 8001e08:	4313      	orrs	r3, r2
 8001e0a:	617b      	str	r3, [r7, #20]

  /* Select the Polarity and set the CC2E Bit */
  tmpccer &= ~(TIM_CCER_CC2P | TIM_CCER_CC2NP);
 8001e0c:	693b      	ldr	r3, [r7, #16]
 8001e0e:	f023 03a0 	bic.w	r3, r3, #160	; 0xa0
 8001e12:	613b      	str	r3, [r7, #16]
  tmpccer |= ((TIM_ICPolarity << 4U) & (TIM_CCER_CC2P | TIM_CCER_CC2NP));
 8001e14:	68bb      	ldr	r3, [r7, #8]
 8001e16:	011b      	lsls	r3, r3, #4
 8001e18:	f003 03a0 	and.w	r3, r3, #160	; 0xa0
 8001e1c:	693a      	ldr	r2, [r7, #16]
 8001e1e:	4313      	orrs	r3, r2
 8001e20:	613b      	str	r3, [r7, #16]

  /* Write to TIMx CCMR1 and CCER registers */
  TIMx->CCMR1 = tmpccmr1 ;
 8001e22:	68fb      	ldr	r3, [r7, #12]
 8001e24:	697a      	ldr	r2, [r7, #20]
 8001e26:	619a      	str	r2, [r3, #24]
  TIMx->CCER = tmpccer;
 8001e28:	68fb      	ldr	r3, [r7, #12]
 8001e2a:	693a      	ldr	r2, [r7, #16]
 8001e2c:	621a      	str	r2, [r3, #32]
}
 8001e2e:	bf00      	nop
 8001e30:	371c      	adds	r7, #28
 8001e32:	46bd      	mov	sp, r7
 8001e34:	f85d 7b04 	ldr.w	r7, [sp], #4
 8001e38:	4770      	bx	lr

08001e3a <TIM_TI3_SetConfig>:
  *       (on channel1 path) is used as the input signal. Therefore CCMR2 must be
  *        protected against un-initialized filter and polarity values.
  */
static void TIM_TI3_SetConfig(TIM_TypeDef *TIMx, uint32_t TIM_ICPolarity, uint32_t TIM_ICSelection,
                              uint32_t TIM_ICFilter)
{
 8001e3a:	b480      	push	{r7}
 8001e3c:	b087      	sub	sp, #28
 8001e3e:	af00      	add	r7, sp, #0
 8001e40:	60f8      	str	r0, [r7, #12]
 8001e42:	60b9      	str	r1, [r7, #8]
 8001e44:	607a      	str	r2, [r7, #4]
 8001e46:	603b      	str	r3, [r7, #0]
  uint32_t tmpccmr2;
  uint32_t tmpccer;

  /* Disable the Channel 3: Reset the CC3E Bit */
  TIMx->CCER &= ~TIM_CCER_CC3E;
 8001e48:	68fb      	ldr	r3, [r7, #12]
 8001e4a:	6a1b      	ldr	r3, [r3, #32]
 8001e4c:	f423 7280 	bic.w	r2, r3, #256	; 0x100
 8001e50:	68fb      	ldr	r3, [r7, #12]
 8001e52:	621a      	str	r2, [r3, #32]
  tmpccmr2 = TIMx->CCMR2;
 8001e54:	68fb      	ldr	r3, [r7, #12]
 8001e56:	69db      	ldr	r3, [r3, #28]
 8001e58:	617b      	str	r3, [r7, #20]
  tmpccer = TIMx->CCER;
 8001e5a:	68fb      	ldr	r3, [r7, #12]
 8001e5c:	6a1b      	ldr	r3, [r3, #32]
 8001e5e:	613b      	str	r3, [r7, #16]

  /* Select the Input */
  tmpccmr2 &= ~TIM_CCMR2_CC3S;
 8001e60:	697b      	ldr	r3, [r7, #20]
 8001e62:	f023 0303 	bic.w	r3, r3, #3
 8001e66:	617b      	str	r3, [r7, #20]
  tmpccmr2 |= TIM_ICSelection;
 8001e68:	697a      	ldr	r2, [r7, #20]
 8001e6a:	687b      	ldr	r3, [r7, #4]
 8001e6c:	4313      	orrs	r3, r2
 8001e6e:	617b      	str	r3, [r7, #20]

  /* Set the filter */
  tmpccmr2 &= ~TIM_CCMR2_IC3F;
 8001e70:	697b      	ldr	r3, [r7, #20]
 8001e72:	f023 03f0 	bic.w	r3, r3, #240	; 0xf0
 8001e76:	617b      	str	r3, [r7, #20]
  tmpccmr2 |= ((TIM_ICFilter << 4U) & TIM_CCMR2_IC3F);
 8001e78:	683b      	ldr	r3, [r7, #0]
 8001e7a:	011b      	lsls	r3, r3, #4
 8001e7c:	b2db      	uxtb	r3, r3
 8001e7e:	697a      	ldr	r2, [r7, #20]
 8001e80:	4313      	orrs	r3, r2
 8001e82:	617b      	str	r3, [r7, #20]

  /* Select the Polarity and set the CC3E Bit */
  tmpccer &= ~(TIM_CCER_CC3P | TIM_CCER_CC3NP);
 8001e84:	693b      	ldr	r3, [r7, #16]
 8001e86:	f423 6320 	bic.w	r3, r3, #2560	; 0xa00
 8001e8a:	613b      	str	r3, [r7, #16]
  tmpccer |= ((TIM_ICPolarity << 8U) & (TIM_CCER_CC3P | TIM_CCER_CC3NP));
 8001e8c:	68bb      	ldr	r3, [r7, #8]
 8001e8e:	021b      	lsls	r3, r3, #8
 8001e90:	f403 6320 	and.w	r3, r3, #2560	; 0xa00
 8001e94:	693a      	ldr	r2, [r7, #16]
 8001e96:	4313      	orrs	r3, r2
 8001e98:	613b      	str	r3, [r7, #16]

  /* Write to TIMx CCMR2 and CCER registers */
  TIMx->CCMR2 = tmpccmr2;
 8001e9a:	68fb      	ldr	r3, [r7, #12]
 8001e9c:	697a      	ldr	r2, [r7, #20]
 8001e9e:	61da      	str	r2, [r3, #28]
  TIMx->CCER = tmpccer;
 8001ea0:	68fb      	ldr	r3, [r7, #12]
 8001ea2:	693a      	ldr	r2, [r7, #16]
 8001ea4:	621a      	str	r2, [r3, #32]
}
 8001ea6:	bf00      	nop
 8001ea8:	371c      	adds	r7, #28
 8001eaa:	46bd      	mov	sp, r7
 8001eac:	f85d 7b04 	ldr.w	r7, [sp], #4
 8001eb0:	4770      	bx	lr

08001eb2 <TIM_TI4_SetConfig>:
  *        protected against un-initialized filter and polarity values.
  * @retval None
  */
static void TIM_TI4_SetConfig(TIM_TypeDef *TIMx, uint32_t TIM_ICPolarity, uint32_t TIM_ICSelection,
                              uint32_t TIM_ICFilter)
{
 8001eb2:	b480      	push	{r7}
 8001eb4:	b087      	sub	sp, #28
 8001eb6:	af00      	add	r7, sp, #0
 8001eb8:	60f8      	str	r0, [r7, #12]
 8001eba:	60b9      	str	r1, [r7, #8]
 8001ebc:	607a      	str	r2, [r7, #4]
 8001ebe:	603b      	str	r3, [r7, #0]
  uint32_t tmpccmr2;
  uint32_t tmpccer;

  /* Disable the Channel 4: Reset the CC4E Bit */
  TIMx->CCER &= ~TIM_CCER_CC4E;
 8001ec0:	68fb      	ldr	r3, [r7, #12]
 8001ec2:	6a1b      	ldr	r3, [r3, #32]
 8001ec4:	f423 5280 	bic.w	r2, r3, #4096	; 0x1000
 8001ec8:	68fb      	ldr	r3, [r7, #12]
 8001eca:	621a      	str	r2, [r3, #32]
  tmpccmr2 = TIMx->CCMR2;
 8001ecc:	68fb      	ldr	r3, [r7, #12]
 8001ece:	69db      	ldr	r3, [r3, #28]
 8001ed0:	617b      	str	r3, [r7, #20]
  tmpccer = TIMx->CCER;
 8001ed2:	68fb      	ldr	r3, [r7, #12]
 8001ed4:	6a1b      	ldr	r3, [r3, #32]
 8001ed6:	613b      	str	r3, [r7, #16]

  /* Select the Input */
  tmpccmr2 &= ~TIM_CCMR2_CC4S;
 8001ed8:	697b      	ldr	r3, [r7, #20]
 8001eda:	f423 7340 	bic.w	r3, r3, #768	; 0x300
 8001ede:	617b      	str	r3, [r7, #20]
  tmpccmr2 |= (TIM_ICSelection << 8U);
 8001ee0:	687b      	ldr	r3, [r7, #4]
 8001ee2:	021b      	lsls	r3, r3, #8
 8001ee4:	697a      	ldr	r2, [r7, #20]
 8001ee6:	4313      	orrs	r3, r2
 8001ee8:	617b      	str	r3, [r7, #20]

  /* Set the filter */
  tmpccmr2 &= ~TIM_CCMR2_IC4F;
 8001eea:	697b      	ldr	r3, [r7, #20]
 8001eec:	f423 4370 	bic.w	r3, r3, #61440	; 0xf000
 8001ef0:	617b      	str	r3, [r7, #20]
  tmpccmr2 |= ((TIM_ICFilter << 12U) & TIM_CCMR2_IC4F);
 8001ef2:	683b      	ldr	r3, [r7, #0]
 8001ef4:	031b      	lsls	r3, r3, #12
 8001ef6:	b29b      	uxth	r3, r3
 8001ef8:	697a      	ldr	r2, [r7, #20]
 8001efa:	4313      	orrs	r3, r2
 8001efc:	617b      	str	r3, [r7, #20]

  /* Select the Polarity and set the CC4E Bit */
  tmpccer &= ~(TIM_CCER_CC4P | TIM_CCER_CC4NP);
 8001efe:	693b      	ldr	r3, [r7, #16]
 8001f00:	f423 4320 	bic.w	r3, r3, #40960	; 0xa000
 8001f04:	613b      	str	r3, [r7, #16]
  tmpccer |= ((TIM_ICPolarity << 12U) & (TIM_CCER_CC4P | TIM_CCER_CC4NP));
 8001f06:	68bb      	ldr	r3, [r7, #8]
 8001f08:	031b      	lsls	r3, r3, #12
 8001f0a:	f403 4320 	and.w	r3, r3, #40960	; 0xa000
 8001f0e:	693a      	ldr	r2, [r7, #16]
 8001f10:	4313      	orrs	r3, r2
 8001f12:	613b      	str	r3, [r7, #16]

  /* Write to TIMx CCMR2 and CCER registers */
  TIMx->CCMR2 = tmpccmr2;
 8001f14:	68fb      	ldr	r3, [r7, #12]
 8001f16:	697a      	ldr	r2, [r7, #20]
 8001f18:	61da      	str	r2, [r3, #28]
  TIMx->CCER = tmpccer ;
 8001f1a:	68fb      	ldr	r3, [r7, #12]
 8001f1c:	693a      	ldr	r2, [r7, #16]
 8001f1e:	621a      	str	r2, [r3, #32]
}
 8001f20:	bf00      	nop
 8001f22:	371c      	adds	r7, #28
 8001f24:	46bd      	mov	sp, r7
 8001f26:	f85d 7b04 	ldr.w	r7, [sp], #4
 8001f2a:	4770      	bx	lr

08001f2c <HAL_TIMEx_CommutCallback>:
  * @brief  Hall commutation changed callback in non-blocking mode
  * @param  htim TIM handle
  * @retval None
  */
__weak void HAL_TIMEx_CommutCallback(TIM_HandleTypeDef *htim)
{
 8001f2c:	b480      	push	{r7}
 8001f2e:	b083      	sub	sp, #12
 8001f30:	af00      	add	r7, sp, #0
 8001f32:	6078      	str	r0, [r7, #4]
  UNUSED(htim);

  /* NOTE : This function should not be modified, when the callback is needed,
            the HAL_TIMEx_CommutCallback could be implemented in the user file
   */
}
 8001f34:	bf00      	nop
 8001f36:	370c      	adds	r7, #12
 8001f38:	46bd      	mov	sp, r7
 8001f3a:	f85d 7b04 	ldr.w	r7, [sp], #4
 8001f3e:	4770      	bx	lr

08001f40 <HAL_TIMEx_BreakCallback>:
  * @brief  Hall Break detection callback in non-blocking mode
  * @param  htim TIM handle
  * @retval None
  */
__weak void HAL_TIMEx_BreakCallback(TIM_HandleTypeDef *htim)
{
 8001f40:	b480      	push	{r7}
 8001f42:	b083      	sub	sp, #12
 8001f44:	af00      	add	r7, sp, #0
 8001f46:	6078      	str	r0, [r7, #4]
  UNUSED(htim);

  /* NOTE : This function should not be modified, when the callback is needed,
            the HAL_TIMEx_BreakCallback could be implemented in the user file
   */
}
 8001f48:	bf00      	nop
 8001f4a:	370c      	adds	r7, #12
 8001f4c:	46bd      	mov	sp, r7
 8001f4e:	f85d 7b04 	ldr.w	r7, [sp], #4
 8001f52:	4770      	bx	lr

08001f54 <__libc_init_array>:
 8001f54:	b570      	push	{r4, r5, r6, lr}
 8001f56:	4e0d      	ldr	r6, [pc, #52]	; (8001f8c <__libc_init_array+0x38>)
 8001f58:	4c0d      	ldr	r4, [pc, #52]	; (8001f90 <__libc_init_array+0x3c>)
 8001f5a:	1ba4      	subs	r4, r4, r6
 8001f5c:	10a4      	asrs	r4, r4, #2
 8001f5e:	2500      	movs	r5, #0
 8001f60:	42a5      	cmp	r5, r4
 8001f62:	d109      	bne.n	8001f78 <__libc_init_array+0x24>
 8001f64:	4e0b      	ldr	r6, [pc, #44]	; (8001f94 <__libc_init_array+0x40>)
 8001f66:	4c0c      	ldr	r4, [pc, #48]	; (8001f98 <__libc_init_array+0x44>)
 8001f68:	f000 f818 	bl	8001f9c <_init>
 8001f6c:	1ba4      	subs	r4, r4, r6
 8001f6e:	10a4      	asrs	r4, r4, #2
 8001f70:	2500      	movs	r5, #0
 8001f72:	42a5      	cmp	r5, r4
 8001f74:	d105      	bne.n	8001f82 <__libc_init_array+0x2e>
 8001f76:	bd70      	pop	{r4, r5, r6, pc}
 8001f78:	f856 3025 	ldr.w	r3, [r6, r5, lsl #2]
 8001f7c:	4798      	blx	r3
 8001f7e:	3501      	adds	r5, #1
 8001f80:	e7ee      	b.n	8001f60 <__libc_init_array+0xc>
 8001f82:	f856 3025 	ldr.w	r3, [r6, r5, lsl #2]
 8001f86:	4798      	blx	r3
 8001f88:	3501      	adds	r5, #1
 8001f8a:	e7f2      	b.n	8001f72 <__libc_init_array+0x1e>
 8001f8c:	08001fcc 	.word	0x08001fcc
 8001f90:	08001fcc 	.word	0x08001fcc
 8001f94:	08001fcc 	.word	0x08001fcc
 8001f98:	08001fd0 	.word	0x08001fd0

08001f9c <_init>:
 8001f9c:	b5f8      	push	{r3, r4, r5, r6, r7, lr}
 8001f9e:	bf00      	nop
 8001fa0:	bcf8      	pop	{r3, r4, r5, r6, r7}
 8001fa2:	bc08      	pop	{r3}
 8001fa4:	469e      	mov	lr, r3
 8001fa6:	4770      	bx	lr

08001fa8 <_fini>:
 8001fa8:	b5f8      	push	{r3, r4, r5, r6, r7, lr}
 8001faa:	bf00      	nop
 8001fac:	bcf8      	pop	{r3, r4, r5, r6, r7}
 8001fae:	bc08      	pop	{r3}
 8001fb0:	469e      	mov	lr, r3
 8001fb2:	4770      	bx	lr
