
009_timer_capture_3.elf:     file format elf32-littlearm

Sections:
Idx Name          Size      VMA       LMA       File off  Algn
  0 .isr_vector   00000188  08000000  08000000  00010000  2**0
                  CONTENTS, ALLOC, LOAD, READONLY, DATA
  1 .text         00003664  08000190  08000190  00010190  2**4
                  CONTENTS, ALLOC, LOAD, READONLY, CODE
  2 .rodata       0000005c  080037f4  080037f4  000137f4  2**2
                  CONTENTS, ALLOC, LOAD, READONLY, DATA
  3 .ARM.extab    00000000  08003850  08003850  00020070  2**0
                  CONTENTS
  4 .ARM          00000008  08003850  08003850  00013850  2**2
                  CONTENTS, ALLOC, LOAD, READONLY, DATA
  5 .preinit_array 00000000  08003858  08003858  00020070  2**0
                  CONTENTS, ALLOC, LOAD, DATA
  6 .init_array   00000004  08003858  08003858  00013858  2**2
                  CONTENTS, ALLOC, LOAD, DATA
  7 .fini_array   00000004  0800385c  0800385c  0001385c  2**2
                  CONTENTS, ALLOC, LOAD, DATA
  8 .data         00000070  20000000  08003860  00020000  2**2
                  CONTENTS, ALLOC, LOAD, DATA
  9 .bss          000000b0  20000070  080038d0  00020070  2**2
                  ALLOC
 10 ._user_heap_stack 00000600  20000120  080038d0  00020120  2**0
                  ALLOC
 11 .ARM.attributes 00000030  00000000  00000000  00020070  2**0
                  CONTENTS, READONLY
 12 .debug_info   0000b648  00000000  00000000  000200a0  2**0
                  CONTENTS, READONLY, DEBUGGING
 13 .debug_abbrev 00001a0a  00000000  00000000  0002b6e8  2**0
                  CONTENTS, READONLY, DEBUGGING
 14 .debug_aranges 00000bb8  00000000  00000000  0002d0f8  2**3
                  CONTENTS, READONLY, DEBUGGING
 15 .debug_ranges 00000ae0  00000000  00000000  0002dcb0  2**3
                  CONTENTS, READONLY, DEBUGGING
 16 .debug_macro  00020f69  00000000  00000000  0002e790  2**0
                  CONTENTS, READONLY, DEBUGGING
 17 .debug_line   000088fb  00000000  00000000  0004f6f9  2**0
                  CONTENTS, READONLY, DEBUGGING
 18 .debug_str    000c9a31  00000000  00000000  00057ff4  2**0
                  CONTENTS, READONLY, DEBUGGING
 19 .comment      0000007b  00000000  00000000  00121a25  2**0
                  CONTENTS, READONLY
 20 .debug_frame  00003424  00000000  00000000  00121aa0  2**2
                  CONTENTS, READONLY, DEBUGGING

Disassembly of section .text:

08000190 <__do_global_dtors_aux>:
 8000190:	b510      	push	{r4, lr}
 8000192:	4c05      	ldr	r4, [pc, #20]	; (80001a8 <__do_global_dtors_aux+0x18>)
 8000194:	7823      	ldrb	r3, [r4, #0]
 8000196:	b933      	cbnz	r3, 80001a6 <__do_global_dtors_aux+0x16>
 8000198:	4b04      	ldr	r3, [pc, #16]	; (80001ac <__do_global_dtors_aux+0x1c>)
 800019a:	b113      	cbz	r3, 80001a2 <__do_global_dtors_aux+0x12>
 800019c:	4804      	ldr	r0, [pc, #16]	; (80001b0 <__do_global_dtors_aux+0x20>)
 800019e:	f3af 8000 	nop.w
 80001a2:	2301      	movs	r3, #1
 80001a4:	7023      	strb	r3, [r4, #0]
 80001a6:	bd10      	pop	{r4, pc}
 80001a8:	20000070 	.word	0x20000070
 80001ac:	00000000 	.word	0x00000000
 80001b0:	080037dc 	.word	0x080037dc

080001b4 <frame_dummy>:
 80001b4:	b508      	push	{r3, lr}
 80001b6:	4b03      	ldr	r3, [pc, #12]	; (80001c4 <frame_dummy+0x10>)
 80001b8:	b11b      	cbz	r3, 80001c2 <frame_dummy+0xe>
 80001ba:	4903      	ldr	r1, [pc, #12]	; (80001c8 <frame_dummy+0x14>)
 80001bc:	4803      	ldr	r0, [pc, #12]	; (80001cc <frame_dummy+0x18>)
 80001be:	f3af 8000 	nop.w
 80001c2:	bd08      	pop	{r3, pc}
 80001c4:	00000000 	.word	0x00000000
 80001c8:	20000074 	.word	0x20000074
 80001cc:	080037dc 	.word	0x080037dc

080001d0 <strlen>:
 80001d0:	4603      	mov	r3, r0
 80001d2:	f813 2b01 	ldrb.w	r2, [r3], #1
 80001d6:	2a00      	cmp	r2, #0
 80001d8:	d1fb      	bne.n	80001d2 <strlen+0x2>
 80001da:	1a18      	subs	r0, r3, r0
 80001dc:	3801      	subs	r0, #1
 80001de:	4770      	bx	lr

080001e0 <memchr>:
 80001e0:	f001 01ff 	and.w	r1, r1, #255	; 0xff
 80001e4:	2a10      	cmp	r2, #16
 80001e6:	db2b      	blt.n	8000240 <memchr+0x60>
 80001e8:	f010 0f07 	tst.w	r0, #7
 80001ec:	d008      	beq.n	8000200 <memchr+0x20>
 80001ee:	f810 3b01 	ldrb.w	r3, [r0], #1
 80001f2:	3a01      	subs	r2, #1
 80001f4:	428b      	cmp	r3, r1
 80001f6:	d02d      	beq.n	8000254 <memchr+0x74>
 80001f8:	f010 0f07 	tst.w	r0, #7
 80001fc:	b342      	cbz	r2, 8000250 <memchr+0x70>
 80001fe:	d1f6      	bne.n	80001ee <memchr+0xe>
 8000200:	b4f0      	push	{r4, r5, r6, r7}
 8000202:	ea41 2101 	orr.w	r1, r1, r1, lsl #8
 8000206:	ea41 4101 	orr.w	r1, r1, r1, lsl #16
 800020a:	f022 0407 	bic.w	r4, r2, #7
 800020e:	f07f 0700 	mvns.w	r7, #0
 8000212:	2300      	movs	r3, #0
 8000214:	e8f0 5602 	ldrd	r5, r6, [r0], #8
 8000218:	3c08      	subs	r4, #8
 800021a:	ea85 0501 	eor.w	r5, r5, r1
 800021e:	ea86 0601 	eor.w	r6, r6, r1
 8000222:	fa85 f547 	uadd8	r5, r5, r7
 8000226:	faa3 f587 	sel	r5, r3, r7
 800022a:	fa86 f647 	uadd8	r6, r6, r7
 800022e:	faa5 f687 	sel	r6, r5, r7
 8000232:	b98e      	cbnz	r6, 8000258 <memchr+0x78>
 8000234:	d1ee      	bne.n	8000214 <memchr+0x34>
 8000236:	bcf0      	pop	{r4, r5, r6, r7}
 8000238:	f001 01ff 	and.w	r1, r1, #255	; 0xff
 800023c:	f002 0207 	and.w	r2, r2, #7
 8000240:	b132      	cbz	r2, 8000250 <memchr+0x70>
 8000242:	f810 3b01 	ldrb.w	r3, [r0], #1
 8000246:	3a01      	subs	r2, #1
 8000248:	ea83 0301 	eor.w	r3, r3, r1
 800024c:	b113      	cbz	r3, 8000254 <memchr+0x74>
 800024e:	d1f8      	bne.n	8000242 <memchr+0x62>
 8000250:	2000      	movs	r0, #0
 8000252:	4770      	bx	lr
 8000254:	3801      	subs	r0, #1
 8000256:	4770      	bx	lr
 8000258:	2d00      	cmp	r5, #0
 800025a:	bf06      	itte	eq
 800025c:	4635      	moveq	r5, r6
 800025e:	3803      	subeq	r0, #3
 8000260:	3807      	subne	r0, #7
 8000262:	f015 0f01 	tst.w	r5, #1
 8000266:	d107      	bne.n	8000278 <memchr+0x98>
 8000268:	3001      	adds	r0, #1
 800026a:	f415 7f80 	tst.w	r5, #256	; 0x100
 800026e:	bf02      	ittt	eq
 8000270:	3001      	addeq	r0, #1
 8000272:	f415 3fc0 	tsteq.w	r5, #98304	; 0x18000
 8000276:	3001      	addeq	r0, #1
 8000278:	bcf0      	pop	{r4, r5, r6, r7}
 800027a:	3801      	subs	r0, #1
 800027c:	4770      	bx	lr
 800027e:	bf00      	nop

08000280 <__aeabi_uldivmod>:
 8000280:	b953      	cbnz	r3, 8000298 <__aeabi_uldivmod+0x18>
 8000282:	b94a      	cbnz	r2, 8000298 <__aeabi_uldivmod+0x18>
 8000284:	2900      	cmp	r1, #0
 8000286:	bf08      	it	eq
 8000288:	2800      	cmpeq	r0, #0
 800028a:	bf1c      	itt	ne
 800028c:	f04f 31ff 	movne.w	r1, #4294967295
 8000290:	f04f 30ff 	movne.w	r0, #4294967295
 8000294:	f000 b972 	b.w	800057c <__aeabi_idiv0>
 8000298:	f1ad 0c08 	sub.w	ip, sp, #8
 800029c:	e96d ce04 	strd	ip, lr, [sp, #-16]!
 80002a0:	f000 f806 	bl	80002b0 <__udivmoddi4>
 80002a4:	f8dd e004 	ldr.w	lr, [sp, #4]
 80002a8:	e9dd 2302 	ldrd	r2, r3, [sp, #8]
 80002ac:	b004      	add	sp, #16
 80002ae:	4770      	bx	lr

080002b0 <__udivmoddi4>:
 80002b0:	e92d 47f0 	stmdb	sp!, {r4, r5, r6, r7, r8, r9, sl, lr}
 80002b4:	9e08      	ldr	r6, [sp, #32]
 80002b6:	4604      	mov	r4, r0
 80002b8:	4688      	mov	r8, r1
 80002ba:	2b00      	cmp	r3, #0
 80002bc:	d14b      	bne.n	8000356 <__udivmoddi4+0xa6>
 80002be:	428a      	cmp	r2, r1
 80002c0:	4615      	mov	r5, r2
 80002c2:	d967      	bls.n	8000394 <__udivmoddi4+0xe4>
 80002c4:	fab2 f282 	clz	r2, r2
 80002c8:	b14a      	cbz	r2, 80002de <__udivmoddi4+0x2e>
 80002ca:	f1c2 0720 	rsb	r7, r2, #32
 80002ce:	fa01 f302 	lsl.w	r3, r1, r2
 80002d2:	fa20 f707 	lsr.w	r7, r0, r7
 80002d6:	4095      	lsls	r5, r2
 80002d8:	ea47 0803 	orr.w	r8, r7, r3
 80002dc:	4094      	lsls	r4, r2
 80002de:	ea4f 4e15 	mov.w	lr, r5, lsr #16
 80002e2:	0c23      	lsrs	r3, r4, #16
 80002e4:	fbb8 f7fe 	udiv	r7, r8, lr
 80002e8:	fa1f fc85 	uxth.w	ip, r5
 80002ec:	fb0e 8817 	mls	r8, lr, r7, r8
 80002f0:	ea43 4308 	orr.w	r3, r3, r8, lsl #16
 80002f4:	fb07 f10c 	mul.w	r1, r7, ip
 80002f8:	4299      	cmp	r1, r3
 80002fa:	d909      	bls.n	8000310 <__udivmoddi4+0x60>
 80002fc:	18eb      	adds	r3, r5, r3
 80002fe:	f107 30ff 	add.w	r0, r7, #4294967295
 8000302:	f080 811b 	bcs.w	800053c <__udivmoddi4+0x28c>
 8000306:	4299      	cmp	r1, r3
 8000308:	f240 8118 	bls.w	800053c <__udivmoddi4+0x28c>
 800030c:	3f02      	subs	r7, #2
 800030e:	442b      	add	r3, r5
 8000310:	1a5b      	subs	r3, r3, r1
 8000312:	b2a4      	uxth	r4, r4
 8000314:	fbb3 f0fe 	udiv	r0, r3, lr
 8000318:	fb0e 3310 	mls	r3, lr, r0, r3
 800031c:	ea44 4403 	orr.w	r4, r4, r3, lsl #16
 8000320:	fb00 fc0c 	mul.w	ip, r0, ip
 8000324:	45a4      	cmp	ip, r4
 8000326:	d909      	bls.n	800033c <__udivmoddi4+0x8c>
 8000328:	192c      	adds	r4, r5, r4
 800032a:	f100 33ff 	add.w	r3, r0, #4294967295
 800032e:	f080 8107 	bcs.w	8000540 <__udivmoddi4+0x290>
 8000332:	45a4      	cmp	ip, r4
 8000334:	f240 8104 	bls.w	8000540 <__udivmoddi4+0x290>
 8000338:	3802      	subs	r0, #2
 800033a:	442c      	add	r4, r5
 800033c:	ea40 4007 	orr.w	r0, r0, r7, lsl #16
 8000340:	eba4 040c 	sub.w	r4, r4, ip
 8000344:	2700      	movs	r7, #0
 8000346:	b11e      	cbz	r6, 8000350 <__udivmoddi4+0xa0>
 8000348:	40d4      	lsrs	r4, r2
 800034a:	2300      	movs	r3, #0
 800034c:	e9c6 4300 	strd	r4, r3, [r6]
 8000350:	4639      	mov	r1, r7
 8000352:	e8bd 87f0 	ldmia.w	sp!, {r4, r5, r6, r7, r8, r9, sl, pc}
 8000356:	428b      	cmp	r3, r1
 8000358:	d909      	bls.n	800036e <__udivmoddi4+0xbe>
 800035a:	2e00      	cmp	r6, #0
 800035c:	f000 80eb 	beq.w	8000536 <__udivmoddi4+0x286>
 8000360:	2700      	movs	r7, #0
 8000362:	e9c6 0100 	strd	r0, r1, [r6]
 8000366:	4638      	mov	r0, r7
 8000368:	4639      	mov	r1, r7
 800036a:	e8bd 87f0 	ldmia.w	sp!, {r4, r5, r6, r7, r8, r9, sl, pc}
 800036e:	fab3 f783 	clz	r7, r3
 8000372:	2f00      	cmp	r7, #0
 8000374:	d147      	bne.n	8000406 <__udivmoddi4+0x156>
 8000376:	428b      	cmp	r3, r1
 8000378:	d302      	bcc.n	8000380 <__udivmoddi4+0xd0>
 800037a:	4282      	cmp	r2, r0
 800037c:	f200 80fa 	bhi.w	8000574 <__udivmoddi4+0x2c4>
 8000380:	1a84      	subs	r4, r0, r2
 8000382:	eb61 0303 	sbc.w	r3, r1, r3
 8000386:	2001      	movs	r0, #1
 8000388:	4698      	mov	r8, r3
 800038a:	2e00      	cmp	r6, #0
 800038c:	d0e0      	beq.n	8000350 <__udivmoddi4+0xa0>
 800038e:	e9c6 4800 	strd	r4, r8, [r6]
 8000392:	e7dd      	b.n	8000350 <__udivmoddi4+0xa0>
 8000394:	b902      	cbnz	r2, 8000398 <__udivmoddi4+0xe8>
 8000396:	deff      	udf	#255	; 0xff
 8000398:	fab2 f282 	clz	r2, r2
 800039c:	2a00      	cmp	r2, #0
 800039e:	f040 808f 	bne.w	80004c0 <__udivmoddi4+0x210>
 80003a2:	1b49      	subs	r1, r1, r5
 80003a4:	ea4f 4e15 	mov.w	lr, r5, lsr #16
 80003a8:	fa1f f885 	uxth.w	r8, r5
 80003ac:	2701      	movs	r7, #1
 80003ae:	fbb1 fcfe 	udiv	ip, r1, lr
 80003b2:	0c23      	lsrs	r3, r4, #16
 80003b4:	fb0e 111c 	mls	r1, lr, ip, r1
 80003b8:	ea43 4301 	orr.w	r3, r3, r1, lsl #16
 80003bc:	fb08 f10c 	mul.w	r1, r8, ip
 80003c0:	4299      	cmp	r1, r3
 80003c2:	d907      	bls.n	80003d4 <__udivmoddi4+0x124>
 80003c4:	18eb      	adds	r3, r5, r3
 80003c6:	f10c 30ff 	add.w	r0, ip, #4294967295
 80003ca:	d202      	bcs.n	80003d2 <__udivmoddi4+0x122>
 80003cc:	4299      	cmp	r1, r3
 80003ce:	f200 80cd 	bhi.w	800056c <__udivmoddi4+0x2bc>
 80003d2:	4684      	mov	ip, r0
 80003d4:	1a59      	subs	r1, r3, r1
 80003d6:	b2a3      	uxth	r3, r4
 80003d8:	fbb1 f0fe 	udiv	r0, r1, lr
 80003dc:	fb0e 1410 	mls	r4, lr, r0, r1
 80003e0:	ea43 4404 	orr.w	r4, r3, r4, lsl #16
 80003e4:	fb08 f800 	mul.w	r8, r8, r0
 80003e8:	45a0      	cmp	r8, r4
 80003ea:	d907      	bls.n	80003fc <__udivmoddi4+0x14c>
 80003ec:	192c      	adds	r4, r5, r4
 80003ee:	f100 33ff 	add.w	r3, r0, #4294967295
 80003f2:	d202      	bcs.n	80003fa <__udivmoddi4+0x14a>
 80003f4:	45a0      	cmp	r8, r4
 80003f6:	f200 80b6 	bhi.w	8000566 <__udivmoddi4+0x2b6>
 80003fa:	4618      	mov	r0, r3
 80003fc:	eba4 0408 	sub.w	r4, r4, r8
 8000400:	ea40 400c 	orr.w	r0, r0, ip, lsl #16
 8000404:	e79f      	b.n	8000346 <__udivmoddi4+0x96>
 8000406:	f1c7 0c20 	rsb	ip, r7, #32
 800040a:	40bb      	lsls	r3, r7
 800040c:	fa22 fe0c 	lsr.w	lr, r2, ip
 8000410:	ea4e 0e03 	orr.w	lr, lr, r3
 8000414:	fa01 f407 	lsl.w	r4, r1, r7
 8000418:	fa20 f50c 	lsr.w	r5, r0, ip
 800041c:	fa21 f30c 	lsr.w	r3, r1, ip
 8000420:	ea4f 481e 	mov.w	r8, lr, lsr #16
 8000424:	4325      	orrs	r5, r4
 8000426:	fbb3 f9f8 	udiv	r9, r3, r8
 800042a:	0c2c      	lsrs	r4, r5, #16
 800042c:	fb08 3319 	mls	r3, r8, r9, r3
 8000430:	fa1f fa8e 	uxth.w	sl, lr
 8000434:	ea44 4303 	orr.w	r3, r4, r3, lsl #16
 8000438:	fb09 f40a 	mul.w	r4, r9, sl
 800043c:	429c      	cmp	r4, r3
 800043e:	fa02 f207 	lsl.w	r2, r2, r7
 8000442:	fa00 f107 	lsl.w	r1, r0, r7
 8000446:	d90b      	bls.n	8000460 <__udivmoddi4+0x1b0>
 8000448:	eb1e 0303 	adds.w	r3, lr, r3
 800044c:	f109 30ff 	add.w	r0, r9, #4294967295
 8000450:	f080 8087 	bcs.w	8000562 <__udivmoddi4+0x2b2>
 8000454:	429c      	cmp	r4, r3
 8000456:	f240 8084 	bls.w	8000562 <__udivmoddi4+0x2b2>
 800045a:	f1a9 0902 	sub.w	r9, r9, #2
 800045e:	4473      	add	r3, lr
 8000460:	1b1b      	subs	r3, r3, r4
 8000462:	b2ad      	uxth	r5, r5
 8000464:	fbb3 f0f8 	udiv	r0, r3, r8
 8000468:	fb08 3310 	mls	r3, r8, r0, r3
 800046c:	ea45 4403 	orr.w	r4, r5, r3, lsl #16
 8000470:	fb00 fa0a 	mul.w	sl, r0, sl
 8000474:	45a2      	cmp	sl, r4
 8000476:	d908      	bls.n	800048a <__udivmoddi4+0x1da>
 8000478:	eb1e 0404 	adds.w	r4, lr, r4
 800047c:	f100 33ff 	add.w	r3, r0, #4294967295
 8000480:	d26b      	bcs.n	800055a <__udivmoddi4+0x2aa>
 8000482:	45a2      	cmp	sl, r4
 8000484:	d969      	bls.n	800055a <__udivmoddi4+0x2aa>
 8000486:	3802      	subs	r0, #2
 8000488:	4474      	add	r4, lr
 800048a:	ea40 4009 	orr.w	r0, r0, r9, lsl #16
 800048e:	fba0 8902 	umull	r8, r9, r0, r2
 8000492:	eba4 040a 	sub.w	r4, r4, sl
 8000496:	454c      	cmp	r4, r9
 8000498:	46c2      	mov	sl, r8
 800049a:	464b      	mov	r3, r9
 800049c:	d354      	bcc.n	8000548 <__udivmoddi4+0x298>
 800049e:	d051      	beq.n	8000544 <__udivmoddi4+0x294>
 80004a0:	2e00      	cmp	r6, #0
 80004a2:	d069      	beq.n	8000578 <__udivmoddi4+0x2c8>
 80004a4:	ebb1 050a 	subs.w	r5, r1, sl
 80004a8:	eb64 0403 	sbc.w	r4, r4, r3
 80004ac:	fa04 fc0c 	lsl.w	ip, r4, ip
 80004b0:	40fd      	lsrs	r5, r7
 80004b2:	40fc      	lsrs	r4, r7
 80004b4:	ea4c 0505 	orr.w	r5, ip, r5
 80004b8:	e9c6 5400 	strd	r5, r4, [r6]
 80004bc:	2700      	movs	r7, #0
 80004be:	e747      	b.n	8000350 <__udivmoddi4+0xa0>
 80004c0:	f1c2 0320 	rsb	r3, r2, #32
 80004c4:	fa20 f703 	lsr.w	r7, r0, r3
 80004c8:	4095      	lsls	r5, r2
 80004ca:	fa01 f002 	lsl.w	r0, r1, r2
 80004ce:	fa21 f303 	lsr.w	r3, r1, r3
 80004d2:	ea4f 4e15 	mov.w	lr, r5, lsr #16
 80004d6:	4338      	orrs	r0, r7
 80004d8:	0c01      	lsrs	r1, r0, #16
 80004da:	fbb3 f7fe 	udiv	r7, r3, lr
 80004de:	fa1f f885 	uxth.w	r8, r5
 80004e2:	fb0e 3317 	mls	r3, lr, r7, r3
 80004e6:	ea41 4103 	orr.w	r1, r1, r3, lsl #16
 80004ea:	fb07 f308 	mul.w	r3, r7, r8
 80004ee:	428b      	cmp	r3, r1
 80004f0:	fa04 f402 	lsl.w	r4, r4, r2
 80004f4:	d907      	bls.n	8000506 <__udivmoddi4+0x256>
 80004f6:	1869      	adds	r1, r5, r1
 80004f8:	f107 3cff 	add.w	ip, r7, #4294967295
 80004fc:	d22f      	bcs.n	800055e <__udivmoddi4+0x2ae>
 80004fe:	428b      	cmp	r3, r1
 8000500:	d92d      	bls.n	800055e <__udivmoddi4+0x2ae>
 8000502:	3f02      	subs	r7, #2
 8000504:	4429      	add	r1, r5
 8000506:	1acb      	subs	r3, r1, r3
 8000508:	b281      	uxth	r1, r0
 800050a:	fbb3 f0fe 	udiv	r0, r3, lr
 800050e:	fb0e 3310 	mls	r3, lr, r0, r3
 8000512:	ea41 4103 	orr.w	r1, r1, r3, lsl #16
 8000516:	fb00 f308 	mul.w	r3, r0, r8
 800051a:	428b      	cmp	r3, r1
 800051c:	d907      	bls.n	800052e <__udivmoddi4+0x27e>
 800051e:	1869      	adds	r1, r5, r1
 8000520:	f100 3cff 	add.w	ip, r0, #4294967295
 8000524:	d217      	bcs.n	8000556 <__udivmoddi4+0x2a6>
 8000526:	428b      	cmp	r3, r1
 8000528:	d915      	bls.n	8000556 <__udivmoddi4+0x2a6>
 800052a:	3802      	subs	r0, #2
 800052c:	4429      	add	r1, r5
 800052e:	1ac9      	subs	r1, r1, r3
 8000530:	ea40 4707 	orr.w	r7, r0, r7, lsl #16
 8000534:	e73b      	b.n	80003ae <__udivmoddi4+0xfe>
 8000536:	4637      	mov	r7, r6
 8000538:	4630      	mov	r0, r6
 800053a:	e709      	b.n	8000350 <__udivmoddi4+0xa0>
 800053c:	4607      	mov	r7, r0
 800053e:	e6e7      	b.n	8000310 <__udivmoddi4+0x60>
 8000540:	4618      	mov	r0, r3
 8000542:	e6fb      	b.n	800033c <__udivmoddi4+0x8c>
 8000544:	4541      	cmp	r1, r8
 8000546:	d2ab      	bcs.n	80004a0 <__udivmoddi4+0x1f0>
 8000548:	ebb8 0a02 	subs.w	sl, r8, r2
 800054c:	eb69 020e 	sbc.w	r2, r9, lr
 8000550:	3801      	subs	r0, #1
 8000552:	4613      	mov	r3, r2
 8000554:	e7a4      	b.n	80004a0 <__udivmoddi4+0x1f0>
 8000556:	4660      	mov	r0, ip
 8000558:	e7e9      	b.n	800052e <__udivmoddi4+0x27e>
 800055a:	4618      	mov	r0, r3
 800055c:	e795      	b.n	800048a <__udivmoddi4+0x1da>
 800055e:	4667      	mov	r7, ip
 8000560:	e7d1      	b.n	8000506 <__udivmoddi4+0x256>
 8000562:	4681      	mov	r9, r0
 8000564:	e77c      	b.n	8000460 <__udivmoddi4+0x1b0>
 8000566:	3802      	subs	r0, #2
 8000568:	442c      	add	r4, r5
 800056a:	e747      	b.n	80003fc <__udivmoddi4+0x14c>
 800056c:	f1ac 0c02 	sub.w	ip, ip, #2
 8000570:	442b      	add	r3, r5
 8000572:	e72f      	b.n	80003d4 <__udivmoddi4+0x124>
 8000574:	4638      	mov	r0, r7
 8000576:	e708      	b.n	800038a <__udivmoddi4+0xda>
 8000578:	4637      	mov	r7, r6
 800057a:	e6e9      	b.n	8000350 <__udivmoddi4+0xa0>

0800057c <__aeabi_idiv0>:
 800057c:	4770      	bx	lr
 800057e:	bf00      	nop

08000580 <main>:
/**
  * @brief  The application entry point.
  * @retval int
  */
int main(void)
{
 8000580:	b580      	push	{r7, lr}
 8000582:	b09a      	sub	sp, #104	; 0x68
 8000584:	af00      	add	r7, sp, #0
  /* USER CODE END 1 */

  /* MCU Configuration--------------------------------------------------------*/

  /* Reset of all peripherals, Initializes the Flash interface and the Systick. */
  HAL_Init();
 8000586:	f000 fb17 	bl	8000bb8 <HAL_Init>
  /* USER CODE BEGIN Init */

  /* USER CODE END Init */

  /* Configure the system clock */
  SystemClock_Config();
 800058a:	f000 f825 	bl	80005d8 <SystemClock_Config>
  /* USER CODE BEGIN SysInit */

  /* USER CODE END SysInit */

  /* Initialize all configured peripherals */
  MX_GPIO_Init();
 800058e:	f000 f8eb 	bl	8000768 <MX_GPIO_Init>
  MX_TIM6_Init();
 8000592:	f000 f88b 	bl	80006ac <MX_TIM6_Init>
  MX_USART2_UART_Init();
 8000596:	f000 f8bd 	bl	8000714 <MX_USART2_UART_Init>
  /* Infinite loop */
  /* USER CODE BEGIN WHILE */
  while (1)
  {
    /* USER CODE END WHILE */
	  HAL_TIM_Base_Start_IT(&htim6);
 800059a:	480c      	ldr	r0, [pc, #48]	; (80005cc <main+0x4c>)
 800059c:	f001 fb75 	bl	8001c8a <HAL_TIM_Base_Start_IT>
	  sprintf(msg,"HCLK : %ld\r\n",HAL_RCC_GetHCLKFreq());
 80005a0:	f001 fb14 	bl	8001bcc <HAL_RCC_GetHCLKFreq>
 80005a4:	4602      	mov	r2, r0
 80005a6:	1d3b      	adds	r3, r7, #4
 80005a8:	4909      	ldr	r1, [pc, #36]	; (80005d0 <main+0x50>)
 80005aa:	4618      	mov	r0, r3
 80005ac:	f002 fd10 	bl	8002fd0 <siprintf>
	  HAL_UART_Transmit(&huart2, (uint8_t*)msg, strlen(msg), HAL_MAX_DELAY);
 80005b0:	1d3b      	adds	r3, r7, #4
 80005b2:	4618      	mov	r0, r3
 80005b4:	f7ff fe0c 	bl	80001d0 <strlen>
 80005b8:	4603      	mov	r3, r0
 80005ba:	b29a      	uxth	r2, r3
 80005bc:	1d39      	adds	r1, r7, #4
 80005be:	f04f 33ff 	mov.w	r3, #4294967295
 80005c2:	4804      	ldr	r0, [pc, #16]	; (80005d4 <main+0x54>)
 80005c4:	f001 fe33 	bl	800222e <HAL_UART_Transmit>
	  HAL_TIM_Base_Start_IT(&htim6);
 80005c8:	e7e7      	b.n	800059a <main+0x1a>
 80005ca:	bf00      	nop
 80005cc:	20000098 	.word	0x20000098
 80005d0:	080037f4 	.word	0x080037f4
 80005d4:	200000d8 	.word	0x200000d8

080005d8 <SystemClock_Config>:
/**
  * @brief System Clock Configuration
  * @retval None
  */
void SystemClock_Config(void)
{
 80005d8:	b580      	push	{r7, lr}
 80005da:	b094      	sub	sp, #80	; 0x50
 80005dc:	af00      	add	r7, sp, #0
  RCC_OscInitTypeDef RCC_OscInitStruct = {0};
 80005de:	f107 0320 	add.w	r3, r7, #32
 80005e2:	2230      	movs	r2, #48	; 0x30
 80005e4:	2100      	movs	r1, #0
 80005e6:	4618      	mov	r0, r3
 80005e8:	f002 fcea 	bl	8002fc0 <memset>
  RCC_ClkInitTypeDef RCC_ClkInitStruct = {0};
 80005ec:	f107 030c 	add.w	r3, r7, #12
 80005f0:	2200      	movs	r2, #0
 80005f2:	601a      	str	r2, [r3, #0]
 80005f4:	605a      	str	r2, [r3, #4]
 80005f6:	609a      	str	r2, [r3, #8]
 80005f8:	60da      	str	r2, [r3, #12]
 80005fa:	611a      	str	r2, [r3, #16]

  /** Configure the main internal regulator output voltage 
  */
  __HAL_RCC_PWR_CLK_ENABLE();
 80005fc:	2300      	movs	r3, #0
 80005fe:	60bb      	str	r3, [r7, #8]
 8000600:	4b28      	ldr	r3, [pc, #160]	; (80006a4 <SystemClock_Config+0xcc>)
 8000602:	6c1b      	ldr	r3, [r3, #64]	; 0x40
 8000604:	4a27      	ldr	r2, [pc, #156]	; (80006a4 <SystemClock_Config+0xcc>)
 8000606:	f043 5380 	orr.w	r3, r3, #268435456	; 0x10000000
 800060a:	6413      	str	r3, [r2, #64]	; 0x40
 800060c:	4b25      	ldr	r3, [pc, #148]	; (80006a4 <SystemClock_Config+0xcc>)
 800060e:	6c1b      	ldr	r3, [r3, #64]	; 0x40
 8000610:	f003 5380 	and.w	r3, r3, #268435456	; 0x10000000
 8000614:	60bb      	str	r3, [r7, #8]
 8000616:	68bb      	ldr	r3, [r7, #8]
  __HAL_PWR_VOLTAGESCALING_CONFIG(PWR_REGULATOR_VOLTAGE_SCALE1);
 8000618:	2300      	movs	r3, #0
 800061a:	607b      	str	r3, [r7, #4]
 800061c:	4b22      	ldr	r3, [pc, #136]	; (80006a8 <SystemClock_Config+0xd0>)
 800061e:	681b      	ldr	r3, [r3, #0]
 8000620:	4a21      	ldr	r2, [pc, #132]	; (80006a8 <SystemClock_Config+0xd0>)
 8000622:	f443 4380 	orr.w	r3, r3, #16384	; 0x4000
 8000626:	6013      	str	r3, [r2, #0]
 8000628:	4b1f      	ldr	r3, [pc, #124]	; (80006a8 <SystemClock_Config+0xd0>)
 800062a:	681b      	ldr	r3, [r3, #0]
 800062c:	f403 4380 	and.w	r3, r3, #16384	; 0x4000
 8000630:	607b      	str	r3, [r7, #4]
 8000632:	687b      	ldr	r3, [r7, #4]
  /** Initializes the CPU, AHB and APB busses clocks 
  */
  RCC_OscInitStruct.OscillatorType = RCC_OSCILLATORTYPE_HSI;
 8000634:	2302      	movs	r3, #2
 8000636:	623b      	str	r3, [r7, #32]
  RCC_OscInitStruct.HSIState = RCC_HSI_ON;
 8000638:	2301      	movs	r3, #1
 800063a:	62fb      	str	r3, [r7, #44]	; 0x2c
  RCC_OscInitStruct.HSICalibrationValue = RCC_HSICALIBRATION_DEFAULT;
 800063c:	2310      	movs	r3, #16
 800063e:	633b      	str	r3, [r7, #48]	; 0x30
  RCC_OscInitStruct.PLL.PLLState = RCC_PLL_ON;
 8000640:	2302      	movs	r3, #2
 8000642:	63bb      	str	r3, [r7, #56]	; 0x38
  RCC_OscInitStruct.PLL.PLLSource = RCC_PLLSOURCE_HSI;
 8000644:	2300      	movs	r3, #0
 8000646:	63fb      	str	r3, [r7, #60]	; 0x3c
  RCC_OscInitStruct.PLL.PLLM = 16;
 8000648:	2310      	movs	r3, #16
 800064a:	643b      	str	r3, [r7, #64]	; 0x40
  RCC_OscInitStruct.PLL.PLLN = 100;
 800064c:	2364      	movs	r3, #100	; 0x64
 800064e:	647b      	str	r3, [r7, #68]	; 0x44
  RCC_OscInitStruct.PLL.PLLP = RCC_PLLP_DIV2;
 8000650:	2302      	movs	r3, #2
 8000652:	64bb      	str	r3, [r7, #72]	; 0x48
  RCC_OscInitStruct.PLL.PLLQ = 7;
 8000654:	2307      	movs	r3, #7
 8000656:	64fb      	str	r3, [r7, #76]	; 0x4c
  if (HAL_RCC_OscConfig(&RCC_OscInitStruct) != HAL_OK)
 8000658:	f107 0320 	add.w	r3, r7, #32
 800065c:	4618      	mov	r0, r3
 800065e:	f000 fe1f 	bl	80012a0 <HAL_RCC_OscConfig>
 8000662:	4603      	mov	r3, r0
 8000664:	2b00      	cmp	r3, #0
 8000666:	d001      	beq.n	800066c <SystemClock_Config+0x94>
  {
    Error_Handler();
 8000668:	f000 f944 	bl	80008f4 <Error_Handler>
  }
  /** Initializes the CPU, AHB and APB busses clocks 
  */
  RCC_ClkInitStruct.ClockType = RCC_CLOCKTYPE_HCLK|RCC_CLOCKTYPE_SYSCLK
 800066c:	230f      	movs	r3, #15
 800066e:	60fb      	str	r3, [r7, #12]
                              |RCC_CLOCKTYPE_PCLK1|RCC_CLOCKTYPE_PCLK2;
  RCC_ClkInitStruct.SYSCLKSource = RCC_SYSCLKSOURCE_PLLCLK;
 8000670:	2302      	movs	r3, #2
 8000672:	613b      	str	r3, [r7, #16]
  RCC_ClkInitStruct.AHBCLKDivider = RCC_SYSCLK_DIV1;
 8000674:	2300      	movs	r3, #0
 8000676:	617b      	str	r3, [r7, #20]
  RCC_ClkInitStruct.APB1CLKDivider = RCC_HCLK_DIV2;
 8000678:	f44f 5380 	mov.w	r3, #4096	; 0x1000
 800067c:	61bb      	str	r3, [r7, #24]
  RCC_ClkInitStruct.APB2CLKDivider = RCC_HCLK_DIV2;
 800067e:	f44f 5380 	mov.w	r3, #4096	; 0x1000
 8000682:	61fb      	str	r3, [r7, #28]

  if (HAL_RCC_ClockConfig(&RCC_ClkInitStruct, FLASH_LATENCY_1) != HAL_OK)
 8000684:	f107 030c 	add.w	r3, r7, #12
 8000688:	2101      	movs	r1, #1
 800068a:	4618      	mov	r0, r3
 800068c:	f001 f878 	bl	8001780 <HAL_RCC_ClockConfig>
 8000690:	4603      	mov	r3, r0
 8000692:	2b00      	cmp	r3, #0
 8000694:	d001      	beq.n	800069a <SystemClock_Config+0xc2>
  {
    Error_Handler();
 8000696:	f000 f92d 	bl	80008f4 <Error_Handler>
  }
 // HAL_RCC_MCOConfig(RCC_MCO1, RCC_MCO1SOURCE_PLLCLK, RCC_MCODIV_1);
  //HAL_RCC_MCOConfig(RCC_MCO2, RCC_MCO2SOURCE_SYSCLK, RCC_MCODIV_1);

}
 800069a:	bf00      	nop
 800069c:	3750      	adds	r7, #80	; 0x50
 800069e:	46bd      	mov	sp, r7
 80006a0:	bd80      	pop	{r7, pc}
 80006a2:	bf00      	nop
 80006a4:	40023800 	.word	0x40023800
 80006a8:	40007000 	.word	0x40007000

080006ac <MX_TIM6_Init>:
  * @brief TIM6 Initialization Function
  * @param None
  * @retval None
  */
static void MX_TIM6_Init(void)
{
 80006ac:	b580      	push	{r7, lr}
 80006ae:	b082      	sub	sp, #8
 80006b0:	af00      	add	r7, sp, #0

  /* USER CODE BEGIN TIM6_Init 0 */

  /* USER CODE END TIM6_Init 0 */

  TIM_MasterConfigTypeDef sMasterConfig = {0};
 80006b2:	463b      	mov	r3, r7
 80006b4:	2200      	movs	r2, #0
 80006b6:	601a      	str	r2, [r3, #0]
 80006b8:	605a      	str	r2, [r3, #4]

  /* USER CODE BEGIN TIM6_Init 1 */

  /* USER CODE END TIM6_Init 1 */
  htim6.Instance = TIM6;
 80006ba:	4b14      	ldr	r3, [pc, #80]	; (800070c <MX_TIM6_Init+0x60>)
 80006bc:	4a14      	ldr	r2, [pc, #80]	; (8000710 <MX_TIM6_Init+0x64>)
 80006be:	601a      	str	r2, [r3, #0]
  htim6.Init.Prescaler = 9;
 80006c0:	4b12      	ldr	r3, [pc, #72]	; (800070c <MX_TIM6_Init+0x60>)
 80006c2:	2209      	movs	r2, #9
 80006c4:	605a      	str	r2, [r3, #4]
  htim6.Init.CounterMode = TIM_COUNTERMODE_UP;
 80006c6:	4b11      	ldr	r3, [pc, #68]	; (800070c <MX_TIM6_Init+0x60>)
 80006c8:	2200      	movs	r2, #0
 80006ca:	609a      	str	r2, [r3, #8]
  htim6.Init.Period = 49;
 80006cc:	4b0f      	ldr	r3, [pc, #60]	; (800070c <MX_TIM6_Init+0x60>)
 80006ce:	2231      	movs	r2, #49	; 0x31
 80006d0:	60da      	str	r2, [r3, #12]
  htim6.Init.AutoReloadPreload = TIM_AUTORELOAD_PRELOAD_DISABLE;
 80006d2:	4b0e      	ldr	r3, [pc, #56]	; (800070c <MX_TIM6_Init+0x60>)
 80006d4:	2200      	movs	r2, #0
 80006d6:	619a      	str	r2, [r3, #24]
  if (HAL_TIM_Base_Init(&htim6) != HAL_OK)
 80006d8:	480c      	ldr	r0, [pc, #48]	; (800070c <MX_TIM6_Init+0x60>)
 80006da:	f001 faab 	bl	8001c34 <HAL_TIM_Base_Init>
 80006de:	4603      	mov	r3, r0
 80006e0:	2b00      	cmp	r3, #0
 80006e2:	d001      	beq.n	80006e8 <MX_TIM6_Init+0x3c>
  {
    Error_Handler();
 80006e4:	f000 f906 	bl	80008f4 <Error_Handler>
  }
  sMasterConfig.MasterOutputTrigger = TIM_TRGO_RESET;
 80006e8:	2300      	movs	r3, #0
 80006ea:	603b      	str	r3, [r7, #0]
  sMasterConfig.MasterSlaveMode = TIM_MASTERSLAVEMODE_DISABLE;
 80006ec:	2300      	movs	r3, #0
 80006ee:	607b      	str	r3, [r7, #4]
  if (HAL_TIMEx_MasterConfigSynchronization(&htim6, &sMasterConfig) != HAL_OK)
 80006f0:	463b      	mov	r3, r7
 80006f2:	4619      	mov	r1, r3
 80006f4:	4805      	ldr	r0, [pc, #20]	; (800070c <MX_TIM6_Init+0x60>)
 80006f6:	f001 fcbd 	bl	8002074 <HAL_TIMEx_MasterConfigSynchronization>
 80006fa:	4603      	mov	r3, r0
 80006fc:	2b00      	cmp	r3, #0
 80006fe:	d001      	beq.n	8000704 <MX_TIM6_Init+0x58>
  {
    Error_Handler();
 8000700:	f000 f8f8 	bl	80008f4 <Error_Handler>
  }
  /* USER CODE BEGIN TIM6_Init 2 */

  /* USER CODE END TIM6_Init 2 */

}
 8000704:	bf00      	nop
 8000706:	3708      	adds	r7, #8
 8000708:	46bd      	mov	sp, r7
 800070a:	bd80      	pop	{r7, pc}
 800070c:	20000098 	.word	0x20000098
 8000710:	40001000 	.word	0x40001000

08000714 <MX_USART2_UART_Init>:
  * @brief USART2 Initialization Function
  * @param None
  * @retval None
  */
static void MX_USART2_UART_Init(void)
{
 8000714:	b580      	push	{r7, lr}
 8000716:	af00      	add	r7, sp, #0
  /* USER CODE END USART2_Init 0 */

  /* USER CODE BEGIN USART2_Init 1 */

  /* USER CODE END USART2_Init 1 */
  huart2.Instance = USART2;
 8000718:	4b11      	ldr	r3, [pc, #68]	; (8000760 <MX_USART2_UART_Init+0x4c>)
 800071a:	4a12      	ldr	r2, [pc, #72]	; (8000764 <MX_USART2_UART_Init+0x50>)
 800071c:	601a      	str	r2, [r3, #0]
  huart2.Init.BaudRate = 115200;
 800071e:	4b10      	ldr	r3, [pc, #64]	; (8000760 <MX_USART2_UART_Init+0x4c>)
 8000720:	f44f 32e1 	mov.w	r2, #115200	; 0x1c200
 8000724:	605a      	str	r2, [r3, #4]
  huart2.Init.WordLength = UART_WORDLENGTH_8B;
 8000726:	4b0e      	ldr	r3, [pc, #56]	; (8000760 <MX_USART2_UART_Init+0x4c>)
 8000728:	2200      	movs	r2, #0
 800072a:	609a      	str	r2, [r3, #8]
  huart2.Init.StopBits = UART_STOPBITS_1;
 800072c:	4b0c      	ldr	r3, [pc, #48]	; (8000760 <MX_USART2_UART_Init+0x4c>)
 800072e:	2200      	movs	r2, #0
 8000730:	60da      	str	r2, [r3, #12]
  huart2.Init.Parity = UART_PARITY_NONE;
 8000732:	4b0b      	ldr	r3, [pc, #44]	; (8000760 <MX_USART2_UART_Init+0x4c>)
 8000734:	2200      	movs	r2, #0
 8000736:	611a      	str	r2, [r3, #16]
  huart2.Init.Mode = UART_MODE_TX_RX;
 8000738:	4b09      	ldr	r3, [pc, #36]	; (8000760 <MX_USART2_UART_Init+0x4c>)
 800073a:	220c      	movs	r2, #12
 800073c:	615a      	str	r2, [r3, #20]
  huart2.Init.HwFlowCtl = UART_HWCONTROL_NONE;
 800073e:	4b08      	ldr	r3, [pc, #32]	; (8000760 <MX_USART2_UART_Init+0x4c>)
 8000740:	2200      	movs	r2, #0
 8000742:	619a      	str	r2, [r3, #24]
  huart2.Init.OverSampling = UART_OVERSAMPLING_16;
 8000744:	4b06      	ldr	r3, [pc, #24]	; (8000760 <MX_USART2_UART_Init+0x4c>)
 8000746:	2200      	movs	r2, #0
 8000748:	61da      	str	r2, [r3, #28]
  if (HAL_UART_Init(&huart2) != HAL_OK)
 800074a:	4805      	ldr	r0, [pc, #20]	; (8000760 <MX_USART2_UART_Init+0x4c>)
 800074c:	f001 fd22 	bl	8002194 <HAL_UART_Init>
 8000750:	4603      	mov	r3, r0
 8000752:	2b00      	cmp	r3, #0
 8000754:	d001      	beq.n	800075a <MX_USART2_UART_Init+0x46>
  {
    Error_Handler();
 8000756:	f000 f8cd 	bl	80008f4 <Error_Handler>
  }
  /* USER CODE BEGIN USART2_Init 2 */

  /* USER CODE END USART2_Init 2 */

}
 800075a:	bf00      	nop
 800075c:	bd80      	pop	{r7, pc}
 800075e:	bf00      	nop
 8000760:	200000d8 	.word	0x200000d8
 8000764:	40004400 	.word	0x40004400

08000768 <MX_GPIO_Init>:
  * @brief GPIO Initialization Function
  * @param None
  * @retval None
  */
static void MX_GPIO_Init(void)
{
 8000768:	b580      	push	{r7, lr}
 800076a:	b08a      	sub	sp, #40	; 0x28
 800076c:	af00      	add	r7, sp, #0
  GPIO_InitTypeDef GPIO_InitStruct = {0};
 800076e:	f107 0314 	add.w	r3, r7, #20
 8000772:	2200      	movs	r2, #0
 8000774:	601a      	str	r2, [r3, #0]
 8000776:	605a      	str	r2, [r3, #4]
 8000778:	609a      	str	r2, [r3, #8]
 800077a:	60da      	str	r2, [r3, #12]
 800077c:	611a      	str	r2, [r3, #16]

  /* GPIO Ports Clock Enable */
  __HAL_RCC_GPIOH_CLK_ENABLE();
 800077e:	2300      	movs	r3, #0
 8000780:	613b      	str	r3, [r7, #16]
 8000782:	4b4e      	ldr	r3, [pc, #312]	; (80008bc <MX_GPIO_Init+0x154>)
 8000784:	6b1b      	ldr	r3, [r3, #48]	; 0x30
 8000786:	4a4d      	ldr	r2, [pc, #308]	; (80008bc <MX_GPIO_Init+0x154>)
 8000788:	f043 0380 	orr.w	r3, r3, #128	; 0x80
 800078c:	6313      	str	r3, [r2, #48]	; 0x30
 800078e:	4b4b      	ldr	r3, [pc, #300]	; (80008bc <MX_GPIO_Init+0x154>)
 8000790:	6b1b      	ldr	r3, [r3, #48]	; 0x30
 8000792:	f003 0380 	and.w	r3, r3, #128	; 0x80
 8000796:	613b      	str	r3, [r7, #16]
 8000798:	693b      	ldr	r3, [r7, #16]
  __HAL_RCC_GPIOA_CLK_ENABLE();
 800079a:	2300      	movs	r3, #0
 800079c:	60fb      	str	r3, [r7, #12]
 800079e:	4b47      	ldr	r3, [pc, #284]	; (80008bc <MX_GPIO_Init+0x154>)
 80007a0:	6b1b      	ldr	r3, [r3, #48]	; 0x30
 80007a2:	4a46      	ldr	r2, [pc, #280]	; (80008bc <MX_GPIO_Init+0x154>)
 80007a4:	f043 0301 	orr.w	r3, r3, #1
 80007a8:	6313      	str	r3, [r2, #48]	; 0x30
 80007aa:	4b44      	ldr	r3, [pc, #272]	; (80008bc <MX_GPIO_Init+0x154>)
 80007ac:	6b1b      	ldr	r3, [r3, #48]	; 0x30
 80007ae:	f003 0301 	and.w	r3, r3, #1
 80007b2:	60fb      	str	r3, [r7, #12]
 80007b4:	68fb      	ldr	r3, [r7, #12]
  __HAL_RCC_GPIOB_CLK_ENABLE();
 80007b6:	2300      	movs	r3, #0
 80007b8:	60bb      	str	r3, [r7, #8]
 80007ba:	4b40      	ldr	r3, [pc, #256]	; (80008bc <MX_GPIO_Init+0x154>)
 80007bc:	6b1b      	ldr	r3, [r3, #48]	; 0x30
 80007be:	4a3f      	ldr	r2, [pc, #252]	; (80008bc <MX_GPIO_Init+0x154>)
 80007c0:	f043 0302 	orr.w	r3, r3, #2
 80007c4:	6313      	str	r3, [r2, #48]	; 0x30
 80007c6:	4b3d      	ldr	r3, [pc, #244]	; (80008bc <MX_GPIO_Init+0x154>)
 80007c8:	6b1b      	ldr	r3, [r3, #48]	; 0x30
 80007ca:	f003 0302 	and.w	r3, r3, #2
 80007ce:	60bb      	str	r3, [r7, #8]
 80007d0:	68bb      	ldr	r3, [r7, #8]
  __HAL_RCC_GPIOD_CLK_ENABLE();
 80007d2:	2300      	movs	r3, #0
 80007d4:	607b      	str	r3, [r7, #4]
 80007d6:	4b39      	ldr	r3, [pc, #228]	; (80008bc <MX_GPIO_Init+0x154>)
 80007d8:	6b1b      	ldr	r3, [r3, #48]	; 0x30
 80007da:	4a38      	ldr	r2, [pc, #224]	; (80008bc <MX_GPIO_Init+0x154>)
 80007dc:	f043 0308 	orr.w	r3, r3, #8
 80007e0:	6313      	str	r3, [r2, #48]	; 0x30
 80007e2:	4b36      	ldr	r3, [pc, #216]	; (80008bc <MX_GPIO_Init+0x154>)
 80007e4:	6b1b      	ldr	r3, [r3, #48]	; 0x30
 80007e6:	f003 0308 	and.w	r3, r3, #8
 80007ea:	607b      	str	r3, [r7, #4]
 80007ec:	687b      	ldr	r3, [r7, #4]
  __HAL_RCC_GPIOC_CLK_ENABLE();
 80007ee:	2300      	movs	r3, #0
 80007f0:	603b      	str	r3, [r7, #0]
 80007f2:	4b32      	ldr	r3, [pc, #200]	; (80008bc <MX_GPIO_Init+0x154>)
 80007f4:	6b1b      	ldr	r3, [r3, #48]	; 0x30
 80007f6:	4a31      	ldr	r2, [pc, #196]	; (80008bc <MX_GPIO_Init+0x154>)
 80007f8:	f043 0304 	orr.w	r3, r3, #4
 80007fc:	6313      	str	r3, [r2, #48]	; 0x30
 80007fe:	4b2f      	ldr	r3, [pc, #188]	; (80008bc <MX_GPIO_Init+0x154>)
 8000800:	6b1b      	ldr	r3, [r3, #48]	; 0x30
 8000802:	f003 0304 	and.w	r3, r3, #4
 8000806:	603b      	str	r3, [r7, #0]
 8000808:	683b      	ldr	r3, [r7, #0]

  /*Configure GPIO pin Output Level */
  HAL_GPIO_WritePin(GPIOD, LD4_Pin|LD3_Pin|LD5_Pin|LD6_Pin, GPIO_PIN_RESET);
 800080a:	2200      	movs	r2, #0
 800080c:	f44f 4170 	mov.w	r1, #61440	; 0xf000
 8000810:	482b      	ldr	r0, [pc, #172]	; (80008c0 <MX_GPIO_Init+0x158>)
 8000812:	f000 fd11 	bl	8001238 <HAL_GPIO_WritePin>

  /*Configure GPIO pin : B1_Pin */
  GPIO_InitStruct.Pin = B1_Pin;
 8000816:	2301      	movs	r3, #1
 8000818:	617b      	str	r3, [r7, #20]
  GPIO_InitStruct.Mode = GPIO_MODE_EVT_RISING;
 800081a:	4b2a      	ldr	r3, [pc, #168]	; (80008c4 <MX_GPIO_Init+0x15c>)
 800081c:	61bb      	str	r3, [r7, #24]
  GPIO_InitStruct.Pull = GPIO_NOPULL;
 800081e:	2300      	movs	r3, #0
 8000820:	61fb      	str	r3, [r7, #28]
  HAL_GPIO_Init(B1_GPIO_Port, &GPIO_InitStruct);
 8000822:	f107 0314 	add.w	r3, r7, #20
 8000826:	4619      	mov	r1, r3
 8000828:	4827      	ldr	r0, [pc, #156]	; (80008c8 <MX_GPIO_Init+0x160>)
 800082a:	f000 fb6b 	bl	8000f04 <HAL_GPIO_Init>

  /*Configure GPIO pin : BOOT1_Pin */
  GPIO_InitStruct.Pin = BOOT1_Pin;
 800082e:	2304      	movs	r3, #4
 8000830:	617b      	str	r3, [r7, #20]
  GPIO_InitStruct.Mode = GPIO_MODE_INPUT;
 8000832:	2300      	movs	r3, #0
 8000834:	61bb      	str	r3, [r7, #24]
  GPIO_InitStruct.Pull = GPIO_NOPULL;
 8000836:	2300      	movs	r3, #0
 8000838:	61fb      	str	r3, [r7, #28]
  HAL_GPIO_Init(BOOT1_GPIO_Port, &GPIO_InitStruct);
 800083a:	f107 0314 	add.w	r3, r7, #20
 800083e:	4619      	mov	r1, r3
 8000840:	4822      	ldr	r0, [pc, #136]	; (80008cc <MX_GPIO_Init+0x164>)
 8000842:	f000 fb5f 	bl	8000f04 <HAL_GPIO_Init>

  /*Configure GPIO pins : LD4_Pin LD3_Pin LD5_Pin LD6_Pin */
  GPIO_InitStruct.Pin = LD4_Pin|LD3_Pin|LD5_Pin|LD6_Pin;
 8000846:	f44f 4370 	mov.w	r3, #61440	; 0xf000
 800084a:	617b      	str	r3, [r7, #20]
  GPIO_InitStruct.Mode = GPIO_MODE_OUTPUT_PP;
 800084c:	2301      	movs	r3, #1
 800084e:	61bb      	str	r3, [r7, #24]
  GPIO_InitStruct.Pull = GPIO_NOPULL;
 8000850:	2300      	movs	r3, #0
 8000852:	61fb      	str	r3, [r7, #28]
  GPIO_InitStruct.Speed = GPIO_SPEED_FREQ_LOW;
 8000854:	2300      	movs	r3, #0
 8000856:	623b      	str	r3, [r7, #32]
  HAL_GPIO_Init(GPIOD, &GPIO_InitStruct);
 8000858:	f107 0314 	add.w	r3, r7, #20
 800085c:	4619      	mov	r1, r3
 800085e:	4818      	ldr	r0, [pc, #96]	; (80008c0 <MX_GPIO_Init+0x158>)
 8000860:	f000 fb50 	bl	8000f04 <HAL_GPIO_Init>

  /*Configure GPIO pin : PC9 */
  GPIO_InitStruct.Pin = GPIO_PIN_9;
 8000864:	f44f 7300 	mov.w	r3, #512	; 0x200
 8000868:	617b      	str	r3, [r7, #20]
  GPIO_InitStruct.Mode = GPIO_MODE_AF_PP;
 800086a:	2302      	movs	r3, #2
 800086c:	61bb      	str	r3, [r7, #24]
  GPIO_InitStruct.Pull = GPIO_NOPULL;
 800086e:	2300      	movs	r3, #0
 8000870:	61fb      	str	r3, [r7, #28]
  GPIO_InitStruct.Speed = GPIO_SPEED_FREQ_LOW;
 8000872:	2300      	movs	r3, #0
 8000874:	623b      	str	r3, [r7, #32]
  GPIO_InitStruct.Alternate = GPIO_AF0_MCO;
 8000876:	2300      	movs	r3, #0
 8000878:	627b      	str	r3, [r7, #36]	; 0x24
  HAL_GPIO_Init(GPIOC, &GPIO_InitStruct);
 800087a:	f107 0314 	add.w	r3, r7, #20
 800087e:	4619      	mov	r1, r3
 8000880:	4813      	ldr	r0, [pc, #76]	; (80008d0 <MX_GPIO_Init+0x168>)
 8000882:	f000 fb3f 	bl	8000f04 <HAL_GPIO_Init>

  /*Configure GPIO pin : PA8 */
  GPIO_InitStruct.Pin = GPIO_PIN_8;
 8000886:	f44f 7380 	mov.w	r3, #256	; 0x100
 800088a:	617b      	str	r3, [r7, #20]
  GPIO_InitStruct.Mode = GPIO_MODE_AF_PP;
 800088c:	2302      	movs	r3, #2
 800088e:	61bb      	str	r3, [r7, #24]
  GPIO_InitStruct.Pull = GPIO_NOPULL;
 8000890:	2300      	movs	r3, #0
 8000892:	61fb      	str	r3, [r7, #28]
  GPIO_InitStruct.Speed = GPIO_SPEED_FREQ_LOW;
 8000894:	2300      	movs	r3, #0
 8000896:	623b      	str	r3, [r7, #32]
  GPIO_InitStruct.Alternate = GPIO_AF0_MCO;
 8000898:	2300      	movs	r3, #0
 800089a:	627b      	str	r3, [r7, #36]	; 0x24
  HAL_GPIO_Init(GPIOA, &GPIO_InitStruct);
 800089c:	f107 0314 	add.w	r3, r7, #20
 80008a0:	4619      	mov	r1, r3
 80008a2:	4809      	ldr	r0, [pc, #36]	; (80008c8 <MX_GPIO_Init+0x160>)
 80008a4:	f000 fb2e 	bl	8000f04 <HAL_GPIO_Init>

  HAL_RCC_MCOConfig(RCC_MCO1, RCC_MCO1SOURCE_PLLCLK, RCC_MCODIV_1);
 80008a8:	2200      	movs	r2, #0
 80008aa:	f44f 01c0 	mov.w	r1, #6291456	; 0x600000
 80008ae:	2000      	movs	r0, #0
 80008b0:	f001 f84c 	bl	800194c <HAL_RCC_MCOConfig>
}
 80008b4:	bf00      	nop
 80008b6:	3728      	adds	r7, #40	; 0x28
 80008b8:	46bd      	mov	sp, r7
 80008ba:	bd80      	pop	{r7, pc}
 80008bc:	40023800 	.word	0x40023800
 80008c0:	40020c00 	.word	0x40020c00
 80008c4:	10120000 	.word	0x10120000
 80008c8:	40020000 	.word	0x40020000
 80008cc:	40020400 	.word	0x40020400
 80008d0:	40020800 	.word	0x40020800

080008d4 <HAL_TIM_PeriodElapsedCallback>:

/* USER CODE BEGIN 4 */

/* USER CODE END 4 */
void HAL_TIM_PeriodElapsedCallback(TIM_HandleTypeDef *htim)
{
 80008d4:	b580      	push	{r7, lr}
 80008d6:	b082      	sub	sp, #8
 80008d8:	af00      	add	r7, sp, #0
 80008da:	6078      	str	r0, [r7, #4]
	HAL_GPIO_TogglePin(GPIOD, LD4_Pin);
 80008dc:	f44f 5180 	mov.w	r1, #4096	; 0x1000
 80008e0:	4803      	ldr	r0, [pc, #12]	; (80008f0 <HAL_TIM_PeriodElapsedCallback+0x1c>)
 80008e2:	f000 fcc2 	bl	800126a <HAL_GPIO_TogglePin>
}
 80008e6:	bf00      	nop
 80008e8:	3708      	adds	r7, #8
 80008ea:	46bd      	mov	sp, r7
 80008ec:	bd80      	pop	{r7, pc}
 80008ee:	bf00      	nop
 80008f0:	40020c00 	.word	0x40020c00

080008f4 <Error_Handler>:
/**
  * @brief  This function is executed in case of error occurrence.
  * @retval None
  */
void Error_Handler(void)
{
 80008f4:	b480      	push	{r7}
 80008f6:	af00      	add	r7, sp, #0
  /* USER CODE BEGIN Error_Handler_Debug */
  /* User can add his own implementation to report the HAL error return state */
while(1);
 80008f8:	e7fe      	b.n	80008f8 <Error_Handler+0x4>
	...

080008fc <HAL_MspInit>:
/* USER CODE END 0 */
/**
  * Initializes the Global MSP.
  */
void HAL_MspInit(void)
{
 80008fc:	b580      	push	{r7, lr}
 80008fe:	b082      	sub	sp, #8
 8000900:	af00      	add	r7, sp, #0
  /* USER CODE BEGIN MspInit 0 */

  /* USER CODE END MspInit 0 */

  __HAL_RCC_SYSCFG_CLK_ENABLE();
 8000902:	2300      	movs	r3, #0
 8000904:	607b      	str	r3, [r7, #4]
 8000906:	4b14      	ldr	r3, [pc, #80]	; (8000958 <HAL_MspInit+0x5c>)
 8000908:	6c5b      	ldr	r3, [r3, #68]	; 0x44
 800090a:	4a13      	ldr	r2, [pc, #76]	; (8000958 <HAL_MspInit+0x5c>)
 800090c:	f443 4380 	orr.w	r3, r3, #16384	; 0x4000
 8000910:	6453      	str	r3, [r2, #68]	; 0x44
 8000912:	4b11      	ldr	r3, [pc, #68]	; (8000958 <HAL_MspInit+0x5c>)
 8000914:	6c5b      	ldr	r3, [r3, #68]	; 0x44
 8000916:	f403 4380 	and.w	r3, r3, #16384	; 0x4000
 800091a:	607b      	str	r3, [r7, #4]
 800091c:	687b      	ldr	r3, [r7, #4]
  __HAL_RCC_PWR_CLK_ENABLE();
 800091e:	2300      	movs	r3, #0
 8000920:	603b      	str	r3, [r7, #0]
 8000922:	4b0d      	ldr	r3, [pc, #52]	; (8000958 <HAL_MspInit+0x5c>)
 8000924:	6c1b      	ldr	r3, [r3, #64]	; 0x40
 8000926:	4a0c      	ldr	r2, [pc, #48]	; (8000958 <HAL_MspInit+0x5c>)
 8000928:	f043 5380 	orr.w	r3, r3, #268435456	; 0x10000000
 800092c:	6413      	str	r3, [r2, #64]	; 0x40
 800092e:	4b0a      	ldr	r3, [pc, #40]	; (8000958 <HAL_MspInit+0x5c>)
 8000930:	6c1b      	ldr	r3, [r3, #64]	; 0x40
 8000932:	f003 5380 	and.w	r3, r3, #268435456	; 0x10000000
 8000936:	603b      	str	r3, [r7, #0]
 8000938:	683b      	ldr	r3, [r7, #0]

  HAL_NVIC_SetPriorityGrouping(NVIC_PRIORITYGROUP_0);
 800093a:	2007      	movs	r0, #7
 800093c:	f000 fa7e 	bl	8000e3c <HAL_NVIC_SetPriorityGrouping>

  /* System interrupt init*/

  /* Peripheral interrupt init */
  /* RCC_IRQn interrupt configuration */
  HAL_NVIC_SetPriority(RCC_IRQn, 0, 0);
 8000940:	2200      	movs	r2, #0
 8000942:	2100      	movs	r1, #0
 8000944:	2005      	movs	r0, #5
 8000946:	f000 fa84 	bl	8000e52 <HAL_NVIC_SetPriority>
  HAL_NVIC_EnableIRQ(RCC_IRQn);
 800094a:	2005      	movs	r0, #5
 800094c:	f000 fa9d 	bl	8000e8a <HAL_NVIC_EnableIRQ>

  /* USER CODE BEGIN MspInit 1 */

  /* USER CODE END MspInit 1 */
}
 8000950:	bf00      	nop
 8000952:	3708      	adds	r7, #8
 8000954:	46bd      	mov	sp, r7
 8000956:	bd80      	pop	{r7, pc}
 8000958:	40023800 	.word	0x40023800

0800095c <HAL_TIM_Base_MspInit>:
* This function configures the hardware resources used in this example
* @param htim_base: TIM_Base handle pointer
* @retval None
*/
void HAL_TIM_Base_MspInit(TIM_HandleTypeDef* htim_base)
{
 800095c:	b580      	push	{r7, lr}
 800095e:	b084      	sub	sp, #16
 8000960:	af00      	add	r7, sp, #0
 8000962:	6078      	str	r0, [r7, #4]
  if(htim_base->Instance==TIM6)
 8000964:	687b      	ldr	r3, [r7, #4]
 8000966:	681b      	ldr	r3, [r3, #0]
 8000968:	4a0e      	ldr	r2, [pc, #56]	; (80009a4 <HAL_TIM_Base_MspInit+0x48>)
 800096a:	4293      	cmp	r3, r2
 800096c:	d115      	bne.n	800099a <HAL_TIM_Base_MspInit+0x3e>
  {
  /* USER CODE BEGIN TIM6_MspInit 0 */

  /* USER CODE END TIM6_MspInit 0 */
    /* Peripheral clock enable */
    __HAL_RCC_TIM6_CLK_ENABLE();
 800096e:	2300      	movs	r3, #0
 8000970:	60fb      	str	r3, [r7, #12]
 8000972:	4b0d      	ldr	r3, [pc, #52]	; (80009a8 <HAL_TIM_Base_MspInit+0x4c>)
 8000974:	6c1b      	ldr	r3, [r3, #64]	; 0x40
 8000976:	4a0c      	ldr	r2, [pc, #48]	; (80009a8 <HAL_TIM_Base_MspInit+0x4c>)
 8000978:	f043 0310 	orr.w	r3, r3, #16
 800097c:	6413      	str	r3, [r2, #64]	; 0x40
 800097e:	4b0a      	ldr	r3, [pc, #40]	; (80009a8 <HAL_TIM_Base_MspInit+0x4c>)
 8000980:	6c1b      	ldr	r3, [r3, #64]	; 0x40
 8000982:	f003 0310 	and.w	r3, r3, #16
 8000986:	60fb      	str	r3, [r7, #12]
 8000988:	68fb      	ldr	r3, [r7, #12]
    /* TIM6 interrupt Init */
    HAL_NVIC_SetPriority(TIM6_DAC_IRQn, 0, 0);
 800098a:	2200      	movs	r2, #0
 800098c:	2100      	movs	r1, #0
 800098e:	2036      	movs	r0, #54	; 0x36
 8000990:	f000 fa5f 	bl	8000e52 <HAL_NVIC_SetPriority>
    HAL_NVIC_EnableIRQ(TIM6_DAC_IRQn);
 8000994:	2036      	movs	r0, #54	; 0x36
 8000996:	f000 fa78 	bl	8000e8a <HAL_NVIC_EnableIRQ>
  /* USER CODE BEGIN TIM6_MspInit 1 */

  /* USER CODE END TIM6_MspInit 1 */
  }

}
 800099a:	bf00      	nop
 800099c:	3710      	adds	r7, #16
 800099e:	46bd      	mov	sp, r7
 80009a0:	bd80      	pop	{r7, pc}
 80009a2:	bf00      	nop
 80009a4:	40001000 	.word	0x40001000
 80009a8:	40023800 	.word	0x40023800

080009ac <HAL_UART_MspInit>:
* This function configures the hardware resources used in this example
* @param huart: UART handle pointer
* @retval None
*/
void HAL_UART_MspInit(UART_HandleTypeDef* huart)
{
 80009ac:	b580      	push	{r7, lr}
 80009ae:	b08a      	sub	sp, #40	; 0x28
 80009b0:	af00      	add	r7, sp, #0
 80009b2:	6078      	str	r0, [r7, #4]
  GPIO_InitTypeDef GPIO_InitStruct = {0};
 80009b4:	f107 0314 	add.w	r3, r7, #20
 80009b8:	2200      	movs	r2, #0
 80009ba:	601a      	str	r2, [r3, #0]
 80009bc:	605a      	str	r2, [r3, #4]
 80009be:	609a      	str	r2, [r3, #8]
 80009c0:	60da      	str	r2, [r3, #12]
 80009c2:	611a      	str	r2, [r3, #16]
  if(huart->Instance==USART2)
 80009c4:	687b      	ldr	r3, [r7, #4]
 80009c6:	681b      	ldr	r3, [r3, #0]
 80009c8:	4a1d      	ldr	r2, [pc, #116]	; (8000a40 <HAL_UART_MspInit+0x94>)
 80009ca:	4293      	cmp	r3, r2
 80009cc:	d133      	bne.n	8000a36 <HAL_UART_MspInit+0x8a>
  {
  /* USER CODE BEGIN USART2_MspInit 0 */

  /* USER CODE END USART2_MspInit 0 */
    /* Peripheral clock enable */
    __HAL_RCC_USART2_CLK_ENABLE();
 80009ce:	2300      	movs	r3, #0
 80009d0:	613b      	str	r3, [r7, #16]
 80009d2:	4b1c      	ldr	r3, [pc, #112]	; (8000a44 <HAL_UART_MspInit+0x98>)
 80009d4:	6c1b      	ldr	r3, [r3, #64]	; 0x40
 80009d6:	4a1b      	ldr	r2, [pc, #108]	; (8000a44 <HAL_UART_MspInit+0x98>)
 80009d8:	f443 3300 	orr.w	r3, r3, #131072	; 0x20000
 80009dc:	6413      	str	r3, [r2, #64]	; 0x40
 80009de:	4b19      	ldr	r3, [pc, #100]	; (8000a44 <HAL_UART_MspInit+0x98>)
 80009e0:	6c1b      	ldr	r3, [r3, #64]	; 0x40
 80009e2:	f403 3300 	and.w	r3, r3, #131072	; 0x20000
 80009e6:	613b      	str	r3, [r7, #16]
 80009e8:	693b      	ldr	r3, [r7, #16]
  
    __HAL_RCC_GPIOA_CLK_ENABLE();
 80009ea:	2300      	movs	r3, #0
 80009ec:	60fb      	str	r3, [r7, #12]
 80009ee:	4b15      	ldr	r3, [pc, #84]	; (8000a44 <HAL_UART_MspInit+0x98>)
 80009f0:	6b1b      	ldr	r3, [r3, #48]	; 0x30
 80009f2:	4a14      	ldr	r2, [pc, #80]	; (8000a44 <HAL_UART_MspInit+0x98>)
 80009f4:	f043 0301 	orr.w	r3, r3, #1
 80009f8:	6313      	str	r3, [r2, #48]	; 0x30
 80009fa:	4b12      	ldr	r3, [pc, #72]	; (8000a44 <HAL_UART_MspInit+0x98>)
 80009fc:	6b1b      	ldr	r3, [r3, #48]	; 0x30
 80009fe:	f003 0301 	and.w	r3, r3, #1
 8000a02:	60fb      	str	r3, [r7, #12]
 8000a04:	68fb      	ldr	r3, [r7, #12]
    /**USART2 GPIO Configuration    
    PA2     ------> USART2_TX
    PA3     ------> USART2_RX 
    */
    GPIO_InitStruct.Pin = GPIO_PIN_2|GPIO_PIN_3;
 8000a06:	230c      	movs	r3, #12
 8000a08:	617b      	str	r3, [r7, #20]
    GPIO_InitStruct.Mode = GPIO_MODE_AF_PP;
 8000a0a:	2302      	movs	r3, #2
 8000a0c:	61bb      	str	r3, [r7, #24]
    GPIO_InitStruct.Pull = GPIO_NOPULL;
 8000a0e:	2300      	movs	r3, #0
 8000a10:	61fb      	str	r3, [r7, #28]
    GPIO_InitStruct.Speed = GPIO_SPEED_FREQ_VERY_HIGH;
 8000a12:	2303      	movs	r3, #3
 8000a14:	623b      	str	r3, [r7, #32]
    GPIO_InitStruct.Alternate = GPIO_AF7_USART2;
 8000a16:	2307      	movs	r3, #7
 8000a18:	627b      	str	r3, [r7, #36]	; 0x24
    HAL_GPIO_Init(GPIOA, &GPIO_InitStruct);
 8000a1a:	f107 0314 	add.w	r3, r7, #20
 8000a1e:	4619      	mov	r1, r3
 8000a20:	4809      	ldr	r0, [pc, #36]	; (8000a48 <HAL_UART_MspInit+0x9c>)
 8000a22:	f000 fa6f 	bl	8000f04 <HAL_GPIO_Init>

    /* USART2 interrupt Init */
    HAL_NVIC_SetPriority(USART2_IRQn, 0, 0);
 8000a26:	2200      	movs	r2, #0
 8000a28:	2100      	movs	r1, #0
 8000a2a:	2026      	movs	r0, #38	; 0x26
 8000a2c:	f000 fa11 	bl	8000e52 <HAL_NVIC_SetPriority>
    HAL_NVIC_EnableIRQ(USART2_IRQn);
 8000a30:	2026      	movs	r0, #38	; 0x26
 8000a32:	f000 fa2a 	bl	8000e8a <HAL_NVIC_EnableIRQ>
  /* USER CODE BEGIN USART2_MspInit 1 */

  /* USER CODE END USART2_MspInit 1 */
  }

}
 8000a36:	bf00      	nop
 8000a38:	3728      	adds	r7, #40	; 0x28
 8000a3a:	46bd      	mov	sp, r7
 8000a3c:	bd80      	pop	{r7, pc}
 8000a3e:	bf00      	nop
 8000a40:	40004400 	.word	0x40004400
 8000a44:	40023800 	.word	0x40023800
 8000a48:	40020000 	.word	0x40020000

08000a4c <NMI_Handler>:
/******************************************************************************/
/**
  * @brief This function handles Non maskable interrupt.
  */
void NMI_Handler(void)
{
 8000a4c:	b480      	push	{r7}
 8000a4e:	af00      	add	r7, sp, #0

  /* USER CODE END NonMaskableInt_IRQn 0 */
  /* USER CODE BEGIN NonMaskableInt_IRQn 1 */

  /* USER CODE END NonMaskableInt_IRQn 1 */
}
 8000a50:	bf00      	nop
 8000a52:	46bd      	mov	sp, r7
 8000a54:	f85d 7b04 	ldr.w	r7, [sp], #4
 8000a58:	4770      	bx	lr

08000a5a <HardFault_Handler>:

/**
  * @brief This function handles Hard fault interrupt.
  */
void HardFault_Handler(void)
{
 8000a5a:	b480      	push	{r7}
 8000a5c:	af00      	add	r7, sp, #0
  /* USER CODE BEGIN HardFault_IRQn 0 */

  /* USER CODE END HardFault_IRQn 0 */
  while (1)
 8000a5e:	e7fe      	b.n	8000a5e <HardFault_Handler+0x4>

08000a60 <MemManage_Handler>:

/**
  * @brief This function handles Memory management fault.
  */
void MemManage_Handler(void)
{
 8000a60:	b480      	push	{r7}
 8000a62:	af00      	add	r7, sp, #0
  /* USER CODE BEGIN MemoryManagement_IRQn 0 */

  /* USER CODE END MemoryManagement_IRQn 0 */
  while (1)
 8000a64:	e7fe      	b.n	8000a64 <MemManage_Handler+0x4>

08000a66 <BusFault_Handler>:

/**
  * @brief This function handles Pre-fetch fault, memory access fault.
  */
void BusFault_Handler(void)
{
 8000a66:	b480      	push	{r7}
 8000a68:	af00      	add	r7, sp, #0
  /* USER CODE BEGIN BusFault_IRQn 0 */

  /* USER CODE END BusFault_IRQn 0 */
  while (1)
 8000a6a:	e7fe      	b.n	8000a6a <BusFault_Handler+0x4>

08000a6c <UsageFault_Handler>:

/**
  * @brief This function handles Undefined instruction or illegal state.
  */
void UsageFault_Handler(void)
{
 8000a6c:	b480      	push	{r7}
 8000a6e:	af00      	add	r7, sp, #0
  /* USER CODE BEGIN UsageFault_IRQn 0 */

  /* USER CODE END UsageFault_IRQn 0 */
  while (1)
 8000a70:	e7fe      	b.n	8000a70 <UsageFault_Handler+0x4>

08000a72 <SVC_Handler>:

/**
  * @brief This function handles System service call via SWI instruction.
  */
void SVC_Handler(void)
{
 8000a72:	b480      	push	{r7}
 8000a74:	af00      	add	r7, sp, #0

  /* USER CODE END SVCall_IRQn 0 */
  /* USER CODE BEGIN SVCall_IRQn 1 */

  /* USER CODE END SVCall_IRQn 1 */
}
 8000a76:	bf00      	nop
 8000a78:	46bd      	mov	sp, r7
 8000a7a:	f85d 7b04 	ldr.w	r7, [sp], #4
 8000a7e:	4770      	bx	lr

08000a80 <DebugMon_Handler>:

/**
  * @brief This function handles Debug monitor.
  */
void DebugMon_Handler(void)
{
 8000a80:	b480      	push	{r7}
 8000a82:	af00      	add	r7, sp, #0

  /* USER CODE END DebugMonitor_IRQn 0 */
  /* USER CODE BEGIN DebugMonitor_IRQn 1 */

  /* USER CODE END DebugMonitor_IRQn 1 */
}
 8000a84:	bf00      	nop
 8000a86:	46bd      	mov	sp, r7
 8000a88:	f85d 7b04 	ldr.w	r7, [sp], #4
 8000a8c:	4770      	bx	lr

08000a8e <PendSV_Handler>:

/**
  * @brief This function handles Pendable request for system service.
  */
void PendSV_Handler(void)
{
 8000a8e:	b480      	push	{r7}
 8000a90:	af00      	add	r7, sp, #0

  /* USER CODE END PendSV_IRQn 0 */
  /* USER CODE BEGIN PendSV_IRQn 1 */

  /* USER CODE END PendSV_IRQn 1 */
}
 8000a92:	bf00      	nop
 8000a94:	46bd      	mov	sp, r7
 8000a96:	f85d 7b04 	ldr.w	r7, [sp], #4
 8000a9a:	4770      	bx	lr

08000a9c <SysTick_Handler>:

/**
  * @brief This function handles System tick timer.
  */
void SysTick_Handler(void)
{
 8000a9c:	b580      	push	{r7, lr}
 8000a9e:	af00      	add	r7, sp, #0
  /* USER CODE BEGIN SysTick_IRQn 0 */

  /* USER CODE END SysTick_IRQn 0 */
  HAL_IncTick();
 8000aa0:	f000 f8dc 	bl	8000c5c <HAL_IncTick>
  /* USER CODE BEGIN SysTick_IRQn 1 */

  /* USER CODE END SysTick_IRQn 1 */
}
 8000aa4:	bf00      	nop
 8000aa6:	bd80      	pop	{r7, pc}

08000aa8 <RCC_IRQHandler>:

/**
  * @brief This function handles RCC global interrupt.
  */
void RCC_IRQHandler(void)
{
 8000aa8:	b480      	push	{r7}
 8000aaa:	af00      	add	r7, sp, #0

  /* USER CODE END RCC_IRQn 0 */
  /* USER CODE BEGIN RCC_IRQn 1 */

  /* USER CODE END RCC_IRQn 1 */
}
 8000aac:	bf00      	nop
 8000aae:	46bd      	mov	sp, r7
 8000ab0:	f85d 7b04 	ldr.w	r7, [sp], #4
 8000ab4:	4770      	bx	lr
	...

08000ab8 <USART2_IRQHandler>:

/**
  * @brief This function handles USART2 global interrupt.
  */
void USART2_IRQHandler(void)
{
 8000ab8:	b580      	push	{r7, lr}
 8000aba:	af00      	add	r7, sp, #0
  /* USER CODE BEGIN USART2_IRQn 0 */

  /* USER CODE END USART2_IRQn 0 */
  HAL_UART_IRQHandler(&huart2);
 8000abc:	4802      	ldr	r0, [pc, #8]	; (8000ac8 <USART2_IRQHandler+0x10>)
 8000abe:	f001 fc4f 	bl	8002360 <HAL_UART_IRQHandler>
  /* USER CODE BEGIN USART2_IRQn 1 */

  /* USER CODE END USART2_IRQn 1 */
}
 8000ac2:	bf00      	nop
 8000ac4:	bd80      	pop	{r7, pc}
 8000ac6:	bf00      	nop
 8000ac8:	200000d8 	.word	0x200000d8

08000acc <TIM6_DAC_IRQHandler>:

/**
  * @brief This function handles TIM6 global interrupt, DAC1 and DAC2 underrun error interrupts.
  */
void TIM6_DAC_IRQHandler(void)
{
 8000acc:	b580      	push	{r7, lr}
 8000ace:	af00      	add	r7, sp, #0
  /* USER CODE BEGIN TIM6_DAC_IRQn 0 */

  /* USER CODE END TIM6_DAC_IRQn 0 */
  HAL_TIM_IRQHandler(&htim6);
 8000ad0:	4802      	ldr	r0, [pc, #8]	; (8000adc <TIM6_DAC_IRQHandler+0x10>)
 8000ad2:	f001 f8fe 	bl	8001cd2 <HAL_TIM_IRQHandler>
  /* USER CODE BEGIN TIM6_DAC_IRQn 1 */

  /* USER CODE END TIM6_DAC_IRQn 1 */
}
 8000ad6:	bf00      	nop
 8000ad8:	bd80      	pop	{r7, pc}
 8000ada:	bf00      	nop
 8000adc:	20000098 	.word	0x20000098

08000ae0 <_sbrk>:
/**
 _sbrk
 Increase program data space. Malloc and related functions depend on this
**/
caddr_t _sbrk(int incr)
{
 8000ae0:	b580      	push	{r7, lr}
 8000ae2:	b084      	sub	sp, #16
 8000ae4:	af00      	add	r7, sp, #0
 8000ae6:	6078      	str	r0, [r7, #4]
	extern char end asm("end");
	static char *heap_end;
	char *prev_heap_end;

	if (heap_end == 0)
 8000ae8:	4b11      	ldr	r3, [pc, #68]	; (8000b30 <_sbrk+0x50>)
 8000aea:	681b      	ldr	r3, [r3, #0]
 8000aec:	2b00      	cmp	r3, #0
 8000aee:	d102      	bne.n	8000af6 <_sbrk+0x16>
		heap_end = &end;
 8000af0:	4b0f      	ldr	r3, [pc, #60]	; (8000b30 <_sbrk+0x50>)
 8000af2:	4a10      	ldr	r2, [pc, #64]	; (8000b34 <_sbrk+0x54>)
 8000af4:	601a      	str	r2, [r3, #0]

	prev_heap_end = heap_end;
 8000af6:	4b0e      	ldr	r3, [pc, #56]	; (8000b30 <_sbrk+0x50>)
 8000af8:	681b      	ldr	r3, [r3, #0]
 8000afa:	60fb      	str	r3, [r7, #12]
	if (heap_end + incr > stack_ptr)
 8000afc:	4b0c      	ldr	r3, [pc, #48]	; (8000b30 <_sbrk+0x50>)
 8000afe:	681a      	ldr	r2, [r3, #0]
 8000b00:	687b      	ldr	r3, [r7, #4]
 8000b02:	4413      	add	r3, r2
 8000b04:	466a      	mov	r2, sp
 8000b06:	4293      	cmp	r3, r2
 8000b08:	d907      	bls.n	8000b1a <_sbrk+0x3a>
	{
		errno = ENOMEM;
 8000b0a:	f002 fa2f 	bl	8002f6c <__errno>
 8000b0e:	4602      	mov	r2, r0
 8000b10:	230c      	movs	r3, #12
 8000b12:	6013      	str	r3, [r2, #0]
		return (caddr_t) -1;
 8000b14:	f04f 33ff 	mov.w	r3, #4294967295
 8000b18:	e006      	b.n	8000b28 <_sbrk+0x48>
	}

	heap_end += incr;
 8000b1a:	4b05      	ldr	r3, [pc, #20]	; (8000b30 <_sbrk+0x50>)
 8000b1c:	681a      	ldr	r2, [r3, #0]
 8000b1e:	687b      	ldr	r3, [r7, #4]
 8000b20:	4413      	add	r3, r2
 8000b22:	4a03      	ldr	r2, [pc, #12]	; (8000b30 <_sbrk+0x50>)
 8000b24:	6013      	str	r3, [r2, #0]

	return (caddr_t) prev_heap_end;
 8000b26:	68fb      	ldr	r3, [r7, #12]
}
 8000b28:	4618      	mov	r0, r3
 8000b2a:	3710      	adds	r7, #16
 8000b2c:	46bd      	mov	sp, r7
 8000b2e:	bd80      	pop	{r7, pc}
 8000b30:	2000008c 	.word	0x2000008c
 8000b34:	20000120 	.word	0x20000120

08000b38 <SystemInit>:
  *         configuration.
  * @param  None
  * @retval None
  */
void SystemInit(void)
{
 8000b38:	b480      	push	{r7}
 8000b3a:	af00      	add	r7, sp, #0
  /* FPU settings ------------------------------------------------------------*/
  #if (__FPU_PRESENT == 1) && (__FPU_USED == 1)
    SCB->CPACR |= ((3UL << 10*2)|(3UL << 11*2));  /* set CP10 and CP11 Full Access */
 8000b3c:	4b08      	ldr	r3, [pc, #32]	; (8000b60 <SystemInit+0x28>)
 8000b3e:	f8d3 3088 	ldr.w	r3, [r3, #136]	; 0x88
 8000b42:	4a07      	ldr	r2, [pc, #28]	; (8000b60 <SystemInit+0x28>)
 8000b44:	f443 0370 	orr.w	r3, r3, #15728640	; 0xf00000
 8000b48:	f8c2 3088 	str.w	r3, [r2, #136]	; 0x88

  /* Configure the Vector Table location add offset address ------------------*/
#ifdef VECT_TAB_SRAM
  SCB->VTOR = SRAM_BASE | VECT_TAB_OFFSET; /* Vector Table Relocation in Internal SRAM */
#else
  SCB->VTOR = FLASH_BASE | VECT_TAB_OFFSET; /* Vector Table Relocation in Internal FLASH */
 8000b4c:	4b04      	ldr	r3, [pc, #16]	; (8000b60 <SystemInit+0x28>)
 8000b4e:	f04f 6200 	mov.w	r2, #134217728	; 0x8000000
 8000b52:	609a      	str	r2, [r3, #8]
#endif
}
 8000b54:	bf00      	nop
 8000b56:	46bd      	mov	sp, r7
 8000b58:	f85d 7b04 	ldr.w	r7, [sp], #4
 8000b5c:	4770      	bx	lr
 8000b5e:	bf00      	nop
 8000b60:	e000ed00 	.word	0xe000ed00

08000b64 <Reset_Handler>:

    .section  .text.Reset_Handler
  .weak  Reset_Handler
  .type  Reset_Handler, %function
Reset_Handler:  
  ldr   sp, =_estack     /* set stack pointer */
 8000b64:	f8df d034 	ldr.w	sp, [pc, #52]	; 8000b9c <LoopFillZerobss+0x14>

/* Copy the data segment initializers from flash to SRAM */  
  movs  r1, #0
 8000b68:	2100      	movs	r1, #0
  b  LoopCopyDataInit
 8000b6a:	e003      	b.n	8000b74 <LoopCopyDataInit>

08000b6c <CopyDataInit>:

CopyDataInit:
  ldr  r3, =_sidata
 8000b6c:	4b0c      	ldr	r3, [pc, #48]	; (8000ba0 <LoopFillZerobss+0x18>)
  ldr  r3, [r3, r1]
 8000b6e:	585b      	ldr	r3, [r3, r1]
  str  r3, [r0, r1]
 8000b70:	5043      	str	r3, [r0, r1]
  adds  r1, r1, #4
 8000b72:	3104      	adds	r1, #4

08000b74 <LoopCopyDataInit>:
    
LoopCopyDataInit:
  ldr  r0, =_sdata
 8000b74:	480b      	ldr	r0, [pc, #44]	; (8000ba4 <LoopFillZerobss+0x1c>)
  ldr  r3, =_edata
 8000b76:	4b0c      	ldr	r3, [pc, #48]	; (8000ba8 <LoopFillZerobss+0x20>)
  adds  r2, r0, r1
 8000b78:	1842      	adds	r2, r0, r1
  cmp  r2, r3
 8000b7a:	429a      	cmp	r2, r3
  bcc  CopyDataInit
 8000b7c:	d3f6      	bcc.n	8000b6c <CopyDataInit>
  ldr  r2, =_sbss
 8000b7e:	4a0b      	ldr	r2, [pc, #44]	; (8000bac <LoopFillZerobss+0x24>)
  b  LoopFillZerobss
 8000b80:	e002      	b.n	8000b88 <LoopFillZerobss>

08000b82 <FillZerobss>:
/* Zero fill the bss segment. */  
FillZerobss:
  movs  r3, #0
 8000b82:	2300      	movs	r3, #0
  str  r3, [r2], #4
 8000b84:	f842 3b04 	str.w	r3, [r2], #4

08000b88 <LoopFillZerobss>:
    
LoopFillZerobss:
  ldr  r3, = _ebss
 8000b88:	4b09      	ldr	r3, [pc, #36]	; (8000bb0 <LoopFillZerobss+0x28>)
  cmp  r2, r3
 8000b8a:	429a      	cmp	r2, r3
  bcc  FillZerobss
 8000b8c:	d3f9      	bcc.n	8000b82 <FillZerobss>

/* Call the clock system intitialization function.*/
  bl  SystemInit   
 8000b8e:	f7ff ffd3 	bl	8000b38 <SystemInit>
/* Call static constructors */
    bl __libc_init_array
 8000b92:	f002 f9f1 	bl	8002f78 <__libc_init_array>
/* Call the application's entry point.*/
  bl  main
 8000b96:	f7ff fcf3 	bl	8000580 <main>
  bx  lr    
 8000b9a:	4770      	bx	lr
  ldr   sp, =_estack     /* set stack pointer */
 8000b9c:	20020000 	.word	0x20020000
  ldr  r3, =_sidata
 8000ba0:	08003860 	.word	0x08003860
  ldr  r0, =_sdata
 8000ba4:	20000000 	.word	0x20000000
  ldr  r3, =_edata
 8000ba8:	20000070 	.word	0x20000070
  ldr  r2, =_sbss
 8000bac:	20000070 	.word	0x20000070
  ldr  r3, = _ebss
 8000bb0:	20000120 	.word	0x20000120

08000bb4 <ADC_IRQHandler>:
 * @retval None       
*/
    .section  .text.Default_Handler,"ax",%progbits
Default_Handler:
Infinite_Loop:
  b  Infinite_Loop
 8000bb4:	e7fe      	b.n	8000bb4 <ADC_IRQHandler>
	...

08000bb8 <HAL_Init>:
  *         need to ensure that the SysTick time base is always set to 1 millisecond
  *         to have correct HAL operation.
  * @retval HAL status
  */
HAL_StatusTypeDef HAL_Init(void)
{
 8000bb8:	b580      	push	{r7, lr}
 8000bba:	af00      	add	r7, sp, #0
  /* Configure Flash prefetch, Instruction cache, Data cache */ 
#if (INSTRUCTION_CACHE_ENABLE != 0U)
  __HAL_FLASH_INSTRUCTION_CACHE_ENABLE();
 8000bbc:	4b0e      	ldr	r3, [pc, #56]	; (8000bf8 <HAL_Init+0x40>)
 8000bbe:	681b      	ldr	r3, [r3, #0]
 8000bc0:	4a0d      	ldr	r2, [pc, #52]	; (8000bf8 <HAL_Init+0x40>)
 8000bc2:	f443 7300 	orr.w	r3, r3, #512	; 0x200
 8000bc6:	6013      	str	r3, [r2, #0]
#endif /* INSTRUCTION_CACHE_ENABLE */

#if (DATA_CACHE_ENABLE != 0U)
  __HAL_FLASH_DATA_CACHE_ENABLE();
 8000bc8:	4b0b      	ldr	r3, [pc, #44]	; (8000bf8 <HAL_Init+0x40>)
 8000bca:	681b      	ldr	r3, [r3, #0]
 8000bcc:	4a0a      	ldr	r2, [pc, #40]	; (8000bf8 <HAL_Init+0x40>)
 8000bce:	f443 6380 	orr.w	r3, r3, #1024	; 0x400
 8000bd2:	6013      	str	r3, [r2, #0]
#endif /* DATA_CACHE_ENABLE */

#if (PREFETCH_ENABLE != 0U)
  __HAL_FLASH_PREFETCH_BUFFER_ENABLE();
 8000bd4:	4b08      	ldr	r3, [pc, #32]	; (8000bf8 <HAL_Init+0x40>)
 8000bd6:	681b      	ldr	r3, [r3, #0]
 8000bd8:	4a07      	ldr	r2, [pc, #28]	; (8000bf8 <HAL_Init+0x40>)
 8000bda:	f443 7380 	orr.w	r3, r3, #256	; 0x100
 8000bde:	6013      	str	r3, [r2, #0]
#endif /* PREFETCH_ENABLE */

  /* Set Interrupt Group Priority */
  HAL_NVIC_SetPriorityGrouping(NVIC_PRIORITYGROUP_4);
 8000be0:	2003      	movs	r0, #3
 8000be2:	f000 f92b 	bl	8000e3c <HAL_NVIC_SetPriorityGrouping>

  /* Use systick as time base source and configure 1ms tick (default clock after Reset is HSI) */
  HAL_InitTick(TICK_INT_PRIORITY);
 8000be6:	2000      	movs	r0, #0
 8000be8:	f000 f808 	bl	8000bfc <HAL_InitTick>

  /* Init the low level hardware */
  HAL_MspInit();
 8000bec:	f7ff fe86 	bl	80008fc <HAL_MspInit>

  /* Return function status */
  return HAL_OK;
 8000bf0:	2300      	movs	r3, #0
}
 8000bf2:	4618      	mov	r0, r3
 8000bf4:	bd80      	pop	{r7, pc}
 8000bf6:	bf00      	nop
 8000bf8:	40023c00 	.word	0x40023c00

08000bfc <HAL_InitTick>:
  *       implementation  in user file.
  * @param TickPriority Tick interrupt priority.
  * @retval HAL status
  */
__weak HAL_StatusTypeDef HAL_InitTick(uint32_t TickPriority)
{
 8000bfc:	b580      	push	{r7, lr}
 8000bfe:	b082      	sub	sp, #8
 8000c00:	af00      	add	r7, sp, #0
 8000c02:	6078      	str	r0, [r7, #4]
  /* Configure the SysTick to have interrupt in 1ms time basis*/
  if (HAL_SYSTICK_Config(SystemCoreClock / (1000U / uwTickFreq)) > 0U)
 8000c04:	4b12      	ldr	r3, [pc, #72]	; (8000c50 <HAL_InitTick+0x54>)
 8000c06:	681a      	ldr	r2, [r3, #0]
 8000c08:	4b12      	ldr	r3, [pc, #72]	; (8000c54 <HAL_InitTick+0x58>)
 8000c0a:	781b      	ldrb	r3, [r3, #0]
 8000c0c:	4619      	mov	r1, r3
 8000c0e:	f44f 737a 	mov.w	r3, #1000	; 0x3e8
 8000c12:	fbb3 f3f1 	udiv	r3, r3, r1
 8000c16:	fbb2 f3f3 	udiv	r3, r2, r3
 8000c1a:	4618      	mov	r0, r3
 8000c1c:	f000 f943 	bl	8000ea6 <HAL_SYSTICK_Config>
 8000c20:	4603      	mov	r3, r0
 8000c22:	2b00      	cmp	r3, #0
 8000c24:	d001      	beq.n	8000c2a <HAL_InitTick+0x2e>
  {
    return HAL_ERROR;
 8000c26:	2301      	movs	r3, #1
 8000c28:	e00e      	b.n	8000c48 <HAL_InitTick+0x4c>
  }

  /* Configure the SysTick IRQ priority */
  if (TickPriority < (1UL << __NVIC_PRIO_BITS))
 8000c2a:	687b      	ldr	r3, [r7, #4]
 8000c2c:	2b0f      	cmp	r3, #15
 8000c2e:	d80a      	bhi.n	8000c46 <HAL_InitTick+0x4a>
  {
    HAL_NVIC_SetPriority(SysTick_IRQn, TickPriority, 0U);
 8000c30:	2200      	movs	r2, #0
 8000c32:	6879      	ldr	r1, [r7, #4]
 8000c34:	f04f 30ff 	mov.w	r0, #4294967295
 8000c38:	f000 f90b 	bl	8000e52 <HAL_NVIC_SetPriority>
    uwTickPrio = TickPriority;
 8000c3c:	4a06      	ldr	r2, [pc, #24]	; (8000c58 <HAL_InitTick+0x5c>)
 8000c3e:	687b      	ldr	r3, [r7, #4]
 8000c40:	6013      	str	r3, [r2, #0]
  {
    return HAL_ERROR;
  }

  /* Return function status */
  return HAL_OK;
 8000c42:	2300      	movs	r3, #0
 8000c44:	e000      	b.n	8000c48 <HAL_InitTick+0x4c>
    return HAL_ERROR;
 8000c46:	2301      	movs	r3, #1
}
 8000c48:	4618      	mov	r0, r3
 8000c4a:	3708      	adds	r7, #8
 8000c4c:	46bd      	mov	sp, r7
 8000c4e:	bd80      	pop	{r7, pc}
 8000c50:	20000000 	.word	0x20000000
 8000c54:	20000008 	.word	0x20000008
 8000c58:	20000004 	.word	0x20000004

08000c5c <HAL_IncTick>:
 * @note This function is declared as __weak to be overwritten in case of other 
  *      implementations in user file.
  * @retval None
  */
__weak void HAL_IncTick(void)
{
 8000c5c:	b480      	push	{r7}
 8000c5e:	af00      	add	r7, sp, #0
  uwTick += uwTickFreq;
 8000c60:	4b06      	ldr	r3, [pc, #24]	; (8000c7c <HAL_IncTick+0x20>)
 8000c62:	781b      	ldrb	r3, [r3, #0]
 8000c64:	461a      	mov	r2, r3
 8000c66:	4b06      	ldr	r3, [pc, #24]	; (8000c80 <HAL_IncTick+0x24>)
 8000c68:	681b      	ldr	r3, [r3, #0]
 8000c6a:	4413      	add	r3, r2
 8000c6c:	4a04      	ldr	r2, [pc, #16]	; (8000c80 <HAL_IncTick+0x24>)
 8000c6e:	6013      	str	r3, [r2, #0]
}
 8000c70:	bf00      	nop
 8000c72:	46bd      	mov	sp, r7
 8000c74:	f85d 7b04 	ldr.w	r7, [sp], #4
 8000c78:	4770      	bx	lr
 8000c7a:	bf00      	nop
 8000c7c:	20000008 	.word	0x20000008
 8000c80:	20000118 	.word	0x20000118

08000c84 <HAL_GetTick>:
  * @note This function is declared as __weak to be overwritten in case of other 
  *       implementations in user file.
  * @retval tick value
  */
__weak uint32_t HAL_GetTick(void)
{
 8000c84:	b480      	push	{r7}
 8000c86:	af00      	add	r7, sp, #0
  return uwTick;
 8000c88:	4b03      	ldr	r3, [pc, #12]	; (8000c98 <HAL_GetTick+0x14>)
 8000c8a:	681b      	ldr	r3, [r3, #0]
}
 8000c8c:	4618      	mov	r0, r3
 8000c8e:	46bd      	mov	sp, r7
 8000c90:	f85d 7b04 	ldr.w	r7, [sp], #4
 8000c94:	4770      	bx	lr
 8000c96:	bf00      	nop
 8000c98:	20000118 	.word	0x20000118

08000c9c <__NVIC_SetPriorityGrouping>:
           In case of a conflict between priority grouping and available
           priority bits (__NVIC_PRIO_BITS), the smallest possible priority group is set.
  \param [in]      PriorityGroup  Priority grouping field.
 */
__STATIC_INLINE void __NVIC_SetPriorityGrouping(uint32_t PriorityGroup)
{
 8000c9c:	b480      	push	{r7}
 8000c9e:	b085      	sub	sp, #20
 8000ca0:	af00      	add	r7, sp, #0
 8000ca2:	6078      	str	r0, [r7, #4]
  uint32_t reg_value;
  uint32_t PriorityGroupTmp = (PriorityGroup & (uint32_t)0x07UL);             /* only values 0..7 are used          */
 8000ca4:	687b      	ldr	r3, [r7, #4]
 8000ca6:	f003 0307 	and.w	r3, r3, #7
 8000caa:	60fb      	str	r3, [r7, #12]

  reg_value  =  SCB->AIRCR;                                                   /* read old register configuration    */
 8000cac:	4b0c      	ldr	r3, [pc, #48]	; (8000ce0 <__NVIC_SetPriorityGrouping+0x44>)
 8000cae:	68db      	ldr	r3, [r3, #12]
 8000cb0:	60bb      	str	r3, [r7, #8]
  reg_value &= ~((uint32_t)(SCB_AIRCR_VECTKEY_Msk | SCB_AIRCR_PRIGROUP_Msk)); /* clear bits to change               */
 8000cb2:	68ba      	ldr	r2, [r7, #8]
 8000cb4:	f64f 03ff 	movw	r3, #63743	; 0xf8ff
 8000cb8:	4013      	ands	r3, r2
 8000cba:	60bb      	str	r3, [r7, #8]
  reg_value  =  (reg_value                                   |
                ((uint32_t)0x5FAUL << SCB_AIRCR_VECTKEY_Pos) |
                (PriorityGroupTmp << SCB_AIRCR_PRIGROUP_Pos)  );              /* Insert write key and priority group */
 8000cbc:	68fb      	ldr	r3, [r7, #12]
 8000cbe:	021a      	lsls	r2, r3, #8
                ((uint32_t)0x5FAUL << SCB_AIRCR_VECTKEY_Pos) |
 8000cc0:	68bb      	ldr	r3, [r7, #8]
 8000cc2:	4313      	orrs	r3, r2
  reg_value  =  (reg_value                                   |
 8000cc4:	f043 63bf 	orr.w	r3, r3, #100139008	; 0x5f80000
 8000cc8:	f443 3300 	orr.w	r3, r3, #131072	; 0x20000
 8000ccc:	60bb      	str	r3, [r7, #8]
  SCB->AIRCR =  reg_value;
 8000cce:	4a04      	ldr	r2, [pc, #16]	; (8000ce0 <__NVIC_SetPriorityGrouping+0x44>)
 8000cd0:	68bb      	ldr	r3, [r7, #8]
 8000cd2:	60d3      	str	r3, [r2, #12]
}
 8000cd4:	bf00      	nop
 8000cd6:	3714      	adds	r7, #20
 8000cd8:	46bd      	mov	sp, r7
 8000cda:	f85d 7b04 	ldr.w	r7, [sp], #4
 8000cde:	4770      	bx	lr
 8000ce0:	e000ed00 	.word	0xe000ed00

08000ce4 <__NVIC_GetPriorityGrouping>:
  \brief   Get Priority Grouping
  \details Reads the priority grouping field from the NVIC Interrupt Controller.
  \return                Priority grouping field (SCB->AIRCR [10:8] PRIGROUP field).
 */
__STATIC_INLINE uint32_t __NVIC_GetPriorityGrouping(void)
{
 8000ce4:	b480      	push	{r7}
 8000ce6:	af00      	add	r7, sp, #0
  return ((uint32_t)((SCB->AIRCR & SCB_AIRCR_PRIGROUP_Msk) >> SCB_AIRCR_PRIGROUP_Pos));
 8000ce8:	4b04      	ldr	r3, [pc, #16]	; (8000cfc <__NVIC_GetPriorityGrouping+0x18>)
 8000cea:	68db      	ldr	r3, [r3, #12]
 8000cec:	0a1b      	lsrs	r3, r3, #8
 8000cee:	f003 0307 	and.w	r3, r3, #7
}
 8000cf2:	4618      	mov	r0, r3
 8000cf4:	46bd      	mov	sp, r7
 8000cf6:	f85d 7b04 	ldr.w	r7, [sp], #4
 8000cfa:	4770      	bx	lr
 8000cfc:	e000ed00 	.word	0xe000ed00

08000d00 <__NVIC_EnableIRQ>:
  \details Enables a device specific interrupt in the NVIC interrupt controller.
  \param [in]      IRQn  Device specific interrupt number.
  \note    IRQn must not be negative.
 */
__STATIC_INLINE void __NVIC_EnableIRQ(IRQn_Type IRQn)
{
 8000d00:	b480      	push	{r7}
 8000d02:	b083      	sub	sp, #12
 8000d04:	af00      	add	r7, sp, #0
 8000d06:	4603      	mov	r3, r0
 8000d08:	71fb      	strb	r3, [r7, #7]
  if ((int32_t)(IRQn) >= 0)
 8000d0a:	f997 3007 	ldrsb.w	r3, [r7, #7]
 8000d0e:	2b00      	cmp	r3, #0
 8000d10:	db0b      	blt.n	8000d2a <__NVIC_EnableIRQ+0x2a>
  {
    NVIC->ISER[(((uint32_t)IRQn) >> 5UL)] = (uint32_t)(1UL << (((uint32_t)IRQn) & 0x1FUL));
 8000d12:	79fb      	ldrb	r3, [r7, #7]
 8000d14:	f003 021f 	and.w	r2, r3, #31
 8000d18:	4907      	ldr	r1, [pc, #28]	; (8000d38 <__NVIC_EnableIRQ+0x38>)
 8000d1a:	f997 3007 	ldrsb.w	r3, [r7, #7]
 8000d1e:	095b      	lsrs	r3, r3, #5
 8000d20:	2001      	movs	r0, #1
 8000d22:	fa00 f202 	lsl.w	r2, r0, r2
 8000d26:	f841 2023 	str.w	r2, [r1, r3, lsl #2]
  }
}
 8000d2a:	bf00      	nop
 8000d2c:	370c      	adds	r7, #12
 8000d2e:	46bd      	mov	sp, r7
 8000d30:	f85d 7b04 	ldr.w	r7, [sp], #4
 8000d34:	4770      	bx	lr
 8000d36:	bf00      	nop
 8000d38:	e000e100 	.word	0xe000e100

08000d3c <__NVIC_SetPriority>:
  \param [in]      IRQn  Interrupt number.
  \param [in]  priority  Priority to set.
  \note    The priority cannot be set for every processor exception.
 */
__STATIC_INLINE void __NVIC_SetPriority(IRQn_Type IRQn, uint32_t priority)
{
 8000d3c:	b480      	push	{r7}
 8000d3e:	b083      	sub	sp, #12
 8000d40:	af00      	add	r7, sp, #0
 8000d42:	4603      	mov	r3, r0
 8000d44:	6039      	str	r1, [r7, #0]
 8000d46:	71fb      	strb	r3, [r7, #7]
  if ((int32_t)(IRQn) >= 0)
 8000d48:	f997 3007 	ldrsb.w	r3, [r7, #7]
 8000d4c:	2b00      	cmp	r3, #0
 8000d4e:	db0a      	blt.n	8000d66 <__NVIC_SetPriority+0x2a>
  {
    NVIC->IP[((uint32_t)IRQn)]               = (uint8_t)((priority << (8U - __NVIC_PRIO_BITS)) & (uint32_t)0xFFUL);
 8000d50:	683b      	ldr	r3, [r7, #0]
 8000d52:	b2da      	uxtb	r2, r3
 8000d54:	490c      	ldr	r1, [pc, #48]	; (8000d88 <__NVIC_SetPriority+0x4c>)
 8000d56:	f997 3007 	ldrsb.w	r3, [r7, #7]
 8000d5a:	0112      	lsls	r2, r2, #4
 8000d5c:	b2d2      	uxtb	r2, r2
 8000d5e:	440b      	add	r3, r1
 8000d60:	f883 2300 	strb.w	r2, [r3, #768]	; 0x300
  }
  else
  {
    SCB->SHP[(((uint32_t)IRQn) & 0xFUL)-4UL] = (uint8_t)((priority << (8U - __NVIC_PRIO_BITS)) & (uint32_t)0xFFUL);
  }
}
 8000d64:	e00a      	b.n	8000d7c <__NVIC_SetPriority+0x40>
    SCB->SHP[(((uint32_t)IRQn) & 0xFUL)-4UL] = (uint8_t)((priority << (8U - __NVIC_PRIO_BITS)) & (uint32_t)0xFFUL);
 8000d66:	683b      	ldr	r3, [r7, #0]
 8000d68:	b2da      	uxtb	r2, r3
 8000d6a:	4908      	ldr	r1, [pc, #32]	; (8000d8c <__NVIC_SetPriority+0x50>)
 8000d6c:	79fb      	ldrb	r3, [r7, #7]
 8000d6e:	f003 030f 	and.w	r3, r3, #15
 8000d72:	3b04      	subs	r3, #4
 8000d74:	0112      	lsls	r2, r2, #4
 8000d76:	b2d2      	uxtb	r2, r2
 8000d78:	440b      	add	r3, r1
 8000d7a:	761a      	strb	r2, [r3, #24]
}
 8000d7c:	bf00      	nop
 8000d7e:	370c      	adds	r7, #12
 8000d80:	46bd      	mov	sp, r7
 8000d82:	f85d 7b04 	ldr.w	r7, [sp], #4
 8000d86:	4770      	bx	lr
 8000d88:	e000e100 	.word	0xe000e100
 8000d8c:	e000ed00 	.word	0xe000ed00

08000d90 <NVIC_EncodePriority>:
  \param [in]   PreemptPriority  Preemptive priority value (starting from 0).
  \param [in]       SubPriority  Subpriority value (starting from 0).
  \return                        Encoded priority. Value can be used in the function \ref NVIC_SetPriority().
 */
__STATIC_INLINE uint32_t NVIC_EncodePriority (uint32_t PriorityGroup, uint32_t PreemptPriority, uint32_t SubPriority)
{
 8000d90:	b480      	push	{r7}
 8000d92:	b089      	sub	sp, #36	; 0x24
 8000d94:	af00      	add	r7, sp, #0
 8000d96:	60f8      	str	r0, [r7, #12]
 8000d98:	60b9      	str	r1, [r7, #8]
 8000d9a:	607a      	str	r2, [r7, #4]
  uint32_t PriorityGroupTmp = (PriorityGroup & (uint32_t)0x07UL);   /* only values 0..7 are used          */
 8000d9c:	68fb      	ldr	r3, [r7, #12]
 8000d9e:	f003 0307 	and.w	r3, r3, #7
 8000da2:	61fb      	str	r3, [r7, #28]
  uint32_t PreemptPriorityBits;
  uint32_t SubPriorityBits;

  PreemptPriorityBits = ((7UL - PriorityGroupTmp) > (uint32_t)(__NVIC_PRIO_BITS)) ? (uint32_t)(__NVIC_PRIO_BITS) : (uint32_t)(7UL - PriorityGroupTmp);
 8000da4:	69fb      	ldr	r3, [r7, #28]
 8000da6:	f1c3 0307 	rsb	r3, r3, #7
 8000daa:	2b04      	cmp	r3, #4
 8000dac:	bf28      	it	cs
 8000dae:	2304      	movcs	r3, #4
 8000db0:	61bb      	str	r3, [r7, #24]
  SubPriorityBits     = ((PriorityGroupTmp + (uint32_t)(__NVIC_PRIO_BITS)) < (uint32_t)7UL) ? (uint32_t)0UL : (uint32_t)((PriorityGroupTmp - 7UL) + (uint32_t)(__NVIC_PRIO_BITS));
 8000db2:	69fb      	ldr	r3, [r7, #28]
 8000db4:	3304      	adds	r3, #4
 8000db6:	2b06      	cmp	r3, #6
 8000db8:	d902      	bls.n	8000dc0 <NVIC_EncodePriority+0x30>
 8000dba:	69fb      	ldr	r3, [r7, #28]
 8000dbc:	3b03      	subs	r3, #3
 8000dbe:	e000      	b.n	8000dc2 <NVIC_EncodePriority+0x32>
 8000dc0:	2300      	movs	r3, #0
 8000dc2:	617b      	str	r3, [r7, #20]

  return (
           ((PreemptPriority & (uint32_t)((1UL << (PreemptPriorityBits)) - 1UL)) << SubPriorityBits) |
 8000dc4:	f04f 32ff 	mov.w	r2, #4294967295
 8000dc8:	69bb      	ldr	r3, [r7, #24]
 8000dca:	fa02 f303 	lsl.w	r3, r2, r3
 8000dce:	43da      	mvns	r2, r3
 8000dd0:	68bb      	ldr	r3, [r7, #8]
 8000dd2:	401a      	ands	r2, r3
 8000dd4:	697b      	ldr	r3, [r7, #20]
 8000dd6:	409a      	lsls	r2, r3
           ((SubPriority     & (uint32_t)((1UL << (SubPriorityBits    )) - 1UL)))
 8000dd8:	f04f 31ff 	mov.w	r1, #4294967295
 8000ddc:	697b      	ldr	r3, [r7, #20]
 8000dde:	fa01 f303 	lsl.w	r3, r1, r3
 8000de2:	43d9      	mvns	r1, r3
 8000de4:	687b      	ldr	r3, [r7, #4]
 8000de6:	400b      	ands	r3, r1
           ((PreemptPriority & (uint32_t)((1UL << (PreemptPriorityBits)) - 1UL)) << SubPriorityBits) |
 8000de8:	4313      	orrs	r3, r2
         );
}
 8000dea:	4618      	mov	r0, r3
 8000dec:	3724      	adds	r7, #36	; 0x24
 8000dee:	46bd      	mov	sp, r7
 8000df0:	f85d 7b04 	ldr.w	r7, [sp], #4
 8000df4:	4770      	bx	lr
	...

08000df8 <SysTick_Config>:
  \note    When the variable <b>__Vendor_SysTickConfig</b> is set to 1, then the
           function <b>SysTick_Config</b> is not included. In this case, the file <b><i>device</i>.h</b>
           must contain a vendor-specific implementation of this function.
 */
__STATIC_INLINE uint32_t SysTick_Config(uint32_t ticks)
{
 8000df8:	b580      	push	{r7, lr}
 8000dfa:	b082      	sub	sp, #8
 8000dfc:	af00      	add	r7, sp, #0
 8000dfe:	6078      	str	r0, [r7, #4]
  if ((ticks - 1UL) > SysTick_LOAD_RELOAD_Msk)
 8000e00:	687b      	ldr	r3, [r7, #4]
 8000e02:	3b01      	subs	r3, #1
 8000e04:	f1b3 7f80 	cmp.w	r3, #16777216	; 0x1000000
 8000e08:	d301      	bcc.n	8000e0e <SysTick_Config+0x16>
  {
    return (1UL);                                                   /* Reload value impossible */
 8000e0a:	2301      	movs	r3, #1
 8000e0c:	e00f      	b.n	8000e2e <SysTick_Config+0x36>
  }

  SysTick->LOAD  = (uint32_t)(ticks - 1UL);                         /* set reload register */
 8000e0e:	4a0a      	ldr	r2, [pc, #40]	; (8000e38 <SysTick_Config+0x40>)
 8000e10:	687b      	ldr	r3, [r7, #4]
 8000e12:	3b01      	subs	r3, #1
 8000e14:	6053      	str	r3, [r2, #4]
  NVIC_SetPriority (SysTick_IRQn, (1UL << __NVIC_PRIO_BITS) - 1UL); /* set Priority for Systick Interrupt */
 8000e16:	210f      	movs	r1, #15
 8000e18:	f04f 30ff 	mov.w	r0, #4294967295
 8000e1c:	f7ff ff8e 	bl	8000d3c <__NVIC_SetPriority>
  SysTick->VAL   = 0UL;                                             /* Load the SysTick Counter Value */
 8000e20:	4b05      	ldr	r3, [pc, #20]	; (8000e38 <SysTick_Config+0x40>)
 8000e22:	2200      	movs	r2, #0
 8000e24:	609a      	str	r2, [r3, #8]
  SysTick->CTRL  = SysTick_CTRL_CLKSOURCE_Msk |
 8000e26:	4b04      	ldr	r3, [pc, #16]	; (8000e38 <SysTick_Config+0x40>)
 8000e28:	2207      	movs	r2, #7
 8000e2a:	601a      	str	r2, [r3, #0]
                   SysTick_CTRL_TICKINT_Msk   |
                   SysTick_CTRL_ENABLE_Msk;                         /* Enable SysTick IRQ and SysTick Timer */
  return (0UL);                                                     /* Function successful */
 8000e2c:	2300      	movs	r3, #0
}
 8000e2e:	4618      	mov	r0, r3
 8000e30:	3708      	adds	r7, #8
 8000e32:	46bd      	mov	sp, r7
 8000e34:	bd80      	pop	{r7, pc}
 8000e36:	bf00      	nop
 8000e38:	e000e010 	.word	0xe000e010

08000e3c <HAL_NVIC_SetPriorityGrouping>:
  * @note   When the NVIC_PriorityGroup_0 is selected, IRQ preemption is no more possible. 
  *         The pending IRQ priority will be managed only by the subpriority. 
  * @retval None
  */
void HAL_NVIC_SetPriorityGrouping(uint32_t PriorityGroup)
{
 8000e3c:	b580      	push	{r7, lr}
 8000e3e:	b082      	sub	sp, #8
 8000e40:	af00      	add	r7, sp, #0
 8000e42:	6078      	str	r0, [r7, #4]
  /* Check the parameters */
  assert_param(IS_NVIC_PRIORITY_GROUP(PriorityGroup));
  
  /* Set the PRIGROUP[10:8] bits according to the PriorityGroup parameter value */
  NVIC_SetPriorityGrouping(PriorityGroup);
 8000e44:	6878      	ldr	r0, [r7, #4]
 8000e46:	f7ff ff29 	bl	8000c9c <__NVIC_SetPriorityGrouping>
}
 8000e4a:	bf00      	nop
 8000e4c:	3708      	adds	r7, #8
 8000e4e:	46bd      	mov	sp, r7
 8000e50:	bd80      	pop	{r7, pc}

08000e52 <HAL_NVIC_SetPriority>:
  *         This parameter can be a value between 0 and 15
  *         A lower priority value indicates a higher priority.          
  * @retval None
  */
void HAL_NVIC_SetPriority(IRQn_Type IRQn, uint32_t PreemptPriority, uint32_t SubPriority)
{ 
 8000e52:	b580      	push	{r7, lr}
 8000e54:	b086      	sub	sp, #24
 8000e56:	af00      	add	r7, sp, #0
 8000e58:	4603      	mov	r3, r0
 8000e5a:	60b9      	str	r1, [r7, #8]
 8000e5c:	607a      	str	r2, [r7, #4]
 8000e5e:	73fb      	strb	r3, [r7, #15]
  uint32_t prioritygroup = 0x00U;
 8000e60:	2300      	movs	r3, #0
 8000e62:	617b      	str	r3, [r7, #20]
  
  /* Check the parameters */
  assert_param(IS_NVIC_SUB_PRIORITY(SubPriority));
  assert_param(IS_NVIC_PREEMPTION_PRIORITY(PreemptPriority));
  
  prioritygroup = NVIC_GetPriorityGrouping();
 8000e64:	f7ff ff3e 	bl	8000ce4 <__NVIC_GetPriorityGrouping>
 8000e68:	6178      	str	r0, [r7, #20]
  
  NVIC_SetPriority(IRQn, NVIC_EncodePriority(prioritygroup, PreemptPriority, SubPriority));
 8000e6a:	687a      	ldr	r2, [r7, #4]
 8000e6c:	68b9      	ldr	r1, [r7, #8]
 8000e6e:	6978      	ldr	r0, [r7, #20]
 8000e70:	f7ff ff8e 	bl	8000d90 <NVIC_EncodePriority>
 8000e74:	4602      	mov	r2, r0
 8000e76:	f997 300f 	ldrsb.w	r3, [r7, #15]
 8000e7a:	4611      	mov	r1, r2
 8000e7c:	4618      	mov	r0, r3
 8000e7e:	f7ff ff5d 	bl	8000d3c <__NVIC_SetPriority>
}
 8000e82:	bf00      	nop
 8000e84:	3718      	adds	r7, #24
 8000e86:	46bd      	mov	sp, r7
 8000e88:	bd80      	pop	{r7, pc}

08000e8a <HAL_NVIC_EnableIRQ>:
  *         This parameter can be an enumerator of IRQn_Type enumeration
  *         (For the complete STM32 Devices IRQ Channels list, please refer to the appropriate CMSIS device file (stm32f4xxxx.h))
  * @retval None
  */
void HAL_NVIC_EnableIRQ(IRQn_Type IRQn)
{
 8000e8a:	b580      	push	{r7, lr}
 8000e8c:	b082      	sub	sp, #8
 8000e8e:	af00      	add	r7, sp, #0
 8000e90:	4603      	mov	r3, r0
 8000e92:	71fb      	strb	r3, [r7, #7]
  /* Check the parameters */
  assert_param(IS_NVIC_DEVICE_IRQ(IRQn));
  
  /* Enable interrupt */
  NVIC_EnableIRQ(IRQn);
 8000e94:	f997 3007 	ldrsb.w	r3, [r7, #7]
 8000e98:	4618      	mov	r0, r3
 8000e9a:	f7ff ff31 	bl	8000d00 <__NVIC_EnableIRQ>
}
 8000e9e:	bf00      	nop
 8000ea0:	3708      	adds	r7, #8
 8000ea2:	46bd      	mov	sp, r7
 8000ea4:	bd80      	pop	{r7, pc}

08000ea6 <HAL_SYSTICK_Config>:
  * @param  TicksNumb Specifies the ticks Number of ticks between two interrupts.
  * @retval status:  - 0  Function succeeded.
  *                  - 1  Function failed.
  */
uint32_t HAL_SYSTICK_Config(uint32_t TicksNumb)
{
 8000ea6:	b580      	push	{r7, lr}
 8000ea8:	b082      	sub	sp, #8
 8000eaa:	af00      	add	r7, sp, #0
 8000eac:	6078      	str	r0, [r7, #4]
   return SysTick_Config(TicksNumb);
 8000eae:	6878      	ldr	r0, [r7, #4]
 8000eb0:	f7ff ffa2 	bl	8000df8 <SysTick_Config>
 8000eb4:	4603      	mov	r3, r0
}
 8000eb6:	4618      	mov	r0, r3
 8000eb8:	3708      	adds	r7, #8
 8000eba:	46bd      	mov	sp, r7
 8000ebc:	bd80      	pop	{r7, pc}

08000ebe <HAL_DMA_Abort_IT>:
  * @param  hdma   pointer to a DMA_HandleTypeDef structure that contains
  *                 the configuration information for the specified DMA Stream.
  * @retval HAL status
  */
HAL_StatusTypeDef HAL_DMA_Abort_IT(DMA_HandleTypeDef *hdma)
{
 8000ebe:	b480      	push	{r7}
 8000ec0:	b083      	sub	sp, #12
 8000ec2:	af00      	add	r7, sp, #0
 8000ec4:	6078      	str	r0, [r7, #4]
  if(hdma->State != HAL_DMA_STATE_BUSY)
 8000ec6:	687b      	ldr	r3, [r7, #4]
 8000ec8:	f893 3035 	ldrb.w	r3, [r3, #53]	; 0x35
 8000ecc:	b2db      	uxtb	r3, r3
 8000ece:	2b02      	cmp	r3, #2
 8000ed0:	d004      	beq.n	8000edc <HAL_DMA_Abort_IT+0x1e>
  {
    hdma->ErrorCode = HAL_DMA_ERROR_NO_XFER;
 8000ed2:	687b      	ldr	r3, [r7, #4]
 8000ed4:	2280      	movs	r2, #128	; 0x80
 8000ed6:	655a      	str	r2, [r3, #84]	; 0x54
    return HAL_ERROR;
 8000ed8:	2301      	movs	r3, #1
 8000eda:	e00c      	b.n	8000ef6 <HAL_DMA_Abort_IT+0x38>
  }
  else
  {
    /* Set Abort State  */
    hdma->State = HAL_DMA_STATE_ABORT;
 8000edc:	687b      	ldr	r3, [r7, #4]
 8000ede:	2205      	movs	r2, #5
 8000ee0:	f883 2035 	strb.w	r2, [r3, #53]	; 0x35
    
    /* Disable the stream */
    __HAL_DMA_DISABLE(hdma);
 8000ee4:	687b      	ldr	r3, [r7, #4]
 8000ee6:	681b      	ldr	r3, [r3, #0]
 8000ee8:	681a      	ldr	r2, [r3, #0]
 8000eea:	687b      	ldr	r3, [r7, #4]
 8000eec:	681b      	ldr	r3, [r3, #0]
 8000eee:	f022 0201 	bic.w	r2, r2, #1
 8000ef2:	601a      	str	r2, [r3, #0]
  }

  return HAL_OK;
 8000ef4:	2300      	movs	r3, #0
}
 8000ef6:	4618      	mov	r0, r3
 8000ef8:	370c      	adds	r7, #12
 8000efa:	46bd      	mov	sp, r7
 8000efc:	f85d 7b04 	ldr.w	r7, [sp], #4
 8000f00:	4770      	bx	lr
	...

08000f04 <HAL_GPIO_Init>:
  * @param  GPIO_Init pointer to a GPIO_InitTypeDef structure that contains
  *         the configuration information for the specified GPIO peripheral.
  * @retval None
  */
void HAL_GPIO_Init(GPIO_TypeDef  *GPIOx, GPIO_InitTypeDef *GPIO_Init)
{
 8000f04:	b480      	push	{r7}
 8000f06:	b089      	sub	sp, #36	; 0x24
 8000f08:	af00      	add	r7, sp, #0
 8000f0a:	6078      	str	r0, [r7, #4]
 8000f0c:	6039      	str	r1, [r7, #0]
  uint32_t position;
  uint32_t ioposition = 0x00U;
 8000f0e:	2300      	movs	r3, #0
 8000f10:	617b      	str	r3, [r7, #20]
  uint32_t iocurrent = 0x00U;
 8000f12:	2300      	movs	r3, #0
 8000f14:	613b      	str	r3, [r7, #16]
  uint32_t temp = 0x00U;
 8000f16:	2300      	movs	r3, #0
 8000f18:	61bb      	str	r3, [r7, #24]
  assert_param(IS_GPIO_PIN(GPIO_Init->Pin));
  assert_param(IS_GPIO_MODE(GPIO_Init->Mode));
  assert_param(IS_GPIO_PULL(GPIO_Init->Pull));

  /* Configure the port pins */
  for(position = 0U; position < GPIO_NUMBER; position++)
 8000f1a:	2300      	movs	r3, #0
 8000f1c:	61fb      	str	r3, [r7, #28]
 8000f1e:	e16b      	b.n	80011f8 <HAL_GPIO_Init+0x2f4>
  {
    /* Get the IO position */
    ioposition = 0x01U << position;
 8000f20:	2201      	movs	r2, #1
 8000f22:	69fb      	ldr	r3, [r7, #28]
 8000f24:	fa02 f303 	lsl.w	r3, r2, r3
 8000f28:	617b      	str	r3, [r7, #20]
    /* Get the current IO position */
    iocurrent = (uint32_t)(GPIO_Init->Pin) & ioposition;
 8000f2a:	683b      	ldr	r3, [r7, #0]
 8000f2c:	681b      	ldr	r3, [r3, #0]
 8000f2e:	697a      	ldr	r2, [r7, #20]
 8000f30:	4013      	ands	r3, r2
 8000f32:	613b      	str	r3, [r7, #16]

    if(iocurrent == ioposition)
 8000f34:	693a      	ldr	r2, [r7, #16]
 8000f36:	697b      	ldr	r3, [r7, #20]
 8000f38:	429a      	cmp	r2, r3
 8000f3a:	f040 815a 	bne.w	80011f2 <HAL_GPIO_Init+0x2ee>
    {
      /*--------------------- GPIO Mode Configuration ------------------------*/
      /* In case of Output or Alternate function mode selection */
      if((GPIO_Init->Mode == GPIO_MODE_OUTPUT_PP) || (GPIO_Init->Mode == GPIO_MODE_AF_PP) ||
 8000f3e:	683b      	ldr	r3, [r7, #0]
 8000f40:	685b      	ldr	r3, [r3, #4]
 8000f42:	2b01      	cmp	r3, #1
 8000f44:	d00b      	beq.n	8000f5e <HAL_GPIO_Init+0x5a>
 8000f46:	683b      	ldr	r3, [r7, #0]
 8000f48:	685b      	ldr	r3, [r3, #4]
 8000f4a:	2b02      	cmp	r3, #2
 8000f4c:	d007      	beq.n	8000f5e <HAL_GPIO_Init+0x5a>
         (GPIO_Init->Mode == GPIO_MODE_OUTPUT_OD) || (GPIO_Init->Mode == GPIO_MODE_AF_OD))
 8000f4e:	683b      	ldr	r3, [r7, #0]
 8000f50:	685b      	ldr	r3, [r3, #4]
      if((GPIO_Init->Mode == GPIO_MODE_OUTPUT_PP) || (GPIO_Init->Mode == GPIO_MODE_AF_PP) ||
 8000f52:	2b11      	cmp	r3, #17
 8000f54:	d003      	beq.n	8000f5e <HAL_GPIO_Init+0x5a>
         (GPIO_Init->Mode == GPIO_MODE_OUTPUT_OD) || (GPIO_Init->Mode == GPIO_MODE_AF_OD))
 8000f56:	683b      	ldr	r3, [r7, #0]
 8000f58:	685b      	ldr	r3, [r3, #4]
 8000f5a:	2b12      	cmp	r3, #18
 8000f5c:	d130      	bne.n	8000fc0 <HAL_GPIO_Init+0xbc>
      {
        /* Check the Speed parameter */
        assert_param(IS_GPIO_SPEED(GPIO_Init->Speed));
        /* Configure the IO Speed */
        temp = GPIOx->OSPEEDR; 
 8000f5e:	687b      	ldr	r3, [r7, #4]
 8000f60:	689b      	ldr	r3, [r3, #8]
 8000f62:	61bb      	str	r3, [r7, #24]
        temp &= ~(GPIO_OSPEEDER_OSPEEDR0 << (position * 2U));
 8000f64:	69fb      	ldr	r3, [r7, #28]
 8000f66:	005b      	lsls	r3, r3, #1
 8000f68:	2203      	movs	r2, #3
 8000f6a:	fa02 f303 	lsl.w	r3, r2, r3
 8000f6e:	43db      	mvns	r3, r3
 8000f70:	69ba      	ldr	r2, [r7, #24]
 8000f72:	4013      	ands	r3, r2
 8000f74:	61bb      	str	r3, [r7, #24]
        temp |= (GPIO_Init->Speed << (position * 2U));
 8000f76:	683b      	ldr	r3, [r7, #0]
 8000f78:	68da      	ldr	r2, [r3, #12]
 8000f7a:	69fb      	ldr	r3, [r7, #28]
 8000f7c:	005b      	lsls	r3, r3, #1
 8000f7e:	fa02 f303 	lsl.w	r3, r2, r3
 8000f82:	69ba      	ldr	r2, [r7, #24]
 8000f84:	4313      	orrs	r3, r2
 8000f86:	61bb      	str	r3, [r7, #24]
        GPIOx->OSPEEDR = temp;
 8000f88:	687b      	ldr	r3, [r7, #4]
 8000f8a:	69ba      	ldr	r2, [r7, #24]
 8000f8c:	609a      	str	r2, [r3, #8]

        /* Configure the IO Output Type */
        temp = GPIOx->OTYPER;
 8000f8e:	687b      	ldr	r3, [r7, #4]
 8000f90:	685b      	ldr	r3, [r3, #4]
 8000f92:	61bb      	str	r3, [r7, #24]
        temp &= ~(GPIO_OTYPER_OT_0 << position) ;
 8000f94:	2201      	movs	r2, #1
 8000f96:	69fb      	ldr	r3, [r7, #28]
 8000f98:	fa02 f303 	lsl.w	r3, r2, r3
 8000f9c:	43db      	mvns	r3, r3
 8000f9e:	69ba      	ldr	r2, [r7, #24]
 8000fa0:	4013      	ands	r3, r2
 8000fa2:	61bb      	str	r3, [r7, #24]
        temp |= (((GPIO_Init->Mode & GPIO_OUTPUT_TYPE) >> 4U) << position);
 8000fa4:	683b      	ldr	r3, [r7, #0]
 8000fa6:	685b      	ldr	r3, [r3, #4]
 8000fa8:	091b      	lsrs	r3, r3, #4
 8000faa:	f003 0201 	and.w	r2, r3, #1
 8000fae:	69fb      	ldr	r3, [r7, #28]
 8000fb0:	fa02 f303 	lsl.w	r3, r2, r3
 8000fb4:	69ba      	ldr	r2, [r7, #24]
 8000fb6:	4313      	orrs	r3, r2
 8000fb8:	61bb      	str	r3, [r7, #24]
        GPIOx->OTYPER = temp;
 8000fba:	687b      	ldr	r3, [r7, #4]
 8000fbc:	69ba      	ldr	r2, [r7, #24]
 8000fbe:	605a      	str	r2, [r3, #4]
       }

      /* Activate the Pull-up or Pull down resistor for the current IO */
      temp = GPIOx->PUPDR;
 8000fc0:	687b      	ldr	r3, [r7, #4]
 8000fc2:	68db      	ldr	r3, [r3, #12]
 8000fc4:	61bb      	str	r3, [r7, #24]
      temp &= ~(GPIO_PUPDR_PUPDR0 << (position * 2U));
 8000fc6:	69fb      	ldr	r3, [r7, #28]
 8000fc8:	005b      	lsls	r3, r3, #1
 8000fca:	2203      	movs	r2, #3
 8000fcc:	fa02 f303 	lsl.w	r3, r2, r3
 8000fd0:	43db      	mvns	r3, r3
 8000fd2:	69ba      	ldr	r2, [r7, #24]
 8000fd4:	4013      	ands	r3, r2
 8000fd6:	61bb      	str	r3, [r7, #24]
      temp |= ((GPIO_Init->Pull) << (position * 2U));
 8000fd8:	683b      	ldr	r3, [r7, #0]
 8000fda:	689a      	ldr	r2, [r3, #8]
 8000fdc:	69fb      	ldr	r3, [r7, #28]
 8000fde:	005b      	lsls	r3, r3, #1
 8000fe0:	fa02 f303 	lsl.w	r3, r2, r3
 8000fe4:	69ba      	ldr	r2, [r7, #24]
 8000fe6:	4313      	orrs	r3, r2
 8000fe8:	61bb      	str	r3, [r7, #24]
      GPIOx->PUPDR = temp;
 8000fea:	687b      	ldr	r3, [r7, #4]
 8000fec:	69ba      	ldr	r2, [r7, #24]
 8000fee:	60da      	str	r2, [r3, #12]

      /* In case of Alternate function mode selection */
      if((GPIO_Init->Mode == GPIO_MODE_AF_PP) || (GPIO_Init->Mode == GPIO_MODE_AF_OD))
 8000ff0:	683b      	ldr	r3, [r7, #0]
 8000ff2:	685b      	ldr	r3, [r3, #4]
 8000ff4:	2b02      	cmp	r3, #2
 8000ff6:	d003      	beq.n	8001000 <HAL_GPIO_Init+0xfc>
 8000ff8:	683b      	ldr	r3, [r7, #0]
 8000ffa:	685b      	ldr	r3, [r3, #4]
 8000ffc:	2b12      	cmp	r3, #18
 8000ffe:	d123      	bne.n	8001048 <HAL_GPIO_Init+0x144>
      {
        /* Check the Alternate function parameter */
        assert_param(IS_GPIO_AF(GPIO_Init->Alternate));
        /* Configure Alternate function mapped with the current IO */
        temp = GPIOx->AFR[position >> 3U];
 8001000:	69fb      	ldr	r3, [r7, #28]
 8001002:	08da      	lsrs	r2, r3, #3
 8001004:	687b      	ldr	r3, [r7, #4]
 8001006:	3208      	adds	r2, #8
 8001008:	f853 3022 	ldr.w	r3, [r3, r2, lsl #2]
 800100c:	61bb      	str	r3, [r7, #24]
        temp &= ~(0xFU << ((uint32_t)(position & 0x07U) * 4U)) ;
 800100e:	69fb      	ldr	r3, [r7, #28]
 8001010:	f003 0307 	and.w	r3, r3, #7
 8001014:	009b      	lsls	r3, r3, #2
 8001016:	220f      	movs	r2, #15
 8001018:	fa02 f303 	lsl.w	r3, r2, r3
 800101c:	43db      	mvns	r3, r3
 800101e:	69ba      	ldr	r2, [r7, #24]
 8001020:	4013      	ands	r3, r2
 8001022:	61bb      	str	r3, [r7, #24]
        temp |= ((uint32_t)(GPIO_Init->Alternate) << (((uint32_t)position & 0x07U) * 4U));
 8001024:	683b      	ldr	r3, [r7, #0]
 8001026:	691a      	ldr	r2, [r3, #16]
 8001028:	69fb      	ldr	r3, [r7, #28]
 800102a:	f003 0307 	and.w	r3, r3, #7
 800102e:	009b      	lsls	r3, r3, #2
 8001030:	fa02 f303 	lsl.w	r3, r2, r3
 8001034:	69ba      	ldr	r2, [r7, #24]
 8001036:	4313      	orrs	r3, r2
 8001038:	61bb      	str	r3, [r7, #24]
        GPIOx->AFR[position >> 3U] = temp;
 800103a:	69fb      	ldr	r3, [r7, #28]
 800103c:	08da      	lsrs	r2, r3, #3
 800103e:	687b      	ldr	r3, [r7, #4]
 8001040:	3208      	adds	r2, #8
 8001042:	69b9      	ldr	r1, [r7, #24]
 8001044:	f843 1022 	str.w	r1, [r3, r2, lsl #2]
      }

      /* Configure IO Direction mode (Input, Output, Alternate or Analog) */
      temp = GPIOx->MODER;
 8001048:	687b      	ldr	r3, [r7, #4]
 800104a:	681b      	ldr	r3, [r3, #0]
 800104c:	61bb      	str	r3, [r7, #24]
      temp &= ~(GPIO_MODER_MODER0 << (position * 2U));
 800104e:	69fb      	ldr	r3, [r7, #28]
 8001050:	005b      	lsls	r3, r3, #1
 8001052:	2203      	movs	r2, #3
 8001054:	fa02 f303 	lsl.w	r3, r2, r3
 8001058:	43db      	mvns	r3, r3
 800105a:	69ba      	ldr	r2, [r7, #24]
 800105c:	4013      	ands	r3, r2
 800105e:	61bb      	str	r3, [r7, #24]
      temp |= ((GPIO_Init->Mode & GPIO_MODE) << (position * 2U));
 8001060:	683b      	ldr	r3, [r7, #0]
 8001062:	685b      	ldr	r3, [r3, #4]
 8001064:	f003 0203 	and.w	r2, r3, #3
 8001068:	69fb      	ldr	r3, [r7, #28]
 800106a:	005b      	lsls	r3, r3, #1
 800106c:	fa02 f303 	lsl.w	r3, r2, r3
 8001070:	69ba      	ldr	r2, [r7, #24]
 8001072:	4313      	orrs	r3, r2
 8001074:	61bb      	str	r3, [r7, #24]
      GPIOx->MODER = temp;
 8001076:	687b      	ldr	r3, [r7, #4]
 8001078:	69ba      	ldr	r2, [r7, #24]
 800107a:	601a      	str	r2, [r3, #0]

      /*--------------------- EXTI Mode Configuration ------------------------*/
      /* Configure the External Interrupt or event for the current IO */
      if((GPIO_Init->Mode & EXTI_MODE) == EXTI_MODE)
 800107c:	683b      	ldr	r3, [r7, #0]
 800107e:	685b      	ldr	r3, [r3, #4]
 8001080:	f003 5380 	and.w	r3, r3, #268435456	; 0x10000000
 8001084:	2b00      	cmp	r3, #0
 8001086:	f000 80b4 	beq.w	80011f2 <HAL_GPIO_Init+0x2ee>
      {
        /* Enable SYSCFG Clock */
        __HAL_RCC_SYSCFG_CLK_ENABLE();
 800108a:	2300      	movs	r3, #0
 800108c:	60fb      	str	r3, [r7, #12]
 800108e:	4b5f      	ldr	r3, [pc, #380]	; (800120c <HAL_GPIO_Init+0x308>)
 8001090:	6c5b      	ldr	r3, [r3, #68]	; 0x44
 8001092:	4a5e      	ldr	r2, [pc, #376]	; (800120c <HAL_GPIO_Init+0x308>)
 8001094:	f443 4380 	orr.w	r3, r3, #16384	; 0x4000
 8001098:	6453      	str	r3, [r2, #68]	; 0x44
 800109a:	4b5c      	ldr	r3, [pc, #368]	; (800120c <HAL_GPIO_Init+0x308>)
 800109c:	6c5b      	ldr	r3, [r3, #68]	; 0x44
 800109e:	f403 4380 	and.w	r3, r3, #16384	; 0x4000
 80010a2:	60fb      	str	r3, [r7, #12]
 80010a4:	68fb      	ldr	r3, [r7, #12]

        temp = SYSCFG->EXTICR[position >> 2U];
 80010a6:	4a5a      	ldr	r2, [pc, #360]	; (8001210 <HAL_GPIO_Init+0x30c>)
 80010a8:	69fb      	ldr	r3, [r7, #28]
 80010aa:	089b      	lsrs	r3, r3, #2
 80010ac:	3302      	adds	r3, #2
 80010ae:	f852 3023 	ldr.w	r3, [r2, r3, lsl #2]
 80010b2:	61bb      	str	r3, [r7, #24]
        temp &= ~(0x0FU << (4U * (position & 0x03U)));
 80010b4:	69fb      	ldr	r3, [r7, #28]
 80010b6:	f003 0303 	and.w	r3, r3, #3
 80010ba:	009b      	lsls	r3, r3, #2
 80010bc:	220f      	movs	r2, #15
 80010be:	fa02 f303 	lsl.w	r3, r2, r3
 80010c2:	43db      	mvns	r3, r3
 80010c4:	69ba      	ldr	r2, [r7, #24]
 80010c6:	4013      	ands	r3, r2
 80010c8:	61bb      	str	r3, [r7, #24]
        temp |= ((uint32_t)(GPIO_GET_INDEX(GPIOx)) << (4U * (position & 0x03U)));
 80010ca:	687b      	ldr	r3, [r7, #4]
 80010cc:	4a51      	ldr	r2, [pc, #324]	; (8001214 <HAL_GPIO_Init+0x310>)
 80010ce:	4293      	cmp	r3, r2
 80010d0:	d02b      	beq.n	800112a <HAL_GPIO_Init+0x226>
 80010d2:	687b      	ldr	r3, [r7, #4]
 80010d4:	4a50      	ldr	r2, [pc, #320]	; (8001218 <HAL_GPIO_Init+0x314>)
 80010d6:	4293      	cmp	r3, r2
 80010d8:	d025      	beq.n	8001126 <HAL_GPIO_Init+0x222>
 80010da:	687b      	ldr	r3, [r7, #4]
 80010dc:	4a4f      	ldr	r2, [pc, #316]	; (800121c <HAL_GPIO_Init+0x318>)
 80010de:	4293      	cmp	r3, r2
 80010e0:	d01f      	beq.n	8001122 <HAL_GPIO_Init+0x21e>
 80010e2:	687b      	ldr	r3, [r7, #4]
 80010e4:	4a4e      	ldr	r2, [pc, #312]	; (8001220 <HAL_GPIO_Init+0x31c>)
 80010e6:	4293      	cmp	r3, r2
 80010e8:	d019      	beq.n	800111e <HAL_GPIO_Init+0x21a>
 80010ea:	687b      	ldr	r3, [r7, #4]
 80010ec:	4a4d      	ldr	r2, [pc, #308]	; (8001224 <HAL_GPIO_Init+0x320>)
 80010ee:	4293      	cmp	r3, r2
 80010f0:	d013      	beq.n	800111a <HAL_GPIO_Init+0x216>
 80010f2:	687b      	ldr	r3, [r7, #4]
 80010f4:	4a4c      	ldr	r2, [pc, #304]	; (8001228 <HAL_GPIO_Init+0x324>)
 80010f6:	4293      	cmp	r3, r2
 80010f8:	d00d      	beq.n	8001116 <HAL_GPIO_Init+0x212>
 80010fa:	687b      	ldr	r3, [r7, #4]
 80010fc:	4a4b      	ldr	r2, [pc, #300]	; (800122c <HAL_GPIO_Init+0x328>)
 80010fe:	4293      	cmp	r3, r2
 8001100:	d007      	beq.n	8001112 <HAL_GPIO_Init+0x20e>
 8001102:	687b      	ldr	r3, [r7, #4]
 8001104:	4a4a      	ldr	r2, [pc, #296]	; (8001230 <HAL_GPIO_Init+0x32c>)
 8001106:	4293      	cmp	r3, r2
 8001108:	d101      	bne.n	800110e <HAL_GPIO_Init+0x20a>
 800110a:	2307      	movs	r3, #7
 800110c:	e00e      	b.n	800112c <HAL_GPIO_Init+0x228>
 800110e:	2308      	movs	r3, #8
 8001110:	e00c      	b.n	800112c <HAL_GPIO_Init+0x228>
 8001112:	2306      	movs	r3, #6
 8001114:	e00a      	b.n	800112c <HAL_GPIO_Init+0x228>
 8001116:	2305      	movs	r3, #5
 8001118:	e008      	b.n	800112c <HAL_GPIO_Init+0x228>
 800111a:	2304      	movs	r3, #4
 800111c:	e006      	b.n	800112c <HAL_GPIO_Init+0x228>
 800111e:	2303      	movs	r3, #3
 8001120:	e004      	b.n	800112c <HAL_GPIO_Init+0x228>
 8001122:	2302      	movs	r3, #2
 8001124:	e002      	b.n	800112c <HAL_GPIO_Init+0x228>
 8001126:	2301      	movs	r3, #1
 8001128:	e000      	b.n	800112c <HAL_GPIO_Init+0x228>
 800112a:	2300      	movs	r3, #0
 800112c:	69fa      	ldr	r2, [r7, #28]
 800112e:	f002 0203 	and.w	r2, r2, #3
 8001132:	0092      	lsls	r2, r2, #2
 8001134:	4093      	lsls	r3, r2
 8001136:	69ba      	ldr	r2, [r7, #24]
 8001138:	4313      	orrs	r3, r2
 800113a:	61bb      	str	r3, [r7, #24]
        SYSCFG->EXTICR[position >> 2U] = temp;
 800113c:	4934      	ldr	r1, [pc, #208]	; (8001210 <HAL_GPIO_Init+0x30c>)
 800113e:	69fb      	ldr	r3, [r7, #28]
 8001140:	089b      	lsrs	r3, r3, #2
 8001142:	3302      	adds	r3, #2
 8001144:	69ba      	ldr	r2, [r7, #24]
 8001146:	f841 2023 	str.w	r2, [r1, r3, lsl #2]

        /* Clear EXTI line configuration */
        temp = EXTI->IMR;
 800114a:	4b3a      	ldr	r3, [pc, #232]	; (8001234 <HAL_GPIO_Init+0x330>)
 800114c:	681b      	ldr	r3, [r3, #0]
 800114e:	61bb      	str	r3, [r7, #24]
        temp &= ~((uint32_t)iocurrent);
 8001150:	693b      	ldr	r3, [r7, #16]
 8001152:	43db      	mvns	r3, r3
 8001154:	69ba      	ldr	r2, [r7, #24]
 8001156:	4013      	ands	r3, r2
 8001158:	61bb      	str	r3, [r7, #24]
        if((GPIO_Init->Mode & GPIO_MODE_IT) == GPIO_MODE_IT)
 800115a:	683b      	ldr	r3, [r7, #0]
 800115c:	685b      	ldr	r3, [r3, #4]
 800115e:	f403 3380 	and.w	r3, r3, #65536	; 0x10000
 8001162:	2b00      	cmp	r3, #0
 8001164:	d003      	beq.n	800116e <HAL_GPIO_Init+0x26a>
        {
          temp |= iocurrent;
 8001166:	69ba      	ldr	r2, [r7, #24]
 8001168:	693b      	ldr	r3, [r7, #16]
 800116a:	4313      	orrs	r3, r2
 800116c:	61bb      	str	r3, [r7, #24]
        }
        EXTI->IMR = temp;
 800116e:	4a31      	ldr	r2, [pc, #196]	; (8001234 <HAL_GPIO_Init+0x330>)
 8001170:	69bb      	ldr	r3, [r7, #24]
 8001172:	6013      	str	r3, [r2, #0]

        temp = EXTI->EMR;
 8001174:	4b2f      	ldr	r3, [pc, #188]	; (8001234 <HAL_GPIO_Init+0x330>)
 8001176:	685b      	ldr	r3, [r3, #4]
 8001178:	61bb      	str	r3, [r7, #24]
        temp &= ~((uint32_t)iocurrent);
 800117a:	693b      	ldr	r3, [r7, #16]
 800117c:	43db      	mvns	r3, r3
 800117e:	69ba      	ldr	r2, [r7, #24]
 8001180:	4013      	ands	r3, r2
 8001182:	61bb      	str	r3, [r7, #24]
        if((GPIO_Init->Mode & GPIO_MODE_EVT) == GPIO_MODE_EVT)
 8001184:	683b      	ldr	r3, [r7, #0]
 8001186:	685b      	ldr	r3, [r3, #4]
 8001188:	f403 3300 	and.w	r3, r3, #131072	; 0x20000
 800118c:	2b00      	cmp	r3, #0
 800118e:	d003      	beq.n	8001198 <HAL_GPIO_Init+0x294>
        {
          temp |= iocurrent;
 8001190:	69ba      	ldr	r2, [r7, #24]
 8001192:	693b      	ldr	r3, [r7, #16]
 8001194:	4313      	orrs	r3, r2
 8001196:	61bb      	str	r3, [r7, #24]
        }
        EXTI->EMR = temp;
 8001198:	4a26      	ldr	r2, [pc, #152]	; (8001234 <HAL_GPIO_Init+0x330>)
 800119a:	69bb      	ldr	r3, [r7, #24]
 800119c:	6053      	str	r3, [r2, #4]

        /* Clear Rising Falling edge configuration */
        temp = EXTI->RTSR;
 800119e:	4b25      	ldr	r3, [pc, #148]	; (8001234 <HAL_GPIO_Init+0x330>)
 80011a0:	689b      	ldr	r3, [r3, #8]
 80011a2:	61bb      	str	r3, [r7, #24]
        temp &= ~((uint32_t)iocurrent);
 80011a4:	693b      	ldr	r3, [r7, #16]
 80011a6:	43db      	mvns	r3, r3
 80011a8:	69ba      	ldr	r2, [r7, #24]
 80011aa:	4013      	ands	r3, r2
 80011ac:	61bb      	str	r3, [r7, #24]
        if((GPIO_Init->Mode & RISING_EDGE) == RISING_EDGE)
 80011ae:	683b      	ldr	r3, [r7, #0]
 80011b0:	685b      	ldr	r3, [r3, #4]
 80011b2:	f403 1380 	and.w	r3, r3, #1048576	; 0x100000
 80011b6:	2b00      	cmp	r3, #0
 80011b8:	d003      	beq.n	80011c2 <HAL_GPIO_Init+0x2be>
        {
          temp |= iocurrent;
 80011ba:	69ba      	ldr	r2, [r7, #24]
 80011bc:	693b      	ldr	r3, [r7, #16]
 80011be:	4313      	orrs	r3, r2
 80011c0:	61bb      	str	r3, [r7, #24]
        }
        EXTI->RTSR = temp;
 80011c2:	4a1c      	ldr	r2, [pc, #112]	; (8001234 <HAL_GPIO_Init+0x330>)
 80011c4:	69bb      	ldr	r3, [r7, #24]
 80011c6:	6093      	str	r3, [r2, #8]

        temp = EXTI->FTSR;
 80011c8:	4b1a      	ldr	r3, [pc, #104]	; (8001234 <HAL_GPIO_Init+0x330>)
 80011ca:	68db      	ldr	r3, [r3, #12]
 80011cc:	61bb      	str	r3, [r7, #24]
        temp &= ~((uint32_t)iocurrent);
 80011ce:	693b      	ldr	r3, [r7, #16]
 80011d0:	43db      	mvns	r3, r3
 80011d2:	69ba      	ldr	r2, [r7, #24]
 80011d4:	4013      	ands	r3, r2
 80011d6:	61bb      	str	r3, [r7, #24]
        if((GPIO_Init->Mode & FALLING_EDGE) == FALLING_EDGE)
 80011d8:	683b      	ldr	r3, [r7, #0]
 80011da:	685b      	ldr	r3, [r3, #4]
 80011dc:	f403 1300 	and.w	r3, r3, #2097152	; 0x200000
 80011e0:	2b00      	cmp	r3, #0
 80011e2:	d003      	beq.n	80011ec <HAL_GPIO_Init+0x2e8>
        {
          temp |= iocurrent;
 80011e4:	69ba      	ldr	r2, [r7, #24]
 80011e6:	693b      	ldr	r3, [r7, #16]
 80011e8:	4313      	orrs	r3, r2
 80011ea:	61bb      	str	r3, [r7, #24]
        }
        EXTI->FTSR = temp;
 80011ec:	4a11      	ldr	r2, [pc, #68]	; (8001234 <HAL_GPIO_Init+0x330>)
 80011ee:	69bb      	ldr	r3, [r7, #24]
 80011f0:	60d3      	str	r3, [r2, #12]
  for(position = 0U; position < GPIO_NUMBER; position++)
 80011f2:	69fb      	ldr	r3, [r7, #28]
 80011f4:	3301      	adds	r3, #1
 80011f6:	61fb      	str	r3, [r7, #28]
 80011f8:	69fb      	ldr	r3, [r7, #28]
 80011fa:	2b0f      	cmp	r3, #15
 80011fc:	f67f ae90 	bls.w	8000f20 <HAL_GPIO_Init+0x1c>
      }
    }
  }
}
 8001200:	bf00      	nop
 8001202:	3724      	adds	r7, #36	; 0x24
 8001204:	46bd      	mov	sp, r7
 8001206:	f85d 7b04 	ldr.w	r7, [sp], #4
 800120a:	4770      	bx	lr
 800120c:	40023800 	.word	0x40023800
 8001210:	40013800 	.word	0x40013800
 8001214:	40020000 	.word	0x40020000
 8001218:	40020400 	.word	0x40020400
 800121c:	40020800 	.word	0x40020800
 8001220:	40020c00 	.word	0x40020c00
 8001224:	40021000 	.word	0x40021000
 8001228:	40021400 	.word	0x40021400
 800122c:	40021800 	.word	0x40021800
 8001230:	40021c00 	.word	0x40021c00
 8001234:	40013c00 	.word	0x40013c00

08001238 <HAL_GPIO_WritePin>:
  *            @arg GPIO_PIN_RESET: to clear the port pin
  *            @arg GPIO_PIN_SET: to set the port pin
  * @retval None
  */
void HAL_GPIO_WritePin(GPIO_TypeDef* GPIOx, uint16_t GPIO_Pin, GPIO_PinState PinState)
{
 8001238:	b480      	push	{r7}
 800123a:	b083      	sub	sp, #12
 800123c:	af00      	add	r7, sp, #0
 800123e:	6078      	str	r0, [r7, #4]
 8001240:	460b      	mov	r3, r1
 8001242:	807b      	strh	r3, [r7, #2]
 8001244:	4613      	mov	r3, r2
 8001246:	707b      	strb	r3, [r7, #1]
  /* Check the parameters */
  assert_param(IS_GPIO_PIN(GPIO_Pin));
  assert_param(IS_GPIO_PIN_ACTION(PinState));

  if(PinState != GPIO_PIN_RESET)
 8001248:	787b      	ldrb	r3, [r7, #1]
 800124a:	2b00      	cmp	r3, #0
 800124c:	d003      	beq.n	8001256 <HAL_GPIO_WritePin+0x1e>
  {
    GPIOx->BSRR = GPIO_Pin;
 800124e:	887a      	ldrh	r2, [r7, #2]
 8001250:	687b      	ldr	r3, [r7, #4]
 8001252:	619a      	str	r2, [r3, #24]
  }
  else
  {
    GPIOx->BSRR = (uint32_t)GPIO_Pin << 16U;
  }
}
 8001254:	e003      	b.n	800125e <HAL_GPIO_WritePin+0x26>
    GPIOx->BSRR = (uint32_t)GPIO_Pin << 16U;
 8001256:	887b      	ldrh	r3, [r7, #2]
 8001258:	041a      	lsls	r2, r3, #16
 800125a:	687b      	ldr	r3, [r7, #4]
 800125c:	619a      	str	r2, [r3, #24]
}
 800125e:	bf00      	nop
 8001260:	370c      	adds	r7, #12
 8001262:	46bd      	mov	sp, r7
 8001264:	f85d 7b04 	ldr.w	r7, [sp], #4
 8001268:	4770      	bx	lr

0800126a <HAL_GPIO_TogglePin>:
  *                      x can be (A..I) to select the GPIO peripheral for STM32F40XX and STM32F427X devices.
  * @param  GPIO_Pin Specifies the pins to be toggled.
  * @retval None
  */
void HAL_GPIO_TogglePin(GPIO_TypeDef* GPIOx, uint16_t GPIO_Pin)
{
 800126a:	b480      	push	{r7}
 800126c:	b083      	sub	sp, #12
 800126e:	af00      	add	r7, sp, #0
 8001270:	6078      	str	r0, [r7, #4]
 8001272:	460b      	mov	r3, r1
 8001274:	807b      	strh	r3, [r7, #2]
  /* Check the parameters */
  assert_param(IS_GPIO_PIN(GPIO_Pin));

  if ((GPIOx->ODR & GPIO_Pin) == GPIO_Pin)
 8001276:	687b      	ldr	r3, [r7, #4]
 8001278:	695a      	ldr	r2, [r3, #20]
 800127a:	887b      	ldrh	r3, [r7, #2]
 800127c:	401a      	ands	r2, r3
 800127e:	887b      	ldrh	r3, [r7, #2]
 8001280:	429a      	cmp	r2, r3
 8001282:	d104      	bne.n	800128e <HAL_GPIO_TogglePin+0x24>
  {
    GPIOx->BSRR = (uint32_t)GPIO_Pin << GPIO_NUMBER;
 8001284:	887b      	ldrh	r3, [r7, #2]
 8001286:	041a      	lsls	r2, r3, #16
 8001288:	687b      	ldr	r3, [r7, #4]
 800128a:	619a      	str	r2, [r3, #24]
  }
  else
  {
    GPIOx->BSRR = GPIO_Pin;
  }
}
 800128c:	e002      	b.n	8001294 <HAL_GPIO_TogglePin+0x2a>
    GPIOx->BSRR = GPIO_Pin;
 800128e:	887a      	ldrh	r2, [r7, #2]
 8001290:	687b      	ldr	r3, [r7, #4]
 8001292:	619a      	str	r2, [r3, #24]
}
 8001294:	bf00      	nop
 8001296:	370c      	adds	r7, #12
 8001298:	46bd      	mov	sp, r7
 800129a:	f85d 7b04 	ldr.w	r7, [sp], #4
 800129e:	4770      	bx	lr

080012a0 <HAL_RCC_OscConfig>:
  *         supported by this API. User should request a transition to HSE Off
  *         first and then HSE On or HSE Bypass.
  * @retval HAL status
  */
__weak HAL_StatusTypeDef HAL_RCC_OscConfig(RCC_OscInitTypeDef  *RCC_OscInitStruct)
{
 80012a0:	b580      	push	{r7, lr}
 80012a2:	b086      	sub	sp, #24
 80012a4:	af00      	add	r7, sp, #0
 80012a6:	6078      	str	r0, [r7, #4]
  uint32_t tickstart, pll_config;

  /* Check Null pointer */
  if(RCC_OscInitStruct == NULL)
 80012a8:	687b      	ldr	r3, [r7, #4]
 80012aa:	2b00      	cmp	r3, #0
 80012ac:	d101      	bne.n	80012b2 <HAL_RCC_OscConfig+0x12>
  {
    return HAL_ERROR;
 80012ae:	2301      	movs	r3, #1
 80012b0:	e25b      	b.n	800176a <HAL_RCC_OscConfig+0x4ca>
  }

  /* Check the parameters */
  assert_param(IS_RCC_OSCILLATORTYPE(RCC_OscInitStruct->OscillatorType));
  /*------------------------------- HSE Configuration ------------------------*/
  if(((RCC_OscInitStruct->OscillatorType) & RCC_OSCILLATORTYPE_HSE) == RCC_OSCILLATORTYPE_HSE)
 80012b2:	687b      	ldr	r3, [r7, #4]
 80012b4:	681b      	ldr	r3, [r3, #0]
 80012b6:	f003 0301 	and.w	r3, r3, #1
 80012ba:	2b00      	cmp	r3, #0
 80012bc:	d075      	beq.n	80013aa <HAL_RCC_OscConfig+0x10a>
  {
    /* Check the parameters */
    assert_param(IS_RCC_HSE(RCC_OscInitStruct->HSEState));
    /* When the HSE is used as system clock or clock source for PLL in these cases HSE will not disabled */
    if((__HAL_RCC_GET_SYSCLK_SOURCE() == RCC_CFGR_SWS_HSE) ||\
 80012be:	4ba3      	ldr	r3, [pc, #652]	; (800154c <HAL_RCC_OscConfig+0x2ac>)
 80012c0:	689b      	ldr	r3, [r3, #8]
 80012c2:	f003 030c 	and.w	r3, r3, #12
 80012c6:	2b04      	cmp	r3, #4
 80012c8:	d00c      	beq.n	80012e4 <HAL_RCC_OscConfig+0x44>
      ((__HAL_RCC_GET_SYSCLK_SOURCE() == RCC_CFGR_SWS_PLL) && ((RCC->PLLCFGR & RCC_PLLCFGR_PLLSRC) == RCC_PLLCFGR_PLLSRC_HSE)))
 80012ca:	4ba0      	ldr	r3, [pc, #640]	; (800154c <HAL_RCC_OscConfig+0x2ac>)
 80012cc:	689b      	ldr	r3, [r3, #8]
 80012ce:	f003 030c 	and.w	r3, r3, #12
    if((__HAL_RCC_GET_SYSCLK_SOURCE() == RCC_CFGR_SWS_HSE) ||\
 80012d2:	2b08      	cmp	r3, #8
 80012d4:	d112      	bne.n	80012fc <HAL_RCC_OscConfig+0x5c>
      ((__HAL_RCC_GET_SYSCLK_SOURCE() == RCC_CFGR_SWS_PLL) && ((RCC->PLLCFGR & RCC_PLLCFGR_PLLSRC) == RCC_PLLCFGR_PLLSRC_HSE)))
 80012d6:	4b9d      	ldr	r3, [pc, #628]	; (800154c <HAL_RCC_OscConfig+0x2ac>)
 80012d8:	685b      	ldr	r3, [r3, #4]
 80012da:	f403 0380 	and.w	r3, r3, #4194304	; 0x400000
 80012de:	f5b3 0f80 	cmp.w	r3, #4194304	; 0x400000
 80012e2:	d10b      	bne.n	80012fc <HAL_RCC_OscConfig+0x5c>
    {
      if((__HAL_RCC_GET_FLAG(RCC_FLAG_HSERDY) != RESET) && (RCC_OscInitStruct->HSEState == RCC_HSE_OFF))
 80012e4:	4b99      	ldr	r3, [pc, #612]	; (800154c <HAL_RCC_OscConfig+0x2ac>)
 80012e6:	681b      	ldr	r3, [r3, #0]
 80012e8:	f403 3300 	and.w	r3, r3, #131072	; 0x20000
 80012ec:	2b00      	cmp	r3, #0
 80012ee:	d05b      	beq.n	80013a8 <HAL_RCC_OscConfig+0x108>
 80012f0:	687b      	ldr	r3, [r7, #4]
 80012f2:	685b      	ldr	r3, [r3, #4]
 80012f4:	2b00      	cmp	r3, #0
 80012f6:	d157      	bne.n	80013a8 <HAL_RCC_OscConfig+0x108>
      {
        return HAL_ERROR;
 80012f8:	2301      	movs	r3, #1
 80012fa:	e236      	b.n	800176a <HAL_RCC_OscConfig+0x4ca>
      }
    }
    else
    {
      /* Set the new HSE configuration ---------------------------------------*/
      __HAL_RCC_HSE_CONFIG(RCC_OscInitStruct->HSEState);
 80012fc:	687b      	ldr	r3, [r7, #4]
 80012fe:	685b      	ldr	r3, [r3, #4]
 8001300:	f5b3 3f80 	cmp.w	r3, #65536	; 0x10000
 8001304:	d106      	bne.n	8001314 <HAL_RCC_OscConfig+0x74>
 8001306:	4b91      	ldr	r3, [pc, #580]	; (800154c <HAL_RCC_OscConfig+0x2ac>)
 8001308:	681b      	ldr	r3, [r3, #0]
 800130a:	4a90      	ldr	r2, [pc, #576]	; (800154c <HAL_RCC_OscConfig+0x2ac>)
 800130c:	f443 3380 	orr.w	r3, r3, #65536	; 0x10000
 8001310:	6013      	str	r3, [r2, #0]
 8001312:	e01d      	b.n	8001350 <HAL_RCC_OscConfig+0xb0>
 8001314:	687b      	ldr	r3, [r7, #4]
 8001316:	685b      	ldr	r3, [r3, #4]
 8001318:	f5b3 2fa0 	cmp.w	r3, #327680	; 0x50000
 800131c:	d10c      	bne.n	8001338 <HAL_RCC_OscConfig+0x98>
 800131e:	4b8b      	ldr	r3, [pc, #556]	; (800154c <HAL_RCC_OscConfig+0x2ac>)
 8001320:	681b      	ldr	r3, [r3, #0]
 8001322:	4a8a      	ldr	r2, [pc, #552]	; (800154c <HAL_RCC_OscConfig+0x2ac>)
 8001324:	f443 2380 	orr.w	r3, r3, #262144	; 0x40000
 8001328:	6013      	str	r3, [r2, #0]
 800132a:	4b88      	ldr	r3, [pc, #544]	; (800154c <HAL_RCC_OscConfig+0x2ac>)
 800132c:	681b      	ldr	r3, [r3, #0]
 800132e:	4a87      	ldr	r2, [pc, #540]	; (800154c <HAL_RCC_OscConfig+0x2ac>)
 8001330:	f443 3380 	orr.w	r3, r3, #65536	; 0x10000
 8001334:	6013      	str	r3, [r2, #0]
 8001336:	e00b      	b.n	8001350 <HAL_RCC_OscConfig+0xb0>
 8001338:	4b84      	ldr	r3, [pc, #528]	; (800154c <HAL_RCC_OscConfig+0x2ac>)
 800133a:	681b      	ldr	r3, [r3, #0]
 800133c:	4a83      	ldr	r2, [pc, #524]	; (800154c <HAL_RCC_OscConfig+0x2ac>)
 800133e:	f423 3380 	bic.w	r3, r3, #65536	; 0x10000
 8001342:	6013      	str	r3, [r2, #0]
 8001344:	4b81      	ldr	r3, [pc, #516]	; (800154c <HAL_RCC_OscConfig+0x2ac>)
 8001346:	681b      	ldr	r3, [r3, #0]
 8001348:	4a80      	ldr	r2, [pc, #512]	; (800154c <HAL_RCC_OscConfig+0x2ac>)
 800134a:	f423 2380 	bic.w	r3, r3, #262144	; 0x40000
 800134e:	6013      	str	r3, [r2, #0]

      /* Check the HSE State */
      if((RCC_OscInitStruct->HSEState) != RCC_HSE_OFF)
 8001350:	687b      	ldr	r3, [r7, #4]
 8001352:	685b      	ldr	r3, [r3, #4]
 8001354:	2b00      	cmp	r3, #0
 8001356:	d013      	beq.n	8001380 <HAL_RCC_OscConfig+0xe0>
      {
        /* Get Start Tick */
        tickstart = HAL_GetTick();
 8001358:	f7ff fc94 	bl	8000c84 <HAL_GetTick>
 800135c:	6138      	str	r0, [r7, #16]

        /* Wait till HSE is ready */
        while(__HAL_RCC_GET_FLAG(RCC_FLAG_HSERDY) == RESET)
 800135e:	e008      	b.n	8001372 <HAL_RCC_OscConfig+0xd2>
        {
          if((HAL_GetTick() - tickstart ) > HSE_TIMEOUT_VALUE)
 8001360:	f7ff fc90 	bl	8000c84 <HAL_GetTick>
 8001364:	4602      	mov	r2, r0
 8001366:	693b      	ldr	r3, [r7, #16]
 8001368:	1ad3      	subs	r3, r2, r3
 800136a:	2b64      	cmp	r3, #100	; 0x64
 800136c:	d901      	bls.n	8001372 <HAL_RCC_OscConfig+0xd2>
          {
            return HAL_TIMEOUT;
 800136e:	2303      	movs	r3, #3
 8001370:	e1fb      	b.n	800176a <HAL_RCC_OscConfig+0x4ca>
        while(__HAL_RCC_GET_FLAG(RCC_FLAG_HSERDY) == RESET)
 8001372:	4b76      	ldr	r3, [pc, #472]	; (800154c <HAL_RCC_OscConfig+0x2ac>)
 8001374:	681b      	ldr	r3, [r3, #0]
 8001376:	f403 3300 	and.w	r3, r3, #131072	; 0x20000
 800137a:	2b00      	cmp	r3, #0
 800137c:	d0f0      	beq.n	8001360 <HAL_RCC_OscConfig+0xc0>
 800137e:	e014      	b.n	80013aa <HAL_RCC_OscConfig+0x10a>
        }
      }
      else
      {
        /* Get Start Tick */
        tickstart = HAL_GetTick();
 8001380:	f7ff fc80 	bl	8000c84 <HAL_GetTick>
 8001384:	6138      	str	r0, [r7, #16]

        /* Wait till HSE is bypassed or disabled */
        while(__HAL_RCC_GET_FLAG(RCC_FLAG_HSERDY) != RESET)
 8001386:	e008      	b.n	800139a <HAL_RCC_OscConfig+0xfa>
        {
          if((HAL_GetTick() - tickstart ) > HSE_TIMEOUT_VALUE)
 8001388:	f7ff fc7c 	bl	8000c84 <HAL_GetTick>
 800138c:	4602      	mov	r2, r0
 800138e:	693b      	ldr	r3, [r7, #16]
 8001390:	1ad3      	subs	r3, r2, r3
 8001392:	2b64      	cmp	r3, #100	; 0x64
 8001394:	d901      	bls.n	800139a <HAL_RCC_OscConfig+0xfa>
          {
            return HAL_TIMEOUT;
 8001396:	2303      	movs	r3, #3
 8001398:	e1e7      	b.n	800176a <HAL_RCC_OscConfig+0x4ca>
        while(__HAL_RCC_GET_FLAG(RCC_FLAG_HSERDY) != RESET)
 800139a:	4b6c      	ldr	r3, [pc, #432]	; (800154c <HAL_RCC_OscConfig+0x2ac>)
 800139c:	681b      	ldr	r3, [r3, #0]
 800139e:	f403 3300 	and.w	r3, r3, #131072	; 0x20000
 80013a2:	2b00      	cmp	r3, #0
 80013a4:	d1f0      	bne.n	8001388 <HAL_RCC_OscConfig+0xe8>
 80013a6:	e000      	b.n	80013aa <HAL_RCC_OscConfig+0x10a>
      if((__HAL_RCC_GET_FLAG(RCC_FLAG_HSERDY) != RESET) && (RCC_OscInitStruct->HSEState == RCC_HSE_OFF))
 80013a8:	bf00      	nop
        }
      }
    }
  }
  /*----------------------------- HSI Configuration --------------------------*/
  if(((RCC_OscInitStruct->OscillatorType) & RCC_OSCILLATORTYPE_HSI) == RCC_OSCILLATORTYPE_HSI)
 80013aa:	687b      	ldr	r3, [r7, #4]
 80013ac:	681b      	ldr	r3, [r3, #0]
 80013ae:	f003 0302 	and.w	r3, r3, #2
 80013b2:	2b00      	cmp	r3, #0
 80013b4:	d063      	beq.n	800147e <HAL_RCC_OscConfig+0x1de>
    /* Check the parameters */
    assert_param(IS_RCC_HSI(RCC_OscInitStruct->HSIState));
    assert_param(IS_RCC_CALIBRATION_VALUE(RCC_OscInitStruct->HSICalibrationValue));

    /* Check if HSI is used as system clock or as PLL source when PLL is selected as system clock */
    if((__HAL_RCC_GET_SYSCLK_SOURCE() == RCC_CFGR_SWS_HSI) ||\
 80013b6:	4b65      	ldr	r3, [pc, #404]	; (800154c <HAL_RCC_OscConfig+0x2ac>)
 80013b8:	689b      	ldr	r3, [r3, #8]
 80013ba:	f003 030c 	and.w	r3, r3, #12
 80013be:	2b00      	cmp	r3, #0
 80013c0:	d00b      	beq.n	80013da <HAL_RCC_OscConfig+0x13a>
      ((__HAL_RCC_GET_SYSCLK_SOURCE() == RCC_CFGR_SWS_PLL) && ((RCC->PLLCFGR & RCC_PLLCFGR_PLLSRC) == RCC_PLLCFGR_PLLSRC_HSI)))
 80013c2:	4b62      	ldr	r3, [pc, #392]	; (800154c <HAL_RCC_OscConfig+0x2ac>)
 80013c4:	689b      	ldr	r3, [r3, #8]
 80013c6:	f003 030c 	and.w	r3, r3, #12
    if((__HAL_RCC_GET_SYSCLK_SOURCE() == RCC_CFGR_SWS_HSI) ||\
 80013ca:	2b08      	cmp	r3, #8
 80013cc:	d11c      	bne.n	8001408 <HAL_RCC_OscConfig+0x168>
      ((__HAL_RCC_GET_SYSCLK_SOURCE() == RCC_CFGR_SWS_PLL) && ((RCC->PLLCFGR & RCC_PLLCFGR_PLLSRC) == RCC_PLLCFGR_PLLSRC_HSI)))
 80013ce:	4b5f      	ldr	r3, [pc, #380]	; (800154c <HAL_RCC_OscConfig+0x2ac>)
 80013d0:	685b      	ldr	r3, [r3, #4]
 80013d2:	f403 0380 	and.w	r3, r3, #4194304	; 0x400000
 80013d6:	2b00      	cmp	r3, #0
 80013d8:	d116      	bne.n	8001408 <HAL_RCC_OscConfig+0x168>
    {
      /* When HSI is used as system clock it will not disabled */
      if((__HAL_RCC_GET_FLAG(RCC_FLAG_HSIRDY) != RESET) && (RCC_OscInitStruct->HSIState != RCC_HSI_ON))
 80013da:	4b5c      	ldr	r3, [pc, #368]	; (800154c <HAL_RCC_OscConfig+0x2ac>)
 80013dc:	681b      	ldr	r3, [r3, #0]
 80013de:	f003 0302 	and.w	r3, r3, #2
 80013e2:	2b00      	cmp	r3, #0
 80013e4:	d005      	beq.n	80013f2 <HAL_RCC_OscConfig+0x152>
 80013e6:	687b      	ldr	r3, [r7, #4]
 80013e8:	68db      	ldr	r3, [r3, #12]
 80013ea:	2b01      	cmp	r3, #1
 80013ec:	d001      	beq.n	80013f2 <HAL_RCC_OscConfig+0x152>
      {
        return HAL_ERROR;
 80013ee:	2301      	movs	r3, #1
 80013f0:	e1bb      	b.n	800176a <HAL_RCC_OscConfig+0x4ca>
      }
      /* Otherwise, just the calibration is allowed */
      else
      {
        /* Adjusts the Internal High Speed oscillator (HSI) calibration value.*/
        __HAL_RCC_HSI_CALIBRATIONVALUE_ADJUST(RCC_OscInitStruct->HSICalibrationValue);
 80013f2:	4b56      	ldr	r3, [pc, #344]	; (800154c <HAL_RCC_OscConfig+0x2ac>)
 80013f4:	681b      	ldr	r3, [r3, #0]
 80013f6:	f023 02f8 	bic.w	r2, r3, #248	; 0xf8
 80013fa:	687b      	ldr	r3, [r7, #4]
 80013fc:	691b      	ldr	r3, [r3, #16]
 80013fe:	00db      	lsls	r3, r3, #3
 8001400:	4952      	ldr	r1, [pc, #328]	; (800154c <HAL_RCC_OscConfig+0x2ac>)
 8001402:	4313      	orrs	r3, r2
 8001404:	600b      	str	r3, [r1, #0]
      if((__HAL_RCC_GET_FLAG(RCC_FLAG_HSIRDY) != RESET) && (RCC_OscInitStruct->HSIState != RCC_HSI_ON))
 8001406:	e03a      	b.n	800147e <HAL_RCC_OscConfig+0x1de>
      }
    }
    else
    {
      /* Check the HSI State */
      if((RCC_OscInitStruct->HSIState)!= RCC_HSI_OFF)
 8001408:	687b      	ldr	r3, [r7, #4]
 800140a:	68db      	ldr	r3, [r3, #12]
 800140c:	2b00      	cmp	r3, #0
 800140e:	d020      	beq.n	8001452 <HAL_RCC_OscConfig+0x1b2>
      {
        /* Enable the Internal High Speed oscillator (HSI). */
        __HAL_RCC_HSI_ENABLE();
 8001410:	4b4f      	ldr	r3, [pc, #316]	; (8001550 <HAL_RCC_OscConfig+0x2b0>)
 8001412:	2201      	movs	r2, #1
 8001414:	601a      	str	r2, [r3, #0]

        /* Get Start Tick*/
        tickstart = HAL_GetTick();
 8001416:	f7ff fc35 	bl	8000c84 <HAL_GetTick>
 800141a:	6138      	str	r0, [r7, #16]

        /* Wait till HSI is ready */
        while(__HAL_RCC_GET_FLAG(RCC_FLAG_HSIRDY) == RESET)
 800141c:	e008      	b.n	8001430 <HAL_RCC_OscConfig+0x190>
        {
          if((HAL_GetTick() - tickstart ) > HSI_TIMEOUT_VALUE)
 800141e:	f7ff fc31 	bl	8000c84 <HAL_GetTick>
 8001422:	4602      	mov	r2, r0
 8001424:	693b      	ldr	r3, [r7, #16]
 8001426:	1ad3      	subs	r3, r2, r3
 8001428:	2b02      	cmp	r3, #2
 800142a:	d901      	bls.n	8001430 <HAL_RCC_OscConfig+0x190>
          {
            return HAL_TIMEOUT;
 800142c:	2303      	movs	r3, #3
 800142e:	e19c      	b.n	800176a <HAL_RCC_OscConfig+0x4ca>
        while(__HAL_RCC_GET_FLAG(RCC_FLAG_HSIRDY) == RESET)
 8001430:	4b46      	ldr	r3, [pc, #280]	; (800154c <HAL_RCC_OscConfig+0x2ac>)
 8001432:	681b      	ldr	r3, [r3, #0]
 8001434:	f003 0302 	and.w	r3, r3, #2
 8001438:	2b00      	cmp	r3, #0
 800143a:	d0f0      	beq.n	800141e <HAL_RCC_OscConfig+0x17e>
          }
        }

        /* Adjusts the Internal High Speed oscillator (HSI) calibration value. */
        __HAL_RCC_HSI_CALIBRATIONVALUE_ADJUST(RCC_OscInitStruct->HSICalibrationValue);
 800143c:	4b43      	ldr	r3, [pc, #268]	; (800154c <HAL_RCC_OscConfig+0x2ac>)
 800143e:	681b      	ldr	r3, [r3, #0]
 8001440:	f023 02f8 	bic.w	r2, r3, #248	; 0xf8
 8001444:	687b      	ldr	r3, [r7, #4]
 8001446:	691b      	ldr	r3, [r3, #16]
 8001448:	00db      	lsls	r3, r3, #3
 800144a:	4940      	ldr	r1, [pc, #256]	; (800154c <HAL_RCC_OscConfig+0x2ac>)
 800144c:	4313      	orrs	r3, r2
 800144e:	600b      	str	r3, [r1, #0]
 8001450:	e015      	b.n	800147e <HAL_RCC_OscConfig+0x1de>
      }
      else
      {
        /* Disable the Internal High Speed oscillator (HSI). */
        __HAL_RCC_HSI_DISABLE();
 8001452:	4b3f      	ldr	r3, [pc, #252]	; (8001550 <HAL_RCC_OscConfig+0x2b0>)
 8001454:	2200      	movs	r2, #0
 8001456:	601a      	str	r2, [r3, #0]

        /* Get Start Tick*/
        tickstart = HAL_GetTick();
 8001458:	f7ff fc14 	bl	8000c84 <HAL_GetTick>
 800145c:	6138      	str	r0, [r7, #16]

        /* Wait till HSI is ready */
        while(__HAL_RCC_GET_FLAG(RCC_FLAG_HSIRDY) != RESET)
 800145e:	e008      	b.n	8001472 <HAL_RCC_OscConfig+0x1d2>
        {
          if((HAL_GetTick() - tickstart ) > HSI_TIMEOUT_VALUE)
 8001460:	f7ff fc10 	bl	8000c84 <HAL_GetTick>
 8001464:	4602      	mov	r2, r0
 8001466:	693b      	ldr	r3, [r7, #16]
 8001468:	1ad3      	subs	r3, r2, r3
 800146a:	2b02      	cmp	r3, #2
 800146c:	d901      	bls.n	8001472 <HAL_RCC_OscConfig+0x1d2>
          {
            return HAL_TIMEOUT;
 800146e:	2303      	movs	r3, #3
 8001470:	e17b      	b.n	800176a <HAL_RCC_OscConfig+0x4ca>
        while(__HAL_RCC_GET_FLAG(RCC_FLAG_HSIRDY) != RESET)
 8001472:	4b36      	ldr	r3, [pc, #216]	; (800154c <HAL_RCC_OscConfig+0x2ac>)
 8001474:	681b      	ldr	r3, [r3, #0]
 8001476:	f003 0302 	and.w	r3, r3, #2
 800147a:	2b00      	cmp	r3, #0
 800147c:	d1f0      	bne.n	8001460 <HAL_RCC_OscConfig+0x1c0>
        }
      }
    }
  }
  /*------------------------------ LSI Configuration -------------------------*/
  if(((RCC_OscInitStruct->OscillatorType) & RCC_OSCILLATORTYPE_LSI) == RCC_OSCILLATORTYPE_LSI)
 800147e:	687b      	ldr	r3, [r7, #4]
 8001480:	681b      	ldr	r3, [r3, #0]
 8001482:	f003 0308 	and.w	r3, r3, #8
 8001486:	2b00      	cmp	r3, #0
 8001488:	d030      	beq.n	80014ec <HAL_RCC_OscConfig+0x24c>
  {
    /* Check the parameters */
    assert_param(IS_RCC_LSI(RCC_OscInitStruct->LSIState));

    /* Check the LSI State */
    if((RCC_OscInitStruct->LSIState)!= RCC_LSI_OFF)
 800148a:	687b      	ldr	r3, [r7, #4]
 800148c:	695b      	ldr	r3, [r3, #20]
 800148e:	2b00      	cmp	r3, #0
 8001490:	d016      	beq.n	80014c0 <HAL_RCC_OscConfig+0x220>
    {
      /* Enable the Internal Low Speed oscillator (LSI). */
      __HAL_RCC_LSI_ENABLE();
 8001492:	4b30      	ldr	r3, [pc, #192]	; (8001554 <HAL_RCC_OscConfig+0x2b4>)
 8001494:	2201      	movs	r2, #1
 8001496:	601a      	str	r2, [r3, #0]

      /* Get Start Tick*/
      tickstart = HAL_GetTick();
 8001498:	f7ff fbf4 	bl	8000c84 <HAL_GetTick>
 800149c:	6138      	str	r0, [r7, #16]

      /* Wait till LSI is ready */
      while(__HAL_RCC_GET_FLAG(RCC_FLAG_LSIRDY) == RESET)
 800149e:	e008      	b.n	80014b2 <HAL_RCC_OscConfig+0x212>
      {
        if((HAL_GetTick() - tickstart ) > LSI_TIMEOUT_VALUE)
 80014a0:	f7ff fbf0 	bl	8000c84 <HAL_GetTick>
 80014a4:	4602      	mov	r2, r0
 80014a6:	693b      	ldr	r3, [r7, #16]
 80014a8:	1ad3      	subs	r3, r2, r3
 80014aa:	2b02      	cmp	r3, #2
 80014ac:	d901      	bls.n	80014b2 <HAL_RCC_OscConfig+0x212>
        {
          return HAL_TIMEOUT;
 80014ae:	2303      	movs	r3, #3
 80014b0:	e15b      	b.n	800176a <HAL_RCC_OscConfig+0x4ca>
      while(__HAL_RCC_GET_FLAG(RCC_FLAG_LSIRDY) == RESET)
 80014b2:	4b26      	ldr	r3, [pc, #152]	; (800154c <HAL_RCC_OscConfig+0x2ac>)
 80014b4:	6f5b      	ldr	r3, [r3, #116]	; 0x74
 80014b6:	f003 0302 	and.w	r3, r3, #2
 80014ba:	2b00      	cmp	r3, #0
 80014bc:	d0f0      	beq.n	80014a0 <HAL_RCC_OscConfig+0x200>
 80014be:	e015      	b.n	80014ec <HAL_RCC_OscConfig+0x24c>
      }
    }
    else
    {
      /* Disable the Internal Low Speed oscillator (LSI). */
      __HAL_RCC_LSI_DISABLE();
 80014c0:	4b24      	ldr	r3, [pc, #144]	; (8001554 <HAL_RCC_OscConfig+0x2b4>)
 80014c2:	2200      	movs	r2, #0
 80014c4:	601a      	str	r2, [r3, #0]

      /* Get Start Tick */
      tickstart = HAL_GetTick();
 80014c6:	f7ff fbdd 	bl	8000c84 <HAL_GetTick>
 80014ca:	6138      	str	r0, [r7, #16]

      /* Wait till LSI is ready */
      while(__HAL_RCC_GET_FLAG(RCC_FLAG_LSIRDY) != RESET)
 80014cc:	e008      	b.n	80014e0 <HAL_RCC_OscConfig+0x240>
      {
        if((HAL_GetTick() - tickstart ) > LSI_TIMEOUT_VALUE)
 80014ce:	f7ff fbd9 	bl	8000c84 <HAL_GetTick>
 80014d2:	4602      	mov	r2, r0
 80014d4:	693b      	ldr	r3, [r7, #16]
 80014d6:	1ad3      	subs	r3, r2, r3
 80014d8:	2b02      	cmp	r3, #2
 80014da:	d901      	bls.n	80014e0 <HAL_RCC_OscConfig+0x240>
        {
          return HAL_TIMEOUT;
 80014dc:	2303      	movs	r3, #3
 80014de:	e144      	b.n	800176a <HAL_RCC_OscConfig+0x4ca>
      while(__HAL_RCC_GET_FLAG(RCC_FLAG_LSIRDY) != RESET)
 80014e0:	4b1a      	ldr	r3, [pc, #104]	; (800154c <HAL_RCC_OscConfig+0x2ac>)
 80014e2:	6f5b      	ldr	r3, [r3, #116]	; 0x74
 80014e4:	f003 0302 	and.w	r3, r3, #2
 80014e8:	2b00      	cmp	r3, #0
 80014ea:	d1f0      	bne.n	80014ce <HAL_RCC_OscConfig+0x22e>
        }
      }
    }
  }
  /*------------------------------ LSE Configuration -------------------------*/
  if(((RCC_OscInitStruct->OscillatorType) & RCC_OSCILLATORTYPE_LSE) == RCC_OSCILLATORTYPE_LSE)
 80014ec:	687b      	ldr	r3, [r7, #4]
 80014ee:	681b      	ldr	r3, [r3, #0]
 80014f0:	f003 0304 	and.w	r3, r3, #4
 80014f4:	2b00      	cmp	r3, #0
 80014f6:	f000 80a0 	beq.w	800163a <HAL_RCC_OscConfig+0x39a>
  {
    FlagStatus       pwrclkchanged = RESET;
 80014fa:	2300      	movs	r3, #0
 80014fc:	75fb      	strb	r3, [r7, #23]
    /* Check the parameters */
    assert_param(IS_RCC_LSE(RCC_OscInitStruct->LSEState));

    /* Update LSE configuration in Backup Domain control register    */
    /* Requires to enable write access to Backup Domain of necessary */
    if(__HAL_RCC_PWR_IS_CLK_DISABLED())
 80014fe:	4b13      	ldr	r3, [pc, #76]	; (800154c <HAL_RCC_OscConfig+0x2ac>)
 8001500:	6c1b      	ldr	r3, [r3, #64]	; 0x40
 8001502:	f003 5380 	and.w	r3, r3, #268435456	; 0x10000000
 8001506:	2b00      	cmp	r3, #0
 8001508:	d10f      	bne.n	800152a <HAL_RCC_OscConfig+0x28a>
    {
      __HAL_RCC_PWR_CLK_ENABLE();
 800150a:	2300      	movs	r3, #0
 800150c:	60bb      	str	r3, [r7, #8]
 800150e:	4b0f      	ldr	r3, [pc, #60]	; (800154c <HAL_RCC_OscConfig+0x2ac>)
 8001510:	6c1b      	ldr	r3, [r3, #64]	; 0x40
 8001512:	4a0e      	ldr	r2, [pc, #56]	; (800154c <HAL_RCC_OscConfig+0x2ac>)
 8001514:	f043 5380 	orr.w	r3, r3, #268435456	; 0x10000000
 8001518:	6413      	str	r3, [r2, #64]	; 0x40
 800151a:	4b0c      	ldr	r3, [pc, #48]	; (800154c <HAL_RCC_OscConfig+0x2ac>)
 800151c:	6c1b      	ldr	r3, [r3, #64]	; 0x40
 800151e:	f003 5380 	and.w	r3, r3, #268435456	; 0x10000000
 8001522:	60bb      	str	r3, [r7, #8]
 8001524:	68bb      	ldr	r3, [r7, #8]
      pwrclkchanged = SET;
 8001526:	2301      	movs	r3, #1
 8001528:	75fb      	strb	r3, [r7, #23]
    }

    if(HAL_IS_BIT_CLR(PWR->CR, PWR_CR_DBP))
 800152a:	4b0b      	ldr	r3, [pc, #44]	; (8001558 <HAL_RCC_OscConfig+0x2b8>)
 800152c:	681b      	ldr	r3, [r3, #0]
 800152e:	f403 7380 	and.w	r3, r3, #256	; 0x100
 8001532:	2b00      	cmp	r3, #0
 8001534:	d121      	bne.n	800157a <HAL_RCC_OscConfig+0x2da>
    {
      /* Enable write access to Backup domain */
      SET_BIT(PWR->CR, PWR_CR_DBP);
 8001536:	4b08      	ldr	r3, [pc, #32]	; (8001558 <HAL_RCC_OscConfig+0x2b8>)
 8001538:	681b      	ldr	r3, [r3, #0]
 800153a:	4a07      	ldr	r2, [pc, #28]	; (8001558 <HAL_RCC_OscConfig+0x2b8>)
 800153c:	f443 7380 	orr.w	r3, r3, #256	; 0x100
 8001540:	6013      	str	r3, [r2, #0]

      /* Wait for Backup domain Write protection disable */
      tickstart = HAL_GetTick();
 8001542:	f7ff fb9f 	bl	8000c84 <HAL_GetTick>
 8001546:	6138      	str	r0, [r7, #16]

      while(HAL_IS_BIT_CLR(PWR->CR, PWR_CR_DBP))
 8001548:	e011      	b.n	800156e <HAL_RCC_OscConfig+0x2ce>
 800154a:	bf00      	nop
 800154c:	40023800 	.word	0x40023800
 8001550:	42470000 	.word	0x42470000
 8001554:	42470e80 	.word	0x42470e80
 8001558:	40007000 	.word	0x40007000
      {
        if((HAL_GetTick() - tickstart) > RCC_DBP_TIMEOUT_VALUE)
 800155c:	f7ff fb92 	bl	8000c84 <HAL_GetTick>
 8001560:	4602      	mov	r2, r0
 8001562:	693b      	ldr	r3, [r7, #16]
 8001564:	1ad3      	subs	r3, r2, r3
 8001566:	2b02      	cmp	r3, #2
 8001568:	d901      	bls.n	800156e <HAL_RCC_OscConfig+0x2ce>
        {
          return HAL_TIMEOUT;
 800156a:	2303      	movs	r3, #3
 800156c:	e0fd      	b.n	800176a <HAL_RCC_OscConfig+0x4ca>
      while(HAL_IS_BIT_CLR(PWR->CR, PWR_CR_DBP))
 800156e:	4b81      	ldr	r3, [pc, #516]	; (8001774 <HAL_RCC_OscConfig+0x4d4>)
 8001570:	681b      	ldr	r3, [r3, #0]
 8001572:	f403 7380 	and.w	r3, r3, #256	; 0x100
 8001576:	2b00      	cmp	r3, #0
 8001578:	d0f0      	beq.n	800155c <HAL_RCC_OscConfig+0x2bc>
        }
      }
    }

    /* Set the new LSE configuration -----------------------------------------*/
    __HAL_RCC_LSE_CONFIG(RCC_OscInitStruct->LSEState);
 800157a:	687b      	ldr	r3, [r7, #4]
 800157c:	689b      	ldr	r3, [r3, #8]
 800157e:	2b01      	cmp	r3, #1
 8001580:	d106      	bne.n	8001590 <HAL_RCC_OscConfig+0x2f0>
 8001582:	4b7d      	ldr	r3, [pc, #500]	; (8001778 <HAL_RCC_OscConfig+0x4d8>)
 8001584:	6f1b      	ldr	r3, [r3, #112]	; 0x70
 8001586:	4a7c      	ldr	r2, [pc, #496]	; (8001778 <HAL_RCC_OscConfig+0x4d8>)
 8001588:	f043 0301 	orr.w	r3, r3, #1
 800158c:	6713      	str	r3, [r2, #112]	; 0x70
 800158e:	e01c      	b.n	80015ca <HAL_RCC_OscConfig+0x32a>
 8001590:	687b      	ldr	r3, [r7, #4]
 8001592:	689b      	ldr	r3, [r3, #8]
 8001594:	2b05      	cmp	r3, #5
 8001596:	d10c      	bne.n	80015b2 <HAL_RCC_OscConfig+0x312>
 8001598:	4b77      	ldr	r3, [pc, #476]	; (8001778 <HAL_RCC_OscConfig+0x4d8>)
 800159a:	6f1b      	ldr	r3, [r3, #112]	; 0x70
 800159c:	4a76      	ldr	r2, [pc, #472]	; (8001778 <HAL_RCC_OscConfig+0x4d8>)
 800159e:	f043 0304 	orr.w	r3, r3, #4
 80015a2:	6713      	str	r3, [r2, #112]	; 0x70
 80015a4:	4b74      	ldr	r3, [pc, #464]	; (8001778 <HAL_RCC_OscConfig+0x4d8>)
 80015a6:	6f1b      	ldr	r3, [r3, #112]	; 0x70
 80015a8:	4a73      	ldr	r2, [pc, #460]	; (8001778 <HAL_RCC_OscConfig+0x4d8>)
 80015aa:	f043 0301 	orr.w	r3, r3, #1
 80015ae:	6713      	str	r3, [r2, #112]	; 0x70
 80015b0:	e00b      	b.n	80015ca <HAL_RCC_OscConfig+0x32a>
 80015b2:	4b71      	ldr	r3, [pc, #452]	; (8001778 <HAL_RCC_OscConfig+0x4d8>)
 80015b4:	6f1b      	ldr	r3, [r3, #112]	; 0x70
 80015b6:	4a70      	ldr	r2, [pc, #448]	; (8001778 <HAL_RCC_OscConfig+0x4d8>)
 80015b8:	f023 0301 	bic.w	r3, r3, #1
 80015bc:	6713      	str	r3, [r2, #112]	; 0x70
 80015be:	4b6e      	ldr	r3, [pc, #440]	; (8001778 <HAL_RCC_OscConfig+0x4d8>)
 80015c0:	6f1b      	ldr	r3, [r3, #112]	; 0x70
 80015c2:	4a6d      	ldr	r2, [pc, #436]	; (8001778 <HAL_RCC_OscConfig+0x4d8>)
 80015c4:	f023 0304 	bic.w	r3, r3, #4
 80015c8:	6713      	str	r3, [r2, #112]	; 0x70
    /* Check the LSE State */
    if((RCC_OscInitStruct->LSEState) != RCC_LSE_OFF)
 80015ca:	687b      	ldr	r3, [r7, #4]
 80015cc:	689b      	ldr	r3, [r3, #8]
 80015ce:	2b00      	cmp	r3, #0
 80015d0:	d015      	beq.n	80015fe <HAL_RCC_OscConfig+0x35e>
    {
      /* Get Start Tick*/
      tickstart = HAL_GetTick();
 80015d2:	f7ff fb57 	bl	8000c84 <HAL_GetTick>
 80015d6:	6138      	str	r0, [r7, #16]

      /* Wait till LSE is ready */
      while(__HAL_RCC_GET_FLAG(RCC_FLAG_LSERDY) == RESET)
 80015d8:	e00a      	b.n	80015f0 <HAL_RCC_OscConfig+0x350>
      {
        if((HAL_GetTick() - tickstart ) > RCC_LSE_TIMEOUT_VALUE)
 80015da:	f7ff fb53 	bl	8000c84 <HAL_GetTick>
 80015de:	4602      	mov	r2, r0
 80015e0:	693b      	ldr	r3, [r7, #16]
 80015e2:	1ad3      	subs	r3, r2, r3
 80015e4:	f241 3288 	movw	r2, #5000	; 0x1388
 80015e8:	4293      	cmp	r3, r2
 80015ea:	d901      	bls.n	80015f0 <HAL_RCC_OscConfig+0x350>
        {
          return HAL_TIMEOUT;
 80015ec:	2303      	movs	r3, #3
 80015ee:	e0bc      	b.n	800176a <HAL_RCC_OscConfig+0x4ca>
      while(__HAL_RCC_GET_FLAG(RCC_FLAG_LSERDY) == RESET)
 80015f0:	4b61      	ldr	r3, [pc, #388]	; (8001778 <HAL_RCC_OscConfig+0x4d8>)
 80015f2:	6f1b      	ldr	r3, [r3, #112]	; 0x70
 80015f4:	f003 0302 	and.w	r3, r3, #2
 80015f8:	2b00      	cmp	r3, #0
 80015fa:	d0ee      	beq.n	80015da <HAL_RCC_OscConfig+0x33a>
 80015fc:	e014      	b.n	8001628 <HAL_RCC_OscConfig+0x388>
      }
    }
    else
    {
      /* Get Start Tick */
      tickstart = HAL_GetTick();
 80015fe:	f7ff fb41 	bl	8000c84 <HAL_GetTick>
 8001602:	6138      	str	r0, [r7, #16]

      /* Wait till LSE is ready */
      while(__HAL_RCC_GET_FLAG(RCC_FLAG_LSERDY) != RESET)
 8001604:	e00a      	b.n	800161c <HAL_RCC_OscConfig+0x37c>
      {
        if((HAL_GetTick() - tickstart ) > RCC_LSE_TIMEOUT_VALUE)
 8001606:	f7ff fb3d 	bl	8000c84 <HAL_GetTick>
 800160a:	4602      	mov	r2, r0
 800160c:	693b      	ldr	r3, [r7, #16]
 800160e:	1ad3      	subs	r3, r2, r3
 8001610:	f241 3288 	movw	r2, #5000	; 0x1388
 8001614:	4293      	cmp	r3, r2
 8001616:	d901      	bls.n	800161c <HAL_RCC_OscConfig+0x37c>
        {
          return HAL_TIMEOUT;
 8001618:	2303      	movs	r3, #3
 800161a:	e0a6      	b.n	800176a <HAL_RCC_OscConfig+0x4ca>
      while(__HAL_RCC_GET_FLAG(RCC_FLAG_LSERDY) != RESET)
 800161c:	4b56      	ldr	r3, [pc, #344]	; (8001778 <HAL_RCC_OscConfig+0x4d8>)
 800161e:	6f1b      	ldr	r3, [r3, #112]	; 0x70
 8001620:	f003 0302 	and.w	r3, r3, #2
 8001624:	2b00      	cmp	r3, #0
 8001626:	d1ee      	bne.n	8001606 <HAL_RCC_OscConfig+0x366>
        }
      }
    }

    /* Restore clock configuration if changed */
    if(pwrclkchanged == SET)
 8001628:	7dfb      	ldrb	r3, [r7, #23]
 800162a:	2b01      	cmp	r3, #1
 800162c:	d105      	bne.n	800163a <HAL_RCC_OscConfig+0x39a>
    {
      __HAL_RCC_PWR_CLK_DISABLE();
 800162e:	4b52      	ldr	r3, [pc, #328]	; (8001778 <HAL_RCC_OscConfig+0x4d8>)
 8001630:	6c1b      	ldr	r3, [r3, #64]	; 0x40
 8001632:	4a51      	ldr	r2, [pc, #324]	; (8001778 <HAL_RCC_OscConfig+0x4d8>)
 8001634:	f023 5380 	bic.w	r3, r3, #268435456	; 0x10000000
 8001638:	6413      	str	r3, [r2, #64]	; 0x40
    }
  }
  /*-------------------------------- PLL Configuration -----------------------*/
  /* Check the parameters */
  assert_param(IS_RCC_PLL(RCC_OscInitStruct->PLL.PLLState));
  if ((RCC_OscInitStruct->PLL.PLLState) != RCC_PLL_NONE)
 800163a:	687b      	ldr	r3, [r7, #4]
 800163c:	699b      	ldr	r3, [r3, #24]
 800163e:	2b00      	cmp	r3, #0
 8001640:	f000 8092 	beq.w	8001768 <HAL_RCC_OscConfig+0x4c8>
  {
    /* Check if the PLL is used as system clock or not */
    if(__HAL_RCC_GET_SYSCLK_SOURCE() != RCC_CFGR_SWS_PLL)
 8001644:	4b4c      	ldr	r3, [pc, #304]	; (8001778 <HAL_RCC_OscConfig+0x4d8>)
 8001646:	689b      	ldr	r3, [r3, #8]
 8001648:	f003 030c 	and.w	r3, r3, #12
 800164c:	2b08      	cmp	r3, #8
 800164e:	d05c      	beq.n	800170a <HAL_RCC_OscConfig+0x46a>
    {
      if((RCC_OscInitStruct->PLL.PLLState) == RCC_PLL_ON)
 8001650:	687b      	ldr	r3, [r7, #4]
 8001652:	699b      	ldr	r3, [r3, #24]
 8001654:	2b02      	cmp	r3, #2
 8001656:	d141      	bne.n	80016dc <HAL_RCC_OscConfig+0x43c>
        assert_param(IS_RCC_PLLN_VALUE(RCC_OscInitStruct->PLL.PLLN));
        assert_param(IS_RCC_PLLP_VALUE(RCC_OscInitStruct->PLL.PLLP));
        assert_param(IS_RCC_PLLQ_VALUE(RCC_OscInitStruct->PLL.PLLQ));

        /* Disable the main PLL. */
        __HAL_RCC_PLL_DISABLE();
 8001658:	4b48      	ldr	r3, [pc, #288]	; (800177c <HAL_RCC_OscConfig+0x4dc>)
 800165a:	2200      	movs	r2, #0
 800165c:	601a      	str	r2, [r3, #0]

        /* Get Start Tick */
        tickstart = HAL_GetTick();
 800165e:	f7ff fb11 	bl	8000c84 <HAL_GetTick>
 8001662:	6138      	str	r0, [r7, #16]

        /* Wait till PLL is ready */
        while(__HAL_RCC_GET_FLAG(RCC_FLAG_PLLRDY) != RESET)
 8001664:	e008      	b.n	8001678 <HAL_RCC_OscConfig+0x3d8>
        {
          if((HAL_GetTick() - tickstart ) > PLL_TIMEOUT_VALUE)
 8001666:	f7ff fb0d 	bl	8000c84 <HAL_GetTick>
 800166a:	4602      	mov	r2, r0
 800166c:	693b      	ldr	r3, [r7, #16]
 800166e:	1ad3      	subs	r3, r2, r3
 8001670:	2b02      	cmp	r3, #2
 8001672:	d901      	bls.n	8001678 <HAL_RCC_OscConfig+0x3d8>
          {
            return HAL_TIMEOUT;
 8001674:	2303      	movs	r3, #3
 8001676:	e078      	b.n	800176a <HAL_RCC_OscConfig+0x4ca>
        while(__HAL_RCC_GET_FLAG(RCC_FLAG_PLLRDY) != RESET)
 8001678:	4b3f      	ldr	r3, [pc, #252]	; (8001778 <HAL_RCC_OscConfig+0x4d8>)
 800167a:	681b      	ldr	r3, [r3, #0]
 800167c:	f003 7300 	and.w	r3, r3, #33554432	; 0x2000000
 8001680:	2b00      	cmp	r3, #0
 8001682:	d1f0      	bne.n	8001666 <HAL_RCC_OscConfig+0x3c6>
          }
        }

        /* Configure the main PLL clock source, multiplication and division factors. */
        WRITE_REG(RCC->PLLCFGR, (RCC_OscInitStruct->PLL.PLLSource                                            | \
 8001684:	687b      	ldr	r3, [r7, #4]
 8001686:	69da      	ldr	r2, [r3, #28]
 8001688:	687b      	ldr	r3, [r7, #4]
 800168a:	6a1b      	ldr	r3, [r3, #32]
 800168c:	431a      	orrs	r2, r3
 800168e:	687b      	ldr	r3, [r7, #4]
 8001690:	6a5b      	ldr	r3, [r3, #36]	; 0x24
 8001692:	019b      	lsls	r3, r3, #6
 8001694:	431a      	orrs	r2, r3
 8001696:	687b      	ldr	r3, [r7, #4]
 8001698:	6a9b      	ldr	r3, [r3, #40]	; 0x28
 800169a:	085b      	lsrs	r3, r3, #1
 800169c:	3b01      	subs	r3, #1
 800169e:	041b      	lsls	r3, r3, #16
 80016a0:	431a      	orrs	r2, r3
 80016a2:	687b      	ldr	r3, [r7, #4]
 80016a4:	6adb      	ldr	r3, [r3, #44]	; 0x2c
 80016a6:	061b      	lsls	r3, r3, #24
 80016a8:	4933      	ldr	r1, [pc, #204]	; (8001778 <HAL_RCC_OscConfig+0x4d8>)
 80016aa:	4313      	orrs	r3, r2
 80016ac:	604b      	str	r3, [r1, #4]
                                 RCC_OscInitStruct->PLL.PLLM                                                 | \
                                 (RCC_OscInitStruct->PLL.PLLN << RCC_PLLCFGR_PLLN_Pos)             | \
                                 (((RCC_OscInitStruct->PLL.PLLP >> 1U) - 1U) << RCC_PLLCFGR_PLLP_Pos) | \
                                 (RCC_OscInitStruct->PLL.PLLQ << RCC_PLLCFGR_PLLQ_Pos)));
        /* Enable the main PLL. */
        __HAL_RCC_PLL_ENABLE();
 80016ae:	4b33      	ldr	r3, [pc, #204]	; (800177c <HAL_RCC_OscConfig+0x4dc>)
 80016b0:	2201      	movs	r2, #1
 80016b2:	601a      	str	r2, [r3, #0]

        /* Get Start Tick */
        tickstart = HAL_GetTick();
 80016b4:	f7ff fae6 	bl	8000c84 <HAL_GetTick>
 80016b8:	6138      	str	r0, [r7, #16]

        /* Wait till PLL is ready */
        while(__HAL_RCC_GET_FLAG(RCC_FLAG_PLLRDY) == RESET)
 80016ba:	e008      	b.n	80016ce <HAL_RCC_OscConfig+0x42e>
        {
          if((HAL_GetTick() - tickstart ) > PLL_TIMEOUT_VALUE)
 80016bc:	f7ff fae2 	bl	8000c84 <HAL_GetTick>
 80016c0:	4602      	mov	r2, r0
 80016c2:	693b      	ldr	r3, [r7, #16]
 80016c4:	1ad3      	subs	r3, r2, r3
 80016c6:	2b02      	cmp	r3, #2
 80016c8:	d901      	bls.n	80016ce <HAL_RCC_OscConfig+0x42e>
          {
            return HAL_TIMEOUT;
 80016ca:	2303      	movs	r3, #3
 80016cc:	e04d      	b.n	800176a <HAL_RCC_OscConfig+0x4ca>
        while(__HAL_RCC_GET_FLAG(RCC_FLAG_PLLRDY) == RESET)
 80016ce:	4b2a      	ldr	r3, [pc, #168]	; (8001778 <HAL_RCC_OscConfig+0x4d8>)
 80016d0:	681b      	ldr	r3, [r3, #0]
 80016d2:	f003 7300 	and.w	r3, r3, #33554432	; 0x2000000
 80016d6:	2b00      	cmp	r3, #0
 80016d8:	d0f0      	beq.n	80016bc <HAL_RCC_OscConfig+0x41c>
 80016da:	e045      	b.n	8001768 <HAL_RCC_OscConfig+0x4c8>
        }
      }
      else
      {
        /* Disable the main PLL. */
        __HAL_RCC_PLL_DISABLE();
 80016dc:	4b27      	ldr	r3, [pc, #156]	; (800177c <HAL_RCC_OscConfig+0x4dc>)
 80016de:	2200      	movs	r2, #0
 80016e0:	601a      	str	r2, [r3, #0]

        /* Get Start Tick */
        tickstart = HAL_GetTick();
 80016e2:	f7ff facf 	bl	8000c84 <HAL_GetTick>
 80016e6:	6138      	str	r0, [r7, #16]

        /* Wait till PLL is ready */
        while(__HAL_RCC_GET_FLAG(RCC_FLAG_PLLRDY) != RESET)
 80016e8:	e008      	b.n	80016fc <HAL_RCC_OscConfig+0x45c>
        {
          if((HAL_GetTick() - tickstart ) > PLL_TIMEOUT_VALUE)
 80016ea:	f7ff facb 	bl	8000c84 <HAL_GetTick>
 80016ee:	4602      	mov	r2, r0
 80016f0:	693b      	ldr	r3, [r7, #16]
 80016f2:	1ad3      	subs	r3, r2, r3
 80016f4:	2b02      	cmp	r3, #2
 80016f6:	d901      	bls.n	80016fc <HAL_RCC_OscConfig+0x45c>
          {
            return HAL_TIMEOUT;
 80016f8:	2303      	movs	r3, #3
 80016fa:	e036      	b.n	800176a <HAL_RCC_OscConfig+0x4ca>
        while(__HAL_RCC_GET_FLAG(RCC_FLAG_PLLRDY) != RESET)
 80016fc:	4b1e      	ldr	r3, [pc, #120]	; (8001778 <HAL_RCC_OscConfig+0x4d8>)
 80016fe:	681b      	ldr	r3, [r3, #0]
 8001700:	f003 7300 	and.w	r3, r3, #33554432	; 0x2000000
 8001704:	2b00      	cmp	r3, #0
 8001706:	d1f0      	bne.n	80016ea <HAL_RCC_OscConfig+0x44a>
 8001708:	e02e      	b.n	8001768 <HAL_RCC_OscConfig+0x4c8>
      }
    }
    else
    {
      /* Check if there is a request to disable the PLL used as System clock source */
      if((RCC_OscInitStruct->PLL.PLLState) == RCC_PLL_OFF)
 800170a:	687b      	ldr	r3, [r7, #4]
 800170c:	699b      	ldr	r3, [r3, #24]
 800170e:	2b01      	cmp	r3, #1
 8001710:	d101      	bne.n	8001716 <HAL_RCC_OscConfig+0x476>
      {
        return HAL_ERROR;
 8001712:	2301      	movs	r3, #1
 8001714:	e029      	b.n	800176a <HAL_RCC_OscConfig+0x4ca>
      }
      else
      {
        /* Do not return HAL_ERROR if request repeats the current configuration */
        pll_config = RCC->PLLCFGR;
 8001716:	4b18      	ldr	r3, [pc, #96]	; (8001778 <HAL_RCC_OscConfig+0x4d8>)
 8001718:	685b      	ldr	r3, [r3, #4]
 800171a:	60fb      	str	r3, [r7, #12]
        if((READ_BIT(pll_config, RCC_PLLCFGR_PLLSRC) != RCC_OscInitStruct->PLL.PLLSource) ||
 800171c:	68fb      	ldr	r3, [r7, #12]
 800171e:	f403 0280 	and.w	r2, r3, #4194304	; 0x400000
 8001722:	687b      	ldr	r3, [r7, #4]
 8001724:	69db      	ldr	r3, [r3, #28]
 8001726:	429a      	cmp	r2, r3
 8001728:	d11c      	bne.n	8001764 <HAL_RCC_OscConfig+0x4c4>
           (READ_BIT(pll_config, RCC_PLLCFGR_PLLM) != RCC_OscInitStruct->PLL.PLLM) ||
 800172a:	68fb      	ldr	r3, [r7, #12]
 800172c:	f003 023f 	and.w	r2, r3, #63	; 0x3f
 8001730:	687b      	ldr	r3, [r7, #4]
 8001732:	6a1b      	ldr	r3, [r3, #32]
        if((READ_BIT(pll_config, RCC_PLLCFGR_PLLSRC) != RCC_OscInitStruct->PLL.PLLSource) ||
 8001734:	429a      	cmp	r2, r3
 8001736:	d115      	bne.n	8001764 <HAL_RCC_OscConfig+0x4c4>
           (READ_BIT(pll_config, RCC_PLLCFGR_PLLN) != RCC_OscInitStruct->PLL.PLLN) ||
 8001738:	68fa      	ldr	r2, [r7, #12]
 800173a:	f647 73c0 	movw	r3, #32704	; 0x7fc0
 800173e:	4013      	ands	r3, r2
 8001740:	687a      	ldr	r2, [r7, #4]
 8001742:	6a52      	ldr	r2, [r2, #36]	; 0x24
           (READ_BIT(pll_config, RCC_PLLCFGR_PLLM) != RCC_OscInitStruct->PLL.PLLM) ||
 8001744:	4293      	cmp	r3, r2
 8001746:	d10d      	bne.n	8001764 <HAL_RCC_OscConfig+0x4c4>
           (READ_BIT(pll_config, RCC_PLLCFGR_PLLP) != RCC_OscInitStruct->PLL.PLLP) ||
 8001748:	68fb      	ldr	r3, [r7, #12]
 800174a:	f403 3240 	and.w	r2, r3, #196608	; 0x30000
 800174e:	687b      	ldr	r3, [r7, #4]
 8001750:	6a9b      	ldr	r3, [r3, #40]	; 0x28
           (READ_BIT(pll_config, RCC_PLLCFGR_PLLN) != RCC_OscInitStruct->PLL.PLLN) ||
 8001752:	429a      	cmp	r2, r3
 8001754:	d106      	bne.n	8001764 <HAL_RCC_OscConfig+0x4c4>
           (READ_BIT(pll_config, RCC_PLLCFGR_PLLQ) != RCC_OscInitStruct->PLL.PLLQ))
 8001756:	68fb      	ldr	r3, [r7, #12]
 8001758:	f003 6270 	and.w	r2, r3, #251658240	; 0xf000000
 800175c:	687b      	ldr	r3, [r7, #4]
 800175e:	6adb      	ldr	r3, [r3, #44]	; 0x2c
           (READ_BIT(pll_config, RCC_PLLCFGR_PLLP) != RCC_OscInitStruct->PLL.PLLP) ||
 8001760:	429a      	cmp	r2, r3
 8001762:	d001      	beq.n	8001768 <HAL_RCC_OscConfig+0x4c8>
        {
          return HAL_ERROR;
 8001764:	2301      	movs	r3, #1
 8001766:	e000      	b.n	800176a <HAL_RCC_OscConfig+0x4ca>
        }
      }
    }
  }
  return HAL_OK;
 8001768:	2300      	movs	r3, #0
}
 800176a:	4618      	mov	r0, r3
 800176c:	3718      	adds	r7, #24
 800176e:	46bd      	mov	sp, r7
 8001770:	bd80      	pop	{r7, pc}
 8001772:	bf00      	nop
 8001774:	40007000 	.word	0x40007000
 8001778:	40023800 	.word	0x40023800
 800177c:	42470060 	.word	0x42470060

08001780 <HAL_RCC_ClockConfig>:
  *         HPRE[3:0] bits to ensure that HCLK not exceed the maximum allowed frequency
  *         (for more details refer to section above "Initialization/de-initialization functions")
  * @retval None
  */
HAL_StatusTypeDef HAL_RCC_ClockConfig(RCC_ClkInitTypeDef  *RCC_ClkInitStruct, uint32_t FLatency)
{
 8001780:	b580      	push	{r7, lr}
 8001782:	b084      	sub	sp, #16
 8001784:	af00      	add	r7, sp, #0
 8001786:	6078      	str	r0, [r7, #4]
 8001788:	6039      	str	r1, [r7, #0]
  uint32_t tickstart;

  /* Check Null pointer */
  if(RCC_ClkInitStruct == NULL)
 800178a:	687b      	ldr	r3, [r7, #4]
 800178c:	2b00      	cmp	r3, #0
 800178e:	d101      	bne.n	8001794 <HAL_RCC_ClockConfig+0x14>
  {
    return HAL_ERROR;
 8001790:	2301      	movs	r3, #1
 8001792:	e0cc      	b.n	800192e <HAL_RCC_ClockConfig+0x1ae>
  /* To correctly read data from FLASH memory, the number of wait states (LATENCY)
    must be correctly programmed according to the frequency of the CPU clock
    (HCLK) and the supply voltage of the device. */

  /* Increasing the number of wait states because of higher CPU frequency */
  if(FLatency > __HAL_FLASH_GET_LATENCY())
 8001794:	4b68      	ldr	r3, [pc, #416]	; (8001938 <HAL_RCC_ClockConfig+0x1b8>)
 8001796:	681b      	ldr	r3, [r3, #0]
 8001798:	f003 030f 	and.w	r3, r3, #15
 800179c:	683a      	ldr	r2, [r7, #0]
 800179e:	429a      	cmp	r2, r3
 80017a0:	d90c      	bls.n	80017bc <HAL_RCC_ClockConfig+0x3c>
  {
    /* Program the new number of wait states to the LATENCY bits in the FLASH_ACR register */
    __HAL_FLASH_SET_LATENCY(FLatency);
 80017a2:	4b65      	ldr	r3, [pc, #404]	; (8001938 <HAL_RCC_ClockConfig+0x1b8>)
 80017a4:	683a      	ldr	r2, [r7, #0]
 80017a6:	b2d2      	uxtb	r2, r2
 80017a8:	701a      	strb	r2, [r3, #0]

    /* Check that the new number of wait states is taken into account to access the Flash
    memory by reading the FLASH_ACR register */
    if(__HAL_FLASH_GET_LATENCY() != FLatency)
 80017aa:	4b63      	ldr	r3, [pc, #396]	; (8001938 <HAL_RCC_ClockConfig+0x1b8>)
 80017ac:	681b      	ldr	r3, [r3, #0]
 80017ae:	f003 030f 	and.w	r3, r3, #15
 80017b2:	683a      	ldr	r2, [r7, #0]
 80017b4:	429a      	cmp	r2, r3
 80017b6:	d001      	beq.n	80017bc <HAL_RCC_ClockConfig+0x3c>
    {
      return HAL_ERROR;
 80017b8:	2301      	movs	r3, #1
 80017ba:	e0b8      	b.n	800192e <HAL_RCC_ClockConfig+0x1ae>
    }
  }

  /*-------------------------- HCLK Configuration --------------------------*/
  if(((RCC_ClkInitStruct->ClockType) & RCC_CLOCKTYPE_HCLK) == RCC_CLOCKTYPE_HCLK)
 80017bc:	687b      	ldr	r3, [r7, #4]
 80017be:	681b      	ldr	r3, [r3, #0]
 80017c0:	f003 0302 	and.w	r3, r3, #2
 80017c4:	2b00      	cmp	r3, #0
 80017c6:	d020      	beq.n	800180a <HAL_RCC_ClockConfig+0x8a>
  {
    /* Set the highest APBx dividers in order to ensure that we do not go through
       a non-spec phase whatever we decrease or increase HCLK. */
    if(((RCC_ClkInitStruct->ClockType) & RCC_CLOCKTYPE_PCLK1) == RCC_CLOCKTYPE_PCLK1)
 80017c8:	687b      	ldr	r3, [r7, #4]
 80017ca:	681b      	ldr	r3, [r3, #0]
 80017cc:	f003 0304 	and.w	r3, r3, #4
 80017d0:	2b00      	cmp	r3, #0
 80017d2:	d005      	beq.n	80017e0 <HAL_RCC_ClockConfig+0x60>
    {
      MODIFY_REG(RCC->CFGR, RCC_CFGR_PPRE1, RCC_HCLK_DIV16);
 80017d4:	4b59      	ldr	r3, [pc, #356]	; (800193c <HAL_RCC_ClockConfig+0x1bc>)
 80017d6:	689b      	ldr	r3, [r3, #8]
 80017d8:	4a58      	ldr	r2, [pc, #352]	; (800193c <HAL_RCC_ClockConfig+0x1bc>)
 80017da:	f443 53e0 	orr.w	r3, r3, #7168	; 0x1c00
 80017de:	6093      	str	r3, [r2, #8]
    }

    if(((RCC_ClkInitStruct->ClockType) & RCC_CLOCKTYPE_PCLK2) == RCC_CLOCKTYPE_PCLK2)
 80017e0:	687b      	ldr	r3, [r7, #4]
 80017e2:	681b      	ldr	r3, [r3, #0]
 80017e4:	f003 0308 	and.w	r3, r3, #8
 80017e8:	2b00      	cmp	r3, #0
 80017ea:	d005      	beq.n	80017f8 <HAL_RCC_ClockConfig+0x78>
    {
      MODIFY_REG(RCC->CFGR, RCC_CFGR_PPRE2, (RCC_HCLK_DIV16 << 3));
 80017ec:	4b53      	ldr	r3, [pc, #332]	; (800193c <HAL_RCC_ClockConfig+0x1bc>)
 80017ee:	689b      	ldr	r3, [r3, #8]
 80017f0:	4a52      	ldr	r2, [pc, #328]	; (800193c <HAL_RCC_ClockConfig+0x1bc>)
 80017f2:	f443 4360 	orr.w	r3, r3, #57344	; 0xe000
 80017f6:	6093      	str	r3, [r2, #8]
    }

    assert_param(IS_RCC_HCLK(RCC_ClkInitStruct->AHBCLKDivider));
    MODIFY_REG(RCC->CFGR, RCC_CFGR_HPRE, RCC_ClkInitStruct->AHBCLKDivider);
 80017f8:	4b50      	ldr	r3, [pc, #320]	; (800193c <HAL_RCC_ClockConfig+0x1bc>)
 80017fa:	689b      	ldr	r3, [r3, #8]
 80017fc:	f023 02f0 	bic.w	r2, r3, #240	; 0xf0
 8001800:	687b      	ldr	r3, [r7, #4]
 8001802:	689b      	ldr	r3, [r3, #8]
 8001804:	494d      	ldr	r1, [pc, #308]	; (800193c <HAL_RCC_ClockConfig+0x1bc>)
 8001806:	4313      	orrs	r3, r2
 8001808:	608b      	str	r3, [r1, #8]
  }

  /*------------------------- SYSCLK Configuration ---------------------------*/
  if(((RCC_ClkInitStruct->ClockType) & RCC_CLOCKTYPE_SYSCLK) == RCC_CLOCKTYPE_SYSCLK)
 800180a:	687b      	ldr	r3, [r7, #4]
 800180c:	681b      	ldr	r3, [r3, #0]
 800180e:	f003 0301 	and.w	r3, r3, #1
 8001812:	2b00      	cmp	r3, #0
 8001814:	d044      	beq.n	80018a0 <HAL_RCC_ClockConfig+0x120>
  {
    assert_param(IS_RCC_SYSCLKSOURCE(RCC_ClkInitStruct->SYSCLKSource));

    /* HSE is selected as System Clock Source */
    if(RCC_ClkInitStruct->SYSCLKSource == RCC_SYSCLKSOURCE_HSE)
 8001816:	687b      	ldr	r3, [r7, #4]
 8001818:	685b      	ldr	r3, [r3, #4]
 800181a:	2b01      	cmp	r3, #1
 800181c:	d107      	bne.n	800182e <HAL_RCC_ClockConfig+0xae>
    {
      /* Check the HSE ready flag */
      if(__HAL_RCC_GET_FLAG(RCC_FLAG_HSERDY) == RESET)
 800181e:	4b47      	ldr	r3, [pc, #284]	; (800193c <HAL_RCC_ClockConfig+0x1bc>)
 8001820:	681b      	ldr	r3, [r3, #0]
 8001822:	f403 3300 	and.w	r3, r3, #131072	; 0x20000
 8001826:	2b00      	cmp	r3, #0
 8001828:	d119      	bne.n	800185e <HAL_RCC_ClockConfig+0xde>
      {
        return HAL_ERROR;
 800182a:	2301      	movs	r3, #1
 800182c:	e07f      	b.n	800192e <HAL_RCC_ClockConfig+0x1ae>
      }
    }
    /* PLL is selected as System Clock Source */
    else if((RCC_ClkInitStruct->SYSCLKSource == RCC_SYSCLKSOURCE_PLLCLK)   ||
 800182e:	687b      	ldr	r3, [r7, #4]
 8001830:	685b      	ldr	r3, [r3, #4]
 8001832:	2b02      	cmp	r3, #2
 8001834:	d003      	beq.n	800183e <HAL_RCC_ClockConfig+0xbe>
            (RCC_ClkInitStruct->SYSCLKSource == RCC_SYSCLKSOURCE_PLLRCLK))
 8001836:	687b      	ldr	r3, [r7, #4]
 8001838:	685b      	ldr	r3, [r3, #4]
    else if((RCC_ClkInitStruct->SYSCLKSource == RCC_SYSCLKSOURCE_PLLCLK)   ||
 800183a:	2b03      	cmp	r3, #3
 800183c:	d107      	bne.n	800184e <HAL_RCC_ClockConfig+0xce>
    {
      /* Check the PLL ready flag */
      if(__HAL_RCC_GET_FLAG(RCC_FLAG_PLLRDY) == RESET)
 800183e:	4b3f      	ldr	r3, [pc, #252]	; (800193c <HAL_RCC_ClockConfig+0x1bc>)
 8001840:	681b      	ldr	r3, [r3, #0]
 8001842:	f003 7300 	and.w	r3, r3, #33554432	; 0x2000000
 8001846:	2b00      	cmp	r3, #0
 8001848:	d109      	bne.n	800185e <HAL_RCC_ClockConfig+0xde>
      {
        return HAL_ERROR;
 800184a:	2301      	movs	r3, #1
 800184c:	e06f      	b.n	800192e <HAL_RCC_ClockConfig+0x1ae>
    }
    /* HSI is selected as System Clock Source */
    else
    {
      /* Check the HSI ready flag */
      if(__HAL_RCC_GET_FLAG(RCC_FLAG_HSIRDY) == RESET)
 800184e:	4b3b      	ldr	r3, [pc, #236]	; (800193c <HAL_RCC_ClockConfig+0x1bc>)
 8001850:	681b      	ldr	r3, [r3, #0]
 8001852:	f003 0302 	and.w	r3, r3, #2
 8001856:	2b00      	cmp	r3, #0
 8001858:	d101      	bne.n	800185e <HAL_RCC_ClockConfig+0xde>
      {
        return HAL_ERROR;
 800185a:	2301      	movs	r3, #1
 800185c:	e067      	b.n	800192e <HAL_RCC_ClockConfig+0x1ae>
      }
    }

    __HAL_RCC_SYSCLK_CONFIG(RCC_ClkInitStruct->SYSCLKSource);
 800185e:	4b37      	ldr	r3, [pc, #220]	; (800193c <HAL_RCC_ClockConfig+0x1bc>)
 8001860:	689b      	ldr	r3, [r3, #8]
 8001862:	f023 0203 	bic.w	r2, r3, #3
 8001866:	687b      	ldr	r3, [r7, #4]
 8001868:	685b      	ldr	r3, [r3, #4]
 800186a:	4934      	ldr	r1, [pc, #208]	; (800193c <HAL_RCC_ClockConfig+0x1bc>)
 800186c:	4313      	orrs	r3, r2
 800186e:	608b      	str	r3, [r1, #8]

    /* Get Start Tick */
    tickstart = HAL_GetTick();
 8001870:	f7ff fa08 	bl	8000c84 <HAL_GetTick>
 8001874:	60f8      	str	r0, [r7, #12]

    while (__HAL_RCC_GET_SYSCLK_SOURCE() != (RCC_ClkInitStruct->SYSCLKSource << RCC_CFGR_SWS_Pos))
 8001876:	e00a      	b.n	800188e <HAL_RCC_ClockConfig+0x10e>
    {
      if ((HAL_GetTick() - tickstart) > CLOCKSWITCH_TIMEOUT_VALUE)
 8001878:	f7ff fa04 	bl	8000c84 <HAL_GetTick>
 800187c:	4602      	mov	r2, r0
 800187e:	68fb      	ldr	r3, [r7, #12]
 8001880:	1ad3      	subs	r3, r2, r3
 8001882:	f241 3288 	movw	r2, #5000	; 0x1388
 8001886:	4293      	cmp	r3, r2
 8001888:	d901      	bls.n	800188e <HAL_RCC_ClockConfig+0x10e>
      {
        return HAL_TIMEOUT;
 800188a:	2303      	movs	r3, #3
 800188c:	e04f      	b.n	800192e <HAL_RCC_ClockConfig+0x1ae>
    while (__HAL_RCC_GET_SYSCLK_SOURCE() != (RCC_ClkInitStruct->SYSCLKSource << RCC_CFGR_SWS_Pos))
 800188e:	4b2b      	ldr	r3, [pc, #172]	; (800193c <HAL_RCC_ClockConfig+0x1bc>)
 8001890:	689b      	ldr	r3, [r3, #8]
 8001892:	f003 020c 	and.w	r2, r3, #12
 8001896:	687b      	ldr	r3, [r7, #4]
 8001898:	685b      	ldr	r3, [r3, #4]
 800189a:	009b      	lsls	r3, r3, #2
 800189c:	429a      	cmp	r2, r3
 800189e:	d1eb      	bne.n	8001878 <HAL_RCC_ClockConfig+0xf8>
      }
    }
  }

  /* Decreasing the number of wait states because of lower CPU frequency */
  if(FLatency < __HAL_FLASH_GET_LATENCY())
 80018a0:	4b25      	ldr	r3, [pc, #148]	; (8001938 <HAL_RCC_ClockConfig+0x1b8>)
 80018a2:	681b      	ldr	r3, [r3, #0]
 80018a4:	f003 030f 	and.w	r3, r3, #15
 80018a8:	683a      	ldr	r2, [r7, #0]
 80018aa:	429a      	cmp	r2, r3
 80018ac:	d20c      	bcs.n	80018c8 <HAL_RCC_ClockConfig+0x148>
  {
     /* Program the new number of wait states to the LATENCY bits in the FLASH_ACR register */
    __HAL_FLASH_SET_LATENCY(FLatency);
 80018ae:	4b22      	ldr	r3, [pc, #136]	; (8001938 <HAL_RCC_ClockConfig+0x1b8>)
 80018b0:	683a      	ldr	r2, [r7, #0]
 80018b2:	b2d2      	uxtb	r2, r2
 80018b4:	701a      	strb	r2, [r3, #0]

    /* Check that the new number of wait states is taken into account to access the Flash
    memory by reading the FLASH_ACR register */
    if(__HAL_FLASH_GET_LATENCY() != FLatency)
 80018b6:	4b20      	ldr	r3, [pc, #128]	; (8001938 <HAL_RCC_ClockConfig+0x1b8>)
 80018b8:	681b      	ldr	r3, [r3, #0]
 80018ba:	f003 030f 	and.w	r3, r3, #15
 80018be:	683a      	ldr	r2, [r7, #0]
 80018c0:	429a      	cmp	r2, r3
 80018c2:	d001      	beq.n	80018c8 <HAL_RCC_ClockConfig+0x148>
    {
      return HAL_ERROR;
 80018c4:	2301      	movs	r3, #1
 80018c6:	e032      	b.n	800192e <HAL_RCC_ClockConfig+0x1ae>
    }
  }

  /*-------------------------- PCLK1 Configuration ---------------------------*/
  if(((RCC_ClkInitStruct->ClockType) & RCC_CLOCKTYPE_PCLK1) == RCC_CLOCKTYPE_PCLK1)
 80018c8:	687b      	ldr	r3, [r7, #4]
 80018ca:	681b      	ldr	r3, [r3, #0]
 80018cc:	f003 0304 	and.w	r3, r3, #4
 80018d0:	2b00      	cmp	r3, #0
 80018d2:	d008      	beq.n	80018e6 <HAL_RCC_ClockConfig+0x166>
  {
    assert_param(IS_RCC_PCLK(RCC_ClkInitStruct->APB1CLKDivider));
    MODIFY_REG(RCC->CFGR, RCC_CFGR_PPRE1, RCC_ClkInitStruct->APB1CLKDivider);
 80018d4:	4b19      	ldr	r3, [pc, #100]	; (800193c <HAL_RCC_ClockConfig+0x1bc>)
 80018d6:	689b      	ldr	r3, [r3, #8]
 80018d8:	f423 52e0 	bic.w	r2, r3, #7168	; 0x1c00
 80018dc:	687b      	ldr	r3, [r7, #4]
 80018de:	68db      	ldr	r3, [r3, #12]
 80018e0:	4916      	ldr	r1, [pc, #88]	; (800193c <HAL_RCC_ClockConfig+0x1bc>)
 80018e2:	4313      	orrs	r3, r2
 80018e4:	608b      	str	r3, [r1, #8]
  }

  /*-------------------------- PCLK2 Configuration ---------------------------*/
  if(((RCC_ClkInitStruct->ClockType) & RCC_CLOCKTYPE_PCLK2) == RCC_CLOCKTYPE_PCLK2)
 80018e6:	687b      	ldr	r3, [r7, #4]
 80018e8:	681b      	ldr	r3, [r3, #0]
 80018ea:	f003 0308 	and.w	r3, r3, #8
 80018ee:	2b00      	cmp	r3, #0
 80018f0:	d009      	beq.n	8001906 <HAL_RCC_ClockConfig+0x186>
  {
    assert_param(IS_RCC_PCLK(RCC_ClkInitStruct->APB2CLKDivider));
    MODIFY_REG(RCC->CFGR, RCC_CFGR_PPRE2, ((RCC_ClkInitStruct->APB2CLKDivider) << 3U));
 80018f2:	4b12      	ldr	r3, [pc, #72]	; (800193c <HAL_RCC_ClockConfig+0x1bc>)
 80018f4:	689b      	ldr	r3, [r3, #8]
 80018f6:	f423 4260 	bic.w	r2, r3, #57344	; 0xe000
 80018fa:	687b      	ldr	r3, [r7, #4]
 80018fc:	691b      	ldr	r3, [r3, #16]
 80018fe:	00db      	lsls	r3, r3, #3
 8001900:	490e      	ldr	r1, [pc, #56]	; (800193c <HAL_RCC_ClockConfig+0x1bc>)
 8001902:	4313      	orrs	r3, r2
 8001904:	608b      	str	r3, [r1, #8]
  }

  /* Update the SystemCoreClock global variable */
  SystemCoreClock = HAL_RCC_GetSysClockFreq() >> AHBPrescTable[(RCC->CFGR & RCC_CFGR_HPRE)>> RCC_CFGR_HPRE_Pos];
 8001906:	f000 f889 	bl	8001a1c <HAL_RCC_GetSysClockFreq>
 800190a:	4601      	mov	r1, r0
 800190c:	4b0b      	ldr	r3, [pc, #44]	; (800193c <HAL_RCC_ClockConfig+0x1bc>)
 800190e:	689b      	ldr	r3, [r3, #8]
 8001910:	091b      	lsrs	r3, r3, #4
 8001912:	f003 030f 	and.w	r3, r3, #15
 8001916:	4a0a      	ldr	r2, [pc, #40]	; (8001940 <HAL_RCC_ClockConfig+0x1c0>)
 8001918:	5cd3      	ldrb	r3, [r2, r3]
 800191a:	fa21 f303 	lsr.w	r3, r1, r3
 800191e:	4a09      	ldr	r2, [pc, #36]	; (8001944 <HAL_RCC_ClockConfig+0x1c4>)
 8001920:	6013      	str	r3, [r2, #0]

  /* Configure the source of time base considering new system clocks settings */
  HAL_InitTick (uwTickPrio);
 8001922:	4b09      	ldr	r3, [pc, #36]	; (8001948 <HAL_RCC_ClockConfig+0x1c8>)
 8001924:	681b      	ldr	r3, [r3, #0]
 8001926:	4618      	mov	r0, r3
 8001928:	f7ff f968 	bl	8000bfc <HAL_InitTick>

  return HAL_OK;
 800192c:	2300      	movs	r3, #0
}
 800192e:	4618      	mov	r0, r3
 8001930:	3710      	adds	r7, #16
 8001932:	46bd      	mov	sp, r7
 8001934:	bd80      	pop	{r7, pc}
 8001936:	bf00      	nop
 8001938:	40023c00 	.word	0x40023c00
 800193c:	40023800 	.word	0x40023800
 8001940:	08003804 	.word	0x08003804
 8001944:	20000000 	.word	0x20000000
 8001948:	20000004 	.word	0x20000004

0800194c <HAL_RCC_MCOConfig>:
  * @note  For STM32F410Rx devices to output I2SCLK clock on MCO2 you should have
  *        at last one of the SPI clocks enabled (SPI1, SPI2 or SPI5).
  * @retval None
  */
void HAL_RCC_MCOConfig(uint32_t RCC_MCOx, uint32_t RCC_MCOSource, uint32_t RCC_MCODiv)
{
 800194c:	b580      	push	{r7, lr}
 800194e:	b08c      	sub	sp, #48	; 0x30
 8001950:	af00      	add	r7, sp, #0
 8001952:	60f8      	str	r0, [r7, #12]
 8001954:	60b9      	str	r1, [r7, #8]
 8001956:	607a      	str	r2, [r7, #4]
  GPIO_InitTypeDef GPIO_InitStruct;
  /* Check the parameters */
  assert_param(IS_RCC_MCO(RCC_MCOx));
  assert_param(IS_RCC_MCODIV(RCC_MCODiv));
  /* RCC_MCO1 */
  if(RCC_MCOx == RCC_MCO1)
 8001958:	68fb      	ldr	r3, [r7, #12]
 800195a:	2b00      	cmp	r3, #0
 800195c:	d129      	bne.n	80019b2 <HAL_RCC_MCOConfig+0x66>
  {
    assert_param(IS_RCC_MCO1SOURCE(RCC_MCOSource));

    /* MCO1 Clock Enable */
    __MCO1_CLK_ENABLE();
 800195e:	2300      	movs	r3, #0
 8001960:	61bb      	str	r3, [r7, #24]
 8001962:	4b2b      	ldr	r3, [pc, #172]	; (8001a10 <HAL_RCC_MCOConfig+0xc4>)
 8001964:	6b1b      	ldr	r3, [r3, #48]	; 0x30
 8001966:	4a2a      	ldr	r2, [pc, #168]	; (8001a10 <HAL_RCC_MCOConfig+0xc4>)
 8001968:	f043 0301 	orr.w	r3, r3, #1
 800196c:	6313      	str	r3, [r2, #48]	; 0x30
 800196e:	4b28      	ldr	r3, [pc, #160]	; (8001a10 <HAL_RCC_MCOConfig+0xc4>)
 8001970:	6b1b      	ldr	r3, [r3, #48]	; 0x30
 8001972:	f003 0301 	and.w	r3, r3, #1
 8001976:	61bb      	str	r3, [r7, #24]
 8001978:	69bb      	ldr	r3, [r7, #24]

    /* Configure the MCO1 pin in alternate function mode */
    GPIO_InitStruct.Pin = MCO1_PIN;
 800197a:	f44f 7380 	mov.w	r3, #256	; 0x100
 800197e:	61fb      	str	r3, [r7, #28]
    GPIO_InitStruct.Mode = GPIO_MODE_AF_PP;
 8001980:	2302      	movs	r3, #2
 8001982:	623b      	str	r3, [r7, #32]
    GPIO_InitStruct.Speed = GPIO_SPEED_FREQ_VERY_HIGH;
 8001984:	2303      	movs	r3, #3
 8001986:	62bb      	str	r3, [r7, #40]	; 0x28
    GPIO_InitStruct.Pull = GPIO_NOPULL;
 8001988:	2300      	movs	r3, #0
 800198a:	627b      	str	r3, [r7, #36]	; 0x24
    GPIO_InitStruct.Alternate = GPIO_AF0_MCO;
 800198c:	2300      	movs	r3, #0
 800198e:	62fb      	str	r3, [r7, #44]	; 0x2c
    HAL_GPIO_Init(MCO1_GPIO_PORT, &GPIO_InitStruct);
 8001990:	f107 031c 	add.w	r3, r7, #28
 8001994:	4619      	mov	r1, r3
 8001996:	481f      	ldr	r0, [pc, #124]	; (8001a14 <HAL_RCC_MCOConfig+0xc8>)
 8001998:	f7ff fab4 	bl	8000f04 <HAL_GPIO_Init>

    /* Mask MCO1 and MCO1PRE[2:0] bits then Select MCO1 clock source and prescaler */
    MODIFY_REG(RCC->CFGR, (RCC_CFGR_MCO1 | RCC_CFGR_MCO1PRE), (RCC_MCOSource | RCC_MCODiv));
 800199c:	4b1c      	ldr	r3, [pc, #112]	; (8001a10 <HAL_RCC_MCOConfig+0xc4>)
 800199e:	689b      	ldr	r3, [r3, #8]
 80019a0:	f023 62ec 	bic.w	r2, r3, #123731968	; 0x7600000
 80019a4:	68b9      	ldr	r1, [r7, #8]
 80019a6:	687b      	ldr	r3, [r7, #4]
 80019a8:	430b      	orrs	r3, r1
 80019aa:	4919      	ldr	r1, [pc, #100]	; (8001a10 <HAL_RCC_MCOConfig+0xc4>)
 80019ac:	4313      	orrs	r3, r2
 80019ae:	608b      	str	r3, [r1, #8]
#if defined(RCC_CFGR_MCO2EN)
    __HAL_RCC_MCO2_ENABLE();
#endif /* RCC_CFGR_MCO2EN */
  }
#endif /* RCC_CFGR_MCO2 */
}
 80019b0:	e029      	b.n	8001a06 <HAL_RCC_MCOConfig+0xba>
    __MCO2_CLK_ENABLE();
 80019b2:	2300      	movs	r3, #0
 80019b4:	617b      	str	r3, [r7, #20]
 80019b6:	4b16      	ldr	r3, [pc, #88]	; (8001a10 <HAL_RCC_MCOConfig+0xc4>)
 80019b8:	6b1b      	ldr	r3, [r3, #48]	; 0x30
 80019ba:	4a15      	ldr	r2, [pc, #84]	; (8001a10 <HAL_RCC_MCOConfig+0xc4>)
 80019bc:	f043 0304 	orr.w	r3, r3, #4
 80019c0:	6313      	str	r3, [r2, #48]	; 0x30
 80019c2:	4b13      	ldr	r3, [pc, #76]	; (8001a10 <HAL_RCC_MCOConfig+0xc4>)
 80019c4:	6b1b      	ldr	r3, [r3, #48]	; 0x30
 80019c6:	f003 0304 	and.w	r3, r3, #4
 80019ca:	617b      	str	r3, [r7, #20]
 80019cc:	697b      	ldr	r3, [r7, #20]
    GPIO_InitStruct.Pin = MCO2_PIN;
 80019ce:	f44f 7300 	mov.w	r3, #512	; 0x200
 80019d2:	61fb      	str	r3, [r7, #28]
    GPIO_InitStruct.Mode = GPIO_MODE_AF_PP;
 80019d4:	2302      	movs	r3, #2
 80019d6:	623b      	str	r3, [r7, #32]
    GPIO_InitStruct.Speed = GPIO_SPEED_FREQ_VERY_HIGH;
 80019d8:	2303      	movs	r3, #3
 80019da:	62bb      	str	r3, [r7, #40]	; 0x28
    GPIO_InitStruct.Pull = GPIO_NOPULL;
 80019dc:	2300      	movs	r3, #0
 80019de:	627b      	str	r3, [r7, #36]	; 0x24
    GPIO_InitStruct.Alternate = GPIO_AF0_MCO;
 80019e0:	2300      	movs	r3, #0
 80019e2:	62fb      	str	r3, [r7, #44]	; 0x2c
    HAL_GPIO_Init(MCO2_GPIO_PORT, &GPIO_InitStruct);
 80019e4:	f107 031c 	add.w	r3, r7, #28
 80019e8:	4619      	mov	r1, r3
 80019ea:	480b      	ldr	r0, [pc, #44]	; (8001a18 <HAL_RCC_MCOConfig+0xcc>)
 80019ec:	f7ff fa8a 	bl	8000f04 <HAL_GPIO_Init>
    MODIFY_REG(RCC->CFGR, (RCC_CFGR_MCO2 | RCC_CFGR_MCO2PRE), (RCC_MCOSource | (RCC_MCODiv << 3U)));
 80019f0:	4b07      	ldr	r3, [pc, #28]	; (8001a10 <HAL_RCC_MCOConfig+0xc4>)
 80019f2:	689b      	ldr	r3, [r3, #8]
 80019f4:	f023 4278 	bic.w	r2, r3, #4160749568	; 0xf8000000
 80019f8:	687b      	ldr	r3, [r7, #4]
 80019fa:	00d9      	lsls	r1, r3, #3
 80019fc:	68bb      	ldr	r3, [r7, #8]
 80019fe:	430b      	orrs	r3, r1
 8001a00:	4903      	ldr	r1, [pc, #12]	; (8001a10 <HAL_RCC_MCOConfig+0xc4>)
 8001a02:	4313      	orrs	r3, r2
 8001a04:	608b      	str	r3, [r1, #8]
}
 8001a06:	bf00      	nop
 8001a08:	3730      	adds	r7, #48	; 0x30
 8001a0a:	46bd      	mov	sp, r7
 8001a0c:	bd80      	pop	{r7, pc}
 8001a0e:	bf00      	nop
 8001a10:	40023800 	.word	0x40023800
 8001a14:	40020000 	.word	0x40020000
 8001a18:	40020800 	.word	0x40020800

08001a1c <HAL_RCC_GetSysClockFreq>:
  *
  *
  * @retval SYSCLK frequency
  */
__weak uint32_t HAL_RCC_GetSysClockFreq(void)
{
 8001a1c:	b5f0      	push	{r4, r5, r6, r7, lr}
 8001a1e:	b085      	sub	sp, #20
 8001a20:	af00      	add	r7, sp, #0
  uint32_t pllm = 0U, pllvco = 0U, pllp = 0U;
 8001a22:	2300      	movs	r3, #0
 8001a24:	607b      	str	r3, [r7, #4]
 8001a26:	2300      	movs	r3, #0
 8001a28:	60fb      	str	r3, [r7, #12]
 8001a2a:	2300      	movs	r3, #0
 8001a2c:	603b      	str	r3, [r7, #0]
  uint32_t sysclockfreq = 0U;
 8001a2e:	2300      	movs	r3, #0
 8001a30:	60bb      	str	r3, [r7, #8]

  /* Get SYSCLK source -------------------------------------------------------*/
  switch (RCC->CFGR & RCC_CFGR_SWS)
 8001a32:	4b63      	ldr	r3, [pc, #396]	; (8001bc0 <HAL_RCC_GetSysClockFreq+0x1a4>)
 8001a34:	689b      	ldr	r3, [r3, #8]
 8001a36:	f003 030c 	and.w	r3, r3, #12
 8001a3a:	2b04      	cmp	r3, #4
 8001a3c:	d007      	beq.n	8001a4e <HAL_RCC_GetSysClockFreq+0x32>
 8001a3e:	2b08      	cmp	r3, #8
 8001a40:	d008      	beq.n	8001a54 <HAL_RCC_GetSysClockFreq+0x38>
 8001a42:	2b00      	cmp	r3, #0
 8001a44:	f040 80b4 	bne.w	8001bb0 <HAL_RCC_GetSysClockFreq+0x194>
  {
    case RCC_CFGR_SWS_HSI:  /* HSI used as system clock source */
    {
      sysclockfreq = HSI_VALUE;
 8001a48:	4b5e      	ldr	r3, [pc, #376]	; (8001bc4 <HAL_RCC_GetSysClockFreq+0x1a8>)
 8001a4a:	60bb      	str	r3, [r7, #8]
       break;
 8001a4c:	e0b3      	b.n	8001bb6 <HAL_RCC_GetSysClockFreq+0x19a>
    }
    case RCC_CFGR_SWS_HSE:  /* HSE used as system clock  source */
    {
      sysclockfreq = HSE_VALUE;
 8001a4e:	4b5e      	ldr	r3, [pc, #376]	; (8001bc8 <HAL_RCC_GetSysClockFreq+0x1ac>)
 8001a50:	60bb      	str	r3, [r7, #8]
      break;
 8001a52:	e0b0      	b.n	8001bb6 <HAL_RCC_GetSysClockFreq+0x19a>
    }
    case RCC_CFGR_SWS_PLL:  /* PLL used as system clock  source */
    {
      /* PLL_VCO = (HSE_VALUE or HSI_VALUE / PLLM) * PLLN
      SYSCLK = PLL_VCO / PLLP */
      pllm = RCC->PLLCFGR & RCC_PLLCFGR_PLLM;
 8001a54:	4b5a      	ldr	r3, [pc, #360]	; (8001bc0 <HAL_RCC_GetSysClockFreq+0x1a4>)
 8001a56:	685b      	ldr	r3, [r3, #4]
 8001a58:	f003 033f 	and.w	r3, r3, #63	; 0x3f
 8001a5c:	607b      	str	r3, [r7, #4]
      if(__HAL_RCC_GET_PLL_OSCSOURCE() != RCC_PLLSOURCE_HSI)
 8001a5e:	4b58      	ldr	r3, [pc, #352]	; (8001bc0 <HAL_RCC_GetSysClockFreq+0x1a4>)
 8001a60:	685b      	ldr	r3, [r3, #4]
 8001a62:	f403 0380 	and.w	r3, r3, #4194304	; 0x400000
 8001a66:	2b00      	cmp	r3, #0
 8001a68:	d04a      	beq.n	8001b00 <HAL_RCC_GetSysClockFreq+0xe4>
      {
        /* HSE used as PLL clock source */
        pllvco = (uint32_t) ((((uint64_t) HSE_VALUE * ((uint64_t) ((RCC->PLLCFGR & RCC_PLLCFGR_PLLN) >> RCC_PLLCFGR_PLLN_Pos)))) / (uint64_t)pllm);
 8001a6a:	4b55      	ldr	r3, [pc, #340]	; (8001bc0 <HAL_RCC_GetSysClockFreq+0x1a4>)
 8001a6c:	685b      	ldr	r3, [r3, #4]
 8001a6e:	099b      	lsrs	r3, r3, #6
 8001a70:	f04f 0400 	mov.w	r4, #0
 8001a74:	f240 11ff 	movw	r1, #511	; 0x1ff
 8001a78:	f04f 0200 	mov.w	r2, #0
 8001a7c:	ea03 0501 	and.w	r5, r3, r1
 8001a80:	ea04 0602 	and.w	r6, r4, r2
 8001a84:	4629      	mov	r1, r5
 8001a86:	4632      	mov	r2, r6
 8001a88:	f04f 0300 	mov.w	r3, #0
 8001a8c:	f04f 0400 	mov.w	r4, #0
 8001a90:	0154      	lsls	r4, r2, #5
 8001a92:	ea44 64d1 	orr.w	r4, r4, r1, lsr #27
 8001a96:	014b      	lsls	r3, r1, #5
 8001a98:	4619      	mov	r1, r3
 8001a9a:	4622      	mov	r2, r4
 8001a9c:	1b49      	subs	r1, r1, r5
 8001a9e:	eb62 0206 	sbc.w	r2, r2, r6
 8001aa2:	f04f 0300 	mov.w	r3, #0
 8001aa6:	f04f 0400 	mov.w	r4, #0
 8001aaa:	0194      	lsls	r4, r2, #6
 8001aac:	ea44 6491 	orr.w	r4, r4, r1, lsr #26
 8001ab0:	018b      	lsls	r3, r1, #6
 8001ab2:	1a5b      	subs	r3, r3, r1
 8001ab4:	eb64 0402 	sbc.w	r4, r4, r2
 8001ab8:	f04f 0100 	mov.w	r1, #0
 8001abc:	f04f 0200 	mov.w	r2, #0
 8001ac0:	00e2      	lsls	r2, r4, #3
 8001ac2:	ea42 7253 	orr.w	r2, r2, r3, lsr #29
 8001ac6:	00d9      	lsls	r1, r3, #3
 8001ac8:	460b      	mov	r3, r1
 8001aca:	4614      	mov	r4, r2
 8001acc:	195b      	adds	r3, r3, r5
 8001ace:	eb44 0406 	adc.w	r4, r4, r6
 8001ad2:	f04f 0100 	mov.w	r1, #0
 8001ad6:	f04f 0200 	mov.w	r2, #0
 8001ada:	0262      	lsls	r2, r4, #9
 8001adc:	ea42 52d3 	orr.w	r2, r2, r3, lsr #23
 8001ae0:	0259      	lsls	r1, r3, #9
 8001ae2:	460b      	mov	r3, r1
 8001ae4:	4614      	mov	r4, r2
 8001ae6:	4618      	mov	r0, r3
 8001ae8:	4621      	mov	r1, r4
 8001aea:	687b      	ldr	r3, [r7, #4]
 8001aec:	f04f 0400 	mov.w	r4, #0
 8001af0:	461a      	mov	r2, r3
 8001af2:	4623      	mov	r3, r4
 8001af4:	f7fe fbc4 	bl	8000280 <__aeabi_uldivmod>
 8001af8:	4603      	mov	r3, r0
 8001afa:	460c      	mov	r4, r1
 8001afc:	60fb      	str	r3, [r7, #12]
 8001afe:	e049      	b.n	8001b94 <HAL_RCC_GetSysClockFreq+0x178>
      }
      else
      {
        /* HSI used as PLL clock source */
        pllvco = (uint32_t) ((((uint64_t) HSI_VALUE * ((uint64_t) ((RCC->PLLCFGR & RCC_PLLCFGR_PLLN) >> RCC_PLLCFGR_PLLN_Pos)))) / (uint64_t)pllm);
 8001b00:	4b2f      	ldr	r3, [pc, #188]	; (8001bc0 <HAL_RCC_GetSysClockFreq+0x1a4>)
 8001b02:	685b      	ldr	r3, [r3, #4]
 8001b04:	099b      	lsrs	r3, r3, #6
 8001b06:	f04f 0400 	mov.w	r4, #0
 8001b0a:	f240 11ff 	movw	r1, #511	; 0x1ff
 8001b0e:	f04f 0200 	mov.w	r2, #0
 8001b12:	ea03 0501 	and.w	r5, r3, r1
 8001b16:	ea04 0602 	and.w	r6, r4, r2
 8001b1a:	4629      	mov	r1, r5
 8001b1c:	4632      	mov	r2, r6
 8001b1e:	f04f 0300 	mov.w	r3, #0
 8001b22:	f04f 0400 	mov.w	r4, #0
 8001b26:	0154      	lsls	r4, r2, #5
 8001b28:	ea44 64d1 	orr.w	r4, r4, r1, lsr #27
 8001b2c:	014b      	lsls	r3, r1, #5
 8001b2e:	4619      	mov	r1, r3
 8001b30:	4622      	mov	r2, r4
 8001b32:	1b49      	subs	r1, r1, r5
 8001b34:	eb62 0206 	sbc.w	r2, r2, r6
 8001b38:	f04f 0300 	mov.w	r3, #0
 8001b3c:	f04f 0400 	mov.w	r4, #0
 8001b40:	0194      	lsls	r4, r2, #6
 8001b42:	ea44 6491 	orr.w	r4, r4, r1, lsr #26
 8001b46:	018b      	lsls	r3, r1, #6
 8001b48:	1a5b      	subs	r3, r3, r1
 8001b4a:	eb64 0402 	sbc.w	r4, r4, r2
 8001b4e:	f04f 0100 	mov.w	r1, #0
 8001b52:	f04f 0200 	mov.w	r2, #0
 8001b56:	00e2      	lsls	r2, r4, #3
 8001b58:	ea42 7253 	orr.w	r2, r2, r3, lsr #29
 8001b5c:	00d9      	lsls	r1, r3, #3
 8001b5e:	460b      	mov	r3, r1
 8001b60:	4614      	mov	r4, r2
 8001b62:	195b      	adds	r3, r3, r5
 8001b64:	eb44 0406 	adc.w	r4, r4, r6
 8001b68:	f04f 0100 	mov.w	r1, #0
 8001b6c:	f04f 0200 	mov.w	r2, #0
 8001b70:	02a2      	lsls	r2, r4, #10
 8001b72:	ea42 5293 	orr.w	r2, r2, r3, lsr #22
 8001b76:	0299      	lsls	r1, r3, #10
 8001b78:	460b      	mov	r3, r1
 8001b7a:	4614      	mov	r4, r2
 8001b7c:	4618      	mov	r0, r3
 8001b7e:	4621      	mov	r1, r4
 8001b80:	687b      	ldr	r3, [r7, #4]
 8001b82:	f04f 0400 	mov.w	r4, #0
 8001b86:	461a      	mov	r2, r3
 8001b88:	4623      	mov	r3, r4
 8001b8a:	f7fe fb79 	bl	8000280 <__aeabi_uldivmod>
 8001b8e:	4603      	mov	r3, r0
 8001b90:	460c      	mov	r4, r1
 8001b92:	60fb      	str	r3, [r7, #12]
      }
      pllp = ((((RCC->PLLCFGR & RCC_PLLCFGR_PLLP) >> RCC_PLLCFGR_PLLP_Pos) + 1U) *2U);
 8001b94:	4b0a      	ldr	r3, [pc, #40]	; (8001bc0 <HAL_RCC_GetSysClockFreq+0x1a4>)
 8001b96:	685b      	ldr	r3, [r3, #4]
 8001b98:	0c1b      	lsrs	r3, r3, #16
 8001b9a:	f003 0303 	and.w	r3, r3, #3
 8001b9e:	3301      	adds	r3, #1
 8001ba0:	005b      	lsls	r3, r3, #1
 8001ba2:	603b      	str	r3, [r7, #0]

      sysclockfreq = pllvco/pllp;
 8001ba4:	68fa      	ldr	r2, [r7, #12]
 8001ba6:	683b      	ldr	r3, [r7, #0]
 8001ba8:	fbb2 f3f3 	udiv	r3, r2, r3
 8001bac:	60bb      	str	r3, [r7, #8]
      break;
 8001bae:	e002      	b.n	8001bb6 <HAL_RCC_GetSysClockFreq+0x19a>
    }
    default:
    {
      sysclockfreq = HSI_VALUE;
 8001bb0:	4b04      	ldr	r3, [pc, #16]	; (8001bc4 <HAL_RCC_GetSysClockFreq+0x1a8>)
 8001bb2:	60bb      	str	r3, [r7, #8]
      break;
 8001bb4:	bf00      	nop
    }
  }
  return sysclockfreq;
 8001bb6:	68bb      	ldr	r3, [r7, #8]
}
 8001bb8:	4618      	mov	r0, r3
 8001bba:	3714      	adds	r7, #20
 8001bbc:	46bd      	mov	sp, r7
 8001bbe:	bdf0      	pop	{r4, r5, r6, r7, pc}
 8001bc0:	40023800 	.word	0x40023800
 8001bc4:	00f42400 	.word	0x00f42400
 8001bc8:	007a1200 	.word	0x007a1200

08001bcc <HAL_RCC_GetHCLKFreq>:
  * @note   The SystemCoreClock CMSIS variable is used to store System Clock Frequency
  *         and updated within this function
  * @retval HCLK frequency
  */
uint32_t HAL_RCC_GetHCLKFreq(void)
{
 8001bcc:	b480      	push	{r7}
 8001bce:	af00      	add	r7, sp, #0
  return SystemCoreClock;
 8001bd0:	4b03      	ldr	r3, [pc, #12]	; (8001be0 <HAL_RCC_GetHCLKFreq+0x14>)
 8001bd2:	681b      	ldr	r3, [r3, #0]
}
 8001bd4:	4618      	mov	r0, r3
 8001bd6:	46bd      	mov	sp, r7
 8001bd8:	f85d 7b04 	ldr.w	r7, [sp], #4
 8001bdc:	4770      	bx	lr
 8001bde:	bf00      	nop
 8001be0:	20000000 	.word	0x20000000

08001be4 <HAL_RCC_GetPCLK1Freq>:
  * @note   Each time PCLK1 changes, this function must be called to update the
  *         right PCLK1 value. Otherwise, any configuration based on this function will be incorrect.
  * @retval PCLK1 frequency
  */
uint32_t HAL_RCC_GetPCLK1Freq(void)
{
 8001be4:	b580      	push	{r7, lr}
 8001be6:	af00      	add	r7, sp, #0
  /* Get HCLK source and Compute PCLK1 frequency ---------------------------*/
  return (HAL_RCC_GetHCLKFreq() >> APBPrescTable[(RCC->CFGR & RCC_CFGR_PPRE1)>> RCC_CFGR_PPRE1_Pos]);
 8001be8:	f7ff fff0 	bl	8001bcc <HAL_RCC_GetHCLKFreq>
 8001bec:	4601      	mov	r1, r0
 8001bee:	4b05      	ldr	r3, [pc, #20]	; (8001c04 <HAL_RCC_GetPCLK1Freq+0x20>)
 8001bf0:	689b      	ldr	r3, [r3, #8]
 8001bf2:	0a9b      	lsrs	r3, r3, #10
 8001bf4:	f003 0307 	and.w	r3, r3, #7
 8001bf8:	4a03      	ldr	r2, [pc, #12]	; (8001c08 <HAL_RCC_GetPCLK1Freq+0x24>)
 8001bfa:	5cd3      	ldrb	r3, [r2, r3]
 8001bfc:	fa21 f303 	lsr.w	r3, r1, r3
}
 8001c00:	4618      	mov	r0, r3
 8001c02:	bd80      	pop	{r7, pc}
 8001c04:	40023800 	.word	0x40023800
 8001c08:	08003814 	.word	0x08003814

08001c0c <HAL_RCC_GetPCLK2Freq>:
  * @note   Each time PCLK2 changes, this function must be called to update the
  *         right PCLK2 value. Otherwise, any configuration based on this function will be incorrect.
  * @retval PCLK2 frequency
  */
uint32_t HAL_RCC_GetPCLK2Freq(void)
{
 8001c0c:	b580      	push	{r7, lr}
 8001c0e:	af00      	add	r7, sp, #0
  /* Get HCLK source and Compute PCLK2 frequency ---------------------------*/
  return (HAL_RCC_GetHCLKFreq()>> APBPrescTable[(RCC->CFGR & RCC_CFGR_PPRE2)>> RCC_CFGR_PPRE2_Pos]);
 8001c10:	f7ff ffdc 	bl	8001bcc <HAL_RCC_GetHCLKFreq>
 8001c14:	4601      	mov	r1, r0
 8001c16:	4b05      	ldr	r3, [pc, #20]	; (8001c2c <HAL_RCC_GetPCLK2Freq+0x20>)
 8001c18:	689b      	ldr	r3, [r3, #8]
 8001c1a:	0b5b      	lsrs	r3, r3, #13
 8001c1c:	f003 0307 	and.w	r3, r3, #7
 8001c20:	4a03      	ldr	r2, [pc, #12]	; (8001c30 <HAL_RCC_GetPCLK2Freq+0x24>)
 8001c22:	5cd3      	ldrb	r3, [r2, r3]
 8001c24:	fa21 f303 	lsr.w	r3, r1, r3
}
 8001c28:	4618      	mov	r0, r3
 8001c2a:	bd80      	pop	{r7, pc}
 8001c2c:	40023800 	.word	0x40023800
 8001c30:	08003814 	.word	0x08003814

08001c34 <HAL_TIM_Base_Init>:
  *         Ex: call @ref HAL_TIM_Base_DeInit() before HAL_TIM_Base_Init()
  * @param  htim TIM Base handle
  * @retval HAL status
  */
HAL_StatusTypeDef HAL_TIM_Base_Init(TIM_HandleTypeDef *htim)
{
 8001c34:	b580      	push	{r7, lr}
 8001c36:	b082      	sub	sp, #8
 8001c38:	af00      	add	r7, sp, #0
 8001c3a:	6078      	str	r0, [r7, #4]
  /* Check the TIM handle allocation */
  if (htim == NULL)
 8001c3c:	687b      	ldr	r3, [r7, #4]
 8001c3e:	2b00      	cmp	r3, #0
 8001c40:	d101      	bne.n	8001c46 <HAL_TIM_Base_Init+0x12>
  {
    return HAL_ERROR;
 8001c42:	2301      	movs	r3, #1
 8001c44:	e01d      	b.n	8001c82 <HAL_TIM_Base_Init+0x4e>
  assert_param(IS_TIM_INSTANCE(htim->Instance));
  assert_param(IS_TIM_COUNTER_MODE(htim->Init.CounterMode));
  assert_param(IS_TIM_CLOCKDIVISION_DIV(htim->Init.ClockDivision));
  assert_param(IS_TIM_AUTORELOAD_PRELOAD(htim->Init.AutoReloadPreload));

  if (htim->State == HAL_TIM_STATE_RESET)
 8001c46:	687b      	ldr	r3, [r7, #4]
 8001c48:	f893 303d 	ldrb.w	r3, [r3, #61]	; 0x3d
 8001c4c:	b2db      	uxtb	r3, r3
 8001c4e:	2b00      	cmp	r3, #0
 8001c50:	d106      	bne.n	8001c60 <HAL_TIM_Base_Init+0x2c>
  {
    /* Allocate lock resource and initialize it */
    htim->Lock = HAL_UNLOCKED;
 8001c52:	687b      	ldr	r3, [r7, #4]
 8001c54:	2200      	movs	r2, #0
 8001c56:	f883 203c 	strb.w	r2, [r3, #60]	; 0x3c
    }
    /* Init the low level hardware : GPIO, CLOCK, NVIC */
    htim->Base_MspInitCallback(htim);
#else
    /* Init the low level hardware : GPIO, CLOCK, NVIC */
    HAL_TIM_Base_MspInit(htim);
 8001c5a:	6878      	ldr	r0, [r7, #4]
 8001c5c:	f7fe fe7e 	bl	800095c <HAL_TIM_Base_MspInit>
#endif /* USE_HAL_TIM_REGISTER_CALLBACKS */
  }

  /* Set the TIM state */
  htim->State = HAL_TIM_STATE_BUSY;
 8001c60:	687b      	ldr	r3, [r7, #4]
 8001c62:	2202      	movs	r2, #2
 8001c64:	f883 203d 	strb.w	r2, [r3, #61]	; 0x3d

  /* Set the Time Base configuration */
  TIM_Base_SetConfig(htim->Instance, &htim->Init);
 8001c68:	687b      	ldr	r3, [r7, #4]
 8001c6a:	681a      	ldr	r2, [r3, #0]
 8001c6c:	687b      	ldr	r3, [r7, #4]
 8001c6e:	3304      	adds	r3, #4
 8001c70:	4619      	mov	r1, r3
 8001c72:	4610      	mov	r0, r2
 8001c74:	f000 f95e 	bl	8001f34 <TIM_Base_SetConfig>

  /* Initialize the TIM state*/
  htim->State = HAL_TIM_STATE_READY;
 8001c78:	687b      	ldr	r3, [r7, #4]
 8001c7a:	2201      	movs	r2, #1
 8001c7c:	f883 203d 	strb.w	r2, [r3, #61]	; 0x3d

  return HAL_OK;
 8001c80:	2300      	movs	r3, #0
}
 8001c82:	4618      	mov	r0, r3
 8001c84:	3708      	adds	r7, #8
 8001c86:	46bd      	mov	sp, r7
 8001c88:	bd80      	pop	{r7, pc}

08001c8a <HAL_TIM_Base_Start_IT>:
  * @brief  Starts the TIM Base generation in interrupt mode.
  * @param  htim TIM Base handle
  * @retval HAL status
  */
HAL_StatusTypeDef HAL_TIM_Base_Start_IT(TIM_HandleTypeDef *htim)
{
 8001c8a:	b480      	push	{r7}
 8001c8c:	b085      	sub	sp, #20
 8001c8e:	af00      	add	r7, sp, #0
 8001c90:	6078      	str	r0, [r7, #4]

  /* Check the parameters */
  assert_param(IS_TIM_INSTANCE(htim->Instance));

  /* Enable the TIM Update interrupt */
  __HAL_TIM_ENABLE_IT(htim, TIM_IT_UPDATE);
 8001c92:	687b      	ldr	r3, [r7, #4]
 8001c94:	681b      	ldr	r3, [r3, #0]
 8001c96:	68da      	ldr	r2, [r3, #12]
 8001c98:	687b      	ldr	r3, [r7, #4]
 8001c9a:	681b      	ldr	r3, [r3, #0]
 8001c9c:	f042 0201 	orr.w	r2, r2, #1
 8001ca0:	60da      	str	r2, [r3, #12]

  /* Enable the Peripheral, except in trigger mode where enable is automatically done with trigger */
  tmpsmcr = htim->Instance->SMCR & TIM_SMCR_SMS;
 8001ca2:	687b      	ldr	r3, [r7, #4]
 8001ca4:	681b      	ldr	r3, [r3, #0]
 8001ca6:	689b      	ldr	r3, [r3, #8]
 8001ca8:	f003 0307 	and.w	r3, r3, #7
 8001cac:	60fb      	str	r3, [r7, #12]
  if (!IS_TIM_SLAVEMODE_TRIGGER_ENABLED(tmpsmcr))
 8001cae:	68fb      	ldr	r3, [r7, #12]
 8001cb0:	2b06      	cmp	r3, #6
 8001cb2:	d007      	beq.n	8001cc4 <HAL_TIM_Base_Start_IT+0x3a>
  {
    __HAL_TIM_ENABLE(htim);
 8001cb4:	687b      	ldr	r3, [r7, #4]
 8001cb6:	681b      	ldr	r3, [r3, #0]
 8001cb8:	681a      	ldr	r2, [r3, #0]
 8001cba:	687b      	ldr	r3, [r7, #4]
 8001cbc:	681b      	ldr	r3, [r3, #0]
 8001cbe:	f042 0201 	orr.w	r2, r2, #1
 8001cc2:	601a      	str	r2, [r3, #0]
  }

  /* Return function status */
  return HAL_OK;
 8001cc4:	2300      	movs	r3, #0
}
 8001cc6:	4618      	mov	r0, r3
 8001cc8:	3714      	adds	r7, #20
 8001cca:	46bd      	mov	sp, r7
 8001ccc:	f85d 7b04 	ldr.w	r7, [sp], #4
 8001cd0:	4770      	bx	lr

08001cd2 <HAL_TIM_IRQHandler>:
  * @brief  This function handles TIM interrupts requests.
  * @param  htim TIM  handle
  * @retval None
  */
void HAL_TIM_IRQHandler(TIM_HandleTypeDef *htim)
{
 8001cd2:	b580      	push	{r7, lr}
 8001cd4:	b082      	sub	sp, #8
 8001cd6:	af00      	add	r7, sp, #0
 8001cd8:	6078      	str	r0, [r7, #4]
  /* Capture compare 1 event */
  if (__HAL_TIM_GET_FLAG(htim, TIM_FLAG_CC1) != RESET)
 8001cda:	687b      	ldr	r3, [r7, #4]
 8001cdc:	681b      	ldr	r3, [r3, #0]
 8001cde:	691b      	ldr	r3, [r3, #16]
 8001ce0:	f003 0302 	and.w	r3, r3, #2
 8001ce4:	2b02      	cmp	r3, #2
 8001ce6:	d122      	bne.n	8001d2e <HAL_TIM_IRQHandler+0x5c>
  {
    if (__HAL_TIM_GET_IT_SOURCE(htim, TIM_IT_CC1) != RESET)
 8001ce8:	687b      	ldr	r3, [r7, #4]
 8001cea:	681b      	ldr	r3, [r3, #0]
 8001cec:	68db      	ldr	r3, [r3, #12]
 8001cee:	f003 0302 	and.w	r3, r3, #2
 8001cf2:	2b02      	cmp	r3, #2
 8001cf4:	d11b      	bne.n	8001d2e <HAL_TIM_IRQHandler+0x5c>
    {
      {
        __HAL_TIM_CLEAR_IT(htim, TIM_IT_CC1);
 8001cf6:	687b      	ldr	r3, [r7, #4]
 8001cf8:	681b      	ldr	r3, [r3, #0]
 8001cfa:	f06f 0202 	mvn.w	r2, #2
 8001cfe:	611a      	str	r2, [r3, #16]
        htim->Channel = HAL_TIM_ACTIVE_CHANNEL_1;
 8001d00:	687b      	ldr	r3, [r7, #4]
 8001d02:	2201      	movs	r2, #1
 8001d04:	771a      	strb	r2, [r3, #28]

        /* Input capture event */
        if ((htim->Instance->CCMR1 & TIM_CCMR1_CC1S) != 0x00U)
 8001d06:	687b      	ldr	r3, [r7, #4]
 8001d08:	681b      	ldr	r3, [r3, #0]
 8001d0a:	699b      	ldr	r3, [r3, #24]
 8001d0c:	f003 0303 	and.w	r3, r3, #3
 8001d10:	2b00      	cmp	r3, #0
 8001d12:	d003      	beq.n	8001d1c <HAL_TIM_IRQHandler+0x4a>
        {
#if (USE_HAL_TIM_REGISTER_CALLBACKS == 1)
          htim->IC_CaptureCallback(htim);
#else
          HAL_TIM_IC_CaptureCallback(htim);
 8001d14:	6878      	ldr	r0, [r7, #4]
 8001d16:	f000 f8ee 	bl	8001ef6 <HAL_TIM_IC_CaptureCallback>
 8001d1a:	e005      	b.n	8001d28 <HAL_TIM_IRQHandler+0x56>
        {
#if (USE_HAL_TIM_REGISTER_CALLBACKS == 1)
          htim->OC_DelayElapsedCallback(htim);
          htim->PWM_PulseFinishedCallback(htim);
#else
          HAL_TIM_OC_DelayElapsedCallback(htim);
 8001d1c:	6878      	ldr	r0, [r7, #4]
 8001d1e:	f000 f8e0 	bl	8001ee2 <HAL_TIM_OC_DelayElapsedCallback>
          HAL_TIM_PWM_PulseFinishedCallback(htim);
 8001d22:	6878      	ldr	r0, [r7, #4]
 8001d24:	f000 f8f1 	bl	8001f0a <HAL_TIM_PWM_PulseFinishedCallback>
#endif /* USE_HAL_TIM_REGISTER_CALLBACKS */
        }
        htim->Channel = HAL_TIM_ACTIVE_CHANNEL_CLEARED;
 8001d28:	687b      	ldr	r3, [r7, #4]
 8001d2a:	2200      	movs	r2, #0
 8001d2c:	771a      	strb	r2, [r3, #28]
      }
    }
  }
  /* Capture compare 2 event */
  if (__HAL_TIM_GET_FLAG(htim, TIM_FLAG_CC2) != RESET)
 8001d2e:	687b      	ldr	r3, [r7, #4]
 8001d30:	681b      	ldr	r3, [r3, #0]
 8001d32:	691b      	ldr	r3, [r3, #16]
 8001d34:	f003 0304 	and.w	r3, r3, #4
 8001d38:	2b04      	cmp	r3, #4
 8001d3a:	d122      	bne.n	8001d82 <HAL_TIM_IRQHandler+0xb0>
  {
    if (__HAL_TIM_GET_IT_SOURCE(htim, TIM_IT_CC2) != RESET)
 8001d3c:	687b      	ldr	r3, [r7, #4]
 8001d3e:	681b      	ldr	r3, [r3, #0]
 8001d40:	68db      	ldr	r3, [r3, #12]
 8001d42:	f003 0304 	and.w	r3, r3, #4
 8001d46:	2b04      	cmp	r3, #4
 8001d48:	d11b      	bne.n	8001d82 <HAL_TIM_IRQHandler+0xb0>
    {
      __HAL_TIM_CLEAR_IT(htim, TIM_IT_CC2);
 8001d4a:	687b      	ldr	r3, [r7, #4]
 8001d4c:	681b      	ldr	r3, [r3, #0]
 8001d4e:	f06f 0204 	mvn.w	r2, #4
 8001d52:	611a      	str	r2, [r3, #16]
      htim->Channel = HAL_TIM_ACTIVE_CHANNEL_2;
 8001d54:	687b      	ldr	r3, [r7, #4]
 8001d56:	2202      	movs	r2, #2
 8001d58:	771a      	strb	r2, [r3, #28]
      /* Input capture event */
      if ((htim->Instance->CCMR1 & TIM_CCMR1_CC2S) != 0x00U)
 8001d5a:	687b      	ldr	r3, [r7, #4]
 8001d5c:	681b      	ldr	r3, [r3, #0]
 8001d5e:	699b      	ldr	r3, [r3, #24]
 8001d60:	f403 7340 	and.w	r3, r3, #768	; 0x300
 8001d64:	2b00      	cmp	r3, #0
 8001d66:	d003      	beq.n	8001d70 <HAL_TIM_IRQHandler+0x9e>
      {
#if (USE_HAL_TIM_REGISTER_CALLBACKS == 1)
        htim->IC_CaptureCallback(htim);
#else
        HAL_TIM_IC_CaptureCallback(htim);
 8001d68:	6878      	ldr	r0, [r7, #4]
 8001d6a:	f000 f8c4 	bl	8001ef6 <HAL_TIM_IC_CaptureCallback>
 8001d6e:	e005      	b.n	8001d7c <HAL_TIM_IRQHandler+0xaa>
      {
#if (USE_HAL_TIM_REGISTER_CALLBACKS == 1)
        htim->OC_DelayElapsedCallback(htim);
        htim->PWM_PulseFinishedCallback(htim);
#else
        HAL_TIM_OC_DelayElapsedCallback(htim);
 8001d70:	6878      	ldr	r0, [r7, #4]
 8001d72:	f000 f8b6 	bl	8001ee2 <HAL_TIM_OC_DelayElapsedCallback>
        HAL_TIM_PWM_PulseFinishedCallback(htim);
 8001d76:	6878      	ldr	r0, [r7, #4]
 8001d78:	f000 f8c7 	bl	8001f0a <HAL_TIM_PWM_PulseFinishedCallback>
#endif /* USE_HAL_TIM_REGISTER_CALLBACKS */
      }
      htim->Channel = HAL_TIM_ACTIVE_CHANNEL_CLEARED;
 8001d7c:	687b      	ldr	r3, [r7, #4]
 8001d7e:	2200      	movs	r2, #0
 8001d80:	771a      	strb	r2, [r3, #28]
    }
  }
  /* Capture compare 3 event */
  if (__HAL_TIM_GET_FLAG(htim, TIM_FLAG_CC3) != RESET)
 8001d82:	687b      	ldr	r3, [r7, #4]
 8001d84:	681b      	ldr	r3, [r3, #0]
 8001d86:	691b      	ldr	r3, [r3, #16]
 8001d88:	f003 0308 	and.w	r3, r3, #8
 8001d8c:	2b08      	cmp	r3, #8
 8001d8e:	d122      	bne.n	8001dd6 <HAL_TIM_IRQHandler+0x104>
  {
    if (__HAL_TIM_GET_IT_SOURCE(htim, TIM_IT_CC3) != RESET)
 8001d90:	687b      	ldr	r3, [r7, #4]
 8001d92:	681b      	ldr	r3, [r3, #0]
 8001d94:	68db      	ldr	r3, [r3, #12]
 8001d96:	f003 0308 	and.w	r3, r3, #8
 8001d9a:	2b08      	cmp	r3, #8
 8001d9c:	d11b      	bne.n	8001dd6 <HAL_TIM_IRQHandler+0x104>
    {
      __HAL_TIM_CLEAR_IT(htim, TIM_IT_CC3);
 8001d9e:	687b      	ldr	r3, [r7, #4]
 8001da0:	681b      	ldr	r3, [r3, #0]
 8001da2:	f06f 0208 	mvn.w	r2, #8
 8001da6:	611a      	str	r2, [r3, #16]
      htim->Channel = HAL_TIM_ACTIVE_CHANNEL_3;
 8001da8:	687b      	ldr	r3, [r7, #4]
 8001daa:	2204      	movs	r2, #4
 8001dac:	771a      	strb	r2, [r3, #28]
      /* Input capture event */
      if ((htim->Instance->CCMR2 & TIM_CCMR2_CC3S) != 0x00U)
 8001dae:	687b      	ldr	r3, [r7, #4]
 8001db0:	681b      	ldr	r3, [r3, #0]
 8001db2:	69db      	ldr	r3, [r3, #28]
 8001db4:	f003 0303 	and.w	r3, r3, #3
 8001db8:	2b00      	cmp	r3, #0
 8001dba:	d003      	beq.n	8001dc4 <HAL_TIM_IRQHandler+0xf2>
      {
#if (USE_HAL_TIM_REGISTER_CALLBACKS == 1)
        htim->IC_CaptureCallback(htim);
#else
        HAL_TIM_IC_CaptureCallback(htim);
 8001dbc:	6878      	ldr	r0, [r7, #4]
 8001dbe:	f000 f89a 	bl	8001ef6 <HAL_TIM_IC_CaptureCallback>
 8001dc2:	e005      	b.n	8001dd0 <HAL_TIM_IRQHandler+0xfe>
      {
#if (USE_HAL_TIM_REGISTER_CALLBACKS == 1)
        htim->OC_DelayElapsedCallback(htim);
        htim->PWM_PulseFinishedCallback(htim);
#else
        HAL_TIM_OC_DelayElapsedCallback(htim);
 8001dc4:	6878      	ldr	r0, [r7, #4]
 8001dc6:	f000 f88c 	bl	8001ee2 <HAL_TIM_OC_DelayElapsedCallback>
        HAL_TIM_PWM_PulseFinishedCallback(htim);
 8001dca:	6878      	ldr	r0, [r7, #4]
 8001dcc:	f000 f89d 	bl	8001f0a <HAL_TIM_PWM_PulseFinishedCallback>
#endif /* USE_HAL_TIM_REGISTER_CALLBACKS */
      }
      htim->Channel = HAL_TIM_ACTIVE_CHANNEL_CLEARED;
 8001dd0:	687b      	ldr	r3, [r7, #4]
 8001dd2:	2200      	movs	r2, #0
 8001dd4:	771a      	strb	r2, [r3, #28]
    }
  }
  /* Capture compare 4 event */
  if (__HAL_TIM_GET_FLAG(htim, TIM_FLAG_CC4) != RESET)
 8001dd6:	687b      	ldr	r3, [r7, #4]
 8001dd8:	681b      	ldr	r3, [r3, #0]
 8001dda:	691b      	ldr	r3, [r3, #16]
 8001ddc:	f003 0310 	and.w	r3, r3, #16
 8001de0:	2b10      	cmp	r3, #16
 8001de2:	d122      	bne.n	8001e2a <HAL_TIM_IRQHandler+0x158>
  {
    if (__HAL_TIM_GET_IT_SOURCE(htim, TIM_IT_CC4) != RESET)
 8001de4:	687b      	ldr	r3, [r7, #4]
 8001de6:	681b      	ldr	r3, [r3, #0]
 8001de8:	68db      	ldr	r3, [r3, #12]
 8001dea:	f003 0310 	and.w	r3, r3, #16
 8001dee:	2b10      	cmp	r3, #16
 8001df0:	d11b      	bne.n	8001e2a <HAL_TIM_IRQHandler+0x158>
    {
      __HAL_TIM_CLEAR_IT(htim, TIM_IT_CC4);
 8001df2:	687b      	ldr	r3, [r7, #4]
 8001df4:	681b      	ldr	r3, [r3, #0]
 8001df6:	f06f 0210 	mvn.w	r2, #16
 8001dfa:	611a      	str	r2, [r3, #16]
      htim->Channel = HAL_TIM_ACTIVE_CHANNEL_4;
 8001dfc:	687b      	ldr	r3, [r7, #4]
 8001dfe:	2208      	movs	r2, #8
 8001e00:	771a      	strb	r2, [r3, #28]
      /* Input capture event */
      if ((htim->Instance->CCMR2 & TIM_CCMR2_CC4S) != 0x00U)
 8001e02:	687b      	ldr	r3, [r7, #4]
 8001e04:	681b      	ldr	r3, [r3, #0]
 8001e06:	69db      	ldr	r3, [r3, #28]
 8001e08:	f403 7340 	and.w	r3, r3, #768	; 0x300
 8001e0c:	2b00      	cmp	r3, #0
 8001e0e:	d003      	beq.n	8001e18 <HAL_TIM_IRQHandler+0x146>
      {
#if (USE_HAL_TIM_REGISTER_CALLBACKS == 1)
        htim->IC_CaptureCallback(htim);
#else
        HAL_TIM_IC_CaptureCallback(htim);
 8001e10:	6878      	ldr	r0, [r7, #4]
 8001e12:	f000 f870 	bl	8001ef6 <HAL_TIM_IC_CaptureCallback>
 8001e16:	e005      	b.n	8001e24 <HAL_TIM_IRQHandler+0x152>
      {
#if (USE_HAL_TIM_REGISTER_CALLBACKS == 1)
        htim->OC_DelayElapsedCallback(htim);
        htim->PWM_PulseFinishedCallback(htim);
#else
        HAL_TIM_OC_DelayElapsedCallback(htim);
 8001e18:	6878      	ldr	r0, [r7, #4]
 8001e1a:	f000 f862 	bl	8001ee2 <HAL_TIM_OC_DelayElapsedCallback>
        HAL_TIM_PWM_PulseFinishedCallback(htim);
 8001e1e:	6878      	ldr	r0, [r7, #4]
 8001e20:	f000 f873 	bl	8001f0a <HAL_TIM_PWM_PulseFinishedCallback>
#endif /* USE_HAL_TIM_REGISTER_CALLBACKS */
      }
      htim->Channel = HAL_TIM_ACTIVE_CHANNEL_CLEARED;
 8001e24:	687b      	ldr	r3, [r7, #4]
 8001e26:	2200      	movs	r2, #0
 8001e28:	771a      	strb	r2, [r3, #28]
    }
  }
  /* TIM Update event */
  if (__HAL_TIM_GET_FLAG(htim, TIM_FLAG_UPDATE) != RESET)
 8001e2a:	687b      	ldr	r3, [r7, #4]
 8001e2c:	681b      	ldr	r3, [r3, #0]
 8001e2e:	691b      	ldr	r3, [r3, #16]
 8001e30:	f003 0301 	and.w	r3, r3, #1
 8001e34:	2b01      	cmp	r3, #1
 8001e36:	d10e      	bne.n	8001e56 <HAL_TIM_IRQHandler+0x184>
  {
    if (__HAL_TIM_GET_IT_SOURCE(htim, TIM_IT_UPDATE) != RESET)
 8001e38:	687b      	ldr	r3, [r7, #4]
 8001e3a:	681b      	ldr	r3, [r3, #0]
 8001e3c:	68db      	ldr	r3, [r3, #12]
 8001e3e:	f003 0301 	and.w	r3, r3, #1
 8001e42:	2b01      	cmp	r3, #1
 8001e44:	d107      	bne.n	8001e56 <HAL_TIM_IRQHandler+0x184>
    {
      __HAL_TIM_CLEAR_IT(htim, TIM_IT_UPDATE);
 8001e46:	687b      	ldr	r3, [r7, #4]
 8001e48:	681b      	ldr	r3, [r3, #0]
 8001e4a:	f06f 0201 	mvn.w	r2, #1
 8001e4e:	611a      	str	r2, [r3, #16]
#if (USE_HAL_TIM_REGISTER_CALLBACKS == 1)
      htim->PeriodElapsedCallback(htim);
#else
      HAL_TIM_PeriodElapsedCallback(htim);
 8001e50:	6878      	ldr	r0, [r7, #4]
 8001e52:	f7fe fd3f 	bl	80008d4 <HAL_TIM_PeriodElapsedCallback>
#endif /* USE_HAL_TIM_REGISTER_CALLBACKS */
    }
  }
  /* TIM Break input event */
  if (__HAL_TIM_GET_FLAG(htim, TIM_FLAG_BREAK) != RESET)
 8001e56:	687b      	ldr	r3, [r7, #4]
 8001e58:	681b      	ldr	r3, [r3, #0]
 8001e5a:	691b      	ldr	r3, [r3, #16]
 8001e5c:	f003 0380 	and.w	r3, r3, #128	; 0x80
 8001e60:	2b80      	cmp	r3, #128	; 0x80
 8001e62:	d10e      	bne.n	8001e82 <HAL_TIM_IRQHandler+0x1b0>
  {
    if (__HAL_TIM_GET_IT_SOURCE(htim, TIM_IT_BREAK) != RESET)
 8001e64:	687b      	ldr	r3, [r7, #4]
 8001e66:	681b      	ldr	r3, [r3, #0]
 8001e68:	68db      	ldr	r3, [r3, #12]
 8001e6a:	f003 0380 	and.w	r3, r3, #128	; 0x80
 8001e6e:	2b80      	cmp	r3, #128	; 0x80
 8001e70:	d107      	bne.n	8001e82 <HAL_TIM_IRQHandler+0x1b0>
    {
      __HAL_TIM_CLEAR_IT(htim, TIM_IT_BREAK);
 8001e72:	687b      	ldr	r3, [r7, #4]
 8001e74:	681b      	ldr	r3, [r3, #0]
 8001e76:	f06f 0280 	mvn.w	r2, #128	; 0x80
 8001e7a:	611a      	str	r2, [r3, #16]
#if (USE_HAL_TIM_REGISTER_CALLBACKS == 1)
      htim->BreakCallback(htim);
#else
      HAL_TIMEx_BreakCallback(htim);
 8001e7c:	6878      	ldr	r0, [r7, #4]
 8001e7e:	f000 f97f 	bl	8002180 <HAL_TIMEx_BreakCallback>
#endif /* USE_HAL_TIM_REGISTER_CALLBACKS */
    }
  }
  /* TIM Trigger detection event */
  if (__HAL_TIM_GET_FLAG(htim, TIM_FLAG_TRIGGER) != RESET)
 8001e82:	687b      	ldr	r3, [r7, #4]
 8001e84:	681b      	ldr	r3, [r3, #0]
 8001e86:	691b      	ldr	r3, [r3, #16]
 8001e88:	f003 0340 	and.w	r3, r3, #64	; 0x40
 8001e8c:	2b40      	cmp	r3, #64	; 0x40
 8001e8e:	d10e      	bne.n	8001eae <HAL_TIM_IRQHandler+0x1dc>
  {
    if (__HAL_TIM_GET_IT_SOURCE(htim, TIM_IT_TRIGGER) != RESET)
 8001e90:	687b      	ldr	r3, [r7, #4]
 8001e92:	681b      	ldr	r3, [r3, #0]
 8001e94:	68db      	ldr	r3, [r3, #12]
 8001e96:	f003 0340 	and.w	r3, r3, #64	; 0x40
 8001e9a:	2b40      	cmp	r3, #64	; 0x40
 8001e9c:	d107      	bne.n	8001eae <HAL_TIM_IRQHandler+0x1dc>
    {
      __HAL_TIM_CLEAR_IT(htim, TIM_IT_TRIGGER);
 8001e9e:	687b      	ldr	r3, [r7, #4]
 8001ea0:	681b      	ldr	r3, [r3, #0]
 8001ea2:	f06f 0240 	mvn.w	r2, #64	; 0x40
 8001ea6:	611a      	str	r2, [r3, #16]
#if (USE_HAL_TIM_REGISTER_CALLBACKS == 1)
      htim->TriggerCallback(htim);
#else
      HAL_TIM_TriggerCallback(htim);
 8001ea8:	6878      	ldr	r0, [r7, #4]
 8001eaa:	f000 f838 	bl	8001f1e <HAL_TIM_TriggerCallback>
#endif /* USE_HAL_TIM_REGISTER_CALLBACKS */
    }
  }
  /* TIM commutation event */
  if (__HAL_TIM_GET_FLAG(htim, TIM_FLAG_COM) != RESET)
 8001eae:	687b      	ldr	r3, [r7, #4]
 8001eb0:	681b      	ldr	r3, [r3, #0]
 8001eb2:	691b      	ldr	r3, [r3, #16]
 8001eb4:	f003 0320 	and.w	r3, r3, #32
 8001eb8:	2b20      	cmp	r3, #32
 8001eba:	d10e      	bne.n	8001eda <HAL_TIM_IRQHandler+0x208>
  {
    if (__HAL_TIM_GET_IT_SOURCE(htim, TIM_IT_COM) != RESET)
 8001ebc:	687b      	ldr	r3, [r7, #4]
 8001ebe:	681b      	ldr	r3, [r3, #0]
 8001ec0:	68db      	ldr	r3, [r3, #12]
 8001ec2:	f003 0320 	and.w	r3, r3, #32
 8001ec6:	2b20      	cmp	r3, #32
 8001ec8:	d107      	bne.n	8001eda <HAL_TIM_IRQHandler+0x208>
    {
      __HAL_TIM_CLEAR_IT(htim, TIM_FLAG_COM);
 8001eca:	687b      	ldr	r3, [r7, #4]
 8001ecc:	681b      	ldr	r3, [r3, #0]
 8001ece:	f06f 0220 	mvn.w	r2, #32
 8001ed2:	611a      	str	r2, [r3, #16]
#if (USE_HAL_TIM_REGISTER_CALLBACKS == 1)
      htim->CommutationCallback(htim);
#else
      HAL_TIMEx_CommutCallback(htim);
 8001ed4:	6878      	ldr	r0, [r7, #4]
 8001ed6:	f000 f949 	bl	800216c <HAL_TIMEx_CommutCallback>
#endif /* USE_HAL_TIM_REGISTER_CALLBACKS */
    }
  }
}
 8001eda:	bf00      	nop
 8001edc:	3708      	adds	r7, #8
 8001ede:	46bd      	mov	sp, r7
 8001ee0:	bd80      	pop	{r7, pc}

08001ee2 <HAL_TIM_OC_DelayElapsedCallback>:
  * @brief  Output Compare callback in non-blocking mode
  * @param  htim TIM OC handle
  * @retval None
  */
__weak void HAL_TIM_OC_DelayElapsedCallback(TIM_HandleTypeDef *htim)
{
 8001ee2:	b480      	push	{r7}
 8001ee4:	b083      	sub	sp, #12
 8001ee6:	af00      	add	r7, sp, #0
 8001ee8:	6078      	str	r0, [r7, #4]
  UNUSED(htim);

  /* NOTE : This function should not be modified, when the callback is needed,
            the HAL_TIM_OC_DelayElapsedCallback could be implemented in the user file
   */
}
 8001eea:	bf00      	nop
 8001eec:	370c      	adds	r7, #12
 8001eee:	46bd      	mov	sp, r7
 8001ef0:	f85d 7b04 	ldr.w	r7, [sp], #4
 8001ef4:	4770      	bx	lr

08001ef6 <HAL_TIM_IC_CaptureCallback>:
  * @brief  Input Capture callback in non-blocking mode
  * @param  htim TIM IC handle
  * @retval None
  */
__weak void HAL_TIM_IC_CaptureCallback(TIM_HandleTypeDef *htim)
{
 8001ef6:	b480      	push	{r7}
 8001ef8:	b083      	sub	sp, #12
 8001efa:	af00      	add	r7, sp, #0
 8001efc:	6078      	str	r0, [r7, #4]
  UNUSED(htim);

  /* NOTE : This function should not be modified, when the callback is needed,
            the HAL_TIM_IC_CaptureCallback could be implemented in the user file
   */
}
 8001efe:	bf00      	nop
 8001f00:	370c      	adds	r7, #12
 8001f02:	46bd      	mov	sp, r7
 8001f04:	f85d 7b04 	ldr.w	r7, [sp], #4
 8001f08:	4770      	bx	lr

08001f0a <HAL_TIM_PWM_PulseFinishedCallback>:
  * @brief  PWM Pulse finished callback in non-blocking mode
  * @param  htim TIM handle
  * @retval None
  */
__weak void HAL_TIM_PWM_PulseFinishedCallback(TIM_HandleTypeDef *htim)
{
 8001f0a:	b480      	push	{r7}
 8001f0c:	b083      	sub	sp, #12
 8001f0e:	af00      	add	r7, sp, #0
 8001f10:	6078      	str	r0, [r7, #4]
  UNUSED(htim);

  /* NOTE : This function should not be modified, when the callback is needed,
            the HAL_TIM_PWM_PulseFinishedCallback could be implemented in the user file
   */
}
 8001f12:	bf00      	nop
 8001f14:	370c      	adds	r7, #12
 8001f16:	46bd      	mov	sp, r7
 8001f18:	f85d 7b04 	ldr.w	r7, [sp], #4
 8001f1c:	4770      	bx	lr

08001f1e <HAL_TIM_TriggerCallback>:
  * @brief  Hall Trigger detection callback in non-blocking mode
  * @param  htim TIM handle
  * @retval None
  */
__weak void HAL_TIM_TriggerCallback(TIM_HandleTypeDef *htim)
{
 8001f1e:	b480      	push	{r7}
 8001f20:	b083      	sub	sp, #12
 8001f22:	af00      	add	r7, sp, #0
 8001f24:	6078      	str	r0, [r7, #4]
  UNUSED(htim);

  /* NOTE : This function should not be modified, when the callback is needed,
            the HAL_TIM_TriggerCallback could be implemented in the user file
   */
}
 8001f26:	bf00      	nop
 8001f28:	370c      	adds	r7, #12
 8001f2a:	46bd      	mov	sp, r7
 8001f2c:	f85d 7b04 	ldr.w	r7, [sp], #4
 8001f30:	4770      	bx	lr
	...

08001f34 <TIM_Base_SetConfig>:
  * @param  TIMx TIM peripheral
  * @param  Structure TIM Base configuration structure
  * @retval None
  */
void TIM_Base_SetConfig(TIM_TypeDef *TIMx, TIM_Base_InitTypeDef *Structure)
{
 8001f34:	b480      	push	{r7}
 8001f36:	b085      	sub	sp, #20
 8001f38:	af00      	add	r7, sp, #0
 8001f3a:	6078      	str	r0, [r7, #4]
 8001f3c:	6039      	str	r1, [r7, #0]
  uint32_t tmpcr1;
  tmpcr1 = TIMx->CR1;
 8001f3e:	687b      	ldr	r3, [r7, #4]
 8001f40:	681b      	ldr	r3, [r3, #0]
 8001f42:	60fb      	str	r3, [r7, #12]

  /* Set TIM Time Base Unit parameters ---------------------------------------*/
  if (IS_TIM_COUNTER_MODE_SELECT_INSTANCE(TIMx))
 8001f44:	687b      	ldr	r3, [r7, #4]
 8001f46:	4a40      	ldr	r2, [pc, #256]	; (8002048 <TIM_Base_SetConfig+0x114>)
 8001f48:	4293      	cmp	r3, r2
 8001f4a:	d013      	beq.n	8001f74 <TIM_Base_SetConfig+0x40>
 8001f4c:	687b      	ldr	r3, [r7, #4]
 8001f4e:	f1b3 4f80 	cmp.w	r3, #1073741824	; 0x40000000
 8001f52:	d00f      	beq.n	8001f74 <TIM_Base_SetConfig+0x40>
 8001f54:	687b      	ldr	r3, [r7, #4]
 8001f56:	4a3d      	ldr	r2, [pc, #244]	; (800204c <TIM_Base_SetConfig+0x118>)
 8001f58:	4293      	cmp	r3, r2
 8001f5a:	d00b      	beq.n	8001f74 <TIM_Base_SetConfig+0x40>
 8001f5c:	687b      	ldr	r3, [r7, #4]
 8001f5e:	4a3c      	ldr	r2, [pc, #240]	; (8002050 <TIM_Base_SetConfig+0x11c>)
 8001f60:	4293      	cmp	r3, r2
 8001f62:	d007      	beq.n	8001f74 <TIM_Base_SetConfig+0x40>
 8001f64:	687b      	ldr	r3, [r7, #4]
 8001f66:	4a3b      	ldr	r2, [pc, #236]	; (8002054 <TIM_Base_SetConfig+0x120>)
 8001f68:	4293      	cmp	r3, r2
 8001f6a:	d003      	beq.n	8001f74 <TIM_Base_SetConfig+0x40>
 8001f6c:	687b      	ldr	r3, [r7, #4]
 8001f6e:	4a3a      	ldr	r2, [pc, #232]	; (8002058 <TIM_Base_SetConfig+0x124>)
 8001f70:	4293      	cmp	r3, r2
 8001f72:	d108      	bne.n	8001f86 <TIM_Base_SetConfig+0x52>
  {
    /* Select the Counter Mode */
    tmpcr1 &= ~(TIM_CR1_DIR | TIM_CR1_CMS);
 8001f74:	68fb      	ldr	r3, [r7, #12]
 8001f76:	f023 0370 	bic.w	r3, r3, #112	; 0x70
 8001f7a:	60fb      	str	r3, [r7, #12]
    tmpcr1 |= Structure->CounterMode;
 8001f7c:	683b      	ldr	r3, [r7, #0]
 8001f7e:	685b      	ldr	r3, [r3, #4]
 8001f80:	68fa      	ldr	r2, [r7, #12]
 8001f82:	4313      	orrs	r3, r2
 8001f84:	60fb      	str	r3, [r7, #12]
  }

  if (IS_TIM_CLOCK_DIVISION_INSTANCE(TIMx))
 8001f86:	687b      	ldr	r3, [r7, #4]
 8001f88:	4a2f      	ldr	r2, [pc, #188]	; (8002048 <TIM_Base_SetConfig+0x114>)
 8001f8a:	4293      	cmp	r3, r2
 8001f8c:	d02b      	beq.n	8001fe6 <TIM_Base_SetConfig+0xb2>
 8001f8e:	687b      	ldr	r3, [r7, #4]
 8001f90:	f1b3 4f80 	cmp.w	r3, #1073741824	; 0x40000000
 8001f94:	d027      	beq.n	8001fe6 <TIM_Base_SetConfig+0xb2>
 8001f96:	687b      	ldr	r3, [r7, #4]
 8001f98:	4a2c      	ldr	r2, [pc, #176]	; (800204c <TIM_Base_SetConfig+0x118>)
 8001f9a:	4293      	cmp	r3, r2
 8001f9c:	d023      	beq.n	8001fe6 <TIM_Base_SetConfig+0xb2>
 8001f9e:	687b      	ldr	r3, [r7, #4]
 8001fa0:	4a2b      	ldr	r2, [pc, #172]	; (8002050 <TIM_Base_SetConfig+0x11c>)
 8001fa2:	4293      	cmp	r3, r2
 8001fa4:	d01f      	beq.n	8001fe6 <TIM_Base_SetConfig+0xb2>
 8001fa6:	687b      	ldr	r3, [r7, #4]
 8001fa8:	4a2a      	ldr	r2, [pc, #168]	; (8002054 <TIM_Base_SetConfig+0x120>)
 8001faa:	4293      	cmp	r3, r2
 8001fac:	d01b      	beq.n	8001fe6 <TIM_Base_SetConfig+0xb2>
 8001fae:	687b      	ldr	r3, [r7, #4]
 8001fb0:	4a29      	ldr	r2, [pc, #164]	; (8002058 <TIM_Base_SetConfig+0x124>)
 8001fb2:	4293      	cmp	r3, r2
 8001fb4:	d017      	beq.n	8001fe6 <TIM_Base_SetConfig+0xb2>
 8001fb6:	687b      	ldr	r3, [r7, #4]
 8001fb8:	4a28      	ldr	r2, [pc, #160]	; (800205c <TIM_Base_SetConfig+0x128>)
 8001fba:	4293      	cmp	r3, r2
 8001fbc:	d013      	beq.n	8001fe6 <TIM_Base_SetConfig+0xb2>
 8001fbe:	687b      	ldr	r3, [r7, #4]
 8001fc0:	4a27      	ldr	r2, [pc, #156]	; (8002060 <TIM_Base_SetConfig+0x12c>)
 8001fc2:	4293      	cmp	r3, r2
 8001fc4:	d00f      	beq.n	8001fe6 <TIM_Base_SetConfig+0xb2>
 8001fc6:	687b      	ldr	r3, [r7, #4]
 8001fc8:	4a26      	ldr	r2, [pc, #152]	; (8002064 <TIM_Base_SetConfig+0x130>)
 8001fca:	4293      	cmp	r3, r2
 8001fcc:	d00b      	beq.n	8001fe6 <TIM_Base_SetConfig+0xb2>
 8001fce:	687b      	ldr	r3, [r7, #4]
 8001fd0:	4a25      	ldr	r2, [pc, #148]	; (8002068 <TIM_Base_SetConfig+0x134>)
 8001fd2:	4293      	cmp	r3, r2
