
006_timer_basic_100ms_led2_intrupt.elf:     file format elf32-littlearm

Sections:
Idx Name          Size      VMA       LMA       File off  Algn
  0 .isr_vector   00000188  08000000  08000000  00010000  2**0
                  CONTENTS, ALLOC, LOAD, READONLY, DATA
  1 .text         00000d94  08000188  08000188  00010188  2**2
                  CONTENTS, ALLOC, LOAD, READONLY, CODE
  2 .rodata       00000000  08000f1c  08000f1c  0002000c  2**0
                  CONTENTS, ALLOC, LOAD, DATA
  3 .ARM.extab    00000000  08000f1c  08000f1c  0002000c  2**0
                  CONTENTS
  4 .ARM          00000000  08000f1c  08000f1c  0002000c  2**0
                  CONTENTS
  5 .preinit_array 00000000  08000f1c  08000f1c  0002000c  2**0
                  CONTENTS, ALLOC, LOAD, DATA
  6 .init_array   00000004  08000f1c  08000f1c  00010f1c  2**2
                  CONTENTS, ALLOC, LOAD, DATA
  7 .fini_array   00000004  08000f20  08000f20  00010f20  2**2
                  CONTENTS, ALLOC, LOAD, DATA
  8 .data         0000000c  20000000  08000f24  00020000  2**2
                  CONTENTS, ALLOC, LOAD, DATA
  9 .bss          00000060  2000000c  08000f30  0002000c  2**2
                  ALLOC
 10 ._user_heap_stack 00000604  2000006c  08000f30  0002006c  2**0
                  ALLOC
 11 .ARM.attributes 00000030  00000000  00000000  0002000c  2**0
                  CONTENTS, READONLY
 12 .debug_info   00007ed3  00000000  00000000  0002003c  2**0
                  CONTENTS, READONLY, DEBUGGING
 13 .debug_abbrev 00001144  00000000  00000000  00027f0f  2**0
                  CONTENTS, READONLY, DEBUGGING
 14 .debug_aranges 00000840  00000000  00000000  00029058  2**3
                  CONTENTS, READONLY, DEBUGGING
 15 .debug_ranges 000007a8  00000000  00000000  00029898  2**3
                  CONTENTS, READONLY, DEBUGGING
 16 .debug_macro  0002110c  00000000  00000000  0002a040  2**0
                  CONTENTS, READONLY, DEBUGGING
 17 .debug_line   0000647e  00000000  00000000  0004b14c  2**0
                  CONTENTS, READONLY, DEBUGGING
 18 .debug_str    000cbb35  00000000  00000000  000515ca  2**0
                  CONTENTS, READONLY, DEBUGGING
 19 .comment      0000007b  00000000  00000000  0011d0ff  2**0
                  CONTENTS, READONLY
 20 .debug_frame  000021ec  00000000  00000000  0011d17c  2**2
                  CONTENTS, READONLY, DEBUGGING

Disassembly of section .text:

08000188 <__do_global_dtors_aux>:
 8000188:	b510      	push	{r4, lr}
 800018a:	4c05      	ldr	r4, [pc, #20]	; (80001a0 <__do_global_dtors_aux+0x18>)
 800018c:	7823      	ldrb	r3, [r4, #0]
 800018e:	b933      	cbnz	r3, 800019e <__do_global_dtors_aux+0x16>
 8000190:	4b04      	ldr	r3, [pc, #16]	; (80001a4 <__do_global_dtors_aux+0x1c>)
 8000192:	b113      	cbz	r3, 800019a <__do_global_dtors_aux+0x12>
 8000194:	4804      	ldr	r0, [pc, #16]	; (80001a8 <__do_global_dtors_aux+0x20>)
 8000196:	f3af 8000 	nop.w
 800019a:	2301      	movs	r3, #1
 800019c:	7023      	strb	r3, [r4, #0]
 800019e:	bd10      	pop	{r4, pc}
 80001a0:	2000000c 	.word	0x2000000c
 80001a4:	00000000 	.word	0x00000000
 80001a8:	08000f04 	.word	0x08000f04

080001ac <frame_dummy>:
 80001ac:	b508      	push	{r3, lr}
 80001ae:	4b03      	ldr	r3, [pc, #12]	; (80001bc <frame_dummy+0x10>)
 80001b0:	b11b      	cbz	r3, 80001ba <frame_dummy+0xe>
 80001b2:	4903      	ldr	r1, [pc, #12]	; (80001c0 <frame_dummy+0x14>)
 80001b4:	4803      	ldr	r0, [pc, #12]	; (80001c4 <frame_dummy+0x18>)
 80001b6:	f3af 8000 	nop.w
 80001ba:	bd08      	pop	{r3, pc}
 80001bc:	00000000 	.word	0x00000000
 80001c0:	20000010 	.word	0x20000010
 80001c4:	08000f04 	.word	0x08000f04

080001c8 <SysTick_Handler>:
#include "main.h"


extern TIM_HandleTypeDef htimer6;
void SysTick_Handler (void)
{
 80001c8:	b580      	push	{r7, lr}
 80001ca:	af00      	add	r7, sp, #0
	HAL_IncTick();
 80001cc:	f000 f95c 	bl	8000488 <HAL_IncTick>
	HAL_SYSTICK_IRQHandler();
 80001d0:	f000 fa7f 	bl	80006d2 <HAL_SYSTICK_IRQHandler>
}
 80001d4:	bf00      	nop
 80001d6:	bd80      	pop	{r7, pc}

080001d8 <TIM6_DAC_IRQHandler>:

void TIM6_DAC_IRQHandler ()
{
 80001d8:	b580      	push	{r7, lr}
 80001da:	af00      	add	r7, sp, #0
	HAL_TIM_IRQHandler(&htimer6);
 80001dc:	4802      	ldr	r0, [pc, #8]	; (80001e8 <TIM6_DAC_IRQHandler+0x10>)
 80001de:	f000 fc89 	bl	8000af4 <HAL_TIM_IRQHandler>
}
 80001e2:	bf00      	nop
 80001e4:	bd80      	pop	{r7, pc}
 80001e6:	bf00      	nop
 80001e8:	20000028 	.word	0x20000028

080001ec <main>:




int main (void)
{
 80001ec:	b580      	push	{r7, lr}
 80001ee:	af00      	add	r7, sp, #0



    HAL_Init();
 80001f0:	f000 f8f8 	bl	80003e4 <HAL_Init>
    SystemClock_Config();
 80001f4:	f000 f80a 	bl	800020c <SystemClock_Config>
    GPIO_inti();
 80001f8:	f000 f810 	bl	800021c <GPIO_inti>

    TIMER6_Init();
 80001fc:	f000 f83a 	bl	8000274 <TIMER6_Init>
    while(1)
    {
    //lets start timer
    HAL_TIM_Base_Start_IT(&htimer6);
 8000200:	4801      	ldr	r0, [pc, #4]	; (8000208 <main+0x1c>)
 8000202:	f000 fc53 	bl	8000aac <HAL_TIM_Base_Start_IT>
 8000206:	e7fb      	b.n	8000200 <main+0x14>
 8000208:	20000028 	.word	0x20000028

0800020c <SystemClock_Config>:
return 0;
}


void SystemClock_Config()
{
 800020c:	b480      	push	{r7}
 800020e:	af00      	add	r7, sp, #0
 //we use by default clokc internal rc osc
}
 8000210:	bf00      	nop
 8000212:	46bd      	mov	sp, r7
 8000214:	f85d 7b04 	ldr.w	r7, [sp], #4
 8000218:	4770      	bx	lr
	...

0800021c <GPIO_inti>:


void GPIO_inti()
{
 800021c:	b580      	push	{r7, lr}
 800021e:	b086      	sub	sp, #24
 8000220:	af00      	add	r7, sp, #0
	__HAL_RCC_GPIOD_CLK_ENABLE();
 8000222:	2300      	movs	r3, #0
 8000224:	603b      	str	r3, [r7, #0]
 8000226:	4b0f      	ldr	r3, [pc, #60]	; (8000264 <GPIO_inti+0x48>)
 8000228:	6b1b      	ldr	r3, [r3, #48]	; 0x30
 800022a:	4a0e      	ldr	r2, [pc, #56]	; (8000264 <GPIO_inti+0x48>)
 800022c:	f043 0308 	orr.w	r3, r3, #8
 8000230:	6313      	str	r3, [r2, #48]	; 0x30
 8000232:	4b0c      	ldr	r3, [pc, #48]	; (8000264 <GPIO_inti+0x48>)
 8000234:	6b1b      	ldr	r3, [r3, #48]	; 0x30
 8000236:	f003 0308 	and.w	r3, r3, #8
 800023a:	603b      	str	r3, [r7, #0]
 800023c:	683b      	ldr	r3, [r7, #0]
	GPIO_InitTypeDef ledgpio;
	ledgpio.Mode =GPIO_MODE_OUTPUT_PP;
 800023e:	2301      	movs	r3, #1
 8000240:	60bb      	str	r3, [r7, #8]
	ledgpio.Pin  =GPIO_PIN_12;
 8000242:	f44f 5380 	mov.w	r3, #4096	; 0x1000
 8000246:	607b      	str	r3, [r7, #4]
	ledgpio.Speed=GPIO_SPEED_FREQ_HIGH;
 8000248:	2302      	movs	r3, #2
 800024a:	613b      	str	r3, [r7, #16]
	ledgpio.Pull=GPIO_NOPULL;
 800024c:	2300      	movs	r3, #0
 800024e:	60fb      	str	r3, [r7, #12]

	HAL_GPIO_Init(GPIOD, &ledgpio);
 8000250:	1d3b      	adds	r3, r7, #4
 8000252:	4619      	mov	r1, r3
 8000254:	4804      	ldr	r0, [pc, #16]	; (8000268 <GPIO_inti+0x4c>)
 8000256:	f000 fa49 	bl	80006ec <HAL_GPIO_Init>
}
 800025a:	bf00      	nop
 800025c:	3718      	adds	r7, #24
 800025e:	46bd      	mov	sp, r7
 8000260:	bd80      	pop	{r7, pc}
 8000262:	bf00      	nop
 8000264:	40023800 	.word	0x40023800
 8000268:	40020c00 	.word	0x40020c00

0800026c <Error_handler>:

void Error_handler()
{
 800026c:	b480      	push	{r7}
 800026e:	af00      	add	r7, sp, #0
	while(1);
 8000270:	e7fe      	b.n	8000270 <Error_handler+0x4>
	...

08000274 <TIMER6_Init>:
}

void TIMER6_Init()
{
 8000274:	b580      	push	{r7, lr}
 8000276:	af00      	add	r7, sp, #0
	htimer6.Instance       = TIM6;
 8000278:	4b09      	ldr	r3, [pc, #36]	; (80002a0 <TIMER6_Init+0x2c>)
 800027a:	4a0a      	ldr	r2, [pc, #40]	; (80002a4 <TIMER6_Init+0x30>)
 800027c:	601a      	str	r2, [r3, #0]
	htimer6.Init.Prescaler = 24;
 800027e:	4b08      	ldr	r3, [pc, #32]	; (80002a0 <TIMER6_Init+0x2c>)
 8000280:	2218      	movs	r2, #24
 8000282:	605a      	str	r2, [r3, #4]
	htimer6.Init.Period    = 64000 -1;
 8000284:	4b06      	ldr	r3, [pc, #24]	; (80002a0 <TIMER6_Init+0x2c>)
 8000286:	f64f 12ff 	movw	r2, #63999	; 0xf9ff
 800028a:	60da      	str	r2, [r3, #12]

	if (HAL_TIM_Base_Init(&htimer6)!=HAL_OK)
 800028c:	4804      	ldr	r0, [pc, #16]	; (80002a0 <TIMER6_Init+0x2c>)
 800028e:	f000 fbe2 	bl	8000a56 <HAL_TIM_Base_Init>
 8000292:	4603      	mov	r3, r0
 8000294:	2b00      	cmp	r3, #0
 8000296:	d001      	beq.n	800029c <TIMER6_Init+0x28>
	{
		Error_handler();
 8000298:	f7ff ffe8 	bl	800026c <Error_handler>
	}
}
 800029c:	bf00      	nop
 800029e:	bd80      	pop	{r7, pc}
 80002a0:	20000028 	.word	0x20000028
 80002a4:	40001000 	.word	0x40001000

080002a8 <HAL_TIM_PeriodElapsedCallback>:




 void HAL_TIM_PeriodElapsedCallback(TIM_HandleTypeDef *htim)
{
 80002a8:	b580      	push	{r7, lr}
 80002aa:	b082      	sub	sp, #8
 80002ac:	af00      	add	r7, sp, #0
 80002ae:	6078      	str	r0, [r7, #4]
	 HAL_GPIO_TogglePin(GPIOD, GPIO_PIN_12);
 80002b0:	f44f 5180 	mov.w	r1, #4096	; 0x1000
 80002b4:	4803      	ldr	r0, [pc, #12]	; (80002c4 <HAL_TIM_PeriodElapsedCallback+0x1c>)
 80002b6:	f000 fbb3 	bl	8000a20 <HAL_GPIO_TogglePin>

}
 80002ba:	bf00      	nop
 80002bc:	3708      	adds	r7, #8
 80002be:	46bd      	mov	sp, r7
 80002c0:	bd80      	pop	{r7, pc}
 80002c2:	bf00      	nop
 80002c4:	40020c00 	.word	0x40020c00

080002c8 <HAL_MspInit>:
 *      Author: Developer
 */
#include "main.h"
#include "stm32f4xx_hal_gpio.h"
 void HAL_MspInit(void)
{
 80002c8:	b580      	push	{r7, lr}
 80002ca:	af00      	add	r7, sp, #0
  /* NOTE : This function should not be modified, when the callback is needed,
            the HAL_MspInit could be implemented in the user file
   */
	 //1.priority grouping
	 // we use default one it is under hal driver layer under hal_cortex.c
	 HAL_NVIC_SetPriorityGrouping(NVIC_PRIORITYGROUP_4);
 80002cc:	2003      	movs	r0, #3
 80002ce:	f000 f9bf 	bl	8000650 <HAL_NVIC_SetPriorityGrouping>
	 //2.system exceptions
	 SCB->SHCSR |=SCB_SHCSR_USGFAULTENA_Msk ; //enable usage
 80002d2:	4b13      	ldr	r3, [pc, #76]	; (8000320 <HAL_MspInit+0x58>)
 80002d4:	6a5b      	ldr	r3, [r3, #36]	; 0x24
 80002d6:	4a12      	ldr	r2, [pc, #72]	; (8000320 <HAL_MspInit+0x58>)
 80002d8:	f443 2380 	orr.w	r3, r3, #262144	; 0x40000
 80002dc:	6253      	str	r3, [r2, #36]	; 0x24
	 SCB->SHCSR |=SCB_SHCSR_BUSFAULTENA_Msk ; //mem
 80002de:	4b10      	ldr	r3, [pc, #64]	; (8000320 <HAL_MspInit+0x58>)
 80002e0:	6a5b      	ldr	r3, [r3, #36]	; 0x24
 80002e2:	4a0f      	ldr	r2, [pc, #60]	; (8000320 <HAL_MspInit+0x58>)
 80002e4:	f443 3300 	orr.w	r3, r3, #131072	; 0x20000
 80002e8:	6253      	str	r3, [r2, #36]	; 0x24
	 SCB->SHCSR |=SCB_SHCSR_MEMFAULTENA_Msk ; //bus
 80002ea:	4b0d      	ldr	r3, [pc, #52]	; (8000320 <HAL_MspInit+0x58>)
 80002ec:	6a5b      	ldr	r3, [r3, #36]	; 0x24
 80002ee:	4a0c      	ldr	r2, [pc, #48]	; (8000320 <HAL_MspInit+0x58>)
 80002f0:	f443 3380 	orr.w	r3, r3, #65536	; 0x10000
 80002f4:	6253      	str	r3, [r2, #36]	; 0x24
	 //3.priority for system exceptions

	 HAL_NVIC_SetPriority(MemoryManagement_IRQn, 0, 0);
 80002f6:	2200      	movs	r2, #0
 80002f8:	2100      	movs	r1, #0
 80002fa:	f06f 000b 	mvn.w	r0, #11
 80002fe:	f000 f9b2 	bl	8000666 <HAL_NVIC_SetPriority>
	 HAL_NVIC_SetPriority(BusFault_IRQn, 0, 0);
 8000302:	2200      	movs	r2, #0
 8000304:	2100      	movs	r1, #0
 8000306:	f06f 000a 	mvn.w	r0, #10
 800030a:	f000 f9ac 	bl	8000666 <HAL_NVIC_SetPriority>
	 HAL_NVIC_SetPriority(UsageFault_IRQn, 0, 0);
 800030e:	2200      	movs	r2, #0
 8000310:	2100      	movs	r1, #0
 8000312:	f06f 0009 	mvn.w	r0, #9
 8000316:	f000 f9a6 	bl	8000666 <HAL_NVIC_SetPriority>
}
 800031a:	bf00      	nop
 800031c:	bd80      	pop	{r7, pc}
 800031e:	bf00      	nop
 8000320:	e000ed00 	.word	0xe000ed00

08000324 <HAL_TIM_Base_MspInit>:


 void HAL_TIM_Base_MspInit(TIM_HandleTypeDef *htimer)
 {
 8000324:	b580      	push	{r7, lr}
 8000326:	b084      	sub	sp, #16
 8000328:	af00      	add	r7, sp, #0
 800032a:	6078      	str	r0, [r7, #4]
	 //1.enable clock for TIM6
	 __HAL_RCC_TIM6_CLK_ENABLE();
 800032c:	2300      	movs	r3, #0
 800032e:	60fb      	str	r3, [r7, #12]
 8000330:	4b0b      	ldr	r3, [pc, #44]	; (8000360 <HAL_TIM_Base_MspInit+0x3c>)
 8000332:	6c1b      	ldr	r3, [r3, #64]	; 0x40
 8000334:	4a0a      	ldr	r2, [pc, #40]	; (8000360 <HAL_TIM_Base_MspInit+0x3c>)
 8000336:	f043 0310 	orr.w	r3, r3, #16
 800033a:	6413      	str	r3, [r2, #64]	; 0x40
 800033c:	4b08      	ldr	r3, [pc, #32]	; (8000360 <HAL_TIM_Base_MspInit+0x3c>)
 800033e:	6c1b      	ldr	r3, [r3, #64]	; 0x40
 8000340:	f003 0310 	and.w	r3, r3, #16
 8000344:	60fb      	str	r3, [r7, #12]
 8000346:	68fb      	ldr	r3, [r7, #12]

	 //2.enable IRQ TIM6
	 HAL_NVIC_EnableIRQ(TIM6_DAC_IRQn);
 8000348:	2036      	movs	r0, #54	; 0x36
 800034a:	f000 f9a8 	bl	800069e <HAL_NVIC_EnableIRQ>

	 //3. setup priority for tim6
	 HAL_NVIC_SetPriority(TIM6_DAC_IRQn, 15, 0);
 800034e:	2200      	movs	r2, #0
 8000350:	210f      	movs	r1, #15
 8000352:	2036      	movs	r0, #54	; 0x36
 8000354:	f000 f987 	bl	8000666 <HAL_NVIC_SetPriority>


 }
 8000358:	bf00      	nop
 800035a:	3710      	adds	r7, #16
 800035c:	46bd      	mov	sp, r7
 800035e:	bd80      	pop	{r7, pc}
 8000360:	40023800 	.word	0x40023800

08000364 <SystemInit>:
  *         configuration.
  * @param  None
  * @retval None
  */
void SystemInit(void)
{
 8000364:	b480      	push	{r7}
 8000366:	af00      	add	r7, sp, #0
  /* FPU settings ------------------------------------------------------------*/
  #if (__FPU_PRESENT == 1) && (__FPU_USED == 1)
    SCB->CPACR |= ((3UL << 10*2)|(3UL << 11*2));  /* set CP10 and CP11 Full Access */
 8000368:	4b08      	ldr	r3, [pc, #32]	; (800038c <SystemInit+0x28>)
 800036a:	f8d3 3088 	ldr.w	r3, [r3, #136]	; 0x88
 800036e:	4a07      	ldr	r2, [pc, #28]	; (800038c <SystemInit+0x28>)
 8000370:	f443 0370 	orr.w	r3, r3, #15728640	; 0xf00000
 8000374:	f8c2 3088 	str.w	r3, [r2, #136]	; 0x88

  /* Configure the Vector Table location add offset address ------------------*/
#ifdef VECT_TAB_SRAM
  SCB->VTOR = SRAM_BASE | VECT_TAB_OFFSET; /* Vector Table Relocation in Internal SRAM */
#else
  SCB->VTOR = FLASH_BASE | VECT_TAB_OFFSET; /* Vector Table Relocation in Internal FLASH */
 8000378:	4b04      	ldr	r3, [pc, #16]	; (800038c <SystemInit+0x28>)
 800037a:	f04f 6200 	mov.w	r2, #134217728	; 0x8000000
 800037e:	609a      	str	r2, [r3, #8]
#endif
}
 8000380:	bf00      	nop
 8000382:	46bd      	mov	sp, r7
 8000384:	f85d 7b04 	ldr.w	r7, [sp], #4
 8000388:	4770      	bx	lr
 800038a:	bf00      	nop
 800038c:	e000ed00 	.word	0xe000ed00

08000390 <Reset_Handler>:

    .section  .text.Reset_Handler
  .weak  Reset_Handler
  .type  Reset_Handler, %function
Reset_Handler:  
  ldr   sp, =_estack     /* set stack pointer */
 8000390:	f8df d034 	ldr.w	sp, [pc, #52]	; 80003c8 <LoopFillZerobss+0x14>

/* Copy the data segment initializers from flash to SRAM */  
  movs  r1, #0
 8000394:	2100      	movs	r1, #0
  b  LoopCopyDataInit
 8000396:	e003      	b.n	80003a0 <LoopCopyDataInit>

08000398 <CopyDataInit>:

CopyDataInit:
  ldr  r3, =_sidata
 8000398:	4b0c      	ldr	r3, [pc, #48]	; (80003cc <LoopFillZerobss+0x18>)
  ldr  r3, [r3, r1]
 800039a:	585b      	ldr	r3, [r3, r1]
  str  r3, [r0, r1]
 800039c:	5043      	str	r3, [r0, r1]
  adds  r1, r1, #4
 800039e:	3104      	adds	r1, #4

080003a0 <LoopCopyDataInit>:
    
LoopCopyDataInit:
  ldr  r0, =_sdata
 80003a0:	480b      	ldr	r0, [pc, #44]	; (80003d0 <LoopFillZerobss+0x1c>)
  ldr  r3, =_edata
 80003a2:	4b0c      	ldr	r3, [pc, #48]	; (80003d4 <LoopFillZerobss+0x20>)
  adds  r2, r0, r1
 80003a4:	1842      	adds	r2, r0, r1
  cmp  r2, r3
 80003a6:	429a      	cmp	r2, r3
  bcc  CopyDataInit
 80003a8:	d3f6      	bcc.n	8000398 <CopyDataInit>
  ldr  r2, =_sbss
 80003aa:	4a0b      	ldr	r2, [pc, #44]	; (80003d8 <LoopFillZerobss+0x24>)
  b  LoopFillZerobss
 80003ac:	e002      	b.n	80003b4 <LoopFillZerobss>

080003ae <FillZerobss>:
/* Zero fill the bss segment. */  
FillZerobss:
  movs  r3, #0
 80003ae:	2300      	movs	r3, #0
  str  r3, [r2], #4
 80003b0:	f842 3b04 	str.w	r3, [r2], #4

080003b4 <LoopFillZerobss>:
    
LoopFillZerobss:
  ldr  r3, = _ebss
 80003b4:	4b09      	ldr	r3, [pc, #36]	; (80003dc <LoopFillZerobss+0x28>)
  cmp  r2, r3
 80003b6:	429a      	cmp	r2, r3
  bcc  FillZerobss
 80003b8:	d3f9      	bcc.n	80003ae <FillZerobss>

/* Call the clock system intitialization function.*/
  bl  SystemInit   
 80003ba:	f7ff ffd3 	bl	8000364 <SystemInit>
/* Call static constructors */
    bl __libc_init_array
 80003be:	f000 fd7d 	bl	8000ebc <__libc_init_array>
/* Call the application's entry point.*/
  bl  main
 80003c2:	f7ff ff13 	bl	80001ec <main>
  bx  lr    
 80003c6:	4770      	bx	lr
  ldr   sp, =_estack     /* set stack pointer */
 80003c8:	20020000 	.word	0x20020000
  ldr  r3, =_sidata
 80003cc:	08000f24 	.word	0x08000f24
  ldr  r0, =_sdata
 80003d0:	20000000 	.word	0x20000000
  ldr  r3, =_edata
 80003d4:	2000000c 	.word	0x2000000c
  ldr  r2, =_sbss
 80003d8:	2000000c 	.word	0x2000000c
  ldr  r3, = _ebss
 80003dc:	2000006c 	.word	0x2000006c

080003e0 <ADC_IRQHandler>:
 * @retval None       
*/
    .section  .text.Default_Handler,"ax",%progbits
Default_Handler:
Infinite_Loop:
  b  Infinite_Loop
 80003e0:	e7fe      	b.n	80003e0 <ADC_IRQHandler>
	...

080003e4 <HAL_Init>:
  *         need to ensure that the SysTick time base is always set to 1 millisecond
  *         to have correct HAL operation.
  * @retval HAL status
  */
HAL_StatusTypeDef HAL_Init(void)
{
 80003e4:	b580      	push	{r7, lr}
 80003e6:	af00      	add	r7, sp, #0
  /* Configure Flash prefetch, Instruction cache, Data cache */ 
#if (INSTRUCTION_CACHE_ENABLE != 0U)
  __HAL_FLASH_INSTRUCTION_CACHE_ENABLE();
 80003e8:	4b0e      	ldr	r3, [pc, #56]	; (8000424 <HAL_Init+0x40>)
 80003ea:	681b      	ldr	r3, [r3, #0]
 80003ec:	4a0d      	ldr	r2, [pc, #52]	; (8000424 <HAL_Init+0x40>)
 80003ee:	f443 7300 	orr.w	r3, r3, #512	; 0x200
 80003f2:	6013      	str	r3, [r2, #0]
#endif /* INSTRUCTION_CACHE_ENABLE */

#if (DATA_CACHE_ENABLE != 0U)
  __HAL_FLASH_DATA_CACHE_ENABLE();
 80003f4:	4b0b      	ldr	r3, [pc, #44]	; (8000424 <HAL_Init+0x40>)
 80003f6:	681b      	ldr	r3, [r3, #0]
 80003f8:	4a0a      	ldr	r2, [pc, #40]	; (8000424 <HAL_Init+0x40>)
 80003fa:	f443 6380 	orr.w	r3, r3, #1024	; 0x400
 80003fe:	6013      	str	r3, [r2, #0]
#endif /* DATA_CACHE_ENABLE */

#if (PREFETCH_ENABLE != 0U)
  __HAL_FLASH_PREFETCH_BUFFER_ENABLE();
 8000400:	4b08      	ldr	r3, [pc, #32]	; (8000424 <HAL_Init+0x40>)
 8000402:	681b      	ldr	r3, [r3, #0]
 8000404:	4a07      	ldr	r2, [pc, #28]	; (8000424 <HAL_Init+0x40>)
 8000406:	f443 7380 	orr.w	r3, r3, #256	; 0x100
 800040a:	6013      	str	r3, [r2, #0]
#endif /* PREFETCH_ENABLE */

  /* Set Interrupt Group Priority */
  HAL_NVIC_SetPriorityGrouping(NVIC_PRIORITYGROUP_4);
 800040c:	2003      	movs	r0, #3
 800040e:	f000 f91f 	bl	8000650 <HAL_NVIC_SetPriorityGrouping>

  /* Use systick as time base source and configure 1ms tick (default clock after Reset is HSI) */
  HAL_InitTick(TICK_INT_PRIORITY);
 8000412:	2000      	movs	r0, #0
 8000414:	f000 f808 	bl	8000428 <HAL_InitTick>

  /* Init the low level hardware */
  HAL_MspInit();
 8000418:	f7ff ff56 	bl	80002c8 <HAL_MspInit>

  /* Return function status */
  return HAL_OK;
 800041c:	2300      	movs	r3, #0
}
 800041e:	4618      	mov	r0, r3
 8000420:	bd80      	pop	{r7, pc}
 8000422:	bf00      	nop
 8000424:	40023c00 	.word	0x40023c00

08000428 <HAL_InitTick>:
  *       implementation  in user file.
  * @param TickPriority Tick interrupt priority.
  * @retval HAL status
  */
__weak HAL_StatusTypeDef HAL_InitTick(uint32_t TickPriority)
{
 8000428:	b580      	push	{r7, lr}
 800042a:	b082      	sub	sp, #8
 800042c:	af00      	add	r7, sp, #0
 800042e:	6078      	str	r0, [r7, #4]
  /* Configure the SysTick to have interrupt in 1ms time basis*/
  if (HAL_SYSTICK_Config(SystemCoreClock / (1000U / uwTickFreq)) > 0U)
 8000430:	4b12      	ldr	r3, [pc, #72]	; (800047c <HAL_InitTick+0x54>)
 8000432:	681a      	ldr	r2, [r3, #0]
 8000434:	4b12      	ldr	r3, [pc, #72]	; (8000480 <HAL_InitTick+0x58>)
 8000436:	781b      	ldrb	r3, [r3, #0]
 8000438:	4619      	mov	r1, r3
 800043a:	f44f 737a 	mov.w	r3, #1000	; 0x3e8
 800043e:	fbb3 f3f1 	udiv	r3, r3, r1
 8000442:	fbb2 f3f3 	udiv	r3, r2, r3
 8000446:	4618      	mov	r0, r3
 8000448:	f000 f937 	bl	80006ba <HAL_SYSTICK_Config>
 800044c:	4603      	mov	r3, r0
 800044e:	2b00      	cmp	r3, #0
 8000450:	d001      	beq.n	8000456 <HAL_InitTick+0x2e>
  {
    return HAL_ERROR;
 8000452:	2301      	movs	r3, #1
 8000454:	e00e      	b.n	8000474 <HAL_InitTick+0x4c>
  }

  /* Configure the SysTick IRQ priority */
  if (TickPriority < (1UL << __NVIC_PRIO_BITS))
 8000456:	687b      	ldr	r3, [r7, #4]
 8000458:	2b0f      	cmp	r3, #15
 800045a:	d80a      	bhi.n	8000472 <HAL_InitTick+0x4a>
  {
    HAL_NVIC_SetPriority(SysTick_IRQn, TickPriority, 0U);
 800045c:	2200      	movs	r2, #0
 800045e:	6879      	ldr	r1, [r7, #4]
 8000460:	f04f 30ff 	mov.w	r0, #4294967295
 8000464:	f000 f8ff 	bl	8000666 <HAL_NVIC_SetPriority>
    uwTickPrio = TickPriority;
 8000468:	4a06      	ldr	r2, [pc, #24]	; (8000484 <HAL_InitTick+0x5c>)
 800046a:	687b      	ldr	r3, [r7, #4]
 800046c:	6013      	str	r3, [r2, #0]
  {
    return HAL_ERROR;
  }

  /* Return function status */
  return HAL_OK;
 800046e:	2300      	movs	r3, #0
 8000470:	e000      	b.n	8000474 <HAL_InitTick+0x4c>
    return HAL_ERROR;
 8000472:	2301      	movs	r3, #1
}
 8000474:	4618      	mov	r0, r3
 8000476:	3708      	adds	r7, #8
 8000478:	46bd      	mov	sp, r7
 800047a:	bd80      	pop	{r7, pc}
 800047c:	20000000 	.word	0x20000000
 8000480:	20000008 	.word	0x20000008
 8000484:	20000004 	.word	0x20000004

08000488 <HAL_IncTick>:
 * @note This function is declared as __weak to be overwritten in case of other 
  *      implementations in user file.
  * @retval None
  */
__weak void HAL_IncTick(void)
{
 8000488:	b480      	push	{r7}
 800048a:	af00      	add	r7, sp, #0
  uwTick += uwTickFreq;
 800048c:	4b06      	ldr	r3, [pc, #24]	; (80004a8 <HAL_IncTick+0x20>)
 800048e:	781b      	ldrb	r3, [r3, #0]
 8000490:	461a      	mov	r2, r3
 8000492:	4b06      	ldr	r3, [pc, #24]	; (80004ac <HAL_IncTick+0x24>)
 8000494:	681b      	ldr	r3, [r3, #0]
 8000496:	4413      	add	r3, r2
 8000498:	4a04      	ldr	r2, [pc, #16]	; (80004ac <HAL_IncTick+0x24>)
 800049a:	6013      	str	r3, [r2, #0]
}
 800049c:	bf00      	nop
 800049e:	46bd      	mov	sp, r7
 80004a0:	f85d 7b04 	ldr.w	r7, [sp], #4
 80004a4:	4770      	bx	lr
 80004a6:	bf00      	nop
 80004a8:	20000008 	.word	0x20000008
 80004ac:	20000068 	.word	0x20000068

080004b0 <__NVIC_SetPriorityGrouping>:
           In case of a conflict between priority grouping and available
           priority bits (__NVIC_PRIO_BITS), the smallest possible priority group is set.
  \param [in]      PriorityGroup  Priority grouping field.
 */
__STATIC_INLINE void __NVIC_SetPriorityGrouping(uint32_t PriorityGroup)
{
 80004b0:	b480      	push	{r7}
 80004b2:	b085      	sub	sp, #20
 80004b4:	af00      	add	r7, sp, #0
 80004b6:	6078      	str	r0, [r7, #4]
  uint32_t reg_value;
  uint32_t PriorityGroupTmp = (PriorityGroup & (uint32_t)0x07UL);             /* only values 0..7 are used          */
 80004b8:	687b      	ldr	r3, [r7, #4]
 80004ba:	f003 0307 	and.w	r3, r3, #7
 80004be:	60fb      	str	r3, [r7, #12]

  reg_value  =  SCB->AIRCR;                                                   /* read old register configuration    */
 80004c0:	4b0c      	ldr	r3, [pc, #48]	; (80004f4 <__NVIC_SetPriorityGrouping+0x44>)
 80004c2:	68db      	ldr	r3, [r3, #12]
 80004c4:	60bb      	str	r3, [r7, #8]
  reg_value &= ~((uint32_t)(SCB_AIRCR_VECTKEY_Msk | SCB_AIRCR_PRIGROUP_Msk)); /* clear bits to change               */
 80004c6:	68ba      	ldr	r2, [r7, #8]
 80004c8:	f64f 03ff 	movw	r3, #63743	; 0xf8ff
 80004cc:	4013      	ands	r3, r2
 80004ce:	60bb      	str	r3, [r7, #8]
  reg_value  =  (reg_value                                   |
                ((uint32_t)0x5FAUL << SCB_AIRCR_VECTKEY_Pos) |
                (PriorityGroupTmp << SCB_AIRCR_PRIGROUP_Pos)  );              /* Insert write key and priority group */
 80004d0:	68fb      	ldr	r3, [r7, #12]
 80004d2:	021a      	lsls	r2, r3, #8
                ((uint32_t)0x5FAUL << SCB_AIRCR_VECTKEY_Pos) |
 80004d4:	68bb      	ldr	r3, [r7, #8]
 80004d6:	4313      	orrs	r3, r2
  reg_value  =  (reg_value                                   |
 80004d8:	f043 63bf 	orr.w	r3, r3, #100139008	; 0x5f80000
 80004dc:	f443 3300 	orr.w	r3, r3, #131072	; 0x20000
 80004e0:	60bb      	str	r3, [r7, #8]
  SCB->AIRCR =  reg_value;
 80004e2:	4a04      	ldr	r2, [pc, #16]	; (80004f4 <__NVIC_SetPriorityGrouping+0x44>)
 80004e4:	68bb      	ldr	r3, [r7, #8]
 80004e6:	60d3      	str	r3, [r2, #12]
}
 80004e8:	bf00      	nop
 80004ea:	3714      	adds	r7, #20
 80004ec:	46bd      	mov	sp, r7
 80004ee:	f85d 7b04 	ldr.w	r7, [sp], #4
 80004f2:	4770      	bx	lr
 80004f4:	e000ed00 	.word	0xe000ed00

080004f8 <__NVIC_GetPriorityGrouping>:
  \brief   Get Priority Grouping
  \details Reads the priority grouping field from the NVIC Interrupt Controller.
  \return                Priority grouping field (SCB->AIRCR [10:8] PRIGROUP field).
 */
__STATIC_INLINE uint32_t __NVIC_GetPriorityGrouping(void)
{
 80004f8:	b480      	push	{r7}
 80004fa:	af00      	add	r7, sp, #0
  return ((uint32_t)((SCB->AIRCR & SCB_AIRCR_PRIGROUP_Msk) >> SCB_AIRCR_PRIGROUP_Pos));
 80004fc:	4b04      	ldr	r3, [pc, #16]	; (8000510 <__NVIC_GetPriorityGrouping+0x18>)
 80004fe:	68db      	ldr	r3, [r3, #12]
 8000500:	0a1b      	lsrs	r3, r3, #8
 8000502:	f003 0307 	and.w	r3, r3, #7
}
 8000506:	4618      	mov	r0, r3
 8000508:	46bd      	mov	sp, r7
 800050a:	f85d 7b04 	ldr.w	r7, [sp], #4
 800050e:	4770      	bx	lr
 8000510:	e000ed00 	.word	0xe000ed00

08000514 <__NVIC_EnableIRQ>:
  \details Enables a device specific interrupt in the NVIC interrupt controller.
  \param [in]      IRQn  Device specific interrupt number.
  \note    IRQn must not be negative.
 */
__STATIC_INLINE void __NVIC_EnableIRQ(IRQn_Type IRQn)
{
 8000514:	b480      	push	{r7}
 8000516:	b083      	sub	sp, #12
 8000518:	af00      	add	r7, sp, #0
 800051a:	4603      	mov	r3, r0
 800051c:	71fb      	strb	r3, [r7, #7]
  if ((int32_t)(IRQn) >= 0)
 800051e:	f997 3007 	ldrsb.w	r3, [r7, #7]
 8000522:	2b00      	cmp	r3, #0
 8000524:	db0b      	blt.n	800053e <__NVIC_EnableIRQ+0x2a>
  {
    NVIC->ISER[(((uint32_t)IRQn) >> 5UL)] = (uint32_t)(1UL << (((uint32_t)IRQn) & 0x1FUL));
 8000526:	79fb      	ldrb	r3, [r7, #7]
 8000528:	f003 021f 	and.w	r2, r3, #31
 800052c:	4907      	ldr	r1, [pc, #28]	; (800054c <__NVIC_EnableIRQ+0x38>)
 800052e:	f997 3007 	ldrsb.w	r3, [r7, #7]
 8000532:	095b      	lsrs	r3, r3, #5
 8000534:	2001      	movs	r0, #1
 8000536:	fa00 f202 	lsl.w	r2, r0, r2
 800053a:	f841 2023 	str.w	r2, [r1, r3, lsl #2]
  }
}
 800053e:	bf00      	nop
 8000540:	370c      	adds	r7, #12
 8000542:	46bd      	mov	sp, r7
 8000544:	f85d 7b04 	ldr.w	r7, [sp], #4
 8000548:	4770      	bx	lr
 800054a:	bf00      	nop
 800054c:	e000e100 	.word	0xe000e100

08000550 <__NVIC_SetPriority>:
  \param [in]      IRQn  Interrupt number.
  \param [in]  priority  Priority to set.
  \note    The priority cannot be set for every processor exception.
 */
__STATIC_INLINE void __NVIC_SetPriority(IRQn_Type IRQn, uint32_t priority)
{
 8000550:	b480      	push	{r7}
 8000552:	b083      	sub	sp, #12
 8000554:	af00      	add	r7, sp, #0
 8000556:	4603      	mov	r3, r0
 8000558:	6039      	str	r1, [r7, #0]
 800055a:	71fb      	strb	r3, [r7, #7]
  if ((int32_t)(IRQn) >= 0)
 800055c:	f997 3007 	ldrsb.w	r3, [r7, #7]
 8000560:	2b00      	cmp	r3, #0
 8000562:	db0a      	blt.n	800057a <__NVIC_SetPriority+0x2a>
  {
    NVIC->IP[((uint32_t)IRQn)]               = (uint8_t)((priority << (8U - __NVIC_PRIO_BITS)) & (uint32_t)0xFFUL);
 8000564:	683b      	ldr	r3, [r7, #0]
 8000566:	b2da      	uxtb	r2, r3
 8000568:	490c      	ldr	r1, [pc, #48]	; (800059c <__NVIC_SetPriority+0x4c>)
 800056a:	f997 3007 	ldrsb.w	r3, [r7, #7]
 800056e:	0112      	lsls	r2, r2, #4
 8000570:	b2d2      	uxtb	r2, r2
 8000572:	440b      	add	r3, r1
 8000574:	f883 2300 	strb.w	r2, [r3, #768]	; 0x300
  }
  else
  {
    SCB->SHP[(((uint32_t)IRQn) & 0xFUL)-4UL] = (uint8_t)((priority << (8U - __NVIC_PRIO_BITS)) & (uint32_t)0xFFUL);
  }
}
 8000578:	e00a      	b.n	8000590 <__NVIC_SetPriority+0x40>
    SCB->SHP[(((uint32_t)IRQn) & 0xFUL)-4UL] = (uint8_t)((priority << (8U - __NVIC_PRIO_BITS)) & (uint32_t)0xFFUL);
 800057a:	683b      	ldr	r3, [r7, #0]
 800057c:	b2da      	uxtb	r2, r3
 800057e:	4908      	ldr	r1, [pc, #32]	; (80005a0 <__NVIC_SetPriority+0x50>)
 8000580:	79fb      	ldrb	r3, [r7, #7]
 8000582:	f003 030f 	and.w	r3, r3, #15
 8000586:	3b04      	subs	r3, #4
 8000588:	0112      	lsls	r2, r2, #4
 800058a:	b2d2      	uxtb	r2, r2
 800058c:	440b      	add	r3, r1
 800058e:	761a      	strb	r2, [r3, #24]
}
 8000590:	bf00      	nop
 8000592:	370c      	adds	r7, #12
 8000594:	46bd      	mov	sp, r7
 8000596:	f85d 7b04 	ldr.w	r7, [sp], #4
 800059a:	4770      	bx	lr
 800059c:	e000e100 	.word	0xe000e100
 80005a0:	e000ed00 	.word	0xe000ed00

080005a4 <NVIC_EncodePriority>:
  \param [in]   PreemptPriority  Preemptive priority value (starting from 0).
  \param [in]       SubPriority  Subpriority value (starting from 0).
  \return                        Encoded priority. Value can be used in the function \ref NVIC_SetPriority().
 */
__STATIC_INLINE uint32_t NVIC_EncodePriority (uint32_t PriorityGroup, uint32_t PreemptPriority, uint32_t SubPriority)
{
 80005a4:	b480      	push	{r7}
 80005a6:	b089      	sub	sp, #36	; 0x24
 80005a8:	af00      	add	r7, sp, #0
 80005aa:	60f8      	str	r0, [r7, #12]
 80005ac:	60b9      	str	r1, [r7, #8]
 80005ae:	607a      	str	r2, [r7, #4]
  uint32_t PriorityGroupTmp = (PriorityGroup & (uint32_t)0x07UL);   /* only values 0..7 are used          */
 80005b0:	68fb      	ldr	r3, [r7, #12]
 80005b2:	f003 0307 	and.w	r3, r3, #7
 80005b6:	61fb      	str	r3, [r7, #28]
  uint32_t PreemptPriorityBits;
  uint32_t SubPriorityBits;

  PreemptPriorityBits = ((7UL - PriorityGroupTmp) > (uint32_t)(__NVIC_PRIO_BITS)) ? (uint32_t)(__NVIC_PRIO_BITS) : (uint32_t)(7UL - PriorityGroupTmp);
 80005b8:	69fb      	ldr	r3, [r7, #28]
 80005ba:	f1c3 0307 	rsb	r3, r3, #7
 80005be:	2b04      	cmp	r3, #4
 80005c0:	bf28      	it	cs
 80005c2:	2304      	movcs	r3, #4
 80005c4:	61bb      	str	r3, [r7, #24]
  SubPriorityBits     = ((PriorityGroupTmp + (uint32_t)(__NVIC_PRIO_BITS)) < (uint32_t)7UL) ? (uint32_t)0UL : (uint32_t)((PriorityGroupTmp - 7UL) + (uint32_t)(__NVIC_PRIO_BITS));
 80005c6:	69fb      	ldr	r3, [r7, #28]
 80005c8:	3304      	adds	r3, #4
 80005ca:	2b06      	cmp	r3, #6
 80005cc:	d902      	bls.n	80005d4 <NVIC_EncodePriority+0x30>
 80005ce:	69fb      	ldr	r3, [r7, #28]
 80005d0:	3b03      	subs	r3, #3
 80005d2:	e000      	b.n	80005d6 <NVIC_EncodePriority+0x32>
 80005d4:	2300      	movs	r3, #0
 80005d6:	617b      	str	r3, [r7, #20]

  return (
           ((PreemptPriority & (uint32_t)((1UL << (PreemptPriorityBits)) - 1UL)) << SubPriorityBits) |
 80005d8:	f04f 32ff 	mov.w	r2, #4294967295
 80005dc:	69bb      	ldr	r3, [r7, #24]
 80005de:	fa02 f303 	lsl.w	r3, r2, r3
 80005e2:	43da      	mvns	r2, r3
 80005e4:	68bb      	ldr	r3, [r7, #8]
 80005e6:	401a      	ands	r2, r3
 80005e8:	697b      	ldr	r3, [r7, #20]
 80005ea:	409a      	lsls	r2, r3
           ((SubPriority     & (uint32_t)((1UL << (SubPriorityBits    )) - 1UL)))
 80005ec:	f04f 31ff 	mov.w	r1, #4294967295
 80005f0:	697b      	ldr	r3, [r7, #20]
 80005f2:	fa01 f303 	lsl.w	r3, r1, r3
 80005f6:	43d9      	mvns	r1, r3
 80005f8:	687b      	ldr	r3, [r7, #4]
 80005fa:	400b      	ands	r3, r1
           ((PreemptPriority & (uint32_t)((1UL << (PreemptPriorityBits)) - 1UL)) << SubPriorityBits) |
 80005fc:	4313      	orrs	r3, r2
         );
}
 80005fe:	4618      	mov	r0, r3
 8000600:	3724      	adds	r7, #36	; 0x24
 8000602:	46bd      	mov	sp, r7
 8000604:	f85d 7b04 	ldr.w	r7, [sp], #4
 8000608:	4770      	bx	lr
	...

0800060c <SysTick_Config>:
  \note    When the variable <b>__Vendor_SysTickConfig</b> is set to 1, then the
           function <b>SysTick_Config</b> is not included. In this case, the file <b><i>device</i>.h</b>
           must contain a vendor-specific implementation of this function.
 */
__STATIC_INLINE uint32_t SysTick_Config(uint32_t ticks)
{
 800060c:	b580      	push	{r7, lr}
 800060e:	b082      	sub	sp, #8
 8000610:	af00      	add	r7, sp, #0
 8000612:	6078      	str	r0, [r7, #4]
  if ((ticks - 1UL) > SysTick_LOAD_RELOAD_Msk)
 8000614:	687b      	ldr	r3, [r7, #4]
 8000616:	3b01      	subs	r3, #1
 8000618:	f1b3 7f80 	cmp.w	r3, #16777216	; 0x1000000
 800061c:	d301      	bcc.n	8000622 <SysTick_Config+0x16>
  {
    return (1UL);                                                   /* Reload value impossible */
 800061e:	2301      	movs	r3, #1
 8000620:	e00f      	b.n	8000642 <SysTick_Config+0x36>
  }

  SysTick->LOAD  = (uint32_t)(ticks - 1UL);                         /* set reload register */
 8000622:	4a0a      	ldr	r2, [pc, #40]	; (800064c <SysTick_Config+0x40>)
 8000624:	687b      	ldr	r3, [r7, #4]
 8000626:	3b01      	subs	r3, #1
 8000628:	6053      	str	r3, [r2, #4]
  NVIC_SetPriority (SysTick_IRQn, (1UL << __NVIC_PRIO_BITS) - 1UL); /* set Priority for Systick Interrupt */
 800062a:	210f      	movs	r1, #15
 800062c:	f04f 30ff 	mov.w	r0, #4294967295
 8000630:	f7ff ff8e 	bl	8000550 <__NVIC_SetPriority>
  SysTick->VAL   = 0UL;                                             /* Load the SysTick Counter Value */
 8000634:	4b05      	ldr	r3, [pc, #20]	; (800064c <SysTick_Config+0x40>)
 8000636:	2200      	movs	r2, #0
 8000638:	609a      	str	r2, [r3, #8]
  SysTick->CTRL  = SysTick_CTRL_CLKSOURCE_Msk |
 800063a:	4b04      	ldr	r3, [pc, #16]	; (800064c <SysTick_Config+0x40>)
 800063c:	2207      	movs	r2, #7
 800063e:	601a      	str	r2, [r3, #0]
                   SysTick_CTRL_TICKINT_Msk   |
                   SysTick_CTRL_ENABLE_Msk;                         /* Enable SysTick IRQ and SysTick Timer */
  return (0UL);                                                     /* Function successful */
 8000640:	2300      	movs	r3, #0
}
 8000642:	4618      	mov	r0, r3
 8000644:	3708      	adds	r7, #8
 8000646:	46bd      	mov	sp, r7
 8000648:	bd80      	pop	{r7, pc}
 800064a:	bf00      	nop
 800064c:	e000e010 	.word	0xe000e010

08000650 <HAL_NVIC_SetPriorityGrouping>:
  * @note   When the NVIC_PriorityGroup_0 is selected, IRQ preemption is no more possible. 
  *         The pending IRQ priority will be managed only by the subpriority. 
  * @retval None
  */
void HAL_NVIC_SetPriorityGrouping(uint32_t PriorityGroup)
{
 8000650:	b580      	push	{r7, lr}
 8000652:	b082      	sub	sp, #8
 8000654:	af00      	add	r7, sp, #0
 8000656:	6078      	str	r0, [r7, #4]
  /* Check the parameters */
  assert_param(IS_NVIC_PRIORITY_GROUP(PriorityGroup));
  
  /* Set the PRIGROUP[10:8] bits according to the PriorityGroup parameter value */
  NVIC_SetPriorityGrouping(PriorityGroup);
 8000658:	6878      	ldr	r0, [r7, #4]
 800065a:	f7ff ff29 	bl	80004b0 <__NVIC_SetPriorityGrouping>
}
 800065e:	bf00      	nop
 8000660:	3708      	adds	r7, #8
 8000662:	46bd      	mov	sp, r7
 8000664:	bd80      	pop	{r7, pc}

08000666 <HAL_NVIC_SetPriority>:
  *         This parameter can be a value between 0 and 15
  *         A lower priority value indicates a higher priority.          
  * @retval None
  */
void HAL_NVIC_SetPriority(IRQn_Type IRQn, uint32_t PreemptPriority, uint32_t SubPriority)
{ 
 8000666:	b580      	push	{r7, lr}
 8000668:	b086      	sub	sp, #24
 800066a:	af00      	add	r7, sp, #0
 800066c:	4603      	mov	r3, r0
 800066e:	60b9      	str	r1, [r7, #8]
 8000670:	607a      	str	r2, [r7, #4]
 8000672:	73fb      	strb	r3, [r7, #15]
  uint32_t prioritygroup = 0x00U;
 8000674:	2300      	movs	r3, #0
 8000676:	617b      	str	r3, [r7, #20]
  
  /* Check the parameters */
  assert_param(IS_NVIC_SUB_PRIORITY(SubPriority));
  assert_param(IS_NVIC_PREEMPTION_PRIORITY(PreemptPriority));
  
  prioritygroup = NVIC_GetPriorityGrouping();
 8000678:	f7ff ff3e 	bl	80004f8 <__NVIC_GetPriorityGrouping>
 800067c:	6178      	str	r0, [r7, #20]
  
  NVIC_SetPriority(IRQn, NVIC_EncodePriority(prioritygroup, PreemptPriority, SubPriority));
 800067e:	687a      	ldr	r2, [r7, #4]
 8000680:	68b9      	ldr	r1, [r7, #8]
 8000682:	6978      	ldr	r0, [r7, #20]
 8000684:	f7ff ff8e 	bl	80005a4 <NVIC_EncodePriority>
 8000688:	4602      	mov	r2, r0
 800068a:	f997 300f 	ldrsb.w	r3, [r7, #15]
 800068e:	4611      	mov	r1, r2
 8000690:	4618      	mov	r0, r3
 8000692:	f7ff ff5d 	bl	8000550 <__NVIC_SetPriority>
}
 8000696:	bf00      	nop
 8000698:	3718      	adds	r7, #24
 800069a:	46bd      	mov	sp, r7
 800069c:	bd80      	pop	{r7, pc}

0800069e <HAL_NVIC_EnableIRQ>:
  *         This parameter can be an enumerator of IRQn_Type enumeration
  *         (For the complete STM32 Devices IRQ Channels list, please refer to the appropriate CMSIS device file (stm32f4xxxx.h))
  * @retval None
  */
void HAL_NVIC_EnableIRQ(IRQn_Type IRQn)
{
 800069e:	b580      	push	{r7, lr}
 80006a0:	b082      	sub	sp, #8
 80006a2:	af00      	add	r7, sp, #0
 80006a4:	4603      	mov	r3, r0
 80006a6:	71fb      	strb	r3, [r7, #7]
  /* Check the parameters */
  assert_param(IS_NVIC_DEVICE_IRQ(IRQn));
  
  /* Enable interrupt */
  NVIC_EnableIRQ(IRQn);
 80006a8:	f997 3007 	ldrsb.w	r3, [r7, #7]
 80006ac:	4618      	mov	r0, r3
 80006ae:	f7ff ff31 	bl	8000514 <__NVIC_EnableIRQ>
}
 80006b2:	bf00      	nop
 80006b4:	3708      	adds	r7, #8
 80006b6:	46bd      	mov	sp, r7
 80006b8:	bd80      	pop	{r7, pc}

080006ba <HAL_SYSTICK_Config>:
  * @param  TicksNumb Specifies the ticks Number of ticks between two interrupts.
  * @retval status:  - 0  Function succeeded.
  *                  - 1  Function failed.
  */
uint32_t HAL_SYSTICK_Config(uint32_t TicksNumb)
{
 80006ba:	b580      	push	{r7, lr}
 80006bc:	b082      	sub	sp, #8
 80006be:	af00      	add	r7, sp, #0
 80006c0:	6078      	str	r0, [r7, #4]
   return SysTick_Config(TicksNumb);
 80006c2:	6878      	ldr	r0, [r7, #4]
 80006c4:	f7ff ffa2 	bl	800060c <SysTick_Config>
 80006c8:	4603      	mov	r3, r0
}
 80006ca:	4618      	mov	r0, r3
 80006cc:	3708      	adds	r7, #8
 80006ce:	46bd      	mov	sp, r7
 80006d0:	bd80      	pop	{r7, pc}

080006d2 <HAL_SYSTICK_IRQHandler>:
/**
  * @brief  This function handles SYSTICK interrupt request.
  * @retval None
  */
void HAL_SYSTICK_IRQHandler(void)
{
 80006d2:	b580      	push	{r7, lr}
 80006d4:	af00      	add	r7, sp, #0
  HAL_SYSTICK_Callback();
 80006d6:	f000 f802 	bl	80006de <HAL_SYSTICK_Callback>
}
 80006da:	bf00      	nop
 80006dc:	bd80      	pop	{r7, pc}

080006de <HAL_SYSTICK_Callback>:
/**
  * @brief  SYSTICK callback.
  * @retval None
  */
__weak void HAL_SYSTICK_Callback(void)
{
 80006de:	b480      	push	{r7}
 80006e0:	af00      	add	r7, sp, #0
  /* NOTE : This function Should not be modified, when the callback is needed,
            the HAL_SYSTICK_Callback could be implemented in the user file
   */
}
 80006e2:	bf00      	nop
 80006e4:	46bd      	mov	sp, r7
 80006e6:	f85d 7b04 	ldr.w	r7, [sp], #4
 80006ea:	4770      	bx	lr

080006ec <HAL_GPIO_Init>:
  * @param  GPIO_Init pointer to a GPIO_InitTypeDef structure that contains
  *         the configuration information for the specified GPIO peripheral.
  * @retval None
  */
void HAL_GPIO_Init(GPIO_TypeDef  *GPIOx, GPIO_InitTypeDef *GPIO_Init)
{
 80006ec:	b480      	push	{r7}
 80006ee:	b089      	sub	sp, #36	; 0x24
 80006f0:	af00      	add	r7, sp, #0
 80006f2:	6078      	str	r0, [r7, #4]
 80006f4:	6039      	str	r1, [r7, #0]
  uint32_t position;
  uint32_t ioposition = 0x00U;
 80006f6:	2300      	movs	r3, #0
 80006f8:	617b      	str	r3, [r7, #20]
  uint32_t iocurrent = 0x00U;
 80006fa:	2300      	movs	r3, #0
 80006fc:	613b      	str	r3, [r7, #16]
  uint32_t temp = 0x00U;
 80006fe:	2300      	movs	r3, #0
 8000700:	61bb      	str	r3, [r7, #24]
  assert_param(IS_GPIO_PIN(GPIO_Init->Pin));
  assert_param(IS_GPIO_MODE(GPIO_Init->Mode));
  assert_param(IS_GPIO_PULL(GPIO_Init->Pull));

  /* Configure the port pins */
  for(position = 0U; position < GPIO_NUMBER; position++)
 8000702:	2300      	movs	r3, #0
 8000704:	61fb      	str	r3, [r7, #28]
 8000706:	e16b      	b.n	80009e0 <HAL_GPIO_Init+0x2f4>
  {
    /* Get the IO position */
    ioposition = 0x01U << position;
 8000708:	2201      	movs	r2, #1
 800070a:	69fb      	ldr	r3, [r7, #28]
 800070c:	fa02 f303 	lsl.w	r3, r2, r3
 8000710:	617b      	str	r3, [r7, #20]
    /* Get the current IO position */
    iocurrent = (uint32_t)(GPIO_Init->Pin) & ioposition;
 8000712:	683b      	ldr	r3, [r7, #0]
 8000714:	681b      	ldr	r3, [r3, #0]
 8000716:	697a      	ldr	r2, [r7, #20]
 8000718:	4013      	ands	r3, r2
 800071a:	613b      	str	r3, [r7, #16]

    if(iocurrent == ioposition)
 800071c:	693a      	ldr	r2, [r7, #16]
 800071e:	697b      	ldr	r3, [r7, #20]
 8000720:	429a      	cmp	r2, r3
 8000722:	f040 815a 	bne.w	80009da <HAL_GPIO_Init+0x2ee>
    {
      /*--------------------- GPIO Mode Configuration ------------------------*/
      /* In case of Output or Alternate function mode selection */
      if((GPIO_Init->Mode == GPIO_MODE_OUTPUT_PP) || (GPIO_Init->Mode == GPIO_MODE_AF_PP) ||
 8000726:	683b      	ldr	r3, [r7, #0]
 8000728:	685b      	ldr	r3, [r3, #4]
 800072a:	2b01      	cmp	r3, #1
 800072c:	d00b      	beq.n	8000746 <HAL_GPIO_Init+0x5a>
 800072e:	683b      	ldr	r3, [r7, #0]
 8000730:	685b      	ldr	r3, [r3, #4]
 8000732:	2b02      	cmp	r3, #2
 8000734:	d007      	beq.n	8000746 <HAL_GPIO_Init+0x5a>
         (GPIO_Init->Mode == GPIO_MODE_OUTPUT_OD) || (GPIO_Init->Mode == GPIO_MODE_AF_OD))
 8000736:	683b      	ldr	r3, [r7, #0]
 8000738:	685b      	ldr	r3, [r3, #4]
      if((GPIO_Init->Mode == GPIO_MODE_OUTPUT_PP) || (GPIO_Init->Mode == GPIO_MODE_AF_PP) ||
 800073a:	2b11      	cmp	r3, #17
 800073c:	d003      	beq.n	8000746 <HAL_GPIO_Init+0x5a>
         (GPIO_Init->Mode == GPIO_MODE_OUTPUT_OD) || (GPIO_Init->Mode == GPIO_MODE_AF_OD))
 800073e:	683b      	ldr	r3, [r7, #0]
 8000740:	685b      	ldr	r3, [r3, #4]
 8000742:	2b12      	cmp	r3, #18
 8000744:	d130      	bne.n	80007a8 <HAL_GPIO_Init+0xbc>
      {
        /* Check the Speed parameter */
        assert_param(IS_GPIO_SPEED(GPIO_Init->Speed));
        /* Configure the IO Speed */
        temp = GPIOx->OSPEEDR; 
 8000746:	687b      	ldr	r3, [r7, #4]
 8000748:	689b      	ldr	r3, [r3, #8]
 800074a:	61bb      	str	r3, [r7, #24]
        temp &= ~(GPIO_OSPEEDER_OSPEEDR0 << (position * 2U));
 800074c:	69fb      	ldr	r3, [r7, #28]
 800074e:	005b      	lsls	r3, r3, #1
 8000750:	2203      	movs	r2, #3
 8000752:	fa02 f303 	lsl.w	r3, r2, r3
 8000756:	43db      	mvns	r3, r3
 8000758:	69ba      	ldr	r2, [r7, #24]
 800075a:	4013      	ands	r3, r2
 800075c:	61bb      	str	r3, [r7, #24]
        temp |= (GPIO_Init->Speed << (position * 2U));
 800075e:	683b      	ldr	r3, [r7, #0]
 8000760:	68da      	ldr	r2, [r3, #12]
 8000762:	69fb      	ldr	r3, [r7, #28]
 8000764:	005b      	lsls	r3, r3, #1
 8000766:	fa02 f303 	lsl.w	r3, r2, r3
 800076a:	69ba      	ldr	r2, [r7, #24]
 800076c:	4313      	orrs	r3, r2
 800076e:	61bb      	str	r3, [r7, #24]
        GPIOx->OSPEEDR = temp;
 8000770:	687b      	ldr	r3, [r7, #4]
 8000772:	69ba      	ldr	r2, [r7, #24]
 8000774:	609a      	str	r2, [r3, #8]

        /* Configure the IO Output Type */
        temp = GPIOx->OTYPER;
 8000776:	687b      	ldr	r3, [r7, #4]
 8000778:	685b      	ldr	r3, [r3, #4]
 800077a:	61bb      	str	r3, [r7, #24]
        temp &= ~(GPIO_OTYPER_OT_0 << position) ;
 800077c:	2201      	movs	r2, #1
 800077e:	69fb      	ldr	r3, [r7, #28]
 8000780:	fa02 f303 	lsl.w	r3, r2, r3
 8000784:	43db      	mvns	r3, r3
 8000786:	69ba      	ldr	r2, [r7, #24]
 8000788:	4013      	ands	r3, r2
 800078a:	61bb      	str	r3, [r7, #24]
        temp |= (((GPIO_Init->Mode & GPIO_OUTPUT_TYPE) >> 4U) << position);
 800078c:	683b      	ldr	r3, [r7, #0]
 800078e:	685b      	ldr	r3, [r3, #4]
 8000790:	091b      	lsrs	r3, r3, #4
 8000792:	f003 0201 	and.w	r2, r3, #1
 8000796:	69fb      	ldr	r3, [r7, #28]
 8000798:	fa02 f303 	lsl.w	r3, r2, r3
 800079c:	69ba      	ldr	r2, [r7, #24]
 800079e:	4313      	orrs	r3, r2
 80007a0:	61bb      	str	r3, [r7, #24]
        GPIOx->OTYPER = temp;
 80007a2:	687b      	ldr	r3, [r7, #4]
 80007a4:	69ba      	ldr	r2, [r7, #24]
 80007a6:	605a      	str	r2, [r3, #4]
       }

      /* Activate the Pull-up or Pull down resistor for the current IO */
      temp = GPIOx->PUPDR;
 80007a8:	687b      	ldr	r3, [r7, #4]
 80007aa:	68db      	ldr	r3, [r3, #12]
 80007ac:	61bb      	str	r3, [r7, #24]
      temp &= ~(GPIO_PUPDR_PUPDR0 << (position * 2U));
 80007ae:	69fb      	ldr	r3, [r7, #28]
 80007b0:	005b      	lsls	r3, r3, #1
 80007b2:	2203      	movs	r2, #3
 80007b4:	fa02 f303 	lsl.w	r3, r2, r3
 80007b8:	43db      	mvns	r3, r3
 80007ba:	69ba      	ldr	r2, [r7, #24]
 80007bc:	4013      	ands	r3, r2
 80007be:	61bb      	str	r3, [r7, #24]
      temp |= ((GPIO_Init->Pull) << (position * 2U));
 80007c0:	683b      	ldr	r3, [r7, #0]
 80007c2:	689a      	ldr	r2, [r3, #8]
 80007c4:	69fb      	ldr	r3, [r7, #28]
 80007c6:	005b      	lsls	r3, r3, #1
 80007c8:	fa02 f303 	lsl.w	r3, r2, r3
 80007cc:	69ba      	ldr	r2, [r7, #24]
 80007ce:	4313      	orrs	r3, r2
 80007d0:	61bb      	str	r3, [r7, #24]
      GPIOx->PUPDR = temp;
 80007d2:	687b      	ldr	r3, [r7, #4]
 80007d4:	69ba      	ldr	r2, [r7, #24]
 80007d6:	60da      	str	r2, [r3, #12]

      /* In case of Alternate function mode selection */
      if((GPIO_Init->Mode == GPIO_MODE_AF_PP) || (GPIO_Init->Mode == GPIO_MODE_AF_OD))
 80007d8:	683b      	ldr	r3, [r7, #0]
 80007da:	685b      	ldr	r3, [r3, #4]
 80007dc:	2b02      	cmp	r3, #2
 80007de:	d003      	beq.n	80007e8 <HAL_GPIO_Init+0xfc>
 80007e0:	683b      	ldr	r3, [r7, #0]
 80007e2:	685b      	ldr	r3, [r3, #4]
 80007e4:	2b12      	cmp	r3, #18
 80007e6:	d123      	bne.n	8000830 <HAL_GPIO_Init+0x144>
      {
        /* Check the Alternate function parameter */
        assert_param(IS_GPIO_AF(GPIO_Init->Alternate));
        /* Configure Alternate function mapped with the current IO */
        temp = GPIOx->AFR[position >> 3U];
 80007e8:	69fb      	ldr	r3, [r7, #28]
 80007ea:	08da      	lsrs	r2, r3, #3
 80007ec:	687b      	ldr	r3, [r7, #4]
 80007ee:	3208      	adds	r2, #8
 80007f0:	f853 3022 	ldr.w	r3, [r3, r2, lsl #2]
 80007f4:	61bb      	str	r3, [r7, #24]
        temp &= ~(0xFU << ((uint32_t)(position & 0x07U) * 4U)) ;
 80007f6:	69fb      	ldr	r3, [r7, #28]
 80007f8:	f003 0307 	and.w	r3, r3, #7
 80007fc:	009b      	lsls	r3, r3, #2
 80007fe:	220f      	movs	r2, #15
 8000800:	fa02 f303 	lsl.w	r3, r2, r3
 8000804:	43db      	mvns	r3, r3
 8000806:	69ba      	ldr	r2, [r7, #24]
 8000808:	4013      	ands	r3, r2
 800080a:	61bb      	str	r3, [r7, #24]
        temp |= ((uint32_t)(GPIO_Init->Alternate) << (((uint32_t)position & 0x07U) * 4U));
 800080c:	683b      	ldr	r3, [r7, #0]
 800080e:	691a      	ldr	r2, [r3, #16]
 8000810:	69fb      	ldr	r3, [r7, #28]
 8000812:	f003 0307 	and.w	r3, r3, #7
 8000816:	009b      	lsls	r3, r3, #2
 8000818:	fa02 f303 	lsl.w	r3, r2, r3
 800081c:	69ba      	ldr	r2, [r7, #24]
 800081e:	4313      	orrs	r3, r2
 8000820:	61bb      	str	r3, [r7, #24]
        GPIOx->AFR[position >> 3U] = temp;
 8000822:	69fb      	ldr	r3, [r7, #28]
 8000824:	08da      	lsrs	r2, r3, #3
 8000826:	687b      	ldr	r3, [r7, #4]
 8000828:	3208      	adds	r2, #8
 800082a:	69b9      	ldr	r1, [r7, #24]
 800082c:	f843 1022 	str.w	r1, [r3, r2, lsl #2]
      }

      /* Configure IO Direction mode (Input, Output, Alternate or Analog) */
      temp = GPIOx->MODER;
 8000830:	687b      	ldr	r3, [r7, #4]
 8000832:	681b      	ldr	r3, [r3, #0]
 8000834:	61bb      	str	r3, [r7, #24]
      temp &= ~(GPIO_MODER_MODER0 << (position * 2U));
 8000836:	69fb      	ldr	r3, [r7, #28]
 8000838:	005b      	lsls	r3, r3, #1
 800083a:	2203      	movs	r2, #3
 800083c:	fa02 f303 	lsl.w	r3, r2, r3
 8000840:	43db      	mvns	r3, r3
 8000842:	69ba      	ldr	r2, [r7, #24]
 8000844:	4013      	ands	r3, r2
 8000846:	61bb      	str	r3, [r7, #24]
      temp |= ((GPIO_Init->Mode & GPIO_MODE) << (position * 2U));
 8000848:	683b      	ldr	r3, [r7, #0]
 800084a:	685b      	ldr	r3, [r3, #4]
 800084c:	f003 0203 	and.w	r2, r3, #3
 8000850:	69fb      	ldr	r3, [r7, #28]
 8000852:	005b      	lsls	r3, r3, #1
 8000854:	fa02 f303 	lsl.w	r3, r2, r3
 8000858:	69ba      	ldr	r2, [r7, #24]
 800085a:	4313      	orrs	r3, r2
 800085c:	61bb      	str	r3, [r7, #24]
      GPIOx->MODER = temp;
 800085e:	687b      	ldr	r3, [r7, #4]
 8000860:	69ba      	ldr	r2, [r7, #24]
 8000862:	601a      	str	r2, [r3, #0]

      /*--------------------- EXTI Mode Configuration ------------------------*/
      /* Configure the External Interrupt or event for the current IO */
      if((GPIO_Init->Mode & EXTI_MODE) == EXTI_MODE)
 8000864:	683b      	ldr	r3, [r7, #0]
 8000866:	685b      	ldr	r3, [r3, #4]
 8000868:	f003 5380 	and.w	r3, r3, #268435456	; 0x10000000
 800086c:	2b00      	cmp	r3, #0
 800086e:	f000 80b4 	beq.w	80009da <HAL_GPIO_Init+0x2ee>
      {
        /* Enable SYSCFG Clock */
        __HAL_RCC_SYSCFG_CLK_ENABLE();
 8000872:	2300      	movs	r3, #0
 8000874:	60fb      	str	r3, [r7, #12]
 8000876:	4b5f      	ldr	r3, [pc, #380]	; (80009f4 <HAL_GPIO_Init+0x308>)
 8000878:	6c5b      	ldr	r3, [r3, #68]	; 0x44
 800087a:	4a5e      	ldr	r2, [pc, #376]	; (80009f4 <HAL_GPIO_Init+0x308>)
 800087c:	f443 4380 	orr.w	r3, r3, #16384	; 0x4000
 8000880:	6453      	str	r3, [r2, #68]	; 0x44
 8000882:	4b5c      	ldr	r3, [pc, #368]	; (80009f4 <HAL_GPIO_Init+0x308>)
 8000884:	6c5b      	ldr	r3, [r3, #68]	; 0x44
 8000886:	f403 4380 	and.w	r3, r3, #16384	; 0x4000
 800088a:	60fb      	str	r3, [r7, #12]
 800088c:	68fb      	ldr	r3, [r7, #12]

        temp = SYSCFG->EXTICR[position >> 2U];
 800088e:	4a5a      	ldr	r2, [pc, #360]	; (80009f8 <HAL_GPIO_Init+0x30c>)
 8000890:	69fb      	ldr	r3, [r7, #28]
 8000892:	089b      	lsrs	r3, r3, #2
 8000894:	3302      	adds	r3, #2
 8000896:	f852 3023 	ldr.w	r3, [r2, r3, lsl #2]
 800089a:	61bb      	str	r3, [r7, #24]
        temp &= ~(0x0FU << (4U * (position & 0x03U)));
 800089c:	69fb      	ldr	r3, [r7, #28]
 800089e:	f003 0303 	and.w	r3, r3, #3
 80008a2:	009b      	lsls	r3, r3, #2
 80008a4:	220f      	movs	r2, #15
 80008a6:	fa02 f303 	lsl.w	r3, r2, r3
 80008aa:	43db      	mvns	r3, r3
 80008ac:	69ba      	ldr	r2, [r7, #24]
 80008ae:	4013      	ands	r3, r2
 80008b0:	61bb      	str	r3, [r7, #24]
        temp |= ((uint32_t)(GPIO_GET_INDEX(GPIOx)) << (4U * (position & 0x03U)));
 80008b2:	687b      	ldr	r3, [r7, #4]
 80008b4:	4a51      	ldr	r2, [pc, #324]	; (80009fc <HAL_GPIO_Init+0x310>)
 80008b6:	4293      	cmp	r3, r2
 80008b8:	d02b      	beq.n	8000912 <HAL_GPIO_Init+0x226>
 80008ba:	687b      	ldr	r3, [r7, #4]
 80008bc:	4a50      	ldr	r2, [pc, #320]	; (8000a00 <HAL_GPIO_Init+0x314>)
 80008be:	4293      	cmp	r3, r2
 80008c0:	d025      	beq.n	800090e <HAL_GPIO_Init+0x222>
 80008c2:	687b      	ldr	r3, [r7, #4]
 80008c4:	4a4f      	ldr	r2, [pc, #316]	; (8000a04 <HAL_GPIO_Init+0x318>)
 80008c6:	4293      	cmp	r3, r2
 80008c8:	d01f      	beq.n	800090a <HAL_GPIO_Init+0x21e>
 80008ca:	687b      	ldr	r3, [r7, #4]
 80008cc:	4a4e      	ldr	r2, [pc, #312]	; (8000a08 <HAL_GPIO_Init+0x31c>)
 80008ce:	4293      	cmp	r3, r2
 80008d0:	d019      	beq.n	8000906 <HAL_GPIO_Init+0x21a>
 80008d2:	687b      	ldr	r3, [r7, #4]
 80008d4:	4a4d      	ldr	r2, [pc, #308]	; (8000a0c <HAL_GPIO_Init+0x320>)
 80008d6:	4293      	cmp	r3, r2
 80008d8:	d013      	beq.n	8000902 <HAL_GPIO_Init+0x216>
 80008da:	687b      	ldr	r3, [r7, #4]
 80008dc:	4a4c      	ldr	r2, [pc, #304]	; (8000a10 <HAL_GPIO_Init+0x324>)
 80008de:	4293      	cmp	r3, r2
 80008e0:	d00d      	beq.n	80008fe <HAL_GPIO_Init+0x212>
 80008e2:	687b      	ldr	r3, [r7, #4]
 80008e4:	4a4b      	ldr	r2, [pc, #300]	; (8000a14 <HAL_GPIO_Init+0x328>)
 80008e6:	4293      	cmp	r3, r2
 80008e8:	d007      	beq.n	80008fa <HAL_GPIO_Init+0x20e>
 80008ea:	687b      	ldr	r3, [r7, #4]
 80008ec:	4a4a      	ldr	r2, [pc, #296]	; (8000a18 <HAL_GPIO_Init+0x32c>)
 80008ee:	4293      	cmp	r3, r2
 80008f0:	d101      	bne.n	80008f6 <HAL_GPIO_Init+0x20a>
 80008f2:	2307      	movs	r3, #7
 80008f4:	e00e      	b.n	8000914 <HAL_GPIO_Init+0x228>
 80008f6:	2308      	movs	r3, #8
 80008f8:	e00c      	b.n	8000914 <HAL_GPIO_Init+0x228>
 80008fa:	2306      	movs	r3, #6
 80008fc:	e00a      	b.n	8000914 <HAL_GPIO_Init+0x228>
 80008fe:	2305      	movs	r3, #5
 8000900:	e008      	b.n	8000914 <HAL_GPIO_Init+0x228>
 8000902:	2304      	movs	r3, #4
 8000904:	e006      	b.n	8000914 <HAL_GPIO_Init+0x228>
 8000906:	2303      	movs	r3, #3
 8000908:	e004      	b.n	8000914 <HAL_GPIO_Init+0x228>
 800090a:	2302      	movs	r3, #2
 800090c:	e002      	b.n	8000914 <HAL_GPIO_Init+0x228>
 800090e:	2301      	movs	r3, #1
 8000910:	e000      	b.n	8000914 <HAL_GPIO_Init+0x228>
 8000912:	2300      	movs	r3, #0
 8000914:	69fa      	ldr	r2, [r7, #28]
 8000916:	f002 0203 	and.w	r2, r2, #3
 800091a:	0092      	lsls	r2, r2, #2
 800091c:	4093      	lsls	r3, r2
 800091e:	69ba      	ldr	r2, [r7, #24]
 8000920:	4313      	orrs	r3, r2
 8000922:	61bb      	str	r3, [r7, #24]
        SYSCFG->EXTICR[position >> 2U] = temp;
 8000924:	4934      	ldr	r1, [pc, #208]	; (80009f8 <HAL_GPIO_Init+0x30c>)
 8000926:	69fb      	ldr	r3, [r7, #28]
 8000928:	089b      	lsrs	r3, r3, #2
 800092a:	3302      	adds	r3, #2
 800092c:	69ba      	ldr	r2, [r7, #24]
 800092e:	f841 2023 	str.w	r2, [r1, r3, lsl #2]

        /* Clear EXTI line configuration */
        temp = EXTI->IMR;
 8000932:	4b3a      	ldr	r3, [pc, #232]	; (8000a1c <HAL_GPIO_Init+0x330>)
 8000934:	681b      	ldr	r3, [r3, #0]
 8000936:	61bb      	str	r3, [r7, #24]
        temp &= ~((uint32_t)iocurrent);
 8000938:	693b      	ldr	r3, [r7, #16]
 800093a:	43db      	mvns	r3, r3
 800093c:	69ba      	ldr	r2, [r7, #24]
 800093e:	4013      	ands	r3, r2
 8000940:	61bb      	str	r3, [r7, #24]
        if((GPIO_Init->Mode & GPIO_MODE_IT) == GPIO_MODE_IT)
 8000942:	683b      	ldr	r3, [r7, #0]
 8000944:	685b      	ldr	r3, [r3, #4]
 8000946:	f403 3380 	and.w	r3, r3, #65536	; 0x10000
 800094a:	2b00      	cmp	r3, #0
 800094c:	d003      	beq.n	8000956 <HAL_GPIO_Init+0x26a>
        {
          temp |= iocurrent;
 800094e:	69ba      	ldr	r2, [r7, #24]
 8000950:	693b      	ldr	r3, [r7, #16]
 8000952:	4313      	orrs	r3, r2
 8000954:	61bb      	str	r3, [r7, #24]
        }
        EXTI->IMR = temp;
 8000956:	4a31      	ldr	r2, [pc, #196]	; (8000a1c <HAL_GPIO_Init+0x330>)
 8000958:	69bb      	ldr	r3, [r7, #24]
 800095a:	6013      	str	r3, [r2, #0]

        temp = EXTI->EMR;
 800095c:	4b2f      	ldr	r3, [pc, #188]	; (8000a1c <HAL_GPIO_Init+0x330>)
 800095e:	685b      	ldr	r3, [r3, #4]
 8000960:	61bb      	str	r3, [r7, #24]
        temp &= ~((uint32_t)iocurrent);
 8000962:	693b      	ldr	r3, [r7, #16]
 8000964:	43db      	mvns	r3, r3
 8000966:	69ba      	ldr	r2, [r7, #24]
 8000968:	4013      	ands	r3, r2
 800096a:	61bb      	str	r3, [r7, #24]
        if((GPIO_Init->Mode & GPIO_MODE_EVT) == GPIO_MODE_EVT)
 800096c:	683b      	ldr	r3, [r7, #0]
 800096e:	685b      	ldr	r3, [r3, #4]
 8000970:	f403 3300 	and.w	r3, r3, #131072	; 0x20000
 8000974:	2b00      	cmp	r3, #0
 8000976:	d003      	beq.n	8000980 <HAL_GPIO_Init+0x294>
        {
          temp |= iocurrent;
 8000978:	69ba      	ldr	r2, [r7, #24]
 800097a:	693b      	ldr	r3, [r7, #16]
 800097c:	4313      	orrs	r3, r2
 800097e:	61bb      	str	r3, [r7, #24]
        }
        EXTI->EMR = temp;
 8000980:	4a26      	ldr	r2, [pc, #152]	; (8000a1c <HAL_GPIO_Init+0x330>)
 8000982:	69bb      	ldr	r3, [r7, #24]
 8000984:	6053      	str	r3, [r2, #4]

        /* Clear Rising Falling edge configuration */
        temp = EXTI->RTSR;
 8000986:	4b25      	ldr	r3, [pc, #148]	; (8000a1c <HAL_GPIO_Init+0x330>)
 8000988:	689b      	ldr	r3, [r3, #8]
 800098a:	61bb      	str	r3, [r7, #24]
        temp &= ~((uint32_t)iocurrent);
 800098c:	693b      	ldr	r3, [r7, #16]
 800098e:	43db      	mvns	r3, r3
 8000990:	69ba      	ldr	r2, [r7, #24]
 8000992:	4013      	ands	r3, r2
 8000994:	61bb      	str	r3, [r7, #24]
        if((GPIO_Init->Mode & RISING_EDGE) == RISING_EDGE)
 8000996:	683b      	ldr	r3, [r7, #0]
 8000998:	685b      	ldr	r3, [r3, #4]
 800099a:	f403 1380 	and.w	r3, r3, #1048576	; 0x100000
 800099e:	2b00      	cmp	r3, #0
 80009a0:	d003      	beq.n	80009aa <HAL_GPIO_Init+0x2be>
        {
          temp |= iocurrent;
 80009a2:	69ba      	ldr	r2, [r7, #24]
 80009a4:	693b      	ldr	r3, [r7, #16]
 80009a6:	4313      	orrs	r3, r2
 80009a8:	61bb      	str	r3, [r7, #24]
        }
        EXTI->RTSR = temp;
 80009aa:	4a1c      	ldr	r2, [pc, #112]	; (8000a1c <HAL_GPIO_Init+0x330>)
 80009ac:	69bb      	ldr	r3, [r7, #24]
 80009ae:	6093      	str	r3, [r2, #8]

        temp = EXTI->FTSR;
 80009b0:	4b1a      	ldr	r3, [pc, #104]	; (8000a1c <HAL_GPIO_Init+0x330>)
 80009b2:	68db      	ldr	r3, [r3, #12]
 80009b4:	61bb      	str	r3, [r7, #24]
        temp &= ~((uint32_t)iocurrent);
 80009b6:	693b      	ldr	r3, [r7, #16]
 80009b8:	43db      	mvns	r3, r3
 80009ba:	69ba      	ldr	r2, [r7, #24]
 80009bc:	4013      	ands	r3, r2
 80009be:	61bb      	str	r3, [r7, #24]
        if((GPIO_Init->Mode & FALLING_EDGE) == FALLING_EDGE)
 80009c0:	683b      	ldr	r3, [r7, #0]
 80009c2:	685b      	ldr	r3, [r3, #4]
 80009c4:	f403 1300 	and.w	r3, r3, #2097152	; 0x200000
 80009c8:	2b00      	cmp	r3, #0
 80009ca:	d003      	beq.n	80009d4 <HAL_GPIO_Init+0x2e8>
        {
          temp |= iocurrent;
 80009cc:	69ba      	ldr	r2, [r7, #24]
 80009ce:	693b      	ldr	r3, [r7, #16]
 80009d0:	4313      	orrs	r3, r2
 80009d2:	61bb      	str	r3, [r7, #24]
        }
        EXTI->FTSR = temp;
 80009d4:	4a11      	ldr	r2, [pc, #68]	; (8000a1c <HAL_GPIO_Init+0x330>)
 80009d6:	69bb      	ldr	r3, [r7, #24]
 80009d8:	60d3      	str	r3, [r2, #12]
  for(position = 0U; position < GPIO_NUMBER; position++)
 80009da:	69fb      	ldr	r3, [r7, #28]
 80009dc:	3301      	adds	r3, #1
 80009de:	61fb      	str	r3, [r7, #28]
 80009e0:	69fb      	ldr	r3, [r7, #28]
 80009e2:	2b0f      	cmp	r3, #15
 80009e4:	f67f ae90 	bls.w	8000708 <HAL_GPIO_Init+0x1c>
      }
    }
  }
}
 80009e8:	bf00      	nop
 80009ea:	3724      	adds	r7, #36	; 0x24
 80009ec:	46bd      	mov	sp, r7
 80009ee:	f85d 7b04 	ldr.w	r7, [sp], #4
 80009f2:	4770      	bx	lr
 80009f4:	40023800 	.word	0x40023800
 80009f8:	40013800 	.word	0x40013800
 80009fc:	40020000 	.word	0x40020000
 8000a00:	40020400 	.word	0x40020400
 8000a04:	40020800 	.word	0x40020800
 8000a08:	40020c00 	.word	0x40020c00
 8000a0c:	40021000 	.word	0x40021000
 8000a10:	40021400 	.word	0x40021400
 8000a14:	40021800 	.word	0x40021800
 8000a18:	40021c00 	.word	0x40021c00
 8000a1c:	40013c00 	.word	0x40013c00

08000a20 <HAL_GPIO_TogglePin>:
  *                      x can be (A..I) to select the GPIO peripheral for STM32F40XX and STM32F427X devices.
  * @param  GPIO_Pin Specifies the pins to be toggled.
  * @retval None
  */
void HAL_GPIO_TogglePin(GPIO_TypeDef* GPIOx, uint16_t GPIO_Pin)
{
 8000a20:	b480      	push	{r7}
 8000a22:	b083      	sub	sp, #12
 8000a24:	af00      	add	r7, sp, #0
 8000a26:	6078      	str	r0, [r7, #4]
 8000a28:	460b      	mov	r3, r1
 8000a2a:	807b      	strh	r3, [r7, #2]
  /* Check the parameters */
  assert_param(IS_GPIO_PIN(GPIO_Pin));

  if ((GPIOx->ODR & GPIO_Pin) == GPIO_Pin)
 8000a2c:	687b      	ldr	r3, [r7, #4]
 8000a2e:	695a      	ldr	r2, [r3, #20]
 8000a30:	887b      	ldrh	r3, [r7, #2]
 8000a32:	401a      	ands	r2, r3
 8000a34:	887b      	ldrh	r3, [r7, #2]
 8000a36:	429a      	cmp	r2, r3
 8000a38:	d104      	bne.n	8000a44 <HAL_GPIO_TogglePin+0x24>
  {
    GPIOx->BSRR = (uint32_t)GPIO_Pin << GPIO_NUMBER;
 8000a3a:	887b      	ldrh	r3, [r7, #2]
 8000a3c:	041a      	lsls	r2, r3, #16
 8000a3e:	687b      	ldr	r3, [r7, #4]
 8000a40:	619a      	str	r2, [r3, #24]
  }
  else
  {
    GPIOx->BSRR = GPIO_Pin;
  }
}
 8000a42:	e002      	b.n	8000a4a <HAL_GPIO_TogglePin+0x2a>
    GPIOx->BSRR = GPIO_Pin;
 8000a44:	887a      	ldrh	r2, [r7, #2]
 8000a46:	687b      	ldr	r3, [r7, #4]
 8000a48:	619a      	str	r2, [r3, #24]
}
 8000a4a:	bf00      	nop
 8000a4c:	370c      	adds	r7, #12
 8000a4e:	46bd      	mov	sp, r7
 8000a50:	f85d 7b04 	ldr.w	r7, [sp], #4
 8000a54:	4770      	bx	lr

08000a56 <HAL_TIM_Base_Init>:
  *         Ex: call @ref HAL_TIM_Base_DeInit() before HAL_TIM_Base_Init()
  * @param  htim TIM Base handle
  * @retval HAL status
  */
HAL_StatusTypeDef HAL_TIM_Base_Init(TIM_HandleTypeDef *htim)
{
 8000a56:	b580      	push	{r7, lr}
 8000a58:	b082      	sub	sp, #8
 8000a5a:	af00      	add	r7, sp, #0
 8000a5c:	6078      	str	r0, [r7, #4]
  /* Check the TIM handle allocation */
  if (htim == NULL)
 8000a5e:	687b      	ldr	r3, [r7, #4]
 8000a60:	2b00      	cmp	r3, #0
 8000a62:	d101      	bne.n	8000a68 <HAL_TIM_Base_Init+0x12>
  {
    return HAL_ERROR;
 8000a64:	2301      	movs	r3, #1
 8000a66:	e01d      	b.n	8000aa4 <HAL_TIM_Base_Init+0x4e>
  assert_param(IS_TIM_INSTANCE(htim->Instance));
  assert_param(IS_TIM_COUNTER_MODE(htim->Init.CounterMode));
  assert_param(IS_TIM_CLOCKDIVISION_DIV(htim->Init.ClockDivision));
  assert_param(IS_TIM_AUTORELOAD_PRELOAD(htim->Init.AutoReloadPreload));

  if (htim->State == HAL_TIM_STATE_RESET)
 8000a68:	687b      	ldr	r3, [r7, #4]
 8000a6a:	f893 303d 	ldrb.w	r3, [r3, #61]	; 0x3d
 8000a6e:	b2db      	uxtb	r3, r3
 8000a70:	2b00      	cmp	r3, #0
 8000a72:	d106      	bne.n	8000a82 <HAL_TIM_Base_Init+0x2c>
  {
    /* Allocate lock resource and initialize it */
    htim->Lock = HAL_UNLOCKED;
 8000a74:	687b      	ldr	r3, [r7, #4]
 8000a76:	2200      	movs	r2, #0
 8000a78:	f883 203c 	strb.w	r2, [r3, #60]	; 0x3c
    }
    /* Init the low level hardware : GPIO, CLOCK, NVIC */
    htim->Base_MspInitCallback(htim);
#else
    /* Init the low level hardware : GPIO, CLOCK, NVIC */
    HAL_TIM_Base_MspInit(htim);
 8000a7c:	6878      	ldr	r0, [r7, #4]
 8000a7e:	f7ff fc51 	bl	8000324 <HAL_TIM_Base_MspInit>
#endif /* USE_HAL_TIM_REGISTER_CALLBACKS */
  }

  /* Set the TIM state */
  htim->State = HAL_TIM_STATE_BUSY;
 8000a82:	687b      	ldr	r3, [r7, #4]
 8000a84:	2202      	movs	r2, #2
 8000a86:	f883 203d 	strb.w	r2, [r3, #61]	; 0x3d

  /* Set the Time Base configuration */
  TIM_Base_SetConfig(htim->Instance, &htim->Init);
 8000a8a:	687b      	ldr	r3, [r7, #4]
 8000a8c:	681a      	ldr	r2, [r3, #0]
 8000a8e:	687b      	ldr	r3, [r7, #4]
 8000a90:	3304      	adds	r3, #4
 8000a92:	4619      	mov	r1, r3
 8000a94:	4610      	mov	r0, r2
 8000a96:	f000 f95d 	bl	8000d54 <TIM_Base_SetConfig>

  /* Initialize the TIM state*/
  htim->State = HAL_TIM_STATE_READY;
 8000a9a:	687b      	ldr	r3, [r7, #4]
 8000a9c:	2201      	movs	r2, #1
 8000a9e:	f883 203d 	strb.w	r2, [r3, #61]	; 0x3d

  return HAL_OK;
 8000aa2:	2300      	movs	r3, #0
}
 8000aa4:	4618      	mov	r0, r3
 8000aa6:	3708      	adds	r7, #8
 8000aa8:	46bd      	mov	sp, r7
 8000aaa:	bd80      	pop	{r7, pc}

08000aac <HAL_TIM_Base_Start_IT>:
  * @brief  Starts the TIM Base generation in interrupt mode.
  * @param  htim TIM Base handle
  * @retval HAL status
  */
HAL_StatusTypeDef HAL_TIM_Base_Start_IT(TIM_HandleTypeDef *htim)
{
 8000aac:	b480      	push	{r7}
 8000aae:	b085      	sub	sp, #20
 8000ab0:	af00      	add	r7, sp, #0
 8000ab2:	6078      	str	r0, [r7, #4]

  /* Check the parameters */
  assert_param(IS_TIM_INSTANCE(htim->Instance));

  /* Enable the TIM Update interrupt */
  __HAL_TIM_ENABLE_IT(htim, TIM_IT_UPDATE);
 8000ab4:	687b      	ldr	r3, [r7, #4]
 8000ab6:	681b      	ldr	r3, [r3, #0]
 8000ab8:	68da      	ldr	r2, [r3, #12]
 8000aba:	687b      	ldr	r3, [r7, #4]
 8000abc:	681b      	ldr	r3, [r3, #0]
 8000abe:	f042 0201 	orr.w	r2, r2, #1
 8000ac2:	60da      	str	r2, [r3, #12]

  /* Enable the Peripheral, except in trigger mode where enable is automatically done with trigger */
  tmpsmcr = htim->Instance->SMCR & TIM_SMCR_SMS;
 8000ac4:	687b      	ldr	r3, [r7, #4]
 8000ac6:	681b      	ldr	r3, [r3, #0]
 8000ac8:	689b      	ldr	r3, [r3, #8]
 8000aca:	f003 0307 	and.w	r3, r3, #7
 8000ace:	60fb      	str	r3, [r7, #12]
  if (!IS_TIM_SLAVEMODE_TRIGGER_ENABLED(tmpsmcr))
 8000ad0:	68fb      	ldr	r3, [r7, #12]
 8000ad2:	2b06      	cmp	r3, #6
 8000ad4:	d007      	beq.n	8000ae6 <HAL_TIM_Base_Start_IT+0x3a>
  {
    __HAL_TIM_ENABLE(htim);
 8000ad6:	687b      	ldr	r3, [r7, #4]
 8000ad8:	681b      	ldr	r3, [r3, #0]
 8000ada:	681a      	ldr	r2, [r3, #0]
 8000adc:	687b      	ldr	r3, [r7, #4]
 8000ade:	681b      	ldr	r3, [r3, #0]
 8000ae0:	f042 0201 	orr.w	r2, r2, #1
 8000ae4:	601a      	str	r2, [r3, #0]
  }

  /* Return function status */
  return HAL_OK;
 8000ae6:	2300      	movs	r3, #0
}
 8000ae8:	4618      	mov	r0, r3
 8000aea:	3714      	adds	r7, #20
 8000aec:	46bd      	mov	sp, r7
 8000aee:	f85d 7b04 	ldr.w	r7, [sp], #4
 8000af2:	4770      	bx	lr

08000af4 <HAL_TIM_IRQHandler>:
  * @brief  This function handles TIM interrupts requests.
  * @param  htim TIM  handle
  * @retval None
  */
void HAL_TIM_IRQHandler(TIM_HandleTypeDef *htim)
{
 8000af4:	b580      	push	{r7, lr}
 8000af6:	b082      	sub	sp, #8
 8000af8:	af00      	add	r7, sp, #0
 8000afa:	6078      	str	r0, [r7, #4]
  /* Capture compare 1 event */
  if (__HAL_TIM_GET_FLAG(htim, TIM_FLAG_CC1) != RESET)
 8000afc:	687b      	ldr	r3, [r7, #4]
 8000afe:	681b      	ldr	r3, [r3, #0]
 8000b00:	691b      	ldr	r3, [r3, #16]
 8000b02:	f003 0302 	and.w	r3, r3, #2
 8000b06:	2b02      	cmp	r3, #2
 8000b08:	d122      	bne.n	8000b50 <HAL_TIM_IRQHandler+0x5c>
  {
    if (__HAL_TIM_GET_IT_SOURCE(htim, TIM_IT_CC1) != RESET)
 8000b0a:	687b      	ldr	r3, [r7, #4]
 8000b0c:	681b      	ldr	r3, [r3, #0]
 8000b0e:	68db      	ldr	r3, [r3, #12]
 8000b10:	f003 0302 	and.w	r3, r3, #2
 8000b14:	2b02      	cmp	r3, #2
 8000b16:	d11b      	bne.n	8000b50 <HAL_TIM_IRQHandler+0x5c>
    {
      {
        __HAL_TIM_CLEAR_IT(htim, TIM_IT_CC1);
 8000b18:	687b      	ldr	r3, [r7, #4]
 8000b1a:	681b      	ldr	r3, [r3, #0]
 8000b1c:	f06f 0202 	mvn.w	r2, #2
 8000b20:	611a      	str	r2, [r3, #16]
        htim->Channel = HAL_TIM_ACTIVE_CHANNEL_1;
 8000b22:	687b      	ldr	r3, [r7, #4]
 8000b24:	2201      	movs	r2, #1
 8000b26:	771a      	strb	r2, [r3, #28]

        /* Input capture event */
        if ((htim->Instance->CCMR1 & TIM_CCMR1_CC1S) != 0x00U)
 8000b28:	687b      	ldr	r3, [r7, #4]
 8000b2a:	681b      	ldr	r3, [r3, #0]
 8000b2c:	699b      	ldr	r3, [r3, #24]
 8000b2e:	f003 0303 	and.w	r3, r3, #3
 8000b32:	2b00      	cmp	r3, #0
 8000b34:	d003      	beq.n	8000b3e <HAL_TIM_IRQHandler+0x4a>
        {
#if (USE_HAL_TIM_REGISTER_CALLBACKS == 1)
          htim->IC_CaptureCallback(htim);
#else
          HAL_TIM_IC_CaptureCallback(htim);
 8000b36:	6878      	ldr	r0, [r7, #4]
 8000b38:	f000 f8ee 	bl	8000d18 <HAL_TIM_IC_CaptureCallback>
 8000b3c:	e005      	b.n	8000b4a <HAL_TIM_IRQHandler+0x56>
        {
#if (USE_HAL_TIM_REGISTER_CALLBACKS == 1)
          htim->OC_DelayElapsedCallback(htim);
          htim->PWM_PulseFinishedCallback(htim);
#else
          HAL_TIM_OC_DelayElapsedCallback(htim);
 8000b3e:	6878      	ldr	r0, [r7, #4]
 8000b40:	f000 f8e0 	bl	8000d04 <HAL_TIM_OC_DelayElapsedCallback>
          HAL_TIM_PWM_PulseFinishedCallback(htim);
 8000b44:	6878      	ldr	r0, [r7, #4]
 8000b46:	f000 f8f1 	bl	8000d2c <HAL_TIM_PWM_PulseFinishedCallback>
#endif /* USE_HAL_TIM_REGISTER_CALLBACKS */
        }
        htim->Channel = HAL_TIM_ACTIVE_CHANNEL_CLEARED;
 8000b4a:	687b      	ldr	r3, [r7, #4]
 8000b4c:	2200      	movs	r2, #0
 8000b4e:	771a      	strb	r2, [r3, #28]
      }
    }
  }
  /* Capture compare 2 event */
  if (__HAL_TIM_GET_FLAG(htim, TIM_FLAG_CC2) != RESET)
 8000b50:	687b      	ldr	r3, [r7, #4]
 8000b52:	681b      	ldr	r3, [r3, #0]
 8000b54:	691b      	ldr	r3, [r3, #16]
 8000b56:	f003 0304 	and.w	r3, r3, #4
 8000b5a:	2b04      	cmp	r3, #4
 8000b5c:	d122      	bne.n	8000ba4 <HAL_TIM_IRQHandler+0xb0>
  {
    if (__HAL_TIM_GET_IT_SOURCE(htim, TIM_IT_CC2) != RESET)
 8000b5e:	687b      	ldr	r3, [r7, #4]
 8000b60:	681b      	ldr	r3, [r3, #0]
 8000b62:	68db      	ldr	r3, [r3, #12]
 8000b64:	f003 0304 	and.w	r3, r3, #4
 8000b68:	2b04      	cmp	r3, #4
 8000b6a:	d11b      	bne.n	8000ba4 <HAL_TIM_IRQHandler+0xb0>
    {
      __HAL_TIM_CLEAR_IT(htim, TIM_IT_CC2);
 8000b6c:	687b      	ldr	r3, [r7, #4]
 8000b6e:	681b      	ldr	r3, [r3, #0]
 8000b70:	f06f 0204 	mvn.w	r2, #4
 8000b74:	611a      	str	r2, [r3, #16]
      htim->Channel = HAL_TIM_ACTIVE_CHANNEL_2;
 8000b76:	687b      	ldr	r3, [r7, #4]
 8000b78:	2202      	movs	r2, #2
 8000b7a:	771a      	strb	r2, [r3, #28]
      /* Input capture event */
      if ((htim->Instance->CCMR1 & TIM_CCMR1_CC2S) != 0x00U)
 8000b7c:	687b      	ldr	r3, [r7, #4]
 8000b7e:	681b      	ldr	r3, [r3, #0]
 8000b80:	699b      	ldr	r3, [r3, #24]
 8000b82:	f403 7340 	and.w	r3, r3, #768	; 0x300
 8000b86:	2b00      	cmp	r3, #0
 8000b88:	d003      	beq.n	8000b92 <HAL_TIM_IRQHandler+0x9e>
      {
#if (USE_HAL_TIM_REGISTER_CALLBACKS == 1)
        htim->IC_CaptureCallback(htim);
#else
        HAL_TIM_IC_CaptureCallback(htim);
 8000b8a:	6878      	ldr	r0, [r7, #4]
 8000b8c:	f000 f8c4 	bl	8000d18 <HAL_TIM_IC_CaptureCallback>
 8000b90:	e005      	b.n	8000b9e <HAL_TIM_IRQHandler+0xaa>
      {
#if (USE_HAL_TIM_REGISTER_CALLBACKS == 1)
        htim->OC_DelayElapsedCallback(htim);
        htim->PWM_PulseFinishedCallback(htim);
#else
        HAL_TIM_OC_DelayElapsedCallback(htim);
 8000b92:	6878      	ldr	r0, [r7, #4]
 8000b94:	f000 f8b6 	bl	8000d04 <HAL_TIM_OC_DelayElapsedCallback>
        HAL_TIM_PWM_PulseFinishedCallback(htim);
 8000b98:	6878      	ldr	r0, [r7, #4]
 8000b9a:	f000 f8c7 	bl	8000d2c <HAL_TIM_PWM_PulseFinishedCallback>
#endif /* USE_HAL_TIM_REGISTER_CALLBACKS */
      }
      htim->Channel = HAL_TIM_ACTIVE_CHANNEL_CLEARED;
 8000b9e:	687b      	ldr	r3, [r7, #4]
 8000ba0:	2200      	movs	r2, #0
 8000ba2:	771a      	strb	r2, [r3, #28]
    }
  }
  /* Capture compare 3 event */
  if (__HAL_TIM_GET_FLAG(htim, TIM_FLAG_CC3) != RESET)
 8000ba4:	687b      	ldr	r3, [r7, #4]
 8000ba6:	681b      	ldr	r3, [r3, #0]
 8000ba8:	691b      	ldr	r3, [r3, #16]
 8000baa:	f003 0308 	and.w	r3, r3, #8
 8000bae:	2b08      	cmp	r3, #8
 8000bb0:	d122      	bne.n	8000bf8 <HAL_TIM_IRQHandler+0x104>
  {
    if (__HAL_TIM_GET_IT_SOURCE(htim, TIM_IT_CC3) != RESET)
 8000bb2:	687b      	ldr	r3, [r7, #4]
 8000bb4:	681b      	ldr	r3, [r3, #0]
 8000bb6:	68db      	ldr	r3, [r3, #12]
 8000bb8:	f003 0308 	and.w	r3, r3, #8
 8000bbc:	2b08      	cmp	r3, #8
 8000bbe:	d11b      	bne.n	8000bf8 <HAL_TIM_IRQHandler+0x104>
    {
      __HAL_TIM_CLEAR_IT(htim, TIM_IT_CC3);
 8000bc0:	687b      	ldr	r3, [r7, #4]
 8000bc2:	681b      	ldr	r3, [r3, #0]
 8000bc4:	f06f 0208 	mvn.w	r2, #8
 8000bc8:	611a      	str	r2, [r3, #16]
      htim->Channel = HAL_TIM_ACTIVE_CHANNEL_3;
 8000bca:	687b      	ldr	r3, [r7, #4]
 8000bcc:	2204      	movs	r2, #4
 8000bce:	771a      	strb	r2, [r3, #28]
      /* Input capture event */
      if ((htim->Instance->CCMR2 & TIM_CCMR2_CC3S) != 0x00U)
 8000bd0:	687b      	ldr	r3, [r7, #4]
 8000bd2:	681b      	ldr	r3, [r3, #0]
 8000bd4:	69db      	ldr	r3, [r3, #28]
 8000bd6:	f003 0303 	and.w	r3, r3, #3
 8000bda:	2b00      	cmp	r3, #0
 8000bdc:	d003      	beq.n	8000be6 <HAL_TIM_IRQHandler+0xf2>
      {
#if (USE_HAL_TIM_REGISTER_CALLBACKS == 1)
        htim->IC_CaptureCallback(htim);
#else
        HAL_TIM_IC_CaptureCallback(htim);
 8000bde:	6878      	ldr	r0, [r7, #4]
 8000be0:	f000 f89a 	bl	8000d18 <HAL_TIM_IC_CaptureCallback>
 8000be4:	e005      	b.n	8000bf2 <HAL_TIM_IRQHandler+0xfe>
      {
#if (USE_HAL_TIM_REGISTER_CALLBACKS == 1)
        htim->OC_DelayElapsedCallback(htim);
        htim->PWM_PulseFinishedCallback(htim);
#else
        HAL_TIM_OC_DelayElapsedCallback(htim);
 8000be6:	6878      	ldr	r0, [r7, #4]
 8000be8:	f000 f88c 	bl	8000d04 <HAL_TIM_OC_DelayElapsedCallback>
        HAL_TIM_PWM_PulseFinishedCallback(htim);
 8000bec:	6878      	ldr	r0, [r7, #4]
 8000bee:	f000 f89d 	bl	8000d2c <HAL_TIM_PWM_PulseFinishedCallback>
#endif /* USE_HAL_TIM_REGISTER_CALLBACKS */
      }
      htim->Channel = HAL_TIM_ACTIVE_CHANNEL_CLEARED;
 8000bf2:	687b      	ldr	r3, [r7, #4]
 8000bf4:	2200      	movs	r2, #0
 8000bf6:	771a      	strb	r2, [r3, #28]
    }
  }
  /* Capture compare 4 event */
  if (__HAL_TIM_GET_FLAG(htim, TIM_FLAG_CC4) != RESET)
 8000bf8:	687b      	ldr	r3, [r7, #4]
 8000bfa:	681b      	ldr	r3, [r3, #0]
 8000bfc:	691b      	ldr	r3, [r3, #16]
 8000bfe:	f003 0310 	and.w	r3, r3, #16
 8000c02:	2b10      	cmp	r3, #16
 8000c04:	d122      	bne.n	8000c4c <HAL_TIM_IRQHandler+0x158>
  {
    if (__HAL_TIM_GET_IT_SOURCE(htim, TIM_IT_CC4) != RESET)
 8000c06:	687b      	ldr	r3, [r7, #4]
 8000c08:	681b      	ldr	r3, [r3, #0]
 8000c0a:	68db      	ldr	r3, [r3, #12]
 8000c0c:	f003 0310 	and.w	r3, r3, #16
 8000c10:	2b10      	cmp	r3, #16
 8000c12:	d11b      	bne.n	8000c4c <HAL_TIM_IRQHandler+0x158>
    {
      __HAL_TIM_CLEAR_IT(htim, TIM_IT_CC4);
 8000c14:	687b      	ldr	r3, [r7, #4]
 8000c16:	681b      	ldr	r3, [r3, #0]
 8000c18:	f06f 0210 	mvn.w	r2, #16
 8000c1c:	611a      	str	r2, [r3, #16]
      htim->Channel = HAL_TIM_ACTIVE_CHANNEL_4;
 8000c1e:	687b      	ldr	r3, [r7, #4]
 8000c20:	2208      	movs	r2, #8
 8000c22:	771a      	strb	r2, [r3, #28]
      /* Input capture event */
      if ((htim->Instance->CCMR2 & TIM_CCMR2_CC4S) != 0x00U)
 8000c24:	687b      	ldr	r3, [r7, #4]
 8000c26:	681b      	ldr	r3, [r3, #0]
 8000c28:	69db      	ldr	r3, [r3, #28]
 8000c2a:	f403 7340 	and.w	r3, r3, #768	; 0x300
 8000c2e:	2b00      	cmp	r3, #0
 8000c30:	d003      	beq.n	8000c3a <HAL_TIM_IRQHandler+0x146>
      {
#if (USE_HAL_TIM_REGISTER_CALLBACKS == 1)
        htim->IC_CaptureCallback(htim);
#else
        HAL_TIM_IC_CaptureCallback(htim);
 8000c32:	6878      	ldr	r0, [r7, #4]
 8000c34:	f000 f870 	bl	8000d18 <HAL_TIM_IC_CaptureCallback>
 8000c38:	e005      	b.n	8000c46 <HAL_TIM_IRQHandler+0x152>
      {
#if (USE_HAL_TIM_REGISTER_CALLBACKS == 1)
        htim->OC_DelayElapsedCallback(htim);
        htim->PWM_PulseFinishedCallback(htim);
#else
        HAL_TIM_OC_DelayElapsedCallback(htim);
 8000c3a:	6878      	ldr	r0, [r7, #4]
 8000c3c:	f000 f862 	bl	8000d04 <HAL_TIM_OC_DelayElapsedCallback>
        HAL_TIM_PWM_PulseFinishedCallback(htim);
 8000c40:	6878      	ldr	r0, [r7, #4]
 8000c42:	f000 f873 	bl	8000d2c <HAL_TIM_PWM_PulseFinishedCallback>
#endif /* USE_HAL_TIM_REGISTER_CALLBACKS */
      }
      htim->Channel = HAL_TIM_ACTIVE_CHANNEL_CLEARED;
 8000c46:	687b      	ldr	r3, [r7, #4]
 8000c48:	2200      	movs	r2, #0
 8000c4a:	771a      	strb	r2, [r3, #28]
    }
  }
  /* TIM Update event */
  if (__HAL_TIM_GET_FLAG(htim, TIM_FLAG_UPDATE) != RESET)
 8000c4c:	687b      	ldr	r3, [r7, #4]
 8000c4e:	681b      	ldr	r3, [r3, #0]
 8000c50:	691b      	ldr	r3, [r3, #16]
 8000c52:	f003 0301 	and.w	r3, r3, #1
 8000c56:	2b01      	cmp	r3, #1
 8000c58:	d10e      	bne.n	8000c78 <HAL_TIM_IRQHandler+0x184>
  {
    if (__HAL_TIM_GET_IT_SOURCE(htim, TIM_IT_UPDATE) != RESET)
 8000c5a:	687b      	ldr	r3, [r7, #4]
 8000c5c:	681b      	ldr	r3, [r3, #0]
 8000c5e:	68db      	ldr	r3, [r3, #12]
 8000c60:	f003 0301 	and.w	r3, r3, #1
 8000c64:	2b01      	cmp	r3, #1
 8000c66:	d107      	bne.n	8000c78 <HAL_TIM_IRQHandler+0x184>
    {
      __HAL_TIM_CLEAR_IT(htim, TIM_IT_UPDATE);
 8000c68:	687b      	ldr	r3, [r7, #4]
 8000c6a:	681b      	ldr	r3, [r3, #0]
 8000c6c:	f06f 0201 	mvn.w	r2, #1
 8000c70:	611a      	str	r2, [r3, #16]
#if (USE_HAL_TIM_REGISTER_CALLBACKS == 1)
      htim->PeriodElapsedCallback(htim);
#else
      HAL_TIM_PeriodElapsedCallback(htim);
 8000c72:	6878      	ldr	r0, [r7, #4]
 8000c74:	f7ff fb18 	bl	80002a8 <HAL_TIM_PeriodElapsedCallback>
#endif /* USE_HAL_TIM_REGISTER_CALLBACKS */
    }
  }
  /* TIM Break input event */
  if (__HAL_TIM_GET_FLAG(htim, TIM_FLAG_BREAK) != RESET)
 8000c78:	687b      	ldr	r3, [r7, #4]
 8000c7a:	681b      	ldr	r3, [r3, #0]
 8000c7c:	691b      	ldr	r3, [r3, #16]
 8000c7e:	f003 0380 	and.w	r3, r3, #128	; 0x80
 8000c82:	2b80      	cmp	r3, #128	; 0x80
 8000c84:	d10e      	bne.n	8000ca4 <HAL_TIM_IRQHandler+0x1b0>
  {
    if (__HAL_TIM_GET_IT_SOURCE(htim, TIM_IT_BREAK) != RESET)
 8000c86:	687b      	ldr	r3, [r7, #4]
 8000c88:	681b      	ldr	r3, [r3, #0]
 8000c8a:	68db      	ldr	r3, [r3, #12]
 8000c8c:	f003 0380 	and.w	r3, r3, #128	; 0x80
 8000c90:	2b80      	cmp	r3, #128	; 0x80
 8000c92:	d107      	bne.n	8000ca4 <HAL_TIM_IRQHandler+0x1b0>
    {
      __HAL_TIM_CLEAR_IT(htim, TIM_IT_BREAK);
 8000c94:	687b      	ldr	r3, [r7, #4]
 8000c96:	681b      	ldr	r3, [r3, #0]
 8000c98:	f06f 0280 	mvn.w	r2, #128	; 0x80
 8000c9c:	611a      	str	r2, [r3, #16]
#if (USE_HAL_TIM_REGISTER_CALLBACKS == 1)
      htim->BreakCallback(htim);
#else
      HAL_TIMEx_BreakCallback(htim);
 8000c9e:	6878      	ldr	r0, [r7, #4]
 8000ca0:	f000 f902 	bl	8000ea8 <HAL_TIMEx_BreakCallback>
#endif /* USE_HAL_TIM_REGISTER_CALLBACKS */
    }
  }
  /* TIM Trigger detection event */
  if (__HAL_TIM_GET_FLAG(htim, TIM_FLAG_TRIGGER) != RESET)
 8000ca4:	687b      	ldr	r3, [r7, #4]
 8000ca6:	681b      	ldr	r3, [r3, #0]
 8000ca8:	691b      	ldr	r3, [r3, #16]
 8000caa:	f003 0340 	and.w	r3, r3, #64	; 0x40
 8000cae:	2b40      	cmp	r3, #64	; 0x40
 8000cb0:	d10e      	bne.n	8000cd0 <HAL_TIM_IRQHandler+0x1dc>
  {
    if (__HAL_TIM_GET_IT_SOURCE(htim, TIM_IT_TRIGGER) != RESET)
 8000cb2:	687b      	ldr	r3, [r7, #4]
 8000cb4:	681b      	ldr	r3, [r3, #0]
 8000cb6:	68db      	ldr	r3, [r3, #12]
 8000cb8:	f003 0340 	and.w	r3, r3, #64	; 0x40
 8000cbc:	2b40      	cmp	r3, #64	; 0x40
 8000cbe:	d107      	bne.n	8000cd0 <HAL_TIM_IRQHandler+0x1dc>
    {
      __HAL_TIM_CLEAR_IT(htim, TIM_IT_TRIGGER);
 8000cc0:	687b      	ldr	r3, [r7, #4]
 8000cc2:	681b      	ldr	r3, [r3, #0]
 8000cc4:	f06f 0240 	mvn.w	r2, #64	; 0x40
 8000cc8:	611a      	str	r2, [r3, #16]
#if (USE_HAL_TIM_REGISTER_CALLBACKS == 1)
      htim->TriggerCallback(htim);
#else
      HAL_TIM_TriggerCallback(htim);
 8000cca:	6878      	ldr	r0, [r7, #4]
 8000ccc:	f000 f838 	bl	8000d40 <HAL_TIM_TriggerCallback>
#endif /* USE_HAL_TIM_REGISTER_CALLBACKS */
    }
  }
  /* TIM commutation event */
  if (__HAL_TIM_GET_FLAG(htim, TIM_FLAG_COM) != RESET)
 8000cd0:	687b      	ldr	r3, [r7, #4]
 8000cd2:	681b      	ldr	r3, [r3, #0]
 8000cd4:	691b      	ldr	r3, [r3, #16]
 8000cd6:	f003 0320 	and.w	r3, r3, #32
 8000cda:	2b20      	cmp	r3, #32
 8000cdc:	d10e      	bne.n	8000cfc <HAL_TIM_IRQHandler+0x208>
  {
    if (__HAL_TIM_GET_IT_SOURCE(htim, TIM_IT_COM) != RESET)
 8000cde:	687b      	ldr	r3, [r7, #4]
 8000ce0:	681b      	ldr	r3, [r3, #0]
 8000ce2:	68db      	ldr	r3, [r3, #12]
 8000ce4:	f003 0320 	and.w	r3, r3, #32
 8000ce8:	2b20      	cmp	r3, #32
 8000cea:	d107      	bne.n	8000cfc <HAL_TIM_IRQHandler+0x208>
    {
      __HAL_TIM_CLEAR_IT(htim, TIM_FLAG_COM);
 8000cec:	687b      	ldr	r3, [r7, #4]
 8000cee:	681b      	ldr	r3, [r3, #0]
 8000cf0:	f06f 0220 	mvn.w	r2, #32
 8000cf4:	611a      	str	r2, [r3, #16]
#if (USE_HAL_TIM_REGISTER_CALLBACKS == 1)
      htim->CommutationCallback(htim);
#else
      HAL_TIMEx_CommutCallback(htim);
 8000cf6:	6878      	ldr	r0, [r7, #4]
 8000cf8:	f000 f8cc 	bl	8000e94 <HAL_TIMEx_CommutCallback>
#endif /* USE_HAL_TIM_REGISTER_CALLBACKS */
    }
  }
}
 8000cfc:	bf00      	nop
 8000cfe:	3708      	adds	r7, #8
 8000d00:	46bd      	mov	sp, r7
 8000d02:	bd80      	pop	{r7, pc}

08000d04 <HAL_TIM_OC_DelayElapsedCallback>:
  * @brief  Output Compare callback in non-blocking mode
  * @param  htim TIM OC handle
  * @retval None
  */
__weak void HAL_TIM_OC_DelayElapsedCallback(TIM_HandleTypeDef *htim)
{
 8000d04:	b480      	push	{r7}
 8000d06:	b083      	sub	sp, #12
 8000d08:	af00      	add	r7, sp, #0
 8000d0a:	6078      	str	r0, [r7, #4]
  UNUSED(htim);

  /* NOTE : This function should not be modified, when the callback is needed,
            the HAL_TIM_OC_DelayElapsedCallback could be implemented in the user file
   */
}
 8000d0c:	bf00      	nop
 8000d0e:	370c      	adds	r7, #12
 8000d10:	46bd      	mov	sp, r7
 8000d12:	f85d 7b04 	ldr.w	r7, [sp], #4
 8000d16:	4770      	bx	lr

08000d18 <HAL_TIM_IC_CaptureCallback>:
  * @brief  Input Capture callback in non-blocking mode
  * @param  htim TIM IC handle
  * @retval None
  */
__weak void HAL_TIM_IC_CaptureCallback(TIM_HandleTypeDef *htim)
{
 8000d18:	b480      	push	{r7}
 8000d1a:	b083      	sub	sp, #12
 8000d1c:	af00      	add	r7, sp, #0
 8000d1e:	6078      	str	r0, [r7, #4]
  UNUSED(htim);

  /* NOTE : This function should not be modified, when the callback is needed,
            the HAL_TIM_IC_CaptureCallback could be implemented in the user file
   */
}
 8000d20:	bf00      	nop
 8000d22:	370c      	adds	r7, #12
 8000d24:	46bd      	mov	sp, r7
 8000d26:	f85d 7b04 	ldr.w	r7, [sp], #4
 8000d2a:	4770      	bx	lr

08000d2c <HAL_TIM_PWM_PulseFinishedCallback>:
  * @brief  PWM Pulse finished callback in non-blocking mode
  * @param  htim TIM handle
  * @retval None
  */
__weak void HAL_TIM_PWM_PulseFinishedCallback(TIM_HandleTypeDef *htim)
{
 8000d2c:	b480      	push	{r7}
 8000d2e:	b083      	sub	sp, #12
 8000d30:	af00      	add	r7, sp, #0
 8000d32:	6078      	str	r0, [r7, #4]
  UNUSED(htim);

  /* NOTE : This function should not be modified, when the callback is needed,
            the HAL_TIM_PWM_PulseFinishedCallback could be implemented in the user file
   */
}
 8000d34:	bf00      	nop
 8000d36:	370c      	adds	r7, #12
 8000d38:	46bd      	mov	sp, r7
 8000d3a:	f85d 7b04 	ldr.w	r7, [sp], #4
 8000d3e:	4770      	bx	lr

08000d40 <HAL_TIM_TriggerCallback>:
  * @brief  Hall Trigger detection callback in non-blocking mode
  * @param  htim TIM handle
  * @retval None
  */
__weak void HAL_TIM_TriggerCallback(TIM_HandleTypeDef *htim)
{
 8000d40:	b480      	push	{r7}
 8000d42:	b083      	sub	sp, #12
 8000d44:	af00      	add	r7, sp, #0
 8000d46:	6078      	str	r0, [r7, #4]
  UNUSED(htim);

  /* NOTE : This function should not be modified, when the callback is needed,
            the HAL_TIM_TriggerCallback could be implemented in the user file
   */
}
 8000d48:	bf00      	nop
 8000d4a:	370c      	adds	r7, #12
 8000d4c:	46bd      	mov	sp, r7
 8000d4e:	f85d 7b04 	ldr.w	r7, [sp], #4
 8000d52:	4770      	bx	lr

08000d54 <TIM_Base_SetConfig>:
  * @param  TIMx TIM peripheral
  * @param  Structure TIM Base configuration structure
  * @retval None
  */
void TIM_Base_SetConfig(TIM_TypeDef *TIMx, TIM_Base_InitTypeDef *Structure)
{
 8000d54:	b480      	push	{r7}
 8000d56:	b085      	sub	sp, #20
 8000d58:	af00      	add	r7, sp, #0
 8000d5a:	6078      	str	r0, [r7, #4]
 8000d5c:	6039      	str	r1, [r7, #0]
  uint32_t tmpcr1;
  tmpcr1 = TIMx->CR1;
 8000d5e:	687b      	ldr	r3, [r7, #4]
 8000d60:	681b      	ldr	r3, [r3, #0]
 8000d62:	60fb      	str	r3, [r7, #12]

  /* Set TIM Time Base Unit parameters ---------------------------------------*/
  if (IS_TIM_COUNTER_MODE_SELECT_INSTANCE(TIMx))
 8000d64:	687b      	ldr	r3, [r7, #4]
 8000d66:	4a40      	ldr	r2, [pc, #256]	; (8000e68 <TIM_Base_SetConfig+0x114>)
 8000d68:	4293      	cmp	r3, r2
 8000d6a:	d013      	beq.n	8000d94 <TIM_Base_SetConfig+0x40>
 8000d6c:	687b      	ldr	r3, [r7, #4]
 8000d6e:	f1b3 4f80 	cmp.w	r3, #1073741824	; 0x40000000
 8000d72:	d00f      	beq.n	8000d94 <TIM_Base_SetConfig+0x40>
 8000d74:	687b      	ldr	r3, [r7, #4]
 8000d76:	4a3d      	ldr	r2, [pc, #244]	; (8000e6c <TIM_Base_SetConfig+0x118>)
 8000d78:	4293      	cmp	r3, r2
 8000d7a:	d00b      	beq.n	8000d94 <TIM_Base_SetConfig+0x40>
 8000d7c:	687b      	ldr	r3, [r7, #4]
 8000d7e:	4a3c      	ldr	r2, [pc, #240]	; (8000e70 <TIM_Base_SetConfig+0x11c>)
 8000d80:	4293      	cmp	r3, r2
 8000d82:	d007      	beq.n	8000d94 <TIM_Base_SetConfig+0x40>
 8000d84:	687b      	ldr	r3, [r7, #4]
 8000d86:	4a3b      	ldr	r2, [pc, #236]	; (8000e74 <TIM_Base_SetConfig+0x120>)
 8000d88:	4293      	cmp	r3, r2
 8000d8a:	d003      	beq.n	8000d94 <TIM_Base_SetConfig+0x40>
 8000d8c:	687b      	ldr	r3, [r7, #4]
 8000d8e:	4a3a      	ldr	r2, [pc, #232]	; (8000e78 <TIM_Base_SetConfig+0x124>)
 8000d90:	4293      	cmp	r3, r2
 8000d92:	d108      	bne.n	8000da6 <TIM_Base_SetConfig+0x52>
  {
    /* Select the Counter Mode */
    tmpcr1 &= ~(TIM_CR1_DIR | TIM_CR1_CMS);
 8000d94:	68fb      	ldr	r3, [r7, #12]
 8000d96:	f023 0370 	bic.w	r3, r3, #112	; 0x70
 8000d9a:	60fb      	str	r3, [r7, #12]
    tmpcr1 |= Structure->CounterMode;
 8000d9c:	683b      	ldr	r3, [r7, #0]
 8000d9e:	685b      	ldr	r3, [r3, #4]
 8000da0:	68fa      	ldr	r2, [r7, #12]
 8000da2:	4313      	orrs	r3, r2
 8000da4:	60fb      	str	r3, [r7, #12]
  }

  if (IS_TIM_CLOCK_DIVISION_INSTANCE(TIMx))
 8000da6:	687b      	ldr	r3, [r7, #4]
 8000da8:	4a2f      	ldr	r2, [pc, #188]	; (8000e68 <TIM_Base_SetConfig+0x114>)
 8000daa:	4293      	cmp	r3, r2
 8000dac:	d02b      	beq.n	8000e06 <TIM_Base_SetConfig+0xb2>
 8000dae:	687b      	ldr	r3, [r7, #4]
 8000db0:	f1b3 4f80 	cmp.w	r3, #1073741824	; 0x40000000
 8000db4:	d027      	beq.n	8000e06 <TIM_Base_SetConfig+0xb2>
 8000db6:	687b      	ldr	r3, [r7, #4]
 8000db8:	4a2c      	ldr	r2, [pc, #176]	; (8000e6c <TIM_Base_SetConfig+0x118>)
 8000dba:	4293      	cmp	r3, r2
 8000dbc:	d023      	beq.n	8000e06 <TIM_Base_SetConfig+0xb2>
 8000dbe:	687b      	ldr	r3, [r7, #4]
 8000dc0:	4a2b      	ldr	r2, [pc, #172]	; (8000e70 <TIM_Base_SetConfig+0x11c>)
 8000dc2:	4293      	cmp	r3, r2
 8000dc4:	d01f      	beq.n	8000e06 <TIM_Base_SetConfig+0xb2>
 8000dc6:	687b      	ldr	r3, [r7, #4]
 8000dc8:	4a2a      	ldr	r2, [pc, #168]	; (8000e74 <TIM_Base_SetConfig+0x120>)
 8000dca:	4293      	cmp	r3, r2
 8000dcc:	d01b      	beq.n	8000e06 <TIM_Base_SetConfig+0xb2>
 8000dce:	687b      	ldr	r3, [r7, #4]
 8000dd0:	4a29      	ldr	r2, [pc, #164]	; (8000e78 <TIM_Base_SetConfig+0x124>)
 8000dd2:	4293      	cmp	r3, r2
 8000dd4:	d017      	beq.n	8000e06 <TIM_Base_SetConfig+0xb2>
 8000dd6:	687b      	ldr	r3, [r7, #4]
 8000dd8:	4a28      	ldr	r2, [pc, #160]	; (8000e7c <TIM_Base_SetConfig+0x128>)
 8000dda:	4293      	cmp	r3, r2
 8000ddc:	d013      	beq.n	8000e06 <TIM_Base_SetConfig+0xb2>
 8000dde:	687b      	ldr	r3, [r7, #4]
 8000de0:	4a27      	ldr	r2, [pc, #156]	; (8000e80 <TIM_Base_SetConfig+0x12c>)
 8000de2:	4293      	cmp	r3, r2
 8000de4:	d00f      	beq.n	8000e06 <TIM_Base_SetConfig+0xb2>
 8000de6:	687b      	ldr	r3, [r7, #4]
 8000de8:	4a26      	ldr	r2, [pc, #152]	; (8000e84 <TIM_Base_SetConfig+0x130>)
 8000dea:	4293      	cmp	r3, r2
 8000dec:	d00b      	beq.n	8000e06 <TIM_Base_SetConfig+0xb2>
 8000dee:	687b      	ldr	r3, [r7, #4]
 8000df0:	4a25      	ldr	r2, [pc, #148]	; (8000e88 <TIM_Base_SetConfig+0x134>)
 8000df2:	4293      	cmp	r3, r2
 8000df4:	d007      	beq.n	8000e06 <TIM_Base_SetConfig+0xb2>
 8000df6:	687b      	ldr	r3, [r7, #4]
 8000df8:	4a24      	ldr	r2, [pc, #144]	; (8000e8c <TIM_Base_SetConfig+0x138>)
 8000dfa:	4293      	cmp	r3, r2
 8000dfc:	d003      	beq.n	8000e06 <TIM_Base_SetConfig+0xb2>
 8000dfe:	687b      	ldr	r3, [r7, #4]
 8000e00:	4a23      	ldr	r2, [pc, #140]	; (8000e90 <TIM_Base_SetConfig+0x13c>)
 8000e02:	4293      	cmp	r3, r2
 8000e04:	d108      	bne.n	8000e18 <TIM_Base_SetConfig+0xc4>
  {
    /* Set the clock division */
    tmpcr1 &= ~TIM_CR1_CKD;
 8000e06:	68fb      	ldr	r3, [r7, #12]
 8000e08:	f423 7340 	bic.w	r3, r3, #768	; 0x300
 8000e0c:	60fb      	str	r3, [r7, #12]
    tmpcr1 |= (uint32_t)Structure->ClockDivision;
 8000e0e:	683b      	ldr	r3, [r7, #0]
 8000e10:	68db      	ldr	r3, [r3, #12]
 8000e12:	68fa      	ldr	r2, [r7, #12]
 8000e14:	4313      	orrs	r3, r2
 8000e16:	60fb      	str	r3, [r7, #12]
  }

  /* Set the auto-reload preload */
  MODIFY_REG(tmpcr1, TIM_CR1_ARPE, Structure->AutoReloadPreload);
 8000e18:	68fb      	ldr	r3, [r7, #12]
 8000e1a:	f023 0280 	bic.w	r2, r3, #128	; 0x80
 8000e1e:	683b      	ldr	r3, [r7, #0]
 8000e20:	695b      	ldr	r3, [r3, #20]
 8000e22:	4313      	orrs	r3, r2
 8000e24:	60fb      	str	r3, [r7, #12]

  TIMx->CR1 = tmpcr1;
 8000e26:	687b      	ldr	r3, [r7, #4]
 8000e28:	68fa      	ldr	r2, [r7, #12]
 8000e2a:	601a      	str	r2, [r3, #0]

  /* Set the Autoreload value */
  TIMx->ARR = (uint32_t)Structure->Period ;
 8000e2c:	683b      	ldr	r3, [r7, #0]
 8000e2e:	689a      	ldr	r2, [r3, #8]
 8000e30:	687b      	ldr	r3, [r7, #4]
 8000e32:	62da      	str	r2, [r3, #44]	; 0x2c

  /* Set the Prescaler value */
  TIMx->PSC = Structure->Prescaler;
 8000e34:	683b      	ldr	r3, [r7, #0]
 8000e36:	681a      	ldr	r2, [r3, #0]
 8000e38:	687b      	ldr	r3, [r7, #4]
 8000e3a:	629a      	str	r2, [r3, #40]	; 0x28

  if (IS_TIM_REPETITION_COUNTER_INSTANCE(TIMx))
 8000e3c:	687b      	ldr	r3, [r7, #4]
 8000e3e:	4a0a      	ldr	r2, [pc, #40]	; (8000e68 <TIM_Base_SetConfig+0x114>)
 8000e40:	4293      	cmp	r3, r2
 8000e42:	d003      	beq.n	8000e4c <TIM_Base_SetConfig+0xf8>
 8000e44:	687b      	ldr	r3, [r7, #4]
 8000e46:	4a0c      	ldr	r2, [pc, #48]	; (8000e78 <TIM_Base_SetConfig+0x124>)
 8000e48:	4293      	cmp	r3, r2
 8000e4a:	d103      	bne.n	8000e54 <TIM_Base_SetConfig+0x100>
  {
    /* Set the Repetition Counter value */
    TIMx->RCR = Structure->RepetitionCounter;
 8000e4c:	683b      	ldr	r3, [r7, #0]
 8000e4e:	691a      	ldr	r2, [r3, #16]
 8000e50:	687b      	ldr	r3, [r7, #4]
 8000e52:	631a      	str	r2, [r3, #48]	; 0x30
  }

  /* Generate an update event to reload the Prescaler
     and the repetition counter (only for advanced timer) value immediately */
  TIMx->EGR = TIM_EGR_UG;
 8000e54:	687b      	ldr	r3, [r7, #4]
 8000e56:	2201      	movs	r2, #1
 8000e58:	615a      	str	r2, [r3, #20]
}
 8000e5a:	bf00      	nop
 8000e5c:	3714      	adds	r7, #20
 8000e5e:	46bd      	mov	sp, r7
 8000e60:	f85d 7b04 	ldr.w	r7, [sp], #4
 8000e64:	4770      	bx	lr
 8000e66:	bf00      	nop
 8000e68:	40010000 	.word	0x40010000
 8000e6c:	40000400 	.word	0x40000400
 8000e70:	40000800 	.word	0x40000800
 8000e74:	40000c00 	.word	0x40000c00
 8000e78:	40010400 	.word	0x40010400
 8000e7c:	40014000 	.word	0x40014000
 8000e80:	40014400 	.word	0x40014400
 8000e84:	40014800 	.word	0x40014800
 8000e88:	40001800 	.word	0x40001800
 8000e8c:	40001c00 	.word	0x40001c00
 8000e90:	40002000 	.word	0x40002000

08000e94 <HAL_TIMEx_CommutCallback>:
  * @brief  Hall commutation changed callback in non-blocking mode
  * @param  htim TIM handle
  * @retval None
  */
__weak void HAL_TIMEx_CommutCallback(TIM_HandleTypeDef *htim)
{
 8000e94:	b480      	push	{r7}
 8000e96:	b083      	sub	sp, #12
 8000e98:	af00      	add	r7, sp, #0
 8000e9a:	6078      	str	r0, [r7, #4]
  UNUSED(htim);

  /* NOTE : This function should not be modified, when the callback is needed,
            the HAL_TIMEx_CommutCallback could be implemented in the user file
   */
}
 8000e9c:	bf00      	nop
 8000e9e:	370c      	adds	r7, #12
 8000ea0:	46bd      	mov	sp, r7
 8000ea2:	f85d 7b04 	ldr.w	r7, [sp], #4
 8000ea6:	4770      	bx	lr

08000ea8 <HAL_TIMEx_BreakCallback>:
  * @brief  Hall Break detection callback in non-blocking mode
  * @param  htim TIM handle
  * @retval None
  */
__weak void HAL_TIMEx_BreakCallback(TIM_HandleTypeDef *htim)
{
 8000ea8:	b480      	push	{r7}
 8000eaa:	b083      	sub	sp, #12
 8000eac:	af00      	add	r7, sp, #0
 8000eae:	6078      	str	r0, [r7, #4]
  UNUSED(htim);

  /* NOTE : This function should not be modified, when the callback is needed,
            the HAL_TIMEx_BreakCallback could be implemented in the user file
   */
}
 8000eb0:	bf00      	nop
 8000eb2:	370c      	adds	r7, #12
 8000eb4:	46bd      	mov	sp, r7
 8000eb6:	f85d 7b04 	ldr.w	r7, [sp], #4
 8000eba:	4770      	bx	lr

08000ebc <__libc_init_array>:
 8000ebc:	b570      	push	{r4, r5, r6, lr}
 8000ebe:	4e0d      	ldr	r6, [pc, #52]	; (8000ef4 <__libc_init_array+0x38>)
 8000ec0:	4c0d      	ldr	r4, [pc, #52]	; (8000ef8 <__libc_init_array+0x3c>)
 8000ec2:	1ba4      	subs	r4, r4, r6
 8000ec4:	10a4      	asrs	r4, r4, #2
 8000ec6:	2500      	movs	r5, #0
 8000ec8:	42a5      	cmp	r5, r4
 8000eca:	d109      	bne.n	8000ee0 <__libc_init_array+0x24>
 8000ecc:	4e0b      	ldr	r6, [pc, #44]	; (8000efc <__libc_init_array+0x40>)
 8000ece:	4c0c      	ldr	r4, [pc, #48]	; (8000f00 <__libc_init_array+0x44>)
 8000ed0:	f000 f818 	bl	8000f04 <_init>
 8000ed4:	1ba4      	subs	r4, r4, r6
 8000ed6:	10a4      	asrs	r4, r4, #2
 8000ed8:	2500      	movs	r5, #0
 8000eda:	42a5      	cmp	r5, r4
 8000edc:	d105      	bne.n	8000eea <__libc_init_array+0x2e>
 8000ede:	bd70      	pop	{r4, r5, r6, pc}
 8000ee0:	f856 3025 	ldr.w	r3, [r6, r5, lsl #2]
 8000ee4:	4798      	blx	r3
 8000ee6:	3501      	adds	r5, #1
 8000ee8:	e7ee      	b.n	8000ec8 <__libc_init_array+0xc>
 8000eea:	f856 3025 	ldr.w	r3, [r6, r5, lsl #2]
 8000eee:	4798      	blx	r3
 8000ef0:	3501      	adds	r5, #1
 8000ef2:	e7f2      	b.n	8000eda <__libc_init_array+0x1e>
 8000ef4:	08000f1c 	.word	0x08000f1c
 8000ef8:	08000f1c 	.word	0x08000f1c
 8000efc:	08000f1c 	.word	0x08000f1c
 8000f00:	08000f20 	.word	0x08000f20

08000f04 <_init>:
 8000f04:	b5f8      	push	{r3, r4, r5, r6, r7, lr}
 8000f06:	bf00      	nop
 8000f08:	bcf8      	pop	{r3, r4, r5, r6, r7}
 8000f0a:	bc08      	pop	{r3}
 8000f0c:	469e      	mov	lr, r3
 8000f0e:	4770      	bx	lr

08000f10 <_fini>:
 8000f10:	b5f8      	push	{r3, r4, r5, r6, r7, lr}
 8000f12:	bf00      	nop
 8000f14:	bcf8      	pop	{r3, r4, r5, r6, r7}
 8000f16:	bc08      	pop	{r3}
 8000f18:	469e      	mov	lr, r3
 8000f1a:	4770      	bx	lr
