
001.elf:     file format elf32-littlearm

Sections:
Idx Name          Size      VMA       LMA       File off  Algn
  0 .isr_vector   00000188  08000000  08000000  00010000  2**0
                  CONTENTS, ALLOC, LOAD, READONLY, DATA
  1 .text         0000828c  08000188  08000188  00010188  2**2
                  CONTENTS, ALLOC, LOAD, READONLY, CODE
  2 .rodata       0000001c  08008414  08008414  00018414  2**2
                  CONTENTS, ALLOC, LOAD, READONLY, DATA
  3 .ARM.extab    00000000  08008430  08008430  000200a0  2**0
                  CONTENTS
  4 .ARM          00000008  08008430  08008430  00018430  2**2
                  CONTENTS, ALLOC, LOAD, READONLY, DATA
  5 .preinit_array 00000000  08008438  08008438  000200a0  2**0
                  CONTENTS, ALLOC, LOAD, DATA
  6 .init_array   00000004  08008438  08008438  00018438  2**2
                  CONTENTS, ALLOC, LOAD, DATA
  7 .fini_array   00000004  0800843c  0800843c  0001843c  2**2
                  CONTENTS, ALLOC, LOAD, DATA
  8 .data         000000a0  20000000  08008440  00020000  2**2
                  CONTENTS, ALLOC, LOAD, DATA
  9 .bss          00000808  200000a0  080084e0  000200a0  2**2
                  ALLOC
 10 ._user_heap_stack 00000600  200008a8  080084e0  000208a8  2**0
                  ALLOC
 11 .ARM.attributes 00000030  00000000  00000000  000200a0  2**0
                  CONTENTS, READONLY
 12 .debug_info   0001a542  00000000  00000000  000200d0  2**0
                  CONTENTS, READONLY, DEBUGGING
 13 .debug_abbrev 0000381c  00000000  00000000  0003a612  2**0
                  CONTENTS, READONLY, DEBUGGING
 14 .debug_aranges 000012f0  00000000  00000000  0003de30  2**3
                  CONTENTS, READONLY, DEBUGGING
 15 .debug_ranges 00001180  00000000  00000000  0003f120  2**3
                  CONTENTS, READONLY, DEBUGGING
 16 .debug_macro  00024214  00000000  00000000  000402a0  2**0
                  CONTENTS, READONLY, DEBUGGING
 17 .debug_line   00012434  00000000  00000000  000644b4  2**0
                  CONTENTS, READONLY, DEBUGGING
 18 .debug_str    000ccc45  00000000  00000000  000768e8  2**0
                  CONTENTS, READONLY, DEBUGGING
 19 .comment      0000007b  00000000  00000000  0014352d  2**0
                  CONTENTS, READONLY
 20 .debug_frame  00005078  00000000  00000000  001435a8  2**2
                  CONTENTS, READONLY, DEBUGGING

Disassembly of section .text:

08000188 <__do_global_dtors_aux>:
 8000188:	b510      	push	{r4, lr}
 800018a:	4c05      	ldr	r4, [pc, #20]	; (80001a0 <__do_global_dtors_aux+0x18>)
 800018c:	7823      	ldrb	r3, [r4, #0]
 800018e:	b933      	cbnz	r3, 800019e <__do_global_dtors_aux+0x16>
 8000190:	4b04      	ldr	r3, [pc, #16]	; (80001a4 <__do_global_dtors_aux+0x1c>)
 8000192:	b113      	cbz	r3, 800019a <__do_global_dtors_aux+0x12>
 8000194:	4804      	ldr	r0, [pc, #16]	; (80001a8 <__do_global_dtors_aux+0x20>)
 8000196:	f3af 8000 	nop.w
 800019a:	2301      	movs	r3, #1
 800019c:	7023      	strb	r3, [r4, #0]
 800019e:	bd10      	pop	{r4, pc}
 80001a0:	200000a0 	.word	0x200000a0
 80001a4:	00000000 	.word	0x00000000
 80001a8:	080083fc 	.word	0x080083fc

080001ac <frame_dummy>:
 80001ac:	b508      	push	{r3, lr}
 80001ae:	4b03      	ldr	r3, [pc, #12]	; (80001bc <frame_dummy+0x10>)
 80001b0:	b11b      	cbz	r3, 80001ba <frame_dummy+0xe>
 80001b2:	4903      	ldr	r1, [pc, #12]	; (80001c0 <frame_dummy+0x14>)
 80001b4:	4803      	ldr	r0, [pc, #12]	; (80001c4 <frame_dummy+0x18>)
 80001b6:	f3af 8000 	nop.w
 80001ba:	bd08      	pop	{r3, pc}
 80001bc:	00000000 	.word	0x00000000
 80001c0:	200000a4 	.word	0x200000a4
 80001c4:	080083fc 	.word	0x080083fc

080001c8 <strlen>:
 80001c8:	4603      	mov	r3, r0
 80001ca:	f813 2b01 	ldrb.w	r2, [r3], #1
 80001ce:	2a00      	cmp	r2, #0
 80001d0:	d1fb      	bne.n	80001ca <strlen+0x2>
 80001d2:	1a18      	subs	r0, r3, r0
 80001d4:	3801      	subs	r0, #1
 80001d6:	4770      	bx	lr

080001d8 <__aeabi_uldivmod>:
 80001d8:	b953      	cbnz	r3, 80001f0 <__aeabi_uldivmod+0x18>
 80001da:	b94a      	cbnz	r2, 80001f0 <__aeabi_uldivmod+0x18>
 80001dc:	2900      	cmp	r1, #0
 80001de:	bf08      	it	eq
 80001e0:	2800      	cmpeq	r0, #0
 80001e2:	bf1c      	itt	ne
 80001e4:	f04f 31ff 	movne.w	r1, #4294967295
 80001e8:	f04f 30ff 	movne.w	r0, #4294967295
 80001ec:	f000 b972 	b.w	80004d4 <__aeabi_idiv0>
 80001f0:	f1ad 0c08 	sub.w	ip, sp, #8
 80001f4:	e96d ce04 	strd	ip, lr, [sp, #-16]!
 80001f8:	f000 f806 	bl	8000208 <__udivmoddi4>
 80001fc:	f8dd e004 	ldr.w	lr, [sp, #4]
 8000200:	e9dd 2302 	ldrd	r2, r3, [sp, #8]
 8000204:	b004      	add	sp, #16
 8000206:	4770      	bx	lr

08000208 <__udivmoddi4>:
 8000208:	e92d 47f0 	stmdb	sp!, {r4, r5, r6, r7, r8, r9, sl, lr}
 800020c:	9e08      	ldr	r6, [sp, #32]
 800020e:	4604      	mov	r4, r0
 8000210:	4688      	mov	r8, r1
 8000212:	2b00      	cmp	r3, #0
 8000214:	d14b      	bne.n	80002ae <__udivmoddi4+0xa6>
 8000216:	428a      	cmp	r2, r1
 8000218:	4615      	mov	r5, r2
 800021a:	d967      	bls.n	80002ec <__udivmoddi4+0xe4>
 800021c:	fab2 f282 	clz	r2, r2
 8000220:	b14a      	cbz	r2, 8000236 <__udivmoddi4+0x2e>
 8000222:	f1c2 0720 	rsb	r7, r2, #32
 8000226:	fa01 f302 	lsl.w	r3, r1, r2
 800022a:	fa20 f707 	lsr.w	r7, r0, r7
 800022e:	4095      	lsls	r5, r2
 8000230:	ea47 0803 	orr.w	r8, r7, r3
 8000234:	4094      	lsls	r4, r2
 8000236:	ea4f 4e15 	mov.w	lr, r5, lsr #16
 800023a:	0c23      	lsrs	r3, r4, #16
 800023c:	fbb8 f7fe 	udiv	r7, r8, lr
 8000240:	fa1f fc85 	uxth.w	ip, r5
 8000244:	fb0e 8817 	mls	r8, lr, r7, r8
 8000248:	ea43 4308 	orr.w	r3, r3, r8, lsl #16
 800024c:	fb07 f10c 	mul.w	r1, r7, ip
 8000250:	4299      	cmp	r1, r3
 8000252:	d909      	bls.n	8000268 <__udivmoddi4+0x60>
 8000254:	18eb      	adds	r3, r5, r3
 8000256:	f107 30ff 	add.w	r0, r7, #4294967295
 800025a:	f080 811b 	bcs.w	8000494 <__udivmoddi4+0x28c>
 800025e:	4299      	cmp	r1, r3
 8000260:	f240 8118 	bls.w	8000494 <__udivmoddi4+0x28c>
 8000264:	3f02      	subs	r7, #2
 8000266:	442b      	add	r3, r5
 8000268:	1a5b      	subs	r3, r3, r1
 800026a:	b2a4      	uxth	r4, r4
 800026c:	fbb3 f0fe 	udiv	r0, r3, lr
 8000270:	fb0e 3310 	mls	r3, lr, r0, r3
 8000274:	ea44 4403 	orr.w	r4, r4, r3, lsl #16
 8000278:	fb00 fc0c 	mul.w	ip, r0, ip
 800027c:	45a4      	cmp	ip, r4
 800027e:	d909      	bls.n	8000294 <__udivmoddi4+0x8c>
 8000280:	192c      	adds	r4, r5, r4
 8000282:	f100 33ff 	add.w	r3, r0, #4294967295
 8000286:	f080 8107 	bcs.w	8000498 <__udivmoddi4+0x290>
 800028a:	45a4      	cmp	ip, r4
 800028c:	f240 8104 	bls.w	8000498 <__udivmoddi4+0x290>
 8000290:	3802      	subs	r0, #2
 8000292:	442c      	add	r4, r5
 8000294:	ea40 4007 	orr.w	r0, r0, r7, lsl #16
 8000298:	eba4 040c 	sub.w	r4, r4, ip
 800029c:	2700      	movs	r7, #0
 800029e:	b11e      	cbz	r6, 80002a8 <__udivmoddi4+0xa0>
 80002a0:	40d4      	lsrs	r4, r2
 80002a2:	2300      	movs	r3, #0
 80002a4:	e9c6 4300 	strd	r4, r3, [r6]
 80002a8:	4639      	mov	r1, r7
 80002aa:	e8bd 87f0 	ldmia.w	sp!, {r4, r5, r6, r7, r8, r9, sl, pc}
 80002ae:	428b      	cmp	r3, r1
 80002b0:	d909      	bls.n	80002c6 <__udivmoddi4+0xbe>
 80002b2:	2e00      	cmp	r6, #0
 80002b4:	f000 80eb 	beq.w	800048e <__udivmoddi4+0x286>
 80002b8:	2700      	movs	r7, #0
 80002ba:	e9c6 0100 	strd	r0, r1, [r6]
 80002be:	4638      	mov	r0, r7
 80002c0:	4639      	mov	r1, r7
 80002c2:	e8bd 87f0 	ldmia.w	sp!, {r4, r5, r6, r7, r8, r9, sl, pc}
 80002c6:	fab3 f783 	clz	r7, r3
 80002ca:	2f00      	cmp	r7, #0
 80002cc:	d147      	bne.n	800035e <__udivmoddi4+0x156>
 80002ce:	428b      	cmp	r3, r1
 80002d0:	d302      	bcc.n	80002d8 <__udivmoddi4+0xd0>
 80002d2:	4282      	cmp	r2, r0
 80002d4:	f200 80fa 	bhi.w	80004cc <__udivmoddi4+0x2c4>
 80002d8:	1a84      	subs	r4, r0, r2
 80002da:	eb61 0303 	sbc.w	r3, r1, r3
 80002de:	2001      	movs	r0, #1
 80002e0:	4698      	mov	r8, r3
 80002e2:	2e00      	cmp	r6, #0
 80002e4:	d0e0      	beq.n	80002a8 <__udivmoddi4+0xa0>
 80002e6:	e9c6 4800 	strd	r4, r8, [r6]
 80002ea:	e7dd      	b.n	80002a8 <__udivmoddi4+0xa0>
 80002ec:	b902      	cbnz	r2, 80002f0 <__udivmoddi4+0xe8>
 80002ee:	deff      	udf	#255	; 0xff
 80002f0:	fab2 f282 	clz	r2, r2
 80002f4:	2a00      	cmp	r2, #0
 80002f6:	f040 808f 	bne.w	8000418 <__udivmoddi4+0x210>
 80002fa:	1b49      	subs	r1, r1, r5
 80002fc:	ea4f 4e15 	mov.w	lr, r5, lsr #16
 8000300:	fa1f f885 	uxth.w	r8, r5
 8000304:	2701      	movs	r7, #1
 8000306:	fbb1 fcfe 	udiv	ip, r1, lr
 800030a:	0c23      	lsrs	r3, r4, #16
 800030c:	fb0e 111c 	mls	r1, lr, ip, r1
 8000310:	ea43 4301 	orr.w	r3, r3, r1, lsl #16
 8000314:	fb08 f10c 	mul.w	r1, r8, ip
 8000318:	4299      	cmp	r1, r3
 800031a:	d907      	bls.n	800032c <__udivmoddi4+0x124>
 800031c:	18eb      	adds	r3, r5, r3
 800031e:	f10c 30ff 	add.w	r0, ip, #4294967295
 8000322:	d202      	bcs.n	800032a <__udivmoddi4+0x122>
 8000324:	4299      	cmp	r1, r3
 8000326:	f200 80cd 	bhi.w	80004c4 <__udivmoddi4+0x2bc>
 800032a:	4684      	mov	ip, r0
 800032c:	1a59      	subs	r1, r3, r1
 800032e:	b2a3      	uxth	r3, r4
 8000330:	fbb1 f0fe 	udiv	r0, r1, lr
 8000334:	fb0e 1410 	mls	r4, lr, r0, r1
 8000338:	ea43 4404 	orr.w	r4, r3, r4, lsl #16
 800033c:	fb08 f800 	mul.w	r8, r8, r0
 8000340:	45a0      	cmp	r8, r4
 8000342:	d907      	bls.n	8000354 <__udivmoddi4+0x14c>
 8000344:	192c      	adds	r4, r5, r4
 8000346:	f100 33ff 	add.w	r3, r0, #4294967295
 800034a:	d202      	bcs.n	8000352 <__udivmoddi4+0x14a>
 800034c:	45a0      	cmp	r8, r4
 800034e:	f200 80b6 	bhi.w	80004be <__udivmoddi4+0x2b6>
 8000352:	4618      	mov	r0, r3
 8000354:	eba4 0408 	sub.w	r4, r4, r8
 8000358:	ea40 400c 	orr.w	r0, r0, ip, lsl #16
 800035c:	e79f      	b.n	800029e <__udivmoddi4+0x96>
 800035e:	f1c7 0c20 	rsb	ip, r7, #32
 8000362:	40bb      	lsls	r3, r7
 8000364:	fa22 fe0c 	lsr.w	lr, r2, ip
 8000368:	ea4e 0e03 	orr.w	lr, lr, r3
 800036c:	fa01 f407 	lsl.w	r4, r1, r7
 8000370:	fa20 f50c 	lsr.w	r5, r0, ip
 8000374:	fa21 f30c 	lsr.w	r3, r1, ip
 8000378:	ea4f 481e 	mov.w	r8, lr, lsr #16
 800037c:	4325      	orrs	r5, r4
 800037e:	fbb3 f9f8 	udiv	r9, r3, r8
 8000382:	0c2c      	lsrs	r4, r5, #16
 8000384:	fb08 3319 	mls	r3, r8, r9, r3
 8000388:	fa1f fa8e 	uxth.w	sl, lr
 800038c:	ea44 4303 	orr.w	r3, r4, r3, lsl #16
 8000390:	fb09 f40a 	mul.w	r4, r9, sl
 8000394:	429c      	cmp	r4, r3
 8000396:	fa02 f207 	lsl.w	r2, r2, r7
 800039a:	fa00 f107 	lsl.w	r1, r0, r7
 800039e:	d90b      	bls.n	80003b8 <__udivmoddi4+0x1b0>
 80003a0:	eb1e 0303 	adds.w	r3, lr, r3
 80003a4:	f109 30ff 	add.w	r0, r9, #4294967295
 80003a8:	f080 8087 	bcs.w	80004ba <__udivmoddi4+0x2b2>
 80003ac:	429c      	cmp	r4, r3
 80003ae:	f240 8084 	bls.w	80004ba <__udivmoddi4+0x2b2>
 80003b2:	f1a9 0902 	sub.w	r9, r9, #2
 80003b6:	4473      	add	r3, lr
 80003b8:	1b1b      	subs	r3, r3, r4
 80003ba:	b2ad      	uxth	r5, r5
 80003bc:	fbb3 f0f8 	udiv	r0, r3, r8
 80003c0:	fb08 3310 	mls	r3, r8, r0, r3
 80003c4:	ea45 4403 	orr.w	r4, r5, r3, lsl #16
 80003c8:	fb00 fa0a 	mul.w	sl, r0, sl
 80003cc:	45a2      	cmp	sl, r4
 80003ce:	d908      	bls.n	80003e2 <__udivmoddi4+0x1da>
 80003d0:	eb1e 0404 	adds.w	r4, lr, r4
 80003d4:	f100 33ff 	add.w	r3, r0, #4294967295
 80003d8:	d26b      	bcs.n	80004b2 <__udivmoddi4+0x2aa>
 80003da:	45a2      	cmp	sl, r4
 80003dc:	d969      	bls.n	80004b2 <__udivmoddi4+0x2aa>
 80003de:	3802      	subs	r0, #2
 80003e0:	4474      	add	r4, lr
 80003e2:	ea40 4009 	orr.w	r0, r0, r9, lsl #16
 80003e6:	fba0 8902 	umull	r8, r9, r0, r2
 80003ea:	eba4 040a 	sub.w	r4, r4, sl
 80003ee:	454c      	cmp	r4, r9
 80003f0:	46c2      	mov	sl, r8
 80003f2:	464b      	mov	r3, r9
 80003f4:	d354      	bcc.n	80004a0 <__udivmoddi4+0x298>
 80003f6:	d051      	beq.n	800049c <__udivmoddi4+0x294>
 80003f8:	2e00      	cmp	r6, #0
 80003fa:	d069      	beq.n	80004d0 <__udivmoddi4+0x2c8>
 80003fc:	ebb1 050a 	subs.w	r5, r1, sl
 8000400:	eb64 0403 	sbc.w	r4, r4, r3
 8000404:	fa04 fc0c 	lsl.w	ip, r4, ip
 8000408:	40fd      	lsrs	r5, r7
 800040a:	40fc      	lsrs	r4, r7
 800040c:	ea4c 0505 	orr.w	r5, ip, r5
 8000410:	e9c6 5400 	strd	r5, r4, [r6]
 8000414:	2700      	movs	r7, #0
 8000416:	e747      	b.n	80002a8 <__udivmoddi4+0xa0>
 8000418:	f1c2 0320 	rsb	r3, r2, #32
 800041c:	fa20 f703 	lsr.w	r7, r0, r3
 8000420:	4095      	lsls	r5, r2
 8000422:	fa01 f002 	lsl.w	r0, r1, r2
 8000426:	fa21 f303 	lsr.w	r3, r1, r3
 800042a:	ea4f 4e15 	mov.w	lr, r5, lsr #16
 800042e:	4338      	orrs	r0, r7
 8000430:	0c01      	lsrs	r1, r0, #16
 8000432:	fbb3 f7fe 	udiv	r7, r3, lr
 8000436:	fa1f f885 	uxth.w	r8, r5
 800043a:	fb0e 3317 	mls	r3, lr, r7, r3
 800043e:	ea41 4103 	orr.w	r1, r1, r3, lsl #16
 8000442:	fb07 f308 	mul.w	r3, r7, r8
 8000446:	428b      	cmp	r3, r1
 8000448:	fa04 f402 	lsl.w	r4, r4, r2
 800044c:	d907      	bls.n	800045e <__udivmoddi4+0x256>
 800044e:	1869      	adds	r1, r5, r1
 8000450:	f107 3cff 	add.w	ip, r7, #4294967295
 8000454:	d22f      	bcs.n	80004b6 <__udivmoddi4+0x2ae>
 8000456:	428b      	cmp	r3, r1
 8000458:	d92d      	bls.n	80004b6 <__udivmoddi4+0x2ae>
 800045a:	3f02      	subs	r7, #2
 800045c:	4429      	add	r1, r5
 800045e:	1acb      	subs	r3, r1, r3
 8000460:	b281      	uxth	r1, r0
 8000462:	fbb3 f0fe 	udiv	r0, r3, lr
 8000466:	fb0e 3310 	mls	r3, lr, r0, r3
 800046a:	ea41 4103 	orr.w	r1, r1, r3, lsl #16
 800046e:	fb00 f308 	mul.w	r3, r0, r8
 8000472:	428b      	cmp	r3, r1
 8000474:	d907      	bls.n	8000486 <__udivmoddi4+0x27e>
 8000476:	1869      	adds	r1, r5, r1
 8000478:	f100 3cff 	add.w	ip, r0, #4294967295
 800047c:	d217      	bcs.n	80004ae <__udivmoddi4+0x2a6>
 800047e:	428b      	cmp	r3, r1
 8000480:	d915      	bls.n	80004ae <__udivmoddi4+0x2a6>
 8000482:	3802      	subs	r0, #2
 8000484:	4429      	add	r1, r5
 8000486:	1ac9      	subs	r1, r1, r3
 8000488:	ea40 4707 	orr.w	r7, r0, r7, lsl #16
 800048c:	e73b      	b.n	8000306 <__udivmoddi4+0xfe>
 800048e:	4637      	mov	r7, r6
 8000490:	4630      	mov	r0, r6
 8000492:	e709      	b.n	80002a8 <__udivmoddi4+0xa0>
 8000494:	4607      	mov	r7, r0
 8000496:	e6e7      	b.n	8000268 <__udivmoddi4+0x60>
 8000498:	4618      	mov	r0, r3
 800049a:	e6fb      	b.n	8000294 <__udivmoddi4+0x8c>
 800049c:	4541      	cmp	r1, r8
 800049e:	d2ab      	bcs.n	80003f8 <__udivmoddi4+0x1f0>
 80004a0:	ebb8 0a02 	subs.w	sl, r8, r2
 80004a4:	eb69 020e 	sbc.w	r2, r9, lr
 80004a8:	3801      	subs	r0, #1
 80004aa:	4613      	mov	r3, r2
 80004ac:	e7a4      	b.n	80003f8 <__udivmoddi4+0x1f0>
 80004ae:	4660      	mov	r0, ip
 80004b0:	e7e9      	b.n	8000486 <__udivmoddi4+0x27e>
 80004b2:	4618      	mov	r0, r3
 80004b4:	e795      	b.n	80003e2 <__udivmoddi4+0x1da>
 80004b6:	4667      	mov	r7, ip
 80004b8:	e7d1      	b.n	800045e <__udivmoddi4+0x256>
 80004ba:	4681      	mov	r9, r0
 80004bc:	e77c      	b.n	80003b8 <__udivmoddi4+0x1b0>
 80004be:	3802      	subs	r0, #2
 80004c0:	442c      	add	r4, r5
 80004c2:	e747      	b.n	8000354 <__udivmoddi4+0x14c>
 80004c4:	f1ac 0c02 	sub.w	ip, ip, #2
 80004c8:	442b      	add	r3, r5
 80004ca:	e72f      	b.n	800032c <__udivmoddi4+0x124>
 80004cc:	4638      	mov	r0, r7
 80004ce:	e708      	b.n	80002e2 <__udivmoddi4+0xda>
 80004d0:	4637      	mov	r7, r6
 80004d2:	e6e9      	b.n	80002a8 <__udivmoddi4+0xa0>

080004d4 <__aeabi_idiv0>:
 80004d4:	4770      	bx	lr
 80004d6:	bf00      	nop

080004d8 <main>:
/**
  * @brief  The application entry point.
  * @retval int
  */
int main(void)
{
 80004d8:	b580      	push	{r7, lr}
 80004da:	af00      	add	r7, sp, #0
  /* USER CODE END 1 */

  /* MCU Configuration--------------------------------------------------------*/

  /* Reset of all peripherals, Initializes the Flash interface and the Systick. */
  HAL_Init();
 80004dc:	f000 fc72 	bl	8000dc4 <HAL_Init>
  /* USER CODE BEGIN Init */

  /* USER CODE END Init */

  /* Configure the system clock */
  SystemClock_Config();
 80004e0:	f000 f81e 	bl	8000520 <SystemClock_Config>
  /* USER CODE BEGIN SysInit */

  /* USER CODE END SysInit */

  /* Initialize all configured peripherals */
  MX_GPIO_Init();
 80004e4:	f000 f95c 	bl	80007a0 <MX_GPIO_Init>
  MX_I2C1_Init();
 80004e8:	f000 f89c 	bl	8000624 <MX_I2C1_Init>
  MX_I2S3_Init();
 80004ec:	f000 f8c8 	bl	8000680 <MX_I2S3_Init>
  MX_SPI1_Init();
 80004f0:	f000 f8f6 	bl	80006e0 <MX_SPI1_Init>
  MX_USB_HOST_Init();
 80004f4:	f007 fb7e 	bl	8007bf4 <MX_USB_HOST_Init>
  MX_USART2_UART_Init();
 80004f8:	f000 f928 	bl	800074c <MX_USART2_UART_Init>
  /* USER CODE BEGIN 2 */
  HAL_UART_Transmit(&huart2, (uint8_t *)user_data, strlen(user_data), HAL_MAX_DELAY);
 80004fc:	4806      	ldr	r0, [pc, #24]	; (8000518 <main+0x40>)
 80004fe:	f7ff fe63 	bl	80001c8 <strlen>
 8000502:	4603      	mov	r3, r0
 8000504:	b29a      	uxth	r2, r3
 8000506:	f04f 33ff 	mov.w	r3, #4294967295
 800050a:	4903      	ldr	r1, [pc, #12]	; (8000518 <main+0x40>)
 800050c:	4803      	ldr	r0, [pc, #12]	; (800051c <main+0x44>)
 800050e:	f004 f8cc 	bl	80046aa <HAL_UART_Transmit>
  /* Infinite loop */
  /* USER CODE BEGIN WHILE */
  while (1)
  {
    /* USER CODE END WHILE */
    MX_USB_HOST_Process();
 8000512:	f007 fb95 	bl	8007c40 <MX_USB_HOST_Process>
 8000516:	e7fc      	b.n	8000512 <main+0x3a>
 8000518:	20000000 	.word	0x20000000
 800051c:	2000017c 	.word	0x2000017c

08000520 <SystemClock_Config>:
/**
  * @brief System Clock Configuration
  * @retval None
  */
void SystemClock_Config(void)
{
 8000520:	b580      	push	{r7, lr}
 8000522:	b098      	sub	sp, #96	; 0x60
 8000524:	af00      	add	r7, sp, #0
  RCC_OscInitTypeDef RCC_OscInitStruct = {0};
 8000526:	f107 0330 	add.w	r3, r7, #48	; 0x30
 800052a:	2230      	movs	r2, #48	; 0x30
 800052c:	2100      	movs	r1, #0
 800052e:	4618      	mov	r0, r3
 8000530:	f007 fea2 	bl	8008278 <memset>
  RCC_ClkInitTypeDef RCC_ClkInitStruct = {0};
 8000534:	f107 031c 	add.w	r3, r7, #28
 8000538:	2200      	movs	r2, #0
 800053a:	601a      	str	r2, [r3, #0]
 800053c:	605a      	str	r2, [r3, #4]
 800053e:	609a      	str	r2, [r3, #8]
 8000540:	60da      	str	r2, [r3, #12]
 8000542:	611a      	str	r2, [r3, #16]
  RCC_PeriphCLKInitTypeDef PeriphClkInitStruct = {0};
 8000544:	f107 030c 	add.w	r3, r7, #12
 8000548:	2200      	movs	r2, #0
 800054a:	601a      	str	r2, [r3, #0]
 800054c:	605a      	str	r2, [r3, #4]
 800054e:	609a      	str	r2, [r3, #8]
 8000550:	60da      	str	r2, [r3, #12]

  /** Configure the main internal regulator output voltage 
  */
  __HAL_RCC_PWR_CLK_ENABLE();
 8000552:	2300      	movs	r3, #0
 8000554:	60bb      	str	r3, [r7, #8]
 8000556:	4b31      	ldr	r3, [pc, #196]	; (800061c <SystemClock_Config+0xfc>)
 8000558:	6c1b      	ldr	r3, [r3, #64]	; 0x40
 800055a:	4a30      	ldr	r2, [pc, #192]	; (800061c <SystemClock_Config+0xfc>)
 800055c:	f043 5380 	orr.w	r3, r3, #268435456	; 0x10000000
 8000560:	6413      	str	r3, [r2, #64]	; 0x40
 8000562:	4b2e      	ldr	r3, [pc, #184]	; (800061c <SystemClock_Config+0xfc>)
 8000564:	6c1b      	ldr	r3, [r3, #64]	; 0x40
 8000566:	f003 5380 	and.w	r3, r3, #268435456	; 0x10000000
 800056a:	60bb      	str	r3, [r7, #8]
 800056c:	68bb      	ldr	r3, [r7, #8]
  __HAL_PWR_VOLTAGESCALING_CONFIG(PWR_REGULATOR_VOLTAGE_SCALE1);
 800056e:	2300      	movs	r3, #0
 8000570:	607b      	str	r3, [r7, #4]
 8000572:	4b2b      	ldr	r3, [pc, #172]	; (8000620 <SystemClock_Config+0x100>)
 8000574:	681b      	ldr	r3, [r3, #0]
 8000576:	4a2a      	ldr	r2, [pc, #168]	; (8000620 <SystemClock_Config+0x100>)
 8000578:	f443 4380 	orr.w	r3, r3, #16384	; 0x4000
 800057c:	6013      	str	r3, [r2, #0]
 800057e:	4b28      	ldr	r3, [pc, #160]	; (8000620 <SystemClock_Config+0x100>)
 8000580:	681b      	ldr	r3, [r3, #0]
 8000582:	f403 4380 	and.w	r3, r3, #16384	; 0x4000
 8000586:	607b      	str	r3, [r7, #4]
 8000588:	687b      	ldr	r3, [r7, #4]
  /** Initializes the CPU, AHB and APB busses clocks 
  */
  RCC_OscInitStruct.OscillatorType = RCC_OSCILLATORTYPE_HSE;
 800058a:	2301      	movs	r3, #1
 800058c:	633b      	str	r3, [r7, #48]	; 0x30
  RCC_OscInitStruct.HSEState = RCC_HSE_ON;
 800058e:	f44f 3380 	mov.w	r3, #65536	; 0x10000
 8000592:	637b      	str	r3, [r7, #52]	; 0x34
  RCC_OscInitStruct.PLL.PLLState = RCC_PLL_ON;
 8000594:	2302      	movs	r3, #2
 8000596:	64bb      	str	r3, [r7, #72]	; 0x48
  RCC_OscInitStruct.PLL.PLLSource = RCC_PLLSOURCE_HSE;
 8000598:	f44f 0380 	mov.w	r3, #4194304	; 0x400000
 800059c:	64fb      	str	r3, [r7, #76]	; 0x4c
  RCC_OscInitStruct.PLL.PLLM = 8;
 800059e:	2308      	movs	r3, #8
 80005a0:	653b      	str	r3, [r7, #80]	; 0x50
  RCC_OscInitStruct.PLL.PLLN = 336;
 80005a2:	f44f 73a8 	mov.w	r3, #336	; 0x150
 80005a6:	657b      	str	r3, [r7, #84]	; 0x54
  RCC_OscInitStruct.PLL.PLLP = RCC_PLLP_DIV2;
 80005a8:	2302      	movs	r3, #2
 80005aa:	65bb      	str	r3, [r7, #88]	; 0x58
  RCC_OscInitStruct.PLL.PLLQ = 7;
 80005ac:	2307      	movs	r3, #7
 80005ae:	65fb      	str	r3, [r7, #92]	; 0x5c
  if (HAL_RCC_OscConfig(&RCC_OscInitStruct) != HAL_OK)
 80005b0:	f107 0330 	add.w	r3, r7, #48	; 0x30
 80005b4:	4618      	mov	r0, r3
 80005b6:	f003 fa27 	bl	8003a08 <HAL_RCC_OscConfig>
 80005ba:	4603      	mov	r3, r0
 80005bc:	2b00      	cmp	r3, #0
 80005be:	d001      	beq.n	80005c4 <SystemClock_Config+0xa4>
  {
    Error_Handler();
 80005c0:	f000 f9ec 	bl	800099c <Error_Handler>
  }
  /** Initializes the CPU, AHB and APB busses clocks 
  */
  RCC_ClkInitStruct.ClockType = RCC_CLOCKTYPE_HCLK|RCC_CLOCKTYPE_SYSCLK
 80005c4:	230f      	movs	r3, #15
 80005c6:	61fb      	str	r3, [r7, #28]
                              |RCC_CLOCKTYPE_PCLK1|RCC_CLOCKTYPE_PCLK2;
  RCC_ClkInitStruct.SYSCLKSource = RCC_SYSCLKSOURCE_PLLCLK;
 80005c8:	2302      	movs	r3, #2
 80005ca:	623b      	str	r3, [r7, #32]
  RCC_ClkInitStruct.AHBCLKDivider = RCC_SYSCLK_DIV1;
 80005cc:	2300      	movs	r3, #0
 80005ce:	627b      	str	r3, [r7, #36]	; 0x24
  RCC_ClkInitStruct.APB1CLKDivider = RCC_HCLK_DIV4;
 80005d0:	f44f 53a0 	mov.w	r3, #5120	; 0x1400
 80005d4:	62bb      	str	r3, [r7, #40]	; 0x28
  RCC_ClkInitStruct.APB2CLKDivider = RCC_HCLK_DIV2;
 80005d6:	f44f 5380 	mov.w	r3, #4096	; 0x1000
 80005da:	62fb      	str	r3, [r7, #44]	; 0x2c

  if (HAL_RCC_ClockConfig(&RCC_ClkInitStruct, FLASH_LATENCY_5) != HAL_OK)
 80005dc:	f107 031c 	add.w	r3, r7, #28
 80005e0:	2105      	movs	r1, #5
 80005e2:	4618      	mov	r0, r3
 80005e4:	f003 fc80 	bl	8003ee8 <HAL_RCC_ClockConfig>
 80005e8:	4603      	mov	r3, r0
 80005ea:	2b00      	cmp	r3, #0
 80005ec:	d001      	beq.n	80005f2 <SystemClock_Config+0xd2>
  {
    Error_Handler();
 80005ee:	f000 f9d5 	bl	800099c <Error_Handler>
  }
  PeriphClkInitStruct.PeriphClockSelection = RCC_PERIPHCLK_I2S;
 80005f2:	2301      	movs	r3, #1
 80005f4:	60fb      	str	r3, [r7, #12]
  PeriphClkInitStruct.PLLI2S.PLLI2SN = 192;
 80005f6:	23c0      	movs	r3, #192	; 0xc0
 80005f8:	613b      	str	r3, [r7, #16]
  PeriphClkInitStruct.PLLI2S.PLLI2SR = 2;
 80005fa:	2302      	movs	r3, #2
 80005fc:	617b      	str	r3, [r7, #20]
  if (HAL_RCCEx_PeriphCLKConfig(&PeriphClkInitStruct) != HAL_OK)
 80005fe:	f107 030c 	add.w	r3, r7, #12
 8000602:	4618      	mov	r0, r3
 8000604:	f003 fe62 	bl	80042cc <HAL_RCCEx_PeriphCLKConfig>
 8000608:	4603      	mov	r3, r0
 800060a:	2b00      	cmp	r3, #0
 800060c:	d001      	beq.n	8000612 <SystemClock_Config+0xf2>
  {
    Error_Handler();
 800060e:	f000 f9c5 	bl	800099c <Error_Handler>
  }
}
 8000612:	bf00      	nop
 8000614:	3760      	adds	r7, #96	; 0x60
 8000616:	46bd      	mov	sp, r7
 8000618:	bd80      	pop	{r7, pc}
 800061a:	bf00      	nop
 800061c:	40023800 	.word	0x40023800
 8000620:	40007000 	.word	0x40007000

08000624 <MX_I2C1_Init>:
  * @brief I2C1 Initialization Function
  * @param None
  * @retval None
  */
static void MX_I2C1_Init(void)
{
 8000624:	b580      	push	{r7, lr}
 8000626:	af00      	add	r7, sp, #0
  /* USER CODE END I2C1_Init 0 */

  /* USER CODE BEGIN I2C1_Init 1 */

  /* USER CODE END I2C1_Init 1 */
  hi2c1.Instance = I2C1;
 8000628:	4b12      	ldr	r3, [pc, #72]	; (8000674 <MX_I2C1_Init+0x50>)
 800062a:	4a13      	ldr	r2, [pc, #76]	; (8000678 <MX_I2C1_Init+0x54>)
 800062c:	601a      	str	r2, [r3, #0]
  hi2c1.Init.ClockSpeed = 100000;
 800062e:	4b11      	ldr	r3, [pc, #68]	; (8000674 <MX_I2C1_Init+0x50>)
 8000630:	4a12      	ldr	r2, [pc, #72]	; (800067c <MX_I2C1_Init+0x58>)
 8000632:	605a      	str	r2, [r3, #4]
  hi2c1.Init.DutyCycle = I2C_DUTYCYCLE_2;
 8000634:	4b0f      	ldr	r3, [pc, #60]	; (8000674 <MX_I2C1_Init+0x50>)
 8000636:	2200      	movs	r2, #0
 8000638:	609a      	str	r2, [r3, #8]
  hi2c1.Init.OwnAddress1 = 0;
 800063a:	4b0e      	ldr	r3, [pc, #56]	; (8000674 <MX_I2C1_Init+0x50>)
 800063c:	2200      	movs	r2, #0
 800063e:	60da      	str	r2, [r3, #12]
  hi2c1.Init.AddressingMode = I2C_ADDRESSINGMODE_7BIT;
 8000640:	4b0c      	ldr	r3, [pc, #48]	; (8000674 <MX_I2C1_Init+0x50>)
 8000642:	f44f 4280 	mov.w	r2, #16384	; 0x4000
 8000646:	611a      	str	r2, [r3, #16]
  hi2c1.Init.DualAddressMode = I2C_DUALADDRESS_DISABLE;
 8000648:	4b0a      	ldr	r3, [pc, #40]	; (8000674 <MX_I2C1_Init+0x50>)
 800064a:	2200      	movs	r2, #0
 800064c:	615a      	str	r2, [r3, #20]
  hi2c1.Init.OwnAddress2 = 0;
 800064e:	4b09      	ldr	r3, [pc, #36]	; (8000674 <MX_I2C1_Init+0x50>)
 8000650:	2200      	movs	r2, #0
 8000652:	619a      	str	r2, [r3, #24]
  hi2c1.Init.GeneralCallMode = I2C_GENERALCALL_DISABLE;
 8000654:	4b07      	ldr	r3, [pc, #28]	; (8000674 <MX_I2C1_Init+0x50>)
 8000656:	2200      	movs	r2, #0
 8000658:	61da      	str	r2, [r3, #28]
  hi2c1.Init.NoStretchMode = I2C_NOSTRETCH_DISABLE;
 800065a:	4b06      	ldr	r3, [pc, #24]	; (8000674 <MX_I2C1_Init+0x50>)
 800065c:	2200      	movs	r2, #0
 800065e:	621a      	str	r2, [r3, #32]
  if (HAL_I2C_Init(&hi2c1) != HAL_OK)
 8000660:	4804      	ldr	r0, [pc, #16]	; (8000674 <MX_I2C1_Init+0x50>)
 8000662:	f002 fbf9 	bl	8002e58 <HAL_I2C_Init>
 8000666:	4603      	mov	r3, r0
 8000668:	2b00      	cmp	r3, #0
 800066a:	d001      	beq.n	8000670 <MX_I2C1_Init+0x4c>
  {
    Error_Handler();
 800066c:	f000 f996 	bl	800099c <Error_Handler>
  }
  /* USER CODE BEGIN I2C1_Init 2 */

  /* USER CODE END I2C1_Init 2 */

}
 8000670:	bf00      	nop
 8000672:	bd80      	pop	{r7, pc}
 8000674:	200000d0 	.word	0x200000d0
 8000678:	40005400 	.word	0x40005400
 800067c:	000186a0 	.word	0x000186a0

08000680 <MX_I2S3_Init>:
  * @brief I2S3 Initialization Function
  * @param None
  * @retval None
  */
static void MX_I2S3_Init(void)
{
 8000680:	b580      	push	{r7, lr}
 8000682:	af00      	add	r7, sp, #0
  /* USER CODE END I2S3_Init 0 */

  /* USER CODE BEGIN I2S3_Init 1 */

  /* USER CODE END I2S3_Init 1 */
  hi2s3.Instance = SPI3;
 8000684:	4b13      	ldr	r3, [pc, #76]	; (80006d4 <MX_I2S3_Init+0x54>)
 8000686:	4a14      	ldr	r2, [pc, #80]	; (80006d8 <MX_I2S3_Init+0x58>)
 8000688:	601a      	str	r2, [r3, #0]
  hi2s3.Init.Mode = I2S_MODE_MASTER_TX;
 800068a:	4b12      	ldr	r3, [pc, #72]	; (80006d4 <MX_I2S3_Init+0x54>)
 800068c:	f44f 7200 	mov.w	r2, #512	; 0x200
 8000690:	605a      	str	r2, [r3, #4]
  hi2s3.Init.Standard = I2S_STANDARD_PHILIPS;
 8000692:	4b10      	ldr	r3, [pc, #64]	; (80006d4 <MX_I2S3_Init+0x54>)
 8000694:	2200      	movs	r2, #0
 8000696:	609a      	str	r2, [r3, #8]
  hi2s3.Init.DataFormat = I2S_DATAFORMAT_16B;
 8000698:	4b0e      	ldr	r3, [pc, #56]	; (80006d4 <MX_I2S3_Init+0x54>)
 800069a:	2200      	movs	r2, #0
 800069c:	60da      	str	r2, [r3, #12]
  hi2s3.Init.MCLKOutput = I2S_MCLKOUTPUT_ENABLE;
 800069e:	4b0d      	ldr	r3, [pc, #52]	; (80006d4 <MX_I2S3_Init+0x54>)
 80006a0:	f44f 7200 	mov.w	r2, #512	; 0x200
 80006a4:	611a      	str	r2, [r3, #16]
  hi2s3.Init.AudioFreq = I2S_AUDIOFREQ_96K;
 80006a6:	4b0b      	ldr	r3, [pc, #44]	; (80006d4 <MX_I2S3_Init+0x54>)
 80006a8:	4a0c      	ldr	r2, [pc, #48]	; (80006dc <MX_I2S3_Init+0x5c>)
 80006aa:	615a      	str	r2, [r3, #20]
  hi2s3.Init.CPOL = I2S_CPOL_LOW;
 80006ac:	4b09      	ldr	r3, [pc, #36]	; (80006d4 <MX_I2S3_Init+0x54>)
 80006ae:	2200      	movs	r2, #0
 80006b0:	619a      	str	r2, [r3, #24]
  hi2s3.Init.ClockSource = I2S_CLOCK_PLL;
 80006b2:	4b08      	ldr	r3, [pc, #32]	; (80006d4 <MX_I2S3_Init+0x54>)
 80006b4:	2200      	movs	r2, #0
 80006b6:	61da      	str	r2, [r3, #28]
  hi2s3.Init.FullDuplexMode = I2S_FULLDUPLEXMODE_DISABLE;
 80006b8:	4b06      	ldr	r3, [pc, #24]	; (80006d4 <MX_I2S3_Init+0x54>)
 80006ba:	2200      	movs	r2, #0
 80006bc:	621a      	str	r2, [r3, #32]
  if (HAL_I2S_Init(&hi2s3) != HAL_OK)
 80006be:	4805      	ldr	r0, [pc, #20]	; (80006d4 <MX_I2S3_Init+0x54>)
 80006c0:	f002 fd02 	bl	80030c8 <HAL_I2S_Init>
 80006c4:	4603      	mov	r3, r0
 80006c6:	2b00      	cmp	r3, #0
 80006c8:	d001      	beq.n	80006ce <MX_I2S3_Init+0x4e>
  {
    Error_Handler();
 80006ca:	f000 f967 	bl	800099c <Error_Handler>
  }
  /* USER CODE BEGIN I2S3_Init 2 */

  /* USER CODE END I2S3_Init 2 */

}
 80006ce:	bf00      	nop
 80006d0:	bd80      	pop	{r7, pc}
 80006d2:	bf00      	nop
 80006d4:	200001bc 	.word	0x200001bc
 80006d8:	40003c00 	.word	0x40003c00
 80006dc:	00017700 	.word	0x00017700

080006e0 <MX_SPI1_Init>:
  * @brief SPI1 Initialization Function
  * @param None
  * @retval None
  */
static void MX_SPI1_Init(void)
{
 80006e0:	b580      	push	{r7, lr}
 80006e2:	af00      	add	r7, sp, #0

  /* USER CODE BEGIN SPI1_Init 1 */

  /* USER CODE END SPI1_Init 1 */
  /* SPI1 parameter configuration*/
  hspi1.Instance = SPI1;
 80006e4:	4b17      	ldr	r3, [pc, #92]	; (8000744 <MX_SPI1_Init+0x64>)
 80006e6:	4a18      	ldr	r2, [pc, #96]	; (8000748 <MX_SPI1_Init+0x68>)
 80006e8:	601a      	str	r2, [r3, #0]
  hspi1.Init.Mode = SPI_MODE_MASTER;
 80006ea:	4b16      	ldr	r3, [pc, #88]	; (8000744 <MX_SPI1_Init+0x64>)
 80006ec:	f44f 7282 	mov.w	r2, #260	; 0x104
 80006f0:	605a      	str	r2, [r3, #4]
  hspi1.Init.Direction = SPI_DIRECTION_2LINES;
 80006f2:	4b14      	ldr	r3, [pc, #80]	; (8000744 <MX_SPI1_Init+0x64>)
 80006f4:	2200      	movs	r2, #0
 80006f6:	609a      	str	r2, [r3, #8]
  hspi1.Init.DataSize = SPI_DATASIZE_8BIT;
 80006f8:	4b12      	ldr	r3, [pc, #72]	; (8000744 <MX_SPI1_Init+0x64>)
 80006fa:	2200      	movs	r2, #0
 80006fc:	60da      	str	r2, [r3, #12]
  hspi1.Init.CLKPolarity = SPI_POLARITY_LOW;
 80006fe:	4b11      	ldr	r3, [pc, #68]	; (8000744 <MX_SPI1_Init+0x64>)
 8000700:	2200      	movs	r2, #0
 8000702:	611a      	str	r2, [r3, #16]
  hspi1.Init.CLKPhase = SPI_PHASE_1EDGE;
 8000704:	4b0f      	ldr	r3, [pc, #60]	; (8000744 <MX_SPI1_Init+0x64>)
 8000706:	2200      	movs	r2, #0
 8000708:	615a      	str	r2, [r3, #20]
  hspi1.Init.NSS = SPI_NSS_SOFT;
 800070a:	4b0e      	ldr	r3, [pc, #56]	; (8000744 <MX_SPI1_Init+0x64>)
 800070c:	f44f 7200 	mov.w	r2, #512	; 0x200
 8000710:	619a      	str	r2, [r3, #24]
  hspi1.Init.BaudRatePrescaler = SPI_BAUDRATEPRESCALER_2;
 8000712:	4b0c      	ldr	r3, [pc, #48]	; (8000744 <MX_SPI1_Init+0x64>)
 8000714:	2200      	movs	r2, #0
 8000716:	61da      	str	r2, [r3, #28]
  hspi1.Init.FirstBit = SPI_FIRSTBIT_MSB;
 8000718:	4b0a      	ldr	r3, [pc, #40]	; (8000744 <MX_SPI1_Init+0x64>)
 800071a:	2200      	movs	r2, #0
 800071c:	621a      	str	r2, [r3, #32]
  hspi1.Init.TIMode = SPI_TIMODE_DISABLE;
 800071e:	4b09      	ldr	r3, [pc, #36]	; (8000744 <MX_SPI1_Init+0x64>)
 8000720:	2200      	movs	r2, #0
 8000722:	625a      	str	r2, [r3, #36]	; 0x24
  hspi1.Init.CRCCalculation = SPI_CRCCALCULATION_DISABLE;
 8000724:	4b07      	ldr	r3, [pc, #28]	; (8000744 <MX_SPI1_Init+0x64>)
 8000726:	2200      	movs	r2, #0
 8000728:	629a      	str	r2, [r3, #40]	; 0x28
  hspi1.Init.CRCPolynomial = 10;
 800072a:	4b06      	ldr	r3, [pc, #24]	; (8000744 <MX_SPI1_Init+0x64>)
 800072c:	220a      	movs	r2, #10
 800072e:	62da      	str	r2, [r3, #44]	; 0x2c
  if (HAL_SPI_Init(&hspi1) != HAL_OK)
 8000730:	4804      	ldr	r0, [pc, #16]	; (8000744 <MX_SPI1_Init+0x64>)
 8000732:	f003 ff09 	bl	8004548 <HAL_SPI_Init>
 8000736:	4603      	mov	r3, r0
 8000738:	2b00      	cmp	r3, #0
 800073a:	d001      	beq.n	8000740 <MX_SPI1_Init+0x60>
  {
    Error_Handler();
 800073c:	f000 f92e 	bl	800099c <Error_Handler>
  }
  /* USER CODE BEGIN SPI1_Init 2 */

  /* USER CODE END SPI1_Init 2 */

}
 8000740:	bf00      	nop
 8000742:	bd80      	pop	{r7, pc}
 8000744:	20000124 	.word	0x20000124
 8000748:	40013000 	.word	0x40013000

0800074c <MX_USART2_UART_Init>:
  * @brief USART2 Initialization Function
  * @param None
  * @retval None
  */
static void MX_USART2_UART_Init(void)
{
 800074c:	b580      	push	{r7, lr}
 800074e:	af00      	add	r7, sp, #0
  /* USER CODE END USART2_Init 0 */

  /* USER CODE BEGIN USART2_Init 1 */

  /* USER CODE END USART2_Init 1 */
  huart2.Instance = USART2;
 8000750:	4b11      	ldr	r3, [pc, #68]	; (8000798 <MX_USART2_UART_Init+0x4c>)
 8000752:	4a12      	ldr	r2, [pc, #72]	; (800079c <MX_USART2_UART_Init+0x50>)
 8000754:	601a      	str	r2, [r3, #0]
  huart2.Init.BaudRate = 115200;
 8000756:	4b10      	ldr	r3, [pc, #64]	; (8000798 <MX_USART2_UART_Init+0x4c>)
 8000758:	f44f 32e1 	mov.w	r2, #115200	; 0x1c200
 800075c:	605a      	str	r2, [r3, #4]
  huart2.Init.WordLength = UART_WORDLENGTH_8B;
 800075e:	4b0e      	ldr	r3, [pc, #56]	; (8000798 <MX_USART2_UART_Init+0x4c>)
 8000760:	2200      	movs	r2, #0
 8000762:	609a      	str	r2, [r3, #8]
  huart2.Init.StopBits = UART_STOPBITS_1;
 8000764:	4b0c      	ldr	r3, [pc, #48]	; (8000798 <MX_USART2_UART_Init+0x4c>)
 8000766:	2200      	movs	r2, #0
 8000768:	60da      	str	r2, [r3, #12]
  huart2.Init.Parity = UART_PARITY_NONE;
 800076a:	4b0b      	ldr	r3, [pc, #44]	; (8000798 <MX_USART2_UART_Init+0x4c>)
 800076c:	2200      	movs	r2, #0
 800076e:	611a      	str	r2, [r3, #16]
  huart2.Init.Mode = UART_MODE_TX_RX;
 8000770:	4b09      	ldr	r3, [pc, #36]	; (8000798 <MX_USART2_UART_Init+0x4c>)
 8000772:	220c      	movs	r2, #12
 8000774:	615a      	str	r2, [r3, #20]
  huart2.Init.HwFlowCtl = UART_HWCONTROL_NONE;
 8000776:	4b08      	ldr	r3, [pc, #32]	; (8000798 <MX_USART2_UART_Init+0x4c>)
 8000778:	2200      	movs	r2, #0
 800077a:	619a      	str	r2, [r3, #24]
  huart2.Init.OverSampling = UART_OVERSAMPLING_16;
 800077c:	4b06      	ldr	r3, [pc, #24]	; (8000798 <MX_USART2_UART_Init+0x4c>)
 800077e:	2200      	movs	r2, #0
 8000780:	61da      	str	r2, [r3, #28]
  if (HAL_UART_Init(&huart2) != HAL_OK)
 8000782:	4805      	ldr	r0, [pc, #20]	; (8000798 <MX_USART2_UART_Init+0x4c>)
 8000784:	f003 ff44 	bl	8004610 <HAL_UART_Init>
 8000788:	4603      	mov	r3, r0
 800078a:	2b00      	cmp	r3, #0
 800078c:	d001      	beq.n	8000792 <MX_USART2_UART_Init+0x46>
  {
    Error_Handler();
 800078e:	f000 f905 	bl	800099c <Error_Handler>
  }
  /* USER CODE BEGIN USART2_Init 2 */

  /* USER CODE END USART2_Init 2 */

}
 8000792:	bf00      	nop
 8000794:	bd80      	pop	{r7, pc}
 8000796:	bf00      	nop
 8000798:	2000017c 	.word	0x2000017c
 800079c:	40004400 	.word	0x40004400

080007a0 <MX_GPIO_Init>:
  * @brief GPIO Initialization Function
  * @param None
  * @retval None
  */
static void MX_GPIO_Init(void)
{
 80007a0:	b580      	push	{r7, lr}
 80007a2:	b08c      	sub	sp, #48	; 0x30
 80007a4:	af00      	add	r7, sp, #0
  GPIO_InitTypeDef GPIO_InitStruct = {0};
 80007a6:	f107 031c 	add.w	r3, r7, #28
 80007aa:	2200      	movs	r2, #0
 80007ac:	601a      	str	r2, [r3, #0]
 80007ae:	605a      	str	r2, [r3, #4]
 80007b0:	609a      	str	r2, [r3, #8]
 80007b2:	60da      	str	r2, [r3, #12]
 80007b4:	611a      	str	r2, [r3, #16]

  /* GPIO Ports Clock Enable */
  __HAL_RCC_GPIOE_CLK_ENABLE();
 80007b6:	2300      	movs	r3, #0
 80007b8:	61bb      	str	r3, [r7, #24]
 80007ba:	4b71      	ldr	r3, [pc, #452]	; (8000980 <MX_GPIO_Init+0x1e0>)
 80007bc:	6b1b      	ldr	r3, [r3, #48]	; 0x30
 80007be:	4a70      	ldr	r2, [pc, #448]	; (8000980 <MX_GPIO_Init+0x1e0>)
 80007c0:	f043 0310 	orr.w	r3, r3, #16
 80007c4:	6313      	str	r3, [r2, #48]	; 0x30
 80007c6:	4b6e      	ldr	r3, [pc, #440]	; (8000980 <MX_GPIO_Init+0x1e0>)
 80007c8:	6b1b      	ldr	r3, [r3, #48]	; 0x30
 80007ca:	f003 0310 	and.w	r3, r3, #16
 80007ce:	61bb      	str	r3, [r7, #24]
 80007d0:	69bb      	ldr	r3, [r7, #24]
  __HAL_RCC_GPIOC_CLK_ENABLE();
 80007d2:	2300      	movs	r3, #0
 80007d4:	617b      	str	r3, [r7, #20]
 80007d6:	4b6a      	ldr	r3, [pc, #424]	; (8000980 <MX_GPIO_Init+0x1e0>)
 80007d8:	6b1b      	ldr	r3, [r3, #48]	; 0x30
 80007da:	4a69      	ldr	r2, [pc, #420]	; (8000980 <MX_GPIO_Init+0x1e0>)
 80007dc:	f043 0304 	orr.w	r3, r3, #4
 80007e0:	6313      	str	r3, [r2, #48]	; 0x30
 80007e2:	4b67      	ldr	r3, [pc, #412]	; (8000980 <MX_GPIO_Init+0x1e0>)
 80007e4:	6b1b      	ldr	r3, [r3, #48]	; 0x30
 80007e6:	f003 0304 	and.w	r3, r3, #4
 80007ea:	617b      	str	r3, [r7, #20]
 80007ec:	697b      	ldr	r3, [r7, #20]
  __HAL_RCC_GPIOH_CLK_ENABLE();
 80007ee:	2300      	movs	r3, #0
 80007f0:	613b      	str	r3, [r7, #16]
 80007f2:	4b63      	ldr	r3, [pc, #396]	; (8000980 <MX_GPIO_Init+0x1e0>)
 80007f4:	6b1b      	ldr	r3, [r3, #48]	; 0x30
 80007f6:	4a62      	ldr	r2, [pc, #392]	; (8000980 <MX_GPIO_Init+0x1e0>)
 80007f8:	f043 0380 	orr.w	r3, r3, #128	; 0x80
 80007fc:	6313      	str	r3, [r2, #48]	; 0x30
 80007fe:	4b60      	ldr	r3, [pc, #384]	; (8000980 <MX_GPIO_Init+0x1e0>)
 8000800:	6b1b      	ldr	r3, [r3, #48]	; 0x30
 8000802:	f003 0380 	and.w	r3, r3, #128	; 0x80
 8000806:	613b      	str	r3, [r7, #16]
 8000808:	693b      	ldr	r3, [r7, #16]
  __HAL_RCC_GPIOA_CLK_ENABLE();
 800080a:	2300      	movs	r3, #0
 800080c:	60fb      	str	r3, [r7, #12]
 800080e:	4b5c      	ldr	r3, [pc, #368]	; (8000980 <MX_GPIO_Init+0x1e0>)
 8000810:	6b1b      	ldr	r3, [r3, #48]	; 0x30
 8000812:	4a5b      	ldr	r2, [pc, #364]	; (8000980 <MX_GPIO_Init+0x1e0>)
 8000814:	f043 0301 	orr.w	r3, r3, #1
 8000818:	6313      	str	r3, [r2, #48]	; 0x30
 800081a:	4b59      	ldr	r3, [pc, #356]	; (8000980 <MX_GPIO_Init+0x1e0>)
 800081c:	6b1b      	ldr	r3, [r3, #48]	; 0x30
 800081e:	f003 0301 	and.w	r3, r3, #1
 8000822:	60fb      	str	r3, [r7, #12]
 8000824:	68fb      	ldr	r3, [r7, #12]
  __HAL_RCC_GPIOB_CLK_ENABLE();
 8000826:	2300      	movs	r3, #0
 8000828:	60bb      	str	r3, [r7, #8]
 800082a:	4b55      	ldr	r3, [pc, #340]	; (8000980 <MX_GPIO_Init+0x1e0>)
 800082c:	6b1b      	ldr	r3, [r3, #48]	; 0x30
 800082e:	4a54      	ldr	r2, [pc, #336]	; (8000980 <MX_GPIO_Init+0x1e0>)
 8000830:	f043 0302 	orr.w	r3, r3, #2
 8000834:	6313      	str	r3, [r2, #48]	; 0x30
 8000836:	4b52      	ldr	r3, [pc, #328]	; (8000980 <MX_GPIO_Init+0x1e0>)
 8000838:	6b1b      	ldr	r3, [r3, #48]	; 0x30
 800083a:	f003 0302 	and.w	r3, r3, #2
 800083e:	60bb      	str	r3, [r7, #8]
 8000840:	68bb      	ldr	r3, [r7, #8]
  __HAL_RCC_GPIOD_CLK_ENABLE();
 8000842:	2300      	movs	r3, #0
 8000844:	607b      	str	r3, [r7, #4]
 8000846:	4b4e      	ldr	r3, [pc, #312]	; (8000980 <MX_GPIO_Init+0x1e0>)
 8000848:	6b1b      	ldr	r3, [r3, #48]	; 0x30
 800084a:	4a4d      	ldr	r2, [pc, #308]	; (8000980 <MX_GPIO_Init+0x1e0>)
 800084c:	f043 0308 	orr.w	r3, r3, #8
 8000850:	6313      	str	r3, [r2, #48]	; 0x30
 8000852:	4b4b      	ldr	r3, [pc, #300]	; (8000980 <MX_GPIO_Init+0x1e0>)
 8000854:	6b1b      	ldr	r3, [r3, #48]	; 0x30
 8000856:	f003 0308 	and.w	r3, r3, #8
 800085a:	607b      	str	r3, [r7, #4]
 800085c:	687b      	ldr	r3, [r7, #4]

  /*Configure GPIO pin Output Level */
  HAL_GPIO_WritePin(CS_I2C_SPI_GPIO_Port, CS_I2C_SPI_Pin, GPIO_PIN_RESET);
 800085e:	2200      	movs	r2, #0
 8000860:	2108      	movs	r1, #8
 8000862:	4848      	ldr	r0, [pc, #288]	; (8000984 <MX_GPIO_Init+0x1e4>)
 8000864:	f000 fdee 	bl	8001444 <HAL_GPIO_WritePin>

  /*Configure GPIO pin Output Level */
  HAL_GPIO_WritePin(OTG_FS_PowerSwitchOn_GPIO_Port, OTG_FS_PowerSwitchOn_Pin, GPIO_PIN_SET);
 8000868:	2201      	movs	r2, #1
 800086a:	2101      	movs	r1, #1
 800086c:	4846      	ldr	r0, [pc, #280]	; (8000988 <MX_GPIO_Init+0x1e8>)
 800086e:	f000 fde9 	bl	8001444 <HAL_GPIO_WritePin>

  /*Configure GPIO pin Output Level */
  HAL_GPIO_WritePin(GPIOD, LD4_Pin|LD3_Pin|LD5_Pin|LD6_Pin 
 8000872:	2200      	movs	r2, #0
 8000874:	f24f 0110 	movw	r1, #61456	; 0xf010
 8000878:	4844      	ldr	r0, [pc, #272]	; (800098c <MX_GPIO_Init+0x1ec>)
 800087a:	f000 fde3 	bl	8001444 <HAL_GPIO_WritePin>
                          |Audio_RST_Pin, GPIO_PIN_RESET);

  /*Configure GPIO pin : CS_I2C_SPI_Pin */
  GPIO_InitStruct.Pin = CS_I2C_SPI_Pin;
 800087e:	2308      	movs	r3, #8
 8000880:	61fb      	str	r3, [r7, #28]
  GPIO_InitStruct.Mode = GPIO_MODE_OUTPUT_PP;
 8000882:	2301      	movs	r3, #1
 8000884:	623b      	str	r3, [r7, #32]
  GPIO_InitStruct.Pull = GPIO_NOPULL;
 8000886:	2300      	movs	r3, #0
 8000888:	627b      	str	r3, [r7, #36]	; 0x24
  GPIO_InitStruct.Speed = GPIO_SPEED_FREQ_LOW;
 800088a:	2300      	movs	r3, #0
 800088c:	62bb      	str	r3, [r7, #40]	; 0x28
  HAL_GPIO_Init(CS_I2C_SPI_GPIO_Port, &GPIO_InitStruct);
 800088e:	f107 031c 	add.w	r3, r7, #28
 8000892:	4619      	mov	r1, r3
 8000894:	483b      	ldr	r0, [pc, #236]	; (8000984 <MX_GPIO_Init+0x1e4>)
 8000896:	f000 fc3b 	bl	8001110 <HAL_GPIO_Init>

  /*Configure GPIO pin : OTG_FS_PowerSwitchOn_Pin */
  GPIO_InitStruct.Pin = OTG_FS_PowerSwitchOn_Pin;
 800089a:	2301      	movs	r3, #1
 800089c:	61fb      	str	r3, [r7, #28]
  GPIO_InitStruct.Mode = GPIO_MODE_OUTPUT_PP;
 800089e:	2301      	movs	r3, #1
 80008a0:	623b      	str	r3, [r7, #32]
  GPIO_InitStruct.Pull = GPIO_NOPULL;
 80008a2:	2300      	movs	r3, #0
 80008a4:	627b      	str	r3, [r7, #36]	; 0x24
  GPIO_InitStruct.Speed = GPIO_SPEED_FREQ_LOW;
 80008a6:	2300      	movs	r3, #0
 80008a8:	62bb      	str	r3, [r7, #40]	; 0x28
  HAL_GPIO_Init(OTG_FS_PowerSwitchOn_GPIO_Port, &GPIO_InitStruct);
 80008aa:	f107 031c 	add.w	r3, r7, #28
 80008ae:	4619      	mov	r1, r3
 80008b0:	4835      	ldr	r0, [pc, #212]	; (8000988 <MX_GPIO_Init+0x1e8>)
 80008b2:	f000 fc2d 	bl	8001110 <HAL_GPIO_Init>

  /*Configure GPIO pin : PDM_OUT_Pin */
  GPIO_InitStruct.Pin = PDM_OUT_Pin;
 80008b6:	2308      	movs	r3, #8
 80008b8:	61fb      	str	r3, [r7, #28]
  GPIO_InitStruct.Mode = GPIO_MODE_AF_PP;
 80008ba:	2302      	movs	r3, #2
 80008bc:	623b      	str	r3, [r7, #32]
  GPIO_InitStruct.Pull = GPIO_NOPULL;
 80008be:	2300      	movs	r3, #0
 80008c0:	627b      	str	r3, [r7, #36]	; 0x24
  GPIO_InitStruct.Speed = GPIO_SPEED_FREQ_LOW;
 80008c2:	2300      	movs	r3, #0
 80008c4:	62bb      	str	r3, [r7, #40]	; 0x28
  GPIO_InitStruct.Alternate = GPIO_AF5_SPI2;
 80008c6:	2305      	movs	r3, #5
 80008c8:	62fb      	str	r3, [r7, #44]	; 0x2c
  HAL_GPIO_Init(PDM_OUT_GPIO_Port, &GPIO_InitStruct);
 80008ca:	f107 031c 	add.w	r3, r7, #28
 80008ce:	4619      	mov	r1, r3
 80008d0:	482d      	ldr	r0, [pc, #180]	; (8000988 <MX_GPIO_Init+0x1e8>)
 80008d2:	f000 fc1d 	bl	8001110 <HAL_GPIO_Init>

  /*Configure GPIO pin : B1_Pin */
  GPIO_InitStruct.Pin = B1_Pin;
 80008d6:	2301      	movs	r3, #1
 80008d8:	61fb      	str	r3, [r7, #28]
  GPIO_InitStruct.Mode = GPIO_MODE_EVT_RISING;
 80008da:	4b2d      	ldr	r3, [pc, #180]	; (8000990 <MX_GPIO_Init+0x1f0>)
 80008dc:	623b      	str	r3, [r7, #32]
  GPIO_InitStruct.Pull = GPIO_NOPULL;
 80008de:	2300      	movs	r3, #0
 80008e0:	627b      	str	r3, [r7, #36]	; 0x24
  HAL_GPIO_Init(B1_GPIO_Port, &GPIO_InitStruct);
 80008e2:	f107 031c 	add.w	r3, r7, #28
 80008e6:	4619      	mov	r1, r3
 80008e8:	482a      	ldr	r0, [pc, #168]	; (8000994 <MX_GPIO_Init+0x1f4>)
 80008ea:	f000 fc11 	bl	8001110 <HAL_GPIO_Init>

  /*Configure GPIO pin : BOOT1_Pin */
  GPIO_InitStruct.Pin = BOOT1_Pin;
 80008ee:	2304      	movs	r3, #4
 80008f0:	61fb      	str	r3, [r7, #28]
  GPIO_InitStruct.Mode = GPIO_MODE_INPUT;
 80008f2:	2300      	movs	r3, #0
 80008f4:	623b      	str	r3, [r7, #32]
  GPIO_InitStruct.Pull = GPIO_NOPULL;
 80008f6:	2300      	movs	r3, #0
 80008f8:	627b      	str	r3, [r7, #36]	; 0x24
  HAL_GPIO_Init(BOOT1_GPIO_Port, &GPIO_InitStruct);
 80008fa:	f107 031c 	add.w	r3, r7, #28
 80008fe:	4619      	mov	r1, r3
 8000900:	4825      	ldr	r0, [pc, #148]	; (8000998 <MX_GPIO_Init+0x1f8>)
 8000902:	f000 fc05 	bl	8001110 <HAL_GPIO_Init>

  /*Configure GPIO pin : CLK_IN_Pin */
  GPIO_InitStruct.Pin = CLK_IN_Pin;
 8000906:	f44f 6380 	mov.w	r3, #1024	; 0x400
 800090a:	61fb      	str	r3, [r7, #28]
  GPIO_InitStruct.Mode = GPIO_MODE_AF_PP;
 800090c:	2302      	movs	r3, #2
 800090e:	623b      	str	r3, [r7, #32]
  GPIO_InitStruct.Pull = GPIO_NOPULL;
 8000910:	2300      	movs	r3, #0
 8000912:	627b      	str	r3, [r7, #36]	; 0x24
  GPIO_InitStruct.Speed = GPIO_SPEED_FREQ_LOW;
 8000914:	2300      	movs	r3, #0
 8000916:	62bb      	str	r3, [r7, #40]	; 0x28
  GPIO_InitStruct.Alternate = GPIO_AF5_SPI2;
 8000918:	2305      	movs	r3, #5
 800091a:	62fb      	str	r3, [r7, #44]	; 0x2c
  HAL_GPIO_Init(CLK_IN_GPIO_Port, &GPIO_InitStruct);
 800091c:	f107 031c 	add.w	r3, r7, #28
 8000920:	4619      	mov	r1, r3
 8000922:	481d      	ldr	r0, [pc, #116]	; (8000998 <MX_GPIO_Init+0x1f8>)
 8000924:	f000 fbf4 	bl	8001110 <HAL_GPIO_Init>

  /*Configure GPIO pins : LD4_Pin LD3_Pin LD5_Pin LD6_Pin 
                           Audio_RST_Pin */
  GPIO_InitStruct.Pin = LD4_Pin|LD3_Pin|LD5_Pin|LD6_Pin 
 8000928:	f24f 0310 	movw	r3, #61456	; 0xf010
 800092c:	61fb      	str	r3, [r7, #28]
                          |Audio_RST_Pin;
  GPIO_InitStruct.Mode = GPIO_MODE_OUTPUT_PP;
 800092e:	2301      	movs	r3, #1
 8000930:	623b      	str	r3, [r7, #32]
  GPIO_InitStruct.Pull = GPIO_NOPULL;
 8000932:	2300      	movs	r3, #0
 8000934:	627b      	str	r3, [r7, #36]	; 0x24
  GPIO_InitStruct.Speed = GPIO_SPEED_FREQ_LOW;
 8000936:	2300      	movs	r3, #0
 8000938:	62bb      	str	r3, [r7, #40]	; 0x28
  HAL_GPIO_Init(GPIOD, &GPIO_InitStruct);
 800093a:	f107 031c 	add.w	r3, r7, #28
 800093e:	4619      	mov	r1, r3
 8000940:	4812      	ldr	r0, [pc, #72]	; (800098c <MX_GPIO_Init+0x1ec>)
 8000942:	f000 fbe5 	bl	8001110 <HAL_GPIO_Init>

  /*Configure GPIO pin : OTG_FS_OverCurrent_Pin */
  GPIO_InitStruct.Pin = OTG_FS_OverCurrent_Pin;
 8000946:	2320      	movs	r3, #32
 8000948:	61fb      	str	r3, [r7, #28]
  GPIO_InitStruct.Mode = GPIO_MODE_INPUT;
 800094a:	2300      	movs	r3, #0
 800094c:	623b      	str	r3, [r7, #32]
  GPIO_InitStruct.Pull = GPIO_NOPULL;
 800094e:	2300      	movs	r3, #0
 8000950:	627b      	str	r3, [r7, #36]	; 0x24
  HAL_GPIO_Init(OTG_FS_OverCurrent_GPIO_Port, &GPIO_InitStruct);
 8000952:	f107 031c 	add.w	r3, r7, #28
 8000956:	4619      	mov	r1, r3
 8000958:	480c      	ldr	r0, [pc, #48]	; (800098c <MX_GPIO_Init+0x1ec>)
 800095a:	f000 fbd9 	bl	8001110 <HAL_GPIO_Init>

  /*Configure GPIO pin : MEMS_INT2_Pin */
  GPIO_InitStruct.Pin = MEMS_INT2_Pin;
 800095e:	2302      	movs	r3, #2
 8000960:	61fb      	str	r3, [r7, #28]
  GPIO_InitStruct.Mode = GPIO_MODE_EVT_RISING;
 8000962:	4b0b      	ldr	r3, [pc, #44]	; (8000990 <MX_GPIO_Init+0x1f0>)
 8000964:	623b      	str	r3, [r7, #32]
  GPIO_InitStruct.Pull = GPIO_NOPULL;
 8000966:	2300      	movs	r3, #0
 8000968:	627b      	str	r3, [r7, #36]	; 0x24
  HAL_GPIO_Init(MEMS_INT2_GPIO_Port, &GPIO_InitStruct);
 800096a:	f107 031c 	add.w	r3, r7, #28
 800096e:	4619      	mov	r1, r3
 8000970:	4804      	ldr	r0, [pc, #16]	; (8000984 <MX_GPIO_Init+0x1e4>)
 8000972:	f000 fbcd 	bl	8001110 <HAL_GPIO_Init>

}
 8000976:	bf00      	nop
 8000978:	3730      	adds	r7, #48	; 0x30
 800097a:	46bd      	mov	sp, r7
 800097c:	bd80      	pop	{r7, pc}
 800097e:	bf00      	nop
 8000980:	40023800 	.word	0x40023800
 8000984:	40021000 	.word	0x40021000
 8000988:	40020800 	.word	0x40020800
 800098c:	40020c00 	.word	0x40020c00
 8000990:	10120000 	.word	0x10120000
 8000994:	40020000 	.word	0x40020000
 8000998:	40020400 	.word	0x40020400

0800099c <Error_Handler>:
/**
  * @brief  This function is executed in case of error occurrence.
  * @retval None
  */
void Error_Handler(void)
{
 800099c:	b480      	push	{r7}
 800099e:	af00      	add	r7, sp, #0
  /* USER CODE BEGIN Error_Handler_Debug */
  /* User can add his own implementation to report the HAL error return state */

  /* USER CODE END Error_Handler_Debug */
}
 80009a0:	bf00      	nop
 80009a2:	46bd      	mov	sp, r7
 80009a4:	f85d 7b04 	ldr.w	r7, [sp], #4
 80009a8:	4770      	bx	lr
	...

080009ac <HAL_MspInit>:
/* USER CODE END 0 */
/**
  * Initializes the Global MSP.
  */
void HAL_MspInit(void)
{
 80009ac:	b580      	push	{r7, lr}
 80009ae:	b082      	sub	sp, #8
 80009b0:	af00      	add	r7, sp, #0
  /* USER CODE BEGIN MspInit 0 */

  /* USER CODE END MspInit 0 */

  __HAL_RCC_SYSCFG_CLK_ENABLE();
 80009b2:	2300      	movs	r3, #0
 80009b4:	607b      	str	r3, [r7, #4]
 80009b6:	4b10      	ldr	r3, [pc, #64]	; (80009f8 <HAL_MspInit+0x4c>)
 80009b8:	6c5b      	ldr	r3, [r3, #68]	; 0x44
 80009ba:	4a0f      	ldr	r2, [pc, #60]	; (80009f8 <HAL_MspInit+0x4c>)
 80009bc:	f443 4380 	orr.w	r3, r3, #16384	; 0x4000
 80009c0:	6453      	str	r3, [r2, #68]	; 0x44
 80009c2:	4b0d      	ldr	r3, [pc, #52]	; (80009f8 <HAL_MspInit+0x4c>)
 80009c4:	6c5b      	ldr	r3, [r3, #68]	; 0x44
 80009c6:	f403 4380 	and.w	r3, r3, #16384	; 0x4000
 80009ca:	607b      	str	r3, [r7, #4]
 80009cc:	687b      	ldr	r3, [r7, #4]
  __HAL_RCC_PWR_CLK_ENABLE();
 80009ce:	2300      	movs	r3, #0
 80009d0:	603b      	str	r3, [r7, #0]
 80009d2:	4b09      	ldr	r3, [pc, #36]	; (80009f8 <HAL_MspInit+0x4c>)
 80009d4:	6c1b      	ldr	r3, [r3, #64]	; 0x40
 80009d6:	4a08      	ldr	r2, [pc, #32]	; (80009f8 <HAL_MspInit+0x4c>)
 80009d8:	f043 5380 	orr.w	r3, r3, #268435456	; 0x10000000
 80009dc:	6413      	str	r3, [r2, #64]	; 0x40
 80009de:	4b06      	ldr	r3, [pc, #24]	; (80009f8 <HAL_MspInit+0x4c>)
 80009e0:	6c1b      	ldr	r3, [r3, #64]	; 0x40
 80009e2:	f003 5380 	and.w	r3, r3, #268435456	; 0x10000000
 80009e6:	603b      	str	r3, [r7, #0]
 80009e8:	683b      	ldr	r3, [r7, #0]

  HAL_NVIC_SetPriorityGrouping(NVIC_PRIORITYGROUP_0);
 80009ea:	2007      	movs	r0, #7
 80009ec:	f000 fb4e 	bl	800108c <HAL_NVIC_SetPriorityGrouping>
  /* System interrupt init*/

  /* USER CODE BEGIN MspInit 1 */

  /* USER CODE END MspInit 1 */
}
 80009f0:	bf00      	nop
 80009f2:	3708      	adds	r7, #8
 80009f4:	46bd      	mov	sp, r7
 80009f6:	bd80      	pop	{r7, pc}
 80009f8:	40023800 	.word	0x40023800

080009fc <HAL_I2C_MspInit>:
* This function configures the hardware resources used in this example
* @param hi2c: I2C handle pointer
* @retval None
*/
void HAL_I2C_MspInit(I2C_HandleTypeDef* hi2c)
{
 80009fc:	b580      	push	{r7, lr}
 80009fe:	b08a      	sub	sp, #40	; 0x28
 8000a00:	af00      	add	r7, sp, #0
 8000a02:	6078      	str	r0, [r7, #4]
  GPIO_InitTypeDef GPIO_InitStruct = {0};
 8000a04:	f107 0314 	add.w	r3, r7, #20
 8000a08:	2200      	movs	r2, #0
 8000a0a:	601a      	str	r2, [r3, #0]
 8000a0c:	605a      	str	r2, [r3, #4]
 8000a0e:	609a      	str	r2, [r3, #8]
 8000a10:	60da      	str	r2, [r3, #12]
 8000a12:	611a      	str	r2, [r3, #16]
  if(hi2c->Instance==I2C1)
 8000a14:	687b      	ldr	r3, [r7, #4]
 8000a16:	681b      	ldr	r3, [r3, #0]
 8000a18:	4a19      	ldr	r2, [pc, #100]	; (8000a80 <HAL_I2C_MspInit+0x84>)
 8000a1a:	4293      	cmp	r3, r2
 8000a1c:	d12c      	bne.n	8000a78 <HAL_I2C_MspInit+0x7c>
  {
  /* USER CODE BEGIN I2C1_MspInit 0 */

  /* USER CODE END I2C1_MspInit 0 */
  
    __HAL_RCC_GPIOB_CLK_ENABLE();
 8000a1e:	2300      	movs	r3, #0
 8000a20:	613b      	str	r3, [r7, #16]
 8000a22:	4b18      	ldr	r3, [pc, #96]	; (8000a84 <HAL_I2C_MspInit+0x88>)
 8000a24:	6b1b      	ldr	r3, [r3, #48]	; 0x30
 8000a26:	4a17      	ldr	r2, [pc, #92]	; (8000a84 <HAL_I2C_MspInit+0x88>)
 8000a28:	f043 0302 	orr.w	r3, r3, #2
 8000a2c:	6313      	str	r3, [r2, #48]	; 0x30
 8000a2e:	4b15      	ldr	r3, [pc, #84]	; (8000a84 <HAL_I2C_MspInit+0x88>)
 8000a30:	6b1b      	ldr	r3, [r3, #48]	; 0x30
 8000a32:	f003 0302 	and.w	r3, r3, #2
 8000a36:	613b      	str	r3, [r7, #16]
 8000a38:	693b      	ldr	r3, [r7, #16]
    /**I2C1 GPIO Configuration    
    PB6     ------> I2C1_SCL
    PB9     ------> I2C1_SDA 
    */
    GPIO_InitStruct.Pin = Audio_SCL_Pin|Audio_SDA_Pin;
 8000a3a:	f44f 7310 	mov.w	r3, #576	; 0x240
 8000a3e:	617b      	str	r3, [r7, #20]
    GPIO_InitStruct.Mode = GPIO_MODE_AF_OD;
 8000a40:	2312      	movs	r3, #18
 8000a42:	61bb      	str	r3, [r7, #24]
    GPIO_InitStruct.Pull = GPIO_PULLUP;
 8000a44:	2301      	movs	r3, #1
 8000a46:	61fb      	str	r3, [r7, #28]
    GPIO_InitStruct.Speed = GPIO_SPEED_FREQ_LOW;
 8000a48:	2300      	movs	r3, #0
 8000a4a:	623b      	str	r3, [r7, #32]
    GPIO_InitStruct.Alternate = GPIO_AF4_I2C1;
 8000a4c:	2304      	movs	r3, #4
 8000a4e:	627b      	str	r3, [r7, #36]	; 0x24
    HAL_GPIO_Init(GPIOB, &GPIO_InitStruct);
 8000a50:	f107 0314 	add.w	r3, r7, #20
 8000a54:	4619      	mov	r1, r3
 8000a56:	480c      	ldr	r0, [pc, #48]	; (8000a88 <HAL_I2C_MspInit+0x8c>)
 8000a58:	f000 fb5a 	bl	8001110 <HAL_GPIO_Init>

    /* Peripheral clock enable */
    __HAL_RCC_I2C1_CLK_ENABLE();
 8000a5c:	2300      	movs	r3, #0
 8000a5e:	60fb      	str	r3, [r7, #12]
 8000a60:	4b08      	ldr	r3, [pc, #32]	; (8000a84 <HAL_I2C_MspInit+0x88>)
 8000a62:	6c1b      	ldr	r3, [r3, #64]	; 0x40
 8000a64:	4a07      	ldr	r2, [pc, #28]	; (8000a84 <HAL_I2C_MspInit+0x88>)
 8000a66:	f443 1300 	orr.w	r3, r3, #2097152	; 0x200000
 8000a6a:	6413      	str	r3, [r2, #64]	; 0x40
 8000a6c:	4b05      	ldr	r3, [pc, #20]	; (8000a84 <HAL_I2C_MspInit+0x88>)
 8000a6e:	6c1b      	ldr	r3, [r3, #64]	; 0x40
 8000a70:	f403 1300 	and.w	r3, r3, #2097152	; 0x200000
 8000a74:	60fb      	str	r3, [r7, #12]
 8000a76:	68fb      	ldr	r3, [r7, #12]
  /* USER CODE BEGIN I2C1_MspInit 1 */

  /* USER CODE END I2C1_MspInit 1 */
  }

}
 8000a78:	bf00      	nop
 8000a7a:	3728      	adds	r7, #40	; 0x28
 8000a7c:	46bd      	mov	sp, r7
 8000a7e:	bd80      	pop	{r7, pc}
 8000a80:	40005400 	.word	0x40005400
 8000a84:	40023800 	.word	0x40023800
 8000a88:	40020400 	.word	0x40020400

08000a8c <HAL_I2S_MspInit>:
* This function configures the hardware resources used in this example
* @param hi2s: I2S handle pointer
* @retval None
*/
void HAL_I2S_MspInit(I2S_HandleTypeDef* hi2s)
{
 8000a8c:	b580      	push	{r7, lr}
 8000a8e:	b08a      	sub	sp, #40	; 0x28
 8000a90:	af00      	add	r7, sp, #0
 8000a92:	6078      	str	r0, [r7, #4]
  GPIO_InitTypeDef GPIO_InitStruct = {0};
 8000a94:	f107 0314 	add.w	r3, r7, #20
 8000a98:	2200      	movs	r2, #0
 8000a9a:	601a      	str	r2, [r3, #0]
 8000a9c:	605a      	str	r2, [r3, #4]
 8000a9e:	609a      	str	r2, [r3, #8]
 8000aa0:	60da      	str	r2, [r3, #12]
 8000aa2:	611a      	str	r2, [r3, #16]
  if(hi2s->Instance==SPI3)
 8000aa4:	687b      	ldr	r3, [r7, #4]
 8000aa6:	681b      	ldr	r3, [r3, #0]
 8000aa8:	4a28      	ldr	r2, [pc, #160]	; (8000b4c <HAL_I2S_MspInit+0xc0>)
 8000aaa:	4293      	cmp	r3, r2
 8000aac:	d14a      	bne.n	8000b44 <HAL_I2S_MspInit+0xb8>
  {
  /* USER CODE BEGIN SPI3_MspInit 0 */

  /* USER CODE END SPI3_MspInit 0 */
    /* Peripheral clock enable */
    __HAL_RCC_SPI3_CLK_ENABLE();
 8000aae:	2300      	movs	r3, #0
 8000ab0:	613b      	str	r3, [r7, #16]
 8000ab2:	4b27      	ldr	r3, [pc, #156]	; (8000b50 <HAL_I2S_MspInit+0xc4>)
 8000ab4:	6c1b      	ldr	r3, [r3, #64]	; 0x40
 8000ab6:	4a26      	ldr	r2, [pc, #152]	; (8000b50 <HAL_I2S_MspInit+0xc4>)
 8000ab8:	f443 4300 	orr.w	r3, r3, #32768	; 0x8000
 8000abc:	6413      	str	r3, [r2, #64]	; 0x40
 8000abe:	4b24      	ldr	r3, [pc, #144]	; (8000b50 <HAL_I2S_MspInit+0xc4>)
 8000ac0:	6c1b      	ldr	r3, [r3, #64]	; 0x40
 8000ac2:	f403 4300 	and.w	r3, r3, #32768	; 0x8000
 8000ac6:	613b      	str	r3, [r7, #16]
 8000ac8:	693b      	ldr	r3, [r7, #16]
  
    __HAL_RCC_GPIOA_CLK_ENABLE();
 8000aca:	2300      	movs	r3, #0
 8000acc:	60fb      	str	r3, [r7, #12]
 8000ace:	4b20      	ldr	r3, [pc, #128]	; (8000b50 <HAL_I2S_MspInit+0xc4>)
 8000ad0:	6b1b      	ldr	r3, [r3, #48]	; 0x30
 8000ad2:	4a1f      	ldr	r2, [pc, #124]	; (8000b50 <HAL_I2S_MspInit+0xc4>)
 8000ad4:	f043 0301 	orr.w	r3, r3, #1
 8000ad8:	6313      	str	r3, [r2, #48]	; 0x30
 8000ada:	4b1d      	ldr	r3, [pc, #116]	; (8000b50 <HAL_I2S_MspInit+0xc4>)
 8000adc:	6b1b      	ldr	r3, [r3, #48]	; 0x30
 8000ade:	f003 0301 	and.w	r3, r3, #1
 8000ae2:	60fb      	str	r3, [r7, #12]
 8000ae4:	68fb      	ldr	r3, [r7, #12]
    __HAL_RCC_GPIOC_CLK_ENABLE();
 8000ae6:	2300      	movs	r3, #0
 8000ae8:	60bb      	str	r3, [r7, #8]
 8000aea:	4b19      	ldr	r3, [pc, #100]	; (8000b50 <HAL_I2S_MspInit+0xc4>)
 8000aec:	6b1b      	ldr	r3, [r3, #48]	; 0x30
 8000aee:	4a18      	ldr	r2, [pc, #96]	; (8000b50 <HAL_I2S_MspInit+0xc4>)
 8000af0:	f043 0304 	orr.w	r3, r3, #4
 8000af4:	6313      	str	r3, [r2, #48]	; 0x30
 8000af6:	4b16      	ldr	r3, [pc, #88]	; (8000b50 <HAL_I2S_MspInit+0xc4>)
 8000af8:	6b1b      	ldr	r3, [r3, #48]	; 0x30
 8000afa:	f003 0304 	and.w	r3, r3, #4
 8000afe:	60bb      	str	r3, [r7, #8]
 8000b00:	68bb      	ldr	r3, [r7, #8]
    PA4     ------> I2S3_WS
    PC7     ------> I2S3_MCK
    PC10     ------> I2S3_CK
    PC12     ------> I2S3_SD 
    */
    GPIO_InitStruct.Pin = I2S3_WS_Pin;
 8000b02:	2310      	movs	r3, #16
 8000b04:	617b      	str	r3, [r7, #20]
    GPIO_InitStruct.Mode = GPIO_MODE_AF_PP;
 8000b06:	2302      	movs	r3, #2
 8000b08:	61bb      	str	r3, [r7, #24]
    GPIO_InitStruct.Pull = GPIO_NOPULL;
 8000b0a:	2300      	movs	r3, #0
 8000b0c:	61fb      	str	r3, [r7, #28]
    GPIO_InitStruct.Speed = GPIO_SPEED_FREQ_LOW;
 8000b0e:	2300      	movs	r3, #0
 8000b10:	623b      	str	r3, [r7, #32]
    GPIO_InitStruct.Alternate = GPIO_AF6_SPI3;
 8000b12:	2306      	movs	r3, #6
 8000b14:	627b      	str	r3, [r7, #36]	; 0x24
    HAL_GPIO_Init(I2S3_WS_GPIO_Port, &GPIO_InitStruct);
 8000b16:	f107 0314 	add.w	r3, r7, #20
 8000b1a:	4619      	mov	r1, r3
 8000b1c:	480d      	ldr	r0, [pc, #52]	; (8000b54 <HAL_I2S_MspInit+0xc8>)
 8000b1e:	f000 faf7 	bl	8001110 <HAL_GPIO_Init>

    GPIO_InitStruct.Pin = I2S3_MCK_Pin|I2S3_SCK_Pin|I2S3_SD_Pin;
 8000b22:	f44f 53a4 	mov.w	r3, #5248	; 0x1480
 8000b26:	617b      	str	r3, [r7, #20]
    GPIO_InitStruct.Mode = GPIO_MODE_AF_PP;
 8000b28:	2302      	movs	r3, #2
 8000b2a:	61bb      	str	r3, [r7, #24]
    GPIO_InitStruct.Pull = GPIO_NOPULL;
 8000b2c:	2300      	movs	r3, #0
 8000b2e:	61fb      	str	r3, [r7, #28]
    GPIO_InitStruct.Speed = GPIO_SPEED_FREQ_LOW;
 8000b30:	2300      	movs	r3, #0
 8000b32:	623b      	str	r3, [r7, #32]
    GPIO_InitStruct.Alternate = GPIO_AF6_SPI3;
 8000b34:	2306      	movs	r3, #6
 8000b36:	627b      	str	r3, [r7, #36]	; 0x24
    HAL_GPIO_Init(GPIOC, &GPIO_InitStruct);
 8000b38:	f107 0314 	add.w	r3, r7, #20
 8000b3c:	4619      	mov	r1, r3
 8000b3e:	4806      	ldr	r0, [pc, #24]	; (8000b58 <HAL_I2S_MspInit+0xcc>)
 8000b40:	f000 fae6 	bl	8001110 <HAL_GPIO_Init>
  /* USER CODE BEGIN SPI3_MspInit 1 */

  /* USER CODE END SPI3_MspInit 1 */
  }

}
 8000b44:	bf00      	nop
 8000b46:	3728      	adds	r7, #40	; 0x28
 8000b48:	46bd      	mov	sp, r7
 8000b4a:	bd80      	pop	{r7, pc}
 8000b4c:	40003c00 	.word	0x40003c00
 8000b50:	40023800 	.word	0x40023800
 8000b54:	40020000 	.word	0x40020000
 8000b58:	40020800 	.word	0x40020800

08000b5c <HAL_SPI_MspInit>:
* This function configures the hardware resources used in this example
* @param hspi: SPI handle pointer
* @retval None
*/
void HAL_SPI_MspInit(SPI_HandleTypeDef* hspi)
{
 8000b5c:	b580      	push	{r7, lr}
 8000b5e:	b08a      	sub	sp, #40	; 0x28
 8000b60:	af00      	add	r7, sp, #0
 8000b62:	6078      	str	r0, [r7, #4]
  GPIO_InitTypeDef GPIO_InitStruct = {0};
 8000b64:	f107 0314 	add.w	r3, r7, #20
 8000b68:	2200      	movs	r2, #0
 8000b6a:	601a      	str	r2, [r3, #0]
 8000b6c:	605a      	str	r2, [r3, #4]
 8000b6e:	609a      	str	r2, [r3, #8]
 8000b70:	60da      	str	r2, [r3, #12]
 8000b72:	611a      	str	r2, [r3, #16]
  if(hspi->Instance==SPI1)
 8000b74:	687b      	ldr	r3, [r7, #4]
 8000b76:	681b      	ldr	r3, [r3, #0]
 8000b78:	4a19      	ldr	r2, [pc, #100]	; (8000be0 <HAL_SPI_MspInit+0x84>)
 8000b7a:	4293      	cmp	r3, r2
 8000b7c:	d12b      	bne.n	8000bd6 <HAL_SPI_MspInit+0x7a>
  {
  /* USER CODE BEGIN SPI1_MspInit 0 */

  /* USER CODE END SPI1_MspInit 0 */
    /* Peripheral clock enable */
    __HAL_RCC_SPI1_CLK_ENABLE();
 8000b7e:	2300      	movs	r3, #0
 8000b80:	613b      	str	r3, [r7, #16]
 8000b82:	4b18      	ldr	r3, [pc, #96]	; (8000be4 <HAL_SPI_MspInit+0x88>)
 8000b84:	6c5b      	ldr	r3, [r3, #68]	; 0x44
 8000b86:	4a17      	ldr	r2, [pc, #92]	; (8000be4 <HAL_SPI_MspInit+0x88>)
 8000b88:	f443 5380 	orr.w	r3, r3, #4096	; 0x1000
 8000b8c:	6453      	str	r3, [r2, #68]	; 0x44
 8000b8e:	4b15      	ldr	r3, [pc, #84]	; (8000be4 <HAL_SPI_MspInit+0x88>)
 8000b90:	6c5b      	ldr	r3, [r3, #68]	; 0x44
 8000b92:	f403 5380 	and.w	r3, r3, #4096	; 0x1000
 8000b96:	613b      	str	r3, [r7, #16]
 8000b98:	693b      	ldr	r3, [r7, #16]
  
    __HAL_RCC_GPIOA_CLK_ENABLE();
 8000b9a:	2300      	movs	r3, #0
 8000b9c:	60fb      	str	r3, [r7, #12]
 8000b9e:	4b11      	ldr	r3, [pc, #68]	; (8000be4 <HAL_SPI_MspInit+0x88>)
 8000ba0:	6b1b      	ldr	r3, [r3, #48]	; 0x30
 8000ba2:	4a10      	ldr	r2, [pc, #64]	; (8000be4 <HAL_SPI_MspInit+0x88>)
 8000ba4:	f043 0301 	orr.w	r3, r3, #1
 8000ba8:	6313      	str	r3, [r2, #48]	; 0x30
 8000baa:	4b0e      	ldr	r3, [pc, #56]	; (8000be4 <HAL_SPI_MspInit+0x88>)
 8000bac:	6b1b      	ldr	r3, [r3, #48]	; 0x30
 8000bae:	f003 0301 	and.w	r3, r3, #1
 8000bb2:	60fb      	str	r3, [r7, #12]
 8000bb4:	68fb      	ldr	r3, [r7, #12]
    /**SPI1 GPIO Configuration    
    PA5     ------> SPI1_SCK
    PA6     ------> SPI1_MISO
    PA7     ------> SPI1_MOSI 
    */
    GPIO_InitStruct.Pin = SPI1_SCK_Pin|SPI1_MISO_Pin|SPI1_MOSI_Pin;
 8000bb6:	23e0      	movs	r3, #224	; 0xe0
 8000bb8:	617b      	str	r3, [r7, #20]
    GPIO_InitStruct.Mode = GPIO_MODE_AF_PP;
 8000bba:	2302      	movs	r3, #2
 8000bbc:	61bb      	str	r3, [r7, #24]
    GPIO_InitStruct.Pull = GPIO_NOPULL;
 8000bbe:	2300      	movs	r3, #0
 8000bc0:	61fb      	str	r3, [r7, #28]
    GPIO_InitStruct.Speed = GPIO_SPEED_FREQ_LOW;
 8000bc2:	2300      	movs	r3, #0
 8000bc4:	623b      	str	r3, [r7, #32]
    GPIO_InitStruct.Alternate = GPIO_AF5_SPI1;
 8000bc6:	2305      	movs	r3, #5
 8000bc8:	627b      	str	r3, [r7, #36]	; 0x24
    HAL_GPIO_Init(GPIOA, &GPIO_InitStruct);
 8000bca:	f107 0314 	add.w	r3, r7, #20
 8000bce:	4619      	mov	r1, r3
 8000bd0:	4805      	ldr	r0, [pc, #20]	; (8000be8 <HAL_SPI_MspInit+0x8c>)
 8000bd2:	f000 fa9d 	bl	8001110 <HAL_GPIO_Init>
  /* USER CODE BEGIN SPI1_MspInit 1 */

  /* USER CODE END SPI1_MspInit 1 */
  }

}
 8000bd6:	bf00      	nop
 8000bd8:	3728      	adds	r7, #40	; 0x28
 8000bda:	46bd      	mov	sp, r7
 8000bdc:	bd80      	pop	{r7, pc}
 8000bde:	bf00      	nop
 8000be0:	40013000 	.word	0x40013000
 8000be4:	40023800 	.word	0x40023800
 8000be8:	40020000 	.word	0x40020000

08000bec <HAL_UART_MspInit>:
* This function configures the hardware resources used in this example
* @param huart: UART handle pointer
* @retval None
*/
void HAL_UART_MspInit(UART_HandleTypeDef* huart)
{
 8000bec:	b580      	push	{r7, lr}
 8000bee:	b08a      	sub	sp, #40	; 0x28
 8000bf0:	af00      	add	r7, sp, #0
 8000bf2:	6078      	str	r0, [r7, #4]
  GPIO_InitTypeDef GPIO_InitStruct = {0};
 8000bf4:	f107 0314 	add.w	r3, r7, #20
 8000bf8:	2200      	movs	r2, #0
 8000bfa:	601a      	str	r2, [r3, #0]
 8000bfc:	605a      	str	r2, [r3, #4]
 8000bfe:	609a      	str	r2, [r3, #8]
 8000c00:	60da      	str	r2, [r3, #12]
 8000c02:	611a      	str	r2, [r3, #16]
  if(huart->Instance==USART2)
 8000c04:	687b      	ldr	r3, [r7, #4]
 8000c06:	681b      	ldr	r3, [r3, #0]
 8000c08:	4a19      	ldr	r2, [pc, #100]	; (8000c70 <HAL_UART_MspInit+0x84>)
 8000c0a:	4293      	cmp	r3, r2
 8000c0c:	d12b      	bne.n	8000c66 <HAL_UART_MspInit+0x7a>
  {
  /* USER CODE BEGIN USART2_MspInit 0 */

  /* USER CODE END USART2_MspInit 0 */
    /* Peripheral clock enable */
    __HAL_RCC_USART2_CLK_ENABLE();
 8000c0e:	2300      	movs	r3, #0
 8000c10:	613b      	str	r3, [r7, #16]
 8000c12:	4b18      	ldr	r3, [pc, #96]	; (8000c74 <HAL_UART_MspInit+0x88>)
 8000c14:	6c1b      	ldr	r3, [r3, #64]	; 0x40
 8000c16:	4a17      	ldr	r2, [pc, #92]	; (8000c74 <HAL_UART_MspInit+0x88>)
 8000c18:	f443 3300 	orr.w	r3, r3, #131072	; 0x20000
 8000c1c:	6413      	str	r3, [r2, #64]	; 0x40
 8000c1e:	4b15      	ldr	r3, [pc, #84]	; (8000c74 <HAL_UART_MspInit+0x88>)
 8000c20:	6c1b      	ldr	r3, [r3, #64]	; 0x40
 8000c22:	f403 3300 	and.w	r3, r3, #131072	; 0x20000
 8000c26:	613b      	str	r3, [r7, #16]
 8000c28:	693b      	ldr	r3, [r7, #16]
  
    __HAL_RCC_GPIOA_CLK_ENABLE();
 8000c2a:	2300      	movs	r3, #0
 8000c2c:	60fb      	str	r3, [r7, #12]
 8000c2e:	4b11      	ldr	r3, [pc, #68]	; (8000c74 <HAL_UART_MspInit+0x88>)
 8000c30:	6b1b      	ldr	r3, [r3, #48]	; 0x30
 8000c32:	4a10      	ldr	r2, [pc, #64]	; (8000c74 <HAL_UART_MspInit+0x88>)
 8000c34:	f043 0301 	orr.w	r3, r3, #1
 8000c38:	6313      	str	r3, [r2, #48]	; 0x30
 8000c3a:	4b0e      	ldr	r3, [pc, #56]	; (8000c74 <HAL_UART_MspInit+0x88>)
 8000c3c:	6b1b      	ldr	r3, [r3, #48]	; 0x30
 8000c3e:	f003 0301 	and.w	r3, r3, #1
 8000c42:	60fb      	str	r3, [r7, #12]
 8000c44:	68fb      	ldr	r3, [r7, #12]
    /**USART2 GPIO Configuration    
    PA2     ------> USART2_TX
    PA3     ------> USART2_RX 
    */
    GPIO_InitStruct.Pin = GPIO_PIN_2|GPIO_PIN_3;
 8000c46:	230c      	movs	r3, #12
 8000c48:	617b      	str	r3, [r7, #20]
    GPIO_InitStruct.Mode = GPIO_MODE_AF_PP;
 8000c4a:	2302      	movs	r3, #2
 8000c4c:	61bb      	str	r3, [r7, #24]
    GPIO_InitStruct.Pull = GPIO_NOPULL;
 8000c4e:	2300      	movs	r3, #0
 8000c50:	61fb      	str	r3, [r7, #28]
    GPIO_InitStruct.Speed = GPIO_SPEED_FREQ_VERY_HIGH;
 8000c52:	2303      	movs	r3, #3
 8000c54:	623b      	str	r3, [r7, #32]
    GPIO_InitStruct.Alternate = GPIO_AF7_USART2;
 8000c56:	2307      	movs	r3, #7
 8000c58:	627b      	str	r3, [r7, #36]	; 0x24
    HAL_GPIO_Init(GPIOA, &GPIO_InitStruct);
 8000c5a:	f107 0314 	add.w	r3, r7, #20
 8000c5e:	4619      	mov	r1, r3
 8000c60:	4805      	ldr	r0, [pc, #20]	; (8000c78 <HAL_UART_MspInit+0x8c>)
 8000c62:	f000 fa55 	bl	8001110 <HAL_GPIO_Init>
  /* USER CODE BEGIN USART2_MspInit 1 */

  /* USER CODE END USART2_MspInit 1 */
  }

}
 8000c66:	bf00      	nop
 8000c68:	3728      	adds	r7, #40	; 0x28
 8000c6a:	46bd      	mov	sp, r7
 8000c6c:	bd80      	pop	{r7, pc}
 8000c6e:	bf00      	nop
 8000c70:	40004400 	.word	0x40004400
 8000c74:	40023800 	.word	0x40023800
 8000c78:	40020000 	.word	0x40020000

08000c7c <NMI_Handler>:
/******************************************************************************/
/**
  * @brief This function handles Non maskable interrupt.
  */
void NMI_Handler(void)
{
 8000c7c:	b480      	push	{r7}
 8000c7e:	af00      	add	r7, sp, #0

  /* USER CODE END NonMaskableInt_IRQn 0 */
  /* USER CODE BEGIN NonMaskableInt_IRQn 1 */

  /* USER CODE END NonMaskableInt_IRQn 1 */
}
 8000c80:	bf00      	nop
 8000c82:	46bd      	mov	sp, r7
 8000c84:	f85d 7b04 	ldr.w	r7, [sp], #4
 8000c88:	4770      	bx	lr

08000c8a <HardFault_Handler>:

/**
  * @brief This function handles Hard fault interrupt.
  */
void HardFault_Handler(void)
{
 8000c8a:	b480      	push	{r7}
 8000c8c:	af00      	add	r7, sp, #0
  /* USER CODE BEGIN HardFault_IRQn 0 */

  /* USER CODE END HardFault_IRQn 0 */
  while (1)
 8000c8e:	e7fe      	b.n	8000c8e <HardFault_Handler+0x4>

08000c90 <MemManage_Handler>:

/**
  * @brief This function handles Memory management fault.
  */
void MemManage_Handler(void)
{
 8000c90:	b480      	push	{r7}
 8000c92:	af00      	add	r7, sp, #0
  /* USER CODE BEGIN MemoryManagement_IRQn 0 */

  /* USER CODE END MemoryManagement_IRQn 0 */
  while (1)
 8000c94:	e7fe      	b.n	8000c94 <MemManage_Handler+0x4>

08000c96 <BusFault_Handler>:

/**
  * @brief This function handles Pre-fetch fault, memory access fault.
  */
void BusFault_Handler(void)
{
 8000c96:	b480      	push	{r7}
 8000c98:	af00      	add	r7, sp, #0
  /* USER CODE BEGIN BusFault_IRQn 0 */

  /* USER CODE END BusFault_IRQn 0 */
  while (1)
 8000c9a:	e7fe      	b.n	8000c9a <BusFault_Handler+0x4>

08000c9c <UsageFault_Handler>:

/**
  * @brief This function handles Undefined instruction or illegal state.
  */
void UsageFault_Handler(void)
{
 8000c9c:	b480      	push	{r7}
 8000c9e:	af00      	add	r7, sp, #0
  /* USER CODE BEGIN UsageFault_IRQn 0 */

  /* USER CODE END UsageFault_IRQn 0 */
  while (1)
 8000ca0:	e7fe      	b.n	8000ca0 <UsageFault_Handler+0x4>

08000ca2 <SVC_Handler>:

/**
  * @brief This function handles System service call via SWI instruction.
  */
void SVC_Handler(void)
{
 8000ca2:	b480      	push	{r7}
 8000ca4:	af00      	add	r7, sp, #0

  /* USER CODE END SVCall_IRQn 0 */
  /* USER CODE BEGIN SVCall_IRQn 1 */

  /* USER CODE END SVCall_IRQn 1 */
}
 8000ca6:	bf00      	nop
 8000ca8:	46bd      	mov	sp, r7
 8000caa:	f85d 7b04 	ldr.w	r7, [sp], #4
 8000cae:	4770      	bx	lr

08000cb0 <DebugMon_Handler>:

/**
  * @brief This function handles Debug monitor.
  */
void DebugMon_Handler(void)
{
 8000cb0:	b480      	push	{r7}
 8000cb2:	af00      	add	r7, sp, #0

  /* USER CODE END DebugMonitor_IRQn 0 */
  /* USER CODE BEGIN DebugMonitor_IRQn 1 */

  /* USER CODE END DebugMonitor_IRQn 1 */
}
 8000cb4:	bf00      	nop
 8000cb6:	46bd      	mov	sp, r7
 8000cb8:	f85d 7b04 	ldr.w	r7, [sp], #4
 8000cbc:	4770      	bx	lr

08000cbe <PendSV_Handler>:

/**
  * @brief This function handles Pendable request for system service.
  */
void PendSV_Handler(void)
{
 8000cbe:	b480      	push	{r7}
 8000cc0:	af00      	add	r7, sp, #0

  /* USER CODE END PendSV_IRQn 0 */
  /* USER CODE BEGIN PendSV_IRQn 1 */

  /* USER CODE END PendSV_IRQn 1 */
}
 8000cc2:	bf00      	nop
 8000cc4:	46bd      	mov	sp, r7
 8000cc6:	f85d 7b04 	ldr.w	r7, [sp], #4
 8000cca:	4770      	bx	lr

08000ccc <SysTick_Handler>:

/**
  * @brief This function handles System tick timer.
  */
void SysTick_Handler(void)
{
 8000ccc:	b580      	push	{r7, lr}
 8000cce:	af00      	add	r7, sp, #0
  /* USER CODE BEGIN SysTick_IRQn 0 */

  /* USER CODE END SysTick_IRQn 0 */
  HAL_IncTick();
 8000cd0:	f000 f8ca 	bl	8000e68 <HAL_IncTick>
  /* USER CODE BEGIN SysTick_IRQn 1 */

  /* USER CODE END SysTick_IRQn 1 */
}
 8000cd4:	bf00      	nop
 8000cd6:	bd80      	pop	{r7, pc}

08000cd8 <OTG_FS_IRQHandler>:

/**
  * @brief This function handles USB On The Go FS global interrupt.
  */
void OTG_FS_IRQHandler(void)
{
 8000cd8:	b580      	push	{r7, lr}
 8000cda:	af00      	add	r7, sp, #0
  /* USER CODE BEGIN OTG_FS_IRQn 0 */

  /* USER CODE END OTG_FS_IRQn 0 */
  HAL_HCD_IRQHandler(&hhcd_USB_OTG_FS);
 8000cdc:	4802      	ldr	r0, [pc, #8]	; (8000ce8 <OTG_FS_IRQHandler+0x10>)
 8000cde:	f000 fe59 	bl	8001994 <HAL_HCD_IRQHandler>
  /* USER CODE BEGIN OTG_FS_IRQn 1 */

  /* USER CODE END OTG_FS_IRQn 1 */
}
 8000ce2:	bf00      	nop
 8000ce4:	bd80      	pop	{r7, pc}
 8000ce6:	bf00      	nop
 8000ce8:	200005e0 	.word	0x200005e0

08000cec <_sbrk>:
/**
 _sbrk
 Increase program data space. Malloc and related functions depend on this
**/
caddr_t _sbrk(int incr)
{
 8000cec:	b580      	push	{r7, lr}
 8000cee:	b084      	sub	sp, #16
 8000cf0:	af00      	add	r7, sp, #0
 8000cf2:	6078      	str	r0, [r7, #4]
	extern char end asm("end");
	static char *heap_end;
	char *prev_heap_end;

	if (heap_end == 0)
 8000cf4:	4b11      	ldr	r3, [pc, #68]	; (8000d3c <_sbrk+0x50>)
 8000cf6:	681b      	ldr	r3, [r3, #0]
 8000cf8:	2b00      	cmp	r3, #0
 8000cfa:	d102      	bne.n	8000d02 <_sbrk+0x16>
		heap_end = &end;
 8000cfc:	4b0f      	ldr	r3, [pc, #60]	; (8000d3c <_sbrk+0x50>)
 8000cfe:	4a10      	ldr	r2, [pc, #64]	; (8000d40 <_sbrk+0x54>)
 8000d00:	601a      	str	r2, [r3, #0]

	prev_heap_end = heap_end;
 8000d02:	4b0e      	ldr	r3, [pc, #56]	; (8000d3c <_sbrk+0x50>)
 8000d04:	681b      	ldr	r3, [r3, #0]
 8000d06:	60fb      	str	r3, [r7, #12]
	if (heap_end + incr > stack_ptr)
 8000d08:	4b0c      	ldr	r3, [pc, #48]	; (8000d3c <_sbrk+0x50>)
 8000d0a:	681a      	ldr	r2, [r3, #0]
 8000d0c:	687b      	ldr	r3, [r7, #4]
 8000d0e:	4413      	add	r3, r2
 8000d10:	466a      	mov	r2, sp
 8000d12:	4293      	cmp	r3, r2
 8000d14:	d907      	bls.n	8000d26 <_sbrk+0x3a>
	{
		errno = ENOMEM;
 8000d16:	f007 fa75 	bl	8008204 <__errno>
 8000d1a:	4602      	mov	r2, r0
 8000d1c:	230c      	movs	r3, #12
 8000d1e:	6013      	str	r3, [r2, #0]
		return (caddr_t) -1;
 8000d20:	f04f 33ff 	mov.w	r3, #4294967295
 8000d24:	e006      	b.n	8000d34 <_sbrk+0x48>
	}

	heap_end += incr;
 8000d26:	4b05      	ldr	r3, [pc, #20]	; (8000d3c <_sbrk+0x50>)
 8000d28:	681a      	ldr	r2, [r3, #0]
 8000d2a:	687b      	ldr	r3, [r7, #4]
 8000d2c:	4413      	add	r3, r2
 8000d2e:	4a03      	ldr	r2, [pc, #12]	; (8000d3c <_sbrk+0x50>)
 8000d30:	6013      	str	r3, [r2, #0]

	return (caddr_t) prev_heap_end;
 8000d32:	68fb      	ldr	r3, [r7, #12]
}
 8000d34:	4618      	mov	r0, r3
 8000d36:	3710      	adds	r7, #16
 8000d38:	46bd      	mov	sp, r7
 8000d3a:	bd80      	pop	{r7, pc}
 8000d3c:	200000bc 	.word	0x200000bc
 8000d40:	200008a8 	.word	0x200008a8

08000d44 <SystemInit>:
  *         configuration.
  * @param  None
  * @retval None
  */
void SystemInit(void)
{
 8000d44:	b480      	push	{r7}
 8000d46:	af00      	add	r7, sp, #0
  /* FPU settings ------------------------------------------------------------*/
  #if (__FPU_PRESENT == 1) && (__FPU_USED == 1)
    SCB->CPACR |= ((3UL << 10*2)|(3UL << 11*2));  /* set CP10 and CP11 Full Access */
 8000d48:	4b08      	ldr	r3, [pc, #32]	; (8000d6c <SystemInit+0x28>)
 8000d4a:	f8d3 3088 	ldr.w	r3, [r3, #136]	; 0x88
 8000d4e:	4a07      	ldr	r2, [pc, #28]	; (8000d6c <SystemInit+0x28>)
 8000d50:	f443 0370 	orr.w	r3, r3, #15728640	; 0xf00000
 8000d54:	f8c2 3088 	str.w	r3, [r2, #136]	; 0x88

  /* Configure the Vector Table location add offset address ------------------*/
#ifdef VECT_TAB_SRAM
  SCB->VTOR = SRAM_BASE | VECT_TAB_OFFSET; /* Vector Table Relocation in Internal SRAM */
#else
  SCB->VTOR = FLASH_BASE | VECT_TAB_OFFSET; /* Vector Table Relocation in Internal FLASH */
 8000d58:	4b04      	ldr	r3, [pc, #16]	; (8000d6c <SystemInit+0x28>)
 8000d5a:	f04f 6200 	mov.w	r2, #134217728	; 0x8000000
 8000d5e:	609a      	str	r2, [r3, #8]
#endif
}
 8000d60:	bf00      	nop
 8000d62:	46bd      	mov	sp, r7
 8000d64:	f85d 7b04 	ldr.w	r7, [sp], #4
 8000d68:	4770      	bx	lr
 8000d6a:	bf00      	nop
 8000d6c:	e000ed00 	.word	0xe000ed00

08000d70 <Reset_Handler>:

    .section  .text.Reset_Handler
  .weak  Reset_Handler
  .type  Reset_Handler, %function
Reset_Handler:  
  ldr   sp, =_estack     /* set stack pointer */
 8000d70:	f8df d034 	ldr.w	sp, [pc, #52]	; 8000da8 <LoopFillZerobss+0x14>

/* Copy the data segment initializers from flash to SRAM */  
  movs  r1, #0
 8000d74:	2100      	movs	r1, #0
  b  LoopCopyDataInit
 8000d76:	e003      	b.n	8000d80 <LoopCopyDataInit>

08000d78 <CopyDataInit>:

CopyDataInit:
  ldr  r3, =_sidata
 8000d78:	4b0c      	ldr	r3, [pc, #48]	; (8000dac <LoopFillZerobss+0x18>)
  ldr  r3, [r3, r1]
 8000d7a:	585b      	ldr	r3, [r3, r1]
  str  r3, [r0, r1]
 8000d7c:	5043      	str	r3, [r0, r1]
  adds  r1, r1, #4
 8000d7e:	3104      	adds	r1, #4

08000d80 <LoopCopyDataInit>:
    
LoopCopyDataInit:
  ldr  r0, =_sdata
 8000d80:	480b      	ldr	r0, [pc, #44]	; (8000db0 <LoopFillZerobss+0x1c>)
  ldr  r3, =_edata
 8000d82:	4b0c      	ldr	r3, [pc, #48]	; (8000db4 <LoopFillZerobss+0x20>)
  adds  r2, r0, r1
 8000d84:	1842      	adds	r2, r0, r1
  cmp  r2, r3
 8000d86:	429a      	cmp	r2, r3
  bcc  CopyDataInit
 8000d88:	d3f6      	bcc.n	8000d78 <CopyDataInit>
  ldr  r2, =_sbss
 8000d8a:	4a0b      	ldr	r2, [pc, #44]	; (8000db8 <LoopFillZerobss+0x24>)
  b  LoopFillZerobss
 8000d8c:	e002      	b.n	8000d94 <LoopFillZerobss>

08000d8e <FillZerobss>:
/* Zero fill the bss segment. */  
FillZerobss:
  movs  r3, #0
 8000d8e:	2300      	movs	r3, #0
  str  r3, [r2], #4
 8000d90:	f842 3b04 	str.w	r3, [r2], #4

08000d94 <LoopFillZerobss>:
    
LoopFillZerobss:
  ldr  r3, = _ebss
 8000d94:	4b09      	ldr	r3, [pc, #36]	; (8000dbc <LoopFillZerobss+0x28>)
  cmp  r2, r3
 8000d96:	429a      	cmp	r2, r3
  bcc  FillZerobss
 8000d98:	d3f9      	bcc.n	8000d8e <FillZerobss>

/* Call the clock system intitialization function.*/
  bl  SystemInit   
 8000d9a:	f7ff ffd3 	bl	8000d44 <SystemInit>
/* Call static constructors */
    bl __libc_init_array
 8000d9e:	f007 fa37 	bl	8008210 <__libc_init_array>
/* Call the application's entry point.*/
  bl  main
 8000da2:	f7ff fb99 	bl	80004d8 <main>
  bx  lr    
 8000da6:	4770      	bx	lr
  ldr   sp, =_estack     /* set stack pointer */
 8000da8:	20020000 	.word	0x20020000
  ldr  r3, =_sidata
 8000dac:	08008440 	.word	0x08008440
  ldr  r0, =_sdata
 8000db0:	20000000 	.word	0x20000000
  ldr  r3, =_edata
 8000db4:	200000a0 	.word	0x200000a0
  ldr  r2, =_sbss
 8000db8:	200000a0 	.word	0x200000a0
  ldr  r3, = _ebss
 8000dbc:	200008a8 	.word	0x200008a8

08000dc0 <ADC_IRQHandler>:
 * @retval None       
*/
    .section  .text.Default_Handler,"ax",%progbits
Default_Handler:
Infinite_Loop:
  b  Infinite_Loop
 8000dc0:	e7fe      	b.n	8000dc0 <ADC_IRQHandler>
	...

08000dc4 <HAL_Init>:
  *         need to ensure that the SysTick time base is always set to 1 millisecond
  *         to have correct HAL operation.
  * @retval HAL status
  */
HAL_StatusTypeDef HAL_Init(void)
{
 8000dc4:	b580      	push	{r7, lr}
 8000dc6:	af00      	add	r7, sp, #0
  /* Configure Flash prefetch, Instruction cache, Data cache */ 
#if (INSTRUCTION_CACHE_ENABLE != 0U)
  __HAL_FLASH_INSTRUCTION_CACHE_ENABLE();
 8000dc8:	4b0e      	ldr	r3, [pc, #56]	; (8000e04 <HAL_Init+0x40>)
 8000dca:	681b      	ldr	r3, [r3, #0]
 8000dcc:	4a0d      	ldr	r2, [pc, #52]	; (8000e04 <HAL_Init+0x40>)
 8000dce:	f443 7300 	orr.w	r3, r3, #512	; 0x200
 8000dd2:	6013      	str	r3, [r2, #0]
#endif /* INSTRUCTION_CACHE_ENABLE */

#if (DATA_CACHE_ENABLE != 0U)
  __HAL_FLASH_DATA_CACHE_ENABLE();
 8000dd4:	4b0b      	ldr	r3, [pc, #44]	; (8000e04 <HAL_Init+0x40>)
 8000dd6:	681b      	ldr	r3, [r3, #0]
 8000dd8:	4a0a      	ldr	r2, [pc, #40]	; (8000e04 <HAL_Init+0x40>)
 8000dda:	f443 6380 	orr.w	r3, r3, #1024	; 0x400
 8000dde:	6013      	str	r3, [r2, #0]
#endif /* DATA_CACHE_ENABLE */

#if (PREFETCH_ENABLE != 0U)
  __HAL_FLASH_PREFETCH_BUFFER_ENABLE();
 8000de0:	4b08      	ldr	r3, [pc, #32]	; (8000e04 <HAL_Init+0x40>)
 8000de2:	681b      	ldr	r3, [r3, #0]
 8000de4:	4a07      	ldr	r2, [pc, #28]	; (8000e04 <HAL_Init+0x40>)
 8000de6:	f443 7380 	orr.w	r3, r3, #256	; 0x100
 8000dea:	6013      	str	r3, [r2, #0]
#endif /* PREFETCH_ENABLE */

  /* Set Interrupt Group Priority */
  HAL_NVIC_SetPriorityGrouping(NVIC_PRIORITYGROUP_4);
 8000dec:	2003      	movs	r0, #3
 8000dee:	f000 f94d 	bl	800108c <HAL_NVIC_SetPriorityGrouping>

  /* Use systick as time base source and configure 1ms tick (default clock after Reset is HSI) */
  HAL_InitTick(TICK_INT_PRIORITY);
 8000df2:	2000      	movs	r0, #0
 8000df4:	f000 f808 	bl	8000e08 <HAL_InitTick>

  /* Init the low level hardware */
  HAL_MspInit();
 8000df8:	f7ff fdd8 	bl	80009ac <HAL_MspInit>

  /* Return function status */
  return HAL_OK;
 8000dfc:	2300      	movs	r3, #0
}
 8000dfe:	4618      	mov	r0, r3
 8000e00:	bd80      	pop	{r7, pc}
 8000e02:	bf00      	nop
 8000e04:	40023c00 	.word	0x40023c00

08000e08 <HAL_InitTick>:
  *       implementation  in user file.
  * @param TickPriority Tick interrupt priority.
  * @retval HAL status
  */
__weak HAL_StatusTypeDef HAL_InitTick(uint32_t TickPriority)
{
 8000e08:	b580      	push	{r7, lr}
 8000e0a:	b082      	sub	sp, #8
 8000e0c:	af00      	add	r7, sp, #0
 8000e0e:	6078      	str	r0, [r7, #4]
  /* Configure the SysTick to have interrupt in 1ms time basis*/
  if (HAL_SYSTICK_Config(SystemCoreClock / (1000U / uwTickFreq)) > 0U)
 8000e10:	4b12      	ldr	r3, [pc, #72]	; (8000e5c <HAL_InitTick+0x54>)
 8000e12:	681a      	ldr	r2, [r3, #0]
 8000e14:	4b12      	ldr	r3, [pc, #72]	; (8000e60 <HAL_InitTick+0x58>)
 8000e16:	781b      	ldrb	r3, [r3, #0]
 8000e18:	4619      	mov	r1, r3
 8000e1a:	f44f 737a 	mov.w	r3, #1000	; 0x3e8
 8000e1e:	fbb3 f3f1 	udiv	r3, r3, r1
 8000e22:	fbb2 f3f3 	udiv	r3, r2, r3
 8000e26:	4618      	mov	r0, r3
 8000e28:	f000 f965 	bl	80010f6 <HAL_SYSTICK_Config>
 8000e2c:	4603      	mov	r3, r0
 8000e2e:	2b00      	cmp	r3, #0
 8000e30:	d001      	beq.n	8000e36 <HAL_InitTick+0x2e>
  {
    return HAL_ERROR;
 8000e32:	2301      	movs	r3, #1
 8000e34:	e00e      	b.n	8000e54 <HAL_InitTick+0x4c>
  }

  /* Configure the SysTick IRQ priority */
  if (TickPriority < (1UL << __NVIC_PRIO_BITS))
 8000e36:	687b      	ldr	r3, [r7, #4]
 8000e38:	2b0f      	cmp	r3, #15
 8000e3a:	d80a      	bhi.n	8000e52 <HAL_InitTick+0x4a>
  {
    HAL_NVIC_SetPriority(SysTick_IRQn, TickPriority, 0U);
 8000e3c:	2200      	movs	r2, #0
 8000e3e:	6879      	ldr	r1, [r7, #4]
 8000e40:	f04f 30ff 	mov.w	r0, #4294967295
 8000e44:	f000 f92d 	bl	80010a2 <HAL_NVIC_SetPriority>
    uwTickPrio = TickPriority;
 8000e48:	4a06      	ldr	r2, [pc, #24]	; (8000e64 <HAL_InitTick+0x5c>)
 8000e4a:	687b      	ldr	r3, [r7, #4]
 8000e4c:	6013      	str	r3, [r2, #0]
  {
    return HAL_ERROR;
  }

  /* Return function status */
  return HAL_OK;
 8000e4e:	2300      	movs	r3, #0
 8000e50:	e000      	b.n	8000e54 <HAL_InitTick+0x4c>
    return HAL_ERROR;
 8000e52:	2301      	movs	r3, #1
}
 8000e54:	4618      	mov	r0, r3
 8000e56:	3708      	adds	r7, #8
 8000e58:	46bd      	mov	sp, r7
 8000e5a:	bd80      	pop	{r7, pc}
 8000e5c:	20000010 	.word	0x20000010
 8000e60:	20000018 	.word	0x20000018
 8000e64:	20000014 	.word	0x20000014

08000e68 <HAL_IncTick>:
 * @note This function is declared as __weak to be overwritten in case of other 
  *      implementations in user file.
  * @retval None
  */
__weak void HAL_IncTick(void)
{
 8000e68:	b480      	push	{r7}
 8000e6a:	af00      	add	r7, sp, #0
  uwTick += uwTickFreq;
 8000e6c:	4b06      	ldr	r3, [pc, #24]	; (8000e88 <HAL_IncTick+0x20>)
 8000e6e:	781b      	ldrb	r3, [r3, #0]
 8000e70:	461a      	mov	r2, r3
 8000e72:	4b06      	ldr	r3, [pc, #24]	; (8000e8c <HAL_IncTick+0x24>)
 8000e74:	681b      	ldr	r3, [r3, #0]
 8000e76:	4413      	add	r3, r2
 8000e78:	4a04      	ldr	r2, [pc, #16]	; (8000e8c <HAL_IncTick+0x24>)
 8000e7a:	6013      	str	r3, [r2, #0]
}
 8000e7c:	bf00      	nop
 8000e7e:	46bd      	mov	sp, r7
 8000e80:	f85d 7b04 	ldr.w	r7, [sp], #4
 8000e84:	4770      	bx	lr
 8000e86:	bf00      	nop
 8000e88:	20000018 	.word	0x20000018
 8000e8c:	20000204 	.word	0x20000204

08000e90 <HAL_GetTick>:
  * @note This function is declared as __weak to be overwritten in case of other 
  *       implementations in user file.
  * @retval tick value
  */
__weak uint32_t HAL_GetTick(void)
{
 8000e90:	b480      	push	{r7}
 8000e92:	af00      	add	r7, sp, #0
  return uwTick;
 8000e94:	4b03      	ldr	r3, [pc, #12]	; (8000ea4 <HAL_GetTick+0x14>)
 8000e96:	681b      	ldr	r3, [r3, #0]
}
 8000e98:	4618      	mov	r0, r3
 8000e9a:	46bd      	mov	sp, r7
 8000e9c:	f85d 7b04 	ldr.w	r7, [sp], #4
 8000ea0:	4770      	bx	lr
 8000ea2:	bf00      	nop
 8000ea4:	20000204 	.word	0x20000204

08000ea8 <HAL_Delay>:
  *       implementations in user file.
  * @param Delay specifies the delay time length, in milliseconds.
  * @retval None
  */
__weak void HAL_Delay(uint32_t Delay)
{
 8000ea8:	b580      	push	{r7, lr}
 8000eaa:	b084      	sub	sp, #16
 8000eac:	af00      	add	r7, sp, #0
 8000eae:	6078      	str	r0, [r7, #4]
  uint32_t tickstart = HAL_GetTick();
 8000eb0:	f7ff ffee 	bl	8000e90 <HAL_GetTick>
 8000eb4:	60b8      	str	r0, [r7, #8]
  uint32_t wait = Delay;
 8000eb6:	687b      	ldr	r3, [r7, #4]
 8000eb8:	60fb      	str	r3, [r7, #12]

  /* Add a freq to guarantee minimum wait */
  if (wait < HAL_MAX_DELAY)
 8000eba:	68fb      	ldr	r3, [r7, #12]
 8000ebc:	f1b3 3fff 	cmp.w	r3, #4294967295
 8000ec0:	d005      	beq.n	8000ece <HAL_Delay+0x26>
  {
    wait += (uint32_t)(uwTickFreq);
 8000ec2:	4b09      	ldr	r3, [pc, #36]	; (8000ee8 <HAL_Delay+0x40>)
 8000ec4:	781b      	ldrb	r3, [r3, #0]
 8000ec6:	461a      	mov	r2, r3
 8000ec8:	68fb      	ldr	r3, [r7, #12]
 8000eca:	4413      	add	r3, r2
 8000ecc:	60fb      	str	r3, [r7, #12]
  }

  while((HAL_GetTick() - tickstart) < wait)
 8000ece:	bf00      	nop
 8000ed0:	f7ff ffde 	bl	8000e90 <HAL_GetTick>
 8000ed4:	4602      	mov	r2, r0
 8000ed6:	68bb      	ldr	r3, [r7, #8]
 8000ed8:	1ad3      	subs	r3, r2, r3
 8000eda:	68fa      	ldr	r2, [r7, #12]
 8000edc:	429a      	cmp	r2, r3
 8000ede:	d8f7      	bhi.n	8000ed0 <HAL_Delay+0x28>
  {
  }
}
 8000ee0:	bf00      	nop
 8000ee2:	3710      	adds	r7, #16
 8000ee4:	46bd      	mov	sp, r7
 8000ee6:	bd80      	pop	{r7, pc}
 8000ee8:	20000018 	.word	0x20000018

08000eec <__NVIC_SetPriorityGrouping>:
           In case of a conflict between priority grouping and available
           priority bits (__NVIC_PRIO_BITS), the smallest possible priority group is set.
  \param [in]      PriorityGroup  Priority grouping field.
 */
__STATIC_INLINE void __NVIC_SetPriorityGrouping(uint32_t PriorityGroup)
{
 8000eec:	b480      	push	{r7}
 8000eee:	b085      	sub	sp, #20
 8000ef0:	af00      	add	r7, sp, #0
 8000ef2:	6078      	str	r0, [r7, #4]
  uint32_t reg_value;
  uint32_t PriorityGroupTmp = (PriorityGroup & (uint32_t)0x07UL);             /* only values 0..7 are used          */
 8000ef4:	687b      	ldr	r3, [r7, #4]
 8000ef6:	f003 0307 	and.w	r3, r3, #7
 8000efa:	60fb      	str	r3, [r7, #12]

  reg_value  =  SCB->AIRCR;                                                   /* read old register configuration    */
 8000efc:	4b0c      	ldr	r3, [pc, #48]	; (8000f30 <__NVIC_SetPriorityGrouping+0x44>)
 8000efe:	68db      	ldr	r3, [r3, #12]
 8000f00:	60bb      	str	r3, [r7, #8]
  reg_value &= ~((uint32_t)(SCB_AIRCR_VECTKEY_Msk | SCB_AIRCR_PRIGROUP_Msk)); /* clear bits to change               */
 8000f02:	68ba      	ldr	r2, [r7, #8]
 8000f04:	f64f 03ff 	movw	r3, #63743	; 0xf8ff
 8000f08:	4013      	ands	r3, r2
 8000f0a:	60bb      	str	r3, [r7, #8]
  reg_value  =  (reg_value                                   |
                ((uint32_t)0x5FAUL << SCB_AIRCR_VECTKEY_Pos) |
                (PriorityGroupTmp << SCB_AIRCR_PRIGROUP_Pos)  );              /* Insert write key and priority group */
 8000f0c:	68fb      	ldr	r3, [r7, #12]
 8000f0e:	021a      	lsls	r2, r3, #8
                ((uint32_t)0x5FAUL << SCB_AIRCR_VECTKEY_Pos) |
 8000f10:	68bb      	ldr	r3, [r7, #8]
 8000f12:	4313      	orrs	r3, r2
  reg_value  =  (reg_value                                   |
 8000f14:	f043 63bf 	orr.w	r3, r3, #100139008	; 0x5f80000
 8000f18:	f443 3300 	orr.w	r3, r3, #131072	; 0x20000
 8000f1c:	60bb      	str	r3, [r7, #8]
  SCB->AIRCR =  reg_value;
 8000f1e:	4a04      	ldr	r2, [pc, #16]	; (8000f30 <__NVIC_SetPriorityGrouping+0x44>)
 8000f20:	68bb      	ldr	r3, [r7, #8]
 8000f22:	60d3      	str	r3, [r2, #12]
}
 8000f24:	bf00      	nop
 8000f26:	3714      	adds	r7, #20
 8000f28:	46bd      	mov	sp, r7
 8000f2a:	f85d 7b04 	ldr.w	r7, [sp], #4
 8000f2e:	4770      	bx	lr
 8000f30:	e000ed00 	.word	0xe000ed00

08000f34 <__NVIC_GetPriorityGrouping>:
  \brief   Get Priority Grouping
  \details Reads the priority grouping field from the NVIC Interrupt Controller.
  \return                Priority grouping field (SCB->AIRCR [10:8] PRIGROUP field).
 */
__STATIC_INLINE uint32_t __NVIC_GetPriorityGrouping(void)
{
 8000f34:	b480      	push	{r7}
 8000f36:	af00      	add	r7, sp, #0
  return ((uint32_t)((SCB->AIRCR & SCB_AIRCR_PRIGROUP_Msk) >> SCB_AIRCR_PRIGROUP_Pos));
 8000f38:	4b04      	ldr	r3, [pc, #16]	; (8000f4c <__NVIC_GetPriorityGrouping+0x18>)
 8000f3a:	68db      	ldr	r3, [r3, #12]
 8000f3c:	0a1b      	lsrs	r3, r3, #8
 8000f3e:	f003 0307 	and.w	r3, r3, #7
}
 8000f42:	4618      	mov	r0, r3
 8000f44:	46bd      	mov	sp, r7
 8000f46:	f85d 7b04 	ldr.w	r7, [sp], #4
 8000f4a:	4770      	bx	lr
 8000f4c:	e000ed00 	.word	0xe000ed00

08000f50 <__NVIC_EnableIRQ>:
  \details Enables a device specific interrupt in the NVIC interrupt controller.
  \param [in]      IRQn  Device specific interrupt number.
  \note    IRQn must not be negative.
 */
__STATIC_INLINE void __NVIC_EnableIRQ(IRQn_Type IRQn)
{
 8000f50:	b480      	push	{r7}
 8000f52:	b083      	sub	sp, #12
 8000f54:	af00      	add	r7, sp, #0
 8000f56:	4603      	mov	r3, r0
 8000f58:	71fb      	strb	r3, [r7, #7]
  if ((int32_t)(IRQn) >= 0)
 8000f5a:	f997 3007 	ldrsb.w	r3, [r7, #7]
 8000f5e:	2b00      	cmp	r3, #0
 8000f60:	db0b      	blt.n	8000f7a <__NVIC_EnableIRQ+0x2a>
  {
    NVIC->ISER[(((uint32_t)IRQn) >> 5UL)] = (uint32_t)(1UL << (((uint32_t)IRQn) & 0x1FUL));
 8000f62:	79fb      	ldrb	r3, [r7, #7]
 8000f64:	f003 021f 	and.w	r2, r3, #31
 8000f68:	4907      	ldr	r1, [pc, #28]	; (8000f88 <__NVIC_EnableIRQ+0x38>)
 8000f6a:	f997 3007 	ldrsb.w	r3, [r7, #7]
 8000f6e:	095b      	lsrs	r3, r3, #5
 8000f70:	2001      	movs	r0, #1
 8000f72:	fa00 f202 	lsl.w	r2, r0, r2
 8000f76:	f841 2023 	str.w	r2, [r1, r3, lsl #2]
  }
}
 8000f7a:	bf00      	nop
 8000f7c:	370c      	adds	r7, #12
 8000f7e:	46bd      	mov	sp, r7
 8000f80:	f85d 7b04 	ldr.w	r7, [sp], #4
 8000f84:	4770      	bx	lr
 8000f86:	bf00      	nop
 8000f88:	e000e100 	.word	0xe000e100

08000f8c <__NVIC_SetPriority>:
  \param [in]      IRQn  Interrupt number.
  \param [in]  priority  Priority to set.
  \note    The priority cannot be set for every processor exception.
 */
__STATIC_INLINE void __NVIC_SetPriority(IRQn_Type IRQn, uint32_t priority)
{
 8000f8c:	b480      	push	{r7}
 8000f8e:	b083      	sub	sp, #12
 8000f90:	af00      	add	r7, sp, #0
 8000f92:	4603      	mov	r3, r0
 8000f94:	6039      	str	r1, [r7, #0]
 8000f96:	71fb      	strb	r3, [r7, #7]
  if ((int32_t)(IRQn) >= 0)
 8000f98:	f997 3007 	ldrsb.w	r3, [r7, #7]
 8000f9c:	2b00      	cmp	r3, #0
 8000f9e:	db0a      	blt.n	8000fb6 <__NVIC_SetPriority+0x2a>
  {
    NVIC->IP[((uint32_t)IRQn)]               = (uint8_t)((priority << (8U - __NVIC_PRIO_BITS)) & (uint32_t)0xFFUL);
 8000fa0:	683b      	ldr	r3, [r7, #0]
 8000fa2:	b2da      	uxtb	r2, r3
 8000fa4:	490c      	ldr	r1, [pc, #48]	; (8000fd8 <__NVIC_SetPriority+0x4c>)
 8000fa6:	f997 3007 	ldrsb.w	r3, [r7, #7]
 8000faa:	0112      	lsls	r2, r2, #4
 8000fac:	b2d2      	uxtb	r2, r2
 8000fae:	440b      	add	r3, r1
 8000fb0:	f883 2300 	strb.w	r2, [r3, #768]	; 0x300
  }
  else
  {
    SCB->SHP[(((uint32_t)IRQn) & 0xFUL)-4UL] = (uint8_t)((priority << (8U - __NVIC_PRIO_BITS)) & (uint32_t)0xFFUL);
  }
}
 8000fb4:	e00a      	b.n	8000fcc <__NVIC_SetPriority+0x40>
    SCB->SHP[(((uint32_t)IRQn) & 0xFUL)-4UL] = (uint8_t)((priority << (8U - __NVIC_PRIO_BITS)) & (uint32_t)0xFFUL);
 8000fb6:	683b      	ldr	r3, [r7, #0]
 8000fb8:	b2da      	uxtb	r2, r3
 8000fba:	4908      	ldr	r1, [pc, #32]	; (8000fdc <__NVIC_SetPriority+0x50>)
 8000fbc:	79fb      	ldrb	r3, [r7, #7]
 8000fbe:	f003 030f 	and.w	r3, r3, #15
 8000fc2:	3b04      	subs	r3, #4
 8000fc4:	0112      	lsls	r2, r2, #4
 8000fc6:	b2d2      	uxtb	r2, r2
 8000fc8:	440b      	add	r3, r1
 8000fca:	761a      	strb	r2, [r3, #24]
}
 8000fcc:	bf00      	nop
 8000fce:	370c      	adds	r7, #12
 8000fd0:	46bd      	mov	sp, r7
 8000fd2:	f85d 7b04 	ldr.w	r7, [sp], #4
 8000fd6:	4770      	bx	lr
 8000fd8:	e000e100 	.word	0xe000e100
 8000fdc:	e000ed00 	.word	0xe000ed00

08000fe0 <NVIC_EncodePriority>:
  \param [in]   PreemptPriority  Preemptive priority value (starting from 0).
  \param [in]       SubPriority  Subpriority value (starting from 0).
  \return                        Encoded priority. Value can be used in the function \ref NVIC_SetPriority().
 */
__STATIC_INLINE uint32_t NVIC_EncodePriority (uint32_t PriorityGroup, uint32_t PreemptPriority, uint32_t SubPriority)
{
 8000fe0:	b480      	push	{r7}
 8000fe2:	b089      	sub	sp, #36	; 0x24
 8000fe4:	af00      	add	r7, sp, #0
 8000fe6:	60f8      	str	r0, [r7, #12]
 8000fe8:	60b9      	str	r1, [r7, #8]
 8000fea:	607a      	str	r2, [r7, #4]
  uint32_t PriorityGroupTmp = (PriorityGroup & (uint32_t)0x07UL);   /* only values 0..7 are used          */
 8000fec:	68fb      	ldr	r3, [r7, #12]
 8000fee:	f003 0307 	and.w	r3, r3, #7
 8000ff2:	61fb      	str	r3, [r7, #28]
  uint32_t PreemptPriorityBits;
  uint32_t SubPriorityBits;

  PreemptPriorityBits = ((7UL - PriorityGroupTmp) > (uint32_t)(__NVIC_PRIO_BITS)) ? (uint32_t)(__NVIC_PRIO_BITS) : (uint32_t)(7UL - PriorityGroupTmp);
 8000ff4:	69fb      	ldr	r3, [r7, #28]
 8000ff6:	f1c3 0307 	rsb	r3, r3, #7
 8000ffa:	2b04      	cmp	r3, #4
 8000ffc:	bf28      	it	cs
 8000ffe:	2304      	movcs	r3, #4
 8001000:	61bb      	str	r3, [r7, #24]
  SubPriorityBits     = ((PriorityGroupTmp + (uint32_t)(__NVIC_PRIO_BITS)) < (uint32_t)7UL) ? (uint32_t)0UL : (uint32_t)((PriorityGroupTmp - 7UL) + (uint32_t)(__NVIC_PRIO_BITS));
 8001002:	69fb      	ldr	r3, [r7, #28]
 8001004:	3304      	adds	r3, #4
 8001006:	2b06      	cmp	r3, #6
 8001008:	d902      	bls.n	8001010 <NVIC_EncodePriority+0x30>
 800100a:	69fb      	ldr	r3, [r7, #28]
 800100c:	3b03      	subs	r3, #3
 800100e:	e000      	b.n	8001012 <NVIC_EncodePriority+0x32>
 8001010:	2300      	movs	r3, #0
 8001012:	617b      	str	r3, [r7, #20]

  return (
           ((PreemptPriority & (uint32_t)((1UL << (PreemptPriorityBits)) - 1UL)) << SubPriorityBits) |
 8001014:	f04f 32ff 	mov.w	r2, #4294967295
 8001018:	69bb      	ldr	r3, [r7, #24]
 800101a:	fa02 f303 	lsl.w	r3, r2, r3
 800101e:	43da      	mvns	r2, r3
 8001020:	68bb      	ldr	r3, [r7, #8]
 8001022:	401a      	ands	r2, r3
 8001024:	697b      	ldr	r3, [r7, #20]
 8001026:	409a      	lsls	r2, r3
           ((SubPriority     & (uint32_t)((1UL << (SubPriorityBits    )) - 1UL)))
 8001028:	f04f 31ff 	mov.w	r1, #4294967295
 800102c:	697b      	ldr	r3, [r7, #20]
 800102e:	fa01 f303 	lsl.w	r3, r1, r3
 8001032:	43d9      	mvns	r1, r3
 8001034:	687b      	ldr	r3, [r7, #4]
 8001036:	400b      	ands	r3, r1
           ((PreemptPriority & (uint32_t)((1UL << (PreemptPriorityBits)) - 1UL)) << SubPriorityBits) |
 8001038:	4313      	orrs	r3, r2
         );
}
 800103a:	4618      	mov	r0, r3
 800103c:	3724      	adds	r7, #36	; 0x24
 800103e:	46bd      	mov	sp, r7
 8001040:	f85d 7b04 	ldr.w	r7, [sp], #4
 8001044:	4770      	bx	lr
	...

08001048 <SysTick_Config>:
  \note    When the variable <b>__Vendor_SysTickConfig</b> is set to 1, then the
           function <b>SysTick_Config</b> is not included. In this case, the file <b><i>device</i>.h</b>
           must contain a vendor-specific implementation of this function.
 */
__STATIC_INLINE uint32_t SysTick_Config(uint32_t ticks)
{
 8001048:	b580      	push	{r7, lr}
 800104a:	b082      	sub	sp, #8
 800104c:	af00      	add	r7, sp, #0
 800104e:	6078      	str	r0, [r7, #4]
  if ((ticks - 1UL) > SysTick_LOAD_RELOAD_Msk)
 8001050:	687b      	ldr	r3, [r7, #4]
 8001052:	3b01      	subs	r3, #1
 8001054:	f1b3 7f80 	cmp.w	r3, #16777216	; 0x1000000
 8001058:	d301      	bcc.n	800105e <SysTick_Config+0x16>
  {
    return (1UL);                                                   /* Reload value impossible */
 800105a:	2301      	movs	r3, #1
 800105c:	e00f      	b.n	800107e <SysTick_Config+0x36>
  }

  SysTick->LOAD  = (uint32_t)(ticks - 1UL);                         /* set reload register */
 800105e:	4a0a      	ldr	r2, [pc, #40]	; (8001088 <SysTick_Config+0x40>)
 8001060:	687b      	ldr	r3, [r7, #4]
 8001062:	3b01      	subs	r3, #1
 8001064:	6053      	str	r3, [r2, #4]
  NVIC_SetPriority (SysTick_IRQn, (1UL << __NVIC_PRIO_BITS) - 1UL); /* set Priority for Systick Interrupt */
 8001066:	210f      	movs	r1, #15
 8001068:	f04f 30ff 	mov.w	r0, #4294967295
 800106c:	f7ff ff8e 	bl	8000f8c <__NVIC_SetPriority>
  SysTick->VAL   = 0UL;                                             /* Load the SysTick Counter Value */
 8001070:	4b05      	ldr	r3, [pc, #20]	; (8001088 <SysTick_Config+0x40>)
 8001072:	2200      	movs	r2, #0
 8001074:	609a      	str	r2, [r3, #8]
  SysTick->CTRL  = SysTick_CTRL_CLKSOURCE_Msk |
 8001076:	4b04      	ldr	r3, [pc, #16]	; (8001088 <SysTick_Config+0x40>)
 8001078:	2207      	movs	r2, #7
 800107a:	601a      	str	r2, [r3, #0]
                   SysTick_CTRL_TICKINT_Msk   |
                   SysTick_CTRL_ENABLE_Msk;                         /* Enable SysTick IRQ and SysTick Timer */
  return (0UL);                                                     /* Function successful */
 800107c:	2300      	movs	r3, #0
}
 800107e:	4618      	mov	r0, r3
 8001080:	3708      	adds	r7, #8
 8001082:	46bd      	mov	sp, r7
 8001084:	bd80      	pop	{r7, pc}
 8001086:	bf00      	nop
 8001088:	e000e010 	.word	0xe000e010

0800108c <HAL_NVIC_SetPriorityGrouping>:
  * @note   When the NVIC_PriorityGroup_0 is selected, IRQ preemption is no more possible. 
  *         The pending IRQ priority will be managed only by the subpriority. 
  * @retval None
  */
void HAL_NVIC_SetPriorityGrouping(uint32_t PriorityGroup)
{
 800108c:	b580      	push	{r7, lr}
 800108e:	b082      	sub	sp, #8
 8001090:	af00      	add	r7, sp, #0
 8001092:	6078      	str	r0, [r7, #4]
  /* Check the parameters */
  assert_param(IS_NVIC_PRIORITY_GROUP(PriorityGroup));
  
  /* Set the PRIGROUP[10:8] bits according to the PriorityGroup parameter value */
  NVIC_SetPriorityGrouping(PriorityGroup);
 8001094:	6878      	ldr	r0, [r7, #4]
 8001096:	f7ff ff29 	bl	8000eec <__NVIC_SetPriorityGrouping>
}
 800109a:	bf00      	nop
 800109c:	3708      	adds	r7, #8
 800109e:	46bd      	mov	sp, r7
 80010a0:	bd80      	pop	{r7, pc}

080010a2 <HAL_NVIC_SetPriority>:
  *         This parameter can be a value between 0 and 15
  *         A lower priority value indicates a higher priority.          
  * @retval None
  */
void HAL_NVIC_SetPriority(IRQn_Type IRQn, uint32_t PreemptPriority, uint32_t SubPriority)
{ 
 80010a2:	b580      	push	{r7, lr}
 80010a4:	b086      	sub	sp, #24
 80010a6:	af00      	add	r7, sp, #0
 80010a8:	4603      	mov	r3, r0
 80010aa:	60b9      	str	r1, [r7, #8]
 80010ac:	607a      	str	r2, [r7, #4]
 80010ae:	73fb      	strb	r3, [r7, #15]
  uint32_t prioritygroup = 0x00U;
 80010b0:	2300      	movs	r3, #0
 80010b2:	617b      	str	r3, [r7, #20]
  
  /* Check the parameters */
  assert_param(IS_NVIC_SUB_PRIORITY(SubPriority));
  assert_param(IS_NVIC_PREEMPTION_PRIORITY(PreemptPriority));
  
  prioritygroup = NVIC_GetPriorityGrouping();
 80010b4:	f7ff ff3e 	bl	8000f34 <__NVIC_GetPriorityGrouping>
 80010b8:	6178      	str	r0, [r7, #20]
  
  NVIC_SetPriority(IRQn, NVIC_EncodePriority(prioritygroup, PreemptPriority, SubPriority));
 80010ba:	687a      	ldr	r2, [r7, #4]
 80010bc:	68b9      	ldr	r1, [r7, #8]
 80010be:	6978      	ldr	r0, [r7, #20]
 80010c0:	f7ff ff8e 	bl	8000fe0 <NVIC_EncodePriority>
 80010c4:	4602      	mov	r2, r0
 80010c6:	f997 300f 	ldrsb.w	r3, [r7, #15]
 80010ca:	4611      	mov	r1, r2
 80010cc:	4618      	mov	r0, r3
 80010ce:	f7ff ff5d 	bl	8000f8c <__NVIC_SetPriority>
}
 80010d2:	bf00      	nop
 80010d4:	3718      	adds	r7, #24
 80010d6:	46bd      	mov	sp, r7
 80010d8:	bd80      	pop	{r7, pc}

080010da <HAL_NVIC_EnableIRQ>:
  *         This parameter can be an enumerator of IRQn_Type enumeration
  *         (For the complete STM32 Devices IRQ Channels list, please refer to the appropriate CMSIS device file (stm32f4xxxx.h))
  * @retval None
  */
void HAL_NVIC_EnableIRQ(IRQn_Type IRQn)
{
 80010da:	b580      	push	{r7, lr}
 80010dc:	b082      	sub	sp, #8
 80010de:	af00      	add	r7, sp, #0
 80010e0:	4603      	mov	r3, r0
 80010e2:	71fb      	strb	r3, [r7, #7]
  /* Check the parameters */
  assert_param(IS_NVIC_DEVICE_IRQ(IRQn));
  
  /* Enable interrupt */
  NVIC_EnableIRQ(IRQn);
 80010e4:	f997 3007 	ldrsb.w	r3, [r7, #7]
 80010e8:	4618      	mov	r0, r3
 80010ea:	f7ff ff31 	bl	8000f50 <__NVIC_EnableIRQ>
}
 80010ee:	bf00      	nop
 80010f0:	3708      	adds	r7, #8
 80010f2:	46bd      	mov	sp, r7
 80010f4:	bd80      	pop	{r7, pc}

080010f6 <HAL_SYSTICK_Config>:
  * @param  TicksNumb Specifies the ticks Number of ticks between two interrupts.
  * @retval status:  - 0  Function succeeded.
  *                  - 1  Function failed.
  */
uint32_t HAL_SYSTICK_Config(uint32_t TicksNumb)
{
 80010f6:	b580      	push	{r7, lr}
 80010f8:	b082      	sub	sp, #8
 80010fa:	af00      	add	r7, sp, #0
 80010fc:	6078      	str	r0, [r7, #4]
   return SysTick_Config(TicksNumb);
 80010fe:	6878      	ldr	r0, [r7, #4]
 8001100:	f7ff ffa2 	bl	8001048 <SysTick_Config>
 8001104:	4603      	mov	r3, r0
}
 8001106:	4618      	mov	r0, r3
 8001108:	3708      	adds	r7, #8
 800110a:	46bd      	mov	sp, r7
 800110c:	bd80      	pop	{r7, pc}
	...

08001110 <HAL_GPIO_Init>:
  * @param  GPIO_Init pointer to a GPIO_InitTypeDef structure that contains
  *         the configuration information for the specified GPIO peripheral.
  * @retval None
  */
void HAL_GPIO_Init(GPIO_TypeDef  *GPIOx, GPIO_InitTypeDef *GPIO_Init)
{
 8001110:	b480      	push	{r7}
 8001112:	b089      	sub	sp, #36	; 0x24
 8001114:	af00      	add	r7, sp, #0
 8001116:	6078      	str	r0, [r7, #4]
 8001118:	6039      	str	r1, [r7, #0]
  uint32_t position;
  uint32_t ioposition = 0x00U;
 800111a:	2300      	movs	r3, #0
 800111c:	617b      	str	r3, [r7, #20]
  uint32_t iocurrent = 0x00U;
 800111e:	2300      	movs	r3, #0
 8001120:	613b      	str	r3, [r7, #16]
  uint32_t temp = 0x00U;
 8001122:	2300      	movs	r3, #0
 8001124:	61bb      	str	r3, [r7, #24]
  assert_param(IS_GPIO_PIN(GPIO_Init->Pin));
  assert_param(IS_GPIO_MODE(GPIO_Init->Mode));
  assert_param(IS_GPIO_PULL(GPIO_Init->Pull));

  /* Configure the port pins */
  for(position = 0U; position < GPIO_NUMBER; position++)
 8001126:	2300      	movs	r3, #0
 8001128:	61fb      	str	r3, [r7, #28]
 800112a:	e16b      	b.n	8001404 <HAL_GPIO_Init+0x2f4>
  {
    /* Get the IO position */
    ioposition = 0x01U << position;
 800112c:	2201      	movs	r2, #1
 800112e:	69fb      	ldr	r3, [r7, #28]
 8001130:	fa02 f303 	lsl.w	r3, r2, r3
 8001134:	617b      	str	r3, [r7, #20]
    /* Get the current IO position */
    iocurrent = (uint32_t)(GPIO_Init->Pin) & ioposition;
 8001136:	683b      	ldr	r3, [r7, #0]
 8001138:	681b      	ldr	r3, [r3, #0]
 800113a:	697a      	ldr	r2, [r7, #20]
 800113c:	4013      	ands	r3, r2
 800113e:	613b      	str	r3, [r7, #16]

    if(iocurrent == ioposition)
 8001140:	693a      	ldr	r2, [r7, #16]
 8001142:	697b      	ldr	r3, [r7, #20]
 8001144:	429a      	cmp	r2, r3
 8001146:	f040 815a 	bne.w	80013fe <HAL_GPIO_Init+0x2ee>
    {
      /*--------------------- GPIO Mode Configuration ------------------------*/
      /* In case of Output or Alternate function mode selection */
      if((GPIO_Init->Mode == GPIO_MODE_OUTPUT_PP) || (GPIO_Init->Mode == GPIO_MODE_AF_PP) ||
 800114a:	683b      	ldr	r3, [r7, #0]
 800114c:	685b      	ldr	r3, [r3, #4]
 800114e:	2b01      	cmp	r3, #1
 8001150:	d00b      	beq.n	800116a <HAL_GPIO_Init+0x5a>
 8001152:	683b      	ldr	r3, [r7, #0]
 8001154:	685b      	ldr	r3, [r3, #4]
 8001156:	2b02      	cmp	r3, #2
 8001158:	d007      	beq.n	800116a <HAL_GPIO_Init+0x5a>
         (GPIO_Init->Mode == GPIO_MODE_OUTPUT_OD) || (GPIO_Init->Mode == GPIO_MODE_AF_OD))
 800115a:	683b      	ldr	r3, [r7, #0]
 800115c:	685b      	ldr	r3, [r3, #4]
      if((GPIO_Init->Mode == GPIO_MODE_OUTPUT_PP) || (GPIO_Init->Mode == GPIO_MODE_AF_PP) ||
 800115e:	2b11      	cmp	r3, #17
 8001160:	d003      	beq.n	800116a <HAL_GPIO_Init+0x5a>
         (GPIO_Init->Mode == GPIO_MODE_OUTPUT_OD) || (GPIO_Init->Mode == GPIO_MODE_AF_OD))
 8001162:	683b      	ldr	r3, [r7, #0]
 8001164:	685b      	ldr	r3, [r3, #4]
 8001166:	2b12      	cmp	r3, #18
 8001168:	d130      	bne.n	80011cc <HAL_GPIO_Init+0xbc>
      {
        /* Check the Speed parameter */
        assert_param(IS_GPIO_SPEED(GPIO_Init->Speed));
        /* Configure the IO Speed */
        temp = GPIOx->OSPEEDR; 
 800116a:	687b      	ldr	r3, [r7, #4]
 800116c:	689b      	ldr	r3, [r3, #8]
 800116e:	61bb      	str	r3, [r7, #24]
        temp &= ~(GPIO_OSPEEDER_OSPEEDR0 << (position * 2U));
 8001170:	69fb      	ldr	r3, [r7, #28]
 8001172:	005b      	lsls	r3, r3, #1
 8001174:	2203      	movs	r2, #3
 8001176:	fa02 f303 	lsl.w	r3, r2, r3
 800117a:	43db      	mvns	r3, r3
 800117c:	69ba      	ldr	r2, [r7, #24]
 800117e:	4013      	ands	r3, r2
 8001180:	61bb      	str	r3, [r7, #24]
        temp |= (GPIO_Init->Speed << (position * 2U));
 8001182:	683b      	ldr	r3, [r7, #0]
 8001184:	68da      	ldr	r2, [r3, #12]
 8001186:	69fb      	ldr	r3, [r7, #28]
 8001188:	005b      	lsls	r3, r3, #1
 800118a:	fa02 f303 	lsl.w	r3, r2, r3
 800118e:	69ba      	ldr	r2, [r7, #24]
 8001190:	4313      	orrs	r3, r2
 8001192:	61bb      	str	r3, [r7, #24]
        GPIOx->OSPEEDR = temp;
 8001194:	687b      	ldr	r3, [r7, #4]
 8001196:	69ba      	ldr	r2, [r7, #24]
 8001198:	609a      	str	r2, [r3, #8]

        /* Configure the IO Output Type */
        temp = GPIOx->OTYPER;
 800119a:	687b      	ldr	r3, [r7, #4]
 800119c:	685b      	ldr	r3, [r3, #4]
 800119e:	61bb      	str	r3, [r7, #24]
        temp &= ~(GPIO_OTYPER_OT_0 << position) ;
 80011a0:	2201      	movs	r2, #1
 80011a2:	69fb      	ldr	r3, [r7, #28]
 80011a4:	fa02 f303 	lsl.w	r3, r2, r3
 80011a8:	43db      	mvns	r3, r3
 80011aa:	69ba      	ldr	r2, [r7, #24]
 80011ac:	4013      	ands	r3, r2
 80011ae:	61bb      	str	r3, [r7, #24]
        temp |= (((GPIO_Init->Mode & GPIO_OUTPUT_TYPE) >> 4U) << position);
 80011b0:	683b      	ldr	r3, [r7, #0]
 80011b2:	685b      	ldr	r3, [r3, #4]
 80011b4:	091b      	lsrs	r3, r3, #4
 80011b6:	f003 0201 	and.w	r2, r3, #1
 80011ba:	69fb      	ldr	r3, [r7, #28]
 80011bc:	fa02 f303 	lsl.w	r3, r2, r3
 80011c0:	69ba      	ldr	r2, [r7, #24]
 80011c2:	4313      	orrs	r3, r2
 80011c4:	61bb      	str	r3, [r7, #24]
        GPIOx->OTYPER = temp;
 80011c6:	687b      	ldr	r3, [r7, #4]
 80011c8:	69ba      	ldr	r2, [r7, #24]
 80011ca:	605a      	str	r2, [r3, #4]
       }

      /* Activate the Pull-up or Pull down resistor for the current IO */
      temp = GPIOx->PUPDR;
 80011cc:	687b      	ldr	r3, [r7, #4]
 80011ce:	68db      	ldr	r3, [r3, #12]
 80011d0:	61bb      	str	r3, [r7, #24]
      temp &= ~(GPIO_PUPDR_PUPDR0 << (position * 2U));
 80011d2:	69fb      	ldr	r3, [r7, #28]
 80011d4:	005b      	lsls	r3, r3, #1
 80011d6:	2203      	movs	r2, #3
 80011d8:	fa02 f303 	lsl.w	r3, r2, r3
 80011dc:	43db      	mvns	r3, r3
 80011de:	69ba      	ldr	r2, [r7, #24]
 80011e0:	4013      	ands	r3, r2
 80011e2:	61bb      	str	r3, [r7, #24]
      temp |= ((GPIO_Init->Pull) << (position * 2U));
 80011e4:	683b      	ldr	r3, [r7, #0]
 80011e6:	689a      	ldr	r2, [r3, #8]
 80011e8:	69fb      	ldr	r3, [r7, #28]
 80011ea:	005b      	lsls	r3, r3, #1
 80011ec:	fa02 f303 	lsl.w	r3, r2, r3
 80011f0:	69ba      	ldr	r2, [r7, #24]
 80011f2:	4313      	orrs	r3, r2
 80011f4:	61bb      	str	r3, [r7, #24]
      GPIOx->PUPDR = temp;
 80011f6:	687b      	ldr	r3, [r7, #4]
 80011f8:	69ba      	ldr	r2, [r7, #24]
 80011fa:	60da      	str	r2, [r3, #12]

      /* In case of Alternate function mode selection */
      if((GPIO_Init->Mode == GPIO_MODE_AF_PP) || (GPIO_Init->Mode == GPIO_MODE_AF_OD))
 80011fc:	683b      	ldr	r3, [r7, #0]
 80011fe:	685b      	ldr	r3, [r3, #4]
 8001200:	2b02      	cmp	r3, #2
 8001202:	d003      	beq.n	800120c <HAL_GPIO_Init+0xfc>
 8001204:	683b      	ldr	r3, [r7, #0]
 8001206:	685b      	ldr	r3, [r3, #4]
 8001208:	2b12      	cmp	r3, #18
 800120a:	d123      	bne.n	8001254 <HAL_GPIO_Init+0x144>
      {
        /* Check the Alternate function parameter */
        assert_param(IS_GPIO_AF(GPIO_Init->Alternate));
        /* Configure Alternate function mapped with the current IO */
        temp = GPIOx->AFR[position >> 3U];
 800120c:	69fb      	ldr	r3, [r7, #28]
 800120e:	08da      	lsrs	r2, r3, #3
 8001210:	687b      	ldr	r3, [r7, #4]
 8001212:	3208      	adds	r2, #8
 8001214:	f853 3022 	ldr.w	r3, [r3, r2, lsl #2]
 8001218:	61bb      	str	r3, [r7, #24]
        temp &= ~(0xFU << ((uint32_t)(position & 0x07U) * 4U)) ;
 800121a:	69fb      	ldr	r3, [r7, #28]
 800121c:	f003 0307 	and.w	r3, r3, #7
 8001220:	009b      	lsls	r3, r3, #2
 8001222:	220f      	movs	r2, #15
 8001224:	fa02 f303 	lsl.w	r3, r2, r3
 8001228:	43db      	mvns	r3, r3
 800122a:	69ba      	ldr	r2, [r7, #24]
 800122c:	4013      	ands	r3, r2
 800122e:	61bb      	str	r3, [r7, #24]
        temp |= ((uint32_t)(GPIO_Init->Alternate) << (((uint32_t)position & 0x07U) * 4U));
 8001230:	683b      	ldr	r3, [r7, #0]
 8001232:	691a      	ldr	r2, [r3, #16]
 8001234:	69fb      	ldr	r3, [r7, #28]
 8001236:	f003 0307 	and.w	r3, r3, #7
 800123a:	009b      	lsls	r3, r3, #2
 800123c:	fa02 f303 	lsl.w	r3, r2, r3
 8001240:	69ba      	ldr	r2, [r7, #24]
 8001242:	4313      	orrs	r3, r2
 8001244:	61bb      	str	r3, [r7, #24]
        GPIOx->AFR[position >> 3U] = temp;
 8001246:	69fb      	ldr	r3, [r7, #28]
 8001248:	08da      	lsrs	r2, r3, #3
 800124a:	687b      	ldr	r3, [r7, #4]
 800124c:	3208      	adds	r2, #8
 800124e:	69b9      	ldr	r1, [r7, #24]
 8001250:	f843 1022 	str.w	r1, [r3, r2, lsl #2]
      }

      /* Configure IO Direction mode (Input, Output, Alternate or Analog) */
      temp = GPIOx->MODER;
 8001254:	687b      	ldr	r3, [r7, #4]
 8001256:	681b      	ldr	r3, [r3, #0]
 8001258:	61bb      	str	r3, [r7, #24]
      temp &= ~(GPIO_MODER_MODER0 << (position * 2U));
 800125a:	69fb      	ldr	r3, [r7, #28]
 800125c:	005b      	lsls	r3, r3, #1
 800125e:	2203      	movs	r2, #3
 8001260:	fa02 f303 	lsl.w	r3, r2, r3
 8001264:	43db      	mvns	r3, r3
 8001266:	69ba      	ldr	r2, [r7, #24]
 8001268:	4013      	ands	r3, r2
 800126a:	61bb      	str	r3, [r7, #24]
      temp |= ((GPIO_Init->Mode & GPIO_MODE) << (position * 2U));
 800126c:	683b      	ldr	r3, [r7, #0]
 800126e:	685b      	ldr	r3, [r3, #4]
 8001270:	f003 0203 	and.w	r2, r3, #3
 8001274:	69fb      	ldr	r3, [r7, #28]
 8001276:	005b      	lsls	r3, r3, #1
 8001278:	fa02 f303 	lsl.w	r3, r2, r3
 800127c:	69ba      	ldr	r2, [r7, #24]
 800127e:	4313      	orrs	r3, r2
 8001280:	61bb      	str	r3, [r7, #24]
      GPIOx->MODER = temp;
 8001282:	687b      	ldr	r3, [r7, #4]
 8001284:	69ba      	ldr	r2, [r7, #24]
 8001286:	601a      	str	r2, [r3, #0]

      /*--------------------- EXTI Mode Configuration ------------------------*/
      /* Configure the External Interrupt or event for the current IO */
      if((GPIO_Init->Mode & EXTI_MODE) == EXTI_MODE)
 8001288:	683b      	ldr	r3, [r7, #0]
 800128a:	685b      	ldr	r3, [r3, #4]
 800128c:	f003 5380 	and.w	r3, r3, #268435456	; 0x10000000
 8001290:	2b00      	cmp	r3, #0
 8001292:	f000 80b4 	beq.w	80013fe <HAL_GPIO_Init+0x2ee>
      {
        /* Enable SYSCFG Clock */
        __HAL_RCC_SYSCFG_CLK_ENABLE();
 8001296:	2300      	movs	r3, #0
 8001298:	60fb      	str	r3, [r7, #12]
 800129a:	4b5f      	ldr	r3, [pc, #380]	; (8001418 <HAL_GPIO_Init+0x308>)
 800129c:	6c5b      	ldr	r3, [r3, #68]	; 0x44
 800129e:	4a5e      	ldr	r2, [pc, #376]	; (8001418 <HAL_GPIO_Init+0x308>)
 80012a0:	f443 4380 	orr.w	r3, r3, #16384	; 0x4000
 80012a4:	6453      	str	r3, [r2, #68]	; 0x44
 80012a6:	4b5c      	ldr	r3, [pc, #368]	; (8001418 <HAL_GPIO_Init+0x308>)
 80012a8:	6c5b      	ldr	r3, [r3, #68]	; 0x44
 80012aa:	f403 4380 	and.w	r3, r3, #16384	; 0x4000
 80012ae:	60fb      	str	r3, [r7, #12]
 80012b0:	68fb      	ldr	r3, [r7, #12]

        temp = SYSCFG->EXTICR[position >> 2U];
 80012b2:	4a5a      	ldr	r2, [pc, #360]	; (800141c <HAL_GPIO_Init+0x30c>)
 80012b4:	69fb      	ldr	r3, [r7, #28]
 80012b6:	089b      	lsrs	r3, r3, #2
 80012b8:	3302      	adds	r3, #2
 80012ba:	f852 3023 	ldr.w	r3, [r2, r3, lsl #2]
 80012be:	61bb      	str	r3, [r7, #24]
        temp &= ~(0x0FU << (4U * (position & 0x03U)));
 80012c0:	69fb      	ldr	r3, [r7, #28]
 80012c2:	f003 0303 	and.w	r3, r3, #3
 80012c6:	009b      	lsls	r3, r3, #2
 80012c8:	220f      	movs	r2, #15
 80012ca:	fa02 f303 	lsl.w	r3, r2, r3
 80012ce:	43db      	mvns	r3, r3
 80012d0:	69ba      	ldr	r2, [r7, #24]
 80012d2:	4013      	ands	r3, r2
 80012d4:	61bb      	str	r3, [r7, #24]
        temp |= ((uint32_t)(GPIO_GET_INDEX(GPIOx)) << (4U * (position & 0x03U)));
 80012d6:	687b      	ldr	r3, [r7, #4]
 80012d8:	4a51      	ldr	r2, [pc, #324]	; (8001420 <HAL_GPIO_Init+0x310>)
 80012da:	4293      	cmp	r3, r2
 80012dc:	d02b      	beq.n	8001336 <HAL_GPIO_Init+0x226>
 80012de:	687b      	ldr	r3, [r7, #4]
 80012e0:	4a50      	ldr	r2, [pc, #320]	; (8001424 <HAL_GPIO_Init+0x314>)
 80012e2:	4293      	cmp	r3, r2
 80012e4:	d025      	beq.n	8001332 <HAL_GPIO_Init+0x222>
 80012e6:	687b      	ldr	r3, [r7, #4]
 80012e8:	4a4f      	ldr	r2, [pc, #316]	; (8001428 <HAL_GPIO_Init+0x318>)
 80012ea:	4293      	cmp	r3, r2
 80012ec:	d01f      	beq.n	800132e <HAL_GPIO_Init+0x21e>
 80012ee:	687b      	ldr	r3, [r7, #4]
 80012f0:	4a4e      	ldr	r2, [pc, #312]	; (800142c <HAL_GPIO_Init+0x31c>)
 80012f2:	4293      	cmp	r3, r2
 80012f4:	d019      	beq.n	800132a <HAL_GPIO_Init+0x21a>
 80012f6:	687b      	ldr	r3, [r7, #4]
 80012f8:	4a4d      	ldr	r2, [pc, #308]	; (8001430 <HAL_GPIO_Init+0x320>)
 80012fa:	4293      	cmp	r3, r2
 80012fc:	d013      	beq.n	8001326 <HAL_GPIO_Init+0x216>
 80012fe:	687b      	ldr	r3, [r7, #4]
 8001300:	4a4c      	ldr	r2, [pc, #304]	; (8001434 <HAL_GPIO_Init+0x324>)
 8001302:	4293      	cmp	r3, r2
 8001304:	d00d      	beq.n	8001322 <HAL_GPIO_Init+0x212>
 8001306:	687b      	ldr	r3, [r7, #4]
 8001308:	4a4b      	ldr	r2, [pc, #300]	; (8001438 <HAL_GPIO_Init+0x328>)
 800130a:	4293      	cmp	r3, r2
 800130c:	d007      	beq.n	800131e <HAL_GPIO_Init+0x20e>
 800130e:	687b      	ldr	r3, [r7, #4]
 8001310:	4a4a      	ldr	r2, [pc, #296]	; (800143c <HAL_GPIO_Init+0x32c>)
 8001312:	4293      	cmp	r3, r2
 8001314:	d101      	bne.n	800131a <HAL_GPIO_Init+0x20a>
 8001316:	2307      	movs	r3, #7
 8001318:	e00e      	b.n	8001338 <HAL_GPIO_Init+0x228>
 800131a:	2308      	movs	r3, #8
 800131c:	e00c      	b.n	8001338 <HAL_GPIO_Init+0x228>
 800131e:	2306      	movs	r3, #6
 8001320:	e00a      	b.n	8001338 <HAL_GPIO_Init+0x228>
 8001322:	2305      	movs	r3, #5
 8001324:	e008      	b.n	8001338 <HAL_GPIO_Init+0x228>
 8001326:	2304      	movs	r3, #4
 8001328:	e006      	b.n	8001338 <HAL_GPIO_Init+0x228>
 800132a:	2303      	movs	r3, #3
 800132c:	e004      	b.n	8001338 <HAL_GPIO_Init+0x228>
 800132e:	2302      	movs	r3, #2
 8001330:	e002      	b.n	8001338 <HAL_GPIO_Init+0x228>
 8001332:	2301      	movs	r3, #1
 8001334:	e000      	b.n	8001338 <HAL_GPIO_Init+0x228>
 8001336:	2300      	movs	r3, #0
 8001338:	69fa      	ldr	r2, [r7, #28]
 800133a:	f002 0203 	and.w	r2, r2, #3
 800133e:	0092      	lsls	r2, r2, #2
 8001340:	4093      	lsls	r3, r2
 8001342:	69ba      	ldr	r2, [r7, #24]
 8001344:	4313      	orrs	r3, r2
 8001346:	61bb      	str	r3, [r7, #24]
        SYSCFG->EXTICR[position >> 2U] = temp;
 8001348:	4934      	ldr	r1, [pc, #208]	; (800141c <HAL_GPIO_Init+0x30c>)
 800134a:	69fb      	ldr	r3, [r7, #28]
 800134c:	089b      	lsrs	r3, r3, #2
 800134e:	3302      	adds	r3, #2
 8001350:	69ba      	ldr	r2, [r7, #24]
 8001352:	f841 2023 	str.w	r2, [r1, r3, lsl #2]

        /* Clear EXTI line configuration */
        temp = EXTI->IMR;
 8001356:	4b3a      	ldr	r3, [pc, #232]	; (8001440 <HAL_GPIO_Init+0x330>)
 8001358:	681b      	ldr	r3, [r3, #0]
 800135a:	61bb      	str	r3, [r7, #24]
        temp &= ~((uint32_t)iocurrent);
 800135c:	693b      	ldr	r3, [r7, #16]
 800135e:	43db      	mvns	r3, r3
 8001360:	69ba      	ldr	r2, [r7, #24]
 8001362:	4013      	ands	r3, r2
 8001364:	61bb      	str	r3, [r7, #24]
        if((GPIO_Init->Mode & GPIO_MODE_IT) == GPIO_MODE_IT)
 8001366:	683b      	ldr	r3, [r7, #0]
 8001368:	685b      	ldr	r3, [r3, #4]
 800136a:	f403 3380 	and.w	r3, r3, #65536	; 0x10000
 800136e:	2b00      	cmp	r3, #0
 8001370:	d003      	beq.n	800137a <HAL_GPIO_Init+0x26a>
        {
          temp |= iocurrent;
 8001372:	69ba      	ldr	r2, [r7, #24]
 8001374:	693b      	ldr	r3, [r7, #16]
 8001376:	4313      	orrs	r3, r2
 8001378:	61bb      	str	r3, [r7, #24]
        }
        EXTI->IMR = temp;
 800137a:	4a31      	ldr	r2, [pc, #196]	; (8001440 <HAL_GPIO_Init+0x330>)
 800137c:	69bb      	ldr	r3, [r7, #24]
 800137e:	6013      	str	r3, [r2, #0]

        temp = EXTI->EMR;
 8001380:	4b2f      	ldr	r3, [pc, #188]	; (8001440 <HAL_GPIO_Init+0x330>)
 8001382:	685b      	ldr	r3, [r3, #4]
 8001384:	61bb      	str	r3, [r7, #24]
        temp &= ~((uint32_t)iocurrent);
 8001386:	693b      	ldr	r3, [r7, #16]
 8001388:	43db      	mvns	r3, r3
 800138a:	69ba      	ldr	r2, [r7, #24]
 800138c:	4013      	ands	r3, r2
 800138e:	61bb      	str	r3, [r7, #24]
        if((GPIO_Init->Mode & GPIO_MODE_EVT) == GPIO_MODE_EVT)
 8001390:	683b      	ldr	r3, [r7, #0]
 8001392:	685b      	ldr	r3, [r3, #4]
 8001394:	f403 3300 	and.w	r3, r3, #131072	; 0x20000
 8001398:	2b00      	cmp	r3, #0
 800139a:	d003      	beq.n	80013a4 <HAL_GPIO_Init+0x294>
        {
          temp |= iocurrent;
 800139c:	69ba      	ldr	r2, [r7, #24]
 800139e:	693b      	ldr	r3, [r7, #16]
 80013a0:	4313      	orrs	r3, r2
 80013a2:	61bb      	str	r3, [r7, #24]
        }
        EXTI->EMR = temp;
 80013a4:	4a26      	ldr	r2, [pc, #152]	; (8001440 <HAL_GPIO_Init+0x330>)
 80013a6:	69bb      	ldr	r3, [r7, #24]
 80013a8:	6053      	str	r3, [r2, #4]

        /* Clear Rising Falling edge configuration */
        temp = EXTI->RTSR;
 80013aa:	4b25      	ldr	r3, [pc, #148]	; (8001440 <HAL_GPIO_Init+0x330>)
 80013ac:	689b      	ldr	r3, [r3, #8]
 80013ae:	61bb      	str	r3, [r7, #24]
        temp &= ~((uint32_t)iocurrent);
 80013b0:	693b      	ldr	r3, [r7, #16]
 80013b2:	43db      	mvns	r3, r3
 80013b4:	69ba      	ldr	r2, [r7, #24]
 80013b6:	4013      	ands	r3, r2
 80013b8:	61bb      	str	r3, [r7, #24]
        if((GPIO_Init->Mode & RISING_EDGE) == RISING_EDGE)
 80013ba:	683b      	ldr	r3, [r7, #0]
 80013bc:	685b      	ldr	r3, [r3, #4]
 80013be:	f403 1380 	and.w	r3, r3, #1048576	; 0x100000
 80013c2:	2b00      	cmp	r3, #0
 80013c4:	d003      	beq.n	80013ce <HAL_GPIO_Init+0x2be>
        {
          temp |= iocurrent;
 80013c6:	69ba      	ldr	r2, [r7, #24]
 80013c8:	693b      	ldr	r3, [r7, #16]
 80013ca:	4313      	orrs	r3, r2
 80013cc:	61bb      	str	r3, [r7, #24]
        }
        EXTI->RTSR = temp;
 80013ce:	4a1c      	ldr	r2, [pc, #112]	; (8001440 <HAL_GPIO_Init+0x330>)
 80013d0:	69bb      	ldr	r3, [r7, #24]
 80013d2:	6093      	str	r3, [r2, #8]

        temp = EXTI->FTSR;
 80013d4:	4b1a      	ldr	r3, [pc, #104]	; (8001440 <HAL_GPIO_Init+0x330>)
 80013d6:	68db      	ldr	r3, [r3, #12]
 80013d8:	61bb      	str	r3, [r7, #24]
        temp &= ~((uint32_t)iocurrent);
 80013da:	693b      	ldr	r3, [r7, #16]
 80013dc:	43db      	mvns	r3, r3
 80013de:	69ba      	ldr	r2, [r7, #24]
 80013e0:	4013      	ands	r3, r2
 80013e2:	61bb      	str	r3, [r7, #24]
        if((GPIO_Init->Mode & FALLING_EDGE) == FALLING_EDGE)
 80013e4:	683b      	ldr	r3, [r7, #0]
 80013e6:	685b      	ldr	r3, [r3, #4]
 80013e8:	f403 1300 	and.w	r3, r3, #2097152	; 0x200000
 80013ec:	2b00      	cmp	r3, #0
 80013ee:	d003      	beq.n	80013f8 <HAL_GPIO_Init+0x2e8>
        {
          temp |= iocurrent;
 80013f0:	69ba      	ldr	r2, [r7, #24]
 80013f2:	693b      	ldr	r3, [r7, #16]
 80013f4:	4313      	orrs	r3, r2
 80013f6:	61bb      	str	r3, [r7, #24]
        }
        EXTI->FTSR = temp;
 80013f8:	4a11      	ldr	r2, [pc, #68]	; (8001440 <HAL_GPIO_Init+0x330>)
 80013fa:	69bb      	ldr	r3, [r7, #24]
 80013fc:	60d3      	str	r3, [r2, #12]
  for(position = 0U; position < GPIO_NUMBER; position++)
 80013fe:	69fb      	ldr	r3, [r7, #28]
 8001400:	3301      	adds	r3, #1
 8001402:	61fb      	str	r3, [r7, #28]
 8001404:	69fb      	ldr	r3, [r7, #28]
 8001406:	2b0f      	cmp	r3, #15
 8001408:	f67f ae90 	bls.w	800112c <HAL_GPIO_Init+0x1c>
      }
    }
  }
}
 800140c:	bf00      	nop
 800140e:	3724      	adds	r7, #36	; 0x24
 8001410:	46bd      	mov	sp, r7
 8001412:	f85d 7b04 	ldr.w	r7, [sp], #4
 8001416:	4770      	bx	lr
 8001418:	40023800 	.word	0x40023800
 800141c:	40013800 	.word	0x40013800
 8001420:	40020000 	.word	0x40020000
 8001424:	40020400 	.word	0x40020400
 8001428:	40020800 	.word	0x40020800
 800142c:	40020c00 	.word	0x40020c00
 8001430:	40021000 	.word	0x40021000
 8001434:	40021400 	.word	0x40021400
 8001438:	40021800 	.word	0x40021800
 800143c:	40021c00 	.word	0x40021c00
 8001440:	40013c00 	.word	0x40013c00

08001444 <HAL_GPIO_WritePin>:
  *            @arg GPIO_PIN_RESET: to clear the port pin
  *            @arg GPIO_PIN_SET: to set the port pin
  * @retval None
  */
void HAL_GPIO_WritePin(GPIO_TypeDef* GPIOx, uint16_t GPIO_Pin, GPIO_PinState PinState)
{
 8001444:	b480      	push	{r7}
 8001446:	b083      	sub	sp, #12
 8001448:	af00      	add	r7, sp, #0
 800144a:	6078      	str	r0, [r7, #4]
 800144c:	460b      	mov	r3, r1
 800144e:	807b      	strh	r3, [r7, #2]
 8001450:	4613      	mov	r3, r2
 8001452:	707b      	strb	r3, [r7, #1]
  /* Check the parameters */
  assert_param(IS_GPIO_PIN(GPIO_Pin));
  assert_param(IS_GPIO_PIN_ACTION(PinState));

  if(PinState != GPIO_PIN_RESET)
 8001454:	787b      	ldrb	r3, [r7, #1]
 8001456:	2b00      	cmp	r3, #0
 8001458:	d003      	beq.n	8001462 <HAL_GPIO_WritePin+0x1e>
  {
    GPIOx->BSRR = GPIO_Pin;
 800145a:	887a      	ldrh	r2, [r7, #2]
 800145c:	687b      	ldr	r3, [r7, #4]
 800145e:	619a      	str	r2, [r3, #24]
  }
  else
  {
    GPIOx->BSRR = (uint32_t)GPIO_Pin << 16U;
  }
}
 8001460:	e003      	b.n	800146a <HAL_GPIO_WritePin+0x26>
    GPIOx->BSRR = (uint32_t)GPIO_Pin << 16U;
 8001462:	887b      	ldrh	r3, [r7, #2]
 8001464:	041a      	lsls	r2, r3, #16
 8001466:	687b      	ldr	r3, [r7, #4]
 8001468:	619a      	str	r2, [r3, #24]
}
 800146a:	bf00      	nop
 800146c:	370c      	adds	r7, #12
 800146e:	46bd      	mov	sp, r7
 8001470:	f85d 7b04 	ldr.w	r7, [sp], #4
 8001474:	4770      	bx	lr

08001476 <HAL_HCD_Init>:
  * @brief  Initialize the host driver.
  * @param  hhcd HCD handle
  * @retval HAL status
  */
HAL_StatusTypeDef HAL_HCD_Init(HCD_HandleTypeDef *hhcd)
{
 8001476:	b5f0      	push	{r4, r5, r6, r7, lr}
 8001478:	b08f      	sub	sp, #60	; 0x3c
 800147a:	af0a      	add	r7, sp, #40	; 0x28
 800147c:	6078      	str	r0, [r7, #4]
  USB_OTG_GlobalTypeDef *USBx;

  /* Check the HCD handle allocation */
  if (hhcd == NULL)
 800147e:	687b      	ldr	r3, [r7, #4]
 8001480:	2b00      	cmp	r3, #0
 8001482:	d101      	bne.n	8001488 <HAL_HCD_Init+0x12>
  {
    return HAL_ERROR;
 8001484:	2301      	movs	r3, #1
 8001486:	e054      	b.n	8001532 <HAL_HCD_Init+0xbc>
  }

  /* Check the parameters */
  assert_param(IS_HCD_ALL_INSTANCE(hhcd->Instance));

  USBx = hhcd->Instance;
 8001488:	687b      	ldr	r3, [r7, #4]
 800148a:	681b      	ldr	r3, [r3, #0]
 800148c:	60fb      	str	r3, [r7, #12]

  if (hhcd->State == HAL_HCD_STATE_RESET)
 800148e:	687b      	ldr	r3, [r7, #4]
 8001490:	f893 32b9 	ldrb.w	r3, [r3, #697]	; 0x2b9
 8001494:	b2db      	uxtb	r3, r3
 8001496:	2b00      	cmp	r3, #0
 8001498:	d106      	bne.n	80014a8 <HAL_HCD_Init+0x32>
  {
    /* Allocate lock resource and initialize it */
    hhcd->Lock = HAL_UNLOCKED;
 800149a:	687b      	ldr	r3, [r7, #4]
 800149c:	2200      	movs	r2, #0
 800149e:	f883 22b8 	strb.w	r2, [r3, #696]	; 0x2b8

    /* Init the low level hardware */
    hhcd->MspInitCallback(hhcd);
#else
    /* Init the low level hardware : GPIO, CLOCK, NVIC... */
    HAL_HCD_MspInit(hhcd);
 80014a2:	6878      	ldr	r0, [r7, #4]
 80014a4:	f006 fc04 	bl	8007cb0 <HAL_HCD_MspInit>
#endif /* (USE_HAL_HCD_REGISTER_CALLBACKS) */
  }

  hhcd->State = HAL_HCD_STATE_BUSY;
 80014a8:	687b      	ldr	r3, [r7, #4]
 80014aa:	2203      	movs	r2, #3
 80014ac:	f883 22b9 	strb.w	r2, [r3, #697]	; 0x2b9

  /* Disable DMA mode for FS instance */
  if ((USBx->CID & (0x1U << 8)) == 0U)
 80014b0:	68fb      	ldr	r3, [r7, #12]
 80014b2:	6bdb      	ldr	r3, [r3, #60]	; 0x3c
 80014b4:	f403 7380 	and.w	r3, r3, #256	; 0x100
 80014b8:	2b00      	cmp	r3, #0
 80014ba:	d102      	bne.n	80014c2 <HAL_HCD_Init+0x4c>
  {
    hhcd->Init.dma_enable = 0U;
 80014bc:	687b      	ldr	r3, [r7, #4]
 80014be:	2200      	movs	r2, #0
 80014c0:	611a      	str	r2, [r3, #16]
  }

  /* Disable the Interrupts */
  __HAL_HCD_DISABLE(hhcd);
 80014c2:	687b      	ldr	r3, [r7, #4]
 80014c4:	681b      	ldr	r3, [r3, #0]
 80014c6:	4618      	mov	r0, r3
 80014c8:	f003 fdc0 	bl	800504c <USB_DisableGlobalInt>

  /* Init the Core (common init.) */
  (void)USB_CoreInit(hhcd->Instance, hhcd->Init);
 80014cc:	687b      	ldr	r3, [r7, #4]
 80014ce:	681b      	ldr	r3, [r3, #0]
 80014d0:	603b      	str	r3, [r7, #0]
 80014d2:	687e      	ldr	r6, [r7, #4]
 80014d4:	466d      	mov	r5, sp
 80014d6:	f106 0410 	add.w	r4, r6, #16
 80014da:	cc0f      	ldmia	r4!, {r0, r1, r2, r3}
 80014dc:	c50f      	stmia	r5!, {r0, r1, r2, r3}
 80014de:	cc0f      	ldmia	r4!, {r0, r1, r2, r3}
 80014e0:	c50f      	stmia	r5!, {r0, r1, r2, r3}
 80014e2:	e894 0003 	ldmia.w	r4, {r0, r1}
 80014e6:	e885 0003 	stmia.w	r5, {r0, r1}
 80014ea:	1d33      	adds	r3, r6, #4
 80014ec:	cb0e      	ldmia	r3, {r1, r2, r3}
 80014ee:	6838      	ldr	r0, [r7, #0]
 80014f0:	f003 fd3a 	bl	8004f68 <USB_CoreInit>

  /* Force Host Mode*/
  (void)USB_SetCurrentMode(hhcd->Instance, USB_HOST_MODE);
 80014f4:	687b      	ldr	r3, [r7, #4]
 80014f6:	681b      	ldr	r3, [r3, #0]
 80014f8:	2101      	movs	r1, #1
 80014fa:	4618      	mov	r0, r3
 80014fc:	f003 fdb7 	bl	800506e <USB_SetCurrentMode>

  /* Init Host */
  (void)USB_HostInit(hhcd->Instance, hhcd->Init);
 8001500:	687b      	ldr	r3, [r7, #4]
 8001502:	681b      	ldr	r3, [r3, #0]
 8001504:	603b      	str	r3, [r7, #0]
 8001506:	687e      	ldr	r6, [r7, #4]
 8001508:	466d      	mov	r5, sp
 800150a:	f106 0410 	add.w	r4, r6, #16
 800150e:	cc0f      	ldmia	r4!, {r0, r1, r2, r3}
 8001510:	c50f      	stmia	r5!, {r0, r1, r2, r3}
 8001512:	cc0f      	ldmia	r4!, {r0, r1, r2, r3}
 8001514:	c50f      	stmia	r5!, {r0, r1, r2, r3}
 8001516:	e894 0003 	ldmia.w	r4, {r0, r1}
 800151a:	e885 0003 	stmia.w	r5, {r0, r1}
 800151e:	1d33      	adds	r3, r6, #4
 8001520:	cb0e      	ldmia	r3, {r1, r2, r3}
 8001522:	6838      	ldr	r0, [r7, #0]
 8001524:	f003 feca 	bl	80052bc <USB_HostInit>

  hhcd->State = HAL_HCD_STATE_READY;
 8001528:	687b      	ldr	r3, [r7, #4]
 800152a:	2201      	movs	r2, #1
 800152c:	f883 22b9 	strb.w	r2, [r3, #697]	; 0x2b9

  return HAL_OK;
 8001530:	2300      	movs	r3, #0
}
 8001532:	4618      	mov	r0, r3
 8001534:	3714      	adds	r7, #20
 8001536:	46bd      	mov	sp, r7
 8001538:	bdf0      	pop	{r4, r5, r6, r7, pc}

0800153a <HAL_HCD_HC_Init>:
                                  uint8_t epnum,
                                  uint8_t dev_address,
                                  uint8_t speed,
                                  uint8_t ep_type,
                                  uint16_t mps)
{
 800153a:	b590      	push	{r4, r7, lr}
 800153c:	b089      	sub	sp, #36	; 0x24
 800153e:	af04      	add	r7, sp, #16
 8001540:	6078      	str	r0, [r7, #4]
 8001542:	4608      	mov	r0, r1
 8001544:	4611      	mov	r1, r2
 8001546:	461a      	mov	r2, r3
 8001548:	4603      	mov	r3, r0
 800154a:	70fb      	strb	r3, [r7, #3]
 800154c:	460b      	mov	r3, r1
 800154e:	70bb      	strb	r3, [r7, #2]
 8001550:	4613      	mov	r3, r2
 8001552:	707b      	strb	r3, [r7, #1]
  HAL_StatusTypeDef status;

  __HAL_LOCK(hhcd);
 8001554:	687b      	ldr	r3, [r7, #4]
 8001556:	f893 32b8 	ldrb.w	r3, [r3, #696]	; 0x2b8
 800155a:	2b01      	cmp	r3, #1
 800155c:	d101      	bne.n	8001562 <HAL_HCD_HC_Init+0x28>
 800155e:	2302      	movs	r3, #2
 8001560:	e07f      	b.n	8001662 <HAL_HCD_HC_Init+0x128>
 8001562:	687b      	ldr	r3, [r7, #4]
 8001564:	2201      	movs	r2, #1
 8001566:	f883 22b8 	strb.w	r2, [r3, #696]	; 0x2b8
  hhcd->hc[ch_num].do_ping = 0U;
 800156a:	78fa      	ldrb	r2, [r7, #3]
 800156c:	6879      	ldr	r1, [r7, #4]
 800156e:	4613      	mov	r3, r2
 8001570:	009b      	lsls	r3, r3, #2
 8001572:	4413      	add	r3, r2
 8001574:	00db      	lsls	r3, r3, #3
 8001576:	440b      	add	r3, r1
 8001578:	333d      	adds	r3, #61	; 0x3d
 800157a:	2200      	movs	r2, #0
 800157c:	701a      	strb	r2, [r3, #0]
  hhcd->hc[ch_num].dev_addr = dev_address;
 800157e:	78fa      	ldrb	r2, [r7, #3]
 8001580:	6879      	ldr	r1, [r7, #4]
 8001582:	4613      	mov	r3, r2
 8001584:	009b      	lsls	r3, r3, #2
 8001586:	4413      	add	r3, r2
 8001588:	00db      	lsls	r3, r3, #3
 800158a:	440b      	add	r3, r1
 800158c:	3338      	adds	r3, #56	; 0x38
 800158e:	787a      	ldrb	r2, [r7, #1]
 8001590:	701a      	strb	r2, [r3, #0]
  hhcd->hc[ch_num].max_packet = mps;
 8001592:	78fa      	ldrb	r2, [r7, #3]
 8001594:	6879      	ldr	r1, [r7, #4]
 8001596:	4613      	mov	r3, r2
 8001598:	009b      	lsls	r3, r3, #2
 800159a:	4413      	add	r3, r2
 800159c:	00db      	lsls	r3, r3, #3
 800159e:	440b      	add	r3, r1
 80015a0:	3340      	adds	r3, #64	; 0x40
 80015a2:	8d3a      	ldrh	r2, [r7, #40]	; 0x28
 80015a4:	801a      	strh	r2, [r3, #0]
  hhcd->hc[ch_num].ch_num = ch_num;
 80015a6:	78fa      	ldrb	r2, [r7, #3]
 80015a8:	6879      	ldr	r1, [r7, #4]
 80015aa:	4613      	mov	r3, r2
 80015ac:	009b      	lsls	r3, r3, #2
 80015ae:	4413      	add	r3, r2
 80015b0:	00db      	lsls	r3, r3, #3
 80015b2:	440b      	add	r3, r1
 80015b4:	3339      	adds	r3, #57	; 0x39
 80015b6:	78fa      	ldrb	r2, [r7, #3]
 80015b8:	701a      	strb	r2, [r3, #0]
  hhcd->hc[ch_num].ep_type = ep_type;
 80015ba:	78fa      	ldrb	r2, [r7, #3]
 80015bc:	6879      	ldr	r1, [r7, #4]
 80015be:	4613      	mov	r3, r2
 80015c0:	009b      	lsls	r3, r3, #2
 80015c2:	4413      	add	r3, r2
 80015c4:	00db      	lsls	r3, r3, #3
 80015c6:	440b      	add	r3, r1
 80015c8:	333f      	adds	r3, #63	; 0x3f
 80015ca:	f897 2024 	ldrb.w	r2, [r7, #36]	; 0x24
 80015ce:	701a      	strb	r2, [r3, #0]
  hhcd->hc[ch_num].ep_num = epnum & 0x7FU;
 80015d0:	78fa      	ldrb	r2, [r7, #3]
 80015d2:	78bb      	ldrb	r3, [r7, #2]
 80015d4:	f003 037f 	and.w	r3, r3, #127	; 0x7f
 80015d8:	b2d8      	uxtb	r0, r3
 80015da:	6879      	ldr	r1, [r7, #4]
 80015dc:	4613      	mov	r3, r2
 80015de:	009b      	lsls	r3, r3, #2
 80015e0:	4413      	add	r3, r2
 80015e2:	00db      	lsls	r3, r3, #3
 80015e4:	440b      	add	r3, r1
 80015e6:	333a      	adds	r3, #58	; 0x3a
 80015e8:	4602      	mov	r2, r0
 80015ea:	701a      	strb	r2, [r3, #0]

  if ((epnum & 0x80U) == 0x80U)
 80015ec:	f997 3002 	ldrsb.w	r3, [r7, #2]
 80015f0:	2b00      	cmp	r3, #0
 80015f2:	da0a      	bge.n	800160a <HAL_HCD_HC_Init+0xd0>
  {
    hhcd->hc[ch_num].ep_is_in = 1U;
 80015f4:	78fa      	ldrb	r2, [r7, #3]
 80015f6:	6879      	ldr	r1, [r7, #4]
 80015f8:	4613      	mov	r3, r2
 80015fa:	009b      	lsls	r3, r3, #2
 80015fc:	4413      	add	r3, r2
 80015fe:	00db      	lsls	r3, r3, #3
 8001600:	440b      	add	r3, r1
 8001602:	333b      	adds	r3, #59	; 0x3b
 8001604:	2201      	movs	r2, #1
 8001606:	701a      	strb	r2, [r3, #0]
 8001608:	e009      	b.n	800161e <HAL_HCD_HC_Init+0xe4>
  }
  else
  {
    hhcd->hc[ch_num].ep_is_in = 0U;
 800160a:	78fa      	ldrb	r2, [r7, #3]
 800160c:	6879      	ldr	r1, [r7, #4]
 800160e:	4613      	mov	r3, r2
 8001610:	009b      	lsls	r3, r3, #2
 8001612:	4413      	add	r3, r2
 8001614:	00db      	lsls	r3, r3, #3
 8001616:	440b      	add	r3, r1
 8001618:	333b      	adds	r3, #59	; 0x3b
 800161a:	2200      	movs	r2, #0
 800161c:	701a      	strb	r2, [r3, #0]
  }

  hhcd->hc[ch_num].speed = speed;
 800161e:	78fa      	ldrb	r2, [r7, #3]
 8001620:	6879      	ldr	r1, [r7, #4]
 8001622:	4613      	mov	r3, r2
 8001624:	009b      	lsls	r3, r3, #2
 8001626:	4413      	add	r3, r2
 8001628:	00db      	lsls	r3, r3, #3
 800162a:	440b      	add	r3, r1
 800162c:	333c      	adds	r3, #60	; 0x3c
 800162e:	f897 2020 	ldrb.w	r2, [r7, #32]
 8001632:	701a      	strb	r2, [r3, #0]

  status =  USB_HC_Init(hhcd->Instance,
 8001634:	687b      	ldr	r3, [r7, #4]
 8001636:	6818      	ldr	r0, [r3, #0]
 8001638:	787c      	ldrb	r4, [r7, #1]
 800163a:	78ba      	ldrb	r2, [r7, #2]
 800163c:	78f9      	ldrb	r1, [r7, #3]
 800163e:	8d3b      	ldrh	r3, [r7, #40]	; 0x28
 8001640:	9302      	str	r3, [sp, #8]
 8001642:	f897 3024 	ldrb.w	r3, [r7, #36]	; 0x24
 8001646:	9301      	str	r3, [sp, #4]
 8001648:	f897 3020 	ldrb.w	r3, [r7, #32]
 800164c:	9300      	str	r3, [sp, #0]
 800164e:	4623      	mov	r3, r4
 8001650:	f003 ffb6 	bl	80055c0 <USB_HC_Init>
 8001654:	4603      	mov	r3, r0
 8001656:	73fb      	strb	r3, [r7, #15]
                        epnum,
                        dev_address,
                        speed,
                        ep_type,
                        mps);
  __HAL_UNLOCK(hhcd);
 8001658:	687b      	ldr	r3, [r7, #4]
 800165a:	2200      	movs	r2, #0
 800165c:	f883 22b8 	strb.w	r2, [r3, #696]	; 0x2b8

  return status;
 8001660:	7bfb      	ldrb	r3, [r7, #15]
}
 8001662:	4618      	mov	r0, r3
 8001664:	3714      	adds	r7, #20
 8001666:	46bd      	mov	sp, r7
 8001668:	bd90      	pop	{r4, r7, pc}

0800166a <HAL_HCD_HC_Halt>:
  * @param  ch_num Channel number.
  *         This parameter can be a value from 1 to 15
  * @retval HAL status
  */
HAL_StatusTypeDef HAL_HCD_HC_Halt(HCD_HandleTypeDef *hhcd, uint8_t ch_num)
{
 800166a:	b580      	push	{r7, lr}
 800166c:	b084      	sub	sp, #16
 800166e:	af00      	add	r7, sp, #0
 8001670:	6078      	str	r0, [r7, #4]
 8001672:	460b      	mov	r3, r1
 8001674:	70fb      	strb	r3, [r7, #3]
  HAL_StatusTypeDef status = HAL_OK;
 8001676:	2300      	movs	r3, #0
 8001678:	73fb      	strb	r3, [r7, #15]

  __HAL_LOCK(hhcd);
 800167a:	687b      	ldr	r3, [r7, #4]
 800167c:	f893 32b8 	ldrb.w	r3, [r3, #696]	; 0x2b8
 8001680:	2b01      	cmp	r3, #1
 8001682:	d101      	bne.n	8001688 <HAL_HCD_HC_Halt+0x1e>
 8001684:	2302      	movs	r3, #2
 8001686:	e00f      	b.n	80016a8 <HAL_HCD_HC_Halt+0x3e>
 8001688:	687b      	ldr	r3, [r7, #4]
 800168a:	2201      	movs	r2, #1
 800168c:	f883 22b8 	strb.w	r2, [r3, #696]	; 0x2b8
  (void)USB_HC_Halt(hhcd->Instance, (uint8_t)ch_num);
 8001690:	687b      	ldr	r3, [r7, #4]
 8001692:	681b      	ldr	r3, [r3, #0]
 8001694:	78fa      	ldrb	r2, [r7, #3]
 8001696:	4611      	mov	r1, r2
 8001698:	4618      	mov	r0, r3
 800169a:	f004 f9f2 	bl	8005a82 <USB_HC_Halt>
  __HAL_UNLOCK(hhcd);
 800169e:	687b      	ldr	r3, [r7, #4]
 80016a0:	2200      	movs	r2, #0
 80016a2:	f883 22b8 	strb.w	r2, [r3, #696]	; 0x2b8

  return status;
 80016a6:	7bfb      	ldrb	r3, [r7, #15]
}
 80016a8:	4618      	mov	r0, r3
 80016aa:	3710      	adds	r7, #16
 80016ac:	46bd      	mov	sp, r7
 80016ae:	bd80      	pop	{r7, pc}

080016b0 <HAL_HCD_HC_SubmitRequest>:
                                           uint8_t ep_type,
                                           uint8_t token,
                                           uint8_t *pbuff,
                                           uint16_t length,
                                           uint8_t do_ping)
{
 80016b0:	b580      	push	{r7, lr}
 80016b2:	b082      	sub	sp, #8
 80016b4:	af00      	add	r7, sp, #0
 80016b6:	6078      	str	r0, [r7, #4]
 80016b8:	4608      	mov	r0, r1
 80016ba:	4611      	mov	r1, r2
 80016bc:	461a      	mov	r2, r3
 80016be:	4603      	mov	r3, r0
 80016c0:	70fb      	strb	r3, [r7, #3]
 80016c2:	460b      	mov	r3, r1
 80016c4:	70bb      	strb	r3, [r7, #2]
 80016c6:	4613      	mov	r3, r2
 80016c8:	707b      	strb	r3, [r7, #1]
  hhcd->hc[ch_num].ep_is_in = direction;
 80016ca:	78fa      	ldrb	r2, [r7, #3]
 80016cc:	6879      	ldr	r1, [r7, #4]
 80016ce:	4613      	mov	r3, r2
 80016d0:	009b      	lsls	r3, r3, #2
 80016d2:	4413      	add	r3, r2
 80016d4:	00db      	lsls	r3, r3, #3
 80016d6:	440b      	add	r3, r1
 80016d8:	333b      	adds	r3, #59	; 0x3b
 80016da:	78ba      	ldrb	r2, [r7, #2]
 80016dc:	701a      	strb	r2, [r3, #0]
  hhcd->hc[ch_num].ep_type  = ep_type;
 80016de:	78fa      	ldrb	r2, [r7, #3]
 80016e0:	6879      	ldr	r1, [r7, #4]
 80016e2:	4613      	mov	r3, r2
 80016e4:	009b      	lsls	r3, r3, #2
 80016e6:	4413      	add	r3, r2
 80016e8:	00db      	lsls	r3, r3, #3
 80016ea:	440b      	add	r3, r1
 80016ec:	333f      	adds	r3, #63	; 0x3f
 80016ee:	787a      	ldrb	r2, [r7, #1]
 80016f0:	701a      	strb	r2, [r3, #0]

  if (token == 0U)
 80016f2:	7c3b      	ldrb	r3, [r7, #16]
 80016f4:	2b00      	cmp	r3, #0
 80016f6:	d114      	bne.n	8001722 <HAL_HCD_HC_SubmitRequest+0x72>
  {
    hhcd->hc[ch_num].data_pid = HC_PID_SETUP;
 80016f8:	78fa      	ldrb	r2, [r7, #3]
 80016fa:	6879      	ldr	r1, [r7, #4]
 80016fc:	4613      	mov	r3, r2
 80016fe:	009b      	lsls	r3, r3, #2
 8001700:	4413      	add	r3, r2
 8001702:	00db      	lsls	r3, r3, #3
 8001704:	440b      	add	r3, r1
 8001706:	3342      	adds	r3, #66	; 0x42
 8001708:	2203      	movs	r2, #3
 800170a:	701a      	strb	r2, [r3, #0]
    hhcd->hc[ch_num].do_ping = do_ping;
 800170c:	78fa      	ldrb	r2, [r7, #3]
 800170e:	6879      	ldr	r1, [r7, #4]
 8001710:	4613      	mov	r3, r2
 8001712:	009b      	lsls	r3, r3, #2
 8001714:	4413      	add	r3, r2
 8001716:	00db      	lsls	r3, r3, #3
 8001718:	440b      	add	r3, r1
 800171a:	333d      	adds	r3, #61	; 0x3d
 800171c:	7f3a      	ldrb	r2, [r7, #28]
 800171e:	701a      	strb	r2, [r3, #0]
 8001720:	e009      	b.n	8001736 <HAL_HCD_HC_SubmitRequest+0x86>
  }
  else
  {
    hhcd->hc[ch_num].data_pid = HC_PID_DATA1;
 8001722:	78fa      	ldrb	r2, [r7, #3]
 8001724:	6879      	ldr	r1, [r7, #4]
 8001726:	4613      	mov	r3, r2
 8001728:	009b      	lsls	r3, r3, #2
 800172a:	4413      	add	r3, r2
 800172c:	00db      	lsls	r3, r3, #3
 800172e:	440b      	add	r3, r1
 8001730:	3342      	adds	r3, #66	; 0x42
 8001732:	2202      	movs	r2, #2
 8001734:	701a      	strb	r2, [r3, #0]
  }

  /* Manage Data Toggle */
  switch (ep_type)
 8001736:	787b      	ldrb	r3, [r7, #1]
 8001738:	2b03      	cmp	r3, #3
 800173a:	f200 80d6 	bhi.w	80018ea <HAL_HCD_HC_SubmitRequest+0x23a>
 800173e:	a201      	add	r2, pc, #4	; (adr r2, 8001744 <HAL_HCD_HC_SubmitRequest+0x94>)
 8001740:	f852 f023 	ldr.w	pc, [r2, r3, lsl #2]
 8001744:	08001755 	.word	0x08001755
 8001748:	080018d5 	.word	0x080018d5
 800174c:	080017c1 	.word	0x080017c1
 8001750:	0800184b 	.word	0x0800184b
  {
    case EP_TYPE_CTRL:
      if ((token == 1U) && (direction == 0U)) /*send data */
 8001754:	7c3b      	ldrb	r3, [r7, #16]
 8001756:	2b01      	cmp	r3, #1
 8001758:	f040 80c9 	bne.w	80018ee <HAL_HCD_HC_SubmitRequest+0x23e>
 800175c:	78bb      	ldrb	r3, [r7, #2]
 800175e:	2b00      	cmp	r3, #0
 8001760:	f040 80c5 	bne.w	80018ee <HAL_HCD_HC_SubmitRequest+0x23e>
      {
        if (length == 0U)
 8001764:	8b3b      	ldrh	r3, [r7, #24]
 8001766:	2b00      	cmp	r3, #0
 8001768:	d109      	bne.n	800177e <HAL_HCD_HC_SubmitRequest+0xce>
        {
          /* For Status OUT stage, Length==0, Status Out PID = 1 */
          hhcd->hc[ch_num].toggle_out = 1U;
 800176a:	78fa      	ldrb	r2, [r7, #3]
 800176c:	6879      	ldr	r1, [r7, #4]
 800176e:	4613      	mov	r3, r2
 8001770:	009b      	lsls	r3, r3, #2
 8001772:	4413      	add	r3, r2
 8001774:	00db      	lsls	r3, r3, #3
 8001776:	440b      	add	r3, r1
 8001778:	3351      	adds	r3, #81	; 0x51
 800177a:	2201      	movs	r2, #1
 800177c:	701a      	strb	r2, [r3, #0]
        }

        /* Set the Data Toggle bit as per the Flag */
        if (hhcd->hc[ch_num].toggle_out == 0U)
 800177e:	78fa      	ldrb	r2, [r7, #3]
 8001780:	6879      	ldr	r1, [r7, #4]
 8001782:	4613      	mov	r3, r2
 8001784:	009b      	lsls	r3, r3, #2
 8001786:	4413      	add	r3, r2
 8001788:	00db      	lsls	r3, r3, #3
 800178a:	440b      	add	r3, r1
 800178c:	3351      	adds	r3, #81	; 0x51
 800178e:	781b      	ldrb	r3, [r3, #0]
 8001790:	2b00      	cmp	r3, #0
 8001792:	d10a      	bne.n	80017aa <HAL_HCD_HC_SubmitRequest+0xfa>
        {
          /* Put the PID 0 */
          hhcd->hc[ch_num].data_pid = HC_PID_DATA0;
 8001794:	78fa      	ldrb	r2, [r7, #3]
 8001796:	6879      	ldr	r1, [r7, #4]
 8001798:	4613      	mov	r3, r2
 800179a:	009b      	lsls	r3, r3, #2
 800179c:	4413      	add	r3, r2
 800179e:	00db      	lsls	r3, r3, #3
 80017a0:	440b      	add	r3, r1
 80017a2:	3342      	adds	r3, #66	; 0x42
 80017a4:	2200      	movs	r2, #0
 80017a6:	701a      	strb	r2, [r3, #0]
        {
          /* Put the PID 1 */
          hhcd->hc[ch_num].data_pid = HC_PID_DATA1;
        }
      }
      break;
 80017a8:	e0a1      	b.n	80018ee <HAL_HCD_HC_SubmitRequest+0x23e>
          hhcd->hc[ch_num].data_pid = HC_PID_DATA1;
 80017aa:	78fa      	ldrb	r2, [r7, #3]
 80017ac:	6879      	ldr	r1, [r7, #4]
 80017ae:	4613      	mov	r3, r2
 80017b0:	009b      	lsls	r3, r3, #2
 80017b2:	4413      	add	r3, r2
 80017b4:	00db      	lsls	r3, r3, #3
 80017b6:	440b      	add	r3, r1
 80017b8:	3342      	adds	r3, #66	; 0x42
 80017ba:	2202      	movs	r2, #2
 80017bc:	701a      	strb	r2, [r3, #0]
      break;
 80017be:	e096      	b.n	80018ee <HAL_HCD_HC_SubmitRequest+0x23e>

    case EP_TYPE_BULK:
      if (direction == 0U)
 80017c0:	78bb      	ldrb	r3, [r7, #2]
 80017c2:	2b00      	cmp	r3, #0
 80017c4:	d120      	bne.n	8001808 <HAL_HCD_HC_SubmitRequest+0x158>
      {
        /* Set the Data Toggle bit as per the Flag */
        if (hhcd->hc[ch_num].toggle_out == 0U)
 80017c6:	78fa      	ldrb	r2, [r7, #3]
 80017c8:	6879      	ldr	r1, [r7, #4]
 80017ca:	4613      	mov	r3, r2
 80017cc:	009b      	lsls	r3, r3, #2
 80017ce:	4413      	add	r3, r2
 80017d0:	00db      	lsls	r3, r3, #3
 80017d2:	440b      	add	r3, r1
 80017d4:	3351      	adds	r3, #81	; 0x51
 80017d6:	781b      	ldrb	r3, [r3, #0]
 80017d8:	2b00      	cmp	r3, #0
 80017da:	d10a      	bne.n	80017f2 <HAL_HCD_HC_SubmitRequest+0x142>
        {
          /* Put the PID 0 */
          hhcd->hc[ch_num].data_pid = HC_PID_DATA0;
 80017dc:	78fa      	ldrb	r2, [r7, #3]
 80017de:	6879      	ldr	r1, [r7, #4]
 80017e0:	4613      	mov	r3, r2
 80017e2:	009b      	lsls	r3, r3, #2
 80017e4:	4413      	add	r3, r2
 80017e6:	00db      	lsls	r3, r3, #3
 80017e8:	440b      	add	r3, r1
 80017ea:	3342      	adds	r3, #66	; 0x42
 80017ec:	2200      	movs	r2, #0
 80017ee:	701a      	strb	r2, [r3, #0]
        {
          hhcd->hc[ch_num].data_pid = HC_PID_DATA1;
        }
      }

      break;
 80017f0:	e07e      	b.n	80018f0 <HAL_HCD_HC_SubmitRequest+0x240>
          hhcd->hc[ch_num].data_pid = HC_PID_DATA1;
 80017f2:	78fa      	ldrb	r2, [r7, #3]
 80017f4:	6879      	ldr	r1, [r7, #4]
 80017f6:	4613      	mov	r3, r2
 80017f8:	009b      	lsls	r3, r3, #2
 80017fa:	4413      	add	r3, r2
 80017fc:	00db      	lsls	r3, r3, #3
 80017fe:	440b      	add	r3, r1
 8001800:	3342      	adds	r3, #66	; 0x42
 8001802:	2202      	movs	r2, #2
 8001804:	701a      	strb	r2, [r3, #0]
      break;
 8001806:	e073      	b.n	80018f0 <HAL_HCD_HC_SubmitRequest+0x240>
        if (hhcd->hc[ch_num].toggle_in == 0U)
 8001808:	78fa      	ldrb	r2, [r7, #3]
 800180a:	6879      	ldr	r1, [r7, #4]
 800180c:	4613      	mov	r3, r2
 800180e:	009b      	lsls	r3, r3, #2
 8001810:	4413      	add	r3, r2
 8001812:	00db      	lsls	r3, r3, #3
 8001814:	440b      	add	r3, r1
 8001816:	3350      	adds	r3, #80	; 0x50
 8001818:	781b      	ldrb	r3, [r3, #0]
 800181a:	2b00      	cmp	r3, #0
 800181c:	d10a      	bne.n	8001834 <HAL_HCD_HC_SubmitRequest+0x184>
          hhcd->hc[ch_num].data_pid = HC_PID_DATA0;
 800181e:	78fa      	ldrb	r2, [r7, #3]
 8001820:	6879      	ldr	r1, [r7, #4]
 8001822:	4613      	mov	r3, r2
 8001824:	009b      	lsls	r3, r3, #2
 8001826:	4413      	add	r3, r2
 8001828:	00db      	lsls	r3, r3, #3
 800182a:	440b      	add	r3, r1
 800182c:	3342      	adds	r3, #66	; 0x42
 800182e:	2200      	movs	r2, #0
 8001830:	701a      	strb	r2, [r3, #0]
      break;
 8001832:	e05d      	b.n	80018f0 <HAL_HCD_HC_SubmitRequest+0x240>
          hhcd->hc[ch_num].data_pid = HC_PID_DATA1;
 8001834:	78fa      	ldrb	r2, [r7, #3]
 8001836:	6879      	ldr	r1, [r7, #4]
 8001838:	4613      	mov	r3, r2
 800183a:	009b      	lsls	r3, r3, #2
 800183c:	4413      	add	r3, r2
 800183e:	00db      	lsls	r3, r3, #3
 8001840:	440b      	add	r3, r1
 8001842:	3342      	adds	r3, #66	; 0x42
 8001844:	2202      	movs	r2, #2
 8001846:	701a      	strb	r2, [r3, #0]
      break;
 8001848:	e052      	b.n	80018f0 <HAL_HCD_HC_SubmitRequest+0x240>
    case EP_TYPE_INTR:
      if (direction == 0U)
 800184a:	78bb      	ldrb	r3, [r7, #2]
 800184c:	2b00      	cmp	r3, #0
 800184e:	d120      	bne.n	8001892 <HAL_HCD_HC_SubmitRequest+0x1e2>
      {
        /* Set the Data Toggle bit as per the Flag */
        if (hhcd->hc[ch_num].toggle_out == 0U)
 8001850:	78fa      	ldrb	r2, [r7, #3]
 8001852:	6879      	ldr	r1, [r7, #4]
 8001854:	4613      	mov	r3, r2
 8001856:	009b      	lsls	r3, r3, #2
 8001858:	4413      	add	r3, r2
 800185a:	00db      	lsls	r3, r3, #3
 800185c:	440b      	add	r3, r1
 800185e:	3351      	adds	r3, #81	; 0x51
 8001860:	781b      	ldrb	r3, [r3, #0]
 8001862:	2b00      	cmp	r3, #0
 8001864:	d10a      	bne.n	800187c <HAL_HCD_HC_SubmitRequest+0x1cc>
        {
          /* Put the PID 0 */
          hhcd->hc[ch_num].data_pid = HC_PID_DATA0;
 8001866:	78fa      	ldrb	r2, [r7, #3]
 8001868:	6879      	ldr	r1, [r7, #4]
 800186a:	4613      	mov	r3, r2
 800186c:	009b      	lsls	r3, r3, #2
 800186e:	4413      	add	r3, r2
 8001870:	00db      	lsls	r3, r3, #3
 8001872:	440b      	add	r3, r1
 8001874:	3342      	adds	r3, #66	; 0x42
 8001876:	2200      	movs	r2, #0
 8001878:	701a      	strb	r2, [r3, #0]
        else
        {
          hhcd->hc[ch_num].data_pid = HC_PID_DATA1;
        }
      }
      break;
 800187a:	e039      	b.n	80018f0 <HAL_HCD_HC_SubmitRequest+0x240>
          hhcd->hc[ch_num].data_pid = HC_PID_DATA1;
 800187c:	78fa      	ldrb	r2, [r7, #3]
 800187e:	6879      	ldr	r1, [r7, #4]
 8001880:	4613      	mov	r3, r2
 8001882:	009b      	lsls	r3, r3, #2
 8001884:	4413      	add	r3, r2
 8001886:	00db      	lsls	r3, r3, #3
 8001888:	440b      	add	r3, r1
 800188a:	3342      	adds	r3, #66	; 0x42
 800188c:	2202      	movs	r2, #2
 800188e:	701a      	strb	r2, [r3, #0]
      break;
 8001890:	e02e      	b.n	80018f0 <HAL_HCD_HC_SubmitRequest+0x240>
        if (hhcd->hc[ch_num].toggle_in == 0U)
 8001892:	78fa      	ldrb	r2, [r7, #3]
 8001894:	6879      	ldr	r1, [r7, #4]
 8001896:	4613      	mov	r3, r2
 8001898:	009b      	lsls	r3, r3, #2
 800189a:	4413      	add	r3, r2
 800189c:	00db      	lsls	r3, r3, #3
 800189e:	440b      	add	r3, r1
 80018a0:	3350      	adds	r3, #80	; 0x50
 80018a2:	781b      	ldrb	r3, [r3, #0]
 80018a4:	2b00      	cmp	r3, #0
 80018a6:	d10a      	bne.n	80018be <HAL_HCD_HC_SubmitRequest+0x20e>
          hhcd->hc[ch_num].data_pid = HC_PID_DATA0;
 80018a8:	78fa      	ldrb	r2, [r7, #3]
 80018aa:	6879      	ldr	r1, [r7, #4]
 80018ac:	4613      	mov	r3, r2
 80018ae:	009b      	lsls	r3, r3, #2
 80018b0:	4413      	add	r3, r2
 80018b2:	00db      	lsls	r3, r3, #3
 80018b4:	440b      	add	r3, r1
 80018b6:	3342      	adds	r3, #66	; 0x42
 80018b8:	2200      	movs	r2, #0
 80018ba:	701a      	strb	r2, [r3, #0]
      break;
 80018bc:	e018      	b.n	80018f0 <HAL_HCD_HC_SubmitRequest+0x240>
          hhcd->hc[ch_num].data_pid = HC_PID_DATA1;
 80018be:	78fa      	ldrb	r2, [r7, #3]
 80018c0:	6879      	ldr	r1, [r7, #4]
 80018c2:	4613      	mov	r3, r2
 80018c4:	009b      	lsls	r3, r3, #2
 80018c6:	4413      	add	r3, r2
 80018c8:	00db      	lsls	r3, r3, #3
 80018ca:	440b      	add	r3, r1
 80018cc:	3342      	adds	r3, #66	; 0x42
 80018ce:	2202      	movs	r2, #2
 80018d0:	701a      	strb	r2, [r3, #0]
      break;
 80018d2:	e00d      	b.n	80018f0 <HAL_HCD_HC_SubmitRequest+0x240>

    case EP_TYPE_ISOC:
      hhcd->hc[ch_num].data_pid = HC_PID_DATA0;
 80018d4:	78fa      	ldrb	r2, [r7, #3]
 80018d6:	6879      	ldr	r1, [r7, #4]
 80018d8:	4613      	mov	r3, r2
 80018da:	009b      	lsls	r3, r3, #2
 80018dc:	4413      	add	r3, r2
 80018de:	00db      	lsls	r3, r3, #3
 80018e0:	440b      	add	r3, r1
 80018e2:	3342      	adds	r3, #66	; 0x42
 80018e4:	2200      	movs	r2, #0
 80018e6:	701a      	strb	r2, [r3, #0]
      break;
 80018e8:	e002      	b.n	80018f0 <HAL_HCD_HC_SubmitRequest+0x240>

    default:
      break;
 80018ea:	bf00      	nop
 80018ec:	e000      	b.n	80018f0 <HAL_HCD_HC_SubmitRequest+0x240>
      break;
 80018ee:	bf00      	nop
  }

  hhcd->hc[ch_num].xfer_buff = pbuff;
 80018f0:	78fa      	ldrb	r2, [r7, #3]
 80018f2:	6879      	ldr	r1, [r7, #4]
 80018f4:	4613      	mov	r3, r2
 80018f6:	009b      	lsls	r3, r3, #2
 80018f8:	4413      	add	r3, r2
 80018fa:	00db      	lsls	r3, r3, #3
 80018fc:	440b      	add	r3, r1
 80018fe:	3344      	adds	r3, #68	; 0x44
 8001900:	697a      	ldr	r2, [r7, #20]
 8001902:	601a      	str	r2, [r3, #0]
  hhcd->hc[ch_num].xfer_len  = length;
 8001904:	78fa      	ldrb	r2, [r7, #3]
 8001906:	8b39      	ldrh	r1, [r7, #24]
 8001908:	6878      	ldr	r0, [r7, #4]
 800190a:	4613      	mov	r3, r2
 800190c:	009b      	lsls	r3, r3, #2
 800190e:	4413      	add	r3, r2
 8001910:	00db      	lsls	r3, r3, #3
 8001912:	4403      	add	r3, r0
 8001914:	3348      	adds	r3, #72	; 0x48
 8001916:	6019      	str	r1, [r3, #0]
  hhcd->hc[ch_num].urb_state = URB_IDLE;
 8001918:	78fa      	ldrb	r2, [r7, #3]
 800191a:	6879      	ldr	r1, [r7, #4]
 800191c:	4613      	mov	r3, r2
 800191e:	009b      	lsls	r3, r3, #2
 8001920:	4413      	add	r3, r2
 8001922:	00db      	lsls	r3, r3, #3
 8001924:	440b      	add	r3, r1
 8001926:	335c      	adds	r3, #92	; 0x5c
 8001928:	2200      	movs	r2, #0
 800192a:	701a      	strb	r2, [r3, #0]
  hhcd->hc[ch_num].xfer_count = 0U;
 800192c:	78fa      	ldrb	r2, [r7, #3]
 800192e:	6879      	ldr	r1, [r7, #4]
 8001930:	4613      	mov	r3, r2
 8001932:	009b      	lsls	r3, r3, #2
 8001934:	4413      	add	r3, r2
 8001936:	00db      	lsls	r3, r3, #3
 8001938:	440b      	add	r3, r1
 800193a:	334c      	adds	r3, #76	; 0x4c
 800193c:	2200      	movs	r2, #0
 800193e:	601a      	str	r2, [r3, #0]
  hhcd->hc[ch_num].ch_num = ch_num;
 8001940:	78fa      	ldrb	r2, [r7, #3]
 8001942:	6879      	ldr	r1, [r7, #4]
 8001944:	4613      	mov	r3, r2
 8001946:	009b      	lsls	r3, r3, #2
 8001948:	4413      	add	r3, r2
 800194a:	00db      	lsls	r3, r3, #3
 800194c:	440b      	add	r3, r1
 800194e:	3339      	adds	r3, #57	; 0x39
 8001950:	78fa      	ldrb	r2, [r7, #3]
 8001952:	701a      	strb	r2, [r3, #0]
  hhcd->hc[ch_num].state = HC_IDLE;
 8001954:	78fa      	ldrb	r2, [r7, #3]
 8001956:	6879      	ldr	r1, [r7, #4]
 8001958:	4613      	mov	r3, r2
 800195a:	009b      	lsls	r3, r3, #2
 800195c:	4413      	add	r3, r2
 800195e:	00db      	lsls	r3, r3, #3
 8001960:	440b      	add	r3, r1
 8001962:	335d      	adds	r3, #93	; 0x5d
 8001964:	2200      	movs	r2, #0
 8001966:	701a      	strb	r2, [r3, #0]

  return USB_HC_StartXfer(hhcd->Instance, &hhcd->hc[ch_num], (uint8_t)hhcd->Init.dma_enable);
 8001968:	687b      	ldr	r3, [r7, #4]
 800196a:	6818      	ldr	r0, [r3, #0]
 800196c:	78fa      	ldrb	r2, [r7, #3]
 800196e:	4613      	mov	r3, r2
 8001970:	009b      	lsls	r3, r3, #2
 8001972:	4413      	add	r3, r2
 8001974:	00db      	lsls	r3, r3, #3
 8001976:	3338      	adds	r3, #56	; 0x38
 8001978:	687a      	ldr	r2, [r7, #4]
 800197a:	18d1      	adds	r1, r2, r3
 800197c:	687b      	ldr	r3, [r7, #4]
 800197e:	691b      	ldr	r3, [r3, #16]
 8001980:	b2db      	uxtb	r3, r3
 8001982:	461a      	mov	r2, r3
 8001984:	f003 ff26 	bl	80057d4 <USB_HC_StartXfer>
 8001988:	4603      	mov	r3, r0
}
 800198a:	4618      	mov	r0, r3
 800198c:	3708      	adds	r7, #8
 800198e:	46bd      	mov	sp, r7
 8001990:	bd80      	pop	{r7, pc}
 8001992:	bf00      	nop

08001994 <HAL_HCD_IRQHandler>:
  * @brief  Handle HCD interrupt request.
  * @param  hhcd HCD handle
  * @retval None
  */
void HAL_HCD_IRQHandler(HCD_HandleTypeDef *hhcd)
{
 8001994:	b580      	push	{r7, lr}
 8001996:	b086      	sub	sp, #24
 8001998:	af00      	add	r7, sp, #0
 800199a:	6078      	str	r0, [r7, #4]
  USB_OTG_GlobalTypeDef *USBx = hhcd->Instance;
 800199c:	687b      	ldr	r3, [r7, #4]
 800199e:	681b      	ldr	r3, [r3, #0]
 80019a0:	613b      	str	r3, [r7, #16]
  uint32_t USBx_BASE = (uint32_t)USBx;
 80019a2:	693b      	ldr	r3, [r7, #16]
 80019a4:	60fb      	str	r3, [r7, #12]
  uint32_t i, interrupt;

  /* Ensure that we are in device mode */
  if (USB_GetMode(hhcd->Instance) == USB_OTG_MODE_HOST)
 80019a6:	687b      	ldr	r3, [r7, #4]
 80019a8:	681b      	ldr	r3, [r3, #0]
 80019aa:	4618      	mov	r0, r3
 80019ac:	f003 fc43 	bl	8005236 <USB_GetMode>
 80019b0:	4603      	mov	r3, r0
 80019b2:	2b01      	cmp	r3, #1
 80019b4:	f040 80ef 	bne.w	8001b96 <HAL_HCD_IRQHandler+0x202>
  {
    /* Avoid spurious interrupt */
    if (__HAL_HCD_IS_INVALID_INTERRUPT(hhcd))
 80019b8:	687b      	ldr	r3, [r7, #4]
 80019ba:	681b      	ldr	r3, [r3, #0]
 80019bc:	4618      	mov	r0, r3
 80019be:	f003 fc27 	bl	8005210 <USB_ReadInterrupts>
 80019c2:	4603      	mov	r3, r0
 80019c4:	2b00      	cmp	r3, #0
 80019c6:	f000 80e5 	beq.w	8001b94 <HAL_HCD_IRQHandler+0x200>
    {
      return;
    }

    if (__HAL_HCD_GET_FLAG(hhcd, USB_OTG_GINTSTS_PXFR_INCOMPISOOUT))
 80019ca:	687b      	ldr	r3, [r7, #4]
 80019cc:	681b      	ldr	r3, [r3, #0]
 80019ce:	4618      	mov	r0, r3
 80019d0:	f003 fc1e 	bl	8005210 <USB_ReadInterrupts>
 80019d4:	4603      	mov	r3, r0
 80019d6:	f403 1300 	and.w	r3, r3, #2097152	; 0x200000
 80019da:	f5b3 1f00 	cmp.w	r3, #2097152	; 0x200000
 80019de:	d104      	bne.n	80019ea <HAL_HCD_IRQHandler+0x56>
    {
      /* Incorrect mode, acknowledge the interrupt */
      __HAL_HCD_CLEAR_FLAG(hhcd, USB_OTG_GINTSTS_PXFR_INCOMPISOOUT);
 80019e0:	687b      	ldr	r3, [r7, #4]
 80019e2:	681b      	ldr	r3, [r3, #0]
 80019e4:	f44f 1200 	mov.w	r2, #2097152	; 0x200000
 80019e8:	615a      	str	r2, [r3, #20]
    }

    if (__HAL_HCD_GET_FLAG(hhcd, USB_OTG_GINTSTS_IISOIXFR))
 80019ea:	687b      	ldr	r3, [r7, #4]
 80019ec:	681b      	ldr	r3, [r3, #0]
 80019ee:	4618      	mov	r0, r3
 80019f0:	f003 fc0e 	bl	8005210 <USB_ReadInterrupts>
 80019f4:	4603      	mov	r3, r0
 80019f6:	f403 1380 	and.w	r3, r3, #1048576	; 0x100000
 80019fa:	f5b3 1f80 	cmp.w	r3, #1048576	; 0x100000
 80019fe:	d104      	bne.n	8001a0a <HAL_HCD_IRQHandler+0x76>
    {
      /* Incorrect mode, acknowledge the interrupt */
      __HAL_HCD_CLEAR_FLAG(hhcd, USB_OTG_GINTSTS_IISOIXFR);
 8001a00:	687b      	ldr	r3, [r7, #4]
 8001a02:	681b      	ldr	r3, [r3, #0]
 8001a04:	f44f 1280 	mov.w	r2, #1048576	; 0x100000
 8001a08:	615a      	str	r2, [r3, #20]
    }

    if (__HAL_HCD_GET_FLAG(hhcd, USB_OTG_GINTSTS_PTXFE))
 8001a0a:	687b      	ldr	r3, [r7, #4]
 8001a0c:	681b      	ldr	r3, [r3, #0]
 8001a0e:	4618      	mov	r0, r3
 8001a10:	f003 fbfe 	bl	8005210 <USB_ReadInterrupts>
 8001a14:	4603      	mov	r3, r0
 8001a16:	f003 6380 	and.w	r3, r3, #67108864	; 0x4000000
 8001a1a:	f1b3 6f80 	cmp.w	r3, #67108864	; 0x4000000
 8001a1e:	d104      	bne.n	8001a2a <HAL_HCD_IRQHandler+0x96>
    {
      /* Incorrect mode, acknowledge the interrupt */
      __HAL_HCD_CLEAR_FLAG(hhcd, USB_OTG_GINTSTS_PTXFE);
 8001a20:	687b      	ldr	r3, [r7, #4]
 8001a22:	681b      	ldr	r3, [r3, #0]
 8001a24:	f04f 6280 	mov.w	r2, #67108864	; 0x4000000
 8001a28:	615a      	str	r2, [r3, #20]
    }

    if (__HAL_HCD_GET_FLAG(hhcd, USB_OTG_GINTSTS_MMIS))
 8001a2a:	687b      	ldr	r3, [r7, #4]
 8001a2c:	681b      	ldr	r3, [r3, #0]
 8001a2e:	4618      	mov	r0, r3
 8001a30:	f003 fbee 	bl	8005210 <USB_ReadInterrupts>
 8001a34:	4603      	mov	r3, r0
 8001a36:	f003 0302 	and.w	r3, r3, #2
 8001a3a:	2b02      	cmp	r3, #2
 8001a3c:	d103      	bne.n	8001a46 <HAL_HCD_IRQHandler+0xb2>
    {
      /* Incorrect mode, acknowledge the interrupt */
      __HAL_HCD_CLEAR_FLAG(hhcd, USB_OTG_GINTSTS_MMIS);
 8001a3e:	687b      	ldr	r3, [r7, #4]
 8001a40:	681b      	ldr	r3, [r3, #0]
 8001a42:	2202      	movs	r2, #2
 8001a44:	615a      	str	r2, [r3, #20]
    }

    /* Handle Host Disconnect Interrupts */
    if (__HAL_HCD_GET_FLAG(hhcd, USB_OTG_GINTSTS_DISCINT))
 8001a46:	687b      	ldr	r3, [r7, #4]
 8001a48:	681b      	ldr	r3, [r3, #0]
 8001a4a:	4618      	mov	r0, r3
 8001a4c:	f003 fbe0 	bl	8005210 <USB_ReadInterrupts>
 8001a50:	4603      	mov	r3, r0
 8001a52:	f003 5300 	and.w	r3, r3, #536870912	; 0x20000000
 8001a56:	f1b3 5f00 	cmp.w	r3, #536870912	; 0x20000000
 8001a5a:	d115      	bne.n	8001a88 <HAL_HCD_IRQHandler+0xf4>
    {
      __HAL_HCD_CLEAR_FLAG(hhcd, USB_OTG_GINTSTS_DISCINT);
 8001a5c:	687b      	ldr	r3, [r7, #4]
 8001a5e:	681b      	ldr	r3, [r3, #0]
 8001a60:	f04f 5200 	mov.w	r2, #536870912	; 0x20000000
 8001a64:	615a      	str	r2, [r3, #20]

      if ((USBx_HPRT0 & USB_OTG_HPRT_PCSTS) == 0U)
 8001a66:	68fb      	ldr	r3, [r7, #12]
 8001a68:	f503 6388 	add.w	r3, r3, #1088	; 0x440
 8001a6c:	681b      	ldr	r3, [r3, #0]
 8001a6e:	f003 0301 	and.w	r3, r3, #1
 8001a72:	2b00      	cmp	r3, #0
 8001a74:	d108      	bne.n	8001a88 <HAL_HCD_IRQHandler+0xf4>
      {
        /* Handle Host Port Disconnect Interrupt */
#if (USE_HAL_HCD_REGISTER_CALLBACKS == 1U)
        hhcd->DisconnectCallback(hhcd);
#else
        HAL_HCD_Disconnect_Callback(hhcd);
 8001a76:	6878      	ldr	r0, [r7, #4]
 8001a78:	f006 f998 	bl	8007dac <HAL_HCD_Disconnect_Callback>
#endif /* USE_HAL_HCD_REGISTER_CALLBACKS */

        (void)USB_InitFSLSPClkSel(hhcd->Instance, HCFG_48_MHZ);
 8001a7c:	687b      	ldr	r3, [r7, #4]
 8001a7e:	681b      	ldr	r3, [r3, #0]
 8001a80:	2101      	movs	r1, #1
 8001a82:	4618      	mov	r0, r3
 8001a84:	f003 fcd6 	bl	8005434 <USB_InitFSLSPClkSel>
      }
    }

    /* Handle Host Port Interrupts */
    if (__HAL_HCD_GET_FLAG(hhcd, USB_OTG_GINTSTS_HPRTINT))
 8001a88:	687b      	ldr	r3, [r7, #4]
 8001a8a:	681b      	ldr	r3, [r3, #0]
 8001a8c:	4618      	mov	r0, r3
 8001a8e:	f003 fbbf 	bl	8005210 <USB_ReadInterrupts>
 8001a92:	4603      	mov	r3, r0
 8001a94:	f003 7380 	and.w	r3, r3, #16777216	; 0x1000000
 8001a98:	f1b3 7f80 	cmp.w	r3, #16777216	; 0x1000000
 8001a9c:	d102      	bne.n	8001aa4 <HAL_HCD_IRQHandler+0x110>
    {
      HCD_Port_IRQHandler(hhcd);
 8001a9e:	6878      	ldr	r0, [r7, #4]
 8001aa0:	f001 f966 	bl	8002d70 <HCD_Port_IRQHandler>
    }

    /* Handle Host SOF Interrupt */
    if (__HAL_HCD_GET_FLAG(hhcd, USB_OTG_GINTSTS_SOF))
 8001aa4:	687b      	ldr	r3, [r7, #4]
 8001aa6:	681b      	ldr	r3, [r3, #0]
 8001aa8:	4618      	mov	r0, r3
 8001aaa:	f003 fbb1 	bl	8005210 <USB_ReadInterrupts>
 8001aae:	4603      	mov	r3, r0
 8001ab0:	f003 0308 	and.w	r3, r3, #8
 8001ab4:	2b08      	cmp	r3, #8
 8001ab6:	d106      	bne.n	8001ac6 <HAL_HCD_IRQHandler+0x132>
    {
#if (USE_HAL_HCD_REGISTER_CALLBACKS == 1U)
      hhcd->SOFCallback(hhcd);
#else
      HAL_HCD_SOF_Callback(hhcd);
 8001ab8:	6878      	ldr	r0, [r7, #4]
 8001aba:	f006 f95b 	bl	8007d74 <HAL_HCD_SOF_Callback>
#endif /* USE_HAL_HCD_REGISTER_CALLBACKS */

      __HAL_HCD_CLEAR_FLAG(hhcd, USB_OTG_GINTSTS_SOF);
 8001abe:	687b      	ldr	r3, [r7, #4]
 8001ac0:	681b      	ldr	r3, [r3, #0]
 8001ac2:	2208      	movs	r2, #8
 8001ac4:	615a      	str	r2, [r3, #20]
    }

    /* Handle Host channel Interrupt */
    if (__HAL_HCD_GET_FLAG(hhcd, USB_OTG_GINTSTS_HCINT))
 8001ac6:	687b      	ldr	r3, [r7, #4]
 8001ac8:	681b      	ldr	r3, [r3, #0]
 8001aca:	4618      	mov	r0, r3
 8001acc:	f003 fba0 	bl	8005210 <USB_ReadInterrupts>
 8001ad0:	4603      	mov	r3, r0
 8001ad2:	f003 7300 	and.w	r3, r3, #33554432	; 0x2000000
 8001ad6:	f1b3 7f00 	cmp.w	r3, #33554432	; 0x2000000
 8001ada:	d138      	bne.n	8001b4e <HAL_HCD_IRQHandler+0x1ba>
    {
      interrupt = USB_HC_ReadInterrupt(hhcd->Instance);
 8001adc:	687b      	ldr	r3, [r7, #4]
 8001ade:	681b      	ldr	r3, [r3, #0]
 8001ae0:	4618      	mov	r0, r3
 8001ae2:	f003 ffbd 	bl	8005a60 <USB_HC_ReadInterrupt>
 8001ae6:	60b8      	str	r0, [r7, #8]
      for (i = 0U; i < hhcd->Init.Host_channels; i++)
 8001ae8:	2300      	movs	r3, #0
 8001aea:	617b      	str	r3, [r7, #20]
 8001aec:	e025      	b.n	8001b3a <HAL_HCD_IRQHandler+0x1a6>
      {
        if ((interrupt & (1UL << (i & 0xFU))) != 0U)
 8001aee:	697b      	ldr	r3, [r7, #20]
 8001af0:	f003 030f 	and.w	r3, r3, #15
 8001af4:	68ba      	ldr	r2, [r7, #8]
 8001af6:	fa22 f303 	lsr.w	r3, r2, r3
 8001afa:	f003 0301 	and.w	r3, r3, #1
 8001afe:	2b00      	cmp	r3, #0
 8001b00:	d018      	beq.n	8001b34 <HAL_HCD_IRQHandler+0x1a0>
        {
          if ((USBx_HC(i)->HCCHAR & USB_OTG_HCCHAR_EPDIR) == USB_OTG_HCCHAR_EPDIR)
 8001b02:	697b      	ldr	r3, [r7, #20]
 8001b04:	015a      	lsls	r2, r3, #5
 8001b06:	68fb      	ldr	r3, [r7, #12]
 8001b08:	4413      	add	r3, r2
 8001b0a:	f503 63a0 	add.w	r3, r3, #1280	; 0x500
 8001b0e:	681b      	ldr	r3, [r3, #0]
 8001b10:	f403 4300 	and.w	r3, r3, #32768	; 0x8000
 8001b14:	f5b3 4f00 	cmp.w	r3, #32768	; 0x8000
 8001b18:	d106      	bne.n	8001b28 <HAL_HCD_IRQHandler+0x194>
          {
            HCD_HC_IN_IRQHandler(hhcd, (uint8_t)i);
 8001b1a:	697b      	ldr	r3, [r7, #20]
 8001b1c:	b2db      	uxtb	r3, r3
 8001b1e:	4619      	mov	r1, r3
 8001b20:	6878      	ldr	r0, [r7, #4]
 8001b22:	f000 f8cf 	bl	8001cc4 <HCD_HC_IN_IRQHandler>
 8001b26:	e005      	b.n	8001b34 <HAL_HCD_IRQHandler+0x1a0>
          }
          else
          {
            HCD_HC_OUT_IRQHandler(hhcd, (uint8_t)i);
 8001b28:	697b      	ldr	r3, [r7, #20]
 8001b2a:	b2db      	uxtb	r3, r3
 8001b2c:	4619      	mov	r1, r3
 8001b2e:	6878      	ldr	r0, [r7, #4]
 8001b30:	f000 fcfd 	bl	800252e <HCD_HC_OUT_IRQHandler>
      for (i = 0U; i < hhcd->Init.Host_channels; i++)
 8001b34:	697b      	ldr	r3, [r7, #20]
 8001b36:	3301      	adds	r3, #1
 8001b38:	617b      	str	r3, [r7, #20]
 8001b3a:	687b      	ldr	r3, [r7, #4]
 8001b3c:	689b      	ldr	r3, [r3, #8]
 8001b3e:	697a      	ldr	r2, [r7, #20]
 8001b40:	429a      	cmp	r2, r3
 8001b42:	d3d4      	bcc.n	8001aee <HAL_HCD_IRQHandler+0x15a>
          }
        }
      }
      __HAL_HCD_CLEAR_FLAG(hhcd, USB_OTG_GINTSTS_HCINT);
 8001b44:	687b      	ldr	r3, [r7, #4]
 8001b46:	681b      	ldr	r3, [r3, #0]
 8001b48:	f04f 7200 	mov.w	r2, #33554432	; 0x2000000
 8001b4c:	615a      	str	r2, [r3, #20]
    }

    /* Handle Rx Queue Level Interrupts */
    if ((__HAL_HCD_GET_FLAG(hhcd, USB_OTG_GINTSTS_RXFLVL)) != 0U)
 8001b4e:	687b      	ldr	r3, [r7, #4]
 8001b50:	681b      	ldr	r3, [r3, #0]
 8001b52:	4618      	mov	r0, r3
 8001b54:	f003 fb5c 	bl	8005210 <USB_ReadInterrupts>
 8001b58:	4603      	mov	r3, r0
 8001b5a:	f003 0310 	and.w	r3, r3, #16
 8001b5e:	2b10      	cmp	r3, #16
 8001b60:	d101      	bne.n	8001b66 <HAL_HCD_IRQHandler+0x1d2>
 8001b62:	2301      	movs	r3, #1
 8001b64:	e000      	b.n	8001b68 <HAL_HCD_IRQHandler+0x1d4>
 8001b66:	2300      	movs	r3, #0
 8001b68:	2b00      	cmp	r3, #0
 8001b6a:	d014      	beq.n	8001b96 <HAL_HCD_IRQHandler+0x202>
    {
      USB_MASK_INTERRUPT(hhcd->Instance, USB_OTG_GINTSTS_RXFLVL);
 8001b6c:	687b      	ldr	r3, [r7, #4]
 8001b6e:	681b      	ldr	r3, [r3, #0]
 8001b70:	699a      	ldr	r2, [r3, #24]
 8001b72:	687b      	ldr	r3, [r7, #4]
 8001b74:	681b      	ldr	r3, [r3, #0]
 8001b76:	f022 0210 	bic.w	r2, r2, #16
 8001b7a:	619a      	str	r2, [r3, #24]

      HCD_RXQLVL_IRQHandler(hhcd);
 8001b7c:	6878      	ldr	r0, [r7, #4]
 8001b7e:	f001 f84b 	bl	8002c18 <HCD_RXQLVL_IRQHandler>

      USB_UNMASK_INTERRUPT(hhcd->Instance, USB_OTG_GINTSTS_RXFLVL);
 8001b82:	687b      	ldr	r3, [r7, #4]
 8001b84:	681b      	ldr	r3, [r3, #0]
 8001b86:	699a      	ldr	r2, [r3, #24]
 8001b88:	687b      	ldr	r3, [r7, #4]
 8001b8a:	681b      	ldr	r3, [r3, #0]
 8001b8c:	f042 0210 	orr.w	r2, r2, #16
 8001b90:	619a      	str	r2, [r3, #24]
 8001b92:	e000      	b.n	8001b96 <HAL_HCD_IRQHandler+0x202>
      return;
 8001b94:	bf00      	nop
    }
  }
}
 8001b96:	3718      	adds	r7, #24
 8001b98:	46bd      	mov	sp, r7
 8001b9a:	bd80      	pop	{r7, pc}

08001b9c <HAL_HCD_Start>:
  * @brief  Start the host driver.
  * @param  hhcd HCD handle
  * @retval HAL status
  */
HAL_StatusTypeDef HAL_HCD_Start(HCD_HandleTypeDef *hhcd)
{
 8001b9c:	b580      	push	{r7, lr}
 8001b9e:	b082      	sub	sp, #8
 8001ba0:	af00      	add	r7, sp, #0
 8001ba2:	6078      	str	r0, [r7, #4]
  __HAL_LOCK(hhcd);
 8001ba4:	687b      	ldr	r3, [r7, #4]
 8001ba6:	f893 32b8 	ldrb.w	r3, [r3, #696]	; 0x2b8
 8001baa:	2b01      	cmp	r3, #1
 8001bac:	d101      	bne.n	8001bb2 <HAL_HCD_Start+0x16>
 8001bae:	2302      	movs	r3, #2
 8001bb0:	e013      	b.n	8001bda <HAL_HCD_Start+0x3e>
 8001bb2:	687b      	ldr	r3, [r7, #4]
 8001bb4:	2201      	movs	r2, #1
 8001bb6:	f883 22b8 	strb.w	r2, [r3, #696]	; 0x2b8
  __HAL_HCD_ENABLE(hhcd);
 8001bba:	687b      	ldr	r3, [r7, #4]
 8001bbc:	681b      	ldr	r3, [r3, #0]
 8001bbe:	4618      	mov	r0, r3
 8001bc0:	f003 fa33 	bl	800502a <USB_EnableGlobalInt>
  (void)USB_DriveVbus(hhcd->Instance, 1U);
 8001bc4:	687b      	ldr	r3, [r7, #4]
 8001bc6:	681b      	ldr	r3, [r3, #0]
 8001bc8:	2101      	movs	r1, #1
 8001bca:	4618      	mov	r0, r3
 8001bcc:	f003 fc96 	bl	80054fc <USB_DriveVbus>
  __HAL_UNLOCK(hhcd);
 8001bd0:	687b      	ldr	r3, [r7, #4]
 8001bd2:	2200      	movs	r2, #0
 8001bd4:	f883 22b8 	strb.w	r2, [r3, #696]	; 0x2b8

  return HAL_OK;
 8001bd8:	2300      	movs	r3, #0
}
 8001bda:	4618      	mov	r0, r3
 8001bdc:	3708      	adds	r7, #8
 8001bde:	46bd      	mov	sp, r7
 8001be0:	bd80      	pop	{r7, pc}

08001be2 <HAL_HCD_Stop>:
  * @param  hhcd HCD handle
  * @retval HAL status
  */

HAL_StatusTypeDef HAL_HCD_Stop(HCD_HandleTypeDef *hhcd)
{
 8001be2:	b580      	push	{r7, lr}
 8001be4:	b082      	sub	sp, #8
 8001be6:	af00      	add	r7, sp, #0
 8001be8:	6078      	str	r0, [r7, #4]
  __HAL_LOCK(hhcd);
 8001bea:	687b      	ldr	r3, [r7, #4]
 8001bec:	f893 32b8 	ldrb.w	r3, [r3, #696]	; 0x2b8
 8001bf0:	2b01      	cmp	r3, #1
 8001bf2:	d101      	bne.n	8001bf8 <HAL_HCD_Stop+0x16>
 8001bf4:	2302      	movs	r3, #2
 8001bf6:	e00d      	b.n	8001c14 <HAL_HCD_Stop+0x32>
 8001bf8:	687b      	ldr	r3, [r7, #4]
 8001bfa:	2201      	movs	r2, #1
 8001bfc:	f883 22b8 	strb.w	r2, [r3, #696]	; 0x2b8
  (void)USB_StopHost(hhcd->Instance);
 8001c00:	687b      	ldr	r3, [r7, #4]
 8001c02:	681b      	ldr	r3, [r3, #0]
 8001c04:	4618      	mov	r0, r3
 8001c06:	f004 f877 	bl	8005cf8 <USB_StopHost>
  __HAL_UNLOCK(hhcd);
 8001c0a:	687b      	ldr	r3, [r7, #4]
 8001c0c:	2200      	movs	r2, #0
 8001c0e:	f883 22b8 	strb.w	r2, [r3, #696]	; 0x2b8

  return HAL_OK;
 8001c12:	2300      	movs	r3, #0
}
 8001c14:	4618      	mov	r0, r3
 8001c16:	3708      	adds	r7, #8
 8001c18:	46bd      	mov	sp, r7
 8001c1a:	bd80      	pop	{r7, pc}

08001c1c <HAL_HCD_ResetPort>:
  * @brief  Reset the host port.
  * @param  hhcd HCD handle
  * @retval HAL status
  */
HAL_StatusTypeDef HAL_HCD_ResetPort(HCD_HandleTypeDef *hhcd)
{
 8001c1c:	b580      	push	{r7, lr}
 8001c1e:	b082      	sub	sp, #8
 8001c20:	af00      	add	r7, sp, #0
 8001c22:	6078      	str	r0, [r7, #4]
  return (USB_ResetPort(hhcd->Instance));
 8001c24:	687b      	ldr	r3, [r7, #4]
 8001c26:	681b      	ldr	r3, [r3, #0]
 8001c28:	4618      	mov	r0, r3
 8001c2a:	f003 fc3d 	bl	80054a8 <USB_ResetPort>
 8001c2e:	4603      	mov	r3, r0
}
 8001c30:	4618      	mov	r0, r3
 8001c32:	3708      	adds	r7, #8
 8001c34:	46bd      	mov	sp, r7
 8001c36:	bd80      	pop	{r7, pc}

08001c38 <HAL_HCD_HC_GetURBState>:
  *            URB_NYET/
  *            URB_ERROR/
  *            URB_STALL
  */
HCD_URBStateTypeDef HAL_HCD_HC_GetURBState(HCD_HandleTypeDef *hhcd, uint8_t chnum)
{
 8001c38:	b480      	push	{r7}
 8001c3a:	b083      	sub	sp, #12
 8001c3c:	af00      	add	r7, sp, #0
 8001c3e:	6078      	str	r0, [r7, #4]
 8001c40:	460b      	mov	r3, r1
 8001c42:	70fb      	strb	r3, [r7, #3]
  return hhcd->hc[chnum].urb_state;
 8001c44:	78fa      	ldrb	r2, [r7, #3]
 8001c46:	6879      	ldr	r1, [r7, #4]
 8001c48:	4613      	mov	r3, r2
 8001c4a:	009b      	lsls	r3, r3, #2
 8001c4c:	4413      	add	r3, r2
 8001c4e:	00db      	lsls	r3, r3, #3
 8001c50:	440b      	add	r3, r1
 8001c52:	335c      	adds	r3, #92	; 0x5c
 8001c54:	781b      	ldrb	r3, [r3, #0]
}
 8001c56:	4618      	mov	r0, r3
 8001c58:	370c      	adds	r7, #12
 8001c5a:	46bd      	mov	sp, r7
 8001c5c:	f85d 7b04 	ldr.w	r7, [sp], #4
 8001c60:	4770      	bx	lr

08001c62 <HAL_HCD_HC_GetXferCount>:
  * @param  chnum Channel number.
  *         This parameter can be a value from 1 to 15
  * @retval last transfer size in byte
  */
uint32_t HAL_HCD_HC_GetXferCount(HCD_HandleTypeDef *hhcd, uint8_t chnum)
{
 8001c62:	b480      	push	{r7}
 8001c64:	b083      	sub	sp, #12
 8001c66:	af00      	add	r7, sp, #0
 8001c68:	6078      	str	r0, [r7, #4]
 8001c6a:	460b      	mov	r3, r1
 8001c6c:	70fb      	strb	r3, [r7, #3]
  return hhcd->hc[chnum].xfer_count;
 8001c6e:	78fa      	ldrb	r2, [r7, #3]
 8001c70:	6879      	ldr	r1, [r7, #4]
 8001c72:	4613      	mov	r3, r2
 8001c74:	009b      	lsls	r3, r3, #2
 8001c76:	4413      	add	r3, r2
 8001c78:	00db      	lsls	r3, r3, #3
 8001c7a:	440b      	add	r3, r1
 8001c7c:	334c      	adds	r3, #76	; 0x4c
 8001c7e:	681b      	ldr	r3, [r3, #0]
}
 8001c80:	4618      	mov	r0, r3
 8001c82:	370c      	adds	r7, #12
 8001c84:	46bd      	mov	sp, r7
 8001c86:	f85d 7b04 	ldr.w	r7, [sp], #4
 8001c8a:	4770      	bx	lr

08001c8c <HAL_HCD_GetCurrentFrame>:
  * @brief  Return the current Host frame number.
  * @param  hhcd HCD handle
  * @retval Current Host frame number
  */
uint32_t HAL_HCD_GetCurrentFrame(HCD_HandleTypeDef *hhcd)
{
 8001c8c:	b580      	push	{r7, lr}
 8001c8e:	b082      	sub	sp, #8
 8001c90:	af00      	add	r7, sp, #0
 8001c92:	6078      	str	r0, [r7, #4]
  return (USB_GetCurrentFrame(hhcd->Instance));
 8001c94:	687b      	ldr	r3, [r7, #4]
 8001c96:	681b      	ldr	r3, [r3, #0]
 8001c98:	4618      	mov	r0, r3
 8001c9a:	f003 fc7f 	bl	800559c <USB_GetCurrentFrame>
 8001c9e:	4603      	mov	r3, r0
}
 8001ca0:	4618      	mov	r0, r3
 8001ca2:	3708      	adds	r7, #8
 8001ca4:	46bd      	mov	sp, r7
 8001ca6:	bd80      	pop	{r7, pc}

08001ca8 <HAL_HCD_GetCurrentSpeed>:
  * @brief  Return the Host enumeration speed.
  * @param  hhcd HCD handle
  * @retval Enumeration speed
  */
uint32_t HAL_HCD_GetCurrentSpeed(HCD_HandleTypeDef *hhcd)
{
 8001ca8:	b580      	push	{r7, lr}
 8001caa:	b082      	sub	sp, #8
 8001cac:	af00      	add	r7, sp, #0
 8001cae:	6078      	str	r0, [r7, #4]
  return (USB_GetHostSpeed(hhcd->Instance));
 8001cb0:	687b      	ldr	r3, [r7, #4]
 8001cb2:	681b      	ldr	r3, [r3, #0]
 8001cb4:	4618      	mov	r0, r3
 8001cb6:	f003 fc5a 	bl	800556e <USB_GetHostSpeed>
 8001cba:	4603      	mov	r3, r0
}
 8001cbc:	4618      	mov	r0, r3
 8001cbe:	3708      	adds	r7, #8
 8001cc0:	46bd      	mov	sp, r7
 8001cc2:	bd80      	pop	{r7, pc}

08001cc4 <HCD_HC_IN_IRQHandler>:
  * @param  chnum Channel number.
  *         This parameter can be a value from 1 to 15
  * @retval none
  */
static void HCD_HC_IN_IRQHandler(HCD_HandleTypeDef *hhcd, uint8_t chnum)
{
 8001cc4:	b580      	push	{r7, lr}
 8001cc6:	b086      	sub	sp, #24
 8001cc8:	af00      	add	r7, sp, #0
 8001cca:	6078      	str	r0, [r7, #4]
 8001ccc:	460b      	mov	r3, r1
 8001cce:	70fb      	strb	r3, [r7, #3]
  USB_OTG_GlobalTypeDef *USBx = hhcd->Instance;
 8001cd0:	687b      	ldr	r3, [r7, #4]
 8001cd2:	681b      	ldr	r3, [r3, #0]
 8001cd4:	617b      	str	r3, [r7, #20]
  uint32_t USBx_BASE = (uint32_t)USBx;
 8001cd6:	697b      	ldr	r3, [r7, #20]
 8001cd8:	613b      	str	r3, [r7, #16]
  uint32_t ch_num = (uint32_t)chnum;
 8001cda:	78fb      	ldrb	r3, [r7, #3]
 8001cdc:	60fb      	str	r3, [r7, #12]

  uint32_t tmpreg;

  if ((USBx_HC(ch_num)->HCINT & USB_OTG_HCINT_AHBERR) == USB_OTG_HCINT_AHBERR)
 8001cde:	68fb      	ldr	r3, [r7, #12]
 8001ce0:	015a      	lsls	r2, r3, #5
 8001ce2:	693b      	ldr	r3, [r7, #16]
 8001ce4:	4413      	add	r3, r2
 8001ce6:	f503 63a0 	add.w	r3, r3, #1280	; 0x500
 8001cea:	689b      	ldr	r3, [r3, #8]
 8001cec:	f003 0304 	and.w	r3, r3, #4
 8001cf0:	2b04      	cmp	r3, #4
 8001cf2:	d119      	bne.n	8001d28 <HCD_HC_IN_IRQHandler+0x64>
  {
    __HAL_HCD_CLEAR_HC_INT(ch_num, USB_OTG_HCINT_AHBERR);
 8001cf4:	68fb      	ldr	r3, [r7, #12]
 8001cf6:	015a      	lsls	r2, r3, #5
 8001cf8:	693b      	ldr	r3, [r7, #16]
 8001cfa:	4413      	add	r3, r2
 8001cfc:	f503 63a0 	add.w	r3, r3, #1280	; 0x500
 8001d00:	461a      	mov	r2, r3
 8001d02:	2304      	movs	r3, #4
 8001d04:	6093      	str	r3, [r2, #8]
    __HAL_HCD_UNMASK_HALT_HC_INT(ch_num);
 8001d06:	68fb      	ldr	r3, [r7, #12]
 8001d08:	015a      	lsls	r2, r3, #5
 8001d0a:	693b      	ldr	r3, [r7, #16]
 8001d0c:	4413      	add	r3, r2
 8001d0e:	f503 63a0 	add.w	r3, r3, #1280	; 0x500
 8001d12:	68db      	ldr	r3, [r3, #12]
 8001d14:	68fa      	ldr	r2, [r7, #12]
 8001d16:	0151      	lsls	r1, r2, #5
 8001d18:	693a      	ldr	r2, [r7, #16]
 8001d1a:	440a      	add	r2, r1
 8001d1c:	f502 62a0 	add.w	r2, r2, #1280	; 0x500
 8001d20:	f043 0302 	orr.w	r3, r3, #2
 8001d24:	60d3      	str	r3, [r2, #12]
 8001d26:	e0ce      	b.n	8001ec6 <HCD_HC_IN_IRQHandler+0x202>
  }
  else if ((USBx_HC(ch_num)->HCINT & USB_OTG_HCINT_BBERR) == USB_OTG_HCINT_BBERR)
 8001d28:	68fb      	ldr	r3, [r7, #12]
 8001d2a:	015a      	lsls	r2, r3, #5
 8001d2c:	693b      	ldr	r3, [r7, #16]
 8001d2e:	4413      	add	r3, r2
 8001d30:	f503 63a0 	add.w	r3, r3, #1280	; 0x500
 8001d34:	689b      	ldr	r3, [r3, #8]
 8001d36:	f403 7380 	and.w	r3, r3, #256	; 0x100
 8001d3a:	f5b3 7f80 	cmp.w	r3, #256	; 0x100
 8001d3e:	d12c      	bne.n	8001d9a <HCD_HC_IN_IRQHandler+0xd6>
  {
    __HAL_HCD_CLEAR_HC_INT(ch_num, USB_OTG_HCINT_BBERR);
 8001d40:	68fb      	ldr	r3, [r7, #12]
 8001d42:	015a      	lsls	r2, r3, #5
 8001d44:	693b      	ldr	r3, [r7, #16]
 8001d46:	4413      	add	r3, r2
 8001d48:	f503 63a0 	add.w	r3, r3, #1280	; 0x500
 8001d4c:	461a      	mov	r2, r3
 8001d4e:	f44f 7380 	mov.w	r3, #256	; 0x100
 8001d52:	6093      	str	r3, [r2, #8]
    hhcd->hc[ch_num].state = HC_BBLERR;
 8001d54:	6879      	ldr	r1, [r7, #4]
 8001d56:	68fa      	ldr	r2, [r7, #12]
 8001d58:	4613      	mov	r3, r2
 8001d5a:	009b      	lsls	r3, r3, #2
 8001d5c:	4413      	add	r3, r2
 8001d5e:	00db      	lsls	r3, r3, #3
 8001d60:	440b      	add	r3, r1
 8001d62:	335d      	adds	r3, #93	; 0x5d
 8001d64:	2207      	movs	r2, #7
 8001d66:	701a      	strb	r2, [r3, #0]
    __HAL_HCD_UNMASK_HALT_HC_INT(ch_num);
 8001d68:	68fb      	ldr	r3, [r7, #12]
 8001d6a:	015a      	lsls	r2, r3, #5
 8001d6c:	693b      	ldr	r3, [r7, #16]
 8001d6e:	4413      	add	r3, r2
 8001d70:	f503 63a0 	add.w	r3, r3, #1280	; 0x500
 8001d74:	68db      	ldr	r3, [r3, #12]
 8001d76:	68fa      	ldr	r2, [r7, #12]
 8001d78:	0151      	lsls	r1, r2, #5
 8001d7a:	693a      	ldr	r2, [r7, #16]
 8001d7c:	440a      	add	r2, r1
 8001d7e:	f502 62a0 	add.w	r2, r2, #1280	; 0x500
 8001d82:	f043 0302 	orr.w	r3, r3, #2
 8001d86:	60d3      	str	r3, [r2, #12]
    (void)USB_HC_Halt(hhcd->Instance, (uint8_t)ch_num);
 8001d88:	687b      	ldr	r3, [r7, #4]
 8001d8a:	681b      	ldr	r3, [r3, #0]
 8001d8c:	68fa      	ldr	r2, [r7, #12]
 8001d8e:	b2d2      	uxtb	r2, r2
 8001d90:	4611      	mov	r1, r2
 8001d92:	4618      	mov	r0, r3
 8001d94:	f003 fe75 	bl	8005a82 <USB_HC_Halt>
 8001d98:	e095      	b.n	8001ec6 <HCD_HC_IN_IRQHandler+0x202>
  }
  else if ((USBx_HC(ch_num)->HCINT & USB_OTG_HCINT_ACK) == USB_OTG_HCINT_ACK)
 8001d9a:	68fb      	ldr	r3, [r7, #12]
 8001d9c:	015a      	lsls	r2, r3, #5
 8001d9e:	693b      	ldr	r3, [r7, #16]
 8001da0:	4413      	add	r3, r2
 8001da2:	f503 63a0 	add.w	r3, r3, #1280	; 0x500
 8001da6:	689b      	ldr	r3, [r3, #8]
 8001da8:	f003 0320 	and.w	r3, r3, #32
 8001dac:	2b20      	cmp	r3, #32
 8001dae:	d109      	bne.n	8001dc4 <HCD_HC_IN_IRQHandler+0x100>
  {
    __HAL_HCD_CLEAR_HC_INT(ch_num, USB_OTG_HCINT_ACK);
 8001db0:	68fb      	ldr	r3, [r7, #12]
 8001db2:	015a      	lsls	r2, r3, #5
 8001db4:	693b      	ldr	r3, [r7, #16]
 8001db6:	4413      	add	r3, r2
 8001db8:	f503 63a0 	add.w	r3, r3, #1280	; 0x500
 8001dbc:	461a      	mov	r2, r3
 8001dbe:	2320      	movs	r3, #32
 8001dc0:	6093      	str	r3, [r2, #8]
 8001dc2:	e080      	b.n	8001ec6 <HCD_HC_IN_IRQHandler+0x202>
  }
  else if ((USBx_HC(ch_num)->HCINT & USB_OTG_HCINT_STALL) == USB_OTG_HCINT_STALL)
 8001dc4:	68fb      	ldr	r3, [r7, #12]
 8001dc6:	015a      	lsls	r2, r3, #5
 8001dc8:	693b      	ldr	r3, [r7, #16]
 8001dca:	4413      	add	r3, r2
 8001dcc:	f503 63a0 	add.w	r3, r3, #1280	; 0x500
 8001dd0:	689b      	ldr	r3, [r3, #8]
 8001dd2:	f003 0308 	and.w	r3, r3, #8
 8001dd6:	2b08      	cmp	r3, #8
 8001dd8:	d134      	bne.n	8001e44 <HCD_HC_IN_IRQHandler+0x180>
  {
    __HAL_HCD_UNMASK_HALT_HC_INT(ch_num);
 8001dda:	68fb      	ldr	r3, [r7, #12]
 8001ddc:	015a      	lsls	r2, r3, #5
 8001dde:	693b      	ldr	r3, [r7, #16]
 8001de0:	4413      	add	r3, r2
 8001de2:	f503 63a0 	add.w	r3, r3, #1280	; 0x500
 8001de6:	68db      	ldr	r3, [r3, #12]
 8001de8:	68fa      	ldr	r2, [r7, #12]
 8001dea:	0151      	lsls	r1, r2, #5
 8001dec:	693a      	ldr	r2, [r7, #16]
 8001dee:	440a      	add	r2, r1
 8001df0:	f502 62a0 	add.w	r2, r2, #1280	; 0x500
 8001df4:	f043 0302 	orr.w	r3, r3, #2
 8001df8:	60d3      	str	r3, [r2, #12]
    hhcd->hc[ch_num].state = HC_STALL;
 8001dfa:	6879      	ldr	r1, [r7, #4]
 8001dfc:	68fa      	ldr	r2, [r7, #12]
 8001dfe:	4613      	mov	r3, r2
 8001e00:	009b      	lsls	r3, r3, #2
 8001e02:	4413      	add	r3, r2
 8001e04:	00db      	lsls	r3, r3, #3
 8001e06:	440b      	add	r3, r1
 8001e08:	335d      	adds	r3, #93	; 0x5d
 8001e0a:	2205      	movs	r2, #5
 8001e0c:	701a      	strb	r2, [r3, #0]
    __HAL_HCD_CLEAR_HC_INT(ch_num, USB_OTG_HCINT_NAK);
 8001e0e:	68fb      	ldr	r3, [r7, #12]
 8001e10:	015a      	lsls	r2, r3, #5
 8001e12:	693b      	ldr	r3, [r7, #16]
 8001e14:	4413      	add	r3, r2
 8001e16:	f503 63a0 	add.w	r3, r3, #1280	; 0x500
 8001e1a:	461a      	mov	r2, r3
 8001e1c:	2310      	movs	r3, #16
 8001e1e:	6093      	str	r3, [r2, #8]
    __HAL_HCD_CLEAR_HC_INT(ch_num, USB_OTG_HCINT_STALL);
 8001e20:	68fb      	ldr	r3, [r7, #12]
 8001e22:	015a      	lsls	r2, r3, #5
 8001e24:	693b      	ldr	r3, [r7, #16]
 8001e26:	4413      	add	r3, r2
 8001e28:	f503 63a0 	add.w	r3, r3, #1280	; 0x500
 8001e2c:	461a      	mov	r2, r3
 8001e2e:	2308      	movs	r3, #8
 8001e30:	6093      	str	r3, [r2, #8]
    (void)USB_HC_Halt(hhcd->Instance, (uint8_t)ch_num);
 8001e32:	687b      	ldr	r3, [r7, #4]
 8001e34:	681b      	ldr	r3, [r3, #0]
 8001e36:	68fa      	ldr	r2, [r7, #12]
 8001e38:	b2d2      	uxtb	r2, r2
 8001e3a:	4611      	mov	r1, r2
 8001e3c:	4618      	mov	r0, r3
 8001e3e:	f003 fe20 	bl	8005a82 <USB_HC_Halt>
 8001e42:	e040      	b.n	8001ec6 <HCD_HC_IN_IRQHandler+0x202>
  }
  else if ((USBx_HC(ch_num)->HCINT & USB_OTG_HCINT_DTERR) == USB_OTG_HCINT_DTERR)
 8001e44:	68fb      	ldr	r3, [r7, #12]
 8001e46:	015a      	lsls	r2, r3, #5
 8001e48:	693b      	ldr	r3, [r7, #16]
 8001e4a:	4413      	add	r3, r2
 8001e4c:	f503 63a0 	add.w	r3, r3, #1280	; 0x500
 8001e50:	689b      	ldr	r3, [r3, #8]
 8001e52:	f403 6380 	and.w	r3, r3, #1024	; 0x400
 8001e56:	f5b3 6f80 	cmp.w	r3, #1024	; 0x400
 8001e5a:	d134      	bne.n	8001ec6 <HCD_HC_IN_IRQHandler+0x202>
  {
    __HAL_HCD_UNMASK_HALT_HC_INT(ch_num);
 8001e5c:	68fb      	ldr	r3, [r7, #12]
 8001e5e:	015a      	lsls	r2, r3, #5
 8001e60:	693b      	ldr	r3, [r7, #16]
 8001e62:	4413      	add	r3, r2
 8001e64:	f503 63a0 	add.w	r3, r3, #1280	; 0x500
 8001e68:	68db      	ldr	r3, [r3, #12]
 8001e6a:	68fa      	ldr	r2, [r7, #12]
 8001e6c:	0151      	lsls	r1, r2, #5
 8001e6e:	693a      	ldr	r2, [r7, #16]
 8001e70:	440a      	add	r2, r1
 8001e72:	f502 62a0 	add.w	r2, r2, #1280	; 0x500
 8001e76:	f043 0302 	orr.w	r3, r3, #2
 8001e7a:	60d3      	str	r3, [r2, #12]
    (void)USB_HC_Halt(hhcd->Instance, (uint8_t)ch_num);
 8001e7c:	687b      	ldr	r3, [r7, #4]
 8001e7e:	681b      	ldr	r3, [r3, #0]
 8001e80:	68fa      	ldr	r2, [r7, #12]
 8001e82:	b2d2      	uxtb	r2, r2
 8001e84:	4611      	mov	r1, r2
 8001e86:	4618      	mov	r0, r3
 8001e88:	f003 fdfb 	bl	8005a82 <USB_HC_Halt>
    __HAL_HCD_CLEAR_HC_INT(ch_num, USB_OTG_HCINT_NAK);
 8001e8c:	68fb      	ldr	r3, [r7, #12]
 8001e8e:	015a      	lsls	r2, r3, #5
 8001e90:	693b      	ldr	r3, [r7, #16]
 8001e92:	4413      	add	r3, r2
 8001e94:	f503 63a0 	add.w	r3, r3, #1280	; 0x500
 8001e98:	461a      	mov	r2, r3
 8001e9a:	2310      	movs	r3, #16
 8001e9c:	6093      	str	r3, [r2, #8]
    hhcd->hc[ch_num].state = HC_DATATGLERR;
 8001e9e:	6879      	ldr	r1, [r7, #4]
 8001ea0:	68fa      	ldr	r2, [r7, #12]
 8001ea2:	4613      	mov	r3, r2
 8001ea4:	009b      	lsls	r3, r3, #2
 8001ea6:	4413      	add	r3, r2
 8001ea8:	00db      	lsls	r3, r3, #3
 8001eaa:	440b      	add	r3, r1
 8001eac:	335d      	adds	r3, #93	; 0x5d
 8001eae:	2208      	movs	r2, #8
 8001eb0:	701a      	strb	r2, [r3, #0]
    __HAL_HCD_CLEAR_HC_INT(ch_num, USB_OTG_HCINT_DTERR);
 8001eb2:	68fb      	ldr	r3, [r7, #12]
 8001eb4:	015a      	lsls	r2, r3, #5
 8001eb6:	693b      	ldr	r3, [r7, #16]
 8001eb8:	4413      	add	r3, r2
 8001eba:	f503 63a0 	add.w	r3, r3, #1280	; 0x500
 8001ebe:	461a      	mov	r2, r3
 8001ec0:	f44f 6380 	mov.w	r3, #1024	; 0x400
 8001ec4:	6093      	str	r3, [r2, #8]
  else
  {
    /* ... */
  }

  if ((USBx_HC(ch_num)->HCINT & USB_OTG_HCINT_FRMOR) == USB_OTG_HCINT_FRMOR)
 8001ec6:	68fb      	ldr	r3, [r7, #12]
 8001ec8:	015a      	lsls	r2, r3, #5
 8001eca:	693b      	ldr	r3, [r7, #16]
 8001ecc:	4413      	add	r3, r2
 8001ece:	f503 63a0 	add.w	r3, r3, #1280	; 0x500
 8001ed2:	689b      	ldr	r3, [r3, #8]
 8001ed4:	f403 7300 	and.w	r3, r3, #512	; 0x200
 8001ed8:	f5b3 7f00 	cmp.w	r3, #512	; 0x200
 8001edc:	d122      	bne.n	8001f24 <HCD_HC_IN_IRQHandler+0x260>
  {
    __HAL_HCD_UNMASK_HALT_HC_INT(ch_num);
 8001ede:	68fb      	ldr	r3, [r7, #12]
 8001ee0:	015a      	lsls	r2, r3, #5
 8001ee2:	693b      	ldr	r3, [r7, #16]
 8001ee4:	4413      	add	r3, r2
 8001ee6:	f503 63a0 	add.w	r3, r3, #1280	; 0x500
 8001eea:	68db      	ldr	r3, [r3, #12]
 8001eec:	68fa      	ldr	r2, [r7, #12]
 8001eee:	0151      	lsls	r1, r2, #5
 8001ef0:	693a      	ldr	r2, [r7, #16]
 8001ef2:	440a      	add	r2, r1
 8001ef4:	f502 62a0 	add.w	r2, r2, #1280	; 0x500
 8001ef8:	f043 0302 	orr.w	r3, r3, #2
 8001efc:	60d3      	str	r3, [r2, #12]
    (void)USB_HC_Halt(hhcd->Instance, (uint8_t)ch_num);
 8001efe:	687b      	ldr	r3, [r7, #4]
 8001f00:	681b      	ldr	r3, [r3, #0]
 8001f02:	68fa      	ldr	r2, [r7, #12]
 8001f04:	b2d2      	uxtb	r2, r2
 8001f06:	4611      	mov	r1, r2
 8001f08:	4618      	mov	r0, r3
 8001f0a:	f003 fdba 	bl	8005a82 <USB_HC_Halt>
    __HAL_HCD_CLEAR_HC_INT(ch_num, USB_OTG_HCINT_FRMOR);
 8001f0e:	68fb      	ldr	r3, [r7, #12]
 8001f10:	015a      	lsls	r2, r3, #5
 8001f12:	693b      	ldr	r3, [r7, #16]
 8001f14:	4413      	add	r3, r2
 8001f16:	f503 63a0 	add.w	r3, r3, #1280	; 0x500
 8001f1a:	461a      	mov	r2, r3
 8001f1c:	f44f 7300 	mov.w	r3, #512	; 0x200
 8001f20:	6093      	str	r3, [r2, #8]
  }
  else
  {
    /* ... */
  }
}
 8001f22:	e300      	b.n	8002526 <HCD_HC_IN_IRQHandler+0x862>
  else if ((USBx_HC(ch_num)->HCINT & USB_OTG_HCINT_XFRC) == USB_OTG_HCINT_XFRC)
 8001f24:	68fb      	ldr	r3, [r7, #12]
 8001f26:	015a      	lsls	r2, r3, #5
 8001f28:	693b      	ldr	r3, [r7, #16]
 8001f2a:	4413      	add	r3, r2
 8001f2c:	f503 63a0 	add.w	r3, r3, #1280	; 0x500
 8001f30:	689b      	ldr	r3, [r3, #8]
 8001f32:	f003 0301 	and.w	r3, r3, #1
 8001f36:	2b01      	cmp	r3, #1
 8001f38:	f040 80fd 	bne.w	8002136 <HCD_HC_IN_IRQHandler+0x472>
    if (hhcd->Init.dma_enable != 0U)
 8001f3c:	687b      	ldr	r3, [r7, #4]
 8001f3e:	691b      	ldr	r3, [r3, #16]
 8001f40:	2b00      	cmp	r3, #0
 8001f42:	d01b      	beq.n	8001f7c <HCD_HC_IN_IRQHandler+0x2b8>
      hhcd->hc[ch_num].xfer_count = hhcd->hc[ch_num].xfer_len - \
 8001f44:	6879      	ldr	r1, [r7, #4]
 8001f46:	68fa      	ldr	r2, [r7, #12]
 8001f48:	4613      	mov	r3, r2
 8001f4a:	009b      	lsls	r3, r3, #2
 8001f4c:	4413      	add	r3, r2
 8001f4e:	00db      	lsls	r3, r3, #3
 8001f50:	440b      	add	r3, r1
 8001f52:	3348      	adds	r3, #72	; 0x48
 8001f54:	681a      	ldr	r2, [r3, #0]
                                    (USBx_HC(ch_num)->HCTSIZ & USB_OTG_HCTSIZ_XFRSIZ);
 8001f56:	68fb      	ldr	r3, [r7, #12]
 8001f58:	0159      	lsls	r1, r3, #5
 8001f5a:	693b      	ldr	r3, [r7, #16]
 8001f5c:	440b      	add	r3, r1
 8001f5e:	f503 63a0 	add.w	r3, r3, #1280	; 0x500
 8001f62:	691b      	ldr	r3, [r3, #16]
 8001f64:	f3c3 0312 	ubfx	r3, r3, #0, #19
      hhcd->hc[ch_num].xfer_count = hhcd->hc[ch_num].xfer_len - \
 8001f68:	1ad1      	subs	r1, r2, r3
 8001f6a:	6878      	ldr	r0, [r7, #4]
 8001f6c:	68fa      	ldr	r2, [r7, #12]
 8001f6e:	4613      	mov	r3, r2
 8001f70:	009b      	lsls	r3, r3, #2
 8001f72:	4413      	add	r3, r2
 8001f74:	00db      	lsls	r3, r3, #3
 8001f76:	4403      	add	r3, r0
 8001f78:	334c      	adds	r3, #76	; 0x4c
 8001f7a:	6019      	str	r1, [r3, #0]
    hhcd->hc[ch_num].state = HC_XFRC;
 8001f7c:	6879      	ldr	r1, [r7, #4]
 8001f7e:	68fa      	ldr	r2, [r7, #12]
 8001f80:	4613      	mov	r3, r2
 8001f82:	009b      	lsls	r3, r3, #2
 8001f84:	4413      	add	r3, r2
 8001f86:	00db      	lsls	r3, r3, #3
 8001f88:	440b      	add	r3, r1
 8001f8a:	335d      	adds	r3, #93	; 0x5d
 8001f8c:	2201      	movs	r2, #1
 8001f8e:	701a      	strb	r2, [r3, #0]
    hhcd->hc[ch_num].ErrCnt = 0U;
 8001f90:	6879      	ldr	r1, [r7, #4]
 8001f92:	68fa      	ldr	r2, [r7, #12]
 8001f94:	4613      	mov	r3, r2
 8001f96:	009b      	lsls	r3, r3, #2
 8001f98:	4413      	add	r3, r2
 8001f9a:	00db      	lsls	r3, r3, #3
 8001f9c:	440b      	add	r3, r1
 8001f9e:	3358      	adds	r3, #88	; 0x58
 8001fa0:	2200      	movs	r2, #0
 8001fa2:	601a      	str	r2, [r3, #0]
    __HAL_HCD_CLEAR_HC_INT(ch_num, USB_OTG_HCINT_XFRC);
 8001fa4:	68fb      	ldr	r3, [r7, #12]
 8001fa6:	015a      	lsls	r2, r3, #5
 8001fa8:	693b      	ldr	r3, [r7, #16]
 8001faa:	4413      	add	r3, r2
 8001fac:	f503 63a0 	add.w	r3, r3, #1280	; 0x500
 8001fb0:	461a      	mov	r2, r3
 8001fb2:	2301      	movs	r3, #1
 8001fb4:	6093      	str	r3, [r2, #8]
    if ((hhcd->hc[ch_num].ep_type == EP_TYPE_CTRL) ||
 8001fb6:	6879      	ldr	r1, [r7, #4]
 8001fb8:	68fa      	ldr	r2, [r7, #12]
 8001fba:	4613      	mov	r3, r2
 8001fbc:	009b      	lsls	r3, r3, #2
 8001fbe:	4413      	add	r3, r2
 8001fc0:	00db      	lsls	r3, r3, #3
 8001fc2:	440b      	add	r3, r1
 8001fc4:	333f      	adds	r3, #63	; 0x3f
 8001fc6:	781b      	ldrb	r3, [r3, #0]
 8001fc8:	2b00      	cmp	r3, #0
 8001fca:	d00a      	beq.n	8001fe2 <HCD_HC_IN_IRQHandler+0x31e>
        (hhcd->hc[ch_num].ep_type == EP_TYPE_BULK))
 8001fcc:	6879      	ldr	r1, [r7, #4]
 8001fce:	68fa      	ldr	r2, [r7, #12]
 8001fd0:	4613      	mov	r3, r2
 8001fd2:	009b      	lsls	r3, r3, #2
 8001fd4:	4413      	add	r3, r2
 8001fd6:	00db      	lsls	r3, r3, #3
 8001fd8:	440b      	add	r3, r1
 8001fda:	333f      	adds	r3, #63	; 0x3f
 8001fdc:	781b      	ldrb	r3, [r3, #0]
    if ((hhcd->hc[ch_num].ep_type == EP_TYPE_CTRL) ||
 8001fde:	2b02      	cmp	r3, #2
 8001fe0:	d121      	bne.n	8002026 <HCD_HC_IN_IRQHandler+0x362>
      __HAL_HCD_UNMASK_HALT_HC_INT(ch_num);
 8001fe2:	68fb      	ldr	r3, [r7, #12]
 8001fe4:	015a      	lsls	r2, r3, #5
 8001fe6:	693b      	ldr	r3, [r7, #16]
 8001fe8:	4413      	add	r3, r2
 8001fea:	f503 63a0 	add.w	r3, r3, #1280	; 0x500
 8001fee:	68db      	ldr	r3, [r3, #12]
 8001ff0:	68fa      	ldr	r2, [r7, #12]
 8001ff2:	0151      	lsls	r1, r2, #5
 8001ff4:	693a      	ldr	r2, [r7, #16]
 8001ff6:	440a      	add	r2, r1
 8001ff8:	f502 62a0 	add.w	r2, r2, #1280	; 0x500
 8001ffc:	f043 0302 	orr.w	r3, r3, #2
 8002000:	60d3      	str	r3, [r2, #12]
      (void)USB_HC_Halt(hhcd->Instance, (uint8_t)ch_num);
 8002002:	687b      	ldr	r3, [r7, #4]
 8002004:	681b      	ldr	r3, [r3, #0]
 8002006:	68fa      	ldr	r2, [r7, #12]
 8002008:	b2d2      	uxtb	r2, r2
 800200a:	4611      	mov	r1, r2
 800200c:	4618      	mov	r0, r3
 800200e:	f003 fd38 	bl	8005a82 <USB_HC_Halt>
      __HAL_HCD_CLEAR_HC_INT(ch_num, USB_OTG_HCINT_NAK);
 8002012:	68fb      	ldr	r3, [r7, #12]
 8002014:	015a      	lsls	r2, r3, #5
 8002016:	693b      	ldr	r3, [r7, #16]
 8002018:	4413      	add	r3, r2
 800201a:	f503 63a0 	add.w	r3, r3, #1280	; 0x500
 800201e:	461a      	mov	r2, r3
 8002020:	2310      	movs	r3, #16
 8002022:	6093      	str	r3, [r2, #8]
 8002024:	e070      	b.n	8002108 <HCD_HC_IN_IRQHandler+0x444>
    else if (hhcd->hc[ch_num].ep_type == EP_TYPE_INTR)
 8002026:	6879      	ldr	r1, [r7, #4]
 8002028:	68fa      	ldr	r2, [r7, #12]
 800202a:	4613      	mov	r3, r2
 800202c:	009b      	lsls	r3, r3, #2
 800202e:	4413      	add	r3, r2
 8002030:	00db      	lsls	r3, r3, #3
 8002032:	440b      	add	r3, r1
 8002034:	333f      	adds	r3, #63	; 0x3f
 8002036:	781b      	ldrb	r3, [r3, #0]
 8002038:	2b03      	cmp	r3, #3
 800203a:	d12a      	bne.n	8002092 <HCD_HC_IN_IRQHandler+0x3ce>
      USBx_HC(ch_num)->HCCHAR |= USB_OTG_HCCHAR_ODDFRM;
 800203c:	68fb      	ldr	r3, [r7, #12]
 800203e:	015a      	lsls	r2, r3, #5
 8002040:	693b      	ldr	r3, [r7, #16]
 8002042:	4413      	add	r3, r2
 8002044:	f503 63a0 	add.w	r3, r3, #1280	; 0x500
 8002048:	681b      	ldr	r3, [r3, #0]
 800204a:	68fa      	ldr	r2, [r7, #12]
 800204c:	0151      	lsls	r1, r2, #5
 800204e:	693a      	ldr	r2, [r7, #16]
 8002050:	440a      	add	r2, r1
 8002052:	f502 62a0 	add.w	r2, r2, #1280	; 0x500
 8002056:	f043 5300 	orr.w	r3, r3, #536870912	; 0x20000000
 800205a:	6013      	str	r3, [r2, #0]
      hhcd->hc[ch_num].urb_state = URB_DONE;
 800205c:	6879      	ldr	r1, [r7, #4]
 800205e:	68fa      	ldr	r2, [r7, #12]
 8002060:	4613      	mov	r3, r2
 8002062:	009b      	lsls	r3, r3, #2
 8002064:	4413      	add	r3, r2
 8002066:	00db      	lsls	r3, r3, #3
 8002068:	440b      	add	r3, r1
 800206a:	335c      	adds	r3, #92	; 0x5c
 800206c:	2201      	movs	r2, #1
 800206e:	701a      	strb	r2, [r3, #0]
      HAL_HCD_HC_NotifyURBChange_Callback(hhcd, (uint8_t)ch_num, hhcd->hc[ch_num].urb_state);
 8002070:	68fb      	ldr	r3, [r7, #12]
 8002072:	b2d8      	uxtb	r0, r3
 8002074:	6879      	ldr	r1, [r7, #4]
 8002076:	68fa      	ldr	r2, [r7, #12]
 8002078:	4613      	mov	r3, r2
 800207a:	009b      	lsls	r3, r3, #2
 800207c:	4413      	add	r3, r2
 800207e:	00db      	lsls	r3, r3, #3
 8002080:	440b      	add	r3, r1
 8002082:	335c      	adds	r3, #92	; 0x5c
 8002084:	781b      	ldrb	r3, [r3, #0]
 8002086:	461a      	mov	r2, r3
 8002088:	4601      	mov	r1, r0
 800208a:	6878      	ldr	r0, [r7, #4]
 800208c:	f005 fe9c 	bl	8007dc8 <HAL_HCD_HC_NotifyURBChange_Callback>
 8002090:	e03a      	b.n	8002108 <HCD_HC_IN_IRQHandler+0x444>
    else if (hhcd->hc[ch_num].ep_type == EP_TYPE_ISOC)
 8002092:	6879      	ldr	r1, [r7, #4]
 8002094:	68fa      	ldr	r2, [r7, #12]
 8002096:	4613      	mov	r3, r2
 8002098:	009b      	lsls	r3, r3, #2
 800209a:	4413      	add	r3, r2
 800209c:	00db      	lsls	r3, r3, #3
 800209e:	440b      	add	r3, r1
 80020a0:	333f      	adds	r3, #63	; 0x3f
 80020a2:	781b      	ldrb	r3, [r3, #0]
 80020a4:	2b01      	cmp	r3, #1
 80020a6:	d12f      	bne.n	8002108 <HCD_HC_IN_IRQHandler+0x444>
      hhcd->hc[ch_num].urb_state = URB_DONE;
 80020a8:	6879      	ldr	r1, [r7, #4]
 80020aa:	68fa      	ldr	r2, [r7, #12]
 80020ac:	4613      	mov	r3, r2
 80020ae:	009b      	lsls	r3, r3, #2
 80020b0:	4413      	add	r3, r2
 80020b2:	00db      	lsls	r3, r3, #3
 80020b4:	440b      	add	r3, r1
 80020b6:	335c      	adds	r3, #92	; 0x5c
 80020b8:	2201      	movs	r2, #1
 80020ba:	701a      	strb	r2, [r3, #0]
      hhcd->hc[ch_num].toggle_in ^= 1U;
 80020bc:	6879      	ldr	r1, [r7, #4]
 80020be:	68fa      	ldr	r2, [r7, #12]
 80020c0:	4613      	mov	r3, r2
 80020c2:	009b      	lsls	r3, r3, #2
 80020c4:	4413      	add	r3, r2
 80020c6:	00db      	lsls	r3, r3, #3
 80020c8:	440b      	add	r3, r1
 80020ca:	3350      	adds	r3, #80	; 0x50
 80020cc:	781b      	ldrb	r3, [r3, #0]
 80020ce:	f083 0301 	eor.w	r3, r3, #1
 80020d2:	b2d8      	uxtb	r0, r3
 80020d4:	6879      	ldr	r1, [r7, #4]
 80020d6:	68fa      	ldr	r2, [r7, #12]
 80020d8:	4613      	mov	r3, r2
 80020da:	009b      	lsls	r3, r3, #2
 80020dc:	4413      	add	r3, r2
 80020de:	00db      	lsls	r3, r3, #3
 80020e0:	440b      	add	r3, r1
 80020e2:	3350      	adds	r3, #80	; 0x50
 80020e4:	4602      	mov	r2, r0
 80020e6:	701a      	strb	r2, [r3, #0]
      HAL_HCD_HC_NotifyURBChange_Callback(hhcd, (uint8_t)ch_num, hhcd->hc[ch_num].urb_state);
 80020e8:	68fb      	ldr	r3, [r7, #12]
 80020ea:	b2d8      	uxtb	r0, r3
 80020ec:	6879      	ldr	r1, [r7, #4]
 80020ee:	68fa      	ldr	r2, [r7, #12]
 80020f0:	4613      	mov	r3, r2
 80020f2:	009b      	lsls	r3, r3, #2
 80020f4:	4413      	add	r3, r2
 80020f6:	00db      	lsls	r3, r3, #3
 80020f8:	440b      	add	r3, r1
 80020fa:	335c      	adds	r3, #92	; 0x5c
 80020fc:	781b      	ldrb	r3, [r3, #0]
 80020fe:	461a      	mov	r2, r3
 8002100:	4601      	mov	r1, r0
 8002102:	6878      	ldr	r0, [r7, #4]
 8002104:	f005 fe60 	bl	8007dc8 <HAL_HCD_HC_NotifyURBChange_Callback>
    hhcd->hc[ch_num].toggle_in ^= 1U;
 8002108:	6879      	ldr	r1, [r7, #4]
 800210a:	68fa      	ldr	r2, [r7, #12]
 800210c:	4613      	mov	r3, r2
 800210e:	009b      	lsls	r3, r3, #2
 8002110:	4413      	add	r3, r2
 8002112:	00db      	lsls	r3, r3, #3
 8002114:	440b      	add	r3, r1
 8002116:	3350      	adds	r3, #80	; 0x50
 8002118:	781b      	ldrb	r3, [r3, #0]
 800211a:	f083 0301 	eor.w	r3, r3, #1
 800211e:	b2d8      	uxtb	r0, r3
 8002120:	6879      	ldr	r1, [r7, #4]
 8002122:	68fa      	ldr	r2, [r7, #12]
 8002124:	4613      	mov	r3, r2
 8002126:	009b      	lsls	r3, r3, #2
 8002128:	4413      	add	r3, r2
 800212a:	00db      	lsls	r3, r3, #3
 800212c:	440b      	add	r3, r1
 800212e:	3350      	adds	r3, #80	; 0x50
 8002130:	4602      	mov	r2, r0
 8002132:	701a      	strb	r2, [r3, #0]
}
 8002134:	e1f7      	b.n	8002526 <HCD_HC_IN_IRQHandler+0x862>
  else if ((USBx_HC(ch_num)->HCINT & USB_OTG_HCINT_CHH) == USB_OTG_HCINT_CHH)
 8002136:	68fb      	ldr	r3, [r7, #12]
 8002138:	015a      	lsls	r2, r3, #5
 800213a:	693b      	ldr	r3, [r7, #16]
 800213c:	4413      	add	r3, r2
 800213e:	f503 63a0 	add.w	r3, r3, #1280	; 0x500
 8002142:	689b      	ldr	r3, [r3, #8]
 8002144:	f003 0302 	and.w	r3, r3, #2
 8002148:	2b02      	cmp	r3, #2
 800214a:	f040 811a 	bne.w	8002382 <HCD_HC_IN_IRQHandler+0x6be>
    __HAL_HCD_MASK_HALT_HC_INT(ch_num);
 800214e:	68fb      	ldr	r3, [r7, #12]
 8002150:	015a      	lsls	r2, r3, #5
 8002152:	693b      	ldr	r3, [r7, #16]
 8002154:	4413      	add	r3, r2
 8002156:	f503 63a0 	add.w	r3, r3, #1280	; 0x500
 800215a:	68db      	ldr	r3, [r3, #12]
 800215c:	68fa      	ldr	r2, [r7, #12]
 800215e:	0151      	lsls	r1, r2, #5
 8002160:	693a      	ldr	r2, [r7, #16]
 8002162:	440a      	add	r2, r1
 8002164:	f502 62a0 	add.w	r2, r2, #1280	; 0x500
 8002168:	f023 0302 	bic.w	r3, r3, #2
 800216c:	60d3      	str	r3, [r2, #12]
    if (hhcd->hc[ch_num].state == HC_XFRC)
 800216e:	6879      	ldr	r1, [r7, #4]
 8002170:	68fa      	ldr	r2, [r7, #12]
 8002172:	4613      	mov	r3, r2
 8002174:	009b      	lsls	r3, r3, #2
 8002176:	4413      	add	r3, r2
 8002178:	00db      	lsls	r3, r3, #3
 800217a:	440b      	add	r3, r1
 800217c:	335d      	adds	r3, #93	; 0x5d
 800217e:	781b      	ldrb	r3, [r3, #0]
 8002180:	2b01      	cmp	r3, #1
 8002182:	d10a      	bne.n	800219a <HCD_HC_IN_IRQHandler+0x4d6>
      hhcd->hc[ch_num].urb_state  = URB_DONE;
 8002184:	6879      	ldr	r1, [r7, #4]
 8002186:	68fa      	ldr	r2, [r7, #12]
 8002188:	4613      	mov	r3, r2
 800218a:	009b      	lsls	r3, r3, #2
 800218c:	4413      	add	r3, r2
 800218e:	00db      	lsls	r3, r3, #3
 8002190:	440b      	add	r3, r1
 8002192:	335c      	adds	r3, #92	; 0x5c
 8002194:	2201      	movs	r2, #1
 8002196:	701a      	strb	r2, [r3, #0]
 8002198:	e0d9      	b.n	800234e <HCD_HC_IN_IRQHandler+0x68a>
    else if (hhcd->hc[ch_num].state == HC_STALL)
 800219a:	6879      	ldr	r1, [r7, #4]
 800219c:	68fa      	ldr	r2, [r7, #12]
 800219e:	4613      	mov	r3, r2
 80021a0:	009b      	lsls	r3, r3, #2
 80021a2:	4413      	add	r3, r2
 80021a4:	00db      	lsls	r3, r3, #3
 80021a6:	440b      	add	r3, r1
 80021a8:	335d      	adds	r3, #93	; 0x5d
 80021aa:	781b      	ldrb	r3, [r3, #0]
 80021ac:	2b05      	cmp	r3, #5
 80021ae:	d10a      	bne.n	80021c6 <HCD_HC_IN_IRQHandler+0x502>
      hhcd->hc[ch_num].urb_state  = URB_STALL;
 80021b0:	6879      	ldr	r1, [r7, #4]
 80021b2:	68fa      	ldr	r2, [r7, #12]
 80021b4:	4613      	mov	r3, r2
 80021b6:	009b      	lsls	r3, r3, #2
 80021b8:	4413      	add	r3, r2
 80021ba:	00db      	lsls	r3, r3, #3
 80021bc:	440b      	add	r3, r1
 80021be:	335c      	adds	r3, #92	; 0x5c
 80021c0:	2205      	movs	r2, #5
 80021c2:	701a      	strb	r2, [r3, #0]
 80021c4:	e0c3      	b.n	800234e <HCD_HC_IN_IRQHandler+0x68a>
    else if ((hhcd->hc[ch_num].state == HC_XACTERR) ||
 80021c6:	6879      	ldr	r1, [r7, #4]
 80021c8:	68fa      	ldr	r2, [r7, #12]
 80021ca:	4613      	mov	r3, r2
 80021cc:	009b      	lsls	r3, r3, #2
 80021ce:	4413      	add	r3, r2
 80021d0:	00db      	lsls	r3, r3, #3
 80021d2:	440b      	add	r3, r1
 80021d4:	335d      	adds	r3, #93	; 0x5d
 80021d6:	781b      	ldrb	r3, [r3, #0]
 80021d8:	2b06      	cmp	r3, #6
 80021da:	d00a      	beq.n	80021f2 <HCD_HC_IN_IRQHandler+0x52e>
             (hhcd->hc[ch_num].state == HC_DATATGLERR))
 80021dc:	6879      	ldr	r1, [r7, #4]
 80021de:	68fa      	ldr	r2, [r7, #12]
 80021e0:	4613      	mov	r3, r2
 80021e2:	009b      	lsls	r3, r3, #2
 80021e4:	4413      	add	r3, r2
 80021e6:	00db      	lsls	r3, r3, #3
 80021e8:	440b      	add	r3, r1
 80021ea:	335d      	adds	r3, #93	; 0x5d
 80021ec:	781b      	ldrb	r3, [r3, #0]
    else if ((hhcd->hc[ch_num].state == HC_XACTERR) ||
 80021ee:	2b08      	cmp	r3, #8
 80021f0:	d156      	bne.n	80022a0 <HCD_HC_IN_IRQHandler+0x5dc>
      hhcd->hc[ch_num].ErrCnt++;
 80021f2:	6879      	ldr	r1, [r7, #4]
 80021f4:	68fa      	ldr	r2, [r7, #12]
 80021f6:	4613      	mov	r3, r2
 80021f8:	009b      	lsls	r3, r3, #2
 80021fa:	4413      	add	r3, r2
 80021fc:	00db      	lsls	r3, r3, #3
 80021fe:	440b      	add	r3, r1
 8002200:	3358      	adds	r3, #88	; 0x58
 8002202:	681b      	ldr	r3, [r3, #0]
 8002204:	1c59      	adds	r1, r3, #1
 8002206:	6878      	ldr	r0, [r7, #4]
 8002208:	68fa      	ldr	r2, [r7, #12]
 800220a:	4613      	mov	r3, r2
 800220c:	009b      	lsls	r3, r3, #2
 800220e:	4413      	add	r3, r2
 8002210:	00db      	lsls	r3, r3, #3
 8002212:	4403      	add	r3, r0
 8002214:	3358      	adds	r3, #88	; 0x58
 8002216:	6019      	str	r1, [r3, #0]
      if (hhcd->hc[ch_num].ErrCnt > 3U)
 8002218:	6879      	ldr	r1, [r7, #4]
 800221a:	68fa      	ldr	r2, [r7, #12]
 800221c:	4613      	mov	r3, r2
 800221e:	009b      	lsls	r3, r3, #2
 8002220:	4413      	add	r3, r2
 8002222:	00db      	lsls	r3, r3, #3
 8002224:	440b      	add	r3, r1
 8002226:	3358      	adds	r3, #88	; 0x58
 8002228:	681b      	ldr	r3, [r3, #0]
 800222a:	2b03      	cmp	r3, #3
 800222c:	d914      	bls.n	8002258 <HCD_HC_IN_IRQHandler+0x594>
        hhcd->hc[ch_num].ErrCnt = 0U;
 800222e:	6879      	ldr	r1, [r7, #4]
 8002230:	68fa      	ldr	r2, [r7, #12]
 8002232:	4613      	mov	r3, r2
 8002234:	009b      	lsls	r3, r3, #2
 8002236:	4413      	add	r3, r2
 8002238:	00db      	lsls	r3, r3, #3
 800223a:	440b      	add	r3, r1
 800223c:	3358      	adds	r3, #88	; 0x58
 800223e:	2200      	movs	r2, #0
 8002240:	601a      	str	r2, [r3, #0]
        hhcd->hc[ch_num].urb_state = URB_ERROR;
 8002242:	6879      	ldr	r1, [r7, #4]
 8002244:	68fa      	ldr	r2, [r7, #12]
 8002246:	4613      	mov	r3, r2
 8002248:	009b      	lsls	r3, r3, #2
 800224a:	4413      	add	r3, r2
 800224c:	00db      	lsls	r3, r3, #3
 800224e:	440b      	add	r3, r1
 8002250:	335c      	adds	r3, #92	; 0x5c
 8002252:	2204      	movs	r2, #4
 8002254:	701a      	strb	r2, [r3, #0]
 8002256:	e009      	b.n	800226c <HCD_HC_IN_IRQHandler+0x5a8>
        hhcd->hc[ch_num].urb_state = URB_NOTREADY;
 8002258:	6879      	ldr	r1, [r7, #4]
 800225a:	68fa      	ldr	r2, [r7, #12]
 800225c:	4613      	mov	r3, r2
 800225e:	009b      	lsls	r3, r3, #2
 8002260:	4413      	add	r3, r2
 8002262:	00db      	lsls	r3, r3, #3
 8002264:	440b      	add	r3, r1
 8002266:	335c      	adds	r3, #92	; 0x5c
 8002268:	2202      	movs	r2, #2
 800226a:	701a      	strb	r2, [r3, #0]
      tmpreg = USBx_HC(ch_num)->HCCHAR;
 800226c:	68fb      	ldr	r3, [r7, #12]
 800226e:	015a      	lsls	r2, r3, #5
 8002270:	693b      	ldr	r3, [r7, #16]
 8002272:	4413      	add	r3, r2
 8002274:	f503 63a0 	add.w	r3, r3, #1280	; 0x500
 8002278:	681b      	ldr	r3, [r3, #0]
 800227a:	60bb      	str	r3, [r7, #8]
      tmpreg &= ~USB_OTG_HCCHAR_CHDIS;
 800227c:	68bb      	ldr	r3, [r7, #8]
 800227e:	f023 4380 	bic.w	r3, r3, #1073741824	; 0x40000000
 8002282:	60bb      	str	r3, [r7, #8]
      tmpreg |= USB_OTG_HCCHAR_CHENA;
 8002284:	68bb      	ldr	r3, [r7, #8]
 8002286:	f043 4300 	orr.w	r3, r3, #2147483648	; 0x80000000
 800228a:	60bb      	str	r3, [r7, #8]
      USBx_HC(ch_num)->HCCHAR = tmpreg;
 800228c:	68fb      	ldr	r3, [r7, #12]
 800228e:	015a      	lsls	r2, r3, #5
 8002290:	693b      	ldr	r3, [r7, #16]
 8002292:	4413      	add	r3, r2
 8002294:	f503 63a0 	add.w	r3, r3, #1280	; 0x500
 8002298:	461a      	mov	r2, r3
 800229a:	68bb      	ldr	r3, [r7, #8]
 800229c:	6013      	str	r3, [r2, #0]
 800229e:	e056      	b.n	800234e <HCD_HC_IN_IRQHandler+0x68a>
    else if (hhcd->hc[ch_num].state == HC_NAK)
 80022a0:	6879      	ldr	r1, [r7, #4]
 80022a2:	68fa      	ldr	r2, [r7, #12]
 80022a4:	4613      	mov	r3, r2
 80022a6:	009b      	lsls	r3, r3, #2
 80022a8:	4413      	add	r3, r2
 80022aa:	00db      	lsls	r3, r3, #3
 80022ac:	440b      	add	r3, r1
 80022ae:	335d      	adds	r3, #93	; 0x5d
 80022b0:	781b      	ldrb	r3, [r3, #0]
 80022b2:	2b03      	cmp	r3, #3
 80022b4:	d123      	bne.n	80022fe <HCD_HC_IN_IRQHandler+0x63a>
      hhcd->hc[ch_num].urb_state  = URB_NOTREADY;
 80022b6:	6879      	ldr	r1, [r7, #4]
 80022b8:	68fa      	ldr	r2, [r7, #12]
 80022ba:	4613      	mov	r3, r2
 80022bc:	009b      	lsls	r3, r3, #2
 80022be:	4413      	add	r3, r2
 80022c0:	00db      	lsls	r3, r3, #3
 80022c2:	440b      	add	r3, r1
 80022c4:	335c      	adds	r3, #92	; 0x5c
 80022c6:	2202      	movs	r2, #2
 80022c8:	701a      	strb	r2, [r3, #0]
      tmpreg = USBx_HC(ch_num)->HCCHAR;
 80022ca:	68fb      	ldr	r3, [r7, #12]
 80022cc:	015a      	lsls	r2, r3, #5
 80022ce:	693b      	ldr	r3, [r7, #16]
 80022d0:	4413      	add	r3, r2
 80022d2:	f503 63a0 	add.w	r3, r3, #1280	; 0x500
 80022d6:	681b      	ldr	r3, [r3, #0]
 80022d8:	60bb      	str	r3, [r7, #8]
      tmpreg &= ~USB_OTG_HCCHAR_CHDIS;
 80022da:	68bb      	ldr	r3, [r7, #8]
 80022dc:	f023 4380 	bic.w	r3, r3, #1073741824	; 0x40000000
 80022e0:	60bb      	str	r3, [r7, #8]
      tmpreg |= USB_OTG_HCCHAR_CHENA;
 80022e2:	68bb      	ldr	r3, [r7, #8]
 80022e4:	f043 4300 	orr.w	r3, r3, #2147483648	; 0x80000000
 80022e8:	60bb      	str	r3, [r7, #8]
      USBx_HC(ch_num)->HCCHAR = tmpreg;
 80022ea:	68fb      	ldr	r3, [r7, #12]
 80022ec:	015a      	lsls	r2, r3, #5
 80022ee:	693b      	ldr	r3, [r7, #16]
 80022f0:	4413      	add	r3, r2
 80022f2:	f503 63a0 	add.w	r3, r3, #1280	; 0x500
 80022f6:	461a      	mov	r2, r3
 80022f8:	68bb      	ldr	r3, [r7, #8]
 80022fa:	6013      	str	r3, [r2, #0]
 80022fc:	e027      	b.n	800234e <HCD_HC_IN_IRQHandler+0x68a>
