
0014_CAN_LOOPBACK.elf:     file format elf32-littlearm

Sections:
Idx Name          Size      VMA       LMA       File off  Algn
  0 .isr_vector   00000188  08000000  08000000  00010000  2**0
                  CONTENTS, ALLOC, LOAD, READONLY, DATA
  1 .text         00003998  08000190  08000190  00010190  2**4
                  CONTENTS, ALLOC, LOAD, READONLY, CODE
  2 .rodata       00000084  08003b28  08003b28  00013b28  2**2
                  CONTENTS, ALLOC, LOAD, READONLY, DATA
  3 .ARM.extab    00000000  08003bac  08003bac  00020070  2**0
                  CONTENTS
  4 .ARM          00000008  08003bac  08003bac  00013bac  2**2
                  CONTENTS, ALLOC, LOAD, READONLY, DATA
  5 .preinit_array 00000000  08003bb4  08003bb4  00020070  2**0
                  CONTENTS, ALLOC, LOAD, DATA
  6 .init_array   00000004  08003bb4  08003bb4  00013bb4  2**2
                  CONTENTS, ALLOC, LOAD, DATA
  7 .fini_array   00000004  08003bb8  08003bb8  00013bb8  2**2
                  CONTENTS, ALLOC, LOAD, DATA
  8 .data         00000070  20000000  08003bbc  00020000  2**2
                  CONTENTS, ALLOC, LOAD, DATA
  9 .bss          00000098  20000070  08003c2c  00020070  2**2
                  ALLOC
 10 ._user_heap_stack 00000600  20000108  08003c2c  00020108  2**0
                  ALLOC
 11 .ARM.attributes 00000030  00000000  00000000  00020070  2**0
                  CONTENTS, READONLY
 12 .debug_info   0000916e  00000000  00000000  000200a0  2**0
                  CONTENTS, READONLY, DEBUGGING
 13 .debug_abbrev 000017f3  00000000  00000000  0002920e  2**0
                  CONTENTS, READONLY, DEBUGGING
 14 .debug_aranges 00000800  00000000  00000000  0002aa08  2**3
                  CONTENTS, READONLY, DEBUGGING
 15 .debug_ranges 00000738  00000000  00000000  0002b208  2**3
                  CONTENTS, READONLY, DEBUGGING
 16 .debug_macro  00020c02  00000000  00000000  0002b940  2**0
                  CONTENTS, READONLY, DEBUGGING
 17 .debug_line   00006d53  00000000  00000000  0004c542  2**0
                  CONTENTS, READONLY, DEBUGGING
 18 .debug_str    000c4a87  00000000  00000000  00053295  2**0
                  CONTENTS, READONLY, DEBUGGING
 19 .comment      0000007b  00000000  00000000  00117d1c  2**0
                  CONTENTS, READONLY
 20 .debug_frame  00002340  00000000  00000000  00117d98  2**2
                  CONTENTS, READONLY, DEBUGGING

Disassembly of section .text:

08000190 <__do_global_dtors_aux>:
 8000190:	b510      	push	{r4, lr}
 8000192:	4c05      	ldr	r4, [pc, #20]	; (80001a8 <__do_global_dtors_aux+0x18>)
 8000194:	7823      	ldrb	r3, [r4, #0]
 8000196:	b933      	cbnz	r3, 80001a6 <__do_global_dtors_aux+0x16>
 8000198:	4b04      	ldr	r3, [pc, #16]	; (80001ac <__do_global_dtors_aux+0x1c>)
 800019a:	b113      	cbz	r3, 80001a2 <__do_global_dtors_aux+0x12>
 800019c:	4804      	ldr	r0, [pc, #16]	; (80001b0 <__do_global_dtors_aux+0x20>)
 800019e:	f3af 8000 	nop.w
 80001a2:	2301      	movs	r3, #1
 80001a4:	7023      	strb	r3, [r4, #0]
 80001a6:	bd10      	pop	{r4, pc}
 80001a8:	20000070 	.word	0x20000070
 80001ac:	00000000 	.word	0x00000000
 80001b0:	08003b10 	.word	0x08003b10

080001b4 <frame_dummy>:
 80001b4:	b508      	push	{r3, lr}
 80001b6:	4b03      	ldr	r3, [pc, #12]	; (80001c4 <frame_dummy+0x10>)
 80001b8:	b11b      	cbz	r3, 80001c2 <frame_dummy+0xe>
 80001ba:	4903      	ldr	r1, [pc, #12]	; (80001c8 <frame_dummy+0x14>)
 80001bc:	4803      	ldr	r0, [pc, #12]	; (80001cc <frame_dummy+0x18>)
 80001be:	f3af 8000 	nop.w
 80001c2:	bd08      	pop	{r3, pc}
 80001c4:	00000000 	.word	0x00000000
 80001c8:	20000074 	.word	0x20000074
 80001cc:	08003b10 	.word	0x08003b10

080001d0 <strlen>:
 80001d0:	4603      	mov	r3, r0
 80001d2:	f813 2b01 	ldrb.w	r2, [r3], #1
 80001d6:	2a00      	cmp	r2, #0
 80001d8:	d1fb      	bne.n	80001d2 <strlen+0x2>
 80001da:	1a18      	subs	r0, r3, r0
 80001dc:	3801      	subs	r0, #1
 80001de:	4770      	bx	lr

080001e0 <memchr>:
 80001e0:	f001 01ff 	and.w	r1, r1, #255	; 0xff
 80001e4:	2a10      	cmp	r2, #16
 80001e6:	db2b      	blt.n	8000240 <memchr+0x60>
 80001e8:	f010 0f07 	tst.w	r0, #7
 80001ec:	d008      	beq.n	8000200 <memchr+0x20>
 80001ee:	f810 3b01 	ldrb.w	r3, [r0], #1
 80001f2:	3a01      	subs	r2, #1
 80001f4:	428b      	cmp	r3, r1
 80001f6:	d02d      	beq.n	8000254 <memchr+0x74>
 80001f8:	f010 0f07 	tst.w	r0, #7
 80001fc:	b342      	cbz	r2, 8000250 <memchr+0x70>
 80001fe:	d1f6      	bne.n	80001ee <memchr+0xe>
 8000200:	b4f0      	push	{r4, r5, r6, r7}
 8000202:	ea41 2101 	orr.w	r1, r1, r1, lsl #8
 8000206:	ea41 4101 	orr.w	r1, r1, r1, lsl #16
 800020a:	f022 0407 	bic.w	r4, r2, #7
 800020e:	f07f 0700 	mvns.w	r7, #0
 8000212:	2300      	movs	r3, #0
 8000214:	e8f0 5602 	ldrd	r5, r6, [r0], #8
 8000218:	3c08      	subs	r4, #8
 800021a:	ea85 0501 	eor.w	r5, r5, r1
 800021e:	ea86 0601 	eor.w	r6, r6, r1
 8000222:	fa85 f547 	uadd8	r5, r5, r7
 8000226:	faa3 f587 	sel	r5, r3, r7
 800022a:	fa86 f647 	uadd8	r6, r6, r7
 800022e:	faa5 f687 	sel	r6, r5, r7
 8000232:	b98e      	cbnz	r6, 8000258 <memchr+0x78>
 8000234:	d1ee      	bne.n	8000214 <memchr+0x34>
 8000236:	bcf0      	pop	{r4, r5, r6, r7}
 8000238:	f001 01ff 	and.w	r1, r1, #255	; 0xff
 800023c:	f002 0207 	and.w	r2, r2, #7
 8000240:	b132      	cbz	r2, 8000250 <memchr+0x70>
 8000242:	f810 3b01 	ldrb.w	r3, [r0], #1
 8000246:	3a01      	subs	r2, #1
 8000248:	ea83 0301 	eor.w	r3, r3, r1
 800024c:	b113      	cbz	r3, 8000254 <memchr+0x74>
 800024e:	d1f8      	bne.n	8000242 <memchr+0x62>
 8000250:	2000      	movs	r0, #0
 8000252:	4770      	bx	lr
 8000254:	3801      	subs	r0, #1
 8000256:	4770      	bx	lr
 8000258:	2d00      	cmp	r5, #0
 800025a:	bf06      	itte	eq
 800025c:	4635      	moveq	r5, r6
 800025e:	3803      	subeq	r0, #3
 8000260:	3807      	subne	r0, #7
 8000262:	f015 0f01 	tst.w	r5, #1
 8000266:	d107      	bne.n	8000278 <memchr+0x98>
 8000268:	3001      	adds	r0, #1
 800026a:	f415 7f80 	tst.w	r5, #256	; 0x100
 800026e:	bf02      	ittt	eq
 8000270:	3001      	addeq	r0, #1
 8000272:	f415 3fc0 	tsteq.w	r5, #98304	; 0x18000
 8000276:	3001      	addeq	r0, #1
 8000278:	bcf0      	pop	{r4, r5, r6, r7}
 800027a:	3801      	subs	r0, #1
 800027c:	4770      	bx	lr
 800027e:	bf00      	nop

08000280 <__aeabi_uldivmod>:
 8000280:	b953      	cbnz	r3, 8000298 <__aeabi_uldivmod+0x18>
 8000282:	b94a      	cbnz	r2, 8000298 <__aeabi_uldivmod+0x18>
 8000284:	2900      	cmp	r1, #0
 8000286:	bf08      	it	eq
 8000288:	2800      	cmpeq	r0, #0
 800028a:	bf1c      	itt	ne
 800028c:	f04f 31ff 	movne.w	r1, #4294967295
 8000290:	f04f 30ff 	movne.w	r0, #4294967295
 8000294:	f000 b972 	b.w	800057c <__aeabi_idiv0>
 8000298:	f1ad 0c08 	sub.w	ip, sp, #8
 800029c:	e96d ce04 	strd	ip, lr, [sp, #-16]!
 80002a0:	f000 f806 	bl	80002b0 <__udivmoddi4>
 80002a4:	f8dd e004 	ldr.w	lr, [sp, #4]
 80002a8:	e9dd 2302 	ldrd	r2, r3, [sp, #8]
 80002ac:	b004      	add	sp, #16
 80002ae:	4770      	bx	lr

080002b0 <__udivmoddi4>:
 80002b0:	e92d 47f0 	stmdb	sp!, {r4, r5, r6, r7, r8, r9, sl, lr}
 80002b4:	9e08      	ldr	r6, [sp, #32]
 80002b6:	4604      	mov	r4, r0
 80002b8:	4688      	mov	r8, r1
 80002ba:	2b00      	cmp	r3, #0
 80002bc:	d14b      	bne.n	8000356 <__udivmoddi4+0xa6>
 80002be:	428a      	cmp	r2, r1
 80002c0:	4615      	mov	r5, r2
 80002c2:	d967      	bls.n	8000394 <__udivmoddi4+0xe4>
 80002c4:	fab2 f282 	clz	r2, r2
 80002c8:	b14a      	cbz	r2, 80002de <__udivmoddi4+0x2e>
 80002ca:	f1c2 0720 	rsb	r7, r2, #32
 80002ce:	fa01 f302 	lsl.w	r3, r1, r2
 80002d2:	fa20 f707 	lsr.w	r7, r0, r7
 80002d6:	4095      	lsls	r5, r2
 80002d8:	ea47 0803 	orr.w	r8, r7, r3
 80002dc:	4094      	lsls	r4, r2
 80002de:	ea4f 4e15 	mov.w	lr, r5, lsr #16
 80002e2:	0c23      	lsrs	r3, r4, #16
 80002e4:	fbb8 f7fe 	udiv	r7, r8, lr
 80002e8:	fa1f fc85 	uxth.w	ip, r5
 80002ec:	fb0e 8817 	mls	r8, lr, r7, r8
 80002f0:	ea43 4308 	orr.w	r3, r3, r8, lsl #16
 80002f4:	fb07 f10c 	mul.w	r1, r7, ip
 80002f8:	4299      	cmp	r1, r3
 80002fa:	d909      	bls.n	8000310 <__udivmoddi4+0x60>
 80002fc:	18eb      	adds	r3, r5, r3
 80002fe:	f107 30ff 	add.w	r0, r7, #4294967295
 8000302:	f080 811b 	bcs.w	800053c <__udivmoddi4+0x28c>
 8000306:	4299      	cmp	r1, r3
 8000308:	f240 8118 	bls.w	800053c <__udivmoddi4+0x28c>
 800030c:	3f02      	subs	r7, #2
 800030e:	442b      	add	r3, r5
 8000310:	1a5b      	subs	r3, r3, r1
 8000312:	b2a4      	uxth	r4, r4
 8000314:	fbb3 f0fe 	udiv	r0, r3, lr
 8000318:	fb0e 3310 	mls	r3, lr, r0, r3
 800031c:	ea44 4403 	orr.w	r4, r4, r3, lsl #16
 8000320:	fb00 fc0c 	mul.w	ip, r0, ip
 8000324:	45a4      	cmp	ip, r4
 8000326:	d909      	bls.n	800033c <__udivmoddi4+0x8c>
 8000328:	192c      	adds	r4, r5, r4
 800032a:	f100 33ff 	add.w	r3, r0, #4294967295
 800032e:	f080 8107 	bcs.w	8000540 <__udivmoddi4+0x290>
 8000332:	45a4      	cmp	ip, r4
 8000334:	f240 8104 	bls.w	8000540 <__udivmoddi4+0x290>
 8000338:	3802      	subs	r0, #2
 800033a:	442c      	add	r4, r5
 800033c:	ea40 4007 	orr.w	r0, r0, r7, lsl #16
 8000340:	eba4 040c 	sub.w	r4, r4, ip
 8000344:	2700      	movs	r7, #0
 8000346:	b11e      	cbz	r6, 8000350 <__udivmoddi4+0xa0>
 8000348:	40d4      	lsrs	r4, r2
 800034a:	2300      	movs	r3, #0
 800034c:	e9c6 4300 	strd	r4, r3, [r6]
 8000350:	4639      	mov	r1, r7
 8000352:	e8bd 87f0 	ldmia.w	sp!, {r4, r5, r6, r7, r8, r9, sl, pc}
 8000356:	428b      	cmp	r3, r1
 8000358:	d909      	bls.n	800036e <__udivmoddi4+0xbe>
 800035a:	2e00      	cmp	r6, #0
 800035c:	f000 80eb 	beq.w	8000536 <__udivmoddi4+0x286>
 8000360:	2700      	movs	r7, #0
 8000362:	e9c6 0100 	strd	r0, r1, [r6]
 8000366:	4638      	mov	r0, r7
 8000368:	4639      	mov	r1, r7
 800036a:	e8bd 87f0 	ldmia.w	sp!, {r4, r5, r6, r7, r8, r9, sl, pc}
 800036e:	fab3 f783 	clz	r7, r3
 8000372:	2f00      	cmp	r7, #0
 8000374:	d147      	bne.n	8000406 <__udivmoddi4+0x156>
 8000376:	428b      	cmp	r3, r1
 8000378:	d302      	bcc.n	8000380 <__udivmoddi4+0xd0>
 800037a:	4282      	cmp	r2, r0
 800037c:	f200 80fa 	bhi.w	8000574 <__udivmoddi4+0x2c4>
 8000380:	1a84      	subs	r4, r0, r2
 8000382:	eb61 0303 	sbc.w	r3, r1, r3
 8000386:	2001      	movs	r0, #1
 8000388:	4698      	mov	r8, r3
 800038a:	2e00      	cmp	r6, #0
 800038c:	d0e0      	beq.n	8000350 <__udivmoddi4+0xa0>
 800038e:	e9c6 4800 	strd	r4, r8, [r6]
 8000392:	e7dd      	b.n	8000350 <__udivmoddi4+0xa0>
 8000394:	b902      	cbnz	r2, 8000398 <__udivmoddi4+0xe8>
 8000396:	deff      	udf	#255	; 0xff
 8000398:	fab2 f282 	clz	r2, r2
 800039c:	2a00      	cmp	r2, #0
 800039e:	f040 808f 	bne.w	80004c0 <__udivmoddi4+0x210>
 80003a2:	1b49      	subs	r1, r1, r5
 80003a4:	ea4f 4e15 	mov.w	lr, r5, lsr #16
 80003a8:	fa1f f885 	uxth.w	r8, r5
 80003ac:	2701      	movs	r7, #1
 80003ae:	fbb1 fcfe 	udiv	ip, r1, lr
 80003b2:	0c23      	lsrs	r3, r4, #16
 80003b4:	fb0e 111c 	mls	r1, lr, ip, r1
 80003b8:	ea43 4301 	orr.w	r3, r3, r1, lsl #16
 80003bc:	fb08 f10c 	mul.w	r1, r8, ip
 80003c0:	4299      	cmp	r1, r3
 80003c2:	d907      	bls.n	80003d4 <__udivmoddi4+0x124>
 80003c4:	18eb      	adds	r3, r5, r3
 80003c6:	f10c 30ff 	add.w	r0, ip, #4294967295
 80003ca:	d202      	bcs.n	80003d2 <__udivmoddi4+0x122>
 80003cc:	4299      	cmp	r1, r3
 80003ce:	f200 80cd 	bhi.w	800056c <__udivmoddi4+0x2bc>
 80003d2:	4684      	mov	ip, r0
 80003d4:	1a59      	subs	r1, r3, r1
 80003d6:	b2a3      	uxth	r3, r4
 80003d8:	fbb1 f0fe 	udiv	r0, r1, lr
 80003dc:	fb0e 1410 	mls	r4, lr, r0, r1
 80003e0:	ea43 4404 	orr.w	r4, r3, r4, lsl #16
 80003e4:	fb08 f800 	mul.w	r8, r8, r0
 80003e8:	45a0      	cmp	r8, r4
 80003ea:	d907      	bls.n	80003fc <__udivmoddi4+0x14c>
 80003ec:	192c      	adds	r4, r5, r4
 80003ee:	f100 33ff 	add.w	r3, r0, #4294967295
 80003f2:	d202      	bcs.n	80003fa <__udivmoddi4+0x14a>
 80003f4:	45a0      	cmp	r8, r4
 80003f6:	f200 80b6 	bhi.w	8000566 <__udivmoddi4+0x2b6>
 80003fa:	4618      	mov	r0, r3
 80003fc:	eba4 0408 	sub.w	r4, r4, r8
 8000400:	ea40 400c 	orr.w	r0, r0, ip, lsl #16
 8000404:	e79f      	b.n	8000346 <__udivmoddi4+0x96>
 8000406:	f1c7 0c20 	rsb	ip, r7, #32
 800040a:	40bb      	lsls	r3, r7
 800040c:	fa22 fe0c 	lsr.w	lr, r2, ip
 8000410:	ea4e 0e03 	orr.w	lr, lr, r3
 8000414:	fa01 f407 	lsl.w	r4, r1, r7
 8000418:	fa20 f50c 	lsr.w	r5, r0, ip
 800041c:	fa21 f30c 	lsr.w	r3, r1, ip
 8000420:	ea4f 481e 	mov.w	r8, lr, lsr #16
 8000424:	4325      	orrs	r5, r4
 8000426:	fbb3 f9f8 	udiv	r9, r3, r8
 800042a:	0c2c      	lsrs	r4, r5, #16
 800042c:	fb08 3319 	mls	r3, r8, r9, r3
 8000430:	fa1f fa8e 	uxth.w	sl, lr
 8000434:	ea44 4303 	orr.w	r3, r4, r3, lsl #16
 8000438:	fb09 f40a 	mul.w	r4, r9, sl
 800043c:	429c      	cmp	r4, r3
 800043e:	fa02 f207 	lsl.w	r2, r2, r7
 8000442:	fa00 f107 	lsl.w	r1, r0, r7
 8000446:	d90b      	bls.n	8000460 <__udivmoddi4+0x1b0>
 8000448:	eb1e 0303 	adds.w	r3, lr, r3
 800044c:	f109 30ff 	add.w	r0, r9, #4294967295
 8000450:	f080 8087 	bcs.w	8000562 <__udivmoddi4+0x2b2>
 8000454:	429c      	cmp	r4, r3
 8000456:	f240 8084 	bls.w	8000562 <__udivmoddi4+0x2b2>
 800045a:	f1a9 0902 	sub.w	r9, r9, #2
 800045e:	4473      	add	r3, lr
 8000460:	1b1b      	subs	r3, r3, r4
 8000462:	b2ad      	uxth	r5, r5
 8000464:	fbb3 f0f8 	udiv	r0, r3, r8
 8000468:	fb08 3310 	mls	r3, r8, r0, r3
 800046c:	ea45 4403 	orr.w	r4, r5, r3, lsl #16
 8000470:	fb00 fa0a 	mul.w	sl, r0, sl
 8000474:	45a2      	cmp	sl, r4
 8000476:	d908      	bls.n	800048a <__udivmoddi4+0x1da>
 8000478:	eb1e 0404 	adds.w	r4, lr, r4
 800047c:	f100 33ff 	add.w	r3, r0, #4294967295
 8000480:	d26b      	bcs.n	800055a <__udivmoddi4+0x2aa>
 8000482:	45a2      	cmp	sl, r4
 8000484:	d969      	bls.n	800055a <__udivmoddi4+0x2aa>
 8000486:	3802      	subs	r0, #2
 8000488:	4474      	add	r4, lr
 800048a:	ea40 4009 	orr.w	r0, r0, r9, lsl #16
 800048e:	fba0 8902 	umull	r8, r9, r0, r2
 8000492:	eba4 040a 	sub.w	r4, r4, sl
 8000496:	454c      	cmp	r4, r9
 8000498:	46c2      	mov	sl, r8
 800049a:	464b      	mov	r3, r9
 800049c:	d354      	bcc.n	8000548 <__udivmoddi4+0x298>
 800049e:	d051      	beq.n	8000544 <__udivmoddi4+0x294>
 80004a0:	2e00      	cmp	r6, #0
 80004a2:	d069      	beq.n	8000578 <__udivmoddi4+0x2c8>
 80004a4:	ebb1 050a 	subs.w	r5, r1, sl
 80004a8:	eb64 0403 	sbc.w	r4, r4, r3
 80004ac:	fa04 fc0c 	lsl.w	ip, r4, ip
 80004b0:	40fd      	lsrs	r5, r7
 80004b2:	40fc      	lsrs	r4, r7
 80004b4:	ea4c 0505 	orr.w	r5, ip, r5
 80004b8:	e9c6 5400 	strd	r5, r4, [r6]
 80004bc:	2700      	movs	r7, #0
 80004be:	e747      	b.n	8000350 <__udivmoddi4+0xa0>
 80004c0:	f1c2 0320 	rsb	r3, r2, #32
 80004c4:	fa20 f703 	lsr.w	r7, r0, r3
 80004c8:	4095      	lsls	r5, r2
 80004ca:	fa01 f002 	lsl.w	r0, r1, r2
 80004ce:	fa21 f303 	lsr.w	r3, r1, r3
 80004d2:	ea4f 4e15 	mov.w	lr, r5, lsr #16
 80004d6:	4338      	orrs	r0, r7
 80004d8:	0c01      	lsrs	r1, r0, #16
 80004da:	fbb3 f7fe 	udiv	r7, r3, lr
 80004de:	fa1f f885 	uxth.w	r8, r5
 80004e2:	fb0e 3317 	mls	r3, lr, r7, r3
 80004e6:	ea41 4103 	orr.w	r1, r1, r3, lsl #16
 80004ea:	fb07 f308 	mul.w	r3, r7, r8
 80004ee:	428b      	cmp	r3, r1
 80004f0:	fa04 f402 	lsl.w	r4, r4, r2
 80004f4:	d907      	bls.n	8000506 <__udivmoddi4+0x256>
 80004f6:	1869      	adds	r1, r5, r1
 80004f8:	f107 3cff 	add.w	ip, r7, #4294967295
 80004fc:	d22f      	bcs.n	800055e <__udivmoddi4+0x2ae>
 80004fe:	428b      	cmp	r3, r1
 8000500:	d92d      	bls.n	800055e <__udivmoddi4+0x2ae>
 8000502:	3f02      	subs	r7, #2
 8000504:	4429      	add	r1, r5
 8000506:	1acb      	subs	r3, r1, r3
 8000508:	b281      	uxth	r1, r0
 800050a:	fbb3 f0fe 	udiv	r0, r3, lr
 800050e:	fb0e 3310 	mls	r3, lr, r0, r3
 8000512:	ea41 4103 	orr.w	r1, r1, r3, lsl #16
 8000516:	fb00 f308 	mul.w	r3, r0, r8
 800051a:	428b      	cmp	r3, r1
 800051c:	d907      	bls.n	800052e <__udivmoddi4+0x27e>
 800051e:	1869      	adds	r1, r5, r1
 8000520:	f100 3cff 	add.w	ip, r0, #4294967295
 8000524:	d217      	bcs.n	8000556 <__udivmoddi4+0x2a6>
 8000526:	428b      	cmp	r3, r1
 8000528:	d915      	bls.n	8000556 <__udivmoddi4+0x2a6>
 800052a:	3802      	subs	r0, #2
 800052c:	4429      	add	r1, r5
 800052e:	1ac9      	subs	r1, r1, r3
 8000530:	ea40 4707 	orr.w	r7, r0, r7, lsl #16
 8000534:	e73b      	b.n	80003ae <__udivmoddi4+0xfe>
 8000536:	4637      	mov	r7, r6
 8000538:	4630      	mov	r0, r6
 800053a:	e709      	b.n	8000350 <__udivmoddi4+0xa0>
 800053c:	4607      	mov	r7, r0
 800053e:	e6e7      	b.n	8000310 <__udivmoddi4+0x60>
 8000540:	4618      	mov	r0, r3
 8000542:	e6fb      	b.n	800033c <__udivmoddi4+0x8c>
 8000544:	4541      	cmp	r1, r8
 8000546:	d2ab      	bcs.n	80004a0 <__udivmoddi4+0x1f0>
 8000548:	ebb8 0a02 	subs.w	sl, r8, r2
 800054c:	eb69 020e 	sbc.w	r2, r9, lr
 8000550:	3801      	subs	r0, #1
 8000552:	4613      	mov	r3, r2
 8000554:	e7a4      	b.n	80004a0 <__udivmoddi4+0x1f0>
 8000556:	4660      	mov	r0, ip
 8000558:	e7e9      	b.n	800052e <__udivmoddi4+0x27e>
 800055a:	4618      	mov	r0, r3
 800055c:	e795      	b.n	800048a <__udivmoddi4+0x1da>
 800055e:	4667      	mov	r7, ip
 8000560:	e7d1      	b.n	8000506 <__udivmoddi4+0x256>
 8000562:	4681      	mov	r9, r0
 8000564:	e77c      	b.n	8000460 <__udivmoddi4+0x1b0>
 8000566:	3802      	subs	r0, #2
 8000568:	442c      	add	r4, r5
 800056a:	e747      	b.n	80003fc <__udivmoddi4+0x14c>
 800056c:	f1ac 0c02 	sub.w	ip, ip, #2
 8000570:	442b      	add	r3, r5
 8000572:	e72f      	b.n	80003d4 <__udivmoddi4+0x124>
 8000574:	4638      	mov	r0, r7
 8000576:	e708      	b.n	800038a <__udivmoddi4+0xda>
 8000578:	4637      	mov	r7, r6
 800057a:	e6e9      	b.n	8000350 <__udivmoddi4+0xa0>

0800057c <__aeabi_idiv0>:
 800057c:	4770      	bx	lr
 800057e:	bf00      	nop

08000580 <main>:
/**
  * @brief  The application entry point.
  * @retval int
  */
int main(void)
{
 8000580:	b580      	push	{r7, lr}
 8000582:	af00      	add	r7, sp, #0
  /* USER CODE END 1 */

  /* MCU Configuration--------------------------------------------------------*/

  /* Reset of all peripherals, Initializes the Flash interface and the Systick. */
  HAL_Init();
 8000584:	f000 fb8a 	bl	8000c9c <HAL_Init>
  /* USER CODE BEGIN Init */

  /* USER CODE END Init */

  /* Configure the system clock */
  SystemClock_Config();
 8000588:	f000 f818 	bl	80005bc <SystemClock_Config>
  /* USER CODE BEGIN SysInit */

  /* USER CODE END SysInit */

  /* Initialize all configured peripherals */
  MX_GPIO_Init();
 800058c:	f000 f8e2 	bl	8000754 <MX_GPIO_Init>
  MX_CAN1_Init();
 8000590:	f000 f87e 	bl	8000690 <MX_CAN1_Init>
  MX_USART2_UART_Init();
 8000594:	f000 f8b4 	bl	8000700 <MX_USART2_UART_Init>
  /* move can to normal mode  */
  //ccan filter
  CAN_Filter_Config();
 8000598:	f000 f9a8 	bl	80008ec <CAN_Filter_Config>
  // can start
  if (HAL_CAN_Start(&hcan1)!= HAL_OK)
 800059c:	4806      	ldr	r0, [pc, #24]	; (80005b8 <main+0x38>)
 800059e:	f000 fdcb 	bl	8001138 <HAL_CAN_Start>
 80005a2:	4603      	mov	r3, r0
 80005a4:	2b00      	cmp	r3, #0
 80005a6:	d001      	beq.n	80005ac <main+0x2c>
  {
	  Error_Handler();
 80005a8:	f000 f9fc 	bl	80009a4 <Error_Handler>
  }
  /* USER CODE END 2 */

  CAN1_TX();
 80005ac:	f000 f950 	bl	8000850 <CAN1_TX>
  /* Infinite loop */
  /* USER CODE BEGIN WHILE */
  CAN1_Rx();
 80005b0:	f000 f9c2 	bl	8000938 <CAN1_Rx>
  while (1)
 80005b4:	e7fe      	b.n	80005b4 <main+0x34>
 80005b6:	bf00      	nop
 80005b8:	200000d8 	.word	0x200000d8

080005bc <SystemClock_Config>:
/**
  * @brief System Clock Configuration
  * @retval None
  */
void SystemClock_Config(void)
{
 80005bc:	b580      	push	{r7, lr}
 80005be:	b094      	sub	sp, #80	; 0x50
 80005c0:	af00      	add	r7, sp, #0
  RCC_OscInitTypeDef RCC_OscInitStruct = {0};
 80005c2:	f107 0320 	add.w	r3, r7, #32
 80005c6:	2230      	movs	r2, #48	; 0x30
 80005c8:	2100      	movs	r1, #0
 80005ca:	4618      	mov	r0, r3
 80005cc:	f002 fe92 	bl	80032f4 <memset>
  RCC_ClkInitTypeDef RCC_ClkInitStruct = {0};
 80005d0:	f107 030c 	add.w	r3, r7, #12
 80005d4:	2200      	movs	r2, #0
 80005d6:	601a      	str	r2, [r3, #0]
 80005d8:	605a      	str	r2, [r3, #4]
 80005da:	609a      	str	r2, [r3, #8]
 80005dc:	60da      	str	r2, [r3, #12]
 80005de:	611a      	str	r2, [r3, #16]

  /** Configure the main internal regulator output voltage 
  */
  __HAL_RCC_PWR_CLK_ENABLE();
 80005e0:	2300      	movs	r3, #0
 80005e2:	60bb      	str	r3, [r7, #8]
 80005e4:	4b28      	ldr	r3, [pc, #160]	; (8000688 <SystemClock_Config+0xcc>)
 80005e6:	6c1b      	ldr	r3, [r3, #64]	; 0x40
 80005e8:	4a27      	ldr	r2, [pc, #156]	; (8000688 <SystemClock_Config+0xcc>)
 80005ea:	f043 5380 	orr.w	r3, r3, #268435456	; 0x10000000
 80005ee:	6413      	str	r3, [r2, #64]	; 0x40
 80005f0:	4b25      	ldr	r3, [pc, #148]	; (8000688 <SystemClock_Config+0xcc>)
 80005f2:	6c1b      	ldr	r3, [r3, #64]	; 0x40
 80005f4:	f003 5380 	and.w	r3, r3, #268435456	; 0x10000000
 80005f8:	60bb      	str	r3, [r7, #8]
 80005fa:	68bb      	ldr	r3, [r7, #8]
  __HAL_PWR_VOLTAGESCALING_CONFIG(PWR_REGULATOR_VOLTAGE_SCALE1);
 80005fc:	2300      	movs	r3, #0
 80005fe:	607b      	str	r3, [r7, #4]
 8000600:	4b22      	ldr	r3, [pc, #136]	; (800068c <SystemClock_Config+0xd0>)
 8000602:	681b      	ldr	r3, [r3, #0]
 8000604:	4a21      	ldr	r2, [pc, #132]	; (800068c <SystemClock_Config+0xd0>)
 8000606:	f443 4380 	orr.w	r3, r3, #16384	; 0x4000
 800060a:	6013      	str	r3, [r2, #0]
 800060c:	4b1f      	ldr	r3, [pc, #124]	; (800068c <SystemClock_Config+0xd0>)
 800060e:	681b      	ldr	r3, [r3, #0]
 8000610:	f403 4380 	and.w	r3, r3, #16384	; 0x4000
 8000614:	607b      	str	r3, [r7, #4]
 8000616:	687b      	ldr	r3, [r7, #4]
  /** Initializes the CPU, AHB and APB busses clocks 
  */
  RCC_OscInitStruct.OscillatorType = RCC_OSCILLATORTYPE_HSE;
 8000618:	2301      	movs	r3, #1
 800061a:	623b      	str	r3, [r7, #32]
  RCC_OscInitStruct.HSEState = RCC_HSE_ON;
 800061c:	f44f 3380 	mov.w	r3, #65536	; 0x10000
 8000620:	627b      	str	r3, [r7, #36]	; 0x24
  RCC_OscInitStruct.PLL.PLLState = RCC_PLL_ON;
 8000622:	2302      	movs	r3, #2
 8000624:	63bb      	str	r3, [r7, #56]	; 0x38
  RCC_OscInitStruct.PLL.PLLSource = RCC_PLLSOURCE_HSE;
 8000626:	f44f 0380 	mov.w	r3, #4194304	; 0x400000
 800062a:	63fb      	str	r3, [r7, #60]	; 0x3c
  RCC_OscInitStruct.PLL.PLLM = 8;
 800062c:	2308      	movs	r3, #8
 800062e:	643b      	str	r3, [r7, #64]	; 0x40
  RCC_OscInitStruct.PLL.PLLN = 336;
 8000630:	f44f 73a8 	mov.w	r3, #336	; 0x150
 8000634:	647b      	str	r3, [r7, #68]	; 0x44
  RCC_OscInitStruct.PLL.PLLP = RCC_PLLP_DIV2;
 8000636:	2302      	movs	r3, #2
 8000638:	64bb      	str	r3, [r7, #72]	; 0x48
  RCC_OscInitStruct.PLL.PLLQ = 7;
 800063a:	2307      	movs	r3, #7
 800063c:	64fb      	str	r3, [r7, #76]	; 0x4c
  if (HAL_RCC_OscConfig(&RCC_OscInitStruct) != HAL_OK)
 800063e:	f107 0320 	add.w	r3, r7, #32
 8000642:	4618      	mov	r0, r3
 8000644:	f001 fade 	bl	8001c04 <HAL_RCC_OscConfig>
 8000648:	4603      	mov	r3, r0
 800064a:	2b00      	cmp	r3, #0
 800064c:	d001      	beq.n	8000652 <SystemClock_Config+0x96>
  {
    Error_Handler();
 800064e:	f000 f9a9 	bl	80009a4 <Error_Handler>
  }
  /** Initializes the CPU, AHB and APB busses clocks 
  */
  RCC_ClkInitStruct.ClockType = RCC_CLOCKTYPE_HCLK|RCC_CLOCKTYPE_SYSCLK
 8000652:	230f      	movs	r3, #15
 8000654:	60fb      	str	r3, [r7, #12]
                              |RCC_CLOCKTYPE_PCLK1|RCC_CLOCKTYPE_PCLK2;
  RCC_ClkInitStruct.SYSCLKSource = RCC_SYSCLKSOURCE_PLLCLK;
 8000656:	2302      	movs	r3, #2
 8000658:	613b      	str	r3, [r7, #16]
  RCC_ClkInitStruct.AHBCLKDivider = RCC_SYSCLK_DIV1;
 800065a:	2300      	movs	r3, #0
 800065c:	617b      	str	r3, [r7, #20]
  RCC_ClkInitStruct.APB1CLKDivider = RCC_HCLK_DIV4;
 800065e:	f44f 53a0 	mov.w	r3, #5120	; 0x1400
 8000662:	61bb      	str	r3, [r7, #24]
  RCC_ClkInitStruct.APB2CLKDivider = RCC_HCLK_DIV2;
 8000664:	f44f 5380 	mov.w	r3, #4096	; 0x1000
 8000668:	61fb      	str	r3, [r7, #28]

  if (HAL_RCC_ClockConfig(&RCC_ClkInitStruct, FLASH_LATENCY_5) != HAL_OK)
 800066a:	f107 030c 	add.w	r3, r7, #12
 800066e:	2105      	movs	r1, #5
 8000670:	4618      	mov	r0, r3
 8000672:	f001 fd37 	bl	80020e4 <HAL_RCC_ClockConfig>
 8000676:	4603      	mov	r3, r0
 8000678:	2b00      	cmp	r3, #0
 800067a:	d001      	beq.n	8000680 <SystemClock_Config+0xc4>
  {
    Error_Handler();
 800067c:	f000 f992 	bl	80009a4 <Error_Handler>
  }
}
 8000680:	bf00      	nop
 8000682:	3750      	adds	r7, #80	; 0x50
 8000684:	46bd      	mov	sp, r7
 8000686:	bd80      	pop	{r7, pc}
 8000688:	40023800 	.word	0x40023800
 800068c:	40007000 	.word	0x40007000

08000690 <MX_CAN1_Init>:
  * @brief CAN1 Initialization Function
  * @param None
  * @retval None
  */
static void MX_CAN1_Init(void)
{
 8000690:	b580      	push	{r7, lr}
 8000692:	af00      	add	r7, sp, #0
  /* USER CODE END CAN1_Init 0 */

  /* USER CODE BEGIN CAN1_Init 1 */

  /* USER CODE END CAN1_Init 1 */
  hcan1.Instance = CAN1;
 8000694:	4b18      	ldr	r3, [pc, #96]	; (80006f8 <MX_CAN1_Init+0x68>)
 8000696:	4a19      	ldr	r2, [pc, #100]	; (80006fc <MX_CAN1_Init+0x6c>)
 8000698:	601a      	str	r2, [r3, #0]
  hcan1.Init.Prescaler = 3;
 800069a:	4b17      	ldr	r3, [pc, #92]	; (80006f8 <MX_CAN1_Init+0x68>)
 800069c:	2203      	movs	r2, #3
 800069e:	605a      	str	r2, [r3, #4]
  hcan1.Init.Mode = CAN_MODE_LOOPBACK;
 80006a0:	4b15      	ldr	r3, [pc, #84]	; (80006f8 <MX_CAN1_Init+0x68>)
 80006a2:	f04f 4280 	mov.w	r2, #1073741824	; 0x40000000
 80006a6:	609a      	str	r2, [r3, #8]
  hcan1.Init.SyncJumpWidth = CAN_SJW_1TQ;
 80006a8:	4b13      	ldr	r3, [pc, #76]	; (80006f8 <MX_CAN1_Init+0x68>)
 80006aa:	2200      	movs	r2, #0
 80006ac:	60da      	str	r2, [r3, #12]
  hcan1.Init.TimeSeg1 = CAN_BS1_11TQ;
 80006ae:	4b12      	ldr	r3, [pc, #72]	; (80006f8 <MX_CAN1_Init+0x68>)
 80006b0:	f44f 2220 	mov.w	r2, #655360	; 0xa0000
 80006b4:	611a      	str	r2, [r3, #16]
  hcan1.Init.TimeSeg2 = CAN_BS2_2TQ;
 80006b6:	4b10      	ldr	r3, [pc, #64]	; (80006f8 <MX_CAN1_Init+0x68>)
 80006b8:	f44f 1280 	mov.w	r2, #1048576	; 0x100000
 80006bc:	615a      	str	r2, [r3, #20]
  hcan1.Init.TimeTriggeredMode = DISABLE;
 80006be:	4b0e      	ldr	r3, [pc, #56]	; (80006f8 <MX_CAN1_Init+0x68>)
 80006c0:	2200      	movs	r2, #0
 80006c2:	761a      	strb	r2, [r3, #24]
  hcan1.Init.AutoBusOff = DISABLE;
 80006c4:	4b0c      	ldr	r3, [pc, #48]	; (80006f8 <MX_CAN1_Init+0x68>)
 80006c6:	2200      	movs	r2, #0
 80006c8:	765a      	strb	r2, [r3, #25]
  hcan1.Init.AutoWakeUp = DISABLE;
 80006ca:	4b0b      	ldr	r3, [pc, #44]	; (80006f8 <MX_CAN1_Init+0x68>)
 80006cc:	2200      	movs	r2, #0
 80006ce:	769a      	strb	r2, [r3, #26]
  hcan1.Init.AutoRetransmission = ENABLE;
 80006d0:	4b09      	ldr	r3, [pc, #36]	; (80006f8 <MX_CAN1_Init+0x68>)
 80006d2:	2201      	movs	r2, #1
 80006d4:	76da      	strb	r2, [r3, #27]
  hcan1.Init.ReceiveFifoLocked = DISABLE;
 80006d6:	4b08      	ldr	r3, [pc, #32]	; (80006f8 <MX_CAN1_Init+0x68>)
 80006d8:	2200      	movs	r2, #0
 80006da:	771a      	strb	r2, [r3, #28]
  hcan1.Init.TransmitFifoPriority = DISABLE;
 80006dc:	4b06      	ldr	r3, [pc, #24]	; (80006f8 <MX_CAN1_Init+0x68>)
 80006de:	2200      	movs	r2, #0
 80006e0:	775a      	strb	r2, [r3, #29]
  if (HAL_CAN_Init(&hcan1) != HAL_OK)
 80006e2:	4805      	ldr	r0, [pc, #20]	; (80006f8 <MX_CAN1_Init+0x68>)
 80006e4:	f000 fb4c 	bl	8000d80 <HAL_CAN_Init>
 80006e8:	4603      	mov	r3, r0
 80006ea:	2b00      	cmp	r3, #0
 80006ec:	d001      	beq.n	80006f2 <MX_CAN1_Init+0x62>
  {
    Error_Handler();
 80006ee:	f000 f959 	bl	80009a4 <Error_Handler>
  }
  /* USER CODE BEGIN CAN1_Init 2 */

  /* USER CODE END CAN1_Init 2 */

}
 80006f2:	bf00      	nop
 80006f4:	bd80      	pop	{r7, pc}
 80006f6:	bf00      	nop
 80006f8:	200000d8 	.word	0x200000d8
 80006fc:	40006400 	.word	0x40006400

08000700 <MX_USART2_UART_Init>:
  * @brief USART2 Initialization Function
  * @param None
  * @retval None
  */
static void MX_USART2_UART_Init(void)
{
 8000700:	b580      	push	{r7, lr}
 8000702:	af00      	add	r7, sp, #0
  /* USER CODE END USART2_Init 0 */

  /* USER CODE BEGIN USART2_Init 1 */

  /* USER CODE END USART2_Init 1 */
  huart2.Instance = USART2;
 8000704:	4b11      	ldr	r3, [pc, #68]	; (800074c <MX_USART2_UART_Init+0x4c>)
 8000706:	4a12      	ldr	r2, [pc, #72]	; (8000750 <MX_USART2_UART_Init+0x50>)
 8000708:	601a      	str	r2, [r3, #0]
  huart2.Init.BaudRate = 115200;
 800070a:	4b10      	ldr	r3, [pc, #64]	; (800074c <MX_USART2_UART_Init+0x4c>)
 800070c:	f44f 32e1 	mov.w	r2, #115200	; 0x1c200
 8000710:	605a      	str	r2, [r3, #4]
  huart2.Init.WordLength = UART_WORDLENGTH_8B;
 8000712:	4b0e      	ldr	r3, [pc, #56]	; (800074c <MX_USART2_UART_Init+0x4c>)
 8000714:	2200      	movs	r2, #0
 8000716:	609a      	str	r2, [r3, #8]
  huart2.Init.StopBits = UART_STOPBITS_1;
 8000718:	4b0c      	ldr	r3, [pc, #48]	; (800074c <MX_USART2_UART_Init+0x4c>)
 800071a:	2200      	movs	r2, #0
 800071c:	60da      	str	r2, [r3, #12]
  huart2.Init.Parity = UART_PARITY_NONE;
 800071e:	4b0b      	ldr	r3, [pc, #44]	; (800074c <MX_USART2_UART_Init+0x4c>)
 8000720:	2200      	movs	r2, #0
 8000722:	611a      	str	r2, [r3, #16]
  huart2.Init.Mode = UART_MODE_TX_RX;
 8000724:	4b09      	ldr	r3, [pc, #36]	; (800074c <MX_USART2_UART_Init+0x4c>)
 8000726:	220c      	movs	r2, #12
 8000728:	615a      	str	r2, [r3, #20]
  huart2.Init.HwFlowCtl = UART_HWCONTROL_NONE;
 800072a:	4b08      	ldr	r3, [pc, #32]	; (800074c <MX_USART2_UART_Init+0x4c>)
 800072c:	2200      	movs	r2, #0
 800072e:	619a      	str	r2, [r3, #24]
  huart2.Init.OverSampling = UART_OVERSAMPLING_16;
 8000730:	4b06      	ldr	r3, [pc, #24]	; (800074c <MX_USART2_UART_Init+0x4c>)
 8000732:	2200      	movs	r2, #0
 8000734:	61da      	str	r2, [r3, #28]
  if (HAL_UART_Init(&huart2) != HAL_OK)
 8000736:	4805      	ldr	r0, [pc, #20]	; (800074c <MX_USART2_UART_Init+0x4c>)
 8000738:	f001 fec6 	bl	80024c8 <HAL_UART_Init>
 800073c:	4603      	mov	r3, r0
 800073e:	2b00      	cmp	r3, #0
 8000740:	d001      	beq.n	8000746 <MX_USART2_UART_Init+0x46>
  {
    Error_Handler();
 8000742:	f000 f92f 	bl	80009a4 <Error_Handler>
  }
  /* USER CODE BEGIN USART2_Init 2 */

  /* USER CODE END USART2_Init 2 */

}
 8000746:	bf00      	nop
 8000748:	bd80      	pop	{r7, pc}
 800074a:	bf00      	nop
 800074c:	20000098 	.word	0x20000098
 8000750:	40004400 	.word	0x40004400

08000754 <MX_GPIO_Init>:
  * @brief GPIO Initialization Function
  * @param None
  * @retval None
  */
static void MX_GPIO_Init(void)
{
 8000754:	b580      	push	{r7, lr}
 8000756:	b08a      	sub	sp, #40	; 0x28
 8000758:	af00      	add	r7, sp, #0
  GPIO_InitTypeDef GPIO_InitStruct = {0};
 800075a:	f107 0314 	add.w	r3, r7, #20
 800075e:	2200      	movs	r2, #0
 8000760:	601a      	str	r2, [r3, #0]
 8000762:	605a      	str	r2, [r3, #4]
 8000764:	609a      	str	r2, [r3, #8]
 8000766:	60da      	str	r2, [r3, #12]
 8000768:	611a      	str	r2, [r3, #16]

  /* GPIO Ports Clock Enable */
  __HAL_RCC_GPIOH_CLK_ENABLE();
 800076a:	2300      	movs	r3, #0
 800076c:	613b      	str	r3, [r7, #16]
 800076e:	4b33      	ldr	r3, [pc, #204]	; (800083c <MX_GPIO_Init+0xe8>)
 8000770:	6b1b      	ldr	r3, [r3, #48]	; 0x30
 8000772:	4a32      	ldr	r2, [pc, #200]	; (800083c <MX_GPIO_Init+0xe8>)
 8000774:	f043 0380 	orr.w	r3, r3, #128	; 0x80
 8000778:	6313      	str	r3, [r2, #48]	; 0x30
 800077a:	4b30      	ldr	r3, [pc, #192]	; (800083c <MX_GPIO_Init+0xe8>)
 800077c:	6b1b      	ldr	r3, [r3, #48]	; 0x30
 800077e:	f003 0380 	and.w	r3, r3, #128	; 0x80
 8000782:	613b      	str	r3, [r7, #16]
 8000784:	693b      	ldr	r3, [r7, #16]
  __HAL_RCC_GPIOA_CLK_ENABLE();
 8000786:	2300      	movs	r3, #0
 8000788:	60fb      	str	r3, [r7, #12]
 800078a:	4b2c      	ldr	r3, [pc, #176]	; (800083c <MX_GPIO_Init+0xe8>)
 800078c:	6b1b      	ldr	r3, [r3, #48]	; 0x30
 800078e:	4a2b      	ldr	r2, [pc, #172]	; (800083c <MX_GPIO_Init+0xe8>)
 8000790:	f043 0301 	orr.w	r3, r3, #1
 8000794:	6313      	str	r3, [r2, #48]	; 0x30
 8000796:	4b29      	ldr	r3, [pc, #164]	; (800083c <MX_GPIO_Init+0xe8>)
 8000798:	6b1b      	ldr	r3, [r3, #48]	; 0x30
 800079a:	f003 0301 	and.w	r3, r3, #1
 800079e:	60fb      	str	r3, [r7, #12]
 80007a0:	68fb      	ldr	r3, [r7, #12]
  __HAL_RCC_GPIOB_CLK_ENABLE();
 80007a2:	2300      	movs	r3, #0
 80007a4:	60bb      	str	r3, [r7, #8]
 80007a6:	4b25      	ldr	r3, [pc, #148]	; (800083c <MX_GPIO_Init+0xe8>)
 80007a8:	6b1b      	ldr	r3, [r3, #48]	; 0x30
 80007aa:	4a24      	ldr	r2, [pc, #144]	; (800083c <MX_GPIO_Init+0xe8>)
 80007ac:	f043 0302 	orr.w	r3, r3, #2
 80007b0:	6313      	str	r3, [r2, #48]	; 0x30
 80007b2:	4b22      	ldr	r3, [pc, #136]	; (800083c <MX_GPIO_Init+0xe8>)
 80007b4:	6b1b      	ldr	r3, [r3, #48]	; 0x30
 80007b6:	f003 0302 	and.w	r3, r3, #2
 80007ba:	60bb      	str	r3, [r7, #8]
 80007bc:	68bb      	ldr	r3, [r7, #8]
  __HAL_RCC_GPIOD_CLK_ENABLE();
 80007be:	2300      	movs	r3, #0
 80007c0:	607b      	str	r3, [r7, #4]
 80007c2:	4b1e      	ldr	r3, [pc, #120]	; (800083c <MX_GPIO_Init+0xe8>)
 80007c4:	6b1b      	ldr	r3, [r3, #48]	; 0x30
 80007c6:	4a1d      	ldr	r2, [pc, #116]	; (800083c <MX_GPIO_Init+0xe8>)
 80007c8:	f043 0308 	orr.w	r3, r3, #8
 80007cc:	6313      	str	r3, [r2, #48]	; 0x30
 80007ce:	4b1b      	ldr	r3, [pc, #108]	; (800083c <MX_GPIO_Init+0xe8>)
 80007d0:	6b1b      	ldr	r3, [r3, #48]	; 0x30
 80007d2:	f003 0308 	and.w	r3, r3, #8
 80007d6:	607b      	str	r3, [r7, #4]
 80007d8:	687b      	ldr	r3, [r7, #4]

  /*Configure GPIO pin Output Level */
  HAL_GPIO_WritePin(GPIOD, LD4_Pin|LD3_Pin|LD5_Pin|LD6_Pin, GPIO_PIN_RESET);
 80007da:	2200      	movs	r2, #0
 80007dc:	f44f 4170 	mov.w	r1, #61440	; 0xf000
 80007e0:	4817      	ldr	r0, [pc, #92]	; (8000840 <MX_GPIO_Init+0xec>)
 80007e2:	f001 f9f5 	bl	8001bd0 <HAL_GPIO_WritePin>

  /*Configure GPIO pin : B1_Pin */
  GPIO_InitStruct.Pin = B1_Pin;
 80007e6:	2301      	movs	r3, #1
 80007e8:	617b      	str	r3, [r7, #20]
  GPIO_InitStruct.Mode = GPIO_MODE_EVT_RISING;
 80007ea:	4b16      	ldr	r3, [pc, #88]	; (8000844 <MX_GPIO_Init+0xf0>)
 80007ec:	61bb      	str	r3, [r7, #24]
  GPIO_InitStruct.Pull = GPIO_NOPULL;
 80007ee:	2300      	movs	r3, #0
 80007f0:	61fb      	str	r3, [r7, #28]
  HAL_GPIO_Init(B1_GPIO_Port, &GPIO_InitStruct);
 80007f2:	f107 0314 	add.w	r3, r7, #20
 80007f6:	4619      	mov	r1, r3
 80007f8:	4813      	ldr	r0, [pc, #76]	; (8000848 <MX_GPIO_Init+0xf4>)
 80007fa:	f001 f84f 	bl	800189c <HAL_GPIO_Init>

  /*Configure GPIO pin : BOOT1_Pin */
  GPIO_InitStruct.Pin = BOOT1_Pin;
 80007fe:	2304      	movs	r3, #4
 8000800:	617b      	str	r3, [r7, #20]
  GPIO_InitStruct.Mode = GPIO_MODE_INPUT;
 8000802:	2300      	movs	r3, #0
 8000804:	61bb      	str	r3, [r7, #24]
  GPIO_InitStruct.Pull = GPIO_NOPULL;
 8000806:	2300      	movs	r3, #0
 8000808:	61fb      	str	r3, [r7, #28]
  HAL_GPIO_Init(BOOT1_GPIO_Port, &GPIO_InitStruct);
 800080a:	f107 0314 	add.w	r3, r7, #20
 800080e:	4619      	mov	r1, r3
 8000810:	480e      	ldr	r0, [pc, #56]	; (800084c <MX_GPIO_Init+0xf8>)
 8000812:	f001 f843 	bl	800189c <HAL_GPIO_Init>

  /*Configure GPIO pins : LD4_Pin LD3_Pin LD5_Pin LD6_Pin */
  GPIO_InitStruct.Pin = LD4_Pin|LD3_Pin|LD5_Pin|LD6_Pin;
 8000816:	f44f 4370 	mov.w	r3, #61440	; 0xf000
 800081a:	617b      	str	r3, [r7, #20]
  GPIO_InitStruct.Mode = GPIO_MODE_OUTPUT_PP;
 800081c:	2301      	movs	r3, #1
 800081e:	61bb      	str	r3, [r7, #24]
  GPIO_InitStruct.Pull = GPIO_NOPULL;
 8000820:	2300      	movs	r3, #0
 8000822:	61fb      	str	r3, [r7, #28]
  GPIO_InitStruct.Speed = GPIO_SPEED_FREQ_LOW;
 8000824:	2300      	movs	r3, #0
 8000826:	623b      	str	r3, [r7, #32]
  HAL_GPIO_Init(GPIOD, &GPIO_InitStruct);
 8000828:	f107 0314 	add.w	r3, r7, #20
 800082c:	4619      	mov	r1, r3
 800082e:	4804      	ldr	r0, [pc, #16]	; (8000840 <MX_GPIO_Init+0xec>)
 8000830:	f001 f834 	bl	800189c <HAL_GPIO_Init>

}
 8000834:	bf00      	nop
 8000836:	3728      	adds	r7, #40	; 0x28
 8000838:	46bd      	mov	sp, r7
 800083a:	bd80      	pop	{r7, pc}
 800083c:	40023800 	.word	0x40023800
 8000840:	40020c00 	.word	0x40020c00
 8000844:	10120000 	.word	0x10120000
 8000848:	40020000 	.word	0x40020000
 800084c:	40020400 	.word	0x40020400

08000850 <CAN1_TX>:

/* USER CODE BEGIN 4 */

/* USER CODE END 4 */
void CAN1_TX(void)
{
 8000850:	b5b0      	push	{r4, r5, r7, lr}
 8000852:	b096      	sub	sp, #88	; 0x58
 8000854:	af00      	add	r7, sp, #0
	CAN_TxHeaderTypeDef TxHeader;
	TxHeader.DLC   =5;
 8000856:	2305      	movs	r3, #5
 8000858:	653b      	str	r3, [r7, #80]	; 0x50
	TxHeader.StdId =0x65D;
 800085a:	f240 635d 	movw	r3, #1629	; 0x65d
 800085e:	643b      	str	r3, [r7, #64]	; 0x40
	TxHeader.IDE   =CAN_ID_STD;
 8000860:	2300      	movs	r3, #0
 8000862:	64bb      	str	r3, [r7, #72]	; 0x48
	TxHeader.RTR   =CAN_RTR_DATA ;
 8000864:	2300      	movs	r3, #0
 8000866:	64fb      	str	r3, [r7, #76]	; 0x4c

	//message
	uint8_t our_msg[5]="HELLO";
 8000868:	4a1c      	ldr	r2, [pc, #112]	; (80008dc <CAN1_TX+0x8c>)
 800086a:	f107 0338 	add.w	r3, r7, #56	; 0x38
 800086e:	e892 0003 	ldmia.w	r2, {r0, r1}
 8000872:	6018      	str	r0, [r3, #0]
 8000874:	3304      	adds	r3, #4
 8000876:	7019      	strb	r1, [r3, #0]
	uint32_t TxMailbox;
    char msg[50];
	if (HAL_CAN_AddTxMessage(&hcan1, &TxHeader, our_msg, &TxMailbox) != HAL_OK)
 8000878:	f107 0334 	add.w	r3, r7, #52	; 0x34
 800087c:	f107 0238 	add.w	r2, r7, #56	; 0x38
 8000880:	f107 0140 	add.w	r1, r7, #64	; 0x40
 8000884:	4816      	ldr	r0, [pc, #88]	; (80008e0 <CAN1_TX+0x90>)
 8000886:	f000 fc9b 	bl	80011c0 <HAL_CAN_AddTxMessage>
 800088a:	4603      	mov	r3, r0
 800088c:	2b00      	cmp	r3, #0
 800088e:	d001      	beq.n	8000894 <CAN1_TX+0x44>
	{
		Error_Handler();
 8000890:	f000 f888 	bl	80009a4 <Error_Handler>
	}
	while ( HAL_CAN_IsTxMessagePending(&hcan1, TxMailbox));
 8000894:	bf00      	nop
 8000896:	6b7b      	ldr	r3, [r7, #52]	; 0x34
 8000898:	4619      	mov	r1, r3
 800089a:	4811      	ldr	r0, [pc, #68]	; (80008e0 <CAN1_TX+0x90>)
 800089c:	f000 fd6b 	bl	8001376 <HAL_CAN_IsTxMessagePending>
 80008a0:	4603      	mov	r3, r0
 80008a2:	2b00      	cmp	r3, #0
 80008a4:	d1f7      	bne.n	8000896 <CAN1_TX+0x46>
	sprintf(msg,"Message Transmitted\r\n");
 80008a6:	463b      	mov	r3, r7
 80008a8:	4a0e      	ldr	r2, [pc, #56]	; (80008e4 <CAN1_TX+0x94>)
 80008aa:	461c      	mov	r4, r3
 80008ac:	4615      	mov	r5, r2
 80008ae:	cd0f      	ldmia	r5!, {r0, r1, r2, r3}
 80008b0:	c40f      	stmia	r4!, {r0, r1, r2, r3}
 80008b2:	e895 0003 	ldmia.w	r5, {r0, r1}
 80008b6:	6020      	str	r0, [r4, #0]
 80008b8:	3404      	adds	r4, #4
 80008ba:	8021      	strh	r1, [r4, #0]
	HAL_UART_Transmit(&huart2, (uint8_t *)msg, strlen(msg), HAL_MAX_DELAY);
 80008bc:	463b      	mov	r3, r7
 80008be:	4618      	mov	r0, r3
 80008c0:	f7ff fc86 	bl	80001d0 <strlen>
 80008c4:	4603      	mov	r3, r0
 80008c6:	b29a      	uxth	r2, r3
 80008c8:	4639      	mov	r1, r7
 80008ca:	f04f 33ff 	mov.w	r3, #4294967295
 80008ce:	4806      	ldr	r0, [pc, #24]	; (80008e8 <CAN1_TX+0x98>)
 80008d0:	f001 fe47 	bl	8002562 <HAL_UART_Transmit>
}
 80008d4:	bf00      	nop
 80008d6:	3758      	adds	r7, #88	; 0x58
 80008d8:	46bd      	mov	sp, r7
 80008da:	bdb0      	pop	{r4, r5, r7, pc}
 80008dc:	08003b40 	.word	0x08003b40
 80008e0:	200000d8 	.word	0x200000d8
 80008e4:	08003b28 	.word	0x08003b28
 80008e8:	20000098 	.word	0x20000098

080008ec <CAN_Filter_Config>:

void  CAN_Filter_Config(void)
{
 80008ec:	b580      	push	{r7, lr}
 80008ee:	b08a      	sub	sp, #40	; 0x28
 80008f0:	af00      	add	r7, sp, #0
	//can filter configuration
	CAN_FilterTypeDef can1_filter_init;
	can1_filter_init.FilterActivation     = ENABLE;
 80008f2:	2301      	movs	r3, #1
 80008f4:	623b      	str	r3, [r7, #32]
	can1_filter_init.FilterBank           = 0;
 80008f6:	2300      	movs	r3, #0
 80008f8:	617b      	str	r3, [r7, #20]
	can1_filter_init.FilterMode           = CAN_FILTERMODE_IDMASK;
 80008fa:	2300      	movs	r3, #0
 80008fc:	61bb      	str	r3, [r7, #24]
	can1_filter_init.FilterFIFOAssignment = CAN_RX_FIFO0;
 80008fe:	2300      	movs	r3, #0
 8000900:	613b      	str	r3, [r7, #16]
	can1_filter_init.FilterIdHigh         = 0x0000;
 8000902:	2300      	movs	r3, #0
 8000904:	603b      	str	r3, [r7, #0]
	can1_filter_init.FilterIdHigh         = 0x0000;
 8000906:	2300      	movs	r3, #0
 8000908:	603b      	str	r3, [r7, #0]
	can1_filter_init.FilterMaskIdHigh     = 0x0000;
 800090a:	2300      	movs	r3, #0
 800090c:	60bb      	str	r3, [r7, #8]
	can1_filter_init.FilterMaskIdLow      = 0x0000;
 800090e:	2300      	movs	r3, #0
 8000910:	60fb      	str	r3, [r7, #12]
	can1_filter_init.FilterScale          = CAN_FILTERSCALE_32BIT;
 8000912:	2301      	movs	r3, #1
 8000914:	61fb      	str	r3, [r7, #28]

	if (HAL_CAN_ConfigFilter(&hcan1, &can1_filter_init) != HAL_OK)
 8000916:	463b      	mov	r3, r7
 8000918:	4619      	mov	r1, r3
 800091a:	4806      	ldr	r0, [pc, #24]	; (8000934 <CAN_Filter_Config+0x48>)
 800091c:	f000 fb2c 	bl	8000f78 <HAL_CAN_ConfigFilter>
 8000920:	4603      	mov	r3, r0
 8000922:	2b00      	cmp	r3, #0
 8000924:	d001      	beq.n	800092a <CAN_Filter_Config+0x3e>
	{
		Error_Handler();
 8000926:	f000 f83d 	bl	80009a4 <Error_Handler>
	}
}
 800092a:	bf00      	nop
 800092c:	3728      	adds	r7, #40	; 0x28
 800092e:	46bd      	mov	sp, r7
 8000930:	bd80      	pop	{r7, pc}
 8000932:	bf00      	nop
 8000934:	200000d8 	.word	0x200000d8

08000938 <CAN1_Rx>:
/**
  * @brief  This function is executed in case of error occurrence.
  * @retval None
  */
void CAN1_Rx(void)
{
 8000938:	b580      	push	{r7, lr}
 800093a:	b096      	sub	sp, #88	; 0x58
 800093c:	af00      	add	r7, sp, #0
	CAN_RxHeaderTypeDef RxHeader;
	uint8_t rcvd_msg[5];
	char msg[50];
	//we are waiting for at least one message in rx FIFO0
	while (! HAL_CAN_GetRxFifoFillLevel(&hcan1,CAN_RX_FIFO0));
 800093e:	bf00      	nop
 8000940:	2100      	movs	r1, #0
 8000942:	4815      	ldr	r0, [pc, #84]	; (8000998 <CAN1_Rx+0x60>)
 8000944:	f000 fe4d 	bl	80015e2 <HAL_CAN_GetRxFifoFillLevel>
 8000948:	4603      	mov	r3, r0
 800094a:	2b00      	cmp	r3, #0
 800094c:	d0f8      	beq.n	8000940 <CAN1_Rx+0x8>

	if (HAL_CAN_GetRxMessage(&hcan1, CAN_RX_FIFO0, &RxHeader, rcvd_msg) != HAL_OK)
 800094e:	f107 0334 	add.w	r3, r7, #52	; 0x34
 8000952:	f107 023c 	add.w	r2, r7, #60	; 0x3c
 8000956:	2100      	movs	r1, #0
 8000958:	480f      	ldr	r0, [pc, #60]	; (8000998 <CAN1_Rx+0x60>)
 800095a:	f000 fd30 	bl	80013be <HAL_CAN_GetRxMessage>
 800095e:	4603      	mov	r3, r0
 8000960:	2b00      	cmp	r3, #0
 8000962:	d001      	beq.n	8000968 <CAN1_Rx+0x30>
	{
		Error_Handler();
 8000964:	f000 f81e 	bl	80009a4 <Error_Handler>
	}
	sprintf(msg,"Message RECEIVED : %s\r\n",rcvd_msg);
 8000968:	f107 0234 	add.w	r2, r7, #52	; 0x34
 800096c:	463b      	mov	r3, r7
 800096e:	490b      	ldr	r1, [pc, #44]	; (800099c <CAN1_Rx+0x64>)
 8000970:	4618      	mov	r0, r3
 8000972:	f002 fcc7 	bl	8003304 <siprintf>
	HAL_UART_Transmit(&huart2, (uint8_t *)msg, strlen(msg), HAL_MAX_DELAY);
 8000976:	463b      	mov	r3, r7
 8000978:	4618      	mov	r0, r3
 800097a:	f7ff fc29 	bl	80001d0 <strlen>
 800097e:	4603      	mov	r3, r0
 8000980:	b29a      	uxth	r2, r3
 8000982:	4639      	mov	r1, r7
 8000984:	f04f 33ff 	mov.w	r3, #4294967295
 8000988:	4805      	ldr	r0, [pc, #20]	; (80009a0 <CAN1_Rx+0x68>)
 800098a:	f001 fdea 	bl	8002562 <HAL_UART_Transmit>
}
 800098e:	bf00      	nop
 8000990:	3758      	adds	r7, #88	; 0x58
 8000992:	46bd      	mov	sp, r7
 8000994:	bd80      	pop	{r7, pc}
 8000996:	bf00      	nop
 8000998:	200000d8 	.word	0x200000d8
 800099c:	08003b48 	.word	0x08003b48
 80009a0:	20000098 	.word	0x20000098

080009a4 <Error_Handler>:
void Error_Handler(void)
{
 80009a4:	b480      	push	{r7}
 80009a6:	af00      	add	r7, sp, #0
  /* USER CODE BEGIN Error_Handler_Debug */
  /* User can add his own implementation to report the HAL error return state */

  /* USER CODE END Error_Handler_Debug */
}
 80009a8:	bf00      	nop
 80009aa:	46bd      	mov	sp, r7
 80009ac:	f85d 7b04 	ldr.w	r7, [sp], #4
 80009b0:	4770      	bx	lr
	...

080009b4 <HAL_MspInit>:
/* USER CODE END 0 */
/**
  * Initializes the Global MSP.
  */
void HAL_MspInit(void)
{
 80009b4:	b580      	push	{r7, lr}
 80009b6:	b082      	sub	sp, #8
 80009b8:	af00      	add	r7, sp, #0
  /* USER CODE BEGIN MspInit 0 */

  /* USER CODE END MspInit 0 */

  __HAL_RCC_SYSCFG_CLK_ENABLE();
 80009ba:	2300      	movs	r3, #0
 80009bc:	607b      	str	r3, [r7, #4]
 80009be:	4b14      	ldr	r3, [pc, #80]	; (8000a10 <HAL_MspInit+0x5c>)
 80009c0:	6c5b      	ldr	r3, [r3, #68]	; 0x44
 80009c2:	4a13      	ldr	r2, [pc, #76]	; (8000a10 <HAL_MspInit+0x5c>)
 80009c4:	f443 4380 	orr.w	r3, r3, #16384	; 0x4000
 80009c8:	6453      	str	r3, [r2, #68]	; 0x44
 80009ca:	4b11      	ldr	r3, [pc, #68]	; (8000a10 <HAL_MspInit+0x5c>)
 80009cc:	6c5b      	ldr	r3, [r3, #68]	; 0x44
 80009ce:	f403 4380 	and.w	r3, r3, #16384	; 0x4000
 80009d2:	607b      	str	r3, [r7, #4]
 80009d4:	687b      	ldr	r3, [r7, #4]
  __HAL_RCC_PWR_CLK_ENABLE();
 80009d6:	2300      	movs	r3, #0
 80009d8:	603b      	str	r3, [r7, #0]
 80009da:	4b0d      	ldr	r3, [pc, #52]	; (8000a10 <HAL_MspInit+0x5c>)
 80009dc:	6c1b      	ldr	r3, [r3, #64]	; 0x40
 80009de:	4a0c      	ldr	r2, [pc, #48]	; (8000a10 <HAL_MspInit+0x5c>)
 80009e0:	f043 5380 	orr.w	r3, r3, #268435456	; 0x10000000
 80009e4:	6413      	str	r3, [r2, #64]	; 0x40
 80009e6:	4b0a      	ldr	r3, [pc, #40]	; (8000a10 <HAL_MspInit+0x5c>)
 80009e8:	6c1b      	ldr	r3, [r3, #64]	; 0x40
 80009ea:	f003 5380 	and.w	r3, r3, #268435456	; 0x10000000
 80009ee:	603b      	str	r3, [r7, #0]
 80009f0:	683b      	ldr	r3, [r7, #0]

  HAL_NVIC_SetPriorityGrouping(NVIC_PRIORITYGROUP_0);
 80009f2:	2007      	movs	r0, #7
 80009f4:	f000 feee 	bl	80017d4 <HAL_NVIC_SetPriorityGrouping>

  /* System interrupt init*/

  /* Peripheral interrupt init */
  /* RCC_IRQn interrupt configuration */
  HAL_NVIC_SetPriority(RCC_IRQn, 0, 0);
 80009f8:	2200      	movs	r2, #0
 80009fa:	2100      	movs	r1, #0
 80009fc:	2005      	movs	r0, #5
 80009fe:	f000 fef4 	bl	80017ea <HAL_NVIC_SetPriority>
  HAL_NVIC_EnableIRQ(RCC_IRQn);
 8000a02:	2005      	movs	r0, #5
 8000a04:	f000 ff0d 	bl	8001822 <HAL_NVIC_EnableIRQ>

  /* USER CODE BEGIN MspInit 1 */

  /* USER CODE END MspInit 1 */
}
 8000a08:	bf00      	nop
 8000a0a:	3708      	adds	r7, #8
 8000a0c:	46bd      	mov	sp, r7
 8000a0e:	bd80      	pop	{r7, pc}
 8000a10:	40023800 	.word	0x40023800

08000a14 <HAL_CAN_MspInit>:
* This function configures the hardware resources used in this example
* @param hcan: CAN handle pointer
* @retval None
*/
void HAL_CAN_MspInit(CAN_HandleTypeDef* hcan)
{
 8000a14:	b580      	push	{r7, lr}
 8000a16:	b08a      	sub	sp, #40	; 0x28
 8000a18:	af00      	add	r7, sp, #0
 8000a1a:	6078      	str	r0, [r7, #4]
  GPIO_InitTypeDef GPIO_InitStruct = {0};
 8000a1c:	f107 0314 	add.w	r3, r7, #20
 8000a20:	2200      	movs	r2, #0
 8000a22:	601a      	str	r2, [r3, #0]
 8000a24:	605a      	str	r2, [r3, #4]
 8000a26:	609a      	str	r2, [r3, #8]
 8000a28:	60da      	str	r2, [r3, #12]
 8000a2a:	611a      	str	r2, [r3, #16]
  if(hcan->Instance==CAN1)
 8000a2c:	687b      	ldr	r3, [r7, #4]
 8000a2e:	681b      	ldr	r3, [r3, #0]
 8000a30:	4a19      	ldr	r2, [pc, #100]	; (8000a98 <HAL_CAN_MspInit+0x84>)
 8000a32:	4293      	cmp	r3, r2
 8000a34:	d12b      	bne.n	8000a8e <HAL_CAN_MspInit+0x7a>
  {
  /* USER CODE BEGIN CAN1_MspInit 0 */

  /* USER CODE END CAN1_MspInit 0 */
    /* Peripheral clock enable */
    __HAL_RCC_CAN1_CLK_ENABLE();
 8000a36:	2300      	movs	r3, #0
 8000a38:	613b      	str	r3, [r7, #16]
 8000a3a:	4b18      	ldr	r3, [pc, #96]	; (8000a9c <HAL_CAN_MspInit+0x88>)
 8000a3c:	6c1b      	ldr	r3, [r3, #64]	; 0x40
 8000a3e:	4a17      	ldr	r2, [pc, #92]	; (8000a9c <HAL_CAN_MspInit+0x88>)
 8000a40:	f043 7300 	orr.w	r3, r3, #33554432	; 0x2000000
 8000a44:	6413      	str	r3, [r2, #64]	; 0x40
 8000a46:	4b15      	ldr	r3, [pc, #84]	; (8000a9c <HAL_CAN_MspInit+0x88>)
 8000a48:	6c1b      	ldr	r3, [r3, #64]	; 0x40
 8000a4a:	f003 7300 	and.w	r3, r3, #33554432	; 0x2000000
 8000a4e:	613b      	str	r3, [r7, #16]
 8000a50:	693b      	ldr	r3, [r7, #16]
  
    __HAL_RCC_GPIOD_CLK_ENABLE();
 8000a52:	2300      	movs	r3, #0
 8000a54:	60fb      	str	r3, [r7, #12]
 8000a56:	4b11      	ldr	r3, [pc, #68]	; (8000a9c <HAL_CAN_MspInit+0x88>)
 8000a58:	6b1b      	ldr	r3, [r3, #48]	; 0x30
 8000a5a:	4a10      	ldr	r2, [pc, #64]	; (8000a9c <HAL_CAN_MspInit+0x88>)
 8000a5c:	f043 0308 	orr.w	r3, r3, #8
 8000a60:	6313      	str	r3, [r2, #48]	; 0x30
 8000a62:	4b0e      	ldr	r3, [pc, #56]	; (8000a9c <HAL_CAN_MspInit+0x88>)
 8000a64:	6b1b      	ldr	r3, [r3, #48]	; 0x30
 8000a66:	f003 0308 	and.w	r3, r3, #8
 8000a6a:	60fb      	str	r3, [r7, #12]
 8000a6c:	68fb      	ldr	r3, [r7, #12]
    /**CAN1 GPIO Configuration    
    PD0     ------> CAN1_RX
    PD1     ------> CAN1_TX 
    */
    GPIO_InitStruct.Pin = GPIO_PIN_0|GPIO_PIN_1;
 8000a6e:	2303      	movs	r3, #3
 8000a70:	617b      	str	r3, [r7, #20]
    GPIO_InitStruct.Mode = GPIO_MODE_AF_PP;
 8000a72:	2302      	movs	r3, #2
 8000a74:	61bb      	str	r3, [r7, #24]
    GPIO_InitStruct.Pull = GPIO_NOPULL;
 8000a76:	2300      	movs	r3, #0
 8000a78:	61fb      	str	r3, [r7, #28]
    GPIO_InitStruct.Speed = GPIO_SPEED_FREQ_VERY_HIGH;
 8000a7a:	2303      	movs	r3, #3
 8000a7c:	623b      	str	r3, [r7, #32]
    GPIO_InitStruct.Alternate = GPIO_AF9_CAN1;
 8000a7e:	2309      	movs	r3, #9
 8000a80:	627b      	str	r3, [r7, #36]	; 0x24
    HAL_GPIO_Init(GPIOD, &GPIO_InitStruct);
 8000a82:	f107 0314 	add.w	r3, r7, #20
 8000a86:	4619      	mov	r1, r3
 8000a88:	4805      	ldr	r0, [pc, #20]	; (8000aa0 <HAL_CAN_MspInit+0x8c>)
 8000a8a:	f000 ff07 	bl	800189c <HAL_GPIO_Init>
  /* USER CODE BEGIN CAN1_MspInit 1 */

  /* USER CODE END CAN1_MspInit 1 */
  }

}
 8000a8e:	bf00      	nop
 8000a90:	3728      	adds	r7, #40	; 0x28
 8000a92:	46bd      	mov	sp, r7
 8000a94:	bd80      	pop	{r7, pc}
 8000a96:	bf00      	nop
 8000a98:	40006400 	.word	0x40006400
 8000a9c:	40023800 	.word	0x40023800
 8000aa0:	40020c00 	.word	0x40020c00

08000aa4 <HAL_UART_MspInit>:
* This function configures the hardware resources used in this example
* @param huart: UART handle pointer
* @retval None
*/
void HAL_UART_MspInit(UART_HandleTypeDef* huart)
{
 8000aa4:	b580      	push	{r7, lr}
 8000aa6:	b08a      	sub	sp, #40	; 0x28
 8000aa8:	af00      	add	r7, sp, #0
 8000aaa:	6078      	str	r0, [r7, #4]
  GPIO_InitTypeDef GPIO_InitStruct = {0};
 8000aac:	f107 0314 	add.w	r3, r7, #20
 8000ab0:	2200      	movs	r2, #0
 8000ab2:	601a      	str	r2, [r3, #0]
 8000ab4:	605a      	str	r2, [r3, #4]
 8000ab6:	609a      	str	r2, [r3, #8]
 8000ab8:	60da      	str	r2, [r3, #12]
 8000aba:	611a      	str	r2, [r3, #16]
  if(huart->Instance==USART2)
 8000abc:	687b      	ldr	r3, [r7, #4]
 8000abe:	681b      	ldr	r3, [r3, #0]
 8000ac0:	4a1d      	ldr	r2, [pc, #116]	; (8000b38 <HAL_UART_MspInit+0x94>)
 8000ac2:	4293      	cmp	r3, r2
 8000ac4:	d133      	bne.n	8000b2e <HAL_UART_MspInit+0x8a>
  {
  /* USER CODE BEGIN USART2_MspInit 0 */

  /* USER CODE END USART2_MspInit 0 */
    /* Peripheral clock enable */
    __HAL_RCC_USART2_CLK_ENABLE();
 8000ac6:	2300      	movs	r3, #0
 8000ac8:	613b      	str	r3, [r7, #16]
 8000aca:	4b1c      	ldr	r3, [pc, #112]	; (8000b3c <HAL_UART_MspInit+0x98>)
 8000acc:	6c1b      	ldr	r3, [r3, #64]	; 0x40
 8000ace:	4a1b      	ldr	r2, [pc, #108]	; (8000b3c <HAL_UART_MspInit+0x98>)
 8000ad0:	f443 3300 	orr.w	r3, r3, #131072	; 0x20000
 8000ad4:	6413      	str	r3, [r2, #64]	; 0x40
 8000ad6:	4b19      	ldr	r3, [pc, #100]	; (8000b3c <HAL_UART_MspInit+0x98>)
 8000ad8:	6c1b      	ldr	r3, [r3, #64]	; 0x40
 8000ada:	f403 3300 	and.w	r3, r3, #131072	; 0x20000
 8000ade:	613b      	str	r3, [r7, #16]
 8000ae0:	693b      	ldr	r3, [r7, #16]
  
    __HAL_RCC_GPIOA_CLK_ENABLE();
 8000ae2:	2300      	movs	r3, #0
 8000ae4:	60fb      	str	r3, [r7, #12]
 8000ae6:	4b15      	ldr	r3, [pc, #84]	; (8000b3c <HAL_UART_MspInit+0x98>)
 8000ae8:	6b1b      	ldr	r3, [r3, #48]	; 0x30
 8000aea:	4a14      	ldr	r2, [pc, #80]	; (8000b3c <HAL_UART_MspInit+0x98>)
 8000aec:	f043 0301 	orr.w	r3, r3, #1
 8000af0:	6313      	str	r3, [r2, #48]	; 0x30
 8000af2:	4b12      	ldr	r3, [pc, #72]	; (8000b3c <HAL_UART_MspInit+0x98>)
 8000af4:	6b1b      	ldr	r3, [r3, #48]	; 0x30
 8000af6:	f003 0301 	and.w	r3, r3, #1
 8000afa:	60fb      	str	r3, [r7, #12]
 8000afc:	68fb      	ldr	r3, [r7, #12]
    /**USART2 GPIO Configuration    
    PA2     ------> USART2_TX
    PA3     ------> USART2_RX 
    */
    GPIO_InitStruct.Pin = GPIO_PIN_2|GPIO_PIN_3;
 8000afe:	230c      	movs	r3, #12
 8000b00:	617b      	str	r3, [r7, #20]
    GPIO_InitStruct.Mode = GPIO_MODE_AF_PP;
 8000b02:	2302      	movs	r3, #2
 8000b04:	61bb      	str	r3, [r7, #24]
    GPIO_InitStruct.Pull = GPIO_NOPULL;
 8000b06:	2300      	movs	r3, #0
 8000b08:	61fb      	str	r3, [r7, #28]
    GPIO_InitStruct.Speed = GPIO_SPEED_FREQ_VERY_HIGH;
 8000b0a:	2303      	movs	r3, #3
 8000b0c:	623b      	str	r3, [r7, #32]
    GPIO_InitStruct.Alternate = GPIO_AF7_USART2;
 8000b0e:	2307      	movs	r3, #7
 8000b10:	627b      	str	r3, [r7, #36]	; 0x24
    HAL_GPIO_Init(GPIOA, &GPIO_InitStruct);
 8000b12:	f107 0314 	add.w	r3, r7, #20
 8000b16:	4619      	mov	r1, r3
 8000b18:	4809      	ldr	r0, [pc, #36]	; (8000b40 <HAL_UART_MspInit+0x9c>)
 8000b1a:	f000 febf 	bl	800189c <HAL_GPIO_Init>

    /* USART2 interrupt Init */
    HAL_NVIC_SetPriority(USART2_IRQn, 0, 0);
 8000b1e:	2200      	movs	r2, #0
 8000b20:	2100      	movs	r1, #0
 8000b22:	2026      	movs	r0, #38	; 0x26
 8000b24:	f000 fe61 	bl	80017ea <HAL_NVIC_SetPriority>
    HAL_NVIC_EnableIRQ(USART2_IRQn);
 8000b28:	2026      	movs	r0, #38	; 0x26
 8000b2a:	f000 fe7a 	bl	8001822 <HAL_NVIC_EnableIRQ>
  /* USER CODE BEGIN USART2_MspInit 1 */

  /* USER CODE END USART2_MspInit 1 */
  }

}
 8000b2e:	bf00      	nop
 8000b30:	3728      	adds	r7, #40	; 0x28
 8000b32:	46bd      	mov	sp, r7
 8000b34:	bd80      	pop	{r7, pc}
 8000b36:	bf00      	nop
 8000b38:	40004400 	.word	0x40004400
 8000b3c:	40023800 	.word	0x40023800
 8000b40:	40020000 	.word	0x40020000

08000b44 <NMI_Handler>:
/******************************************************************************/
/**
  * @brief This function handles Non maskable interrupt.
  */
void NMI_Handler(void)
{
 8000b44:	b480      	push	{r7}
 8000b46:	af00      	add	r7, sp, #0

  /* USER CODE END NonMaskableInt_IRQn 0 */
  /* USER CODE BEGIN NonMaskableInt_IRQn 1 */

  /* USER CODE END NonMaskableInt_IRQn 1 */
}
 8000b48:	bf00      	nop
 8000b4a:	46bd      	mov	sp, r7
 8000b4c:	f85d 7b04 	ldr.w	r7, [sp], #4
 8000b50:	4770      	bx	lr

08000b52 <HardFault_Handler>:

/**
  * @brief This function handles Hard fault interrupt.
  */
void HardFault_Handler(void)
{
 8000b52:	b480      	push	{r7}
 8000b54:	af00      	add	r7, sp, #0
  /* USER CODE BEGIN HardFault_IRQn 0 */

  /* USER CODE END HardFault_IRQn 0 */
  while (1)
 8000b56:	e7fe      	b.n	8000b56 <HardFault_Handler+0x4>

08000b58 <MemManage_Handler>:

/**
  * @brief This function handles Memory management fault.
  */
void MemManage_Handler(void)
{
 8000b58:	b480      	push	{r7}
 8000b5a:	af00      	add	r7, sp, #0
  /* USER CODE BEGIN MemoryManagement_IRQn 0 */

  /* USER CODE END MemoryManagement_IRQn 0 */
  while (1)
 8000b5c:	e7fe      	b.n	8000b5c <MemManage_Handler+0x4>

08000b5e <BusFault_Handler>:

/**
  * @brief This function handles Pre-fetch fault, memory access fault.
  */
void BusFault_Handler(void)
{
 8000b5e:	b480      	push	{r7}
 8000b60:	af00      	add	r7, sp, #0
  /* USER CODE BEGIN BusFault_IRQn 0 */

  /* USER CODE END BusFault_IRQn 0 */
  while (1)
 8000b62:	e7fe      	b.n	8000b62 <BusFault_Handler+0x4>

08000b64 <UsageFault_Handler>:

/**
  * @brief This function handles Undefined instruction or illegal state.
  */
void UsageFault_Handler(void)
{
 8000b64:	b480      	push	{r7}
 8000b66:	af00      	add	r7, sp, #0
  /* USER CODE BEGIN UsageFault_IRQn 0 */

  /* USER CODE END UsageFault_IRQn 0 */
  while (1)
 8000b68:	e7fe      	b.n	8000b68 <UsageFault_Handler+0x4>

08000b6a <SVC_Handler>:

/**
  * @brief This function handles System service call via SWI instruction.
  */
void SVC_Handler(void)
{
 8000b6a:	b480      	push	{r7}
 8000b6c:	af00      	add	r7, sp, #0

  /* USER CODE END SVCall_IRQn 0 */
  /* USER CODE BEGIN SVCall_IRQn 1 */

  /* USER CODE END SVCall_IRQn 1 */
}
 8000b6e:	bf00      	nop
 8000b70:	46bd      	mov	sp, r7
 8000b72:	f85d 7b04 	ldr.w	r7, [sp], #4
 8000b76:	4770      	bx	lr

08000b78 <DebugMon_Handler>:

/**
  * @brief This function handles Debug monitor.
  */
void DebugMon_Handler(void)
{
 8000b78:	b480      	push	{r7}
 8000b7a:	af00      	add	r7, sp, #0

  /* USER CODE END DebugMonitor_IRQn 0 */
  /* USER CODE BEGIN DebugMonitor_IRQn 1 */

  /* USER CODE END DebugMonitor_IRQn 1 */
}
 8000b7c:	bf00      	nop
 8000b7e:	46bd      	mov	sp, r7
 8000b80:	f85d 7b04 	ldr.w	r7, [sp], #4
 8000b84:	4770      	bx	lr

08000b86 <PendSV_Handler>:

/**
  * @brief This function handles Pendable request for system service.
  */
void PendSV_Handler(void)
{
 8000b86:	b480      	push	{r7}
 8000b88:	af00      	add	r7, sp, #0

  /* USER CODE END PendSV_IRQn 0 */
  /* USER CODE BEGIN PendSV_IRQn 1 */

  /* USER CODE END PendSV_IRQn 1 */
}
 8000b8a:	bf00      	nop
 8000b8c:	46bd      	mov	sp, r7
 8000b8e:	f85d 7b04 	ldr.w	r7, [sp], #4
 8000b92:	4770      	bx	lr

08000b94 <SysTick_Handler>:

/**
  * @brief This function handles System tick timer.
  */
void SysTick_Handler(void)
{
 8000b94:	b580      	push	{r7, lr}
 8000b96:	af00      	add	r7, sp, #0
  /* USER CODE BEGIN SysTick_IRQn 0 */

  /* USER CODE END SysTick_IRQn 0 */
  HAL_IncTick();
 8000b98:	f000 f8d2 	bl	8000d40 <HAL_IncTick>
  /* USER CODE BEGIN SysTick_IRQn 1 */

  /* USER CODE END SysTick_IRQn 1 */
}
 8000b9c:	bf00      	nop
 8000b9e:	bd80      	pop	{r7, pc}

08000ba0 <RCC_IRQHandler>:

/**
  * @brief This function handles RCC global interrupt.
  */
void RCC_IRQHandler(void)
{
 8000ba0:	b480      	push	{r7}
 8000ba2:	af00      	add	r7, sp, #0

  /* USER CODE END RCC_IRQn 0 */
  /* USER CODE BEGIN RCC_IRQn 1 */

  /* USER CODE END RCC_IRQn 1 */
}
 8000ba4:	bf00      	nop
 8000ba6:	46bd      	mov	sp, r7
 8000ba8:	f85d 7b04 	ldr.w	r7, [sp], #4
 8000bac:	4770      	bx	lr
	...

08000bb0 <USART2_IRQHandler>:

/**
  * @brief This function handles USART2 global interrupt.
  */
void USART2_IRQHandler(void)
{
 8000bb0:	b580      	push	{r7, lr}
 8000bb2:	af00      	add	r7, sp, #0
  /* USER CODE BEGIN USART2_IRQn 0 */

  /* USER CODE END USART2_IRQn 0 */
  HAL_UART_IRQHandler(&huart2);
 8000bb4:	4802      	ldr	r0, [pc, #8]	; (8000bc0 <USART2_IRQHandler+0x10>)
 8000bb6:	f001 fd6d 	bl	8002694 <HAL_UART_IRQHandler>
  /* USER CODE BEGIN USART2_IRQn 1 */

  /* USER CODE END USART2_IRQn 1 */
}
 8000bba:	bf00      	nop
 8000bbc:	bd80      	pop	{r7, pc}
 8000bbe:	bf00      	nop
 8000bc0:	20000098 	.word	0x20000098

08000bc4 <_sbrk>:
/**
 _sbrk
 Increase program data space. Malloc and related functions depend on this
**/
caddr_t _sbrk(int incr)
{
 8000bc4:	b580      	push	{r7, lr}
 8000bc6:	b084      	sub	sp, #16
 8000bc8:	af00      	add	r7, sp, #0
 8000bca:	6078      	str	r0, [r7, #4]
	extern char end asm("end");
	static char *heap_end;
	char *prev_heap_end;

	if (heap_end == 0)
 8000bcc:	4b11      	ldr	r3, [pc, #68]	; (8000c14 <_sbrk+0x50>)
 8000bce:	681b      	ldr	r3, [r3, #0]
 8000bd0:	2b00      	cmp	r3, #0
 8000bd2:	d102      	bne.n	8000bda <_sbrk+0x16>
		heap_end = &end;
 8000bd4:	4b0f      	ldr	r3, [pc, #60]	; (8000c14 <_sbrk+0x50>)
 8000bd6:	4a10      	ldr	r2, [pc, #64]	; (8000c18 <_sbrk+0x54>)
 8000bd8:	601a      	str	r2, [r3, #0]

	prev_heap_end = heap_end;
 8000bda:	4b0e      	ldr	r3, [pc, #56]	; (8000c14 <_sbrk+0x50>)
 8000bdc:	681b      	ldr	r3, [r3, #0]
 8000bde:	60fb      	str	r3, [r7, #12]
	if (heap_end + incr > stack_ptr)
 8000be0:	4b0c      	ldr	r3, [pc, #48]	; (8000c14 <_sbrk+0x50>)
 8000be2:	681a      	ldr	r2, [r3, #0]
 8000be4:	687b      	ldr	r3, [r7, #4]
 8000be6:	4413      	add	r3, r2
 8000be8:	466a      	mov	r2, sp
 8000bea:	4293      	cmp	r3, r2
 8000bec:	d907      	bls.n	8000bfe <_sbrk+0x3a>
	{
		errno = ENOMEM;
 8000bee:	f002 fb57 	bl	80032a0 <__errno>
 8000bf2:	4602      	mov	r2, r0
 8000bf4:	230c      	movs	r3, #12
 8000bf6:	6013      	str	r3, [r2, #0]
		return (caddr_t) -1;
 8000bf8:	f04f 33ff 	mov.w	r3, #4294967295
 8000bfc:	e006      	b.n	8000c0c <_sbrk+0x48>
	}

	heap_end += incr;
 8000bfe:	4b05      	ldr	r3, [pc, #20]	; (8000c14 <_sbrk+0x50>)
 8000c00:	681a      	ldr	r2, [r3, #0]
 8000c02:	687b      	ldr	r3, [r7, #4]
 8000c04:	4413      	add	r3, r2
 8000c06:	4a03      	ldr	r2, [pc, #12]	; (8000c14 <_sbrk+0x50>)
 8000c08:	6013      	str	r3, [r2, #0]

	return (caddr_t) prev_heap_end;
 8000c0a:	68fb      	ldr	r3, [r7, #12]
}
 8000c0c:	4618      	mov	r0, r3
 8000c0e:	3710      	adds	r7, #16
 8000c10:	46bd      	mov	sp, r7
 8000c12:	bd80      	pop	{r7, pc}
 8000c14:	2000008c 	.word	0x2000008c
 8000c18:	20000108 	.word	0x20000108

08000c1c <SystemInit>:
  *         configuration.
  * @param  None
  * @retval None
  */
void SystemInit(void)
{
 8000c1c:	b480      	push	{r7}
 8000c1e:	af00      	add	r7, sp, #0
  /* FPU settings ------------------------------------------------------------*/
  #if (__FPU_PRESENT == 1) && (__FPU_USED == 1)
    SCB->CPACR |= ((3UL << 10*2)|(3UL << 11*2));  /* set CP10 and CP11 Full Access */
 8000c20:	4b08      	ldr	r3, [pc, #32]	; (8000c44 <SystemInit+0x28>)
 8000c22:	f8d3 3088 	ldr.w	r3, [r3, #136]	; 0x88
 8000c26:	4a07      	ldr	r2, [pc, #28]	; (8000c44 <SystemInit+0x28>)
 8000c28:	f443 0370 	orr.w	r3, r3, #15728640	; 0xf00000
 8000c2c:	f8c2 3088 	str.w	r3, [r2, #136]	; 0x88

  /* Configure the Vector Table location add offset address ------------------*/
#ifdef VECT_TAB_SRAM
  SCB->VTOR = SRAM_BASE | VECT_TAB_OFFSET; /* Vector Table Relocation in Internal SRAM */
#else
  SCB->VTOR = FLASH_BASE | VECT_TAB_OFFSET; /* Vector Table Relocation in Internal FLASH */
 8000c30:	4b04      	ldr	r3, [pc, #16]	; (8000c44 <SystemInit+0x28>)
 8000c32:	f04f 6200 	mov.w	r2, #134217728	; 0x8000000
 8000c36:	609a      	str	r2, [r3, #8]
#endif
}
 8000c38:	bf00      	nop
 8000c3a:	46bd      	mov	sp, r7
 8000c3c:	f85d 7b04 	ldr.w	r7, [sp], #4
 8000c40:	4770      	bx	lr
 8000c42:	bf00      	nop
 8000c44:	e000ed00 	.word	0xe000ed00

08000c48 <Reset_Handler>:

    .section  .text.Reset_Handler
  .weak  Reset_Handler
  .type  Reset_Handler, %function
Reset_Handler:  
  ldr   sp, =_estack     /* set stack pointer */
 8000c48:	f8df d034 	ldr.w	sp, [pc, #52]	; 8000c80 <LoopFillZerobss+0x14>

/* Copy the data segment initializers from flash to SRAM */  
  movs  r1, #0
 8000c4c:	2100      	movs	r1, #0
  b  LoopCopyDataInit
 8000c4e:	e003      	b.n	8000c58 <LoopCopyDataInit>

08000c50 <CopyDataInit>:

CopyDataInit:
  ldr  r3, =_sidata
 8000c50:	4b0c      	ldr	r3, [pc, #48]	; (8000c84 <LoopFillZerobss+0x18>)
  ldr  r3, [r3, r1]
 8000c52:	585b      	ldr	r3, [r3, r1]
  str  r3, [r0, r1]
 8000c54:	5043      	str	r3, [r0, r1]
  adds  r1, r1, #4
 8000c56:	3104      	adds	r1, #4

08000c58 <LoopCopyDataInit>:
    
LoopCopyDataInit:
  ldr  r0, =_sdata
 8000c58:	480b      	ldr	r0, [pc, #44]	; (8000c88 <LoopFillZerobss+0x1c>)
  ldr  r3, =_edata
 8000c5a:	4b0c      	ldr	r3, [pc, #48]	; (8000c8c <LoopFillZerobss+0x20>)
  adds  r2, r0, r1
 8000c5c:	1842      	adds	r2, r0, r1
  cmp  r2, r3
 8000c5e:	429a      	cmp	r2, r3
  bcc  CopyDataInit
 8000c60:	d3f6      	bcc.n	8000c50 <CopyDataInit>
  ldr  r2, =_sbss
 8000c62:	4a0b      	ldr	r2, [pc, #44]	; (8000c90 <LoopFillZerobss+0x24>)
  b  LoopFillZerobss
 8000c64:	e002      	b.n	8000c6c <LoopFillZerobss>

08000c66 <FillZerobss>:
/* Zero fill the bss segment. */  
FillZerobss:
  movs  r3, #0
 8000c66:	2300      	movs	r3, #0
  str  r3, [r2], #4
 8000c68:	f842 3b04 	str.w	r3, [r2], #4

08000c6c <LoopFillZerobss>:
    
LoopFillZerobss:
  ldr  r3, = _ebss
 8000c6c:	4b09      	ldr	r3, [pc, #36]	; (8000c94 <LoopFillZerobss+0x28>)
  cmp  r2, r3
 8000c6e:	429a      	cmp	r2, r3
  bcc  FillZerobss
 8000c70:	d3f9      	bcc.n	8000c66 <FillZerobss>

/* Call the clock system intitialization function.*/
  bl  SystemInit   
 8000c72:	f7ff ffd3 	bl	8000c1c <SystemInit>
/* Call static constructors */
    bl __libc_init_array
 8000c76:	f002 fb19 	bl	80032ac <__libc_init_array>
/* Call the application's entry point.*/
  bl  main
 8000c7a:	f7ff fc81 	bl	8000580 <main>
  bx  lr    
 8000c7e:	4770      	bx	lr
  ldr   sp, =_estack     /* set stack pointer */
 8000c80:	20020000 	.word	0x20020000
  ldr  r3, =_sidata
 8000c84:	08003bbc 	.word	0x08003bbc
  ldr  r0, =_sdata
 8000c88:	20000000 	.word	0x20000000
  ldr  r3, =_edata
 8000c8c:	20000070 	.word	0x20000070
  ldr  r2, =_sbss
 8000c90:	20000070 	.word	0x20000070
  ldr  r3, = _ebss
 8000c94:	20000108 	.word	0x20000108

08000c98 <ADC_IRQHandler>:
 * @retval None       
*/
    .section  .text.Default_Handler,"ax",%progbits
Default_Handler:
Infinite_Loop:
  b  Infinite_Loop
 8000c98:	e7fe      	b.n	8000c98 <ADC_IRQHandler>
	...

08000c9c <HAL_Init>:
  *         need to ensure that the SysTick time base is always set to 1 millisecond
  *         to have correct HAL operation.
  * @retval HAL status
  */
HAL_StatusTypeDef HAL_Init(void)
{
 8000c9c:	b580      	push	{r7, lr}
 8000c9e:	af00      	add	r7, sp, #0
  /* Configure Flash prefetch, Instruction cache, Data cache */ 
#if (INSTRUCTION_CACHE_ENABLE != 0U)
  __HAL_FLASH_INSTRUCTION_CACHE_ENABLE();
 8000ca0:	4b0e      	ldr	r3, [pc, #56]	; (8000cdc <HAL_Init+0x40>)
 8000ca2:	681b      	ldr	r3, [r3, #0]
 8000ca4:	4a0d      	ldr	r2, [pc, #52]	; (8000cdc <HAL_Init+0x40>)
 8000ca6:	f443 7300 	orr.w	r3, r3, #512	; 0x200
 8000caa:	6013      	str	r3, [r2, #0]
#endif /* INSTRUCTION_CACHE_ENABLE */

#if (DATA_CACHE_ENABLE != 0U)
  __HAL_FLASH_DATA_CACHE_ENABLE();
 8000cac:	4b0b      	ldr	r3, [pc, #44]	; (8000cdc <HAL_Init+0x40>)
 8000cae:	681b      	ldr	r3, [r3, #0]
 8000cb0:	4a0a      	ldr	r2, [pc, #40]	; (8000cdc <HAL_Init+0x40>)
 8000cb2:	f443 6380 	orr.w	r3, r3, #1024	; 0x400
 8000cb6:	6013      	str	r3, [r2, #0]
#endif /* DATA_CACHE_ENABLE */

#if (PREFETCH_ENABLE != 0U)
  __HAL_FLASH_PREFETCH_BUFFER_ENABLE();
 8000cb8:	4b08      	ldr	r3, [pc, #32]	; (8000cdc <HAL_Init+0x40>)
 8000cba:	681b      	ldr	r3, [r3, #0]
 8000cbc:	4a07      	ldr	r2, [pc, #28]	; (8000cdc <HAL_Init+0x40>)
 8000cbe:	f443 7380 	orr.w	r3, r3, #256	; 0x100
 8000cc2:	6013      	str	r3, [r2, #0]
#endif /* PREFETCH_ENABLE */

  /* Set Interrupt Group Priority */
  HAL_NVIC_SetPriorityGrouping(NVIC_PRIORITYGROUP_4);
 8000cc4:	2003      	movs	r0, #3
 8000cc6:	f000 fd85 	bl	80017d4 <HAL_NVIC_SetPriorityGrouping>

  /* Use systick as time base source and configure 1ms tick (default clock after Reset is HSI) */
  HAL_InitTick(TICK_INT_PRIORITY);
 8000cca:	2000      	movs	r0, #0
 8000ccc:	f000 f808 	bl	8000ce0 <HAL_InitTick>

  /* Init the low level hardware */
  HAL_MspInit();
 8000cd0:	f7ff fe70 	bl	80009b4 <HAL_MspInit>

  /* Return function status */
  return HAL_OK;
 8000cd4:	2300      	movs	r3, #0
}
 8000cd6:	4618      	mov	r0, r3
 8000cd8:	bd80      	pop	{r7, pc}
 8000cda:	bf00      	nop
 8000cdc:	40023c00 	.word	0x40023c00

08000ce0 <HAL_InitTick>:
  *       implementation  in user file.
  * @param TickPriority Tick interrupt priority.
  * @retval HAL status
  */
__weak HAL_StatusTypeDef HAL_InitTick(uint32_t TickPriority)
{
 8000ce0:	b580      	push	{r7, lr}
 8000ce2:	b082      	sub	sp, #8
 8000ce4:	af00      	add	r7, sp, #0
 8000ce6:	6078      	str	r0, [r7, #4]
  /* Configure the SysTick to have interrupt in 1ms time basis*/
  if (HAL_SYSTICK_Config(SystemCoreClock / (1000U / uwTickFreq)) > 0U)
 8000ce8:	4b12      	ldr	r3, [pc, #72]	; (8000d34 <HAL_InitTick+0x54>)
 8000cea:	681a      	ldr	r2, [r3, #0]
 8000cec:	4b12      	ldr	r3, [pc, #72]	; (8000d38 <HAL_InitTick+0x58>)
 8000cee:	781b      	ldrb	r3, [r3, #0]
 8000cf0:	4619      	mov	r1, r3
 8000cf2:	f44f 737a 	mov.w	r3, #1000	; 0x3e8
 8000cf6:	fbb3 f3f1 	udiv	r3, r3, r1
 8000cfa:	fbb2 f3f3 	udiv	r3, r2, r3
 8000cfe:	4618      	mov	r0, r3
 8000d00:	f000 fd9d 	bl	800183e <HAL_SYSTICK_Config>
 8000d04:	4603      	mov	r3, r0
 8000d06:	2b00      	cmp	r3, #0
 8000d08:	d001      	beq.n	8000d0e <HAL_InitTick+0x2e>
  {
    return HAL_ERROR;
 8000d0a:	2301      	movs	r3, #1
 8000d0c:	e00e      	b.n	8000d2c <HAL_InitTick+0x4c>
  }

  /* Configure the SysTick IRQ priority */
  if (TickPriority < (1UL << __NVIC_PRIO_BITS))
 8000d0e:	687b      	ldr	r3, [r7, #4]
 8000d10:	2b0f      	cmp	r3, #15
 8000d12:	d80a      	bhi.n	8000d2a <HAL_InitTick+0x4a>
  {
    HAL_NVIC_SetPriority(SysTick_IRQn, TickPriority, 0U);
 8000d14:	2200      	movs	r2, #0
 8000d16:	6879      	ldr	r1, [r7, #4]
 8000d18:	f04f 30ff 	mov.w	r0, #4294967295
 8000d1c:	f000 fd65 	bl	80017ea <HAL_NVIC_SetPriority>
    uwTickPrio = TickPriority;
 8000d20:	4a06      	ldr	r2, [pc, #24]	; (8000d3c <HAL_InitTick+0x5c>)
 8000d22:	687b      	ldr	r3, [r7, #4]
 8000d24:	6013      	str	r3, [r2, #0]
  {
    return HAL_ERROR;
  }

  /* Return function status */
  return HAL_OK;
 8000d26:	2300      	movs	r3, #0
 8000d28:	e000      	b.n	8000d2c <HAL_InitTick+0x4c>
    return HAL_ERROR;
 8000d2a:	2301      	movs	r3, #1
}
 8000d2c:	4618      	mov	r0, r3
 8000d2e:	3708      	adds	r7, #8
 8000d30:	46bd      	mov	sp, r7
 8000d32:	bd80      	pop	{r7, pc}
 8000d34:	20000000 	.word	0x20000000
 8000d38:	20000008 	.word	0x20000008
 8000d3c:	20000004 	.word	0x20000004

08000d40 <HAL_IncTick>:
 * @note This function is declared as __weak to be overwritten in case of other 
  *      implementations in user file.
  * @retval None
  */
__weak void HAL_IncTick(void)
{
 8000d40:	b480      	push	{r7}
 8000d42:	af00      	add	r7, sp, #0
  uwTick += uwTickFreq;
 8000d44:	4b06      	ldr	r3, [pc, #24]	; (8000d60 <HAL_IncTick+0x20>)
 8000d46:	781b      	ldrb	r3, [r3, #0]
 8000d48:	461a      	mov	r2, r3
 8000d4a:	4b06      	ldr	r3, [pc, #24]	; (8000d64 <HAL_IncTick+0x24>)
 8000d4c:	681b      	ldr	r3, [r3, #0]
 8000d4e:	4413      	add	r3, r2
 8000d50:	4a04      	ldr	r2, [pc, #16]	; (8000d64 <HAL_IncTick+0x24>)
 8000d52:	6013      	str	r3, [r2, #0]
}
 8000d54:	bf00      	nop
 8000d56:	46bd      	mov	sp, r7
 8000d58:	f85d 7b04 	ldr.w	r7, [sp], #4
 8000d5c:	4770      	bx	lr
 8000d5e:	bf00      	nop
 8000d60:	20000008 	.word	0x20000008
 8000d64:	20000100 	.word	0x20000100

08000d68 <HAL_GetTick>:
  * @note This function is declared as __weak to be overwritten in case of other 
  *       implementations in user file.
  * @retval tick value
  */
__weak uint32_t HAL_GetTick(void)
{
 8000d68:	b480      	push	{r7}
 8000d6a:	af00      	add	r7, sp, #0
  return uwTick;
 8000d6c:	4b03      	ldr	r3, [pc, #12]	; (8000d7c <HAL_GetTick+0x14>)
 8000d6e:	681b      	ldr	r3, [r3, #0]
}
 8000d70:	4618      	mov	r0, r3
 8000d72:	46bd      	mov	sp, r7
 8000d74:	f85d 7b04 	ldr.w	r7, [sp], #4
 8000d78:	4770      	bx	lr
 8000d7a:	bf00      	nop
 8000d7c:	20000100 	.word	0x20000100

08000d80 <HAL_CAN_Init>:
  * @param  hcan pointer to a CAN_HandleTypeDef structure that contains
  *         the configuration information for the specified CAN.
  * @retval HAL status
  */
HAL_StatusTypeDef HAL_CAN_Init(CAN_HandleTypeDef *hcan)
{
 8000d80:	b580      	push	{r7, lr}
 8000d82:	b084      	sub	sp, #16
 8000d84:	af00      	add	r7, sp, #0
 8000d86:	6078      	str	r0, [r7, #4]
  uint32_t tickstart;

  /* Check CAN handle */
  if (hcan == NULL)
 8000d88:	687b      	ldr	r3, [r7, #4]
 8000d8a:	2b00      	cmp	r3, #0
 8000d8c:	d101      	bne.n	8000d92 <HAL_CAN_Init+0x12>
  {
    return HAL_ERROR;
 8000d8e:	2301      	movs	r3, #1
 8000d90:	e0ed      	b.n	8000f6e <HAL_CAN_Init+0x1ee>
    /* Init the low level hardware: CLOCK, NVIC */
    hcan->MspInitCallback(hcan);
  }

#else
  if (hcan->State == HAL_CAN_STATE_RESET)
 8000d92:	687b      	ldr	r3, [r7, #4]
 8000d94:	f893 3020 	ldrb.w	r3, [r3, #32]
 8000d98:	b2db      	uxtb	r3, r3
 8000d9a:	2b00      	cmp	r3, #0
 8000d9c:	d102      	bne.n	8000da4 <HAL_CAN_Init+0x24>
  {
    /* Init the low level hardware: CLOCK, NVIC */
    HAL_CAN_MspInit(hcan);
 8000d9e:	6878      	ldr	r0, [r7, #4]
 8000da0:	f7ff fe38 	bl	8000a14 <HAL_CAN_MspInit>
  }
#endif /* (USE_HAL_CAN_REGISTER_CALLBACKS) */

  /* Exit from sleep mode */
  CLEAR_BIT(hcan->Instance->MCR, CAN_MCR_SLEEP);
 8000da4:	687b      	ldr	r3, [r7, #4]
 8000da6:	681b      	ldr	r3, [r3, #0]
 8000da8:	681a      	ldr	r2, [r3, #0]
 8000daa:	687b      	ldr	r3, [r7, #4]
 8000dac:	681b      	ldr	r3, [r3, #0]
 8000dae:	f022 0202 	bic.w	r2, r2, #2
 8000db2:	601a      	str	r2, [r3, #0]

  /* Get tick */
  tickstart = HAL_GetTick();
 8000db4:	f7ff ffd8 	bl	8000d68 <HAL_GetTick>
 8000db8:	60f8      	str	r0, [r7, #12]

  /* Check Sleep mode leave acknowledge */
  while ((hcan->Instance->MSR & CAN_MSR_SLAK) != 0U)
 8000dba:	e012      	b.n	8000de2 <HAL_CAN_Init+0x62>
  {
    if ((HAL_GetTick() - tickstart) > CAN_TIMEOUT_VALUE)
 8000dbc:	f7ff ffd4 	bl	8000d68 <HAL_GetTick>
 8000dc0:	4602      	mov	r2, r0
 8000dc2:	68fb      	ldr	r3, [r7, #12]
 8000dc4:	1ad3      	subs	r3, r2, r3
 8000dc6:	2b0a      	cmp	r3, #10
 8000dc8:	d90b      	bls.n	8000de2 <HAL_CAN_Init+0x62>
    {
      /* Update error code */
      hcan->ErrorCode |= HAL_CAN_ERROR_TIMEOUT;
 8000dca:	687b      	ldr	r3, [r7, #4]
 8000dcc:	6a5b      	ldr	r3, [r3, #36]	; 0x24
 8000dce:	f443 3200 	orr.w	r2, r3, #131072	; 0x20000
 8000dd2:	687b      	ldr	r3, [r7, #4]
 8000dd4:	625a      	str	r2, [r3, #36]	; 0x24

      /* Change CAN state */
      hcan->State = HAL_CAN_STATE_ERROR;
 8000dd6:	687b      	ldr	r3, [r7, #4]
 8000dd8:	2205      	movs	r2, #5
 8000dda:	f883 2020 	strb.w	r2, [r3, #32]

      return HAL_ERROR;
 8000dde:	2301      	movs	r3, #1
 8000de0:	e0c5      	b.n	8000f6e <HAL_CAN_Init+0x1ee>
  while ((hcan->Instance->MSR & CAN_MSR_SLAK) != 0U)
 8000de2:	687b      	ldr	r3, [r7, #4]
 8000de4:	681b      	ldr	r3, [r3, #0]
 8000de6:	685b      	ldr	r3, [r3, #4]
 8000de8:	f003 0302 	and.w	r3, r3, #2
 8000dec:	2b00      	cmp	r3, #0
 8000dee:	d1e5      	bne.n	8000dbc <HAL_CAN_Init+0x3c>
    }
  }

  /* Request initialisation */
  SET_BIT(hcan->Instance->MCR, CAN_MCR_INRQ);
 8000df0:	687b      	ldr	r3, [r7, #4]
 8000df2:	681b      	ldr	r3, [r3, #0]
 8000df4:	681a      	ldr	r2, [r3, #0]
 8000df6:	687b      	ldr	r3, [r7, #4]
 8000df8:	681b      	ldr	r3, [r3, #0]
 8000dfa:	f042 0201 	orr.w	r2, r2, #1
 8000dfe:	601a      	str	r2, [r3, #0]

  /* Get tick */
  tickstart = HAL_GetTick();
 8000e00:	f7ff ffb2 	bl	8000d68 <HAL_GetTick>
 8000e04:	60f8      	str	r0, [r7, #12]

  /* Wait initialisation acknowledge */
  while ((hcan->Instance->MSR & CAN_MSR_INAK) == 0U)
 8000e06:	e012      	b.n	8000e2e <HAL_CAN_Init+0xae>
  {
    if ((HAL_GetTick() - tickstart) > CAN_TIMEOUT_VALUE)
 8000e08:	f7ff ffae 	bl	8000d68 <HAL_GetTick>
 8000e0c:	4602      	mov	r2, r0
 8000e0e:	68fb      	ldr	r3, [r7, #12]
 8000e10:	1ad3      	subs	r3, r2, r3
 8000e12:	2b0a      	cmp	r3, #10
 8000e14:	d90b      	bls.n	8000e2e <HAL_CAN_Init+0xae>
    {
      /* Update error code */
      hcan->ErrorCode |= HAL_CAN_ERROR_TIMEOUT;
 8000e16:	687b      	ldr	r3, [r7, #4]
 8000e18:	6a5b      	ldr	r3, [r3, #36]	; 0x24
 8000e1a:	f443 3200 	orr.w	r2, r3, #131072	; 0x20000
 8000e1e:	687b      	ldr	r3, [r7, #4]
 8000e20:	625a      	str	r2, [r3, #36]	; 0x24

      /* Change CAN state */
      hcan->State = HAL_CAN_STATE_ERROR;
 8000e22:	687b      	ldr	r3, [r7, #4]
 8000e24:	2205      	movs	r2, #5
 8000e26:	f883 2020 	strb.w	r2, [r3, #32]

      return HAL_ERROR;
 8000e2a:	2301      	movs	r3, #1
 8000e2c:	e09f      	b.n	8000f6e <HAL_CAN_Init+0x1ee>
  while ((hcan->Instance->MSR & CAN_MSR_INAK) == 0U)
 8000e2e:	687b      	ldr	r3, [r7, #4]
 8000e30:	681b      	ldr	r3, [r3, #0]
 8000e32:	685b      	ldr	r3, [r3, #4]
 8000e34:	f003 0301 	and.w	r3, r3, #1
 8000e38:	2b00      	cmp	r3, #0
 8000e3a:	d0e5      	beq.n	8000e08 <HAL_CAN_Init+0x88>
    }
  }

  /* Set the time triggered communication mode */
  if (hcan->Init.TimeTriggeredMode == ENABLE)
 8000e3c:	687b      	ldr	r3, [r7, #4]
 8000e3e:	7e1b      	ldrb	r3, [r3, #24]
 8000e40:	2b01      	cmp	r3, #1
 8000e42:	d108      	bne.n	8000e56 <HAL_CAN_Init+0xd6>
  {
    SET_BIT(hcan->Instance->MCR, CAN_MCR_TTCM);
 8000e44:	687b      	ldr	r3, [r7, #4]
 8000e46:	681b      	ldr	r3, [r3, #0]
 8000e48:	681a      	ldr	r2, [r3, #0]
 8000e4a:	687b      	ldr	r3, [r7, #4]
 8000e4c:	681b      	ldr	r3, [r3, #0]
 8000e4e:	f042 0280 	orr.w	r2, r2, #128	; 0x80
 8000e52:	601a      	str	r2, [r3, #0]
 8000e54:	e007      	b.n	8000e66 <HAL_CAN_Init+0xe6>
  }
  else
  {
    CLEAR_BIT(hcan->Instance->MCR, CAN_MCR_TTCM);
 8000e56:	687b      	ldr	r3, [r7, #4]
 8000e58:	681b      	ldr	r3, [r3, #0]
 8000e5a:	681a      	ldr	r2, [r3, #0]
 8000e5c:	687b      	ldr	r3, [r7, #4]
 8000e5e:	681b      	ldr	r3, [r3, #0]
 8000e60:	f022 0280 	bic.w	r2, r2, #128	; 0x80
 8000e64:	601a      	str	r2, [r3, #0]
  }

  /* Set the automatic bus-off management */
  if (hcan->Init.AutoBusOff == ENABLE)
 8000e66:	687b      	ldr	r3, [r7, #4]
 8000e68:	7e5b      	ldrb	r3, [r3, #25]
 8000e6a:	2b01      	cmp	r3, #1
 8000e6c:	d108      	bne.n	8000e80 <HAL_CAN_Init+0x100>
  {
    SET_BIT(hcan->Instance->MCR, CAN_MCR_ABOM);
 8000e6e:	687b      	ldr	r3, [r7, #4]
 8000e70:	681b      	ldr	r3, [r3, #0]
 8000e72:	681a      	ldr	r2, [r3, #0]
 8000e74:	687b      	ldr	r3, [r7, #4]
 8000e76:	681b      	ldr	r3, [r3, #0]
 8000e78:	f042 0240 	orr.w	r2, r2, #64	; 0x40
 8000e7c:	601a      	str	r2, [r3, #0]
 8000e7e:	e007      	b.n	8000e90 <HAL_CAN_Init+0x110>
  }
  else
  {
    CLEAR_BIT(hcan->Instance->MCR, CAN_MCR_ABOM);
 8000e80:	687b      	ldr	r3, [r7, #4]
 8000e82:	681b      	ldr	r3, [r3, #0]
 8000e84:	681a      	ldr	r2, [r3, #0]
 8000e86:	687b      	ldr	r3, [r7, #4]
 8000e88:	681b      	ldr	r3, [r3, #0]
 8000e8a:	f022 0240 	bic.w	r2, r2, #64	; 0x40
 8000e8e:	601a      	str	r2, [r3, #0]
  }

  /* Set the automatic wake-up mode */
  if (hcan->Init.AutoWakeUp == ENABLE)
 8000e90:	687b      	ldr	r3, [r7, #4]
 8000e92:	7e9b      	ldrb	r3, [r3, #26]
 8000e94:	2b01      	cmp	r3, #1
 8000e96:	d108      	bne.n	8000eaa <HAL_CAN_Init+0x12a>
  {
    SET_BIT(hcan->Instance->MCR, CAN_MCR_AWUM);
 8000e98:	687b      	ldr	r3, [r7, #4]
 8000e9a:	681b      	ldr	r3, [r3, #0]
 8000e9c:	681a      	ldr	r2, [r3, #0]
 8000e9e:	687b      	ldr	r3, [r7, #4]
 8000ea0:	681b      	ldr	r3, [r3, #0]
 8000ea2:	f042 0220 	orr.w	r2, r2, #32
 8000ea6:	601a      	str	r2, [r3, #0]
 8000ea8:	e007      	b.n	8000eba <HAL_CAN_Init+0x13a>
  }
  else
  {
    CLEAR_BIT(hcan->Instance->MCR, CAN_MCR_AWUM);
 8000eaa:	687b      	ldr	r3, [r7, #4]
 8000eac:	681b      	ldr	r3, [r3, #0]
 8000eae:	681a      	ldr	r2, [r3, #0]
 8000eb0:	687b      	ldr	r3, [r7, #4]
 8000eb2:	681b      	ldr	r3, [r3, #0]
 8000eb4:	f022 0220 	bic.w	r2, r2, #32
 8000eb8:	601a      	str	r2, [r3, #0]
  }

  /* Set the automatic retransmission */
  if (hcan->Init.AutoRetransmission == ENABLE)
 8000eba:	687b      	ldr	r3, [r7, #4]
 8000ebc:	7edb      	ldrb	r3, [r3, #27]
 8000ebe:	2b01      	cmp	r3, #1
 8000ec0:	d108      	bne.n	8000ed4 <HAL_CAN_Init+0x154>
  {
    CLEAR_BIT(hcan->Instance->MCR, CAN_MCR_NART);
 8000ec2:	687b      	ldr	r3, [r7, #4]
 8000ec4:	681b      	ldr	r3, [r3, #0]
 8000ec6:	681a      	ldr	r2, [r3, #0]
 8000ec8:	687b      	ldr	r3, [r7, #4]
 8000eca:	681b      	ldr	r3, [r3, #0]
 8000ecc:	f022 0210 	bic.w	r2, r2, #16
 8000ed0:	601a      	str	r2, [r3, #0]
 8000ed2:	e007      	b.n	8000ee4 <HAL_CAN_Init+0x164>
  }
  else
  {
    SET_BIT(hcan->Instance->MCR, CAN_MCR_NART);
 8000ed4:	687b      	ldr	r3, [r7, #4]
 8000ed6:	681b      	ldr	r3, [r3, #0]
 8000ed8:	681a      	ldr	r2, [r3, #0]
 8000eda:	687b      	ldr	r3, [r7, #4]
 8000edc:	681b      	ldr	r3, [r3, #0]
 8000ede:	f042 0210 	orr.w	r2, r2, #16
 8000ee2:	601a      	str	r2, [r3, #0]
  }

  /* Set the receive FIFO locked mode */
  if (hcan->Init.ReceiveFifoLocked == ENABLE)
 8000ee4:	687b      	ldr	r3, [r7, #4]
 8000ee6:	7f1b      	ldrb	r3, [r3, #28]
 8000ee8:	2b01      	cmp	r3, #1
 8000eea:	d108      	bne.n	8000efe <HAL_CAN_Init+0x17e>
  {
    SET_BIT(hcan->Instance->MCR, CAN_MCR_RFLM);
 8000eec:	687b      	ldr	r3, [r7, #4]
 8000eee:	681b      	ldr	r3, [r3, #0]
 8000ef0:	681a      	ldr	r2, [r3, #0]
 8000ef2:	687b      	ldr	r3, [r7, #4]
 8000ef4:	681b      	ldr	r3, [r3, #0]
 8000ef6:	f042 0208 	orr.w	r2, r2, #8
 8000efa:	601a      	str	r2, [r3, #0]
 8000efc:	e007      	b.n	8000f0e <HAL_CAN_Init+0x18e>
  }
  else
  {
    CLEAR_BIT(hcan->Instance->MCR, CAN_MCR_RFLM);
 8000efe:	687b      	ldr	r3, [r7, #4]
 8000f00:	681b      	ldr	r3, [r3, #0]
 8000f02:	681a      	ldr	r2, [r3, #0]
 8000f04:	687b      	ldr	r3, [r7, #4]
 8000f06:	681b      	ldr	r3, [r3, #0]
 8000f08:	f022 0208 	bic.w	r2, r2, #8
 8000f0c:	601a      	str	r2, [r3, #0]
  }

  /* Set the transmit FIFO priority */
  if (hcan->Init.TransmitFifoPriority == ENABLE)
 8000f0e:	687b      	ldr	r3, [r7, #4]
 8000f10:	7f5b      	ldrb	r3, [r3, #29]
 8000f12:	2b01      	cmp	r3, #1
 8000f14:	d108      	bne.n	8000f28 <HAL_CAN_Init+0x1a8>
  {
    SET_BIT(hcan->Instance->MCR, CAN_MCR_TXFP);
 8000f16:	687b      	ldr	r3, [r7, #4]
 8000f18:	681b      	ldr	r3, [r3, #0]
 8000f1a:	681a      	ldr	r2, [r3, #0]
 8000f1c:	687b      	ldr	r3, [r7, #4]
 8000f1e:	681b      	ldr	r3, [r3, #0]
 8000f20:	f042 0204 	orr.w	r2, r2, #4
 8000f24:	601a      	str	r2, [r3, #0]
 8000f26:	e007      	b.n	8000f38 <HAL_CAN_Init+0x1b8>
  }
  else
  {
    CLEAR_BIT(hcan->Instance->MCR, CAN_MCR_TXFP);
 8000f28:	687b      	ldr	r3, [r7, #4]
 8000f2a:	681b      	ldr	r3, [r3, #0]
 8000f2c:	681a      	ldr	r2, [r3, #0]
 8000f2e:	687b      	ldr	r3, [r7, #4]
 8000f30:	681b      	ldr	r3, [r3, #0]
 8000f32:	f022 0204 	bic.w	r2, r2, #4
 8000f36:	601a      	str	r2, [r3, #0]
  }

  /* Set the bit timing register */
  WRITE_REG(hcan->Instance->BTR, (uint32_t)(hcan->Init.Mode           |
 8000f38:	687b      	ldr	r3, [r7, #4]
 8000f3a:	689a      	ldr	r2, [r3, #8]
 8000f3c:	687b      	ldr	r3, [r7, #4]
 8000f3e:	68db      	ldr	r3, [r3, #12]
 8000f40:	431a      	orrs	r2, r3
 8000f42:	687b      	ldr	r3, [r7, #4]
 8000f44:	691b      	ldr	r3, [r3, #16]
 8000f46:	431a      	orrs	r2, r3
 8000f48:	687b      	ldr	r3, [r7, #4]
 8000f4a:	695b      	ldr	r3, [r3, #20]
 8000f4c:	ea42 0103 	orr.w	r1, r2, r3
 8000f50:	687b      	ldr	r3, [r7, #4]
 8000f52:	685b      	ldr	r3, [r3, #4]
 8000f54:	1e5a      	subs	r2, r3, #1
 8000f56:	687b      	ldr	r3, [r7, #4]
 8000f58:	681b      	ldr	r3, [r3, #0]
 8000f5a:	430a      	orrs	r2, r1
 8000f5c:	61da      	str	r2, [r3, #28]
                                            hcan->Init.TimeSeg1       |
                                            hcan->Init.TimeSeg2       |
                                            (hcan->Init.Prescaler - 1U)));

  /* Initialize the error code */
  hcan->ErrorCode = HAL_CAN_ERROR_NONE;
 8000f5e:	687b      	ldr	r3, [r7, #4]
 8000f60:	2200      	movs	r2, #0
 8000f62:	625a      	str	r2, [r3, #36]	; 0x24

  /* Initialize the CAN state */
  hcan->State = HAL_CAN_STATE_READY;
 8000f64:	687b      	ldr	r3, [r7, #4]
 8000f66:	2201      	movs	r2, #1
 8000f68:	f883 2020 	strb.w	r2, [r3, #32]

  /* Return function status */
  return HAL_OK;
 8000f6c:	2300      	movs	r3, #0
}
 8000f6e:	4618      	mov	r0, r3
 8000f70:	3710      	adds	r7, #16
 8000f72:	46bd      	mov	sp, r7
 8000f74:	bd80      	pop	{r7, pc}
	...

08000f78 <HAL_CAN_ConfigFilter>:
  * @param  sFilterConfig pointer to a CAN_FilterTypeDef structure that
  *         contains the filter configuration information.
  * @retval None
  */
HAL_StatusTypeDef HAL_CAN_ConfigFilter(CAN_HandleTypeDef *hcan, CAN_FilterTypeDef *sFilterConfig)
{
 8000f78:	b480      	push	{r7}
 8000f7a:	b087      	sub	sp, #28
 8000f7c:	af00      	add	r7, sp, #0
 8000f7e:	6078      	str	r0, [r7, #4]
 8000f80:	6039      	str	r1, [r7, #0]
  uint32_t filternbrbitpos;
  CAN_TypeDef *can_ip = hcan->Instance;
 8000f82:	687b      	ldr	r3, [r7, #4]
 8000f84:	681b      	ldr	r3, [r3, #0]
 8000f86:	617b      	str	r3, [r7, #20]
  HAL_CAN_StateTypeDef state = hcan->State;
 8000f88:	687b      	ldr	r3, [r7, #4]
 8000f8a:	f893 3020 	ldrb.w	r3, [r3, #32]
 8000f8e:	74fb      	strb	r3, [r7, #19]

  if ((state == HAL_CAN_STATE_READY) ||
 8000f90:	7cfb      	ldrb	r3, [r7, #19]
 8000f92:	2b01      	cmp	r3, #1
 8000f94:	d003      	beq.n	8000f9e <HAL_CAN_ConfigFilter+0x26>
 8000f96:	7cfb      	ldrb	r3, [r7, #19]
 8000f98:	2b02      	cmp	r3, #2
 8000f9a:	f040 80be 	bne.w	800111a <HAL_CAN_ConfigFilter+0x1a2>
      assert_param(IS_CAN_FILTER_BANK_DUAL(sFilterConfig->SlaveStartFilterBank));
    }
#elif defined(CAN2)
    /* CAN1 and CAN2 are dual instances with 28 common filters banks */
    /* Select master instance to access the filter banks */
    can_ip = CAN1;
 8000f9e:	4b65      	ldr	r3, [pc, #404]	; (8001134 <HAL_CAN_ConfigFilter+0x1bc>)
 8000fa0:	617b      	str	r3, [r7, #20]
    /* Check the parameters */
    assert_param(IS_CAN_FILTER_BANK_SINGLE(sFilterConfig->FilterBank));
#endif

    /* Initialisation mode for the filter */
    SET_BIT(can_ip->FMR, CAN_FMR_FINIT);
 8000fa2:	697b      	ldr	r3, [r7, #20]
 8000fa4:	f8d3 3200 	ldr.w	r3, [r3, #512]	; 0x200
 8000fa8:	f043 0201 	orr.w	r2, r3, #1
 8000fac:	697b      	ldr	r3, [r7, #20]
 8000fae:	f8c3 2200 	str.w	r2, [r3, #512]	; 0x200
      SET_BIT(can_ip->FMR, sFilterConfig->SlaveStartFilterBank << CAN_FMR_CAN2SB_Pos);
    }

#elif defined(CAN2)
    /* Select the start filter number of CAN2 slave instance */
    CLEAR_BIT(can_ip->FMR, CAN_FMR_CAN2SB);
 8000fb2:	697b      	ldr	r3, [r7, #20]
 8000fb4:	f8d3 3200 	ldr.w	r3, [r3, #512]	; 0x200
 8000fb8:	f423 527c 	bic.w	r2, r3, #16128	; 0x3f00
 8000fbc:	697b      	ldr	r3, [r7, #20]
 8000fbe:	f8c3 2200 	str.w	r2, [r3, #512]	; 0x200
    SET_BIT(can_ip->FMR, sFilterConfig->SlaveStartFilterBank << CAN_FMR_CAN2SB_Pos);
 8000fc2:	697b      	ldr	r3, [r7, #20]
 8000fc4:	f8d3 2200 	ldr.w	r2, [r3, #512]	; 0x200
 8000fc8:	683b      	ldr	r3, [r7, #0]
 8000fca:	6a5b      	ldr	r3, [r3, #36]	; 0x24
 8000fcc:	021b      	lsls	r3, r3, #8
 8000fce:	431a      	orrs	r2, r3
 8000fd0:	697b      	ldr	r3, [r7, #20]
 8000fd2:	f8c3 2200 	str.w	r2, [r3, #512]	; 0x200

#endif
    /* Convert filter number into bit position */
    filternbrbitpos = (uint32_t)1 << (sFilterConfig->FilterBank & 0x1FU);
 8000fd6:	683b      	ldr	r3, [r7, #0]
 8000fd8:	695b      	ldr	r3, [r3, #20]
 8000fda:	f003 031f 	and.w	r3, r3, #31
 8000fde:	2201      	movs	r2, #1
 8000fe0:	fa02 f303 	lsl.w	r3, r2, r3
 8000fe4:	60fb      	str	r3, [r7, #12]

    /* Filter Deactivation */
    CLEAR_BIT(can_ip->FA1R, filternbrbitpos);
 8000fe6:	697b      	ldr	r3, [r7, #20]
 8000fe8:	f8d3 221c 	ldr.w	r2, [r3, #540]	; 0x21c
 8000fec:	68fb      	ldr	r3, [r7, #12]
 8000fee:	43db      	mvns	r3, r3
 8000ff0:	401a      	ands	r2, r3
 8000ff2:	697b      	ldr	r3, [r7, #20]
 8000ff4:	f8c3 221c 	str.w	r2, [r3, #540]	; 0x21c

    /* Filter Scale */
    if (sFilterConfig->FilterScale == CAN_FILTERSCALE_16BIT)
 8000ff8:	683b      	ldr	r3, [r7, #0]
 8000ffa:	69db      	ldr	r3, [r3, #28]
 8000ffc:	2b00      	cmp	r3, #0
 8000ffe:	d123      	bne.n	8001048 <HAL_CAN_ConfigFilter+0xd0>
    {
      /* 16-bit scale for the filter */
      CLEAR_BIT(can_ip->FS1R, filternbrbitpos);
 8001000:	697b      	ldr	r3, [r7, #20]
 8001002:	f8d3 220c 	ldr.w	r2, [r3, #524]	; 0x20c
 8001006:	68fb      	ldr	r3, [r7, #12]
 8001008:	43db      	mvns	r3, r3
 800100a:	401a      	ands	r2, r3
 800100c:	697b      	ldr	r3, [r7, #20]
 800100e:	f8c3 220c 	str.w	r2, [r3, #524]	; 0x20c

      /* First 16-bit identifier and First 16-bit mask */
      /* Or First 16-bit identifier and Second 16-bit identifier */
      can_ip->sFilterRegister[sFilterConfig->FilterBank].FR1 =
        ((0x0000FFFFU & (uint32_t)sFilterConfig->FilterMaskIdLow) << 16U) |
 8001012:	683b      	ldr	r3, [r7, #0]
 8001014:	68db      	ldr	r3, [r3, #12]
 8001016:	0419      	lsls	r1, r3, #16
        (0x0000FFFFU & (uint32_t)sFilterConfig->FilterIdLow);
 8001018:	683b      	ldr	r3, [r7, #0]
 800101a:	685b      	ldr	r3, [r3, #4]
 800101c:	b29b      	uxth	r3, r3
      can_ip->sFilterRegister[sFilterConfig->FilterBank].FR1 =
 800101e:	683a      	ldr	r2, [r7, #0]
 8001020:	6952      	ldr	r2, [r2, #20]
        ((0x0000FFFFU & (uint32_t)sFilterConfig->FilterMaskIdLow) << 16U) |
 8001022:	4319      	orrs	r1, r3
      can_ip->sFilterRegister[sFilterConfig->FilterBank].FR1 =
 8001024:	697b      	ldr	r3, [r7, #20]
 8001026:	3248      	adds	r2, #72	; 0x48
 8001028:	f843 1032 	str.w	r1, [r3, r2, lsl #3]

      /* Second 16-bit identifier and Second 16-bit mask */
      /* Or Third 16-bit identifier and Fourth 16-bit identifier */
      can_ip->sFilterRegister[sFilterConfig->FilterBank].FR2 =
        ((0x0000FFFFU & (uint32_t)sFilterConfig->FilterMaskIdHigh) << 16U) |
 800102c:	683b      	ldr	r3, [r7, #0]
 800102e:	689b      	ldr	r3, [r3, #8]
 8001030:	0419      	lsls	r1, r3, #16
        (0x0000FFFFU & (uint32_t)sFilterConfig->FilterIdHigh);
 8001032:	683b      	ldr	r3, [r7, #0]
 8001034:	681b      	ldr	r3, [r3, #0]
 8001036:	b29a      	uxth	r2, r3
      can_ip->sFilterRegister[sFilterConfig->FilterBank].FR2 =
 8001038:	683b      	ldr	r3, [r7, #0]
 800103a:	695b      	ldr	r3, [r3, #20]
        ((0x0000FFFFU & (uint32_t)sFilterConfig->FilterMaskIdHigh) << 16U) |
 800103c:	430a      	orrs	r2, r1
      can_ip->sFilterRegister[sFilterConfig->FilterBank].FR2 =
 800103e:	6979      	ldr	r1, [r7, #20]
 8001040:	3348      	adds	r3, #72	; 0x48
 8001042:	00db      	lsls	r3, r3, #3
 8001044:	440b      	add	r3, r1
 8001046:	605a      	str	r2, [r3, #4]
    }

    if (sFilterConfig->FilterScale == CAN_FILTERSCALE_32BIT)
 8001048:	683b      	ldr	r3, [r7, #0]
 800104a:	69db      	ldr	r3, [r3, #28]
 800104c:	2b01      	cmp	r3, #1
 800104e:	d122      	bne.n	8001096 <HAL_CAN_ConfigFilter+0x11e>
    {
      /* 32-bit scale for the filter */
      SET_BIT(can_ip->FS1R, filternbrbitpos);
 8001050:	697b      	ldr	r3, [r7, #20]
 8001052:	f8d3 220c 	ldr.w	r2, [r3, #524]	; 0x20c
 8001056:	68fb      	ldr	r3, [r7, #12]
 8001058:	431a      	orrs	r2, r3
 800105a:	697b      	ldr	r3, [r7, #20]
 800105c:	f8c3 220c 	str.w	r2, [r3, #524]	; 0x20c

      /* 32-bit identifier or First 32-bit identifier */
      can_ip->sFilterRegister[sFilterConfig->FilterBank].FR1 =
        ((0x0000FFFFU & (uint32_t)sFilterConfig->FilterIdHigh) << 16U) |
 8001060:	683b      	ldr	r3, [r7, #0]
 8001062:	681b      	ldr	r3, [r3, #0]
 8001064:	0419      	lsls	r1, r3, #16
        (0x0000FFFFU & (uint32_t)sFilterConfig->FilterIdLow);
 8001066:	683b      	ldr	r3, [r7, #0]
 8001068:	685b      	ldr	r3, [r3, #4]
 800106a:	b29b      	uxth	r3, r3
      can_ip->sFilterRegister[sFilterConfig->FilterBank].FR1 =
 800106c:	683a      	ldr	r2, [r7, #0]
 800106e:	6952      	ldr	r2, [r2, #20]
        ((0x0000FFFFU & (uint32_t)sFilterConfig->FilterIdHigh) << 16U) |
 8001070:	4319      	orrs	r1, r3
      can_ip->sFilterRegister[sFilterConfig->FilterBank].FR1 =
 8001072:	697b      	ldr	r3, [r7, #20]
 8001074:	3248      	adds	r2, #72	; 0x48
 8001076:	f843 1032 	str.w	r1, [r3, r2, lsl #3]

      /* 32-bit mask or Second 32-bit identifier */
      can_ip->sFilterRegister[sFilterConfig->FilterBank].FR2 =
        ((0x0000FFFFU & (uint32_t)sFilterConfig->FilterMaskIdHigh) << 16U) |
 800107a:	683b      	ldr	r3, [r7, #0]
 800107c:	689b      	ldr	r3, [r3, #8]
 800107e:	0419      	lsls	r1, r3, #16
        (0x0000FFFFU & (uint32_t)sFilterConfig->FilterMaskIdLow);
 8001080:	683b      	ldr	r3, [r7, #0]
 8001082:	68db      	ldr	r3, [r3, #12]
 8001084:	b29a      	uxth	r2, r3
      can_ip->sFilterRegister[sFilterConfig->FilterBank].FR2 =
 8001086:	683b      	ldr	r3, [r7, #0]
 8001088:	695b      	ldr	r3, [r3, #20]
        ((0x0000FFFFU & (uint32_t)sFilterConfig->FilterMaskIdHigh) << 16U) |
 800108a:	430a      	orrs	r2, r1
      can_ip->sFilterRegister[sFilterConfig->FilterBank].FR2 =
 800108c:	6979      	ldr	r1, [r7, #20]
 800108e:	3348      	adds	r3, #72	; 0x48
 8001090:	00db      	lsls	r3, r3, #3
 8001092:	440b      	add	r3, r1
 8001094:	605a      	str	r2, [r3, #4]
    }

    /* Filter Mode */
    if (sFilterConfig->FilterMode == CAN_FILTERMODE_IDMASK)
 8001096:	683b      	ldr	r3, [r7, #0]
 8001098:	699b      	ldr	r3, [r3, #24]
 800109a:	2b00      	cmp	r3, #0
 800109c:	d109      	bne.n	80010b2 <HAL_CAN_ConfigFilter+0x13a>
    {
      /* Id/Mask mode for the filter*/
      CLEAR_BIT(can_ip->FM1R, filternbrbitpos);
 800109e:	697b      	ldr	r3, [r7, #20]
 80010a0:	f8d3 2204 	ldr.w	r2, [r3, #516]	; 0x204
 80010a4:	68fb      	ldr	r3, [r7, #12]
 80010a6:	43db      	mvns	r3, r3
 80010a8:	401a      	ands	r2, r3
 80010aa:	697b      	ldr	r3, [r7, #20]
 80010ac:	f8c3 2204 	str.w	r2, [r3, #516]	; 0x204
 80010b0:	e007      	b.n	80010c2 <HAL_CAN_ConfigFilter+0x14a>
    }
    else /* CAN_FilterInitStruct->CAN_FilterMode == CAN_FilterMode_IdList */
    {
      /* Identifier list mode for the filter*/
      SET_BIT(can_ip->FM1R, filternbrbitpos);
 80010b2:	697b      	ldr	r3, [r7, #20]
 80010b4:	f8d3 2204 	ldr.w	r2, [r3, #516]	; 0x204
 80010b8:	68fb      	ldr	r3, [r7, #12]
 80010ba:	431a      	orrs	r2, r3
 80010bc:	697b      	ldr	r3, [r7, #20]
 80010be:	f8c3 2204 	str.w	r2, [r3, #516]	; 0x204
    }

    /* Filter FIFO assignment */
    if (sFilterConfig->FilterFIFOAssignment == CAN_FILTER_FIFO0)
 80010c2:	683b      	ldr	r3, [r7, #0]
 80010c4:	691b      	ldr	r3, [r3, #16]
 80010c6:	2b00      	cmp	r3, #0
 80010c8:	d109      	bne.n	80010de <HAL_CAN_ConfigFilter+0x166>
    {
      /* FIFO 0 assignation for the filter */
      CLEAR_BIT(can_ip->FFA1R, filternbrbitpos);
 80010ca:	697b      	ldr	r3, [r7, #20]
 80010cc:	f8d3 2214 	ldr.w	r2, [r3, #532]	; 0x214
 80010d0:	68fb      	ldr	r3, [r7, #12]
 80010d2:	43db      	mvns	r3, r3
 80010d4:	401a      	ands	r2, r3
 80010d6:	697b      	ldr	r3, [r7, #20]
 80010d8:	f8c3 2214 	str.w	r2, [r3, #532]	; 0x214
 80010dc:	e007      	b.n	80010ee <HAL_CAN_ConfigFilter+0x176>
    }
    else
    {
      /* FIFO 1 assignation for the filter */
      SET_BIT(can_ip->FFA1R, filternbrbitpos);
 80010de:	697b      	ldr	r3, [r7, #20]
 80010e0:	f8d3 2214 	ldr.w	r2, [r3, #532]	; 0x214
 80010e4:	68fb      	ldr	r3, [r7, #12]
 80010e6:	431a      	orrs	r2, r3
 80010e8:	697b      	ldr	r3, [r7, #20]
 80010ea:	f8c3 2214 	str.w	r2, [r3, #532]	; 0x214
    }

    /* Filter activation */
    if (sFilterConfig->FilterActivation == CAN_FILTER_ENABLE)
 80010ee:	683b      	ldr	r3, [r7, #0]
 80010f0:	6a1b      	ldr	r3, [r3, #32]
 80010f2:	2b01      	cmp	r3, #1
 80010f4:	d107      	bne.n	8001106 <HAL_CAN_ConfigFilter+0x18e>
    {
      SET_BIT(can_ip->FA1R, filternbrbitpos);
 80010f6:	697b      	ldr	r3, [r7, #20]
 80010f8:	f8d3 221c 	ldr.w	r2, [r3, #540]	; 0x21c
 80010fc:	68fb      	ldr	r3, [r7, #12]
 80010fe:	431a      	orrs	r2, r3
 8001100:	697b      	ldr	r3, [r7, #20]
 8001102:	f8c3 221c 	str.w	r2, [r3, #540]	; 0x21c
    }

    /* Leave the initialisation mode for the filter */
    CLEAR_BIT(can_ip->FMR, CAN_FMR_FINIT);
 8001106:	697b      	ldr	r3, [r7, #20]
 8001108:	f8d3 3200 	ldr.w	r3, [r3, #512]	; 0x200
 800110c:	f023 0201 	bic.w	r2, r3, #1
 8001110:	697b      	ldr	r3, [r7, #20]
 8001112:	f8c3 2200 	str.w	r2, [r3, #512]	; 0x200

    /* Return function status */
    return HAL_OK;
 8001116:	2300      	movs	r3, #0
 8001118:	e006      	b.n	8001128 <HAL_CAN_ConfigFilter+0x1b0>
  }
  else
  {
    /* Update error code */
    hcan->ErrorCode |= HAL_CAN_ERROR_NOT_INITIALIZED;
 800111a:	687b      	ldr	r3, [r7, #4]
 800111c:	6a5b      	ldr	r3, [r3, #36]	; 0x24
 800111e:	f443 2280 	orr.w	r2, r3, #262144	; 0x40000
 8001122:	687b      	ldr	r3, [r7, #4]
 8001124:	625a      	str	r2, [r3, #36]	; 0x24

    return HAL_ERROR;
 8001126:	2301      	movs	r3, #1
  }
}
 8001128:	4618      	mov	r0, r3
 800112a:	371c      	adds	r7, #28
 800112c:	46bd      	mov	sp, r7
 800112e:	f85d 7b04 	ldr.w	r7, [sp], #4
 8001132:	4770      	bx	lr
 8001134:	40006400 	.word	0x40006400

08001138 <HAL_CAN_Start>:
  * @param  hcan pointer to an CAN_HandleTypeDef structure that contains
  *         the configuration information for the specified CAN.
  * @retval HAL status
  */
HAL_StatusTypeDef HAL_CAN_Start(CAN_HandleTypeDef *hcan)
{
 8001138:	b580      	push	{r7, lr}
 800113a:	b084      	sub	sp, #16
 800113c:	af00      	add	r7, sp, #0
 800113e:	6078      	str	r0, [r7, #4]
  uint32_t tickstart;

  if (hcan->State == HAL_CAN_STATE_READY)
 8001140:	687b      	ldr	r3, [r7, #4]
 8001142:	f893 3020 	ldrb.w	r3, [r3, #32]
 8001146:	b2db      	uxtb	r3, r3
 8001148:	2b01      	cmp	r3, #1
 800114a:	d12e      	bne.n	80011aa <HAL_CAN_Start+0x72>
  {
    /* Change CAN peripheral state */
    hcan->State = HAL_CAN_STATE_LISTENING;
 800114c:	687b      	ldr	r3, [r7, #4]
 800114e:	2202      	movs	r2, #2
 8001150:	f883 2020 	strb.w	r2, [r3, #32]

    /* Request leave initialisation */
    CLEAR_BIT(hcan->Instance->MCR, CAN_MCR_INRQ);
 8001154:	687b      	ldr	r3, [r7, #4]
 8001156:	681b      	ldr	r3, [r3, #0]
 8001158:	681a      	ldr	r2, [r3, #0]
 800115a:	687b      	ldr	r3, [r7, #4]
 800115c:	681b      	ldr	r3, [r3, #0]
 800115e:	f022 0201 	bic.w	r2, r2, #1
 8001162:	601a      	str	r2, [r3, #0]

    /* Get tick */
    tickstart = HAL_GetTick();
 8001164:	f7ff fe00 	bl	8000d68 <HAL_GetTick>
 8001168:	60f8      	str	r0, [r7, #12]

    /* Wait the acknowledge */
    while ((hcan->Instance->MSR & CAN_MSR_INAK) != 0U)
 800116a:	e012      	b.n	8001192 <HAL_CAN_Start+0x5a>
    {
      /* Check for the Timeout */
      if ((HAL_GetTick() - tickstart) > CAN_TIMEOUT_VALUE)
 800116c:	f7ff fdfc 	bl	8000d68 <HAL_GetTick>
 8001170:	4602      	mov	r2, r0
 8001172:	68fb      	ldr	r3, [r7, #12]
 8001174:	1ad3      	subs	r3, r2, r3
 8001176:	2b0a      	cmp	r3, #10
 8001178:	d90b      	bls.n	8001192 <HAL_CAN_Start+0x5a>
      {
        /* Update error code */
        hcan->ErrorCode |= HAL_CAN_ERROR_TIMEOUT;
 800117a:	687b      	ldr	r3, [r7, #4]
 800117c:	6a5b      	ldr	r3, [r3, #36]	; 0x24
 800117e:	f443 3200 	orr.w	r2, r3, #131072	; 0x20000
 8001182:	687b      	ldr	r3, [r7, #4]
 8001184:	625a      	str	r2, [r3, #36]	; 0x24

        /* Change CAN state */
        hcan->State = HAL_CAN_STATE_ERROR;
 8001186:	687b      	ldr	r3, [r7, #4]
 8001188:	2205      	movs	r2, #5
 800118a:	f883 2020 	strb.w	r2, [r3, #32]

        return HAL_ERROR;
 800118e:	2301      	movs	r3, #1
 8001190:	e012      	b.n	80011b8 <HAL_CAN_Start+0x80>
    while ((hcan->Instance->MSR & CAN_MSR_INAK) != 0U)
 8001192:	687b      	ldr	r3, [r7, #4]
 8001194:	681b      	ldr	r3, [r3, #0]
 8001196:	685b      	ldr	r3, [r3, #4]
 8001198:	f003 0301 	and.w	r3, r3, #1
 800119c:	2b00      	cmp	r3, #0
 800119e:	d1e5      	bne.n	800116c <HAL_CAN_Start+0x34>
      }
    }

    /* Reset the CAN ErrorCode */
    hcan->ErrorCode = HAL_CAN_ERROR_NONE;
 80011a0:	687b      	ldr	r3, [r7, #4]
 80011a2:	2200      	movs	r2, #0
 80011a4:	625a      	str	r2, [r3, #36]	; 0x24

    /* Return function status */
    return HAL_OK;
 80011a6:	2300      	movs	r3, #0
 80011a8:	e006      	b.n	80011b8 <HAL_CAN_Start+0x80>
  }
  else
  {
    /* Update error code */
    hcan->ErrorCode |= HAL_CAN_ERROR_NOT_READY;
 80011aa:	687b      	ldr	r3, [r7, #4]
 80011ac:	6a5b      	ldr	r3, [r3, #36]	; 0x24
 80011ae:	f443 2200 	orr.w	r2, r3, #524288	; 0x80000
 80011b2:	687b      	ldr	r3, [r7, #4]
 80011b4:	625a      	str	r2, [r3, #36]	; 0x24

    return HAL_ERROR;
 80011b6:	2301      	movs	r3, #1
  }
}
 80011b8:	4618      	mov	r0, r3
 80011ba:	3710      	adds	r7, #16
 80011bc:	46bd      	mov	sp, r7
 80011be:	bd80      	pop	{r7, pc}

080011c0 <HAL_CAN_AddTxMessage>:
  *         the TxMailbox used to store the Tx message.
  *         This parameter can be a value of @arg CAN_Tx_Mailboxes.
  * @retval HAL status
  */
HAL_StatusTypeDef HAL_CAN_AddTxMessage(CAN_HandleTypeDef *hcan, CAN_TxHeaderTypeDef *pHeader, uint8_t aData[], uint32_t *pTxMailbox)
{
 80011c0:	b480      	push	{r7}
 80011c2:	b089      	sub	sp, #36	; 0x24
 80011c4:	af00      	add	r7, sp, #0
 80011c6:	60f8      	str	r0, [r7, #12]
 80011c8:	60b9      	str	r1, [r7, #8]
 80011ca:	607a      	str	r2, [r7, #4]
 80011cc:	603b      	str	r3, [r7, #0]
  uint32_t transmitmailbox;
  HAL_CAN_StateTypeDef state = hcan->State;
 80011ce:	68fb      	ldr	r3, [r7, #12]
 80011d0:	f893 3020 	ldrb.w	r3, [r3, #32]
 80011d4:	77fb      	strb	r3, [r7, #31]
  uint32_t tsr = READ_REG(hcan->Instance->TSR);
 80011d6:	68fb      	ldr	r3, [r7, #12]
 80011d8:	681b      	ldr	r3, [r3, #0]
 80011da:	689b      	ldr	r3, [r3, #8]
 80011dc:	61bb      	str	r3, [r7, #24]
  {
    assert_param(IS_CAN_EXTID(pHeader->ExtId));
  }
  assert_param(IS_FUNCTIONAL_STATE(pHeader->TransmitGlobalTime));

  if ((state == HAL_CAN_STATE_READY) ||
 80011de:	7ffb      	ldrb	r3, [r7, #31]
 80011e0:	2b01      	cmp	r3, #1
 80011e2:	d003      	beq.n	80011ec <HAL_CAN_AddTxMessage+0x2c>
 80011e4:	7ffb      	ldrb	r3, [r7, #31]
 80011e6:	2b02      	cmp	r3, #2
 80011e8:	f040 80b8 	bne.w	800135c <HAL_CAN_AddTxMessage+0x19c>
      (state == HAL_CAN_STATE_LISTENING))
  {
    /* Check that all the Tx mailboxes are not full */
    if (((tsr & CAN_TSR_TME0) != 0U) ||
 80011ec:	69bb      	ldr	r3, [r7, #24]
 80011ee:	f003 6380 	and.w	r3, r3, #67108864	; 0x4000000
 80011f2:	2b00      	cmp	r3, #0
 80011f4:	d10a      	bne.n	800120c <HAL_CAN_AddTxMessage+0x4c>
        ((tsr & CAN_TSR_TME1) != 0U) ||
 80011f6:	69bb      	ldr	r3, [r7, #24]
 80011f8:	f003 6300 	and.w	r3, r3, #134217728	; 0x8000000
    if (((tsr & CAN_TSR_TME0) != 0U) ||
 80011fc:	2b00      	cmp	r3, #0
 80011fe:	d105      	bne.n	800120c <HAL_CAN_AddTxMessage+0x4c>
        ((tsr & CAN_TSR_TME2) != 0U))
 8001200:	69bb      	ldr	r3, [r7, #24]
 8001202:	f003 5380 	and.w	r3, r3, #268435456	; 0x10000000
        ((tsr & CAN_TSR_TME1) != 0U) ||
 8001206:	2b00      	cmp	r3, #0
 8001208:	f000 80a0 	beq.w	800134c <HAL_CAN_AddTxMessage+0x18c>
    {
      /* Select an empty transmit mailbox */
      transmitmailbox = (tsr & CAN_TSR_CODE) >> CAN_TSR_CODE_Pos;
 800120c:	69bb      	ldr	r3, [r7, #24]
 800120e:	0e1b      	lsrs	r3, r3, #24
 8001210:	f003 0303 	and.w	r3, r3, #3
 8001214:	617b      	str	r3, [r7, #20]

      /* Check transmit mailbox value */
      if (transmitmailbox > 2U)
 8001216:	697b      	ldr	r3, [r7, #20]
 8001218:	2b02      	cmp	r3, #2
 800121a:	d907      	bls.n	800122c <HAL_CAN_AddTxMessage+0x6c>
      {
        /* Update error code */
        hcan->ErrorCode |= HAL_CAN_ERROR_INTERNAL;
 800121c:	68fb      	ldr	r3, [r7, #12]
 800121e:	6a5b      	ldr	r3, [r3, #36]	; 0x24
 8001220:	f443 0200 	orr.w	r2, r3, #8388608	; 0x800000
 8001224:	68fb      	ldr	r3, [r7, #12]
 8001226:	625a      	str	r2, [r3, #36]	; 0x24

        return HAL_ERROR;
 8001228:	2301      	movs	r3, #1
 800122a:	e09e      	b.n	800136a <HAL_CAN_AddTxMessage+0x1aa>
      }

      /* Store the Tx mailbox */
      *pTxMailbox = (uint32_t)1 << transmitmailbox;
 800122c:	2201      	movs	r2, #1
 800122e:	697b      	ldr	r3, [r7, #20]
 8001230:	409a      	lsls	r2, r3
 8001232:	683b      	ldr	r3, [r7, #0]
 8001234:	601a      	str	r2, [r3, #0]

      /* Set up the Id */
      if (pHeader->IDE == CAN_ID_STD)
 8001236:	68bb      	ldr	r3, [r7, #8]
 8001238:	689b      	ldr	r3, [r3, #8]
 800123a:	2b00      	cmp	r3, #0
 800123c:	d10d      	bne.n	800125a <HAL_CAN_AddTxMessage+0x9a>
      {
        hcan->Instance->sTxMailBox[transmitmailbox].TIR = ((pHeader->StdId << CAN_TI0R_STID_Pos) |
 800123e:	68bb      	ldr	r3, [r7, #8]
 8001240:	681b      	ldr	r3, [r3, #0]
 8001242:	055a      	lsls	r2, r3, #21
                                                           pHeader->RTR);
 8001244:	68bb      	ldr	r3, [r7, #8]
 8001246:	68db      	ldr	r3, [r3, #12]
        hcan->Instance->sTxMailBox[transmitmailbox].TIR = ((pHeader->StdId << CAN_TI0R_STID_Pos) |
 8001248:	68f9      	ldr	r1, [r7, #12]
 800124a:	6809      	ldr	r1, [r1, #0]
 800124c:	431a      	orrs	r2, r3
 800124e:	697b      	ldr	r3, [r7, #20]
 8001250:	3318      	adds	r3, #24
 8001252:	011b      	lsls	r3, r3, #4
 8001254:	440b      	add	r3, r1
 8001256:	601a      	str	r2, [r3, #0]
 8001258:	e00f      	b.n	800127a <HAL_CAN_AddTxMessage+0xba>
      }
      else
      {
        hcan->Instance->sTxMailBox[transmitmailbox].TIR = ((pHeader->ExtId << CAN_TI0R_EXID_Pos) |
 800125a:	68bb      	ldr	r3, [r7, #8]
 800125c:	685b      	ldr	r3, [r3, #4]
 800125e:	00da      	lsls	r2, r3, #3
                                                           pHeader->IDE |
 8001260:	68bb      	ldr	r3, [r7, #8]
 8001262:	689b      	ldr	r3, [r3, #8]
        hcan->Instance->sTxMailBox[transmitmailbox].TIR = ((pHeader->ExtId << CAN_TI0R_EXID_Pos) |
 8001264:	431a      	orrs	r2, r3
                                                           pHeader->RTR);
 8001266:	68bb      	ldr	r3, [r7, #8]
 8001268:	68db      	ldr	r3, [r3, #12]
        hcan->Instance->sTxMailBox[transmitmailbox].TIR = ((pHeader->ExtId << CAN_TI0R_EXID_Pos) |
 800126a:	68f9      	ldr	r1, [r7, #12]
 800126c:	6809      	ldr	r1, [r1, #0]
                                                           pHeader->IDE |
 800126e:	431a      	orrs	r2, r3
        hcan->Instance->sTxMailBox[transmitmailbox].TIR = ((pHeader->ExtId << CAN_TI0R_EXID_Pos) |
 8001270:	697b      	ldr	r3, [r7, #20]
 8001272:	3318      	adds	r3, #24
 8001274:	011b      	lsls	r3, r3, #4
 8001276:	440b      	add	r3, r1
 8001278:	601a      	str	r2, [r3, #0]
      }

      /* Set up the DLC */
      hcan->Instance->sTxMailBox[transmitmailbox].TDTR = (pHeader->DLC);
 800127a:	68fb      	ldr	r3, [r7, #12]
 800127c:	6819      	ldr	r1, [r3, #0]
 800127e:	68bb      	ldr	r3, [r7, #8]
 8001280:	691a      	ldr	r2, [r3, #16]
 8001282:	697b      	ldr	r3, [r7, #20]
 8001284:	3318      	adds	r3, #24
 8001286:	011b      	lsls	r3, r3, #4
 8001288:	440b      	add	r3, r1
 800128a:	3304      	adds	r3, #4
 800128c:	601a      	str	r2, [r3, #0]

      /* Set up the Transmit Global Time mode */
      if (pHeader->TransmitGlobalTime == ENABLE)
 800128e:	68bb      	ldr	r3, [r7, #8]
 8001290:	7d1b      	ldrb	r3, [r3, #20]
 8001292:	2b01      	cmp	r3, #1
 8001294:	d111      	bne.n	80012ba <HAL_CAN_AddTxMessage+0xfa>
      {
        SET_BIT(hcan->Instance->sTxMailBox[transmitmailbox].TDTR, CAN_TDT0R_TGT);
 8001296:	68fb      	ldr	r3, [r7, #12]
 8001298:	681a      	ldr	r2, [r3, #0]
 800129a:	697b      	ldr	r3, [r7, #20]
 800129c:	3318      	adds	r3, #24
 800129e:	011b      	lsls	r3, r3, #4
 80012a0:	4413      	add	r3, r2
 80012a2:	3304      	adds	r3, #4
 80012a4:	681b      	ldr	r3, [r3, #0]
 80012a6:	68fa      	ldr	r2, [r7, #12]
 80012a8:	6811      	ldr	r1, [r2, #0]
 80012aa:	f443 7280 	orr.w	r2, r3, #256	; 0x100
 80012ae:	697b      	ldr	r3, [r7, #20]
 80012b0:	3318      	adds	r3, #24
 80012b2:	011b      	lsls	r3, r3, #4
 80012b4:	440b      	add	r3, r1
 80012b6:	3304      	adds	r3, #4
 80012b8:	601a      	str	r2, [r3, #0]
      }

      /* Set up the data field */
      WRITE_REG(hcan->Instance->sTxMailBox[transmitmailbox].TDHR,
 80012ba:	687b      	ldr	r3, [r7, #4]
 80012bc:	3307      	adds	r3, #7
 80012be:	781b      	ldrb	r3, [r3, #0]
 80012c0:	061a      	lsls	r2, r3, #24
 80012c2:	687b      	ldr	r3, [r7, #4]
 80012c4:	3306      	adds	r3, #6
 80012c6:	781b      	ldrb	r3, [r3, #0]
 80012c8:	041b      	lsls	r3, r3, #16
 80012ca:	431a      	orrs	r2, r3
 80012cc:	687b      	ldr	r3, [r7, #4]
 80012ce:	3305      	adds	r3, #5
 80012d0:	781b      	ldrb	r3, [r3, #0]
 80012d2:	021b      	lsls	r3, r3, #8
 80012d4:	4313      	orrs	r3, r2
 80012d6:	687a      	ldr	r2, [r7, #4]
 80012d8:	3204      	adds	r2, #4
 80012da:	7812      	ldrb	r2, [r2, #0]
 80012dc:	4610      	mov	r0, r2
 80012de:	68fa      	ldr	r2, [r7, #12]
 80012e0:	6811      	ldr	r1, [r2, #0]
 80012e2:	ea43 0200 	orr.w	r2, r3, r0
 80012e6:	697b      	ldr	r3, [r7, #20]
 80012e8:	011b      	lsls	r3, r3, #4
 80012ea:	440b      	add	r3, r1
 80012ec:	f503 73c6 	add.w	r3, r3, #396	; 0x18c
 80012f0:	601a      	str	r2, [r3, #0]
                ((uint32_t)aData[7] << CAN_TDH0R_DATA7_Pos) |
                ((uint32_t)aData[6] << CAN_TDH0R_DATA6_Pos) |
                ((uint32_t)aData[5] << CAN_TDH0R_DATA5_Pos) |
                ((uint32_t)aData[4] << CAN_TDH0R_DATA4_Pos));
      WRITE_REG(hcan->Instance->sTxMailBox[transmitmailbox].TDLR,
 80012f2:	687b      	ldr	r3, [r7, #4]
 80012f4:	3303      	adds	r3, #3
 80012f6:	781b      	ldrb	r3, [r3, #0]
 80012f8:	061a      	lsls	r2, r3, #24
 80012fa:	687b      	ldr	r3, [r7, #4]
 80012fc:	3302      	adds	r3, #2
 80012fe:	781b      	ldrb	r3, [r3, #0]
 8001300:	041b      	lsls	r3, r3, #16
 8001302:	431a      	orrs	r2, r3
 8001304:	687b      	ldr	r3, [r7, #4]
 8001306:	3301      	adds	r3, #1
 8001308:	781b      	ldrb	r3, [r3, #0]
 800130a:	021b      	lsls	r3, r3, #8
 800130c:	4313      	orrs	r3, r2
 800130e:	687a      	ldr	r2, [r7, #4]
 8001310:	7812      	ldrb	r2, [r2, #0]
 8001312:	4610      	mov	r0, r2
 8001314:	68fa      	ldr	r2, [r7, #12]
 8001316:	6811      	ldr	r1, [r2, #0]
 8001318:	ea43 0200 	orr.w	r2, r3, r0
 800131c:	697b      	ldr	r3, [r7, #20]
 800131e:	011b      	lsls	r3, r3, #4
 8001320:	440b      	add	r3, r1
 8001322:	f503 73c4 	add.w	r3, r3, #392	; 0x188
 8001326:	601a      	str	r2, [r3, #0]
                ((uint32_t)aData[2] << CAN_TDL0R_DATA2_Pos) |
                ((uint32_t)aData[1] << CAN_TDL0R_DATA1_Pos) |
                ((uint32_t)aData[0] << CAN_TDL0R_DATA0_Pos));

      /* Request transmission */
      SET_BIT(hcan->Instance->sTxMailBox[transmitmailbox].TIR, CAN_TI0R_TXRQ);
 8001328:	68fb      	ldr	r3, [r7, #12]
 800132a:	681a      	ldr	r2, [r3, #0]
 800132c:	697b      	ldr	r3, [r7, #20]
 800132e:	3318      	adds	r3, #24
 8001330:	011b      	lsls	r3, r3, #4
 8001332:	4413      	add	r3, r2
 8001334:	681b      	ldr	r3, [r3, #0]
 8001336:	68fa      	ldr	r2, [r7, #12]
 8001338:	6811      	ldr	r1, [r2, #0]
 800133a:	f043 0201 	orr.w	r2, r3, #1
 800133e:	697b      	ldr	r3, [r7, #20]
 8001340:	3318      	adds	r3, #24
 8001342:	011b      	lsls	r3, r3, #4
 8001344:	440b      	add	r3, r1
 8001346:	601a      	str	r2, [r3, #0]

      /* Return function status */
      return HAL_OK;
 8001348:	2300      	movs	r3, #0
 800134a:	e00e      	b.n	800136a <HAL_CAN_AddTxMessage+0x1aa>
    }
    else
    {
      /* Update error code */
      hcan->ErrorCode |= HAL_CAN_ERROR_PARAM;
 800134c:	68fb      	ldr	r3, [r7, #12]
 800134e:	6a5b      	ldr	r3, [r3, #36]	; 0x24
 8001350:	f443 1200 	orr.w	r2, r3, #2097152	; 0x200000
 8001354:	68fb      	ldr	r3, [r7, #12]
 8001356:	625a      	str	r2, [r3, #36]	; 0x24

      return HAL_ERROR;
 8001358:	2301      	movs	r3, #1
 800135a:	e006      	b.n	800136a <HAL_CAN_AddTxMessage+0x1aa>
    }
  }
  else
  {
    /* Update error code */
    hcan->ErrorCode |= HAL_CAN_ERROR_NOT_INITIALIZED;
 800135c:	68fb      	ldr	r3, [r7, #12]
 800135e:	6a5b      	ldr	r3, [r3, #36]	; 0x24
 8001360:	f443 2280 	orr.w	r2, r3, #262144	; 0x40000
 8001364:	68fb      	ldr	r3, [r7, #12]
 8001366:	625a      	str	r2, [r3, #36]	; 0x24

    return HAL_ERROR;
 8001368:	2301      	movs	r3, #1
  }
}
 800136a:	4618      	mov	r0, r3
 800136c:	3724      	adds	r7, #36	; 0x24
 800136e:	46bd      	mov	sp, r7
 8001370:	f85d 7b04 	ldr.w	r7, [sp], #4
 8001374:	4770      	bx	lr

08001376 <HAL_CAN_IsTxMessagePending>:
  *          - 0 : No pending transmission request on any selected Tx Mailboxes.
  *          - 1 : Pending transmission request on at least one of the selected
  *                Tx Mailbox.
  */
uint32_t HAL_CAN_IsTxMessagePending(CAN_HandleTypeDef *hcan, uint32_t TxMailboxes)
{
 8001376:	b480      	push	{r7}
 8001378:	b085      	sub	sp, #20
 800137a:	af00      	add	r7, sp, #0
 800137c:	6078      	str	r0, [r7, #4]
 800137e:	6039      	str	r1, [r7, #0]
  uint32_t status = 0U;
 8001380:	2300      	movs	r3, #0
 8001382:	60fb      	str	r3, [r7, #12]
  HAL_CAN_StateTypeDef state = hcan->State;
 8001384:	687b      	ldr	r3, [r7, #4]
 8001386:	f893 3020 	ldrb.w	r3, [r3, #32]
 800138a:	72fb      	strb	r3, [r7, #11]

  /* Check function parameters */
  assert_param(IS_CAN_TX_MAILBOX_LIST(TxMailboxes));

  if ((state == HAL_CAN_STATE_READY) ||
 800138c:	7afb      	ldrb	r3, [r7, #11]
 800138e:	2b01      	cmp	r3, #1
 8001390:	d002      	beq.n	8001398 <HAL_CAN_IsTxMessagePending+0x22>
 8001392:	7afb      	ldrb	r3, [r7, #11]
 8001394:	2b02      	cmp	r3, #2
 8001396:	d10b      	bne.n	80013b0 <HAL_CAN_IsTxMessagePending+0x3a>
      (state == HAL_CAN_STATE_LISTENING))
  {
    /* Check pending transmission request on the selected Tx Mailboxes */
    if ((hcan->Instance->TSR & (TxMailboxes << CAN_TSR_TME0_Pos)) != (TxMailboxes << CAN_TSR_TME0_Pos))
 8001398:	687b      	ldr	r3, [r7, #4]
 800139a:	681b      	ldr	r3, [r3, #0]
 800139c:	689a      	ldr	r2, [r3, #8]
 800139e:	683b      	ldr	r3, [r7, #0]
 80013a0:	069b      	lsls	r3, r3, #26
 80013a2:	401a      	ands	r2, r3
 80013a4:	683b      	ldr	r3, [r7, #0]
 80013a6:	069b      	lsls	r3, r3, #26
 80013a8:	429a      	cmp	r2, r3
 80013aa:	d001      	beq.n	80013b0 <HAL_CAN_IsTxMessagePending+0x3a>
    {
      status = 1U;
 80013ac:	2301      	movs	r3, #1
 80013ae:	60fb      	str	r3, [r7, #12]
    }
  }

  /* Return status */
  return status;
 80013b0:	68fb      	ldr	r3, [r7, #12]
}
 80013b2:	4618      	mov	r0, r3
 80013b4:	3714      	adds	r7, #20
 80013b6:	46bd      	mov	sp, r7
 80013b8:	f85d 7b04 	ldr.w	r7, [sp], #4
 80013bc:	4770      	bx	lr

080013be <HAL_CAN_GetRxMessage>:
  *         of the Rx frame will be stored.
  * @param  aData array where the payload of the Rx frame will be stored.
  * @retval HAL status
  */
HAL_StatusTypeDef HAL_CAN_GetRxMessage(CAN_HandleTypeDef *hcan, uint32_t RxFifo, CAN_RxHeaderTypeDef *pHeader, uint8_t aData[])
{
 80013be:	b480      	push	{r7}
 80013c0:	b087      	sub	sp, #28
 80013c2:	af00      	add	r7, sp, #0
 80013c4:	60f8      	str	r0, [r7, #12]
 80013c6:	60b9      	str	r1, [r7, #8]
 80013c8:	607a      	str	r2, [r7, #4]
 80013ca:	603b      	str	r3, [r7, #0]
  HAL_CAN_StateTypeDef state = hcan->State;
 80013cc:	68fb      	ldr	r3, [r7, #12]
 80013ce:	f893 3020 	ldrb.w	r3, [r3, #32]
 80013d2:	75fb      	strb	r3, [r7, #23]

  assert_param(IS_CAN_RX_FIFO(RxFifo));

  if ((state == HAL_CAN_STATE_READY) ||
 80013d4:	7dfb      	ldrb	r3, [r7, #23]
 80013d6:	2b01      	cmp	r3, #1
 80013d8:	d003      	beq.n	80013e2 <HAL_CAN_GetRxMessage+0x24>
 80013da:	7dfb      	ldrb	r3, [r7, #23]
 80013dc:	2b02      	cmp	r3, #2
 80013de:	f040 80f3 	bne.w	80015c8 <HAL_CAN_GetRxMessage+0x20a>
      (state == HAL_CAN_STATE_LISTENING))
  {
    /* Check the Rx FIFO */
    if (RxFifo == CAN_RX_FIFO0) /* Rx element is assigned to Rx FIFO 0 */
 80013e2:	68bb      	ldr	r3, [r7, #8]
 80013e4:	2b00      	cmp	r3, #0
 80013e6:	d10e      	bne.n	8001406 <HAL_CAN_GetRxMessage+0x48>
    {
      /* Check that the Rx FIFO 0 is not empty */
      if ((hcan->Instance->RF0R & CAN_RF0R_FMP0) == 0U)
 80013e8:	68fb      	ldr	r3, [r7, #12]
 80013ea:	681b      	ldr	r3, [r3, #0]
 80013ec:	68db      	ldr	r3, [r3, #12]
 80013ee:	f003 0303 	and.w	r3, r3, #3
 80013f2:	2b00      	cmp	r3, #0
 80013f4:	d116      	bne.n	8001424 <HAL_CAN_GetRxMessage+0x66>
      {
        /* Update error code */
        hcan->ErrorCode |= HAL_CAN_ERROR_PARAM;
 80013f6:	68fb      	ldr	r3, [r7, #12]
 80013f8:	6a5b      	ldr	r3, [r3, #36]	; 0x24
 80013fa:	f443 1200 	orr.w	r2, r3, #2097152	; 0x200000
 80013fe:	68fb      	ldr	r3, [r7, #12]
 8001400:	625a      	str	r2, [r3, #36]	; 0x24

        return HAL_ERROR;
 8001402:	2301      	movs	r3, #1
 8001404:	e0e7      	b.n	80015d6 <HAL_CAN_GetRxMessage+0x218>
      }
    }
    else /* Rx element is assigned to Rx FIFO 1 */
    {
      /* Check that the Rx FIFO 1 is not empty */
      if ((hcan->Instance->RF1R & CAN_RF1R_FMP1) == 0U)
 8001406:	68fb      	ldr	r3, [r7, #12]
 8001408:	681b      	ldr	r3, [r3, #0]
 800140a:	691b      	ldr	r3, [r3, #16]
 800140c:	f003 0303 	and.w	r3, r3, #3
 8001410:	2b00      	cmp	r3, #0
 8001412:	d107      	bne.n	8001424 <HAL_CAN_GetRxMessage+0x66>
      {
        /* Update error code */
        hcan->ErrorCode |= HAL_CAN_ERROR_PARAM;
 8001414:	68fb      	ldr	r3, [r7, #12]
 8001416:	6a5b      	ldr	r3, [r3, #36]	; 0x24
 8001418:	f443 1200 	orr.w	r2, r3, #2097152	; 0x200000
 800141c:	68fb      	ldr	r3, [r7, #12]
 800141e:	625a      	str	r2, [r3, #36]	; 0x24

        return HAL_ERROR;
 8001420:	2301      	movs	r3, #1
 8001422:	e0d8      	b.n	80015d6 <HAL_CAN_GetRxMessage+0x218>
      }
    }

    /* Get the header */
    pHeader->IDE = CAN_RI0R_IDE & hcan->Instance->sFIFOMailBox[RxFifo].RIR;
 8001424:	68fb      	ldr	r3, [r7, #12]
 8001426:	681a      	ldr	r2, [r3, #0]
 8001428:	68bb      	ldr	r3, [r7, #8]
 800142a:	331b      	adds	r3, #27
 800142c:	011b      	lsls	r3, r3, #4
 800142e:	4413      	add	r3, r2
 8001430:	681b      	ldr	r3, [r3, #0]
 8001432:	f003 0204 	and.w	r2, r3, #4
 8001436:	687b      	ldr	r3, [r7, #4]
 8001438:	609a      	str	r2, [r3, #8]
    if (pHeader->IDE == CAN_ID_STD)
 800143a:	687b      	ldr	r3, [r7, #4]
 800143c:	689b      	ldr	r3, [r3, #8]
 800143e:	2b00      	cmp	r3, #0
 8001440:	d10c      	bne.n	800145c <HAL_CAN_GetRxMessage+0x9e>
    {
      pHeader->StdId = (CAN_RI0R_STID & hcan->Instance->sFIFOMailBox[RxFifo].RIR) >> CAN_TI0R_STID_Pos;
 8001442:	68fb      	ldr	r3, [r7, #12]
 8001444:	681a      	ldr	r2, [r3, #0]
 8001446:	68bb      	ldr	r3, [r7, #8]
 8001448:	331b      	adds	r3, #27
 800144a:	011b      	lsls	r3, r3, #4
 800144c:	4413      	add	r3, r2
 800144e:	681b      	ldr	r3, [r3, #0]
 8001450:	0d5b      	lsrs	r3, r3, #21
 8001452:	f3c3 020a 	ubfx	r2, r3, #0, #11
 8001456:	687b      	ldr	r3, [r7, #4]
 8001458:	601a      	str	r2, [r3, #0]
 800145a:	e00b      	b.n	8001474 <HAL_CAN_GetRxMessage+0xb6>
    }
    else
    {
      pHeader->ExtId = ((CAN_RI0R_EXID | CAN_RI0R_STID) & hcan->Instance->sFIFOMailBox[RxFifo].RIR) >> CAN_RI0R_EXID_Pos;
 800145c:	68fb      	ldr	r3, [r7, #12]
 800145e:	681a      	ldr	r2, [r3, #0]
 8001460:	68bb      	ldr	r3, [r7, #8]
 8001462:	331b      	adds	r3, #27
 8001464:	011b      	lsls	r3, r3, #4
 8001466:	4413      	add	r3, r2
 8001468:	681b      	ldr	r3, [r3, #0]
 800146a:	08db      	lsrs	r3, r3, #3
 800146c:	f023 4260 	bic.w	r2, r3, #3758096384	; 0xe0000000
 8001470:	687b      	ldr	r3, [r7, #4]
 8001472:	605a      	str	r2, [r3, #4]
    }
    pHeader->RTR = (CAN_RI0R_RTR & hcan->Instance->sFIFOMailBox[RxFifo].RIR);
 8001474:	68fb      	ldr	r3, [r7, #12]
 8001476:	681a      	ldr	r2, [r3, #0]
 8001478:	68bb      	ldr	r3, [r7, #8]
 800147a:	331b      	adds	r3, #27
 800147c:	011b      	lsls	r3, r3, #4
 800147e:	4413      	add	r3, r2
 8001480:	681b      	ldr	r3, [r3, #0]
 8001482:	f003 0202 	and.w	r2, r3, #2
 8001486:	687b      	ldr	r3, [r7, #4]
 8001488:	60da      	str	r2, [r3, #12]
    pHeader->DLC = (CAN_RDT0R_DLC & hcan->Instance->sFIFOMailBox[RxFifo].RDTR) >> CAN_RDT0R_DLC_Pos;
 800148a:	68fb      	ldr	r3, [r7, #12]
 800148c:	681a      	ldr	r2, [r3, #0]
 800148e:	68bb      	ldr	r3, [r7, #8]
 8001490:	331b      	adds	r3, #27
 8001492:	011b      	lsls	r3, r3, #4
 8001494:	4413      	add	r3, r2
 8001496:	3304      	adds	r3, #4
 8001498:	681b      	ldr	r3, [r3, #0]
 800149a:	f003 020f 	and.w	r2, r3, #15
 800149e:	687b      	ldr	r3, [r7, #4]
 80014a0:	611a      	str	r2, [r3, #16]
    pHeader->FilterMatchIndex = (CAN_RDT0R_FMI & hcan->Instance->sFIFOMailBox[RxFifo].RDTR) >> CAN_RDT0R_FMI_Pos;
 80014a2:	68fb      	ldr	r3, [r7, #12]
 80014a4:	681a      	ldr	r2, [r3, #0]
 80014a6:	68bb      	ldr	r3, [r7, #8]
 80014a8:	331b      	adds	r3, #27
 80014aa:	011b      	lsls	r3, r3, #4
 80014ac:	4413      	add	r3, r2
 80014ae:	3304      	adds	r3, #4
 80014b0:	681b      	ldr	r3, [r3, #0]
 80014b2:	0a1b      	lsrs	r3, r3, #8
 80014b4:	b2da      	uxtb	r2, r3
 80014b6:	687b      	ldr	r3, [r7, #4]
 80014b8:	619a      	str	r2, [r3, #24]
    pHeader->Timestamp = (CAN_RDT0R_TIME & hcan->Instance->sFIFOMailBox[RxFifo].RDTR) >> CAN_RDT0R_TIME_Pos;
 80014ba:	68fb      	ldr	r3, [r7, #12]
 80014bc:	681a      	ldr	r2, [r3, #0]
 80014be:	68bb      	ldr	r3, [r7, #8]
 80014c0:	331b      	adds	r3, #27
 80014c2:	011b      	lsls	r3, r3, #4
 80014c4:	4413      	add	r3, r2
 80014c6:	3304      	adds	r3, #4
 80014c8:	681b      	ldr	r3, [r3, #0]
 80014ca:	0c1b      	lsrs	r3, r3, #16
 80014cc:	b29a      	uxth	r2, r3
 80014ce:	687b      	ldr	r3, [r7, #4]
 80014d0:	615a      	str	r2, [r3, #20]

    /* Get the data */
    aData[0] = (uint8_t)((CAN_RDL0R_DATA0 & hcan->Instance->sFIFOMailBox[RxFifo].RDLR) >> CAN_RDL0R_DATA0_Pos);
 80014d2:	68fb      	ldr	r3, [r7, #12]
 80014d4:	681a      	ldr	r2, [r3, #0]
 80014d6:	68bb      	ldr	r3, [r7, #8]
 80014d8:	011b      	lsls	r3, r3, #4
 80014da:	4413      	add	r3, r2
 80014dc:	f503 73dc 	add.w	r3, r3, #440	; 0x1b8
 80014e0:	681b      	ldr	r3, [r3, #0]
 80014e2:	b2da      	uxtb	r2, r3
 80014e4:	683b      	ldr	r3, [r7, #0]
 80014e6:	701a      	strb	r2, [r3, #0]
    aData[1] = (uint8_t)((CAN_RDL0R_DATA1 & hcan->Instance->sFIFOMailBox[RxFifo].RDLR) >> CAN_RDL0R_DATA1_Pos);
 80014e8:	68fb      	ldr	r3, [r7, #12]
 80014ea:	681a      	ldr	r2, [r3, #0]
 80014ec:	68bb      	ldr	r3, [r7, #8]
 80014ee:	011b      	lsls	r3, r3, #4
 80014f0:	4413      	add	r3, r2
 80014f2:	f503 73dc 	add.w	r3, r3, #440	; 0x1b8
 80014f6:	681b      	ldr	r3, [r3, #0]
 80014f8:	0a1a      	lsrs	r2, r3, #8
 80014fa:	683b      	ldr	r3, [r7, #0]
 80014fc:	3301      	adds	r3, #1
 80014fe:	b2d2      	uxtb	r2, r2
 8001500:	701a      	strb	r2, [r3, #0]
    aData[2] = (uint8_t)((CAN_RDL0R_DATA2 & hcan->Instance->sFIFOMailBox[RxFifo].RDLR) >> CAN_RDL0R_DATA2_Pos);
 8001502:	68fb      	ldr	r3, [r7, #12]
 8001504:	681a      	ldr	r2, [r3, #0]
 8001506:	68bb      	ldr	r3, [r7, #8]
 8001508:	011b      	lsls	r3, r3, #4
 800150a:	4413      	add	r3, r2
 800150c:	f503 73dc 	add.w	r3, r3, #440	; 0x1b8
 8001510:	681b      	ldr	r3, [r3, #0]
 8001512:	0c1a      	lsrs	r2, r3, #16
 8001514:	683b      	ldr	r3, [r7, #0]
 8001516:	3302      	adds	r3, #2
 8001518:	b2d2      	uxtb	r2, r2
 800151a:	701a      	strb	r2, [r3, #0]
    aData[3] = (uint8_t)((CAN_RDL0R_DATA3 & hcan->Instance->sFIFOMailBox[RxFifo].RDLR) >> CAN_RDL0R_DATA3_Pos);
 800151c:	68fb      	ldr	r3, [r7, #12]
 800151e:	681a      	ldr	r2, [r3, #0]
 8001520:	68bb      	ldr	r3, [r7, #8]
 8001522:	011b      	lsls	r3, r3, #4
 8001524:	4413      	add	r3, r2
 8001526:	f503 73dc 	add.w	r3, r3, #440	; 0x1b8
 800152a:	681b      	ldr	r3, [r3, #0]
 800152c:	0e1a      	lsrs	r2, r3, #24
 800152e:	683b      	ldr	r3, [r7, #0]
 8001530:	3303      	adds	r3, #3
 8001532:	b2d2      	uxtb	r2, r2
 8001534:	701a      	strb	r2, [r3, #0]
    aData[4] = (uint8_t)((CAN_RDH0R_DATA4 & hcan->Instance->sFIFOMailBox[RxFifo].RDHR) >> CAN_RDH0R_DATA4_Pos);
 8001536:	68fb      	ldr	r3, [r7, #12]
 8001538:	681a      	ldr	r2, [r3, #0]
 800153a:	68bb      	ldr	r3, [r7, #8]
 800153c:	011b      	lsls	r3, r3, #4
 800153e:	4413      	add	r3, r2
 8001540:	f503 73de 	add.w	r3, r3, #444	; 0x1bc
 8001544:	681a      	ldr	r2, [r3, #0]
 8001546:	683b      	ldr	r3, [r7, #0]
 8001548:	3304      	adds	r3, #4
 800154a:	b2d2      	uxtb	r2, r2
 800154c:	701a      	strb	r2, [r3, #0]
    aData[5] = (uint8_t)((CAN_RDH0R_DATA5 & hcan->Instance->sFIFOMailBox[RxFifo].RDHR) >> CAN_RDH0R_DATA5_Pos);
 800154e:	68fb      	ldr	r3, [r7, #12]
 8001550:	681a      	ldr	r2, [r3, #0]
 8001552:	68bb      	ldr	r3, [r7, #8]
 8001554:	011b      	lsls	r3, r3, #4
 8001556:	4413      	add	r3, r2
 8001558:	f503 73de 	add.w	r3, r3, #444	; 0x1bc
 800155c:	681b      	ldr	r3, [r3, #0]
 800155e:	0a1a      	lsrs	r2, r3, #8
 8001560:	683b      	ldr	r3, [r7, #0]
 8001562:	3305      	adds	r3, #5
 8001564:	b2d2      	uxtb	r2, r2
 8001566:	701a      	strb	r2, [r3, #0]
    aData[6] = (uint8_t)((CAN_RDH0R_DATA6 & hcan->Instance->sFIFOMailBox[RxFifo].RDHR) >> CAN_RDH0R_DATA6_Pos);
 8001568:	68fb      	ldr	r3, [r7, #12]
 800156a:	681a      	ldr	r2, [r3, #0]
 800156c:	68bb      	ldr	r3, [r7, #8]
 800156e:	011b      	lsls	r3, r3, #4
 8001570:	4413      	add	r3, r2
 8001572:	f503 73de 	add.w	r3, r3, #444	; 0x1bc
 8001576:	681b      	ldr	r3, [r3, #0]
 8001578:	0c1a      	lsrs	r2, r3, #16
 800157a:	683b      	ldr	r3, [r7, #0]
 800157c:	3306      	adds	r3, #6
 800157e:	b2d2      	uxtb	r2, r2
 8001580:	701a      	strb	r2, [r3, #0]
    aData[7] = (uint8_t)((CAN_RDH0R_DATA7 & hcan->Instance->sFIFOMailBox[RxFifo].RDHR) >> CAN_RDH0R_DATA7_Pos);
 8001582:	68fb      	ldr	r3, [r7, #12]
 8001584:	681a      	ldr	r2, [r3, #0]
 8001586:	68bb      	ldr	r3, [r7, #8]
 8001588:	011b      	lsls	r3, r3, #4
 800158a:	4413      	add	r3, r2
 800158c:	f503 73de 	add.w	r3, r3, #444	; 0x1bc
 8001590:	681b      	ldr	r3, [r3, #0]
 8001592:	0e1a      	lsrs	r2, r3, #24
 8001594:	683b      	ldr	r3, [r7, #0]
 8001596:	3307      	adds	r3, #7
 8001598:	b2d2      	uxtb	r2, r2
 800159a:	701a      	strb	r2, [r3, #0]

    /* Release the FIFO */
    if (RxFifo == CAN_RX_FIFO0) /* Rx element is assigned to Rx FIFO 0 */
 800159c:	68bb      	ldr	r3, [r7, #8]
 800159e:	2b00      	cmp	r3, #0
 80015a0:	d108      	bne.n	80015b4 <HAL_CAN_GetRxMessage+0x1f6>
    {
      /* Release RX FIFO 0 */
      SET_BIT(hcan->Instance->RF0R, CAN_RF0R_RFOM0);
 80015a2:	68fb      	ldr	r3, [r7, #12]
 80015a4:	681b      	ldr	r3, [r3, #0]
 80015a6:	68da      	ldr	r2, [r3, #12]
 80015a8:	68fb      	ldr	r3, [r7, #12]
 80015aa:	681b      	ldr	r3, [r3, #0]
 80015ac:	f042 0220 	orr.w	r2, r2, #32
 80015b0:	60da      	str	r2, [r3, #12]
 80015b2:	e007      	b.n	80015c4 <HAL_CAN_GetRxMessage+0x206>
    }
    else /* Rx element is assigned to Rx FIFO 1 */
    {
      /* Release RX FIFO 1 */
      SET_BIT(hcan->Instance->RF1R, CAN_RF1R_RFOM1);
 80015b4:	68fb      	ldr	r3, [r7, #12]
 80015b6:	681b      	ldr	r3, [r3, #0]
 80015b8:	691a      	ldr	r2, [r3, #16]
 80015ba:	68fb      	ldr	r3, [r7, #12]
 80015bc:	681b      	ldr	r3, [r3, #0]
 80015be:	f042 0220 	orr.w	r2, r2, #32
 80015c2:	611a      	str	r2, [r3, #16]
    }

    /* Return function status */
    return HAL_OK;
 80015c4:	2300      	movs	r3, #0
 80015c6:	e006      	b.n	80015d6 <HAL_CAN_GetRxMessage+0x218>
  }
  else
  {
    /* Update error code */
    hcan->ErrorCode |= HAL_CAN_ERROR_NOT_INITIALIZED;
 80015c8:	68fb      	ldr	r3, [r7, #12]
 80015ca:	6a5b      	ldr	r3, [r3, #36]	; 0x24
 80015cc:	f443 2280 	orr.w	r2, r3, #262144	; 0x40000
 80015d0:	68fb      	ldr	r3, [r7, #12]
 80015d2:	625a      	str	r2, [r3, #36]	; 0x24

    return HAL_ERROR;
 80015d4:	2301      	movs	r3, #1
  }
}
 80015d6:	4618      	mov	r0, r3
 80015d8:	371c      	adds	r7, #28
 80015da:	46bd      	mov	sp, r7
 80015dc:	f85d 7b04 	ldr.w	r7, [sp], #4
 80015e0:	4770      	bx	lr

080015e2 <HAL_CAN_GetRxFifoFillLevel>:
  * @param  RxFifo Rx FIFO.
  *         This parameter can be a value of @arg CAN_receive_FIFO_number.
  * @retval Number of messages available in Rx FIFO.
  */
uint32_t HAL_CAN_GetRxFifoFillLevel(CAN_HandleTypeDef *hcan, uint32_t RxFifo)
{
 80015e2:	b480      	push	{r7}
 80015e4:	b085      	sub	sp, #20
 80015e6:	af00      	add	r7, sp, #0
 80015e8:	6078      	str	r0, [r7, #4]
 80015ea:	6039      	str	r1, [r7, #0]
  uint32_t filllevel = 0U;
 80015ec:	2300      	movs	r3, #0
 80015ee:	60fb      	str	r3, [r7, #12]
  HAL_CAN_StateTypeDef state = hcan->State;
 80015f0:	687b      	ldr	r3, [r7, #4]
 80015f2:	f893 3020 	ldrb.w	r3, [r3, #32]
 80015f6:	72fb      	strb	r3, [r7, #11]

  /* Check function parameters */
  assert_param(IS_CAN_RX_FIFO(RxFifo));

  if ((state == HAL_CAN_STATE_READY) ||
 80015f8:	7afb      	ldrb	r3, [r7, #11]
 80015fa:	2b01      	cmp	r3, #1
 80015fc:	d002      	beq.n	8001604 <HAL_CAN_GetRxFifoFillLevel+0x22>
 80015fe:	7afb      	ldrb	r3, [r7, #11]
 8001600:	2b02      	cmp	r3, #2
 8001602:	d10f      	bne.n	8001624 <HAL_CAN_GetRxFifoFillLevel+0x42>
      (state == HAL_CAN_STATE_LISTENING))
  {
    if (RxFifo == CAN_RX_FIFO0)
 8001604:	683b      	ldr	r3, [r7, #0]
 8001606:	2b00      	cmp	r3, #0
 8001608:	d106      	bne.n	8001618 <HAL_CAN_GetRxFifoFillLevel+0x36>
    {
      filllevel = hcan->Instance->RF0R & CAN_RF0R_FMP0;
 800160a:	687b      	ldr	r3, [r7, #4]
 800160c:	681b      	ldr	r3, [r3, #0]
 800160e:	68db      	ldr	r3, [r3, #12]
 8001610:	f003 0303 	and.w	r3, r3, #3
 8001614:	60fb      	str	r3, [r7, #12]
 8001616:	e005      	b.n	8001624 <HAL_CAN_GetRxFifoFillLevel+0x42>
    }
    else /* RxFifo == CAN_RX_FIFO1 */
    {
      filllevel = hcan->Instance->RF1R & CAN_RF1R_FMP1;
 8001618:	687b      	ldr	r3, [r7, #4]
 800161a:	681b      	ldr	r3, [r3, #0]
 800161c:	691b      	ldr	r3, [r3, #16]
 800161e:	f003 0303 	and.w	r3, r3, #3
 8001622:	60fb      	str	r3, [r7, #12]
    }
  }

  /* Return Rx FIFO fill level */
  return filllevel;
 8001624:	68fb      	ldr	r3, [r7, #12]
}
 8001626:	4618      	mov	r0, r3
 8001628:	3714      	adds	r7, #20
 800162a:	46bd      	mov	sp, r7
 800162c:	f85d 7b04 	ldr.w	r7, [sp], #4
 8001630:	4770      	bx	lr
	...

08001634 <__NVIC_SetPriorityGrouping>:
           In case of a conflict between priority grouping and available
           priority bits (__NVIC_PRIO_BITS), the smallest possible priority group is set.
  \param [in]      PriorityGroup  Priority grouping field.
 */
__STATIC_INLINE void __NVIC_SetPriorityGrouping(uint32_t PriorityGroup)
{
 8001634:	b480      	push	{r7}
 8001636:	b085      	sub	sp, #20
 8001638:	af00      	add	r7, sp, #0
 800163a:	6078      	str	r0, [r7, #4]
  uint32_t reg_value;
  uint32_t PriorityGroupTmp = (PriorityGroup & (uint32_t)0x07UL);             /* only values 0..7 are used          */
 800163c:	687b      	ldr	r3, [r7, #4]
 800163e:	f003 0307 	and.w	r3, r3, #7
 8001642:	60fb      	str	r3, [r7, #12]

  reg_value  =  SCB->AIRCR;                                                   /* read old register configuration    */
 8001644:	4b0c      	ldr	r3, [pc, #48]	; (8001678 <__NVIC_SetPriorityGrouping+0x44>)
 8001646:	68db      	ldr	r3, [r3, #12]
 8001648:	60bb      	str	r3, [r7, #8]
  reg_value &= ~((uint32_t)(SCB_AIRCR_VECTKEY_Msk | SCB_AIRCR_PRIGROUP_Msk)); /* clear bits to change               */
 800164a:	68ba      	ldr	r2, [r7, #8]
 800164c:	f64f 03ff 	movw	r3, #63743	; 0xf8ff
 8001650:	4013      	ands	r3, r2
 8001652:	60bb      	str	r3, [r7, #8]
  reg_value  =  (reg_value                                   |
                ((uint32_t)0x5FAUL << SCB_AIRCR_VECTKEY_Pos) |
                (PriorityGroupTmp << SCB_AIRCR_PRIGROUP_Pos)  );              /* Insert write key and priority group */
 8001654:	68fb      	ldr	r3, [r7, #12]
 8001656:	021a      	lsls	r2, r3, #8
                ((uint32_t)0x5FAUL << SCB_AIRCR_VECTKEY_Pos) |
 8001658:	68bb      	ldr	r3, [r7, #8]
 800165a:	4313      	orrs	r3, r2
  reg_value  =  (reg_value                                   |
 800165c:	f043 63bf 	orr.w	r3, r3, #100139008	; 0x5f80000
 8001660:	f443 3300 	orr.w	r3, r3, #131072	; 0x20000
 8001664:	60bb      	str	r3, [r7, #8]
  SCB->AIRCR =  reg_value;
 8001666:	4a04      	ldr	r2, [pc, #16]	; (8001678 <__NVIC_SetPriorityGrouping+0x44>)
 8001668:	68bb      	ldr	r3, [r7, #8]
 800166a:	60d3      	str	r3, [r2, #12]
}
 800166c:	bf00      	nop
 800166e:	3714      	adds	r7, #20
 8001670:	46bd      	mov	sp, r7
 8001672:	f85d 7b04 	ldr.w	r7, [sp], #4
 8001676:	4770      	bx	lr
 8001678:	e000ed00 	.word	0xe000ed00

0800167c <__NVIC_GetPriorityGrouping>:
  \brief   Get Priority Grouping
  \details Reads the priority grouping field from the NVIC Interrupt Controller.
  \return                Priority grouping field (SCB->AIRCR [10:8] PRIGROUP field).
 */
__STATIC_INLINE uint32_t __NVIC_GetPriorityGrouping(void)
{
 800167c:	b480      	push	{r7}
 800167e:	af00      	add	r7, sp, #0
  return ((uint32_t)((SCB->AIRCR & SCB_AIRCR_PRIGROUP_Msk) >> SCB_AIRCR_PRIGROUP_Pos));
 8001680:	4b04      	ldr	r3, [pc, #16]	; (8001694 <__NVIC_GetPriorityGrouping+0x18>)
 8001682:	68db      	ldr	r3, [r3, #12]
 8001684:	0a1b      	lsrs	r3, r3, #8
 8001686:	f003 0307 	and.w	r3, r3, #7
}
 800168a:	4618      	mov	r0, r3
 800168c:	46bd      	mov	sp, r7
 800168e:	f85d 7b04 	ldr.w	r7, [sp], #4
 8001692:	4770      	bx	lr
 8001694:	e000ed00 	.word	0xe000ed00

08001698 <__NVIC_EnableIRQ>:
  \details Enables a device specific interrupt in the NVIC interrupt controller.
  \param [in]      IRQn  Device specific interrupt number.
  \note    IRQn must not be negative.
 */
__STATIC_INLINE void __NVIC_EnableIRQ(IRQn_Type IRQn)
{
 8001698:	b480      	push	{r7}
 800169a:	b083      	sub	sp, #12
 800169c:	af00      	add	r7, sp, #0
 800169e:	4603      	mov	r3, r0
 80016a0:	71fb      	strb	r3, [r7, #7]
  if ((int32_t)(IRQn) >= 0)
 80016a2:	f997 3007 	ldrsb.w	r3, [r7, #7]
 80016a6:	2b00      	cmp	r3, #0
 80016a8:	db0b      	blt.n	80016c2 <__NVIC_EnableIRQ+0x2a>
  {
    NVIC->ISER[(((uint32_t)IRQn) >> 5UL)] = (uint32_t)(1UL << (((uint32_t)IRQn) & 0x1FUL));
 80016aa:	79fb      	ldrb	r3, [r7, #7]
 80016ac:	f003 021f 	and.w	r2, r3, #31
 80016b0:	4907      	ldr	r1, [pc, #28]	; (80016d0 <__NVIC_EnableIRQ+0x38>)
 80016b2:	f997 3007 	ldrsb.w	r3, [r7, #7]
 80016b6:	095b      	lsrs	r3, r3, #5
 80016b8:	2001      	movs	r0, #1
 80016ba:	fa00 f202 	lsl.w	r2, r0, r2
 80016be:	f841 2023 	str.w	r2, [r1, r3, lsl #2]
  }
}
 80016c2:	bf00      	nop
 80016c4:	370c      	adds	r7, #12
 80016c6:	46bd      	mov	sp, r7
 80016c8:	f85d 7b04 	ldr.w	r7, [sp], #4
 80016cc:	4770      	bx	lr
 80016ce:	bf00      	nop
 80016d0:	e000e100 	.word	0xe000e100

080016d4 <__NVIC_SetPriority>:
  \param [in]      IRQn  Interrupt number.
  \param [in]  priority  Priority to set.
  \note    The priority cannot be set for every processor exception.
 */
__STATIC_INLINE void __NVIC_SetPriority(IRQn_Type IRQn, uint32_t priority)
{
 80016d4:	b480      	push	{r7}
 80016d6:	b083      	sub	sp, #12
 80016d8:	af00      	add	r7, sp, #0
 80016da:	4603      	mov	r3, r0
 80016dc:	6039      	str	r1, [r7, #0]
 80016de:	71fb      	strb	r3, [r7, #7]
  if ((int32_t)(IRQn) >= 0)
 80016e0:	f997 3007 	ldrsb.w	r3, [r7, #7]
 80016e4:	2b00      	cmp	r3, #0
 80016e6:	db0a      	blt.n	80016fe <__NVIC_SetPriority+0x2a>
  {
    NVIC->IP[((uint32_t)IRQn)]               = (uint8_t)((priority << (8U - __NVIC_PRIO_BITS)) & (uint32_t)0xFFUL);
 80016e8:	683b      	ldr	r3, [r7, #0]
 80016ea:	b2da      	uxtb	r2, r3
 80016ec:	490c      	ldr	r1, [pc, #48]	; (8001720 <__NVIC_SetPriority+0x4c>)
 80016ee:	f997 3007 	ldrsb.w	r3, [r7, #7]
 80016f2:	0112      	lsls	r2, r2, #4
 80016f4:	b2d2      	uxtb	r2, r2
 80016f6:	440b      	add	r3, r1
 80016f8:	f883 2300 	strb.w	r2, [r3, #768]	; 0x300
  }
  else
  {
    SCB->SHP[(((uint32_t)IRQn) & 0xFUL)-4UL] = (uint8_t)((priority << (8U - __NVIC_PRIO_BITS)) & (uint32_t)0xFFUL);
  }
}
 80016fc:	e00a      	b.n	8001714 <__NVIC_SetPriority+0x40>
    SCB->SHP[(((uint32_t)IRQn) & 0xFUL)-4UL] = (uint8_t)((priority << (8U - __NVIC_PRIO_BITS)) & (uint32_t)0xFFUL);
 80016fe:	683b      	ldr	r3, [r7, #0]
 8001700:	b2da      	uxtb	r2, r3
 8001702:	4908      	ldr	r1, [pc, #32]	; (8001724 <__NVIC_SetPriority+0x50>)
 8001704:	79fb      	ldrb	r3, [r7, #7]
 8001706:	f003 030f 	and.w	r3, r3, #15
 800170a:	3b04      	subs	r3, #4
 800170c:	0112      	lsls	r2, r2, #4
 800170e:	b2d2      	uxtb	r2, r2
 8001710:	440b      	add	r3, r1
 8001712:	761a      	strb	r2, [r3, #24]
}
 8001714:	bf00      	nop
 8001716:	370c      	adds	r7, #12
 8001718:	46bd      	mov	sp, r7
 800171a:	f85d 7b04 	ldr.w	r7, [sp], #4
 800171e:	4770      	bx	lr
 8001720:	e000e100 	.word	0xe000e100
 8001724:	e000ed00 	.word	0xe000ed00

08001728 <NVIC_EncodePriority>:
  \param [in]   PreemptPriority  Preemptive priority value (starting from 0).
  \param [in]       SubPriority  Subpriority value (starting from 0).
  \return                        Encoded priority. Value can be used in the function \ref NVIC_SetPriority().
 */
__STATIC_INLINE uint32_t NVIC_EncodePriority (uint32_t PriorityGroup, uint32_t PreemptPriority, uint32_t SubPriority)
{
 8001728:	b480      	push	{r7}
 800172a:	b089      	sub	sp, #36	; 0x24
 800172c:	af00      	add	r7, sp, #0
 800172e:	60f8      	str	r0, [r7, #12]
 8001730:	60b9      	str	r1, [r7, #8]
 8001732:	607a      	str	r2, [r7, #4]
  uint32_t PriorityGroupTmp = (PriorityGroup & (uint32_t)0x07UL);   /* only values 0..7 are used          */
 8001734:	68fb      	ldr	r3, [r7, #12]
 8001736:	f003 0307 	and.w	r3, r3, #7
 800173a:	61fb      	str	r3, [r7, #28]
  uint32_t PreemptPriorityBits;
  uint32_t SubPriorityBits;

  PreemptPriorityBits = ((7UL - PriorityGroupTmp) > (uint32_t)(__NVIC_PRIO_BITS)) ? (uint32_t)(__NVIC_PRIO_BITS) : (uint32_t)(7UL - PriorityGroupTmp);
 800173c:	69fb      	ldr	r3, [r7, #28]
 800173e:	f1c3 0307 	rsb	r3, r3, #7
 8001742:	2b04      	cmp	r3, #4
 8001744:	bf28      	it	cs
 8001746:	2304      	movcs	r3, #4
 8001748:	61bb      	str	r3, [r7, #24]
  SubPriorityBits     = ((PriorityGroupTmp + (uint32_t)(__NVIC_PRIO_BITS)) < (uint32_t)7UL) ? (uint32_t)0UL : (uint32_t)((PriorityGroupTmp - 7UL) + (uint32_t)(__NVIC_PRIO_BITS));
 800174a:	69fb      	ldr	r3, [r7, #28]
 800174c:	3304      	adds	r3, #4
 800174e:	2b06      	cmp	r3, #6
 8001750:	d902      	bls.n	8001758 <NVIC_EncodePriority+0x30>
 8001752:	69fb      	ldr	r3, [r7, #28]
 8001754:	3b03      	subs	r3, #3
 8001756:	e000      	b.n	800175a <NVIC_EncodePriority+0x32>
 8001758:	2300      	movs	r3, #0
 800175a:	617b      	str	r3, [r7, #20]

  return (
           ((PreemptPriority & (uint32_t)((1UL << (PreemptPriorityBits)) - 1UL)) << SubPriorityBits) |
 800175c:	f04f 32ff 	mov.w	r2, #4294967295
 8001760:	69bb      	ldr	r3, [r7, #24]
 8001762:	fa02 f303 	lsl.w	r3, r2, r3
 8001766:	43da      	mvns	r2, r3
 8001768:	68bb      	ldr	r3, [r7, #8]
 800176a:	401a      	ands	r2, r3
 800176c:	697b      	ldr	r3, [r7, #20]
 800176e:	409a      	lsls	r2, r3
           ((SubPriority     & (uint32_t)((1UL << (SubPriorityBits    )) - 1UL)))
 8001770:	f04f 31ff 	mov.w	r1, #4294967295
 8001774:	697b      	ldr	r3, [r7, #20]
 8001776:	fa01 f303 	lsl.w	r3, r1, r3
 800177a:	43d9      	mvns	r1, r3
 800177c:	687b      	ldr	r3, [r7, #4]
 800177e:	400b      	ands	r3, r1
           ((PreemptPriority & (uint32_t)((1UL << (PreemptPriorityBits)) - 1UL)) << SubPriorityBits) |
 8001780:	4313      	orrs	r3, r2
         );
}
 8001782:	4618      	mov	r0, r3
 8001784:	3724      	adds	r7, #36	; 0x24
 8001786:	46bd      	mov	sp, r7
 8001788:	f85d 7b04 	ldr.w	r7, [sp], #4
 800178c:	4770      	bx	lr
	...

08001790 <SysTick_Config>:
  \note    When the variable <b>__Vendor_SysTickConfig</b> is set to 1, then the
           function <b>SysTick_Config</b> is not included. In this case, the file <b><i>device</i>.h</b>
           must contain a vendor-specific implementation of this function.
 */
__STATIC_INLINE uint32_t SysTick_Config(uint32_t ticks)
{
 8001790:	b580      	push	{r7, lr}
 8001792:	b082      	sub	sp, #8
 8001794:	af00      	add	r7, sp, #0
 8001796:	6078      	str	r0, [r7, #4]
  if ((ticks - 1UL) > SysTick_LOAD_RELOAD_Msk)
 8001798:	687b      	ldr	r3, [r7, #4]
 800179a:	3b01      	subs	r3, #1
 800179c:	f1b3 7f80 	cmp.w	r3, #16777216	; 0x1000000
 80017a0:	d301      	bcc.n	80017a6 <SysTick_Config+0x16>
  {
    return (1UL);                                                   /* Reload value impossible */
 80017a2:	2301      	movs	r3, #1
 80017a4:	e00f      	b.n	80017c6 <SysTick_Config+0x36>
  }

  SysTick->LOAD  = (uint32_t)(ticks - 1UL);                         /* set reload register */
 80017a6:	4a0a      	ldr	r2, [pc, #40]	; (80017d0 <SysTick_Config+0x40>)
 80017a8:	687b      	ldr	r3, [r7, #4]
 80017aa:	3b01      	subs	r3, #1
 80017ac:	6053      	str	r3, [r2, #4]
  NVIC_SetPriority (SysTick_IRQn, (1UL << __NVIC_PRIO_BITS) - 1UL); /* set Priority for Systick Interrupt */
 80017ae:	210f      	movs	r1, #15
 80017b0:	f04f 30ff 	mov.w	r0, #4294967295
 80017b4:	f7ff ff8e 	bl	80016d4 <__NVIC_SetPriority>
  SysTick->VAL   = 0UL;                                             /* Load the SysTick Counter Value */
 80017b8:	4b05      	ldr	r3, [pc, #20]	; (80017d0 <SysTick_Config+0x40>)
 80017ba:	2200      	movs	r2, #0
 80017bc:	609a      	str	r2, [r3, #8]
  SysTick->CTRL  = SysTick_CTRL_CLKSOURCE_Msk |
 80017be:	4b04      	ldr	r3, [pc, #16]	; (80017d0 <SysTick_Config+0x40>)
 80017c0:	2207      	movs	r2, #7
 80017c2:	601a      	str	r2, [r3, #0]
                   SysTick_CTRL_TICKINT_Msk   |
                   SysTick_CTRL_ENABLE_Msk;                         /* Enable SysTick IRQ and SysTick Timer */
  return (0UL);                                                     /* Function successful */
 80017c4:	2300      	movs	r3, #0
}
 80017c6:	4618      	mov	r0, r3
 80017c8:	3708      	adds	r7, #8
 80017ca:	46bd      	mov	sp, r7
 80017cc:	bd80      	pop	{r7, pc}
 80017ce:	bf00      	nop
 80017d0:	e000e010 	.word	0xe000e010

080017d4 <HAL_NVIC_SetPriorityGrouping>:
  * @note   When the NVIC_PriorityGroup_0 is selected, IRQ preemption is no more possible. 
  *         The pending IRQ priority will be managed only by the subpriority. 
  * @retval None
  */
void HAL_NVIC_SetPriorityGrouping(uint32_t PriorityGroup)
{
 80017d4:	b580      	push	{r7, lr}
 80017d6:	b082      	sub	sp, #8
 80017d8:	af00      	add	r7, sp, #0
 80017da:	6078      	str	r0, [r7, #4]
  /* Check the parameters */
  assert_param(IS_NVIC_PRIORITY_GROUP(PriorityGroup));
  
  /* Set the PRIGROUP[10:8] bits according to the PriorityGroup parameter value */
  NVIC_SetPriorityGrouping(PriorityGroup);
 80017dc:	6878      	ldr	r0, [r7, #4]
 80017de:	f7ff ff29 	bl	8001634 <__NVIC_SetPriorityGrouping>
}
 80017e2:	bf00      	nop
 80017e4:	3708      	adds	r7, #8
 80017e6:	46bd      	mov	sp, r7
 80017e8:	bd80      	pop	{r7, pc}

080017ea <HAL_NVIC_SetPriority>:
  *         This parameter can be a value between 0 and 15
  *         A lower priority value indicates a higher priority.          
  * @retval None
  */
void HAL_NVIC_SetPriority(IRQn_Type IRQn, uint32_t PreemptPriority, uint32_t SubPriority)
{ 
 80017ea:	b580      	push	{r7, lr}
 80017ec:	b086      	sub	sp, #24
 80017ee:	af00      	add	r7, sp, #0
 80017f0:	4603      	mov	r3, r0
 80017f2:	60b9      	str	r1, [r7, #8]
 80017f4:	607a      	str	r2, [r7, #4]
 80017f6:	73fb      	strb	r3, [r7, #15]
  uint32_t prioritygroup = 0x00U;
 80017f8:	2300      	movs	r3, #0
 80017fa:	617b      	str	r3, [r7, #20]
  
  /* Check the parameters */
  assert_param(IS_NVIC_SUB_PRIORITY(SubPriority));
  assert_param(IS_NVIC_PREEMPTION_PRIORITY(PreemptPriority));
  
  prioritygroup = NVIC_GetPriorityGrouping();
 80017fc:	f7ff ff3e 	bl	800167c <__NVIC_GetPriorityGrouping>
 8001800:	6178      	str	r0, [r7, #20]
  
  NVIC_SetPriority(IRQn, NVIC_EncodePriority(prioritygroup, PreemptPriority, SubPriority));
 8001802:	687a      	ldr	r2, [r7, #4]
 8001804:	68b9      	ldr	r1, [r7, #8]
 8001806:	6978      	ldr	r0, [r7, #20]
 8001808:	f7ff ff8e 	bl	8001728 <NVIC_EncodePriority>
 800180c:	4602      	mov	r2, r0
 800180e:	f997 300f 	ldrsb.w	r3, [r7, #15]
 8001812:	4611      	mov	r1, r2
 8001814:	4618      	mov	r0, r3
 8001816:	f7ff ff5d 	bl	80016d4 <__NVIC_SetPriority>
}
 800181a:	bf00      	nop
 800181c:	3718      	adds	r7, #24
 800181e:	46bd      	mov	sp, r7
 8001820:	bd80      	pop	{r7, pc}

08001822 <HAL_NVIC_EnableIRQ>:
  *         This parameter can be an enumerator of IRQn_Type enumeration
  *         (For the complete STM32 Devices IRQ Channels list, please refer to the appropriate CMSIS device file (stm32f4xxxx.h))
  * @retval None
  */
void HAL_NVIC_EnableIRQ(IRQn_Type IRQn)
{
 8001822:	b580      	push	{r7, lr}
 8001824:	b082      	sub	sp, #8
 8001826:	af00      	add	r7, sp, #0
 8001828:	4603      	mov	r3, r0
 800182a:	71fb      	strb	r3, [r7, #7]
  /* Check the parameters */
  assert_param(IS_NVIC_DEVICE_IRQ(IRQn));
  
  /* Enable interrupt */
  NVIC_EnableIRQ(IRQn);
 800182c:	f997 3007 	ldrsb.w	r3, [r7, #7]
 8001830:	4618      	mov	r0, r3
 8001832:	f7ff ff31 	bl	8001698 <__NVIC_EnableIRQ>
}
 8001836:	bf00      	nop
 8001838:	3708      	adds	r7, #8
 800183a:	46bd      	mov	sp, r7
 800183c:	bd80      	pop	{r7, pc}

0800183e <HAL_SYSTICK_Config>:
  * @param  TicksNumb Specifies the ticks Number of ticks between two interrupts.
  * @retval status:  - 0  Function succeeded.
  *                  - 1  Function failed.
  */
uint32_t HAL_SYSTICK_Config(uint32_t TicksNumb)
{
 800183e:	b580      	push	{r7, lr}
 8001840:	b082      	sub	sp, #8
 8001842:	af00      	add	r7, sp, #0
 8001844:	6078      	str	r0, [r7, #4]
   return SysTick_Config(TicksNumb);
 8001846:	6878      	ldr	r0, [r7, #4]
 8001848:	f7ff ffa2 	bl	8001790 <SysTick_Config>
 800184c:	4603      	mov	r3, r0
}
 800184e:	4618      	mov	r0, r3
 8001850:	3708      	adds	r7, #8
 8001852:	46bd      	mov	sp, r7
 8001854:	bd80      	pop	{r7, pc}

08001856 <HAL_DMA_Abort_IT>:
  * @param  hdma   pointer to a DMA_HandleTypeDef structure that contains
  *                 the configuration information for the specified DMA Stream.
  * @retval HAL status
  */
HAL_StatusTypeDef HAL_DMA_Abort_IT(DMA_HandleTypeDef *hdma)
{
 8001856:	b480      	push	{r7}
 8001858:	b083      	sub	sp, #12
 800185a:	af00      	add	r7, sp, #0
 800185c:	6078      	str	r0, [r7, #4]
  if(hdma->State != HAL_DMA_STATE_BUSY)
 800185e:	687b      	ldr	r3, [r7, #4]
 8001860:	f893 3035 	ldrb.w	r3, [r3, #53]	; 0x35
 8001864:	b2db      	uxtb	r3, r3
 8001866:	2b02      	cmp	r3, #2
 8001868:	d004      	beq.n	8001874 <HAL_DMA_Abort_IT+0x1e>
  {
    hdma->ErrorCode = HAL_DMA_ERROR_NO_XFER;
 800186a:	687b      	ldr	r3, [r7, #4]
 800186c:	2280      	movs	r2, #128	; 0x80
 800186e:	655a      	str	r2, [r3, #84]	; 0x54
    return HAL_ERROR;
 8001870:	2301      	movs	r3, #1
 8001872:	e00c      	b.n	800188e <HAL_DMA_Abort_IT+0x38>
  }
  else
  {
    /* Set Abort State  */
    hdma->State = HAL_DMA_STATE_ABORT;
 8001874:	687b      	ldr	r3, [r7, #4]
 8001876:	2205      	movs	r2, #5
 8001878:	f883 2035 	strb.w	r2, [r3, #53]	; 0x35
    
    /* Disable the stream */
    __HAL_DMA_DISABLE(hdma);
 800187c:	687b      	ldr	r3, [r7, #4]
 800187e:	681b      	ldr	r3, [r3, #0]
 8001880:	681a      	ldr	r2, [r3, #0]
 8001882:	687b      	ldr	r3, [r7, #4]
 8001884:	681b      	ldr	r3, [r3, #0]
 8001886:	f022 0201 	bic.w	r2, r2, #1
 800188a:	601a      	str	r2, [r3, #0]
  }

  return HAL_OK;
 800188c:	2300      	movs	r3, #0
}
 800188e:	4618      	mov	r0, r3
 8001890:	370c      	adds	r7, #12
 8001892:	46bd      	mov	sp, r7
 8001894:	f85d 7b04 	ldr.w	r7, [sp], #4
 8001898:	4770      	bx	lr
	...

0800189c <HAL_GPIO_Init>:
  * @param  GPIO_Init pointer to a GPIO_InitTypeDef structure that contains
  *         the configuration information for the specified GPIO peripheral.
  * @retval None
  */
void HAL_GPIO_Init(GPIO_TypeDef  *GPIOx, GPIO_InitTypeDef *GPIO_Init)
{
 800189c:	b480      	push	{r7}
 800189e:	b089      	sub	sp, #36	; 0x24
 80018a0:	af00      	add	r7, sp, #0
 80018a2:	6078      	str	r0, [r7, #4]
 80018a4:	6039      	str	r1, [r7, #0]
  uint32_t position;
  uint32_t ioposition = 0x00U;
 80018a6:	2300      	movs	r3, #0
 80018a8:	617b      	str	r3, [r7, #20]
  uint32_t iocurrent = 0x00U;
 80018aa:	2300      	movs	r3, #0
 80018ac:	613b      	str	r3, [r7, #16]
  uint32_t temp = 0x00U;
 80018ae:	2300      	movs	r3, #0
 80018b0:	61bb      	str	r3, [r7, #24]
  assert_param(IS_GPIO_PIN(GPIO_Init->Pin));
  assert_param(IS_GPIO_MODE(GPIO_Init->Mode));
  assert_param(IS_GPIO_PULL(GPIO_Init->Pull));

  /* Configure the port pins */
  for(position = 0U; position < GPIO_NUMBER; position++)
 80018b2:	2300      	movs	r3, #0
 80018b4:	61fb      	str	r3, [r7, #28]
 80018b6:	e16b      	b.n	8001b90 <HAL_GPIO_Init+0x2f4>
  {
    /* Get the IO position */
    ioposition = 0x01U << position;
 80018b8:	2201      	movs	r2, #1
 80018ba:	69fb      	ldr	r3, [r7, #28]
 80018bc:	fa02 f303 	lsl.w	r3, r2, r3
 80018c0:	617b      	str	r3, [r7, #20]
    /* Get the current IO position */
    iocurrent = (uint32_t)(GPIO_Init->Pin) & ioposition;
 80018c2:	683b      	ldr	r3, [r7, #0]
 80018c4:	681b      	ldr	r3, [r3, #0]
 80018c6:	697a      	ldr	r2, [r7, #20]
 80018c8:	4013      	ands	r3, r2
 80018ca:	613b      	str	r3, [r7, #16]

    if(iocurrent == ioposition)
 80018cc:	693a      	ldr	r2, [r7, #16]
 80018ce:	697b      	ldr	r3, [r7, #20]
 80018d0:	429a      	cmp	r2, r3
 80018d2:	f040 815a 	bne.w	8001b8a <HAL_GPIO_Init+0x2ee>
    {
      /*--------------------- GPIO Mode Configuration ------------------------*/
      /* In case of Output or Alternate function mode selection */
      if((GPIO_Init->Mode == GPIO_MODE_OUTPUT_PP) || (GPIO_Init->Mode == GPIO_MODE_AF_PP) ||
 80018d6:	683b      	ldr	r3, [r7, #0]
 80018d8:	685b      	ldr	r3, [r3, #4]
 80018da:	2b01      	cmp	r3, #1
 80018dc:	d00b      	beq.n	80018f6 <HAL_GPIO_Init+0x5a>
 80018de:	683b      	ldr	r3, [r7, #0]
 80018e0:	685b      	ldr	r3, [r3, #4]
 80018e2:	2b02      	cmp	r3, #2
 80018e4:	d007      	beq.n	80018f6 <HAL_GPIO_Init+0x5a>
         (GPIO_Init->Mode == GPIO_MODE_OUTPUT_OD) || (GPIO_Init->Mode == GPIO_MODE_AF_OD))
 80018e6:	683b      	ldr	r3, [r7, #0]
 80018e8:	685b      	ldr	r3, [r3, #4]
      if((GPIO_Init->Mode == GPIO_MODE_OUTPUT_PP) || (GPIO_Init->Mode == GPIO_MODE_AF_PP) ||
 80018ea:	2b11      	cmp	r3, #17
 80018ec:	d003      	beq.n	80018f6 <HAL_GPIO_Init+0x5a>
         (GPIO_Init->Mode == GPIO_MODE_OUTPUT_OD) || (GPIO_Init->Mode == GPIO_MODE_AF_OD))
 80018ee:	683b      	ldr	r3, [r7, #0]
 80018f0:	685b      	ldr	r3, [r3, #4]
 80018f2:	2b12      	cmp	r3, #18
 80018f4:	d130      	bne.n	8001958 <HAL_GPIO_Init+0xbc>
      {
        /* Check the Speed parameter */
        assert_param(IS_GPIO_SPEED(GPIO_Init->Speed));
        /* Configure the IO Speed */
        temp = GPIOx->OSPEEDR; 
 80018f6:	687b      	ldr	r3, [r7, #4]
 80018f8:	689b      	ldr	r3, [r3, #8]
 80018fa:	61bb      	str	r3, [r7, #24]
        temp &= ~(GPIO_OSPEEDER_OSPEEDR0 << (position * 2U));
 80018fc:	69fb      	ldr	r3, [r7, #28]
 80018fe:	005b      	lsls	r3, r3, #1
 8001900:	2203      	movs	r2, #3
 8001902:	fa02 f303 	lsl.w	r3, r2, r3
 8001906:	43db      	mvns	r3, r3
 8001908:	69ba      	ldr	r2, [r7, #24]
 800190a:	4013      	ands	r3, r2
 800190c:	61bb      	str	r3, [r7, #24]
        temp |= (GPIO_Init->Speed << (position * 2U));
 800190e:	683b      	ldr	r3, [r7, #0]
 8001910:	68da      	ldr	r2, [r3, #12]
 8001912:	69fb      	ldr	r3, [r7, #28]
 8001914:	005b      	lsls	r3, r3, #1
 8001916:	fa02 f303 	lsl.w	r3, r2, r3
 800191a:	69ba      	ldr	r2, [r7, #24]
 800191c:	4313      	orrs	r3, r2
 800191e:	61bb      	str	r3, [r7, #24]
        GPIOx->OSPEEDR = temp;
 8001920:	687b      	ldr	r3, [r7, #4]
 8001922:	69ba      	ldr	r2, [r7, #24]
 8001924:	609a      	str	r2, [r3, #8]

        /* Configure the IO Output Type */
        temp = GPIOx->OTYPER;
 8001926:	687b      	ldr	r3, [r7, #4]
 8001928:	685b      	ldr	r3, [r3, #4]
 800192a:	61bb      	str	r3, [r7, #24]
        temp &= ~(GPIO_OTYPER_OT_0 << position) ;
 800192c:	2201      	movs	r2, #1
 800192e:	69fb      	ldr	r3, [r7, #28]
 8001930:	fa02 f303 	lsl.w	r3, r2, r3
 8001934:	43db      	mvns	r3, r3
 8001936:	69ba      	ldr	r2, [r7, #24]
 8001938:	4013      	ands	r3, r2
 800193a:	61bb      	str	r3, [r7, #24]
        temp |= (((GPIO_Init->Mode & GPIO_OUTPUT_TYPE) >> 4U) << position);
 800193c:	683b      	ldr	r3, [r7, #0]
 800193e:	685b      	ldr	r3, [r3, #4]
 8001940:	091b      	lsrs	r3, r3, #4
 8001942:	f003 0201 	and.w	r2, r3, #1
 8001946:	69fb      	ldr	r3, [r7, #28]
 8001948:	fa02 f303 	lsl.w	r3, r2, r3
 800194c:	69ba      	ldr	r2, [r7, #24]
 800194e:	4313      	orrs	r3, r2
 8001950:	61bb      	str	r3, [r7, #24]
        GPIOx->OTYPER = temp;
 8001952:	687b      	ldr	r3, [r7, #4]
 8001954:	69ba      	ldr	r2, [r7, #24]
 8001956:	605a      	str	r2, [r3, #4]
       }

      /* Activate the Pull-up or Pull down resistor for the current IO */
      temp = GPIOx->PUPDR;
 8001958:	687b      	ldr	r3, [r7, #4]
 800195a:	68db      	ldr	r3, [r3, #12]
 800195c:	61bb      	str	r3, [r7, #24]
      temp &= ~(GPIO_PUPDR_PUPDR0 << (position * 2U));
 800195e:	69fb      	ldr	r3, [r7, #28]
 8001960:	005b      	lsls	r3, r3, #1
 8001962:	2203      	movs	r2, #3
 8001964:	fa02 f303 	lsl.w	r3, r2, r3
 8001968:	43db      	mvns	r3, r3
 800196a:	69ba      	ldr	r2, [r7, #24]
 800196c:	4013      	ands	r3, r2
 800196e:	61bb      	str	r3, [r7, #24]
      temp |= ((GPIO_Init->Pull) << (position * 2U));
 8001970:	683b      	ldr	r3, [r7, #0]
 8001972:	689a      	ldr	r2, [r3, #8]
 8001974:	69fb      	ldr	r3, [r7, #28]
 8001976:	005b      	lsls	r3, r3, #1
 8001978:	fa02 f303 	lsl.w	r3, r2, r3
 800197c:	69ba      	ldr	r2, [r7, #24]
 800197e:	4313      	orrs	r3, r2
 8001980:	61bb      	str	r3, [r7, #24]
      GPIOx->PUPDR = temp;
 8001982:	687b      	ldr	r3, [r7, #4]
 8001984:	69ba      	ldr	r2, [r7, #24]
 8001986:	60da      	str	r2, [r3, #12]

      /* In case of Alternate function mode selection */
      if((GPIO_Init->Mode == GPIO_MODE_AF_PP) || (GPIO_Init->Mode == GPIO_MODE_AF_OD))
 8001988:	683b      	ldr	r3, [r7, #0]
 800198a:	685b      	ldr	r3, [r3, #4]
 800198c:	2b02      	cmp	r3, #2
 800198e:	d003      	beq.n	8001998 <HAL_GPIO_Init+0xfc>
 8001990:	683b      	ldr	r3, [r7, #0]
 8001992:	685b      	ldr	r3, [r3, #4]
 8001994:	2b12      	cmp	r3, #18
 8001996:	d123      	bne.n	80019e0 <HAL_GPIO_Init+0x144>
      {
        /* Check the Alternate function parameter */
        assert_param(IS_GPIO_AF(GPIO_Init->Alternate));
        /* Configure Alternate function mapped with the current IO */
        temp = GPIOx->AFR[position >> 3U];
 8001998:	69fb      	ldr	r3, [r7, #28]
 800199a:	08da      	lsrs	r2, r3, #3
 800199c:	687b      	ldr	r3, [r7, #4]
 800199e:	3208      	adds	r2, #8
 80019a0:	f853 3022 	ldr.w	r3, [r3, r2, lsl #2]
 80019a4:	61bb      	str	r3, [r7, #24]
        temp &= ~(0xFU << ((uint32_t)(position & 0x07U) * 4U)) ;
 80019a6:	69fb      	ldr	r3, [r7, #28]
 80019a8:	f003 0307 	and.w	r3, r3, #7
 80019ac:	009b      	lsls	r3, r3, #2
 80019ae:	220f      	movs	r2, #15
 80019b0:	fa02 f303 	lsl.w	r3, r2, r3
 80019b4:	43db      	mvns	r3, r3
 80019b6:	69ba      	ldr	r2, [r7, #24]
 80019b8:	4013      	ands	r3, r2
 80019ba:	61bb      	str	r3, [r7, #24]
        temp |= ((uint32_t)(GPIO_Init->Alternate) << (((uint32_t)position & 0x07U) * 4U));
 80019bc:	683b      	ldr	r3, [r7, #0]
 80019be:	691a      	ldr	r2, [r3, #16]
 80019c0:	69fb      	ldr	r3, [r7, #28]
 80019c2:	f003 0307 	and.w	r3, r3, #7
 80019c6:	009b      	lsls	r3, r3, #2
 80019c8:	fa02 f303 	lsl.w	r3, r2, r3
 80019cc:	69ba      	ldr	r2, [r7, #24]
 80019ce:	4313      	orrs	r3, r2
 80019d0:	61bb      	str	r3, [r7, #24]
        GPIOx->AFR[position >> 3U] = temp;
 80019d2:	69fb      	ldr	r3, [r7, #28]
 80019d4:	08da      	lsrs	r2, r3, #3
 80019d6:	687b      	ldr	r3, [r7, #4]
 80019d8:	3208      	adds	r2, #8
 80019da:	69b9      	ldr	r1, [r7, #24]
 80019dc:	f843 1022 	str.w	r1, [r3, r2, lsl #2]
      }

      /* Configure IO Direction mode (Input, Output, Alternate or Analog) */
      temp = GPIOx->MODER;
 80019e0:	687b      	ldr	r3, [r7, #4]
 80019e2:	681b      	ldr	r3, [r3, #0]
 80019e4:	61bb      	str	r3, [r7, #24]
      temp &= ~(GPIO_MODER_MODER0 << (position * 2U));
 80019e6:	69fb      	ldr	r3, [r7, #28]
 80019e8:	005b      	lsls	r3, r3, #1
 80019ea:	2203      	movs	r2, #3
 80019ec:	fa02 f303 	lsl.w	r3, r2, r3
 80019f0:	43db      	mvns	r3, r3
 80019f2:	69ba      	ldr	r2, [r7, #24]
 80019f4:	4013      	ands	r3, r2
 80019f6:	61bb      	str	r3, [r7, #24]
      temp |= ((GPIO_Init->Mode & GPIO_MODE) << (position * 2U));
 80019f8:	683b      	ldr	r3, [r7, #0]
 80019fa:	685b      	ldr	r3, [r3, #4]
 80019fc:	f003 0203 	and.w	r2, r3, #3
 8001a00:	69fb      	ldr	r3, [r7, #28]
 8001a02:	005b      	lsls	r3, r3, #1
 8001a04:	fa02 f303 	lsl.w	r3, r2, r3
 8001a08:	69ba      	ldr	r2, [r7, #24]
 8001a0a:	4313      	orrs	r3, r2
 8001a0c:	61bb      	str	r3, [r7, #24]
      GPIOx->MODER = temp;
 8001a0e:	687b      	ldr	r3, [r7, #4]
 8001a10:	69ba      	ldr	r2, [r7, #24]
 8001a12:	601a      	str	r2, [r3, #0]

      /*--------------------- EXTI Mode Configuration ------------------------*/
      /* Configure the External Interrupt or event for the current IO */
      if((GPIO_Init->Mode & EXTI_MODE) == EXTI_MODE)
 8001a14:	683b      	ldr	r3, [r7, #0]
 8001a16:	685b      	ldr	r3, [r3, #4]
 8001a18:	f003 5380 	and.w	r3, r3, #268435456	; 0x10000000
 8001a1c:	2b00      	cmp	r3, #0
 8001a1e:	f000 80b4 	beq.w	8001b8a <HAL_GPIO_Init+0x2ee>
      {
        /* Enable SYSCFG Clock */
        __HAL_RCC_SYSCFG_CLK_ENABLE();
 8001a22:	2300      	movs	r3, #0
 8001a24:	60fb      	str	r3, [r7, #12]
 8001a26:	4b5f      	ldr	r3, [pc, #380]	; (8001ba4 <HAL_GPIO_Init+0x308>)
 8001a28:	6c5b      	ldr	r3, [r3, #68]	; 0x44
 8001a2a:	4a5e      	ldr	r2, [pc, #376]	; (8001ba4 <HAL_GPIO_Init+0x308>)
 8001a2c:	f443 4380 	orr.w	r3, r3, #16384	; 0x4000
 8001a30:	6453      	str	r3, [r2, #68]	; 0x44
 8001a32:	4b5c      	ldr	r3, [pc, #368]	; (8001ba4 <HAL_GPIO_Init+0x308>)
 8001a34:	6c5b      	ldr	r3, [r3, #68]	; 0x44
 8001a36:	f403 4380 	and.w	r3, r3, #16384	; 0x4000
 8001a3a:	60fb      	str	r3, [r7, #12]
 8001a3c:	68fb      	ldr	r3, [r7, #12]

        temp = SYSCFG->EXTICR[position >> 2U];
 8001a3e:	4a5a      	ldr	r2, [pc, #360]	; (8001ba8 <HAL_GPIO_Init+0x30c>)
 8001a40:	69fb      	ldr	r3, [r7, #28]
 8001a42:	089b      	lsrs	r3, r3, #2
 8001a44:	3302      	adds	r3, #2
 8001a46:	f852 3023 	ldr.w	r3, [r2, r3, lsl #2]
 8001a4a:	61bb      	str	r3, [r7, #24]
        temp &= ~(0x0FU << (4U * (position & 0x03U)));
 8001a4c:	69fb      	ldr	r3, [r7, #28]
 8001a4e:	f003 0303 	and.w	r3, r3, #3
 8001a52:	009b      	lsls	r3, r3, #2
 8001a54:	220f      	movs	r2, #15
 8001a56:	fa02 f303 	lsl.w	r3, r2, r3
 8001a5a:	43db      	mvns	r3, r3
 8001a5c:	69ba      	ldr	r2, [r7, #24]
 8001a5e:	4013      	ands	r3, r2
 8001a60:	61bb      	str	r3, [r7, #24]
        temp |= ((uint32_t)(GPIO_GET_INDEX(GPIOx)) << (4U * (position & 0x03U)));
 8001a62:	687b      	ldr	r3, [r7, #4]
 8001a64:	4a51      	ldr	r2, [pc, #324]	; (8001bac <HAL_GPIO_Init+0x310>)
 8001a66:	4293      	cmp	r3, r2
 8001a68:	d02b      	beq.n	8001ac2 <HAL_GPIO_Init+0x226>
 8001a6a:	687b      	ldr	r3, [r7, #4]
 8001a6c:	4a50      	ldr	r2, [pc, #320]	; (8001bb0 <HAL_GPIO_Init+0x314>)
 8001a6e:	4293      	cmp	r3, r2
 8001a70:	d025      	beq.n	8001abe <HAL_GPIO_Init+0x222>
 8001a72:	687b      	ldr	r3, [r7, #4]
 8001a74:	4a4f      	ldr	r2, [pc, #316]	; (8001bb4 <HAL_GPIO_Init+0x318>)
 8001a76:	4293      	cmp	r3, r2
 8001a78:	d01f      	beq.n	8001aba <HAL_GPIO_Init+0x21e>
 8001a7a:	687b      	ldr	r3, [r7, #4]
 8001a7c:	4a4e      	ldr	r2, [pc, #312]	; (8001bb8 <HAL_GPIO_Init+0x31c>)
 8001a7e:	4293      	cmp	r3, r2
 8001a80:	d019      	beq.n	8001ab6 <HAL_GPIO_Init+0x21a>
 8001a82:	687b      	ldr	r3, [r7, #4]
 8001a84:	4a4d      	ldr	r2, [pc, #308]	; (8001bbc <HAL_GPIO_Init+0x320>)
 8001a86:	4293      	cmp	r3, r2
 8001a88:	d013      	beq.n	8001ab2 <HAL_GPIO_Init+0x216>
 8001a8a:	687b      	ldr	r3, [r7, #4]
 8001a8c:	4a4c      	ldr	r2, [pc, #304]	; (8001bc0 <HAL_GPIO_Init+0x324>)
 8001a8e:	4293      	cmp	r3, r2
 8001a90:	d00d      	beq.n	8001aae <HAL_GPIO_Init+0x212>
 8001a92:	687b      	ldr	r3, [r7, #4]
 8001a94:	4a4b      	ldr	r2, [pc, #300]	; (8001bc4 <HAL_GPIO_Init+0x328>)
 8001a96:	4293      	cmp	r3, r2
 8001a98:	d007      	beq.n	8001aaa <HAL_GPIO_Init+0x20e>
 8001a9a:	687b      	ldr	r3, [r7, #4]
 8001a9c:	4a4a      	ldr	r2, [pc, #296]	; (8001bc8 <HAL_GPIO_Init+0x32c>)
 8001a9e:	4293      	cmp	r3, r2
 8001aa0:	d101      	bne.n	8001aa6 <HAL_GPIO_Init+0x20a>
 8001aa2:	2307      	movs	r3, #7
 8001aa4:	e00e      	b.n	8001ac4 <HAL_GPIO_Init+0x228>
 8001aa6:	2308      	movs	r3, #8
 8001aa8:	e00c      	b.n	8001ac4 <HAL_GPIO_Init+0x228>
 8001aaa:	2306      	movs	r3, #6
 8001aac:	e00a      	b.n	8001ac4 <HAL_GPIO_Init+0x228>
 8001aae:	2305      	movs	r3, #5
 8001ab0:	e008      	b.n	8001ac4 <HAL_GPIO_Init+0x228>
 8001ab2:	2304      	movs	r3, #4
 8001ab4:	e006      	b.n	8001ac4 <HAL_GPIO_Init+0x228>
 8001ab6:	2303      	movs	r3, #3
 8001ab8:	e004      	b.n	8001ac4 <HAL_GPIO_Init+0x228>
 8001aba:	2302      	movs	r3, #2
 8001abc:	e002      	b.n	8001ac4 <HAL_GPIO_Init+0x228>
 8001abe:	2301      	movs	r3, #1
 8001ac0:	e000      	b.n	8001ac4 <HAL_GPIO_Init+0x228>
 8001ac2:	2300      	movs	r3, #0
 8001ac4:	69fa      	ldr	r2, [r7, #28]
 8001ac6:	f002 0203 	and.w	r2, r2, #3
 8001aca:	0092      	lsls	r2, r2, #2
 8001acc:	4093      	lsls	r3, r2
 8001ace:	69ba      	ldr	r2, [r7, #24]
 8001ad0:	4313      	orrs	r3, r2
 8001ad2:	61bb      	str	r3, [r7, #24]
        SYSCFG->EXTICR[position >> 2U] = temp;
 8001ad4:	4934      	ldr	r1, [pc, #208]	; (8001ba8 <HAL_GPIO_Init+0x30c>)
 8001ad6:	69fb      	ldr	r3, [r7, #28]
 8001ad8:	089b      	lsrs	r3, r3, #2
 8001ada:	3302      	adds	r3, #2
 8001adc:	69ba      	ldr	r2, [r7, #24]
 8001ade:	f841 2023 	str.w	r2, [r1, r3, lsl #2]

        /* Clear EXTI line configuration */
        temp = EXTI->IMR;
 8001ae2:	4b3a      	ldr	r3, [pc, #232]	; (8001bcc <HAL_GPIO_Init+0x330>)
 8001ae4:	681b      	ldr	r3, [r3, #0]
 8001ae6:	61bb      	str	r3, [r7, #24]
        temp &= ~((uint32_t)iocurrent);
 8001ae8:	693b      	ldr	r3, [r7, #16]
 8001aea:	43db      	mvns	r3, r3
 8001aec:	69ba      	ldr	r2, [r7, #24]
 8001aee:	4013      	ands	r3, r2
 8001af0:	61bb      	str	r3, [r7, #24]
        if((GPIO_Init->Mode & GPIO_MODE_IT) == GPIO_MODE_IT)
 8001af2:	683b      	ldr	r3, [r7, #0]
 8001af4:	685b      	ldr	r3, [r3, #4]
 8001af6:	f403 3380 	and.w	r3, r3, #65536	; 0x10000
 8001afa:	2b00      	cmp	r3, #0
 8001afc:	d003      	beq.n	8001b06 <HAL_GPIO_Init+0x26a>
        {
          temp |= iocurrent;
 8001afe:	69ba      	ldr	r2, [r7, #24]
 8001b00:	693b      	ldr	r3, [r7, #16]
 8001b02:	4313      	orrs	r3, r2
 8001b04:	61bb      	str	r3, [r7, #24]
        }
        EXTI->IMR = temp;
 8001b06:	4a31      	ldr	r2, [pc, #196]	; (8001bcc <HAL_GPIO_Init+0x330>)
 8001b08:	69bb      	ldr	r3, [r7, #24]
 8001b0a:	6013      	str	r3, [r2, #0]

        temp = EXTI->EMR;
 8001b0c:	4b2f      	ldr	r3, [pc, #188]	; (8001bcc <HAL_GPIO_Init+0x330>)
 8001b0e:	685b      	ldr	r3, [r3, #4]
 8001b10:	61bb      	str	r3, [r7, #24]
        temp &= ~((uint32_t)iocurrent);
 8001b12:	693b      	ldr	r3, [r7, #16]
 8001b14:	43db      	mvns	r3, r3
 8001b16:	69ba      	ldr	r2, [r7, #24]
 8001b18:	4013      	ands	r3, r2
 8001b1a:	61bb      	str	r3, [r7, #24]
        if((GPIO_Init->Mode & GPIO_MODE_EVT) == GPIO_MODE_EVT)
 8001b1c:	683b      	ldr	r3, [r7, #0]
 8001b1e:	685b      	ldr	r3, [r3, #4]
 8001b20:	f403 3300 	and.w	r3, r3, #131072	; 0x20000
 8001b24:	2b00      	cmp	r3, #0
 8001b26:	d003      	beq.n	8001b30 <HAL_GPIO_Init+0x294>
        {
          temp |= iocurrent;
 8001b28:	69ba      	ldr	r2, [r7, #24]
 8001b2a:	693b      	ldr	r3, [r7, #16]
 8001b2c:	4313      	orrs	r3, r2
 8001b2e:	61bb      	str	r3, [r7, #24]
        }
        EXTI->EMR = temp;
 8001b30:	4a26      	ldr	r2, [pc, #152]	; (8001bcc <HAL_GPIO_Init+0x330>)
 8001b32:	69bb      	ldr	r3, [r7, #24]
 8001b34:	6053      	str	r3, [r2, #4]

        /* Clear Rising Falling edge configuration */
        temp = EXTI->RTSR;
 8001b36:	4b25      	ldr	r3, [pc, #148]	; (8001bcc <HAL_GPIO_Init+0x330>)
 8001b38:	689b      	ldr	r3, [r3, #8]
 8001b3a:	61bb      	str	r3, [r7, #24]
        temp &= ~((uint32_t)iocurrent);
 8001b3c:	693b      	ldr	r3, [r7, #16]
 8001b3e:	43db      	mvns	r3, r3
 8001b40:	69ba      	ldr	r2, [r7, #24]
 8001b42:	4013      	ands	r3, r2
 8001b44:	61bb      	str	r3, [r7, #24]
        if((GPIO_Init->Mode & RISING_EDGE) == RISING_EDGE)
 8001b46:	683b      	ldr	r3, [r7, #0]
 8001b48:	685b      	ldr	r3, [r3, #4]
 8001b4a:	f403 1380 	and.w	r3, r3, #1048576	; 0x100000
 8001b4e:	2b00      	cmp	r3, #0
 8001b50:	d003      	beq.n	8001b5a <HAL_GPIO_Init+0x2be>
        {
          temp |= iocurrent;
 8001b52:	69ba      	ldr	r2, [r7, #24]
 8001b54:	693b      	ldr	r3, [r7, #16]
 8001b56:	4313      	orrs	r3, r2
 8001b58:	61bb      	str	r3, [r7, #24]
        }
        EXTI->RTSR = temp;
 8001b5a:	4a1c      	ldr	r2, [pc, #112]	; (8001bcc <HAL_GPIO_Init+0x330>)
 8001b5c:	69bb      	ldr	r3, [r7, #24]
 8001b5e:	6093      	str	r3, [r2, #8]

        temp = EXTI->FTSR;
 8001b60:	4b1a      	ldr	r3, [pc, #104]	; (8001bcc <HAL_GPIO_Init+0x330>)
 8001b62:	68db      	ldr	r3, [r3, #12]
 8001b64:	61bb      	str	r3, [r7, #24]
        temp &= ~((uint32_t)iocurrent);
 8001b66:	693b      	ldr	r3, [r7, #16]
 8001b68:	43db      	mvns	r3, r3
 8001b6a:	69ba      	ldr	r2, [r7, #24]
 8001b6c:	4013      	ands	r3, r2
 8001b6e:	61bb      	str	r3, [r7, #24]
        if((GPIO_Init->Mode & FALLING_EDGE) == FALLING_EDGE)
 8001b70:	683b      	ldr	r3, [r7, #0]
 8001b72:	685b      	ldr	r3, [r3, #4]
 8001b74:	f403 1300 	and.w	r3, r3, #2097152	; 0x200000
 8001b78:	2b00      	cmp	r3, #0
 8001b7a:	d003      	beq.n	8001b84 <HAL_GPIO_Init+0x2e8>
        {
          temp |= iocurrent;
 8001b7c:	69ba      	ldr	r2, [r7, #24]
 8001b7e:	693b      	ldr	r3, [r7, #16]
 8001b80:	4313      	orrs	r3, r2
 8001b82:	61bb      	str	r3, [r7, #24]
        }
        EXTI->FTSR = temp;
 8001b84:	4a11      	ldr	r2, [pc, #68]	; (8001bcc <HAL_GPIO_Init+0x330>)
 8001b86:	69bb      	ldr	r3, [r7, #24]
 8001b88:	60d3      	str	r3, [r2, #12]
  for(position = 0U; position < GPIO_NUMBER; position++)
 8001b8a:	69fb      	ldr	r3, [r7, #28]
 8001b8c:	3301      	adds	r3, #1
 8001b8e:	61fb      	str	r3, [r7, #28]
 8001b90:	69fb      	ldr	r3, [r7, #28]
 8001b92:	2b0f      	cmp	r3, #15
 8001b94:	f67f ae90 	bls.w	80018b8 <HAL_GPIO_Init+0x1c>
      }
    }
  }
}
 8001b98:	bf00      	nop
 8001b9a:	3724      	adds	r7, #36	; 0x24
 8001b9c:	46bd      	mov	sp, r7
 8001b9e:	f85d 7b04 	ldr.w	r7, [sp], #4
 8001ba2:	4770      	bx	lr
 8001ba4:	40023800 	.word	0x40023800
 8001ba8:	40013800 	.word	0x40013800
 8001bac:	40020000 	.word	0x40020000
 8001bb0:	40020400 	.word	0x40020400
 8001bb4:	40020800 	.word	0x40020800
 8001bb8:	40020c00 	.word	0x40020c00
 8001bbc:	40021000 	.word	0x40021000
 8001bc0:	40021400 	.word	0x40021400
 8001bc4:	40021800 	.word	0x40021800
 8001bc8:	40021c00 	.word	0x40021c00
 8001bcc:	40013c00 	.word	0x40013c00

08001bd0 <HAL_GPIO_WritePin>:
  *            @arg GPIO_PIN_RESET: to clear the port pin
  *            @arg GPIO_PIN_SET: to set the port pin
  * @retval None
  */
void HAL_GPIO_WritePin(GPIO_TypeDef* GPIOx, uint16_t GPIO_Pin, GPIO_PinState PinState)
{
 8001bd0:	b480      	push	{r7}
 8001bd2:	b083      	sub	sp, #12
 8001bd4:	af00      	add	r7, sp, #0
 8001bd6:	6078      	str	r0, [r7, #4]
 8001bd8:	460b      	mov	r3, r1
 8001bda:	807b      	strh	r3, [r7, #2]
 8001bdc:	4613      	mov	r3, r2
 8001bde:	707b      	strb	r3, [r7, #1]
  /* Check the parameters */
  assert_param(IS_GPIO_PIN(GPIO_Pin));
  assert_param(IS_GPIO_PIN_ACTION(PinState));

  if(PinState != GPIO_PIN_RESET)
 8001be0:	787b      	ldrb	r3, [r7, #1]
 8001be2:	2b00      	cmp	r3, #0
 8001be4:	d003      	beq.n	8001bee <HAL_GPIO_WritePin+0x1e>
  {
    GPIOx->BSRR = GPIO_Pin;
 8001be6:	887a      	ldrh	r2, [r7, #2]
 8001be8:	687b      	ldr	r3, [r7, #4]
 8001bea:	619a      	str	r2, [r3, #24]
  }
  else
  {
    GPIOx->BSRR = (uint32_t)GPIO_Pin << 16U;
  }
}
 8001bec:	e003      	b.n	8001bf6 <HAL_GPIO_WritePin+0x26>
    GPIOx->BSRR = (uint32_t)GPIO_Pin << 16U;
 8001bee:	887b      	ldrh	r3, [r7, #2]
 8001bf0:	041a      	lsls	r2, r3, #16
 8001bf2:	687b      	ldr	r3, [r7, #4]
 8001bf4:	619a      	str	r2, [r3, #24]
}
 8001bf6:	bf00      	nop
 8001bf8:	370c      	adds	r7, #12
 8001bfa:	46bd      	mov	sp, r7
 8001bfc:	f85d 7b04 	ldr.w	r7, [sp], #4
 8001c00:	4770      	bx	lr
	...

08001c04 <HAL_RCC_OscConfig>:
  *         supported by this API. User should request a transition to HSE Off
  *         first and then HSE On or HSE Bypass.
  * @retval HAL status
  */
__weak HAL_StatusTypeDef HAL_RCC_OscConfig(RCC_OscInitTypeDef  *RCC_OscInitStruct)
{
 8001c04:	b580      	push	{r7, lr}
 8001c06:	b086      	sub	sp, #24
 8001c08:	af00      	add	r7, sp, #0
 8001c0a:	6078      	str	r0, [r7, #4]
  uint32_t tickstart, pll_config;

  /* Check Null pointer */
  if(RCC_OscInitStruct == NULL)
 8001c0c:	687b      	ldr	r3, [r7, #4]
 8001c0e:	2b00      	cmp	r3, #0
 8001c10:	d101      	bne.n	8001c16 <HAL_RCC_OscConfig+0x12>
  {
    return HAL_ERROR;
 8001c12:	2301      	movs	r3, #1
 8001c14:	e25b      	b.n	80020ce <HAL_RCC_OscConfig+0x4ca>
  }

  /* Check the parameters */
  assert_param(IS_RCC_OSCILLATORTYPE(RCC_OscInitStruct->OscillatorType));
  /*------------------------------- HSE Configuration ------------------------*/
  if(((RCC_OscInitStruct->OscillatorType) & RCC_OSCILLATORTYPE_HSE) == RCC_OSCILLATORTYPE_HSE)
 8001c16:	687b      	ldr	r3, [r7, #4]
 8001c18:	681b      	ldr	r3, [r3, #0]
 8001c1a:	f003 0301 	and.w	r3, r3, #1
 8001c1e:	2b00      	cmp	r3, #0
 8001c20:	d075      	beq.n	8001d0e <HAL_RCC_OscConfig+0x10a>
  {
    /* Check the parameters */
    assert_param(IS_RCC_HSE(RCC_OscInitStruct->HSEState));
    /* When the HSE is used as system clock or clock source for PLL in these cases HSE will not disabled */
    if((__HAL_RCC_GET_SYSCLK_SOURCE() == RCC_CFGR_SWS_HSE) ||\
 8001c22:	4ba3      	ldr	r3, [pc, #652]	; (8001eb0 <HAL_RCC_OscConfig+0x2ac>)
 8001c24:	689b      	ldr	r3, [r3, #8]
 8001c26:	f003 030c 	and.w	r3, r3, #12
 8001c2a:	2b04      	cmp	r3, #4
 8001c2c:	d00c      	beq.n	8001c48 <HAL_RCC_OscConfig+0x44>
      ((__HAL_RCC_GET_SYSCLK_SOURCE() == RCC_CFGR_SWS_PLL) && ((RCC->PLLCFGR & RCC_PLLCFGR_PLLSRC) == RCC_PLLCFGR_PLLSRC_HSE)))
 8001c2e:	4ba0      	ldr	r3, [pc, #640]	; (8001eb0 <HAL_RCC_OscConfig+0x2ac>)
 8001c30:	689b      	ldr	r3, [r3, #8]
 8001c32:	f003 030c 	and.w	r3, r3, #12
    if((__HAL_RCC_GET_SYSCLK_SOURCE() == RCC_CFGR_SWS_HSE) ||\
 8001c36:	2b08      	cmp	r3, #8
 8001c38:	d112      	bne.n	8001c60 <HAL_RCC_OscConfig+0x5c>
      ((__HAL_RCC_GET_SYSCLK_SOURCE() == RCC_CFGR_SWS_PLL) && ((RCC->PLLCFGR & RCC_PLLCFGR_PLLSRC) == RCC_PLLCFGR_PLLSRC_HSE)))
 8001c3a:	4b9d      	ldr	r3, [pc, #628]	; (8001eb0 <HAL_RCC_OscConfig+0x2ac>)
 8001c3c:	685b      	ldr	r3, [r3, #4]
 8001c3e:	f403 0380 	and.w	r3, r3, #4194304	; 0x400000
 8001c42:	f5b3 0f80 	cmp.w	r3, #4194304	; 0x400000
 8001c46:	d10b      	bne.n	8001c60 <HAL_RCC_OscConfig+0x5c>
    {
      if((__HAL_RCC_GET_FLAG(RCC_FLAG_HSERDY) != RESET) && (RCC_OscInitStruct->HSEState == RCC_HSE_OFF))
 8001c48:	4b99      	ldr	r3, [pc, #612]	; (8001eb0 <HAL_RCC_OscConfig+0x2ac>)
 8001c4a:	681b      	ldr	r3, [r3, #0]
 8001c4c:	f403 3300 	and.w	r3, r3, #131072	; 0x20000
 8001c50:	2b00      	cmp	r3, #0
 8001c52:	d05b      	beq.n	8001d0c <HAL_RCC_OscConfig+0x108>
 8001c54:	687b      	ldr	r3, [r7, #4]
 8001c56:	685b      	ldr	r3, [r3, #4]
 8001c58:	2b00      	cmp	r3, #0
 8001c5a:	d157      	bne.n	8001d0c <HAL_RCC_OscConfig+0x108>
      {
        return HAL_ERROR;
 8001c5c:	2301      	movs	r3, #1
 8001c5e:	e236      	b.n	80020ce <HAL_RCC_OscConfig+0x4ca>
      }
    }
    else
    {
      /* Set the new HSE configuration ---------------------------------------*/
      __HAL_RCC_HSE_CONFIG(RCC_OscInitStruct->HSEState);
 8001c60:	687b      	ldr	r3, [r7, #4]
 8001c62:	685b      	ldr	r3, [r3, #4]
 8001c64:	f5b3 3f80 	cmp.w	r3, #65536	; 0x10000
 8001c68:	d106      	bne.n	8001c78 <HAL_RCC_OscConfig+0x74>
 8001c6a:	4b91      	ldr	r3, [pc, #580]	; (8001eb0 <HAL_RCC_OscConfig+0x2ac>)
 8001c6c:	681b      	ldr	r3, [r3, #0]
 8001c6e:	4a90      	ldr	r2, [pc, #576]	; (8001eb0 <HAL_RCC_OscConfig+0x2ac>)
 8001c70:	f443 3380 	orr.w	r3, r3, #65536	; 0x10000
 8001c74:	6013      	str	r3, [r2, #0]
 8001c76:	e01d      	b.n	8001cb4 <HAL_RCC_OscConfig+0xb0>
 8001c78:	687b      	ldr	r3, [r7, #4]
 8001c7a:	685b      	ldr	r3, [r3, #4]
 8001c7c:	f5b3 2fa0 	cmp.w	r3, #327680	; 0x50000
 8001c80:	d10c      	bne.n	8001c9c <HAL_RCC_OscConfig+0x98>
 8001c82:	4b8b      	ldr	r3, [pc, #556]	; (8001eb0 <HAL_RCC_OscConfig+0x2ac>)
 8001c84:	681b      	ldr	r3, [r3, #0]
 8001c86:	4a8a      	ldr	r2, [pc, #552]	; (8001eb0 <HAL_RCC_OscConfig+0x2ac>)
 8001c88:	f443 2380 	orr.w	r3, r3, #262144	; 0x40000
 8001c8c:	6013      	str	r3, [r2, #0]
 8001c8e:	4b88      	ldr	r3, [pc, #544]	; (8001eb0 <HAL_RCC_OscConfig+0x2ac>)
 8001c90:	681b      	ldr	r3, [r3, #0]
 8001c92:	4a87      	ldr	r2, [pc, #540]	; (8001eb0 <HAL_RCC_OscConfig+0x2ac>)
 8001c94:	f443 3380 	orr.w	r3, r3, #65536	; 0x10000
 8001c98:	6013      	str	r3, [r2, #0]
 8001c9a:	e00b      	b.n	8001cb4 <HAL_RCC_OscConfig+0xb0>
 8001c9c:	4b84      	ldr	r3, [pc, #528]	; (8001eb0 <HAL_RCC_OscConfig+0x2ac>)
 8001c9e:	681b      	ldr	r3, [r3, #0]
 8001ca0:	4a83      	ldr	r2, [pc, #524]	; (8001eb0 <HAL_RCC_OscConfig+0x2ac>)
 8001ca2:	f423 3380 	bic.w	r3, r3, #65536	; 0x10000
 8001ca6:	6013      	str	r3, [r2, #0]
 8001ca8:	4b81      	ldr	r3, [pc, #516]	; (8001eb0 <HAL_RCC_OscConfig+0x2ac>)
 8001caa:	681b      	ldr	r3, [r3, #0]
 8001cac:	4a80      	ldr	r2, [pc, #512]	; (8001eb0 <HAL_RCC_OscConfig+0x2ac>)
 8001cae:	f423 2380 	bic.w	r3, r3, #262144	; 0x40000
 8001cb2:	6013      	str	r3, [r2, #0]

      /* Check the HSE State */
      if((RCC_OscInitStruct->HSEState) != RCC_HSE_OFF)
 8001cb4:	687b      	ldr	r3, [r7, #4]
 8001cb6:	685b      	ldr	r3, [r3, #4]
 8001cb8:	2b00      	cmp	r3, #0
 8001cba:	d013      	beq.n	8001ce4 <HAL_RCC_OscConfig+0xe0>
      {
        /* Get Start Tick */
        tickstart = HAL_GetTick();
 8001cbc:	f7ff f854 	bl	8000d68 <HAL_GetTick>
 8001cc0:	6138      	str	r0, [r7, #16]

        /* Wait till HSE is ready */
        while(__HAL_RCC_GET_FLAG(RCC_FLAG_HSERDY) == RESET)
 8001cc2:	e008      	b.n	8001cd6 <HAL_RCC_OscConfig+0xd2>
        {
          if((HAL_GetTick() - tickstart ) > HSE_TIMEOUT_VALUE)
 8001cc4:	f7ff f850 	bl	8000d68 <HAL_GetTick>
 8001cc8:	4602      	mov	r2, r0
 8001cca:	693b      	ldr	r3, [r7, #16]
 8001ccc:	1ad3      	subs	r3, r2, r3
 8001cce:	2b64      	cmp	r3, #100	; 0x64
 8001cd0:	d901      	bls.n	8001cd6 <HAL_RCC_OscConfig+0xd2>
          {
            return HAL_TIMEOUT;
 8001cd2:	2303      	movs	r3, #3
 8001cd4:	e1fb      	b.n	80020ce <HAL_RCC_OscConfig+0x4ca>
        while(__HAL_RCC_GET_FLAG(RCC_FLAG_HSERDY) == RESET)
 8001cd6:	4b76      	ldr	r3, [pc, #472]	; (8001eb0 <HAL_RCC_OscConfig+0x2ac>)
 8001cd8:	681b      	ldr	r3, [r3, #0]
 8001cda:	f403 3300 	and.w	r3, r3, #131072	; 0x20000
 8001cde:	2b00      	cmp	r3, #0
 8001ce0:	d0f0      	beq.n	8001cc4 <HAL_RCC_OscConfig+0xc0>
 8001ce2:	e014      	b.n	8001d0e <HAL_RCC_OscConfig+0x10a>
        }
      }
      else
      {
        /* Get Start Tick */
        tickstart = HAL_GetTick();
 8001ce4:	f7ff f840 	bl	8000d68 <HAL_GetTick>
 8001ce8:	6138      	str	r0, [r7, #16]

        /* Wait till HSE is bypassed or disabled */
        while(__HAL_RCC_GET_FLAG(RCC_FLAG_HSERDY) != RESET)
 8001cea:	e008      	b.n	8001cfe <HAL_RCC_OscConfig+0xfa>
        {
          if((HAL_GetTick() - tickstart ) > HSE_TIMEOUT_VALUE)
 8001cec:	f7ff f83c 	bl	8000d68 <HAL_GetTick>
 8001cf0:	4602      	mov	r2, r0
 8001cf2:	693b      	ldr	r3, [r7, #16]
 8001cf4:	1ad3      	subs	r3, r2, r3
 8001cf6:	2b64      	cmp	r3, #100	; 0x64
 8001cf8:	d901      	bls.n	8001cfe <HAL_RCC_OscConfig+0xfa>
          {
            return HAL_TIMEOUT;
 8001cfa:	2303      	movs	r3, #3
 8001cfc:	e1e7      	b.n	80020ce <HAL_RCC_OscConfig+0x4ca>
        while(__HAL_RCC_GET_FLAG(RCC_FLAG_HSERDY) != RESET)
 8001cfe:	4b6c      	ldr	r3, [pc, #432]	; (8001eb0 <HAL_RCC_OscConfig+0x2ac>)
 8001d00:	681b      	ldr	r3, [r3, #0]
 8001d02:	f403 3300 	and.w	r3, r3, #131072	; 0x20000
 8001d06:	2b00      	cmp	r3, #0
 8001d08:	d1f0      	bne.n	8001cec <HAL_RCC_OscConfig+0xe8>
 8001d0a:	e000      	b.n	8001d0e <HAL_RCC_OscConfig+0x10a>
      if((__HAL_RCC_GET_FLAG(RCC_FLAG_HSERDY) != RESET) && (RCC_OscInitStruct->HSEState == RCC_HSE_OFF))
 8001d0c:	bf00      	nop
        }
      }
    }
  }
  /*----------------------------- HSI Configuration --------------------------*/
  if(((RCC_OscInitStruct->OscillatorType) & RCC_OSCILLATORTYPE_HSI) == RCC_OSCILLATORTYPE_HSI)
 8001d0e:	687b      	ldr	r3, [r7, #4]
 8001d10:	681b      	ldr	r3, [r3, #0]
 8001d12:	f003 0302 	and.w	r3, r3, #2
 8001d16:	2b00      	cmp	r3, #0
 8001d18:	d063      	beq.n	8001de2 <HAL_RCC_OscConfig+0x1de>
    /* Check the parameters */
    assert_param(IS_RCC_HSI(RCC_OscInitStruct->HSIState));
    assert_param(IS_RCC_CALIBRATION_VALUE(RCC_OscInitStruct->HSICalibrationValue));

    /* Check if HSI is used as system clock or as PLL source when PLL is selected as system clock */
    if((__HAL_RCC_GET_SYSCLK_SOURCE() == RCC_CFGR_SWS_HSI) ||\
 8001d1a:	4b65      	ldr	r3, [pc, #404]	; (8001eb0 <HAL_RCC_OscConfig+0x2ac>)
 8001d1c:	689b      	ldr	r3, [r3, #8]
 8001d1e:	f003 030c 	and.w	r3, r3, #12
 8001d22:	2b00      	cmp	r3, #0
 8001d24:	d00b      	beq.n	8001d3e <HAL_RCC_OscConfig+0x13a>
      ((__HAL_RCC_GET_SYSCLK_SOURCE() == RCC_CFGR_SWS_PLL) && ((RCC->PLLCFGR & RCC_PLLCFGR_PLLSRC) == RCC_PLLCFGR_PLLSRC_HSI)))
 8001d26:	4b62      	ldr	r3, [pc, #392]	; (8001eb0 <HAL_RCC_OscConfig+0x2ac>)
 8001d28:	689b      	ldr	r3, [r3, #8]
 8001d2a:	f003 030c 	and.w	r3, r3, #12
    if((__HAL_RCC_GET_SYSCLK_SOURCE() == RCC_CFGR_SWS_HSI) ||\
 8001d2e:	2b08      	cmp	r3, #8
 8001d30:	d11c      	bne.n	8001d6c <HAL_RCC_OscConfig+0x168>
      ((__HAL_RCC_GET_SYSCLK_SOURCE() == RCC_CFGR_SWS_PLL) && ((RCC->PLLCFGR & RCC_PLLCFGR_PLLSRC) == RCC_PLLCFGR_PLLSRC_HSI)))
 8001d32:	4b5f      	ldr	r3, [pc, #380]	; (8001eb0 <HAL_RCC_OscConfig+0x2ac>)
 8001d34:	685b      	ldr	r3, [r3, #4]
 8001d36:	f403 0380 	and.w	r3, r3, #4194304	; 0x400000
 8001d3a:	2b00      	cmp	r3, #0
 8001d3c:	d116      	bne.n	8001d6c <HAL_RCC_OscConfig+0x168>
    {
      /* When HSI is used as system clock it will not disabled */
      if((__HAL_RCC_GET_FLAG(RCC_FLAG_HSIRDY) != RESET) && (RCC_OscInitStruct->HSIState != RCC_HSI_ON))
 8001d3e:	4b5c      	ldr	r3, [pc, #368]	; (8001eb0 <HAL_RCC_OscConfig+0x2ac>)
 8001d40:	681b      	ldr	r3, [r3, #0]
 8001d42:	f003 0302 	and.w	r3, r3, #2
 8001d46:	2b00      	cmp	r3, #0
 8001d48:	d005      	beq.n	8001d56 <HAL_RCC_OscConfig+0x152>
 8001d4a:	687b      	ldr	r3, [r7, #4]
 8001d4c:	68db      	ldr	r3, [r3, #12]
 8001d4e:	2b01      	cmp	r3, #1
 8001d50:	d001      	beq.n	8001d56 <HAL_RCC_OscConfig+0x152>
      {
        return HAL_ERROR;
 8001d52:	2301      	movs	r3, #1
 8001d54:	e1bb      	b.n	80020ce <HAL_RCC_OscConfig+0x4ca>
      }
      /* Otherwise, just the calibration is allowed */
      else
      {
        /* Adjusts the Internal High Speed oscillator (HSI) calibration value.*/
        __HAL_RCC_HSI_CALIBRATIONVALUE_ADJUST(RCC_OscInitStruct->HSICalibrationValue);
 8001d56:	4b56      	ldr	r3, [pc, #344]	; (8001eb0 <HAL_RCC_OscConfig+0x2ac>)
 8001d58:	681b      	ldr	r3, [r3, #0]
 8001d5a:	f023 02f8 	bic.w	r2, r3, #248	; 0xf8
 8001d5e:	687b      	ldr	r3, [r7, #4]
 8001d60:	691b      	ldr	r3, [r3, #16]
 8001d62:	00db      	lsls	r3, r3, #3
 8001d64:	4952      	ldr	r1, [pc, #328]	; (8001eb0 <HAL_RCC_OscConfig+0x2ac>)
 8001d66:	4313      	orrs	r3, r2
 8001d68:	600b      	str	r3, [r1, #0]
      if((__HAL_RCC_GET_FLAG(RCC_FLAG_HSIRDY) != RESET) && (RCC_OscInitStruct->HSIState != RCC_HSI_ON))
 8001d6a:	e03a      	b.n	8001de2 <HAL_RCC_OscConfig+0x1de>
      }
    }
    else
    {
      /* Check the HSI State */
      if((RCC_OscInitStruct->HSIState)!= RCC_HSI_OFF)
 8001d6c:	687b      	ldr	r3, [r7, #4]
 8001d6e:	68db      	ldr	r3, [r3, #12]
 8001d70:	2b00      	cmp	r3, #0
 8001d72:	d020      	beq.n	8001db6 <HAL_RCC_OscConfig+0x1b2>
      {
        /* Enable the Internal High Speed oscillator (HSI). */
        __HAL_RCC_HSI_ENABLE();
 8001d74:	4b4f      	ldr	r3, [pc, #316]	; (8001eb4 <HAL_RCC_OscConfig+0x2b0>)
 8001d76:	2201      	movs	r2, #1
 8001d78:	601a      	str	r2, [r3, #0]

        /* Get Start Tick*/
        tickstart = HAL_GetTick();
 8001d7a:	f7fe fff5 	bl	8000d68 <HAL_GetTick>
 8001d7e:	6138      	str	r0, [r7, #16]

        /* Wait till HSI is ready */
        while(__HAL_RCC_GET_FLAG(RCC_FLAG_HSIRDY) == RESET)
 8001d80:	e008      	b.n	8001d94 <HAL_RCC_OscConfig+0x190>
        {
          if((HAL_GetTick() - tickstart ) > HSI_TIMEOUT_VALUE)
 8001d82:	f7fe fff1 	bl	8000d68 <HAL_GetTick>
 8001d86:	4602      	mov	r2, r0
 8001d88:	693b      	ldr	r3, [r7, #16]
 8001d8a:	1ad3      	subs	r3, r2, r3
 8001d8c:	2b02      	cmp	r3, #2
 8001d8e:	d901      	bls.n	8001d94 <HAL_RCC_OscConfig+0x190>
          {
            return HAL_TIMEOUT;
 8001d90:	2303      	movs	r3, #3
 8001d92:	e19c      	b.n	80020ce <HAL_RCC_OscConfig+0x4ca>
        while(__HAL_RCC_GET_FLAG(RCC_FLAG_HSIRDY) == RESET)
 8001d94:	4b46      	ldr	r3, [pc, #280]	; (8001eb0 <HAL_RCC_OscConfig+0x2ac>)
 8001d96:	681b      	ldr	r3, [r3, #0]
 8001d98:	f003 0302 	and.w	r3, r3, #2
 8001d9c:	2b00      	cmp	r3, #0
 8001d9e:	d0f0      	beq.n	8001d82 <HAL_RCC_OscConfig+0x17e>
          }
        }

        /* Adjusts the Internal High Speed oscillator (HSI) calibration value. */
        __HAL_RCC_HSI_CALIBRATIONVALUE_ADJUST(RCC_OscInitStruct->HSICalibrationValue);
 8001da0:	4b43      	ldr	r3, [pc, #268]	; (8001eb0 <HAL_RCC_OscConfig+0x2ac>)
 8001da2:	681b      	ldr	r3, [r3, #0]
 8001da4:	f023 02f8 	bic.w	r2, r3, #248	; 0xf8
 8001da8:	687b      	ldr	r3, [r7, #4]
 8001daa:	691b      	ldr	r3, [r3, #16]
 8001dac:	00db      	lsls	r3, r3, #3
 8001dae:	4940      	ldr	r1, [pc, #256]	; (8001eb0 <HAL_RCC_OscConfig+0x2ac>)
 8001db0:	4313      	orrs	r3, r2
 8001db2:	600b      	str	r3, [r1, #0]
 8001db4:	e015      	b.n	8001de2 <HAL_RCC_OscConfig+0x1de>
      }
      else
      {
        /* Disable the Internal High Speed oscillator (HSI). */
        __HAL_RCC_HSI_DISABLE();
 8001db6:	4b3f      	ldr	r3, [pc, #252]	; (8001eb4 <HAL_RCC_OscConfig+0x2b0>)
 8001db8:	2200      	movs	r2, #0
 8001dba:	601a      	str	r2, [r3, #0]

        /* Get Start Tick*/
        tickstart = HAL_GetTick();
 8001dbc:	f7fe ffd4 	bl	8000d68 <HAL_GetTick>
 8001dc0:	6138      	str	r0, [r7, #16]

        /* Wait till HSI is ready */
        while(__HAL_RCC_GET_FLAG(RCC_FLAG_HSIRDY) != RESET)
 8001dc2:	e008      	b.n	8001dd6 <HAL_RCC_OscConfig+0x1d2>
        {
          if((HAL_GetTick() - tickstart ) > HSI_TIMEOUT_VALUE)
 8001dc4:	f7fe ffd0 	bl	8000d68 <HAL_GetTick>
 8001dc8:	4602      	mov	r2, r0
 8001dca:	693b      	ldr	r3, [r7, #16]
 8001dcc:	1ad3      	subs	r3, r2, r3
 8001dce:	2b02      	cmp	r3, #2
 8001dd0:	d901      	bls.n	8001dd6 <HAL_RCC_OscConfig+0x1d2>
          {
            return HAL_TIMEOUT;
 8001dd2:	2303      	movs	r3, #3
 8001dd4:	e17b      	b.n	80020ce <HAL_RCC_OscConfig+0x4ca>
        while(__HAL_RCC_GET_FLAG(RCC_FLAG_HSIRDY) != RESET)
 8001dd6:	4b36      	ldr	r3, [pc, #216]	; (8001eb0 <HAL_RCC_OscConfig+0x2ac>)
 8001dd8:	681b      	ldr	r3, [r3, #0]
 8001dda:	f003 0302 	and.w	r3, r3, #2
 8001dde:	2b00      	cmp	r3, #0
 8001de0:	d1f0      	bne.n	8001dc4 <HAL_RCC_OscConfig+0x1c0>
        }
      }
    }
  }
  /*------------------------------ LSI Configuration -------------------------*/
  if(((RCC_OscInitStruct->OscillatorType) & RCC_OSCILLATORTYPE_LSI) == RCC_OSCILLATORTYPE_LSI)
 8001de2:	687b      	ldr	r3, [r7, #4]
 8001de4:	681b      	ldr	r3, [r3, #0]
 8001de6:	f003 0308 	and.w	r3, r3, #8
 8001dea:	2b00      	cmp	r3, #0
 8001dec:	d030      	beq.n	8001e50 <HAL_RCC_OscConfig+0x24c>
  {
    /* Check the parameters */
    assert_param(IS_RCC_LSI(RCC_OscInitStruct->LSIState));

    /* Check the LSI State */
    if((RCC_OscInitStruct->LSIState)!= RCC_LSI_OFF)
 8001dee:	687b      	ldr	r3, [r7, #4]
 8001df0:	695b      	ldr	r3, [r3, #20]
 8001df2:	2b00      	cmp	r3, #0
 8001df4:	d016      	beq.n	8001e24 <HAL_RCC_OscConfig+0x220>
    {
      /* Enable the Internal Low Speed oscillator (LSI). */
      __HAL_RCC_LSI_ENABLE();
 8001df6:	4b30      	ldr	r3, [pc, #192]	; (8001eb8 <HAL_RCC_OscConfig+0x2b4>)
 8001df8:	2201      	movs	r2, #1
 8001dfa:	601a      	str	r2, [r3, #0]

      /* Get Start Tick*/
      tickstart = HAL_GetTick();
 8001dfc:	f7fe ffb4 	bl	8000d68 <HAL_GetTick>
 8001e00:	6138      	str	r0, [r7, #16]

      /* Wait till LSI is ready */
      while(__HAL_RCC_GET_FLAG(RCC_FLAG_LSIRDY) == RESET)
 8001e02:	e008      	b.n	8001e16 <HAL_RCC_OscConfig+0x212>
      {
        if((HAL_GetTick() - tickstart ) > LSI_TIMEOUT_VALUE)
 8001e04:	f7fe ffb0 	bl	8000d68 <HAL_GetTick>
 8001e08:	4602      	mov	r2, r0
 8001e0a:	693b      	ldr	r3, [r7, #16]
 8001e0c:	1ad3      	subs	r3, r2, r3
 8001e0e:	2b02      	cmp	r3, #2
 8001e10:	d901      	bls.n	8001e16 <HAL_RCC_OscConfig+0x212>
        {
          return HAL_TIMEOUT;
 8001e12:	2303      	movs	r3, #3
 8001e14:	e15b      	b.n	80020ce <HAL_RCC_OscConfig+0x4ca>
      while(__HAL_RCC_GET_FLAG(RCC_FLAG_LSIRDY) == RESET)
 8001e16:	4b26      	ldr	r3, [pc, #152]	; (8001eb0 <HAL_RCC_OscConfig+0x2ac>)
 8001e18:	6f5b      	ldr	r3, [r3, #116]	; 0x74
 8001e1a:	f003 0302 	and.w	r3, r3, #2
 8001e1e:	2b00      	cmp	r3, #0
 8001e20:	d0f0      	beq.n	8001e04 <HAL_RCC_OscConfig+0x200>
 8001e22:	e015      	b.n	8001e50 <HAL_RCC_OscConfig+0x24c>
      }
    }
    else
    {
      /* Disable the Internal Low Speed oscillator (LSI). */
      __HAL_RCC_LSI_DISABLE();
 8001e24:	4b24      	ldr	r3, [pc, #144]	; (8001eb8 <HAL_RCC_OscConfig+0x2b4>)
 8001e26:	2200      	movs	r2, #0
 8001e28:	601a      	str	r2, [r3, #0]

      /* Get Start Tick */
      tickstart = HAL_GetTick();
 8001e2a:	f7fe ff9d 	bl	8000d68 <HAL_GetTick>
 8001e2e:	6138      	str	r0, [r7, #16]

      /* Wait till LSI is ready */
      while(__HAL_RCC_GET_FLAG(RCC_FLAG_LSIRDY) != RESET)
 8001e30:	e008      	b.n	8001e44 <HAL_RCC_OscConfig+0x240>
      {
        if((HAL_GetTick() - tickstart ) > LSI_TIMEOUT_VALUE)
 8001e32:	f7fe ff99 	bl	8000d68 <HAL_GetTick>
 8001e36:	4602      	mov	r2, r0
 8001e38:	693b      	ldr	r3, [r7, #16]
 8001e3a:	1ad3      	subs	r3, r2, r3
 8001e3c:	2b02      	cmp	r3, #2
 8001e3e:	d901      	bls.n	8001e44 <HAL_RCC_OscConfig+0x240>
        {
          return HAL_TIMEOUT;
 8001e40:	2303      	movs	r3, #3
 8001e42:	e144      	b.n	80020ce <HAL_RCC_OscConfig+0x4ca>
      while(__HAL_RCC_GET_FLAG(RCC_FLAG_LSIRDY) != RESET)
 8001e44:	4b1a      	ldr	r3, [pc, #104]	; (8001eb0 <HAL_RCC_OscConfig+0x2ac>)
 8001e46:	6f5b      	ldr	r3, [r3, #116]	; 0x74
 8001e48:	f003 0302 	and.w	r3, r3, #2
 8001e4c:	2b00      	cmp	r3, #0
 8001e4e:	d1f0      	bne.n	8001e32 <HAL_RCC_OscConfig+0x22e>
        }
      }
    }
  }
  /*------------------------------ LSE Configuration -------------------------*/
  if(((RCC_OscInitStruct->OscillatorType) & RCC_OSCILLATORTYPE_LSE) == RCC_OSCILLATORTYPE_LSE)
 8001e50:	687b      	ldr	r3, [r7, #4]
 8001e52:	681b      	ldr	r3, [r3, #0]
 8001e54:	f003 0304 	and.w	r3, r3, #4
 8001e58:	2b00      	cmp	r3, #0
 8001e5a:	f000 80a0 	beq.w	8001f9e <HAL_RCC_OscConfig+0x39a>
  {
    FlagStatus       pwrclkchanged = RESET;
 8001e5e:	2300      	movs	r3, #0
 8001e60:	75fb      	strb	r3, [r7, #23]
    /* Check the parameters */
    assert_param(IS_RCC_LSE(RCC_OscInitStruct->LSEState));

    /* Update LSE configuration in Backup Domain control register    */
    /* Requires to enable write access to Backup Domain of necessary */
    if(__HAL_RCC_PWR_IS_CLK_DISABLED())
 8001e62:	4b13      	ldr	r3, [pc, #76]	; (8001eb0 <HAL_RCC_OscConfig+0x2ac>)
 8001e64:	6c1b      	ldr	r3, [r3, #64]	; 0x40
 8001e66:	f003 5380 	and.w	r3, r3, #268435456	; 0x10000000
 8001e6a:	2b00      	cmp	r3, #0
 8001e6c:	d10f      	bne.n	8001e8e <HAL_RCC_OscConfig+0x28a>
    {
      __HAL_RCC_PWR_CLK_ENABLE();
 8001e6e:	2300      	movs	r3, #0
 8001e70:	60bb      	str	r3, [r7, #8]
 8001e72:	4b0f      	ldr	r3, [pc, #60]	; (8001eb0 <HAL_RCC_OscConfig+0x2ac>)
 8001e74:	6c1b      	ldr	r3, [r3, #64]	; 0x40
 8001e76:	4a0e      	ldr	r2, [pc, #56]	; (8001eb0 <HAL_RCC_OscConfig+0x2ac>)
 8001e78:	f043 5380 	orr.w	r3, r3, #268435456	; 0x10000000
 8001e7c:	6413      	str	r3, [r2, #64]	; 0x40
 8001e7e:	4b0c      	ldr	r3, [pc, #48]	; (8001eb0 <HAL_RCC_OscConfig+0x2ac>)
 8001e80:	6c1b      	ldr	r3, [r3, #64]	; 0x40
 8001e82:	f003 5380 	and.w	r3, r3, #268435456	; 0x10000000
 8001e86:	60bb      	str	r3, [r7, #8]
 8001e88:	68bb      	ldr	r3, [r7, #8]
      pwrclkchanged = SET;
 8001e8a:	2301      	movs	r3, #1
 8001e8c:	75fb      	strb	r3, [r7, #23]
    }

    if(HAL_IS_BIT_CLR(PWR->CR, PWR_CR_DBP))
 8001e8e:	4b0b      	ldr	r3, [pc, #44]	; (8001ebc <HAL_RCC_OscConfig+0x2b8>)
 8001e90:	681b      	ldr	r3, [r3, #0]
 8001e92:	f403 7380 	and.w	r3, r3, #256	; 0x100
 8001e96:	2b00      	cmp	r3, #0
 8001e98:	d121      	bne.n	8001ede <HAL_RCC_OscConfig+0x2da>
    {
      /* Enable write access to Backup domain */
      SET_BIT(PWR->CR, PWR_CR_DBP);
 8001e9a:	4b08      	ldr	r3, [pc, #32]	; (8001ebc <HAL_RCC_OscConfig+0x2b8>)
 8001e9c:	681b      	ldr	r3, [r3, #0]
 8001e9e:	4a07      	ldr	r2, [pc, #28]	; (8001ebc <HAL_RCC_OscConfig+0x2b8>)
 8001ea0:	f443 7380 	orr.w	r3, r3, #256	; 0x100
 8001ea4:	6013      	str	r3, [r2, #0]

      /* Wait for Backup domain Write protection disable */
      tickstart = HAL_GetTick();
 8001ea6:	f7fe ff5f 	bl	8000d68 <HAL_GetTick>
 8001eaa:	6138      	str	r0, [r7, #16]

      while(HAL_IS_BIT_CLR(PWR->CR, PWR_CR_DBP))
 8001eac:	e011      	b.n	8001ed2 <HAL_RCC_OscConfig+0x2ce>
 8001eae:	bf00      	nop
 8001eb0:	40023800 	.word	0x40023800
 8001eb4:	42470000 	.word	0x42470000
 8001eb8:	42470e80 	.word	0x42470e80
 8001ebc:	40007000 	.word	0x40007000
      {
        if((HAL_GetTick() - tickstart) > RCC_DBP_TIMEOUT_VALUE)
 8001ec0:	f7fe ff52 	bl	8000d68 <HAL_GetTick>
 8001ec4:	4602      	mov	r2, r0
 8001ec6:	693b      	ldr	r3, [r7, #16]
 8001ec8:	1ad3      	subs	r3, r2, r3
 8001eca:	2b02      	cmp	r3, #2
 8001ecc:	d901      	bls.n	8001ed2 <HAL_RCC_OscConfig+0x2ce>
        {
          return HAL_TIMEOUT;
 8001ece:	2303      	movs	r3, #3
 8001ed0:	e0fd      	b.n	80020ce <HAL_RCC_OscConfig+0x4ca>
      while(HAL_IS_BIT_CLR(PWR->CR, PWR_CR_DBP))
 8001ed2:	4b81      	ldr	r3, [pc, #516]	; (80020d8 <HAL_RCC_OscConfig+0x4d4>)
 8001ed4:	681b      	ldr	r3, [r3, #0]
 8001ed6:	f403 7380 	and.w	r3, r3, #256	; 0x100
 8001eda:	2b00      	cmp	r3, #0
 8001edc:	d0f0      	beq.n	8001ec0 <HAL_RCC_OscConfig+0x2bc>
        }
      }
    }

    /* Set the new LSE configuration -----------------------------------------*/
    __HAL_RCC_LSE_CONFIG(RCC_OscInitStruct->LSEState);
 8001ede:	687b      	ldr	r3, [r7, #4]
 8001ee0:	689b      	ldr	r3, [r3, #8]
 8001ee2:	2b01      	cmp	r3, #1
 8001ee4:	d106      	bne.n	8001ef4 <HAL_RCC_OscConfig+0x2f0>
 8001ee6:	4b7d      	ldr	r3, [pc, #500]	; (80020dc <HAL_RCC_OscConfig+0x4d8>)
 8001ee8:	6f1b      	ldr	r3, [r3, #112]	; 0x70
 8001eea:	4a7c      	ldr	r2, [pc, #496]	; (80020dc <HAL_RCC_OscConfig+0x4d8>)
 8001eec:	f043 0301 	orr.w	r3, r3, #1
 8001ef0:	6713      	str	r3, [r2, #112]	; 0x70
 8001ef2:	e01c      	b.n	8001f2e <HAL_RCC_OscConfig+0x32a>
 8001ef4:	687b      	ldr	r3, [r7, #4]
 8001ef6:	689b      	ldr	r3, [r3, #8]
 8001ef8:	2b05      	cmp	r3, #5
 8001efa:	d10c      	bne.n	8001f16 <HAL_RCC_OscConfig+0x312>
 8001efc:	4b77      	ldr	r3, [pc, #476]	; (80020dc <HAL_RCC_OscConfig+0x4d8>)
 8001efe:	6f1b      	ldr	r3, [r3, #112]	; 0x70
 8001f00:	4a76      	ldr	r2, [pc, #472]	; (80020dc <HAL_RCC_OscConfig+0x4d8>)
 8001f02:	f043 0304 	orr.w	r3, r3, #4
 8001f06:	6713      	str	r3, [r2, #112]	; 0x70
 8001f08:	4b74      	ldr	r3, [pc, #464]	; (80020dc <HAL_RCC_OscConfig+0x4d8>)
 8001f0a:	6f1b      	ldr	r3, [r3, #112]	; 0x70
 8001f0c:	4a73      	ldr	r2, [pc, #460]	; (80020dc <HAL_RCC_OscConfig+0x4d8>)
 8001f0e:	f043 0301 	orr.w	r3, r3, #1
 8001f12:	6713      	str	r3, [r2, #112]	; 0x70
 8001f14:	e00b      	b.n	8001f2e <HAL_RCC_OscConfig+0x32a>
 8001f16:	4b71      	ldr	r3, [pc, #452]	; (80020dc <HAL_RCC_OscConfig+0x4d8>)
 8001f18:	6f1b      	ldr	r3, [r3, #112]	; 0x70
 8001f1a:	4a70      	ldr	r2, [pc, #448]	; (80020dc <HAL_RCC_OscConfig+0x4d8>)
 8001f1c:	f023 0301 	bic.w	r3, r3, #1
 8001f20:	6713      	str	r3, [r2, #112]	; 0x70
 8001f22:	4b6e      	ldr	r3, [pc, #440]	; (80020dc <HAL_RCC_OscConfig+0x4d8>)
 8001f24:	6f1b      	ldr	r3, [r3, #112]	; 0x70
 8001f26:	4a6d      	ldr	r2, [pc, #436]	; (80020dc <HAL_RCC_OscConfig+0x4d8>)
 8001f28:	f023 0304 	bic.w	r3, r3, #4
 8001f2c:	6713      	str	r3, [r2, #112]	; 0x70
    /* Check the LSE State */
    if((RCC_OscInitStruct->LSEState) != RCC_LSE_OFF)
 8001f2e:	687b      	ldr	r3, [r7, #4]
 8001f30:	689b      	ldr	r3, [r3, #8]
 8001f32:	2b00      	cmp	r3, #0
 8001f34:	d015      	beq.n	8001f62 <HAL_RCC_OscConfig+0x35e>
    {
      /* Get Start Tick*/
      tickstart = HAL_GetTick();
 8001f36:	f7fe ff17 	bl	8000d68 <HAL_GetTick>
 8001f3a:	6138      	str	r0, [r7, #16]

      /* Wait till LSE is ready */
      while(__HAL_RCC_GET_FLAG(RCC_FLAG_LSERDY) == RESET)
 8001f3c:	e00a      	b.n	8001f54 <HAL_RCC_OscConfig+0x350>
      {
        if((HAL_GetTick() - tickstart ) > RCC_LSE_TIMEOUT_VALUE)
 8001f3e:	f7fe ff13 	bl	8000d68 <HAL_GetTick>
 8001f42:	4602      	mov	r2, r0
 8001f44:	693b      	ldr	r3, [r7, #16]
 8001f46:	1ad3      	subs	r3, r2, r3
 8001f48:	f241 3288 	movw	r2, #5000	; 0x1388
 8001f4c:	4293      	cmp	r3, r2
 8001f4e:	d901      	bls.n	8001f54 <HAL_RCC_OscConfig+0x350>
        {
          return HAL_TIMEOUT;
 8001f50:	2303      	movs	r3, #3
 8001f52:	e0bc      	b.n	80020ce <HAL_RCC_OscConfig+0x4ca>
      while(__HAL_RCC_GET_FLAG(RCC_FLAG_LSERDY) == RESET)
 8001f54:	4b61      	ldr	r3, [pc, #388]	; (80020dc <HAL_RCC_OscConfig+0x4d8>)
 8001f56:	6f1b      	ldr	r3, [r3, #112]	; 0x70
 8001f58:	f003 0302 	and.w	r3, r3, #2
 8001f5c:	2b00      	cmp	r3, #0
 8001f5e:	d0ee      	beq.n	8001f3e <HAL_RCC_OscConfig+0x33a>
 8001f60:	e014      	b.n	8001f8c <HAL_RCC_OscConfig+0x388>
      }
    }
    else
    {
      /* Get Start Tick */
      tickstart = HAL_GetTick();
 8001f62:	f7fe ff01 	bl	8000d68 <HAL_GetTick>
 8001f66:	6138      	str	r0, [r7, #16]

      /* Wait till LSE is ready */
      while(__HAL_RCC_GET_FLAG(RCC_FLAG_LSERDY) != RESET)
 8001f68:	e00a      	b.n	8001f80 <HAL_RCC_OscConfig+0x37c>
      {
        if((HAL_GetTick() - tickstart ) > RCC_LSE_TIMEOUT_VALUE)
 8001f6a:	f7fe fefd 	bl	8000d68 <HAL_GetTick>
 8001f6e:	4602      	mov	r2, r0
 8001f70:	693b      	ldr	r3, [r7, #16]
 8001f72:	1ad3      	subs	r3, r2, r3
 8001f74:	f241 3288 	movw	r2, #5000	; 0x1388
 8001f78:	4293      	cmp	r3, r2
 8001f7a:	d901      	bls.n	8001f80 <HAL_RCC_OscConfig+0x37c>
        {
          return HAL_TIMEOUT;
 8001f7c:	2303      	movs	r3, #3
 8001f7e:	e0a6      	b.n	80020ce <HAL_RCC_OscConfig+0x4ca>
      while(__HAL_RCC_GET_FLAG(RCC_FLAG_LSERDY) != RESET)
 8001f80:	4b56      	ldr	r3, [pc, #344]	; (80020dc <HAL_RCC_OscConfig+0x4d8>)
 8001f82:	6f1b      	ldr	r3, [r3, #112]	; 0x70
 8001f84:	f003 0302 	and.w	r3, r3, #2
 8001f88:	2b00      	cmp	r3, #0
 8001f8a:	d1ee      	bne.n	8001f6a <HAL_RCC_OscConfig+0x366>
        }
      }
    }

    /* Restore clock configuration if changed */
    if(pwrclkchanged == SET)
 8001f8c:	7dfb      	ldrb	r3, [r7, #23]
 8001f8e:	2b01      	cmp	r3, #1
 8001f90:	d105      	bne.n	8001f9e <HAL_RCC_OscConfig+0x39a>
    {
      __HAL_RCC_PWR_CLK_DISABLE();
 8001f92:	4b52      	ldr	r3, [pc, #328]	; (80020dc <HAL_RCC_OscConfig+0x4d8>)
 8001f94:	6c1b      	ldr	r3, [r3, #64]	; 0x40
 8001f96:	4a51      	ldr	r2, [pc, #324]	; (80020dc <HAL_RCC_OscConfig+0x4d8>)
 8001f98:	f023 5380 	bic.w	r3, r3, #268435456	; 0x10000000
 8001f9c:	6413      	str	r3, [r2, #64]	; 0x40
    }
  }
  /*-------------------------------- PLL Configuration -----------------------*/
  /* Check the parameters */
  assert_param(IS_RCC_PLL(RCC_OscInitStruct->PLL.PLLState));
  if ((RCC_OscInitStruct->PLL.PLLState) != RCC_PLL_NONE)
 8001f9e:	687b      	ldr	r3, [r7, #4]
 8001fa0:	699b      	ldr	r3, [r3, #24]
 8001fa2:	2b00      	cmp	r3, #0
 8001fa4:	f000 8092 	beq.w	80020cc <HAL_RCC_OscConfig+0x4c8>
  {
    /* Check if the PLL is used as system clock or not */
    if(__HAL_RCC_GET_SYSCLK_SOURCE() != RCC_CFGR_SWS_PLL)
 8001fa8:	4b4c      	ldr	r3, [pc, #304]	; (80020dc <HAL_RCC_OscConfig+0x4d8>)
 8001faa:	689b      	ldr	r3, [r3, #8]
 8001fac:	f003 030c 	and.w	r3, r3, #12
 8001fb0:	2b08      	cmp	r3, #8
 8001fb2:	d05c      	beq.n	800206e <HAL_RCC_OscConfig+0x46a>
    {
      if((RCC_OscInitStruct->PLL.PLLState) == RCC_PLL_ON)
 8001fb4:	687b      	ldr	r3, [r7, #4]
 8001fb6:	699b      	ldr	r3, [r3, #24]
 8001fb8:	2b02      	cmp	r3, #2
 8001fba:	d141      	bne.n	8002040 <HAL_RCC_OscConfig+0x43c>
        assert_param(IS_RCC_PLLN_VALUE(RCC_OscInitStruct->PLL.PLLN));
        assert_param(IS_RCC_PLLP_VALUE(RCC_OscInitStruct->PLL.PLLP));
        assert_param(IS_RCC_PLLQ_VALUE(RCC_OscInitStruct->PLL.PLLQ));

        /* Disable the main PLL. */
        __HAL_RCC_PLL_DISABLE();
 8001fbc:	4b48      	ldr	r3, [pc, #288]	; (80020e0 <HAL_RCC_OscConfig+0x4dc>)
 8001fbe:	2200      	movs	r2, #0
 8001fc0:	601a      	str	r2, [r3, #0]

        /* Get Start Tick */
        tickstart = HAL_GetTick();
 8001fc2:	f7fe fed1 	bl	8000d68 <HAL_GetTick>
 8001fc6:	6138      	str	r0, [r7, #16]

        /* Wait till PLL is ready */
        while(__HAL_RCC_GET_FLAG(RCC_FLAG_PLLRDY) != RESET)
 8001fc8:	e008      	b.n	8001fdc <HAL_RCC_OscConfig+0x3d8>
        {
          if((HAL_GetTick() - tickstart ) > PLL_TIMEOUT_VALUE)
 8001fca:	f7fe fecd 	bl	8000d68 <HAL_GetTick>
 8001fce:	4602      	mov	r2, r0
 8001fd0:	693b      	ldr	r3, [r7, #16]
 8001fd2:	1ad3      	subs	r3, r2, r3
 8001fd4:	2b02      	cmp	r3, #2
 8001fd6:	d901      	bls.n	8001fdc <HAL_RCC_OscConfig+0x3d8>
          {
            return HAL_TIMEOUT;
 8001fd8:	2303      	movs	r3, #3
 8001fda:	e078      	b.n	80020ce <HAL_RCC_OscConfig+0x4ca>
        while(__HAL_RCC_GET_FLAG(RCC_FLAG_PLLRDY) != RESET)
 8001fdc:	4b3f      	ldr	r3, [pc, #252]	; (80020dc <HAL_RCC_OscConfig+0x4d8>)
 8001fde:	681b      	ldr	r3, [r3, #0]
 8001fe0:	f003 7300 	and.w	r3, r3, #33554432	; 0x2000000
 8001fe4:	2b00      	cmp	r3, #0
 8001fe6:	d1f0      	bne.n	8001fca <HAL_RCC_OscConfig+0x3c6>
          }
        }

        /* Configure the main PLL clock source, multiplication and division factors. */
        WRITE_REG(RCC->PLLCFGR, (RCC_OscInitStruct->PLL.PLLSource                                            | \
 8001fe8:	687b      	ldr	r3, [r7, #4]
 8001fea:	69da      	ldr	r2, [r3, #28]
 8001fec:	687b      	ldr	r3, [r7, #4]
 8001fee:	6a1b      	ldr	r3, [r3, #32]
 8001ff0:	431a      	orrs	r2, r3
 8001ff2:	687b      	ldr	r3, [r7, #4]
 8001ff4:	6a5b      	ldr	r3, [r3, #36]	; 0x24
 8001ff6:	019b      	lsls	r3, r3, #6
 8001ff8:	431a      	orrs	r2, r3
 8001ffa:	687b      	ldr	r3, [r7, #4]
 8001ffc:	6a9b      	ldr	r3, [r3, #40]	; 0x28
 8001ffe:	085b      	lsrs	r3, r3, #1
 8002000:	3b01      	subs	r3, #1
 8002002:	041b      	lsls	r3, r3, #16
 8002004:	431a      	orrs	r2, r3
 8002006:	687b      	ldr	r3, [r7, #4]
 8002008:	6adb      	ldr	r3, [r3, #44]	; 0x2c
 800200a:	061b      	lsls	r3, r3, #24
 800200c:	4933      	ldr	r1, [pc, #204]	; (80020dc <HAL_RCC_OscConfig+0x4d8>)
 800200e:	4313      	orrs	r3, r2
 8002010:	604b      	str	r3, [r1, #4]
                                 RCC_OscInitStruct->PLL.PLLM                                                 | \
                                 (RCC_OscInitStruct->PLL.PLLN << RCC_PLLCFGR_PLLN_Pos)             | \
                                 (((RCC_OscInitStruct->PLL.PLLP >> 1U) - 1U) << RCC_PLLCFGR_PLLP_Pos) | \
                                 (RCC_OscInitStruct->PLL.PLLQ << RCC_PLLCFGR_PLLQ_Pos)));
        /* Enable the main PLL. */
        __HAL_RCC_PLL_ENABLE();
 8002012:	4b33      	ldr	r3, [pc, #204]	; (80020e0 <HAL_RCC_OscConfig+0x4dc>)
 8002014:	2201      	movs	r2, #1
 8002016:	601a      	str	r2, [r3, #0]

        /* Get Start Tick */
        tickstart = HAL_GetTick();
 8002018:	f7fe fea6 	bl	8000d68 <HAL_GetTick>
 800201c:	6138      	str	r0, [r7, #16]

        /* Wait till PLL is ready */
        while(__HAL_RCC_GET_FLAG(RCC_FLAG_PLLRDY) == RESET)
 800201e:	e008      	b.n	8002032 <HAL_RCC_OscConfig+0x42e>
        {
          if((HAL_GetTick() - tickstart ) > PLL_TIMEOUT_VALUE)
 8002020:	f7fe fea2 	bl	8000d68 <HAL_GetTick>
 8002024:	4602      	mov	r2, r0
 8002026:	693b      	ldr	r3, [r7, #16]
 8002028:	1ad3      	subs	r3, r2, r3
 800202a:	2b02      	cmp	r3, #2
 800202c:	d901      	bls.n	8002032 <HAL_RCC_OscConfig+0x42e>
          {
            return HAL_TIMEOUT;
 800202e:	2303      	movs	r3, #3
 8002030:	e04d      	b.n	80020ce <HAL_RCC_OscConfig+0x4ca>
        while(__HAL_RCC_GET_FLAG(RCC_FLAG_PLLRDY) == RESET)
 8002032:	4b2a      	ldr	r3, [pc, #168]	; (80020dc <HAL_RCC_OscConfig+0x4d8>)
 8002034:	681b      	ldr	r3, [r3, #0]
 8002036:	f003 7300 	and.w	r3, r3, #33554432	; 0x2000000
 800203a:	2b00      	cmp	r3, #0
 800203c:	d0f0      	beq.n	8002020 <HAL_RCC_OscConfig+0x41c>
 800203e:	e045      	b.n	80020cc <HAL_RCC_OscConfig+0x4c8>
        }
      }
      else
      {
        /* Disable the main PLL. */
        __HAL_RCC_PLL_DISABLE();
 8002040:	4b27      	ldr	r3, [pc, #156]	; (80020e0 <HAL_RCC_OscConfig+0x4dc>)
 8002042:	2200      	movs	r2, #0
 8002044:	601a      	str	r2, [r3, #0]

        /* Get Start Tick */
        tickstart = HAL_GetTick();
 8002046:	f7fe fe8f 	bl	8000d68 <HAL_GetTick>
 800204a:	6138      	str	r0, [r7, #16]

        /* Wait till PLL is ready */
        while(__HAL_RCC_GET_FLAG(RCC_FLAG_PLLRDY) != RESET)
 800204c:	e008      	b.n	8002060 <HAL_RCC_OscConfig+0x45c>
        {
          if((HAL_GetTick() - tickstart ) > PLL_TIMEOUT_VALUE)
 800204e:	f7fe fe8b 	bl	8000d68 <HAL_GetTick>
 8002052:	4602      	mov	r2, r0
 8002054:	693b      	ldr	r3, [r7, #16]
 8002056:	1ad3      	subs	r3, r2, r3
 8002058:	2b02      	cmp	r3, #2
 800205a:	d901      	bls.n	8002060 <HAL_RCC_OscConfig+0x45c>
          {
            return HAL_TIMEOUT;
 800205c:	2303      	movs	r3, #3
 800205e:	e036      	b.n	80020ce <HAL_RCC_OscConfig+0x4ca>
        while(__HAL_RCC_GET_FLAG(RCC_FLAG_PLLRDY) != RESET)
 8002060:	4b1e      	ldr	r3, [pc, #120]	; (80020dc <HAL_RCC_OscConfig+0x4d8>)
 8002062:	681b      	ldr	r3, [r3, #0]
