
0012.1_TIM2_PWM2_LED.elf:     file format elf32-littlearm

Sections:
Idx Name          Size      VMA       LMA       File off  Algn
  0 .isr_vector   00000188  08000000  08000000  00010000  2**0
                  CONTENTS, ALLOC, LOAD, READONLY, DATA
  1 .text         000030b4  08000188  08000188  00010188  2**2
                  CONTENTS, ALLOC, LOAD, READONLY, CODE
  2 .rodata       00000018  0800323c  0800323c  0001323c  2**2
                  CONTENTS, ALLOC, LOAD, READONLY, DATA
  3 .ARM.extab    00000000  08003254  08003254  0002000c  2**0
                  CONTENTS
  4 .ARM          00000008  08003254  08003254  00013254  2**2
                  CONTENTS, ALLOC, LOAD, READONLY, DATA
  5 .preinit_array 00000000  0800325c  0800325c  0002000c  2**0
                  CONTENTS, ALLOC, LOAD, DATA
  6 .init_array   00000004  0800325c  0800325c  0001325c  2**2
                  CONTENTS, ALLOC, LOAD, DATA
  7 .fini_array   00000004  08003260  08003260  00013260  2**2
                  CONTENTS, ALLOC, LOAD, DATA
  8 .data         0000000c  20000000  08003264  00020000  2**2
                  CONTENTS, ALLOC, LOAD, DATA
  9 .bss          000000a0  2000000c  08003270  0002000c  2**2
                  ALLOC
 10 ._user_heap_stack 00000604  200000ac  08003270  000200ac  2**0
                  ALLOC
 11 .ARM.attributes 00000030  00000000  00000000  0002000c  2**0
                  CONTENTS, READONLY
 12 .debug_info   0000a585  00000000  00000000  0002003c  2**0
                  CONTENTS, READONLY, DEBUGGING
 13 .debug_abbrev 000017d3  00000000  00000000  0002a5c1  2**0
                  CONTENTS, READONLY, DEBUGGING
 14 .debug_aranges 00000b90  00000000  00000000  0002bd98  2**3
                  CONTENTS, READONLY, DEBUGGING
 15 .debug_ranges 00000ac8  00000000  00000000  0002c928  2**3
                  CONTENTS, READONLY, DEBUGGING
 16 .debug_macro  0001ff55  00000000  00000000  0002d3f0  2**0
                  CONTENTS, READONLY, DEBUGGING
 17 .debug_line   00008188  00000000  00000000  0004d345  2**0
                  CONTENTS, READONLY, DEBUGGING
 18 .debug_str    000c5479  00000000  00000000  000554cd  2**0
                  CONTENTS, READONLY, DEBUGGING
 19 .comment      0000007b  00000000  00000000  0011a946  2**0
                  CONTENTS, READONLY
 20 .debug_frame  00003090  00000000  00000000  0011a9c4  2**2
                  CONTENTS, READONLY, DEBUGGING

Disassembly of section .text:

08000188 <__do_global_dtors_aux>:
 8000188:	b510      	push	{r4, lr}
 800018a:	4c05      	ldr	r4, [pc, #20]	; (80001a0 <__do_global_dtors_aux+0x18>)
 800018c:	7823      	ldrb	r3, [r4, #0]
 800018e:	b933      	cbnz	r3, 800019e <__do_global_dtors_aux+0x16>
 8000190:	4b04      	ldr	r3, [pc, #16]	; (80001a4 <__do_global_dtors_aux+0x1c>)
 8000192:	b113      	cbz	r3, 800019a <__do_global_dtors_aux+0x12>
 8000194:	4804      	ldr	r0, [pc, #16]	; (80001a8 <__do_global_dtors_aux+0x20>)
 8000196:	f3af 8000 	nop.w
 800019a:	2301      	movs	r3, #1
 800019c:	7023      	strb	r3, [r4, #0]
 800019e:	bd10      	pop	{r4, pc}
 80001a0:	2000000c 	.word	0x2000000c
 80001a4:	00000000 	.word	0x00000000
 80001a8:	08003224 	.word	0x08003224

080001ac <frame_dummy>:
 80001ac:	b508      	push	{r3, lr}
 80001ae:	4b03      	ldr	r3, [pc, #12]	; (80001bc <frame_dummy+0x10>)
 80001b0:	b11b      	cbz	r3, 80001ba <frame_dummy+0xe>
 80001b2:	4903      	ldr	r1, [pc, #12]	; (80001c0 <frame_dummy+0x14>)
 80001b4:	4803      	ldr	r0, [pc, #12]	; (80001c4 <frame_dummy+0x18>)
 80001b6:	f3af 8000 	nop.w
 80001ba:	bd08      	pop	{r3, pc}
 80001bc:	00000000 	.word	0x00000000
 80001c0:	20000010 	.word	0x20000010
 80001c4:	08003224 	.word	0x08003224

080001c8 <__aeabi_uldivmod>:
 80001c8:	b953      	cbnz	r3, 80001e0 <__aeabi_uldivmod+0x18>
 80001ca:	b94a      	cbnz	r2, 80001e0 <__aeabi_uldivmod+0x18>
 80001cc:	2900      	cmp	r1, #0
 80001ce:	bf08      	it	eq
 80001d0:	2800      	cmpeq	r0, #0
 80001d2:	bf1c      	itt	ne
 80001d4:	f04f 31ff 	movne.w	r1, #4294967295
 80001d8:	f04f 30ff 	movne.w	r0, #4294967295
 80001dc:	f000 b972 	b.w	80004c4 <__aeabi_idiv0>
 80001e0:	f1ad 0c08 	sub.w	ip, sp, #8
 80001e4:	e96d ce04 	strd	ip, lr, [sp, #-16]!
 80001e8:	f000 f806 	bl	80001f8 <__udivmoddi4>
 80001ec:	f8dd e004 	ldr.w	lr, [sp, #4]
 80001f0:	e9dd 2302 	ldrd	r2, r3, [sp, #8]
 80001f4:	b004      	add	sp, #16
 80001f6:	4770      	bx	lr

080001f8 <__udivmoddi4>:
 80001f8:	e92d 47f0 	stmdb	sp!, {r4, r5, r6, r7, r8, r9, sl, lr}
 80001fc:	9e08      	ldr	r6, [sp, #32]
 80001fe:	4604      	mov	r4, r0
 8000200:	4688      	mov	r8, r1
 8000202:	2b00      	cmp	r3, #0
 8000204:	d14b      	bne.n	800029e <__udivmoddi4+0xa6>
 8000206:	428a      	cmp	r2, r1
 8000208:	4615      	mov	r5, r2
 800020a:	d967      	bls.n	80002dc <__udivmoddi4+0xe4>
 800020c:	fab2 f282 	clz	r2, r2
 8000210:	b14a      	cbz	r2, 8000226 <__udivmoddi4+0x2e>
 8000212:	f1c2 0720 	rsb	r7, r2, #32
 8000216:	fa01 f302 	lsl.w	r3, r1, r2
 800021a:	fa20 f707 	lsr.w	r7, r0, r7
 800021e:	4095      	lsls	r5, r2
 8000220:	ea47 0803 	orr.w	r8, r7, r3
 8000224:	4094      	lsls	r4, r2
 8000226:	ea4f 4e15 	mov.w	lr, r5, lsr #16
 800022a:	0c23      	lsrs	r3, r4, #16
 800022c:	fbb8 f7fe 	udiv	r7, r8, lr
 8000230:	fa1f fc85 	uxth.w	ip, r5
 8000234:	fb0e 8817 	mls	r8, lr, r7, r8
 8000238:	ea43 4308 	orr.w	r3, r3, r8, lsl #16
 800023c:	fb07 f10c 	mul.w	r1, r7, ip
 8000240:	4299      	cmp	r1, r3
 8000242:	d909      	bls.n	8000258 <__udivmoddi4+0x60>
 8000244:	18eb      	adds	r3, r5, r3
 8000246:	f107 30ff 	add.w	r0, r7, #4294967295
 800024a:	f080 811b 	bcs.w	8000484 <__udivmoddi4+0x28c>
 800024e:	4299      	cmp	r1, r3
 8000250:	f240 8118 	bls.w	8000484 <__udivmoddi4+0x28c>
 8000254:	3f02      	subs	r7, #2
 8000256:	442b      	add	r3, r5
 8000258:	1a5b      	subs	r3, r3, r1
 800025a:	b2a4      	uxth	r4, r4
 800025c:	fbb3 f0fe 	udiv	r0, r3, lr
 8000260:	fb0e 3310 	mls	r3, lr, r0, r3
 8000264:	ea44 4403 	orr.w	r4, r4, r3, lsl #16
 8000268:	fb00 fc0c 	mul.w	ip, r0, ip
 800026c:	45a4      	cmp	ip, r4
 800026e:	d909      	bls.n	8000284 <__udivmoddi4+0x8c>
 8000270:	192c      	adds	r4, r5, r4
 8000272:	f100 33ff 	add.w	r3, r0, #4294967295
 8000276:	f080 8107 	bcs.w	8000488 <__udivmoddi4+0x290>
 800027a:	45a4      	cmp	ip, r4
 800027c:	f240 8104 	bls.w	8000488 <__udivmoddi4+0x290>
 8000280:	3802      	subs	r0, #2
 8000282:	442c      	add	r4, r5
 8000284:	ea40 4007 	orr.w	r0, r0, r7, lsl #16
 8000288:	eba4 040c 	sub.w	r4, r4, ip
 800028c:	2700      	movs	r7, #0
 800028e:	b11e      	cbz	r6, 8000298 <__udivmoddi4+0xa0>
 8000290:	40d4      	lsrs	r4, r2
 8000292:	2300      	movs	r3, #0
 8000294:	e9c6 4300 	strd	r4, r3, [r6]
 8000298:	4639      	mov	r1, r7
 800029a:	e8bd 87f0 	ldmia.w	sp!, {r4, r5, r6, r7, r8, r9, sl, pc}
 800029e:	428b      	cmp	r3, r1
 80002a0:	d909      	bls.n	80002b6 <__udivmoddi4+0xbe>
 80002a2:	2e00      	cmp	r6, #0
 80002a4:	f000 80eb 	beq.w	800047e <__udivmoddi4+0x286>
 80002a8:	2700      	movs	r7, #0
 80002aa:	e9c6 0100 	strd	r0, r1, [r6]
 80002ae:	4638      	mov	r0, r7
 80002b0:	4639      	mov	r1, r7
 80002b2:	e8bd 87f0 	ldmia.w	sp!, {r4, r5, r6, r7, r8, r9, sl, pc}
 80002b6:	fab3 f783 	clz	r7, r3
 80002ba:	2f00      	cmp	r7, #0
 80002bc:	d147      	bne.n	800034e <__udivmoddi4+0x156>
 80002be:	428b      	cmp	r3, r1
 80002c0:	d302      	bcc.n	80002c8 <__udivmoddi4+0xd0>
 80002c2:	4282      	cmp	r2, r0
 80002c4:	f200 80fa 	bhi.w	80004bc <__udivmoddi4+0x2c4>
 80002c8:	1a84      	subs	r4, r0, r2
 80002ca:	eb61 0303 	sbc.w	r3, r1, r3
 80002ce:	2001      	movs	r0, #1
 80002d0:	4698      	mov	r8, r3
 80002d2:	2e00      	cmp	r6, #0
 80002d4:	d0e0      	beq.n	8000298 <__udivmoddi4+0xa0>
 80002d6:	e9c6 4800 	strd	r4, r8, [r6]
 80002da:	e7dd      	b.n	8000298 <__udivmoddi4+0xa0>
 80002dc:	b902      	cbnz	r2, 80002e0 <__udivmoddi4+0xe8>
 80002de:	deff      	udf	#255	; 0xff
 80002e0:	fab2 f282 	clz	r2, r2
 80002e4:	2a00      	cmp	r2, #0
 80002e6:	f040 808f 	bne.w	8000408 <__udivmoddi4+0x210>
 80002ea:	1b49      	subs	r1, r1, r5
 80002ec:	ea4f 4e15 	mov.w	lr, r5, lsr #16
 80002f0:	fa1f f885 	uxth.w	r8, r5
 80002f4:	2701      	movs	r7, #1
 80002f6:	fbb1 fcfe 	udiv	ip, r1, lr
 80002fa:	0c23      	lsrs	r3, r4, #16
 80002fc:	fb0e 111c 	mls	r1, lr, ip, r1
 8000300:	ea43 4301 	orr.w	r3, r3, r1, lsl #16
 8000304:	fb08 f10c 	mul.w	r1, r8, ip
 8000308:	4299      	cmp	r1, r3
 800030a:	d907      	bls.n	800031c <__udivmoddi4+0x124>
 800030c:	18eb      	adds	r3, r5, r3
 800030e:	f10c 30ff 	add.w	r0, ip, #4294967295
 8000312:	d202      	bcs.n	800031a <__udivmoddi4+0x122>
 8000314:	4299      	cmp	r1, r3
 8000316:	f200 80cd 	bhi.w	80004b4 <__udivmoddi4+0x2bc>
 800031a:	4684      	mov	ip, r0
 800031c:	1a59      	subs	r1, r3, r1
 800031e:	b2a3      	uxth	r3, r4
 8000320:	fbb1 f0fe 	udiv	r0, r1, lr
 8000324:	fb0e 1410 	mls	r4, lr, r0, r1
 8000328:	ea43 4404 	orr.w	r4, r3, r4, lsl #16
 800032c:	fb08 f800 	mul.w	r8, r8, r0
 8000330:	45a0      	cmp	r8, r4
 8000332:	d907      	bls.n	8000344 <__udivmoddi4+0x14c>
 8000334:	192c      	adds	r4, r5, r4
 8000336:	f100 33ff 	add.w	r3, r0, #4294967295
 800033a:	d202      	bcs.n	8000342 <__udivmoddi4+0x14a>
 800033c:	45a0      	cmp	r8, r4
 800033e:	f200 80b6 	bhi.w	80004ae <__udivmoddi4+0x2b6>
 8000342:	4618      	mov	r0, r3
 8000344:	eba4 0408 	sub.w	r4, r4, r8
 8000348:	ea40 400c 	orr.w	r0, r0, ip, lsl #16
 800034c:	e79f      	b.n	800028e <__udivmoddi4+0x96>
 800034e:	f1c7 0c20 	rsb	ip, r7, #32
 8000352:	40bb      	lsls	r3, r7
 8000354:	fa22 fe0c 	lsr.w	lr, r2, ip
 8000358:	ea4e 0e03 	orr.w	lr, lr, r3
 800035c:	fa01 f407 	lsl.w	r4, r1, r7
 8000360:	fa20 f50c 	lsr.w	r5, r0, ip
 8000364:	fa21 f30c 	lsr.w	r3, r1, ip
 8000368:	ea4f 481e 	mov.w	r8, lr, lsr #16
 800036c:	4325      	orrs	r5, r4
 800036e:	fbb3 f9f8 	udiv	r9, r3, r8
 8000372:	0c2c      	lsrs	r4, r5, #16
 8000374:	fb08 3319 	mls	r3, r8, r9, r3
 8000378:	fa1f fa8e 	uxth.w	sl, lr
 800037c:	ea44 4303 	orr.w	r3, r4, r3, lsl #16
 8000380:	fb09 f40a 	mul.w	r4, r9, sl
 8000384:	429c      	cmp	r4, r3
 8000386:	fa02 f207 	lsl.w	r2, r2, r7
 800038a:	fa00 f107 	lsl.w	r1, r0, r7
 800038e:	d90b      	bls.n	80003a8 <__udivmoddi4+0x1b0>
 8000390:	eb1e 0303 	adds.w	r3, lr, r3
 8000394:	f109 30ff 	add.w	r0, r9, #4294967295
 8000398:	f080 8087 	bcs.w	80004aa <__udivmoddi4+0x2b2>
 800039c:	429c      	cmp	r4, r3
 800039e:	f240 8084 	bls.w	80004aa <__udivmoddi4+0x2b2>
 80003a2:	f1a9 0902 	sub.w	r9, r9, #2
 80003a6:	4473      	add	r3, lr
 80003a8:	1b1b      	subs	r3, r3, r4
 80003aa:	b2ad      	uxth	r5, r5
 80003ac:	fbb3 f0f8 	udiv	r0, r3, r8
 80003b0:	fb08 3310 	mls	r3, r8, r0, r3
 80003b4:	ea45 4403 	orr.w	r4, r5, r3, lsl #16
 80003b8:	fb00 fa0a 	mul.w	sl, r0, sl
 80003bc:	45a2      	cmp	sl, r4
 80003be:	d908      	bls.n	80003d2 <__udivmoddi4+0x1da>
 80003c0:	eb1e 0404 	adds.w	r4, lr, r4
 80003c4:	f100 33ff 	add.w	r3, r0, #4294967295
 80003c8:	d26b      	bcs.n	80004a2 <__udivmoddi4+0x2aa>
 80003ca:	45a2      	cmp	sl, r4
 80003cc:	d969      	bls.n	80004a2 <__udivmoddi4+0x2aa>
 80003ce:	3802      	subs	r0, #2
 80003d0:	4474      	add	r4, lr
 80003d2:	ea40 4009 	orr.w	r0, r0, r9, lsl #16
 80003d6:	fba0 8902 	umull	r8, r9, r0, r2
 80003da:	eba4 040a 	sub.w	r4, r4, sl
 80003de:	454c      	cmp	r4, r9
 80003e0:	46c2      	mov	sl, r8
 80003e2:	464b      	mov	r3, r9
 80003e4:	d354      	bcc.n	8000490 <__udivmoddi4+0x298>
 80003e6:	d051      	beq.n	800048c <__udivmoddi4+0x294>
 80003e8:	2e00      	cmp	r6, #0
 80003ea:	d069      	beq.n	80004c0 <__udivmoddi4+0x2c8>
 80003ec:	ebb1 050a 	subs.w	r5, r1, sl
 80003f0:	eb64 0403 	sbc.w	r4, r4, r3
 80003f4:	fa04 fc0c 	lsl.w	ip, r4, ip
 80003f8:	40fd      	lsrs	r5, r7
 80003fa:	40fc      	lsrs	r4, r7
 80003fc:	ea4c 0505 	orr.w	r5, ip, r5
 8000400:	e9c6 5400 	strd	r5, r4, [r6]
 8000404:	2700      	movs	r7, #0
 8000406:	e747      	b.n	8000298 <__udivmoddi4+0xa0>
 8000408:	f1c2 0320 	rsb	r3, r2, #32
 800040c:	fa20 f703 	lsr.w	r7, r0, r3
 8000410:	4095      	lsls	r5, r2
 8000412:	fa01 f002 	lsl.w	r0, r1, r2
 8000416:	fa21 f303 	lsr.w	r3, r1, r3
 800041a:	ea4f 4e15 	mov.w	lr, r5, lsr #16
 800041e:	4338      	orrs	r0, r7
 8000420:	0c01      	lsrs	r1, r0, #16
 8000422:	fbb3 f7fe 	udiv	r7, r3, lr
 8000426:	fa1f f885 	uxth.w	r8, r5
 800042a:	fb0e 3317 	mls	r3, lr, r7, r3
 800042e:	ea41 4103 	orr.w	r1, r1, r3, lsl #16
 8000432:	fb07 f308 	mul.w	r3, r7, r8
 8000436:	428b      	cmp	r3, r1
 8000438:	fa04 f402 	lsl.w	r4, r4, r2
 800043c:	d907      	bls.n	800044e <__udivmoddi4+0x256>
 800043e:	1869      	adds	r1, r5, r1
 8000440:	f107 3cff 	add.w	ip, r7, #4294967295
 8000444:	d22f      	bcs.n	80004a6 <__udivmoddi4+0x2ae>
 8000446:	428b      	cmp	r3, r1
 8000448:	d92d      	bls.n	80004a6 <__udivmoddi4+0x2ae>
 800044a:	3f02      	subs	r7, #2
 800044c:	4429      	add	r1, r5
 800044e:	1acb      	subs	r3, r1, r3
 8000450:	b281      	uxth	r1, r0
 8000452:	fbb3 f0fe 	udiv	r0, r3, lr
 8000456:	fb0e 3310 	mls	r3, lr, r0, r3
 800045a:	ea41 4103 	orr.w	r1, r1, r3, lsl #16
 800045e:	fb00 f308 	mul.w	r3, r0, r8
 8000462:	428b      	cmp	r3, r1
 8000464:	d907      	bls.n	8000476 <__udivmoddi4+0x27e>
 8000466:	1869      	adds	r1, r5, r1
 8000468:	f100 3cff 	add.w	ip, r0, #4294967295
 800046c:	d217      	bcs.n	800049e <__udivmoddi4+0x2a6>
 800046e:	428b      	cmp	r3, r1
 8000470:	d915      	bls.n	800049e <__udivmoddi4+0x2a6>
 8000472:	3802      	subs	r0, #2
 8000474:	4429      	add	r1, r5
 8000476:	1ac9      	subs	r1, r1, r3
 8000478:	ea40 4707 	orr.w	r7, r0, r7, lsl #16
 800047c:	e73b      	b.n	80002f6 <__udivmoddi4+0xfe>
 800047e:	4637      	mov	r7, r6
 8000480:	4630      	mov	r0, r6
 8000482:	e709      	b.n	8000298 <__udivmoddi4+0xa0>
 8000484:	4607      	mov	r7, r0
 8000486:	e6e7      	b.n	8000258 <__udivmoddi4+0x60>
 8000488:	4618      	mov	r0, r3
 800048a:	e6fb      	b.n	8000284 <__udivmoddi4+0x8c>
 800048c:	4541      	cmp	r1, r8
 800048e:	d2ab      	bcs.n	80003e8 <__udivmoddi4+0x1f0>
 8000490:	ebb8 0a02 	subs.w	sl, r8, r2
 8000494:	eb69 020e 	sbc.w	r2, r9, lr
 8000498:	3801      	subs	r0, #1
 800049a:	4613      	mov	r3, r2
 800049c:	e7a4      	b.n	80003e8 <__udivmoddi4+0x1f0>
 800049e:	4660      	mov	r0, ip
 80004a0:	e7e9      	b.n	8000476 <__udivmoddi4+0x27e>
 80004a2:	4618      	mov	r0, r3
 80004a4:	e795      	b.n	80003d2 <__udivmoddi4+0x1da>
 80004a6:	4667      	mov	r7, ip
 80004a8:	e7d1      	b.n	800044e <__udivmoddi4+0x256>
 80004aa:	4681      	mov	r9, r0
 80004ac:	e77c      	b.n	80003a8 <__udivmoddi4+0x1b0>
 80004ae:	3802      	subs	r0, #2
 80004b0:	442c      	add	r4, r5
 80004b2:	e747      	b.n	8000344 <__udivmoddi4+0x14c>
 80004b4:	f1ac 0c02 	sub.w	ip, ip, #2
 80004b8:	442b      	add	r3, r5
 80004ba:	e72f      	b.n	800031c <__udivmoddi4+0x124>
 80004bc:	4638      	mov	r0, r7
 80004be:	e708      	b.n	80002d2 <__udivmoddi4+0xda>
 80004c0:	4637      	mov	r7, r6
 80004c2:	e6e9      	b.n	8000298 <__udivmoddi4+0xa0>

080004c4 <__aeabi_idiv0>:
 80004c4:	4770      	bx	lr
 80004c6:	bf00      	nop

080004c8 <main>:
/**
  * @brief  The application entry point.
  * @retval int
  */
int main(void)
{
 80004c8:	b580      	push	{r7, lr}
 80004ca:	af00      	add	r7, sp, #0
  /* USER CODE END 1 */

  /* MCU Configuration--------------------------------------------------------*/

  /* Reset of all peripherals, Initializes the Flash interface and the Systick. */
  HAL_Init();
 80004cc:	f000 fb48 	bl	8000b60 <HAL_Init>
  /* USER CODE BEGIN Init */

  /* USER CODE END Init */

  /* Configure the system clock */
  SystemClock_Config();
 80004d0:	f000 f82e 	bl	8000530 <SystemClock_Config>
  /* USER CODE BEGIN SysInit */

  /* USER CODE END SysInit */

  /* Initialize all configured peripherals */
  MX_GPIO_Init();
 80004d4:	f000 f944 	bl	8000760 <MX_GPIO_Init>
  MX_TIM2_Init();
 80004d8:	f000 f894 	bl	8000604 <MX_TIM2_Init>
  MX_USART2_UART_Init();
 80004dc:	f000 f916 	bl	800070c <MX_USART2_UART_Init>
  /* USER CODE BEGIN 2 */

  /* USER CODE END 2 */
if (HAL_TIM_PWM_Start(&htim2,TIM_CHANNEL_1)!= HAL_OK)
 80004e0:	2100      	movs	r1, #0
 80004e2:	4812      	ldr	r0, [pc, #72]	; (800052c <main+0x64>)
 80004e4:	f001 fb24 	bl	8001b30 <HAL_TIM_PWM_Start>
 80004e8:	4603      	mov	r3, r0
 80004ea:	2b00      	cmp	r3, #0
 80004ec:	d001      	beq.n	80004f2 <main+0x2a>
{
	Error_Handler();
 80004ee:	f000 f9b5 	bl	800085c <Error_Handler>
}
if (HAL_TIM_PWM_Start(&htim2,TIM_CHANNEL_2)!= HAL_OK)
 80004f2:	2104      	movs	r1, #4
 80004f4:	480d      	ldr	r0, [pc, #52]	; (800052c <main+0x64>)
 80004f6:	f001 fb1b 	bl	8001b30 <HAL_TIM_PWM_Start>
 80004fa:	4603      	mov	r3, r0
 80004fc:	2b00      	cmp	r3, #0
 80004fe:	d001      	beq.n	8000504 <main+0x3c>
{
	Error_Handler();
 8000500:	f000 f9ac 	bl	800085c <Error_Handler>
}
if (HAL_TIM_PWM_Start(&htim2,TIM_CHANNEL_3)!= HAL_OK)
 8000504:	2108      	movs	r1, #8
 8000506:	4809      	ldr	r0, [pc, #36]	; (800052c <main+0x64>)
 8000508:	f001 fb12 	bl	8001b30 <HAL_TIM_PWM_Start>
 800050c:	4603      	mov	r3, r0
 800050e:	2b00      	cmp	r3, #0
 8000510:	d001      	beq.n	8000516 <main+0x4e>
{
	Error_Handler();
 8000512:	f000 f9a3 	bl	800085c <Error_Handler>
}
if (HAL_TIM_PWM_Start(&htim2,TIM_CHANNEL_4)!= HAL_OK)
 8000516:	210c      	movs	r1, #12
 8000518:	4804      	ldr	r0, [pc, #16]	; (800052c <main+0x64>)
 800051a:	f001 fb09 	bl	8001b30 <HAL_TIM_PWM_Start>
 800051e:	4603      	mov	r3, r0
 8000520:	2b00      	cmp	r3, #0
 8000522:	d001      	beq.n	8000528 <main+0x60>
{
	Error_Handler();
 8000524:	f000 f99a 	bl	800085c <Error_Handler>
}

  /* Infinite loop */
  /* USER CODE BEGIN WHILE */
  while (1)
 8000528:	e7fe      	b.n	8000528 <main+0x60>
 800052a:	bf00      	nop
 800052c:	20000028 	.word	0x20000028

08000530 <SystemClock_Config>:
/**
  * @brief System Clock Configuration
  * @retval None
  */
void SystemClock_Config(void)
{
 8000530:	b580      	push	{r7, lr}
 8000532:	b094      	sub	sp, #80	; 0x50
 8000534:	af00      	add	r7, sp, #0
  RCC_OscInitTypeDef RCC_OscInitStruct = {0};
 8000536:	f107 0320 	add.w	r3, r7, #32
 800053a:	2230      	movs	r2, #48	; 0x30
 800053c:	2100      	movs	r1, #0
 800053e:	4618      	mov	r0, r3
 8000540:	f002 fe68 	bl	8003214 <memset>
  RCC_ClkInitTypeDef RCC_ClkInitStruct = {0};
 8000544:	f107 030c 	add.w	r3, r7, #12
 8000548:	2200      	movs	r2, #0
 800054a:	601a      	str	r2, [r3, #0]
 800054c:	605a      	str	r2, [r3, #4]
 800054e:	609a      	str	r2, [r3, #8]
 8000550:	60da      	str	r2, [r3, #12]
 8000552:	611a      	str	r2, [r3, #16]

  /** Configure the main internal regulator output voltage 
  */
  __HAL_RCC_PWR_CLK_ENABLE();
 8000554:	2300      	movs	r3, #0
 8000556:	60bb      	str	r3, [r7, #8]
 8000558:	4b28      	ldr	r3, [pc, #160]	; (80005fc <SystemClock_Config+0xcc>)
 800055a:	6c1b      	ldr	r3, [r3, #64]	; 0x40
 800055c:	4a27      	ldr	r2, [pc, #156]	; (80005fc <SystemClock_Config+0xcc>)
 800055e:	f043 5380 	orr.w	r3, r3, #268435456	; 0x10000000
 8000562:	6413      	str	r3, [r2, #64]	; 0x40
 8000564:	4b25      	ldr	r3, [pc, #148]	; (80005fc <SystemClock_Config+0xcc>)
 8000566:	6c1b      	ldr	r3, [r3, #64]	; 0x40
 8000568:	f003 5380 	and.w	r3, r3, #268435456	; 0x10000000
 800056c:	60bb      	str	r3, [r7, #8]
 800056e:	68bb      	ldr	r3, [r7, #8]
  __HAL_PWR_VOLTAGESCALING_CONFIG(PWR_REGULATOR_VOLTAGE_SCALE1);
 8000570:	2300      	movs	r3, #0
 8000572:	607b      	str	r3, [r7, #4]
 8000574:	4b22      	ldr	r3, [pc, #136]	; (8000600 <SystemClock_Config+0xd0>)
 8000576:	681b      	ldr	r3, [r3, #0]
 8000578:	4a21      	ldr	r2, [pc, #132]	; (8000600 <SystemClock_Config+0xd0>)
 800057a:	f443 4380 	orr.w	r3, r3, #16384	; 0x4000
 800057e:	6013      	str	r3, [r2, #0]
 8000580:	4b1f      	ldr	r3, [pc, #124]	; (8000600 <SystemClock_Config+0xd0>)
 8000582:	681b      	ldr	r3, [r3, #0]
 8000584:	f403 4380 	and.w	r3, r3, #16384	; 0x4000
 8000588:	607b      	str	r3, [r7, #4]
 800058a:	687b      	ldr	r3, [r7, #4]
  /** Initializes the CPU, AHB and APB busses clocks 
  */
  RCC_OscInitStruct.OscillatorType = RCC_OSCILLATORTYPE_HSE;
 800058c:	2301      	movs	r3, #1
 800058e:	623b      	str	r3, [r7, #32]
  RCC_OscInitStruct.HSEState = RCC_HSE_ON;
 8000590:	f44f 3380 	mov.w	r3, #65536	; 0x10000
 8000594:	627b      	str	r3, [r7, #36]	; 0x24
  RCC_OscInitStruct.PLL.PLLState = RCC_PLL_ON;
 8000596:	2302      	movs	r3, #2
 8000598:	63bb      	str	r3, [r7, #56]	; 0x38
  RCC_OscInitStruct.PLL.PLLSource = RCC_PLLSOURCE_HSE;
 800059a:	f44f 0380 	mov.w	r3, #4194304	; 0x400000
 800059e:	63fb      	str	r3, [r7, #60]	; 0x3c
  RCC_OscInitStruct.PLL.PLLM = 8;
 80005a0:	2308      	movs	r3, #8
 80005a2:	643b      	str	r3, [r7, #64]	; 0x40
  RCC_OscInitStruct.PLL.PLLN = 100;
 80005a4:	2364      	movs	r3, #100	; 0x64
 80005a6:	647b      	str	r3, [r7, #68]	; 0x44
  RCC_OscInitStruct.PLL.PLLP = RCC_PLLP_DIV2;
 80005a8:	2302      	movs	r3, #2
 80005aa:	64bb      	str	r3, [r7, #72]	; 0x48
  RCC_OscInitStruct.PLL.PLLQ = 7;
 80005ac:	2307      	movs	r3, #7
 80005ae:	64fb      	str	r3, [r7, #76]	; 0x4c
  if (HAL_RCC_OscConfig(&RCC_OscInitStruct) != HAL_OK)
 80005b0:	f107 0320 	add.w	r3, r7, #32
 80005b4:	4618      	mov	r0, r3
 80005b6:	f000 fe2d 	bl	8001214 <HAL_RCC_OscConfig>
 80005ba:	4603      	mov	r3, r0
 80005bc:	2b00      	cmp	r3, #0
 80005be:	d001      	beq.n	80005c4 <SystemClock_Config+0x94>
  {
    Error_Handler();
 80005c0:	f000 f94c 	bl	800085c <Error_Handler>
  }
  /** Initializes the CPU, AHB and APB busses clocks 
  */
  RCC_ClkInitStruct.ClockType = RCC_CLOCKTYPE_HCLK|RCC_CLOCKTYPE_SYSCLK
 80005c4:	230f      	movs	r3, #15
 80005c6:	60fb      	str	r3, [r7, #12]
                              |RCC_CLOCKTYPE_PCLK1|RCC_CLOCKTYPE_PCLK2;
  RCC_ClkInitStruct.SYSCLKSource = RCC_SYSCLKSOURCE_PLLCLK;
 80005c8:	2302      	movs	r3, #2
 80005ca:	613b      	str	r3, [r7, #16]
  RCC_ClkInitStruct.AHBCLKDivider = RCC_SYSCLK_DIV1;
 80005cc:	2300      	movs	r3, #0
 80005ce:	617b      	str	r3, [r7, #20]
  RCC_ClkInitStruct.APB1CLKDivider = RCC_HCLK_DIV2;
 80005d0:	f44f 5380 	mov.w	r3, #4096	; 0x1000
 80005d4:	61bb      	str	r3, [r7, #24]
  RCC_ClkInitStruct.APB2CLKDivider = RCC_HCLK_DIV2;
 80005d6:	f44f 5380 	mov.w	r3, #4096	; 0x1000
 80005da:	61fb      	str	r3, [r7, #28]

  if (HAL_RCC_ClockConfig(&RCC_ClkInitStruct, FLASH_LATENCY_1) != HAL_OK)
 80005dc:	f107 030c 	add.w	r3, r7, #12
 80005e0:	2101      	movs	r1, #1
 80005e2:	4618      	mov	r0, r3
 80005e4:	f001 f886 	bl	80016f4 <HAL_RCC_ClockConfig>
 80005e8:	4603      	mov	r3, r0
 80005ea:	2b00      	cmp	r3, #0
 80005ec:	d001      	beq.n	80005f2 <SystemClock_Config+0xc2>
  {
    Error_Handler();
 80005ee:	f000 f935 	bl	800085c <Error_Handler>
  }
}
 80005f2:	bf00      	nop
 80005f4:	3750      	adds	r7, #80	; 0x50
 80005f6:	46bd      	mov	sp, r7
 80005f8:	bd80      	pop	{r7, pc}
 80005fa:	bf00      	nop
 80005fc:	40023800 	.word	0x40023800
 8000600:	40007000 	.word	0x40007000

08000604 <MX_TIM2_Init>:
  * @brief TIM2 Initialization Function
  * @param None
  * @retval None
  */
static void MX_TIM2_Init(void)
{
 8000604:	b580      	push	{r7, lr}
 8000606:	b08a      	sub	sp, #40	; 0x28
 8000608:	af00      	add	r7, sp, #0

  /* USER CODE BEGIN TIM2_Init 0 */

  /* USER CODE END TIM2_Init 0 */

  TIM_MasterConfigTypeDef sMasterConfig = {0};
 800060a:	f107 0320 	add.w	r3, r7, #32
 800060e:	2200      	movs	r2, #0
 8000610:	601a      	str	r2, [r3, #0]
 8000612:	605a      	str	r2, [r3, #4]
  TIM_OC_InitTypeDef sConfigOC = {0};
 8000614:	1d3b      	adds	r3, r7, #4
 8000616:	2200      	movs	r2, #0
 8000618:	601a      	str	r2, [r3, #0]
 800061a:	605a      	str	r2, [r3, #4]
 800061c:	609a      	str	r2, [r3, #8]
 800061e:	60da      	str	r2, [r3, #12]
 8000620:	611a      	str	r2, [r3, #16]
 8000622:	615a      	str	r2, [r3, #20]
 8000624:	619a      	str	r2, [r3, #24]

  /* USER CODE BEGIN TIM2_Init 1 */

  /* USER CODE END TIM2_Init 1 */
  htim2.Instance = TIM2;
 8000626:	4b38      	ldr	r3, [pc, #224]	; (8000708 <MX_TIM2_Init+0x104>)
 8000628:	f04f 4280 	mov.w	r2, #1073741824	; 0x40000000
 800062c:	601a      	str	r2, [r3, #0]
  htim2.Init.Prescaler = 4;
 800062e:	4b36      	ldr	r3, [pc, #216]	; (8000708 <MX_TIM2_Init+0x104>)
 8000630:	2204      	movs	r2, #4
 8000632:	605a      	str	r2, [r3, #4]
  htim2.Init.CounterMode = TIM_COUNTERMODE_UP;
 8000634:	4b34      	ldr	r3, [pc, #208]	; (8000708 <MX_TIM2_Init+0x104>)
 8000636:	2200      	movs	r2, #0
 8000638:	609a      	str	r2, [r3, #8]
  htim2.Init.Period = 10000-1;
 800063a:	4b33      	ldr	r3, [pc, #204]	; (8000708 <MX_TIM2_Init+0x104>)
 800063c:	f242 720f 	movw	r2, #9999	; 0x270f
 8000640:	60da      	str	r2, [r3, #12]
  htim2.Init.ClockDivision = TIM_CLOCKDIVISION_DIV1;
 8000642:	4b31      	ldr	r3, [pc, #196]	; (8000708 <MX_TIM2_Init+0x104>)
 8000644:	2200      	movs	r2, #0
 8000646:	611a      	str	r2, [r3, #16]
  htim2.Init.AutoReloadPreload = TIM_AUTORELOAD_PRELOAD_DISABLE;
 8000648:	4b2f      	ldr	r3, [pc, #188]	; (8000708 <MX_TIM2_Init+0x104>)
 800064a:	2200      	movs	r2, #0
 800064c:	619a      	str	r2, [r3, #24]
  if (HAL_TIM_PWM_Init(&htim2) != HAL_OK)
 800064e:	482e      	ldr	r0, [pc, #184]	; (8000708 <MX_TIM2_Init+0x104>)
 8000650:	f001 fa42 	bl	8001ad8 <HAL_TIM_PWM_Init>
 8000654:	4603      	mov	r3, r0
 8000656:	2b00      	cmp	r3, #0
 8000658:	d001      	beq.n	800065e <MX_TIM2_Init+0x5a>
  {
    Error_Handler();
 800065a:	f000 f8ff 	bl	800085c <Error_Handler>
  }
  sMasterConfig.MasterOutputTrigger = TIM_TRGO_RESET;
 800065e:	2300      	movs	r3, #0
 8000660:	623b      	str	r3, [r7, #32]
  sMasterConfig.MasterSlaveMode = TIM_MASTERSLAVEMODE_DISABLE;
 8000662:	2300      	movs	r3, #0
 8000664:	627b      	str	r3, [r7, #36]	; 0x24
  if (HAL_TIMEx_MasterConfigSynchronization(&htim2, &sMasterConfig) != HAL_OK)
 8000666:	f107 0320 	add.w	r3, r7, #32
 800066a:	4619      	mov	r1, r3
 800066c:	4826      	ldr	r0, [pc, #152]	; (8000708 <MX_TIM2_Init+0x104>)
 800066e:	f001 ff13 	bl	8002498 <HAL_TIMEx_MasterConfigSynchronization>
 8000672:	4603      	mov	r3, r0
 8000674:	2b00      	cmp	r3, #0
 8000676:	d001      	beq.n	800067c <MX_TIM2_Init+0x78>
  {
    Error_Handler();
 8000678:	f000 f8f0 	bl	800085c <Error_Handler>
  }
  sConfigOC.OCMode = TIM_OCMODE_PWM1;
 800067c:	2360      	movs	r3, #96	; 0x60
 800067e:	607b      	str	r3, [r7, #4]
  sConfigOC.Pulse = ((10000-1 ) *25)/100;         //25% deuty  = (arr * 25)/100
 8000680:	f640 13c3 	movw	r3, #2499	; 0x9c3
 8000684:	60bb      	str	r3, [r7, #8]
  sConfigOC.OCPolarity = TIM_OCPOLARITY_HIGH;
 8000686:	2300      	movs	r3, #0
 8000688:	60fb      	str	r3, [r7, #12]
  sConfigOC.OCFastMode = TIM_OCFAST_DISABLE;
 800068a:	2300      	movs	r3, #0
 800068c:	617b      	str	r3, [r7, #20]
  if (HAL_TIM_PWM_ConfigChannel(&htim2, &sConfigOC, TIM_CHANNEL_1) != HAL_OK)
 800068e:	1d3b      	adds	r3, r7, #4
 8000690:	2200      	movs	r2, #0
 8000692:	4619      	mov	r1, r3
 8000694:	481c      	ldr	r0, [pc, #112]	; (8000708 <MX_TIM2_Init+0x104>)
 8000696:	f001 fb91 	bl	8001dbc <HAL_TIM_PWM_ConfigChannel>
 800069a:	4603      	mov	r3, r0
 800069c:	2b00      	cmp	r3, #0
 800069e:	d001      	beq.n	80006a4 <MX_TIM2_Init+0xa0>
  {
    Error_Handler();
 80006a0:	f000 f8dc 	bl	800085c <Error_Handler>
  }
  sConfigOC.Pulse = ((10000-1 ) *45)/100;
 80006a4:	f241 1393 	movw	r3, #4499	; 0x1193
 80006a8:	60bb      	str	r3, [r7, #8]
  if (HAL_TIM_PWM_ConfigChannel(&htim2, &sConfigOC, TIM_CHANNEL_2) != HAL_OK)
 80006aa:	1d3b      	adds	r3, r7, #4
 80006ac:	2204      	movs	r2, #4
 80006ae:	4619      	mov	r1, r3
 80006b0:	4815      	ldr	r0, [pc, #84]	; (8000708 <MX_TIM2_Init+0x104>)
 80006b2:	f001 fb83 	bl	8001dbc <HAL_TIM_PWM_ConfigChannel>
 80006b6:	4603      	mov	r3, r0
 80006b8:	2b00      	cmp	r3, #0
 80006ba:	d001      	beq.n	80006c0 <MX_TIM2_Init+0xbc>
  {
    Error_Handler();
 80006bc:	f000 f8ce 	bl	800085c <Error_Handler>
  }
  sConfigOC.Pulse = ((10000-1 ) *75)/100;
 80006c0:	f641 534b 	movw	r3, #7499	; 0x1d4b
 80006c4:	60bb      	str	r3, [r7, #8]
  if (HAL_TIM_PWM_ConfigChannel(&htim2, &sConfigOC, TIM_CHANNEL_3) != HAL_OK)
 80006c6:	1d3b      	adds	r3, r7, #4
 80006c8:	2208      	movs	r2, #8
 80006ca:	4619      	mov	r1, r3
 80006cc:	480e      	ldr	r0, [pc, #56]	; (8000708 <MX_TIM2_Init+0x104>)
 80006ce:	f001 fb75 	bl	8001dbc <HAL_TIM_PWM_ConfigChannel>
 80006d2:	4603      	mov	r3, r0
 80006d4:	2b00      	cmp	r3, #0
 80006d6:	d001      	beq.n	80006dc <MX_TIM2_Init+0xd8>
  {
    Error_Handler();
 80006d8:	f000 f8c0 	bl	800085c <Error_Handler>
  }
  sConfigOC.Pulse = ((10000-1 ) *90)/100;
 80006dc:	f242 3327 	movw	r3, #8999	; 0x2327
 80006e0:	60bb      	str	r3, [r7, #8]
  if (HAL_TIM_PWM_ConfigChannel(&htim2, &sConfigOC, TIM_CHANNEL_4) != HAL_OK)
 80006e2:	1d3b      	adds	r3, r7, #4
 80006e4:	220c      	movs	r2, #12
 80006e6:	4619      	mov	r1, r3
 80006e8:	4807      	ldr	r0, [pc, #28]	; (8000708 <MX_TIM2_Init+0x104>)
 80006ea:	f001 fb67 	bl	8001dbc <HAL_TIM_PWM_ConfigChannel>
 80006ee:	4603      	mov	r3, r0
 80006f0:	2b00      	cmp	r3, #0
 80006f2:	d001      	beq.n	80006f8 <MX_TIM2_Init+0xf4>
  {
    Error_Handler();
 80006f4:	f000 f8b2 	bl	800085c <Error_Handler>
  }
  /* USER CODE BEGIN TIM2_Init 2 */

  /* USER CODE END TIM2_Init 2 */
  HAL_TIM_MspPostInit(&htim2);
 80006f8:	4803      	ldr	r0, [pc, #12]	; (8000708 <MX_TIM2_Init+0x104>)
 80006fa:	f000 f905 	bl	8000908 <HAL_TIM_MspPostInit>

}
 80006fe:	bf00      	nop
 8000700:	3728      	adds	r7, #40	; 0x28
 8000702:	46bd      	mov	sp, r7
 8000704:	bd80      	pop	{r7, pc}
 8000706:	bf00      	nop
 8000708:	20000028 	.word	0x20000028

0800070c <MX_USART2_UART_Init>:
  * @brief USART2 Initialization Function
  * @param None
  * @retval None
  */
static void MX_USART2_UART_Init(void)
{
 800070c:	b580      	push	{r7, lr}
 800070e:	af00      	add	r7, sp, #0
  /* USER CODE END USART2_Init 0 */

  /* USER CODE BEGIN USART2_Init 1 */

  /* USER CODE END USART2_Init 1 */
  huart2.Instance = USART2;
 8000710:	4b11      	ldr	r3, [pc, #68]	; (8000758 <MX_USART2_UART_Init+0x4c>)
 8000712:	4a12      	ldr	r2, [pc, #72]	; (800075c <MX_USART2_UART_Init+0x50>)
 8000714:	601a      	str	r2, [r3, #0]
  huart2.Init.BaudRate = 115200;
 8000716:	4b10      	ldr	r3, [pc, #64]	; (8000758 <MX_USART2_UART_Init+0x4c>)
 8000718:	f44f 32e1 	mov.w	r2, #115200	; 0x1c200
 800071c:	605a      	str	r2, [r3, #4]
  huart2.Init.WordLength = UART_WORDLENGTH_8B;
 800071e:	4b0e      	ldr	r3, [pc, #56]	; (8000758 <MX_USART2_UART_Init+0x4c>)
 8000720:	2200      	movs	r2, #0
 8000722:	609a      	str	r2, [r3, #8]
  huart2.Init.StopBits = UART_STOPBITS_1;
 8000724:	4b0c      	ldr	r3, [pc, #48]	; (8000758 <MX_USART2_UART_Init+0x4c>)
 8000726:	2200      	movs	r2, #0
 8000728:	60da      	str	r2, [r3, #12]
  huart2.Init.Parity = UART_PARITY_NONE;
 800072a:	4b0b      	ldr	r3, [pc, #44]	; (8000758 <MX_USART2_UART_Init+0x4c>)
 800072c:	2200      	movs	r2, #0
 800072e:	611a      	str	r2, [r3, #16]
  huart2.Init.Mode = UART_MODE_TX_RX;
 8000730:	4b09      	ldr	r3, [pc, #36]	; (8000758 <MX_USART2_UART_Init+0x4c>)
 8000732:	220c      	movs	r2, #12
 8000734:	615a      	str	r2, [r3, #20]
  huart2.Init.HwFlowCtl = UART_HWCONTROL_NONE;
 8000736:	4b08      	ldr	r3, [pc, #32]	; (8000758 <MX_USART2_UART_Init+0x4c>)
 8000738:	2200      	movs	r2, #0
 800073a:	619a      	str	r2, [r3, #24]
  huart2.Init.OverSampling = UART_OVERSAMPLING_16;
 800073c:	4b06      	ldr	r3, [pc, #24]	; (8000758 <MX_USART2_UART_Init+0x4c>)
 800073e:	2200      	movs	r2, #0
 8000740:	61da      	str	r2, [r3, #28]
  if (HAL_UART_Init(&huart2) != HAL_OK)
 8000742:	4805      	ldr	r0, [pc, #20]	; (8000758 <MX_USART2_UART_Init+0x4c>)
 8000744:	f001 ff38 	bl	80025b8 <HAL_UART_Init>
 8000748:	4603      	mov	r3, r0
 800074a:	2b00      	cmp	r3, #0
 800074c:	d001      	beq.n	8000752 <MX_USART2_UART_Init+0x46>
  {
    Error_Handler();
 800074e:	f000 f885 	bl	800085c <Error_Handler>
  }
  /* USER CODE BEGIN USART2_Init 2 */

  /* USER CODE END USART2_Init 2 */

}
 8000752:	bf00      	nop
 8000754:	bd80      	pop	{r7, pc}
 8000756:	bf00      	nop
 8000758:	20000068 	.word	0x20000068
 800075c:	40004400 	.word	0x40004400

08000760 <MX_GPIO_Init>:
  * @brief GPIO Initialization Function
  * @param None
  * @retval None
  */
static void MX_GPIO_Init(void)
{
 8000760:	b580      	push	{r7, lr}
 8000762:	b08a      	sub	sp, #40	; 0x28
 8000764:	af00      	add	r7, sp, #0
  GPIO_InitTypeDef GPIO_InitStruct = {0};
 8000766:	f107 0314 	add.w	r3, r7, #20
 800076a:	2200      	movs	r2, #0
 800076c:	601a      	str	r2, [r3, #0]
 800076e:	605a      	str	r2, [r3, #4]
 8000770:	609a      	str	r2, [r3, #8]
 8000772:	60da      	str	r2, [r3, #12]
 8000774:	611a      	str	r2, [r3, #16]

  /* GPIO Ports Clock Enable */
  __HAL_RCC_GPIOH_CLK_ENABLE();
 8000776:	2300      	movs	r3, #0
 8000778:	613b      	str	r3, [r7, #16]
 800077a:	4b33      	ldr	r3, [pc, #204]	; (8000848 <MX_GPIO_Init+0xe8>)
 800077c:	6b1b      	ldr	r3, [r3, #48]	; 0x30
 800077e:	4a32      	ldr	r2, [pc, #200]	; (8000848 <MX_GPIO_Init+0xe8>)
 8000780:	f043 0380 	orr.w	r3, r3, #128	; 0x80
 8000784:	6313      	str	r3, [r2, #48]	; 0x30
 8000786:	4b30      	ldr	r3, [pc, #192]	; (8000848 <MX_GPIO_Init+0xe8>)
 8000788:	6b1b      	ldr	r3, [r3, #48]	; 0x30
 800078a:	f003 0380 	and.w	r3, r3, #128	; 0x80
 800078e:	613b      	str	r3, [r7, #16]
 8000790:	693b      	ldr	r3, [r7, #16]
  __HAL_RCC_GPIOA_CLK_ENABLE();
 8000792:	2300      	movs	r3, #0
 8000794:	60fb      	str	r3, [r7, #12]
 8000796:	4b2c      	ldr	r3, [pc, #176]	; (8000848 <MX_GPIO_Init+0xe8>)
 8000798:	6b1b      	ldr	r3, [r3, #48]	; 0x30
 800079a:	4a2b      	ldr	r2, [pc, #172]	; (8000848 <MX_GPIO_Init+0xe8>)
 800079c:	f043 0301 	orr.w	r3, r3, #1
 80007a0:	6313      	str	r3, [r2, #48]	; 0x30
 80007a2:	4b29      	ldr	r3, [pc, #164]	; (8000848 <MX_GPIO_Init+0xe8>)
 80007a4:	6b1b      	ldr	r3, [r3, #48]	; 0x30
 80007a6:	f003 0301 	and.w	r3, r3, #1
 80007aa:	60fb      	str	r3, [r7, #12]
 80007ac:	68fb      	ldr	r3, [r7, #12]
  __HAL_RCC_GPIOB_CLK_ENABLE();
 80007ae:	2300      	movs	r3, #0
 80007b0:	60bb      	str	r3, [r7, #8]
 80007b2:	4b25      	ldr	r3, [pc, #148]	; (8000848 <MX_GPIO_Init+0xe8>)
 80007b4:	6b1b      	ldr	r3, [r3, #48]	; 0x30
 80007b6:	4a24      	ldr	r2, [pc, #144]	; (8000848 <MX_GPIO_Init+0xe8>)
 80007b8:	f043 0302 	orr.w	r3, r3, #2
 80007bc:	6313      	str	r3, [r2, #48]	; 0x30
 80007be:	4b22      	ldr	r3, [pc, #136]	; (8000848 <MX_GPIO_Init+0xe8>)
 80007c0:	6b1b      	ldr	r3, [r3, #48]	; 0x30
 80007c2:	f003 0302 	and.w	r3, r3, #2
 80007c6:	60bb      	str	r3, [r7, #8]
 80007c8:	68bb      	ldr	r3, [r7, #8]
  __HAL_RCC_GPIOD_CLK_ENABLE();
 80007ca:	2300      	movs	r3, #0
 80007cc:	607b      	str	r3, [r7, #4]
 80007ce:	4b1e      	ldr	r3, [pc, #120]	; (8000848 <MX_GPIO_Init+0xe8>)
 80007d0:	6b1b      	ldr	r3, [r3, #48]	; 0x30
 80007d2:	4a1d      	ldr	r2, [pc, #116]	; (8000848 <MX_GPIO_Init+0xe8>)
 80007d4:	f043 0308 	orr.w	r3, r3, #8
 80007d8:	6313      	str	r3, [r2, #48]	; 0x30
 80007da:	4b1b      	ldr	r3, [pc, #108]	; (8000848 <MX_GPIO_Init+0xe8>)
 80007dc:	6b1b      	ldr	r3, [r3, #48]	; 0x30
 80007de:	f003 0308 	and.w	r3, r3, #8
 80007e2:	607b      	str	r3, [r7, #4]
 80007e4:	687b      	ldr	r3, [r7, #4]

  /*Configure GPIO pin Output Level */
  HAL_GPIO_WritePin(GPIOD, LD4_Pin|LD3_Pin|LD5_Pin|LD6_Pin, GPIO_PIN_RESET);
 80007e6:	2200      	movs	r2, #0
 80007e8:	f44f 4170 	mov.w	r1, #61440	; 0xf000
 80007ec:	4817      	ldr	r0, [pc, #92]	; (800084c <MX_GPIO_Init+0xec>)
 80007ee:	f000 fcf7 	bl	80011e0 <HAL_GPIO_WritePin>

  /*Configure GPIO pin : B1_Pin */
  GPIO_InitStruct.Pin = B1_Pin;
 80007f2:	2301      	movs	r3, #1
 80007f4:	617b      	str	r3, [r7, #20]
  GPIO_InitStruct.Mode = GPIO_MODE_EVT_RISING;
 80007f6:	4b16      	ldr	r3, [pc, #88]	; (8000850 <MX_GPIO_Init+0xf0>)
 80007f8:	61bb      	str	r3, [r7, #24]
  GPIO_InitStruct.Pull = GPIO_NOPULL;
 80007fa:	2300      	movs	r3, #0
 80007fc:	61fb      	str	r3, [r7, #28]
  HAL_GPIO_Init(B1_GPIO_Port, &GPIO_InitStruct);
 80007fe:	f107 0314 	add.w	r3, r7, #20
 8000802:	4619      	mov	r1, r3
 8000804:	4813      	ldr	r0, [pc, #76]	; (8000854 <MX_GPIO_Init+0xf4>)
 8000806:	f000 fb51 	bl	8000eac <HAL_GPIO_Init>

  /*Configure GPIO pin : BOOT1_Pin */
  GPIO_InitStruct.Pin = BOOT1_Pin;
 800080a:	2304      	movs	r3, #4
 800080c:	617b      	str	r3, [r7, #20]
  GPIO_InitStruct.Mode = GPIO_MODE_INPUT;
 800080e:	2300      	movs	r3, #0
 8000810:	61bb      	str	r3, [r7, #24]
  GPIO_InitStruct.Pull = GPIO_NOPULL;
 8000812:	2300      	movs	r3, #0
 8000814:	61fb      	str	r3, [r7, #28]
  HAL_GPIO_Init(BOOT1_GPIO_Port, &GPIO_InitStruct);
 8000816:	f107 0314 	add.w	r3, r7, #20
 800081a:	4619      	mov	r1, r3
 800081c:	480e      	ldr	r0, [pc, #56]	; (8000858 <MX_GPIO_Init+0xf8>)
 800081e:	f000 fb45 	bl	8000eac <HAL_GPIO_Init>

  /*Configure GPIO pins : LD4_Pin LD3_Pin LD5_Pin LD6_Pin */
  GPIO_InitStruct.Pin = LD4_Pin|LD3_Pin|LD5_Pin|LD6_Pin;
 8000822:	f44f 4370 	mov.w	r3, #61440	; 0xf000
 8000826:	617b      	str	r3, [r7, #20]
  GPIO_InitStruct.Mode = GPIO_MODE_OUTPUT_PP;
 8000828:	2301      	movs	r3, #1
 800082a:	61bb      	str	r3, [r7, #24]
  GPIO_InitStruct.Pull = GPIO_NOPULL;
 800082c:	2300      	movs	r3, #0
 800082e:	61fb      	str	r3, [r7, #28]
  GPIO_InitStruct.Speed = GPIO_SPEED_FREQ_LOW;
 8000830:	2300      	movs	r3, #0
 8000832:	623b      	str	r3, [r7, #32]
  HAL_GPIO_Init(GPIOD, &GPIO_InitStruct);
 8000834:	f107 0314 	add.w	r3, r7, #20
 8000838:	4619      	mov	r1, r3
 800083a:	4804      	ldr	r0, [pc, #16]	; (800084c <MX_GPIO_Init+0xec>)
 800083c:	f000 fb36 	bl	8000eac <HAL_GPIO_Init>

}
 8000840:	bf00      	nop
 8000842:	3728      	adds	r7, #40	; 0x28
 8000844:	46bd      	mov	sp, r7
 8000846:	bd80      	pop	{r7, pc}
 8000848:	40023800 	.word	0x40023800
 800084c:	40020c00 	.word	0x40020c00
 8000850:	10120000 	.word	0x10120000
 8000854:	40020000 	.word	0x40020000
 8000858:	40020400 	.word	0x40020400

0800085c <Error_Handler>:
/**
  * @brief  This function is executed in case of error occurrence.
  * @retval None
  */
void Error_Handler(void)
{
 800085c:	b480      	push	{r7}
 800085e:	af00      	add	r7, sp, #0
  /* USER CODE BEGIN Error_Handler_Debug */
  /* User can add his own implementation to report the HAL error return state */

  /* USER CODE END Error_Handler_Debug */
}
 8000860:	bf00      	nop
 8000862:	46bd      	mov	sp, r7
 8000864:	f85d 7b04 	ldr.w	r7, [sp], #4
 8000868:	4770      	bx	lr
	...

0800086c <HAL_MspInit>:
void HAL_TIM_MspPostInit(TIM_HandleTypeDef *htim);
                    /**
  * Initializes the Global MSP.
  */
void HAL_MspInit(void)
{
 800086c:	b580      	push	{r7, lr}
 800086e:	b082      	sub	sp, #8
 8000870:	af00      	add	r7, sp, #0
  /* USER CODE BEGIN MspInit 0 */

  /* USER CODE END MspInit 0 */

  __HAL_RCC_SYSCFG_CLK_ENABLE();
 8000872:	2300      	movs	r3, #0
 8000874:	607b      	str	r3, [r7, #4]
 8000876:	4b10      	ldr	r3, [pc, #64]	; (80008b8 <HAL_MspInit+0x4c>)
 8000878:	6c5b      	ldr	r3, [r3, #68]	; 0x44
 800087a:	4a0f      	ldr	r2, [pc, #60]	; (80008b8 <HAL_MspInit+0x4c>)
 800087c:	f443 4380 	orr.w	r3, r3, #16384	; 0x4000
 8000880:	6453      	str	r3, [r2, #68]	; 0x44
 8000882:	4b0d      	ldr	r3, [pc, #52]	; (80008b8 <HAL_MspInit+0x4c>)
 8000884:	6c5b      	ldr	r3, [r3, #68]	; 0x44
 8000886:	f403 4380 	and.w	r3, r3, #16384	; 0x4000
 800088a:	607b      	str	r3, [r7, #4]
 800088c:	687b      	ldr	r3, [r7, #4]
  __HAL_RCC_PWR_CLK_ENABLE();
 800088e:	2300      	movs	r3, #0
 8000890:	603b      	str	r3, [r7, #0]
 8000892:	4b09      	ldr	r3, [pc, #36]	; (80008b8 <HAL_MspInit+0x4c>)
 8000894:	6c1b      	ldr	r3, [r3, #64]	; 0x40
 8000896:	4a08      	ldr	r2, [pc, #32]	; (80008b8 <HAL_MspInit+0x4c>)
 8000898:	f043 5380 	orr.w	r3, r3, #268435456	; 0x10000000
 800089c:	6413      	str	r3, [r2, #64]	; 0x40
 800089e:	4b06      	ldr	r3, [pc, #24]	; (80008b8 <HAL_MspInit+0x4c>)
 80008a0:	6c1b      	ldr	r3, [r3, #64]	; 0x40
 80008a2:	f003 5380 	and.w	r3, r3, #268435456	; 0x10000000
 80008a6:	603b      	str	r3, [r7, #0]
 80008a8:	683b      	ldr	r3, [r7, #0]

  HAL_NVIC_SetPriorityGrouping(NVIC_PRIORITYGROUP_0);
 80008aa:	2007      	movs	r0, #7
 80008ac:	f000 fa9a 	bl	8000de4 <HAL_NVIC_SetPriorityGrouping>
  /* System interrupt init*/

  /* USER CODE BEGIN MspInit 1 */

  /* USER CODE END MspInit 1 */
}
 80008b0:	bf00      	nop
 80008b2:	3708      	adds	r7, #8
 80008b4:	46bd      	mov	sp, r7
 80008b6:	bd80      	pop	{r7, pc}
 80008b8:	40023800 	.word	0x40023800

080008bc <HAL_TIM_PWM_MspInit>:
* This function configures the hardware resources used in this example
* @param htim_pwm: TIM_PWM handle pointer
* @retval None
*/
void HAL_TIM_PWM_MspInit(TIM_HandleTypeDef* htim_pwm)
{
 80008bc:	b580      	push	{r7, lr}
 80008be:	b084      	sub	sp, #16
 80008c0:	af00      	add	r7, sp, #0
 80008c2:	6078      	str	r0, [r7, #4]
  if(htim_pwm->Instance==TIM2)
 80008c4:	687b      	ldr	r3, [r7, #4]
 80008c6:	681b      	ldr	r3, [r3, #0]
 80008c8:	f1b3 4f80 	cmp.w	r3, #1073741824	; 0x40000000
 80008cc:	d115      	bne.n	80008fa <HAL_TIM_PWM_MspInit+0x3e>
  {
  /* USER CODE BEGIN TIM2_MspInit 0 */

  /* USER CODE END TIM2_MspInit 0 */
    /* Peripheral clock enable */
    __HAL_RCC_TIM2_CLK_ENABLE();
 80008ce:	2300      	movs	r3, #0
 80008d0:	60fb      	str	r3, [r7, #12]
 80008d2:	4b0c      	ldr	r3, [pc, #48]	; (8000904 <HAL_TIM_PWM_MspInit+0x48>)
 80008d4:	6c1b      	ldr	r3, [r3, #64]	; 0x40
 80008d6:	4a0b      	ldr	r2, [pc, #44]	; (8000904 <HAL_TIM_PWM_MspInit+0x48>)
 80008d8:	f043 0301 	orr.w	r3, r3, #1
 80008dc:	6413      	str	r3, [r2, #64]	; 0x40
 80008de:	4b09      	ldr	r3, [pc, #36]	; (8000904 <HAL_TIM_PWM_MspInit+0x48>)
 80008e0:	6c1b      	ldr	r3, [r3, #64]	; 0x40
 80008e2:	f003 0301 	and.w	r3, r3, #1
 80008e6:	60fb      	str	r3, [r7, #12]
 80008e8:	68fb      	ldr	r3, [r7, #12]
    /* TIM2 interrupt Init */
    HAL_NVIC_SetPriority(TIM2_IRQn, 0, 0);
 80008ea:	2200      	movs	r2, #0
 80008ec:	2100      	movs	r1, #0
 80008ee:	201c      	movs	r0, #28
 80008f0:	f000 fa83 	bl	8000dfa <HAL_NVIC_SetPriority>
    HAL_NVIC_EnableIRQ(TIM2_IRQn);
 80008f4:	201c      	movs	r0, #28
 80008f6:	f000 fa9c 	bl	8000e32 <HAL_NVIC_EnableIRQ>
  /* USER CODE BEGIN TIM2_MspInit 1 */

  /* USER CODE END TIM2_MspInit 1 */
  }

}
 80008fa:	bf00      	nop
 80008fc:	3710      	adds	r7, #16
 80008fe:	46bd      	mov	sp, r7
 8000900:	bd80      	pop	{r7, pc}
 8000902:	bf00      	nop
 8000904:	40023800 	.word	0x40023800

08000908 <HAL_TIM_MspPostInit>:

void HAL_TIM_MspPostInit(TIM_HandleTypeDef* htim)
{
 8000908:	b580      	push	{r7, lr}
 800090a:	b08a      	sub	sp, #40	; 0x28
 800090c:	af00      	add	r7, sp, #0
 800090e:	6078      	str	r0, [r7, #4]
  GPIO_InitTypeDef GPIO_InitStruct = {0};
 8000910:	f107 0314 	add.w	r3, r7, #20
 8000914:	2200      	movs	r2, #0
 8000916:	601a      	str	r2, [r3, #0]
 8000918:	605a      	str	r2, [r3, #4]
 800091a:	609a      	str	r2, [r3, #8]
 800091c:	60da      	str	r2, [r3, #12]
 800091e:	611a      	str	r2, [r3, #16]
  if(htim->Instance==TIM2)
 8000920:	687b      	ldr	r3, [r7, #4]
 8000922:	681b      	ldr	r3, [r3, #0]
 8000924:	f1b3 4f80 	cmp.w	r3, #1073741824	; 0x40000000
 8000928:	d13d      	bne.n	80009a6 <HAL_TIM_MspPostInit+0x9e>
  {
  /* USER CODE BEGIN TIM2_MspPostInit 0 */

  /* USER CODE END TIM2_MspPostInit 0 */
  
    __HAL_RCC_GPIOA_CLK_ENABLE();
 800092a:	2300      	movs	r3, #0
 800092c:	613b      	str	r3, [r7, #16]
 800092e:	4b20      	ldr	r3, [pc, #128]	; (80009b0 <HAL_TIM_MspPostInit+0xa8>)
 8000930:	6b1b      	ldr	r3, [r3, #48]	; 0x30
 8000932:	4a1f      	ldr	r2, [pc, #124]	; (80009b0 <HAL_TIM_MspPostInit+0xa8>)
 8000934:	f043 0301 	orr.w	r3, r3, #1
 8000938:	6313      	str	r3, [r2, #48]	; 0x30
 800093a:	4b1d      	ldr	r3, [pc, #116]	; (80009b0 <HAL_TIM_MspPostInit+0xa8>)
 800093c:	6b1b      	ldr	r3, [r3, #48]	; 0x30
 800093e:	f003 0301 	and.w	r3, r3, #1
 8000942:	613b      	str	r3, [r7, #16]
 8000944:	693b      	ldr	r3, [r7, #16]
    __HAL_RCC_GPIOB_CLK_ENABLE();
 8000946:	2300      	movs	r3, #0
 8000948:	60fb      	str	r3, [r7, #12]
 800094a:	4b19      	ldr	r3, [pc, #100]	; (80009b0 <HAL_TIM_MspPostInit+0xa8>)
 800094c:	6b1b      	ldr	r3, [r3, #48]	; 0x30
 800094e:	4a18      	ldr	r2, [pc, #96]	; (80009b0 <HAL_TIM_MspPostInit+0xa8>)
 8000950:	f043 0302 	orr.w	r3, r3, #2
 8000954:	6313      	str	r3, [r2, #48]	; 0x30
 8000956:	4b16      	ldr	r3, [pc, #88]	; (80009b0 <HAL_TIM_MspPostInit+0xa8>)
 8000958:	6b1b      	ldr	r3, [r3, #48]	; 0x30
 800095a:	f003 0302 	and.w	r3, r3, #2
 800095e:	60fb      	str	r3, [r7, #12]
 8000960:	68fb      	ldr	r3, [r7, #12]
    PA1     ------> TIM2_CH2
    PB10     ------> TIM2_CH3
    PB11     ------> TIM2_CH4
    PA15     ------> TIM2_CH1 
    */
    GPIO_InitStruct.Pin = GPIO_PIN_1|GPIO_PIN_15;
 8000962:	f248 0302 	movw	r3, #32770	; 0x8002
 8000966:	617b      	str	r3, [r7, #20]
    GPIO_InitStruct.Mode = GPIO_MODE_AF_PP;
 8000968:	2302      	movs	r3, #2
 800096a:	61bb      	str	r3, [r7, #24]
    GPIO_InitStruct.Pull = GPIO_NOPULL;
 800096c:	2300      	movs	r3, #0
 800096e:	61fb      	str	r3, [r7, #28]
    GPIO_InitStruct.Speed = GPIO_SPEED_FREQ_LOW;
 8000970:	2300      	movs	r3, #0
 8000972:	623b      	str	r3, [r7, #32]
    GPIO_InitStruct.Alternate = GPIO_AF1_TIM2;
 8000974:	2301      	movs	r3, #1
 8000976:	627b      	str	r3, [r7, #36]	; 0x24
    HAL_GPIO_Init(GPIOA, &GPIO_InitStruct);
 8000978:	f107 0314 	add.w	r3, r7, #20
 800097c:	4619      	mov	r1, r3
 800097e:	480d      	ldr	r0, [pc, #52]	; (80009b4 <HAL_TIM_MspPostInit+0xac>)
 8000980:	f000 fa94 	bl	8000eac <HAL_GPIO_Init>

    GPIO_InitStruct.Pin = GPIO_PIN_10|GPIO_PIN_11;
 8000984:	f44f 6340 	mov.w	r3, #3072	; 0xc00
 8000988:	617b      	str	r3, [r7, #20]
    GPIO_InitStruct.Mode = GPIO_MODE_AF_PP;
 800098a:	2302      	movs	r3, #2
 800098c:	61bb      	str	r3, [r7, #24]
    GPIO_InitStruct.Pull = GPIO_NOPULL;
 800098e:	2300      	movs	r3, #0
 8000990:	61fb      	str	r3, [r7, #28]
    GPIO_InitStruct.Speed = GPIO_SPEED_FREQ_LOW;
 8000992:	2300      	movs	r3, #0
 8000994:	623b      	str	r3, [r7, #32]
    GPIO_InitStruct.Alternate = GPIO_AF1_TIM2;
 8000996:	2301      	movs	r3, #1
 8000998:	627b      	str	r3, [r7, #36]	; 0x24
    HAL_GPIO_Init(GPIOB, &GPIO_InitStruct);
 800099a:	f107 0314 	add.w	r3, r7, #20
 800099e:	4619      	mov	r1, r3
 80009a0:	4805      	ldr	r0, [pc, #20]	; (80009b8 <HAL_TIM_MspPostInit+0xb0>)
 80009a2:	f000 fa83 	bl	8000eac <HAL_GPIO_Init>
  /* USER CODE BEGIN TIM2_MspPostInit 1 */

  /* USER CODE END TIM2_MspPostInit 1 */
  }

}
 80009a6:	bf00      	nop
 80009a8:	3728      	adds	r7, #40	; 0x28
 80009aa:	46bd      	mov	sp, r7
 80009ac:	bd80      	pop	{r7, pc}
 80009ae:	bf00      	nop
 80009b0:	40023800 	.word	0x40023800
 80009b4:	40020000 	.word	0x40020000
 80009b8:	40020400 	.word	0x40020400

080009bc <HAL_UART_MspInit>:
* This function configures the hardware resources used in this example
* @param huart: UART handle pointer
* @retval None
*/
void HAL_UART_MspInit(UART_HandleTypeDef* huart)
{
 80009bc:	b580      	push	{r7, lr}
 80009be:	b08a      	sub	sp, #40	; 0x28
 80009c0:	af00      	add	r7, sp, #0
 80009c2:	6078      	str	r0, [r7, #4]
  GPIO_InitTypeDef GPIO_InitStruct = {0};
 80009c4:	f107 0314 	add.w	r3, r7, #20
 80009c8:	2200      	movs	r2, #0
 80009ca:	601a      	str	r2, [r3, #0]
 80009cc:	605a      	str	r2, [r3, #4]
 80009ce:	609a      	str	r2, [r3, #8]
 80009d0:	60da      	str	r2, [r3, #12]
 80009d2:	611a      	str	r2, [r3, #16]
  if(huart->Instance==USART2)
 80009d4:	687b      	ldr	r3, [r7, #4]
 80009d6:	681b      	ldr	r3, [r3, #0]
 80009d8:	4a1d      	ldr	r2, [pc, #116]	; (8000a50 <HAL_UART_MspInit+0x94>)
 80009da:	4293      	cmp	r3, r2
 80009dc:	d133      	bne.n	8000a46 <HAL_UART_MspInit+0x8a>
  {
  /* USER CODE BEGIN USART2_MspInit 0 */

  /* USER CODE END USART2_MspInit 0 */
    /* Peripheral clock enable */
    __HAL_RCC_USART2_CLK_ENABLE();
 80009de:	2300      	movs	r3, #0
 80009e0:	613b      	str	r3, [r7, #16]
 80009e2:	4b1c      	ldr	r3, [pc, #112]	; (8000a54 <HAL_UART_MspInit+0x98>)
 80009e4:	6c1b      	ldr	r3, [r3, #64]	; 0x40
 80009e6:	4a1b      	ldr	r2, [pc, #108]	; (8000a54 <HAL_UART_MspInit+0x98>)
 80009e8:	f443 3300 	orr.w	r3, r3, #131072	; 0x20000
 80009ec:	6413      	str	r3, [r2, #64]	; 0x40
 80009ee:	4b19      	ldr	r3, [pc, #100]	; (8000a54 <HAL_UART_MspInit+0x98>)
 80009f0:	6c1b      	ldr	r3, [r3, #64]	; 0x40
 80009f2:	f403 3300 	and.w	r3, r3, #131072	; 0x20000
 80009f6:	613b      	str	r3, [r7, #16]
 80009f8:	693b      	ldr	r3, [r7, #16]
  
    __HAL_RCC_GPIOA_CLK_ENABLE();
 80009fa:	2300      	movs	r3, #0
 80009fc:	60fb      	str	r3, [r7, #12]
 80009fe:	4b15      	ldr	r3, [pc, #84]	; (8000a54 <HAL_UART_MspInit+0x98>)
 8000a00:	6b1b      	ldr	r3, [r3, #48]	; 0x30
 8000a02:	4a14      	ldr	r2, [pc, #80]	; (8000a54 <HAL_UART_MspInit+0x98>)
 8000a04:	f043 0301 	orr.w	r3, r3, #1
 8000a08:	6313      	str	r3, [r2, #48]	; 0x30
 8000a0a:	4b12      	ldr	r3, [pc, #72]	; (8000a54 <HAL_UART_MspInit+0x98>)
 8000a0c:	6b1b      	ldr	r3, [r3, #48]	; 0x30
 8000a0e:	f003 0301 	and.w	r3, r3, #1
 8000a12:	60fb      	str	r3, [r7, #12]
 8000a14:	68fb      	ldr	r3, [r7, #12]
    /**USART2 GPIO Configuration    
    PA2     ------> USART2_TX
    PA3     ------> USART2_RX 
    */
    GPIO_InitStruct.Pin = GPIO_PIN_2|GPIO_PIN_3;
 8000a16:	230c      	movs	r3, #12
 8000a18:	617b      	str	r3, [r7, #20]
    GPIO_InitStruct.Mode = GPIO_MODE_AF_PP;
 8000a1a:	2302      	movs	r3, #2
 8000a1c:	61bb      	str	r3, [r7, #24]
    GPIO_InitStruct.Pull = GPIO_NOPULL;
 8000a1e:	2300      	movs	r3, #0
 8000a20:	61fb      	str	r3, [r7, #28]
    GPIO_InitStruct.Speed = GPIO_SPEED_FREQ_VERY_HIGH;
 8000a22:	2303      	movs	r3, #3
 8000a24:	623b      	str	r3, [r7, #32]
    GPIO_InitStruct.Alternate = GPIO_AF7_USART2;
 8000a26:	2307      	movs	r3, #7
 8000a28:	627b      	str	r3, [r7, #36]	; 0x24
    HAL_GPIO_Init(GPIOA, &GPIO_InitStruct);
 8000a2a:	f107 0314 	add.w	r3, r7, #20
 8000a2e:	4619      	mov	r1, r3
 8000a30:	4809      	ldr	r0, [pc, #36]	; (8000a58 <HAL_UART_MspInit+0x9c>)
 8000a32:	f000 fa3b 	bl	8000eac <HAL_GPIO_Init>

    /* USART2 interrupt Init */
    HAL_NVIC_SetPriority(USART2_IRQn, 0, 0);
 8000a36:	2200      	movs	r2, #0
 8000a38:	2100      	movs	r1, #0
 8000a3a:	2026      	movs	r0, #38	; 0x26
 8000a3c:	f000 f9dd 	bl	8000dfa <HAL_NVIC_SetPriority>
    HAL_NVIC_EnableIRQ(USART2_IRQn);
 8000a40:	2026      	movs	r0, #38	; 0x26
 8000a42:	f000 f9f6 	bl	8000e32 <HAL_NVIC_EnableIRQ>
  /* USER CODE BEGIN USART2_MspInit 1 */

  /* USER CODE END USART2_MspInit 1 */
  }

}
 8000a46:	bf00      	nop
 8000a48:	3728      	adds	r7, #40	; 0x28
 8000a4a:	46bd      	mov	sp, r7
 8000a4c:	bd80      	pop	{r7, pc}
 8000a4e:	bf00      	nop
 8000a50:	40004400 	.word	0x40004400
 8000a54:	40023800 	.word	0x40023800
 8000a58:	40020000 	.word	0x40020000

08000a5c <NMI_Handler>:
/******************************************************************************/
/**
  * @brief This function handles Non maskable interrupt.
  */
void NMI_Handler(void)
{
 8000a5c:	b480      	push	{r7}
 8000a5e:	af00      	add	r7, sp, #0

  /* USER CODE END NonMaskableInt_IRQn 0 */
  /* USER CODE BEGIN NonMaskableInt_IRQn 1 */

  /* USER CODE END NonMaskableInt_IRQn 1 */
}
 8000a60:	bf00      	nop
 8000a62:	46bd      	mov	sp, r7
 8000a64:	f85d 7b04 	ldr.w	r7, [sp], #4
 8000a68:	4770      	bx	lr

08000a6a <HardFault_Handler>:

/**
  * @brief This function handles Hard fault interrupt.
  */
void HardFault_Handler(void)
{
 8000a6a:	b480      	push	{r7}
 8000a6c:	af00      	add	r7, sp, #0
  /* USER CODE BEGIN HardFault_IRQn 0 */

  /* USER CODE END HardFault_IRQn 0 */
  while (1)
 8000a6e:	e7fe      	b.n	8000a6e <HardFault_Handler+0x4>

08000a70 <MemManage_Handler>:

/**
  * @brief This function handles Memory management fault.
  */
void MemManage_Handler(void)
{
 8000a70:	b480      	push	{r7}
 8000a72:	af00      	add	r7, sp, #0
  /* USER CODE BEGIN MemoryManagement_IRQn 0 */

  /* USER CODE END MemoryManagement_IRQn 0 */
  while (1)
 8000a74:	e7fe      	b.n	8000a74 <MemManage_Handler+0x4>

08000a76 <BusFault_Handler>:

/**
  * @brief This function handles Pre-fetch fault, memory access fault.
  */
void BusFault_Handler(void)
{
 8000a76:	b480      	push	{r7}
 8000a78:	af00      	add	r7, sp, #0
  /* USER CODE BEGIN BusFault_IRQn 0 */

  /* USER CODE END BusFault_IRQn 0 */
  while (1)
 8000a7a:	e7fe      	b.n	8000a7a <BusFault_Handler+0x4>

08000a7c <UsageFault_Handler>:

/**
  * @brief This function handles Undefined instruction or illegal state.
  */
void UsageFault_Handler(void)
{
 8000a7c:	b480      	push	{r7}
 8000a7e:	af00      	add	r7, sp, #0
  /* USER CODE BEGIN UsageFault_IRQn 0 */

  /* USER CODE END UsageFault_IRQn 0 */
  while (1)
 8000a80:	e7fe      	b.n	8000a80 <UsageFault_Handler+0x4>

08000a82 <SVC_Handler>:

/**
  * @brief This function handles System service call via SWI instruction.
  */
void SVC_Handler(void)
{
 8000a82:	b480      	push	{r7}
 8000a84:	af00      	add	r7, sp, #0

  /* USER CODE END SVCall_IRQn 0 */
  /* USER CODE BEGIN SVCall_IRQn 1 */

  /* USER CODE END SVCall_IRQn 1 */
}
 8000a86:	bf00      	nop
 8000a88:	46bd      	mov	sp, r7
 8000a8a:	f85d 7b04 	ldr.w	r7, [sp], #4
 8000a8e:	4770      	bx	lr

08000a90 <DebugMon_Handler>:

/**
  * @brief This function handles Debug monitor.
  */
void DebugMon_Handler(void)
{
 8000a90:	b480      	push	{r7}
 8000a92:	af00      	add	r7, sp, #0

  /* USER CODE END DebugMonitor_IRQn 0 */
  /* USER CODE BEGIN DebugMonitor_IRQn 1 */

  /* USER CODE END DebugMonitor_IRQn 1 */
}
 8000a94:	bf00      	nop
 8000a96:	46bd      	mov	sp, r7
 8000a98:	f85d 7b04 	ldr.w	r7, [sp], #4
 8000a9c:	4770      	bx	lr

08000a9e <PendSV_Handler>:

/**
  * @brief This function handles Pendable request for system service.
  */
void PendSV_Handler(void)
{
 8000a9e:	b480      	push	{r7}
 8000aa0:	af00      	add	r7, sp, #0

  /* USER CODE END PendSV_IRQn 0 */
  /* USER CODE BEGIN PendSV_IRQn 1 */

  /* USER CODE END PendSV_IRQn 1 */
}
 8000aa2:	bf00      	nop
 8000aa4:	46bd      	mov	sp, r7
 8000aa6:	f85d 7b04 	ldr.w	r7, [sp], #4
 8000aaa:	4770      	bx	lr

08000aac <SysTick_Handler>:

/**
  * @brief This function handles System tick timer.
  */
void SysTick_Handler(void)
{
 8000aac:	b580      	push	{r7, lr}
 8000aae:	af00      	add	r7, sp, #0
  /* USER CODE BEGIN SysTick_IRQn 0 */

  /* USER CODE END SysTick_IRQn 0 */
  HAL_IncTick();
 8000ab0:	f000 f8a8 	bl	8000c04 <HAL_IncTick>
  /* USER CODE BEGIN SysTick_IRQn 1 */

  /* USER CODE END SysTick_IRQn 1 */
}
 8000ab4:	bf00      	nop
 8000ab6:	bd80      	pop	{r7, pc}

08000ab8 <TIM2_IRQHandler>:

/**
  * @brief This function handles TIM2 global interrupt.
  */
void TIM2_IRQHandler(void)
{
 8000ab8:	b580      	push	{r7, lr}
 8000aba:	af00      	add	r7, sp, #0
  /* USER CODE BEGIN TIM2_IRQn 0 */

  /* USER CODE END TIM2_IRQn 0 */
  HAL_TIM_IRQHandler(&htim2);
 8000abc:	4802      	ldr	r0, [pc, #8]	; (8000ac8 <TIM2_IRQHandler+0x10>)
 8000abe:	f001 f875 	bl	8001bac <HAL_TIM_IRQHandler>
  /* USER CODE BEGIN TIM2_IRQn 1 */

  /* USER CODE END TIM2_IRQn 1 */
}
 8000ac2:	bf00      	nop
 8000ac4:	bd80      	pop	{r7, pc}
 8000ac6:	bf00      	nop
 8000ac8:	20000028 	.word	0x20000028

08000acc <USART2_IRQHandler>:

/**
  * @brief This function handles USART2 global interrupt.
  */
void USART2_IRQHandler(void)
{
 8000acc:	b580      	push	{r7, lr}
 8000ace:	af00      	add	r7, sp, #0
  /* USER CODE BEGIN USART2_IRQn 0 */

  /* USER CODE END USART2_IRQn 0 */
  HAL_UART_IRQHandler(&huart2);
 8000ad0:	4802      	ldr	r0, [pc, #8]	; (8000adc <USART2_IRQHandler+0x10>)
 8000ad2:	f001 fdbf 	bl	8002654 <HAL_UART_IRQHandler>
  /* USER CODE BEGIN USART2_IRQn 1 */

  /* USER CODE END USART2_IRQn 1 */
}
 8000ad6:	bf00      	nop
 8000ad8:	bd80      	pop	{r7, pc}
 8000ada:	bf00      	nop
 8000adc:	20000068 	.word	0x20000068

08000ae0 <SystemInit>:
  *         configuration.
  * @param  None
  * @retval None
  */
void SystemInit(void)
{
 8000ae0:	b480      	push	{r7}
 8000ae2:	af00      	add	r7, sp, #0
  /* FPU settings ------------------------------------------------------------*/
  #if (__FPU_PRESENT == 1) && (__FPU_USED == 1)
    SCB->CPACR |= ((3UL << 10*2)|(3UL << 11*2));  /* set CP10 and CP11 Full Access */
 8000ae4:	4b08      	ldr	r3, [pc, #32]	; (8000b08 <SystemInit+0x28>)
 8000ae6:	f8d3 3088 	ldr.w	r3, [r3, #136]	; 0x88
 8000aea:	4a07      	ldr	r2, [pc, #28]	; (8000b08 <SystemInit+0x28>)
 8000aec:	f443 0370 	orr.w	r3, r3, #15728640	; 0xf00000
 8000af0:	f8c2 3088 	str.w	r3, [r2, #136]	; 0x88

  /* Configure the Vector Table location add offset address ------------------*/
#ifdef VECT_TAB_SRAM
  SCB->VTOR = SRAM_BASE | VECT_TAB_OFFSET; /* Vector Table Relocation in Internal SRAM */
#else
  SCB->VTOR = FLASH_BASE | VECT_TAB_OFFSET; /* Vector Table Relocation in Internal FLASH */
 8000af4:	4b04      	ldr	r3, [pc, #16]	; (8000b08 <SystemInit+0x28>)
 8000af6:	f04f 6200 	mov.w	r2, #134217728	; 0x8000000
 8000afa:	609a      	str	r2, [r3, #8]
#endif
}
 8000afc:	bf00      	nop
 8000afe:	46bd      	mov	sp, r7
 8000b00:	f85d 7b04 	ldr.w	r7, [sp], #4
 8000b04:	4770      	bx	lr
 8000b06:	bf00      	nop
 8000b08:	e000ed00 	.word	0xe000ed00

08000b0c <Reset_Handler>:

    .section  .text.Reset_Handler
  .weak  Reset_Handler
  .type  Reset_Handler, %function
Reset_Handler:  
  ldr   sp, =_estack     /* set stack pointer */
 8000b0c:	f8df d034 	ldr.w	sp, [pc, #52]	; 8000b44 <LoopFillZerobss+0x14>

/* Copy the data segment initializers from flash to SRAM */  
  movs  r1, #0
 8000b10:	2100      	movs	r1, #0
  b  LoopCopyDataInit
 8000b12:	e003      	b.n	8000b1c <LoopCopyDataInit>

08000b14 <CopyDataInit>:

CopyDataInit:
  ldr  r3, =_sidata
 8000b14:	4b0c      	ldr	r3, [pc, #48]	; (8000b48 <LoopFillZerobss+0x18>)
  ldr  r3, [r3, r1]
 8000b16:	585b      	ldr	r3, [r3, r1]
  str  r3, [r0, r1]
 8000b18:	5043      	str	r3, [r0, r1]
  adds  r1, r1, #4
 8000b1a:	3104      	adds	r1, #4

08000b1c <LoopCopyDataInit>:
    
LoopCopyDataInit:
  ldr  r0, =_sdata
 8000b1c:	480b      	ldr	r0, [pc, #44]	; (8000b4c <LoopFillZerobss+0x1c>)
  ldr  r3, =_edata
 8000b1e:	4b0c      	ldr	r3, [pc, #48]	; (8000b50 <LoopFillZerobss+0x20>)
  adds  r2, r0, r1
 8000b20:	1842      	adds	r2, r0, r1
  cmp  r2, r3
 8000b22:	429a      	cmp	r2, r3
  bcc  CopyDataInit
 8000b24:	d3f6      	bcc.n	8000b14 <CopyDataInit>
  ldr  r2, =_sbss
 8000b26:	4a0b      	ldr	r2, [pc, #44]	; (8000b54 <LoopFillZerobss+0x24>)
  b  LoopFillZerobss
 8000b28:	e002      	b.n	8000b30 <LoopFillZerobss>

08000b2a <FillZerobss>:
/* Zero fill the bss segment. */  
FillZerobss:
  movs  r3, #0
 8000b2a:	2300      	movs	r3, #0
  str  r3, [r2], #4
 8000b2c:	f842 3b04 	str.w	r3, [r2], #4

08000b30 <LoopFillZerobss>:
    
LoopFillZerobss:
  ldr  r3, = _ebss
 8000b30:	4b09      	ldr	r3, [pc, #36]	; (8000b58 <LoopFillZerobss+0x28>)
  cmp  r2, r3
 8000b32:	429a      	cmp	r2, r3
  bcc  FillZerobss
 8000b34:	d3f9      	bcc.n	8000b2a <FillZerobss>

/* Call the clock system intitialization function.*/
  bl  SystemInit   
 8000b36:	f7ff ffd3 	bl	8000ae0 <SystemInit>
/* Call static constructors */
    bl __libc_init_array
 8000b3a:	f002 fb47 	bl	80031cc <__libc_init_array>
/* Call the application's entry point.*/
  bl  main
 8000b3e:	f7ff fcc3 	bl	80004c8 <main>
  bx  lr    
 8000b42:	4770      	bx	lr
  ldr   sp, =_estack     /* set stack pointer */
 8000b44:	20020000 	.word	0x20020000
  ldr  r3, =_sidata
 8000b48:	08003264 	.word	0x08003264
  ldr  r0, =_sdata
 8000b4c:	20000000 	.word	0x20000000
  ldr  r3, =_edata
 8000b50:	2000000c 	.word	0x2000000c
  ldr  r2, =_sbss
 8000b54:	2000000c 	.word	0x2000000c
  ldr  r3, = _ebss
 8000b58:	200000ac 	.word	0x200000ac

08000b5c <ADC_IRQHandler>:
 * @retval None       
*/
    .section  .text.Default_Handler,"ax",%progbits
Default_Handler:
Infinite_Loop:
  b  Infinite_Loop
 8000b5c:	e7fe      	b.n	8000b5c <ADC_IRQHandler>
	...

08000b60 <HAL_Init>:
  *         need to ensure that the SysTick time base is always set to 1 millisecond
  *         to have correct HAL operation.
  * @retval HAL status
  */
HAL_StatusTypeDef HAL_Init(void)
{
 8000b60:	b580      	push	{r7, lr}
 8000b62:	af00      	add	r7, sp, #0
  /* Configure Flash prefetch, Instruction cache, Data cache */ 
#if (INSTRUCTION_CACHE_ENABLE != 0U)
  __HAL_FLASH_INSTRUCTION_CACHE_ENABLE();
 8000b64:	4b0e      	ldr	r3, [pc, #56]	; (8000ba0 <HAL_Init+0x40>)
 8000b66:	681b      	ldr	r3, [r3, #0]
 8000b68:	4a0d      	ldr	r2, [pc, #52]	; (8000ba0 <HAL_Init+0x40>)
 8000b6a:	f443 7300 	orr.w	r3, r3, #512	; 0x200
 8000b6e:	6013      	str	r3, [r2, #0]
#endif /* INSTRUCTION_CACHE_ENABLE */

#if (DATA_CACHE_ENABLE != 0U)
  __HAL_FLASH_DATA_CACHE_ENABLE();
 8000b70:	4b0b      	ldr	r3, [pc, #44]	; (8000ba0 <HAL_Init+0x40>)
 8000b72:	681b      	ldr	r3, [r3, #0]
 8000b74:	4a0a      	ldr	r2, [pc, #40]	; (8000ba0 <HAL_Init+0x40>)
 8000b76:	f443 6380 	orr.w	r3, r3, #1024	; 0x400
 8000b7a:	6013      	str	r3, [r2, #0]
#endif /* DATA_CACHE_ENABLE */

#if (PREFETCH_ENABLE != 0U)
  __HAL_FLASH_PREFETCH_BUFFER_ENABLE();
 8000b7c:	4b08      	ldr	r3, [pc, #32]	; (8000ba0 <HAL_Init+0x40>)
 8000b7e:	681b      	ldr	r3, [r3, #0]
 8000b80:	4a07      	ldr	r2, [pc, #28]	; (8000ba0 <HAL_Init+0x40>)
 8000b82:	f443 7380 	orr.w	r3, r3, #256	; 0x100
 8000b86:	6013      	str	r3, [r2, #0]
#endif /* PREFETCH_ENABLE */

  /* Set Interrupt Group Priority */
  HAL_NVIC_SetPriorityGrouping(NVIC_PRIORITYGROUP_4);
 8000b88:	2003      	movs	r0, #3
 8000b8a:	f000 f92b 	bl	8000de4 <HAL_NVIC_SetPriorityGrouping>

  /* Use systick as time base source and configure 1ms tick (default clock after Reset is HSI) */
  HAL_InitTick(TICK_INT_PRIORITY);
 8000b8e:	2000      	movs	r0, #0
 8000b90:	f000 f808 	bl	8000ba4 <HAL_InitTick>

  /* Init the low level hardware */
  HAL_MspInit();
 8000b94:	f7ff fe6a 	bl	800086c <HAL_MspInit>

  /* Return function status */
  return HAL_OK;
 8000b98:	2300      	movs	r3, #0
}
 8000b9a:	4618      	mov	r0, r3
 8000b9c:	bd80      	pop	{r7, pc}
 8000b9e:	bf00      	nop
 8000ba0:	40023c00 	.word	0x40023c00

08000ba4 <HAL_InitTick>:
  *       implementation  in user file.
  * @param TickPriority Tick interrupt priority.
  * @retval HAL status
  */
__weak HAL_StatusTypeDef HAL_InitTick(uint32_t TickPriority)
{
 8000ba4:	b580      	push	{r7, lr}
 8000ba6:	b082      	sub	sp, #8
 8000ba8:	af00      	add	r7, sp, #0
 8000baa:	6078      	str	r0, [r7, #4]
  /* Configure the SysTick to have interrupt in 1ms time basis*/
  if (HAL_SYSTICK_Config(SystemCoreClock / (1000U / uwTickFreq)) > 0U)
 8000bac:	4b12      	ldr	r3, [pc, #72]	; (8000bf8 <HAL_InitTick+0x54>)
 8000bae:	681a      	ldr	r2, [r3, #0]
 8000bb0:	4b12      	ldr	r3, [pc, #72]	; (8000bfc <HAL_InitTick+0x58>)
 8000bb2:	781b      	ldrb	r3, [r3, #0]
 8000bb4:	4619      	mov	r1, r3
 8000bb6:	f44f 737a 	mov.w	r3, #1000	; 0x3e8
 8000bba:	fbb3 f3f1 	udiv	r3, r3, r1
 8000bbe:	fbb2 f3f3 	udiv	r3, r2, r3
 8000bc2:	4618      	mov	r0, r3
 8000bc4:	f000 f943 	bl	8000e4e <HAL_SYSTICK_Config>
 8000bc8:	4603      	mov	r3, r0
 8000bca:	2b00      	cmp	r3, #0
 8000bcc:	d001      	beq.n	8000bd2 <HAL_InitTick+0x2e>
  {
    return HAL_ERROR;
 8000bce:	2301      	movs	r3, #1
 8000bd0:	e00e      	b.n	8000bf0 <HAL_InitTick+0x4c>
  }

  /* Configure the SysTick IRQ priority */
  if (TickPriority < (1UL << __NVIC_PRIO_BITS))
 8000bd2:	687b      	ldr	r3, [r7, #4]
 8000bd4:	2b0f      	cmp	r3, #15
 8000bd6:	d80a      	bhi.n	8000bee <HAL_InitTick+0x4a>
  {
    HAL_NVIC_SetPriority(SysTick_IRQn, TickPriority, 0U);
 8000bd8:	2200      	movs	r2, #0
 8000bda:	6879      	ldr	r1, [r7, #4]
 8000bdc:	f04f 30ff 	mov.w	r0, #4294967295
 8000be0:	f000 f90b 	bl	8000dfa <HAL_NVIC_SetPriority>
    uwTickPrio = TickPriority;
 8000be4:	4a06      	ldr	r2, [pc, #24]	; (8000c00 <HAL_InitTick+0x5c>)
 8000be6:	687b      	ldr	r3, [r7, #4]
 8000be8:	6013      	str	r3, [r2, #0]
  {
    return HAL_ERROR;
  }

  /* Return function status */
  return HAL_OK;
 8000bea:	2300      	movs	r3, #0
 8000bec:	e000      	b.n	8000bf0 <HAL_InitTick+0x4c>
    return HAL_ERROR;
 8000bee:	2301      	movs	r3, #1
}
 8000bf0:	4618      	mov	r0, r3
 8000bf2:	3708      	adds	r7, #8
 8000bf4:	46bd      	mov	sp, r7
 8000bf6:	bd80      	pop	{r7, pc}
 8000bf8:	20000000 	.word	0x20000000
 8000bfc:	20000008 	.word	0x20000008
 8000c00:	20000004 	.word	0x20000004

08000c04 <HAL_IncTick>:
 * @note This function is declared as __weak to be overwritten in case of other 
  *      implementations in user file.
  * @retval None
  */
__weak void HAL_IncTick(void)
{
 8000c04:	b480      	push	{r7}
 8000c06:	af00      	add	r7, sp, #0
  uwTick += uwTickFreq;
 8000c08:	4b06      	ldr	r3, [pc, #24]	; (8000c24 <HAL_IncTick+0x20>)
 8000c0a:	781b      	ldrb	r3, [r3, #0]
 8000c0c:	461a      	mov	r2, r3
 8000c0e:	4b06      	ldr	r3, [pc, #24]	; (8000c28 <HAL_IncTick+0x24>)
 8000c10:	681b      	ldr	r3, [r3, #0]
 8000c12:	4413      	add	r3, r2
 8000c14:	4a04      	ldr	r2, [pc, #16]	; (8000c28 <HAL_IncTick+0x24>)
 8000c16:	6013      	str	r3, [r2, #0]
}
 8000c18:	bf00      	nop
 8000c1a:	46bd      	mov	sp, r7
 8000c1c:	f85d 7b04 	ldr.w	r7, [sp], #4
 8000c20:	4770      	bx	lr
 8000c22:	bf00      	nop
 8000c24:	20000008 	.word	0x20000008
 8000c28:	200000a8 	.word	0x200000a8

08000c2c <HAL_GetTick>:
  * @note This function is declared as __weak to be overwritten in case of other 
  *       implementations in user file.
  * @retval tick value
  */
__weak uint32_t HAL_GetTick(void)
{
 8000c2c:	b480      	push	{r7}
 8000c2e:	af00      	add	r7, sp, #0
  return uwTick;
 8000c30:	4b03      	ldr	r3, [pc, #12]	; (8000c40 <HAL_GetTick+0x14>)
 8000c32:	681b      	ldr	r3, [r3, #0]
}
 8000c34:	4618      	mov	r0, r3
 8000c36:	46bd      	mov	sp, r7
 8000c38:	f85d 7b04 	ldr.w	r7, [sp], #4
 8000c3c:	4770      	bx	lr
 8000c3e:	bf00      	nop
 8000c40:	200000a8 	.word	0x200000a8

08000c44 <__NVIC_SetPriorityGrouping>:
           In case of a conflict between priority grouping and available
           priority bits (__NVIC_PRIO_BITS), the smallest possible priority group is set.
  \param [in]      PriorityGroup  Priority grouping field.
 */
__STATIC_INLINE void __NVIC_SetPriorityGrouping(uint32_t PriorityGroup)
{
 8000c44:	b480      	push	{r7}
 8000c46:	b085      	sub	sp, #20
 8000c48:	af00      	add	r7, sp, #0
 8000c4a:	6078      	str	r0, [r7, #4]
  uint32_t reg_value;
  uint32_t PriorityGroupTmp = (PriorityGroup & (uint32_t)0x07UL);             /* only values 0..7 are used          */
 8000c4c:	687b      	ldr	r3, [r7, #4]
 8000c4e:	f003 0307 	and.w	r3, r3, #7
 8000c52:	60fb      	str	r3, [r7, #12]

  reg_value  =  SCB->AIRCR;                                                   /* read old register configuration    */
 8000c54:	4b0c      	ldr	r3, [pc, #48]	; (8000c88 <__NVIC_SetPriorityGrouping+0x44>)
 8000c56:	68db      	ldr	r3, [r3, #12]
 8000c58:	60bb      	str	r3, [r7, #8]
  reg_value &= ~((uint32_t)(SCB_AIRCR_VECTKEY_Msk | SCB_AIRCR_PRIGROUP_Msk)); /* clear bits to change               */
 8000c5a:	68ba      	ldr	r2, [r7, #8]
 8000c5c:	f64f 03ff 	movw	r3, #63743	; 0xf8ff
 8000c60:	4013      	ands	r3, r2
 8000c62:	60bb      	str	r3, [r7, #8]
  reg_value  =  (reg_value                                   |
                ((uint32_t)0x5FAUL << SCB_AIRCR_VECTKEY_Pos) |
                (PriorityGroupTmp << SCB_AIRCR_PRIGROUP_Pos)  );              /* Insert write key and priority group */
 8000c64:	68fb      	ldr	r3, [r7, #12]
 8000c66:	021a      	lsls	r2, r3, #8
                ((uint32_t)0x5FAUL << SCB_AIRCR_VECTKEY_Pos) |
 8000c68:	68bb      	ldr	r3, [r7, #8]
 8000c6a:	4313      	orrs	r3, r2
  reg_value  =  (reg_value                                   |
 8000c6c:	f043 63bf 	orr.w	r3, r3, #100139008	; 0x5f80000
 8000c70:	f443 3300 	orr.w	r3, r3, #131072	; 0x20000
 8000c74:	60bb      	str	r3, [r7, #8]
  SCB->AIRCR =  reg_value;
 8000c76:	4a04      	ldr	r2, [pc, #16]	; (8000c88 <__NVIC_SetPriorityGrouping+0x44>)
 8000c78:	68bb      	ldr	r3, [r7, #8]
 8000c7a:	60d3      	str	r3, [r2, #12]
}
 8000c7c:	bf00      	nop
 8000c7e:	3714      	adds	r7, #20
 8000c80:	46bd      	mov	sp, r7
 8000c82:	f85d 7b04 	ldr.w	r7, [sp], #4
 8000c86:	4770      	bx	lr
 8000c88:	e000ed00 	.word	0xe000ed00

08000c8c <__NVIC_GetPriorityGrouping>:
  \brief   Get Priority Grouping
  \details Reads the priority grouping field from the NVIC Interrupt Controller.
  \return                Priority grouping field (SCB->AIRCR [10:8] PRIGROUP field).
 */
__STATIC_INLINE uint32_t __NVIC_GetPriorityGrouping(void)
{
 8000c8c:	b480      	push	{r7}
 8000c8e:	af00      	add	r7, sp, #0
  return ((uint32_t)((SCB->AIRCR & SCB_AIRCR_PRIGROUP_Msk) >> SCB_AIRCR_PRIGROUP_Pos));
 8000c90:	4b04      	ldr	r3, [pc, #16]	; (8000ca4 <__NVIC_GetPriorityGrouping+0x18>)
 8000c92:	68db      	ldr	r3, [r3, #12]
 8000c94:	0a1b      	lsrs	r3, r3, #8
 8000c96:	f003 0307 	and.w	r3, r3, #7
}
 8000c9a:	4618      	mov	r0, r3
 8000c9c:	46bd      	mov	sp, r7
 8000c9e:	f85d 7b04 	ldr.w	r7, [sp], #4
 8000ca2:	4770      	bx	lr
 8000ca4:	e000ed00 	.word	0xe000ed00

08000ca8 <__NVIC_EnableIRQ>:
  \details Enables a device specific interrupt in the NVIC interrupt controller.
  \param [in]      IRQn  Device specific interrupt number.
  \note    IRQn must not be negative.
 */
__STATIC_INLINE void __NVIC_EnableIRQ(IRQn_Type IRQn)
{
 8000ca8:	b480      	push	{r7}
 8000caa:	b083      	sub	sp, #12
 8000cac:	af00      	add	r7, sp, #0
 8000cae:	4603      	mov	r3, r0
 8000cb0:	71fb      	strb	r3, [r7, #7]
  if ((int32_t)(IRQn) >= 0)
 8000cb2:	f997 3007 	ldrsb.w	r3, [r7, #7]
 8000cb6:	2b00      	cmp	r3, #0
 8000cb8:	db0b      	blt.n	8000cd2 <__NVIC_EnableIRQ+0x2a>
  {
    NVIC->ISER[(((uint32_t)IRQn) >> 5UL)] = (uint32_t)(1UL << (((uint32_t)IRQn) & 0x1FUL));
 8000cba:	79fb      	ldrb	r3, [r7, #7]
 8000cbc:	f003 021f 	and.w	r2, r3, #31
 8000cc0:	4907      	ldr	r1, [pc, #28]	; (8000ce0 <__NVIC_EnableIRQ+0x38>)
 8000cc2:	f997 3007 	ldrsb.w	r3, [r7, #7]
 8000cc6:	095b      	lsrs	r3, r3, #5
 8000cc8:	2001      	movs	r0, #1
 8000cca:	fa00 f202 	lsl.w	r2, r0, r2
 8000cce:	f841 2023 	str.w	r2, [r1, r3, lsl #2]
  }
}
 8000cd2:	bf00      	nop
 8000cd4:	370c      	adds	r7, #12
 8000cd6:	46bd      	mov	sp, r7
 8000cd8:	f85d 7b04 	ldr.w	r7, [sp], #4
 8000cdc:	4770      	bx	lr
 8000cde:	bf00      	nop
 8000ce0:	e000e100 	.word	0xe000e100

08000ce4 <__NVIC_SetPriority>:
  \param [in]      IRQn  Interrupt number.
  \param [in]  priority  Priority to set.
  \note    The priority cannot be set for every processor exception.
 */
__STATIC_INLINE void __NVIC_SetPriority(IRQn_Type IRQn, uint32_t priority)
{
 8000ce4:	b480      	push	{r7}
 8000ce6:	b083      	sub	sp, #12
 8000ce8:	af00      	add	r7, sp, #0
 8000cea:	4603      	mov	r3, r0
 8000cec:	6039      	str	r1, [r7, #0]
 8000cee:	71fb      	strb	r3, [r7, #7]
  if ((int32_t)(IRQn) >= 0)
 8000cf0:	f997 3007 	ldrsb.w	r3, [r7, #7]
 8000cf4:	2b00      	cmp	r3, #0
 8000cf6:	db0a      	blt.n	8000d0e <__NVIC_SetPriority+0x2a>
  {
    NVIC->IP[((uint32_t)IRQn)]               = (uint8_t)((priority << (8U - __NVIC_PRIO_BITS)) & (uint32_t)0xFFUL);
 8000cf8:	683b      	ldr	r3, [r7, #0]
 8000cfa:	b2da      	uxtb	r2, r3
 8000cfc:	490c      	ldr	r1, [pc, #48]	; (8000d30 <__NVIC_SetPriority+0x4c>)
 8000cfe:	f997 3007 	ldrsb.w	r3, [r7, #7]
 8000d02:	0112      	lsls	r2, r2, #4
 8000d04:	b2d2      	uxtb	r2, r2
 8000d06:	440b      	add	r3, r1
 8000d08:	f883 2300 	strb.w	r2, [r3, #768]	; 0x300
  }
  else
  {
    SCB->SHP[(((uint32_t)IRQn) & 0xFUL)-4UL] = (uint8_t)((priority << (8U - __NVIC_PRIO_BITS)) & (uint32_t)0xFFUL);
  }
}
 8000d0c:	e00a      	b.n	8000d24 <__NVIC_SetPriority+0x40>
    SCB->SHP[(((uint32_t)IRQn) & 0xFUL)-4UL] = (uint8_t)((priority << (8U - __NVIC_PRIO_BITS)) & (uint32_t)0xFFUL);
 8000d0e:	683b      	ldr	r3, [r7, #0]
 8000d10:	b2da      	uxtb	r2, r3
 8000d12:	4908      	ldr	r1, [pc, #32]	; (8000d34 <__NVIC_SetPriority+0x50>)
 8000d14:	79fb      	ldrb	r3, [r7, #7]
 8000d16:	f003 030f 	and.w	r3, r3, #15
 8000d1a:	3b04      	subs	r3, #4
 8000d1c:	0112      	lsls	r2, r2, #4
 8000d1e:	b2d2      	uxtb	r2, r2
 8000d20:	440b      	add	r3, r1
 8000d22:	761a      	strb	r2, [r3, #24]
}
 8000d24:	bf00      	nop
 8000d26:	370c      	adds	r7, #12
 8000d28:	46bd      	mov	sp, r7
 8000d2a:	f85d 7b04 	ldr.w	r7, [sp], #4
 8000d2e:	4770      	bx	lr
 8000d30:	e000e100 	.word	0xe000e100
 8000d34:	e000ed00 	.word	0xe000ed00

08000d38 <NVIC_EncodePriority>:
  \param [in]   PreemptPriority  Preemptive priority value (starting from 0).
  \param [in]       SubPriority  Subpriority value (starting from 0).
  \return                        Encoded priority. Value can be used in the function \ref NVIC_SetPriority().
 */
__STATIC_INLINE uint32_t NVIC_EncodePriority (uint32_t PriorityGroup, uint32_t PreemptPriority, uint32_t SubPriority)
{
 8000d38:	b480      	push	{r7}
 8000d3a:	b089      	sub	sp, #36	; 0x24
 8000d3c:	af00      	add	r7, sp, #0
 8000d3e:	60f8      	str	r0, [r7, #12]
 8000d40:	60b9      	str	r1, [r7, #8]
 8000d42:	607a      	str	r2, [r7, #4]
  uint32_t PriorityGroupTmp = (PriorityGroup & (uint32_t)0x07UL);   /* only values 0..7 are used          */
 8000d44:	68fb      	ldr	r3, [r7, #12]
 8000d46:	f003 0307 	and.w	r3, r3, #7
 8000d4a:	61fb      	str	r3, [r7, #28]
  uint32_t PreemptPriorityBits;
  uint32_t SubPriorityBits;

  PreemptPriorityBits = ((7UL - PriorityGroupTmp) > (uint32_t)(__NVIC_PRIO_BITS)) ? (uint32_t)(__NVIC_PRIO_BITS) : (uint32_t)(7UL - PriorityGroupTmp);
 8000d4c:	69fb      	ldr	r3, [r7, #28]
 8000d4e:	f1c3 0307 	rsb	r3, r3, #7
 8000d52:	2b04      	cmp	r3, #4
 8000d54:	bf28      	it	cs
 8000d56:	2304      	movcs	r3, #4
 8000d58:	61bb      	str	r3, [r7, #24]
  SubPriorityBits     = ((PriorityGroupTmp + (uint32_t)(__NVIC_PRIO_BITS)) < (uint32_t)7UL) ? (uint32_t)0UL : (uint32_t)((PriorityGroupTmp - 7UL) + (uint32_t)(__NVIC_PRIO_BITS));
 8000d5a:	69fb      	ldr	r3, [r7, #28]
 8000d5c:	3304      	adds	r3, #4
 8000d5e:	2b06      	cmp	r3, #6
 8000d60:	d902      	bls.n	8000d68 <NVIC_EncodePriority+0x30>
 8000d62:	69fb      	ldr	r3, [r7, #28]
 8000d64:	3b03      	subs	r3, #3
 8000d66:	e000      	b.n	8000d6a <NVIC_EncodePriority+0x32>
 8000d68:	2300      	movs	r3, #0
 8000d6a:	617b      	str	r3, [r7, #20]

  return (
           ((PreemptPriority & (uint32_t)((1UL << (PreemptPriorityBits)) - 1UL)) << SubPriorityBits) |
 8000d6c:	f04f 32ff 	mov.w	r2, #4294967295
 8000d70:	69bb      	ldr	r3, [r7, #24]
 8000d72:	fa02 f303 	lsl.w	r3, r2, r3
 8000d76:	43da      	mvns	r2, r3
 8000d78:	68bb      	ldr	r3, [r7, #8]
 8000d7a:	401a      	ands	r2, r3
 8000d7c:	697b      	ldr	r3, [r7, #20]
 8000d7e:	409a      	lsls	r2, r3
           ((SubPriority     & (uint32_t)((1UL << (SubPriorityBits    )) - 1UL)))
 8000d80:	f04f 31ff 	mov.w	r1, #4294967295
 8000d84:	697b      	ldr	r3, [r7, #20]
 8000d86:	fa01 f303 	lsl.w	r3, r1, r3
 8000d8a:	43d9      	mvns	r1, r3
 8000d8c:	687b      	ldr	r3, [r7, #4]
 8000d8e:	400b      	ands	r3, r1
           ((PreemptPriority & (uint32_t)((1UL << (PreemptPriorityBits)) - 1UL)) << SubPriorityBits) |
 8000d90:	4313      	orrs	r3, r2
         );
}
 8000d92:	4618      	mov	r0, r3
 8000d94:	3724      	adds	r7, #36	; 0x24
 8000d96:	46bd      	mov	sp, r7
 8000d98:	f85d 7b04 	ldr.w	r7, [sp], #4
 8000d9c:	4770      	bx	lr
	...

08000da0 <SysTick_Config>:
  \note    When the variable <b>__Vendor_SysTickConfig</b> is set to 1, then the
           function <b>SysTick_Config</b> is not included. In this case, the file <b><i>device</i>.h</b>
           must contain a vendor-specific implementation of this function.
 */
__STATIC_INLINE uint32_t SysTick_Config(uint32_t ticks)
{
 8000da0:	b580      	push	{r7, lr}
 8000da2:	b082      	sub	sp, #8
 8000da4:	af00      	add	r7, sp, #0
 8000da6:	6078      	str	r0, [r7, #4]
  if ((ticks - 1UL) > SysTick_LOAD_RELOAD_Msk)
 8000da8:	687b      	ldr	r3, [r7, #4]
 8000daa:	3b01      	subs	r3, #1
 8000dac:	f1b3 7f80 	cmp.w	r3, #16777216	; 0x1000000
 8000db0:	d301      	bcc.n	8000db6 <SysTick_Config+0x16>
  {
    return (1UL);                                                   /* Reload value impossible */
 8000db2:	2301      	movs	r3, #1
 8000db4:	e00f      	b.n	8000dd6 <SysTick_Config+0x36>
  }

  SysTick->LOAD  = (uint32_t)(ticks - 1UL);                         /* set reload register */
 8000db6:	4a0a      	ldr	r2, [pc, #40]	; (8000de0 <SysTick_Config+0x40>)
 8000db8:	687b      	ldr	r3, [r7, #4]
 8000dba:	3b01      	subs	r3, #1
 8000dbc:	6053      	str	r3, [r2, #4]
  NVIC_SetPriority (SysTick_IRQn, (1UL << __NVIC_PRIO_BITS) - 1UL); /* set Priority for Systick Interrupt */
 8000dbe:	210f      	movs	r1, #15
 8000dc0:	f04f 30ff 	mov.w	r0, #4294967295
 8000dc4:	f7ff ff8e 	bl	8000ce4 <__NVIC_SetPriority>
  SysTick->VAL   = 0UL;                                             /* Load the SysTick Counter Value */
 8000dc8:	4b05      	ldr	r3, [pc, #20]	; (8000de0 <SysTick_Config+0x40>)
 8000dca:	2200      	movs	r2, #0
 8000dcc:	609a      	str	r2, [r3, #8]
  SysTick->CTRL  = SysTick_CTRL_CLKSOURCE_Msk |
 8000dce:	4b04      	ldr	r3, [pc, #16]	; (8000de0 <SysTick_Config+0x40>)
 8000dd0:	2207      	movs	r2, #7
 8000dd2:	601a      	str	r2, [r3, #0]
                   SysTick_CTRL_TICKINT_Msk   |
                   SysTick_CTRL_ENABLE_Msk;                         /* Enable SysTick IRQ and SysTick Timer */
  return (0UL);                                                     /* Function successful */
 8000dd4:	2300      	movs	r3, #0
}
 8000dd6:	4618      	mov	r0, r3
 8000dd8:	3708      	adds	r7, #8
 8000dda:	46bd      	mov	sp, r7
 8000ddc:	bd80      	pop	{r7, pc}
 8000dde:	bf00      	nop
 8000de0:	e000e010 	.word	0xe000e010

08000de4 <HAL_NVIC_SetPriorityGrouping>:
  * @note   When the NVIC_PriorityGroup_0 is selected, IRQ preemption is no more possible. 
  *         The pending IRQ priority will be managed only by the subpriority. 
  * @retval None
  */
void HAL_NVIC_SetPriorityGrouping(uint32_t PriorityGroup)
{
 8000de4:	b580      	push	{r7, lr}
 8000de6:	b082      	sub	sp, #8
 8000de8:	af00      	add	r7, sp, #0
 8000dea:	6078      	str	r0, [r7, #4]
  /* Check the parameters */
  assert_param(IS_NVIC_PRIORITY_GROUP(PriorityGroup));
  
  /* Set the PRIGROUP[10:8] bits according to the PriorityGroup parameter value */
  NVIC_SetPriorityGrouping(PriorityGroup);
 8000dec:	6878      	ldr	r0, [r7, #4]
 8000dee:	f7ff ff29 	bl	8000c44 <__NVIC_SetPriorityGrouping>
}
 8000df2:	bf00      	nop
 8000df4:	3708      	adds	r7, #8
 8000df6:	46bd      	mov	sp, r7
 8000df8:	bd80      	pop	{r7, pc}

08000dfa <HAL_NVIC_SetPriority>:
  *         This parameter can be a value between 0 and 15
  *         A lower priority value indicates a higher priority.          
  * @retval None
  */
void HAL_NVIC_SetPriority(IRQn_Type IRQn, uint32_t PreemptPriority, uint32_t SubPriority)
{ 
 8000dfa:	b580      	push	{r7, lr}
 8000dfc:	b086      	sub	sp, #24
 8000dfe:	af00      	add	r7, sp, #0
 8000e00:	4603      	mov	r3, r0
 8000e02:	60b9      	str	r1, [r7, #8]
 8000e04:	607a      	str	r2, [r7, #4]
 8000e06:	73fb      	strb	r3, [r7, #15]
  uint32_t prioritygroup = 0x00U;
 8000e08:	2300      	movs	r3, #0
 8000e0a:	617b      	str	r3, [r7, #20]
  
  /* Check the parameters */
  assert_param(IS_NVIC_SUB_PRIORITY(SubPriority));
  assert_param(IS_NVIC_PREEMPTION_PRIORITY(PreemptPriority));
  
  prioritygroup = NVIC_GetPriorityGrouping();
 8000e0c:	f7ff ff3e 	bl	8000c8c <__NVIC_GetPriorityGrouping>
 8000e10:	6178      	str	r0, [r7, #20]
  
  NVIC_SetPriority(IRQn, NVIC_EncodePriority(prioritygroup, PreemptPriority, SubPriority));
 8000e12:	687a      	ldr	r2, [r7, #4]
 8000e14:	68b9      	ldr	r1, [r7, #8]
 8000e16:	6978      	ldr	r0, [r7, #20]
 8000e18:	f7ff ff8e 	bl	8000d38 <NVIC_EncodePriority>
 8000e1c:	4602      	mov	r2, r0
 8000e1e:	f997 300f 	ldrsb.w	r3, [r7, #15]
 8000e22:	4611      	mov	r1, r2
 8000e24:	4618      	mov	r0, r3
 8000e26:	f7ff ff5d 	bl	8000ce4 <__NVIC_SetPriority>
}
 8000e2a:	bf00      	nop
 8000e2c:	3718      	adds	r7, #24
 8000e2e:	46bd      	mov	sp, r7
 8000e30:	bd80      	pop	{r7, pc}

08000e32 <HAL_NVIC_EnableIRQ>:
  *         This parameter can be an enumerator of IRQn_Type enumeration
  *         (For the complete STM32 Devices IRQ Channels list, please refer to the appropriate CMSIS device file (stm32f4xxxx.h))
  * @retval None
  */
void HAL_NVIC_EnableIRQ(IRQn_Type IRQn)
{
 8000e32:	b580      	push	{r7, lr}
 8000e34:	b082      	sub	sp, #8
 8000e36:	af00      	add	r7, sp, #0
 8000e38:	4603      	mov	r3, r0
 8000e3a:	71fb      	strb	r3, [r7, #7]
  /* Check the parameters */
  assert_param(IS_NVIC_DEVICE_IRQ(IRQn));
  
  /* Enable interrupt */
  NVIC_EnableIRQ(IRQn);
 8000e3c:	f997 3007 	ldrsb.w	r3, [r7, #7]
 8000e40:	4618      	mov	r0, r3
 8000e42:	f7ff ff31 	bl	8000ca8 <__NVIC_EnableIRQ>
}
 8000e46:	bf00      	nop
 8000e48:	3708      	adds	r7, #8
 8000e4a:	46bd      	mov	sp, r7
 8000e4c:	bd80      	pop	{r7, pc}

08000e4e <HAL_SYSTICK_Config>:
  * @param  TicksNumb Specifies the ticks Number of ticks between two interrupts.
  * @retval status:  - 0  Function succeeded.
  *                  - 1  Function failed.
  */
uint32_t HAL_SYSTICK_Config(uint32_t TicksNumb)
{
 8000e4e:	b580      	push	{r7, lr}
 8000e50:	b082      	sub	sp, #8
 8000e52:	af00      	add	r7, sp, #0
 8000e54:	6078      	str	r0, [r7, #4]
   return SysTick_Config(TicksNumb);
 8000e56:	6878      	ldr	r0, [r7, #4]
 8000e58:	f7ff ffa2 	bl	8000da0 <SysTick_Config>
 8000e5c:	4603      	mov	r3, r0
}
 8000e5e:	4618      	mov	r0, r3
 8000e60:	3708      	adds	r7, #8
 8000e62:	46bd      	mov	sp, r7
 8000e64:	bd80      	pop	{r7, pc}

08000e66 <HAL_DMA_Abort_IT>:
  * @param  hdma   pointer to a DMA_HandleTypeDef structure that contains
  *                 the configuration information for the specified DMA Stream.
  * @retval HAL status
  */
HAL_StatusTypeDef HAL_DMA_Abort_IT(DMA_HandleTypeDef *hdma)
{
 8000e66:	b480      	push	{r7}
 8000e68:	b083      	sub	sp, #12
 8000e6a:	af00      	add	r7, sp, #0
 8000e6c:	6078      	str	r0, [r7, #4]
  if(hdma->State != HAL_DMA_STATE_BUSY)
 8000e6e:	687b      	ldr	r3, [r7, #4]
 8000e70:	f893 3035 	ldrb.w	r3, [r3, #53]	; 0x35
 8000e74:	b2db      	uxtb	r3, r3
 8000e76:	2b02      	cmp	r3, #2
 8000e78:	d004      	beq.n	8000e84 <HAL_DMA_Abort_IT+0x1e>
  {
    hdma->ErrorCode = HAL_DMA_ERROR_NO_XFER;
 8000e7a:	687b      	ldr	r3, [r7, #4]
 8000e7c:	2280      	movs	r2, #128	; 0x80
 8000e7e:	655a      	str	r2, [r3, #84]	; 0x54
    return HAL_ERROR;
 8000e80:	2301      	movs	r3, #1
 8000e82:	e00c      	b.n	8000e9e <HAL_DMA_Abort_IT+0x38>
  }
  else
  {
    /* Set Abort State  */
    hdma->State = HAL_DMA_STATE_ABORT;
 8000e84:	687b      	ldr	r3, [r7, #4]
 8000e86:	2205      	movs	r2, #5
 8000e88:	f883 2035 	strb.w	r2, [r3, #53]	; 0x35
    
    /* Disable the stream */
    __HAL_DMA_DISABLE(hdma);
 8000e8c:	687b      	ldr	r3, [r7, #4]
 8000e8e:	681b      	ldr	r3, [r3, #0]
 8000e90:	681a      	ldr	r2, [r3, #0]
 8000e92:	687b      	ldr	r3, [r7, #4]
 8000e94:	681b      	ldr	r3, [r3, #0]
 8000e96:	f022 0201 	bic.w	r2, r2, #1
 8000e9a:	601a      	str	r2, [r3, #0]
  }

  return HAL_OK;
 8000e9c:	2300      	movs	r3, #0
}
 8000e9e:	4618      	mov	r0, r3
 8000ea0:	370c      	adds	r7, #12
 8000ea2:	46bd      	mov	sp, r7
 8000ea4:	f85d 7b04 	ldr.w	r7, [sp], #4
 8000ea8:	4770      	bx	lr
	...

08000eac <HAL_GPIO_Init>:
  * @param  GPIO_Init pointer to a GPIO_InitTypeDef structure that contains
  *         the configuration information for the specified GPIO peripheral.
  * @retval None
  */
void HAL_GPIO_Init(GPIO_TypeDef  *GPIOx, GPIO_InitTypeDef *GPIO_Init)
{
 8000eac:	b480      	push	{r7}
 8000eae:	b089      	sub	sp, #36	; 0x24
 8000eb0:	af00      	add	r7, sp, #0
 8000eb2:	6078      	str	r0, [r7, #4]
 8000eb4:	6039      	str	r1, [r7, #0]
  uint32_t position;
  uint32_t ioposition = 0x00U;
 8000eb6:	2300      	movs	r3, #0
 8000eb8:	617b      	str	r3, [r7, #20]
  uint32_t iocurrent = 0x00U;
 8000eba:	2300      	movs	r3, #0
 8000ebc:	613b      	str	r3, [r7, #16]
  uint32_t temp = 0x00U;
 8000ebe:	2300      	movs	r3, #0
 8000ec0:	61bb      	str	r3, [r7, #24]
  assert_param(IS_GPIO_PIN(GPIO_Init->Pin));
  assert_param(IS_GPIO_MODE(GPIO_Init->Mode));
  assert_param(IS_GPIO_PULL(GPIO_Init->Pull));

  /* Configure the port pins */
  for(position = 0U; position < GPIO_NUMBER; position++)
 8000ec2:	2300      	movs	r3, #0
 8000ec4:	61fb      	str	r3, [r7, #28]
 8000ec6:	e16b      	b.n	80011a0 <HAL_GPIO_Init+0x2f4>
  {
    /* Get the IO position */
    ioposition = 0x01U << position;
 8000ec8:	2201      	movs	r2, #1
 8000eca:	69fb      	ldr	r3, [r7, #28]
 8000ecc:	fa02 f303 	lsl.w	r3, r2, r3
 8000ed0:	617b      	str	r3, [r7, #20]
    /* Get the current IO position */
    iocurrent = (uint32_t)(GPIO_Init->Pin) & ioposition;
 8000ed2:	683b      	ldr	r3, [r7, #0]
 8000ed4:	681b      	ldr	r3, [r3, #0]
 8000ed6:	697a      	ldr	r2, [r7, #20]
 8000ed8:	4013      	ands	r3, r2
 8000eda:	613b      	str	r3, [r7, #16]

    if(iocurrent == ioposition)
 8000edc:	693a      	ldr	r2, [r7, #16]
 8000ede:	697b      	ldr	r3, [r7, #20]
 8000ee0:	429a      	cmp	r2, r3
 8000ee2:	f040 815a 	bne.w	800119a <HAL_GPIO_Init+0x2ee>
    {
      /*--------------------- GPIO Mode Configuration ------------------------*/
      /* In case of Output or Alternate function mode selection */
      if((GPIO_Init->Mode == GPIO_MODE_OUTPUT_PP) || (GPIO_Init->Mode == GPIO_MODE_AF_PP) ||
 8000ee6:	683b      	ldr	r3, [r7, #0]
 8000ee8:	685b      	ldr	r3, [r3, #4]
 8000eea:	2b01      	cmp	r3, #1
 8000eec:	d00b      	beq.n	8000f06 <HAL_GPIO_Init+0x5a>
 8000eee:	683b      	ldr	r3, [r7, #0]
 8000ef0:	685b      	ldr	r3, [r3, #4]
 8000ef2:	2b02      	cmp	r3, #2
 8000ef4:	d007      	beq.n	8000f06 <HAL_GPIO_Init+0x5a>
         (GPIO_Init->Mode == GPIO_MODE_OUTPUT_OD) || (GPIO_Init->Mode == GPIO_MODE_AF_OD))
 8000ef6:	683b      	ldr	r3, [r7, #0]
 8000ef8:	685b      	ldr	r3, [r3, #4]
      if((GPIO_Init->Mode == GPIO_MODE_OUTPUT_PP) || (GPIO_Init->Mode == GPIO_MODE_AF_PP) ||
 8000efa:	2b11      	cmp	r3, #17
 8000efc:	d003      	beq.n	8000f06 <HAL_GPIO_Init+0x5a>
         (GPIO_Init->Mode == GPIO_MODE_OUTPUT_OD) || (GPIO_Init->Mode == GPIO_MODE_AF_OD))
 8000efe:	683b      	ldr	r3, [r7, #0]
 8000f00:	685b      	ldr	r3, [r3, #4]
 8000f02:	2b12      	cmp	r3, #18
 8000f04:	d130      	bne.n	8000f68 <HAL_GPIO_Init+0xbc>
      {
        /* Check the Speed parameter */
        assert_param(IS_GPIO_SPEED(GPIO_Init->Speed));
        /* Configure the IO Speed */
        temp = GPIOx->OSPEEDR; 
 8000f06:	687b      	ldr	r3, [r7, #4]
 8000f08:	689b      	ldr	r3, [r3, #8]
 8000f0a:	61bb      	str	r3, [r7, #24]
        temp &= ~(GPIO_OSPEEDER_OSPEEDR0 << (position * 2U));
 8000f0c:	69fb      	ldr	r3, [r7, #28]
 8000f0e:	005b      	lsls	r3, r3, #1
 8000f10:	2203      	movs	r2, #3
 8000f12:	fa02 f303 	lsl.w	r3, r2, r3
 8000f16:	43db      	mvns	r3, r3
 8000f18:	69ba      	ldr	r2, [r7, #24]
 8000f1a:	4013      	ands	r3, r2
 8000f1c:	61bb      	str	r3, [r7, #24]
        temp |= (GPIO_Init->Speed << (position * 2U));
 8000f1e:	683b      	ldr	r3, [r7, #0]
 8000f20:	68da      	ldr	r2, [r3, #12]
 8000f22:	69fb      	ldr	r3, [r7, #28]
 8000f24:	005b      	lsls	r3, r3, #1
 8000f26:	fa02 f303 	lsl.w	r3, r2, r3
 8000f2a:	69ba      	ldr	r2, [r7, #24]
 8000f2c:	4313      	orrs	r3, r2
 8000f2e:	61bb      	str	r3, [r7, #24]
        GPIOx->OSPEEDR = temp;
 8000f30:	687b      	ldr	r3, [r7, #4]
 8000f32:	69ba      	ldr	r2, [r7, #24]
 8000f34:	609a      	str	r2, [r3, #8]

        /* Configure the IO Output Type */
        temp = GPIOx->OTYPER;
 8000f36:	687b      	ldr	r3, [r7, #4]
 8000f38:	685b      	ldr	r3, [r3, #4]
 8000f3a:	61bb      	str	r3, [r7, #24]
        temp &= ~(GPIO_OTYPER_OT_0 << position) ;
 8000f3c:	2201      	movs	r2, #1
 8000f3e:	69fb      	ldr	r3, [r7, #28]
 8000f40:	fa02 f303 	lsl.w	r3, r2, r3
 8000f44:	43db      	mvns	r3, r3
 8000f46:	69ba      	ldr	r2, [r7, #24]
 8000f48:	4013      	ands	r3, r2
 8000f4a:	61bb      	str	r3, [r7, #24]
        temp |= (((GPIO_Init->Mode & GPIO_OUTPUT_TYPE) >> 4U) << position);
 8000f4c:	683b      	ldr	r3, [r7, #0]
 8000f4e:	685b      	ldr	r3, [r3, #4]
 8000f50:	091b      	lsrs	r3, r3, #4
 8000f52:	f003 0201 	and.w	r2, r3, #1
 8000f56:	69fb      	ldr	r3, [r7, #28]
 8000f58:	fa02 f303 	lsl.w	r3, r2, r3
 8000f5c:	69ba      	ldr	r2, [r7, #24]
 8000f5e:	4313      	orrs	r3, r2
 8000f60:	61bb      	str	r3, [r7, #24]
        GPIOx->OTYPER = temp;
 8000f62:	687b      	ldr	r3, [r7, #4]
 8000f64:	69ba      	ldr	r2, [r7, #24]
 8000f66:	605a      	str	r2, [r3, #4]
       }

      /* Activate the Pull-up or Pull down resistor for the current IO */
      temp = GPIOx->PUPDR;
 8000f68:	687b      	ldr	r3, [r7, #4]
 8000f6a:	68db      	ldr	r3, [r3, #12]
 8000f6c:	61bb      	str	r3, [r7, #24]
      temp &= ~(GPIO_PUPDR_PUPDR0 << (position * 2U));
 8000f6e:	69fb      	ldr	r3, [r7, #28]
 8000f70:	005b      	lsls	r3, r3, #1
 8000f72:	2203      	movs	r2, #3
 8000f74:	fa02 f303 	lsl.w	r3, r2, r3
 8000f78:	43db      	mvns	r3, r3
 8000f7a:	69ba      	ldr	r2, [r7, #24]
 8000f7c:	4013      	ands	r3, r2
 8000f7e:	61bb      	str	r3, [r7, #24]
      temp |= ((GPIO_Init->Pull) << (position * 2U));
 8000f80:	683b      	ldr	r3, [r7, #0]
 8000f82:	689a      	ldr	r2, [r3, #8]
 8000f84:	69fb      	ldr	r3, [r7, #28]
 8000f86:	005b      	lsls	r3, r3, #1
 8000f88:	fa02 f303 	lsl.w	r3, r2, r3
 8000f8c:	69ba      	ldr	r2, [r7, #24]
 8000f8e:	4313      	orrs	r3, r2
 8000f90:	61bb      	str	r3, [r7, #24]
      GPIOx->PUPDR = temp;
 8000f92:	687b      	ldr	r3, [r7, #4]
 8000f94:	69ba      	ldr	r2, [r7, #24]
 8000f96:	60da      	str	r2, [r3, #12]

      /* In case of Alternate function mode selection */
      if((GPIO_Init->Mode == GPIO_MODE_AF_PP) || (GPIO_Init->Mode == GPIO_MODE_AF_OD))
 8000f98:	683b      	ldr	r3, [r7, #0]
 8000f9a:	685b      	ldr	r3, [r3, #4]
 8000f9c:	2b02      	cmp	r3, #2
 8000f9e:	d003      	beq.n	8000fa8 <HAL_GPIO_Init+0xfc>
 8000fa0:	683b      	ldr	r3, [r7, #0]
 8000fa2:	685b      	ldr	r3, [r3, #4]
 8000fa4:	2b12      	cmp	r3, #18
 8000fa6:	d123      	bne.n	8000ff0 <HAL_GPIO_Init+0x144>
      {
        /* Check the Alternate function parameter */
        assert_param(IS_GPIO_AF(GPIO_Init->Alternate));
        /* Configure Alternate function mapped with the current IO */
        temp = GPIOx->AFR[position >> 3U];
 8000fa8:	69fb      	ldr	r3, [r7, #28]
 8000faa:	08da      	lsrs	r2, r3, #3
 8000fac:	687b      	ldr	r3, [r7, #4]
 8000fae:	3208      	adds	r2, #8
 8000fb0:	f853 3022 	ldr.w	r3, [r3, r2, lsl #2]
 8000fb4:	61bb      	str	r3, [r7, #24]
        temp &= ~(0xFU << ((uint32_t)(position & 0x07U) * 4U)) ;
 8000fb6:	69fb      	ldr	r3, [r7, #28]
 8000fb8:	f003 0307 	and.w	r3, r3, #7
 8000fbc:	009b      	lsls	r3, r3, #2
 8000fbe:	220f      	movs	r2, #15
 8000fc0:	fa02 f303 	lsl.w	r3, r2, r3
 8000fc4:	43db      	mvns	r3, r3
 8000fc6:	69ba      	ldr	r2, [r7, #24]
 8000fc8:	4013      	ands	r3, r2
 8000fca:	61bb      	str	r3, [r7, #24]
        temp |= ((uint32_t)(GPIO_Init->Alternate) << (((uint32_t)position & 0x07U) * 4U));
 8000fcc:	683b      	ldr	r3, [r7, #0]
 8000fce:	691a      	ldr	r2, [r3, #16]
 8000fd0:	69fb      	ldr	r3, [r7, #28]
 8000fd2:	f003 0307 	and.w	r3, r3, #7
 8000fd6:	009b      	lsls	r3, r3, #2
 8000fd8:	fa02 f303 	lsl.w	r3, r2, r3
 8000fdc:	69ba      	ldr	r2, [r7, #24]
 8000fde:	4313      	orrs	r3, r2
 8000fe0:	61bb      	str	r3, [r7, #24]
        GPIOx->AFR[position >> 3U] = temp;
 8000fe2:	69fb      	ldr	r3, [r7, #28]
 8000fe4:	08da      	lsrs	r2, r3, #3
 8000fe6:	687b      	ldr	r3, [r7, #4]
 8000fe8:	3208      	adds	r2, #8
 8000fea:	69b9      	ldr	r1, [r7, #24]
 8000fec:	f843 1022 	str.w	r1, [r3, r2, lsl #2]
      }

      /* Configure IO Direction mode (Input, Output, Alternate or Analog) */
      temp = GPIOx->MODER;
 8000ff0:	687b      	ldr	r3, [r7, #4]
 8000ff2:	681b      	ldr	r3, [r3, #0]
 8000ff4:	61bb      	str	r3, [r7, #24]
      temp &= ~(GPIO_MODER_MODER0 << (position * 2U));
 8000ff6:	69fb      	ldr	r3, [r7, #28]
 8000ff8:	005b      	lsls	r3, r3, #1
 8000ffa:	2203      	movs	r2, #3
 8000ffc:	fa02 f303 	lsl.w	r3, r2, r3
 8001000:	43db      	mvns	r3, r3
 8001002:	69ba      	ldr	r2, [r7, #24]
 8001004:	4013      	ands	r3, r2
 8001006:	61bb      	str	r3, [r7, #24]
      temp |= ((GPIO_Init->Mode & GPIO_MODE) << (position * 2U));
 8001008:	683b      	ldr	r3, [r7, #0]
 800100a:	685b      	ldr	r3, [r3, #4]
 800100c:	f003 0203 	and.w	r2, r3, #3
 8001010:	69fb      	ldr	r3, [r7, #28]
 8001012:	005b      	lsls	r3, r3, #1
 8001014:	fa02 f303 	lsl.w	r3, r2, r3
 8001018:	69ba      	ldr	r2, [r7, #24]
 800101a:	4313      	orrs	r3, r2
 800101c:	61bb      	str	r3, [r7, #24]
      GPIOx->MODER = temp;
 800101e:	687b      	ldr	r3, [r7, #4]
 8001020:	69ba      	ldr	r2, [r7, #24]
 8001022:	601a      	str	r2, [r3, #0]

      /*--------------------- EXTI Mode Configuration ------------------------*/
      /* Configure the External Interrupt or event for the current IO */
      if((GPIO_Init->Mode & EXTI_MODE) == EXTI_MODE)
 8001024:	683b      	ldr	r3, [r7, #0]
 8001026:	685b      	ldr	r3, [r3, #4]
 8001028:	f003 5380 	and.w	r3, r3, #268435456	; 0x10000000
 800102c:	2b00      	cmp	r3, #0
 800102e:	f000 80b4 	beq.w	800119a <HAL_GPIO_Init+0x2ee>
      {
        /* Enable SYSCFG Clock */
        __HAL_RCC_SYSCFG_CLK_ENABLE();
 8001032:	2300      	movs	r3, #0
 8001034:	60fb      	str	r3, [r7, #12]
 8001036:	4b5f      	ldr	r3, [pc, #380]	; (80011b4 <HAL_GPIO_Init+0x308>)
 8001038:	6c5b      	ldr	r3, [r3, #68]	; 0x44
 800103a:	4a5e      	ldr	r2, [pc, #376]	; (80011b4 <HAL_GPIO_Init+0x308>)
 800103c:	f443 4380 	orr.w	r3, r3, #16384	; 0x4000
 8001040:	6453      	str	r3, [r2, #68]	; 0x44
 8001042:	4b5c      	ldr	r3, [pc, #368]	; (80011b4 <HAL_GPIO_Init+0x308>)
 8001044:	6c5b      	ldr	r3, [r3, #68]	; 0x44
 8001046:	f403 4380 	and.w	r3, r3, #16384	; 0x4000
 800104a:	60fb      	str	r3, [r7, #12]
 800104c:	68fb      	ldr	r3, [r7, #12]

        temp = SYSCFG->EXTICR[position >> 2U];
 800104e:	4a5a      	ldr	r2, [pc, #360]	; (80011b8 <HAL_GPIO_Init+0x30c>)
 8001050:	69fb      	ldr	r3, [r7, #28]
 8001052:	089b      	lsrs	r3, r3, #2
 8001054:	3302      	adds	r3, #2
 8001056:	f852 3023 	ldr.w	r3, [r2, r3, lsl #2]
 800105a:	61bb      	str	r3, [r7, #24]
        temp &= ~(0x0FU << (4U * (position & 0x03U)));
 800105c:	69fb      	ldr	r3, [r7, #28]
 800105e:	f003 0303 	and.w	r3, r3, #3
 8001062:	009b      	lsls	r3, r3, #2
 8001064:	220f      	movs	r2, #15
 8001066:	fa02 f303 	lsl.w	r3, r2, r3
 800106a:	43db      	mvns	r3, r3
 800106c:	69ba      	ldr	r2, [r7, #24]
 800106e:	4013      	ands	r3, r2
 8001070:	61bb      	str	r3, [r7, #24]
        temp |= ((uint32_t)(GPIO_GET_INDEX(GPIOx)) << (4U * (position & 0x03U)));
 8001072:	687b      	ldr	r3, [r7, #4]
 8001074:	4a51      	ldr	r2, [pc, #324]	; (80011bc <HAL_GPIO_Init+0x310>)
 8001076:	4293      	cmp	r3, r2
 8001078:	d02b      	beq.n	80010d2 <HAL_GPIO_Init+0x226>
 800107a:	687b      	ldr	r3, [r7, #4]
 800107c:	4a50      	ldr	r2, [pc, #320]	; (80011c0 <HAL_GPIO_Init+0x314>)
 800107e:	4293      	cmp	r3, r2
 8001080:	d025      	beq.n	80010ce <HAL_GPIO_Init+0x222>
 8001082:	687b      	ldr	r3, [r7, #4]
 8001084:	4a4f      	ldr	r2, [pc, #316]	; (80011c4 <HAL_GPIO_Init+0x318>)
 8001086:	4293      	cmp	r3, r2
 8001088:	d01f      	beq.n	80010ca <HAL_GPIO_Init+0x21e>
 800108a:	687b      	ldr	r3, [r7, #4]
 800108c:	4a4e      	ldr	r2, [pc, #312]	; (80011c8 <HAL_GPIO_Init+0x31c>)
 800108e:	4293      	cmp	r3, r2
 8001090:	d019      	beq.n	80010c6 <HAL_GPIO_Init+0x21a>
 8001092:	687b      	ldr	r3, [r7, #4]
 8001094:	4a4d      	ldr	r2, [pc, #308]	; (80011cc <HAL_GPIO_Init+0x320>)
 8001096:	4293      	cmp	r3, r2
 8001098:	d013      	beq.n	80010c2 <HAL_GPIO_Init+0x216>
 800109a:	687b      	ldr	r3, [r7, #4]
 800109c:	4a4c      	ldr	r2, [pc, #304]	; (80011d0 <HAL_GPIO_Init+0x324>)
 800109e:	4293      	cmp	r3, r2
 80010a0:	d00d      	beq.n	80010be <HAL_GPIO_Init+0x212>
 80010a2:	687b      	ldr	r3, [r7, #4]
 80010a4:	4a4b      	ldr	r2, [pc, #300]	; (80011d4 <HAL_GPIO_Init+0x328>)
 80010a6:	4293      	cmp	r3, r2
 80010a8:	d007      	beq.n	80010ba <HAL_GPIO_Init+0x20e>
 80010aa:	687b      	ldr	r3, [r7, #4]
 80010ac:	4a4a      	ldr	r2, [pc, #296]	; (80011d8 <HAL_GPIO_Init+0x32c>)
 80010ae:	4293      	cmp	r3, r2
 80010b0:	d101      	bne.n	80010b6 <HAL_GPIO_Init+0x20a>
 80010b2:	2307      	movs	r3, #7
 80010b4:	e00e      	b.n	80010d4 <HAL_GPIO_Init+0x228>
 80010b6:	2308      	movs	r3, #8
 80010b8:	e00c      	b.n	80010d4 <HAL_GPIO_Init+0x228>
 80010ba:	2306      	movs	r3, #6
 80010bc:	e00a      	b.n	80010d4 <HAL_GPIO_Init+0x228>
 80010be:	2305      	movs	r3, #5
 80010c0:	e008      	b.n	80010d4 <HAL_GPIO_Init+0x228>
 80010c2:	2304      	movs	r3, #4
 80010c4:	e006      	b.n	80010d4 <HAL_GPIO_Init+0x228>
 80010c6:	2303      	movs	r3, #3
 80010c8:	e004      	b.n	80010d4 <HAL_GPIO_Init+0x228>
 80010ca:	2302      	movs	r3, #2
 80010cc:	e002      	b.n	80010d4 <HAL_GPIO_Init+0x228>
 80010ce:	2301      	movs	r3, #1
 80010d0:	e000      	b.n	80010d4 <HAL_GPIO_Init+0x228>
 80010d2:	2300      	movs	r3, #0
 80010d4:	69fa      	ldr	r2, [r7, #28]
 80010d6:	f002 0203 	and.w	r2, r2, #3
 80010da:	0092      	lsls	r2, r2, #2
 80010dc:	4093      	lsls	r3, r2
 80010de:	69ba      	ldr	r2, [r7, #24]
 80010e0:	4313      	orrs	r3, r2
 80010e2:	61bb      	str	r3, [r7, #24]
        SYSCFG->EXTICR[position >> 2U] = temp;
 80010e4:	4934      	ldr	r1, [pc, #208]	; (80011b8 <HAL_GPIO_Init+0x30c>)
 80010e6:	69fb      	ldr	r3, [r7, #28]
 80010e8:	089b      	lsrs	r3, r3, #2
 80010ea:	3302      	adds	r3, #2
 80010ec:	69ba      	ldr	r2, [r7, #24]
 80010ee:	f841 2023 	str.w	r2, [r1, r3, lsl #2]

        /* Clear EXTI line configuration */
        temp = EXTI->IMR;
 80010f2:	4b3a      	ldr	r3, [pc, #232]	; (80011dc <HAL_GPIO_Init+0x330>)
 80010f4:	681b      	ldr	r3, [r3, #0]
 80010f6:	61bb      	str	r3, [r7, #24]
        temp &= ~((uint32_t)iocurrent);
 80010f8:	693b      	ldr	r3, [r7, #16]
 80010fa:	43db      	mvns	r3, r3
 80010fc:	69ba      	ldr	r2, [r7, #24]
 80010fe:	4013      	ands	r3, r2
 8001100:	61bb      	str	r3, [r7, #24]
        if((GPIO_Init->Mode & GPIO_MODE_IT) == GPIO_MODE_IT)
 8001102:	683b      	ldr	r3, [r7, #0]
 8001104:	685b      	ldr	r3, [r3, #4]
 8001106:	f403 3380 	and.w	r3, r3, #65536	; 0x10000
 800110a:	2b00      	cmp	r3, #0
 800110c:	d003      	beq.n	8001116 <HAL_GPIO_Init+0x26a>
        {
          temp |= iocurrent;
 800110e:	69ba      	ldr	r2, [r7, #24]
 8001110:	693b      	ldr	r3, [r7, #16]
 8001112:	4313      	orrs	r3, r2
 8001114:	61bb      	str	r3, [r7, #24]
        }
        EXTI->IMR = temp;
 8001116:	4a31      	ldr	r2, [pc, #196]	; (80011dc <HAL_GPIO_Init+0x330>)
 8001118:	69bb      	ldr	r3, [r7, #24]
 800111a:	6013      	str	r3, [r2, #0]

        temp = EXTI->EMR;
 800111c:	4b2f      	ldr	r3, [pc, #188]	; (80011dc <HAL_GPIO_Init+0x330>)
 800111e:	685b      	ldr	r3, [r3, #4]
 8001120:	61bb      	str	r3, [r7, #24]
        temp &= ~((uint32_t)iocurrent);
 8001122:	693b      	ldr	r3, [r7, #16]
 8001124:	43db      	mvns	r3, r3
 8001126:	69ba      	ldr	r2, [r7, #24]
 8001128:	4013      	ands	r3, r2
 800112a:	61bb      	str	r3, [r7, #24]
        if((GPIO_Init->Mode & GPIO_MODE_EVT) == GPIO_MODE_EVT)
 800112c:	683b      	ldr	r3, [r7, #0]
 800112e:	685b      	ldr	r3, [r3, #4]
 8001130:	f403 3300 	and.w	r3, r3, #131072	; 0x20000
 8001134:	2b00      	cmp	r3, #0
 8001136:	d003      	beq.n	8001140 <HAL_GPIO_Init+0x294>
        {
          temp |= iocurrent;
 8001138:	69ba      	ldr	r2, [r7, #24]
 800113a:	693b      	ldr	r3, [r7, #16]
 800113c:	4313      	orrs	r3, r2
 800113e:	61bb      	str	r3, [r7, #24]
        }
        EXTI->EMR = temp;
 8001140:	4a26      	ldr	r2, [pc, #152]	; (80011dc <HAL_GPIO_Init+0x330>)
 8001142:	69bb      	ldr	r3, [r7, #24]
 8001144:	6053      	str	r3, [r2, #4]

        /* Clear Rising Falling edge configuration */
        temp = EXTI->RTSR;
 8001146:	4b25      	ldr	r3, [pc, #148]	; (80011dc <HAL_GPIO_Init+0x330>)
 8001148:	689b      	ldr	r3, [r3, #8]
 800114a:	61bb      	str	r3, [r7, #24]
        temp &= ~((uint32_t)iocurrent);
 800114c:	693b      	ldr	r3, [r7, #16]
 800114e:	43db      	mvns	r3, r3
 8001150:	69ba      	ldr	r2, [r7, #24]
 8001152:	4013      	ands	r3, r2
 8001154:	61bb      	str	r3, [r7, #24]
        if((GPIO_Init->Mode & RISING_EDGE) == RISING_EDGE)
 8001156:	683b      	ldr	r3, [r7, #0]
 8001158:	685b      	ldr	r3, [r3, #4]
 800115a:	f403 1380 	and.w	r3, r3, #1048576	; 0x100000
 800115e:	2b00      	cmp	r3, #0
 8001160:	d003      	beq.n	800116a <HAL_GPIO_Init+0x2be>
        {
          temp |= iocurrent;
 8001162:	69ba      	ldr	r2, [r7, #24]
 8001164:	693b      	ldr	r3, [r7, #16]
 8001166:	4313      	orrs	r3, r2
 8001168:	61bb      	str	r3, [r7, #24]
        }
        EXTI->RTSR = temp;
 800116a:	4a1c      	ldr	r2, [pc, #112]	; (80011dc <HAL_GPIO_Init+0x330>)
 800116c:	69bb      	ldr	r3, [r7, #24]
 800116e:	6093      	str	r3, [r2, #8]

        temp = EXTI->FTSR;
 8001170:	4b1a      	ldr	r3, [pc, #104]	; (80011dc <HAL_GPIO_Init+0x330>)
 8001172:	68db      	ldr	r3, [r3, #12]
 8001174:	61bb      	str	r3, [r7, #24]
        temp &= ~((uint32_t)iocurrent);
 8001176:	693b      	ldr	r3, [r7, #16]
 8001178:	43db      	mvns	r3, r3
 800117a:	69ba      	ldr	r2, [r7, #24]
 800117c:	4013      	ands	r3, r2
 800117e:	61bb      	str	r3, [r7, #24]
        if((GPIO_Init->Mode & FALLING_EDGE) == FALLING_EDGE)
 8001180:	683b      	ldr	r3, [r7, #0]
 8001182:	685b      	ldr	r3, [r3, #4]
 8001184:	f403 1300 	and.w	r3, r3, #2097152	; 0x200000
 8001188:	2b00      	cmp	r3, #0
 800118a:	d003      	beq.n	8001194 <HAL_GPIO_Init+0x2e8>
        {
          temp |= iocurrent;
 800118c:	69ba      	ldr	r2, [r7, #24]
 800118e:	693b      	ldr	r3, [r7, #16]
 8001190:	4313      	orrs	r3, r2
 8001192:	61bb      	str	r3, [r7, #24]
        }
        EXTI->FTSR = temp;
 8001194:	4a11      	ldr	r2, [pc, #68]	; (80011dc <HAL_GPIO_Init+0x330>)
 8001196:	69bb      	ldr	r3, [r7, #24]
 8001198:	60d3      	str	r3, [r2, #12]
  for(position = 0U; position < GPIO_NUMBER; position++)
 800119a:	69fb      	ldr	r3, [r7, #28]
 800119c:	3301      	adds	r3, #1
 800119e:	61fb      	str	r3, [r7, #28]
 80011a0:	69fb      	ldr	r3, [r7, #28]
 80011a2:	2b0f      	cmp	r3, #15
 80011a4:	f67f ae90 	bls.w	8000ec8 <HAL_GPIO_Init+0x1c>
      }
    }
  }
}
 80011a8:	bf00      	nop
 80011aa:	3724      	adds	r7, #36	; 0x24
 80011ac:	46bd      	mov	sp, r7
 80011ae:	f85d 7b04 	ldr.w	r7, [sp], #4
 80011b2:	4770      	bx	lr
 80011b4:	40023800 	.word	0x40023800
 80011b8:	40013800 	.word	0x40013800
 80011bc:	40020000 	.word	0x40020000
 80011c0:	40020400 	.word	0x40020400
 80011c4:	40020800 	.word	0x40020800
 80011c8:	40020c00 	.word	0x40020c00
 80011cc:	40021000 	.word	0x40021000
 80011d0:	40021400 	.word	0x40021400
 80011d4:	40021800 	.word	0x40021800
 80011d8:	40021c00 	.word	0x40021c00
 80011dc:	40013c00 	.word	0x40013c00

080011e0 <HAL_GPIO_WritePin>:
  *            @arg GPIO_PIN_RESET: to clear the port pin
  *            @arg GPIO_PIN_SET: to set the port pin
  * @retval None
  */
void HAL_GPIO_WritePin(GPIO_TypeDef* GPIOx, uint16_t GPIO_Pin, GPIO_PinState PinState)
{
 80011e0:	b480      	push	{r7}
 80011e2:	b083      	sub	sp, #12
 80011e4:	af00      	add	r7, sp, #0
 80011e6:	6078      	str	r0, [r7, #4]
 80011e8:	460b      	mov	r3, r1
 80011ea:	807b      	strh	r3, [r7, #2]
 80011ec:	4613      	mov	r3, r2
 80011ee:	707b      	strb	r3, [r7, #1]
  /* Check the parameters */
  assert_param(IS_GPIO_PIN(GPIO_Pin));
  assert_param(IS_GPIO_PIN_ACTION(PinState));

  if(PinState != GPIO_PIN_RESET)
 80011f0:	787b      	ldrb	r3, [r7, #1]
 80011f2:	2b00      	cmp	r3, #0
 80011f4:	d003      	beq.n	80011fe <HAL_GPIO_WritePin+0x1e>
  {
    GPIOx->BSRR = GPIO_Pin;
 80011f6:	887a      	ldrh	r2, [r7, #2]
 80011f8:	687b      	ldr	r3, [r7, #4]
 80011fa:	619a      	str	r2, [r3, #24]
  }
  else
  {
    GPIOx->BSRR = (uint32_t)GPIO_Pin << 16U;
  }
}
 80011fc:	e003      	b.n	8001206 <HAL_GPIO_WritePin+0x26>
    GPIOx->BSRR = (uint32_t)GPIO_Pin << 16U;
 80011fe:	887b      	ldrh	r3, [r7, #2]
 8001200:	041a      	lsls	r2, r3, #16
 8001202:	687b      	ldr	r3, [r7, #4]
 8001204:	619a      	str	r2, [r3, #24]
}
 8001206:	bf00      	nop
 8001208:	370c      	adds	r7, #12
 800120a:	46bd      	mov	sp, r7
 800120c:	f85d 7b04 	ldr.w	r7, [sp], #4
 8001210:	4770      	bx	lr
	...

08001214 <HAL_RCC_OscConfig>:
  *         supported by this API. User should request a transition to HSE Off
  *         first and then HSE On or HSE Bypass.
  * @retval HAL status
  */
__weak HAL_StatusTypeDef HAL_RCC_OscConfig(RCC_OscInitTypeDef  *RCC_OscInitStruct)
{
 8001214:	b580      	push	{r7, lr}
 8001216:	b086      	sub	sp, #24
 8001218:	af00      	add	r7, sp, #0
 800121a:	6078      	str	r0, [r7, #4]
  uint32_t tickstart, pll_config;

  /* Check Null pointer */
  if(RCC_OscInitStruct == NULL)
 800121c:	687b      	ldr	r3, [r7, #4]
 800121e:	2b00      	cmp	r3, #0
 8001220:	d101      	bne.n	8001226 <HAL_RCC_OscConfig+0x12>
  {
    return HAL_ERROR;
 8001222:	2301      	movs	r3, #1
 8001224:	e25b      	b.n	80016de <HAL_RCC_OscConfig+0x4ca>
  }

  /* Check the parameters */
  assert_param(IS_RCC_OSCILLATORTYPE(RCC_OscInitStruct->OscillatorType));
  /*------------------------------- HSE Configuration ------------------------*/
  if(((RCC_OscInitStruct->OscillatorType) & RCC_OSCILLATORTYPE_HSE) == RCC_OSCILLATORTYPE_HSE)
 8001226:	687b      	ldr	r3, [r7, #4]
 8001228:	681b      	ldr	r3, [r3, #0]
 800122a:	f003 0301 	and.w	r3, r3, #1
 800122e:	2b00      	cmp	r3, #0
 8001230:	d075      	beq.n	800131e <HAL_RCC_OscConfig+0x10a>
  {
    /* Check the parameters */
    assert_param(IS_RCC_HSE(RCC_OscInitStruct->HSEState));
    /* When the HSE is used as system clock or clock source for PLL in these cases HSE will not disabled */
    if((__HAL_RCC_GET_SYSCLK_SOURCE() == RCC_CFGR_SWS_HSE) ||\
 8001232:	4ba3      	ldr	r3, [pc, #652]	; (80014c0 <HAL_RCC_OscConfig+0x2ac>)
 8001234:	689b      	ldr	r3, [r3, #8]
 8001236:	f003 030c 	and.w	r3, r3, #12
 800123a:	2b04      	cmp	r3, #4
 800123c:	d00c      	beq.n	8001258 <HAL_RCC_OscConfig+0x44>
      ((__HAL_RCC_GET_SYSCLK_SOURCE() == RCC_CFGR_SWS_PLL) && ((RCC->PLLCFGR & RCC_PLLCFGR_PLLSRC) == RCC_PLLCFGR_PLLSRC_HSE)))
 800123e:	4ba0      	ldr	r3, [pc, #640]	; (80014c0 <HAL_RCC_OscConfig+0x2ac>)
 8001240:	689b      	ldr	r3, [r3, #8]
 8001242:	f003 030c 	and.w	r3, r3, #12
    if((__HAL_RCC_GET_SYSCLK_SOURCE() == RCC_CFGR_SWS_HSE) ||\
 8001246:	2b08      	cmp	r3, #8
 8001248:	d112      	bne.n	8001270 <HAL_RCC_OscConfig+0x5c>
      ((__HAL_RCC_GET_SYSCLK_SOURCE() == RCC_CFGR_SWS_PLL) && ((RCC->PLLCFGR & RCC_PLLCFGR_PLLSRC) == RCC_PLLCFGR_PLLSRC_HSE)))
 800124a:	4b9d      	ldr	r3, [pc, #628]	; (80014c0 <HAL_RCC_OscConfig+0x2ac>)
 800124c:	685b      	ldr	r3, [r3, #4]
 800124e:	f403 0380 	and.w	r3, r3, #4194304	; 0x400000
 8001252:	f5b3 0f80 	cmp.w	r3, #4194304	; 0x400000
 8001256:	d10b      	bne.n	8001270 <HAL_RCC_OscConfig+0x5c>
    {
      if((__HAL_RCC_GET_FLAG(RCC_FLAG_HSERDY) != RESET) && (RCC_OscInitStruct->HSEState == RCC_HSE_OFF))
 8001258:	4b99      	ldr	r3, [pc, #612]	; (80014c0 <HAL_RCC_OscConfig+0x2ac>)
 800125a:	681b      	ldr	r3, [r3, #0]
 800125c:	f403 3300 	and.w	r3, r3, #131072	; 0x20000
 8001260:	2b00      	cmp	r3, #0
 8001262:	d05b      	beq.n	800131c <HAL_RCC_OscConfig+0x108>
 8001264:	687b      	ldr	r3, [r7, #4]
 8001266:	685b      	ldr	r3, [r3, #4]
 8001268:	2b00      	cmp	r3, #0
 800126a:	d157      	bne.n	800131c <HAL_RCC_OscConfig+0x108>
      {
        return HAL_ERROR;
 800126c:	2301      	movs	r3, #1
 800126e:	e236      	b.n	80016de <HAL_RCC_OscConfig+0x4ca>
      }
    }
    else
    {
      /* Set the new HSE configuration ---------------------------------------*/
      __HAL_RCC_HSE_CONFIG(RCC_OscInitStruct->HSEState);
 8001270:	687b      	ldr	r3, [r7, #4]
 8001272:	685b      	ldr	r3, [r3, #4]
 8001274:	f5b3 3f80 	cmp.w	r3, #65536	; 0x10000
 8001278:	d106      	bne.n	8001288 <HAL_RCC_OscConfig+0x74>
 800127a:	4b91      	ldr	r3, [pc, #580]	; (80014c0 <HAL_RCC_OscConfig+0x2ac>)
 800127c:	681b      	ldr	r3, [r3, #0]
 800127e:	4a90      	ldr	r2, [pc, #576]	; (80014c0 <HAL_RCC_OscConfig+0x2ac>)
 8001280:	f443 3380 	orr.w	r3, r3, #65536	; 0x10000
 8001284:	6013      	str	r3, [r2, #0]
 8001286:	e01d      	b.n	80012c4 <HAL_RCC_OscConfig+0xb0>
 8001288:	687b      	ldr	r3, [r7, #4]
 800128a:	685b      	ldr	r3, [r3, #4]
 800128c:	f5b3 2fa0 	cmp.w	r3, #327680	; 0x50000
 8001290:	d10c      	bne.n	80012ac <HAL_RCC_OscConfig+0x98>
 8001292:	4b8b      	ldr	r3, [pc, #556]	; (80014c0 <HAL_RCC_OscConfig+0x2ac>)
 8001294:	681b      	ldr	r3, [r3, #0]
 8001296:	4a8a      	ldr	r2, [pc, #552]	; (80014c0 <HAL_RCC_OscConfig+0x2ac>)
 8001298:	f443 2380 	orr.w	r3, r3, #262144	; 0x40000
 800129c:	6013      	str	r3, [r2, #0]
 800129e:	4b88      	ldr	r3, [pc, #544]	; (80014c0 <HAL_RCC_OscConfig+0x2ac>)
 80012a0:	681b      	ldr	r3, [r3, #0]
 80012a2:	4a87      	ldr	r2, [pc, #540]	; (80014c0 <HAL_RCC_OscConfig+0x2ac>)
 80012a4:	f443 3380 	orr.w	r3, r3, #65536	; 0x10000
 80012a8:	6013      	str	r3, [r2, #0]
 80012aa:	e00b      	b.n	80012c4 <HAL_RCC_OscConfig+0xb0>
 80012ac:	4b84      	ldr	r3, [pc, #528]	; (80014c0 <HAL_RCC_OscConfig+0x2ac>)
 80012ae:	681b      	ldr	r3, [r3, #0]
 80012b0:	4a83      	ldr	r2, [pc, #524]	; (80014c0 <HAL_RCC_OscConfig+0x2ac>)
 80012b2:	f423 3380 	bic.w	r3, r3, #65536	; 0x10000
 80012b6:	6013      	str	r3, [r2, #0]
 80012b8:	4b81      	ldr	r3, [pc, #516]	; (80014c0 <HAL_RCC_OscConfig+0x2ac>)
 80012ba:	681b      	ldr	r3, [r3, #0]
 80012bc:	4a80      	ldr	r2, [pc, #512]	; (80014c0 <HAL_RCC_OscConfig+0x2ac>)
 80012be:	f423 2380 	bic.w	r3, r3, #262144	; 0x40000
 80012c2:	6013      	str	r3, [r2, #0]

      /* Check the HSE State */
      if((RCC_OscInitStruct->HSEState) != RCC_HSE_OFF)
 80012c4:	687b      	ldr	r3, [r7, #4]
 80012c6:	685b      	ldr	r3, [r3, #4]
 80012c8:	2b00      	cmp	r3, #0
 80012ca:	d013      	beq.n	80012f4 <HAL_RCC_OscConfig+0xe0>
      {
        /* Get Start Tick */
        tickstart = HAL_GetTick();
 80012cc:	f7ff fcae 	bl	8000c2c <HAL_GetTick>
 80012d0:	6138      	str	r0, [r7, #16]

        /* Wait till HSE is ready */
        while(__HAL_RCC_GET_FLAG(RCC_FLAG_HSERDY) == RESET)
 80012d2:	e008      	b.n	80012e6 <HAL_RCC_OscConfig+0xd2>
        {
          if((HAL_GetTick() - tickstart ) > HSE_TIMEOUT_VALUE)
 80012d4:	f7ff fcaa 	bl	8000c2c <HAL_GetTick>
 80012d8:	4602      	mov	r2, r0
 80012da:	693b      	ldr	r3, [r7, #16]
 80012dc:	1ad3      	subs	r3, r2, r3
 80012de:	2b64      	cmp	r3, #100	; 0x64
 80012e0:	d901      	bls.n	80012e6 <HAL_RCC_OscConfig+0xd2>
          {
            return HAL_TIMEOUT;
 80012e2:	2303      	movs	r3, #3
 80012e4:	e1fb      	b.n	80016de <HAL_RCC_OscConfig+0x4ca>
        while(__HAL_RCC_GET_FLAG(RCC_FLAG_HSERDY) == RESET)
 80012e6:	4b76      	ldr	r3, [pc, #472]	; (80014c0 <HAL_RCC_OscConfig+0x2ac>)
 80012e8:	681b      	ldr	r3, [r3, #0]
 80012ea:	f403 3300 	and.w	r3, r3, #131072	; 0x20000
 80012ee:	2b00      	cmp	r3, #0
 80012f0:	d0f0      	beq.n	80012d4 <HAL_RCC_OscConfig+0xc0>
 80012f2:	e014      	b.n	800131e <HAL_RCC_OscConfig+0x10a>
        }
      }
      else
      {
        /* Get Start Tick */
        tickstart = HAL_GetTick();
 80012f4:	f7ff fc9a 	bl	8000c2c <HAL_GetTick>
 80012f8:	6138      	str	r0, [r7, #16]

        /* Wait till HSE is bypassed or disabled */
        while(__HAL_RCC_GET_FLAG(RCC_FLAG_HSERDY) != RESET)
 80012fa:	e008      	b.n	800130e <HAL_RCC_OscConfig+0xfa>
        {
          if((HAL_GetTick() - tickstart ) > HSE_TIMEOUT_VALUE)
 80012fc:	f7ff fc96 	bl	8000c2c <HAL_GetTick>
 8001300:	4602      	mov	r2, r0
 8001302:	693b      	ldr	r3, [r7, #16]
 8001304:	1ad3      	subs	r3, r2, r3
 8001306:	2b64      	cmp	r3, #100	; 0x64
 8001308:	d901      	bls.n	800130e <HAL_RCC_OscConfig+0xfa>
          {
            return HAL_TIMEOUT;
 800130a:	2303      	movs	r3, #3
 800130c:	e1e7      	b.n	80016de <HAL_RCC_OscConfig+0x4ca>
        while(__HAL_RCC_GET_FLAG(RCC_FLAG_HSERDY) != RESET)
 800130e:	4b6c      	ldr	r3, [pc, #432]	; (80014c0 <HAL_RCC_OscConfig+0x2ac>)
 8001310:	681b      	ldr	r3, [r3, #0]
 8001312:	f403 3300 	and.w	r3, r3, #131072	; 0x20000
 8001316:	2b00      	cmp	r3, #0
 8001318:	d1f0      	bne.n	80012fc <HAL_RCC_OscConfig+0xe8>
 800131a:	e000      	b.n	800131e <HAL_RCC_OscConfig+0x10a>
      if((__HAL_RCC_GET_FLAG(RCC_FLAG_HSERDY) != RESET) && (RCC_OscInitStruct->HSEState == RCC_HSE_OFF))
 800131c:	bf00      	nop
        }
      }
    }
  }
  /*----------------------------- HSI Configuration --------------------------*/
  if(((RCC_OscInitStruct->OscillatorType) & RCC_OSCILLATORTYPE_HSI) == RCC_OSCILLATORTYPE_HSI)
 800131e:	687b      	ldr	r3, [r7, #4]
 8001320:	681b      	ldr	r3, [r3, #0]
 8001322:	f003 0302 	and.w	r3, r3, #2
 8001326:	2b00      	cmp	r3, #0
 8001328:	d063      	beq.n	80013f2 <HAL_RCC_OscConfig+0x1de>
    /* Check the parameters */
    assert_param(IS_RCC_HSI(RCC_OscInitStruct->HSIState));
    assert_param(IS_RCC_CALIBRATION_VALUE(RCC_OscInitStruct->HSICalibrationValue));

    /* Check if HSI is used as system clock or as PLL source when PLL is selected as system clock */
    if((__HAL_RCC_GET_SYSCLK_SOURCE() == RCC_CFGR_SWS_HSI) ||\
 800132a:	4b65      	ldr	r3, [pc, #404]	; (80014c0 <HAL_RCC_OscConfig+0x2ac>)
 800132c:	689b      	ldr	r3, [r3, #8]
 800132e:	f003 030c 	and.w	r3, r3, #12
 8001332:	2b00      	cmp	r3, #0
 8001334:	d00b      	beq.n	800134e <HAL_RCC_OscConfig+0x13a>
      ((__HAL_RCC_GET_SYSCLK_SOURCE() == RCC_CFGR_SWS_PLL) && ((RCC->PLLCFGR & RCC_PLLCFGR_PLLSRC) == RCC_PLLCFGR_PLLSRC_HSI)))
 8001336:	4b62      	ldr	r3, [pc, #392]	; (80014c0 <HAL_RCC_OscConfig+0x2ac>)
 8001338:	689b      	ldr	r3, [r3, #8]
 800133a:	f003 030c 	and.w	r3, r3, #12
    if((__HAL_RCC_GET_SYSCLK_SOURCE() == RCC_CFGR_SWS_HSI) ||\
 800133e:	2b08      	cmp	r3, #8
 8001340:	d11c      	bne.n	800137c <HAL_RCC_OscConfig+0x168>
      ((__HAL_RCC_GET_SYSCLK_SOURCE() == RCC_CFGR_SWS_PLL) && ((RCC->PLLCFGR & RCC_PLLCFGR_PLLSRC) == RCC_PLLCFGR_PLLSRC_HSI)))
 8001342:	4b5f      	ldr	r3, [pc, #380]	; (80014c0 <HAL_RCC_OscConfig+0x2ac>)
 8001344:	685b      	ldr	r3, [r3, #4]
 8001346:	f403 0380 	and.w	r3, r3, #4194304	; 0x400000
 800134a:	2b00      	cmp	r3, #0
 800134c:	d116      	bne.n	800137c <HAL_RCC_OscConfig+0x168>
    {
      /* When HSI is used as system clock it will not disabled */
      if((__HAL_RCC_GET_FLAG(RCC_FLAG_HSIRDY) != RESET) && (RCC_OscInitStruct->HSIState != RCC_HSI_ON))
 800134e:	4b5c      	ldr	r3, [pc, #368]	; (80014c0 <HAL_RCC_OscConfig+0x2ac>)
 8001350:	681b      	ldr	r3, [r3, #0]
 8001352:	f003 0302 	and.w	r3, r3, #2
 8001356:	2b00      	cmp	r3, #0
 8001358:	d005      	beq.n	8001366 <HAL_RCC_OscConfig+0x152>
 800135a:	687b      	ldr	r3, [r7, #4]
 800135c:	68db      	ldr	r3, [r3, #12]
 800135e:	2b01      	cmp	r3, #1
 8001360:	d001      	beq.n	8001366 <HAL_RCC_OscConfig+0x152>
      {
        return HAL_ERROR;
 8001362:	2301      	movs	r3, #1
 8001364:	e1bb      	b.n	80016de <HAL_RCC_OscConfig+0x4ca>
      }
      /* Otherwise, just the calibration is allowed */
      else
      {
        /* Adjusts the Internal High Speed oscillator (HSI) calibration value.*/
        __HAL_RCC_HSI_CALIBRATIONVALUE_ADJUST(RCC_OscInitStruct->HSICalibrationValue);
 8001366:	4b56      	ldr	r3, [pc, #344]	; (80014c0 <HAL_RCC_OscConfig+0x2ac>)
 8001368:	681b      	ldr	r3, [r3, #0]
 800136a:	f023 02f8 	bic.w	r2, r3, #248	; 0xf8
 800136e:	687b      	ldr	r3, [r7, #4]
 8001370:	691b      	ldr	r3, [r3, #16]
 8001372:	00db      	lsls	r3, r3, #3
 8001374:	4952      	ldr	r1, [pc, #328]	; (80014c0 <HAL_RCC_OscConfig+0x2ac>)
 8001376:	4313      	orrs	r3, r2
 8001378:	600b      	str	r3, [r1, #0]
      if((__HAL_RCC_GET_FLAG(RCC_FLAG_HSIRDY) != RESET) && (RCC_OscInitStruct->HSIState != RCC_HSI_ON))
 800137a:	e03a      	b.n	80013f2 <HAL_RCC_OscConfig+0x1de>
      }
    }
    else
    {
      /* Check the HSI State */
      if((RCC_OscInitStruct->HSIState)!= RCC_HSI_OFF)
 800137c:	687b      	ldr	r3, [r7, #4]
 800137e:	68db      	ldr	r3, [r3, #12]
 8001380:	2b00      	cmp	r3, #0
 8001382:	d020      	beq.n	80013c6 <HAL_RCC_OscConfig+0x1b2>
      {
        /* Enable the Internal High Speed oscillator (HSI). */
        __HAL_RCC_HSI_ENABLE();
 8001384:	4b4f      	ldr	r3, [pc, #316]	; (80014c4 <HAL_RCC_OscConfig+0x2b0>)
 8001386:	2201      	movs	r2, #1
 8001388:	601a      	str	r2, [r3, #0]

        /* Get Start Tick*/
        tickstart = HAL_GetTick();
 800138a:	f7ff fc4f 	bl	8000c2c <HAL_GetTick>
 800138e:	6138      	str	r0, [r7, #16]

        /* Wait till HSI is ready */
        while(__HAL_RCC_GET_FLAG(RCC_FLAG_HSIRDY) == RESET)
 8001390:	e008      	b.n	80013a4 <HAL_RCC_OscConfig+0x190>
        {
          if((HAL_GetTick() - tickstart ) > HSI_TIMEOUT_VALUE)
 8001392:	f7ff fc4b 	bl	8000c2c <HAL_GetTick>
 8001396:	4602      	mov	r2, r0
 8001398:	693b      	ldr	r3, [r7, #16]
 800139a:	1ad3      	subs	r3, r2, r3
 800139c:	2b02      	cmp	r3, #2
 800139e:	d901      	bls.n	80013a4 <HAL_RCC_OscConfig+0x190>
          {
            return HAL_TIMEOUT;
 80013a0:	2303      	movs	r3, #3
 80013a2:	e19c      	b.n	80016de <HAL_RCC_OscConfig+0x4ca>
        while(__HAL_RCC_GET_FLAG(RCC_FLAG_HSIRDY) == RESET)
 80013a4:	4b46      	ldr	r3, [pc, #280]	; (80014c0 <HAL_RCC_OscConfig+0x2ac>)
 80013a6:	681b      	ldr	r3, [r3, #0]
 80013a8:	f003 0302 	and.w	r3, r3, #2
 80013ac:	2b00      	cmp	r3, #0
 80013ae:	d0f0      	beq.n	8001392 <HAL_RCC_OscConfig+0x17e>
          }
        }

        /* Adjusts the Internal High Speed oscillator (HSI) calibration value. */
        __HAL_RCC_HSI_CALIBRATIONVALUE_ADJUST(RCC_OscInitStruct->HSICalibrationValue);
 80013b0:	4b43      	ldr	r3, [pc, #268]	; (80014c0 <HAL_RCC_OscConfig+0x2ac>)
 80013b2:	681b      	ldr	r3, [r3, #0]
 80013b4:	f023 02f8 	bic.w	r2, r3, #248	; 0xf8
 80013b8:	687b      	ldr	r3, [r7, #4]
 80013ba:	691b      	ldr	r3, [r3, #16]
 80013bc:	00db      	lsls	r3, r3, #3
 80013be:	4940      	ldr	r1, [pc, #256]	; (80014c0 <HAL_RCC_OscConfig+0x2ac>)
 80013c0:	4313      	orrs	r3, r2
 80013c2:	600b      	str	r3, [r1, #0]
 80013c4:	e015      	b.n	80013f2 <HAL_RCC_OscConfig+0x1de>
      }
      else
      {
        /* Disable the Internal High Speed oscillator (HSI). */
        __HAL_RCC_HSI_DISABLE();
 80013c6:	4b3f      	ldr	r3, [pc, #252]	; (80014c4 <HAL_RCC_OscConfig+0x2b0>)
 80013c8:	2200      	movs	r2, #0
 80013ca:	601a      	str	r2, [r3, #0]

        /* Get Start Tick*/
        tickstart = HAL_GetTick();
 80013cc:	f7ff fc2e 	bl	8000c2c <HAL_GetTick>
 80013d0:	6138      	str	r0, [r7, #16]

        /* Wait till HSI is ready */
        while(__HAL_RCC_GET_FLAG(RCC_FLAG_HSIRDY) != RESET)
 80013d2:	e008      	b.n	80013e6 <HAL_RCC_OscConfig+0x1d2>
        {
          if((HAL_GetTick() - tickstart ) > HSI_TIMEOUT_VALUE)
 80013d4:	f7ff fc2a 	bl	8000c2c <HAL_GetTick>
 80013d8:	4602      	mov	r2, r0
 80013da:	693b      	ldr	r3, [r7, #16]
 80013dc:	1ad3      	subs	r3, r2, r3
 80013de:	2b02      	cmp	r3, #2
 80013e0:	d901      	bls.n	80013e6 <HAL_RCC_OscConfig+0x1d2>
          {
            return HAL_TIMEOUT;
 80013e2:	2303      	movs	r3, #3
 80013e4:	e17b      	b.n	80016de <HAL_RCC_OscConfig+0x4ca>
        while(__HAL_RCC_GET_FLAG(RCC_FLAG_HSIRDY) != RESET)
 80013e6:	4b36      	ldr	r3, [pc, #216]	; (80014c0 <HAL_RCC_OscConfig+0x2ac>)
 80013e8:	681b      	ldr	r3, [r3, #0]
 80013ea:	f003 0302 	and.w	r3, r3, #2
 80013ee:	2b00      	cmp	r3, #0
 80013f0:	d1f0      	bne.n	80013d4 <HAL_RCC_OscConfig+0x1c0>
        }
      }
    }
  }
  /*------------------------------ LSI Configuration -------------------------*/
  if(((RCC_OscInitStruct->OscillatorType) & RCC_OSCILLATORTYPE_LSI) == RCC_OSCILLATORTYPE_LSI)
 80013f2:	687b      	ldr	r3, [r7, #4]
 80013f4:	681b      	ldr	r3, [r3, #0]
 80013f6:	f003 0308 	and.w	r3, r3, #8
 80013fa:	2b00      	cmp	r3, #0
 80013fc:	d030      	beq.n	8001460 <HAL_RCC_OscConfig+0x24c>
  {
    /* Check the parameters */
    assert_param(IS_RCC_LSI(RCC_OscInitStruct->LSIState));

    /* Check the LSI State */
    if((RCC_OscInitStruct->LSIState)!= RCC_LSI_OFF)
 80013fe:	687b      	ldr	r3, [r7, #4]
 8001400:	695b      	ldr	r3, [r3, #20]
 8001402:	2b00      	cmp	r3, #0
 8001404:	d016      	beq.n	8001434 <HAL_RCC_OscConfig+0x220>
    {
      /* Enable the Internal Low Speed oscillator (LSI). */
      __HAL_RCC_LSI_ENABLE();
 8001406:	4b30      	ldr	r3, [pc, #192]	; (80014c8 <HAL_RCC_OscConfig+0x2b4>)
 8001408:	2201      	movs	r2, #1
 800140a:	601a      	str	r2, [r3, #0]

      /* Get Start Tick*/
      tickstart = HAL_GetTick();
 800140c:	f7ff fc0e 	bl	8000c2c <HAL_GetTick>
 8001410:	6138      	str	r0, [r7, #16]

      /* Wait till LSI is ready */
      while(__HAL_RCC_GET_FLAG(RCC_FLAG_LSIRDY) == RESET)
 8001412:	e008      	b.n	8001426 <HAL_RCC_OscConfig+0x212>
      {
        if((HAL_GetTick() - tickstart ) > LSI_TIMEOUT_VALUE)
 8001414:	f7ff fc0a 	bl	8000c2c <HAL_GetTick>
 8001418:	4602      	mov	r2, r0
 800141a:	693b      	ldr	r3, [r7, #16]
 800141c:	1ad3      	subs	r3, r2, r3
 800141e:	2b02      	cmp	r3, #2
 8001420:	d901      	bls.n	8001426 <HAL_RCC_OscConfig+0x212>
        {
          return HAL_TIMEOUT;
 8001422:	2303      	movs	r3, #3
 8001424:	e15b      	b.n	80016de <HAL_RCC_OscConfig+0x4ca>
      while(__HAL_RCC_GET_FLAG(RCC_FLAG_LSIRDY) == RESET)
 8001426:	4b26      	ldr	r3, [pc, #152]	; (80014c0 <HAL_RCC_OscConfig+0x2ac>)
 8001428:	6f5b      	ldr	r3, [r3, #116]	; 0x74
 800142a:	f003 0302 	and.w	r3, r3, #2
 800142e:	2b00      	cmp	r3, #0
 8001430:	d0f0      	beq.n	8001414 <HAL_RCC_OscConfig+0x200>
 8001432:	e015      	b.n	8001460 <HAL_RCC_OscConfig+0x24c>
      }
    }
    else
    {
      /* Disable the Internal Low Speed oscillator (LSI). */
      __HAL_RCC_LSI_DISABLE();
 8001434:	4b24      	ldr	r3, [pc, #144]	; (80014c8 <HAL_RCC_OscConfig+0x2b4>)
 8001436:	2200      	movs	r2, #0
 8001438:	601a      	str	r2, [r3, #0]

      /* Get Start Tick */
      tickstart = HAL_GetTick();
 800143a:	f7ff fbf7 	bl	8000c2c <HAL_GetTick>
 800143e:	6138      	str	r0, [r7, #16]

      /* Wait till LSI is ready */
      while(__HAL_RCC_GET_FLAG(RCC_FLAG_LSIRDY) != RESET)
 8001440:	e008      	b.n	8001454 <HAL_RCC_OscConfig+0x240>
      {
        if((HAL_GetTick() - tickstart ) > LSI_TIMEOUT_VALUE)
 8001442:	f7ff fbf3 	bl	8000c2c <HAL_GetTick>
 8001446:	4602      	mov	r2, r0
 8001448:	693b      	ldr	r3, [r7, #16]
 800144a:	1ad3      	subs	r3, r2, r3
 800144c:	2b02      	cmp	r3, #2
 800144e:	d901      	bls.n	8001454 <HAL_RCC_OscConfig+0x240>
        {
          return HAL_TIMEOUT;
 8001450:	2303      	movs	r3, #3
 8001452:	e144      	b.n	80016de <HAL_RCC_OscConfig+0x4ca>
      while(__HAL_RCC_GET_FLAG(RCC_FLAG_LSIRDY) != RESET)
 8001454:	4b1a      	ldr	r3, [pc, #104]	; (80014c0 <HAL_RCC_OscConfig+0x2ac>)
 8001456:	6f5b      	ldr	r3, [r3, #116]	; 0x74
 8001458:	f003 0302 	and.w	r3, r3, #2
 800145c:	2b00      	cmp	r3, #0
 800145e:	d1f0      	bne.n	8001442 <HAL_RCC_OscConfig+0x22e>
        }
      }
    }
  }
  /*------------------------------ LSE Configuration -------------------------*/
  if(((RCC_OscInitStruct->OscillatorType) & RCC_OSCILLATORTYPE_LSE) == RCC_OSCILLATORTYPE_LSE)
 8001460:	687b      	ldr	r3, [r7, #4]
 8001462:	681b      	ldr	r3, [r3, #0]
 8001464:	f003 0304 	and.w	r3, r3, #4
 8001468:	2b00      	cmp	r3, #0
 800146a:	f000 80a0 	beq.w	80015ae <HAL_RCC_OscConfig+0x39a>
  {
    FlagStatus       pwrclkchanged = RESET;
 800146e:	2300      	movs	r3, #0
 8001470:	75fb      	strb	r3, [r7, #23]
    /* Check the parameters */
    assert_param(IS_RCC_LSE(RCC_OscInitStruct->LSEState));

    /* Update LSE configuration in Backup Domain control register    */
    /* Requires to enable write access to Backup Domain of necessary */
    if(__HAL_RCC_PWR_IS_CLK_DISABLED())
 8001472:	4b13      	ldr	r3, [pc, #76]	; (80014c0 <HAL_RCC_OscConfig+0x2ac>)
 8001474:	6c1b      	ldr	r3, [r3, #64]	; 0x40
 8001476:	f003 5380 	and.w	r3, r3, #268435456	; 0x10000000
 800147a:	2b00      	cmp	r3, #0
 800147c:	d10f      	bne.n	800149e <HAL_RCC_OscConfig+0x28a>
    {
      __HAL_RCC_PWR_CLK_ENABLE();
 800147e:	2300      	movs	r3, #0
 8001480:	60bb      	str	r3, [r7, #8]
 8001482:	4b0f      	ldr	r3, [pc, #60]	; (80014c0 <HAL_RCC_OscConfig+0x2ac>)
 8001484:	6c1b      	ldr	r3, [r3, #64]	; 0x40
 8001486:	4a0e      	ldr	r2, [pc, #56]	; (80014c0 <HAL_RCC_OscConfig+0x2ac>)
 8001488:	f043 5380 	orr.w	r3, r3, #268435456	; 0x10000000
 800148c:	6413      	str	r3, [r2, #64]	; 0x40
 800148e:	4b0c      	ldr	r3, [pc, #48]	; (80014c0 <HAL_RCC_OscConfig+0x2ac>)
 8001490:	6c1b      	ldr	r3, [r3, #64]	; 0x40
 8001492:	f003 5380 	and.w	r3, r3, #268435456	; 0x10000000
 8001496:	60bb      	str	r3, [r7, #8]
 8001498:	68bb      	ldr	r3, [r7, #8]
      pwrclkchanged = SET;
 800149a:	2301      	movs	r3, #1
 800149c:	75fb      	strb	r3, [r7, #23]
    }

    if(HAL_IS_BIT_CLR(PWR->CR, PWR_CR_DBP))
 800149e:	4b0b      	ldr	r3, [pc, #44]	; (80014cc <HAL_RCC_OscConfig+0x2b8>)
 80014a0:	681b      	ldr	r3, [r3, #0]
 80014a2:	f403 7380 	and.w	r3, r3, #256	; 0x100
 80014a6:	2b00      	cmp	r3, #0
 80014a8:	d121      	bne.n	80014ee <HAL_RCC_OscConfig+0x2da>
    {
      /* Enable write access to Backup domain */
      SET_BIT(PWR->CR, PWR_CR_DBP);
 80014aa:	4b08      	ldr	r3, [pc, #32]	; (80014cc <HAL_RCC_OscConfig+0x2b8>)
 80014ac:	681b      	ldr	r3, [r3, #0]
 80014ae:	4a07      	ldr	r2, [pc, #28]	; (80014cc <HAL_RCC_OscConfig+0x2b8>)
 80014b0:	f443 7380 	orr.w	r3, r3, #256	; 0x100
 80014b4:	6013      	str	r3, [r2, #0]

      /* Wait for Backup domain Write protection disable */
      tickstart = HAL_GetTick();
 80014b6:	f7ff fbb9 	bl	8000c2c <HAL_GetTick>
 80014ba:	6138      	str	r0, [r7, #16]

      while(HAL_IS_BIT_CLR(PWR->CR, PWR_CR_DBP))
 80014bc:	e011      	b.n	80014e2 <HAL_RCC_OscConfig+0x2ce>
 80014be:	bf00      	nop
 80014c0:	40023800 	.word	0x40023800
 80014c4:	42470000 	.word	0x42470000
 80014c8:	42470e80 	.word	0x42470e80
 80014cc:	40007000 	.word	0x40007000
      {
        if((HAL_GetTick() - tickstart) > RCC_DBP_TIMEOUT_VALUE)
 80014d0:	f7ff fbac 	bl	8000c2c <HAL_GetTick>
 80014d4:	4602      	mov	r2, r0
 80014d6:	693b      	ldr	r3, [r7, #16]
 80014d8:	1ad3      	subs	r3, r2, r3
 80014da:	2b02      	cmp	r3, #2
 80014dc:	d901      	bls.n	80014e2 <HAL_RCC_OscConfig+0x2ce>
        {
          return HAL_TIMEOUT;
 80014de:	2303      	movs	r3, #3
 80014e0:	e0fd      	b.n	80016de <HAL_RCC_OscConfig+0x4ca>
      while(HAL_IS_BIT_CLR(PWR->CR, PWR_CR_DBP))
 80014e2:	4b81      	ldr	r3, [pc, #516]	; (80016e8 <HAL_RCC_OscConfig+0x4d4>)
 80014e4:	681b      	ldr	r3, [r3, #0]
 80014e6:	f403 7380 	and.w	r3, r3, #256	; 0x100
 80014ea:	2b00      	cmp	r3, #0
 80014ec:	d0f0      	beq.n	80014d0 <HAL_RCC_OscConfig+0x2bc>
        }
      }
    }

    /* Set the new LSE configuration -----------------------------------------*/
    __HAL_RCC_LSE_CONFIG(RCC_OscInitStruct->LSEState);
 80014ee:	687b      	ldr	r3, [r7, #4]
 80014f0:	689b      	ldr	r3, [r3, #8]
 80014f2:	2b01      	cmp	r3, #1
 80014f4:	d106      	bne.n	8001504 <HAL_RCC_OscConfig+0x2f0>
 80014f6:	4b7d      	ldr	r3, [pc, #500]	; (80016ec <HAL_RCC_OscConfig+0x4d8>)
 80014f8:	6f1b      	ldr	r3, [r3, #112]	; 0x70
 80014fa:	4a7c      	ldr	r2, [pc, #496]	; (80016ec <HAL_RCC_OscConfig+0x4d8>)
 80014fc:	f043 0301 	orr.w	r3, r3, #1
 8001500:	6713      	str	r3, [r2, #112]	; 0x70
 8001502:	e01c      	b.n	800153e <HAL_RCC_OscConfig+0x32a>
 8001504:	687b      	ldr	r3, [r7, #4]
 8001506:	689b      	ldr	r3, [r3, #8]
 8001508:	2b05      	cmp	r3, #5
 800150a:	d10c      	bne.n	8001526 <HAL_RCC_OscConfig+0x312>
 800150c:	4b77      	ldr	r3, [pc, #476]	; (80016ec <HAL_RCC_OscConfig+0x4d8>)
 800150e:	6f1b      	ldr	r3, [r3, #112]	; 0x70
 8001510:	4a76      	ldr	r2, [pc, #472]	; (80016ec <HAL_RCC_OscConfig+0x4d8>)
 8001512:	f043 0304 	orr.w	r3, r3, #4
 8001516:	6713      	str	r3, [r2, #112]	; 0x70
 8001518:	4b74      	ldr	r3, [pc, #464]	; (80016ec <HAL_RCC_OscConfig+0x4d8>)
 800151a:	6f1b      	ldr	r3, [r3, #112]	; 0x70
 800151c:	4a73      	ldr	r2, [pc, #460]	; (80016ec <HAL_RCC_OscConfig+0x4d8>)
 800151e:	f043 0301 	orr.w	r3, r3, #1
 8001522:	6713      	str	r3, [r2, #112]	; 0x70
 8001524:	e00b      	b.n	800153e <HAL_RCC_OscConfig+0x32a>
 8001526:	4b71      	ldr	r3, [pc, #452]	; (80016ec <HAL_RCC_OscConfig+0x4d8>)
 8001528:	6f1b      	ldr	r3, [r3, #112]	; 0x70
 800152a:	4a70      	ldr	r2, [pc, #448]	; (80016ec <HAL_RCC_OscConfig+0x4d8>)
 800152c:	f023 0301 	bic.w	r3, r3, #1
 8001530:	6713      	str	r3, [r2, #112]	; 0x70
 8001532:	4b6e      	ldr	r3, [pc, #440]	; (80016ec <HAL_RCC_OscConfig+0x4d8>)
 8001534:	6f1b      	ldr	r3, [r3, #112]	; 0x70
 8001536:	4a6d      	ldr	r2, [pc, #436]	; (80016ec <HAL_RCC_OscConfig+0x4d8>)
 8001538:	f023 0304 	bic.w	r3, r3, #4
 800153c:	6713      	str	r3, [r2, #112]	; 0x70
    /* Check the LSE State */
    if((RCC_OscInitStruct->LSEState) != RCC_LSE_OFF)
 800153e:	687b      	ldr	r3, [r7, #4]
 8001540:	689b      	ldr	r3, [r3, #8]
 8001542:	2b00      	cmp	r3, #0
 8001544:	d015      	beq.n	8001572 <HAL_RCC_OscConfig+0x35e>
    {
      /* Get Start Tick*/
      tickstart = HAL_GetTick();
 8001546:	f7ff fb71 	bl	8000c2c <HAL_GetTick>
 800154a:	6138      	str	r0, [r7, #16]

      /* Wait till LSE is ready */
      while(__HAL_RCC_GET_FLAG(RCC_FLAG_LSERDY) == RESET)
 800154c:	e00a      	b.n	8001564 <HAL_RCC_OscConfig+0x350>
      {
        if((HAL_GetTick() - tickstart ) > RCC_LSE_TIMEOUT_VALUE)
 800154e:	f7ff fb6d 	bl	8000c2c <HAL_GetTick>
 8001552:	4602      	mov	r2, r0
 8001554:	693b      	ldr	r3, [r7, #16]
 8001556:	1ad3      	subs	r3, r2, r3
 8001558:	f241 3288 	movw	r2, #5000	; 0x1388
 800155c:	4293      	cmp	r3, r2
 800155e:	d901      	bls.n	8001564 <HAL_RCC_OscConfig+0x350>
        {
          return HAL_TIMEOUT;
 8001560:	2303      	movs	r3, #3
 8001562:	e0bc      	b.n	80016de <HAL_RCC_OscConfig+0x4ca>
      while(__HAL_RCC_GET_FLAG(RCC_FLAG_LSERDY) == RESET)
 8001564:	4b61      	ldr	r3, [pc, #388]	; (80016ec <HAL_RCC_OscConfig+0x4d8>)
 8001566:	6f1b      	ldr	r3, [r3, #112]	; 0x70
 8001568:	f003 0302 	and.w	r3, r3, #2
 800156c:	2b00      	cmp	r3, #0
 800156e:	d0ee      	beq.n	800154e <HAL_RCC_OscConfig+0x33a>
 8001570:	e014      	b.n	800159c <HAL_RCC_OscConfig+0x388>
      }
    }
    else
    {
      /* Get Start Tick */
      tickstart = HAL_GetTick();
 8001572:	f7ff fb5b 	bl	8000c2c <HAL_GetTick>
 8001576:	6138      	str	r0, [r7, #16]

      /* Wait till LSE is ready */
      while(__HAL_RCC_GET_FLAG(RCC_FLAG_LSERDY) != RESET)
 8001578:	e00a      	b.n	8001590 <HAL_RCC_OscConfig+0x37c>
      {
        if((HAL_GetTick() - tickstart ) > RCC_LSE_TIMEOUT_VALUE)
 800157a:	f7ff fb57 	bl	8000c2c <HAL_GetTick>
 800157e:	4602      	mov	r2, r0
 8001580:	693b      	ldr	r3, [r7, #16]
 8001582:	1ad3      	subs	r3, r2, r3
 8001584:	f241 3288 	movw	r2, #5000	; 0x1388
 8001588:	4293      	cmp	r3, r2
 800158a:	d901      	bls.n	8001590 <HAL_RCC_OscConfig+0x37c>
        {
          return HAL_TIMEOUT;
 800158c:	2303      	movs	r3, #3
 800158e:	e0a6      	b.n	80016de <HAL_RCC_OscConfig+0x4ca>
      while(__HAL_RCC_GET_FLAG(RCC_FLAG_LSERDY) != RESET)
 8001590:	4b56      	ldr	r3, [pc, #344]	; (80016ec <HAL_RCC_OscConfig+0x4d8>)
 8001592:	6f1b      	ldr	r3, [r3, #112]	; 0x70
 8001594:	f003 0302 	and.w	r3, r3, #2
 8001598:	2b00      	cmp	r3, #0
 800159a:	d1ee      	bne.n	800157a <HAL_RCC_OscConfig+0x366>
        }
      }
    }

    /* Restore clock configuration if changed */
    if(pwrclkchanged == SET)
 800159c:	7dfb      	ldrb	r3, [r7, #23]
 800159e:	2b01      	cmp	r3, #1
 80015a0:	d105      	bne.n	80015ae <HAL_RCC_OscConfig+0x39a>
    {
      __HAL_RCC_PWR_CLK_DISABLE();
 80015a2:	4b52      	ldr	r3, [pc, #328]	; (80016ec <HAL_RCC_OscConfig+0x4d8>)
 80015a4:	6c1b      	ldr	r3, [r3, #64]	; 0x40
 80015a6:	4a51      	ldr	r2, [pc, #324]	; (80016ec <HAL_RCC_OscConfig+0x4d8>)
 80015a8:	f023 5380 	bic.w	r3, r3, #268435456	; 0x10000000
 80015ac:	6413      	str	r3, [r2, #64]	; 0x40
    }
  }
  /*-------------------------------- PLL Configuration -----------------------*/
  /* Check the parameters */
  assert_param(IS_RCC_PLL(RCC_OscInitStruct->PLL.PLLState));
  if ((RCC_OscInitStruct->PLL.PLLState) != RCC_PLL_NONE)
 80015ae:	687b      	ldr	r3, [r7, #4]
 80015b0:	699b      	ldr	r3, [r3, #24]
 80015b2:	2b00      	cmp	r3, #0
 80015b4:	f000 8092 	beq.w	80016dc <HAL_RCC_OscConfig+0x4c8>
  {
    /* Check if the PLL is used as system clock or not */
    if(__HAL_RCC_GET_SYSCLK_SOURCE() != RCC_CFGR_SWS_PLL)
 80015b8:	4b4c      	ldr	r3, [pc, #304]	; (80016ec <HAL_RCC_OscConfig+0x4d8>)
 80015ba:	689b      	ldr	r3, [r3, #8]
 80015bc:	f003 030c 	and.w	r3, r3, #12
 80015c0:	2b08      	cmp	r3, #8
 80015c2:	d05c      	beq.n	800167e <HAL_RCC_OscConfig+0x46a>
    {
      if((RCC_OscInitStruct->PLL.PLLState) == RCC_PLL_ON)
 80015c4:	687b      	ldr	r3, [r7, #4]
 80015c6:	699b      	ldr	r3, [r3, #24]
 80015c8:	2b02      	cmp	r3, #2
 80015ca:	d141      	bne.n	8001650 <HAL_RCC_OscConfig+0x43c>
        assert_param(IS_RCC_PLLN_VALUE(RCC_OscInitStruct->PLL.PLLN));
        assert_param(IS_RCC_PLLP_VALUE(RCC_OscInitStruct->PLL.PLLP));
        assert_param(IS_RCC_PLLQ_VALUE(RCC_OscInitStruct->PLL.PLLQ));

        /* Disable the main PLL. */
        __HAL_RCC_PLL_DISABLE();
 80015cc:	4b48      	ldr	r3, [pc, #288]	; (80016f0 <HAL_RCC_OscConfig+0x4dc>)
 80015ce:	2200      	movs	r2, #0
 80015d0:	601a      	str	r2, [r3, #0]

        /* Get Start Tick */
        tickstart = HAL_GetTick();
 80015d2:	f7ff fb2b 	bl	8000c2c <HAL_GetTick>
 80015d6:	6138      	str	r0, [r7, #16]

        /* Wait till PLL is ready */
        while(__HAL_RCC_GET_FLAG(RCC_FLAG_PLLRDY) != RESET)
 80015d8:	e008      	b.n	80015ec <HAL_RCC_OscConfig+0x3d8>
        {
          if((HAL_GetTick() - tickstart ) > PLL_TIMEOUT_VALUE)
 80015da:	f7ff fb27 	bl	8000c2c <HAL_GetTick>
 80015de:	4602      	mov	r2, r0
 80015e0:	693b      	ldr	r3, [r7, #16]
 80015e2:	1ad3      	subs	r3, r2, r3
 80015e4:	2b02      	cmp	r3, #2
 80015e6:	d901      	bls.n	80015ec <HAL_RCC_OscConfig+0x3d8>
          {
            return HAL_TIMEOUT;
 80015e8:	2303      	movs	r3, #3
 80015ea:	e078      	b.n	80016de <HAL_RCC_OscConfig+0x4ca>
        while(__HAL_RCC_GET_FLAG(RCC_FLAG_PLLRDY) != RESET)
 80015ec:	4b3f      	ldr	r3, [pc, #252]	; (80016ec <HAL_RCC_OscConfig+0x4d8>)
 80015ee:	681b      	ldr	r3, [r3, #0]
 80015f0:	f003 7300 	and.w	r3, r3, #33554432	; 0x2000000
 80015f4:	2b00      	cmp	r3, #0
 80015f6:	d1f0      	bne.n	80015da <HAL_RCC_OscConfig+0x3c6>
          }
        }

        /* Configure the main PLL clock source, multiplication and division factors. */
        WRITE_REG(RCC->PLLCFGR, (RCC_OscInitStruct->PLL.PLLSource                                            | \
 80015f8:	687b      	ldr	r3, [r7, #4]
 80015fa:	69da      	ldr	r2, [r3, #28]
 80015fc:	687b      	ldr	r3, [r7, #4]
 80015fe:	6a1b      	ldr	r3, [r3, #32]
 8001600:	431a      	orrs	r2, r3
 8001602:	687b      	ldr	r3, [r7, #4]
 8001604:	6a5b      	ldr	r3, [r3, #36]	; 0x24
 8001606:	019b      	lsls	r3, r3, #6
 8001608:	431a      	orrs	r2, r3
 800160a:	687b      	ldr	r3, [r7, #4]
 800160c:	6a9b      	ldr	r3, [r3, #40]	; 0x28
 800160e:	085b      	lsrs	r3, r3, #1
 8001610:	3b01      	subs	r3, #1
 8001612:	041b      	lsls	r3, r3, #16
 8001614:	431a      	orrs	r2, r3
 8001616:	687b      	ldr	r3, [r7, #4]
 8001618:	6adb      	ldr	r3, [r3, #44]	; 0x2c
 800161a:	061b      	lsls	r3, r3, #24
 800161c:	4933      	ldr	r1, [pc, #204]	; (80016ec <HAL_RCC_OscConfig+0x4d8>)
 800161e:	4313      	orrs	r3, r2
 8001620:	604b      	str	r3, [r1, #4]
                                 RCC_OscInitStruct->PLL.PLLM                                                 | \
                                 (RCC_OscInitStruct->PLL.PLLN << RCC_PLLCFGR_PLLN_Pos)             | \
                                 (((RCC_OscInitStruct->PLL.PLLP >> 1U) - 1U) << RCC_PLLCFGR_PLLP_Pos) | \
                                 (RCC_OscInitStruct->PLL.PLLQ << RCC_PLLCFGR_PLLQ_Pos)));
        /* Enable the main PLL. */
        __HAL_RCC_PLL_ENABLE();
 8001622:	4b33      	ldr	r3, [pc, #204]	; (80016f0 <HAL_RCC_OscConfig+0x4dc>)
 8001624:	2201      	movs	r2, #1
 8001626:	601a      	str	r2, [r3, #0]

        /* Get Start Tick */
        tickstart = HAL_GetTick();
 8001628:	f7ff fb00 	bl	8000c2c <HAL_GetTick>
 800162c:	6138      	str	r0, [r7, #16]

        /* Wait till PLL is ready */
        while(__HAL_RCC_GET_FLAG(RCC_FLAG_PLLRDY) == RESET)
 800162e:	e008      	b.n	8001642 <HAL_RCC_OscConfig+0x42e>
        {
          if((HAL_GetTick() - tickstart ) > PLL_TIMEOUT_VALUE)
 8001630:	f7ff fafc 	bl	8000c2c <HAL_GetTick>
 8001634:	4602      	mov	r2, r0
 8001636:	693b      	ldr	r3, [r7, #16]
 8001638:	1ad3      	subs	r3, r2, r3
 800163a:	2b02      	cmp	r3, #2
 800163c:	d901      	bls.n	8001642 <HAL_RCC_OscConfig+0x42e>
          {
            return HAL_TIMEOUT;
 800163e:	2303      	movs	r3, #3
 8001640:	e04d      	b.n	80016de <HAL_RCC_OscConfig+0x4ca>
        while(__HAL_RCC_GET_FLAG(RCC_FLAG_PLLRDY) == RESET)
 8001642:	4b2a      	ldr	r3, [pc, #168]	; (80016ec <HAL_RCC_OscConfig+0x4d8>)
 8001644:	681b      	ldr	r3, [r3, #0]
 8001646:	f003 7300 	and.w	r3, r3, #33554432	; 0x2000000
 800164a:	2b00      	cmp	r3, #0
 800164c:	d0f0      	beq.n	8001630 <HAL_RCC_OscConfig+0x41c>
 800164e:	e045      	b.n	80016dc <HAL_RCC_OscConfig+0x4c8>
        }
      }
      else
      {
        /* Disable the main PLL. */
        __HAL_RCC_PLL_DISABLE();
 8001650:	4b27      	ldr	r3, [pc, #156]	; (80016f0 <HAL_RCC_OscConfig+0x4dc>)
 8001652:	2200      	movs	r2, #0
 8001654:	601a      	str	r2, [r3, #0]

        /* Get Start Tick */
        tickstart = HAL_GetTick();
 8001656:	f7ff fae9 	bl	8000c2c <HAL_GetTick>
 800165a:	6138      	str	r0, [r7, #16]

        /* Wait till PLL is ready */
        while(__HAL_RCC_GET_FLAG(RCC_FLAG_PLLRDY) != RESET)
 800165c:	e008      	b.n	8001670 <HAL_RCC_OscConfig+0x45c>
        {
          if((HAL_GetTick() - tickstart ) > PLL_TIMEOUT_VALUE)
 800165e:	f7ff fae5 	bl	8000c2c <HAL_GetTick>
 8001662:	4602      	mov	r2, r0
 8001664:	693b      	ldr	r3, [r7, #16]
 8001666:	1ad3      	subs	r3, r2, r3
 8001668:	2b02      	cmp	r3, #2
 800166a:	d901      	bls.n	8001670 <HAL_RCC_OscConfig+0x45c>
          {
            return HAL_TIMEOUT;
 800166c:	2303      	movs	r3, #3
 800166e:	e036      	b.n	80016de <HAL_RCC_OscConfig+0x4ca>
        while(__HAL_RCC_GET_FLAG(RCC_FLAG_PLLRDY) != RESET)
 8001670:	4b1e      	ldr	r3, [pc, #120]	; (80016ec <HAL_RCC_OscConfig+0x4d8>)
 8001672:	681b      	ldr	r3, [r3, #0]
 8001674:	f003 7300 	and.w	r3, r3, #33554432	; 0x2000000
 8001678:	2b00      	cmp	r3, #0
 800167a:	d1f0      	bne.n	800165e <HAL_RCC_OscConfig+0x44a>
 800167c:	e02e      	b.n	80016dc <HAL_RCC_OscConfig+0x4c8>
      }
    }
    else
    {
      /* Check if there is a request to disable the PLL used as System clock source */
      if((RCC_OscInitStruct->PLL.PLLState) == RCC_PLL_OFF)
 800167e:	687b      	ldr	r3, [r7, #4]
 8001680:	699b      	ldr	r3, [r3, #24]
 8001682:	2b01      	cmp	r3, #1
 8001684:	d101      	bne.n	800168a <HAL_RCC_OscConfig+0x476>
      {
        return HAL_ERROR;
 8001686:	2301      	movs	r3, #1
 8001688:	e029      	b.n	80016de <HAL_RCC_OscConfig+0x4ca>
      }
      else
      {
        /* Do not return HAL_ERROR if request repeats the current configuration */
        pll_config = RCC->PLLCFGR;
 800168a:	4b18      	ldr	r3, [pc, #96]	; (80016ec <HAL_RCC_OscConfig+0x4d8>)
 800168c:	685b      	ldr	r3, [r3, #4]
 800168e:	60fb      	str	r3, [r7, #12]
        if((READ_BIT(pll_config, RCC_PLLCFGR_PLLSRC) != RCC_OscInitStruct->PLL.PLLSource) ||
 8001690:	68fb      	ldr	r3, [r7, #12]
 8001692:	f403 0280 	and.w	r2, r3, #4194304	; 0x400000
 8001696:	687b      	ldr	r3, [r7, #4]
 8001698:	69db      	ldr	r3, [r3, #28]
 800169a:	429a      	cmp	r2, r3
 800169c:	d11c      	bne.n	80016d8 <HAL_RCC_OscConfig+0x4c4>
           (READ_BIT(pll_config, RCC_PLLCFGR_PLLM) != RCC_OscInitStruct->PLL.PLLM) ||
 800169e:	68fb      	ldr	r3, [r7, #12]
 80016a0:	f003 023f 	and.w	r2, r3, #63	; 0x3f
 80016a4:	687b      	ldr	r3, [r7, #4]
 80016a6:	6a1b      	ldr	r3, [r3, #32]
        if((READ_BIT(pll_config, RCC_PLLCFGR_PLLSRC) != RCC_OscInitStruct->PLL.PLLSource) ||
 80016a8:	429a      	cmp	r2, r3
 80016aa:	d115      	bne.n	80016d8 <HAL_RCC_OscConfig+0x4c4>
           (READ_BIT(pll_config, RCC_PLLCFGR_PLLN) != RCC_OscInitStruct->PLL.PLLN) ||
 80016ac:	68fa      	ldr	r2, [r7, #12]
 80016ae:	f647 73c0 	movw	r3, #32704	; 0x7fc0
 80016b2:	4013      	ands	r3, r2
 80016b4:	687a      	ldr	r2, [r7, #4]
 80016b6:	6a52      	ldr	r2, [r2, #36]	; 0x24
           (READ_BIT(pll_config, RCC_PLLCFGR_PLLM) != RCC_OscInitStruct->PLL.PLLM) ||
 80016b8:	4293      	cmp	r3, r2
 80016ba:	d10d      	bne.n	80016d8 <HAL_RCC_OscConfig+0x4c4>
           (READ_BIT(pll_config, RCC_PLLCFGR_PLLP) != RCC_OscInitStruct->PLL.PLLP) ||
 80016bc:	68fb      	ldr	r3, [r7, #12]
 80016be:	f403 3240 	and.w	r2, r3, #196608	; 0x30000
 80016c2:	687b      	ldr	r3, [r7, #4]
 80016c4:	6a9b      	ldr	r3, [r3, #40]	; 0x28
           (READ_BIT(pll_config, RCC_PLLCFGR_PLLN) != RCC_OscInitStruct->PLL.PLLN) ||
 80016c6:	429a      	cmp	r2, r3
 80016c8:	d106      	bne.n	80016d8 <HAL_RCC_OscConfig+0x4c4>
           (READ_BIT(pll_config, RCC_PLLCFGR_PLLQ) != RCC_OscInitStruct->PLL.PLLQ))
 80016ca:	68fb      	ldr	r3, [r7, #12]
 80016cc:	f003 6270 	and.w	r2, r3, #251658240	; 0xf000000
 80016d0:	687b      	ldr	r3, [r7, #4]
 80016d2:	6adb      	ldr	r3, [r3, #44]	; 0x2c
           (READ_BIT(pll_config, RCC_PLLCFGR_PLLP) != RCC_OscInitStruct->PLL.PLLP) ||
 80016d4:	429a      	cmp	r2, r3
 80016d6:	d001      	beq.n	80016dc <HAL_RCC_OscConfig+0x4c8>
        {
          return HAL_ERROR;
 80016d8:	2301      	movs	r3, #1
 80016da:	e000      	b.n	80016de <HAL_RCC_OscConfig+0x4ca>
        }
      }
    }
  }
  return HAL_OK;
 80016dc:	2300      	movs	r3, #0
}
 80016de:	4618      	mov	r0, r3
 80016e0:	3718      	adds	r7, #24
 80016e2:	46bd      	mov	sp, r7
 80016e4:	bd80      	pop	{r7, pc}
 80016e6:	bf00      	nop
 80016e8:	40007000 	.word	0x40007000
 80016ec:	40023800 	.word	0x40023800
 80016f0:	42470060 	.word	0x42470060

080016f4 <HAL_RCC_ClockConfig>:
  *         HPRE[3:0] bits to ensure that HCLK not exceed the maximum allowed frequency
  *         (for more details refer to section above "Initialization/de-initialization functions")
  * @retval None
  */
HAL_StatusTypeDef HAL_RCC_ClockConfig(RCC_ClkInitTypeDef  *RCC_ClkInitStruct, uint32_t FLatency)
{
 80016f4:	b580      	push	{r7, lr}
 80016f6:	b084      	sub	sp, #16
 80016f8:	af00      	add	r7, sp, #0
 80016fa:	6078      	str	r0, [r7, #4]
 80016fc:	6039      	str	r1, [r7, #0]
  uint32_t tickstart;

  /* Check Null pointer */
  if(RCC_ClkInitStruct == NULL)
 80016fe:	687b      	ldr	r3, [r7, #4]
 8001700:	2b00      	cmp	r3, #0
 8001702:	d101      	bne.n	8001708 <HAL_RCC_ClockConfig+0x14>
  {
    return HAL_ERROR;
 8001704:	2301      	movs	r3, #1
 8001706:	e0cc      	b.n	80018a2 <HAL_RCC_ClockConfig+0x1ae>
  /* To correctly read data from FLASH memory, the number of wait states (LATENCY)
    must be correctly programmed according to the frequency of the CPU clock
    (HCLK) and the supply voltage of the device. */

  /* Increasing the number of wait states because of higher CPU frequency */
  if(FLatency > __HAL_FLASH_GET_LATENCY())
 8001708:	4b68      	ldr	r3, [pc, #416]	; (80018ac <HAL_RCC_ClockConfig+0x1b8>)
 800170a:	681b      	ldr	r3, [r3, #0]
 800170c:	f003 030f 	and.w	r3, r3, #15
 8001710:	683a      	ldr	r2, [r7, #0]
 8001712:	429a      	cmp	r2, r3
 8001714:	d90c      	bls.n	8001730 <HAL_RCC_ClockConfig+0x3c>
  {
    /* Program the new number of wait states to the LATENCY bits in the FLASH_ACR register */
    __HAL_FLASH_SET_LATENCY(FLatency);
 8001716:	4b65      	ldr	r3, [pc, #404]	; (80018ac <HAL_RCC_ClockConfig+0x1b8>)
 8001718:	683a      	ldr	r2, [r7, #0]
 800171a:	b2d2      	uxtb	r2, r2
 800171c:	701a      	strb	r2, [r3, #0]

    /* Check that the new number of wait states is taken into account to access the Flash
    memory by reading the FLASH_ACR register */
    if(__HAL_FLASH_GET_LATENCY() != FLatency)
 800171e:	4b63      	ldr	r3, [pc, #396]	; (80018ac <HAL_RCC_ClockConfig+0x1b8>)
 8001720:	681b      	ldr	r3, [r3, #0]
 8001722:	f003 030f 	and.w	r3, r3, #15
 8001726:	683a      	ldr	r2, [r7, #0]
 8001728:	429a      	cmp	r2, r3
 800172a:	d001      	beq.n	8001730 <HAL_RCC_ClockConfig+0x3c>
    {
      return HAL_ERROR;
 800172c:	2301      	movs	r3, #1
 800172e:	e0b8      	b.n	80018a2 <HAL_RCC_ClockConfig+0x1ae>
    }
  }

  /*-------------------------- HCLK Configuration --------------------------*/
  if(((RCC_ClkInitStruct->ClockType) & RCC_CLOCKTYPE_HCLK) == RCC_CLOCKTYPE_HCLK)
 8001730:	687b      	ldr	r3, [r7, #4]
 8001732:	681b      	ldr	r3, [r3, #0]
 8001734:	f003 0302 	and.w	r3, r3, #2
 8001738:	2b00      	cmp	r3, #0
 800173a:	d020      	beq.n	800177e <HAL_RCC_ClockConfig+0x8a>
  {
    /* Set the highest APBx dividers in order to ensure that we do not go through
       a non-spec phase whatever we decrease or increase HCLK. */
    if(((RCC_ClkInitStruct->ClockType) & RCC_CLOCKTYPE_PCLK1) == RCC_CLOCKTYPE_PCLK1)
 800173c:	687b      	ldr	r3, [r7, #4]
 800173e:	681b      	ldr	r3, [r3, #0]
 8001740:	f003 0304 	and.w	r3, r3, #4
 8001744:	2b00      	cmp	r3, #0
 8001746:	d005      	beq.n	8001754 <HAL_RCC_ClockConfig+0x60>
    {
      MODIFY_REG(RCC->CFGR, RCC_CFGR_PPRE1, RCC_HCLK_DIV16);
 8001748:	4b59      	ldr	r3, [pc, #356]	; (80018b0 <HAL_RCC_ClockConfig+0x1bc>)
 800174a:	689b      	ldr	r3, [r3, #8]
 800174c:	4a58      	ldr	r2, [pc, #352]	; (80018b0 <HAL_RCC_ClockConfig+0x1bc>)
 800174e:	f443 53e0 	orr.w	r3, r3, #7168	; 0x1c00
 8001752:	6093      	str	r3, [r2, #8]
    }

    if(((RCC_ClkInitStruct->ClockType) & RCC_CLOCKTYPE_PCLK2) == RCC_CLOCKTYPE_PCLK2)
 8001754:	687b      	ldr	r3, [r7, #4]
 8001756:	681b      	ldr	r3, [r3, #0]
 8001758:	f003 0308 	and.w	r3, r3, #8
 800175c:	2b00      	cmp	r3, #0
 800175e:	d005      	beq.n	800176c <HAL_RCC_ClockConfig+0x78>
    {
      MODIFY_REG(RCC->CFGR, RCC_CFGR_PPRE2, (RCC_HCLK_DIV16 << 3));
 8001760:	4b53      	ldr	r3, [pc, #332]	; (80018b0 <HAL_RCC_ClockConfig+0x1bc>)
 8001762:	689b      	ldr	r3, [r3, #8]
 8001764:	4a52      	ldr	r2, [pc, #328]	; (80018b0 <HAL_RCC_ClockConfig+0x1bc>)
 8001766:	f443 4360 	orr.w	r3, r3, #57344	; 0xe000
 800176a:	6093      	str	r3, [r2, #8]
    }

    assert_param(IS_RCC_HCLK(RCC_ClkInitStruct->AHBCLKDivider));
    MODIFY_REG(RCC->CFGR, RCC_CFGR_HPRE, RCC_ClkInitStruct->AHBCLKDivider);
 800176c:	4b50      	ldr	r3, [pc, #320]	; (80018b0 <HAL_RCC_ClockConfig+0x1bc>)
 800176e:	689b      	ldr	r3, [r3, #8]
 8001770:	f023 02f0 	bic.w	r2, r3, #240	; 0xf0
 8001774:	687b      	ldr	r3, [r7, #4]
 8001776:	689b      	ldr	r3, [r3, #8]
 8001778:	494d      	ldr	r1, [pc, #308]	; (80018b0 <HAL_RCC_ClockConfig+0x1bc>)
 800177a:	4313      	orrs	r3, r2
 800177c:	608b      	str	r3, [r1, #8]
  }

  /*------------------------- SYSCLK Configuration ---------------------------*/
  if(((RCC_ClkInitStruct->ClockType) & RCC_CLOCKTYPE_SYSCLK) == RCC_CLOCKTYPE_SYSCLK)
 800177e:	687b      	ldr	r3, [r7, #4]
 8001780:	681b      	ldr	r3, [r3, #0]
 8001782:	f003 0301 	and.w	r3, r3, #1
 8001786:	2b00      	cmp	r3, #0
 8001788:	d044      	beq.n	8001814 <HAL_RCC_ClockConfig+0x120>
  {
    assert_param(IS_RCC_SYSCLKSOURCE(RCC_ClkInitStruct->SYSCLKSource));

    /* HSE is selected as System Clock Source */
    if(RCC_ClkInitStruct->SYSCLKSource == RCC_SYSCLKSOURCE_HSE)
 800178a:	687b      	ldr	r3, [r7, #4]
 800178c:	685b      	ldr	r3, [r3, #4]
 800178e:	2b01      	cmp	r3, #1
 8001790:	d107      	bne.n	80017a2 <HAL_RCC_ClockConfig+0xae>
    {
      /* Check the HSE ready flag */
      if(__HAL_RCC_GET_FLAG(RCC_FLAG_HSERDY) == RESET)
 8001792:	4b47      	ldr	r3, [pc, #284]	; (80018b0 <HAL_RCC_ClockConfig+0x1bc>)
 8001794:	681b      	ldr	r3, [r3, #0]
 8001796:	f403 3300 	and.w	r3, r3, #131072	; 0x20000
 800179a:	2b00      	cmp	r3, #0
 800179c:	d119      	bne.n	80017d2 <HAL_RCC_ClockConfig+0xde>
      {
        return HAL_ERROR;
 800179e:	2301      	movs	r3, #1
 80017a0:	e07f      	b.n	80018a2 <HAL_RCC_ClockConfig+0x1ae>
      }
    }
    /* PLL is selected as System Clock Source */
    else if((RCC_ClkInitStruct->SYSCLKSource == RCC_SYSCLKSOURCE_PLLCLK)   ||
 80017a2:	687b      	ldr	r3, [r7, #4]
 80017a4:	685b      	ldr	r3, [r3, #4]
 80017a6:	2b02      	cmp	r3, #2
 80017a8:	d003      	beq.n	80017b2 <HAL_RCC_ClockConfig+0xbe>
            (RCC_ClkInitStruct->SYSCLKSource == RCC_SYSCLKSOURCE_PLLRCLK))
 80017aa:	687b      	ldr	r3, [r7, #4]
 80017ac:	685b      	ldr	r3, [r3, #4]
    else if((RCC_ClkInitStruct->SYSCLKSource == RCC_SYSCLKSOURCE_PLLCLK)   ||
 80017ae:	2b03      	cmp	r3, #3
 80017b0:	d107      	bne.n	80017c2 <HAL_RCC_ClockConfig+0xce>
    {
      /* Check the PLL ready flag */
      if(__HAL_RCC_GET_FLAG(RCC_FLAG_PLLRDY) == RESET)
 80017b2:	4b3f      	ldr	r3, [pc, #252]	; (80018b0 <HAL_RCC_ClockConfig+0x1bc>)
 80017b4:	681b      	ldr	r3, [r3, #0]
 80017b6:	f003 7300 	and.w	r3, r3, #33554432	; 0x2000000
 80017ba:	2b00      	cmp	r3, #0
 80017bc:	d109      	bne.n	80017d2 <HAL_RCC_ClockConfig+0xde>
      {
        return HAL_ERROR;
 80017be:	2301      	movs	r3, #1
 80017c0:	e06f      	b.n	80018a2 <HAL_RCC_ClockConfig+0x1ae>
    }
    /* HSI is selected as System Clock Source */
    else
    {
      /* Check the HSI ready flag */
      if(__HAL_RCC_GET_FLAG(RCC_FLAG_HSIRDY) == RESET)
 80017c2:	4b3b      	ldr	r3, [pc, #236]	; (80018b0 <HAL_RCC_ClockConfig+0x1bc>)
 80017c4:	681b      	ldr	r3, [r3, #0]
 80017c6:	f003 0302 	and.w	r3, r3, #2
 80017ca:	2b00      	cmp	r3, #0
 80017cc:	d101      	bne.n	80017d2 <HAL_RCC_ClockConfig+0xde>
      {
        return HAL_ERROR;
 80017ce:	2301      	movs	r3, #1
 80017d0:	e067      	b.n	80018a2 <HAL_RCC_ClockConfig+0x1ae>
      }
    }

    __HAL_RCC_SYSCLK_CONFIG(RCC_ClkInitStruct->SYSCLKSource);
 80017d2:	4b37      	ldr	r3, [pc, #220]	; (80018b0 <HAL_RCC_ClockConfig+0x1bc>)
 80017d4:	689b      	ldr	r3, [r3, #8]
 80017d6:	f023 0203 	bic.w	r2, r3, #3
 80017da:	687b      	ldr	r3, [r7, #4]
 80017dc:	685b      	ldr	r3, [r3, #4]
 80017de:	4934      	ldr	r1, [pc, #208]	; (80018b0 <HAL_RCC_ClockConfig+0x1bc>)
 80017e0:	4313      	orrs	r3, r2
 80017e2:	608b      	str	r3, [r1, #8]

    /* Get Start Tick */
    tickstart = HAL_GetTick();
 80017e4:	f7ff fa22 	bl	8000c2c <HAL_GetTick>
 80017e8:	60f8      	str	r0, [r7, #12]

    while (__HAL_RCC_GET_SYSCLK_SOURCE() != (RCC_ClkInitStruct->SYSCLKSource << RCC_CFGR_SWS_Pos))
 80017ea:	e00a      	b.n	8001802 <HAL_RCC_ClockConfig+0x10e>
    {
      if ((HAL_GetTick() - tickstart) > CLOCKSWITCH_TIMEOUT_VALUE)
 80017ec:	f7ff fa1e 	bl	8000c2c <HAL_GetTick>
 80017f0:	4602      	mov	r2, r0
 80017f2:	68fb      	ldr	r3, [r7, #12]
 80017f4:	1ad3      	subs	r3, r2, r3
 80017f6:	f241 3288 	movw	r2, #5000	; 0x1388
 80017fa:	4293      	cmp	r3, r2
 80017fc:	d901      	bls.n	8001802 <HAL_RCC_ClockConfig+0x10e>
      {
        return HAL_TIMEOUT;
 80017fe:	2303      	movs	r3, #3
 8001800:	e04f      	b.n	80018a2 <HAL_RCC_ClockConfig+0x1ae>
    while (__HAL_RCC_GET_SYSCLK_SOURCE() != (RCC_ClkInitStruct->SYSCLKSource << RCC_CFGR_SWS_Pos))
 8001802:	4b2b      	ldr	r3, [pc, #172]	; (80018b0 <HAL_RCC_ClockConfig+0x1bc>)
 8001804:	689b      	ldr	r3, [r3, #8]
 8001806:	f003 020c 	and.w	r2, r3, #12
 800180a:	687b      	ldr	r3, [r7, #4]
 800180c:	685b      	ldr	r3, [r3, #4]
 800180e:	009b      	lsls	r3, r3, #2
 8001810:	429a      	cmp	r2, r3
 8001812:	d1eb      	bne.n	80017ec <HAL_RCC_ClockConfig+0xf8>
      }
    }
  }

  /* Decreasing the number of wait states because of lower CPU frequency */
  if(FLatency < __HAL_FLASH_GET_LATENCY())
 8001814:	4b25      	ldr	r3, [pc, #148]	; (80018ac <HAL_RCC_ClockConfig+0x1b8>)
 8001816:	681b      	ldr	r3, [r3, #0]
 8001818:	f003 030f 	and.w	r3, r3, #15
 800181c:	683a      	ldr	r2, [r7, #0]
 800181e:	429a      	cmp	r2, r3
 8001820:	d20c      	bcs.n	800183c <HAL_RCC_ClockConfig+0x148>
  {
     /* Program the new number of wait states to the LATENCY bits in the FLASH_ACR register */
    __HAL_FLASH_SET_LATENCY(FLatency);
 8001822:	4b22      	ldr	r3, [pc, #136]	; (80018ac <HAL_RCC_ClockConfig+0x1b8>)
 8001824:	683a      	ldr	r2, [r7, #0]
 8001826:	b2d2      	uxtb	r2, r2
 8001828:	701a      	strb	r2, [r3, #0]

    /* Check that the new number of wait states is taken into account to access the Flash
    memory by reading the FLASH_ACR register */
    if(__HAL_FLASH_GET_LATENCY() != FLatency)
 800182a:	4b20      	ldr	r3, [pc, #128]	; (80018ac <HAL_RCC_ClockConfig+0x1b8>)
 800182c:	681b      	ldr	r3, [r3, #0]
 800182e:	f003 030f 	and.w	r3, r3, #15
 8001832:	683a      	ldr	r2, [r7, #0]
 8001834:	429a      	cmp	r2, r3
 8001836:	d001      	beq.n	800183c <HAL_RCC_ClockConfig+0x148>
    {
      return HAL_ERROR;
 8001838:	2301      	movs	r3, #1
 800183a:	e032      	b.n	80018a2 <HAL_RCC_ClockConfig+0x1ae>
    }
  }

  /*-------------------------- PCLK1 Configuration ---------------------------*/
  if(((RCC_ClkInitStruct->ClockType) & RCC_CLOCKTYPE_PCLK1) == RCC_CLOCKTYPE_PCLK1)
 800183c:	687b      	ldr	r3, [r7, #4]
 800183e:	681b      	ldr	r3, [r3, #0]
 8001840:	f003 0304 	and.w	r3, r3, #4
 8001844:	2b00      	cmp	r3, #0
 8001846:	d008      	beq.n	800185a <HAL_RCC_ClockConfig+0x166>
  {
    assert_param(IS_RCC_PCLK(RCC_ClkInitStruct->APB1CLKDivider));
    MODIFY_REG(RCC->CFGR, RCC_CFGR_PPRE1, RCC_ClkInitStruct->APB1CLKDivider);
 8001848:	4b19      	ldr	r3, [pc, #100]	; (80018b0 <HAL_RCC_ClockConfig+0x1bc>)
 800184a:	689b      	ldr	r3, [r3, #8]
 800184c:	f423 52e0 	bic.w	r2, r3, #7168	; 0x1c00
 8001850:	687b      	ldr	r3, [r7, #4]
 8001852:	68db      	ldr	r3, [r3, #12]
 8001854:	4916      	ldr	r1, [pc, #88]	; (80018b0 <HAL_RCC_ClockConfig+0x1bc>)
 8001856:	4313      	orrs	r3, r2
 8001858:	608b      	str	r3, [r1, #8]
  }

  /*-------------------------- PCLK2 Configuration ---------------------------*/
  if(((RCC_ClkInitStruct->ClockType) & RCC_CLOCKTYPE_PCLK2) == RCC_CLOCKTYPE_PCLK2)
 800185a:	687b      	ldr	r3, [r7, #4]
 800185c:	681b      	ldr	r3, [r3, #0]
 800185e:	f003 0308 	and.w	r3, r3, #8
 8001862:	2b00      	cmp	r3, #0
 8001864:	d009      	beq.n	800187a <HAL_RCC_ClockConfig+0x186>
  {
    assert_param(IS_RCC_PCLK(RCC_ClkInitStruct->APB2CLKDivider));
    MODIFY_REG(RCC->CFGR, RCC_CFGR_PPRE2, ((RCC_ClkInitStruct->APB2CLKDivider) << 3U));
 8001866:	4b12      	ldr	r3, [pc, #72]	; (80018b0 <HAL_RCC_ClockConfig+0x1bc>)
 8001868:	689b      	ldr	r3, [r3, #8]
 800186a:	f423 4260 	bic.w	r2, r3, #57344	; 0xe000
 800186e:	687b      	ldr	r3, [r7, #4]
 8001870:	691b      	ldr	r3, [r3, #16]
 8001872:	00db      	lsls	r3, r3, #3
 8001874:	490e      	ldr	r1, [pc, #56]	; (80018b0 <HAL_RCC_ClockConfig+0x1bc>)
 8001876:	4313      	orrs	r3, r2
 8001878:	608b      	str	r3, [r1, #8]
  }

  /* Update the SystemCoreClock global variable */
  SystemCoreClock = HAL_RCC_GetSysClockFreq() >> AHBPrescTable[(RCC->CFGR & RCC_CFGR_HPRE)>> RCC_CFGR_HPRE_Pos];
 800187a:	f000 f821 	bl	80018c0 <HAL_RCC_GetSysClockFreq>
 800187e:	4601      	mov	r1, r0
 8001880:	4b0b      	ldr	r3, [pc, #44]	; (80018b0 <HAL_RCC_ClockConfig+0x1bc>)
 8001882:	689b      	ldr	r3, [r3, #8]
 8001884:	091b      	lsrs	r3, r3, #4
 8001886:	f003 030f 	and.w	r3, r3, #15
 800188a:	4a0a      	ldr	r2, [pc, #40]	; (80018b4 <HAL_RCC_ClockConfig+0x1c0>)
 800188c:	5cd3      	ldrb	r3, [r2, r3]
 800188e:	fa21 f303 	lsr.w	r3, r1, r3
 8001892:	4a09      	ldr	r2, [pc, #36]	; (80018b8 <HAL_RCC_ClockConfig+0x1c4>)
 8001894:	6013      	str	r3, [r2, #0]

  /* Configure the source of time base considering new system clocks settings */
  HAL_InitTick (uwTickPrio);
 8001896:	4b09      	ldr	r3, [pc, #36]	; (80018bc <HAL_RCC_ClockConfig+0x1c8>)
 8001898:	681b      	ldr	r3, [r3, #0]
 800189a:	4618      	mov	r0, r3
 800189c:	f7ff f982 	bl	8000ba4 <HAL_InitTick>

  return HAL_OK;
 80018a0:	2300      	movs	r3, #0
}
 80018a2:	4618      	mov	r0, r3
 80018a4:	3710      	adds	r7, #16
 80018a6:	46bd      	mov	sp, r7
 80018a8:	bd80      	pop	{r7, pc}
 80018aa:	bf00      	nop
 80018ac:	40023c00 	.word	0x40023c00
 80018b0:	40023800 	.word	0x40023800
 80018b4:	0800323c 	.word	0x0800323c
 80018b8:	20000000 	.word	0x20000000
 80018bc:	20000004 	.word	0x20000004

080018c0 <HAL_RCC_GetSysClockFreq>:
  *
  *
  * @retval SYSCLK frequency
  */
__weak uint32_t HAL_RCC_GetSysClockFreq(void)
{
 80018c0:	b5f0      	push	{r4, r5, r6, r7, lr}
 80018c2:	b085      	sub	sp, #20
 80018c4:	af00      	add	r7, sp, #0
  uint32_t pllm = 0U, pllvco = 0U, pllp = 0U;
 80018c6:	2300      	movs	r3, #0
 80018c8:	607b      	str	r3, [r7, #4]
 80018ca:	2300      	movs	r3, #0
 80018cc:	60fb      	str	r3, [r7, #12]
 80018ce:	2300      	movs	r3, #0
 80018d0:	603b      	str	r3, [r7, #0]
  uint32_t sysclockfreq = 0U;
 80018d2:	2300      	movs	r3, #0
 80018d4:	60bb      	str	r3, [r7, #8]

  /* Get SYSCLK source -------------------------------------------------------*/
  switch (RCC->CFGR & RCC_CFGR_SWS)
 80018d6:	4b63      	ldr	r3, [pc, #396]	; (8001a64 <HAL_RCC_GetSysClockFreq+0x1a4>)
 80018d8:	689b      	ldr	r3, [r3, #8]
 80018da:	f003 030c 	and.w	r3, r3, #12
 80018de:	2b04      	cmp	r3, #4
 80018e0:	d007      	beq.n	80018f2 <HAL_RCC_GetSysClockFreq+0x32>
 80018e2:	2b08      	cmp	r3, #8
 80018e4:	d008      	beq.n	80018f8 <HAL_RCC_GetSysClockFreq+0x38>
 80018e6:	2b00      	cmp	r3, #0
 80018e8:	f040 80b4 	bne.w	8001a54 <HAL_RCC_GetSysClockFreq+0x194>
  {
    case RCC_CFGR_SWS_HSI:  /* HSI used as system clock source */
    {
      sysclockfreq = HSI_VALUE;
 80018ec:	4b5e      	ldr	r3, [pc, #376]	; (8001a68 <HAL_RCC_GetSysClockFreq+0x1a8>)
 80018ee:	60bb      	str	r3, [r7, #8]
       break;
 80018f0:	e0b3      	b.n	8001a5a <HAL_RCC_GetSysClockFreq+0x19a>
    }
    case RCC_CFGR_SWS_HSE:  /* HSE used as system clock  source */
    {
      sysclockfreq = HSE_VALUE;
 80018f2:	4b5e      	ldr	r3, [pc, #376]	; (8001a6c <HAL_RCC_GetSysClockFreq+0x1ac>)
 80018f4:	60bb      	str	r3, [r7, #8]
      break;
 80018f6:	e0b0      	b.n	8001a5a <HAL_RCC_GetSysClockFreq+0x19a>
    }
    case RCC_CFGR_SWS_PLL:  /* PLL used as system clock  source */
    {
      /* PLL_VCO = (HSE_VALUE or HSI_VALUE / PLLM) * PLLN
      SYSCLK = PLL_VCO / PLLP */
      pllm = RCC->PLLCFGR & RCC_PLLCFGR_PLLM;
 80018f8:	4b5a      	ldr	r3, [pc, #360]	; (8001a64 <HAL_RCC_GetSysClockFreq+0x1a4>)
 80018fa:	685b      	ldr	r3, [r3, #4]
 80018fc:	f003 033f 	and.w	r3, r3, #63	; 0x3f
 8001900:	607b      	str	r3, [r7, #4]
      if(__HAL_RCC_GET_PLL_OSCSOURCE() != RCC_PLLSOURCE_HSI)
 8001902:	4b58      	ldr	r3, [pc, #352]	; (8001a64 <HAL_RCC_GetSysClockFreq+0x1a4>)
 8001904:	685b      	ldr	r3, [r3, #4]
 8001906:	f403 0380 	and.w	r3, r3, #4194304	; 0x400000
 800190a:	2b00      	cmp	r3, #0
 800190c:	d04a      	beq.n	80019a4 <HAL_RCC_GetSysClockFreq+0xe4>
      {
        /* HSE used as PLL clock source */
        pllvco = (uint32_t) ((((uint64_t) HSE_VALUE * ((uint64_t) ((RCC->PLLCFGR & RCC_PLLCFGR_PLLN) >> RCC_PLLCFGR_PLLN_Pos)))) / (uint64_t)pllm);
 800190e:	4b55      	ldr	r3, [pc, #340]	; (8001a64 <HAL_RCC_GetSysClockFreq+0x1a4>)
 8001910:	685b      	ldr	r3, [r3, #4]
 8001912:	099b      	lsrs	r3, r3, #6
 8001914:	f04f 0400 	mov.w	r4, #0
 8001918:	f240 11ff 	movw	r1, #511	; 0x1ff
 800191c:	f04f 0200 	mov.w	r2, #0
 8001920:	ea03 0501 	and.w	r5, r3, r1
 8001924:	ea04 0602 	and.w	r6, r4, r2
 8001928:	4629      	mov	r1, r5
 800192a:	4632      	mov	r2, r6
 800192c:	f04f 0300 	mov.w	r3, #0
 8001930:	f04f 0400 	mov.w	r4, #0
 8001934:	0154      	lsls	r4, r2, #5
 8001936:	ea44 64d1 	orr.w	r4, r4, r1, lsr #27
 800193a:	014b      	lsls	r3, r1, #5
 800193c:	4619      	mov	r1, r3
 800193e:	4622      	mov	r2, r4
 8001940:	1b49      	subs	r1, r1, r5
 8001942:	eb62 0206 	sbc.w	r2, r2, r6
 8001946:	f04f 0300 	mov.w	r3, #0
 800194a:	f04f 0400 	mov.w	r4, #0
 800194e:	0194      	lsls	r4, r2, #6
 8001950:	ea44 6491 	orr.w	r4, r4, r1, lsr #26
 8001954:	018b      	lsls	r3, r1, #6
 8001956:	1a5b      	subs	r3, r3, r1
 8001958:	eb64 0402 	sbc.w	r4, r4, r2
 800195c:	f04f 0100 	mov.w	r1, #0
 8001960:	f04f 0200 	mov.w	r2, #0
 8001964:	00e2      	lsls	r2, r4, #3
 8001966:	ea42 7253 	orr.w	r2, r2, r3, lsr #29
 800196a:	00d9      	lsls	r1, r3, #3
 800196c:	460b      	mov	r3, r1
 800196e:	4614      	mov	r4, r2
 8001970:	195b      	adds	r3, r3, r5
 8001972:	eb44 0406 	adc.w	r4, r4, r6
 8001976:	f04f 0100 	mov.w	r1, #0
 800197a:	f04f 0200 	mov.w	r2, #0
 800197e:	0262      	lsls	r2, r4, #9
 8001980:	ea42 52d3 	orr.w	r2, r2, r3, lsr #23
 8001984:	0259      	lsls	r1, r3, #9
 8001986:	460b      	mov	r3, r1
 8001988:	4614      	mov	r4, r2
 800198a:	4618      	mov	r0, r3
 800198c:	4621      	mov	r1, r4
 800198e:	687b      	ldr	r3, [r7, #4]
 8001990:	f04f 0400 	mov.w	r4, #0
 8001994:	461a      	mov	r2, r3
 8001996:	4623      	mov	r3, r4
 8001998:	f7fe fc16 	bl	80001c8 <__aeabi_uldivmod>
 800199c:	4603      	mov	r3, r0
 800199e:	460c      	mov	r4, r1
 80019a0:	60fb      	str	r3, [r7, #12]
 80019a2:	e049      	b.n	8001a38 <HAL_RCC_GetSysClockFreq+0x178>
      }
      else
      {
        /* HSI used as PLL clock source */
        pllvco = (uint32_t) ((((uint64_t) HSI_VALUE * ((uint64_t) ((RCC->PLLCFGR & RCC_PLLCFGR_PLLN) >> RCC_PLLCFGR_PLLN_Pos)))) / (uint64_t)pllm);
 80019a4:	4b2f      	ldr	r3, [pc, #188]	; (8001a64 <HAL_RCC_GetSysClockFreq+0x1a4>)
 80019a6:	685b      	ldr	r3, [r3, #4]
 80019a8:	099b      	lsrs	r3, r3, #6
 80019aa:	f04f 0400 	mov.w	r4, #0
 80019ae:	f240 11ff 	movw	r1, #511	; 0x1ff
 80019b2:	f04f 0200 	mov.w	r2, #0
 80019b6:	ea03 0501 	and.w	r5, r3, r1
 80019ba:	ea04 0602 	and.w	r6, r4, r2
 80019be:	4629      	mov	r1, r5
 80019c0:	4632      	mov	r2, r6
 80019c2:	f04f 0300 	mov.w	r3, #0
 80019c6:	f04f 0400 	mov.w	r4, #0
 80019ca:	0154      	lsls	r4, r2, #5
 80019cc:	ea44 64d1 	orr.w	r4, r4, r1, lsr #27
 80019d0:	014b      	lsls	r3, r1, #5
 80019d2:	4619      	mov	r1, r3
 80019d4:	4622      	mov	r2, r4
 80019d6:	1b49      	subs	r1, r1, r5
 80019d8:	eb62 0206 	sbc.w	r2, r2, r6
 80019dc:	f04f 0300 	mov.w	r3, #0
 80019e0:	f04f 0400 	mov.w	r4, #0
 80019e4:	0194      	lsls	r4, r2, #6
 80019e6:	ea44 6491 	orr.w	r4, r4, r1, lsr #26
 80019ea:	018b      	lsls	r3, r1, #6
 80019ec:	1a5b      	subs	r3, r3, r1
 80019ee:	eb64 0402 	sbc.w	r4, r4, r2
 80019f2:	f04f 0100 	mov.w	r1, #0
 80019f6:	f04f 0200 	mov.w	r2, #0
 80019fa:	00e2      	lsls	r2, r4, #3
 80019fc:	ea42 7253 	orr.w	r2, r2, r3, lsr #29
 8001a00:	00d9      	lsls	r1, r3, #3
 8001a02:	460b      	mov	r3, r1
 8001a04:	4614      	mov	r4, r2
 8001a06:	195b      	adds	r3, r3, r5
 8001a08:	eb44 0406 	adc.w	r4, r4, r6
 8001a0c:	f04f 0100 	mov.w	r1, #0
 8001a10:	f04f 0200 	mov.w	r2, #0
 8001a14:	02a2      	lsls	r2, r4, #10
 8001a16:	ea42 5293 	orr.w	r2, r2, r3, lsr #22
 8001a1a:	0299      	lsls	r1, r3, #10
 8001a1c:	460b      	mov	r3, r1
 8001a1e:	4614      	mov	r4, r2
 8001a20:	4618      	mov	r0, r3
 8001a22:	4621      	mov	r1, r4
 8001a24:	687b      	ldr	r3, [r7, #4]
 8001a26:	f04f 0400 	mov.w	r4, #0
 8001a2a:	461a      	mov	r2, r3
 8001a2c:	4623      	mov	r3, r4
 8001a2e:	f7fe fbcb 	bl	80001c8 <__aeabi_uldivmod>
 8001a32:	4603      	mov	r3, r0
 8001a34:	460c      	mov	r4, r1
 8001a36:	60fb      	str	r3, [r7, #12]
      }
      pllp = ((((RCC->PLLCFGR & RCC_PLLCFGR_PLLP) >> RCC_PLLCFGR_PLLP_Pos) + 1U) *2U);
 8001a38:	4b0a      	ldr	r3, [pc, #40]	; (8001a64 <HAL_RCC_GetSysClockFreq+0x1a4>)
 8001a3a:	685b      	ldr	r3, [r3, #4]
 8001a3c:	0c1b      	lsrs	r3, r3, #16
 8001a3e:	f003 0303 	and.w	r3, r3, #3
 8001a42:	3301      	adds	r3, #1
 8001a44:	005b      	lsls	r3, r3, #1
 8001a46:	603b      	str	r3, [r7, #0]

      sysclockfreq = pllvco/pllp;
 8001a48:	68fa      	ldr	r2, [r7, #12]
 8001a4a:	683b      	ldr	r3, [r7, #0]
 8001a4c:	fbb2 f3f3 	udiv	r3, r2, r3
 8001a50:	60bb      	str	r3, [r7, #8]
      break;
 8001a52:	e002      	b.n	8001a5a <HAL_RCC_GetSysClockFreq+0x19a>
    }
    default:
    {
      sysclockfreq = HSI_VALUE;
 8001a54:	4b04      	ldr	r3, [pc, #16]	; (8001a68 <HAL_RCC_GetSysClockFreq+0x1a8>)
 8001a56:	60bb      	str	r3, [r7, #8]
      break;
 8001a58:	bf00      	nop
    }
  }
  return sysclockfreq;
 8001a5a:	68bb      	ldr	r3, [r7, #8]
}
 8001a5c:	4618      	mov	r0, r3
 8001a5e:	3714      	adds	r7, #20
 8001a60:	46bd      	mov	sp, r7
 8001a62:	bdf0      	pop	{r4, r5, r6, r7, pc}
 8001a64:	40023800 	.word	0x40023800
 8001a68:	00f42400 	.word	0x00f42400
 8001a6c:	007a1200 	.word	0x007a1200

08001a70 <HAL_RCC_GetHCLKFreq>:
  * @note   The SystemCoreClock CMSIS variable is used to store System Clock Frequency
  *         and updated within this function
  * @retval HCLK frequency
  */
uint32_t HAL_RCC_GetHCLKFreq(void)
{
 8001a70:	b480      	push	{r7}
 8001a72:	af00      	add	r7, sp, #0
  return SystemCoreClock;
 8001a74:	4b03      	ldr	r3, [pc, #12]	; (8001a84 <HAL_RCC_GetHCLKFreq+0x14>)
 8001a76:	681b      	ldr	r3, [r3, #0]
}
 8001a78:	4618      	mov	r0, r3
 8001a7a:	46bd      	mov	sp, r7
 8001a7c:	f85d 7b04 	ldr.w	r7, [sp], #4
 8001a80:	4770      	bx	lr
 8001a82:	bf00      	nop
 8001a84:	20000000 	.word	0x20000000

08001a88 <HAL_RCC_GetPCLK1Freq>:
  * @note   Each time PCLK1 changes, this function must be called to update the
  *         right PCLK1 value. Otherwise, any configuration based on this function will be incorrect.
  * @retval PCLK1 frequency
  */
uint32_t HAL_RCC_GetPCLK1Freq(void)
{
 8001a88:	b580      	push	{r7, lr}
 8001a8a:	af00      	add	r7, sp, #0
  /* Get HCLK source and Compute PCLK1 frequency ---------------------------*/
  return (HAL_RCC_GetHCLKFreq() >> APBPrescTable[(RCC->CFGR & RCC_CFGR_PPRE1)>> RCC_CFGR_PPRE1_Pos]);
 8001a8c:	f7ff fff0 	bl	8001a70 <HAL_RCC_GetHCLKFreq>
 8001a90:	4601      	mov	r1, r0
 8001a92:	4b05      	ldr	r3, [pc, #20]	; (8001aa8 <HAL_RCC_GetPCLK1Freq+0x20>)
 8001a94:	689b      	ldr	r3, [r3, #8]
 8001a96:	0a9b      	lsrs	r3, r3, #10
 8001a98:	f003 0307 	and.w	r3, r3, #7
 8001a9c:	4a03      	ldr	r2, [pc, #12]	; (8001aac <HAL_RCC_GetPCLK1Freq+0x24>)
 8001a9e:	5cd3      	ldrb	r3, [r2, r3]
 8001aa0:	fa21 f303 	lsr.w	r3, r1, r3
}
 8001aa4:	4618      	mov	r0, r3
 8001aa6:	bd80      	pop	{r7, pc}
 8001aa8:	40023800 	.word	0x40023800
 8001aac:	0800324c 	.word	0x0800324c

08001ab0 <HAL_RCC_GetPCLK2Freq>:
  * @note   Each time PCLK2 changes, this function must be called to update the
  *         right PCLK2 value. Otherwise, any configuration based on this function will be incorrect.
  * @retval PCLK2 frequency
  */
uint32_t HAL_RCC_GetPCLK2Freq(void)
{
 8001ab0:	b580      	push	{r7, lr}
 8001ab2:	af00      	add	r7, sp, #0
  /* Get HCLK source and Compute PCLK2 frequency ---------------------------*/
  return (HAL_RCC_GetHCLKFreq()>> APBPrescTable[(RCC->CFGR & RCC_CFGR_PPRE2)>> RCC_CFGR_PPRE2_Pos]);
 8001ab4:	f7ff ffdc 	bl	8001a70 <HAL_RCC_GetHCLKFreq>
 8001ab8:	4601      	mov	r1, r0
 8001aba:	4b05      	ldr	r3, [pc, #20]	; (8001ad0 <HAL_RCC_GetPCLK2Freq+0x20>)
 8001abc:	689b      	ldr	r3, [r3, #8]
 8001abe:	0b5b      	lsrs	r3, r3, #13
 8001ac0:	f003 0307 	and.w	r3, r3, #7
 8001ac4:	4a03      	ldr	r2, [pc, #12]	; (8001ad4 <HAL_RCC_GetPCLK2Freq+0x24>)
 8001ac6:	5cd3      	ldrb	r3, [r2, r3]
 8001ac8:	fa21 f303 	lsr.w	r3, r1, r3
}
 8001acc:	4618      	mov	r0, r3
 8001ace:	bd80      	pop	{r7, pc}
 8001ad0:	40023800 	.word	0x40023800
 8001ad4:	0800324c 	.word	0x0800324c

08001ad8 <HAL_TIM_PWM_Init>:
  *         Ex: call @ref HAL_TIM_PWM_DeInit() before HAL_TIM_PWM_Init()
  * @param  htim TIM PWM handle
  * @retval HAL status
  */
HAL_StatusTypeDef HAL_TIM_PWM_Init(TIM_HandleTypeDef *htim)
{
 8001ad8:	b580      	push	{r7, lr}
 8001ada:	b082      	sub	sp, #8
 8001adc:	af00      	add	r7, sp, #0
 8001ade:	6078      	str	r0, [r7, #4]
  /* Check the TIM handle allocation */
  if (htim == NULL)
 8001ae0:	687b      	ldr	r3, [r7, #4]
 8001ae2:	2b00      	cmp	r3, #0
 8001ae4:	d101      	bne.n	8001aea <HAL_TIM_PWM_Init+0x12>
  {
    return HAL_ERROR;
 8001ae6:	2301      	movs	r3, #1
 8001ae8:	e01d      	b.n	8001b26 <HAL_TIM_PWM_Init+0x4e>
  assert_param(IS_TIM_INSTANCE(htim->Instance));
  assert_param(IS_TIM_COUNTER_MODE(htim->Init.CounterMode));
  assert_param(IS_TIM_CLOCKDIVISION_DIV(htim->Init.ClockDivision));
  assert_param(IS_TIM_AUTORELOAD_PRELOAD(htim->Init.AutoReloadPreload));

  if (htim->State == HAL_TIM_STATE_RESET)
 8001aea:	687b      	ldr	r3, [r7, #4]
 8001aec:	f893 303d 	ldrb.w	r3, [r3, #61]	; 0x3d
 8001af0:	b2db      	uxtb	r3, r3
 8001af2:	2b00      	cmp	r3, #0
 8001af4:	d106      	bne.n	8001b04 <HAL_TIM_PWM_Init+0x2c>
  {
    /* Allocate lock resource and initialize it */
    htim->Lock = HAL_UNLOCKED;
 8001af6:	687b      	ldr	r3, [r7, #4]
 8001af8:	2200      	movs	r2, #0
 8001afa:	f883 203c 	strb.w	r2, [r3, #60]	; 0x3c
    }
    /* Init the low level hardware : GPIO, CLOCK, NVIC */
    htim->PWM_MspInitCallback(htim);
#else
    /* Init the low level hardware : GPIO, CLOCK, NVIC and DMA */
    HAL_TIM_PWM_MspInit(htim);
 8001afe:	6878      	ldr	r0, [r7, #4]
 8001b00:	f7fe fedc 	bl	80008bc <HAL_TIM_PWM_MspInit>
#endif /* USE_HAL_TIM_REGISTER_CALLBACKS */
  }

  /* Set the TIM state */
  htim->State = HAL_TIM_STATE_BUSY;
 8001b04:	687b      	ldr	r3, [r7, #4]
 8001b06:	2202      	movs	r2, #2
 8001b08:	f883 203d 	strb.w	r2, [r3, #61]	; 0x3d

  /* Init the base time for the PWM */
  TIM_Base_SetConfig(htim->Instance, &htim->Init);
 8001b0c:	687b      	ldr	r3, [r7, #4]
 8001b0e:	681a      	ldr	r2, [r3, #0]
 8001b10:	687b      	ldr	r3, [r7, #4]
 8001b12:	3304      	adds	r3, #4
 8001b14:	4619      	mov	r1, r3
 8001b16:	4610      	mov	r0, r2
 8001b18:	f000 fa48 	bl	8001fac <TIM_Base_SetConfig>

  /* Initialize the TIM state*/
  htim->State = HAL_TIM_STATE_READY;
 8001b1c:	687b      	ldr	r3, [r7, #4]
 8001b1e:	2201      	movs	r2, #1
 8001b20:	f883 203d 	strb.w	r2, [r3, #61]	; 0x3d

  return HAL_OK;
 8001b24:	2300      	movs	r3, #0
}
 8001b26:	4618      	mov	r0, r3
 8001b28:	3708      	adds	r7, #8
 8001b2a:	46bd      	mov	sp, r7
 8001b2c:	bd80      	pop	{r7, pc}
	...

08001b30 <HAL_TIM_PWM_Start>:
  *            @arg TIM_CHANNEL_3: TIM Channel 3 selected
  *            @arg TIM_CHANNEL_4: TIM Channel 4 selected
  * @retval HAL status
  */
HAL_StatusTypeDef HAL_TIM_PWM_Start(TIM_HandleTypeDef *htim, uint32_t Channel)
{
 8001b30:	b580      	push	{r7, lr}
 8001b32:	b084      	sub	sp, #16
 8001b34:	af00      	add	r7, sp, #0
 8001b36:	6078      	str	r0, [r7, #4]
 8001b38:	6039      	str	r1, [r7, #0]

  /* Check the parameters */
  assert_param(IS_TIM_CCX_INSTANCE(htim->Instance, Channel));

  /* Enable the Capture compare channel */
  TIM_CCxChannelCmd(htim->Instance, Channel, TIM_CCx_ENABLE);
 8001b3a:	687b      	ldr	r3, [r7, #4]
 8001b3c:	681b      	ldr	r3, [r3, #0]
 8001b3e:	2201      	movs	r2, #1
 8001b40:	6839      	ldr	r1, [r7, #0]
 8001b42:	4618      	mov	r0, r3
 8001b44:	f000 fc82 	bl	800244c <TIM_CCxChannelCmd>

  if (IS_TIM_BREAK_INSTANCE(htim->Instance) != RESET)
 8001b48:	687b      	ldr	r3, [r7, #4]
 8001b4a:	681b      	ldr	r3, [r3, #0]
 8001b4c:	4a15      	ldr	r2, [pc, #84]	; (8001ba4 <HAL_TIM_PWM_Start+0x74>)
 8001b4e:	4293      	cmp	r3, r2
 8001b50:	d004      	beq.n	8001b5c <HAL_TIM_PWM_Start+0x2c>
 8001b52:	687b      	ldr	r3, [r7, #4]
 8001b54:	681b      	ldr	r3, [r3, #0]
 8001b56:	4a14      	ldr	r2, [pc, #80]	; (8001ba8 <HAL_TIM_PWM_Start+0x78>)
 8001b58:	4293      	cmp	r3, r2
 8001b5a:	d101      	bne.n	8001b60 <HAL_TIM_PWM_Start+0x30>
 8001b5c:	2301      	movs	r3, #1
 8001b5e:	e000      	b.n	8001b62 <HAL_TIM_PWM_Start+0x32>
 8001b60:	2300      	movs	r3, #0
 8001b62:	2b00      	cmp	r3, #0
 8001b64:	d007      	beq.n	8001b76 <HAL_TIM_PWM_Start+0x46>
  {
    /* Enable the main output */
    __HAL_TIM_MOE_ENABLE(htim);
 8001b66:	687b      	ldr	r3, [r7, #4]
 8001b68:	681b      	ldr	r3, [r3, #0]
 8001b6a:	6c5a      	ldr	r2, [r3, #68]	; 0x44
 8001b6c:	687b      	ldr	r3, [r7, #4]
 8001b6e:	681b      	ldr	r3, [r3, #0]
 8001b70:	f442 4200 	orr.w	r2, r2, #32768	; 0x8000
 8001b74:	645a      	str	r2, [r3, #68]	; 0x44
  }

  /* Enable the Peripheral, except in trigger mode where enable is automatically done with trigger */
  tmpsmcr = htim->Instance->SMCR & TIM_SMCR_SMS;
 8001b76:	687b      	ldr	r3, [r7, #4]
 8001b78:	681b      	ldr	r3, [r3, #0]
 8001b7a:	689b      	ldr	r3, [r3, #8]
 8001b7c:	f003 0307 	and.w	r3, r3, #7
 8001b80:	60fb      	str	r3, [r7, #12]
  if (!IS_TIM_SLAVEMODE_TRIGGER_ENABLED(tmpsmcr))
 8001b82:	68fb      	ldr	r3, [r7, #12]
 8001b84:	2b06      	cmp	r3, #6
 8001b86:	d007      	beq.n	8001b98 <HAL_TIM_PWM_Start+0x68>
  {
    __HAL_TIM_ENABLE(htim);
 8001b88:	687b      	ldr	r3, [r7, #4]
 8001b8a:	681b      	ldr	r3, [r3, #0]
 8001b8c:	681a      	ldr	r2, [r3, #0]
 8001b8e:	687b      	ldr	r3, [r7, #4]
 8001b90:	681b      	ldr	r3, [r3, #0]
 8001b92:	f042 0201 	orr.w	r2, r2, #1
 8001b96:	601a      	str	r2, [r3, #0]
  }

  /* Return function status */
  return HAL_OK;
 8001b98:	2300      	movs	r3, #0
}
 8001b9a:	4618      	mov	r0, r3
 8001b9c:	3710      	adds	r7, #16
 8001b9e:	46bd      	mov	sp, r7
 8001ba0:	bd80      	pop	{r7, pc}
 8001ba2:	bf00      	nop
 8001ba4:	40010000 	.word	0x40010000
 8001ba8:	40010400 	.word	0x40010400

08001bac <HAL_TIM_IRQHandler>:
  * @brief  This function handles TIM interrupts requests.
  * @param  htim TIM  handle
  * @retval None
  */
void HAL_TIM_IRQHandler(TIM_HandleTypeDef *htim)
{
 8001bac:	b580      	push	{r7, lr}
 8001bae:	b082      	sub	sp, #8
 8001bb0:	af00      	add	r7, sp, #0
 8001bb2:	6078      	str	r0, [r7, #4]
  /* Capture compare 1 event */
  if (__HAL_TIM_GET_FLAG(htim, TIM_FLAG_CC1) != RESET)
 8001bb4:	687b      	ldr	r3, [r7, #4]
 8001bb6:	681b      	ldr	r3, [r3, #0]
 8001bb8:	691b      	ldr	r3, [r3, #16]
 8001bba:	f003 0302 	and.w	r3, r3, #2
 8001bbe:	2b02      	cmp	r3, #2
 8001bc0:	d122      	bne.n	8001c08 <HAL_TIM_IRQHandler+0x5c>
  {
    if (__HAL_TIM_GET_IT_SOURCE(htim, TIM_IT_CC1) != RESET)
 8001bc2:	687b      	ldr	r3, [r7, #4]
 8001bc4:	681b      	ldr	r3, [r3, #0]
 8001bc6:	68db      	ldr	r3, [r3, #12]
 8001bc8:	f003 0302 	and.w	r3, r3, #2
 8001bcc:	2b02      	cmp	r3, #2
 8001bce:	d11b      	bne.n	8001c08 <HAL_TIM_IRQHandler+0x5c>
    {
      {
        __HAL_TIM_CLEAR_IT(htim, TIM_IT_CC1);
 8001bd0:	687b      	ldr	r3, [r7, #4]
 8001bd2:	681b      	ldr	r3, [r3, #0]
 8001bd4:	f06f 0202 	mvn.w	r2, #2
 8001bd8:	611a      	str	r2, [r3, #16]
        htim->Channel = HAL_TIM_ACTIVE_CHANNEL_1;
 8001bda:	687b      	ldr	r3, [r7, #4]
 8001bdc:	2201      	movs	r2, #1
 8001bde:	771a      	strb	r2, [r3, #28]

        /* Input capture event */
        if ((htim->Instance->CCMR1 & TIM_CCMR1_CC1S) != 0x00U)
 8001be0:	687b      	ldr	r3, [r7, #4]
 8001be2:	681b      	ldr	r3, [r3, #0]
 8001be4:	699b      	ldr	r3, [r3, #24]
 8001be6:	f003 0303 	and.w	r3, r3, #3
 8001bea:	2b00      	cmp	r3, #0
 8001bec:	d003      	beq.n	8001bf6 <HAL_TIM_IRQHandler+0x4a>
        {
#if (USE_HAL_TIM_REGISTER_CALLBACKS == 1)
          htim->IC_CaptureCallback(htim);
#else
          HAL_TIM_IC_CaptureCallback(htim);
 8001bee:	6878      	ldr	r0, [r7, #4]
 8001bf0:	f000 f9be 	bl	8001f70 <HAL_TIM_IC_CaptureCallback>
 8001bf4:	e005      	b.n	8001c02 <HAL_TIM_IRQHandler+0x56>
        {
#if (USE_HAL_TIM_REGISTER_CALLBACKS == 1)
          htim->OC_DelayElapsedCallback(htim);
          htim->PWM_PulseFinishedCallback(htim);
#else
          HAL_TIM_OC_DelayElapsedCallback(htim);
 8001bf6:	6878      	ldr	r0, [r7, #4]
 8001bf8:	f000 f9b0 	bl	8001f5c <HAL_TIM_OC_DelayElapsedCallback>
          HAL_TIM_PWM_PulseFinishedCallback(htim);
 8001bfc:	6878      	ldr	r0, [r7, #4]
 8001bfe:	f000 f9c1 	bl	8001f84 <HAL_TIM_PWM_PulseFinishedCallback>
#endif /* USE_HAL_TIM_REGISTER_CALLBACKS */
        }
        htim->Channel = HAL_TIM_ACTIVE_CHANNEL_CLEARED;
 8001c02:	687b      	ldr	r3, [r7, #4]
 8001c04:	2200      	movs	r2, #0
 8001c06:	771a      	strb	r2, [r3, #28]
      }
    }
  }
  /* Capture compare 2 event */
  if (__HAL_TIM_GET_FLAG(htim, TIM_FLAG_CC2) != RESET)
 8001c08:	687b      	ldr	r3, [r7, #4]
 8001c0a:	681b      	ldr	r3, [r3, #0]
 8001c0c:	691b      	ldr	r3, [r3, #16]
 8001c0e:	f003 0304 	and.w	r3, r3, #4
 8001c12:	2b04      	cmp	r3, #4
 8001c14:	d122      	bne.n	8001c5c <HAL_TIM_IRQHandler+0xb0>
  {
    if (__HAL_TIM_GET_IT_SOURCE(htim, TIM_IT_CC2) != RESET)
 8001c16:	687b      	ldr	r3, [r7, #4]
 8001c18:	681b      	ldr	r3, [r3, #0]
 8001c1a:	68db      	ldr	r3, [r3, #12]
 8001c1c:	f003 0304 	and.w	r3, r3, #4
 8001c20:	2b04      	cmp	r3, #4
 8001c22:	d11b      	bne.n	8001c5c <HAL_TIM_IRQHandler+0xb0>
    {
      __HAL_TIM_CLEAR_IT(htim, TIM_IT_CC2);
 8001c24:	687b      	ldr	r3, [r7, #4]
 8001c26:	681b      	ldr	r3, [r3, #0]
 8001c28:	f06f 0204 	mvn.w	r2, #4
 8001c2c:	611a      	str	r2, [r3, #16]
      htim->Channel = HAL_TIM_ACTIVE_CHANNEL_2;
 8001c2e:	687b      	ldr	r3, [r7, #4]
 8001c30:	2202      	movs	r2, #2
 8001c32:	771a      	strb	r2, [r3, #28]
      /* Input capture event */
      if ((htim->Instance->CCMR1 & TIM_CCMR1_CC2S) != 0x00U)
 8001c34:	687b      	ldr	r3, [r7, #4]
 8001c36:	681b      	ldr	r3, [r3, #0]
 8001c38:	699b      	ldr	r3, [r3, #24]
 8001c3a:	f403 7340 	and.w	r3, r3, #768	; 0x300
 8001c3e:	2b00      	cmp	r3, #0
 8001c40:	d003      	beq.n	8001c4a <HAL_TIM_IRQHandler+0x9e>
      {
#if (USE_HAL_TIM_REGISTER_CALLBACKS == 1)
        htim->IC_CaptureCallback(htim);
#else
        HAL_TIM_IC_CaptureCallback(htim);
 8001c42:	6878      	ldr	r0, [r7, #4]
 8001c44:	f000 f994 	bl	8001f70 <HAL_TIM_IC_CaptureCallback>
 8001c48:	e005      	b.n	8001c56 <HAL_TIM_IRQHandler+0xaa>
      {
#if (USE_HAL_TIM_REGISTER_CALLBACKS == 1)
        htim->OC_DelayElapsedCallback(htim);
        htim->PWM_PulseFinishedCallback(htim);
#else
        HAL_TIM_OC_DelayElapsedCallback(htim);
 8001c4a:	6878      	ldr	r0, [r7, #4]
 8001c4c:	f000 f986 	bl	8001f5c <HAL_TIM_OC_DelayElapsedCallback>
        HAL_TIM_PWM_PulseFinishedCallback(htim);
 8001c50:	6878      	ldr	r0, [r7, #4]
 8001c52:	f000 f997 	bl	8001f84 <HAL_TIM_PWM_PulseFinishedCallback>
#endif /* USE_HAL_TIM_REGISTER_CALLBACKS */
      }
      htim->Channel = HAL_TIM_ACTIVE_CHANNEL_CLEARED;
 8001c56:	687b      	ldr	r3, [r7, #4]
 8001c58:	2200      	movs	r2, #0
 8001c5a:	771a      	strb	r2, [r3, #28]
    }
  }
  /* Capture compare 3 event */
  if (__HAL_TIM_GET_FLAG(htim, TIM_FLAG_CC3) != RESET)
 8001c5c:	687b      	ldr	r3, [r7, #4]
 8001c5e:	681b      	ldr	r3, [r3, #0]
 8001c60:	691b      	ldr	r3, [r3, #16]
 8001c62:	f003 0308 	and.w	r3, r3, #8
 8001c66:	2b08      	cmp	r3, #8
 8001c68:	d122      	bne.n	8001cb0 <HAL_TIM_IRQHandler+0x104>
  {
    if (__HAL_TIM_GET_IT_SOURCE(htim, TIM_IT_CC3) != RESET)
 8001c6a:	687b      	ldr	r3, [r7, #4]
 8001c6c:	681b      	ldr	r3, [r3, #0]
 8001c6e:	68db      	ldr	r3, [r3, #12]
 8001c70:	f003 0308 	and.w	r3, r3, #8
 8001c74:	2b08      	cmp	r3, #8
 8001c76:	d11b      	bne.n	8001cb0 <HAL_TIM_IRQHandler+0x104>
    {
      __HAL_TIM_CLEAR_IT(htim, TIM_IT_CC3);
 8001c78:	687b      	ldr	r3, [r7, #4]
 8001c7a:	681b      	ldr	r3, [r3, #0]
 8001c7c:	f06f 0208 	mvn.w	r2, #8
 8001c80:	611a      	str	r2, [r3, #16]
      htim->Channel = HAL_TIM_ACTIVE_CHANNEL_3;
 8001c82:	687b      	ldr	r3, [r7, #4]
 8001c84:	2204      	movs	r2, #4
 8001c86:	771a      	strb	r2, [r3, #28]
      /* Input capture event */
      if ((htim->Instance->CCMR2 & TIM_CCMR2_CC3S) != 0x00U)
 8001c88:	687b      	ldr	r3, [r7, #4]
 8001c8a:	681b      	ldr	r3, [r3, #0]
 8001c8c:	69db      	ldr	r3, [r3, #28]
 8001c8e:	f003 0303 	and.w	r3, r3, #3
 8001c92:	2b00      	cmp	r3, #0
 8001c94:	d003      	beq.n	8001c9e <HAL_TIM_IRQHandler+0xf2>
      {
#if (USE_HAL_TIM_REGISTER_CALLBACKS == 1)
        htim->IC_CaptureCallback(htim);
#else
        HAL_TIM_IC_CaptureCallback(htim);
 8001c96:	6878      	ldr	r0, [r7, #4]
 8001c98:	f000 f96a 	bl	8001f70 <HAL_TIM_IC_CaptureCallback>
 8001c9c:	e005      	b.n	8001caa <HAL_TIM_IRQHandler+0xfe>
      {
#if (USE_HAL_TIM_REGISTER_CALLBACKS == 1)
        htim->OC_DelayElapsedCallback(htim);
        htim->PWM_PulseFinishedCallback(htim);
#else
        HAL_TIM_OC_DelayElapsedCallback(htim);
 8001c9e:	6878      	ldr	r0, [r7, #4]
 8001ca0:	f000 f95c 	bl	8001f5c <HAL_TIM_OC_DelayElapsedCallback>
        HAL_TIM_PWM_PulseFinishedCallback(htim);
 8001ca4:	6878      	ldr	r0, [r7, #4]
 8001ca6:	f000 f96d 	bl	8001f84 <HAL_TIM_PWM_PulseFinishedCallback>
#endif /* USE_HAL_TIM_REGISTER_CALLBACKS */
      }
      htim->Channel = HAL_TIM_ACTIVE_CHANNEL_CLEARED;
 8001caa:	687b      	ldr	r3, [r7, #4]
 8001cac:	2200      	movs	r2, #0
 8001cae:	771a      	strb	r2, [r3, #28]
    }
  }
  /* Capture compare 4 event */
  if (__HAL_TIM_GET_FLAG(htim, TIM_FLAG_CC4) != RESET)
 8001cb0:	687b      	ldr	r3, [r7, #4]
 8001cb2:	681b      	ldr	r3, [r3, #0]
 8001cb4:	691b      	ldr	r3, [r3, #16]
 8001cb6:	f003 0310 	and.w	r3, r3, #16
 8001cba:	2b10      	cmp	r3, #16
 8001cbc:	d122      	bne.n	8001d04 <HAL_TIM_IRQHandler+0x158>
  {
    if (__HAL_TIM_GET_IT_SOURCE(htim, TIM_IT_CC4) != RESET)
 8001cbe:	687b      	ldr	r3, [r7, #4]
 8001cc0:	681b      	ldr	r3, [r3, #0]
 8001cc2:	68db      	ldr	r3, [r3, #12]
 8001cc4:	f003 0310 	and.w	r3, r3, #16
 8001cc8:	2b10      	cmp	r3, #16
 8001cca:	d11b      	bne.n	8001d04 <HAL_TIM_IRQHandler+0x158>
    {
      __HAL_TIM_CLEAR_IT(htim, TIM_IT_CC4);
 8001ccc:	687b      	ldr	r3, [r7, #4]
 8001cce:	681b      	ldr	r3, [r3, #0]
 8001cd0:	f06f 0210 	mvn.w	r2, #16
 8001cd4:	611a      	str	r2, [r3, #16]
      htim->Channel = HAL_TIM_ACTIVE_CHANNEL_4;
 8001cd6:	687b      	ldr	r3, [r7, #4]
 8001cd8:	2208      	movs	r2, #8
 8001cda:	771a      	strb	r2, [r3, #28]
      /* Input capture event */
      if ((htim->Instance->CCMR2 & TIM_CCMR2_CC4S) != 0x00U)
 8001cdc:	687b      	ldr	r3, [r7, #4]
 8001cde:	681b      	ldr	r3, [r3, #0]
 8001ce0:	69db      	ldr	r3, [r3, #28]
 8001ce2:	f403 7340 	and.w	r3, r3, #768	; 0x300
 8001ce6:	2b00      	cmp	r3, #0
 8001ce8:	d003      	beq.n	8001cf2 <HAL_TIM_IRQHandler+0x146>
      {
#if (USE_HAL_TIM_REGISTER_CALLBACKS == 1)
        htim->IC_CaptureCallback(htim);
#else
        HAL_TIM_IC_CaptureCallback(htim);
 8001cea:	6878      	ldr	r0, [r7, #4]
 8001cec:	f000 f940 	bl	8001f70 <HAL_TIM_IC_CaptureCallback>
 8001cf0:	e005      	b.n	8001cfe <HAL_TIM_IRQHandler+0x152>
      {
#if (USE_HAL_TIM_REGISTER_CALLBACKS == 1)
        htim->OC_DelayElapsedCallback(htim);
        htim->PWM_PulseFinishedCallback(htim);
#else
        HAL_TIM_OC_DelayElapsedCallback(htim);
 8001cf2:	6878      	ldr	r0, [r7, #4]
 8001cf4:	f000 f932 	bl	8001f5c <HAL_TIM_OC_DelayElapsedCallback>
        HAL_TIM_PWM_PulseFinishedCallback(htim);
 8001cf8:	6878      	ldr	r0, [r7, #4]
 8001cfa:	f000 f943 	bl	8001f84 <HAL_TIM_PWM_PulseFinishedCallback>
#endif /* USE_HAL_TIM_REGISTER_CALLBACKS */
      }
      htim->Channel = HAL_TIM_ACTIVE_CHANNEL_CLEARED;
 8001cfe:	687b      	ldr	r3, [r7, #4]
 8001d00:	2200      	movs	r2, #0
 8001d02:	771a      	strb	r2, [r3, #28]
    }
  }
  /* TIM Update event */
  if (__HAL_TIM_GET_FLAG(htim, TIM_FLAG_UPDATE) != RESET)
 8001d04:	687b      	ldr	r3, [r7, #4]
 8001d06:	681b      	ldr	r3, [r3, #0]
 8001d08:	691b      	ldr	r3, [r3, #16]
 8001d0a:	f003 0301 	and.w	r3, r3, #1
 8001d0e:	2b01      	cmp	r3, #1
 8001d10:	d10e      	bne.n	8001d30 <HAL_TIM_IRQHandler+0x184>
  {
    if (__HAL_TIM_GET_IT_SOURCE(htim, TIM_IT_UPDATE) != RESET)
 8001d12:	687b      	ldr	r3, [r7, #4]
 8001d14:	681b      	ldr	r3, [r3, #0]
 8001d16:	68db      	ldr	r3, [r3, #12]
 8001d18:	f003 0301 	and.w	r3, r3, #1
 8001d1c:	2b01      	cmp	r3, #1
 8001d1e:	d107      	bne.n	8001d30 <HAL_TIM_IRQHandler+0x184>
    {
      __HAL_TIM_CLEAR_IT(htim, TIM_IT_UPDATE);
 8001d20:	687b      	ldr	r3, [r7, #4]
 8001d22:	681b      	ldr	r3, [r3, #0]
 8001d24:	f06f 0201 	mvn.w	r2, #1
 8001d28:	611a      	str	r2, [r3, #16]
#if (USE_HAL_TIM_REGISTER_CALLBACKS == 1)
      htim->PeriodElapsedCallback(htim);
#else
      HAL_TIM_PeriodElapsedCallback(htim);
 8001d2a:	6878      	ldr	r0, [r7, #4]
 8001d2c:	f000 f90c 	bl	8001f48 <HAL_TIM_PeriodElapsedCallback>
#endif /* USE_HAL_TIM_REGISTER_CALLBACKS */
    }
  }
  /* TIM Break input event */
  if (__HAL_TIM_GET_FLAG(htim, TIM_FLAG_BREAK) != RESET)
 8001d30:	687b      	ldr	r3, [r7, #4]
 8001d32:	681b      	ldr	r3, [r3, #0]
 8001d34:	691b      	ldr	r3, [r3, #16]
 8001d36:	f003 0380 	and.w	r3, r3, #128	; 0x80
 8001d3a:	2b80      	cmp	r3, #128	; 0x80
 8001d3c:	d10e      	bne.n	8001d5c <HAL_TIM_IRQHandler+0x1b0>
  {
    if (__HAL_TIM_GET_IT_SOURCE(htim, TIM_IT_BREAK) != RESET)
 8001d3e:	687b      	ldr	r3, [r7, #4]
 8001d40:	681b      	ldr	r3, [r3, #0]
 8001d42:	68db      	ldr	r3, [r3, #12]
 8001d44:	f003 0380 	and.w	r3, r3, #128	; 0x80
 8001d48:	2b80      	cmp	r3, #128	; 0x80
 8001d4a:	d107      	bne.n	8001d5c <HAL_TIM_IRQHandler+0x1b0>
    {
      __HAL_TIM_CLEAR_IT(htim, TIM_IT_BREAK);
 8001d4c:	687b      	ldr	r3, [r7, #4]
 8001d4e:	681b      	ldr	r3, [r3, #0]
 8001d50:	f06f 0280 	mvn.w	r2, #128	; 0x80
 8001d54:	611a      	str	r2, [r3, #16]
#if (USE_HAL_TIM_REGISTER_CALLBACKS == 1)
      htim->BreakCallback(htim);
#else
      HAL_TIMEx_BreakCallback(htim);
 8001d56:	6878      	ldr	r0, [r7, #4]
 8001d58:	f000 fc24 	bl	80025a4 <HAL_TIMEx_BreakCallback>
#endif /* USE_HAL_TIM_REGISTER_CALLBACKS */
    }
  }
  /* TIM Trigger detection event */
  if (__HAL_TIM_GET_FLAG(htim, TIM_FLAG_TRIGGER) != RESET)
 8001d5c:	687b      	ldr	r3, [r7, #4]
 8001d5e:	681b      	ldr	r3, [r3, #0]
 8001d60:	691b      	ldr	r3, [r3, #16]
 8001d62:	f003 0340 	and.w	r3, r3, #64	; 0x40
 8001d66:	2b40      	cmp	r3, #64	; 0x40
 8001d68:	d10e      	bne.n	8001d88 <HAL_TIM_IRQHandler+0x1dc>
  {
    if (__HAL_TIM_GET_IT_SOURCE(htim, TIM_IT_TRIGGER) != RESET)
 8001d6a:	687b      	ldr	r3, [r7, #4]
 8001d6c:	681b      	ldr	r3, [r3, #0]
 8001d6e:	68db      	ldr	r3, [r3, #12]
 8001d70:	f003 0340 	and.w	r3, r3, #64	; 0x40
 8001d74:	2b40      	cmp	r3, #64	; 0x40
 8001d76:	d107      	bne.n	8001d88 <HAL_TIM_IRQHandler+0x1dc>
    {
      __HAL_TIM_CLEAR_IT(htim, TIM_IT_TRIGGER);
 8001d78:	687b      	ldr	r3, [r7, #4]
 8001d7a:	681b      	ldr	r3, [r3, #0]
 8001d7c:	f06f 0240 	mvn.w	r2, #64	; 0x40
 8001d80:	611a      	str	r2, [r3, #16]
#if (USE_HAL_TIM_REGISTER_CALLBACKS == 1)
      htim->TriggerCallback(htim);
#else
      HAL_TIM_TriggerCallback(htim);
 8001d82:	6878      	ldr	r0, [r7, #4]
 8001d84:	f000 f908 	bl	8001f98 <HAL_TIM_TriggerCallback>
#endif /* USE_HAL_TIM_REGISTER_CALLBACKS */
    }
  }
  /* TIM commutation event */
  if (__HAL_TIM_GET_FLAG(htim, TIM_FLAG_COM) != RESET)
 8001d88:	687b      	ldr	r3, [r7, #4]
 8001d8a:	681b      	ldr	r3, [r3, #0]
 8001d8c:	691b      	ldr	r3, [r3, #16]
 8001d8e:	f003 0320 	and.w	r3, r3, #32
 8001d92:	2b20      	cmp	r3, #32
 8001d94:	d10e      	bne.n	8001db4 <HAL_TIM_IRQHandler+0x208>
  {
    if (__HAL_TIM_GET_IT_SOURCE(htim, TIM_IT_COM) != RESET)
 8001d96:	687b      	ldr	r3, [r7, #4]
 8001d98:	681b      	ldr	r3, [r3, #0]
 8001d9a:	68db      	ldr	r3, [r3, #12]
 8001d9c:	f003 0320 	and.w	r3, r3, #32
 8001da0:	2b20      	cmp	r3, #32
 8001da2:	d107      	bne.n	8001db4 <HAL_TIM_IRQHandler+0x208>
    {
      __HAL_TIM_CLEAR_IT(htim, TIM_FLAG_COM);
 8001da4:	687b      	ldr	r3, [r7, #4]
 8001da6:	681b      	ldr	r3, [r3, #0]
 8001da8:	f06f 0220 	mvn.w	r2, #32
 8001dac:	611a      	str	r2, [r3, #16]
#if (USE_HAL_TIM_REGISTER_CALLBACKS == 1)
      htim->CommutationCallback(htim);
#else
      HAL_TIMEx_CommutCallback(htim);
 8001dae:	6878      	ldr	r0, [r7, #4]
 8001db0:	f000 fbee 	bl	8002590 <HAL_TIMEx_CommutCallback>
#endif /* USE_HAL_TIM_REGISTER_CALLBACKS */
    }
  }
}
 8001db4:	bf00      	nop
 8001db6:	3708      	adds	r7, #8
 8001db8:	46bd      	mov	sp, r7
 8001dba:	bd80      	pop	{r7, pc}

08001dbc <HAL_TIM_PWM_ConfigChannel>:
  * @retval HAL status
  */
HAL_StatusTypeDef HAL_TIM_PWM_ConfigChannel(TIM_HandleTypeDef *htim,
                                            TIM_OC_InitTypeDef *sConfig,
                                            uint32_t Channel)
{
 8001dbc:	b580      	push	{r7, lr}
 8001dbe:	b084      	sub	sp, #16
 8001dc0:	af00      	add	r7, sp, #0
 8001dc2:	60f8      	str	r0, [r7, #12]
 8001dc4:	60b9      	str	r1, [r7, #8]
 8001dc6:	607a      	str	r2, [r7, #4]
  assert_param(IS_TIM_PWM_MODE(sConfig->OCMode));
  assert_param(IS_TIM_OC_POLARITY(sConfig->OCPolarity));
  assert_param(IS_TIM_FAST_STATE(sConfig->OCFastMode));

  /* Process Locked */
  __HAL_LOCK(htim);
 8001dc8:	68fb      	ldr	r3, [r7, #12]
 8001dca:	f893 303c 	ldrb.w	r3, [r3, #60]	; 0x3c
 8001dce:	2b01      	cmp	r3, #1
 8001dd0:	d101      	bne.n	8001dd6 <HAL_TIM_PWM_ConfigChannel+0x1a>
 8001dd2:	2302      	movs	r3, #2
 8001dd4:	e0b4      	b.n	8001f40 <HAL_TIM_PWM_ConfigChannel+0x184>
 8001dd6:	68fb      	ldr	r3, [r7, #12]
 8001dd8:	2201      	movs	r2, #1
 8001dda:	f883 203c 	strb.w	r2, [r3, #60]	; 0x3c

  htim->State = HAL_TIM_STATE_BUSY;
 8001dde:	68fb      	ldr	r3, [r7, #12]
 8001de0:	2202      	movs	r2, #2
 8001de2:	f883 203d 	strb.w	r2, [r3, #61]	; 0x3d

  switch (Channel)
 8001de6:	687b      	ldr	r3, [r7, #4]
 8001de8:	2b0c      	cmp	r3, #12
 8001dea:	f200 809f 	bhi.w	8001f2c <HAL_TIM_PWM_ConfigChannel+0x170>
 8001dee:	a201      	add	r2, pc, #4	; (adr r2, 8001df4 <HAL_TIM_PWM_ConfigChannel+0x38>)
 8001df0:	f852 f023 	ldr.w	pc, [r2, r3, lsl #2]
 8001df4:	08001e29 	.word	0x08001e29
 8001df8:	08001f2d 	.word	0x08001f2d
 8001dfc:	08001f2d 	.word	0x08001f2d
 8001e00:	08001f2d 	.word	0x08001f2d
 8001e04:	08001e69 	.word	0x08001e69
 8001e08:	08001f2d 	.word	0x08001f2d
 8001e0c:	08001f2d 	.word	0x08001f2d
 8001e10:	08001f2d 	.word	0x08001f2d
 8001e14:	08001eab 	.word	0x08001eab
 8001e18:	08001f2d 	.word	0x08001f2d
 8001e1c:	08001f2d 	.word	0x08001f2d
 8001e20:	08001f2d 	.word	0x08001f2d
 8001e24:	08001eeb 	.word	0x08001eeb
    {
      /* Check the parameters */
      assert_param(IS_TIM_CC1_INSTANCE(htim->Instance));

      /* Configure the Channel 1 in PWM mode */
      TIM_OC1_SetConfig(htim->Instance, sConfig);
 8001e28:	68fb      	ldr	r3, [r7, #12]
 8001e2a:	681b      	ldr	r3, [r3, #0]
 8001e2c:	68b9      	ldr	r1, [r7, #8]
 8001e2e:	4618      	mov	r0, r3
 8001e30:	f000 f95c 	bl	80020ec <TIM_OC1_SetConfig>

      /* Set the Preload enable bit for channel1 */
      htim->Instance->CCMR1 |= TIM_CCMR1_OC1PE;
 8001e34:	68fb      	ldr	r3, [r7, #12]
 8001e36:	681b      	ldr	r3, [r3, #0]
 8001e38:	699a      	ldr	r2, [r3, #24]
 8001e3a:	68fb      	ldr	r3, [r7, #12]
 8001e3c:	681b      	ldr	r3, [r3, #0]
 8001e3e:	f042 0208 	orr.w	r2, r2, #8
 8001e42:	619a      	str	r2, [r3, #24]

      /* Configure the Output Fast mode */
      htim->Instance->CCMR1 &= ~TIM_CCMR1_OC1FE;
 8001e44:	68fb      	ldr	r3, [r7, #12]
 8001e46:	681b      	ldr	r3, [r3, #0]
 8001e48:	699a      	ldr	r2, [r3, #24]
 8001e4a:	68fb      	ldr	r3, [r7, #12]
 8001e4c:	681b      	ldr	r3, [r3, #0]
 8001e4e:	f022 0204 	bic.w	r2, r2, #4
 8001e52:	619a      	str	r2, [r3, #24]
      htim->Instance->CCMR1 |= sConfig->OCFastMode;
 8001e54:	68fb      	ldr	r3, [r7, #12]
 8001e56:	681b      	ldr	r3, [r3, #0]
 8001e58:	6999      	ldr	r1, [r3, #24]
 8001e5a:	68bb      	ldr	r3, [r7, #8]
 8001e5c:	691a      	ldr	r2, [r3, #16]
 8001e5e:	68fb      	ldr	r3, [r7, #12]
 8001e60:	681b      	ldr	r3, [r3, #0]
 8001e62:	430a      	orrs	r2, r1
 8001e64:	619a      	str	r2, [r3, #24]
      break;
 8001e66:	e062      	b.n	8001f2e <HAL_TIM_PWM_ConfigChannel+0x172>
    {
      /* Check the parameters */
      assert_param(IS_TIM_CC2_INSTANCE(htim->Instance));

      /* Configure the Channel 2 in PWM mode */
      TIM_OC2_SetConfig(htim->Instance, sConfig);
 8001e68:	68fb      	ldr	r3, [r7, #12]
 8001e6a:	681b      	ldr	r3, [r3, #0]
 8001e6c:	68b9      	ldr	r1, [r7, #8]
 8001e6e:	4618      	mov	r0, r3
 8001e70:	f000 f9ac 	bl	80021cc <TIM_OC2_SetConfig>

      /* Set the Preload enable bit for channel2 */
      htim->Instance->CCMR1 |= TIM_CCMR1_OC2PE;
 8001e74:	68fb      	ldr	r3, [r7, #12]
 8001e76:	681b      	ldr	r3, [r3, #0]
 8001e78:	699a      	ldr	r2, [r3, #24]
 8001e7a:	68fb      	ldr	r3, [r7, #12]
 8001e7c:	681b      	ldr	r3, [r3, #0]
 8001e7e:	f442 6200 	orr.w	r2, r2, #2048	; 0x800
 8001e82:	619a      	str	r2, [r3, #24]

      /* Configure the Output Fast mode */
      htim->Instance->CCMR1 &= ~TIM_CCMR1_OC2FE;
 8001e84:	68fb      	ldr	r3, [r7, #12]
 8001e86:	681b      	ldr	r3, [r3, #0]
 8001e88:	699a      	ldr	r2, [r3, #24]
 8001e8a:	68fb      	ldr	r3, [r7, #12]
 8001e8c:	681b      	ldr	r3, [r3, #0]
 8001e8e:	f422 6280 	bic.w	r2, r2, #1024	; 0x400
 8001e92:	619a      	str	r2, [r3, #24]
      htim->Instance->CCMR1 |= sConfig->OCFastMode << 8U;
 8001e94:	68fb      	ldr	r3, [r7, #12]
 8001e96:	681b      	ldr	r3, [r3, #0]
 8001e98:	6999      	ldr	r1, [r3, #24]
 8001e9a:	68bb      	ldr	r3, [r7, #8]
 8001e9c:	691b      	ldr	r3, [r3, #16]
 8001e9e:	021a      	lsls	r2, r3, #8
 8001ea0:	68fb      	ldr	r3, [r7, #12]
 8001ea2:	681b      	ldr	r3, [r3, #0]
 8001ea4:	430a      	orrs	r2, r1
 8001ea6:	619a      	str	r2, [r3, #24]
      break;
 8001ea8:	e041      	b.n	8001f2e <HAL_TIM_PWM_ConfigChannel+0x172>
    {
      /* Check the parameters */
      assert_param(IS_TIM_CC3_INSTANCE(htim->Instance));

      /* Configure the Channel 3 in PWM mode */
      TIM_OC3_SetConfig(htim->Instance, sConfig);
 8001eaa:	68fb      	ldr	r3, [r7, #12]
 8001eac:	681b      	ldr	r3, [r3, #0]
 8001eae:	68b9      	ldr	r1, [r7, #8]
 8001eb0:	4618      	mov	r0, r3
 8001eb2:	f000 fa01 	bl	80022b8 <TIM_OC3_SetConfig>

      /* Set the Preload enable bit for channel3 */
      htim->Instance->CCMR2 |= TIM_CCMR2_OC3PE;
 8001eb6:	68fb      	ldr	r3, [r7, #12]
 8001eb8:	681b      	ldr	r3, [r3, #0]
 8001eba:	69da      	ldr	r2, [r3, #28]
 8001ebc:	68fb      	ldr	r3, [r7, #12]
 8001ebe:	681b      	ldr	r3, [r3, #0]
 8001ec0:	f042 0208 	orr.w	r2, r2, #8
 8001ec4:	61da      	str	r2, [r3, #28]

      /* Configure the Output Fast mode */
      htim->Instance->CCMR2 &= ~TIM_CCMR2_OC3FE;
 8001ec6:	68fb      	ldr	r3, [r7, #12]
 8001ec8:	681b      	ldr	r3, [r3, #0]
 8001eca:	69da      	ldr	r2, [r3, #28]
 8001ecc:	68fb      	ldr	r3, [r7, #12]
 8001ece:	681b      	ldr	r3, [r3, #0]
 8001ed0:	f022 0204 	bic.w	r2, r2, #4
 8001ed4:	61da      	str	r2, [r3, #28]
      htim->Instance->CCMR2 |= sConfig->OCFastMode;
 8001ed6:	68fb      	ldr	r3, [r7, #12]
 8001ed8:	681b      	ldr	r3, [r3, #0]
 8001eda:	69d9      	ldr	r1, [r3, #28]
 8001edc:	68bb      	ldr	r3, [r7, #8]
 8001ede:	691a      	ldr	r2, [r3, #16]
 8001ee0:	68fb      	ldr	r3, [r7, #12]
 8001ee2:	681b      	ldr	r3, [r3, #0]
 8001ee4:	430a      	orrs	r2, r1
 8001ee6:	61da      	str	r2, [r3, #28]
      break;
 8001ee8:	e021      	b.n	8001f2e <HAL_TIM_PWM_ConfigChannel+0x172>
    {
      /* Check the parameters */
      assert_param(IS_TIM_CC4_INSTANCE(htim->Instance));

      /* Configure the Channel 4 in PWM mode */
      TIM_OC4_SetConfig(htim->Instance, sConfig);
 8001eea:	68fb      	ldr	r3, [r7, #12]
 8001eec:	681b      	ldr	r3, [r3, #0]
 8001eee:	68b9      	ldr	r1, [r7, #8]
 8001ef0:	4618      	mov	r0, r3
 8001ef2:	f000 fa55 	bl	80023a0 <TIM_OC4_SetConfig>

      /* Set the Preload enable bit for channel4 */
      htim->Instance->CCMR2 |= TIM_CCMR2_OC4PE;
 8001ef6:	68fb      	ldr	r3, [r7, #12]
 8001ef8:	681b      	ldr	r3, [r3, #0]
 8001efa:	69da      	ldr	r2, [r3, #28]
 8001efc:	68fb      	ldr	r3, [r7, #12]
 8001efe:	681b      	ldr	r3, [r3, #0]
 8001f00:	f442 6200 	orr.w	r2, r2, #2048	; 0x800
 8001f04:	61da      	str	r2, [r3, #28]

      /* Configure the Output Fast mode */
      htim->Instance->CCMR2 &= ~TIM_CCMR2_OC4FE;
 8001f06:	68fb      	ldr	r3, [r7, #12]
 8001f08:	681b      	ldr	r3, [r3, #0]
 8001f0a:	69da      	ldr	r2, [r3, #28]
 8001f0c:	68fb      	ldr	r3, [r7, #12]
 8001f0e:	681b      	ldr	r3, [r3, #0]
 8001f10:	f422 6280 	bic.w	r2, r2, #1024	; 0x400
 8001f14:	61da      	str	r2, [r3, #28]
      htim->Instance->CCMR2 |= sConfig->OCFastMode << 8U;
 8001f16:	68fb      	ldr	r3, [r7, #12]
 8001f18:	681b      	ldr	r3, [r3, #0]
 8001f1a:	69d9      	ldr	r1, [r3, #28]
 8001f1c:	68bb      	ldr	r3, [r7, #8]
 8001f1e:	691b      	ldr	r3, [r3, #16]
 8001f20:	021a      	lsls	r2, r3, #8
 8001f22:	68fb      	ldr	r3, [r7, #12]
 8001f24:	681b      	ldr	r3, [r3, #0]
 8001f26:	430a      	orrs	r2, r1
 8001f28:	61da      	str	r2, [r3, #28]
      break;
 8001f2a:	e000      	b.n	8001f2e <HAL_TIM_PWM_ConfigChannel+0x172>
    }

    default:
      break;
 8001f2c:	bf00      	nop
  }

  htim->State = HAL_TIM_STATE_READY;
 8001f2e:	68fb      	ldr	r3, [r7, #12]
 8001f30:	2201      	movs	r2, #1
 8001f32:	f883 203d 	strb.w	r2, [r3, #61]	; 0x3d

  __HAL_UNLOCK(htim);
 8001f36:	68fb      	ldr	r3, [r7, #12]
 8001f38:	2200      	movs	r2, #0
 8001f3a:	f883 203c 	strb.w	r2, [r3, #60]	; 0x3c

  return HAL_OK;
 8001f3e:	2300      	movs	r3, #0
}
 8001f40:	4618      	mov	r0, r3
 8001f42:	3710      	adds	r7, #16
 8001f44:	46bd      	mov	sp, r7
 8001f46:	bd80      	pop	{r7, pc}

08001f48 <HAL_TIM_PeriodElapsedCallback>:
  * @brief  Period elapsed callback in non-blocking mode
  * @param  htim TIM handle
  * @retval None
  */
__weak void HAL_TIM_PeriodElapsedCallback(TIM_HandleTypeDef *htim)
{
 8001f48:	b480      	push	{r7}
 8001f4a:	b083      	sub	sp, #12
 8001f4c:	af00      	add	r7, sp, #0
 8001f4e:	6078      	str	r0, [r7, #4]
  UNUSED(htim);

  /* NOTE : This function should not be modified, when the callback is needed,
            the HAL_TIM_PeriodElapsedCallback could be implemented in the user file
   */
}
 8001f50:	bf00      	nop
 8001f52:	370c      	adds	r7, #12
 8001f54:	46bd      	mov	sp, r7
 8001f56:	f85d 7b04 	ldr.w	r7, [sp], #4
 8001f5a:	4770      	bx	lr

08001f5c <HAL_TIM_OC_DelayElapsedCallback>:
  * @brief  Output Compare callback in non-blocking mode
  * @param  htim TIM OC handle
  * @retval None
  */
__weak void HAL_TIM_OC_DelayElapsedCallback(TIM_HandleTypeDef *htim)
{
 8001f5c:	b480      	push	{r7}
 8001f5e:	b083      	sub	sp, #12
 8001f60:	af00      	add	r7, sp, #0
 8001f62:	6078      	str	r0, [r7, #4]
  UNUSED(htim);

  /* NOTE : This function should not be modified, when the callback is needed,
            the HAL_TIM_OC_DelayElapsedCallback could be implemented in the user file
   */
}
 8001f64:	bf00      	nop
 8001f66:	370c      	adds	r7, #12
 8001f68:	46bd      	mov	sp, r7
 8001f6a:	f85d 7b04 	ldr.w	r7, [sp], #4
 8001f6e:	4770      	bx	lr

08001f70 <HAL_TIM_IC_CaptureCallback>:
  * @brief  Input Capture callback in non-blocking mode
  * @param  htim TIM IC handle
  * @retval None
  */
__weak void HAL_TIM_IC_CaptureCallback(TIM_HandleTypeDef *htim)
{
 8001f70:	b480      	push	{r7}
 8001f72:	b083      	sub	sp, #12
 8001f74:	af00      	add	r7, sp, #0
 8001f76:	6078      	str	r0, [r7, #4]
  UNUSED(htim);

  /* NOTE : This function should not be modified, when the callback is needed,
            the HAL_TIM_IC_CaptureCallback could be implemented in the user file
   */
}
 8001f78:	bf00      	nop
 8001f7a:	370c      	adds	r7, #12
 8001f7c:	46bd      	mov	sp, r7
 8001f7e:	f85d 7b04 	ldr.w	r7, [sp], #4
 8001f82:	4770      	bx	lr

08001f84 <HAL_TIM_PWM_PulseFinishedCallback>:
  * @brief  PWM Pulse finished callback in non-blocking mode
  * @param  htim TIM handle
  * @retval None
  */
__weak void HAL_TIM_PWM_PulseFinishedCallback(TIM_HandleTypeDef *htim)
{
 8001f84:	b480      	push	{r7}
 8001f86:	b083      	sub	sp, #12
 8001f88:	af00      	add	r7, sp, #0
 8001f8a:	6078      	str	r0, [r7, #4]
  UNUSED(htim);

  /* NOTE : This function should not be modified, when the callback is needed,
            the HAL_TIM_PWM_PulseFinishedCallback could be implemented in the user file
   */
}
 8001f8c:	bf00      	nop
 8001f8e:	370c      	adds	r7, #12
 8001f90:	46bd      	mov	sp, r7
 8001f92:	f85d 7b04 	ldr.w	r7, [sp], #4
 8001f96:	4770      	bx	lr

08001f98 <HAL_TIM_TriggerCallback>:
  * @brief  Hall Trigger detection callback in non-blocking mode
  * @param  htim TIM handle
  * @retval None
  */
__weak void HAL_TIM_TriggerCallback(TIM_HandleTypeDef *htim)
{
 8001f98:	b480      	push	{r7}
 8001f9a:	b083      	sub	sp, #12
 8001f9c:	af00      	add	r7, sp, #0
 8001f9e:	6078      	str	r0, [r7, #4]
  UNUSED(htim);

  /* NOTE : This function should not be modified, when the callback is needed,
            the HAL_TIM_TriggerCallback could be implemented in the user file
   */
}
 8001fa0:	bf00      	nop
 8001fa2:	370c      	adds	r7, #12
 8001fa4:	46bd      	mov	sp, r7
 8001fa6:	f85d 7b04 	ldr.w	r7, [sp], #4
 8001faa:	4770      	bx	lr

08001fac <TIM_Base_SetConfig>:
  * @param  TIMx TIM peripheral
  * @param  Structure TIM Base configuration structure
  * @retval None
  */
void TIM_Base_SetConfig(TIM_TypeDef *TIMx, TIM_Base_InitTypeDef *Structure)
{
 8001fac:	b480      	push	{r7}
 8001fae:	b085      	sub	sp, #20
 8001fb0:	af00      	add	r7, sp, #0
 8001fb2:	6078      	str	r0, [r7, #4]
 8001fb4:	6039      	str	r1, [r7, #0]
  uint32_t tmpcr1;
  tmpcr1 = TIMx->CR1;
 8001fb6:	687b      	ldr	r3, [r7, #4]
 8001fb8:	681b      	ldr	r3, [r3, #0]
 8001fba:	60fb      	str	r3, [r7, #12]

  /* Set TIM Time Base Unit parameters ---------------------------------------*/
  if (IS_TIM_COUNTER_MODE_SELECT_INSTANCE(TIMx))
 8001fbc:	687b      	ldr	r3, [r7, #4]
 8001fbe:	4a40      	ldr	r2, [pc, #256]	; (80020c0 <TIM_Base_SetConfig+0x114>)
 8001fc0:	4293      	cmp	r3, r2
 8001fc2:	d013      	beq.n	8001fec <TIM_Base_SetConfig+0x40>
 8001fc4:	687b      	ldr	r3, [r7, #4]
