
009.1_TIM6_clk_generate_TIM2_capture_uart_display.elf:     file format elf32-littlearm

Sections:
Idx Name          Size      VMA       LMA       File off  Algn
  0 .isr_vector   00000188  08000000  08000000  00010000  2**0
                  CONTENTS, ALLOC, LOAD, READONLY, DATA
  1 .text         00006230  08000190  08000190  00010190  2**4
                  CONTENTS, ALLOC, LOAD, READONLY, CODE
  2 .rodata       000002a0  080063c0  080063c0  000163c0  2**3
                  CONTENTS, ALLOC, LOAD, READONLY, DATA
  3 .ARM.extab    00000000  08006660  08006660  000201e0  2**0
                  CONTENTS
  4 .ARM          00000008  08006660  08006660  00016660  2**2
                  CONTENTS, ALLOC, LOAD, READONLY, DATA
  5 .preinit_array 00000000  08006668  08006668  000201e0  2**0
                  CONTENTS, ALLOC, LOAD, DATA
  6 .init_array   00000004  08006668  08006668  00016668  2**2
                  CONTENTS, ALLOC, LOAD, DATA
  7 .fini_array   00000004  0800666c  0800666c  0001666c  2**2
                  CONTENTS, ALLOC, LOAD, DATA
  8 .data         000001e0  20000000  08006670  00020000  2**2
                  CONTENTS, ALLOC, LOAD, DATA
  9 .bss          000000fc  200001e0  08006850  000201e0  2**2
                  ALLOC
 10 ._user_heap_stack 00000604  200002dc  08006850  000202dc  2**0
                  ALLOC
 11 .ARM.attributes 00000030  00000000  00000000  000201e0  2**0
                  CONTENTS, READONLY
 12 .debug_info   0000b819  00000000  00000000  00020210  2**0
                  CONTENTS, READONLY, DEBUGGING
 13 .debug_abbrev 00001a3c  00000000  00000000  0002ba29  2**0
                  CONTENTS, READONLY, DEBUGGING
 14 .debug_aranges 00000bd0  00000000  00000000  0002d468  2**3
                  CONTENTS, READONLY, DEBUGGING
 15 .debug_ranges 00000af8  00000000  00000000  0002e038  2**3
                  CONTENTS, READONLY, DEBUGGING
 16 .debug_macro  00020f5d  00000000  00000000  0002eb30  2**0
                  CONTENTS, READONLY, DEBUGGING
 17 .debug_line   0000896a  00000000  00000000  0004fa8d  2**0
                  CONTENTS, READONLY, DEBUGGING
 18 .debug_str    000c9ab4  00000000  00000000  000583f7  2**0
                  CONTENTS, READONLY, DEBUGGING
 19 .comment      0000007b  00000000  00000000  00121eab  2**0
                  CONTENTS, READONLY
 20 .debug_frame  00003b58  00000000  00000000  00121f28  2**2
                  CONTENTS, READONLY, DEBUGGING

Disassembly of section .text:

08000190 <__do_global_dtors_aux>:
 8000190:	b510      	push	{r4, lr}
 8000192:	4c05      	ldr	r4, [pc, #20]	; (80001a8 <__do_global_dtors_aux+0x18>)
 8000194:	7823      	ldrb	r3, [r4, #0]
 8000196:	b933      	cbnz	r3, 80001a6 <__do_global_dtors_aux+0x16>
 8000198:	4b04      	ldr	r3, [pc, #16]	; (80001ac <__do_global_dtors_aux+0x1c>)
 800019a:	b113      	cbz	r3, 80001a2 <__do_global_dtors_aux+0x12>
 800019c:	4804      	ldr	r0, [pc, #16]	; (80001b0 <__do_global_dtors_aux+0x20>)
 800019e:	f3af 8000 	nop.w
 80001a2:	2301      	movs	r3, #1
 80001a4:	7023      	strb	r3, [r4, #0]
 80001a6:	bd10      	pop	{r4, pc}
 80001a8:	200001e0 	.word	0x200001e0
 80001ac:	00000000 	.word	0x00000000
 80001b0:	080063a8 	.word	0x080063a8

080001b4 <frame_dummy>:
 80001b4:	b508      	push	{r3, lr}
 80001b6:	4b03      	ldr	r3, [pc, #12]	; (80001c4 <frame_dummy+0x10>)
 80001b8:	b11b      	cbz	r3, 80001c2 <frame_dummy+0xe>
 80001ba:	4903      	ldr	r1, [pc, #12]	; (80001c8 <frame_dummy+0x14>)
 80001bc:	4803      	ldr	r0, [pc, #12]	; (80001cc <frame_dummy+0x18>)
 80001be:	f3af 8000 	nop.w
 80001c2:	bd08      	pop	{r3, pc}
 80001c4:	00000000 	.word	0x00000000
 80001c8:	200001e4 	.word	0x200001e4
 80001cc:	080063a8 	.word	0x080063a8

080001d0 <strlen>:
 80001d0:	4603      	mov	r3, r0
 80001d2:	f813 2b01 	ldrb.w	r2, [r3], #1
 80001d6:	2a00      	cmp	r2, #0
 80001d8:	d1fb      	bne.n	80001d2 <strlen+0x2>
 80001da:	1a18      	subs	r0, r3, r0
 80001dc:	3801      	subs	r0, #1
 80001de:	4770      	bx	lr

080001e0 <memchr>:
 80001e0:	f001 01ff 	and.w	r1, r1, #255	; 0xff
 80001e4:	2a10      	cmp	r2, #16
 80001e6:	db2b      	blt.n	8000240 <memchr+0x60>
 80001e8:	f010 0f07 	tst.w	r0, #7
 80001ec:	d008      	beq.n	8000200 <memchr+0x20>
 80001ee:	f810 3b01 	ldrb.w	r3, [r0], #1
 80001f2:	3a01      	subs	r2, #1
 80001f4:	428b      	cmp	r3, r1
 80001f6:	d02d      	beq.n	8000254 <memchr+0x74>
 80001f8:	f010 0f07 	tst.w	r0, #7
 80001fc:	b342      	cbz	r2, 8000250 <memchr+0x70>
 80001fe:	d1f6      	bne.n	80001ee <memchr+0xe>
 8000200:	b4f0      	push	{r4, r5, r6, r7}
 8000202:	ea41 2101 	orr.w	r1, r1, r1, lsl #8
 8000206:	ea41 4101 	orr.w	r1, r1, r1, lsl #16
 800020a:	f022 0407 	bic.w	r4, r2, #7
 800020e:	f07f 0700 	mvns.w	r7, #0
 8000212:	2300      	movs	r3, #0
 8000214:	e8f0 5602 	ldrd	r5, r6, [r0], #8
 8000218:	3c08      	subs	r4, #8
 800021a:	ea85 0501 	eor.w	r5, r5, r1
 800021e:	ea86 0601 	eor.w	r6, r6, r1
 8000222:	fa85 f547 	uadd8	r5, r5, r7
 8000226:	faa3 f587 	sel	r5, r3, r7
 800022a:	fa86 f647 	uadd8	r6, r6, r7
 800022e:	faa5 f687 	sel	r6, r5, r7
 8000232:	b98e      	cbnz	r6, 8000258 <memchr+0x78>
 8000234:	d1ee      	bne.n	8000214 <memchr+0x34>
 8000236:	bcf0      	pop	{r4, r5, r6, r7}
 8000238:	f001 01ff 	and.w	r1, r1, #255	; 0xff
 800023c:	f002 0207 	and.w	r2, r2, #7
 8000240:	b132      	cbz	r2, 8000250 <memchr+0x70>
 8000242:	f810 3b01 	ldrb.w	r3, [r0], #1
 8000246:	3a01      	subs	r2, #1
 8000248:	ea83 0301 	eor.w	r3, r3, r1
 800024c:	b113      	cbz	r3, 8000254 <memchr+0x74>
 800024e:	d1f8      	bne.n	8000242 <memchr+0x62>
 8000250:	2000      	movs	r0, #0
 8000252:	4770      	bx	lr
 8000254:	3801      	subs	r0, #1
 8000256:	4770      	bx	lr
 8000258:	2d00      	cmp	r5, #0
 800025a:	bf06      	itte	eq
 800025c:	4635      	moveq	r5, r6
 800025e:	3803      	subeq	r0, #3
 8000260:	3807      	subne	r0, #7
 8000262:	f015 0f01 	tst.w	r5, #1
 8000266:	d107      	bne.n	8000278 <memchr+0x98>
 8000268:	3001      	adds	r0, #1
 800026a:	f415 7f80 	tst.w	r5, #256	; 0x100
 800026e:	bf02      	ittt	eq
 8000270:	3001      	addeq	r0, #1
 8000272:	f415 3fc0 	tsteq.w	r5, #98304	; 0x18000
 8000276:	3001      	addeq	r0, #1
 8000278:	bcf0      	pop	{r4, r5, r6, r7}
 800027a:	3801      	subs	r0, #1
 800027c:	4770      	bx	lr
 800027e:	bf00      	nop

08000280 <__aeabi_drsub>:
 8000280:	f081 4100 	eor.w	r1, r1, #2147483648	; 0x80000000
 8000284:	e002      	b.n	800028c <__adddf3>
 8000286:	bf00      	nop

08000288 <__aeabi_dsub>:
 8000288:	f083 4300 	eor.w	r3, r3, #2147483648	; 0x80000000

0800028c <__adddf3>:
 800028c:	b530      	push	{r4, r5, lr}
 800028e:	ea4f 0441 	mov.w	r4, r1, lsl #1
 8000292:	ea4f 0543 	mov.w	r5, r3, lsl #1
 8000296:	ea94 0f05 	teq	r4, r5
 800029a:	bf08      	it	eq
 800029c:	ea90 0f02 	teqeq	r0, r2
 80002a0:	bf1f      	itttt	ne
 80002a2:	ea54 0c00 	orrsne.w	ip, r4, r0
 80002a6:	ea55 0c02 	orrsne.w	ip, r5, r2
 80002aa:	ea7f 5c64 	mvnsne.w	ip, r4, asr #21
 80002ae:	ea7f 5c65 	mvnsne.w	ip, r5, asr #21
 80002b2:	f000 80e2 	beq.w	800047a <__adddf3+0x1ee>
 80002b6:	ea4f 5454 	mov.w	r4, r4, lsr #21
 80002ba:	ebd4 5555 	rsbs	r5, r4, r5, lsr #21
 80002be:	bfb8      	it	lt
 80002c0:	426d      	neglt	r5, r5
 80002c2:	dd0c      	ble.n	80002de <__adddf3+0x52>
 80002c4:	442c      	add	r4, r5
 80002c6:	ea80 0202 	eor.w	r2, r0, r2
 80002ca:	ea81 0303 	eor.w	r3, r1, r3
 80002ce:	ea82 0000 	eor.w	r0, r2, r0
 80002d2:	ea83 0101 	eor.w	r1, r3, r1
 80002d6:	ea80 0202 	eor.w	r2, r0, r2
 80002da:	ea81 0303 	eor.w	r3, r1, r3
 80002de:	2d36      	cmp	r5, #54	; 0x36
 80002e0:	bf88      	it	hi
 80002e2:	bd30      	pophi	{r4, r5, pc}
 80002e4:	f011 4f00 	tst.w	r1, #2147483648	; 0x80000000
 80002e8:	ea4f 3101 	mov.w	r1, r1, lsl #12
 80002ec:	f44f 1c80 	mov.w	ip, #1048576	; 0x100000
 80002f0:	ea4c 3111 	orr.w	r1, ip, r1, lsr #12
 80002f4:	d002      	beq.n	80002fc <__adddf3+0x70>
 80002f6:	4240      	negs	r0, r0
 80002f8:	eb61 0141 	sbc.w	r1, r1, r1, lsl #1
 80002fc:	f013 4f00 	tst.w	r3, #2147483648	; 0x80000000
 8000300:	ea4f 3303 	mov.w	r3, r3, lsl #12
 8000304:	ea4c 3313 	orr.w	r3, ip, r3, lsr #12
 8000308:	d002      	beq.n	8000310 <__adddf3+0x84>
 800030a:	4252      	negs	r2, r2
 800030c:	eb63 0343 	sbc.w	r3, r3, r3, lsl #1
 8000310:	ea94 0f05 	teq	r4, r5
 8000314:	f000 80a7 	beq.w	8000466 <__adddf3+0x1da>
 8000318:	f1a4 0401 	sub.w	r4, r4, #1
 800031c:	f1d5 0e20 	rsbs	lr, r5, #32
 8000320:	db0d      	blt.n	800033e <__adddf3+0xb2>
 8000322:	fa02 fc0e 	lsl.w	ip, r2, lr
 8000326:	fa22 f205 	lsr.w	r2, r2, r5
 800032a:	1880      	adds	r0, r0, r2
 800032c:	f141 0100 	adc.w	r1, r1, #0
 8000330:	fa03 f20e 	lsl.w	r2, r3, lr
 8000334:	1880      	adds	r0, r0, r2
 8000336:	fa43 f305 	asr.w	r3, r3, r5
 800033a:	4159      	adcs	r1, r3
 800033c:	e00e      	b.n	800035c <__adddf3+0xd0>
 800033e:	f1a5 0520 	sub.w	r5, r5, #32
 8000342:	f10e 0e20 	add.w	lr, lr, #32
 8000346:	2a01      	cmp	r2, #1
 8000348:	fa03 fc0e 	lsl.w	ip, r3, lr
 800034c:	bf28      	it	cs
 800034e:	f04c 0c02 	orrcs.w	ip, ip, #2
 8000352:	fa43 f305 	asr.w	r3, r3, r5
 8000356:	18c0      	adds	r0, r0, r3
 8000358:	eb51 71e3 	adcs.w	r1, r1, r3, asr #31
 800035c:	f001 4500 	and.w	r5, r1, #2147483648	; 0x80000000
 8000360:	d507      	bpl.n	8000372 <__adddf3+0xe6>
 8000362:	f04f 0e00 	mov.w	lr, #0
 8000366:	f1dc 0c00 	rsbs	ip, ip, #0
 800036a:	eb7e 0000 	sbcs.w	r0, lr, r0
 800036e:	eb6e 0101 	sbc.w	r1, lr, r1
 8000372:	f5b1 1f80 	cmp.w	r1, #1048576	; 0x100000
 8000376:	d31b      	bcc.n	80003b0 <__adddf3+0x124>
 8000378:	f5b1 1f00 	cmp.w	r1, #2097152	; 0x200000
 800037c:	d30c      	bcc.n	8000398 <__adddf3+0x10c>
 800037e:	0849      	lsrs	r1, r1, #1
 8000380:	ea5f 0030 	movs.w	r0, r0, rrx
 8000384:	ea4f 0c3c 	mov.w	ip, ip, rrx
 8000388:	f104 0401 	add.w	r4, r4, #1
 800038c:	ea4f 5244 	mov.w	r2, r4, lsl #21
 8000390:	f512 0f80 	cmn.w	r2, #4194304	; 0x400000
 8000394:	f080 809a 	bcs.w	80004cc <__adddf3+0x240>
 8000398:	f1bc 4f00 	cmp.w	ip, #2147483648	; 0x80000000
 800039c:	bf08      	it	eq
 800039e:	ea5f 0c50 	movseq.w	ip, r0, lsr #1
 80003a2:	f150 0000 	adcs.w	r0, r0, #0
 80003a6:	eb41 5104 	adc.w	r1, r1, r4, lsl #20
 80003aa:	ea41 0105 	orr.w	r1, r1, r5
 80003ae:	bd30      	pop	{r4, r5, pc}
 80003b0:	ea5f 0c4c 	movs.w	ip, ip, lsl #1
 80003b4:	4140      	adcs	r0, r0
 80003b6:	eb41 0101 	adc.w	r1, r1, r1
 80003ba:	f411 1f80 	tst.w	r1, #1048576	; 0x100000
 80003be:	f1a4 0401 	sub.w	r4, r4, #1
 80003c2:	d1e9      	bne.n	8000398 <__adddf3+0x10c>
 80003c4:	f091 0f00 	teq	r1, #0
 80003c8:	bf04      	itt	eq
 80003ca:	4601      	moveq	r1, r0
 80003cc:	2000      	moveq	r0, #0
 80003ce:	fab1 f381 	clz	r3, r1
 80003d2:	bf08      	it	eq
 80003d4:	3320      	addeq	r3, #32
 80003d6:	f1a3 030b 	sub.w	r3, r3, #11
 80003da:	f1b3 0220 	subs.w	r2, r3, #32
 80003de:	da0c      	bge.n	80003fa <__adddf3+0x16e>
 80003e0:	320c      	adds	r2, #12
 80003e2:	dd08      	ble.n	80003f6 <__adddf3+0x16a>
 80003e4:	f102 0c14 	add.w	ip, r2, #20
 80003e8:	f1c2 020c 	rsb	r2, r2, #12
 80003ec:	fa01 f00c 	lsl.w	r0, r1, ip
 80003f0:	fa21 f102 	lsr.w	r1, r1, r2
 80003f4:	e00c      	b.n	8000410 <__adddf3+0x184>
 80003f6:	f102 0214 	add.w	r2, r2, #20
 80003fa:	bfd8      	it	le
 80003fc:	f1c2 0c20 	rsble	ip, r2, #32
 8000400:	fa01 f102 	lsl.w	r1, r1, r2
 8000404:	fa20 fc0c 	lsr.w	ip, r0, ip
 8000408:	bfdc      	itt	le
 800040a:	ea41 010c 	orrle.w	r1, r1, ip
 800040e:	4090      	lslle	r0, r2
 8000410:	1ae4      	subs	r4, r4, r3
 8000412:	bfa2      	ittt	ge
 8000414:	eb01 5104 	addge.w	r1, r1, r4, lsl #20
 8000418:	4329      	orrge	r1, r5
 800041a:	bd30      	popge	{r4, r5, pc}
 800041c:	ea6f 0404 	mvn.w	r4, r4
 8000420:	3c1f      	subs	r4, #31
 8000422:	da1c      	bge.n	800045e <__adddf3+0x1d2>
 8000424:	340c      	adds	r4, #12
 8000426:	dc0e      	bgt.n	8000446 <__adddf3+0x1ba>
 8000428:	f104 0414 	add.w	r4, r4, #20
 800042c:	f1c4 0220 	rsb	r2, r4, #32
 8000430:	fa20 f004 	lsr.w	r0, r0, r4
 8000434:	fa01 f302 	lsl.w	r3, r1, r2
 8000438:	ea40 0003 	orr.w	r0, r0, r3
 800043c:	fa21 f304 	lsr.w	r3, r1, r4
 8000440:	ea45 0103 	orr.w	r1, r5, r3
 8000444:	bd30      	pop	{r4, r5, pc}
 8000446:	f1c4 040c 	rsb	r4, r4, #12
 800044a:	f1c4 0220 	rsb	r2, r4, #32
 800044e:	fa20 f002 	lsr.w	r0, r0, r2
 8000452:	fa01 f304 	lsl.w	r3, r1, r4
 8000456:	ea40 0003 	orr.w	r0, r0, r3
 800045a:	4629      	mov	r1, r5
 800045c:	bd30      	pop	{r4, r5, pc}
 800045e:	fa21 f004 	lsr.w	r0, r1, r4
 8000462:	4629      	mov	r1, r5
 8000464:	bd30      	pop	{r4, r5, pc}
 8000466:	f094 0f00 	teq	r4, #0
 800046a:	f483 1380 	eor.w	r3, r3, #1048576	; 0x100000
 800046e:	bf06      	itte	eq
 8000470:	f481 1180 	eoreq.w	r1, r1, #1048576	; 0x100000
 8000474:	3401      	addeq	r4, #1
 8000476:	3d01      	subne	r5, #1
 8000478:	e74e      	b.n	8000318 <__adddf3+0x8c>
 800047a:	ea7f 5c64 	mvns.w	ip, r4, asr #21
 800047e:	bf18      	it	ne
 8000480:	ea7f 5c65 	mvnsne.w	ip, r5, asr #21
 8000484:	d029      	beq.n	80004da <__adddf3+0x24e>
 8000486:	ea94 0f05 	teq	r4, r5
 800048a:	bf08      	it	eq
 800048c:	ea90 0f02 	teqeq	r0, r2
 8000490:	d005      	beq.n	800049e <__adddf3+0x212>
 8000492:	ea54 0c00 	orrs.w	ip, r4, r0
 8000496:	bf04      	itt	eq
 8000498:	4619      	moveq	r1, r3
 800049a:	4610      	moveq	r0, r2
 800049c:	bd30      	pop	{r4, r5, pc}
 800049e:	ea91 0f03 	teq	r1, r3
 80004a2:	bf1e      	ittt	ne
 80004a4:	2100      	movne	r1, #0
 80004a6:	2000      	movne	r0, #0
 80004a8:	bd30      	popne	{r4, r5, pc}
 80004aa:	ea5f 5c54 	movs.w	ip, r4, lsr #21
 80004ae:	d105      	bne.n	80004bc <__adddf3+0x230>
 80004b0:	0040      	lsls	r0, r0, #1
 80004b2:	4149      	adcs	r1, r1
 80004b4:	bf28      	it	cs
 80004b6:	f041 4100 	orrcs.w	r1, r1, #2147483648	; 0x80000000
 80004ba:	bd30      	pop	{r4, r5, pc}
 80004bc:	f514 0480 	adds.w	r4, r4, #4194304	; 0x400000
 80004c0:	bf3c      	itt	cc
 80004c2:	f501 1180 	addcc.w	r1, r1, #1048576	; 0x100000
 80004c6:	bd30      	popcc	{r4, r5, pc}
 80004c8:	f001 4500 	and.w	r5, r1, #2147483648	; 0x80000000
 80004cc:	f045 41fe 	orr.w	r1, r5, #2130706432	; 0x7f000000
 80004d0:	f441 0170 	orr.w	r1, r1, #15728640	; 0xf00000
 80004d4:	f04f 0000 	mov.w	r0, #0
 80004d8:	bd30      	pop	{r4, r5, pc}
 80004da:	ea7f 5c64 	mvns.w	ip, r4, asr #21
 80004de:	bf1a      	itte	ne
 80004e0:	4619      	movne	r1, r3
 80004e2:	4610      	movne	r0, r2
 80004e4:	ea7f 5c65 	mvnseq.w	ip, r5, asr #21
 80004e8:	bf1c      	itt	ne
 80004ea:	460b      	movne	r3, r1
 80004ec:	4602      	movne	r2, r0
 80004ee:	ea50 3401 	orrs.w	r4, r0, r1, lsl #12
 80004f2:	bf06      	itte	eq
 80004f4:	ea52 3503 	orrseq.w	r5, r2, r3, lsl #12
 80004f8:	ea91 0f03 	teqeq	r1, r3
 80004fc:	f441 2100 	orrne.w	r1, r1, #524288	; 0x80000
 8000500:	bd30      	pop	{r4, r5, pc}
 8000502:	bf00      	nop

08000504 <__aeabi_ui2d>:
 8000504:	f090 0f00 	teq	r0, #0
 8000508:	bf04      	itt	eq
 800050a:	2100      	moveq	r1, #0
 800050c:	4770      	bxeq	lr
 800050e:	b530      	push	{r4, r5, lr}
 8000510:	f44f 6480 	mov.w	r4, #1024	; 0x400
 8000514:	f104 0432 	add.w	r4, r4, #50	; 0x32
 8000518:	f04f 0500 	mov.w	r5, #0
 800051c:	f04f 0100 	mov.w	r1, #0
 8000520:	e750      	b.n	80003c4 <__adddf3+0x138>
 8000522:	bf00      	nop

08000524 <__aeabi_i2d>:
 8000524:	f090 0f00 	teq	r0, #0
 8000528:	bf04      	itt	eq
 800052a:	2100      	moveq	r1, #0
 800052c:	4770      	bxeq	lr
 800052e:	b530      	push	{r4, r5, lr}
 8000530:	f44f 6480 	mov.w	r4, #1024	; 0x400
 8000534:	f104 0432 	add.w	r4, r4, #50	; 0x32
 8000538:	f010 4500 	ands.w	r5, r0, #2147483648	; 0x80000000
 800053c:	bf48      	it	mi
 800053e:	4240      	negmi	r0, r0
 8000540:	f04f 0100 	mov.w	r1, #0
 8000544:	e73e      	b.n	80003c4 <__adddf3+0x138>
 8000546:	bf00      	nop

08000548 <__aeabi_f2d>:
 8000548:	0042      	lsls	r2, r0, #1
 800054a:	ea4f 01e2 	mov.w	r1, r2, asr #3
 800054e:	ea4f 0131 	mov.w	r1, r1, rrx
 8000552:	ea4f 7002 	mov.w	r0, r2, lsl #28
 8000556:	bf1f      	itttt	ne
 8000558:	f012 437f 	andsne.w	r3, r2, #4278190080	; 0xff000000
 800055c:	f093 4f7f 	teqne	r3, #4278190080	; 0xff000000
 8000560:	f081 5160 	eorne.w	r1, r1, #939524096	; 0x38000000
 8000564:	4770      	bxne	lr
 8000566:	f032 427f 	bics.w	r2, r2, #4278190080	; 0xff000000
 800056a:	bf08      	it	eq
 800056c:	4770      	bxeq	lr
 800056e:	f093 4f7f 	teq	r3, #4278190080	; 0xff000000
 8000572:	bf04      	itt	eq
 8000574:	f441 2100 	orreq.w	r1, r1, #524288	; 0x80000
 8000578:	4770      	bxeq	lr
 800057a:	b530      	push	{r4, r5, lr}
 800057c:	f44f 7460 	mov.w	r4, #896	; 0x380
 8000580:	f001 4500 	and.w	r5, r1, #2147483648	; 0x80000000
 8000584:	f021 4100 	bic.w	r1, r1, #2147483648	; 0x80000000
 8000588:	e71c      	b.n	80003c4 <__adddf3+0x138>
 800058a:	bf00      	nop

0800058c <__aeabi_ul2d>:
 800058c:	ea50 0201 	orrs.w	r2, r0, r1
 8000590:	bf08      	it	eq
 8000592:	4770      	bxeq	lr
 8000594:	b530      	push	{r4, r5, lr}
 8000596:	f04f 0500 	mov.w	r5, #0
 800059a:	e00a      	b.n	80005b2 <__aeabi_l2d+0x16>

0800059c <__aeabi_l2d>:
 800059c:	ea50 0201 	orrs.w	r2, r0, r1
 80005a0:	bf08      	it	eq
 80005a2:	4770      	bxeq	lr
 80005a4:	b530      	push	{r4, r5, lr}
 80005a6:	f011 4500 	ands.w	r5, r1, #2147483648	; 0x80000000
 80005aa:	d502      	bpl.n	80005b2 <__aeabi_l2d+0x16>
 80005ac:	4240      	negs	r0, r0
 80005ae:	eb61 0141 	sbc.w	r1, r1, r1, lsl #1
 80005b2:	f44f 6480 	mov.w	r4, #1024	; 0x400
 80005b6:	f104 0432 	add.w	r4, r4, #50	; 0x32
 80005ba:	ea5f 5c91 	movs.w	ip, r1, lsr #22
 80005be:	f43f aed8 	beq.w	8000372 <__adddf3+0xe6>
 80005c2:	f04f 0203 	mov.w	r2, #3
 80005c6:	ea5f 0cdc 	movs.w	ip, ip, lsr #3
 80005ca:	bf18      	it	ne
 80005cc:	3203      	addne	r2, #3
 80005ce:	ea5f 0cdc 	movs.w	ip, ip, lsr #3
 80005d2:	bf18      	it	ne
 80005d4:	3203      	addne	r2, #3
 80005d6:	eb02 02dc 	add.w	r2, r2, ip, lsr #3
 80005da:	f1c2 0320 	rsb	r3, r2, #32
 80005de:	fa00 fc03 	lsl.w	ip, r0, r3
 80005e2:	fa20 f002 	lsr.w	r0, r0, r2
 80005e6:	fa01 fe03 	lsl.w	lr, r1, r3
 80005ea:	ea40 000e 	orr.w	r0, r0, lr
 80005ee:	fa21 f102 	lsr.w	r1, r1, r2
 80005f2:	4414      	add	r4, r2
 80005f4:	e6bd      	b.n	8000372 <__adddf3+0xe6>
 80005f6:	bf00      	nop

080005f8 <__aeabi_dmul>:
 80005f8:	b570      	push	{r4, r5, r6, lr}
 80005fa:	f04f 0cff 	mov.w	ip, #255	; 0xff
 80005fe:	f44c 6ce0 	orr.w	ip, ip, #1792	; 0x700
 8000602:	ea1c 5411 	ands.w	r4, ip, r1, lsr #20
 8000606:	bf1d      	ittte	ne
 8000608:	ea1c 5513 	andsne.w	r5, ip, r3, lsr #20
 800060c:	ea94 0f0c 	teqne	r4, ip
 8000610:	ea95 0f0c 	teqne	r5, ip
 8000614:	f000 f8de 	bleq	80007d4 <__aeabi_dmul+0x1dc>
 8000618:	442c      	add	r4, r5
 800061a:	ea81 0603 	eor.w	r6, r1, r3
 800061e:	ea21 514c 	bic.w	r1, r1, ip, lsl #21
 8000622:	ea23 534c 	bic.w	r3, r3, ip, lsl #21
 8000626:	ea50 3501 	orrs.w	r5, r0, r1, lsl #12
 800062a:	bf18      	it	ne
 800062c:	ea52 3503 	orrsne.w	r5, r2, r3, lsl #12
 8000630:	f441 1180 	orr.w	r1, r1, #1048576	; 0x100000
 8000634:	f443 1380 	orr.w	r3, r3, #1048576	; 0x100000
 8000638:	d038      	beq.n	80006ac <__aeabi_dmul+0xb4>
 800063a:	fba0 ce02 	umull	ip, lr, r0, r2
 800063e:	f04f 0500 	mov.w	r5, #0
 8000642:	fbe1 e502 	umlal	lr, r5, r1, r2
 8000646:	f006 4200 	and.w	r2, r6, #2147483648	; 0x80000000
 800064a:	fbe0 e503 	umlal	lr, r5, r0, r3
 800064e:	f04f 0600 	mov.w	r6, #0
 8000652:	fbe1 5603 	umlal	r5, r6, r1, r3
 8000656:	f09c 0f00 	teq	ip, #0
 800065a:	bf18      	it	ne
 800065c:	f04e 0e01 	orrne.w	lr, lr, #1
 8000660:	f1a4 04ff 	sub.w	r4, r4, #255	; 0xff
 8000664:	f5b6 7f00 	cmp.w	r6, #512	; 0x200
 8000668:	f564 7440 	sbc.w	r4, r4, #768	; 0x300
 800066c:	d204      	bcs.n	8000678 <__aeabi_dmul+0x80>
 800066e:	ea5f 0e4e 	movs.w	lr, lr, lsl #1
 8000672:	416d      	adcs	r5, r5
 8000674:	eb46 0606 	adc.w	r6, r6, r6
 8000678:	ea42 21c6 	orr.w	r1, r2, r6, lsl #11
 800067c:	ea41 5155 	orr.w	r1, r1, r5, lsr #21
 8000680:	ea4f 20c5 	mov.w	r0, r5, lsl #11
 8000684:	ea40 505e 	orr.w	r0, r0, lr, lsr #21
 8000688:	ea4f 2ece 	mov.w	lr, lr, lsl #11
 800068c:	f1b4 0cfd 	subs.w	ip, r4, #253	; 0xfd
 8000690:	bf88      	it	hi
 8000692:	f5bc 6fe0 	cmphi.w	ip, #1792	; 0x700
 8000696:	d81e      	bhi.n	80006d6 <__aeabi_dmul+0xde>
 8000698:	f1be 4f00 	cmp.w	lr, #2147483648	; 0x80000000
 800069c:	bf08      	it	eq
 800069e:	ea5f 0e50 	movseq.w	lr, r0, lsr #1
 80006a2:	f150 0000 	adcs.w	r0, r0, #0
 80006a6:	eb41 5104 	adc.w	r1, r1, r4, lsl #20
 80006aa:	bd70      	pop	{r4, r5, r6, pc}
 80006ac:	f006 4600 	and.w	r6, r6, #2147483648	; 0x80000000
 80006b0:	ea46 0101 	orr.w	r1, r6, r1
 80006b4:	ea40 0002 	orr.w	r0, r0, r2
 80006b8:	ea81 0103 	eor.w	r1, r1, r3
 80006bc:	ebb4 045c 	subs.w	r4, r4, ip, lsr #1
 80006c0:	bfc2      	ittt	gt
 80006c2:	ebd4 050c 	rsbsgt	r5, r4, ip
 80006c6:	ea41 5104 	orrgt.w	r1, r1, r4, lsl #20
 80006ca:	bd70      	popgt	{r4, r5, r6, pc}
 80006cc:	f441 1180 	orr.w	r1, r1, #1048576	; 0x100000
 80006d0:	f04f 0e00 	mov.w	lr, #0
 80006d4:	3c01      	subs	r4, #1
 80006d6:	f300 80ab 	bgt.w	8000830 <__aeabi_dmul+0x238>
 80006da:	f114 0f36 	cmn.w	r4, #54	; 0x36
 80006de:	bfde      	ittt	le
 80006e0:	2000      	movle	r0, #0
 80006e2:	f001 4100 	andle.w	r1, r1, #2147483648	; 0x80000000
 80006e6:	bd70      	pople	{r4, r5, r6, pc}
 80006e8:	f1c4 0400 	rsb	r4, r4, #0
 80006ec:	3c20      	subs	r4, #32
 80006ee:	da35      	bge.n	800075c <__aeabi_dmul+0x164>
 80006f0:	340c      	adds	r4, #12
 80006f2:	dc1b      	bgt.n	800072c <__aeabi_dmul+0x134>
 80006f4:	f104 0414 	add.w	r4, r4, #20
 80006f8:	f1c4 0520 	rsb	r5, r4, #32
 80006fc:	fa00 f305 	lsl.w	r3, r0, r5
 8000700:	fa20 f004 	lsr.w	r0, r0, r4
 8000704:	fa01 f205 	lsl.w	r2, r1, r5
 8000708:	ea40 0002 	orr.w	r0, r0, r2
 800070c:	f001 4200 	and.w	r2, r1, #2147483648	; 0x80000000
 8000710:	f021 4100 	bic.w	r1, r1, #2147483648	; 0x80000000
 8000714:	eb10 70d3 	adds.w	r0, r0, r3, lsr #31
 8000718:	fa21 f604 	lsr.w	r6, r1, r4
 800071c:	eb42 0106 	adc.w	r1, r2, r6
 8000720:	ea5e 0e43 	orrs.w	lr, lr, r3, lsl #1
 8000724:	bf08      	it	eq
 8000726:	ea20 70d3 	biceq.w	r0, r0, r3, lsr #31
 800072a:	bd70      	pop	{r4, r5, r6, pc}
 800072c:	f1c4 040c 	rsb	r4, r4, #12
 8000730:	f1c4 0520 	rsb	r5, r4, #32
 8000734:	fa00 f304 	lsl.w	r3, r0, r4
 8000738:	fa20 f005 	lsr.w	r0, r0, r5
 800073c:	fa01 f204 	lsl.w	r2, r1, r4
 8000740:	ea40 0002 	orr.w	r0, r0, r2
 8000744:	f001 4100 	and.w	r1, r1, #2147483648	; 0x80000000
 8000748:	eb10 70d3 	adds.w	r0, r0, r3, lsr #31
 800074c:	f141 0100 	adc.w	r1, r1, #0
 8000750:	ea5e 0e43 	orrs.w	lr, lr, r3, lsl #1
 8000754:	bf08      	it	eq
 8000756:	ea20 70d3 	biceq.w	r0, r0, r3, lsr #31
 800075a:	bd70      	pop	{r4, r5, r6, pc}
 800075c:	f1c4 0520 	rsb	r5, r4, #32
 8000760:	fa00 f205 	lsl.w	r2, r0, r5
 8000764:	ea4e 0e02 	orr.w	lr, lr, r2
 8000768:	fa20 f304 	lsr.w	r3, r0, r4
 800076c:	fa01 f205 	lsl.w	r2, r1, r5
 8000770:	ea43 0302 	orr.w	r3, r3, r2
 8000774:	fa21 f004 	lsr.w	r0, r1, r4
 8000778:	f001 4100 	and.w	r1, r1, #2147483648	; 0x80000000
 800077c:	fa21 f204 	lsr.w	r2, r1, r4
 8000780:	ea20 0002 	bic.w	r0, r0, r2
 8000784:	eb00 70d3 	add.w	r0, r0, r3, lsr #31
 8000788:	ea5e 0e43 	orrs.w	lr, lr, r3, lsl #1
 800078c:	bf08      	it	eq
 800078e:	ea20 70d3 	biceq.w	r0, r0, r3, lsr #31
 8000792:	bd70      	pop	{r4, r5, r6, pc}
 8000794:	f094 0f00 	teq	r4, #0
 8000798:	d10f      	bne.n	80007ba <__aeabi_dmul+0x1c2>
 800079a:	f001 4600 	and.w	r6, r1, #2147483648	; 0x80000000
 800079e:	0040      	lsls	r0, r0, #1
 80007a0:	eb41 0101 	adc.w	r1, r1, r1
 80007a4:	f411 1f80 	tst.w	r1, #1048576	; 0x100000
 80007a8:	bf08      	it	eq
 80007aa:	3c01      	subeq	r4, #1
 80007ac:	d0f7      	beq.n	800079e <__aeabi_dmul+0x1a6>
 80007ae:	ea41 0106 	orr.w	r1, r1, r6
 80007b2:	f095 0f00 	teq	r5, #0
 80007b6:	bf18      	it	ne
 80007b8:	4770      	bxne	lr
 80007ba:	f003 4600 	and.w	r6, r3, #2147483648	; 0x80000000
 80007be:	0052      	lsls	r2, r2, #1
 80007c0:	eb43 0303 	adc.w	r3, r3, r3
 80007c4:	f413 1f80 	tst.w	r3, #1048576	; 0x100000
 80007c8:	bf08      	it	eq
 80007ca:	3d01      	subeq	r5, #1
 80007cc:	d0f7      	beq.n	80007be <__aeabi_dmul+0x1c6>
 80007ce:	ea43 0306 	orr.w	r3, r3, r6
 80007d2:	4770      	bx	lr
 80007d4:	ea94 0f0c 	teq	r4, ip
 80007d8:	ea0c 5513 	and.w	r5, ip, r3, lsr #20
 80007dc:	bf18      	it	ne
 80007de:	ea95 0f0c 	teqne	r5, ip
 80007e2:	d00c      	beq.n	80007fe <__aeabi_dmul+0x206>
 80007e4:	ea50 0641 	orrs.w	r6, r0, r1, lsl #1
 80007e8:	bf18      	it	ne
 80007ea:	ea52 0643 	orrsne.w	r6, r2, r3, lsl #1
 80007ee:	d1d1      	bne.n	8000794 <__aeabi_dmul+0x19c>
 80007f0:	ea81 0103 	eor.w	r1, r1, r3
 80007f4:	f001 4100 	and.w	r1, r1, #2147483648	; 0x80000000
 80007f8:	f04f 0000 	mov.w	r0, #0
 80007fc:	bd70      	pop	{r4, r5, r6, pc}
 80007fe:	ea50 0641 	orrs.w	r6, r0, r1, lsl #1
 8000802:	bf06      	itte	eq
 8000804:	4610      	moveq	r0, r2
 8000806:	4619      	moveq	r1, r3
 8000808:	ea52 0643 	orrsne.w	r6, r2, r3, lsl #1
 800080c:	d019      	beq.n	8000842 <__aeabi_dmul+0x24a>
 800080e:	ea94 0f0c 	teq	r4, ip
 8000812:	d102      	bne.n	800081a <__aeabi_dmul+0x222>
 8000814:	ea50 3601 	orrs.w	r6, r0, r1, lsl #12
 8000818:	d113      	bne.n	8000842 <__aeabi_dmul+0x24a>
 800081a:	ea95 0f0c 	teq	r5, ip
 800081e:	d105      	bne.n	800082c <__aeabi_dmul+0x234>
 8000820:	ea52 3603 	orrs.w	r6, r2, r3, lsl #12
 8000824:	bf1c      	itt	ne
 8000826:	4610      	movne	r0, r2
 8000828:	4619      	movne	r1, r3
 800082a:	d10a      	bne.n	8000842 <__aeabi_dmul+0x24a>
 800082c:	ea81 0103 	eor.w	r1, r1, r3
 8000830:	f001 4100 	and.w	r1, r1, #2147483648	; 0x80000000
 8000834:	f041 41fe 	orr.w	r1, r1, #2130706432	; 0x7f000000
 8000838:	f441 0170 	orr.w	r1, r1, #15728640	; 0xf00000
 800083c:	f04f 0000 	mov.w	r0, #0
 8000840:	bd70      	pop	{r4, r5, r6, pc}
 8000842:	f041 41fe 	orr.w	r1, r1, #2130706432	; 0x7f000000
 8000846:	f441 0178 	orr.w	r1, r1, #16252928	; 0xf80000
 800084a:	bd70      	pop	{r4, r5, r6, pc}

0800084c <__aeabi_ddiv>:
 800084c:	b570      	push	{r4, r5, r6, lr}
 800084e:	f04f 0cff 	mov.w	ip, #255	; 0xff
 8000852:	f44c 6ce0 	orr.w	ip, ip, #1792	; 0x700
 8000856:	ea1c 5411 	ands.w	r4, ip, r1, lsr #20
 800085a:	bf1d      	ittte	ne
 800085c:	ea1c 5513 	andsne.w	r5, ip, r3, lsr #20
 8000860:	ea94 0f0c 	teqne	r4, ip
 8000864:	ea95 0f0c 	teqne	r5, ip
 8000868:	f000 f8a7 	bleq	80009ba <__aeabi_ddiv+0x16e>
 800086c:	eba4 0405 	sub.w	r4, r4, r5
 8000870:	ea81 0e03 	eor.w	lr, r1, r3
 8000874:	ea52 3503 	orrs.w	r5, r2, r3, lsl #12
 8000878:	ea4f 3101 	mov.w	r1, r1, lsl #12
 800087c:	f000 8088 	beq.w	8000990 <__aeabi_ddiv+0x144>
 8000880:	ea4f 3303 	mov.w	r3, r3, lsl #12
 8000884:	f04f 5580 	mov.w	r5, #268435456	; 0x10000000
 8000888:	ea45 1313 	orr.w	r3, r5, r3, lsr #4
 800088c:	ea43 6312 	orr.w	r3, r3, r2, lsr #24
 8000890:	ea4f 2202 	mov.w	r2, r2, lsl #8
 8000894:	ea45 1511 	orr.w	r5, r5, r1, lsr #4
 8000898:	ea45 6510 	orr.w	r5, r5, r0, lsr #24
 800089c:	ea4f 2600 	mov.w	r6, r0, lsl #8
 80008a0:	f00e 4100 	and.w	r1, lr, #2147483648	; 0x80000000
 80008a4:	429d      	cmp	r5, r3
 80008a6:	bf08      	it	eq
 80008a8:	4296      	cmpeq	r6, r2
 80008aa:	f144 04fd 	adc.w	r4, r4, #253	; 0xfd
 80008ae:	f504 7440 	add.w	r4, r4, #768	; 0x300
 80008b2:	d202      	bcs.n	80008ba <__aeabi_ddiv+0x6e>
 80008b4:	085b      	lsrs	r3, r3, #1
 80008b6:	ea4f 0232 	mov.w	r2, r2, rrx
 80008ba:	1ab6      	subs	r6, r6, r2
 80008bc:	eb65 0503 	sbc.w	r5, r5, r3
 80008c0:	085b      	lsrs	r3, r3, #1
 80008c2:	ea4f 0232 	mov.w	r2, r2, rrx
 80008c6:	f44f 1080 	mov.w	r0, #1048576	; 0x100000
 80008ca:	f44f 2c00 	mov.w	ip, #524288	; 0x80000
 80008ce:	ebb6 0e02 	subs.w	lr, r6, r2
 80008d2:	eb75 0e03 	sbcs.w	lr, r5, r3
 80008d6:	bf22      	ittt	cs
 80008d8:	1ab6      	subcs	r6, r6, r2
 80008da:	4675      	movcs	r5, lr
 80008dc:	ea40 000c 	orrcs.w	r0, r0, ip
 80008e0:	085b      	lsrs	r3, r3, #1
 80008e2:	ea4f 0232 	mov.w	r2, r2, rrx
 80008e6:	ebb6 0e02 	subs.w	lr, r6, r2
 80008ea:	eb75 0e03 	sbcs.w	lr, r5, r3
 80008ee:	bf22      	ittt	cs
 80008f0:	1ab6      	subcs	r6, r6, r2
 80008f2:	4675      	movcs	r5, lr
 80008f4:	ea40 005c 	orrcs.w	r0, r0, ip, lsr #1
 80008f8:	085b      	lsrs	r3, r3, #1
 80008fa:	ea4f 0232 	mov.w	r2, r2, rrx
 80008fe:	ebb6 0e02 	subs.w	lr, r6, r2
 8000902:	eb75 0e03 	sbcs.w	lr, r5, r3
 8000906:	bf22      	ittt	cs
 8000908:	1ab6      	subcs	r6, r6, r2
 800090a:	4675      	movcs	r5, lr
 800090c:	ea40 009c 	orrcs.w	r0, r0, ip, lsr #2
 8000910:	085b      	lsrs	r3, r3, #1
 8000912:	ea4f 0232 	mov.w	r2, r2, rrx
 8000916:	ebb6 0e02 	subs.w	lr, r6, r2
 800091a:	eb75 0e03 	sbcs.w	lr, r5, r3
 800091e:	bf22      	ittt	cs
 8000920:	1ab6      	subcs	r6, r6, r2
 8000922:	4675      	movcs	r5, lr
 8000924:	ea40 00dc 	orrcs.w	r0, r0, ip, lsr #3
 8000928:	ea55 0e06 	orrs.w	lr, r5, r6
 800092c:	d018      	beq.n	8000960 <__aeabi_ddiv+0x114>
 800092e:	ea4f 1505 	mov.w	r5, r5, lsl #4
 8000932:	ea45 7516 	orr.w	r5, r5, r6, lsr #28
 8000936:	ea4f 1606 	mov.w	r6, r6, lsl #4
 800093a:	ea4f 03c3 	mov.w	r3, r3, lsl #3
 800093e:	ea43 7352 	orr.w	r3, r3, r2, lsr #29
 8000942:	ea4f 02c2 	mov.w	r2, r2, lsl #3
 8000946:	ea5f 1c1c 	movs.w	ip, ip, lsr #4
 800094a:	d1c0      	bne.n	80008ce <__aeabi_ddiv+0x82>
 800094c:	f411 1f80 	tst.w	r1, #1048576	; 0x100000
 8000950:	d10b      	bne.n	800096a <__aeabi_ddiv+0x11e>
 8000952:	ea41 0100 	orr.w	r1, r1, r0
 8000956:	f04f 0000 	mov.w	r0, #0
 800095a:	f04f 4c00 	mov.w	ip, #2147483648	; 0x80000000
 800095e:	e7b6      	b.n	80008ce <__aeabi_ddiv+0x82>
 8000960:	f411 1f80 	tst.w	r1, #1048576	; 0x100000
 8000964:	bf04      	itt	eq
 8000966:	4301      	orreq	r1, r0
 8000968:	2000      	moveq	r0, #0
 800096a:	f1b4 0cfd 	subs.w	ip, r4, #253	; 0xfd
 800096e:	bf88      	it	hi
 8000970:	f5bc 6fe0 	cmphi.w	ip, #1792	; 0x700
 8000974:	f63f aeaf 	bhi.w	80006d6 <__aeabi_dmul+0xde>
 8000978:	ebb5 0c03 	subs.w	ip, r5, r3
 800097c:	bf04      	itt	eq
 800097e:	ebb6 0c02 	subseq.w	ip, r6, r2
 8000982:	ea5f 0c50 	movseq.w	ip, r0, lsr #1
 8000986:	f150 0000 	adcs.w	r0, r0, #0
 800098a:	eb41 5104 	adc.w	r1, r1, r4, lsl #20
 800098e:	bd70      	pop	{r4, r5, r6, pc}
 8000990:	f00e 4e00 	and.w	lr, lr, #2147483648	; 0x80000000
 8000994:	ea4e 3111 	orr.w	r1, lr, r1, lsr #12
 8000998:	eb14 045c 	adds.w	r4, r4, ip, lsr #1
 800099c:	bfc2      	ittt	gt
 800099e:	ebd4 050c 	rsbsgt	r5, r4, ip
 80009a2:	ea41 5104 	orrgt.w	r1, r1, r4, lsl #20
 80009a6:	bd70      	popgt	{r4, r5, r6, pc}
 80009a8:	f441 1180 	orr.w	r1, r1, #1048576	; 0x100000
 80009ac:	f04f 0e00 	mov.w	lr, #0
 80009b0:	3c01      	subs	r4, #1
 80009b2:	e690      	b.n	80006d6 <__aeabi_dmul+0xde>
 80009b4:	ea45 0e06 	orr.w	lr, r5, r6
 80009b8:	e68d      	b.n	80006d6 <__aeabi_dmul+0xde>
 80009ba:	ea0c 5513 	and.w	r5, ip, r3, lsr #20
 80009be:	ea94 0f0c 	teq	r4, ip
 80009c2:	bf08      	it	eq
 80009c4:	ea95 0f0c 	teqeq	r5, ip
 80009c8:	f43f af3b 	beq.w	8000842 <__aeabi_dmul+0x24a>
 80009cc:	ea94 0f0c 	teq	r4, ip
 80009d0:	d10a      	bne.n	80009e8 <__aeabi_ddiv+0x19c>
 80009d2:	ea50 3401 	orrs.w	r4, r0, r1, lsl #12
 80009d6:	f47f af34 	bne.w	8000842 <__aeabi_dmul+0x24a>
 80009da:	ea95 0f0c 	teq	r5, ip
 80009de:	f47f af25 	bne.w	800082c <__aeabi_dmul+0x234>
 80009e2:	4610      	mov	r0, r2
 80009e4:	4619      	mov	r1, r3
 80009e6:	e72c      	b.n	8000842 <__aeabi_dmul+0x24a>
 80009e8:	ea95 0f0c 	teq	r5, ip
 80009ec:	d106      	bne.n	80009fc <__aeabi_ddiv+0x1b0>
 80009ee:	ea52 3503 	orrs.w	r5, r2, r3, lsl #12
 80009f2:	f43f aefd 	beq.w	80007f0 <__aeabi_dmul+0x1f8>
 80009f6:	4610      	mov	r0, r2
 80009f8:	4619      	mov	r1, r3
 80009fa:	e722      	b.n	8000842 <__aeabi_dmul+0x24a>
 80009fc:	ea50 0641 	orrs.w	r6, r0, r1, lsl #1
 8000a00:	bf18      	it	ne
 8000a02:	ea52 0643 	orrsne.w	r6, r2, r3, lsl #1
 8000a06:	f47f aec5 	bne.w	8000794 <__aeabi_dmul+0x19c>
 8000a0a:	ea50 0441 	orrs.w	r4, r0, r1, lsl #1
 8000a0e:	f47f af0d 	bne.w	800082c <__aeabi_dmul+0x234>
 8000a12:	ea52 0543 	orrs.w	r5, r2, r3, lsl #1
 8000a16:	f47f aeeb 	bne.w	80007f0 <__aeabi_dmul+0x1f8>
 8000a1a:	e712      	b.n	8000842 <__aeabi_dmul+0x24a>

08000a1c <__gedf2>:
 8000a1c:	f04f 3cff 	mov.w	ip, #4294967295
 8000a20:	e006      	b.n	8000a30 <__cmpdf2+0x4>
 8000a22:	bf00      	nop

08000a24 <__ledf2>:
 8000a24:	f04f 0c01 	mov.w	ip, #1
 8000a28:	e002      	b.n	8000a30 <__cmpdf2+0x4>
 8000a2a:	bf00      	nop

08000a2c <__cmpdf2>:
 8000a2c:	f04f 0c01 	mov.w	ip, #1
 8000a30:	f84d cd04 	str.w	ip, [sp, #-4]!
 8000a34:	ea4f 0c41 	mov.w	ip, r1, lsl #1
 8000a38:	ea7f 5c6c 	mvns.w	ip, ip, asr #21
 8000a3c:	ea4f 0c43 	mov.w	ip, r3, lsl #1
 8000a40:	bf18      	it	ne
 8000a42:	ea7f 5c6c 	mvnsne.w	ip, ip, asr #21
 8000a46:	d01b      	beq.n	8000a80 <__cmpdf2+0x54>
 8000a48:	b001      	add	sp, #4
 8000a4a:	ea50 0c41 	orrs.w	ip, r0, r1, lsl #1
 8000a4e:	bf0c      	ite	eq
 8000a50:	ea52 0c43 	orrseq.w	ip, r2, r3, lsl #1
 8000a54:	ea91 0f03 	teqne	r1, r3
 8000a58:	bf02      	ittt	eq
 8000a5a:	ea90 0f02 	teqeq	r0, r2
 8000a5e:	2000      	moveq	r0, #0
 8000a60:	4770      	bxeq	lr
 8000a62:	f110 0f00 	cmn.w	r0, #0
 8000a66:	ea91 0f03 	teq	r1, r3
 8000a6a:	bf58      	it	pl
 8000a6c:	4299      	cmppl	r1, r3
 8000a6e:	bf08      	it	eq
 8000a70:	4290      	cmpeq	r0, r2
 8000a72:	bf2c      	ite	cs
 8000a74:	17d8      	asrcs	r0, r3, #31
 8000a76:	ea6f 70e3 	mvncc.w	r0, r3, asr #31
 8000a7a:	f040 0001 	orr.w	r0, r0, #1
 8000a7e:	4770      	bx	lr
 8000a80:	ea4f 0c41 	mov.w	ip, r1, lsl #1
 8000a84:	ea7f 5c6c 	mvns.w	ip, ip, asr #21
 8000a88:	d102      	bne.n	8000a90 <__cmpdf2+0x64>
 8000a8a:	ea50 3c01 	orrs.w	ip, r0, r1, lsl #12
 8000a8e:	d107      	bne.n	8000aa0 <__cmpdf2+0x74>
 8000a90:	ea4f 0c43 	mov.w	ip, r3, lsl #1
 8000a94:	ea7f 5c6c 	mvns.w	ip, ip, asr #21
 8000a98:	d1d6      	bne.n	8000a48 <__cmpdf2+0x1c>
 8000a9a:	ea52 3c03 	orrs.w	ip, r2, r3, lsl #12
 8000a9e:	d0d3      	beq.n	8000a48 <__cmpdf2+0x1c>
 8000aa0:	f85d 0b04 	ldr.w	r0, [sp], #4
 8000aa4:	4770      	bx	lr
 8000aa6:	bf00      	nop

08000aa8 <__aeabi_cdrcmple>:
 8000aa8:	4684      	mov	ip, r0
 8000aaa:	4610      	mov	r0, r2
 8000aac:	4662      	mov	r2, ip
 8000aae:	468c      	mov	ip, r1
 8000ab0:	4619      	mov	r1, r3
 8000ab2:	4663      	mov	r3, ip
 8000ab4:	e000      	b.n	8000ab8 <__aeabi_cdcmpeq>
 8000ab6:	bf00      	nop

08000ab8 <__aeabi_cdcmpeq>:
 8000ab8:	b501      	push	{r0, lr}
 8000aba:	f7ff ffb7 	bl	8000a2c <__cmpdf2>
 8000abe:	2800      	cmp	r0, #0
 8000ac0:	bf48      	it	mi
 8000ac2:	f110 0f00 	cmnmi.w	r0, #0
 8000ac6:	bd01      	pop	{r0, pc}

08000ac8 <__aeabi_dcmpeq>:
 8000ac8:	f84d ed08 	str.w	lr, [sp, #-8]!
 8000acc:	f7ff fff4 	bl	8000ab8 <__aeabi_cdcmpeq>
 8000ad0:	bf0c      	ite	eq
 8000ad2:	2001      	moveq	r0, #1
 8000ad4:	2000      	movne	r0, #0
 8000ad6:	f85d fb08 	ldr.w	pc, [sp], #8
 8000ada:	bf00      	nop

08000adc <__aeabi_dcmplt>:
 8000adc:	f84d ed08 	str.w	lr, [sp, #-8]!
 8000ae0:	f7ff ffea 	bl	8000ab8 <__aeabi_cdcmpeq>
 8000ae4:	bf34      	ite	cc
 8000ae6:	2001      	movcc	r0, #1
 8000ae8:	2000      	movcs	r0, #0
 8000aea:	f85d fb08 	ldr.w	pc, [sp], #8
 8000aee:	bf00      	nop

08000af0 <__aeabi_dcmple>:
 8000af0:	f84d ed08 	str.w	lr, [sp, #-8]!
 8000af4:	f7ff ffe0 	bl	8000ab8 <__aeabi_cdcmpeq>
 8000af8:	bf94      	ite	ls
 8000afa:	2001      	movls	r0, #1
 8000afc:	2000      	movhi	r0, #0
 8000afe:	f85d fb08 	ldr.w	pc, [sp], #8
 8000b02:	bf00      	nop

08000b04 <__aeabi_dcmpge>:
 8000b04:	f84d ed08 	str.w	lr, [sp, #-8]!
 8000b08:	f7ff ffce 	bl	8000aa8 <__aeabi_cdrcmple>
 8000b0c:	bf94      	ite	ls
 8000b0e:	2001      	movls	r0, #1
 8000b10:	2000      	movhi	r0, #0
 8000b12:	f85d fb08 	ldr.w	pc, [sp], #8
 8000b16:	bf00      	nop

08000b18 <__aeabi_dcmpgt>:
 8000b18:	f84d ed08 	str.w	lr, [sp, #-8]!
 8000b1c:	f7ff ffc4 	bl	8000aa8 <__aeabi_cdrcmple>
 8000b20:	bf34      	ite	cc
 8000b22:	2001      	movcc	r0, #1
 8000b24:	2000      	movcs	r0, #0
 8000b26:	f85d fb08 	ldr.w	pc, [sp], #8
 8000b2a:	bf00      	nop

08000b2c <__aeabi_dcmpun>:
 8000b2c:	ea4f 0c41 	mov.w	ip, r1, lsl #1
 8000b30:	ea7f 5c6c 	mvns.w	ip, ip, asr #21
 8000b34:	d102      	bne.n	8000b3c <__aeabi_dcmpun+0x10>
 8000b36:	ea50 3c01 	orrs.w	ip, r0, r1, lsl #12
 8000b3a:	d10a      	bne.n	8000b52 <__aeabi_dcmpun+0x26>
 8000b3c:	ea4f 0c43 	mov.w	ip, r3, lsl #1
 8000b40:	ea7f 5c6c 	mvns.w	ip, ip, asr #21
 8000b44:	d102      	bne.n	8000b4c <__aeabi_dcmpun+0x20>
 8000b46:	ea52 3c03 	orrs.w	ip, r2, r3, lsl #12
 8000b4a:	d102      	bne.n	8000b52 <__aeabi_dcmpun+0x26>
 8000b4c:	f04f 0000 	mov.w	r0, #0
 8000b50:	4770      	bx	lr
 8000b52:	f04f 0001 	mov.w	r0, #1
 8000b56:	4770      	bx	lr

08000b58 <__aeabi_d2iz>:
 8000b58:	ea4f 0241 	mov.w	r2, r1, lsl #1
 8000b5c:	f512 1200 	adds.w	r2, r2, #2097152	; 0x200000
 8000b60:	d215      	bcs.n	8000b8e <__aeabi_d2iz+0x36>
 8000b62:	d511      	bpl.n	8000b88 <__aeabi_d2iz+0x30>
 8000b64:	f46f 7378 	mvn.w	r3, #992	; 0x3e0
 8000b68:	ebb3 5262 	subs.w	r2, r3, r2, asr #21
 8000b6c:	d912      	bls.n	8000b94 <__aeabi_d2iz+0x3c>
 8000b6e:	ea4f 23c1 	mov.w	r3, r1, lsl #11
 8000b72:	f043 4300 	orr.w	r3, r3, #2147483648	; 0x80000000
 8000b76:	ea43 5350 	orr.w	r3, r3, r0, lsr #21
 8000b7a:	f011 4f00 	tst.w	r1, #2147483648	; 0x80000000
 8000b7e:	fa23 f002 	lsr.w	r0, r3, r2
 8000b82:	bf18      	it	ne
 8000b84:	4240      	negne	r0, r0
 8000b86:	4770      	bx	lr
 8000b88:	f04f 0000 	mov.w	r0, #0
 8000b8c:	4770      	bx	lr
 8000b8e:	ea50 3001 	orrs.w	r0, r0, r1, lsl #12
 8000b92:	d105      	bne.n	8000ba0 <__aeabi_d2iz+0x48>
 8000b94:	f011 4000 	ands.w	r0, r1, #2147483648	; 0x80000000
 8000b98:	bf08      	it	eq
 8000b9a:	f06f 4000 	mvneq.w	r0, #2147483648	; 0x80000000
 8000b9e:	4770      	bx	lr
 8000ba0:	f04f 0000 	mov.w	r0, #0
 8000ba4:	4770      	bx	lr
 8000ba6:	bf00      	nop

08000ba8 <__aeabi_uldivmod>:
 8000ba8:	b953      	cbnz	r3, 8000bc0 <__aeabi_uldivmod+0x18>
 8000baa:	b94a      	cbnz	r2, 8000bc0 <__aeabi_uldivmod+0x18>
 8000bac:	2900      	cmp	r1, #0
 8000bae:	bf08      	it	eq
 8000bb0:	2800      	cmpeq	r0, #0
 8000bb2:	bf1c      	itt	ne
 8000bb4:	f04f 31ff 	movne.w	r1, #4294967295
 8000bb8:	f04f 30ff 	movne.w	r0, #4294967295
 8000bbc:	f000 b972 	b.w	8000ea4 <__aeabi_idiv0>
 8000bc0:	f1ad 0c08 	sub.w	ip, sp, #8
 8000bc4:	e96d ce04 	strd	ip, lr, [sp, #-16]!
 8000bc8:	f000 f806 	bl	8000bd8 <__udivmoddi4>
 8000bcc:	f8dd e004 	ldr.w	lr, [sp, #4]
 8000bd0:	e9dd 2302 	ldrd	r2, r3, [sp, #8]
 8000bd4:	b004      	add	sp, #16
 8000bd6:	4770      	bx	lr

08000bd8 <__udivmoddi4>:
 8000bd8:	e92d 47f0 	stmdb	sp!, {r4, r5, r6, r7, r8, r9, sl, lr}
 8000bdc:	9e08      	ldr	r6, [sp, #32]
 8000bde:	4604      	mov	r4, r0
 8000be0:	4688      	mov	r8, r1
 8000be2:	2b00      	cmp	r3, #0
 8000be4:	d14b      	bne.n	8000c7e <__udivmoddi4+0xa6>
 8000be6:	428a      	cmp	r2, r1
 8000be8:	4615      	mov	r5, r2
 8000bea:	d967      	bls.n	8000cbc <__udivmoddi4+0xe4>
 8000bec:	fab2 f282 	clz	r2, r2
 8000bf0:	b14a      	cbz	r2, 8000c06 <__udivmoddi4+0x2e>
 8000bf2:	f1c2 0720 	rsb	r7, r2, #32
 8000bf6:	fa01 f302 	lsl.w	r3, r1, r2
 8000bfa:	fa20 f707 	lsr.w	r7, r0, r7
 8000bfe:	4095      	lsls	r5, r2
 8000c00:	ea47 0803 	orr.w	r8, r7, r3
 8000c04:	4094      	lsls	r4, r2
 8000c06:	ea4f 4e15 	mov.w	lr, r5, lsr #16
 8000c0a:	0c23      	lsrs	r3, r4, #16
 8000c0c:	fbb8 f7fe 	udiv	r7, r8, lr
 8000c10:	fa1f fc85 	uxth.w	ip, r5
 8000c14:	fb0e 8817 	mls	r8, lr, r7, r8
 8000c18:	ea43 4308 	orr.w	r3, r3, r8, lsl #16
 8000c1c:	fb07 f10c 	mul.w	r1, r7, ip
 8000c20:	4299      	cmp	r1, r3
 8000c22:	d909      	bls.n	8000c38 <__udivmoddi4+0x60>
 8000c24:	18eb      	adds	r3, r5, r3
 8000c26:	f107 30ff 	add.w	r0, r7, #4294967295
 8000c2a:	f080 811b 	bcs.w	8000e64 <__udivmoddi4+0x28c>
 8000c2e:	4299      	cmp	r1, r3
 8000c30:	f240 8118 	bls.w	8000e64 <__udivmoddi4+0x28c>
 8000c34:	3f02      	subs	r7, #2
 8000c36:	442b      	add	r3, r5
 8000c38:	1a5b      	subs	r3, r3, r1
 8000c3a:	b2a4      	uxth	r4, r4
 8000c3c:	fbb3 f0fe 	udiv	r0, r3, lr
 8000c40:	fb0e 3310 	mls	r3, lr, r0, r3
 8000c44:	ea44 4403 	orr.w	r4, r4, r3, lsl #16
 8000c48:	fb00 fc0c 	mul.w	ip, r0, ip
 8000c4c:	45a4      	cmp	ip, r4
 8000c4e:	d909      	bls.n	8000c64 <__udivmoddi4+0x8c>
 8000c50:	192c      	adds	r4, r5, r4
 8000c52:	f100 33ff 	add.w	r3, r0, #4294967295
 8000c56:	f080 8107 	bcs.w	8000e68 <__udivmoddi4+0x290>
 8000c5a:	45a4      	cmp	ip, r4
 8000c5c:	f240 8104 	bls.w	8000e68 <__udivmoddi4+0x290>
 8000c60:	3802      	subs	r0, #2
 8000c62:	442c      	add	r4, r5
 8000c64:	ea40 4007 	orr.w	r0, r0, r7, lsl #16
 8000c68:	eba4 040c 	sub.w	r4, r4, ip
 8000c6c:	2700      	movs	r7, #0
 8000c6e:	b11e      	cbz	r6, 8000c78 <__udivmoddi4+0xa0>
 8000c70:	40d4      	lsrs	r4, r2
 8000c72:	2300      	movs	r3, #0
 8000c74:	e9c6 4300 	strd	r4, r3, [r6]
 8000c78:	4639      	mov	r1, r7
 8000c7a:	e8bd 87f0 	ldmia.w	sp!, {r4, r5, r6, r7, r8, r9, sl, pc}
 8000c7e:	428b      	cmp	r3, r1
 8000c80:	d909      	bls.n	8000c96 <__udivmoddi4+0xbe>
 8000c82:	2e00      	cmp	r6, #0
 8000c84:	f000 80eb 	beq.w	8000e5e <__udivmoddi4+0x286>
 8000c88:	2700      	movs	r7, #0
 8000c8a:	e9c6 0100 	strd	r0, r1, [r6]
 8000c8e:	4638      	mov	r0, r7
 8000c90:	4639      	mov	r1, r7
 8000c92:	e8bd 87f0 	ldmia.w	sp!, {r4, r5, r6, r7, r8, r9, sl, pc}
 8000c96:	fab3 f783 	clz	r7, r3
 8000c9a:	2f00      	cmp	r7, #0
 8000c9c:	d147      	bne.n	8000d2e <__udivmoddi4+0x156>
 8000c9e:	428b      	cmp	r3, r1
 8000ca0:	d302      	bcc.n	8000ca8 <__udivmoddi4+0xd0>
 8000ca2:	4282      	cmp	r2, r0
 8000ca4:	f200 80fa 	bhi.w	8000e9c <__udivmoddi4+0x2c4>
 8000ca8:	1a84      	subs	r4, r0, r2
 8000caa:	eb61 0303 	sbc.w	r3, r1, r3
 8000cae:	2001      	movs	r0, #1
 8000cb0:	4698      	mov	r8, r3
 8000cb2:	2e00      	cmp	r6, #0
 8000cb4:	d0e0      	beq.n	8000c78 <__udivmoddi4+0xa0>
 8000cb6:	e9c6 4800 	strd	r4, r8, [r6]
 8000cba:	e7dd      	b.n	8000c78 <__udivmoddi4+0xa0>
 8000cbc:	b902      	cbnz	r2, 8000cc0 <__udivmoddi4+0xe8>
 8000cbe:	deff      	udf	#255	; 0xff
 8000cc0:	fab2 f282 	clz	r2, r2
 8000cc4:	2a00      	cmp	r2, #0
 8000cc6:	f040 808f 	bne.w	8000de8 <__udivmoddi4+0x210>
 8000cca:	1b49      	subs	r1, r1, r5
 8000ccc:	ea4f 4e15 	mov.w	lr, r5, lsr #16
 8000cd0:	fa1f f885 	uxth.w	r8, r5
 8000cd4:	2701      	movs	r7, #1
 8000cd6:	fbb1 fcfe 	udiv	ip, r1, lr
 8000cda:	0c23      	lsrs	r3, r4, #16
 8000cdc:	fb0e 111c 	mls	r1, lr, ip, r1
 8000ce0:	ea43 4301 	orr.w	r3, r3, r1, lsl #16
 8000ce4:	fb08 f10c 	mul.w	r1, r8, ip
 8000ce8:	4299      	cmp	r1, r3
 8000cea:	d907      	bls.n	8000cfc <__udivmoddi4+0x124>
 8000cec:	18eb      	adds	r3, r5, r3
 8000cee:	f10c 30ff 	add.w	r0, ip, #4294967295
 8000cf2:	d202      	bcs.n	8000cfa <__udivmoddi4+0x122>
 8000cf4:	4299      	cmp	r1, r3
 8000cf6:	f200 80cd 	bhi.w	8000e94 <__udivmoddi4+0x2bc>
 8000cfa:	4684      	mov	ip, r0
 8000cfc:	1a59      	subs	r1, r3, r1
 8000cfe:	b2a3      	uxth	r3, r4
 8000d00:	fbb1 f0fe 	udiv	r0, r1, lr
 8000d04:	fb0e 1410 	mls	r4, lr, r0, r1
 8000d08:	ea43 4404 	orr.w	r4, r3, r4, lsl #16
 8000d0c:	fb08 f800 	mul.w	r8, r8, r0
 8000d10:	45a0      	cmp	r8, r4
 8000d12:	d907      	bls.n	8000d24 <__udivmoddi4+0x14c>
 8000d14:	192c      	adds	r4, r5, r4
 8000d16:	f100 33ff 	add.w	r3, r0, #4294967295
 8000d1a:	d202      	bcs.n	8000d22 <__udivmoddi4+0x14a>
 8000d1c:	45a0      	cmp	r8, r4
 8000d1e:	f200 80b6 	bhi.w	8000e8e <__udivmoddi4+0x2b6>
 8000d22:	4618      	mov	r0, r3
 8000d24:	eba4 0408 	sub.w	r4, r4, r8
 8000d28:	ea40 400c 	orr.w	r0, r0, ip, lsl #16
 8000d2c:	e79f      	b.n	8000c6e <__udivmoddi4+0x96>
 8000d2e:	f1c7 0c20 	rsb	ip, r7, #32
 8000d32:	40bb      	lsls	r3, r7
 8000d34:	fa22 fe0c 	lsr.w	lr, r2, ip
 8000d38:	ea4e 0e03 	orr.w	lr, lr, r3
 8000d3c:	fa01 f407 	lsl.w	r4, r1, r7
 8000d40:	fa20 f50c 	lsr.w	r5, r0, ip
 8000d44:	fa21 f30c 	lsr.w	r3, r1, ip
 8000d48:	ea4f 481e 	mov.w	r8, lr, lsr #16
 8000d4c:	4325      	orrs	r5, r4
 8000d4e:	fbb3 f9f8 	udiv	r9, r3, r8
 8000d52:	0c2c      	lsrs	r4, r5, #16
 8000d54:	fb08 3319 	mls	r3, r8, r9, r3
 8000d58:	fa1f fa8e 	uxth.w	sl, lr
 8000d5c:	ea44 4303 	orr.w	r3, r4, r3, lsl #16
 8000d60:	fb09 f40a 	mul.w	r4, r9, sl
 8000d64:	429c      	cmp	r4, r3
 8000d66:	fa02 f207 	lsl.w	r2, r2, r7
 8000d6a:	fa00 f107 	lsl.w	r1, r0, r7
 8000d6e:	d90b      	bls.n	8000d88 <__udivmoddi4+0x1b0>
 8000d70:	eb1e 0303 	adds.w	r3, lr, r3
 8000d74:	f109 30ff 	add.w	r0, r9, #4294967295
 8000d78:	f080 8087 	bcs.w	8000e8a <__udivmoddi4+0x2b2>
 8000d7c:	429c      	cmp	r4, r3
 8000d7e:	f240 8084 	bls.w	8000e8a <__udivmoddi4+0x2b2>
 8000d82:	f1a9 0902 	sub.w	r9, r9, #2
 8000d86:	4473      	add	r3, lr
 8000d88:	1b1b      	subs	r3, r3, r4
 8000d8a:	b2ad      	uxth	r5, r5
 8000d8c:	fbb3 f0f8 	udiv	r0, r3, r8
 8000d90:	fb08 3310 	mls	r3, r8, r0, r3
 8000d94:	ea45 4403 	orr.w	r4, r5, r3, lsl #16
 8000d98:	fb00 fa0a 	mul.w	sl, r0, sl
 8000d9c:	45a2      	cmp	sl, r4
 8000d9e:	d908      	bls.n	8000db2 <__udivmoddi4+0x1da>
 8000da0:	eb1e 0404 	adds.w	r4, lr, r4
 8000da4:	f100 33ff 	add.w	r3, r0, #4294967295
 8000da8:	d26b      	bcs.n	8000e82 <__udivmoddi4+0x2aa>
 8000daa:	45a2      	cmp	sl, r4
 8000dac:	d969      	bls.n	8000e82 <__udivmoddi4+0x2aa>
 8000dae:	3802      	subs	r0, #2
 8000db0:	4474      	add	r4, lr
 8000db2:	ea40 4009 	orr.w	r0, r0, r9, lsl #16
 8000db6:	fba0 8902 	umull	r8, r9, r0, r2
 8000dba:	eba4 040a 	sub.w	r4, r4, sl
 8000dbe:	454c      	cmp	r4, r9
 8000dc0:	46c2      	mov	sl, r8
 8000dc2:	464b      	mov	r3, r9
 8000dc4:	d354      	bcc.n	8000e70 <__udivmoddi4+0x298>
 8000dc6:	d051      	beq.n	8000e6c <__udivmoddi4+0x294>
 8000dc8:	2e00      	cmp	r6, #0
 8000dca:	d069      	beq.n	8000ea0 <__udivmoddi4+0x2c8>
 8000dcc:	ebb1 050a 	subs.w	r5, r1, sl
 8000dd0:	eb64 0403 	sbc.w	r4, r4, r3
 8000dd4:	fa04 fc0c 	lsl.w	ip, r4, ip
 8000dd8:	40fd      	lsrs	r5, r7
 8000dda:	40fc      	lsrs	r4, r7
 8000ddc:	ea4c 0505 	orr.w	r5, ip, r5
 8000de0:	e9c6 5400 	strd	r5, r4, [r6]
 8000de4:	2700      	movs	r7, #0
 8000de6:	e747      	b.n	8000c78 <__udivmoddi4+0xa0>
 8000de8:	f1c2 0320 	rsb	r3, r2, #32
 8000dec:	fa20 f703 	lsr.w	r7, r0, r3
 8000df0:	4095      	lsls	r5, r2
 8000df2:	fa01 f002 	lsl.w	r0, r1, r2
 8000df6:	fa21 f303 	lsr.w	r3, r1, r3
 8000dfa:	ea4f 4e15 	mov.w	lr, r5, lsr #16
 8000dfe:	4338      	orrs	r0, r7
 8000e00:	0c01      	lsrs	r1, r0, #16
 8000e02:	fbb3 f7fe 	udiv	r7, r3, lr
 8000e06:	fa1f f885 	uxth.w	r8, r5
 8000e0a:	fb0e 3317 	mls	r3, lr, r7, r3
 8000e0e:	ea41 4103 	orr.w	r1, r1, r3, lsl #16
 8000e12:	fb07 f308 	mul.w	r3, r7, r8
 8000e16:	428b      	cmp	r3, r1
 8000e18:	fa04 f402 	lsl.w	r4, r4, r2
 8000e1c:	d907      	bls.n	8000e2e <__udivmoddi4+0x256>
 8000e1e:	1869      	adds	r1, r5, r1
 8000e20:	f107 3cff 	add.w	ip, r7, #4294967295
 8000e24:	d22f      	bcs.n	8000e86 <__udivmoddi4+0x2ae>
 8000e26:	428b      	cmp	r3, r1
 8000e28:	d92d      	bls.n	8000e86 <__udivmoddi4+0x2ae>
 8000e2a:	3f02      	subs	r7, #2
 8000e2c:	4429      	add	r1, r5
 8000e2e:	1acb      	subs	r3, r1, r3
 8000e30:	b281      	uxth	r1, r0
 8000e32:	fbb3 f0fe 	udiv	r0, r3, lr
 8000e36:	fb0e 3310 	mls	r3, lr, r0, r3
 8000e3a:	ea41 4103 	orr.w	r1, r1, r3, lsl #16
 8000e3e:	fb00 f308 	mul.w	r3, r0, r8
 8000e42:	428b      	cmp	r3, r1
 8000e44:	d907      	bls.n	8000e56 <__udivmoddi4+0x27e>
 8000e46:	1869      	adds	r1, r5, r1
 8000e48:	f100 3cff 	add.w	ip, r0, #4294967295
 8000e4c:	d217      	bcs.n	8000e7e <__udivmoddi4+0x2a6>
 8000e4e:	428b      	cmp	r3, r1
 8000e50:	d915      	bls.n	8000e7e <__udivmoddi4+0x2a6>
 8000e52:	3802      	subs	r0, #2
 8000e54:	4429      	add	r1, r5
 8000e56:	1ac9      	subs	r1, r1, r3
 8000e58:	ea40 4707 	orr.w	r7, r0, r7, lsl #16
 8000e5c:	e73b      	b.n	8000cd6 <__udivmoddi4+0xfe>
 8000e5e:	4637      	mov	r7, r6
 8000e60:	4630      	mov	r0, r6
 8000e62:	e709      	b.n	8000c78 <__udivmoddi4+0xa0>
 8000e64:	4607      	mov	r7, r0
 8000e66:	e6e7      	b.n	8000c38 <__udivmoddi4+0x60>
 8000e68:	4618      	mov	r0, r3
 8000e6a:	e6fb      	b.n	8000c64 <__udivmoddi4+0x8c>
 8000e6c:	4541      	cmp	r1, r8
 8000e6e:	d2ab      	bcs.n	8000dc8 <__udivmoddi4+0x1f0>
 8000e70:	ebb8 0a02 	subs.w	sl, r8, r2
 8000e74:	eb69 020e 	sbc.w	r2, r9, lr
 8000e78:	3801      	subs	r0, #1
 8000e7a:	4613      	mov	r3, r2
 8000e7c:	e7a4      	b.n	8000dc8 <__udivmoddi4+0x1f0>
 8000e7e:	4660      	mov	r0, ip
 8000e80:	e7e9      	b.n	8000e56 <__udivmoddi4+0x27e>
 8000e82:	4618      	mov	r0, r3
 8000e84:	e795      	b.n	8000db2 <__udivmoddi4+0x1da>
 8000e86:	4667      	mov	r7, ip
 8000e88:	e7d1      	b.n	8000e2e <__udivmoddi4+0x256>
 8000e8a:	4681      	mov	r9, r0
 8000e8c:	e77c      	b.n	8000d88 <__udivmoddi4+0x1b0>
 8000e8e:	3802      	subs	r0, #2
 8000e90:	442c      	add	r4, r5
 8000e92:	e747      	b.n	8000d24 <__udivmoddi4+0x14c>
 8000e94:	f1ac 0c02 	sub.w	ip, ip, #2
 8000e98:	442b      	add	r3, r5
 8000e9a:	e72f      	b.n	8000cfc <__udivmoddi4+0x124>
 8000e9c:	4638      	mov	r0, r7
 8000e9e:	e708      	b.n	8000cb2 <__udivmoddi4+0xda>
 8000ea0:	4637      	mov	r7, r6
 8000ea2:	e6e9      	b.n	8000c78 <__udivmoddi4+0xa0>

08000ea4 <__aeabi_idiv0>:
 8000ea4:	4770      	bx	lr
 8000ea6:	bf00      	nop

08000ea8 <main>:
/**
  * @brief  The application entry point.
  * @retval int
  */
int main(void)
{
 8000ea8:	b590      	push	{r4, r7, lr}
 8000eaa:	b0a5      	sub	sp, #148	; 0x94
 8000eac:	af00      	add	r7, sp, #0
  /* USER CODE BEGIN 1 */
	uint32_t capture_difference       =0;
 8000eae:	2300      	movs	r3, #0
 8000eb0:	f8c7 308c 	str.w	r3, [r7, #140]	; 0x8c
	double user_signal_freq           =0;
 8000eb4:	f04f 0300 	mov.w	r3, #0
 8000eb8:	f04f 0400 	mov.w	r4, #0
 8000ebc:	e9c7 3420 	strd	r3, r4, [r7, #128]	; 0x80
	double timer2_cnt_freq            =0;
 8000ec0:	f04f 0300 	mov.w	r3, #0
 8000ec4:	f04f 0400 	mov.w	r4, #0
 8000ec8:	e9c7 341e 	strd	r3, r4, [r7, #120]	; 0x78
	double user_signal_time_period    =0;
 8000ecc:	f04f 0300 	mov.w	r3, #0
 8000ed0:	f04f 0400 	mov.w	r4, #0
 8000ed4:	e9c7 341c 	strd	r3, r4, [r7, #112]	; 0x70
	double timer2_cnt_res             =0;
 8000ed8:	f04f 0300 	mov.w	r3, #0
 8000edc:	f04f 0400 	mov.w	r4, #0
 8000ee0:	e9c7 341a 	strd	r3, r4, [r7, #104]	; 0x68
  /* USER CODE END 1 */
	char usr_msg[100];



  HAL_Init();
 8000ee4:	f000 fc46 	bl	8001774 <HAL_Init>


  SystemClock_Config();
 8000ee8:	f000 f886 	bl	8000ff8 <SystemClock_Config>


  MX_GPIO_Init();
 8000eec:	f000 f9be 	bl	800126c <MX_GPIO_Init>
  MX_TIM2_Init();
 8000ef0:	f000 f8ee 	bl	80010d0 <MX_TIM2_Init>
  MX_TIM6_Init();
 8000ef4:	f000 f95c 	bl	80011b0 <MX_TIM6_Init>
  MX_USART2_UART_Init();
 8000ef8:	f000 f98e 	bl	8001218 <MX_USART2_UART_Init>

  HAL_RCC_MCOConfig(RCC_MCO1, RCC_MCO1SOURCE_PLLCLK, RCC_MCODIV_1);
 8000efc:	2200      	movs	r2, #0
 8000efe:	f44f 01c0 	mov.w	r1, #6291456	; 0x600000
 8000f02:	2000      	movs	r0, #0
 8000f04:	f001 fb00 	bl	8002508 <HAL_RCC_MCOConfig>

  HAL_TIM_Base_Start_IT(&htim6);
 8000f08:	4834      	ldr	r0, [pc, #208]	; (8000fdc <main+0x134>)
 8000f0a:	f001 fc9c 	bl	8002846 <HAL_TIM_Base_Start_IT>
  HAL_TIM_IC_Start_IT(&htim2, TIM_CHANNEL_1);
 8000f0e:	2100      	movs	r1, #0
 8000f10:	4833      	ldr	r0, [pc, #204]	; (8000fe0 <main+0x138>)
 8000f12:	f001 fcf1 	bl	80028f8 <HAL_TIM_IC_Start_IT>
  while (1)
  {
	  if(is_capture_done)
 8000f16:	4b33      	ldr	r3, [pc, #204]	; (8000fe4 <main+0x13c>)
 8000f18:	781b      	ldrb	r3, [r3, #0]
 8000f1a:	b2db      	uxtb	r3, r3
 8000f1c:	2b00      	cmp	r3, #0
 8000f1e:	d0fa      	beq.n	8000f16 <main+0x6e>
	  {
		  if (input_capture[1]>input_capture[0])
 8000f20:	4b31      	ldr	r3, [pc, #196]	; (8000fe8 <main+0x140>)
 8000f22:	685a      	ldr	r2, [r3, #4]
 8000f24:	4b30      	ldr	r3, [pc, #192]	; (8000fe8 <main+0x140>)
 8000f26:	681b      	ldr	r3, [r3, #0]
 8000f28:	429a      	cmp	r2, r3
 8000f2a:	d907      	bls.n	8000f3c <main+0x94>
		  {
			  capture_difference = input_capture[1] - input_capture[0];
 8000f2c:	4b2e      	ldr	r3, [pc, #184]	; (8000fe8 <main+0x140>)
 8000f2e:	685a      	ldr	r2, [r3, #4]
 8000f30:	4b2d      	ldr	r3, [pc, #180]	; (8000fe8 <main+0x140>)
 8000f32:	681b      	ldr	r3, [r3, #0]
 8000f34:	1ad3      	subs	r3, r2, r3
 8000f36:	f8c7 308c 	str.w	r3, [r7, #140]	; 0x8c
 8000f3a:	e007      	b.n	8000f4c <main+0xa4>
		  }else
		  { //if capture1 greater than capture 2

			  capture_difference = (0xFFFFFFFF - input_capture[0] ) + input_capture[1];
 8000f3c:	4b2a      	ldr	r3, [pc, #168]	; (8000fe8 <main+0x140>)
 8000f3e:	685a      	ldr	r2, [r3, #4]
 8000f40:	4b29      	ldr	r3, [pc, #164]	; (8000fe8 <main+0x140>)
 8000f42:	681b      	ldr	r3, [r3, #0]
 8000f44:	1ad3      	subs	r3, r2, r3
 8000f46:	3b01      	subs	r3, #1
 8000f48:	f8c7 308c 	str.w	r3, [r7, #140]	; 0x8c
		  }
		  timer2_cnt_freq         =(HAL_RCC_GetHCLKFreq() /2); //50 /( 1+1) TIM2
 8000f4c:	f001 fc1c 	bl	8002788 <HAL_RCC_GetHCLKFreq>
 8000f50:	4603      	mov	r3, r0
 8000f52:	085b      	lsrs	r3, r3, #1
 8000f54:	4618      	mov	r0, r3
 8000f56:	f7ff fad5 	bl	8000504 <__aeabi_ui2d>
 8000f5a:	4603      	mov	r3, r0
 8000f5c:	460c      	mov	r4, r1
 8000f5e:	e9c7 341e 	strd	r3, r4, [r7, #120]	; 0x78
	 	  timer2_cnt_res          = 1/timer2_cnt_freq;
 8000f62:	e9d7 231e 	ldrd	r2, r3, [r7, #120]	; 0x78
 8000f66:	f04f 0000 	mov.w	r0, #0
 8000f6a:	4920      	ldr	r1, [pc, #128]	; (8000fec <main+0x144>)
 8000f6c:	f7ff fc6e 	bl	800084c <__aeabi_ddiv>
 8000f70:	4603      	mov	r3, r0
 8000f72:	460c      	mov	r4, r1
 8000f74:	e9c7 341a 	strd	r3, r4, [r7, #104]	; 0x68
		  user_signal_time_period = capture_difference * timer2_cnt_res;
 8000f78:	f8d7 008c 	ldr.w	r0, [r7, #140]	; 0x8c
 8000f7c:	f7ff fac2 	bl	8000504 <__aeabi_ui2d>
 8000f80:	4603      	mov	r3, r0
 8000f82:	460c      	mov	r4, r1
 8000f84:	461a      	mov	r2, r3
 8000f86:	4623      	mov	r3, r4
 8000f88:	e9d7 011a 	ldrd	r0, r1, [r7, #104]	; 0x68
 8000f8c:	f7ff fb34 	bl	80005f8 <__aeabi_dmul>
 8000f90:	4603      	mov	r3, r0
 8000f92:	460c      	mov	r4, r1
 8000f94:	e9c7 341c 	strd	r3, r4, [r7, #112]	; 0x70
		  user_signal_freq        = 1/user_signal_time_period;
 8000f98:	e9d7 231c 	ldrd	r2, r3, [r7, #112]	; 0x70
 8000f9c:	f04f 0000 	mov.w	r0, #0
 8000fa0:	4912      	ldr	r1, [pc, #72]	; (8000fec <main+0x144>)
 8000fa2:	f7ff fc53 	bl	800084c <__aeabi_ddiv>
 8000fa6:	4603      	mov	r3, r0
 8000fa8:	460c      	mov	r4, r1
 8000faa:	e9c7 3420 	strd	r3, r4, [r7, #128]	; 0x80

		  sprintf(usr_msg,"frequency of the signal applied = %.2f Hz\r\n",user_signal_freq );
 8000fae:	1d38      	adds	r0, r7, #4
 8000fb0:	e9d7 2320 	ldrd	r2, r3, [r7, #128]	; 0x80
 8000fb4:	490e      	ldr	r1, [pc, #56]	; (8000ff0 <main+0x148>)
 8000fb6:	f003 fe15 	bl	8004be4 <siprintf>
		  HAL_UART_Transmit(&huart2, (uint8_t *)usr_msg, strlen(usr_msg), HAL_MAX_DELAY);
 8000fba:	1d3b      	adds	r3, r7, #4
 8000fbc:	4618      	mov	r0, r3
 8000fbe:	f7ff f907 	bl	80001d0 <strlen>
 8000fc2:	4603      	mov	r3, r0
 8000fc4:	b29a      	uxth	r2, r3
 8000fc6:	1d39      	adds	r1, r7, #4
 8000fc8:	f04f 33ff 	mov.w	r3, #4294967295
 8000fcc:	4809      	ldr	r0, [pc, #36]	; (8000ff4 <main+0x14c>)
 8000fce:	f002 fadc 	bl	800358a <HAL_UART_Transmit>
		  is_capture_done = FALSE;
 8000fd2:	4b04      	ldr	r3, [pc, #16]	; (8000fe4 <main+0x13c>)
 8000fd4:	2200      	movs	r2, #0
 8000fd6:	701a      	strb	r2, [r3, #0]
	  if(is_capture_done)
 8000fd8:	e79d      	b.n	8000f16 <main+0x6e>
 8000fda:	bf00      	nop
 8000fdc:	20000214 	.word	0x20000214
 8000fe0:	20000254 	.word	0x20000254
 8000fe4:	20000204 	.word	0x20000204
 8000fe8:	200001fc 	.word	0x200001fc
 8000fec:	3ff00000 	.word	0x3ff00000
 8000ff0:	080063c0 	.word	0x080063c0
 8000ff4:	20000294 	.word	0x20000294

08000ff8 <SystemClock_Config>:
/**
  * @brief System Clock Configuration
  * @retval None
  */
void SystemClock_Config(void)
{
 8000ff8:	b580      	push	{r7, lr}
 8000ffa:	b094      	sub	sp, #80	; 0x50
 8000ffc:	af00      	add	r7, sp, #0
  RCC_OscInitTypeDef RCC_OscInitStruct = {0};
 8000ffe:	f107 0320 	add.w	r3, r7, #32
 8001002:	2230      	movs	r2, #48	; 0x30
 8001004:	2100      	movs	r1, #0
 8001006:	4618      	mov	r0, r3
 8001008:	f003 f988 	bl	800431c <memset>
  RCC_ClkInitTypeDef RCC_ClkInitStruct = {0};
 800100c:	f107 030c 	add.w	r3, r7, #12
 8001010:	2200      	movs	r2, #0
 8001012:	601a      	str	r2, [r3, #0]
 8001014:	605a      	str	r2, [r3, #4]
 8001016:	609a      	str	r2, [r3, #8]
 8001018:	60da      	str	r2, [r3, #12]
 800101a:	611a      	str	r2, [r3, #16]

  /** Configure the main internal regulator output voltage 
  */
  __HAL_RCC_PWR_CLK_ENABLE();
 800101c:	2300      	movs	r3, #0
 800101e:	60bb      	str	r3, [r7, #8]
 8001020:	4b29      	ldr	r3, [pc, #164]	; (80010c8 <SystemClock_Config+0xd0>)
 8001022:	6c1b      	ldr	r3, [r3, #64]	; 0x40
 8001024:	4a28      	ldr	r2, [pc, #160]	; (80010c8 <SystemClock_Config+0xd0>)
 8001026:	f043 5380 	orr.w	r3, r3, #268435456	; 0x10000000
 800102a:	6413      	str	r3, [r2, #64]	; 0x40
 800102c:	4b26      	ldr	r3, [pc, #152]	; (80010c8 <SystemClock_Config+0xd0>)
 800102e:	6c1b      	ldr	r3, [r3, #64]	; 0x40
 8001030:	f003 5380 	and.w	r3, r3, #268435456	; 0x10000000
 8001034:	60bb      	str	r3, [r7, #8]
 8001036:	68bb      	ldr	r3, [r7, #8]
  __HAL_PWR_VOLTAGESCALING_CONFIG(PWR_REGULATOR_VOLTAGE_SCALE1);
 8001038:	2300      	movs	r3, #0
 800103a:	607b      	str	r3, [r7, #4]
 800103c:	4b23      	ldr	r3, [pc, #140]	; (80010cc <SystemClock_Config+0xd4>)
 800103e:	681b      	ldr	r3, [r3, #0]
 8001040:	4a22      	ldr	r2, [pc, #136]	; (80010cc <SystemClock_Config+0xd4>)
 8001042:	f443 4380 	orr.w	r3, r3, #16384	; 0x4000
 8001046:	6013      	str	r3, [r2, #0]
 8001048:	4b20      	ldr	r3, [pc, #128]	; (80010cc <SystemClock_Config+0xd4>)
 800104a:	681b      	ldr	r3, [r3, #0]
 800104c:	f403 4380 	and.w	r3, r3, #16384	; 0x4000
 8001050:	607b      	str	r3, [r7, #4]
 8001052:	687b      	ldr	r3, [r7, #4]
  /** Initializes the CPU, AHB and APB busses clocks 
  */
  RCC_OscInitStruct.OscillatorType = RCC_OSCILLATORTYPE_HSI|RCC_OSCILLATORTYPE_HSE;
 8001054:	2303      	movs	r3, #3
 8001056:	623b      	str	r3, [r7, #32]
  RCC_OscInitStruct.HSIState = RCC_HSI_ON;
 8001058:	2301      	movs	r3, #1
 800105a:	62fb      	str	r3, [r7, #44]	; 0x2c
  RCC_OscInitStruct.HSEState = RCC_HSE_ON;
 800105c:	f44f 3380 	mov.w	r3, #65536	; 0x10000
 8001060:	627b      	str	r3, [r7, #36]	; 0x24
  RCC_OscInitStruct.HSICalibrationValue = RCC_HSICALIBRATION_DEFAULT;
 8001062:	2310      	movs	r3, #16
 8001064:	633b      	str	r3, [r7, #48]	; 0x30
  RCC_OscInitStruct.PLL.PLLState = RCC_PLL_ON;
 8001066:	2302      	movs	r3, #2
 8001068:	63bb      	str	r3, [r7, #56]	; 0x38
  RCC_OscInitStruct.PLL.PLLSource = RCC_PLLSOURCE_HSI;
 800106a:	2300      	movs	r3, #0
 800106c:	63fb      	str	r3, [r7, #60]	; 0x3c
  RCC_OscInitStruct.PLL.PLLM = 16;
 800106e:	2310      	movs	r3, #16
 8001070:	643b      	str	r3, [r7, #64]	; 0x40
  RCC_OscInitStruct.PLL.PLLN = 100;
 8001072:	2364      	movs	r3, #100	; 0x64
 8001074:	647b      	str	r3, [r7, #68]	; 0x44
  RCC_OscInitStruct.PLL.PLLP = RCC_PLLP_DIV2;
 8001076:	2302      	movs	r3, #2
 8001078:	64bb      	str	r3, [r7, #72]	; 0x48
  RCC_OscInitStruct.PLL.PLLQ = 7;
 800107a:	2307      	movs	r3, #7
 800107c:	64fb      	str	r3, [r7, #76]	; 0x4c
  if (HAL_RCC_OscConfig(&RCC_OscInitStruct) != HAL_OK)
 800107e:	f107 0320 	add.w	r3, r7, #32
 8001082:	4618      	mov	r0, r3
 8001084:	f000 feea 	bl	8001e5c <HAL_RCC_OscConfig>
 8001088:	4603      	mov	r3, r0
 800108a:	2b00      	cmp	r3, #0
 800108c:	d001      	beq.n	8001092 <SystemClock_Config+0x9a>
  {
    Error_Handler();
 800108e:	f000 f97d 	bl	800138c <Error_Handler>
  }
  /** Initializes the CPU, AHB and APB busses clocks 
  */
  RCC_ClkInitStruct.ClockType = RCC_CLOCKTYPE_HCLK|RCC_CLOCKTYPE_SYSCLK
 8001092:	230f      	movs	r3, #15
 8001094:	60fb      	str	r3, [r7, #12]
                              |RCC_CLOCKTYPE_PCLK1|RCC_CLOCKTYPE_PCLK2;
  RCC_ClkInitStruct.SYSCLKSource = RCC_SYSCLKSOURCE_PLLCLK;
 8001096:	2302      	movs	r3, #2
 8001098:	613b      	str	r3, [r7, #16]
  RCC_ClkInitStruct.AHBCLKDivider = RCC_SYSCLK_DIV1;
 800109a:	2300      	movs	r3, #0
 800109c:	617b      	str	r3, [r7, #20]
  RCC_ClkInitStruct.APB1CLKDivider = RCC_HCLK_DIV2;
 800109e:	f44f 5380 	mov.w	r3, #4096	; 0x1000
 80010a2:	61bb      	str	r3, [r7, #24]
  RCC_ClkInitStruct.APB2CLKDivider = RCC_HCLK_DIV2;
 80010a4:	f44f 5380 	mov.w	r3, #4096	; 0x1000
 80010a8:	61fb      	str	r3, [r7, #28]

  if (HAL_RCC_ClockConfig(&RCC_ClkInitStruct, FLASH_LATENCY_1) != HAL_OK)
 80010aa:	f107 030c 	add.w	r3, r7, #12
 80010ae:	2101      	movs	r1, #1
 80010b0:	4618      	mov	r0, r3
 80010b2:	f001 f943 	bl	800233c <HAL_RCC_ClockConfig>
 80010b6:	4603      	mov	r3, r0
 80010b8:	2b00      	cmp	r3, #0
 80010ba:	d001      	beq.n	80010c0 <SystemClock_Config+0xc8>
  {
    Error_Handler();
 80010bc:	f000 f966 	bl	800138c <Error_Handler>
  }
  //HAL_RCC_MCOConfig(RCC_MCO1, RCC_MCO1SOURCE_PLLCLK, RCC_MCODIV_1);
}
 80010c0:	bf00      	nop
 80010c2:	3750      	adds	r7, #80	; 0x50
 80010c4:	46bd      	mov	sp, r7
 80010c6:	bd80      	pop	{r7, pc}
 80010c8:	40023800 	.word	0x40023800
 80010cc:	40007000 	.word	0x40007000

080010d0 <MX_TIM2_Init>:
  * @brief TIM2 Initialization Function
  * @param None
  * @retval None
  */
static void MX_TIM2_Init(void)
{
 80010d0:	b580      	push	{r7, lr}
 80010d2:	b08a      	sub	sp, #40	; 0x28
 80010d4:	af00      	add	r7, sp, #0

  /* USER CODE BEGIN TIM2_Init 0 */

  /* USER CODE END TIM2_Init 0 */

  TIM_ClockConfigTypeDef sClockSourceConfig = {0};
 80010d6:	f107 0318 	add.w	r3, r7, #24
 80010da:	2200      	movs	r2, #0
 80010dc:	601a      	str	r2, [r3, #0]
 80010de:	605a      	str	r2, [r3, #4]
 80010e0:	609a      	str	r2, [r3, #8]
 80010e2:	60da      	str	r2, [r3, #12]
  TIM_MasterConfigTypeDef sMasterConfig = {0};
 80010e4:	f107 0310 	add.w	r3, r7, #16
 80010e8:	2200      	movs	r2, #0
 80010ea:	601a      	str	r2, [r3, #0]
 80010ec:	605a      	str	r2, [r3, #4]
  TIM_IC_InitTypeDef sConfigIC = {0};
 80010ee:	463b      	mov	r3, r7
 80010f0:	2200      	movs	r2, #0
 80010f2:	601a      	str	r2, [r3, #0]
 80010f4:	605a      	str	r2, [r3, #4]
 80010f6:	609a      	str	r2, [r3, #8]
 80010f8:	60da      	str	r2, [r3, #12]

  /* USER CODE BEGIN TIM2_Init 1 */

  /* USER CODE END TIM2_Init 1 */
  htim2.Instance = TIM2;
 80010fa:	4b2c      	ldr	r3, [pc, #176]	; (80011ac <MX_TIM2_Init+0xdc>)
 80010fc:	f04f 4280 	mov.w	r2, #1073741824	; 0x40000000
 8001100:	601a      	str	r2, [r3, #0]
  htim2.Init.Prescaler = 1;
 8001102:	4b2a      	ldr	r3, [pc, #168]	; (80011ac <MX_TIM2_Init+0xdc>)
 8001104:	2201      	movs	r2, #1
 8001106:	605a      	str	r2, [r3, #4]
  htim2.Init.CounterMode = TIM_COUNTERMODE_UP;
 8001108:	4b28      	ldr	r3, [pc, #160]	; (80011ac <MX_TIM2_Init+0xdc>)
 800110a:	2200      	movs	r2, #0
 800110c:	609a      	str	r2, [r3, #8]
  htim2.Init.Period = 0xFFFFFFFF;
 800110e:	4b27      	ldr	r3, [pc, #156]	; (80011ac <MX_TIM2_Init+0xdc>)
 8001110:	f04f 32ff 	mov.w	r2, #4294967295
 8001114:	60da      	str	r2, [r3, #12]
  htim2.Init.ClockDivision = TIM_CLOCKDIVISION_DIV1;
 8001116:	4b25      	ldr	r3, [pc, #148]	; (80011ac <MX_TIM2_Init+0xdc>)
 8001118:	2200      	movs	r2, #0
 800111a:	611a      	str	r2, [r3, #16]
  htim2.Init.AutoReloadPreload = TIM_AUTORELOAD_PRELOAD_DISABLE;
 800111c:	4b23      	ldr	r3, [pc, #140]	; (80011ac <MX_TIM2_Init+0xdc>)
 800111e:	2200      	movs	r2, #0
 8001120:	619a      	str	r2, [r3, #24]
  if (HAL_TIM_Base_Init(&htim2) != HAL_OK)
 8001122:	4822      	ldr	r0, [pc, #136]	; (80011ac <MX_TIM2_Init+0xdc>)
 8001124:	f001 fb64 	bl	80027f0 <HAL_TIM_Base_Init>
 8001128:	4603      	mov	r3, r0
 800112a:	2b00      	cmp	r3, #0
 800112c:	d001      	beq.n	8001132 <MX_TIM2_Init+0x62>
  {
    Error_Handler();
 800112e:	f000 f92d 	bl	800138c <Error_Handler>
  }
  sClockSourceConfig.ClockSource = TIM_CLOCKSOURCE_INTERNAL;
 8001132:	f44f 5380 	mov.w	r3, #4096	; 0x1000
 8001136:	61bb      	str	r3, [r7, #24]
  if (HAL_TIM_ConfigClockSource(&htim2, &sClockSourceConfig) != HAL_OK)
 8001138:	f107 0318 	add.w	r3, r7, #24
 800113c:	4619      	mov	r1, r3
 800113e:	481b      	ldr	r0, [pc, #108]	; (80011ac <MX_TIM2_Init+0xdc>)
 8001140:	f001 fde6 	bl	8002d10 <HAL_TIM_ConfigClockSource>
 8001144:	4603      	mov	r3, r0
 8001146:	2b00      	cmp	r3, #0
 8001148:	d001      	beq.n	800114e <MX_TIM2_Init+0x7e>
  {
    Error_Handler();
 800114a:	f000 f91f 	bl	800138c <Error_Handler>
  }
  if (HAL_TIM_IC_Init(&htim2) != HAL_OK)
 800114e:	4817      	ldr	r0, [pc, #92]	; (80011ac <MX_TIM2_Init+0xdc>)
 8001150:	f001 fb9d 	bl	800288e <HAL_TIM_IC_Init>
 8001154:	4603      	mov	r3, r0
 8001156:	2b00      	cmp	r3, #0
 8001158:	d001      	beq.n	800115e <MX_TIM2_Init+0x8e>
  {
    Error_Handler();
 800115a:	f000 f917 	bl	800138c <Error_Handler>
  }
  sMasterConfig.MasterOutputTrigger = TIM_TRGO_RESET;
 800115e:	2300      	movs	r3, #0
 8001160:	613b      	str	r3, [r7, #16]
  sMasterConfig.MasterSlaveMode = TIM_MASTERSLAVEMODE_DISABLE;
 8001162:	2300      	movs	r3, #0
 8001164:	617b      	str	r3, [r7, #20]
  if (HAL_TIMEx_MasterConfigSynchronization(&htim2, &sMasterConfig) != HAL_OK)
 8001166:	f107 0310 	add.w	r3, r7, #16
 800116a:	4619      	mov	r1, r3
 800116c:	480f      	ldr	r0, [pc, #60]	; (80011ac <MX_TIM2_Init+0xdc>)
 800116e:	f002 f92f 	bl	80033d0 <HAL_TIMEx_MasterConfigSynchronization>
 8001172:	4603      	mov	r3, r0
 8001174:	2b00      	cmp	r3, #0
 8001176:	d001      	beq.n	800117c <MX_TIM2_Init+0xac>
  {
    Error_Handler();
 8001178:	f000 f908 	bl	800138c <Error_Handler>
  }
  sConfigIC.ICPolarity = TIM_INPUTCHANNELPOLARITY_RISING;
 800117c:	2300      	movs	r3, #0
 800117e:	603b      	str	r3, [r7, #0]
  sConfigIC.ICSelection = TIM_ICSELECTION_DIRECTTI;
 8001180:	2301      	movs	r3, #1
 8001182:	607b      	str	r3, [r7, #4]
  sConfigIC.ICPrescaler = TIM_ICPSC_DIV1;
 8001184:	2300      	movs	r3, #0
 8001186:	60bb      	str	r3, [r7, #8]
  sConfigIC.ICFilter = 0;
 8001188:	2300      	movs	r3, #0
 800118a:	60fb      	str	r3, [r7, #12]
  if (HAL_TIM_IC_ConfigChannel(&htim2, &sConfigIC, TIM_CHANNEL_1) != HAL_OK)
 800118c:	463b      	mov	r3, r7
 800118e:	2200      	movs	r2, #0
 8001190:	4619      	mov	r1, r3
 8001192:	4806      	ldr	r0, [pc, #24]	; (80011ac <MX_TIM2_Init+0xdc>)
 8001194:	f001 fd20 	bl	8002bd8 <HAL_TIM_IC_ConfigChannel>
 8001198:	4603      	mov	r3, r0
 800119a:	2b00      	cmp	r3, #0
 800119c:	d001      	beq.n	80011a2 <MX_TIM2_Init+0xd2>
  {
    Error_Handler();
 800119e:	f000 f8f5 	bl	800138c <Error_Handler>
  }
  /* USER CODE BEGIN TIM2_Init 2 */

  /* USER CODE END TIM2_Init 2 */

}
 80011a2:	bf00      	nop
 80011a4:	3728      	adds	r7, #40	; 0x28
 80011a6:	46bd      	mov	sp, r7
 80011a8:	bd80      	pop	{r7, pc}
 80011aa:	bf00      	nop
 80011ac:	20000254 	.word	0x20000254

080011b0 <MX_TIM6_Init>:
  * @brief TIM6 Initialization Function
  * @param None
  * @retval None
  */
static void MX_TIM6_Init(void)
{
 80011b0:	b580      	push	{r7, lr}
 80011b2:	b082      	sub	sp, #8
 80011b4:	af00      	add	r7, sp, #0

  /* USER CODE BEGIN TIM6_Init 0 */

  /* USER CODE END TIM6_Init 0 */

  TIM_MasterConfigTypeDef sMasterConfig = {0};
 80011b6:	463b      	mov	r3, r7
 80011b8:	2200      	movs	r2, #0
 80011ba:	601a      	str	r2, [r3, #0]
 80011bc:	605a      	str	r2, [r3, #4]

  /* USER CODE BEGIN TIM6_Init 1 */

  /* USER CODE END TIM6_Init 1 */
  htim6.Instance = TIM6;
 80011be:	4b14      	ldr	r3, [pc, #80]	; (8001210 <MX_TIM6_Init+0x60>)
 80011c0:	4a14      	ldr	r2, [pc, #80]	; (8001214 <MX_TIM6_Init+0x64>)
 80011c2:	601a      	str	r2, [r3, #0]
  htim6.Init.Prescaler = 9;
 80011c4:	4b12      	ldr	r3, [pc, #72]	; (8001210 <MX_TIM6_Init+0x60>)
 80011c6:	2209      	movs	r2, #9
 80011c8:	605a      	str	r2, [r3, #4]
  htim6.Init.CounterMode = TIM_COUNTERMODE_UP;
 80011ca:	4b11      	ldr	r3, [pc, #68]	; (8001210 <MX_TIM6_Init+0x60>)
 80011cc:	2200      	movs	r2, #0
 80011ce:	609a      	str	r2, [r3, #8]
  htim6.Init.Period = 49;
 80011d0:	4b0f      	ldr	r3, [pc, #60]	; (8001210 <MX_TIM6_Init+0x60>)
 80011d2:	2231      	movs	r2, #49	; 0x31
 80011d4:	60da      	str	r2, [r3, #12]
 // htim6.Init.Period = 4; //5 for getting 1 us for low 1us for high = 2us or 500khz
  htim6.Init.AutoReloadPreload = TIM_AUTORELOAD_PRELOAD_DISABLE;
 80011d6:	4b0e      	ldr	r3, [pc, #56]	; (8001210 <MX_TIM6_Init+0x60>)
 80011d8:	2200      	movs	r2, #0
 80011da:	619a      	str	r2, [r3, #24]
  if (HAL_TIM_Base_Init(&htim6) != HAL_OK)
 80011dc:	480c      	ldr	r0, [pc, #48]	; (8001210 <MX_TIM6_Init+0x60>)
 80011de:	f001 fb07 	bl	80027f0 <HAL_TIM_Base_Init>
 80011e2:	4603      	mov	r3, r0
 80011e4:	2b00      	cmp	r3, #0
 80011e6:	d001      	beq.n	80011ec <MX_TIM6_Init+0x3c>
  {
    Error_Handler();
 80011e8:	f000 f8d0 	bl	800138c <Error_Handler>
  }
  sMasterConfig.MasterOutputTrigger = TIM_TRGO_RESET;
 80011ec:	2300      	movs	r3, #0
 80011ee:	603b      	str	r3, [r7, #0]
  sMasterConfig.MasterSlaveMode = TIM_MASTERSLAVEMODE_DISABLE;
 80011f0:	2300      	movs	r3, #0
 80011f2:	607b      	str	r3, [r7, #4]
  if (HAL_TIMEx_MasterConfigSynchronization(&htim6, &sMasterConfig) != HAL_OK)
 80011f4:	463b      	mov	r3, r7
 80011f6:	4619      	mov	r1, r3
 80011f8:	4805      	ldr	r0, [pc, #20]	; (8001210 <MX_TIM6_Init+0x60>)
 80011fa:	f002 f8e9 	bl	80033d0 <HAL_TIMEx_MasterConfigSynchronization>
 80011fe:	4603      	mov	r3, r0
 8001200:	2b00      	cmp	r3, #0
 8001202:	d001      	beq.n	8001208 <MX_TIM6_Init+0x58>
  {
    Error_Handler();
 8001204:	f000 f8c2 	bl	800138c <Error_Handler>
  }
  /* USER CODE BEGIN TIM6_Init 2 */

  /* USER CODE END TIM6_Init 2 */

}
 8001208:	bf00      	nop
 800120a:	3708      	adds	r7, #8
 800120c:	46bd      	mov	sp, r7
 800120e:	bd80      	pop	{r7, pc}
 8001210:	20000214 	.word	0x20000214
 8001214:	40001000 	.word	0x40001000

08001218 <MX_USART2_UART_Init>:
  * @brief USART2 Initialization Function
  * @param None
  * @retval None
  */
static void MX_USART2_UART_Init(void)
{
 8001218:	b580      	push	{r7, lr}
 800121a:	af00      	add	r7, sp, #0
  /* USER CODE END USART2_Init 0 */

  /* USER CODE BEGIN USART2_Init 1 */

  /* USER CODE END USART2_Init 1 */
  huart2.Instance = USART2;
 800121c:	4b11      	ldr	r3, [pc, #68]	; (8001264 <MX_USART2_UART_Init+0x4c>)
 800121e:	4a12      	ldr	r2, [pc, #72]	; (8001268 <MX_USART2_UART_Init+0x50>)
 8001220:	601a      	str	r2, [r3, #0]
  huart2.Init.BaudRate = 115200;
 8001222:	4b10      	ldr	r3, [pc, #64]	; (8001264 <MX_USART2_UART_Init+0x4c>)
 8001224:	f44f 32e1 	mov.w	r2, #115200	; 0x1c200
 8001228:	605a      	str	r2, [r3, #4]
  huart2.Init.WordLength = UART_WORDLENGTH_8B;
 800122a:	4b0e      	ldr	r3, [pc, #56]	; (8001264 <MX_USART2_UART_Init+0x4c>)
 800122c:	2200      	movs	r2, #0
 800122e:	609a      	str	r2, [r3, #8]
  huart2.Init.StopBits = UART_STOPBITS_1;
 8001230:	4b0c      	ldr	r3, [pc, #48]	; (8001264 <MX_USART2_UART_Init+0x4c>)
 8001232:	2200      	movs	r2, #0
 8001234:	60da      	str	r2, [r3, #12]
  huart2.Init.Parity = UART_PARITY_NONE;
 8001236:	4b0b      	ldr	r3, [pc, #44]	; (8001264 <MX_USART2_UART_Init+0x4c>)
 8001238:	2200      	movs	r2, #0
 800123a:	611a      	str	r2, [r3, #16]
  huart2.Init.Mode = UART_MODE_TX_RX;
 800123c:	4b09      	ldr	r3, [pc, #36]	; (8001264 <MX_USART2_UART_Init+0x4c>)
 800123e:	220c      	movs	r2, #12
 8001240:	615a      	str	r2, [r3, #20]
  huart2.Init.HwFlowCtl = UART_HWCONTROL_NONE;
 8001242:	4b08      	ldr	r3, [pc, #32]	; (8001264 <MX_USART2_UART_Init+0x4c>)
 8001244:	2200      	movs	r2, #0
 8001246:	619a      	str	r2, [r3, #24]
  huart2.Init.OverSampling = UART_OVERSAMPLING_16;
 8001248:	4b06      	ldr	r3, [pc, #24]	; (8001264 <MX_USART2_UART_Init+0x4c>)
 800124a:	2200      	movs	r2, #0
 800124c:	61da      	str	r2, [r3, #28]
  if (HAL_UART_Init(&huart2) != HAL_OK)
 800124e:	4805      	ldr	r0, [pc, #20]	; (8001264 <MX_USART2_UART_Init+0x4c>)
 8001250:	f002 f94e 	bl	80034f0 <HAL_UART_Init>
 8001254:	4603      	mov	r3, r0
 8001256:	2b00      	cmp	r3, #0
 8001258:	d001      	beq.n	800125e <MX_USART2_UART_Init+0x46>
  {
    Error_Handler();
 800125a:	f000 f897 	bl	800138c <Error_Handler>
  }
  /* USER CODE BEGIN USART2_Init 2 */

  /* USER CODE END USART2_Init 2 */

}
 800125e:	bf00      	nop
 8001260:	bd80      	pop	{r7, pc}
 8001262:	bf00      	nop
 8001264:	20000294 	.word	0x20000294
 8001268:	40004400 	.word	0x40004400

0800126c <MX_GPIO_Init>:
  * @brief GPIO Initialization Function
  * @param None
  * @retval None
  */
static void MX_GPIO_Init(void)
{
 800126c:	b580      	push	{r7, lr}
 800126e:	b08a      	sub	sp, #40	; 0x28
 8001270:	af00      	add	r7, sp, #0
  GPIO_InitTypeDef GPIO_InitStruct = {0};
 8001272:	f107 0314 	add.w	r3, r7, #20
 8001276:	2200      	movs	r2, #0
 8001278:	601a      	str	r2, [r3, #0]
 800127a:	605a      	str	r2, [r3, #4]
 800127c:	609a      	str	r2, [r3, #8]
 800127e:	60da      	str	r2, [r3, #12]
 8001280:	611a      	str	r2, [r3, #16]

  /* GPIO Ports Clock Enable */
  __HAL_RCC_GPIOH_CLK_ENABLE();
 8001282:	2300      	movs	r3, #0
 8001284:	613b      	str	r3, [r7, #16]
 8001286:	4b3c      	ldr	r3, [pc, #240]	; (8001378 <MX_GPIO_Init+0x10c>)
 8001288:	6b1b      	ldr	r3, [r3, #48]	; 0x30
 800128a:	4a3b      	ldr	r2, [pc, #236]	; (8001378 <MX_GPIO_Init+0x10c>)
 800128c:	f043 0380 	orr.w	r3, r3, #128	; 0x80
 8001290:	6313      	str	r3, [r2, #48]	; 0x30
 8001292:	4b39      	ldr	r3, [pc, #228]	; (8001378 <MX_GPIO_Init+0x10c>)
 8001294:	6b1b      	ldr	r3, [r3, #48]	; 0x30
 8001296:	f003 0380 	and.w	r3, r3, #128	; 0x80
 800129a:	613b      	str	r3, [r7, #16]
 800129c:	693b      	ldr	r3, [r7, #16]
  __HAL_RCC_GPIOA_CLK_ENABLE();
 800129e:	2300      	movs	r3, #0
 80012a0:	60fb      	str	r3, [r7, #12]
 80012a2:	4b35      	ldr	r3, [pc, #212]	; (8001378 <MX_GPIO_Init+0x10c>)
 80012a4:	6b1b      	ldr	r3, [r3, #48]	; 0x30
 80012a6:	4a34      	ldr	r2, [pc, #208]	; (8001378 <MX_GPIO_Init+0x10c>)
 80012a8:	f043 0301 	orr.w	r3, r3, #1
 80012ac:	6313      	str	r3, [r2, #48]	; 0x30
 80012ae:	4b32      	ldr	r3, [pc, #200]	; (8001378 <MX_GPIO_Init+0x10c>)
 80012b0:	6b1b      	ldr	r3, [r3, #48]	; 0x30
 80012b2:	f003 0301 	and.w	r3, r3, #1
 80012b6:	60fb      	str	r3, [r7, #12]
 80012b8:	68fb      	ldr	r3, [r7, #12]
  __HAL_RCC_GPIOB_CLK_ENABLE();
 80012ba:	2300      	movs	r3, #0
 80012bc:	60bb      	str	r3, [r7, #8]
 80012be:	4b2e      	ldr	r3, [pc, #184]	; (8001378 <MX_GPIO_Init+0x10c>)
 80012c0:	6b1b      	ldr	r3, [r3, #48]	; 0x30
 80012c2:	4a2d      	ldr	r2, [pc, #180]	; (8001378 <MX_GPIO_Init+0x10c>)
 80012c4:	f043 0302 	orr.w	r3, r3, #2
 80012c8:	6313      	str	r3, [r2, #48]	; 0x30
 80012ca:	4b2b      	ldr	r3, [pc, #172]	; (8001378 <MX_GPIO_Init+0x10c>)
 80012cc:	6b1b      	ldr	r3, [r3, #48]	; 0x30
 80012ce:	f003 0302 	and.w	r3, r3, #2
 80012d2:	60bb      	str	r3, [r7, #8]
 80012d4:	68bb      	ldr	r3, [r7, #8]
  __HAL_RCC_GPIOD_CLK_ENABLE();
 80012d6:	2300      	movs	r3, #0
 80012d8:	607b      	str	r3, [r7, #4]
 80012da:	4b27      	ldr	r3, [pc, #156]	; (8001378 <MX_GPIO_Init+0x10c>)
 80012dc:	6b1b      	ldr	r3, [r3, #48]	; 0x30
 80012de:	4a26      	ldr	r2, [pc, #152]	; (8001378 <MX_GPIO_Init+0x10c>)
 80012e0:	f043 0308 	orr.w	r3, r3, #8
 80012e4:	6313      	str	r3, [r2, #48]	; 0x30
 80012e6:	4b24      	ldr	r3, [pc, #144]	; (8001378 <MX_GPIO_Init+0x10c>)
 80012e8:	6b1b      	ldr	r3, [r3, #48]	; 0x30
 80012ea:	f003 0308 	and.w	r3, r3, #8
 80012ee:	607b      	str	r3, [r7, #4]
 80012f0:	687b      	ldr	r3, [r7, #4]

  /*Configure GPIO pin Output Level */
  HAL_GPIO_WritePin(GPIOD, LD4_Pin|LD3_Pin|LD5_Pin|LD6_Pin, GPIO_PIN_RESET);
 80012f2:	2200      	movs	r2, #0
 80012f4:	f44f 4170 	mov.w	r1, #61440	; 0xf000
 80012f8:	4820      	ldr	r0, [pc, #128]	; (800137c <MX_GPIO_Init+0x110>)
 80012fa:	f000 fd7b 	bl	8001df4 <HAL_GPIO_WritePin>

  /*Configure GPIO pin : B1_Pin */
  GPIO_InitStruct.Pin = B1_Pin;
 80012fe:	2301      	movs	r3, #1
 8001300:	617b      	str	r3, [r7, #20]
  GPIO_InitStruct.Mode = GPIO_MODE_EVT_RISING;
 8001302:	4b1f      	ldr	r3, [pc, #124]	; (8001380 <MX_GPIO_Init+0x114>)
 8001304:	61bb      	str	r3, [r7, #24]
  GPIO_InitStruct.Pull = GPIO_NOPULL;
 8001306:	2300      	movs	r3, #0
 8001308:	61fb      	str	r3, [r7, #28]
  HAL_GPIO_Init(B1_GPIO_Port, &GPIO_InitStruct);
 800130a:	f107 0314 	add.w	r3, r7, #20
 800130e:	4619      	mov	r1, r3
 8001310:	481c      	ldr	r0, [pc, #112]	; (8001384 <MX_GPIO_Init+0x118>)
 8001312:	f000 fbd5 	bl	8001ac0 <HAL_GPIO_Init>

  /*Configure GPIO pin : BOOT1_Pin */
  GPIO_InitStruct.Pin = BOOT1_Pin;
 8001316:	2304      	movs	r3, #4
 8001318:	617b      	str	r3, [r7, #20]
  GPIO_InitStruct.Mode = GPIO_MODE_INPUT;
 800131a:	2300      	movs	r3, #0
 800131c:	61bb      	str	r3, [r7, #24]
  GPIO_InitStruct.Pull = GPIO_NOPULL;
 800131e:	2300      	movs	r3, #0
 8001320:	61fb      	str	r3, [r7, #28]
  HAL_GPIO_Init(BOOT1_GPIO_Port, &GPIO_InitStruct);
 8001322:	f107 0314 	add.w	r3, r7, #20
 8001326:	4619      	mov	r1, r3
 8001328:	4817      	ldr	r0, [pc, #92]	; (8001388 <MX_GPIO_Init+0x11c>)
 800132a:	f000 fbc9 	bl	8001ac0 <HAL_GPIO_Init>

  /*Configure GPIO pins : LD4_Pin LD3_Pin LD5_Pin LD6_Pin */
  GPIO_InitStruct.Pin = LD4_Pin|LD3_Pin|LD5_Pin|LD6_Pin;
 800132e:	f44f 4370 	mov.w	r3, #61440	; 0xf000
 8001332:	617b      	str	r3, [r7, #20]
  GPIO_InitStruct.Mode = GPIO_MODE_OUTPUT_PP;
 8001334:	2301      	movs	r3, #1
 8001336:	61bb      	str	r3, [r7, #24]
  GPIO_InitStruct.Pull = GPIO_NOPULL;
 8001338:	2300      	movs	r3, #0
 800133a:	61fb      	str	r3, [r7, #28]
  GPIO_InitStruct.Speed = GPIO_SPEED_FREQ_LOW;
 800133c:	2300      	movs	r3, #0
 800133e:	623b      	str	r3, [r7, #32]
  HAL_GPIO_Init(GPIOD, &GPIO_InitStruct);
 8001340:	f107 0314 	add.w	r3, r7, #20
 8001344:	4619      	mov	r1, r3
 8001346:	480d      	ldr	r0, [pc, #52]	; (800137c <MX_GPIO_Init+0x110>)
 8001348:	f000 fbba 	bl	8001ac0 <HAL_GPIO_Init>

  /*Configure GPIO pin : PA8 */
  GPIO_InitStruct.Pin = GPIO_PIN_8;
 800134c:	f44f 7380 	mov.w	r3, #256	; 0x100
 8001350:	617b      	str	r3, [r7, #20]
  GPIO_InitStruct.Mode = GPIO_MODE_AF_PP;
 8001352:	2302      	movs	r3, #2
 8001354:	61bb      	str	r3, [r7, #24]
  GPIO_InitStruct.Pull = GPIO_NOPULL;
 8001356:	2300      	movs	r3, #0
 8001358:	61fb      	str	r3, [r7, #28]
  GPIO_InitStruct.Speed = GPIO_SPEED_FREQ_LOW;
 800135a:	2300      	movs	r3, #0
 800135c:	623b      	str	r3, [r7, #32]
  GPIO_InitStruct.Alternate = GPIO_AF0_MCO;
 800135e:	2300      	movs	r3, #0
 8001360:	627b      	str	r3, [r7, #36]	; 0x24
  HAL_GPIO_Init(GPIOA, &GPIO_InitStruct);
 8001362:	f107 0314 	add.w	r3, r7, #20
 8001366:	4619      	mov	r1, r3
 8001368:	4806      	ldr	r0, [pc, #24]	; (8001384 <MX_GPIO_Init+0x118>)
 800136a:	f000 fba9 	bl	8001ac0 <HAL_GPIO_Init>

}
 800136e:	bf00      	nop
 8001370:	3728      	adds	r7, #40	; 0x28
 8001372:	46bd      	mov	sp, r7
 8001374:	bd80      	pop	{r7, pc}
 8001376:	bf00      	nop
 8001378:	40023800 	.word	0x40023800
 800137c:	40020c00 	.word	0x40020c00
 8001380:	10120000 	.word	0x10120000
 8001384:	40020000 	.word	0x40020000
 8001388:	40020400 	.word	0x40020400

0800138c <Error_Handler>:
/**
  * @brief  This function is executed in case of error occurrence.
  * @retval None
  */
void Error_Handler(void)
{
 800138c:	b480      	push	{r7}
 800138e:	af00      	add	r7, sp, #0
  /* USER CODE BEGIN Error_Handler_Debug */
  /* User can add his own implementation to report the HAL error return state */
while(1);
 8001390:	e7fe      	b.n	8001390 <Error_Handler+0x4>
	...

08001394 <HAL_TIM_IC_CaptureCallback>:
  /* USER CODE END Error_Handler_Debug */
}

void HAL_TIM_IC_CaptureCallback(TIM_HandleTypeDef *htim)
{
 8001394:	b480      	push	{r7}
 8001396:	b083      	sub	sp, #12
 8001398:	af00      	add	r7, sp, #0
 800139a:	6078      	str	r0, [r7, #4]
 if(!(is_capture_done))
 800139c:	4b14      	ldr	r3, [pc, #80]	; (80013f0 <HAL_TIM_IC_CaptureCallback+0x5c>)
 800139e:	781b      	ldrb	r3, [r3, #0]
 80013a0:	b2db      	uxtb	r3, r3
 80013a2:	2b00      	cmp	r3, #0
 80013a4:	d11e      	bne.n	80013e4 <HAL_TIM_IC_CaptureCallback+0x50>
	 {
			if     (count == 1)
 80013a6:	4b13      	ldr	r3, [pc, #76]	; (80013f4 <HAL_TIM_IC_CaptureCallback+0x60>)
 80013a8:	781b      	ldrb	r3, [r3, #0]
 80013aa:	2b01      	cmp	r3, #1
 80013ac:	d10b      	bne.n	80013c6 <HAL_TIM_IC_CaptureCallback+0x32>
			{
				input_capture[0] = __HAL_TIM_GET_COMPARE(htim,TIM_CHANNEL_1);
 80013ae:	687b      	ldr	r3, [r7, #4]
 80013b0:	681b      	ldr	r3, [r3, #0]
 80013b2:	6b5b      	ldr	r3, [r3, #52]	; 0x34
 80013b4:	4a10      	ldr	r2, [pc, #64]	; (80013f8 <HAL_TIM_IC_CaptureCallback+0x64>)
 80013b6:	6013      	str	r3, [r2, #0]
				count++;
 80013b8:	4b0e      	ldr	r3, [pc, #56]	; (80013f4 <HAL_TIM_IC_CaptureCallback+0x60>)
 80013ba:	781b      	ldrb	r3, [r3, #0]
 80013bc:	3301      	adds	r3, #1
 80013be:	b2da      	uxtb	r2, r3
 80013c0:	4b0c      	ldr	r3, [pc, #48]	; (80013f4 <HAL_TIM_IC_CaptureCallback+0x60>)
 80013c2:	701a      	strb	r2, [r3, #0]
				input_capture[1] = __HAL_TIM_GET_COMPARE(htim,TIM_CHANNEL_1);
				count = 1;
				is_capture_done=TRUE;
			}
	 }
}
 80013c4:	e00e      	b.n	80013e4 <HAL_TIM_IC_CaptureCallback+0x50>
			else if (count == 2)
 80013c6:	4b0b      	ldr	r3, [pc, #44]	; (80013f4 <HAL_TIM_IC_CaptureCallback+0x60>)
 80013c8:	781b      	ldrb	r3, [r3, #0]
 80013ca:	2b02      	cmp	r3, #2
 80013cc:	d10a      	bne.n	80013e4 <HAL_TIM_IC_CaptureCallback+0x50>
				input_capture[1] = __HAL_TIM_GET_COMPARE(htim,TIM_CHANNEL_1);
 80013ce:	687b      	ldr	r3, [r7, #4]
 80013d0:	681b      	ldr	r3, [r3, #0]
 80013d2:	6b5b      	ldr	r3, [r3, #52]	; 0x34
 80013d4:	4a08      	ldr	r2, [pc, #32]	; (80013f8 <HAL_TIM_IC_CaptureCallback+0x64>)
 80013d6:	6053      	str	r3, [r2, #4]
				count = 1;
 80013d8:	4b06      	ldr	r3, [pc, #24]	; (80013f4 <HAL_TIM_IC_CaptureCallback+0x60>)
 80013da:	2201      	movs	r2, #1
 80013dc:	701a      	strb	r2, [r3, #0]
				is_capture_done=TRUE;
 80013de:	4b04      	ldr	r3, [pc, #16]	; (80013f0 <HAL_TIM_IC_CaptureCallback+0x5c>)
 80013e0:	2201      	movs	r2, #1
 80013e2:	701a      	strb	r2, [r3, #0]
}
 80013e4:	bf00      	nop
 80013e6:	370c      	adds	r7, #12
 80013e8:	46bd      	mov	sp, r7
 80013ea:	f85d 7b04 	ldr.w	r7, [sp], #4
 80013ee:	4770      	bx	lr
 80013f0:	20000204 	.word	0x20000204
 80013f4:	20000000 	.word	0x20000000
 80013f8:	200001fc 	.word	0x200001fc

080013fc <HAL_TIM_PeriodElapsedCallback>:
void HAL_TIM_PeriodElapsedCallback(TIM_HandleTypeDef *htim)
{
 80013fc:	b580      	push	{r7, lr}
 80013fe:	b082      	sub	sp, #8
 8001400:	af00      	add	r7, sp, #0
 8001402:	6078      	str	r0, [r7, #4]
	HAL_GPIO_TogglePin(GPIOD, LD4_Pin);
 8001404:	f44f 5180 	mov.w	r1, #4096	; 0x1000
 8001408:	4803      	ldr	r0, [pc, #12]	; (8001418 <HAL_TIM_PeriodElapsedCallback+0x1c>)
 800140a:	f000 fd0c 	bl	8001e26 <HAL_GPIO_TogglePin>
}
 800140e:	bf00      	nop
 8001410:	3708      	adds	r7, #8
 8001412:	46bd      	mov	sp, r7
 8001414:	bd80      	pop	{r7, pc}
 8001416:	bf00      	nop
 8001418:	40020c00 	.word	0x40020c00

0800141c <HAL_MspInit>:
/* USER CODE END 0 */
/**
  * Initializes the Global MSP.
  */
void HAL_MspInit(void)
{
 800141c:	b580      	push	{r7, lr}
 800141e:	b082      	sub	sp, #8
 8001420:	af00      	add	r7, sp, #0
  /* USER CODE BEGIN MspInit 0 */

  /* USER CODE END MspInit 0 */

  __HAL_RCC_SYSCFG_CLK_ENABLE();
 8001422:	2300      	movs	r3, #0
 8001424:	607b      	str	r3, [r7, #4]
 8001426:	4b14      	ldr	r3, [pc, #80]	; (8001478 <HAL_MspInit+0x5c>)
 8001428:	6c5b      	ldr	r3, [r3, #68]	; 0x44
 800142a:	4a13      	ldr	r2, [pc, #76]	; (8001478 <HAL_MspInit+0x5c>)
 800142c:	f443 4380 	orr.w	r3, r3, #16384	; 0x4000
 8001430:	6453      	str	r3, [r2, #68]	; 0x44
 8001432:	4b11      	ldr	r3, [pc, #68]	; (8001478 <HAL_MspInit+0x5c>)
 8001434:	6c5b      	ldr	r3, [r3, #68]	; 0x44
 8001436:	f403 4380 	and.w	r3, r3, #16384	; 0x4000
 800143a:	607b      	str	r3, [r7, #4]
 800143c:	687b      	ldr	r3, [r7, #4]
  __HAL_RCC_PWR_CLK_ENABLE();
 800143e:	2300      	movs	r3, #0
 8001440:	603b      	str	r3, [r7, #0]
 8001442:	4b0d      	ldr	r3, [pc, #52]	; (8001478 <HAL_MspInit+0x5c>)
 8001444:	6c1b      	ldr	r3, [r3, #64]	; 0x40
 8001446:	4a0c      	ldr	r2, [pc, #48]	; (8001478 <HAL_MspInit+0x5c>)
 8001448:	f043 5380 	orr.w	r3, r3, #268435456	; 0x10000000
 800144c:	6413      	str	r3, [r2, #64]	; 0x40
 800144e:	4b0a      	ldr	r3, [pc, #40]	; (8001478 <HAL_MspInit+0x5c>)
 8001450:	6c1b      	ldr	r3, [r3, #64]	; 0x40
 8001452:	f003 5380 	and.w	r3, r3, #268435456	; 0x10000000
 8001456:	603b      	str	r3, [r7, #0]
 8001458:	683b      	ldr	r3, [r7, #0]

  HAL_NVIC_SetPriorityGrouping(NVIC_PRIORITYGROUP_0);
 800145a:	2007      	movs	r0, #7
 800145c:	f000 facc 	bl	80019f8 <HAL_NVIC_SetPriorityGrouping>

  /* System interrupt init*/

  /* Peripheral interrupt init */
  /* RCC_IRQn interrupt configuration */
  HAL_NVIC_SetPriority(RCC_IRQn, 0, 0);
 8001460:	2200      	movs	r2, #0
 8001462:	2100      	movs	r1, #0
 8001464:	2005      	movs	r0, #5
 8001466:	f000 fad2 	bl	8001a0e <HAL_NVIC_SetPriority>
  HAL_NVIC_EnableIRQ(RCC_IRQn);
 800146a:	2005      	movs	r0, #5
 800146c:	f000 faeb 	bl	8001a46 <HAL_NVIC_EnableIRQ>

  /* USER CODE BEGIN MspInit 1 */

  /* USER CODE END MspInit 1 */
}
 8001470:	bf00      	nop
 8001472:	3708      	adds	r7, #8
 8001474:	46bd      	mov	sp, r7
 8001476:	bd80      	pop	{r7, pc}
 8001478:	40023800 	.word	0x40023800

0800147c <HAL_TIM_Base_MspInit>:
* This function configures the hardware resources used in this example
* @param htim_base: TIM_Base handle pointer
* @retval None
*/
void HAL_TIM_Base_MspInit(TIM_HandleTypeDef* htim_base)
{
 800147c:	b580      	push	{r7, lr}
 800147e:	b08a      	sub	sp, #40	; 0x28
 8001480:	af00      	add	r7, sp, #0
 8001482:	6078      	str	r0, [r7, #4]
  GPIO_InitTypeDef GPIO_InitStruct = {0};
 8001484:	f107 0314 	add.w	r3, r7, #20
 8001488:	2200      	movs	r2, #0
 800148a:	601a      	str	r2, [r3, #0]
 800148c:	605a      	str	r2, [r3, #4]
 800148e:	609a      	str	r2, [r3, #8]
 8001490:	60da      	str	r2, [r3, #12]
 8001492:	611a      	str	r2, [r3, #16]
  if(htim_base->Instance==TIM2)
 8001494:	687b      	ldr	r3, [r7, #4]
 8001496:	681b      	ldr	r3, [r3, #0]
 8001498:	f1b3 4f80 	cmp.w	r3, #1073741824	; 0x40000000
 800149c:	d135      	bne.n	800150a <HAL_TIM_Base_MspInit+0x8e>
  {
  /* USER CODE BEGIN TIM2_MspInit 0 */

  /* USER CODE END TIM2_MspInit 0 */
    /* Peripheral clock enable */
    __HAL_RCC_TIM2_CLK_ENABLE();
 800149e:	2300      	movs	r3, #0
 80014a0:	613b      	str	r3, [r7, #16]
 80014a2:	4b29      	ldr	r3, [pc, #164]	; (8001548 <HAL_TIM_Base_MspInit+0xcc>)
 80014a4:	6c1b      	ldr	r3, [r3, #64]	; 0x40
 80014a6:	4a28      	ldr	r2, [pc, #160]	; (8001548 <HAL_TIM_Base_MspInit+0xcc>)
 80014a8:	f043 0301 	orr.w	r3, r3, #1
 80014ac:	6413      	str	r3, [r2, #64]	; 0x40
 80014ae:	4b26      	ldr	r3, [pc, #152]	; (8001548 <HAL_TIM_Base_MspInit+0xcc>)
 80014b0:	6c1b      	ldr	r3, [r3, #64]	; 0x40
 80014b2:	f003 0301 	and.w	r3, r3, #1
 80014b6:	613b      	str	r3, [r7, #16]
 80014b8:	693b      	ldr	r3, [r7, #16]
  
    __HAL_RCC_GPIOA_CLK_ENABLE();
 80014ba:	2300      	movs	r3, #0
 80014bc:	60fb      	str	r3, [r7, #12]
 80014be:	4b22      	ldr	r3, [pc, #136]	; (8001548 <HAL_TIM_Base_MspInit+0xcc>)
 80014c0:	6b1b      	ldr	r3, [r3, #48]	; 0x30
 80014c2:	4a21      	ldr	r2, [pc, #132]	; (8001548 <HAL_TIM_Base_MspInit+0xcc>)
 80014c4:	f043 0301 	orr.w	r3, r3, #1
 80014c8:	6313      	str	r3, [r2, #48]	; 0x30
 80014ca:	4b1f      	ldr	r3, [pc, #124]	; (8001548 <HAL_TIM_Base_MspInit+0xcc>)
 80014cc:	6b1b      	ldr	r3, [r3, #48]	; 0x30
 80014ce:	f003 0301 	and.w	r3, r3, #1
 80014d2:	60fb      	str	r3, [r7, #12]
 80014d4:	68fb      	ldr	r3, [r7, #12]
    /**TIM2 GPIO Configuration    
    PA15     ------> TIM2_CH1 
    */
    GPIO_InitStruct.Pin = GPIO_PIN_15;
 80014d6:	f44f 4300 	mov.w	r3, #32768	; 0x8000
 80014da:	617b      	str	r3, [r7, #20]
    GPIO_InitStruct.Mode = GPIO_MODE_AF_PP;
 80014dc:	2302      	movs	r3, #2
 80014de:	61bb      	str	r3, [r7, #24]
    GPIO_InitStruct.Pull = GPIO_NOPULL;
 80014e0:	2300      	movs	r3, #0
 80014e2:	61fb      	str	r3, [r7, #28]
    GPIO_InitStruct.Speed = GPIO_SPEED_FREQ_LOW;
 80014e4:	2300      	movs	r3, #0
 80014e6:	623b      	str	r3, [r7, #32]
    GPIO_InitStruct.Alternate = GPIO_AF1_TIM2;
 80014e8:	2301      	movs	r3, #1
 80014ea:	627b      	str	r3, [r7, #36]	; 0x24
    HAL_GPIO_Init(GPIOA, &GPIO_InitStruct);
 80014ec:	f107 0314 	add.w	r3, r7, #20
 80014f0:	4619      	mov	r1, r3
 80014f2:	4816      	ldr	r0, [pc, #88]	; (800154c <HAL_TIM_Base_MspInit+0xd0>)
 80014f4:	f000 fae4 	bl	8001ac0 <HAL_GPIO_Init>

    /* TIM2 interrupt Init */
    HAL_NVIC_SetPriority(TIM2_IRQn, 0, 0);
 80014f8:	2200      	movs	r2, #0
 80014fa:	2100      	movs	r1, #0
 80014fc:	201c      	movs	r0, #28
 80014fe:	f000 fa86 	bl	8001a0e <HAL_NVIC_SetPriority>
    HAL_NVIC_EnableIRQ(TIM2_IRQn);
 8001502:	201c      	movs	r0, #28
 8001504:	f000 fa9f 	bl	8001a46 <HAL_NVIC_EnableIRQ>
  /* USER CODE BEGIN TIM6_MspInit 1 */

  /* USER CODE END TIM6_MspInit 1 */
  }

}
 8001508:	e01a      	b.n	8001540 <HAL_TIM_Base_MspInit+0xc4>
  else if(htim_base->Instance==TIM6)
 800150a:	687b      	ldr	r3, [r7, #4]
 800150c:	681b      	ldr	r3, [r3, #0]
 800150e:	4a10      	ldr	r2, [pc, #64]	; (8001550 <HAL_TIM_Base_MspInit+0xd4>)
 8001510:	4293      	cmp	r3, r2
 8001512:	d115      	bne.n	8001540 <HAL_TIM_Base_MspInit+0xc4>
    __HAL_RCC_TIM6_CLK_ENABLE();
 8001514:	2300      	movs	r3, #0
 8001516:	60bb      	str	r3, [r7, #8]
 8001518:	4b0b      	ldr	r3, [pc, #44]	; (8001548 <HAL_TIM_Base_MspInit+0xcc>)
 800151a:	6c1b      	ldr	r3, [r3, #64]	; 0x40
 800151c:	4a0a      	ldr	r2, [pc, #40]	; (8001548 <HAL_TIM_Base_MspInit+0xcc>)
 800151e:	f043 0310 	orr.w	r3, r3, #16
 8001522:	6413      	str	r3, [r2, #64]	; 0x40
 8001524:	4b08      	ldr	r3, [pc, #32]	; (8001548 <HAL_TIM_Base_MspInit+0xcc>)
 8001526:	6c1b      	ldr	r3, [r3, #64]	; 0x40
 8001528:	f003 0310 	and.w	r3, r3, #16
 800152c:	60bb      	str	r3, [r7, #8]
 800152e:	68bb      	ldr	r3, [r7, #8]
    HAL_NVIC_SetPriority(TIM6_DAC_IRQn, 0, 0);
 8001530:	2200      	movs	r2, #0
 8001532:	2100      	movs	r1, #0
 8001534:	2036      	movs	r0, #54	; 0x36
 8001536:	f000 fa6a 	bl	8001a0e <HAL_NVIC_SetPriority>
    HAL_NVIC_EnableIRQ(TIM6_DAC_IRQn);
 800153a:	2036      	movs	r0, #54	; 0x36
 800153c:	f000 fa83 	bl	8001a46 <HAL_NVIC_EnableIRQ>
}
 8001540:	bf00      	nop
 8001542:	3728      	adds	r7, #40	; 0x28
 8001544:	46bd      	mov	sp, r7
 8001546:	bd80      	pop	{r7, pc}
 8001548:	40023800 	.word	0x40023800
 800154c:	40020000 	.word	0x40020000
 8001550:	40001000 	.word	0x40001000

08001554 <HAL_UART_MspInit>:
* This function configures the hardware resources used in this example
* @param huart: UART handle pointer
* @retval None
*/
void HAL_UART_MspInit(UART_HandleTypeDef* huart)
{
 8001554:	b580      	push	{r7, lr}
 8001556:	b08a      	sub	sp, #40	; 0x28
 8001558:	af00      	add	r7, sp, #0
 800155a:	6078      	str	r0, [r7, #4]
  GPIO_InitTypeDef GPIO_InitStruct = {0};
 800155c:	f107 0314 	add.w	r3, r7, #20
 8001560:	2200      	movs	r2, #0
 8001562:	601a      	str	r2, [r3, #0]
 8001564:	605a      	str	r2, [r3, #4]
 8001566:	609a      	str	r2, [r3, #8]
 8001568:	60da      	str	r2, [r3, #12]
 800156a:	611a      	str	r2, [r3, #16]
  if(huart->Instance==USART2)
 800156c:	687b      	ldr	r3, [r7, #4]
 800156e:	681b      	ldr	r3, [r3, #0]
 8001570:	4a1d      	ldr	r2, [pc, #116]	; (80015e8 <HAL_UART_MspInit+0x94>)
 8001572:	4293      	cmp	r3, r2
 8001574:	d133      	bne.n	80015de <HAL_UART_MspInit+0x8a>
  {
  /* USER CODE BEGIN USART2_MspInit 0 */

  /* USER CODE END USART2_MspInit 0 */
    /* Peripheral clock enable */
    __HAL_RCC_USART2_CLK_ENABLE();
 8001576:	2300      	movs	r3, #0
 8001578:	613b      	str	r3, [r7, #16]
 800157a:	4b1c      	ldr	r3, [pc, #112]	; (80015ec <HAL_UART_MspInit+0x98>)
 800157c:	6c1b      	ldr	r3, [r3, #64]	; 0x40
 800157e:	4a1b      	ldr	r2, [pc, #108]	; (80015ec <HAL_UART_MspInit+0x98>)
 8001580:	f443 3300 	orr.w	r3, r3, #131072	; 0x20000
 8001584:	6413      	str	r3, [r2, #64]	; 0x40
 8001586:	4b19      	ldr	r3, [pc, #100]	; (80015ec <HAL_UART_MspInit+0x98>)
 8001588:	6c1b      	ldr	r3, [r3, #64]	; 0x40
 800158a:	f403 3300 	and.w	r3, r3, #131072	; 0x20000
 800158e:	613b      	str	r3, [r7, #16]
 8001590:	693b      	ldr	r3, [r7, #16]
  
    __HAL_RCC_GPIOA_CLK_ENABLE();
 8001592:	2300      	movs	r3, #0
 8001594:	60fb      	str	r3, [r7, #12]
 8001596:	4b15      	ldr	r3, [pc, #84]	; (80015ec <HAL_UART_MspInit+0x98>)
 8001598:	6b1b      	ldr	r3, [r3, #48]	; 0x30
 800159a:	4a14      	ldr	r2, [pc, #80]	; (80015ec <HAL_UART_MspInit+0x98>)
 800159c:	f043 0301 	orr.w	r3, r3, #1
 80015a0:	6313      	str	r3, [r2, #48]	; 0x30
 80015a2:	4b12      	ldr	r3, [pc, #72]	; (80015ec <HAL_UART_MspInit+0x98>)
 80015a4:	6b1b      	ldr	r3, [r3, #48]	; 0x30
 80015a6:	f003 0301 	and.w	r3, r3, #1
 80015aa:	60fb      	str	r3, [r7, #12]
 80015ac:	68fb      	ldr	r3, [r7, #12]
    /**USART2 GPIO Configuration    
    PA2     ------> USART2_TX
    PA3     ------> USART2_RX 
    */
    GPIO_InitStruct.Pin = GPIO_PIN_2|GPIO_PIN_3;
 80015ae:	230c      	movs	r3, #12
 80015b0:	617b      	str	r3, [r7, #20]
    GPIO_InitStruct.Mode = GPIO_MODE_AF_PP;
 80015b2:	2302      	movs	r3, #2
 80015b4:	61bb      	str	r3, [r7, #24]
    GPIO_InitStruct.Pull = GPIO_NOPULL;
 80015b6:	2300      	movs	r3, #0
 80015b8:	61fb      	str	r3, [r7, #28]
    GPIO_InitStruct.Speed = GPIO_SPEED_FREQ_VERY_HIGH;
 80015ba:	2303      	movs	r3, #3
 80015bc:	623b      	str	r3, [r7, #32]
    GPIO_InitStruct.Alternate = GPIO_AF7_USART2;
 80015be:	2307      	movs	r3, #7
 80015c0:	627b      	str	r3, [r7, #36]	; 0x24
    HAL_GPIO_Init(GPIOA, &GPIO_InitStruct);
 80015c2:	f107 0314 	add.w	r3, r7, #20
 80015c6:	4619      	mov	r1, r3
 80015c8:	4809      	ldr	r0, [pc, #36]	; (80015f0 <HAL_UART_MspInit+0x9c>)
 80015ca:	f000 fa79 	bl	8001ac0 <HAL_GPIO_Init>

    /* USART2 interrupt Init */
    HAL_NVIC_SetPriority(USART2_IRQn, 0, 0);
 80015ce:	2200      	movs	r2, #0
 80015d0:	2100      	movs	r1, #0
 80015d2:	2026      	movs	r0, #38	; 0x26
 80015d4:	f000 fa1b 	bl	8001a0e <HAL_NVIC_SetPriority>
    HAL_NVIC_EnableIRQ(USART2_IRQn);
 80015d8:	2026      	movs	r0, #38	; 0x26
 80015da:	f000 fa34 	bl	8001a46 <HAL_NVIC_EnableIRQ>
  /* USER CODE BEGIN USART2_MspInit 1 */

  /* USER CODE END USART2_MspInit 1 */
  }

}
 80015de:	bf00      	nop
 80015e0:	3728      	adds	r7, #40	; 0x28
 80015e2:	46bd      	mov	sp, r7
 80015e4:	bd80      	pop	{r7, pc}
 80015e6:	bf00      	nop
 80015e8:	40004400 	.word	0x40004400
 80015ec:	40023800 	.word	0x40023800
 80015f0:	40020000 	.word	0x40020000

080015f4 <NMI_Handler>:
/******************************************************************************/
/**
  * @brief This function handles Non maskable interrupt.
  */
void NMI_Handler(void)
{
 80015f4:	b480      	push	{r7}
 80015f6:	af00      	add	r7, sp, #0

  /* USER CODE END NonMaskableInt_IRQn 0 */
  /* USER CODE BEGIN NonMaskableInt_IRQn 1 */

  /* USER CODE END NonMaskableInt_IRQn 1 */
}
 80015f8:	bf00      	nop
 80015fa:	46bd      	mov	sp, r7
 80015fc:	f85d 7b04 	ldr.w	r7, [sp], #4
 8001600:	4770      	bx	lr

08001602 <HardFault_Handler>:

/**
  * @brief This function handles Hard fault interrupt.
  */
void HardFault_Handler(void)
{
 8001602:	b480      	push	{r7}
 8001604:	af00      	add	r7, sp, #0
  /* USER CODE BEGIN HardFault_IRQn 0 */

  /* USER CODE END HardFault_IRQn 0 */
  while (1)
 8001606:	e7fe      	b.n	8001606 <HardFault_Handler+0x4>

08001608 <MemManage_Handler>:

/**
  * @brief This function handles Memory management fault.
  */
void MemManage_Handler(void)
{
 8001608:	b480      	push	{r7}
 800160a:	af00      	add	r7, sp, #0
  /* USER CODE BEGIN MemoryManagement_IRQn 0 */

  /* USER CODE END MemoryManagement_IRQn 0 */
  while (1)
 800160c:	e7fe      	b.n	800160c <MemManage_Handler+0x4>

0800160e <BusFault_Handler>:

/**
  * @brief This function handles Pre-fetch fault, memory access fault.
  */
void BusFault_Handler(void)
{
 800160e:	b480      	push	{r7}
 8001610:	af00      	add	r7, sp, #0
  /* USER CODE BEGIN BusFault_IRQn 0 */

  /* USER CODE END BusFault_IRQn 0 */
  while (1)
 8001612:	e7fe      	b.n	8001612 <BusFault_Handler+0x4>

08001614 <UsageFault_Handler>:

/**
  * @brief This function handles Undefined instruction or illegal state.
  */
void UsageFault_Handler(void)
{
 8001614:	b480      	push	{r7}
 8001616:	af00      	add	r7, sp, #0
  /* USER CODE BEGIN UsageFault_IRQn 0 */

  /* USER CODE END UsageFault_IRQn 0 */
  while (1)
 8001618:	e7fe      	b.n	8001618 <UsageFault_Handler+0x4>

0800161a <SVC_Handler>:

/**
  * @brief This function handles System service call via SWI instruction.
  */
void SVC_Handler(void)
{
 800161a:	b480      	push	{r7}
 800161c:	af00      	add	r7, sp, #0

  /* USER CODE END SVCall_IRQn 0 */
  /* USER CODE BEGIN SVCall_IRQn 1 */

  /* USER CODE END SVCall_IRQn 1 */
}
 800161e:	bf00      	nop
 8001620:	46bd      	mov	sp, r7
 8001622:	f85d 7b04 	ldr.w	r7, [sp], #4
 8001626:	4770      	bx	lr

08001628 <DebugMon_Handler>:

/**
  * @brief This function handles Debug monitor.
  */
void DebugMon_Handler(void)
{
 8001628:	b480      	push	{r7}
 800162a:	af00      	add	r7, sp, #0

  /* USER CODE END DebugMonitor_IRQn 0 */
  /* USER CODE BEGIN DebugMonitor_IRQn 1 */

  /* USER CODE END DebugMonitor_IRQn 1 */
}
 800162c:	bf00      	nop
 800162e:	46bd      	mov	sp, r7
 8001630:	f85d 7b04 	ldr.w	r7, [sp], #4
 8001634:	4770      	bx	lr

08001636 <PendSV_Handler>:

/**
  * @brief This function handles Pendable request for system service.
  */
void PendSV_Handler(void)
{
 8001636:	b480      	push	{r7}
 8001638:	af00      	add	r7, sp, #0

  /* USER CODE END PendSV_IRQn 0 */
  /* USER CODE BEGIN PendSV_IRQn 1 */

  /* USER CODE END PendSV_IRQn 1 */
}
 800163a:	bf00      	nop
 800163c:	46bd      	mov	sp, r7
 800163e:	f85d 7b04 	ldr.w	r7, [sp], #4
 8001642:	4770      	bx	lr

08001644 <SysTick_Handler>:

/**
  * @brief This function handles System tick timer.
  */
void SysTick_Handler(void)
{
 8001644:	b580      	push	{r7, lr}
 8001646:	af00      	add	r7, sp, #0
  /* USER CODE BEGIN SysTick_IRQn 0 */

  /* USER CODE END SysTick_IRQn 0 */
  HAL_IncTick();
 8001648:	f000 f8e6 	bl	8001818 <HAL_IncTick>
  /* USER CODE BEGIN SysTick_IRQn 1 */

  /* USER CODE END SysTick_IRQn 1 */
}
 800164c:	bf00      	nop
 800164e:	bd80      	pop	{r7, pc}

08001650 <RCC_IRQHandler>:

/**
  * @brief This function handles RCC global interrupt.
  */
void RCC_IRQHandler(void)
{
 8001650:	b480      	push	{r7}
 8001652:	af00      	add	r7, sp, #0

  /* USER CODE END RCC_IRQn 0 */
  /* USER CODE BEGIN RCC_IRQn 1 */

  /* USER CODE END RCC_IRQn 1 */
}
 8001654:	bf00      	nop
 8001656:	46bd      	mov	sp, r7
 8001658:	f85d 7b04 	ldr.w	r7, [sp], #4
 800165c:	4770      	bx	lr
	...

08001660 <TIM2_IRQHandler>:

/**
  * @brief This function handles TIM2 global interrupt.
  */
void TIM2_IRQHandler(void)
{
 8001660:	b580      	push	{r7, lr}
 8001662:	af00      	add	r7, sp, #0
  /* USER CODE BEGIN TIM2_IRQn 0 */
	//HAL_GPIO_WritePin(GPIOD, LD3_Pin, GPIO_PIN_SET); //these lines for checking time takes by irq 5-6us in logic
  /* USER CODE END TIM2_IRQn 0 */
  HAL_TIM_IRQHandler(&htim2);
 8001664:	4802      	ldr	r0, [pc, #8]	; (8001670 <TIM2_IRQHandler+0x10>)
 8001666:	f001 f9af 	bl	80029c8 <HAL_TIM_IRQHandler>
  /* USER CODE BEGIN TIM2_IRQn 1 */
 // HAL_GPIO_WritePin(GPIOD, LD3_Pin, GPIO_PIN_RESET);//these lines for checking time takes by irq 5-6us in logic
  /* USER CODE END TIM2_IRQn 1 */
}
 800166a:	bf00      	nop
 800166c:	bd80      	pop	{r7, pc}
 800166e:	bf00      	nop
 8001670:	20000254 	.word	0x20000254

08001674 <USART2_IRQHandler>:

/**
  * @brief This function handles USART2 global interrupt.
  */
void USART2_IRQHandler(void)
{
 8001674:	b580      	push	{r7, lr}
 8001676:	af00      	add	r7, sp, #0
  /* USER CODE BEGIN USART2_IRQn 0 */

  /* USER CODE END USART2_IRQn 0 */
  HAL_UART_IRQHandler(&huart2);
 8001678:	4802      	ldr	r0, [pc, #8]	; (8001684 <USART2_IRQHandler+0x10>)
 800167a:	f002 f81f 	bl	80036bc <HAL_UART_IRQHandler>
  /* USER CODE BEGIN USART2_IRQn 1 */

  /* USER CODE END USART2_IRQn 1 */
}
 800167e:	bf00      	nop
 8001680:	bd80      	pop	{r7, pc}
 8001682:	bf00      	nop
 8001684:	20000294 	.word	0x20000294

08001688 <TIM6_DAC_IRQHandler>:

/**
  * @brief This function handles TIM6 global interrupt, DAC1 and DAC2 underrun error interrupts.
  */
void TIM6_DAC_IRQHandler(void)
{
 8001688:	b580      	push	{r7, lr}
 800168a:	af00      	add	r7, sp, #0
  /* USER CODE BEGIN TIM6_DAC_IRQn 0 */

  /* USER CODE END TIM6_DAC_IRQn 0 */
  HAL_TIM_IRQHandler(&htim6);
 800168c:	4802      	ldr	r0, [pc, #8]	; (8001698 <TIM6_DAC_IRQHandler+0x10>)
 800168e:	f001 f99b 	bl	80029c8 <HAL_TIM_IRQHandler>
  /* USER CODE BEGIN TIM6_DAC_IRQn 1 */

  /* USER CODE END TIM6_DAC_IRQn 1 */
}
 8001692:	bf00      	nop
 8001694:	bd80      	pop	{r7, pc}
 8001696:	bf00      	nop
 8001698:	20000214 	.word	0x20000214

0800169c <_sbrk>:
/**
 _sbrk
 Increase program data space. Malloc and related functions depend on this
**/
caddr_t _sbrk(int incr)
{
 800169c:	b580      	push	{r7, lr}
 800169e:	b084      	sub	sp, #16
 80016a0:	af00      	add	r7, sp, #0
 80016a2:	6078      	str	r0, [r7, #4]
	extern char end asm("end");
	static char *heap_end;
	char *prev_heap_end;

	if (heap_end == 0)
 80016a4:	4b11      	ldr	r3, [pc, #68]	; (80016ec <_sbrk+0x50>)
 80016a6:	681b      	ldr	r3, [r3, #0]
 80016a8:	2b00      	cmp	r3, #0
 80016aa:	d102      	bne.n	80016b2 <_sbrk+0x16>
		heap_end = &end;
 80016ac:	4b0f      	ldr	r3, [pc, #60]	; (80016ec <_sbrk+0x50>)
 80016ae:	4a10      	ldr	r2, [pc, #64]	; (80016f0 <_sbrk+0x54>)
 80016b0:	601a      	str	r2, [r3, #0]

	prev_heap_end = heap_end;
 80016b2:	4b0e      	ldr	r3, [pc, #56]	; (80016ec <_sbrk+0x50>)
 80016b4:	681b      	ldr	r3, [r3, #0]
 80016b6:	60fb      	str	r3, [r7, #12]
	if (heap_end + incr > stack_ptr)
 80016b8:	4b0c      	ldr	r3, [pc, #48]	; (80016ec <_sbrk+0x50>)
 80016ba:	681a      	ldr	r2, [r3, #0]
 80016bc:	687b      	ldr	r3, [r7, #4]
 80016be:	4413      	add	r3, r2
 80016c0:	466a      	mov	r2, sp
 80016c2:	4293      	cmp	r3, r2
 80016c4:	d907      	bls.n	80016d6 <_sbrk+0x3a>
	{
		errno = ENOMEM;
 80016c6:	f002 fdff 	bl	80042c8 <__errno>
 80016ca:	4602      	mov	r2, r0
 80016cc:	230c      	movs	r3, #12
 80016ce:	6013      	str	r3, [r2, #0]
		return (caddr_t) -1;
 80016d0:	f04f 33ff 	mov.w	r3, #4294967295
 80016d4:	e006      	b.n	80016e4 <_sbrk+0x48>
	}

	heap_end += incr;
 80016d6:	4b05      	ldr	r3, [pc, #20]	; (80016ec <_sbrk+0x50>)
 80016d8:	681a      	ldr	r2, [r3, #0]
 80016da:	687b      	ldr	r3, [r7, #4]
 80016dc:	4413      	add	r3, r2
 80016de:	4a03      	ldr	r2, [pc, #12]	; (80016ec <_sbrk+0x50>)
 80016e0:	6013      	str	r3, [r2, #0]

	return (caddr_t) prev_heap_end;
 80016e2:	68fb      	ldr	r3, [r7, #12]
}
 80016e4:	4618      	mov	r0, r3
 80016e6:	3710      	adds	r7, #16
 80016e8:	46bd      	mov	sp, r7
 80016ea:	bd80      	pop	{r7, pc}
 80016ec:	20000208 	.word	0x20000208
 80016f0:	200002e0 	.word	0x200002e0

080016f4 <SystemInit>:
  *         configuration.
  * @param  None
  * @retval None
  */
void SystemInit(void)
{
 80016f4:	b480      	push	{r7}
 80016f6:	af00      	add	r7, sp, #0
  /* FPU settings ------------------------------------------------------------*/
  #if (__FPU_PRESENT == 1) && (__FPU_USED == 1)
    SCB->CPACR |= ((3UL << 10*2)|(3UL << 11*2));  /* set CP10 and CP11 Full Access */
 80016f8:	4b08      	ldr	r3, [pc, #32]	; (800171c <SystemInit+0x28>)
 80016fa:	f8d3 3088 	ldr.w	r3, [r3, #136]	; 0x88
 80016fe:	4a07      	ldr	r2, [pc, #28]	; (800171c <SystemInit+0x28>)
 8001700:	f443 0370 	orr.w	r3, r3, #15728640	; 0xf00000
 8001704:	f8c2 3088 	str.w	r3, [r2, #136]	; 0x88

  /* Configure the Vector Table location add offset address ------------------*/
#ifdef VECT_TAB_SRAM
  SCB->VTOR = SRAM_BASE | VECT_TAB_OFFSET; /* Vector Table Relocation in Internal SRAM */
#else
  SCB->VTOR = FLASH_BASE | VECT_TAB_OFFSET; /* Vector Table Relocation in Internal FLASH */
 8001708:	4b04      	ldr	r3, [pc, #16]	; (800171c <SystemInit+0x28>)
 800170a:	f04f 6200 	mov.w	r2, #134217728	; 0x8000000
 800170e:	609a      	str	r2, [r3, #8]
#endif
}
 8001710:	bf00      	nop
 8001712:	46bd      	mov	sp, r7
 8001714:	f85d 7b04 	ldr.w	r7, [sp], #4
 8001718:	4770      	bx	lr
 800171a:	bf00      	nop
 800171c:	e000ed00 	.word	0xe000ed00

08001720 <Reset_Handler>:

    .section  .text.Reset_Handler
  .weak  Reset_Handler
  .type  Reset_Handler, %function
Reset_Handler:  
  ldr   sp, =_estack     /* set stack pointer */
 8001720:	f8df d034 	ldr.w	sp, [pc, #52]	; 8001758 <LoopFillZerobss+0x14>

/* Copy the data segment initializers from flash to SRAM */  
  movs  r1, #0
 8001724:	2100      	movs	r1, #0
  b  LoopCopyDataInit
 8001726:	e003      	b.n	8001730 <LoopCopyDataInit>

08001728 <CopyDataInit>:

CopyDataInit:
  ldr  r3, =_sidata
 8001728:	4b0c      	ldr	r3, [pc, #48]	; (800175c <LoopFillZerobss+0x18>)
  ldr  r3, [r3, r1]
 800172a:	585b      	ldr	r3, [r3, r1]
  str  r3, [r0, r1]
 800172c:	5043      	str	r3, [r0, r1]
  adds  r1, r1, #4
 800172e:	3104      	adds	r1, #4

08001730 <LoopCopyDataInit>:
    
LoopCopyDataInit:
  ldr  r0, =_sdata
 8001730:	480b      	ldr	r0, [pc, #44]	; (8001760 <LoopFillZerobss+0x1c>)
  ldr  r3, =_edata
 8001732:	4b0c      	ldr	r3, [pc, #48]	; (8001764 <LoopFillZerobss+0x20>)
  adds  r2, r0, r1
 8001734:	1842      	adds	r2, r0, r1
  cmp  r2, r3
 8001736:	429a      	cmp	r2, r3
  bcc  CopyDataInit
 8001738:	d3f6      	bcc.n	8001728 <CopyDataInit>
  ldr  r2, =_sbss
 800173a:	4a0b      	ldr	r2, [pc, #44]	; (8001768 <LoopFillZerobss+0x24>)
  b  LoopFillZerobss
 800173c:	e002      	b.n	8001744 <LoopFillZerobss>

0800173e <FillZerobss>:
/* Zero fill the bss segment. */  
FillZerobss:
  movs  r3, #0
 800173e:	2300      	movs	r3, #0
  str  r3, [r2], #4
 8001740:	f842 3b04 	str.w	r3, [r2], #4

08001744 <LoopFillZerobss>:
    
LoopFillZerobss:
  ldr  r3, = _ebss
 8001744:	4b09      	ldr	r3, [pc, #36]	; (800176c <LoopFillZerobss+0x28>)
  cmp  r2, r3
 8001746:	429a      	cmp	r2, r3
  bcc  FillZerobss
 8001748:	d3f9      	bcc.n	800173e <FillZerobss>

/* Call the clock system intitialization function.*/
  bl  SystemInit   
 800174a:	f7ff ffd3 	bl	80016f4 <SystemInit>
/* Call static constructors */
    bl __libc_init_array
 800174e:	f002 fdc1 	bl	80042d4 <__libc_init_array>
/* Call the application's entry point.*/
  bl  main
 8001752:	f7ff fba9 	bl	8000ea8 <main>
  bx  lr    
 8001756:	4770      	bx	lr
  ldr   sp, =_estack     /* set stack pointer */
 8001758:	20020000 	.word	0x20020000
  ldr  r3, =_sidata
 800175c:	08006670 	.word	0x08006670
  ldr  r0, =_sdata
 8001760:	20000000 	.word	0x20000000
  ldr  r3, =_edata
 8001764:	200001e0 	.word	0x200001e0
  ldr  r2, =_sbss
 8001768:	200001e0 	.word	0x200001e0
  ldr  r3, = _ebss
 800176c:	200002dc 	.word	0x200002dc

08001770 <ADC_IRQHandler>:
 * @retval None       
*/
    .section  .text.Default_Handler,"ax",%progbits
Default_Handler:
Infinite_Loop:
  b  Infinite_Loop
 8001770:	e7fe      	b.n	8001770 <ADC_IRQHandler>
	...

08001774 <HAL_Init>:
  *         need to ensure that the SysTick time base is always set to 1 millisecond
  *         to have correct HAL operation.
  * @retval HAL status
  */
HAL_StatusTypeDef HAL_Init(void)
{
 8001774:	b580      	push	{r7, lr}
 8001776:	af00      	add	r7, sp, #0
  /* Configure Flash prefetch, Instruction cache, Data cache */ 
#if (INSTRUCTION_CACHE_ENABLE != 0U)
  __HAL_FLASH_INSTRUCTION_CACHE_ENABLE();
 8001778:	4b0e      	ldr	r3, [pc, #56]	; (80017b4 <HAL_Init+0x40>)
 800177a:	681b      	ldr	r3, [r3, #0]
 800177c:	4a0d      	ldr	r2, [pc, #52]	; (80017b4 <HAL_Init+0x40>)
 800177e:	f443 7300 	orr.w	r3, r3, #512	; 0x200
 8001782:	6013      	str	r3, [r2, #0]
#endif /* INSTRUCTION_CACHE_ENABLE */

#if (DATA_CACHE_ENABLE != 0U)
  __HAL_FLASH_DATA_CACHE_ENABLE();
 8001784:	4b0b      	ldr	r3, [pc, #44]	; (80017b4 <HAL_Init+0x40>)
 8001786:	681b      	ldr	r3, [r3, #0]
 8001788:	4a0a      	ldr	r2, [pc, #40]	; (80017b4 <HAL_Init+0x40>)
 800178a:	f443 6380 	orr.w	r3, r3, #1024	; 0x400
 800178e:	6013      	str	r3, [r2, #0]
#endif /* DATA_CACHE_ENABLE */

#if (PREFETCH_ENABLE != 0U)
  __HAL_FLASH_PREFETCH_BUFFER_ENABLE();
 8001790:	4b08      	ldr	r3, [pc, #32]	; (80017b4 <HAL_Init+0x40>)
 8001792:	681b      	ldr	r3, [r3, #0]
 8001794:	4a07      	ldr	r2, [pc, #28]	; (80017b4 <HAL_Init+0x40>)
 8001796:	f443 7380 	orr.w	r3, r3, #256	; 0x100
 800179a:	6013      	str	r3, [r2, #0]
#endif /* PREFETCH_ENABLE */

  /* Set Interrupt Group Priority */
  HAL_NVIC_SetPriorityGrouping(NVIC_PRIORITYGROUP_4);
 800179c:	2003      	movs	r0, #3
 800179e:	f000 f92b 	bl	80019f8 <HAL_NVIC_SetPriorityGrouping>

  /* Use systick as time base source and configure 1ms tick (default clock after Reset is HSI) */
  HAL_InitTick(TICK_INT_PRIORITY);
 80017a2:	2000      	movs	r0, #0
 80017a4:	f000 f808 	bl	80017b8 <HAL_InitTick>

  /* Init the low level hardware */
  HAL_MspInit();
 80017a8:	f7ff fe38 	bl	800141c <HAL_MspInit>

  /* Return function status */
  return HAL_OK;
 80017ac:	2300      	movs	r3, #0
}
 80017ae:	4618      	mov	r0, r3
 80017b0:	bd80      	pop	{r7, pc}
 80017b2:	bf00      	nop
 80017b4:	40023c00 	.word	0x40023c00

080017b8 <HAL_InitTick>:
  *       implementation  in user file.
  * @param TickPriority Tick interrupt priority.
  * @retval HAL status
  */
__weak HAL_StatusTypeDef HAL_InitTick(uint32_t TickPriority)
{
 80017b8:	b580      	push	{r7, lr}
 80017ba:	b082      	sub	sp, #8
 80017bc:	af00      	add	r7, sp, #0
 80017be:	6078      	str	r0, [r7, #4]
  /* Configure the SysTick to have interrupt in 1ms time basis*/
  if (HAL_SYSTICK_Config(SystemCoreClock / (1000U / uwTickFreq)) > 0U)
 80017c0:	4b12      	ldr	r3, [pc, #72]	; (800180c <HAL_InitTick+0x54>)
 80017c2:	681a      	ldr	r2, [r3, #0]
 80017c4:	4b12      	ldr	r3, [pc, #72]	; (8001810 <HAL_InitTick+0x58>)
 80017c6:	781b      	ldrb	r3, [r3, #0]
 80017c8:	4619      	mov	r1, r3
 80017ca:	f44f 737a 	mov.w	r3, #1000	; 0x3e8
 80017ce:	fbb3 f3f1 	udiv	r3, r3, r1
 80017d2:	fbb2 f3f3 	udiv	r3, r2, r3
 80017d6:	4618      	mov	r0, r3
 80017d8:	f000 f943 	bl	8001a62 <HAL_SYSTICK_Config>
 80017dc:	4603      	mov	r3, r0
 80017de:	2b00      	cmp	r3, #0
 80017e0:	d001      	beq.n	80017e6 <HAL_InitTick+0x2e>
  {
    return HAL_ERROR;
 80017e2:	2301      	movs	r3, #1
 80017e4:	e00e      	b.n	8001804 <HAL_InitTick+0x4c>
  }

  /* Configure the SysTick IRQ priority */
  if (TickPriority < (1UL << __NVIC_PRIO_BITS))
 80017e6:	687b      	ldr	r3, [r7, #4]
 80017e8:	2b0f      	cmp	r3, #15
 80017ea:	d80a      	bhi.n	8001802 <HAL_InitTick+0x4a>
  {
    HAL_NVIC_SetPriority(SysTick_IRQn, TickPriority, 0U);
 80017ec:	2200      	movs	r2, #0
 80017ee:	6879      	ldr	r1, [r7, #4]
 80017f0:	f04f 30ff 	mov.w	r0, #4294967295
 80017f4:	f000 f90b 	bl	8001a0e <HAL_NVIC_SetPriority>
    uwTickPrio = TickPriority;
 80017f8:	4a06      	ldr	r2, [pc, #24]	; (8001814 <HAL_InitTick+0x5c>)
 80017fa:	687b      	ldr	r3, [r7, #4]
 80017fc:	6013      	str	r3, [r2, #0]
  {
    return HAL_ERROR;
  }

  /* Return function status */
  return HAL_OK;
 80017fe:	2300      	movs	r3, #0
 8001800:	e000      	b.n	8001804 <HAL_InitTick+0x4c>
    return HAL_ERROR;
 8001802:	2301      	movs	r3, #1
}
 8001804:	4618      	mov	r0, r3
 8001806:	3708      	adds	r7, #8
 8001808:	46bd      	mov	sp, r7
 800180a:	bd80      	pop	{r7, pc}
 800180c:	20000004 	.word	0x20000004
 8001810:	2000000c 	.word	0x2000000c
 8001814:	20000008 	.word	0x20000008

08001818 <HAL_IncTick>:
 * @note This function is declared as __weak to be overwritten in case of other 
  *      implementations in user file.
  * @retval None
  */
__weak void HAL_IncTick(void)
{
 8001818:	b480      	push	{r7}
 800181a:	af00      	add	r7, sp, #0
  uwTick += uwTickFreq;
 800181c:	4b06      	ldr	r3, [pc, #24]	; (8001838 <HAL_IncTick+0x20>)
 800181e:	781b      	ldrb	r3, [r3, #0]
 8001820:	461a      	mov	r2, r3
 8001822:	4b06      	ldr	r3, [pc, #24]	; (800183c <HAL_IncTick+0x24>)
 8001824:	681b      	ldr	r3, [r3, #0]
 8001826:	4413      	add	r3, r2
 8001828:	4a04      	ldr	r2, [pc, #16]	; (800183c <HAL_IncTick+0x24>)
 800182a:	6013      	str	r3, [r2, #0]
}
 800182c:	bf00      	nop
 800182e:	46bd      	mov	sp, r7
 8001830:	f85d 7b04 	ldr.w	r7, [sp], #4
 8001834:	4770      	bx	lr
 8001836:	bf00      	nop
 8001838:	2000000c 	.word	0x2000000c
 800183c:	200002d4 	.word	0x200002d4

08001840 <HAL_GetTick>:
  * @note This function is declared as __weak to be overwritten in case of other 
  *       implementations in user file.
  * @retval tick value
  */
__weak uint32_t HAL_GetTick(void)
{
 8001840:	b480      	push	{r7}
 8001842:	af00      	add	r7, sp, #0
  return uwTick;
 8001844:	4b03      	ldr	r3, [pc, #12]	; (8001854 <HAL_GetTick+0x14>)
 8001846:	681b      	ldr	r3, [r3, #0]
}
 8001848:	4618      	mov	r0, r3
 800184a:	46bd      	mov	sp, r7
 800184c:	f85d 7b04 	ldr.w	r7, [sp], #4
 8001850:	4770      	bx	lr
 8001852:	bf00      	nop
 8001854:	200002d4 	.word	0x200002d4

08001858 <__NVIC_SetPriorityGrouping>:
           In case of a conflict between priority grouping and available
           priority bits (__NVIC_PRIO_BITS), the smallest possible priority group is set.
  \param [in]      PriorityGroup  Priority grouping field.
 */
__STATIC_INLINE void __NVIC_SetPriorityGrouping(uint32_t PriorityGroup)
{
 8001858:	b480      	push	{r7}
 800185a:	b085      	sub	sp, #20
 800185c:	af00      	add	r7, sp, #0
 800185e:	6078      	str	r0, [r7, #4]
  uint32_t reg_value;
  uint32_t PriorityGroupTmp = (PriorityGroup & (uint32_t)0x07UL);             /* only values 0..7 are used          */
 8001860:	687b      	ldr	r3, [r7, #4]
 8001862:	f003 0307 	and.w	r3, r3, #7
 8001866:	60fb      	str	r3, [r7, #12]

  reg_value  =  SCB->AIRCR;                                                   /* read old register configuration    */
 8001868:	4b0c      	ldr	r3, [pc, #48]	; (800189c <__NVIC_SetPriorityGrouping+0x44>)
 800186a:	68db      	ldr	r3, [r3, #12]
 800186c:	60bb      	str	r3, [r7, #8]
  reg_value &= ~((uint32_t)(SCB_AIRCR_VECTKEY_Msk | SCB_AIRCR_PRIGROUP_Msk)); /* clear bits to change               */
 800186e:	68ba      	ldr	r2, [r7, #8]
 8001870:	f64f 03ff 	movw	r3, #63743	; 0xf8ff
 8001874:	4013      	ands	r3, r2
 8001876:	60bb      	str	r3, [r7, #8]
  reg_value  =  (reg_value                                   |
                ((uint32_t)0x5FAUL << SCB_AIRCR_VECTKEY_Pos) |
                (PriorityGroupTmp << SCB_AIRCR_PRIGROUP_Pos)  );              /* Insert write key and priority group */
 8001878:	68fb      	ldr	r3, [r7, #12]
 800187a:	021a      	lsls	r2, r3, #8
                ((uint32_t)0x5FAUL << SCB_AIRCR_VECTKEY_Pos) |
 800187c:	68bb      	ldr	r3, [r7, #8]
 800187e:	4313      	orrs	r3, r2
  reg_value  =  (reg_value                                   |
 8001880:	f043 63bf 	orr.w	r3, r3, #100139008	; 0x5f80000
 8001884:	f443 3300 	orr.w	r3, r3, #131072	; 0x20000
 8001888:	60bb      	str	r3, [r7, #8]
  SCB->AIRCR =  reg_value;
 800188a:	4a04      	ldr	r2, [pc, #16]	; (800189c <__NVIC_SetPriorityGrouping+0x44>)
 800188c:	68bb      	ldr	r3, [r7, #8]
 800188e:	60d3      	str	r3, [r2, #12]
}
 8001890:	bf00      	nop
 8001892:	3714      	adds	r7, #20
 8001894:	46bd      	mov	sp, r7
 8001896:	f85d 7b04 	ldr.w	r7, [sp], #4
 800189a:	4770      	bx	lr
 800189c:	e000ed00 	.word	0xe000ed00

080018a0 <__NVIC_GetPriorityGrouping>:
  \brief   Get Priority Grouping
  \details Reads the priority grouping field from the NVIC Interrupt Controller.
  \return                Priority grouping field (SCB->AIRCR [10:8] PRIGROUP field).
 */
__STATIC_INLINE uint32_t __NVIC_GetPriorityGrouping(void)
{
 80018a0:	b480      	push	{r7}
 80018a2:	af00      	add	r7, sp, #0
  return ((uint32_t)((SCB->AIRCR & SCB_AIRCR_PRIGROUP_Msk) >> SCB_AIRCR_PRIGROUP_Pos));
 80018a4:	4b04      	ldr	r3, [pc, #16]	; (80018b8 <__NVIC_GetPriorityGrouping+0x18>)
 80018a6:	68db      	ldr	r3, [r3, #12]
 80018a8:	0a1b      	lsrs	r3, r3, #8
 80018aa:	f003 0307 	and.w	r3, r3, #7
}
 80018ae:	4618      	mov	r0, r3
 80018b0:	46bd      	mov	sp, r7
 80018b2:	f85d 7b04 	ldr.w	r7, [sp], #4
 80018b6:	4770      	bx	lr
 80018b8:	e000ed00 	.word	0xe000ed00

080018bc <__NVIC_EnableIRQ>:
  \details Enables a device specific interrupt in the NVIC interrupt controller.
  \param [in]      IRQn  Device specific interrupt number.
  \note    IRQn must not be negative.
 */
__STATIC_INLINE void __NVIC_EnableIRQ(IRQn_Type IRQn)
{
 80018bc:	b480      	push	{r7}
 80018be:	b083      	sub	sp, #12
 80018c0:	af00      	add	r7, sp, #0
 80018c2:	4603      	mov	r3, r0
 80018c4:	71fb      	strb	r3, [r7, #7]
  if ((int32_t)(IRQn) >= 0)
 80018c6:	f997 3007 	ldrsb.w	r3, [r7, #7]
 80018ca:	2b00      	cmp	r3, #0
 80018cc:	db0b      	blt.n	80018e6 <__NVIC_EnableIRQ+0x2a>
  {
    NVIC->ISER[(((uint32_t)IRQn) >> 5UL)] = (uint32_t)(1UL << (((uint32_t)IRQn) & 0x1FUL));
 80018ce:	79fb      	ldrb	r3, [r7, #7]
 80018d0:	f003 021f 	and.w	r2, r3, #31
 80018d4:	4907      	ldr	r1, [pc, #28]	; (80018f4 <__NVIC_EnableIRQ+0x38>)
 80018d6:	f997 3007 	ldrsb.w	r3, [r7, #7]
 80018da:	095b      	lsrs	r3, r3, #5
 80018dc:	2001      	movs	r0, #1
 80018de:	fa00 f202 	lsl.w	r2, r0, r2
 80018e2:	f841 2023 	str.w	r2, [r1, r3, lsl #2]
  }
}
 80018e6:	bf00      	nop
 80018e8:	370c      	adds	r7, #12
 80018ea:	46bd      	mov	sp, r7
 80018ec:	f85d 7b04 	ldr.w	r7, [sp], #4
 80018f0:	4770      	bx	lr
 80018f2:	bf00      	nop
 80018f4:	e000e100 	.word	0xe000e100

080018f8 <__NVIC_SetPriority>:
  \param [in]      IRQn  Interrupt number.
  \param [in]  priority  Priority to set.
  \note    The priority cannot be set for every processor exception.
 */
__STATIC_INLINE void __NVIC_SetPriority(IRQn_Type IRQn, uint32_t priority)
{
 80018f8:	b480      	push	{r7}
 80018fa:	b083      	sub	sp, #12
 80018fc:	af00      	add	r7, sp, #0
 80018fe:	4603      	mov	r3, r0
 8001900:	6039      	str	r1, [r7, #0]
 8001902:	71fb      	strb	r3, [r7, #7]
  if ((int32_t)(IRQn) >= 0)
 8001904:	f997 3007 	ldrsb.w	r3, [r7, #7]
 8001908:	2b00      	cmp	r3, #0
 800190a:	db0a      	blt.n	8001922 <__NVIC_SetPriority+0x2a>
  {
    NVIC->IP[((uint32_t)IRQn)]               = (uint8_t)((priority << (8U - __NVIC_PRIO_BITS)) & (uint32_t)0xFFUL);
 800190c:	683b      	ldr	r3, [r7, #0]
 800190e:	b2da      	uxtb	r2, r3
 8001910:	490c      	ldr	r1, [pc, #48]	; (8001944 <__NVIC_SetPriority+0x4c>)
 8001912:	f997 3007 	ldrsb.w	r3, [r7, #7]
 8001916:	0112      	lsls	r2, r2, #4
 8001918:	b2d2      	uxtb	r2, r2
 800191a:	440b      	add	r3, r1
 800191c:	f883 2300 	strb.w	r2, [r3, #768]	; 0x300
  }
  else
  {
    SCB->SHP[(((uint32_t)IRQn) & 0xFUL)-4UL] = (uint8_t)((priority << (8U - __NVIC_PRIO_BITS)) & (uint32_t)0xFFUL);
  }
}
 8001920:	e00a      	b.n	8001938 <__NVIC_SetPriority+0x40>
    SCB->SHP[(((uint32_t)IRQn) & 0xFUL)-4UL] = (uint8_t)((priority << (8U - __NVIC_PRIO_BITS)) & (uint32_t)0xFFUL);
 8001922:	683b      	ldr	r3, [r7, #0]
 8001924:	b2da      	uxtb	r2, r3
 8001926:	4908      	ldr	r1, [pc, #32]	; (8001948 <__NVIC_SetPriority+0x50>)
 8001928:	79fb      	ldrb	r3, [r7, #7]
 800192a:	f003 030f 	and.w	r3, r3, #15
 800192e:	3b04      	subs	r3, #4
 8001930:	0112      	lsls	r2, r2, #4
 8001932:	b2d2      	uxtb	r2, r2
 8001934:	440b      	add	r3, r1
 8001936:	761a      	strb	r2, [r3, #24]
}
 8001938:	bf00      	nop
 800193a:	370c      	adds	r7, #12
 800193c:	46bd      	mov	sp, r7
 800193e:	f85d 7b04 	ldr.w	r7, [sp], #4
 8001942:	4770      	bx	lr
 8001944:	e000e100 	.word	0xe000e100
 8001948:	e000ed00 	.word	0xe000ed00

0800194c <NVIC_EncodePriority>:
  \param [in]   PreemptPriority  Preemptive priority value (starting from 0).
  \param [in]       SubPriority  Subpriority value (starting from 0).
  \return                        Encoded priority. Value can be used in the function \ref NVIC_SetPriority().
 */
__STATIC_INLINE uint32_t NVIC_EncodePriority (uint32_t PriorityGroup, uint32_t PreemptPriority, uint32_t SubPriority)
{
 800194c:	b480      	push	{r7}
 800194e:	b089      	sub	sp, #36	; 0x24
 8001950:	af00      	add	r7, sp, #0
 8001952:	60f8      	str	r0, [r7, #12]
 8001954:	60b9      	str	r1, [r7, #8]
 8001956:	607a      	str	r2, [r7, #4]
  uint32_t PriorityGroupTmp = (PriorityGroup & (uint32_t)0x07UL);   /* only values 0..7 are used          */
 8001958:	68fb      	ldr	r3, [r7, #12]
 800195a:	f003 0307 	and.w	r3, r3, #7
 800195e:	61fb      	str	r3, [r7, #28]
  uint32_t PreemptPriorityBits;
  uint32_t SubPriorityBits;

  PreemptPriorityBits = ((7UL - PriorityGroupTmp) > (uint32_t)(__NVIC_PRIO_BITS)) ? (uint32_t)(__NVIC_PRIO_BITS) : (uint32_t)(7UL - PriorityGroupTmp);
 8001960:	69fb      	ldr	r3, [r7, #28]
 8001962:	f1c3 0307 	rsb	r3, r3, #7
 8001966:	2b04      	cmp	r3, #4
 8001968:	bf28      	it	cs
 800196a:	2304      	movcs	r3, #4
 800196c:	61bb      	str	r3, [r7, #24]
  SubPriorityBits     = ((PriorityGroupTmp + (uint32_t)(__NVIC_PRIO_BITS)) < (uint32_t)7UL) ? (uint32_t)0UL : (uint32_t)((PriorityGroupTmp - 7UL) + (uint32_t)(__NVIC_PRIO_BITS));
 800196e:	69fb      	ldr	r3, [r7, #28]
 8001970:	3304      	adds	r3, #4
 8001972:	2b06      	cmp	r3, #6
 8001974:	d902      	bls.n	800197c <NVIC_EncodePriority+0x30>
 8001976:	69fb      	ldr	r3, [r7, #28]
 8001978:	3b03      	subs	r3, #3
 800197a:	e000      	b.n	800197e <NVIC_EncodePriority+0x32>
 800197c:	2300      	movs	r3, #0
 800197e:	617b      	str	r3, [r7, #20]

  return (
           ((PreemptPriority & (uint32_t)((1UL << (PreemptPriorityBits)) - 1UL)) << SubPriorityBits) |
 8001980:	f04f 32ff 	mov.w	r2, #4294967295
 8001984:	69bb      	ldr	r3, [r7, #24]
 8001986:	fa02 f303 	lsl.w	r3, r2, r3
 800198a:	43da      	mvns	r2, r3
 800198c:	68bb      	ldr	r3, [r7, #8]
 800198e:	401a      	ands	r2, r3
 8001990:	697b      	ldr	r3, [r7, #20]
 8001992:	409a      	lsls	r2, r3
           ((SubPriority     & (uint32_t)((1UL << (SubPriorityBits    )) - 1UL)))
 8001994:	f04f 31ff 	mov.w	r1, #4294967295
 8001998:	697b      	ldr	r3, [r7, #20]
 800199a:	fa01 f303 	lsl.w	r3, r1, r3
 800199e:	43d9      	mvns	r1, r3
 80019a0:	687b      	ldr	r3, [r7, #4]
 80019a2:	400b      	ands	r3, r1
           ((PreemptPriority & (uint32_t)((1UL << (PreemptPriorityBits)) - 1UL)) << SubPriorityBits) |
 80019a4:	4313      	orrs	r3, r2
         );
}
 80019a6:	4618      	mov	r0, r3
 80019a8:	3724      	adds	r7, #36	; 0x24
 80019aa:	46bd      	mov	sp, r7
 80019ac:	f85d 7b04 	ldr.w	r7, [sp], #4
 80019b0:	4770      	bx	lr
	...

080019b4 <SysTick_Config>:
  \note    When the variable <b>__Vendor_SysTickConfig</b> is set to 1, then the
           function <b>SysTick_Config</b> is not included. In this case, the file <b><i>device</i>.h</b>
           must contain a vendor-specific implementation of this function.
 */
__STATIC_INLINE uint32_t SysTick_Config(uint32_t ticks)
{
 80019b4:	b580      	push	{r7, lr}
 80019b6:	b082      	sub	sp, #8
 80019b8:	af00      	add	r7, sp, #0
 80019ba:	6078      	str	r0, [r7, #4]
  if ((ticks - 1UL) > SysTick_LOAD_RELOAD_Msk)
 80019bc:	687b      	ldr	r3, [r7, #4]
 80019be:	3b01      	subs	r3, #1
 80019c0:	f1b3 7f80 	cmp.w	r3, #16777216	; 0x1000000
 80019c4:	d301      	bcc.n	80019ca <SysTick_Config+0x16>
  {
    return (1UL);                                                   /* Reload value impossible */
 80019c6:	2301      	movs	r3, #1
 80019c8:	e00f      	b.n	80019ea <SysTick_Config+0x36>
  }

  SysTick->LOAD  = (uint32_t)(ticks - 1UL);                         /* set reload register */
 80019ca:	4a0a      	ldr	r2, [pc, #40]	; (80019f4 <SysTick_Config+0x40>)
 80019cc:	687b      	ldr	r3, [r7, #4]
 80019ce:	3b01      	subs	r3, #1
 80019d0:	6053      	str	r3, [r2, #4]
  NVIC_SetPriority (SysTick_IRQn, (1UL << __NVIC_PRIO_BITS) - 1UL); /* set Priority for Systick Interrupt */
 80019d2:	210f      	movs	r1, #15
 80019d4:	f04f 30ff 	mov.w	r0, #4294967295
 80019d8:	f7ff ff8e 	bl	80018f8 <__NVIC_SetPriority>
  SysTick->VAL   = 0UL;                                             /* Load the SysTick Counter Value */
 80019dc:	4b05      	ldr	r3, [pc, #20]	; (80019f4 <SysTick_Config+0x40>)
 80019de:	2200      	movs	r2, #0
 80019e0:	609a      	str	r2, [r3, #8]
  SysTick->CTRL  = SysTick_CTRL_CLKSOURCE_Msk |
 80019e2:	4b04      	ldr	r3, [pc, #16]	; (80019f4 <SysTick_Config+0x40>)
 80019e4:	2207      	movs	r2, #7
 80019e6:	601a      	str	r2, [r3, #0]
                   SysTick_CTRL_TICKINT_Msk   |
                   SysTick_CTRL_ENABLE_Msk;                         /* Enable SysTick IRQ and SysTick Timer */
  return (0UL);                                                     /* Function successful */
 80019e8:	2300      	movs	r3, #0
}
 80019ea:	4618      	mov	r0, r3
 80019ec:	3708      	adds	r7, #8
 80019ee:	46bd      	mov	sp, r7
 80019f0:	bd80      	pop	{r7, pc}
 80019f2:	bf00      	nop
 80019f4:	e000e010 	.word	0xe000e010

080019f8 <HAL_NVIC_SetPriorityGrouping>:
  * @note   When the NVIC_PriorityGroup_0 is selected, IRQ preemption is no more possible. 
  *         The pending IRQ priority will be managed only by the subpriority. 
  * @retval None
  */
void HAL_NVIC_SetPriorityGrouping(uint32_t PriorityGroup)
{
 80019f8:	b580      	push	{r7, lr}
 80019fa:	b082      	sub	sp, #8
 80019fc:	af00      	add	r7, sp, #0
 80019fe:	6078      	str	r0, [r7, #4]
  /* Check the parameters */
  assert_param(IS_NVIC_PRIORITY_GROUP(PriorityGroup));
  
  /* Set the PRIGROUP[10:8] bits according to the PriorityGroup parameter value */
  NVIC_SetPriorityGrouping(PriorityGroup);
 8001a00:	6878      	ldr	r0, [r7, #4]
 8001a02:	f7ff ff29 	bl	8001858 <__NVIC_SetPriorityGrouping>
}
 8001a06:	bf00      	nop
 8001a08:	3708      	adds	r7, #8
 8001a0a:	46bd      	mov	sp, r7
 8001a0c:	bd80      	pop	{r7, pc}

08001a0e <HAL_NVIC_SetPriority>:
  *         This parameter can be a value between 0 and 15
  *         A lower priority value indicates a higher priority.          
  * @retval None
  */
void HAL_NVIC_SetPriority(IRQn_Type IRQn, uint32_t PreemptPriority, uint32_t SubPriority)
{ 
 8001a0e:	b580      	push	{r7, lr}
 8001a10:	b086      	sub	sp, #24
 8001a12:	af00      	add	r7, sp, #0
 8001a14:	4603      	mov	r3, r0
 8001a16:	60b9      	str	r1, [r7, #8]
 8001a18:	607a      	str	r2, [r7, #4]
 8001a1a:	73fb      	strb	r3, [r7, #15]
  uint32_t prioritygroup = 0x00U;
 8001a1c:	2300      	movs	r3, #0
 8001a1e:	617b      	str	r3, [r7, #20]
  
  /* Check the parameters */
  assert_param(IS_NVIC_SUB_PRIORITY(SubPriority));
  assert_param(IS_NVIC_PREEMPTION_PRIORITY(PreemptPriority));
  
  prioritygroup = NVIC_GetPriorityGrouping();
 8001a20:	f7ff ff3e 	bl	80018a0 <__NVIC_GetPriorityGrouping>
 8001a24:	6178      	str	r0, [r7, #20]
  
  NVIC_SetPriority(IRQn, NVIC_EncodePriority(prioritygroup, PreemptPriority, SubPriority));
 8001a26:	687a      	ldr	r2, [r7, #4]
 8001a28:	68b9      	ldr	r1, [r7, #8]
 8001a2a:	6978      	ldr	r0, [r7, #20]
 8001a2c:	f7ff ff8e 	bl	800194c <NVIC_EncodePriority>
 8001a30:	4602      	mov	r2, r0
 8001a32:	f997 300f 	ldrsb.w	r3, [r7, #15]
 8001a36:	4611      	mov	r1, r2
 8001a38:	4618      	mov	r0, r3
 8001a3a:	f7ff ff5d 	bl	80018f8 <__NVIC_SetPriority>
}
 8001a3e:	bf00      	nop
 8001a40:	3718      	adds	r7, #24
 8001a42:	46bd      	mov	sp, r7
 8001a44:	bd80      	pop	{r7, pc}

08001a46 <HAL_NVIC_EnableIRQ>:
  *         This parameter can be an enumerator of IRQn_Type enumeration
  *         (For the complete STM32 Devices IRQ Channels list, please refer to the appropriate CMSIS device file (stm32f4xxxx.h))
  * @retval None
  */
void HAL_NVIC_EnableIRQ(IRQn_Type IRQn)
{
 8001a46:	b580      	push	{r7, lr}
 8001a48:	b082      	sub	sp, #8
 8001a4a:	af00      	add	r7, sp, #0
 8001a4c:	4603      	mov	r3, r0
 8001a4e:	71fb      	strb	r3, [r7, #7]
  /* Check the parameters */
  assert_param(IS_NVIC_DEVICE_IRQ(IRQn));
  
  /* Enable interrupt */
  NVIC_EnableIRQ(IRQn);
 8001a50:	f997 3007 	ldrsb.w	r3, [r7, #7]
 8001a54:	4618      	mov	r0, r3
 8001a56:	f7ff ff31 	bl	80018bc <__NVIC_EnableIRQ>
}
 8001a5a:	bf00      	nop
 8001a5c:	3708      	adds	r7, #8
 8001a5e:	46bd      	mov	sp, r7
 8001a60:	bd80      	pop	{r7, pc}

08001a62 <HAL_SYSTICK_Config>:
  * @param  TicksNumb Specifies the ticks Number of ticks between two interrupts.
  * @retval status:  - 0  Function succeeded.
  *                  - 1  Function failed.
  */
uint32_t HAL_SYSTICK_Config(uint32_t TicksNumb)
{
 8001a62:	b580      	push	{r7, lr}
 8001a64:	b082      	sub	sp, #8
 8001a66:	af00      	add	r7, sp, #0
 8001a68:	6078      	str	r0, [r7, #4]
   return SysTick_Config(TicksNumb);
 8001a6a:	6878      	ldr	r0, [r7, #4]
 8001a6c:	f7ff ffa2 	bl	80019b4 <SysTick_Config>
 8001a70:	4603      	mov	r3, r0
}
 8001a72:	4618      	mov	r0, r3
 8001a74:	3708      	adds	r7, #8
 8001a76:	46bd      	mov	sp, r7
 8001a78:	bd80      	pop	{r7, pc}

08001a7a <HAL_DMA_Abort_IT>:
  * @param  hdma   pointer to a DMA_HandleTypeDef structure that contains
  *                 the configuration information for the specified DMA Stream.
  * @retval HAL status
  */
HAL_StatusTypeDef HAL_DMA_Abort_IT(DMA_HandleTypeDef *hdma)
{
 8001a7a:	b480      	push	{r7}
 8001a7c:	b083      	sub	sp, #12
 8001a7e:	af00      	add	r7, sp, #0
 8001a80:	6078      	str	r0, [r7, #4]
  if(hdma->State != HAL_DMA_STATE_BUSY)
 8001a82:	687b      	ldr	r3, [r7, #4]
 8001a84:	f893 3035 	ldrb.w	r3, [r3, #53]	; 0x35
 8001a88:	b2db      	uxtb	r3, r3
 8001a8a:	2b02      	cmp	r3, #2
 8001a8c:	d004      	beq.n	8001a98 <HAL_DMA_Abort_IT+0x1e>
  {
    hdma->ErrorCode = HAL_DMA_ERROR_NO_XFER;
 8001a8e:	687b      	ldr	r3, [r7, #4]
 8001a90:	2280      	movs	r2, #128	; 0x80
 8001a92:	655a      	str	r2, [r3, #84]	; 0x54
    return HAL_ERROR;
 8001a94:	2301      	movs	r3, #1
 8001a96:	e00c      	b.n	8001ab2 <HAL_DMA_Abort_IT+0x38>
  }
  else
  {
    /* Set Abort State  */
    hdma->State = HAL_DMA_STATE_ABORT;
 8001a98:	687b      	ldr	r3, [r7, #4]
 8001a9a:	2205      	movs	r2, #5
 8001a9c:	f883 2035 	strb.w	r2, [r3, #53]	; 0x35
    
    /* Disable the stream */
    __HAL_DMA_DISABLE(hdma);
 8001aa0:	687b      	ldr	r3, [r7, #4]
 8001aa2:	681b      	ldr	r3, [r3, #0]
 8001aa4:	681a      	ldr	r2, [r3, #0]
 8001aa6:	687b      	ldr	r3, [r7, #4]
 8001aa8:	681b      	ldr	r3, [r3, #0]
 8001aaa:	f022 0201 	bic.w	r2, r2, #1
 8001aae:	601a      	str	r2, [r3, #0]
  }

  return HAL_OK;
 8001ab0:	2300      	movs	r3, #0
}
 8001ab2:	4618      	mov	r0, r3
 8001ab4:	370c      	adds	r7, #12
 8001ab6:	46bd      	mov	sp, r7
 8001ab8:	f85d 7b04 	ldr.w	r7, [sp], #4
 8001abc:	4770      	bx	lr
	...

08001ac0 <HAL_GPIO_Init>:
  * @param  GPIO_Init pointer to a GPIO_InitTypeDef structure that contains
  *         the configuration information for the specified GPIO peripheral.
  * @retval None
  */
void HAL_GPIO_Init(GPIO_TypeDef  *GPIOx, GPIO_InitTypeDef *GPIO_Init)
{
 8001ac0:	b480      	push	{r7}
 8001ac2:	b089      	sub	sp, #36	; 0x24
 8001ac4:	af00      	add	r7, sp, #0
 8001ac6:	6078      	str	r0, [r7, #4]
 8001ac8:	6039      	str	r1, [r7, #0]
  uint32_t position;
  uint32_t ioposition = 0x00U;
 8001aca:	2300      	movs	r3, #0
 8001acc:	617b      	str	r3, [r7, #20]
  uint32_t iocurrent = 0x00U;
 8001ace:	2300      	movs	r3, #0
 8001ad0:	613b      	str	r3, [r7, #16]
  uint32_t temp = 0x00U;
 8001ad2:	2300      	movs	r3, #0
 8001ad4:	61bb      	str	r3, [r7, #24]
  assert_param(IS_GPIO_PIN(GPIO_Init->Pin));
  assert_param(IS_GPIO_MODE(GPIO_Init->Mode));
  assert_param(IS_GPIO_PULL(GPIO_Init->Pull));

  /* Configure the port pins */
  for(position = 0U; position < GPIO_NUMBER; position++)
 8001ad6:	2300      	movs	r3, #0
 8001ad8:	61fb      	str	r3, [r7, #28]
 8001ada:	e16b      	b.n	8001db4 <HAL_GPIO_Init+0x2f4>
  {
    /* Get the IO position */
    ioposition = 0x01U << position;
 8001adc:	2201      	movs	r2, #1
 8001ade:	69fb      	ldr	r3, [r7, #28]
 8001ae0:	fa02 f303 	lsl.w	r3, r2, r3
 8001ae4:	617b      	str	r3, [r7, #20]
    /* Get the current IO position */
    iocurrent = (uint32_t)(GPIO_Init->Pin) & ioposition;
 8001ae6:	683b      	ldr	r3, [r7, #0]
 8001ae8:	681b      	ldr	r3, [r3, #0]
 8001aea:	697a      	ldr	r2, [r7, #20]
 8001aec:	4013      	ands	r3, r2
 8001aee:	613b      	str	r3, [r7, #16]

    if(iocurrent == ioposition)
 8001af0:	693a      	ldr	r2, [r7, #16]
 8001af2:	697b      	ldr	r3, [r7, #20]
 8001af4:	429a      	cmp	r2, r3
 8001af6:	f040 815a 	bne.w	8001dae <HAL_GPIO_Init+0x2ee>
    {
      /*--------------------- GPIO Mode Configuration ------------------------*/
      /* In case of Output or Alternate function mode selection */
      if((GPIO_Init->Mode == GPIO_MODE_OUTPUT_PP) || (GPIO_Init->Mode == GPIO_MODE_AF_PP) ||
 8001afa:	683b      	ldr	r3, [r7, #0]
 8001afc:	685b      	ldr	r3, [r3, #4]
 8001afe:	2b01      	cmp	r3, #1
 8001b00:	d00b      	beq.n	8001b1a <HAL_GPIO_Init+0x5a>
 8001b02:	683b      	ldr	r3, [r7, #0]
 8001b04:	685b      	ldr	r3, [r3, #4]
 8001b06:	2b02      	cmp	r3, #2
 8001b08:	d007      	beq.n	8001b1a <HAL_GPIO_Init+0x5a>
         (GPIO_Init->Mode == GPIO_MODE_OUTPUT_OD) || (GPIO_Init->Mode == GPIO_MODE_AF_OD))
 8001b0a:	683b      	ldr	r3, [r7, #0]
 8001b0c:	685b      	ldr	r3, [r3, #4]
      if((GPIO_Init->Mode == GPIO_MODE_OUTPUT_PP) || (GPIO_Init->Mode == GPIO_MODE_AF_PP) ||
 8001b0e:	2b11      	cmp	r3, #17
 8001b10:	d003      	beq.n	8001b1a <HAL_GPIO_Init+0x5a>
         (GPIO_Init->Mode == GPIO_MODE_OUTPUT_OD) || (GPIO_Init->Mode == GPIO_MODE_AF_OD))
 8001b12:	683b      	ldr	r3, [r7, #0]
 8001b14:	685b      	ldr	r3, [r3, #4]
 8001b16:	2b12      	cmp	r3, #18
 8001b18:	d130      	bne.n	8001b7c <HAL_GPIO_Init+0xbc>
      {
        /* Check the Speed parameter */
        assert_param(IS_GPIO_SPEED(GPIO_Init->Speed));
        /* Configure the IO Speed */
        temp = GPIOx->OSPEEDR; 
 8001b1a:	687b      	ldr	r3, [r7, #4]
 8001b1c:	689b      	ldr	r3, [r3, #8]
 8001b1e:	61bb      	str	r3, [r7, #24]
        temp &= ~(GPIO_OSPEEDER_OSPEEDR0 << (position * 2U));
 8001b20:	69fb      	ldr	r3, [r7, #28]
 8001b22:	005b      	lsls	r3, r3, #1
 8001b24:	2203      	movs	r2, #3
 8001b26:	fa02 f303 	lsl.w	r3, r2, r3
 8001b2a:	43db      	mvns	r3, r3
 8001b2c:	69ba      	ldr	r2, [r7, #24]
 8001b2e:	4013      	ands	r3, r2
 8001b30:	61bb      	str	r3, [r7, #24]
        temp |= (GPIO_Init->Speed << (position * 2U));
 8001b32:	683b      	ldr	r3, [r7, #0]
 8001b34:	68da      	ldr	r2, [r3, #12]
 8001b36:	69fb      	ldr	r3, [r7, #28]
 8001b38:	005b      	lsls	r3, r3, #1
 8001b3a:	fa02 f303 	lsl.w	r3, r2, r3
 8001b3e:	69ba      	ldr	r2, [r7, #24]
 8001b40:	4313      	orrs	r3, r2
 8001b42:	61bb      	str	r3, [r7, #24]
        GPIOx->OSPEEDR = temp;
 8001b44:	687b      	ldr	r3, [r7, #4]
 8001b46:	69ba      	ldr	r2, [r7, #24]
 8001b48:	609a      	str	r2, [r3, #8]

        /* Configure the IO Output Type */
        temp = GPIOx->OTYPER;
 8001b4a:	687b      	ldr	r3, [r7, #4]
 8001b4c:	685b      	ldr	r3, [r3, #4]
 8001b4e:	61bb      	str	r3, [r7, #24]
        temp &= ~(GPIO_OTYPER_OT_0 << position) ;
 8001b50:	2201      	movs	r2, #1
 8001b52:	69fb      	ldr	r3, [r7, #28]
 8001b54:	fa02 f303 	lsl.w	r3, r2, r3
 8001b58:	43db      	mvns	r3, r3
 8001b5a:	69ba      	ldr	r2, [r7, #24]
 8001b5c:	4013      	ands	r3, r2
 8001b5e:	61bb      	str	r3, [r7, #24]
        temp |= (((GPIO_Init->Mode & GPIO_OUTPUT_TYPE) >> 4U) << position);
 8001b60:	683b      	ldr	r3, [r7, #0]
 8001b62:	685b      	ldr	r3, [r3, #4]
 8001b64:	091b      	lsrs	r3, r3, #4
 8001b66:	f003 0201 	and.w	r2, r3, #1
 8001b6a:	69fb      	ldr	r3, [r7, #28]
 8001b6c:	fa02 f303 	lsl.w	r3, r2, r3
 8001b70:	69ba      	ldr	r2, [r7, #24]
 8001b72:	4313      	orrs	r3, r2
 8001b74:	61bb      	str	r3, [r7, #24]
        GPIOx->OTYPER = temp;
 8001b76:	687b      	ldr	r3, [r7, #4]
 8001b78:	69ba      	ldr	r2, [r7, #24]
 8001b7a:	605a      	str	r2, [r3, #4]
       }

      /* Activate the Pull-up or Pull down resistor for the current IO */
      temp = GPIOx->PUPDR;
 8001b7c:	687b      	ldr	r3, [r7, #4]
 8001b7e:	68db      	ldr	r3, [r3, #12]
 8001b80:	61bb      	str	r3, [r7, #24]
      temp &= ~(GPIO_PUPDR_PUPDR0 << (position * 2U));
 8001b82:	69fb      	ldr	r3, [r7, #28]
 8001b84:	005b      	lsls	r3, r3, #1
 8001b86:	2203      	movs	r2, #3
 8001b88:	fa02 f303 	lsl.w	r3, r2, r3
 8001b8c:	43db      	mvns	r3, r3
 8001b8e:	69ba      	ldr	r2, [r7, #24]
 8001b90:	4013      	ands	r3, r2
 8001b92:	61bb      	str	r3, [r7, #24]
      temp |= ((GPIO_Init->Pull) << (position * 2U));
 8001b94:	683b      	ldr	r3, [r7, #0]
 8001b96:	689a      	ldr	r2, [r3, #8]
 8001b98:	69fb      	ldr	r3, [r7, #28]
 8001b9a:	005b      	lsls	r3, r3, #1
 8001b9c:	fa02 f303 	lsl.w	r3, r2, r3
 8001ba0:	69ba      	ldr	r2, [r7, #24]
 8001ba2:	4313      	orrs	r3, r2
 8001ba4:	61bb      	str	r3, [r7, #24]
      GPIOx->PUPDR = temp;
 8001ba6:	687b      	ldr	r3, [r7, #4]
 8001ba8:	69ba      	ldr	r2, [r7, #24]
 8001baa:	60da      	str	r2, [r3, #12]

      /* In case of Alternate function mode selection */
      if((GPIO_Init->Mode == GPIO_MODE_AF_PP) || (GPIO_Init->Mode == GPIO_MODE_AF_OD))
 8001bac:	683b      	ldr	r3, [r7, #0]
 8001bae:	685b      	ldr	r3, [r3, #4]
 8001bb0:	2b02      	cmp	r3, #2
 8001bb2:	d003      	beq.n	8001bbc <HAL_GPIO_Init+0xfc>
 8001bb4:	683b      	ldr	r3, [r7, #0]
 8001bb6:	685b      	ldr	r3, [r3, #4]
 8001bb8:	2b12      	cmp	r3, #18
 8001bba:	d123      	bne.n	8001c04 <HAL_GPIO_Init+0x144>
      {
        /* Check the Alternate function parameter */
        assert_param(IS_GPIO_AF(GPIO_Init->Alternate));
        /* Configure Alternate function mapped with the current IO */
        temp = GPIOx->AFR[position >> 3U];
 8001bbc:	69fb      	ldr	r3, [r7, #28]
 8001bbe:	08da      	lsrs	r2, r3, #3
 8001bc0:	687b      	ldr	r3, [r7, #4]
 8001bc2:	3208      	adds	r2, #8
 8001bc4:	f853 3022 	ldr.w	r3, [r3, r2, lsl #2]
 8001bc8:	61bb      	str	r3, [r7, #24]
        temp &= ~(0xFU << ((uint32_t)(position & 0x07U) * 4U)) ;
 8001bca:	69fb      	ldr	r3, [r7, #28]
 8001bcc:	f003 0307 	and.w	r3, r3, #7
 8001bd0:	009b      	lsls	r3, r3, #2
 8001bd2:	220f      	movs	r2, #15
 8001bd4:	fa02 f303 	lsl.w	r3, r2, r3
 8001bd8:	43db      	mvns	r3, r3
 8001bda:	69ba      	ldr	r2, [r7, #24]
 8001bdc:	4013      	ands	r3, r2
 8001bde:	61bb      	str	r3, [r7, #24]
        temp |= ((uint32_t)(GPIO_Init->Alternate) << (((uint32_t)position & 0x07U) * 4U));
 8001be0:	683b      	ldr	r3, [r7, #0]
 8001be2:	691a      	ldr	r2, [r3, #16]
 8001be4:	69fb      	ldr	r3, [r7, #28]
 8001be6:	f003 0307 	and.w	r3, r3, #7
 8001bea:	009b      	lsls	r3, r3, #2
 8001bec:	fa02 f303 	lsl.w	r3, r2, r3
 8001bf0:	69ba      	ldr	r2, [r7, #24]
 8001bf2:	4313      	orrs	r3, r2
 8001bf4:	61bb      	str	r3, [r7, #24]
        GPIOx->AFR[position >> 3U] = temp;
 8001bf6:	69fb      	ldr	r3, [r7, #28]
 8001bf8:	08da      	lsrs	r2, r3, #3
 8001bfa:	687b      	ldr	r3, [r7, #4]
 8001bfc:	3208      	adds	r2, #8
 8001bfe:	69b9      	ldr	r1, [r7, #24]
 8001c00:	f843 1022 	str.w	r1, [r3, r2, lsl #2]
      }

      /* Configure IO Direction mode (Input, Output, Alternate or Analog) */
      temp = GPIOx->MODER;
 8001c04:	687b      	ldr	r3, [r7, #4]
 8001c06:	681b      	ldr	r3, [r3, #0]
 8001c08:	61bb      	str	r3, [r7, #24]
      temp &= ~(GPIO_MODER_MODER0 << (position * 2U));
 8001c0a:	69fb      	ldr	r3, [r7, #28]
 8001c0c:	005b      	lsls	r3, r3, #1
 8001c0e:	2203      	movs	r2, #3
 8001c10:	fa02 f303 	lsl.w	r3, r2, r3
 8001c14:	43db      	mvns	r3, r3
 8001c16:	69ba      	ldr	r2, [r7, #24]
 8001c18:	4013      	ands	r3, r2
 8001c1a:	61bb      	str	r3, [r7, #24]
      temp |= ((GPIO_Init->Mode & GPIO_MODE) << (position * 2U));
 8001c1c:	683b      	ldr	r3, [r7, #0]
 8001c1e:	685b      	ldr	r3, [r3, #4]
 8001c20:	f003 0203 	and.w	r2, r3, #3
 8001c24:	69fb      	ldr	r3, [r7, #28]
 8001c26:	005b      	lsls	r3, r3, #1
 8001c28:	fa02 f303 	lsl.w	r3, r2, r3
 8001c2c:	69ba      	ldr	r2, [r7, #24]
 8001c2e:	4313      	orrs	r3, r2
 8001c30:	61bb      	str	r3, [r7, #24]
      GPIOx->MODER = temp;
 8001c32:	687b      	ldr	r3, [r7, #4]
 8001c34:	69ba      	ldr	r2, [r7, #24]
 8001c36:	601a      	str	r2, [r3, #0]

      /*--------------------- EXTI Mode Configuration ------------------------*/
      /* Configure the External Interrupt or event for the current IO */
      if((GPIO_Init->Mode & EXTI_MODE) == EXTI_MODE)
 8001c38:	683b      	ldr	r3, [r7, #0]
 8001c3a:	685b      	ldr	r3, [r3, #4]
 8001c3c:	f003 5380 	and.w	r3, r3, #268435456	; 0x10000000
 8001c40:	2b00      	cmp	r3, #0
 8001c42:	f000 80b4 	beq.w	8001dae <HAL_GPIO_Init+0x2ee>
      {
        /* Enable SYSCFG Clock */
        __HAL_RCC_SYSCFG_CLK_ENABLE();
 8001c46:	2300      	movs	r3, #0
 8001c48:	60fb      	str	r3, [r7, #12]
 8001c4a:	4b5f      	ldr	r3, [pc, #380]	; (8001dc8 <HAL_GPIO_Init+0x308>)
 8001c4c:	6c5b      	ldr	r3, [r3, #68]	; 0x44
 8001c4e:	4a5e      	ldr	r2, [pc, #376]	; (8001dc8 <HAL_GPIO_Init+0x308>)
 8001c50:	f443 4380 	orr.w	r3, r3, #16384	; 0x4000
 8001c54:	6453      	str	r3, [r2, #68]	; 0x44
 8001c56:	4b5c      	ldr	r3, [pc, #368]	; (8001dc8 <HAL_GPIO_Init+0x308>)
 8001c58:	6c5b      	ldr	r3, [r3, #68]	; 0x44
 8001c5a:	f403 4380 	and.w	r3, r3, #16384	; 0x4000
 8001c5e:	60fb      	str	r3, [r7, #12]
 8001c60:	68fb      	ldr	r3, [r7, #12]

        temp = SYSCFG->EXTICR[position >> 2U];
 8001c62:	4a5a      	ldr	r2, [pc, #360]	; (8001dcc <HAL_GPIO_Init+0x30c>)
 8001c64:	69fb      	ldr	r3, [r7, #28]
 8001c66:	089b      	lsrs	r3, r3, #2
 8001c68:	3302      	adds	r3, #2
 8001c6a:	f852 3023 	ldr.w	r3, [r2, r3, lsl #2]
 8001c6e:	61bb      	str	r3, [r7, #24]
        temp &= ~(0x0FU << (4U * (position & 0x03U)));
 8001c70:	69fb      	ldr	r3, [r7, #28]
 8001c72:	f003 0303 	and.w	r3, r3, #3
 8001c76:	009b      	lsls	r3, r3, #2
 8001c78:	220f      	movs	r2, #15
 8001c7a:	fa02 f303 	lsl.w	r3, r2, r3
 8001c7e:	43db      	mvns	r3, r3
 8001c80:	69ba      	ldr	r2, [r7, #24]
 8001c82:	4013      	ands	r3, r2
 8001c84:	61bb      	str	r3, [r7, #24]
        temp |= ((uint32_t)(GPIO_GET_INDEX(GPIOx)) << (4U * (position & 0x03U)));
 8001c86:	687b      	ldr	r3, [r7, #4]
 8001c88:	4a51      	ldr	r2, [pc, #324]	; (8001dd0 <HAL_GPIO_Init+0x310>)
 8001c8a:	4293      	cmp	r3, r2
 8001c8c:	d02b      	beq.n	8001ce6 <HAL_GPIO_Init+0x226>
 8001c8e:	687b      	ldr	r3, [r7, #4]
 8001c90:	4a50      	ldr	r2, [pc, #320]	; (8001dd4 <HAL_GPIO_Init+0x314>)
 8001c92:	4293      	cmp	r3, r2
 8001c94:	d025      	beq.n	8001ce2 <HAL_GPIO_Init+0x222>
 8001c96:	687b      	ldr	r3, [r7, #4]
 8001c98:	4a4f      	ldr	r2, [pc, #316]	; (8001dd8 <HAL_GPIO_Init+0x318>)
 8001c9a:	4293      	cmp	r3, r2
 8001c9c:	d01f      	beq.n	8001cde <HAL_GPIO_Init+0x21e>
 8001c9e:	687b      	ldr	r3, [r7, #4]
 8001ca0:	4a4e      	ldr	r2, [pc, #312]	; (8001ddc <HAL_GPIO_Init+0x31c>)
 8001ca2:	4293      	cmp	r3, r2
 8001ca4:	d019      	beq.n	8001cda <HAL_GPIO_Init+0x21a>
 8001ca6:	687b      	ldr	r3, [r7, #4]
 8001ca8:	4a4d      	ldr	r2, [pc, #308]	; (8001de0 <HAL_GPIO_Init+0x320>)
 8001caa:	4293      	cmp	r3, r2
 8001cac:	d013      	beq.n	8001cd6 <HAL_GPIO_Init+0x216>
 8001cae:	687b      	ldr	r3, [r7, #4]
 8001cb0:	4a4c      	ldr	r2, [pc, #304]	; (8001de4 <HAL_GPIO_Init+0x324>)
 8001cb2:	4293      	cmp	r3, r2
 8001cb4:	d00d      	beq.n	8001cd2 <HAL_GPIO_Init+0x212>
 8001cb6:	687b      	ldr	r3, [r7, #4]
 8001cb8:	4a4b      	ldr	r2, [pc, #300]	; (8001de8 <HAL_GPIO_Init+0x328>)
 8001cba:	4293      	cmp	r3, r2
 8001cbc:	d007      	beq.n	8001cce <HAL_GPIO_Init+0x20e>
 8001cbe:	687b      	ldr	r3, [r7, #4]
 8001cc0:	4a4a      	ldr	r2, [pc, #296]	; (8001dec <HAL_GPIO_Init+0x32c>)
 8001cc2:	4293      	cmp	r3, r2
 8001cc4:	d101      	bne.n	8001cca <HAL_GPIO_Init+0x20a>
 8001cc6:	2307      	movs	r3, #7
 8001cc8:	e00e      	b.n	8001ce8 <HAL_GPIO_Init+0x228>
 8001cca:	2308      	movs	r3, #8
 8001ccc:	e00c      	b.n	8001ce8 <HAL_GPIO_Init+0x228>
 8001cce:	2306      	movs	r3, #6
 8001cd0:	e00a      	b.n	8001ce8 <HAL_GPIO_Init+0x228>
 8001cd2:	2305      	movs	r3, #5
 8001cd4:	e008      	b.n	8001ce8 <HAL_GPIO_Init+0x228>
 8001cd6:	2304      	movs	r3, #4
 8001cd8:	e006      	b.n	8001ce8 <HAL_GPIO_Init+0x228>
 8001cda:	2303      	movs	r3, #3
 8001cdc:	e004      	b.n	8001ce8 <HAL_GPIO_Init+0x228>
 8001cde:	2302      	movs	r3, #2
 8001ce0:	e002      	b.n	8001ce8 <HAL_GPIO_Init+0x228>
 8001ce2:	2301      	movs	r3, #1
 8001ce4:	e000      	b.n	8001ce8 <HAL_GPIO_Init+0x228>
 8001ce6:	2300      	movs	r3, #0
 8001ce8:	69fa      	ldr	r2, [r7, #28]
 8001cea:	f002 0203 	and.w	r2, r2, #3
 8001cee:	0092      	lsls	r2, r2, #2
 8001cf0:	4093      	lsls	r3, r2
 8001cf2:	69ba      	ldr	r2, [r7, #24]
 8001cf4:	4313      	orrs	r3, r2
 8001cf6:	61bb      	str	r3, [r7, #24]
        SYSCFG->EXTICR[position >> 2U] = temp;
 8001cf8:	4934      	ldr	r1, [pc, #208]	; (8001dcc <HAL_GPIO_Init+0x30c>)
 8001cfa:	69fb      	ldr	r3, [r7, #28]
 8001cfc:	089b      	lsrs	r3, r3, #2
 8001cfe:	3302      	adds	r3, #2
 8001d00:	69ba      	ldr	r2, [r7, #24]
 8001d02:	f841 2023 	str.w	r2, [r1, r3, lsl #2]

        /* Clear EXTI line configuration */
        temp = EXTI->IMR;
 8001d06:	4b3a      	ldr	r3, [pc, #232]	; (8001df0 <HAL_GPIO_Init+0x330>)
 8001d08:	681b      	ldr	r3, [r3, #0]
 8001d0a:	61bb      	str	r3, [r7, #24]
        temp &= ~((uint32_t)iocurrent);
 8001d0c:	693b      	ldr	r3, [r7, #16]
 8001d0e:	43db      	mvns	r3, r3
 8001d10:	69ba      	ldr	r2, [r7, #24]
 8001d12:	4013      	ands	r3, r2
 8001d14:	61bb      	str	r3, [r7, #24]
        if((GPIO_Init->Mode & GPIO_MODE_IT) == GPIO_MODE_IT)
 8001d16:	683b      	ldr	r3, [r7, #0]
 8001d18:	685b      	ldr	r3, [r3, #4]
 8001d1a:	f403 3380 	and.w	r3, r3, #65536	; 0x10000
 8001d1e:	2b00      	cmp	r3, #0
 8001d20:	d003      	beq.n	8001d2a <HAL_GPIO_Init+0x26a>
        {
          temp |= iocurrent;
 8001d22:	69ba      	ldr	r2, [r7, #24]
 8001d24:	693b      	ldr	r3, [r7, #16]
 8001d26:	4313      	orrs	r3, r2
 8001d28:	61bb      	str	r3, [r7, #24]
        }
        EXTI->IMR = temp;
 8001d2a:	4a31      	ldr	r2, [pc, #196]	; (8001df0 <HAL_GPIO_Init+0x330>)
 8001d2c:	69bb      	ldr	r3, [r7, #24]
 8001d2e:	6013      	str	r3, [r2, #0]

        temp = EXTI->EMR;
 8001d30:	4b2f      	ldr	r3, [pc, #188]	; (8001df0 <HAL_GPIO_Init+0x330>)
 8001d32:	685b      	ldr	r3, [r3, #4]
 8001d34:	61bb      	str	r3, [r7, #24]
        temp &= ~((uint32_t)iocurrent);
 8001d36:	693b      	ldr	r3, [r7, #16]
 8001d38:	43db      	mvns	r3, r3
 8001d3a:	69ba      	ldr	r2, [r7, #24]
 8001d3c:	4013      	ands	r3, r2
 8001d3e:	61bb      	str	r3, [r7, #24]
        if((GPIO_Init->Mode & GPIO_MODE_EVT) == GPIO_MODE_EVT)
 8001d40:	683b      	ldr	r3, [r7, #0]
 8001d42:	685b      	ldr	r3, [r3, #4]
 8001d44:	f403 3300 	and.w	r3, r3, #131072	; 0x20000
 8001d48:	2b00      	cmp	r3, #0
 8001d4a:	d003      	beq.n	8001d54 <HAL_GPIO_Init+0x294>
        {
          temp |= iocurrent;
 8001d4c:	69ba      	ldr	r2, [r7, #24]
 8001d4e:	693b      	ldr	r3, [r7, #16]
 8001d50:	4313      	orrs	r3, r2
 8001d52:	61bb      	str	r3, [r7, #24]
        }
        EXTI->EMR = temp;
 8001d54:	4a26      	ldr	r2, [pc, #152]	; (8001df0 <HAL_GPIO_Init+0x330>)
 8001d56:	69bb      	ldr	r3, [r7, #24]
 8001d58:	6053      	str	r3, [r2, #4]

        /* Clear Rising Falling edge configuration */
        temp = EXTI->RTSR;
 8001d5a:	4b25      	ldr	r3, [pc, #148]	; (8001df0 <HAL_GPIO_Init+0x330>)
 8001d5c:	689b      	ldr	r3, [r3, #8]
 8001d5e:	61bb      	str	r3, [r7, #24]
        temp &= ~((uint32_t)iocurrent);
 8001d60:	693b      	ldr	r3, [r7, #16]
 8001d62:	43db      	mvns	r3, r3
 8001d64:	69ba      	ldr	r2, [r7, #24]
 8001d66:	4013      	ands	r3, r2
 8001d68:	61bb      	str	r3, [r7, #24]
        if((GPIO_Init->Mode & RISING_EDGE) == RISING_EDGE)
 8001d6a:	683b      	ldr	r3, [r7, #0]
 8001d6c:	685b      	ldr	r3, [r3, #4]
 8001d6e:	f403 1380 	and.w	r3, r3, #1048576	; 0x100000
 8001d72:	2b00      	cmp	r3, #0
 8001d74:	d003      	beq.n	8001d7e <HAL_GPIO_Init+0x2be>
        {
          temp |= iocurrent;
 8001d76:	69ba      	ldr	r2, [r7, #24]
 8001d78:	693b      	ldr	r3, [r7, #16]
 8001d7a:	4313      	orrs	r3, r2
 8001d7c:	61bb      	str	r3, [r7, #24]
        }
        EXTI->RTSR = temp;
 8001d7e:	4a1c      	ldr	r2, [pc, #112]	; (8001df0 <HAL_GPIO_Init+0x330>)
 8001d80:	69bb      	ldr	r3, [r7, #24]
 8001d82:	6093      	str	r3, [r2, #8]

        temp = EXTI->FTSR;
 8001d84:	4b1a      	ldr	r3, [pc, #104]	; (8001df0 <HAL_GPIO_Init+0x330>)
 8001d86:	68db      	ldr	r3, [r3, #12]
 8001d88:	61bb      	str	r3, [r7, #24]
        temp &= ~((uint32_t)iocurrent);
 8001d8a:	693b      	ldr	r3, [r7, #16]
 8001d8c:	43db      	mvns	r3, r3
 8001d8e:	69ba      	ldr	r2, [r7, #24]
 8001d90:	4013      	ands	r3, r2
 8001d92:	61bb      	str	r3, [r7, #24]
        if((GPIO_Init->Mode & FALLING_EDGE) == FALLING_EDGE)
 8001d94:	683b      	ldr	r3, [r7, #0]
 8001d96:	685b      	ldr	r3, [r3, #4]
 8001d98:	f403 1300 	and.w	r3, r3, #2097152	; 0x200000
 8001d9c:	2b00      	cmp	r3, #0
 8001d9e:	d003      	beq.n	8001da8 <HAL_GPIO_Init+0x2e8>
        {
          temp |= iocurrent;
 8001da0:	69ba      	ldr	r2, [r7, #24]
 8001da2:	693b      	ldr	r3, [r7, #16]
 8001da4:	4313      	orrs	r3, r2
 8001da6:	61bb      	str	r3, [r7, #24]
        }
        EXTI->FTSR = temp;
 8001da8:	4a11      	ldr	r2, [pc, #68]	; (8001df0 <HAL_GPIO_Init+0x330>)
 8001daa:	69bb      	ldr	r3, [r7, #24]
 8001dac:	60d3      	str	r3, [r2, #12]
  for(position = 0U; position < GPIO_NUMBER; position++)
 8001dae:	69fb      	ldr	r3, [r7, #28]
 8001db0:	3301      	adds	r3, #1
 8001db2:	61fb      	str	r3, [r7, #28]
 8001db4:	69fb      	ldr	r3, [r7, #28]
 8001db6:	2b0f      	cmp	r3, #15
 8001db8:	f67f ae90 	bls.w	8001adc <HAL_GPIO_Init+0x1c>
      }
    }
  }
}
 8001dbc:	bf00      	nop
 8001dbe:	3724      	adds	r7, #36	; 0x24
 8001dc0:	46bd      	mov	sp, r7
 8001dc2:	f85d 7b04 	ldr.w	r7, [sp], #4
 8001dc6:	4770      	bx	lr
 8001dc8:	40023800 	.word	0x40023800
 8001dcc:	40013800 	.word	0x40013800
 8001dd0:	40020000 	.word	0x40020000
 8001dd4:	40020400 	.word	0x40020400
 8001dd8:	40020800 	.word	0x40020800
 8001ddc:	40020c00 	.word	0x40020c00
 8001de0:	40021000 	.word	0x40021000
 8001de4:	40021400 	.word	0x40021400
 8001de8:	40021800 	.word	0x40021800
 8001dec:	40021c00 	.word	0x40021c00
 8001df0:	40013c00 	.word	0x40013c00

08001df4 <HAL_GPIO_WritePin>:
  *            @arg GPIO_PIN_RESET: to clear the port pin
  *            @arg GPIO_PIN_SET: to set the port pin
  * @retval None
  */
void HAL_GPIO_WritePin(GPIO_TypeDef* GPIOx, uint16_t GPIO_Pin, GPIO_PinState PinState)
{
 8001df4:	b480      	push	{r7}
 8001df6:	b083      	sub	sp, #12
 8001df8:	af00      	add	r7, sp, #0
 8001dfa:	6078      	str	r0, [r7, #4]
 8001dfc:	460b      	mov	r3, r1
 8001dfe:	807b      	strh	r3, [r7, #2]
 8001e00:	4613      	mov	r3, r2
 8001e02:	707b      	strb	r3, [r7, #1]
  /* Check the parameters */
  assert_param(IS_GPIO_PIN(GPIO_Pin));
  assert_param(IS_GPIO_PIN_ACTION(PinState));

  if(PinState != GPIO_PIN_RESET)
 8001e04:	787b      	ldrb	r3, [r7, #1]
 8001e06:	2b00      	cmp	r3, #0
 8001e08:	d003      	beq.n	8001e12 <HAL_GPIO_WritePin+0x1e>
  {
    GPIOx->BSRR = GPIO_Pin;
 8001e0a:	887a      	ldrh	r2, [r7, #2]
 8001e0c:	687b      	ldr	r3, [r7, #4]
 8001e0e:	619a      	str	r2, [r3, #24]
  }
  else
  {
    GPIOx->BSRR = (uint32_t)GPIO_Pin << 16U;
  }
}
 8001e10:	e003      	b.n	8001e1a <HAL_GPIO_WritePin+0x26>
    GPIOx->BSRR = (uint32_t)GPIO_Pin << 16U;
 8001e12:	887b      	ldrh	r3, [r7, #2]
 8001e14:	041a      	lsls	r2, r3, #16
 8001e16:	687b      	ldr	r3, [r7, #4]
 8001e18:	619a      	str	r2, [r3, #24]
}
 8001e1a:	bf00      	nop
 8001e1c:	370c      	adds	r7, #12
 8001e1e:	46bd      	mov	sp, r7
 8001e20:	f85d 7b04 	ldr.w	r7, [sp], #4
 8001e24:	4770      	bx	lr

08001e26 <HAL_GPIO_TogglePin>:
  *                      x can be (A..I) to select the GPIO peripheral for STM32F40XX and STM32F427X devices.
  * @param  GPIO_Pin Specifies the pins to be toggled.
  * @retval None
  */
void HAL_GPIO_TogglePin(GPIO_TypeDef* GPIOx, uint16_t GPIO_Pin)
{
 8001e26:	b480      	push	{r7}
 8001e28:	b083      	sub	sp, #12
 8001e2a:	af00      	add	r7, sp, #0
 8001e2c:	6078      	str	r0, [r7, #4]
 8001e2e:	460b      	mov	r3, r1
 8001e30:	807b      	strh	r3, [r7, #2]
  /* Check the parameters */
  assert_param(IS_GPIO_PIN(GPIO_Pin));

  if ((GPIOx->ODR & GPIO_Pin) == GPIO_Pin)
 8001e32:	687b      	ldr	r3, [r7, #4]
 8001e34:	695a      	ldr	r2, [r3, #20]
 8001e36:	887b      	ldrh	r3, [r7, #2]
 8001e38:	401a      	ands	r2, r3
 8001e3a:	887b      	ldrh	r3, [r7, #2]
 8001e3c:	429a      	cmp	r2, r3
 8001e3e:	d104      	bne.n	8001e4a <HAL_GPIO_TogglePin+0x24>
  {
    GPIOx->BSRR = (uint32_t)GPIO_Pin << GPIO_NUMBER;
 8001e40:	887b      	ldrh	r3, [r7, #2]
 8001e42:	041a      	lsls	r2, r3, #16
 8001e44:	687b      	ldr	r3, [r7, #4]
 8001e46:	619a      	str	r2, [r3, #24]
  }
  else
  {
    GPIOx->BSRR = GPIO_Pin;
  }
}
 8001e48:	e002      	b.n	8001e50 <HAL_GPIO_TogglePin+0x2a>
    GPIOx->BSRR = GPIO_Pin;
 8001e4a:	887a      	ldrh	r2, [r7, #2]
 8001e4c:	687b      	ldr	r3, [r7, #4]
 8001e4e:	619a      	str	r2, [r3, #24]
}
 8001e50:	bf00      	nop
 8001e52:	370c      	adds	r7, #12
 8001e54:	46bd      	mov	sp, r7
 8001e56:	f85d 7b04 	ldr.w	r7, [sp], #4
 8001e5a:	4770      	bx	lr

08001e5c <HAL_RCC_OscConfig>:
  *         supported by this API. User should request a transition to HSE Off
  *         first and then HSE On or HSE Bypass.
  * @retval HAL status
  */
__weak HAL_StatusTypeDef HAL_RCC_OscConfig(RCC_OscInitTypeDef  *RCC_OscInitStruct)
{
 8001e5c:	b580      	push	{r7, lr}
 8001e5e:	b086      	sub	sp, #24
 8001e60:	af00      	add	r7, sp, #0
 8001e62:	6078      	str	r0, [r7, #4]
  uint32_t tickstart, pll_config;

  /* Check Null pointer */
  if(RCC_OscInitStruct == NULL)
 8001e64:	687b      	ldr	r3, [r7, #4]
 8001e66:	2b00      	cmp	r3, #0
 8001e68:	d101      	bne.n	8001e6e <HAL_RCC_OscConfig+0x12>
  {
    return HAL_ERROR;
 8001e6a:	2301      	movs	r3, #1
 8001e6c:	e25b      	b.n	8002326 <HAL_RCC_OscConfig+0x4ca>
  }

  /* Check the parameters */
  assert_param(IS_RCC_OSCILLATORTYPE(RCC_OscInitStruct->OscillatorType));
  /*------------------------------- HSE Configuration ------------------------*/
  if(((RCC_OscInitStruct->OscillatorType) & RCC_OSCILLATORTYPE_HSE) == RCC_OSCILLATORTYPE_HSE)
 8001e6e:	687b      	ldr	r3, [r7, #4]
 8001e70:	681b      	ldr	r3, [r3, #0]
 8001e72:	f003 0301 	and.w	r3, r3, #1
 8001e76:	2b00      	cmp	r3, #0
 8001e78:	d075      	beq.n	8001f66 <HAL_RCC_OscConfig+0x10a>
  {
    /* Check the parameters */
    assert_param(IS_RCC_HSE(RCC_OscInitStruct->HSEState));
    /* When the HSE is used as system clock or clock source for PLL in these cases HSE will not disabled */
    if((__HAL_RCC_GET_SYSCLK_SOURCE() == RCC_CFGR_SWS_HSE) ||\
 8001e7a:	4ba3      	ldr	r3, [pc, #652]	; (8002108 <HAL_RCC_OscConfig+0x2ac>)
 8001e7c:	689b      	ldr	r3, [r3, #8]
 8001e7e:	f003 030c 	and.w	r3, r3, #12
 8001e82:	2b04      	cmp	r3, #4
 8001e84:	d00c      	beq.n	8001ea0 <HAL_RCC_OscConfig+0x44>
      ((__HAL_RCC_GET_SYSCLK_SOURCE() == RCC_CFGR_SWS_PLL) && ((RCC->PLLCFGR & RCC_PLLCFGR_PLLSRC) == RCC_PLLCFGR_PLLSRC_HSE)))
 8001e86:	4ba0      	ldr	r3, [pc, #640]	; (8002108 <HAL_RCC_OscConfig+0x2ac>)
 8001e88:	689b      	ldr	r3, [r3, #8]
 8001e8a:	f003 030c 	and.w	r3, r3, #12
    if((__HAL_RCC_GET_SYSCLK_SOURCE() == RCC_CFGR_SWS_HSE) ||\
 8001e8e:	2b08      	cmp	r3, #8
 8001e90:	d112      	bne.n	8001eb8 <HAL_RCC_OscConfig+0x5c>
      ((__HAL_RCC_GET_SYSCLK_SOURCE() == RCC_CFGR_SWS_PLL) && ((RCC->PLLCFGR & RCC_PLLCFGR_PLLSRC) == RCC_PLLCFGR_PLLSRC_HSE)))
 8001e92:	4b9d      	ldr	r3, [pc, #628]	; (8002108 <HAL_RCC_OscConfig+0x2ac>)
 8001e94:	685b      	ldr	r3, [r3, #4]
 8001e96:	f403 0380 	and.w	r3, r3, #4194304	; 0x400000
 8001e9a:	f5b3 0f80 	cmp.w	r3, #4194304	; 0x400000
 8001e9e:	d10b      	bne.n	8001eb8 <HAL_RCC_OscConfig+0x5c>
    {
      if((__HAL_RCC_GET_FLAG(RCC_FLAG_HSERDY) != RESET) && (RCC_OscInitStruct->HSEState == RCC_HSE_OFF))
 8001ea0:	4b99      	ldr	r3, [pc, #612]	; (8002108 <HAL_RCC_OscConfig+0x2ac>)
 8001ea2:	681b      	ldr	r3, [r3, #0]
 8001ea4:	f403 3300 	and.w	r3, r3, #131072	; 0x20000
 8001ea8:	2b00      	cmp	r3, #0
 8001eaa:	d05b      	beq.n	8001f64 <HAL_RCC_OscConfig+0x108>
 8001eac:	687b      	ldr	r3, [r7, #4]
 8001eae:	685b      	ldr	r3, [r3, #4]
 8001eb0:	2b00      	cmp	r3, #0
 8001eb2:	d157      	bne.n	8001f64 <HAL_RCC_OscConfig+0x108>
      {
        return HAL_ERROR;
 8001eb4:	2301      	movs	r3, #1
 8001eb6:	e236      	b.n	8002326 <HAL_RCC_OscConfig+0x4ca>
      }
    }
    else
    {
      /* Set the new HSE configuration ---------------------------------------*/
      __HAL_RCC_HSE_CONFIG(RCC_OscInitStruct->HSEState);
 8001eb8:	687b      	ldr	r3, [r7, #4]
 8001eba:	685b      	ldr	r3, [r3, #4]
 8001ebc:	f5b3 3f80 	cmp.w	r3, #65536	; 0x10000
 8001ec0:	d106      	bne.n	8001ed0 <HAL_RCC_OscConfig+0x74>
 8001ec2:	4b91      	ldr	r3, [pc, #580]	; (8002108 <HAL_RCC_OscConfig+0x2ac>)
 8001ec4:	681b      	ldr	r3, [r3, #0]
 8001ec6:	4a90      	ldr	r2, [pc, #576]	; (8002108 <HAL_RCC_OscConfig+0x2ac>)
 8001ec8:	f443 3380 	orr.w	r3, r3, #65536	; 0x10000
 8001ecc:	6013      	str	r3, [r2, #0]
 8001ece:	e01d      	b.n	8001f0c <HAL_RCC_OscConfig+0xb0>
 8001ed0:	687b      	ldr	r3, [r7, #4]
 8001ed2:	685b      	ldr	r3, [r3, #4]
 8001ed4:	f5b3 2fa0 	cmp.w	r3, #327680	; 0x50000
 8001ed8:	d10c      	bne.n	8001ef4 <HAL_RCC_OscConfig+0x98>
 8001eda:	4b8b      	ldr	r3, [pc, #556]	; (8002108 <HAL_RCC_OscConfig+0x2ac>)
 8001edc:	681b      	ldr	r3, [r3, #0]
 8001ede:	4a8a      	ldr	r2, [pc, #552]	; (8002108 <HAL_RCC_OscConfig+0x2ac>)
 8001ee0:	f443 2380 	orr.w	r3, r3, #262144	; 0x40000
 8001ee4:	6013      	str	r3, [r2, #0]
 8001ee6:	4b88      	ldr	r3, [pc, #544]	; (8002108 <HAL_RCC_OscConfig+0x2ac>)
 8001ee8:	681b      	ldr	r3, [r3, #0]
 8001eea:	4a87      	ldr	r2, [pc, #540]	; (8002108 <HAL_RCC_OscConfig+0x2ac>)
 8001eec:	f443 3380 	orr.w	r3, r3, #65536	; 0x10000
 8001ef0:	6013      	str	r3, [r2, #0]
 8001ef2:	e00b      	b.n	8001f0c <HAL_RCC_OscConfig+0xb0>
 8001ef4:	4b84      	ldr	r3, [pc, #528]	; (8002108 <HAL_RCC_OscConfig+0x2ac>)
 8001ef6:	681b      	ldr	r3, [r3, #0]
 8001ef8:	4a83      	ldr	r2, [pc, #524]	; (8002108 <HAL_RCC_OscConfig+0x2ac>)
 8001efa:	f423 3380 	bic.w	r3, r3, #65536	; 0x10000
 8001efe:	6013      	str	r3, [r2, #0]
 8001f00:	4b81      	ldr	r3, [pc, #516]	; (8002108 <HAL_RCC_OscConfig+0x2ac>)
 8001f02:	681b      	ldr	r3, [r3, #0]
 8001f04:	4a80      	ldr	r2, [pc, #512]	; (8002108 <HAL_RCC_OscConfig+0x2ac>)
 8001f06:	f423 2380 	bic.w	r3, r3, #262144	; 0x40000
 8001f0a:	6013      	str	r3, [r2, #0]

      /* Check the HSE State */
      if((RCC_OscInitStruct->HSEState) != RCC_HSE_OFF)
 8001f0c:	687b      	ldr	r3, [r7, #4]
 8001f0e:	685b      	ldr	r3, [r3, #4]
 8001f10:	2b00      	cmp	r3, #0
 8001f12:	d013      	beq.n	8001f3c <HAL_RCC_OscConfig+0xe0>
      {
        /* Get Start Tick */
        tickstart = HAL_GetTick();
 8001f14:	f7ff fc94 	bl	8001840 <HAL_GetTick>
 8001f18:	6138      	str	r0, [r7, #16]

        /* Wait till HSE is ready */
        while(__HAL_RCC_GET_FLAG(RCC_FLAG_HSERDY) == RESET)
 8001f1a:	e008      	b.n	8001f2e <HAL_RCC_OscConfig+0xd2>
        {
          if((HAL_GetTick() - tickstart ) > HSE_TIMEOUT_VALUE)
 8001f1c:	f7ff fc90 	bl	8001840 <HAL_GetTick>
 8001f20:	4602      	mov	r2, r0
 8001f22:	693b      	ldr	r3, [r7, #16]
 8001f24:	1ad3      	subs	r3, r2, r3
 8001f26:	2b64      	cmp	r3, #100	; 0x64
 8001f28:	d901      	bls.n	8001f2e <HAL_RCC_OscConfig+0xd2>
          {
            return HAL_TIMEOUT;
 8001f2a:	2303      	movs	r3, #3
 8001f2c:	e1fb      	b.n	8002326 <HAL_RCC_OscConfig+0x4ca>
        while(__HAL_RCC_GET_FLAG(RCC_FLAG_HSERDY) == RESET)
 8001f2e:	4b76      	ldr	r3, [pc, #472]	; (8002108 <HAL_RCC_OscConfig+0x2ac>)
 8001f30:	681b      	ldr	r3, [r3, #0]
 8001f32:	f403 3300 	and.w	r3, r3, #131072	; 0x20000
 8001f36:	2b00      	cmp	r3, #0
 8001f38:	d0f0      	beq.n	8001f1c <HAL_RCC_OscConfig+0xc0>
 8001f3a:	e014      	b.n	8001f66 <HAL_RCC_OscConfig+0x10a>
        }
      }
      else
      {
        /* Get Start Tick */
        tickstart = HAL_GetTick();
 8001f3c:	f7ff fc80 	bl	8001840 <HAL_GetTick>
 8001f40:	6138      	str	r0, [r7, #16]

        /* Wait till HSE is bypassed or disabled */
        while(__HAL_RCC_GET_FLAG(RCC_FLAG_HSERDY) != RESET)
 8001f42:	e008      	b.n	8001f56 <HAL_RCC_OscConfig+0xfa>
        {
          if((HAL_GetTick() - tickstart ) > HSE_TIMEOUT_VALUE)
 8001f44:	f7ff fc7c 	bl	8001840 <HAL_GetTick>
 8001f48:	4602      	mov	r2, r0
 8001f4a:	693b      	ldr	r3, [r7, #16]
 8001f4c:	1ad3      	subs	r3, r2, r3
 8001f4e:	2b64      	cmp	r3, #100	; 0x64
 8001f50:	d901      	bls.n	8001f56 <HAL_RCC_OscConfig+0xfa>
          {
            return HAL_TIMEOUT;
 8001f52:	2303      	movs	r3, #3
 8001f54:	e1e7      	b.n	8002326 <HAL_RCC_OscConfig+0x4ca>
        while(__HAL_RCC_GET_FLAG(RCC_FLAG_HSERDY) != RESET)
 8001f56:	4b6c      	ldr	r3, [pc, #432]	; (8002108 <HAL_RCC_OscConfig+0x2ac>)
 8001f58:	681b      	ldr	r3, [r3, #0]
 8001f5a:	f403 3300 	and.w	r3, r3, #131072	; 0x20000
 8001f5e:	2b00      	cmp	r3, #0
 8001f60:	d1f0      	bne.n	8001f44 <HAL_RCC_OscConfig+0xe8>
 8001f62:	e000      	b.n	8001f66 <HAL_RCC_OscConfig+0x10a>
      if((__HAL_RCC_GET_FLAG(RCC_FLAG_HSERDY) != RESET) && (RCC_OscInitStruct->HSEState == RCC_HSE_OFF))
 8001f64:	bf00      	nop
        }
      }
    }
  }
  /*----------------------------- HSI Configuration --------------------------*/
  if(((RCC_OscInitStruct->OscillatorType) & RCC_OSCILLATORTYPE_HSI) == RCC_OSCILLATORTYPE_HSI)
 8001f66:	687b      	ldr	r3, [r7, #4]
 8001f68:	681b      	ldr	r3, [r3, #0]
 8001f6a:	f003 0302 	and.w	r3, r3, #2
 8001f6e:	2b00      	cmp	r3, #0
 8001f70:	d063      	beq.n	800203a <HAL_RCC_OscConfig+0x1de>
    /* Check the parameters */
    assert_param(IS_RCC_HSI(RCC_OscInitStruct->HSIState));
    assert_param(IS_RCC_CALIBRATION_VALUE(RCC_OscInitStruct->HSICalibrationValue));

    /* Check if HSI is used as system clock or as PLL source when PLL is selected as system clock */
    if((__HAL_RCC_GET_SYSCLK_SOURCE() == RCC_CFGR_SWS_HSI) ||\
 8001f72:	4b65      	ldr	r3, [pc, #404]	; (8002108 <HAL_RCC_OscConfig+0x2ac>)
 8001f74:	689b      	ldr	r3, [r3, #8]
 8001f76:	f003 030c 	and.w	r3, r3, #12
 8001f7a:	2b00      	cmp	r3, #0
 8001f7c:	d00b      	beq.n	8001f96 <HAL_RCC_OscConfig+0x13a>
      ((__HAL_RCC_GET_SYSCLK_SOURCE() == RCC_CFGR_SWS_PLL) && ((RCC->PLLCFGR & RCC_PLLCFGR_PLLSRC) == RCC_PLLCFGR_PLLSRC_HSI)))
 8001f7e:	4b62      	ldr	r3, [pc, #392]	; (8002108 <HAL_RCC_OscConfig+0x2ac>)
 8001f80:	689b      	ldr	r3, [r3, #8]
 8001f82:	f003 030c 	and.w	r3, r3, #12
    if((__HAL_RCC_GET_SYSCLK_SOURCE() == RCC_CFGR_SWS_HSI) ||\
 8001f86:	2b08      	cmp	r3, #8
 8001f88:	d11c      	bne.n	8001fc4 <HAL_RCC_OscConfig+0x168>
      ((__HAL_RCC_GET_SYSCLK_SOURCE() == RCC_CFGR_SWS_PLL) && ((RCC->PLLCFGR & RCC_PLLCFGR_PLLSRC) == RCC_PLLCFGR_PLLSRC_HSI)))
 8001f8a:	4b5f      	ldr	r3, [pc, #380]	; (8002108 <HAL_RCC_OscConfig+0x2ac>)
 8001f8c:	685b      	ldr	r3, [r3, #4]
 8001f8e:	f403 0380 	and.w	r3, r3, #4194304	; 0x400000
 8001f92:	2b00      	cmp	r3, #0
 8001f94:	d116      	bne.n	8001fc4 <HAL_RCC_OscConfig+0x168>
    {
      /* When HSI is used as system clock it will not disabled */
      if((__HAL_RCC_GET_FLAG(RCC_FLAG_HSIRDY) != RESET) && (RCC_OscInitStruct->HSIState != RCC_HSI_ON))
 8001f96:	4b5c      	ldr	r3, [pc, #368]	; (8002108 <HAL_RCC_OscConfig+0x2ac>)
 8001f98:	681b      	ldr	r3, [r3, #0]
 8001f9a:	f003 0302 	and.w	r3, r3, #2
 8001f9e:	2b00      	cmp	r3, #0
 8001fa0:	d005      	beq.n	8001fae <HAL_RCC_OscConfig+0x152>
 8001fa2:	687b      	ldr	r3, [r7, #4]
 8001fa4:	68db      	ldr	r3, [r3, #12]
 8001fa6:	2b01      	cmp	r3, #1
 8001fa8:	d001      	beq.n	8001fae <HAL_RCC_OscConfig+0x152>
      {
        return HAL_ERROR;
 8001faa:	2301      	movs	r3, #1
 8001fac:	e1bb      	b.n	8002326 <HAL_RCC_OscConfig+0x4ca>
      }
      /* Otherwise, just the calibration is allowed */
      else
      {
        /* Adjusts the Internal High Speed oscillator (HSI) calibration value.*/
        __HAL_RCC_HSI_CALIBRATIONVALUE_ADJUST(RCC_OscInitStruct->HSICalibrationValue);
 8001fae:	4b56      	ldr	r3, [pc, #344]	; (8002108 <HAL_RCC_OscConfig+0x2ac>)
 8001fb0:	681b      	ldr	r3, [r3, #0]
 8001fb2:	f023 02f8 	bic.w	r2, r3, #248	; 0xf8
 8001fb6:	687b      	ldr	r3, [r7, #4]
 8001fb8:	691b      	ldr	r3, [r3, #16]
 8001fba:	00db      	lsls	r3, r3, #3
 8001fbc:	4952      	ldr	r1, [pc, #328]	; (8002108 <HAL_RCC_OscConfig+0x2ac>)
 8001fbe:	4313      	orrs	r3, r2
 8001fc0:	600b      	str	r3, [r1, #0]
      if((__HAL_RCC_GET_FLAG(RCC_FLAG_HSIRDY) != RESET) && (RCC_OscInitStruct->HSIState != RCC_HSI_ON))
 8001fc2:	e03a      	b.n	800203a <HAL_RCC_OscConfig+0x1de>
      }
    }
    else
    {
      /* Check the HSI State */
      if((RCC_OscInitStruct->HSIState)!= RCC_HSI_OFF)
 8001fc4:	687b      	ldr	r3, [r7, #4]
 8001fc6:	68db      	ldr	r3, [r3, #12]
 8001fc8:	2b00      	cmp	r3, #0
 8001fca:	d020      	beq.n	800200e <HAL_RCC_OscConfig+0x1b2>
      {
        /* Enable the Internal High Speed oscillator (HSI). */
        __HAL_RCC_HSI_ENABLE();
 8001fcc:	4b4f      	ldr	r3, [pc, #316]	; (800210c <HAL_RCC_OscConfig+0x2b0>)
 8001fce:	2201      	movs	r2, #1
 8001fd0:	601a      	str	r2, [r3, #0]

        /* Get Start Tick*/
        tickstart = HAL_GetTick();
 8001fd2:	f7ff fc35 	bl	8001840 <HAL_GetTick>
 8001fd6:	6138      	str	r0, [r7, #16]

        /* Wait till HSI is ready */
        while(__HAL_RCC_GET_FLAG(RCC_FLAG_HSIRDY) == RESET)
 8001fd8:	e008      	b.n	8001fec <HAL_RCC_OscConfig+0x190>
        {
          if((HAL_GetTick() - tickstart ) > HSI_TIMEOUT_VALUE)
 8001fda:	f7ff fc31 	bl	8001840 <HAL_GetTick>
 8001fde:	4602      	mov	r2, r0
 8001fe0:	693b      	ldr	r3, [r7, #16]
 8001fe2:	1ad3      	subs	r3, r2, r3
 8001fe4:	2b02      	cmp	r3, #2
 8001fe6:	d901      	bls.n	8001fec <HAL_RCC_OscConfig+0x190>
          {
            return HAL_TIMEOUT;
 8001fe8:	2303      	movs	r3, #3
 8001fea:	e19c      	b.n	8002326 <HAL_RCC_OscConfig+0x4ca>
        while(__HAL_RCC_GET_FLAG(RCC_FLAG_HSIRDY) == RESET)
 8001fec:	4b46      	ldr	r3, [pc, #280]	; (8002108 <HAL_RCC_OscConfig+0x2ac>)
 8001fee:	681b      	ldr	r3, [r3, #0]
 8001ff0:	f003 0302 	and.w	r3, r3, #2
 8001ff4:	2b00      	cmp	r3, #0
 8001ff6:	d0f0      	beq.n	8001fda <HAL_RCC_OscConfig+0x17e>
          }
        }

        /* Adjusts the Internal High Speed oscillator (HSI) calibration value. */
        __HAL_RCC_HSI_CALIBRATIONVALUE_ADJUST(RCC_OscInitStruct->HSICalibrationValue);
 8001ff8:	4b43      	ldr	r3, [pc, #268]	; (8002108 <HAL_RCC_OscConfig+0x2ac>)
 8001ffa:	681b      	ldr	r3, [r3, #0]
 8001ffc:	f023 02f8 	bic.w	r2, r3, #248	; 0xf8
 8002000:	687b      	ldr	r3, [r7, #4]
 8002002:	691b      	ldr	r3, [r3, #16]
 8002004:	00db      	lsls	r3, r3, #3
 8002006:	4940      	ldr	r1, [pc, #256]	; (8002108 <HAL_RCC_OscConfig+0x2ac>)
 8002008:	4313      	orrs	r3, r2
 800200a:	600b      	str	r3, [r1, #0]
 800200c:	e015      	b.n	800203a <HAL_RCC_OscConfig+0x1de>
      }
      else
      {
        /* Disable the Internal High Speed oscillator (HSI). */
        __HAL_RCC_HSI_DISABLE();
 800200e:	4b3f      	ldr	r3, [pc, #252]	; (800210c <HAL_RCC_OscConfig+0x2b0>)
 8002010:	2200      	movs	r2, #0
 8002012:	601a      	str	r2, [r3, #0]

        /* Get Start Tick*/
        tickstart = HAL_GetTick();
 8002014:	f7ff fc14 	bl	8001840 <HAL_GetTick>
 8002018:	6138      	str	r0, [r7, #16]

        /* Wait till HSI is ready */
        while(__HAL_RCC_GET_FLAG(RCC_FLAG_HSIRDY) != RESET)
 800201a:	e008      	b.n	800202e <HAL_RCC_OscConfig+0x1d2>
        {
          if((HAL_GetTick() - tickstart ) > HSI_TIMEOUT_VALUE)
 800201c:	f7ff fc10 	bl	8001840 <HAL_GetTick>
 8002020:	4602      	mov	r2, r0
 8002022:	693b      	ldr	r3, [r7, #16]
 8002024:	1ad3      	subs	r3, r2, r3
 8002026:	2b02      	cmp	r3, #2
 8002028:	d901      	bls.n	800202e <HAL_RCC_OscConfig+0x1d2>
          {
            return HAL_TIMEOUT;
 800202a:	2303      	movs	r3, #3
 800202c:	e17b      	b.n	8002326 <HAL_RCC_OscConfig+0x4ca>
        while(__HAL_RCC_GET_FLAG(RCC_FLAG_HSIRDY) != RESET)
 800202e:	4b36      	ldr	r3, [pc, #216]	; (8002108 <HAL_RCC_OscConfig+0x2ac>)
 8002030:	681b      	ldr	r3, [r3, #0]
 8002032:	f003 0302 	and.w	r3, r3, #2
 8002036:	2b00      	cmp	r3, #0
 8002038:	d1f0      	bne.n	800201c <HAL_RCC_OscConfig+0x1c0>
        }
      }
    }
  }
  /*------------------------------ LSI Configuration -------------------------*/
  if(((RCC_OscInitStruct->OscillatorType) & RCC_OSCILLATORTYPE_LSI) == RCC_OSCILLATORTYPE_LSI)
 800203a:	687b      	ldr	r3, [r7, #4]
 800203c:	681b      	ldr	r3, [r3, #0]
 800203e:	f003 0308 	and.w	r3, r3, #8
 8002042:	2b00      	cmp	r3, #0
 8002044:	d030      	beq.n	80020a8 <HAL_RCC_OscConfig+0x24c>
  {
    /* Check the parameters */
    assert_param(IS_RCC_LSI(RCC_OscInitStruct->LSIState));

    /* Check the LSI State */
    if((RCC_OscInitStruct->LSIState)!= RCC_LSI_OFF)
 8002046:	687b      	ldr	r3, [r7, #4]
 8002048:	695b      	ldr	r3, [r3, #20]
 800204a:	2b00      	cmp	r3, #0
 800204c:	d016      	beq.n	800207c <HAL_RCC_OscConfig+0x220>
    {
      /* Enable the Internal Low Speed oscillator (LSI). */
      __HAL_RCC_LSI_ENABLE();
 800204e:	4b30      	ldr	r3, [pc, #192]	; (8002110 <HAL_RCC_OscConfig+0x2b4>)
 8002050:	2201      	movs	r2, #1
 8002052:	601a      	str	r2, [r3, #0]

      /* Get Start Tick*/
      tickstart = HAL_GetTick();
 8002054:	f7ff fbf4 	bl	8001840 <HAL_GetTick>
 8002058:	6138      	str	r0, [r7, #16]

      /* Wait till LSI is ready */
      while(__HAL_RCC_GET_FLAG(RCC_FLAG_LSIRDY) == RESET)
 800205a:	e008      	b.n	800206e <HAL_RCC_OscConfig+0x212>
      {
        if((HAL_GetTick() - tickstart ) > LSI_TIMEOUT_VALUE)
 800205c:	f7ff fbf0 	bl	8001840 <HAL_GetTick>
 8002060:	4602      	mov	r2, r0
 8002062:	693b      	ldr	r3, [r7, #16]
 8002064:	1ad3      	subs	r3, r2, r3
 8002066:	2b02      	cmp	r3, #2
 8002068:	d901      	bls.n	800206e <HAL_RCC_OscConfig+0x212>
        {
          return HAL_TIMEOUT;
 800206a:	2303      	movs	r3, #3
 800206c:	e15b      	b.n	8002326 <HAL_RCC_OscConfig+0x4ca>
      while(__HAL_RCC_GET_FLAG(RCC_FLAG_LSIRDY) == RESET)
 800206e:	4b26      	ldr	r3, [pc, #152]	; (8002108 <HAL_RCC_OscConfig+0x2ac>)
 8002070:	6f5b      	ldr	r3, [r3, #116]	; 0x74
 8002072:	f003 0302 	and.w	r3, r3, #2
 8002076:	2b00      	cmp	r3, #0
 8002078:	d0f0      	beq.n	800205c <HAL_RCC_OscConfig+0x200>
 800207a:	e015      	b.n	80020a8 <HAL_RCC_OscConfig+0x24c>
      }
    }
    else
    {
      /* Disable the Internal Low Speed oscillator (LSI). */
      __HAL_RCC_LSI_DISABLE();
 800207c:	4b24      	ldr	r3, [pc, #144]	; (8002110 <HAL_RCC_OscConfig+0x2b4>)
 800207e:	2200      	movs	r2, #0
 8002080:	601a      	str	r2, [r3, #0]

      /* Get Start Tick */
      tickstart = HAL_GetTick();
 8002082:	f7ff fbdd 	bl	8001840 <HAL_GetTick>
 8002086:	6138      	str	r0, [r7, #16]

      /* Wait till LSI is ready */
      while(__HAL_RCC_GET_FLAG(RCC_FLAG_LSIRDY) != RESET)
 8002088:	e008      	b.n	800209c <HAL_RCC_OscConfig+0x240>
      {
        if((HAL_GetTick() - tickstart ) > LSI_TIMEOUT_VALUE)
 800208a:	f7ff fbd9 	bl	8001840 <HAL_GetTick>
 800208e:	4602      	mov	r2, r0
 8002090:	693b      	ldr	r3, [r7, #16]
 8002092:	1ad3      	subs	r3, r2, r3
 8002094:	2b02      	cmp	r3, #2
 8002096:	d901      	bls.n	800209c <HAL_RCC_OscConfig+0x240>
        {
          return HAL_TIMEOUT;
 8002098:	2303      	movs	r3, #3
 800209a:	e144      	b.n	8002326 <HAL_RCC_OscConfig+0x4ca>
      while(__HAL_RCC_GET_FLAG(RCC_FLAG_LSIRDY) != RESET)
 800209c:	4b1a      	ldr	r3, [pc, #104]	; (8002108 <HAL_RCC_OscConfig+0x2ac>)
 800209e:	6f5b      	ldr	r3, [r3, #116]	; 0x74
 80020a0:	f003 0302 	and.w	r3, r3, #2
 80020a4:	2b00      	cmp	r3, #0
 80020a6:	d1f0      	bne.n	800208a <HAL_RCC_OscConfig+0x22e>
        }
      }
    }
  }
  /*------------------------------ LSE Configuration -------------------------*/
  if(((RCC_OscInitStruct->OscillatorType) & RCC_OSCILLATORTYPE_LSE) == RCC_OSCILLATORTYPE_LSE)
 80020a8:	687b      	ldr	r3, [r7, #4]
 80020aa:	681b      	ldr	r3, [r3, #0]
 80020ac:	f003 0304 	and.w	r3, r3, #4
 80020b0:	2b00      	cmp	r3, #0
 80020b2:	f000 80a0 	beq.w	80021f6 <HAL_RCC_OscConfig+0x39a>
  {
    FlagStatus       pwrclkchanged = RESET;
 80020b6:	2300      	movs	r3, #0
 80020b8:	75fb      	strb	r3, [r7, #23]
    /* Check the parameters */
    assert_param(IS_RCC_LSE(RCC_OscInitStruct->LSEState));

    /* Update LSE configuration in Backup Domain control register    */
    /* Requires to enable write access to Backup Domain of necessary */
    if(__HAL_RCC_PWR_IS_CLK_DISABLED())
 80020ba:	4b13      	ldr	r3, [pc, #76]	; (8002108 <HAL_RCC_OscConfig+0x2ac>)
 80020bc:	6c1b      	ldr	r3, [r3, #64]	; 0x40
 80020be:	f003 5380 	and.w	r3, r3, #268435456	; 0x10000000
 80020c2:	2b00      	cmp	r3, #0
 80020c4:	d10f      	bne.n	80020e6 <HAL_RCC_OscConfig+0x28a>
    {
      __HAL_RCC_PWR_CLK_ENABLE();
 80020c6:	2300      	movs	r3, #0
 80020c8:	60bb      	str	r3, [r7, #8]
 80020ca:	4b0f      	ldr	r3, [pc, #60]	; (8002108 <HAL_RCC_OscConfig+0x2ac>)
 80020cc:	6c1b      	ldr	r3, [r3, #64]	; 0x40
 80020ce:	4a0e      	ldr	r2, [pc, #56]	; (8002108 <HAL_RCC_OscConfig+0x2ac>)
 80020d0:	f043 5380 	orr.w	r3, r3, #268435456	; 0x10000000
 80020d4:	6413      	str	r3, [r2, #64]	; 0x40
 80020d6:	4b0c      	ldr	r3, [pc, #48]	; (8002108 <HAL_RCC_OscConfig+0x2ac>)
 80020d8:	6c1b      	ldr	r3, [r3, #64]	; 0x40
 80020da:	f003 5380 	and.w	r3, r3, #268435456	; 0x10000000
 80020de:	60bb      	str	r3, [r7, #8]
 80020e0:	68bb      	ldr	r3, [r7, #8]
      pwrclkchanged = SET;
 80020e2:	2301      	movs	r3, #1
 80020e4:	75fb      	strb	r3, [r7, #23]
    }

    if(HAL_IS_BIT_CLR(PWR->CR, PWR_CR_DBP))
 80020e6:	4b0b      	ldr	r3, [pc, #44]	; (8002114 <HAL_RCC_OscConfig+0x2b8>)
 80020e8:	681b      	ldr	r3, [r3, #0]
 80020ea:	f403 7380 	and.w	r3, r3, #256	; 0x100
 80020ee:	2b00      	cmp	r3, #0
 80020f0:	d121      	bne.n	8002136 <HAL_RCC_OscConfig+0x2da>
    {
      /* Enable write access to Backup domain */
      SET_BIT(PWR->CR, PWR_CR_DBP);
 80020f2:	4b08      	ldr	r3, [pc, #32]	; (8002114 <HAL_RCC_OscConfig+0x2b8>)
 80020f4:	681b      	ldr	r3, [r3, #0]
 80020f6:	4a07      	ldr	r2, [pc, #28]	; (8002114 <HAL_RCC_OscConfig+0x2b8>)
 80020f8:	f443 7380 	orr.w	r3, r3, #256	; 0x100
 80020fc:	6013      	str	r3, [r2, #0]

      /* Wait for Backup domain Write protection disable */
      tickstart = HAL_GetTick();
 80020fe:	f7ff fb9f 	bl	8001840 <HAL_GetTick>
 8002102:	6138      	str	r0, [r7, #16]

      while(HAL_IS_BIT_CLR(PWR->CR, PWR_CR_DBP))
 8002104:	e011      	b.n	800212a <HAL_RCC_OscConfig+0x2ce>
 8002106:	bf00      	nop
 8002108:	40023800 	.word	0x40023800
 800210c:	42470000 	.word	0x42470000
 8002110:	42470e80 	.word	0x42470e80
 8002114:	40007000 	.word	0x40007000
      {
        if((HAL_GetTick() - tickstart) > RCC_DBP_TIMEOUT_VALUE)
 8002118:	f7ff fb92 	bl	8001840 <HAL_GetTick>
 800211c:	4602      	mov	r2, r0
 800211e:	693b      	ldr	r3, [r7, #16]
 8002120:	1ad3      	subs	r3, r2, r3
 8002122:	2b02      	cmp	r3, #2
 8002124:	d901      	bls.n	800212a <HAL_RCC_OscConfig+0x2ce>
        {
          return HAL_TIMEOUT;
 8002126:	2303      	movs	r3, #3
 8002128:	e0fd      	b.n	8002326 <HAL_RCC_OscConfig+0x4ca>
      while(HAL_IS_BIT_CLR(PWR->CR, PWR_CR_DBP))
 800212a:	4b81      	ldr	r3, [pc, #516]	; (8002330 <HAL_RCC_OscConfig+0x4d4>)
 800212c:	681b      	ldr	r3, [r3, #0]
 800212e:	f403 7380 	and.w	r3, r3, #256	; 0x100
 8002132:	2b00      	cmp	r3, #0
 8002134:	d0f0      	beq.n	8002118 <HAL_RCC_OscConfig+0x2bc>
        }
      }
    }

    /* Set the new LSE configuration -----------------------------------------*/
    __HAL_RCC_LSE_CONFIG(RCC_OscInitStruct->LSEState);
 8002136:	687b      	ldr	r3, [r7, #4]
 8002138:	689b      	ldr	r3, [r3, #8]
 800213a:	2b01      	cmp	r3, #1
 800213c:	d106      	bne.n	800214c <HAL_RCC_OscConfig+0x2f0>
 800213e:	4b7d      	ldr	r3, [pc, #500]	; (8002334 <HAL_RCC_OscConfig+0x4d8>)
 8002140:	6f1b      	ldr	r3, [r3, #112]	; 0x70
 8002142:	4a7c      	ldr	r2, [pc, #496]	; (8002334 <HAL_RCC_OscConfig+0x4d8>)
 8002144:	f043 0301 	orr.w	r3, r3, #1
 8002148:	6713      	str	r3, [r2, #112]	; 0x70
 800214a:	e01c      	b.n	8002186 <HAL_RCC_OscConfig+0x32a>
 800214c:	687b      	ldr	r3, [r7, #4]
 800214e:	689b      	ldr	r3, [r3, #8]
 8002150:	2b05      	cmp	r3, #5
 8002152:	d10c      	bne.n	800216e <HAL_RCC_OscConfig+0x312>
 8002154:	4b77      	ldr	r3, [pc, #476]	; (8002334 <HAL_RCC_OscConfig+0x4d8>)
 8002156:	6f1b      	ldr	r3, [r3, #112]	; 0x70
 8002158:	4a76      	ldr	r2, [pc, #472]	; (8002334 <HAL_RCC_OscConfig+0x4d8>)
 800215a:	f043 0304 	orr.w	r3, r3, #4
 800215e:	6713      	str	r3, [r2, #112]	; 0x70
 8002160:	4b74      	ldr	r3, [pc, #464]	; (8002334 <HAL_RCC_OscConfig+0x4d8>)
 8002162:	6f1b      	ldr	r3, [r3, #112]	; 0x70
 8002164:	4a73      	ldr	r2, [pc, #460]	; (8002334 <HAL_RCC_OscConfig+0x4d8>)
 8002166:	f043 0301 	orr.w	r3, r3, #1
 800216a:	6713      	str	r3, [r2, #112]	; 0x70
 800216c:	e00b      	b.n	8002186 <HAL_RCC_OscConfig+0x32a>
 800216e:	4b71      	ldr	r3, [pc, #452]	; (8002334 <HAL_RCC_OscConfig+0x4d8>)
 8002170:	6f1b      	ldr	r3, [r3, #112]	; 0x70
 8002172:	4a70      	ldr	r2, [pc, #448]	; (8002334 <HAL_RCC_OscConfig+0x4d8>)
 8002174:	f023 0301 	bic.w	r3, r3, #1
 8002178:	6713      	str	r3, [r2, #112]	; 0x70
 800217a:	4b6e      	ldr	r3, [pc, #440]	; (8002334 <HAL_RCC_OscConfig+0x4d8>)
 800217c:	6f1b      	ldr	r3, [r3, #112]	; 0x70
 800217e:	4a6d      	ldr	r2, [pc, #436]	; (8002334 <HAL_RCC_OscConfig+0x4d8>)
 8002180:	f023 0304 	bic.w	r3, r3, #4
 8002184:	6713      	str	r3, [r2, #112]	; 0x70
    /* Check the LSE State */
    if((RCC_OscInitStruct->LSEState) != RCC_LSE_OFF)
 8002186:	687b      	ldr	r3, [r7, #4]
 8002188:	689b      	ldr	r3, [r3, #8]
 800218a:	2b00      	cmp	r3, #0
 800218c:	d015      	beq.n	80021ba <HAL_RCC_OscConfig+0x35e>
    {
      /* Get Start Tick*/
      tickstart = HAL_GetTick();
 800218e:	f7ff fb57 	bl	8001840 <HAL_GetTick>
 8002192:	6138      	str	r0, [r7, #16]

      /* Wait till LSE is ready */
      while(__HAL_RCC_GET_FLAG(RCC_FLAG_LSERDY) == RESET)
 8002194:	e00a      	b.n	80021ac <HAL_RCC_OscConfig+0x350>
      {
        if((HAL_GetTick() - tickstart ) > RCC_LSE_TIMEOUT_VALUE)
 8002196:	f7ff fb53 	bl	8001840 <HAL_GetTick>
 800219a:	4602      	mov	r2, r0
 800219c:	693b      	ldr	r3, [r7, #16]
 800219e:	1ad3      	subs	r3, r2, r3
 80021a0:	f241 3288 	movw	r2, #5000	; 0x1388
 80021a4:	4293      	cmp	r3, r2
 80021a6:	d901      	bls.n	80021ac <HAL_RCC_OscConfig+0x350>
        {
          return HAL_TIMEOUT;
 80021a8:	2303      	movs	r3, #3
 80021aa:	e0bc      	b.n	8002326 <HAL_RCC_OscConfig+0x4ca>
      while(__HAL_RCC_GET_FLAG(RCC_FLAG_LSERDY) == RESET)
 80021ac:	4b61      	ldr	r3, [pc, #388]	; (8002334 <HAL_RCC_OscConfig+0x4d8>)
 80021ae:	6f1b      	ldr	r3, [r3, #112]	; 0x70
 80021b0:	f003 0302 	and.w	r3, r3, #2
 80021b4:	2b00      	cmp	r3, #0
 80021b6:	d0ee      	beq.n	8002196 <HAL_RCC_OscConfig+0x33a>
 80021b8:	e014      	b.n	80021e4 <HAL_RCC_OscConfig+0x388>
      }
    }
    else
    {
      /* Get Start Tick */
      tickstart = HAL_GetTick();
 80021ba:	f7ff fb41 	bl	8001840 <HAL_GetTick>
 80021be:	6138      	str	r0, [r7, #16]

      /* Wait till LSE is ready */
      while(__HAL_RCC_GET_FLAG(RCC_FLAG_LSERDY) != RESET)
 80021c0:	e00a      	b.n	80021d8 <HAL_RCC_OscConfig+0x37c>
      {
        if((HAL_GetTick() - tickstart ) > RCC_LSE_TIMEOUT_VALUE)
 80021c2:	f7ff fb3d 	bl	8001840 <HAL_GetTick>
 80021c6:	4602      	mov	r2, r0
 80021c8:	693b      	ldr	r3, [r7, #16]
 80021ca:	1ad3      	subs	r3, r2, r3
 80021cc:	f241 3288 	movw	r2, #5000	; 0x1388
 80021d0:	4293      	cmp	r3, r2
 80021d2:	d901      	bls.n	80021d8 <HAL_RCC_OscConfig+0x37c>
        {
          return HAL_TIMEOUT;
 80021d4:	2303      	movs	r3, #3
 80021d6:	e0a6      	b.n	8002326 <HAL_RCC_OscConfig+0x4ca>
      while(__HAL_RCC_GET_FLAG(RCC_FLAG_LSERDY) != RESET)
 80021d8:	4b56      	ldr	r3, [pc, #344]	; (8002334 <HAL_RCC_OscConfig+0x4d8>)
 80021da:	6f1b      	ldr	r3, [r3, #112]	; 0x70
 80021dc:	f003 0302 	and.w	r3, r3, #2
 80021e0:	2b00      	cmp	r3, #0
 80021e2:	d1ee      	bne.n	80021c2 <HAL_RCC_OscConfig+0x366>
        }
      }
    }

    /* Restore clock configuration if changed */
    if(pwrclkchanged == SET)
 80021e4:	7dfb      	ldrb	r3, [r7, #23]
 80021e6:	2b01      	cmp	r3, #1
 80021e8:	d105      	bne.n	80021f6 <HAL_RCC_OscConfig+0x39a>
    {
      __HAL_RCC_PWR_CLK_DISABLE();
 80021ea:	4b52      	ldr	r3, [pc, #328]	; (8002334 <HAL_RCC_OscConfig+0x4d8>)
 80021ec:	6c1b      	ldr	r3, [r3, #64]	; 0x40
 80021ee:	4a51      	ldr	r2, [pc, #324]	; (8002334 <HAL_RCC_OscConfig+0x4d8>)
 80021f0:	f023 5380 	bic.w	r3, r3, #268435456	; 0x10000000
 80021f4:	6413      	str	r3, [r2, #64]	; 0x40
    }
  }
  /*-------------------------------- PLL Configuration -----------------------*/
  /* Check the parameters */
  assert_param(IS_RCC_PLL(RCC_OscInitStruct->PLL.PLLState));
  if ((RCC_OscInitStruct->PLL.PLLState) != RCC_PLL_NONE)
 80021f6:	687b      	ldr	r3, [r7, #4]
 80021f8:	699b      	ldr	r3, [r3, #24]
 80021fa:	2b00      	cmp	r3, #0
 80021fc:	f000 8092 	beq.w	8002324 <HAL_RCC_OscConfig+0x4c8>
  {
    /* Check if the PLL is used as system clock or not */
    if(__HAL_RCC_GET_SYSCLK_SOURCE() != RCC_CFGR_SWS_PLL)
 8002200:	4b4c      	ldr	r3, [pc, #304]	; (8002334 <HAL_RCC_OscConfig+0x4d8>)
 8002202:	689b      	ldr	r3, [r3, #8]
 8002204:	f003 030c 	and.w	r3, r3, #12
 8002208:	2b08      	cmp	r3, #8
 800220a:	d05c      	beq.n	80022c6 <HAL_RCC_OscConfig+0x46a>
    {
      if((RCC_OscInitStruct->PLL.PLLState) == RCC_PLL_ON)
 800220c:	687b      	ldr	r3, [r7, #4]
 800220e:	699b      	ldr	r3, [r3, #24]
 8002210:	2b02      	cmp	r3, #2
 8002212:	d141      	bne.n	8002298 <HAL_RCC_OscConfig+0x43c>
        assert_param(IS_RCC_PLLN_VALUE(RCC_OscInitStruct->PLL.PLLN));
        assert_param(IS_RCC_PLLP_VALUE(RCC_OscInitStruct->PLL.PLLP));
        assert_param(IS_RCC_PLLQ_VALUE(RCC_OscInitStruct->PLL.PLLQ));

        /* Disable the main PLL. */
        __HAL_RCC_PLL_DISABLE();
 8002214:	4b48      	ldr	r3, [pc, #288]	; (8002338 <HAL_RCC_OscConfig+0x4dc>)
 8002216:	2200      	movs	r2, #0
 8002218:	601a      	str	r2, [r3, #0]

        /* Get Start Tick */
        tickstart = HAL_GetTick();
 800221a:	f7ff fb11 	bl	8001840 <HAL_GetTick>
 800221e:	6138      	str	r0, [r7, #16]

        /* Wait till PLL is ready */
        while(__HAL_RCC_GET_FLAG(RCC_FLAG_PLLRDY) != RESET)
 8002220:	e008      	b.n	8002234 <HAL_RCC_OscConfig+0x3d8>
        {
          if((HAL_GetTick() - tickstart ) > PLL_TIMEOUT_VALUE)
 8002222:	f7ff fb0d 	bl	8001840 <HAL_GetTick>
 8002226:	4602      	mov	r2, r0
 8002228:	693b      	ldr	r3, [r7, #16]
 800222a:	1ad3      	subs	r3, r2, r3
 800222c:	2b02      	cmp	r3, #2
 800222e:	d901      	bls.n	8002234 <HAL_RCC_OscConfig+0x3d8>
          {
            return HAL_TIMEOUT;
 8002230:	2303      	movs	r3, #3
 8002232:	e078      	b.n	8002326 <HAL_RCC_OscConfig+0x4ca>
        while(__HAL_RCC_GET_FLAG(RCC_FLAG_PLLRDY) != RESET)
 8002234:	4b3f      	ldr	r3, [pc, #252]	; (8002334 <HAL_RCC_OscConfig+0x4d8>)
 8002236:	681b      	ldr	r3, [r3, #0]
 8002238:	f003 7300 	and.w	r3, r3, #33554432	; 0x2000000
 800223c:	2b00      	cmp	r3, #0
 800223e:	d1f0      	bne.n	8002222 <HAL_RCC_OscConfig+0x3c6>
          }
        }

        /* Configure the main PLL clock source, multiplication and division factors. */
        WRITE_REG(RCC->PLLCFGR, (RCC_OscInitStruct->PLL.PLLSource                                            | \
 8002240:	687b      	ldr	r3, [r7, #4]
 8002242:	69da      	ldr	r2, [r3, #28]
 8002244:	687b      	ldr	r3, [r7, #4]
 8002246:	6a1b      	ldr	r3, [r3, #32]
 8002248:	431a      	orrs	r2, r3
 800224a:	687b      	ldr	r3, [r7, #4]
 800224c:	6a5b      	ldr	r3, [r3, #36]	; 0x24
 800224e:	019b      	lsls	r3, r3, #6
 8002250:	431a      	orrs	r2, r3
 8002252:	687b      	ldr	r3, [r7, #4]
 8002254:	6a9b      	ldr	r3, [r3, #40]	; 0x28
 8002256:	085b      	lsrs	r3, r3, #1
 8002258:	3b01      	subs	r3, #1
 800225a:	041b      	lsls	r3, r3, #16
 800225c:	431a      	orrs	r2, r3
 800225e:	687b      	ldr	r3, [r7, #4]
 8002260:	6adb      	ldr	r3, [r3, #44]	; 0x2c
 8002262:	061b      	lsls	r3, r3, #24
 8002264:	4933      	ldr	r1, [pc, #204]	; (8002334 <HAL_RCC_OscConfig+0x4d8>)
 8002266:	4313      	orrs	r3, r2
 8002268:	604b      	str	r3, [r1, #4]
                                 RCC_OscInitStruct->PLL.PLLM                                                 | \
                                 (RCC_OscInitStruct->PLL.PLLN << RCC_PLLCFGR_PLLN_Pos)             | \
                                 (((RCC_OscInitStruct->PLL.PLLP >> 1U) - 1U) << RCC_PLLCFGR_PLLP_Pos) | \
                                 (RCC_OscInitStruct->PLL.PLLQ << RCC_PLLCFGR_PLLQ_Pos)));
        /* Enable the main PLL. */
        __HAL_RCC_PLL_ENABLE();
 800226a:	4b33      	ldr	r3, [pc, #204]	; (8002338 <HAL_RCC_OscConfig+0x4dc>)
 800226c:	2201      	movs	r2, #1
 800226e:	601a      	str	r2, [r3, #0]

        /* Get Start Tick */
        tickstart = HAL_GetTick();
 8002270:	f7ff fae6 	bl	8001840 <HAL_GetTick>
 8002274:	6138      	str	r0, [r7, #16]

        /* Wait till PLL is ready */
        while(__HAL_RCC_GET_FLAG(RCC_FLAG_PLLRDY) == RESET)
 8002276:	e008      	b.n	800228a <HAL_RCC_OscConfig+0x42e>
        {
          if((HAL_GetTick() - tickstart ) > PLL_TIMEOUT_VALUE)
 8002278:	f7ff fae2 	bl	8001840 <HAL_GetTick>
 800227c:	4602      	mov	r2, r0
 800227e:	693b      	ldr	r3, [r7, #16]
 8002280:	1ad3      	subs	r3, r2, r3
 8002282:	2b02      	cmp	r3, #2
 8002284:	d901      	bls.n	800228a <HAL_RCC_OscConfig+0x42e>
          {
            return HAL_TIMEOUT;
 8002286:	2303      	movs	r3, #3
 8002288:	e04d      	b.n	8002326 <HAL_RCC_OscConfig+0x4ca>
        while(__HAL_RCC_GET_FLAG(RCC_FLAG_PLLRDY) == RESET)
 800228a:	4b2a      	ldr	r3, [pc, #168]	; (8002334 <HAL_RCC_OscConfig+0x4d8>)
 800228c:	681b      	ldr	r3, [r3, #0]
 800228e:	f003 7300 	and.w	r3, r3, #33554432	; 0x2000000
 8002292:	2b00      	cmp	r3, #0
 8002294:	d0f0      	beq.n	8002278 <HAL_RCC_OscConfig+0x41c>
 8002296:	e045      	b.n	8002324 <HAL_RCC_OscConfig+0x4c8>
        }
      }
      else
      {
        /* Disable the main PLL. */
        __HAL_RCC_PLL_DISABLE();
 8002298:	4b27      	ldr	r3, [pc, #156]	; (8002338 <HAL_RCC_OscConfig+0x4dc>)
 800229a:	2200      	movs	r2, #0
 800229c:	601a      	str	r2, [r3, #0]

        /* Get Start Tick */
        tickstart = HAL_GetTick();
 800229e:	f7ff facf 	bl	8001840 <HAL_GetTick>
 80022a2:	6138      	str	r0, [r7, #16]

        /* Wait till PLL is ready */
        while(__HAL_RCC_GET_FLAG(RCC_FLAG_PLLRDY) != RESET)
 80022a4:	e008      	b.n	80022b8 <HAL_RCC_OscConfig+0x45c>
        {
          if((HAL_GetTick() - tickstart ) > PLL_TIMEOUT_VALUE)
 80022a6:	f7ff facb 	bl	8001840 <HAL_GetTick>
 80022aa:	4602      	mov	r2, r0
 80022ac:	693b      	ldr	r3, [r7, #16]
 80022ae:	1ad3      	subs	r3, r2, r3
 80022b0:	2b02      	cmp	r3, #2
 80022b2:	d901      	bls.n	80022b8 <HAL_RCC_OscConfig+0x45c>
          {
            return HAL_TIMEOUT;
 80022b4:	2303      	movs	r3, #3
 80022b6:	e036      	b.n	8002326 <HAL_RCC_OscConfig+0x4ca>
        while(__HAL_RCC_GET_FLAG(RCC_FLAG_PLLRDY) != RESET)
 80022b8:	4b1e      	ldr	r3, [pc, #120]	; (8002334 <HAL_RCC_OscConfig+0x4d8>)
 80022ba:	681b      	ldr	r3, [r3, #0]
 80022bc:	f003 7300 	and.w	r3, r3, #33554432	; 0x2000000
 80022c0:	2b00      	cmp	r3, #0
 80022c2:	d1f0      	bne.n	80022a6 <HAL_RCC_OscConfig+0x44a>
 80022c4:	e02e      	b.n	8002324 <HAL_RCC_OscConfig+0x4c8>
      }
    }
    else
    {
      /* Check if there is a request to disable the PLL used as System clock source */
      if((RCC_OscInitStruct->PLL.PLLState) == RCC_PLL_OFF)
 80022c6:	687b      	ldr	r3, [r7, #4]
 80022c8:	699b      	ldr	r3, [r3, #24]
 80022ca:	2b01      	cmp	r3, #1
 80022cc:	d101      	bne.n	80022d2 <HAL_RCC_OscConfig+0x476>
      {
        return HAL_ERROR;
 80022ce:	2301      	movs	r3, #1
 80022d0:	e029      	b.n	8002326 <HAL_RCC_OscConfig+0x4ca>
      }
      else
      {
        /* Do not return HAL_ERROR if request repeats the current configuration */
        pll_config = RCC->PLLCFGR;
 80022d2:	4b18      	ldr	r3, [pc, #96]	; (8002334 <HAL_RCC_OscConfig+0x4d8>)
 80022d4:	685b      	ldr	r3, [r3, #4]
 80022d6:	60fb      	str	r3, [r7, #12]
        if((READ_BIT(pll_config, RCC_PLLCFGR_PLLSRC) != RCC_OscInitStruct->PLL.PLLSource) ||
 80022d8:	68fb      	ldr	r3, [r7, #12]
 80022da:	f403 0280 	and.w	r2, r3, #4194304	; 0x400000
 80022de:	687b      	ldr	r3, [r7, #4]
 80022e0:	69db      	ldr	r3, [r3, #28]
 80022e2:	429a      	cmp	r2, r3
 80022e4:	d11c      	bne.n	8002320 <HAL_RCC_OscConfig+0x4c4>
           (READ_BIT(pll_config, RCC_PLLCFGR_PLLM) != RCC_OscInitStruct->PLL.PLLM) ||
 80022e6:	68fb      	ldr	r3, [r7, #12]
 80022e8:	f003 023f 	and.w	r2, r3, #63	; 0x3f
 80022ec:	687b      	ldr	r3, [r7, #4]
 80022ee:	6a1b      	ldr	r3, [r3, #32]
        if((READ_BIT(pll_config, RCC_PLLCFGR_PLLSRC) != RCC_OscInitStruct->PLL.PLLSource) ||
 80022f0:	429a      	cmp	r2, r3
 80022f2:	d115      	bne.n	8002320 <HAL_RCC_OscConfig+0x4c4>
           (READ_BIT(pll_config, RCC_PLLCFGR_PLLN) != RCC_OscInitStruct->PLL.PLLN) ||
 80022f4:	68fa      	ldr	r2, [r7, #12]
 80022f6:	f647 73c0 	movw	r3, #32704	; 0x7fc0
 80022fa:	4013      	ands	r3, r2
 80022fc:	687a      	ldr	r2, [r7, #4]
 80022fe:	6a52      	ldr	r2, [r2, #36]	; 0x24
           (READ_BIT(pll_config, RCC_PLLCFGR_PLLM) != RCC_OscInitStruct->PLL.PLLM) ||
 8002300:	4293      	cmp	r3, r2
 8002302:	d10d      	bne.n	8002320 <HAL_RCC_OscConfig+0x4c4>
           (READ_BIT(pll_config, RCC_PLLCFGR_PLLP) != RCC_OscInitStruct->PLL.PLLP) ||
 8002304:	68fb      	ldr	r3, [r7, #12]
 8002306:	f403 3240 	and.w	r2, r3, #196608	; 0x30000
 800230a:	687b      	ldr	r3, [r7, #4]
 800230c:	6a9b      	ldr	r3, [r3, #40]	; 0x28
           (READ_BIT(pll_config, RCC_PLLCFGR_PLLN) != RCC_OscInitStruct->PLL.PLLN) ||
 800230e:	429a      	cmp	r2, r3
 8002310:	d106      	bne.n	8002320 <HAL_RCC_OscConfig+0x4c4>
           (READ_BIT(pll_config, RCC_PLLCFGR_PLLQ) != RCC_OscInitStruct->PLL.PLLQ))
 8002312:	68fb      	ldr	r3, [r7, #12]
 8002314:	f003 6270 	and.w	r2, r3, #251658240	; 0xf000000
 8002318:	687b      	ldr	r3, [r7, #4]
 800231a:	6adb      	ldr	r3, [r3, #44]	; 0x2c
           (READ_BIT(pll_config, RCC_PLLCFGR_PLLP) != RCC_OscInitStruct->PLL.PLLP) ||
 800231c:	429a      	cmp	r2, r3
 800231e:	d001      	beq.n	8002324 <HAL_RCC_OscConfig+0x4c8>
        {
          return HAL_ERROR;
 8002320:	2301      	movs	r3, #1
 8002322:	e000      	b.n	8002326 <HAL_RCC_OscConfig+0x4ca>
        }
      }
    }
  }
  return HAL_OK;
 8002324:	2300      	movs	r3, #0
}
 8002326:	4618      	mov	r0, r3
 8002328:	3718      	adds	r7, #24
 800232a:	46bd      	mov	sp, r7
 800232c:	bd80      	pop	{r7, pc}
 800232e:	bf00      	nop
 8002330:	40007000 	.word	0x40007000
 8002334:	40023800 	.word	0x40023800
 8002338:	42470060 	.word	0x42470060

0800233c <HAL_RCC_ClockConfig>:
  *         HPRE[3:0] bits to ensure that HCLK not exceed the maximum allowed frequency
  *         (for more details refer to section above "Initialization/de-initialization functions")
  * @retval None
  */
HAL_StatusTypeDef HAL_RCC_ClockConfig(RCC_ClkInitTypeDef  *RCC_ClkInitStruct, uint32_t FLatency)
{
 800233c:	b580      	push	{r7, lr}
 800233e:	b084      	sub	sp, #16
 8002340:	af00      	add	r7, sp, #0
 8002342:	6078      	str	r0, [r7, #4]
 8002344:	6039      	str	r1, [r7, #0]
  uint32_t tickstart;

  /* Check Null pointer */
  if(RCC_ClkInitStruct == NULL)
 8002346:	687b      	ldr	r3, [r7, #4]
 8002348:	2b00      	cmp	r3, #0
 800234a:	d101      	bne.n	8002350 <HAL_RCC_ClockConfig+0x14>
  {
    return HAL_ERROR;
 800234c:	2301      	movs	r3, #1
 800234e:	e0cc      	b.n	80024ea <HAL_RCC_ClockConfig+0x1ae>
  /* To correctly read data from FLASH memory, the number of wait states (LATENCY)
    must be correctly programmed according to the frequency of the CPU clock
    (HCLK) and the supply voltage of the device. */

  /* Increasing the number of wait states because of higher CPU frequency */
  if(FLatency > __HAL_FLASH_GET_LATENCY())
 8002350:	4b68      	ldr	r3, [pc, #416]	; (80024f4 <HAL_RCC_ClockConfig+0x1b8>)
 8002352:	681b      	ldr	r3, [r3, #0]
 8002354:	f003 030f 	and.w	r3, r3, #15
 8002358:	683a      	ldr	r2, [r7, #0]
 800235a:	429a      	cmp	r2, r3
 800235c:	d90c      	bls.n	8002378 <HAL_RCC_ClockConfig+0x3c>
  {
    /* Program the new number of wait states to the LATENCY bits in the FLASH_ACR register */
    __HAL_FLASH_SET_LATENCY(FLatency);
 800235e:	4b65      	ldr	r3, [pc, #404]	; (80024f4 <HAL_RCC_ClockConfig+0x1b8>)
 8002360:	683a      	ldr	r2, [r7, #0]
 8002362:	b2d2      	uxtb	r2, r2
 8002364:	701a      	strb	r2, [r3, #0]

    /* Check that the new number of wait states is taken into account to access the Flash
    memory by reading the FLASH_ACR register */
    if(__HAL_FLASH_GET_LATENCY() != FLatency)
 8002366:	4b63      	ldr	r3, [pc, #396]	; (80024f4 <HAL_RCC_ClockConfig+0x1b8>)
 8002368:	681b      	ldr	r3, [r3, #0]
 800236a:	f003 030f 	and.w	r3, r3, #15
 800236e:	683a      	ldr	r2, [r7, #0]
 8002370:	429a      	cmp	r2, r3
 8002372:	d001      	beq.n	8002378 <HAL_RCC_ClockConfig+0x3c>
    {
      return HAL_ERROR;
 8002374:	2301      	movs	r3, #1
 8002376:	e0b8      	b.n	80024ea <HAL_RCC_ClockConfig+0x1ae>
    }
  }

  /*-------------------------- HCLK Configuration --------------------------*/
  if(((RCC_ClkInitStruct->ClockType) & RCC_CLOCKTYPE_HCLK) == RCC_CLOCKTYPE_HCLK)
 8002378:	687b      	ldr	r3, [r7, #4]
 800237a:	681b      	ldr	r3, [r3, #0]
 800237c:	f003 0302 	and.w	r3, r3, #2
 8002380:	2b00      	cmp	r3, #0
 8002382:	d020      	beq.n	80023c6 <HAL_RCC_ClockConfig+0x8a>
  {
    /* Set the highest APBx dividers in order to ensure that we do not go through
       a non-spec phase whatever we decrease or increase HCLK. */
    if(((RCC_ClkInitStruct->ClockType) & RCC_CLOCKTYPE_PCLK1) == RCC_CLOCKTYPE_PCLK1)
 8002384:	687b      	ldr	r3, [r7, #4]
 8002386:	681b      	ldr	r3, [r3, #0]
 8002388:	f003 0304 	and.w	r3, r3, #4
 800238c:	2b00      	cmp	r3, #0
 800238e:	d005      	beq.n	800239c <HAL_RCC_ClockConfig+0x60>
    {
      MODIFY_REG(RCC->CFGR, RCC_CFGR_PPRE1, RCC_HCLK_DIV16);
 8002390:	4b59      	ldr	r3, [pc, #356]	; (80024f8 <HAL_RCC_ClockConfig+0x1bc>)
 8002392:	689b      	ldr	r3, [r3, #8]
 8002394:	4a58      	ldr	r2, [pc, #352]	; (80024f8 <HAL_RCC_ClockConfig+0x1bc>)
 8002396:	f443 53e0 	orr.w	r3, r3, #7168	; 0x1c00
 800239a:	6093      	str	r3, [r2, #8]
    }

    if(((RCC_ClkInitStruct->ClockType) & RCC_CLOCKTYPE_PCLK2) == RCC_CLOCKTYPE_PCLK2)
 800239c:	687b      	ldr	r3, [r7, #4]
 800239e:	681b      	ldr	r3, [r3, #0]
 80023a0:	f003 0308 	and.w	r3, r3, #8
 80023a4:	2b00      	cmp	r3, #0
 80023a6:	d005      	beq.n	80023b4 <HAL_RCC_ClockConfig+0x78>
    {
      MODIFY_REG(RCC->CFGR, RCC_CFGR_PPRE2, (RCC_HCLK_DIV16 << 3));
 80023a8:	4b53      	ldr	r3, [pc, #332]	; (80024f8 <HAL_RCC_ClockConfig+0x1bc>)
 80023aa:	689b      	ldr	r3, [r3, #8]
 80023ac:	4a52      	ldr	r2, [pc, #328]	; (80024f8 <HAL_RCC_ClockConfig+0x1bc>)
 80023ae:	f443 4360 	orr.w	r3, r3, #57344	; 0xe000
 80023b2:	6093      	str	r3, [r2, #8]
    }

    assert_param(IS_RCC_HCLK(RCC_ClkInitStruct->AHBCLKDivider));
    MODIFY_REG(RCC->CFGR, RCC_CFGR_HPRE, RCC_ClkInitStruct->AHBCLKDivider);
 80023b4:	4b50      	ldr	r3, [pc, #320]	; (80024f8 <HAL_RCC_ClockConfig+0x1bc>)
 80023b6:	689b      	ldr	r3, [r3, #8]
 80023b8:	f023 02f0 	bic.w	r2, r3, #240	; 0xf0
 80023bc:	687b      	ldr	r3, [r7, #4]
 80023be:	689b      	ldr	r3, [r3, #8]
 80023c0:	494d      	ldr	r1, [pc, #308]	; (80024f8 <HAL_RCC_ClockConfig+0x1bc>)
 80023c2:	4313      	orrs	r3, r2
 80023c4:	608b      	str	r3, [r1, #8]
  }

  /*------------------------- SYSCLK Configuration ---------------------------*/
  if(((RCC_ClkInitStruct->ClockType) & RCC_CLOCKTYPE_SYSCLK) == RCC_CLOCKTYPE_SYSCLK)
 80023c6:	687b      	ldr	r3, [r7, #4]
 80023c8:	681b      	ldr	r3, [r3, #0]
 80023ca:	f003 0301 	and.w	r3, r3, #1
 80023ce:	2b00      	cmp	r3, #0
 80023d0:	d044      	beq.n	800245c <HAL_RCC_ClockConfig+0x120>
  {
    assert_param(IS_RCC_SYSCLKSOURCE(RCC_ClkInitStruct->SYSCLKSource));

    /* HSE is selected as System Clock Source */
    if(RCC_ClkInitStruct->SYSCLKSource == RCC_SYSCLKSOURCE_HSE)
 80023d2:	687b      	ldr	r3, [r7, #4]
 80023d4:	685b      	ldr	r3, [r3, #4]
 80023d6:	2b01      	cmp	r3, #1
 80023d8:	d107      	bne.n	80023ea <HAL_RCC_ClockConfig+0xae>
    {
      /* Check the HSE ready flag */
      if(__HAL_RCC_GET_FLAG(RCC_FLAG_HSERDY) == RESET)
 80023da:	4b47      	ldr	r3, [pc, #284]	; (80024f8 <HAL_RCC_ClockConfig+0x1bc>)
 80023dc:	681b      	ldr	r3, [r3, #0]
 80023de:	f403 3300 	and.w	r3, r3, #131072	; 0x20000
 80023e2:	2b00      	cmp	r3, #0
 80023e4:	d119      	bne.n	800241a <HAL_RCC_ClockConfig+0xde>
      {
        return HAL_ERROR;
 80023e6:	2301      	movs	r3, #1
 80023e8:	e07f      	b.n	80024ea <HAL_RCC_ClockConfig+0x1ae>
      }
    }
    /* PLL is selected as System Clock Source */
    else if((RCC_ClkInitStruct->SYSCLKSource == RCC_SYSCLKSOURCE_PLLCLK)   ||
 80023ea:	687b      	ldr	r3, [r7, #4]
 80023ec:	685b      	ldr	r3, [r3, #4]
 80023ee:	2b02      	cmp	r3, #2
 80023f0:	d003      	beq.n	80023fa <HAL_RCC_ClockConfig+0xbe>
            (RCC_ClkInitStruct->SYSCLKSource == RCC_SYSCLKSOURCE_PLLRCLK))
 80023f2:	687b      	ldr	r3, [r7, #4]
 80023f4:	685b      	ldr	r3, [r3, #4]
    else if((RCC_ClkInitStruct->SYSCLKSource == RCC_SYSCLKSOURCE_PLLCLK)   ||
 80023f6:	2b03      	cmp	r3, #3
 80023f8:	d107      	bne.n	800240a <HAL_RCC_ClockConfig+0xce>
    {
      /* Check the PLL ready flag */
      if(__HAL_RCC_GET_FLAG(RCC_FLAG_PLLRDY) == RESET)
 80023fa:	4b3f      	ldr	r3, [pc, #252]	; (80024f8 <HAL_RCC_ClockConfig+0x1bc>)
 80023fc:	681b      	ldr	r3, [r3, #0]
 80023fe:	f003 7300 	and.w	r3, r3, #33554432	; 0x2000000
 8002402:	2b00      	cmp	r3, #0
 8002404:	d109      	bne.n	800241a <HAL_RCC_ClockConfig+0xde>
      {
        return HAL_ERROR;
 8002406:	2301      	movs	r3, #1
 8002408:	e06f      	b.n	80024ea <HAL_RCC_ClockConfig+0x1ae>
    }
    /* HSI is selected as System Clock Source */
    else
    {
      /* Check the HSI ready flag */
      if(__HAL_RCC_GET_FLAG(RCC_FLAG_HSIRDY) == RESET)
 800240a:	4b3b      	ldr	r3, [pc, #236]	; (80024f8 <HAL_RCC_ClockConfig+0x1bc>)
 800240c:	681b      	ldr	r3, [r3, #0]
 800240e:	f003 0302 	and.w	r3, r3, #2
 8002412:	2b00      	cmp	r3, #0
 8002414:	d101      	bne.n	800241a <HAL_RCC_ClockConfig+0xde>
      {
        return HAL_ERROR;
 8002416:	2301      	movs	r3, #1
 8002418:	e067      	b.n	80024ea <HAL_RCC_ClockConfig+0x1ae>
      }
    }

    __HAL_RCC_SYSCLK_CONFIG(RCC_ClkInitStruct->SYSCLKSource);
 800241a:	4b37      	ldr	r3, [pc, #220]	; (80024f8 <HAL_RCC_ClockConfig+0x1bc>)
 800241c:	689b      	ldr	r3, [r3, #8]
 800241e:	f023 0203 	bic.w	r2, r3, #3
 8002422:	687b      	ldr	r3, [r7, #4]
 8002424:	685b      	ldr	r3, [r3, #4]
 8002426:	4934      	ldr	r1, [pc, #208]	; (80024f8 <HAL_RCC_ClockConfig+0x1bc>)
 8002428:	4313      	orrs	r3, r2
 800242a:	608b      	str	r3, [r1, #8]

    /* Get Start Tick */
    tickstart = HAL_GetTick();
 800242c:	f7ff fa08 	bl	8001840 <HAL_GetTick>
 8002430:	60f8      	str	r0, [r7, #12]

    while (__HAL_RCC_GET_SYSCLK_SOURCE() != (RCC_ClkInitStruct->SYSCLKSource << RCC_CFGR_SWS_Pos))
 8002432:	e00a      	b.n	800244a <HAL_RCC_ClockConfig+0x10e>
    {
      if ((HAL_GetTick() - tickstart) > CLOCKSWITCH_TIMEOUT_VALUE)
 8002434:	f7ff fa04 	bl	8001840 <HAL_GetTick>
 8002438:	4602      	mov	r2, r0
 800243a:	68fb      	ldr	r3, [r7, #12]
 800243c:	1ad3      	subs	r3, r2, r3
 800243e:	f241 3288 	movw	r2, #5000	; 0x1388
 8002442:	4293      	cmp	r3, r2
 8002444:	d901      	bls.n	800244a <HAL_RCC_ClockConfig+0x10e>
      {
        return HAL_TIMEOUT;
 8002446:	2303      	movs	r3, #3
 8002448:	e04f      	b.n	80024ea <HAL_RCC_ClockConfig+0x1ae>
    while (__HAL_RCC_GET_SYSCLK_SOURCE() != (RCC_ClkInitStruct->SYSCLKSource << RCC_CFGR_SWS_Pos))
 800244a:	4b2b      	ldr	r3, [pc, #172]	; (80024f8 <HAL_RCC_ClockConfig+0x1bc>)
 800244c:	689b      	ldr	r3, [r3, #8]
 800244e:	f003 020c 	and.w	r2, r3, #12
 8002452:	687b      	ldr	r3, [r7, #4]
 8002454:	685b      	ldr	r3, [r3, #4]
 8002456:	009b      	lsls	r3, r3, #2
 8002458:	429a      	cmp	r2, r3
 800245a:	d1eb      	bne.n	8002434 <HAL_RCC_ClockConfig+0xf8>
      }
    }
  }

  /* Decreasing the number of wait states because of lower CPU frequency */
  if(FLatency < __HAL_FLASH_GET_LATENCY())
 800245c:	4b25      	ldr	r3, [pc, #148]	; (80024f4 <HAL_RCC_ClockConfig+0x1b8>)
 800245e:	681b      	ldr	r3, [r3, #0]
 8002460:	f003 030f 	and.w	r3, r3, #15
 8002464:	683a      	ldr	r2, [r7, #0]
 8002466:	429a      	cmp	r2, r3
 8002468:	d20c      	bcs.n	8002484 <HAL_RCC_ClockConfig+0x148>
  {
     /* Program the new number of wait states to the LATENCY bits in the FLASH_ACR register */
    __HAL_FLASH_SET_LATENCY(FLatency);
 800246a:	4b22      	ldr	r3, [pc, #136]	; (80024f4 <HAL_RCC_ClockConfig+0x1b8>)
 800246c:	683a      	ldr	r2, [r7, #0]
 800246e:	b2d2      	uxtb	r2, r2
 8002470:	701a      	strb	r2, [r3, #0]

    /* Check that the new number of wait states is taken into account to access the Flash
    memory by reading the FLASH_ACR register */
    if(__HAL_FLASH_GET_LATENCY() != FLatency)
 8002472:	4b20      	ldr	r3, [pc, #128]	; (80024f4 <HAL_RCC_ClockConfig+0x1b8>)
 8002474:	681b      	ldr	r3, [r3, #0]
 8002476:	f003 030f 	and.w	r3, r3, #15
 800247a:	683a      	ldr	r2, [r7, #0]
 800247c:	429a      	cmp	r2, r3
 800247e:	d001      	beq.n	8002484 <HAL_RCC_ClockConfig+0x148>
    {
      return HAL_ERROR;
 8002480:	2301      	movs	r3, #1
 8002482:	e032      	b.n	80024ea <HAL_RCC_ClockConfig+0x1ae>
    }
  }

  /*-------------------------- PCLK1 Configuration ---------------------------*/
