
0014_CAN_LOOPBACK_it.elf:     file format elf32-littlearm

Sections:
Idx Name          Size      VMA       LMA       File off  Algn
  0 .isr_vector   00000188  08000000  08000000  00010000  2**0
                  CONTENTS, ALLOC, LOAD, READONLY, DATA
  1 .text         00003ecc  08000190  08000190  00010190  2**4
                  CONTENTS, ALLOC, LOAD, READONLY, CODE
  2 .rodata       000000d8  0800405c  0800405c  0001405c  2**2
                  CONTENTS, ALLOC, LOAD, READONLY, DATA
  3 .ARM.extab    00000000  08004134  08004134  00020070  2**0
                  CONTENTS
  4 .ARM          00000008  08004134  08004134  00014134  2**2
                  CONTENTS, ALLOC, LOAD, READONLY, DATA
  5 .preinit_array 00000000  0800413c  0800413c  00020070  2**0
                  CONTENTS, ALLOC, LOAD, DATA
  6 .init_array   00000004  0800413c  0800413c  0001413c  2**2
                  CONTENTS, ALLOC, LOAD, DATA
  7 .fini_array   00000004  08004140  08004140  00014140  2**2
                  CONTENTS, ALLOC, LOAD, DATA
  8 .data         00000070  20000000  08004144  00020000  2**2
                  CONTENTS, ALLOC, LOAD, DATA
  9 .bss          00000098  20000070  080041b4  00020070  2**2
                  ALLOC
 10 ._user_heap_stack 00000600  20000108  080041b4  00020108  2**0
                  ALLOC
 11 .ARM.attributes 00000030  00000000  00000000  00020070  2**0
                  CONTENTS, READONLY
 12 .debug_info   0000963f  00000000  00000000  000200a0  2**0
                  CONTENTS, READONLY, DEBUGGING
 13 .debug_abbrev 00001854  00000000  00000000  000296df  2**0
                  CONTENTS, READONLY, DEBUGGING
 14 .debug_aranges 00000840  00000000  00000000  0002af38  2**3
                  CONTENTS, READONLY, DEBUGGING
 15 .debug_ranges 00000778  00000000  00000000  0002b778  2**3
                  CONTENTS, READONLY, DEBUGGING
 16 .debug_macro  00020c02  00000000  00000000  0002bef0  2**0
                  CONTENTS, READONLY, DEBUGGING
 17 .debug_line   00006de2  00000000  00000000  0004caf2  2**0
                  CONTENTS, READONLY, DEBUGGING
 18 .debug_str    000c4b10  00000000  00000000  000538d4  2**0
                  CONTENTS, READONLY, DEBUGGING
 19 .comment      0000007b  00000000  00000000  001183e4  2**0
                  CONTENTS, READONLY
 20 .debug_frame  0000244c  00000000  00000000  00118460  2**2
                  CONTENTS, READONLY, DEBUGGING

Disassembly of section .text:

08000190 <__do_global_dtors_aux>:
 8000190:	b510      	push	{r4, lr}
 8000192:	4c05      	ldr	r4, [pc, #20]	; (80001a8 <__do_global_dtors_aux+0x18>)
 8000194:	7823      	ldrb	r3, [r4, #0]
 8000196:	b933      	cbnz	r3, 80001a6 <__do_global_dtors_aux+0x16>
 8000198:	4b04      	ldr	r3, [pc, #16]	; (80001ac <__do_global_dtors_aux+0x1c>)
 800019a:	b113      	cbz	r3, 80001a2 <__do_global_dtors_aux+0x12>
 800019c:	4804      	ldr	r0, [pc, #16]	; (80001b0 <__do_global_dtors_aux+0x20>)
 800019e:	f3af 8000 	nop.w
 80001a2:	2301      	movs	r3, #1
 80001a4:	7023      	strb	r3, [r4, #0]
 80001a6:	bd10      	pop	{r4, pc}
 80001a8:	20000070 	.word	0x20000070
 80001ac:	00000000 	.word	0x00000000
 80001b0:	08004044 	.word	0x08004044

080001b4 <frame_dummy>:
 80001b4:	b508      	push	{r3, lr}
 80001b6:	4b03      	ldr	r3, [pc, #12]	; (80001c4 <frame_dummy+0x10>)
 80001b8:	b11b      	cbz	r3, 80001c2 <frame_dummy+0xe>
 80001ba:	4903      	ldr	r1, [pc, #12]	; (80001c8 <frame_dummy+0x14>)
 80001bc:	4803      	ldr	r0, [pc, #12]	; (80001cc <frame_dummy+0x18>)
 80001be:	f3af 8000 	nop.w
 80001c2:	bd08      	pop	{r3, pc}
 80001c4:	00000000 	.word	0x00000000
 80001c8:	20000074 	.word	0x20000074
 80001cc:	08004044 	.word	0x08004044

080001d0 <strlen>:
 80001d0:	4603      	mov	r3, r0
 80001d2:	f813 2b01 	ldrb.w	r2, [r3], #1
 80001d6:	2a00      	cmp	r2, #0
 80001d8:	d1fb      	bne.n	80001d2 <strlen+0x2>
 80001da:	1a18      	subs	r0, r3, r0
 80001dc:	3801      	subs	r0, #1
 80001de:	4770      	bx	lr

080001e0 <memchr>:
 80001e0:	f001 01ff 	and.w	r1, r1, #255	; 0xff
 80001e4:	2a10      	cmp	r2, #16
 80001e6:	db2b      	blt.n	8000240 <memchr+0x60>
 80001e8:	f010 0f07 	tst.w	r0, #7
 80001ec:	d008      	beq.n	8000200 <memchr+0x20>
 80001ee:	f810 3b01 	ldrb.w	r3, [r0], #1
 80001f2:	3a01      	subs	r2, #1
 80001f4:	428b      	cmp	r3, r1
 80001f6:	d02d      	beq.n	8000254 <memchr+0x74>
 80001f8:	f010 0f07 	tst.w	r0, #7
 80001fc:	b342      	cbz	r2, 8000250 <memchr+0x70>
 80001fe:	d1f6      	bne.n	80001ee <memchr+0xe>
 8000200:	b4f0      	push	{r4, r5, r6, r7}
 8000202:	ea41 2101 	orr.w	r1, r1, r1, lsl #8
 8000206:	ea41 4101 	orr.w	r1, r1, r1, lsl #16
 800020a:	f022 0407 	bic.w	r4, r2, #7
 800020e:	f07f 0700 	mvns.w	r7, #0
 8000212:	2300      	movs	r3, #0
 8000214:	e8f0 5602 	ldrd	r5, r6, [r0], #8
 8000218:	3c08      	subs	r4, #8
 800021a:	ea85 0501 	eor.w	r5, r5, r1
 800021e:	ea86 0601 	eor.w	r6, r6, r1
 8000222:	fa85 f547 	uadd8	r5, r5, r7
 8000226:	faa3 f587 	sel	r5, r3, r7
 800022a:	fa86 f647 	uadd8	r6, r6, r7
 800022e:	faa5 f687 	sel	r6, r5, r7
 8000232:	b98e      	cbnz	r6, 8000258 <memchr+0x78>
 8000234:	d1ee      	bne.n	8000214 <memchr+0x34>
 8000236:	bcf0      	pop	{r4, r5, r6, r7}
 8000238:	f001 01ff 	and.w	r1, r1, #255	; 0xff
 800023c:	f002 0207 	and.w	r2, r2, #7
 8000240:	b132      	cbz	r2, 8000250 <memchr+0x70>
 8000242:	f810 3b01 	ldrb.w	r3, [r0], #1
 8000246:	3a01      	subs	r2, #1
 8000248:	ea83 0301 	eor.w	r3, r3, r1
 800024c:	b113      	cbz	r3, 8000254 <memchr+0x74>
 800024e:	d1f8      	bne.n	8000242 <memchr+0x62>
 8000250:	2000      	movs	r0, #0
 8000252:	4770      	bx	lr
 8000254:	3801      	subs	r0, #1
 8000256:	4770      	bx	lr
 8000258:	2d00      	cmp	r5, #0
 800025a:	bf06      	itte	eq
 800025c:	4635      	moveq	r5, r6
 800025e:	3803      	subeq	r0, #3
 8000260:	3807      	subne	r0, #7
 8000262:	f015 0f01 	tst.w	r5, #1
 8000266:	d107      	bne.n	8000278 <memchr+0x98>
 8000268:	3001      	adds	r0, #1
 800026a:	f415 7f80 	tst.w	r5, #256	; 0x100
 800026e:	bf02      	ittt	eq
 8000270:	3001      	addeq	r0, #1
 8000272:	f415 3fc0 	tsteq.w	r5, #98304	; 0x18000
 8000276:	3001      	addeq	r0, #1
 8000278:	bcf0      	pop	{r4, r5, r6, r7}
 800027a:	3801      	subs	r0, #1
 800027c:	4770      	bx	lr
 800027e:	bf00      	nop

08000280 <__aeabi_uldivmod>:
 8000280:	b953      	cbnz	r3, 8000298 <__aeabi_uldivmod+0x18>
 8000282:	b94a      	cbnz	r2, 8000298 <__aeabi_uldivmod+0x18>
 8000284:	2900      	cmp	r1, #0
 8000286:	bf08      	it	eq
 8000288:	2800      	cmpeq	r0, #0
 800028a:	bf1c      	itt	ne
 800028c:	f04f 31ff 	movne.w	r1, #4294967295
 8000290:	f04f 30ff 	movne.w	r0, #4294967295
 8000294:	f000 b972 	b.w	800057c <__aeabi_idiv0>
 8000298:	f1ad 0c08 	sub.w	ip, sp, #8
 800029c:	e96d ce04 	strd	ip, lr, [sp, #-16]!
 80002a0:	f000 f806 	bl	80002b0 <__udivmoddi4>
 80002a4:	f8dd e004 	ldr.w	lr, [sp, #4]
 80002a8:	e9dd 2302 	ldrd	r2, r3, [sp, #8]
 80002ac:	b004      	add	sp, #16
 80002ae:	4770      	bx	lr

080002b0 <__udivmoddi4>:
 80002b0:	e92d 47f0 	stmdb	sp!, {r4, r5, r6, r7, r8, r9, sl, lr}
 80002b4:	9e08      	ldr	r6, [sp, #32]
 80002b6:	4604      	mov	r4, r0
 80002b8:	4688      	mov	r8, r1
 80002ba:	2b00      	cmp	r3, #0
 80002bc:	d14b      	bne.n	8000356 <__udivmoddi4+0xa6>
 80002be:	428a      	cmp	r2, r1
 80002c0:	4615      	mov	r5, r2
 80002c2:	d967      	bls.n	8000394 <__udivmoddi4+0xe4>
 80002c4:	fab2 f282 	clz	r2, r2
 80002c8:	b14a      	cbz	r2, 80002de <__udivmoddi4+0x2e>
 80002ca:	f1c2 0720 	rsb	r7, r2, #32
 80002ce:	fa01 f302 	lsl.w	r3, r1, r2
 80002d2:	fa20 f707 	lsr.w	r7, r0, r7
 80002d6:	4095      	lsls	r5, r2
 80002d8:	ea47 0803 	orr.w	r8, r7, r3
 80002dc:	4094      	lsls	r4, r2
 80002de:	ea4f 4e15 	mov.w	lr, r5, lsr #16
 80002e2:	0c23      	lsrs	r3, r4, #16
 80002e4:	fbb8 f7fe 	udiv	r7, r8, lr
 80002e8:	fa1f fc85 	uxth.w	ip, r5
 80002ec:	fb0e 8817 	mls	r8, lr, r7, r8
 80002f0:	ea43 4308 	orr.w	r3, r3, r8, lsl #16
 80002f4:	fb07 f10c 	mul.w	r1, r7, ip
 80002f8:	4299      	cmp	r1, r3
 80002fa:	d909      	bls.n	8000310 <__udivmoddi4+0x60>
 80002fc:	18eb      	adds	r3, r5, r3
 80002fe:	f107 30ff 	add.w	r0, r7, #4294967295
 8000302:	f080 811b 	bcs.w	800053c <__udivmoddi4+0x28c>
 8000306:	4299      	cmp	r1, r3
 8000308:	f240 8118 	bls.w	800053c <__udivmoddi4+0x28c>
 800030c:	3f02      	subs	r7, #2
 800030e:	442b      	add	r3, r5
 8000310:	1a5b      	subs	r3, r3, r1
 8000312:	b2a4      	uxth	r4, r4
 8000314:	fbb3 f0fe 	udiv	r0, r3, lr
 8000318:	fb0e 3310 	mls	r3, lr, r0, r3
 800031c:	ea44 4403 	orr.w	r4, r4, r3, lsl #16
 8000320:	fb00 fc0c 	mul.w	ip, r0, ip
 8000324:	45a4      	cmp	ip, r4
 8000326:	d909      	bls.n	800033c <__udivmoddi4+0x8c>
 8000328:	192c      	adds	r4, r5, r4
 800032a:	f100 33ff 	add.w	r3, r0, #4294967295
 800032e:	f080 8107 	bcs.w	8000540 <__udivmoddi4+0x290>
 8000332:	45a4      	cmp	ip, r4
 8000334:	f240 8104 	bls.w	8000540 <__udivmoddi4+0x290>
 8000338:	3802      	subs	r0, #2
 800033a:	442c      	add	r4, r5
 800033c:	ea40 4007 	orr.w	r0, r0, r7, lsl #16
 8000340:	eba4 040c 	sub.w	r4, r4, ip
 8000344:	2700      	movs	r7, #0
 8000346:	b11e      	cbz	r6, 8000350 <__udivmoddi4+0xa0>
 8000348:	40d4      	lsrs	r4, r2
 800034a:	2300      	movs	r3, #0
 800034c:	e9c6 4300 	strd	r4, r3, [r6]
 8000350:	4639      	mov	r1, r7
 8000352:	e8bd 87f0 	ldmia.w	sp!, {r4, r5, r6, r7, r8, r9, sl, pc}
 8000356:	428b      	cmp	r3, r1
 8000358:	d909      	bls.n	800036e <__udivmoddi4+0xbe>
 800035a:	2e00      	cmp	r6, #0
 800035c:	f000 80eb 	beq.w	8000536 <__udivmoddi4+0x286>
 8000360:	2700      	movs	r7, #0
 8000362:	e9c6 0100 	strd	r0, r1, [r6]
 8000366:	4638      	mov	r0, r7
 8000368:	4639      	mov	r1, r7
 800036a:	e8bd 87f0 	ldmia.w	sp!, {r4, r5, r6, r7, r8, r9, sl, pc}
 800036e:	fab3 f783 	clz	r7, r3
 8000372:	2f00      	cmp	r7, #0
 8000374:	d147      	bne.n	8000406 <__udivmoddi4+0x156>
 8000376:	428b      	cmp	r3, r1
 8000378:	d302      	bcc.n	8000380 <__udivmoddi4+0xd0>
 800037a:	4282      	cmp	r2, r0
 800037c:	f200 80fa 	bhi.w	8000574 <__udivmoddi4+0x2c4>
 8000380:	1a84      	subs	r4, r0, r2
 8000382:	eb61 0303 	sbc.w	r3, r1, r3
 8000386:	2001      	movs	r0, #1
 8000388:	4698      	mov	r8, r3
 800038a:	2e00      	cmp	r6, #0
 800038c:	d0e0      	beq.n	8000350 <__udivmoddi4+0xa0>
 800038e:	e9c6 4800 	strd	r4, r8, [r6]
 8000392:	e7dd      	b.n	8000350 <__udivmoddi4+0xa0>
 8000394:	b902      	cbnz	r2, 8000398 <__udivmoddi4+0xe8>
 8000396:	deff      	udf	#255	; 0xff
 8000398:	fab2 f282 	clz	r2, r2
 800039c:	2a00      	cmp	r2, #0
 800039e:	f040 808f 	bne.w	80004c0 <__udivmoddi4+0x210>
 80003a2:	1b49      	subs	r1, r1, r5
 80003a4:	ea4f 4e15 	mov.w	lr, r5, lsr #16
 80003a8:	fa1f f885 	uxth.w	r8, r5
 80003ac:	2701      	movs	r7, #1
 80003ae:	fbb1 fcfe 	udiv	ip, r1, lr
 80003b2:	0c23      	lsrs	r3, r4, #16
 80003b4:	fb0e 111c 	mls	r1, lr, ip, r1
 80003b8:	ea43 4301 	orr.w	r3, r3, r1, lsl #16
 80003bc:	fb08 f10c 	mul.w	r1, r8, ip
 80003c0:	4299      	cmp	r1, r3
 80003c2:	d907      	bls.n	80003d4 <__udivmoddi4+0x124>
 80003c4:	18eb      	adds	r3, r5, r3
 80003c6:	f10c 30ff 	add.w	r0, ip, #4294967295
 80003ca:	d202      	bcs.n	80003d2 <__udivmoddi4+0x122>
 80003cc:	4299      	cmp	r1, r3
 80003ce:	f200 80cd 	bhi.w	800056c <__udivmoddi4+0x2bc>
 80003d2:	4684      	mov	ip, r0
 80003d4:	1a59      	subs	r1, r3, r1
 80003d6:	b2a3      	uxth	r3, r4
 80003d8:	fbb1 f0fe 	udiv	r0, r1, lr
 80003dc:	fb0e 1410 	mls	r4, lr, r0, r1
 80003e0:	ea43 4404 	orr.w	r4, r3, r4, lsl #16
 80003e4:	fb08 f800 	mul.w	r8, r8, r0
 80003e8:	45a0      	cmp	r8, r4
 80003ea:	d907      	bls.n	80003fc <__udivmoddi4+0x14c>
 80003ec:	192c      	adds	r4, r5, r4
 80003ee:	f100 33ff 	add.w	r3, r0, #4294967295
 80003f2:	d202      	bcs.n	80003fa <__udivmoddi4+0x14a>
 80003f4:	45a0      	cmp	r8, r4
 80003f6:	f200 80b6 	bhi.w	8000566 <__udivmoddi4+0x2b6>
 80003fa:	4618      	mov	r0, r3
 80003fc:	eba4 0408 	sub.w	r4, r4, r8
 8000400:	ea40 400c 	orr.w	r0, r0, ip, lsl #16
 8000404:	e79f      	b.n	8000346 <__udivmoddi4+0x96>
 8000406:	f1c7 0c20 	rsb	ip, r7, #32
 800040a:	40bb      	lsls	r3, r7
 800040c:	fa22 fe0c 	lsr.w	lr, r2, ip
 8000410:	ea4e 0e03 	orr.w	lr, lr, r3
 8000414:	fa01 f407 	lsl.w	r4, r1, r7
 8000418:	fa20 f50c 	lsr.w	r5, r0, ip
 800041c:	fa21 f30c 	lsr.w	r3, r1, ip
 8000420:	ea4f 481e 	mov.w	r8, lr, lsr #16
 8000424:	4325      	orrs	r5, r4
 8000426:	fbb3 f9f8 	udiv	r9, r3, r8
 800042a:	0c2c      	lsrs	r4, r5, #16
 800042c:	fb08 3319 	mls	r3, r8, r9, r3
 8000430:	fa1f fa8e 	uxth.w	sl, lr
 8000434:	ea44 4303 	orr.w	r3, r4, r3, lsl #16
 8000438:	fb09 f40a 	mul.w	r4, r9, sl
 800043c:	429c      	cmp	r4, r3
 800043e:	fa02 f207 	lsl.w	r2, r2, r7
 8000442:	fa00 f107 	lsl.w	r1, r0, r7
 8000446:	d90b      	bls.n	8000460 <__udivmoddi4+0x1b0>
 8000448:	eb1e 0303 	adds.w	r3, lr, r3
 800044c:	f109 30ff 	add.w	r0, r9, #4294967295
 8000450:	f080 8087 	bcs.w	8000562 <__udivmoddi4+0x2b2>
 8000454:	429c      	cmp	r4, r3
 8000456:	f240 8084 	bls.w	8000562 <__udivmoddi4+0x2b2>
 800045a:	f1a9 0902 	sub.w	r9, r9, #2
 800045e:	4473      	add	r3, lr
 8000460:	1b1b      	subs	r3, r3, r4
 8000462:	b2ad      	uxth	r5, r5
 8000464:	fbb3 f0f8 	udiv	r0, r3, r8
 8000468:	fb08 3310 	mls	r3, r8, r0, r3
 800046c:	ea45 4403 	orr.w	r4, r5, r3, lsl #16
 8000470:	fb00 fa0a 	mul.w	sl, r0, sl
 8000474:	45a2      	cmp	sl, r4
 8000476:	d908      	bls.n	800048a <__udivmoddi4+0x1da>
 8000478:	eb1e 0404 	adds.w	r4, lr, r4
 800047c:	f100 33ff 	add.w	r3, r0, #4294967295
 8000480:	d26b      	bcs.n	800055a <__udivmoddi4+0x2aa>
 8000482:	45a2      	cmp	sl, r4
 8000484:	d969      	bls.n	800055a <__udivmoddi4+0x2aa>
 8000486:	3802      	subs	r0, #2
 8000488:	4474      	add	r4, lr
 800048a:	ea40 4009 	orr.w	r0, r0, r9, lsl #16
 800048e:	fba0 8902 	umull	r8, r9, r0, r2
 8000492:	eba4 040a 	sub.w	r4, r4, sl
 8000496:	454c      	cmp	r4, r9
 8000498:	46c2      	mov	sl, r8
 800049a:	464b      	mov	r3, r9
 800049c:	d354      	bcc.n	8000548 <__udivmoddi4+0x298>
 800049e:	d051      	beq.n	8000544 <__udivmoddi4+0x294>
 80004a0:	2e00      	cmp	r6, #0
 80004a2:	d069      	beq.n	8000578 <__udivmoddi4+0x2c8>
 80004a4:	ebb1 050a 	subs.w	r5, r1, sl
 80004a8:	eb64 0403 	sbc.w	r4, r4, r3
 80004ac:	fa04 fc0c 	lsl.w	ip, r4, ip
 80004b0:	40fd      	lsrs	r5, r7
 80004b2:	40fc      	lsrs	r4, r7
 80004b4:	ea4c 0505 	orr.w	r5, ip, r5
 80004b8:	e9c6 5400 	strd	r5, r4, [r6]
 80004bc:	2700      	movs	r7, #0
 80004be:	e747      	b.n	8000350 <__udivmoddi4+0xa0>
 80004c0:	f1c2 0320 	rsb	r3, r2, #32
 80004c4:	fa20 f703 	lsr.w	r7, r0, r3
 80004c8:	4095      	lsls	r5, r2
 80004ca:	fa01 f002 	lsl.w	r0, r1, r2
 80004ce:	fa21 f303 	lsr.w	r3, r1, r3
 80004d2:	ea4f 4e15 	mov.w	lr, r5, lsr #16
 80004d6:	4338      	orrs	r0, r7
 80004d8:	0c01      	lsrs	r1, r0, #16
 80004da:	fbb3 f7fe 	udiv	r7, r3, lr
 80004de:	fa1f f885 	uxth.w	r8, r5
 80004e2:	fb0e 3317 	mls	r3, lr, r7, r3
 80004e6:	ea41 4103 	orr.w	r1, r1, r3, lsl #16
 80004ea:	fb07 f308 	mul.w	r3, r7, r8
 80004ee:	428b      	cmp	r3, r1
 80004f0:	fa04 f402 	lsl.w	r4, r4, r2
 80004f4:	d907      	bls.n	8000506 <__udivmoddi4+0x256>
 80004f6:	1869      	adds	r1, r5, r1
 80004f8:	f107 3cff 	add.w	ip, r7, #4294967295
 80004fc:	d22f      	bcs.n	800055e <__udivmoddi4+0x2ae>
 80004fe:	428b      	cmp	r3, r1
 8000500:	d92d      	bls.n	800055e <__udivmoddi4+0x2ae>
 8000502:	3f02      	subs	r7, #2
 8000504:	4429      	add	r1, r5
 8000506:	1acb      	subs	r3, r1, r3
 8000508:	b281      	uxth	r1, r0
 800050a:	fbb3 f0fe 	udiv	r0, r3, lr
 800050e:	fb0e 3310 	mls	r3, lr, r0, r3
 8000512:	ea41 4103 	orr.w	r1, r1, r3, lsl #16
 8000516:	fb00 f308 	mul.w	r3, r0, r8
 800051a:	428b      	cmp	r3, r1
 800051c:	d907      	bls.n	800052e <__udivmoddi4+0x27e>
 800051e:	1869      	adds	r1, r5, r1
 8000520:	f100 3cff 	add.w	ip, r0, #4294967295
 8000524:	d217      	bcs.n	8000556 <__udivmoddi4+0x2a6>
 8000526:	428b      	cmp	r3, r1
 8000528:	d915      	bls.n	8000556 <__udivmoddi4+0x2a6>
 800052a:	3802      	subs	r0, #2
 800052c:	4429      	add	r1, r5
 800052e:	1ac9      	subs	r1, r1, r3
 8000530:	ea40 4707 	orr.w	r7, r0, r7, lsl #16
 8000534:	e73b      	b.n	80003ae <__udivmoddi4+0xfe>
 8000536:	4637      	mov	r7, r6
 8000538:	4630      	mov	r0, r6
 800053a:	e709      	b.n	8000350 <__udivmoddi4+0xa0>
 800053c:	4607      	mov	r7, r0
 800053e:	e6e7      	b.n	8000310 <__udivmoddi4+0x60>
 8000540:	4618      	mov	r0, r3
 8000542:	e6fb      	b.n	800033c <__udivmoddi4+0x8c>
 8000544:	4541      	cmp	r1, r8
 8000546:	d2ab      	bcs.n	80004a0 <__udivmoddi4+0x1f0>
 8000548:	ebb8 0a02 	subs.w	sl, r8, r2
 800054c:	eb69 020e 	sbc.w	r2, r9, lr
 8000550:	3801      	subs	r0, #1
 8000552:	4613      	mov	r3, r2
 8000554:	e7a4      	b.n	80004a0 <__udivmoddi4+0x1f0>
 8000556:	4660      	mov	r0, ip
 8000558:	e7e9      	b.n	800052e <__udivmoddi4+0x27e>
 800055a:	4618      	mov	r0, r3
 800055c:	e795      	b.n	800048a <__udivmoddi4+0x1da>
 800055e:	4667      	mov	r7, ip
 8000560:	e7d1      	b.n	8000506 <__udivmoddi4+0x256>
 8000562:	4681      	mov	r9, r0
 8000564:	e77c      	b.n	8000460 <__udivmoddi4+0x1b0>
 8000566:	3802      	subs	r0, #2
 8000568:	442c      	add	r4, r5
 800056a:	e747      	b.n	80003fc <__udivmoddi4+0x14c>
 800056c:	f1ac 0c02 	sub.w	ip, ip, #2
 8000570:	442b      	add	r3, r5
 8000572:	e72f      	b.n	80003d4 <__udivmoddi4+0x124>
 8000574:	4638      	mov	r0, r7
 8000576:	e708      	b.n	800038a <__udivmoddi4+0xda>
 8000578:	4637      	mov	r7, r6
 800057a:	e6e9      	b.n	8000350 <__udivmoddi4+0xa0>

0800057c <__aeabi_idiv0>:
 800057c:	4770      	bx	lr
 800057e:	bf00      	nop

08000580 <main>:
/**
  * @brief  The application entry point.
  * @retval int
  */
int main(void)
{
 8000580:	b580      	push	{r7, lr}
 8000582:	af00      	add	r7, sp, #0
  /* USER CODE END 1 */

  /* MCU Configuration--------------------------------------------------------*/

  /* Reset of all peripherals, Initializes the Flash interface and the Systick. */
  HAL_Init();
 8000584:	f000 fc4a 	bl	8000e1c <HAL_Init>
  /* USER CODE BEGIN Init */

  /* USER CODE END Init */

  /* Configure the system clock */
  SystemClock_Config();
 8000588:	f000 f820 	bl	80005cc <SystemClock_Config>
  /* USER CODE BEGIN SysInit */

  /* USER CODE END SysInit */

  /* Initialize all configured peripherals */
  MX_GPIO_Init();
 800058c:	f000 f8ea 	bl	8000764 <MX_GPIO_Init>
  MX_CAN1_Init();
 8000590:	f000 f886 	bl	80006a0 <MX_CAN1_Init>
  MX_USART2_UART_Init();
 8000594:	f000 f8bc 	bl	8000710 <MX_USART2_UART_Init>
  /* move can to normal mode  */
  //ccan filter
  CAN_Filter_Config();
 8000598:	f000 f98c 	bl	80008b4 <CAN_Filter_Config>
  // activate notification
  if (HAL_CAN_ActivateNotification(&hcan1, CAN_IT_TX_MAILBOX_EMPTY |CAN_IT_RX_FIFO0_MSG_PENDING |CAN_IT_BUSOFF )!= HAL_OK)
 800059c:	f240 4103 	movw	r1, #1027	; 0x403
 80005a0:	4809      	ldr	r0, [pc, #36]	; (80005c8 <main+0x48>)
 80005a2:	f001 f8ba 	bl	800171a <HAL_CAN_ActivateNotification>
 80005a6:	4603      	mov	r3, r0
 80005a8:	2b00      	cmp	r3, #0
 80005aa:	d001      	beq.n	80005b0 <main+0x30>
  {
	  Error_Handler();
 80005ac:	f000 f9a8 	bl	8000900 <Error_Handler>
  }
  // can start
  if (HAL_CAN_Start(&hcan1)!= HAL_OK)
 80005b0:	4805      	ldr	r0, [pc, #20]	; (80005c8 <main+0x48>)
 80005b2:	f000 fe81 	bl	80012b8 <HAL_CAN_Start>
 80005b6:	4603      	mov	r3, r0
 80005b8:	2b00      	cmp	r3, #0
 80005ba:	d001      	beq.n	80005c0 <main+0x40>
  {
	  Error_Handler();
 80005bc:	f000 f9a0 	bl	8000900 <Error_Handler>
  }
  /* USER CODE END 2 */

  CAN1_TX();
 80005c0:	f000 f94e 	bl	8000860 <CAN1_TX>
  /* Infinite loop */
  /* USER CODE BEGIN WHILE */

  while (1)
 80005c4:	e7fe      	b.n	80005c4 <main+0x44>
 80005c6:	bf00      	nop
 80005c8:	200000d8 	.word	0x200000d8

080005cc <SystemClock_Config>:
/**
  * @brief System Clock Configuration
  * @retval None
  */
void SystemClock_Config(void)
{
 80005cc:	b580      	push	{r7, lr}
 80005ce:	b094      	sub	sp, #80	; 0x50
 80005d0:	af00      	add	r7, sp, #0
  RCC_OscInitTypeDef RCC_OscInitStruct = {0};
 80005d2:	f107 0320 	add.w	r3, r7, #32
 80005d6:	2230      	movs	r2, #48	; 0x30
 80005d8:	2100      	movs	r1, #0
 80005da:	4618      	mov	r0, r3
 80005dc:	f003 f924 	bl	8003828 <memset>
  RCC_ClkInitTypeDef RCC_ClkInitStruct = {0};
 80005e0:	f107 030c 	add.w	r3, r7, #12
 80005e4:	2200      	movs	r2, #0
 80005e6:	601a      	str	r2, [r3, #0]
 80005e8:	605a      	str	r2, [r3, #4]
 80005ea:	609a      	str	r2, [r3, #8]
 80005ec:	60da      	str	r2, [r3, #12]
 80005ee:	611a      	str	r2, [r3, #16]

  /** Configure the main internal regulator output voltage 
  */
  __HAL_RCC_PWR_CLK_ENABLE();
 80005f0:	2300      	movs	r3, #0
 80005f2:	60bb      	str	r3, [r7, #8]
 80005f4:	4b28      	ldr	r3, [pc, #160]	; (8000698 <SystemClock_Config+0xcc>)
 80005f6:	6c1b      	ldr	r3, [r3, #64]	; 0x40
 80005f8:	4a27      	ldr	r2, [pc, #156]	; (8000698 <SystemClock_Config+0xcc>)
 80005fa:	f043 5380 	orr.w	r3, r3, #268435456	; 0x10000000
 80005fe:	6413      	str	r3, [r2, #64]	; 0x40
 8000600:	4b25      	ldr	r3, [pc, #148]	; (8000698 <SystemClock_Config+0xcc>)
 8000602:	6c1b      	ldr	r3, [r3, #64]	; 0x40
 8000604:	f003 5380 	and.w	r3, r3, #268435456	; 0x10000000
 8000608:	60bb      	str	r3, [r7, #8]
 800060a:	68bb      	ldr	r3, [r7, #8]
  __HAL_PWR_VOLTAGESCALING_CONFIG(PWR_REGULATOR_VOLTAGE_SCALE1);
 800060c:	2300      	movs	r3, #0
 800060e:	607b      	str	r3, [r7, #4]
 8000610:	4b22      	ldr	r3, [pc, #136]	; (800069c <SystemClock_Config+0xd0>)
 8000612:	681b      	ldr	r3, [r3, #0]
 8000614:	4a21      	ldr	r2, [pc, #132]	; (800069c <SystemClock_Config+0xd0>)
 8000616:	f443 4380 	orr.w	r3, r3, #16384	; 0x4000
 800061a:	6013      	str	r3, [r2, #0]
 800061c:	4b1f      	ldr	r3, [pc, #124]	; (800069c <SystemClock_Config+0xd0>)
 800061e:	681b      	ldr	r3, [r3, #0]
 8000620:	f403 4380 	and.w	r3, r3, #16384	; 0x4000
 8000624:	607b      	str	r3, [r7, #4]
 8000626:	687b      	ldr	r3, [r7, #4]
  /** Initializes the CPU, AHB and APB busses clocks 
  */
  RCC_OscInitStruct.OscillatorType = RCC_OSCILLATORTYPE_HSE;
 8000628:	2301      	movs	r3, #1
 800062a:	623b      	str	r3, [r7, #32]
  RCC_OscInitStruct.HSEState = RCC_HSE_ON;
 800062c:	f44f 3380 	mov.w	r3, #65536	; 0x10000
 8000630:	627b      	str	r3, [r7, #36]	; 0x24
  RCC_OscInitStruct.PLL.PLLState = RCC_PLL_ON;
 8000632:	2302      	movs	r3, #2
 8000634:	63bb      	str	r3, [r7, #56]	; 0x38
  RCC_OscInitStruct.PLL.PLLSource = RCC_PLLSOURCE_HSE;
 8000636:	f44f 0380 	mov.w	r3, #4194304	; 0x400000
 800063a:	63fb      	str	r3, [r7, #60]	; 0x3c
  RCC_OscInitStruct.PLL.PLLM = 8;
 800063c:	2308      	movs	r3, #8
 800063e:	643b      	str	r3, [r7, #64]	; 0x40
  RCC_OscInitStruct.PLL.PLLN = 336;
 8000640:	f44f 73a8 	mov.w	r3, #336	; 0x150
 8000644:	647b      	str	r3, [r7, #68]	; 0x44
  RCC_OscInitStruct.PLL.PLLP = RCC_PLLP_DIV2;
 8000646:	2302      	movs	r3, #2
 8000648:	64bb      	str	r3, [r7, #72]	; 0x48
  RCC_OscInitStruct.PLL.PLLQ = 7;
 800064a:	2307      	movs	r3, #7
 800064c:	64fb      	str	r3, [r7, #76]	; 0x4c
  if (HAL_RCC_OscConfig(&RCC_OscInitStruct) != HAL_OK)
 800064e:	f107 0320 	add.w	r3, r7, #32
 8000652:	4618      	mov	r0, r3
 8000654:	f001 fd70 	bl	8002138 <HAL_RCC_OscConfig>
 8000658:	4603      	mov	r3, r0
 800065a:	2b00      	cmp	r3, #0
 800065c:	d001      	beq.n	8000662 <SystemClock_Config+0x96>
  {
    Error_Handler();
 800065e:	f000 f94f 	bl	8000900 <Error_Handler>
  }
  /** Initializes the CPU, AHB and APB busses clocks 
  */
  RCC_ClkInitStruct.ClockType = RCC_CLOCKTYPE_HCLK|RCC_CLOCKTYPE_SYSCLK
 8000662:	230f      	movs	r3, #15
 8000664:	60fb      	str	r3, [r7, #12]
                              |RCC_CLOCKTYPE_PCLK1|RCC_CLOCKTYPE_PCLK2;
  RCC_ClkInitStruct.SYSCLKSource = RCC_SYSCLKSOURCE_PLLCLK;
 8000666:	2302      	movs	r3, #2
 8000668:	613b      	str	r3, [r7, #16]
  RCC_ClkInitStruct.AHBCLKDivider = RCC_SYSCLK_DIV1;
 800066a:	2300      	movs	r3, #0
 800066c:	617b      	str	r3, [r7, #20]
  RCC_ClkInitStruct.APB1CLKDivider = RCC_HCLK_DIV4;
 800066e:	f44f 53a0 	mov.w	r3, #5120	; 0x1400
 8000672:	61bb      	str	r3, [r7, #24]
  RCC_ClkInitStruct.APB2CLKDivider = RCC_HCLK_DIV2;
 8000674:	f44f 5380 	mov.w	r3, #4096	; 0x1000
 8000678:	61fb      	str	r3, [r7, #28]

  if (HAL_RCC_ClockConfig(&RCC_ClkInitStruct, FLASH_LATENCY_5) != HAL_OK)
 800067a:	f107 030c 	add.w	r3, r7, #12
 800067e:	2105      	movs	r1, #5
 8000680:	4618      	mov	r0, r3
 8000682:	f001 ffc9 	bl	8002618 <HAL_RCC_ClockConfig>
 8000686:	4603      	mov	r3, r0
 8000688:	2b00      	cmp	r3, #0
 800068a:	d001      	beq.n	8000690 <SystemClock_Config+0xc4>
  {
    Error_Handler();
 800068c:	f000 f938 	bl	8000900 <Error_Handler>
  }
}
 8000690:	bf00      	nop
 8000692:	3750      	adds	r7, #80	; 0x50
 8000694:	46bd      	mov	sp, r7
 8000696:	bd80      	pop	{r7, pc}
 8000698:	40023800 	.word	0x40023800
 800069c:	40007000 	.word	0x40007000

080006a0 <MX_CAN1_Init>:
  * @brief CAN1 Initialization Function
  * @param None
  * @retval None
  */
static void MX_CAN1_Init(void)
{
 80006a0:	b580      	push	{r7, lr}
 80006a2:	af00      	add	r7, sp, #0
  /* USER CODE END CAN1_Init 0 */

  /* USER CODE BEGIN CAN1_Init 1 */

  /* USER CODE END CAN1_Init 1 */
  hcan1.Instance = CAN1;
 80006a4:	4b18      	ldr	r3, [pc, #96]	; (8000708 <MX_CAN1_Init+0x68>)
 80006a6:	4a19      	ldr	r2, [pc, #100]	; (800070c <MX_CAN1_Init+0x6c>)
 80006a8:	601a      	str	r2, [r3, #0]
  hcan1.Init.Prescaler = 3;
 80006aa:	4b17      	ldr	r3, [pc, #92]	; (8000708 <MX_CAN1_Init+0x68>)
 80006ac:	2203      	movs	r2, #3
 80006ae:	605a      	str	r2, [r3, #4]
  hcan1.Init.Mode = CAN_MODE_LOOPBACK;
 80006b0:	4b15      	ldr	r3, [pc, #84]	; (8000708 <MX_CAN1_Init+0x68>)
 80006b2:	f04f 4280 	mov.w	r2, #1073741824	; 0x40000000
 80006b6:	609a      	str	r2, [r3, #8]
  hcan1.Init.SyncJumpWidth = CAN_SJW_1TQ;
 80006b8:	4b13      	ldr	r3, [pc, #76]	; (8000708 <MX_CAN1_Init+0x68>)
 80006ba:	2200      	movs	r2, #0
 80006bc:	60da      	str	r2, [r3, #12]
  hcan1.Init.TimeSeg1 = CAN_BS1_11TQ;
 80006be:	4b12      	ldr	r3, [pc, #72]	; (8000708 <MX_CAN1_Init+0x68>)
 80006c0:	f44f 2220 	mov.w	r2, #655360	; 0xa0000
 80006c4:	611a      	str	r2, [r3, #16]
  hcan1.Init.TimeSeg2 = CAN_BS2_2TQ;
 80006c6:	4b10      	ldr	r3, [pc, #64]	; (8000708 <MX_CAN1_Init+0x68>)
 80006c8:	f44f 1280 	mov.w	r2, #1048576	; 0x100000
 80006cc:	615a      	str	r2, [r3, #20]
  hcan1.Init.TimeTriggeredMode = DISABLE;
 80006ce:	4b0e      	ldr	r3, [pc, #56]	; (8000708 <MX_CAN1_Init+0x68>)
 80006d0:	2200      	movs	r2, #0
 80006d2:	761a      	strb	r2, [r3, #24]
  hcan1.Init.AutoBusOff = DISABLE;
 80006d4:	4b0c      	ldr	r3, [pc, #48]	; (8000708 <MX_CAN1_Init+0x68>)
 80006d6:	2200      	movs	r2, #0
 80006d8:	765a      	strb	r2, [r3, #25]
  hcan1.Init.AutoWakeUp = DISABLE;
 80006da:	4b0b      	ldr	r3, [pc, #44]	; (8000708 <MX_CAN1_Init+0x68>)
 80006dc:	2200      	movs	r2, #0
 80006de:	769a      	strb	r2, [r3, #26]
  hcan1.Init.AutoRetransmission = ENABLE;
 80006e0:	4b09      	ldr	r3, [pc, #36]	; (8000708 <MX_CAN1_Init+0x68>)
 80006e2:	2201      	movs	r2, #1
 80006e4:	76da      	strb	r2, [r3, #27]
  hcan1.Init.ReceiveFifoLocked = DISABLE;
 80006e6:	4b08      	ldr	r3, [pc, #32]	; (8000708 <MX_CAN1_Init+0x68>)
 80006e8:	2200      	movs	r2, #0
 80006ea:	771a      	strb	r2, [r3, #28]
  hcan1.Init.TransmitFifoPriority = DISABLE;
 80006ec:	4b06      	ldr	r3, [pc, #24]	; (8000708 <MX_CAN1_Init+0x68>)
 80006ee:	2200      	movs	r2, #0
 80006f0:	775a      	strb	r2, [r3, #29]
  if (HAL_CAN_Init(&hcan1) != HAL_OK)
 80006f2:	4805      	ldr	r0, [pc, #20]	; (8000708 <MX_CAN1_Init+0x68>)
 80006f4:	f000 fc04 	bl	8000f00 <HAL_CAN_Init>
 80006f8:	4603      	mov	r3, r0
 80006fa:	2b00      	cmp	r3, #0
 80006fc:	d001      	beq.n	8000702 <MX_CAN1_Init+0x62>
  {
    Error_Handler();
 80006fe:	f000 f8ff 	bl	8000900 <Error_Handler>
  }
  /* USER CODE BEGIN CAN1_Init 2 */

  /* USER CODE END CAN1_Init 2 */

}
 8000702:	bf00      	nop
 8000704:	bd80      	pop	{r7, pc}
 8000706:	bf00      	nop
 8000708:	200000d8 	.word	0x200000d8
 800070c:	40006400 	.word	0x40006400

08000710 <MX_USART2_UART_Init>:
  * @brief USART2 Initialization Function
  * @param None
  * @retval None
  */
static void MX_USART2_UART_Init(void)
{
 8000710:	b580      	push	{r7, lr}
 8000712:	af00      	add	r7, sp, #0
  /* USER CODE END USART2_Init 0 */

  /* USER CODE BEGIN USART2_Init 1 */

  /* USER CODE END USART2_Init 1 */
  huart2.Instance = USART2;
 8000714:	4b11      	ldr	r3, [pc, #68]	; (800075c <MX_USART2_UART_Init+0x4c>)
 8000716:	4a12      	ldr	r2, [pc, #72]	; (8000760 <MX_USART2_UART_Init+0x50>)
 8000718:	601a      	str	r2, [r3, #0]
  huart2.Init.BaudRate = 115200;
 800071a:	4b10      	ldr	r3, [pc, #64]	; (800075c <MX_USART2_UART_Init+0x4c>)
 800071c:	f44f 32e1 	mov.w	r2, #115200	; 0x1c200
 8000720:	605a      	str	r2, [r3, #4]
  huart2.Init.WordLength = UART_WORDLENGTH_8B;
 8000722:	4b0e      	ldr	r3, [pc, #56]	; (800075c <MX_USART2_UART_Init+0x4c>)
 8000724:	2200      	movs	r2, #0
 8000726:	609a      	str	r2, [r3, #8]
  huart2.Init.StopBits = UART_STOPBITS_1;
 8000728:	4b0c      	ldr	r3, [pc, #48]	; (800075c <MX_USART2_UART_Init+0x4c>)
 800072a:	2200      	movs	r2, #0
 800072c:	60da      	str	r2, [r3, #12]
  huart2.Init.Parity = UART_PARITY_NONE;
 800072e:	4b0b      	ldr	r3, [pc, #44]	; (800075c <MX_USART2_UART_Init+0x4c>)
 8000730:	2200      	movs	r2, #0
 8000732:	611a      	str	r2, [r3, #16]
  huart2.Init.Mode = UART_MODE_TX_RX;
 8000734:	4b09      	ldr	r3, [pc, #36]	; (800075c <MX_USART2_UART_Init+0x4c>)
 8000736:	220c      	movs	r2, #12
 8000738:	615a      	str	r2, [r3, #20]
  huart2.Init.HwFlowCtl = UART_HWCONTROL_NONE;
 800073a:	4b08      	ldr	r3, [pc, #32]	; (800075c <MX_USART2_UART_Init+0x4c>)
 800073c:	2200      	movs	r2, #0
 800073e:	619a      	str	r2, [r3, #24]
  huart2.Init.OverSampling = UART_OVERSAMPLING_16;
 8000740:	4b06      	ldr	r3, [pc, #24]	; (800075c <MX_USART2_UART_Init+0x4c>)
 8000742:	2200      	movs	r2, #0
 8000744:	61da      	str	r2, [r3, #28]
  if (HAL_UART_Init(&huart2) != HAL_OK)
 8000746:	4805      	ldr	r0, [pc, #20]	; (800075c <MX_USART2_UART_Init+0x4c>)
 8000748:	f002 f958 	bl	80029fc <HAL_UART_Init>
 800074c:	4603      	mov	r3, r0
 800074e:	2b00      	cmp	r3, #0
 8000750:	d001      	beq.n	8000756 <MX_USART2_UART_Init+0x46>
  {
    Error_Handler();
 8000752:	f000 f8d5 	bl	8000900 <Error_Handler>
  }
  /* USER CODE BEGIN USART2_Init 2 */

  /* USER CODE END USART2_Init 2 */

}
 8000756:	bf00      	nop
 8000758:	bd80      	pop	{r7, pc}
 800075a:	bf00      	nop
 800075c:	20000098 	.word	0x20000098
 8000760:	40004400 	.word	0x40004400

08000764 <MX_GPIO_Init>:
  * @brief GPIO Initialization Function
  * @param None
  * @retval None
  */
static void MX_GPIO_Init(void)
{
 8000764:	b580      	push	{r7, lr}
 8000766:	b08a      	sub	sp, #40	; 0x28
 8000768:	af00      	add	r7, sp, #0
  GPIO_InitTypeDef GPIO_InitStruct = {0};
 800076a:	f107 0314 	add.w	r3, r7, #20
 800076e:	2200      	movs	r2, #0
 8000770:	601a      	str	r2, [r3, #0]
 8000772:	605a      	str	r2, [r3, #4]
 8000774:	609a      	str	r2, [r3, #8]
 8000776:	60da      	str	r2, [r3, #12]
 8000778:	611a      	str	r2, [r3, #16]

  /* GPIO Ports Clock Enable */
  __HAL_RCC_GPIOH_CLK_ENABLE();
 800077a:	2300      	movs	r3, #0
 800077c:	613b      	str	r3, [r7, #16]
 800077e:	4b33      	ldr	r3, [pc, #204]	; (800084c <MX_GPIO_Init+0xe8>)
 8000780:	6b1b      	ldr	r3, [r3, #48]	; 0x30
 8000782:	4a32      	ldr	r2, [pc, #200]	; (800084c <MX_GPIO_Init+0xe8>)
 8000784:	f043 0380 	orr.w	r3, r3, #128	; 0x80
 8000788:	6313      	str	r3, [r2, #48]	; 0x30
 800078a:	4b30      	ldr	r3, [pc, #192]	; (800084c <MX_GPIO_Init+0xe8>)
 800078c:	6b1b      	ldr	r3, [r3, #48]	; 0x30
 800078e:	f003 0380 	and.w	r3, r3, #128	; 0x80
 8000792:	613b      	str	r3, [r7, #16]
 8000794:	693b      	ldr	r3, [r7, #16]
  __HAL_RCC_GPIOA_CLK_ENABLE();
 8000796:	2300      	movs	r3, #0
 8000798:	60fb      	str	r3, [r7, #12]
 800079a:	4b2c      	ldr	r3, [pc, #176]	; (800084c <MX_GPIO_Init+0xe8>)
 800079c:	6b1b      	ldr	r3, [r3, #48]	; 0x30
 800079e:	4a2b      	ldr	r2, [pc, #172]	; (800084c <MX_GPIO_Init+0xe8>)
 80007a0:	f043 0301 	orr.w	r3, r3, #1
 80007a4:	6313      	str	r3, [r2, #48]	; 0x30
 80007a6:	4b29      	ldr	r3, [pc, #164]	; (800084c <MX_GPIO_Init+0xe8>)
 80007a8:	6b1b      	ldr	r3, [r3, #48]	; 0x30
 80007aa:	f003 0301 	and.w	r3, r3, #1
 80007ae:	60fb      	str	r3, [r7, #12]
 80007b0:	68fb      	ldr	r3, [r7, #12]
  __HAL_RCC_GPIOB_CLK_ENABLE();
 80007b2:	2300      	movs	r3, #0
 80007b4:	60bb      	str	r3, [r7, #8]
 80007b6:	4b25      	ldr	r3, [pc, #148]	; (800084c <MX_GPIO_Init+0xe8>)
 80007b8:	6b1b      	ldr	r3, [r3, #48]	; 0x30
 80007ba:	4a24      	ldr	r2, [pc, #144]	; (800084c <MX_GPIO_Init+0xe8>)
 80007bc:	f043 0302 	orr.w	r3, r3, #2
 80007c0:	6313      	str	r3, [r2, #48]	; 0x30
 80007c2:	4b22      	ldr	r3, [pc, #136]	; (800084c <MX_GPIO_Init+0xe8>)
 80007c4:	6b1b      	ldr	r3, [r3, #48]	; 0x30
 80007c6:	f003 0302 	and.w	r3, r3, #2
 80007ca:	60bb      	str	r3, [r7, #8]
 80007cc:	68bb      	ldr	r3, [r7, #8]
  __HAL_RCC_GPIOD_CLK_ENABLE();
 80007ce:	2300      	movs	r3, #0
 80007d0:	607b      	str	r3, [r7, #4]
 80007d2:	4b1e      	ldr	r3, [pc, #120]	; (800084c <MX_GPIO_Init+0xe8>)
 80007d4:	6b1b      	ldr	r3, [r3, #48]	; 0x30
 80007d6:	4a1d      	ldr	r2, [pc, #116]	; (800084c <MX_GPIO_Init+0xe8>)
 80007d8:	f043 0308 	orr.w	r3, r3, #8
 80007dc:	6313      	str	r3, [r2, #48]	; 0x30
 80007de:	4b1b      	ldr	r3, [pc, #108]	; (800084c <MX_GPIO_Init+0xe8>)
 80007e0:	6b1b      	ldr	r3, [r3, #48]	; 0x30
 80007e2:	f003 0308 	and.w	r3, r3, #8
 80007e6:	607b      	str	r3, [r7, #4]
 80007e8:	687b      	ldr	r3, [r7, #4]

  /*Configure GPIO pin Output Level */
  HAL_GPIO_WritePin(GPIOD, LD4_Pin|LD3_Pin|LD5_Pin|LD6_Pin, GPIO_PIN_RESET);
 80007ea:	2200      	movs	r2, #0
 80007ec:	f44f 4170 	mov.w	r1, #61440	; 0xf000
 80007f0:	4817      	ldr	r0, [pc, #92]	; (8000850 <MX_GPIO_Init+0xec>)
 80007f2:	f001 fc87 	bl	8002104 <HAL_GPIO_WritePin>

  /*Configure GPIO pin : B1_Pin */
  GPIO_InitStruct.Pin = B1_Pin;
 80007f6:	2301      	movs	r3, #1
 80007f8:	617b      	str	r3, [r7, #20]
  GPIO_InitStruct.Mode = GPIO_MODE_EVT_RISING;
 80007fa:	4b16      	ldr	r3, [pc, #88]	; (8000854 <MX_GPIO_Init+0xf0>)
 80007fc:	61bb      	str	r3, [r7, #24]
  GPIO_InitStruct.Pull = GPIO_NOPULL;
 80007fe:	2300      	movs	r3, #0
 8000800:	61fb      	str	r3, [r7, #28]
  HAL_GPIO_Init(B1_GPIO_Port, &GPIO_InitStruct);
 8000802:	f107 0314 	add.w	r3, r7, #20
 8000806:	4619      	mov	r1, r3
 8000808:	4813      	ldr	r0, [pc, #76]	; (8000858 <MX_GPIO_Init+0xf4>)
 800080a:	f001 fae1 	bl	8001dd0 <HAL_GPIO_Init>

  /*Configure GPIO pin : BOOT1_Pin */
  GPIO_InitStruct.Pin = BOOT1_Pin;
 800080e:	2304      	movs	r3, #4
 8000810:	617b      	str	r3, [r7, #20]
  GPIO_InitStruct.Mode = GPIO_MODE_INPUT;
 8000812:	2300      	movs	r3, #0
 8000814:	61bb      	str	r3, [r7, #24]
  GPIO_InitStruct.Pull = GPIO_NOPULL;
 8000816:	2300      	movs	r3, #0
 8000818:	61fb      	str	r3, [r7, #28]
  HAL_GPIO_Init(BOOT1_GPIO_Port, &GPIO_InitStruct);
 800081a:	f107 0314 	add.w	r3, r7, #20
 800081e:	4619      	mov	r1, r3
 8000820:	480e      	ldr	r0, [pc, #56]	; (800085c <MX_GPIO_Init+0xf8>)
 8000822:	f001 fad5 	bl	8001dd0 <HAL_GPIO_Init>

  /*Configure GPIO pins : LD4_Pin LD3_Pin LD5_Pin LD6_Pin */
  GPIO_InitStruct.Pin = LD4_Pin|LD3_Pin|LD5_Pin|LD6_Pin;
 8000826:	f44f 4370 	mov.w	r3, #61440	; 0xf000
 800082a:	617b      	str	r3, [r7, #20]
  GPIO_InitStruct.Mode = GPIO_MODE_OUTPUT_PP;
 800082c:	2301      	movs	r3, #1
 800082e:	61bb      	str	r3, [r7, #24]
  GPIO_InitStruct.Pull = GPIO_NOPULL;
 8000830:	2300      	movs	r3, #0
 8000832:	61fb      	str	r3, [r7, #28]
  GPIO_InitStruct.Speed = GPIO_SPEED_FREQ_LOW;
 8000834:	2300      	movs	r3, #0
 8000836:	623b      	str	r3, [r7, #32]
  HAL_GPIO_Init(GPIOD, &GPIO_InitStruct);
 8000838:	f107 0314 	add.w	r3, r7, #20
 800083c:	4619      	mov	r1, r3
 800083e:	4804      	ldr	r0, [pc, #16]	; (8000850 <MX_GPIO_Init+0xec>)
 8000840:	f001 fac6 	bl	8001dd0 <HAL_GPIO_Init>

}
 8000844:	bf00      	nop
 8000846:	3728      	adds	r7, #40	; 0x28
 8000848:	46bd      	mov	sp, r7
 800084a:	bd80      	pop	{r7, pc}
 800084c:	40023800 	.word	0x40023800
 8000850:	40020c00 	.word	0x40020c00
 8000854:	10120000 	.word	0x10120000
 8000858:	40020000 	.word	0x40020000
 800085c:	40020400 	.word	0x40020400

08000860 <CAN1_TX>:

/* USER CODE BEGIN 4 */

/* USER CODE END 4 */
void CAN1_TX(void)
{
 8000860:	b580      	push	{r7, lr}
 8000862:	b08a      	sub	sp, #40	; 0x28
 8000864:	af00      	add	r7, sp, #0
	CAN_TxHeaderTypeDef TxHeader;
	TxHeader.DLC   =5;
 8000866:	2305      	movs	r3, #5
 8000868:	623b      	str	r3, [r7, #32]
	TxHeader.StdId =0x65D;
 800086a:	f240 635d 	movw	r3, #1629	; 0x65d
 800086e:	613b      	str	r3, [r7, #16]
	TxHeader.IDE   =CAN_ID_STD;
 8000870:	2300      	movs	r3, #0
 8000872:	61bb      	str	r3, [r7, #24]
	TxHeader.RTR   =CAN_RTR_DATA ;
 8000874:	2300      	movs	r3, #0
 8000876:	61fb      	str	r3, [r7, #28]

	//message
	uint8_t our_msg[5]="HELLO";
 8000878:	4a0c      	ldr	r2, [pc, #48]	; (80008ac <CAN1_TX+0x4c>)
 800087a:	f107 0308 	add.w	r3, r7, #8
 800087e:	e892 0003 	ldmia.w	r2, {r0, r1}
 8000882:	6018      	str	r0, [r3, #0]
 8000884:	3304      	adds	r3, #4
 8000886:	7019      	strb	r1, [r3, #0]
	uint32_t TxMailbox;

	if (HAL_CAN_AddTxMessage(&hcan1, &TxHeader, our_msg, &TxMailbox) != HAL_OK)
 8000888:	1d3b      	adds	r3, r7, #4
 800088a:	f107 0208 	add.w	r2, r7, #8
 800088e:	f107 0110 	add.w	r1, r7, #16
 8000892:	4807      	ldr	r0, [pc, #28]	; (80008b0 <CAN1_TX+0x50>)
 8000894:	f000 fd54 	bl	8001340 <HAL_CAN_AddTxMessage>
 8000898:	4603      	mov	r3, r0
 800089a:	2b00      	cmp	r3, #0
 800089c:	d001      	beq.n	80008a2 <CAN1_TX+0x42>
	{
		Error_Handler();
 800089e:	f000 f82f 	bl	8000900 <Error_Handler>
	}


}
 80008a2:	bf00      	nop
 80008a4:	3728      	adds	r7, #40	; 0x28
 80008a6:	46bd      	mov	sp, r7
 80008a8:	bd80      	pop	{r7, pc}
 80008aa:	bf00      	nop
 80008ac:	0800405c 	.word	0x0800405c
 80008b0:	200000d8 	.word	0x200000d8

080008b4 <CAN_Filter_Config>:

void  CAN_Filter_Config(void)
{
 80008b4:	b580      	push	{r7, lr}
 80008b6:	b08a      	sub	sp, #40	; 0x28
 80008b8:	af00      	add	r7, sp, #0
	//can filter configuration
	CAN_FilterTypeDef can1_filter_init;
	can1_filter_init.FilterActivation     = ENABLE;
 80008ba:	2301      	movs	r3, #1
 80008bc:	623b      	str	r3, [r7, #32]
	can1_filter_init.FilterBank           = 0;
 80008be:	2300      	movs	r3, #0
 80008c0:	617b      	str	r3, [r7, #20]
	can1_filter_init.FilterMode           = CAN_FILTERMODE_IDMASK;
 80008c2:	2300      	movs	r3, #0
 80008c4:	61bb      	str	r3, [r7, #24]
	can1_filter_init.FilterFIFOAssignment = CAN_RX_FIFO0;
 80008c6:	2300      	movs	r3, #0
 80008c8:	613b      	str	r3, [r7, #16]
	can1_filter_init.FilterIdHigh         = 0x0000;
 80008ca:	2300      	movs	r3, #0
 80008cc:	603b      	str	r3, [r7, #0]
	can1_filter_init.FilterIdHigh         = 0x0000;
 80008ce:	2300      	movs	r3, #0
 80008d0:	603b      	str	r3, [r7, #0]
	can1_filter_init.FilterMaskIdHigh     = 0x0000;
 80008d2:	2300      	movs	r3, #0
 80008d4:	60bb      	str	r3, [r7, #8]
	can1_filter_init.FilterMaskIdLow      = 0x0000;
 80008d6:	2300      	movs	r3, #0
 80008d8:	60fb      	str	r3, [r7, #12]
	can1_filter_init.FilterScale          = CAN_FILTERSCALE_32BIT;
 80008da:	2301      	movs	r3, #1
 80008dc:	61fb      	str	r3, [r7, #28]

	if (HAL_CAN_ConfigFilter(&hcan1, &can1_filter_init) != HAL_OK)
 80008de:	463b      	mov	r3, r7
 80008e0:	4619      	mov	r1, r3
 80008e2:	4806      	ldr	r0, [pc, #24]	; (80008fc <CAN_Filter_Config+0x48>)
 80008e4:	f000 fc08 	bl	80010f8 <HAL_CAN_ConfigFilter>
 80008e8:	4603      	mov	r3, r0
 80008ea:	2b00      	cmp	r3, #0
 80008ec:	d001      	beq.n	80008f2 <CAN_Filter_Config+0x3e>
	{
		Error_Handler();
 80008ee:	f000 f807 	bl	8000900 <Error_Handler>
	}
}
 80008f2:	bf00      	nop
 80008f4:	3728      	adds	r7, #40	; 0x28
 80008f6:	46bd      	mov	sp, r7
 80008f8:	bd80      	pop	{r7, pc}
 80008fa:	bf00      	nop
 80008fc:	200000d8 	.word	0x200000d8

08000900 <Error_Handler>:


void Error_Handler(void)
{
 8000900:	b480      	push	{r7}
 8000902:	af00      	add	r7, sp, #0
  /* USER CODE BEGIN Error_Handler_Debug */
  /* User can add his own implementation to report the HAL error return state */

  /* USER CODE END Error_Handler_Debug */
}
 8000904:	bf00      	nop
 8000906:	46bd      	mov	sp, r7
 8000908:	f85d 7b04 	ldr.w	r7, [sp], #4
 800090c:	4770      	bx	lr
	...

08000910 <HAL_CAN_TxMailbox0CompleteCallback>:


//call back

void HAL_CAN_TxMailbox0CompleteCallback(CAN_HandleTypeDef *hcan)
{
 8000910:	b5b0      	push	{r4, r5, r7, lr}
 8000912:	b090      	sub	sp, #64	; 0x40
 8000914:	af00      	add	r7, sp, #0
 8000916:	6078      	str	r0, [r7, #4]
	char msg[50];
	sprintf(msg,"Message Transmitted :M0\r\n");
 8000918:	f107 030c 	add.w	r3, r7, #12
 800091c:	4a0d      	ldr	r2, [pc, #52]	; (8000954 <HAL_CAN_TxMailbox0CompleteCallback+0x44>)
 800091e:	461c      	mov	r4, r3
 8000920:	4615      	mov	r5, r2
 8000922:	cd0f      	ldmia	r5!, {r0, r1, r2, r3}
 8000924:	c40f      	stmia	r4!, {r0, r1, r2, r3}
 8000926:	e895 0007 	ldmia.w	r5, {r0, r1, r2}
 800092a:	c403      	stmia	r4!, {r0, r1}
 800092c:	8022      	strh	r2, [r4, #0]
	HAL_UART_Transmit(&huart2, (uint8_t *)msg, strlen(msg), HAL_MAX_DELAY);
 800092e:	f107 030c 	add.w	r3, r7, #12
 8000932:	4618      	mov	r0, r3
 8000934:	f7ff fc4c 	bl	80001d0 <strlen>
 8000938:	4603      	mov	r3, r0
 800093a:	b29a      	uxth	r2, r3
 800093c:	f107 010c 	add.w	r1, r7, #12
 8000940:	f04f 33ff 	mov.w	r3, #4294967295
 8000944:	4804      	ldr	r0, [pc, #16]	; (8000958 <HAL_CAN_TxMailbox0CompleteCallback+0x48>)
 8000946:	f002 f8a6 	bl	8002a96 <HAL_UART_Transmit>

}
 800094a:	bf00      	nop
 800094c:	3740      	adds	r7, #64	; 0x40
 800094e:	46bd      	mov	sp, r7
 8000950:	bdb0      	pop	{r4, r5, r7, pc}
 8000952:	bf00      	nop
 8000954:	08004064 	.word	0x08004064
 8000958:	20000098 	.word	0x20000098

0800095c <HAL_CAN_TxMailbox1CompleteCallback>:
void HAL_CAN_TxMailbox1CompleteCallback(CAN_HandleTypeDef *hcan)
{
 800095c:	b5b0      	push	{r4, r5, r7, lr}
 800095e:	b090      	sub	sp, #64	; 0x40
 8000960:	af00      	add	r7, sp, #0
 8000962:	6078      	str	r0, [r7, #4]
	char msg[50];
	sprintf(msg,"Message Transmitted :M1\r\n");
 8000964:	f107 030c 	add.w	r3, r7, #12
 8000968:	4a0d      	ldr	r2, [pc, #52]	; (80009a0 <HAL_CAN_TxMailbox1CompleteCallback+0x44>)
 800096a:	461c      	mov	r4, r3
 800096c:	4615      	mov	r5, r2
 800096e:	cd0f      	ldmia	r5!, {r0, r1, r2, r3}
 8000970:	c40f      	stmia	r4!, {r0, r1, r2, r3}
 8000972:	e895 0007 	ldmia.w	r5, {r0, r1, r2}
 8000976:	c403      	stmia	r4!, {r0, r1}
 8000978:	8022      	strh	r2, [r4, #0]
	HAL_UART_Transmit(&huart2, (uint8_t *)msg, strlen(msg), HAL_MAX_DELAY);
 800097a:	f107 030c 	add.w	r3, r7, #12
 800097e:	4618      	mov	r0, r3
 8000980:	f7ff fc26 	bl	80001d0 <strlen>
 8000984:	4603      	mov	r3, r0
 8000986:	b29a      	uxth	r2, r3
 8000988:	f107 010c 	add.w	r1, r7, #12
 800098c:	f04f 33ff 	mov.w	r3, #4294967295
 8000990:	4804      	ldr	r0, [pc, #16]	; (80009a4 <HAL_CAN_TxMailbox1CompleteCallback+0x48>)
 8000992:	f002 f880 	bl	8002a96 <HAL_UART_Transmit>

}
 8000996:	bf00      	nop
 8000998:	3740      	adds	r7, #64	; 0x40
 800099a:	46bd      	mov	sp, r7
 800099c:	bdb0      	pop	{r4, r5, r7, pc}
 800099e:	bf00      	nop
 80009a0:	08004080 	.word	0x08004080
 80009a4:	20000098 	.word	0x20000098

080009a8 <HAL_CAN_TxMailbox2CompleteCallback>:
void HAL_CAN_TxMailbox2CompleteCallback(CAN_HandleTypeDef *hcan)
{
 80009a8:	b5b0      	push	{r4, r5, r7, lr}
 80009aa:	b090      	sub	sp, #64	; 0x40
 80009ac:	af00      	add	r7, sp, #0
 80009ae:	6078      	str	r0, [r7, #4]
	char msg[50];
	sprintf(msg,"Message Transmitted :M\r\n");
 80009b0:	f107 030c 	add.w	r3, r7, #12
 80009b4:	4a0d      	ldr	r2, [pc, #52]	; (80009ec <HAL_CAN_TxMailbox2CompleteCallback+0x44>)
 80009b6:	461c      	mov	r4, r3
 80009b8:	4615      	mov	r5, r2
 80009ba:	cd0f      	ldmia	r5!, {r0, r1, r2, r3}
 80009bc:	c40f      	stmia	r4!, {r0, r1, r2, r3}
 80009be:	e895 0007 	ldmia.w	r5, {r0, r1, r2}
 80009c2:	c403      	stmia	r4!, {r0, r1}
 80009c4:	7022      	strb	r2, [r4, #0]
	HAL_UART_Transmit(&huart2, (uint8_t *)msg, strlen(msg), HAL_MAX_DELAY);
 80009c6:	f107 030c 	add.w	r3, r7, #12
 80009ca:	4618      	mov	r0, r3
 80009cc:	f7ff fc00 	bl	80001d0 <strlen>
 80009d0:	4603      	mov	r3, r0
 80009d2:	b29a      	uxth	r2, r3
 80009d4:	f107 010c 	add.w	r1, r7, #12
 80009d8:	f04f 33ff 	mov.w	r3, #4294967295
 80009dc:	4804      	ldr	r0, [pc, #16]	; (80009f0 <HAL_CAN_TxMailbox2CompleteCallback+0x48>)
 80009de:	f002 f85a 	bl	8002a96 <HAL_UART_Transmit>

}
 80009e2:	bf00      	nop
 80009e4:	3740      	adds	r7, #64	; 0x40
 80009e6:	46bd      	mov	sp, r7
 80009e8:	bdb0      	pop	{r4, r5, r7, pc}
 80009ea:	bf00      	nop
 80009ec:	0800409c 	.word	0x0800409c
 80009f0:	20000098 	.word	0x20000098

080009f4 <HAL_CAN_RxFifo0MsgPendingCallback>:
void HAL_CAN_RxFifo0MsgPendingCallback(CAN_HandleTypeDef *hcan)
{
 80009f4:	b580      	push	{r7, lr}
 80009f6:	b098      	sub	sp, #96	; 0x60
 80009f8:	af00      	add	r7, sp, #0
 80009fa:	6078      	str	r0, [r7, #4]
	CAN_RxHeaderTypeDef RxHeader;
	uint8_t rcvd_msg[5];
	char msg[50];


	if (HAL_CAN_GetRxMessage(&hcan1, CAN_RX_FIFO0, &RxHeader, rcvd_msg) != HAL_OK)
 80009fc:	f107 033c 	add.w	r3, r7, #60	; 0x3c
 8000a00:	f107 0244 	add.w	r2, r7, #68	; 0x44
 8000a04:	2100      	movs	r1, #0
 8000a06:	4811      	ldr	r0, [pc, #68]	; (8000a4c <HAL_CAN_RxFifo0MsgPendingCallback+0x58>)
 8000a08:	f000 fd75 	bl	80014f6 <HAL_CAN_GetRxMessage>
 8000a0c:	4603      	mov	r3, r0
 8000a0e:	2b00      	cmp	r3, #0
 8000a10:	d001      	beq.n	8000a16 <HAL_CAN_RxFifo0MsgPendingCallback+0x22>
	{
		Error_Handler();
 8000a12:	f7ff ff75 	bl	8000900 <Error_Handler>
	}
	sprintf(msg,"Message RECEIVED : %s\r\n",rcvd_msg);
 8000a16:	f107 023c 	add.w	r2, r7, #60	; 0x3c
 8000a1a:	f107 0308 	add.w	r3, r7, #8
 8000a1e:	490c      	ldr	r1, [pc, #48]	; (8000a50 <HAL_CAN_RxFifo0MsgPendingCallback+0x5c>)
 8000a20:	4618      	mov	r0, r3
 8000a22:	f002 ff09 	bl	8003838 <siprintf>
	HAL_UART_Transmit(&huart2, (uint8_t *)msg, strlen(msg), HAL_MAX_DELAY);
 8000a26:	f107 0308 	add.w	r3, r7, #8
 8000a2a:	4618      	mov	r0, r3
 8000a2c:	f7ff fbd0 	bl	80001d0 <strlen>
 8000a30:	4603      	mov	r3, r0
 8000a32:	b29a      	uxth	r2, r3
 8000a34:	f107 0108 	add.w	r1, r7, #8
 8000a38:	f04f 33ff 	mov.w	r3, #4294967295
 8000a3c:	4805      	ldr	r0, [pc, #20]	; (8000a54 <HAL_CAN_RxFifo0MsgPendingCallback+0x60>)
 8000a3e:	f002 f82a 	bl	8002a96 <HAL_UART_Transmit>

}
 8000a42:	bf00      	nop
 8000a44:	3760      	adds	r7, #96	; 0x60
 8000a46:	46bd      	mov	sp, r7
 8000a48:	bd80      	pop	{r7, pc}
 8000a4a:	bf00      	nop
 8000a4c:	200000d8 	.word	0x200000d8
 8000a50:	080040b8 	.word	0x080040b8
 8000a54:	20000098 	.word	0x20000098

08000a58 <HAL_CAN_ErrorCallback>:
void HAL_CAN_ErrorCallback(CAN_HandleTypeDef *hcan)
{
 8000a58:	b5b0      	push	{r4, r5, r7, lr}
 8000a5a:	b090      	sub	sp, #64	; 0x40
 8000a5c:	af00      	add	r7, sp, #0
 8000a5e:	6078      	str	r0, [r7, #4]
	char msg[50];
	sprintf(msg,"CAN Error Detected\r\n");
 8000a60:	f107 030c 	add.w	r3, r7, #12
 8000a64:	4a0d      	ldr	r2, [pc, #52]	; (8000a9c <HAL_CAN_ErrorCallback+0x44>)
 8000a66:	461c      	mov	r4, r3
 8000a68:	4615      	mov	r5, r2
 8000a6a:	cd0f      	ldmia	r5!, {r0, r1, r2, r3}
 8000a6c:	c40f      	stmia	r4!, {r0, r1, r2, r3}
 8000a6e:	e895 0003 	ldmia.w	r5, {r0, r1}
 8000a72:	6020      	str	r0, [r4, #0]
 8000a74:	3404      	adds	r4, #4
 8000a76:	7021      	strb	r1, [r4, #0]
	HAL_UART_Transmit(&huart2, (uint8_t *)msg, strlen(msg), HAL_MAX_DELAY);
 8000a78:	f107 030c 	add.w	r3, r7, #12
 8000a7c:	4618      	mov	r0, r3
 8000a7e:	f7ff fba7 	bl	80001d0 <strlen>
 8000a82:	4603      	mov	r3, r0
 8000a84:	b29a      	uxth	r2, r3
 8000a86:	f107 010c 	add.w	r1, r7, #12
 8000a8a:	f04f 33ff 	mov.w	r3, #4294967295
 8000a8e:	4804      	ldr	r0, [pc, #16]	; (8000aa0 <HAL_CAN_ErrorCallback+0x48>)
 8000a90:	f002 f801 	bl	8002a96 <HAL_UART_Transmit>

}
 8000a94:	bf00      	nop
 8000a96:	3740      	adds	r7, #64	; 0x40
 8000a98:	46bd      	mov	sp, r7
 8000a9a:	bdb0      	pop	{r4, r5, r7, pc}
 8000a9c:	080040d0 	.word	0x080040d0
 8000aa0:	20000098 	.word	0x20000098

08000aa4 <HAL_MspInit>:
/* USER CODE END 0 */
/**
  * Initializes the Global MSP.
  */
void HAL_MspInit(void)
{
 8000aa4:	b580      	push	{r7, lr}
 8000aa6:	b082      	sub	sp, #8
 8000aa8:	af00      	add	r7, sp, #0
  /* USER CODE BEGIN MspInit 0 */

  /* USER CODE END MspInit 0 */

  __HAL_RCC_SYSCFG_CLK_ENABLE();
 8000aaa:	2300      	movs	r3, #0
 8000aac:	607b      	str	r3, [r7, #4]
 8000aae:	4b14      	ldr	r3, [pc, #80]	; (8000b00 <HAL_MspInit+0x5c>)
 8000ab0:	6c5b      	ldr	r3, [r3, #68]	; 0x44
 8000ab2:	4a13      	ldr	r2, [pc, #76]	; (8000b00 <HAL_MspInit+0x5c>)
 8000ab4:	f443 4380 	orr.w	r3, r3, #16384	; 0x4000
 8000ab8:	6453      	str	r3, [r2, #68]	; 0x44
 8000aba:	4b11      	ldr	r3, [pc, #68]	; (8000b00 <HAL_MspInit+0x5c>)
 8000abc:	6c5b      	ldr	r3, [r3, #68]	; 0x44
 8000abe:	f403 4380 	and.w	r3, r3, #16384	; 0x4000
 8000ac2:	607b      	str	r3, [r7, #4]
 8000ac4:	687b      	ldr	r3, [r7, #4]
  __HAL_RCC_PWR_CLK_ENABLE();
 8000ac6:	2300      	movs	r3, #0
 8000ac8:	603b      	str	r3, [r7, #0]
 8000aca:	4b0d      	ldr	r3, [pc, #52]	; (8000b00 <HAL_MspInit+0x5c>)
 8000acc:	6c1b      	ldr	r3, [r3, #64]	; 0x40
 8000ace:	4a0c      	ldr	r2, [pc, #48]	; (8000b00 <HAL_MspInit+0x5c>)
 8000ad0:	f043 5380 	orr.w	r3, r3, #268435456	; 0x10000000
 8000ad4:	6413      	str	r3, [r2, #64]	; 0x40
 8000ad6:	4b0a      	ldr	r3, [pc, #40]	; (8000b00 <HAL_MspInit+0x5c>)
 8000ad8:	6c1b      	ldr	r3, [r3, #64]	; 0x40
 8000ada:	f003 5380 	and.w	r3, r3, #268435456	; 0x10000000
 8000ade:	603b      	str	r3, [r7, #0]
 8000ae0:	683b      	ldr	r3, [r7, #0]

  HAL_NVIC_SetPriorityGrouping(NVIC_PRIORITYGROUP_0);
 8000ae2:	2007      	movs	r0, #7
 8000ae4:	f001 f910 	bl	8001d08 <HAL_NVIC_SetPriorityGrouping>

  /* System interrupt init*/

  /* Peripheral interrupt init */
  /* RCC_IRQn interrupt configuration */
  HAL_NVIC_SetPriority(RCC_IRQn, 0, 0);
 8000ae8:	2200      	movs	r2, #0
 8000aea:	2100      	movs	r1, #0
 8000aec:	2005      	movs	r0, #5
 8000aee:	f001 f916 	bl	8001d1e <HAL_NVIC_SetPriority>
  HAL_NVIC_EnableIRQ(RCC_IRQn);
 8000af2:	2005      	movs	r0, #5
 8000af4:	f001 f92f 	bl	8001d56 <HAL_NVIC_EnableIRQ>

  /* USER CODE BEGIN MspInit 1 */

  /* USER CODE END MspInit 1 */
}
 8000af8:	bf00      	nop
 8000afa:	3708      	adds	r7, #8
 8000afc:	46bd      	mov	sp, r7
 8000afe:	bd80      	pop	{r7, pc}
 8000b00:	40023800 	.word	0x40023800

08000b04 <HAL_CAN_MspInit>:
* This function configures the hardware resources used in this example
* @param hcan: CAN handle pointer
* @retval None
*/
void HAL_CAN_MspInit(CAN_HandleTypeDef* hcan)
{
 8000b04:	b580      	push	{r7, lr}
 8000b06:	b08a      	sub	sp, #40	; 0x28
 8000b08:	af00      	add	r7, sp, #0
 8000b0a:	6078      	str	r0, [r7, #4]
  GPIO_InitTypeDef GPIO_InitStruct = {0};
 8000b0c:	f107 0314 	add.w	r3, r7, #20
 8000b10:	2200      	movs	r2, #0
 8000b12:	601a      	str	r2, [r3, #0]
 8000b14:	605a      	str	r2, [r3, #4]
 8000b16:	609a      	str	r2, [r3, #8]
 8000b18:	60da      	str	r2, [r3, #12]
 8000b1a:	611a      	str	r2, [r3, #16]
  if(hcan->Instance==CAN1)
 8000b1c:	687b      	ldr	r3, [r7, #4]
 8000b1e:	681b      	ldr	r3, [r3, #0]
 8000b20:	4a29      	ldr	r2, [pc, #164]	; (8000bc8 <HAL_CAN_MspInit+0xc4>)
 8000b22:	4293      	cmp	r3, r2
 8000b24:	d14b      	bne.n	8000bbe <HAL_CAN_MspInit+0xba>
  {
  /* USER CODE BEGIN CAN1_MspInit 0 */

  /* USER CODE END CAN1_MspInit 0 */
    /* Peripheral clock enable */
    __HAL_RCC_CAN1_CLK_ENABLE();
 8000b26:	2300      	movs	r3, #0
 8000b28:	613b      	str	r3, [r7, #16]
 8000b2a:	4b28      	ldr	r3, [pc, #160]	; (8000bcc <HAL_CAN_MspInit+0xc8>)
 8000b2c:	6c1b      	ldr	r3, [r3, #64]	; 0x40
 8000b2e:	4a27      	ldr	r2, [pc, #156]	; (8000bcc <HAL_CAN_MspInit+0xc8>)
 8000b30:	f043 7300 	orr.w	r3, r3, #33554432	; 0x2000000
 8000b34:	6413      	str	r3, [r2, #64]	; 0x40
 8000b36:	4b25      	ldr	r3, [pc, #148]	; (8000bcc <HAL_CAN_MspInit+0xc8>)
 8000b38:	6c1b      	ldr	r3, [r3, #64]	; 0x40
 8000b3a:	f003 7300 	and.w	r3, r3, #33554432	; 0x2000000
 8000b3e:	613b      	str	r3, [r7, #16]
 8000b40:	693b      	ldr	r3, [r7, #16]
  
    __HAL_RCC_GPIOD_CLK_ENABLE();
 8000b42:	2300      	movs	r3, #0
 8000b44:	60fb      	str	r3, [r7, #12]
 8000b46:	4b21      	ldr	r3, [pc, #132]	; (8000bcc <HAL_CAN_MspInit+0xc8>)
 8000b48:	6b1b      	ldr	r3, [r3, #48]	; 0x30
 8000b4a:	4a20      	ldr	r2, [pc, #128]	; (8000bcc <HAL_CAN_MspInit+0xc8>)
 8000b4c:	f043 0308 	orr.w	r3, r3, #8
 8000b50:	6313      	str	r3, [r2, #48]	; 0x30
 8000b52:	4b1e      	ldr	r3, [pc, #120]	; (8000bcc <HAL_CAN_MspInit+0xc8>)
 8000b54:	6b1b      	ldr	r3, [r3, #48]	; 0x30
 8000b56:	f003 0308 	and.w	r3, r3, #8
 8000b5a:	60fb      	str	r3, [r7, #12]
 8000b5c:	68fb      	ldr	r3, [r7, #12]
    /**CAN1 GPIO Configuration    
    PD0     ------> CAN1_RX
    PD1     ------> CAN1_TX 
    */
    GPIO_InitStruct.Pin = GPIO_PIN_0|GPIO_PIN_1;
 8000b5e:	2303      	movs	r3, #3
 8000b60:	617b      	str	r3, [r7, #20]
    GPIO_InitStruct.Mode = GPIO_MODE_AF_PP;
 8000b62:	2302      	movs	r3, #2
 8000b64:	61bb      	str	r3, [r7, #24]
    GPIO_InitStruct.Pull = GPIO_NOPULL;
 8000b66:	2300      	movs	r3, #0
 8000b68:	61fb      	str	r3, [r7, #28]
    GPIO_InitStruct.Speed = GPIO_SPEED_FREQ_VERY_HIGH;
 8000b6a:	2303      	movs	r3, #3
 8000b6c:	623b      	str	r3, [r7, #32]
    GPIO_InitStruct.Alternate = GPIO_AF9_CAN1;
 8000b6e:	2309      	movs	r3, #9
 8000b70:	627b      	str	r3, [r7, #36]	; 0x24
    HAL_GPIO_Init(GPIOD, &GPIO_InitStruct);
 8000b72:	f107 0314 	add.w	r3, r7, #20
 8000b76:	4619      	mov	r1, r3
 8000b78:	4815      	ldr	r0, [pc, #84]	; (8000bd0 <HAL_CAN_MspInit+0xcc>)
 8000b7a:	f001 f929 	bl	8001dd0 <HAL_GPIO_Init>

    /* CAN1 interrupt Init */
    HAL_NVIC_SetPriority(CAN1_TX_IRQn, 15, 0);
 8000b7e:	2200      	movs	r2, #0
 8000b80:	210f      	movs	r1, #15
 8000b82:	2013      	movs	r0, #19
 8000b84:	f001 f8cb 	bl	8001d1e <HAL_NVIC_SetPriority>
    HAL_NVIC_EnableIRQ(CAN1_TX_IRQn);
 8000b88:	2013      	movs	r0, #19
 8000b8a:	f001 f8e4 	bl	8001d56 <HAL_NVIC_EnableIRQ>
    HAL_NVIC_SetPriority(CAN1_RX0_IRQn, 15, 0);
 8000b8e:	2200      	movs	r2, #0
 8000b90:	210f      	movs	r1, #15
 8000b92:	2014      	movs	r0, #20
 8000b94:	f001 f8c3 	bl	8001d1e <HAL_NVIC_SetPriority>
    HAL_NVIC_EnableIRQ(CAN1_RX0_IRQn);
 8000b98:	2014      	movs	r0, #20
 8000b9a:	f001 f8dc 	bl	8001d56 <HAL_NVIC_EnableIRQ>
    HAL_NVIC_SetPriority(CAN1_RX1_IRQn,15, 0);
 8000b9e:	2200      	movs	r2, #0
 8000ba0:	210f      	movs	r1, #15
 8000ba2:	2015      	movs	r0, #21
 8000ba4:	f001 f8bb 	bl	8001d1e <HAL_NVIC_SetPriority>
    HAL_NVIC_EnableIRQ(CAN1_RX1_IRQn);
 8000ba8:	2015      	movs	r0, #21
 8000baa:	f001 f8d4 	bl	8001d56 <HAL_NVIC_EnableIRQ>
    HAL_NVIC_SetPriority(CAN1_SCE_IRQn, 15, 0);
 8000bae:	2200      	movs	r2, #0
 8000bb0:	210f      	movs	r1, #15
 8000bb2:	2016      	movs	r0, #22
 8000bb4:	f001 f8b3 	bl	8001d1e <HAL_NVIC_SetPriority>
    HAL_NVIC_EnableIRQ(CAN1_SCE_IRQn);
 8000bb8:	2016      	movs	r0, #22
 8000bba:	f001 f8cc 	bl	8001d56 <HAL_NVIC_EnableIRQ>
  /* USER CODE BEGIN CAN1_MspInit 1 */

  /* USER CODE END CAN1_MspInit 1 */
  }

}
 8000bbe:	bf00      	nop
 8000bc0:	3728      	adds	r7, #40	; 0x28
 8000bc2:	46bd      	mov	sp, r7
 8000bc4:	bd80      	pop	{r7, pc}
 8000bc6:	bf00      	nop
 8000bc8:	40006400 	.word	0x40006400
 8000bcc:	40023800 	.word	0x40023800
 8000bd0:	40020c00 	.word	0x40020c00

08000bd4 <HAL_UART_MspInit>:
* This function configures the hardware resources used in this example
* @param huart: UART handle pointer
* @retval None
*/
void HAL_UART_MspInit(UART_HandleTypeDef* huart)
{
 8000bd4:	b580      	push	{r7, lr}
 8000bd6:	b08a      	sub	sp, #40	; 0x28
 8000bd8:	af00      	add	r7, sp, #0
 8000bda:	6078      	str	r0, [r7, #4]
  GPIO_InitTypeDef GPIO_InitStruct = {0};
 8000bdc:	f107 0314 	add.w	r3, r7, #20
 8000be0:	2200      	movs	r2, #0
 8000be2:	601a      	str	r2, [r3, #0]
 8000be4:	605a      	str	r2, [r3, #4]
 8000be6:	609a      	str	r2, [r3, #8]
 8000be8:	60da      	str	r2, [r3, #12]
 8000bea:	611a      	str	r2, [r3, #16]
  if(huart->Instance==USART2)
 8000bec:	687b      	ldr	r3, [r7, #4]
 8000bee:	681b      	ldr	r3, [r3, #0]
 8000bf0:	4a1d      	ldr	r2, [pc, #116]	; (8000c68 <HAL_UART_MspInit+0x94>)
 8000bf2:	4293      	cmp	r3, r2
 8000bf4:	d133      	bne.n	8000c5e <HAL_UART_MspInit+0x8a>
  {
  /* USER CODE BEGIN USART2_MspInit 0 */

  /* USER CODE END USART2_MspInit 0 */
    /* Peripheral clock enable */
    __HAL_RCC_USART2_CLK_ENABLE();
 8000bf6:	2300      	movs	r3, #0
 8000bf8:	613b      	str	r3, [r7, #16]
 8000bfa:	4b1c      	ldr	r3, [pc, #112]	; (8000c6c <HAL_UART_MspInit+0x98>)
 8000bfc:	6c1b      	ldr	r3, [r3, #64]	; 0x40
 8000bfe:	4a1b      	ldr	r2, [pc, #108]	; (8000c6c <HAL_UART_MspInit+0x98>)
 8000c00:	f443 3300 	orr.w	r3, r3, #131072	; 0x20000
 8000c04:	6413      	str	r3, [r2, #64]	; 0x40
 8000c06:	4b19      	ldr	r3, [pc, #100]	; (8000c6c <HAL_UART_MspInit+0x98>)
 8000c08:	6c1b      	ldr	r3, [r3, #64]	; 0x40
 8000c0a:	f403 3300 	and.w	r3, r3, #131072	; 0x20000
 8000c0e:	613b      	str	r3, [r7, #16]
 8000c10:	693b      	ldr	r3, [r7, #16]
  
    __HAL_RCC_GPIOA_CLK_ENABLE();
 8000c12:	2300      	movs	r3, #0
 8000c14:	60fb      	str	r3, [r7, #12]
 8000c16:	4b15      	ldr	r3, [pc, #84]	; (8000c6c <HAL_UART_MspInit+0x98>)
 8000c18:	6b1b      	ldr	r3, [r3, #48]	; 0x30
 8000c1a:	4a14      	ldr	r2, [pc, #80]	; (8000c6c <HAL_UART_MspInit+0x98>)
 8000c1c:	f043 0301 	orr.w	r3, r3, #1
 8000c20:	6313      	str	r3, [r2, #48]	; 0x30
 8000c22:	4b12      	ldr	r3, [pc, #72]	; (8000c6c <HAL_UART_MspInit+0x98>)
 8000c24:	6b1b      	ldr	r3, [r3, #48]	; 0x30
 8000c26:	f003 0301 	and.w	r3, r3, #1
 8000c2a:	60fb      	str	r3, [r7, #12]
 8000c2c:	68fb      	ldr	r3, [r7, #12]
    /**USART2 GPIO Configuration    
    PA2     ------> USART2_TX
    PA3     ------> USART2_RX 
    */
    GPIO_InitStruct.Pin = GPIO_PIN_2|GPIO_PIN_3;
 8000c2e:	230c      	movs	r3, #12
 8000c30:	617b      	str	r3, [r7, #20]
    GPIO_InitStruct.Mode = GPIO_MODE_AF_PP;
 8000c32:	2302      	movs	r3, #2
 8000c34:	61bb      	str	r3, [r7, #24]
    GPIO_InitStruct.Pull = GPIO_NOPULL;
 8000c36:	2300      	movs	r3, #0
 8000c38:	61fb      	str	r3, [r7, #28]
    GPIO_InitStruct.Speed = GPIO_SPEED_FREQ_VERY_HIGH;
 8000c3a:	2303      	movs	r3, #3
 8000c3c:	623b      	str	r3, [r7, #32]
    GPIO_InitStruct.Alternate = GPIO_AF7_USART2;
 8000c3e:	2307      	movs	r3, #7
 8000c40:	627b      	str	r3, [r7, #36]	; 0x24
    HAL_GPIO_Init(GPIOA, &GPIO_InitStruct);
 8000c42:	f107 0314 	add.w	r3, r7, #20
 8000c46:	4619      	mov	r1, r3
 8000c48:	4809      	ldr	r0, [pc, #36]	; (8000c70 <HAL_UART_MspInit+0x9c>)
 8000c4a:	f001 f8c1 	bl	8001dd0 <HAL_GPIO_Init>

    /* USART2 interrupt Init */
    HAL_NVIC_SetPriority(USART2_IRQn, 0, 0);
 8000c4e:	2200      	movs	r2, #0
 8000c50:	2100      	movs	r1, #0
 8000c52:	2026      	movs	r0, #38	; 0x26
 8000c54:	f001 f863 	bl	8001d1e <HAL_NVIC_SetPriority>
    HAL_NVIC_EnableIRQ(USART2_IRQn);
 8000c58:	2026      	movs	r0, #38	; 0x26
 8000c5a:	f001 f87c 	bl	8001d56 <HAL_NVIC_EnableIRQ>
  /* USER CODE BEGIN USART2_MspInit 1 */

  /* USER CODE END USART2_MspInit 1 */
  }

}
 8000c5e:	bf00      	nop
 8000c60:	3728      	adds	r7, #40	; 0x28
 8000c62:	46bd      	mov	sp, r7
 8000c64:	bd80      	pop	{r7, pc}
 8000c66:	bf00      	nop
 8000c68:	40004400 	.word	0x40004400
 8000c6c:	40023800 	.word	0x40023800
 8000c70:	40020000 	.word	0x40020000

08000c74 <NMI_Handler>:
/******************************************************************************/
/**
  * @brief This function handles Non maskable interrupt.
  */
void NMI_Handler(void)
{
 8000c74:	b480      	push	{r7}
 8000c76:	af00      	add	r7, sp, #0

  /* USER CODE END NonMaskableInt_IRQn 0 */
  /* USER CODE BEGIN NonMaskableInt_IRQn 1 */

  /* USER CODE END NonMaskableInt_IRQn 1 */
}
 8000c78:	bf00      	nop
 8000c7a:	46bd      	mov	sp, r7
 8000c7c:	f85d 7b04 	ldr.w	r7, [sp], #4
 8000c80:	4770      	bx	lr

08000c82 <HardFault_Handler>:

/**
  * @brief This function handles Hard fault interrupt.
  */
void HardFault_Handler(void)
{
 8000c82:	b480      	push	{r7}
 8000c84:	af00      	add	r7, sp, #0
  /* USER CODE BEGIN HardFault_IRQn 0 */

  /* USER CODE END HardFault_IRQn 0 */
  while (1)
 8000c86:	e7fe      	b.n	8000c86 <HardFault_Handler+0x4>

08000c88 <MemManage_Handler>:

/**
  * @brief This function handles Memory management fault.
  */
void MemManage_Handler(void)
{
 8000c88:	b480      	push	{r7}
 8000c8a:	af00      	add	r7, sp, #0
  /* USER CODE BEGIN MemoryManagement_IRQn 0 */

  /* USER CODE END MemoryManagement_IRQn 0 */
  while (1)
 8000c8c:	e7fe      	b.n	8000c8c <MemManage_Handler+0x4>

08000c8e <BusFault_Handler>:

/**
  * @brief This function handles Pre-fetch fault, memory access fault.
  */
void BusFault_Handler(void)
{
 8000c8e:	b480      	push	{r7}
 8000c90:	af00      	add	r7, sp, #0
  /* USER CODE BEGIN BusFault_IRQn 0 */

  /* USER CODE END BusFault_IRQn 0 */
  while (1)
 8000c92:	e7fe      	b.n	8000c92 <BusFault_Handler+0x4>

08000c94 <UsageFault_Handler>:

/**
  * @brief This function handles Undefined instruction or illegal state.
  */
void UsageFault_Handler(void)
{
 8000c94:	b480      	push	{r7}
 8000c96:	af00      	add	r7, sp, #0
  /* USER CODE BEGIN UsageFault_IRQn 0 */

  /* USER CODE END UsageFault_IRQn 0 */
  while (1)
 8000c98:	e7fe      	b.n	8000c98 <UsageFault_Handler+0x4>

08000c9a <SVC_Handler>:

/**
  * @brief This function handles System service call via SWI instruction.
  */
void SVC_Handler(void)
{
 8000c9a:	b480      	push	{r7}
 8000c9c:	af00      	add	r7, sp, #0

  /* USER CODE END SVCall_IRQn 0 */
  /* USER CODE BEGIN SVCall_IRQn 1 */

  /* USER CODE END SVCall_IRQn 1 */
}
 8000c9e:	bf00      	nop
 8000ca0:	46bd      	mov	sp, r7
 8000ca2:	f85d 7b04 	ldr.w	r7, [sp], #4
 8000ca6:	4770      	bx	lr

08000ca8 <DebugMon_Handler>:

/**
  * @brief This function handles Debug monitor.
  */
void DebugMon_Handler(void)
{
 8000ca8:	b480      	push	{r7}
 8000caa:	af00      	add	r7, sp, #0

  /* USER CODE END DebugMonitor_IRQn 0 */
  /* USER CODE BEGIN DebugMonitor_IRQn 1 */

  /* USER CODE END DebugMonitor_IRQn 1 */
}
 8000cac:	bf00      	nop
 8000cae:	46bd      	mov	sp, r7
 8000cb0:	f85d 7b04 	ldr.w	r7, [sp], #4
 8000cb4:	4770      	bx	lr

08000cb6 <PendSV_Handler>:

/**
  * @brief This function handles Pendable request for system service.
  */
void PendSV_Handler(void)
{
 8000cb6:	b480      	push	{r7}
 8000cb8:	af00      	add	r7, sp, #0

  /* USER CODE END PendSV_IRQn 0 */
  /* USER CODE BEGIN PendSV_IRQn 1 */

  /* USER CODE END PendSV_IRQn 1 */
}
 8000cba:	bf00      	nop
 8000cbc:	46bd      	mov	sp, r7
 8000cbe:	f85d 7b04 	ldr.w	r7, [sp], #4
 8000cc2:	4770      	bx	lr

08000cc4 <SysTick_Handler>:

/**
  * @brief This function handles System tick timer.
  */
void SysTick_Handler(void)
{
 8000cc4:	b580      	push	{r7, lr}
 8000cc6:	af00      	add	r7, sp, #0
  /* USER CODE BEGIN SysTick_IRQn 0 */

  /* USER CODE END SysTick_IRQn 0 */
  HAL_IncTick();
 8000cc8:	f000 f8fa 	bl	8000ec0 <HAL_IncTick>
  /* USER CODE BEGIN SysTick_IRQn 1 */

  /* USER CODE END SysTick_IRQn 1 */
}
 8000ccc:	bf00      	nop
 8000cce:	bd80      	pop	{r7, pc}

08000cd0 <RCC_IRQHandler>:

/**
  * @brief This function handles RCC global interrupt.
  */
void RCC_IRQHandler(void)
{
 8000cd0:	b480      	push	{r7}
 8000cd2:	af00      	add	r7, sp, #0

  /* USER CODE END RCC_IRQn 0 */
  /* USER CODE BEGIN RCC_IRQn 1 */

  /* USER CODE END RCC_IRQn 1 */
}
 8000cd4:	bf00      	nop
 8000cd6:	46bd      	mov	sp, r7
 8000cd8:	f85d 7b04 	ldr.w	r7, [sp], #4
 8000cdc:	4770      	bx	lr
	...

08000ce0 <CAN1_TX_IRQHandler>:

/**
  * @brief This function handles CAN1 TX interrupts.
  */
void CAN1_TX_IRQHandler(void)
{
 8000ce0:	b580      	push	{r7, lr}
 8000ce2:	af00      	add	r7, sp, #0
  /* USER CODE BEGIN CAN1_TX_IRQn 0 */

  /* USER CODE END CAN1_TX_IRQn 0 */
  HAL_CAN_IRQHandler(&hcan1);
 8000ce4:	4802      	ldr	r0, [pc, #8]	; (8000cf0 <CAN1_TX_IRQHandler+0x10>)
 8000ce6:	f000 fd3e 	bl	8001766 <HAL_CAN_IRQHandler>
  /* USER CODE BEGIN CAN1_TX_IRQn 1 */

  /* USER CODE END CAN1_TX_IRQn 1 */
}
 8000cea:	bf00      	nop
 8000cec:	bd80      	pop	{r7, pc}
 8000cee:	bf00      	nop
 8000cf0:	200000d8 	.word	0x200000d8

08000cf4 <CAN1_RX0_IRQHandler>:

/**
  * @brief This function handles CAN1 RX0 interrupts.
  */
void CAN1_RX0_IRQHandler(void)
{
 8000cf4:	b580      	push	{r7, lr}
 8000cf6:	af00      	add	r7, sp, #0
  /* USER CODE BEGIN CAN1_RX0_IRQn 0 */

  /* USER CODE END CAN1_RX0_IRQn 0 */
  HAL_CAN_IRQHandler(&hcan1);
 8000cf8:	4802      	ldr	r0, [pc, #8]	; (8000d04 <CAN1_RX0_IRQHandler+0x10>)
 8000cfa:	f000 fd34 	bl	8001766 <HAL_CAN_IRQHandler>
  /* USER CODE BEGIN CAN1_RX0_IRQn 1 */

  /* USER CODE END CAN1_RX0_IRQn 1 */
}
 8000cfe:	bf00      	nop
 8000d00:	bd80      	pop	{r7, pc}
 8000d02:	bf00      	nop
 8000d04:	200000d8 	.word	0x200000d8

08000d08 <CAN1_RX1_IRQHandler>:

/**
  * @brief This function handles CAN1 RX1 interrupt.
  */
void CAN1_RX1_IRQHandler(void)
{
 8000d08:	b580      	push	{r7, lr}
 8000d0a:	af00      	add	r7, sp, #0
  /* USER CODE BEGIN CAN1_RX1_IRQn 0 */

  /* USER CODE END CAN1_RX1_IRQn 0 */
  HAL_CAN_IRQHandler(&hcan1);
 8000d0c:	4802      	ldr	r0, [pc, #8]	; (8000d18 <CAN1_RX1_IRQHandler+0x10>)
 8000d0e:	f000 fd2a 	bl	8001766 <HAL_CAN_IRQHandler>
  /* USER CODE BEGIN CAN1_RX1_IRQn 1 */

  /* USER CODE END CAN1_RX1_IRQn 1 */
}
 8000d12:	bf00      	nop
 8000d14:	bd80      	pop	{r7, pc}
 8000d16:	bf00      	nop
 8000d18:	200000d8 	.word	0x200000d8

08000d1c <CAN1_SCE_IRQHandler>:

/**
  * @brief This function handles CAN1 SCE interrupt.
  */
void CAN1_SCE_IRQHandler(void)
{
 8000d1c:	b580      	push	{r7, lr}
 8000d1e:	af00      	add	r7, sp, #0
  /* USER CODE BEGIN CAN1_SCE_IRQn 0 */

  /* USER CODE END CAN1_SCE_IRQn 0 */
  HAL_CAN_IRQHandler(&hcan1);
 8000d20:	4802      	ldr	r0, [pc, #8]	; (8000d2c <CAN1_SCE_IRQHandler+0x10>)
 8000d22:	f000 fd20 	bl	8001766 <HAL_CAN_IRQHandler>
  /* USER CODE BEGIN CAN1_SCE_IRQn 1 */

  /* USER CODE END CAN1_SCE_IRQn 1 */
}
 8000d26:	bf00      	nop
 8000d28:	bd80      	pop	{r7, pc}
 8000d2a:	bf00      	nop
 8000d2c:	200000d8 	.word	0x200000d8

08000d30 <USART2_IRQHandler>:

/**
  * @brief This function handles USART2 global interrupt.
  */
void USART2_IRQHandler(void)
{
 8000d30:	b580      	push	{r7, lr}
 8000d32:	af00      	add	r7, sp, #0
  /* USER CODE BEGIN USART2_IRQn 0 */

  /* USER CODE END USART2_IRQn 0 */
  HAL_UART_IRQHandler(&huart2);
 8000d34:	4802      	ldr	r0, [pc, #8]	; (8000d40 <USART2_IRQHandler+0x10>)
 8000d36:	f001 ff47 	bl	8002bc8 <HAL_UART_IRQHandler>
  /* USER CODE BEGIN USART2_IRQn 1 */

  /* USER CODE END USART2_IRQn 1 */
}
 8000d3a:	bf00      	nop
 8000d3c:	bd80      	pop	{r7, pc}
 8000d3e:	bf00      	nop
 8000d40:	20000098 	.word	0x20000098

08000d44 <_sbrk>:
/**
 _sbrk
 Increase program data space. Malloc and related functions depend on this
**/
caddr_t _sbrk(int incr)
{
 8000d44:	b580      	push	{r7, lr}
 8000d46:	b084      	sub	sp, #16
 8000d48:	af00      	add	r7, sp, #0
 8000d4a:	6078      	str	r0, [r7, #4]
	extern char end asm("end");
	static char *heap_end;
	char *prev_heap_end;

	if (heap_end == 0)
 8000d4c:	4b11      	ldr	r3, [pc, #68]	; (8000d94 <_sbrk+0x50>)
 8000d4e:	681b      	ldr	r3, [r3, #0]
 8000d50:	2b00      	cmp	r3, #0
 8000d52:	d102      	bne.n	8000d5a <_sbrk+0x16>
		heap_end = &end;
 8000d54:	4b0f      	ldr	r3, [pc, #60]	; (8000d94 <_sbrk+0x50>)
 8000d56:	4a10      	ldr	r2, [pc, #64]	; (8000d98 <_sbrk+0x54>)
 8000d58:	601a      	str	r2, [r3, #0]

	prev_heap_end = heap_end;
 8000d5a:	4b0e      	ldr	r3, [pc, #56]	; (8000d94 <_sbrk+0x50>)
 8000d5c:	681b      	ldr	r3, [r3, #0]
 8000d5e:	60fb      	str	r3, [r7, #12]
	if (heap_end + incr > stack_ptr)
 8000d60:	4b0c      	ldr	r3, [pc, #48]	; (8000d94 <_sbrk+0x50>)
 8000d62:	681a      	ldr	r2, [r3, #0]
 8000d64:	687b      	ldr	r3, [r7, #4]
 8000d66:	4413      	add	r3, r2
 8000d68:	466a      	mov	r2, sp
 8000d6a:	4293      	cmp	r3, r2
 8000d6c:	d907      	bls.n	8000d7e <_sbrk+0x3a>
	{
		errno = ENOMEM;
 8000d6e:	f002 fd31 	bl	80037d4 <__errno>
 8000d72:	4602      	mov	r2, r0
 8000d74:	230c      	movs	r3, #12
 8000d76:	6013      	str	r3, [r2, #0]
		return (caddr_t) -1;
 8000d78:	f04f 33ff 	mov.w	r3, #4294967295
 8000d7c:	e006      	b.n	8000d8c <_sbrk+0x48>
	}

	heap_end += incr;
 8000d7e:	4b05      	ldr	r3, [pc, #20]	; (8000d94 <_sbrk+0x50>)
 8000d80:	681a      	ldr	r2, [r3, #0]
 8000d82:	687b      	ldr	r3, [r7, #4]
 8000d84:	4413      	add	r3, r2
 8000d86:	4a03      	ldr	r2, [pc, #12]	; (8000d94 <_sbrk+0x50>)
 8000d88:	6013      	str	r3, [r2, #0]

	return (caddr_t) prev_heap_end;
 8000d8a:	68fb      	ldr	r3, [r7, #12]
}
 8000d8c:	4618      	mov	r0, r3
 8000d8e:	3710      	adds	r7, #16
 8000d90:	46bd      	mov	sp, r7
 8000d92:	bd80      	pop	{r7, pc}
 8000d94:	2000008c 	.word	0x2000008c
 8000d98:	20000108 	.word	0x20000108

08000d9c <SystemInit>:
  *         configuration.
  * @param  None
  * @retval None
  */
void SystemInit(void)
{
 8000d9c:	b480      	push	{r7}
 8000d9e:	af00      	add	r7, sp, #0
  /* FPU settings ------------------------------------------------------------*/
  #if (__FPU_PRESENT == 1) && (__FPU_USED == 1)
    SCB->CPACR |= ((3UL << 10*2)|(3UL << 11*2));  /* set CP10 and CP11 Full Access */
 8000da0:	4b08      	ldr	r3, [pc, #32]	; (8000dc4 <SystemInit+0x28>)
 8000da2:	f8d3 3088 	ldr.w	r3, [r3, #136]	; 0x88
 8000da6:	4a07      	ldr	r2, [pc, #28]	; (8000dc4 <SystemInit+0x28>)
 8000da8:	f443 0370 	orr.w	r3, r3, #15728640	; 0xf00000
 8000dac:	f8c2 3088 	str.w	r3, [r2, #136]	; 0x88

  /* Configure the Vector Table location add offset address ------------------*/
#ifdef VECT_TAB_SRAM
  SCB->VTOR = SRAM_BASE | VECT_TAB_OFFSET; /* Vector Table Relocation in Internal SRAM */
#else
  SCB->VTOR = FLASH_BASE | VECT_TAB_OFFSET; /* Vector Table Relocation in Internal FLASH */
 8000db0:	4b04      	ldr	r3, [pc, #16]	; (8000dc4 <SystemInit+0x28>)
 8000db2:	f04f 6200 	mov.w	r2, #134217728	; 0x8000000
 8000db6:	609a      	str	r2, [r3, #8]
#endif
}
 8000db8:	bf00      	nop
 8000dba:	46bd      	mov	sp, r7
 8000dbc:	f85d 7b04 	ldr.w	r7, [sp], #4
 8000dc0:	4770      	bx	lr
 8000dc2:	bf00      	nop
 8000dc4:	e000ed00 	.word	0xe000ed00

08000dc8 <Reset_Handler>:

    .section  .text.Reset_Handler
  .weak  Reset_Handler
  .type  Reset_Handler, %function
Reset_Handler:  
  ldr   sp, =_estack     /* set stack pointer */
 8000dc8:	f8df d034 	ldr.w	sp, [pc, #52]	; 8000e00 <LoopFillZerobss+0x14>

/* Copy the data segment initializers from flash to SRAM */  
  movs  r1, #0
 8000dcc:	2100      	movs	r1, #0
  b  LoopCopyDataInit
 8000dce:	e003      	b.n	8000dd8 <LoopCopyDataInit>

08000dd0 <CopyDataInit>:

CopyDataInit:
  ldr  r3, =_sidata
 8000dd0:	4b0c      	ldr	r3, [pc, #48]	; (8000e04 <LoopFillZerobss+0x18>)
  ldr  r3, [r3, r1]
 8000dd2:	585b      	ldr	r3, [r3, r1]
  str  r3, [r0, r1]
 8000dd4:	5043      	str	r3, [r0, r1]
  adds  r1, r1, #4
 8000dd6:	3104      	adds	r1, #4

08000dd8 <LoopCopyDataInit>:
    
LoopCopyDataInit:
  ldr  r0, =_sdata
 8000dd8:	480b      	ldr	r0, [pc, #44]	; (8000e08 <LoopFillZerobss+0x1c>)
  ldr  r3, =_edata
 8000dda:	4b0c      	ldr	r3, [pc, #48]	; (8000e0c <LoopFillZerobss+0x20>)
  adds  r2, r0, r1
 8000ddc:	1842      	adds	r2, r0, r1
  cmp  r2, r3
 8000dde:	429a      	cmp	r2, r3
  bcc  CopyDataInit
 8000de0:	d3f6      	bcc.n	8000dd0 <CopyDataInit>
  ldr  r2, =_sbss
 8000de2:	4a0b      	ldr	r2, [pc, #44]	; (8000e10 <LoopFillZerobss+0x24>)
  b  LoopFillZerobss
 8000de4:	e002      	b.n	8000dec <LoopFillZerobss>

08000de6 <FillZerobss>:
/* Zero fill the bss segment. */  
FillZerobss:
  movs  r3, #0
 8000de6:	2300      	movs	r3, #0
  str  r3, [r2], #4
 8000de8:	f842 3b04 	str.w	r3, [r2], #4

08000dec <LoopFillZerobss>:
    
LoopFillZerobss:
  ldr  r3, = _ebss
 8000dec:	4b09      	ldr	r3, [pc, #36]	; (8000e14 <LoopFillZerobss+0x28>)
  cmp  r2, r3
 8000dee:	429a      	cmp	r2, r3
  bcc  FillZerobss
 8000df0:	d3f9      	bcc.n	8000de6 <FillZerobss>

/* Call the clock system intitialization function.*/
  bl  SystemInit   
 8000df2:	f7ff ffd3 	bl	8000d9c <SystemInit>
/* Call static constructors */
    bl __libc_init_array
 8000df6:	f002 fcf3 	bl	80037e0 <__libc_init_array>
/* Call the application's entry point.*/
  bl  main
 8000dfa:	f7ff fbc1 	bl	8000580 <main>
  bx  lr    
 8000dfe:	4770      	bx	lr
  ldr   sp, =_estack     /* set stack pointer */
 8000e00:	20020000 	.word	0x20020000
  ldr  r3, =_sidata
 8000e04:	08004144 	.word	0x08004144
  ldr  r0, =_sdata
 8000e08:	20000000 	.word	0x20000000
  ldr  r3, =_edata
 8000e0c:	20000070 	.word	0x20000070
  ldr  r2, =_sbss
 8000e10:	20000070 	.word	0x20000070
  ldr  r3, = _ebss
 8000e14:	20000108 	.word	0x20000108

08000e18 <ADC_IRQHandler>:
 * @retval None       
*/
    .section  .text.Default_Handler,"ax",%progbits
Default_Handler:
Infinite_Loop:
  b  Infinite_Loop
 8000e18:	e7fe      	b.n	8000e18 <ADC_IRQHandler>
	...

08000e1c <HAL_Init>:
  *         need to ensure that the SysTick time base is always set to 1 millisecond
  *         to have correct HAL operation.
  * @retval HAL status
  */
HAL_StatusTypeDef HAL_Init(void)
{
 8000e1c:	b580      	push	{r7, lr}
 8000e1e:	af00      	add	r7, sp, #0
  /* Configure Flash prefetch, Instruction cache, Data cache */ 
#if (INSTRUCTION_CACHE_ENABLE != 0U)
  __HAL_FLASH_INSTRUCTION_CACHE_ENABLE();
 8000e20:	4b0e      	ldr	r3, [pc, #56]	; (8000e5c <HAL_Init+0x40>)
 8000e22:	681b      	ldr	r3, [r3, #0]
 8000e24:	4a0d      	ldr	r2, [pc, #52]	; (8000e5c <HAL_Init+0x40>)
 8000e26:	f443 7300 	orr.w	r3, r3, #512	; 0x200
 8000e2a:	6013      	str	r3, [r2, #0]
#endif /* INSTRUCTION_CACHE_ENABLE */

#if (DATA_CACHE_ENABLE != 0U)
  __HAL_FLASH_DATA_CACHE_ENABLE();
 8000e2c:	4b0b      	ldr	r3, [pc, #44]	; (8000e5c <HAL_Init+0x40>)
 8000e2e:	681b      	ldr	r3, [r3, #0]
 8000e30:	4a0a      	ldr	r2, [pc, #40]	; (8000e5c <HAL_Init+0x40>)
 8000e32:	f443 6380 	orr.w	r3, r3, #1024	; 0x400
 8000e36:	6013      	str	r3, [r2, #0]
#endif /* DATA_CACHE_ENABLE */

#if (PREFETCH_ENABLE != 0U)
  __HAL_FLASH_PREFETCH_BUFFER_ENABLE();
 8000e38:	4b08      	ldr	r3, [pc, #32]	; (8000e5c <HAL_Init+0x40>)
 8000e3a:	681b      	ldr	r3, [r3, #0]
 8000e3c:	4a07      	ldr	r2, [pc, #28]	; (8000e5c <HAL_Init+0x40>)
 8000e3e:	f443 7380 	orr.w	r3, r3, #256	; 0x100
 8000e42:	6013      	str	r3, [r2, #0]
#endif /* PREFETCH_ENABLE */

  /* Set Interrupt Group Priority */
  HAL_NVIC_SetPriorityGrouping(NVIC_PRIORITYGROUP_4);
 8000e44:	2003      	movs	r0, #3
 8000e46:	f000 ff5f 	bl	8001d08 <HAL_NVIC_SetPriorityGrouping>

  /* Use systick as time base source and configure 1ms tick (default clock after Reset is HSI) */
  HAL_InitTick(TICK_INT_PRIORITY);
 8000e4a:	2000      	movs	r0, #0
 8000e4c:	f000 f808 	bl	8000e60 <HAL_InitTick>

  /* Init the low level hardware */
  HAL_MspInit();
 8000e50:	f7ff fe28 	bl	8000aa4 <HAL_MspInit>

  /* Return function status */
  return HAL_OK;
 8000e54:	2300      	movs	r3, #0
}
 8000e56:	4618      	mov	r0, r3
 8000e58:	bd80      	pop	{r7, pc}
 8000e5a:	bf00      	nop
 8000e5c:	40023c00 	.word	0x40023c00

08000e60 <HAL_InitTick>:
  *       implementation  in user file.
  * @param TickPriority Tick interrupt priority.
  * @retval HAL status
  */
__weak HAL_StatusTypeDef HAL_InitTick(uint32_t TickPriority)
{
 8000e60:	b580      	push	{r7, lr}
 8000e62:	b082      	sub	sp, #8
 8000e64:	af00      	add	r7, sp, #0
 8000e66:	6078      	str	r0, [r7, #4]
  /* Configure the SysTick to have interrupt in 1ms time basis*/
  if (HAL_SYSTICK_Config(SystemCoreClock / (1000U / uwTickFreq)) > 0U)
 8000e68:	4b12      	ldr	r3, [pc, #72]	; (8000eb4 <HAL_InitTick+0x54>)
 8000e6a:	681a      	ldr	r2, [r3, #0]
 8000e6c:	4b12      	ldr	r3, [pc, #72]	; (8000eb8 <HAL_InitTick+0x58>)
 8000e6e:	781b      	ldrb	r3, [r3, #0]
 8000e70:	4619      	mov	r1, r3
 8000e72:	f44f 737a 	mov.w	r3, #1000	; 0x3e8
 8000e76:	fbb3 f3f1 	udiv	r3, r3, r1
 8000e7a:	fbb2 f3f3 	udiv	r3, r2, r3
 8000e7e:	4618      	mov	r0, r3
 8000e80:	f000 ff77 	bl	8001d72 <HAL_SYSTICK_Config>
 8000e84:	4603      	mov	r3, r0
 8000e86:	2b00      	cmp	r3, #0
 8000e88:	d001      	beq.n	8000e8e <HAL_InitTick+0x2e>
  {
    return HAL_ERROR;
 8000e8a:	2301      	movs	r3, #1
 8000e8c:	e00e      	b.n	8000eac <HAL_InitTick+0x4c>
  }

  /* Configure the SysTick IRQ priority */
  if (TickPriority < (1UL << __NVIC_PRIO_BITS))
 8000e8e:	687b      	ldr	r3, [r7, #4]
 8000e90:	2b0f      	cmp	r3, #15
 8000e92:	d80a      	bhi.n	8000eaa <HAL_InitTick+0x4a>
  {
    HAL_NVIC_SetPriority(SysTick_IRQn, TickPriority, 0U);
 8000e94:	2200      	movs	r2, #0
 8000e96:	6879      	ldr	r1, [r7, #4]
 8000e98:	f04f 30ff 	mov.w	r0, #4294967295
 8000e9c:	f000 ff3f 	bl	8001d1e <HAL_NVIC_SetPriority>
    uwTickPrio = TickPriority;
 8000ea0:	4a06      	ldr	r2, [pc, #24]	; (8000ebc <HAL_InitTick+0x5c>)
 8000ea2:	687b      	ldr	r3, [r7, #4]
 8000ea4:	6013      	str	r3, [r2, #0]
  {
    return HAL_ERROR;
  }

  /* Return function status */
  return HAL_OK;
 8000ea6:	2300      	movs	r3, #0
 8000ea8:	e000      	b.n	8000eac <HAL_InitTick+0x4c>
    return HAL_ERROR;
 8000eaa:	2301      	movs	r3, #1
}
 8000eac:	4618      	mov	r0, r3
 8000eae:	3708      	adds	r7, #8
 8000eb0:	46bd      	mov	sp, r7
 8000eb2:	bd80      	pop	{r7, pc}
 8000eb4:	20000000 	.word	0x20000000
 8000eb8:	20000008 	.word	0x20000008
 8000ebc:	20000004 	.word	0x20000004

08000ec0 <HAL_IncTick>:
 * @note This function is declared as __weak to be overwritten in case of other 
  *      implementations in user file.
  * @retval None
  */
__weak void HAL_IncTick(void)
{
 8000ec0:	b480      	push	{r7}
 8000ec2:	af00      	add	r7, sp, #0
  uwTick += uwTickFreq;
 8000ec4:	4b06      	ldr	r3, [pc, #24]	; (8000ee0 <HAL_IncTick+0x20>)
 8000ec6:	781b      	ldrb	r3, [r3, #0]
 8000ec8:	461a      	mov	r2, r3
 8000eca:	4b06      	ldr	r3, [pc, #24]	; (8000ee4 <HAL_IncTick+0x24>)
 8000ecc:	681b      	ldr	r3, [r3, #0]
 8000ece:	4413      	add	r3, r2
 8000ed0:	4a04      	ldr	r2, [pc, #16]	; (8000ee4 <HAL_IncTick+0x24>)
 8000ed2:	6013      	str	r3, [r2, #0]
}
 8000ed4:	bf00      	nop
 8000ed6:	46bd      	mov	sp, r7
 8000ed8:	f85d 7b04 	ldr.w	r7, [sp], #4
 8000edc:	4770      	bx	lr
 8000ede:	bf00      	nop
 8000ee0:	20000008 	.word	0x20000008
 8000ee4:	20000100 	.word	0x20000100

08000ee8 <HAL_GetTick>:
  * @note This function is declared as __weak to be overwritten in case of other 
  *       implementations in user file.
  * @retval tick value
  */
__weak uint32_t HAL_GetTick(void)
{
 8000ee8:	b480      	push	{r7}
 8000eea:	af00      	add	r7, sp, #0
  return uwTick;
 8000eec:	4b03      	ldr	r3, [pc, #12]	; (8000efc <HAL_GetTick+0x14>)
 8000eee:	681b      	ldr	r3, [r3, #0]
}
 8000ef0:	4618      	mov	r0, r3
 8000ef2:	46bd      	mov	sp, r7
 8000ef4:	f85d 7b04 	ldr.w	r7, [sp], #4
 8000ef8:	4770      	bx	lr
 8000efa:	bf00      	nop
 8000efc:	20000100 	.word	0x20000100

08000f00 <HAL_CAN_Init>:
  * @param  hcan pointer to a CAN_HandleTypeDef structure that contains
  *         the configuration information for the specified CAN.
  * @retval HAL status
  */
HAL_StatusTypeDef HAL_CAN_Init(CAN_HandleTypeDef *hcan)
{
 8000f00:	b580      	push	{r7, lr}
 8000f02:	b084      	sub	sp, #16
 8000f04:	af00      	add	r7, sp, #0
 8000f06:	6078      	str	r0, [r7, #4]
  uint32_t tickstart;

  /* Check CAN handle */
  if (hcan == NULL)
 8000f08:	687b      	ldr	r3, [r7, #4]
 8000f0a:	2b00      	cmp	r3, #0
 8000f0c:	d101      	bne.n	8000f12 <HAL_CAN_Init+0x12>
  {
    return HAL_ERROR;
 8000f0e:	2301      	movs	r3, #1
 8000f10:	e0ed      	b.n	80010ee <HAL_CAN_Init+0x1ee>
    /* Init the low level hardware: CLOCK, NVIC */
    hcan->MspInitCallback(hcan);
  }

#else
  if (hcan->State == HAL_CAN_STATE_RESET)
 8000f12:	687b      	ldr	r3, [r7, #4]
 8000f14:	f893 3020 	ldrb.w	r3, [r3, #32]
 8000f18:	b2db      	uxtb	r3, r3
 8000f1a:	2b00      	cmp	r3, #0
 8000f1c:	d102      	bne.n	8000f24 <HAL_CAN_Init+0x24>
  {
    /* Init the low level hardware: CLOCK, NVIC */
    HAL_CAN_MspInit(hcan);
 8000f1e:	6878      	ldr	r0, [r7, #4]
 8000f20:	f7ff fdf0 	bl	8000b04 <HAL_CAN_MspInit>
  }
#endif /* (USE_HAL_CAN_REGISTER_CALLBACKS) */

  /* Exit from sleep mode */
  CLEAR_BIT(hcan->Instance->MCR, CAN_MCR_SLEEP);
 8000f24:	687b      	ldr	r3, [r7, #4]
 8000f26:	681b      	ldr	r3, [r3, #0]
 8000f28:	681a      	ldr	r2, [r3, #0]
 8000f2a:	687b      	ldr	r3, [r7, #4]
 8000f2c:	681b      	ldr	r3, [r3, #0]
 8000f2e:	f022 0202 	bic.w	r2, r2, #2
 8000f32:	601a      	str	r2, [r3, #0]

  /* Get tick */
  tickstart = HAL_GetTick();
 8000f34:	f7ff ffd8 	bl	8000ee8 <HAL_GetTick>
 8000f38:	60f8      	str	r0, [r7, #12]

  /* Check Sleep mode leave acknowledge */
  while ((hcan->Instance->MSR & CAN_MSR_SLAK) != 0U)
 8000f3a:	e012      	b.n	8000f62 <HAL_CAN_Init+0x62>
  {
    if ((HAL_GetTick() - tickstart) > CAN_TIMEOUT_VALUE)
 8000f3c:	f7ff ffd4 	bl	8000ee8 <HAL_GetTick>
 8000f40:	4602      	mov	r2, r0
 8000f42:	68fb      	ldr	r3, [r7, #12]
 8000f44:	1ad3      	subs	r3, r2, r3
 8000f46:	2b0a      	cmp	r3, #10
 8000f48:	d90b      	bls.n	8000f62 <HAL_CAN_Init+0x62>
    {
      /* Update error code */
      hcan->ErrorCode |= HAL_CAN_ERROR_TIMEOUT;
 8000f4a:	687b      	ldr	r3, [r7, #4]
 8000f4c:	6a5b      	ldr	r3, [r3, #36]	; 0x24
 8000f4e:	f443 3200 	orr.w	r2, r3, #131072	; 0x20000
 8000f52:	687b      	ldr	r3, [r7, #4]
 8000f54:	625a      	str	r2, [r3, #36]	; 0x24

      /* Change CAN state */
      hcan->State = HAL_CAN_STATE_ERROR;
 8000f56:	687b      	ldr	r3, [r7, #4]
 8000f58:	2205      	movs	r2, #5
 8000f5a:	f883 2020 	strb.w	r2, [r3, #32]

      return HAL_ERROR;
 8000f5e:	2301      	movs	r3, #1
 8000f60:	e0c5      	b.n	80010ee <HAL_CAN_Init+0x1ee>
  while ((hcan->Instance->MSR & CAN_MSR_SLAK) != 0U)
 8000f62:	687b      	ldr	r3, [r7, #4]
 8000f64:	681b      	ldr	r3, [r3, #0]
 8000f66:	685b      	ldr	r3, [r3, #4]
 8000f68:	f003 0302 	and.w	r3, r3, #2
 8000f6c:	2b00      	cmp	r3, #0
 8000f6e:	d1e5      	bne.n	8000f3c <HAL_CAN_Init+0x3c>
    }
  }

  /* Request initialisation */
  SET_BIT(hcan->Instance->MCR, CAN_MCR_INRQ);
 8000f70:	687b      	ldr	r3, [r7, #4]
 8000f72:	681b      	ldr	r3, [r3, #0]
 8000f74:	681a      	ldr	r2, [r3, #0]
 8000f76:	687b      	ldr	r3, [r7, #4]
 8000f78:	681b      	ldr	r3, [r3, #0]
 8000f7a:	f042 0201 	orr.w	r2, r2, #1
 8000f7e:	601a      	str	r2, [r3, #0]

  /* Get tick */
  tickstart = HAL_GetTick();
 8000f80:	f7ff ffb2 	bl	8000ee8 <HAL_GetTick>
 8000f84:	60f8      	str	r0, [r7, #12]

  /* Wait initialisation acknowledge */
  while ((hcan->Instance->MSR & CAN_MSR_INAK) == 0U)
 8000f86:	e012      	b.n	8000fae <HAL_CAN_Init+0xae>
  {
    if ((HAL_GetTick() - tickstart) > CAN_TIMEOUT_VALUE)
 8000f88:	f7ff ffae 	bl	8000ee8 <HAL_GetTick>
 8000f8c:	4602      	mov	r2, r0
 8000f8e:	68fb      	ldr	r3, [r7, #12]
 8000f90:	1ad3      	subs	r3, r2, r3
 8000f92:	2b0a      	cmp	r3, #10
 8000f94:	d90b      	bls.n	8000fae <HAL_CAN_Init+0xae>
    {
      /* Update error code */
      hcan->ErrorCode |= HAL_CAN_ERROR_TIMEOUT;
 8000f96:	687b      	ldr	r3, [r7, #4]
 8000f98:	6a5b      	ldr	r3, [r3, #36]	; 0x24
 8000f9a:	f443 3200 	orr.w	r2, r3, #131072	; 0x20000
 8000f9e:	687b      	ldr	r3, [r7, #4]
 8000fa0:	625a      	str	r2, [r3, #36]	; 0x24

      /* Change CAN state */
      hcan->State = HAL_CAN_STATE_ERROR;
 8000fa2:	687b      	ldr	r3, [r7, #4]
 8000fa4:	2205      	movs	r2, #5
 8000fa6:	f883 2020 	strb.w	r2, [r3, #32]

      return HAL_ERROR;
 8000faa:	2301      	movs	r3, #1
 8000fac:	e09f      	b.n	80010ee <HAL_CAN_Init+0x1ee>
  while ((hcan->Instance->MSR & CAN_MSR_INAK) == 0U)
 8000fae:	687b      	ldr	r3, [r7, #4]
 8000fb0:	681b      	ldr	r3, [r3, #0]
 8000fb2:	685b      	ldr	r3, [r3, #4]
 8000fb4:	f003 0301 	and.w	r3, r3, #1
 8000fb8:	2b00      	cmp	r3, #0
 8000fba:	d0e5      	beq.n	8000f88 <HAL_CAN_Init+0x88>
    }
  }

  /* Set the time triggered communication mode */
  if (hcan->Init.TimeTriggeredMode == ENABLE)
 8000fbc:	687b      	ldr	r3, [r7, #4]
 8000fbe:	7e1b      	ldrb	r3, [r3, #24]
 8000fc0:	2b01      	cmp	r3, #1
 8000fc2:	d108      	bne.n	8000fd6 <HAL_CAN_Init+0xd6>
  {
    SET_BIT(hcan->Instance->MCR, CAN_MCR_TTCM);
 8000fc4:	687b      	ldr	r3, [r7, #4]
 8000fc6:	681b      	ldr	r3, [r3, #0]
 8000fc8:	681a      	ldr	r2, [r3, #0]
 8000fca:	687b      	ldr	r3, [r7, #4]
 8000fcc:	681b      	ldr	r3, [r3, #0]
 8000fce:	f042 0280 	orr.w	r2, r2, #128	; 0x80
 8000fd2:	601a      	str	r2, [r3, #0]
 8000fd4:	e007      	b.n	8000fe6 <HAL_CAN_Init+0xe6>
  }
  else
  {
    CLEAR_BIT(hcan->Instance->MCR, CAN_MCR_TTCM);
 8000fd6:	687b      	ldr	r3, [r7, #4]
 8000fd8:	681b      	ldr	r3, [r3, #0]
 8000fda:	681a      	ldr	r2, [r3, #0]
 8000fdc:	687b      	ldr	r3, [r7, #4]
 8000fde:	681b      	ldr	r3, [r3, #0]
 8000fe0:	f022 0280 	bic.w	r2, r2, #128	; 0x80
 8000fe4:	601a      	str	r2, [r3, #0]
  }

  /* Set the automatic bus-off management */
  if (hcan->Init.AutoBusOff == ENABLE)
 8000fe6:	687b      	ldr	r3, [r7, #4]
 8000fe8:	7e5b      	ldrb	r3, [r3, #25]
 8000fea:	2b01      	cmp	r3, #1
 8000fec:	d108      	bne.n	8001000 <HAL_CAN_Init+0x100>
  {
    SET_BIT(hcan->Instance->MCR, CAN_MCR_ABOM);
 8000fee:	687b      	ldr	r3, [r7, #4]
 8000ff0:	681b      	ldr	r3, [r3, #0]
 8000ff2:	681a      	ldr	r2, [r3, #0]
 8000ff4:	687b      	ldr	r3, [r7, #4]
 8000ff6:	681b      	ldr	r3, [r3, #0]
 8000ff8:	f042 0240 	orr.w	r2, r2, #64	; 0x40
 8000ffc:	601a      	str	r2, [r3, #0]
 8000ffe:	e007      	b.n	8001010 <HAL_CAN_Init+0x110>
  }
  else
  {
    CLEAR_BIT(hcan->Instance->MCR, CAN_MCR_ABOM);
 8001000:	687b      	ldr	r3, [r7, #4]
 8001002:	681b      	ldr	r3, [r3, #0]
 8001004:	681a      	ldr	r2, [r3, #0]
 8001006:	687b      	ldr	r3, [r7, #4]
 8001008:	681b      	ldr	r3, [r3, #0]
 800100a:	f022 0240 	bic.w	r2, r2, #64	; 0x40
 800100e:	601a      	str	r2, [r3, #0]
  }

  /* Set the automatic wake-up mode */
  if (hcan->Init.AutoWakeUp == ENABLE)
 8001010:	687b      	ldr	r3, [r7, #4]
 8001012:	7e9b      	ldrb	r3, [r3, #26]
 8001014:	2b01      	cmp	r3, #1
 8001016:	d108      	bne.n	800102a <HAL_CAN_Init+0x12a>
  {
    SET_BIT(hcan->Instance->MCR, CAN_MCR_AWUM);
 8001018:	687b      	ldr	r3, [r7, #4]
 800101a:	681b      	ldr	r3, [r3, #0]
 800101c:	681a      	ldr	r2, [r3, #0]
 800101e:	687b      	ldr	r3, [r7, #4]
 8001020:	681b      	ldr	r3, [r3, #0]
 8001022:	f042 0220 	orr.w	r2, r2, #32
 8001026:	601a      	str	r2, [r3, #0]
 8001028:	e007      	b.n	800103a <HAL_CAN_Init+0x13a>
  }
  else
  {
    CLEAR_BIT(hcan->Instance->MCR, CAN_MCR_AWUM);
 800102a:	687b      	ldr	r3, [r7, #4]
 800102c:	681b      	ldr	r3, [r3, #0]
 800102e:	681a      	ldr	r2, [r3, #0]
 8001030:	687b      	ldr	r3, [r7, #4]
 8001032:	681b      	ldr	r3, [r3, #0]
 8001034:	f022 0220 	bic.w	r2, r2, #32
 8001038:	601a      	str	r2, [r3, #0]
  }

  /* Set the automatic retransmission */
  if (hcan->Init.AutoRetransmission == ENABLE)
 800103a:	687b      	ldr	r3, [r7, #4]
 800103c:	7edb      	ldrb	r3, [r3, #27]
 800103e:	2b01      	cmp	r3, #1
 8001040:	d108      	bne.n	8001054 <HAL_CAN_Init+0x154>
  {
    CLEAR_BIT(hcan->Instance->MCR, CAN_MCR_NART);
 8001042:	687b      	ldr	r3, [r7, #4]
 8001044:	681b      	ldr	r3, [r3, #0]
 8001046:	681a      	ldr	r2, [r3, #0]
 8001048:	687b      	ldr	r3, [r7, #4]
 800104a:	681b      	ldr	r3, [r3, #0]
 800104c:	f022 0210 	bic.w	r2, r2, #16
 8001050:	601a      	str	r2, [r3, #0]
 8001052:	e007      	b.n	8001064 <HAL_CAN_Init+0x164>
  }
  else
  {
    SET_BIT(hcan->Instance->MCR, CAN_MCR_NART);
 8001054:	687b      	ldr	r3, [r7, #4]
 8001056:	681b      	ldr	r3, [r3, #0]
 8001058:	681a      	ldr	r2, [r3, #0]
 800105a:	687b      	ldr	r3, [r7, #4]
 800105c:	681b      	ldr	r3, [r3, #0]
 800105e:	f042 0210 	orr.w	r2, r2, #16
 8001062:	601a      	str	r2, [r3, #0]
  }

  /* Set the receive FIFO locked mode */
  if (hcan->Init.ReceiveFifoLocked == ENABLE)
 8001064:	687b      	ldr	r3, [r7, #4]
 8001066:	7f1b      	ldrb	r3, [r3, #28]
 8001068:	2b01      	cmp	r3, #1
 800106a:	d108      	bne.n	800107e <HAL_CAN_Init+0x17e>
  {
    SET_BIT(hcan->Instance->MCR, CAN_MCR_RFLM);
 800106c:	687b      	ldr	r3, [r7, #4]
 800106e:	681b      	ldr	r3, [r3, #0]
 8001070:	681a      	ldr	r2, [r3, #0]
 8001072:	687b      	ldr	r3, [r7, #4]
 8001074:	681b      	ldr	r3, [r3, #0]
 8001076:	f042 0208 	orr.w	r2, r2, #8
 800107a:	601a      	str	r2, [r3, #0]
 800107c:	e007      	b.n	800108e <HAL_CAN_Init+0x18e>
  }
  else
  {
    CLEAR_BIT(hcan->Instance->MCR, CAN_MCR_RFLM);
 800107e:	687b      	ldr	r3, [r7, #4]
 8001080:	681b      	ldr	r3, [r3, #0]
 8001082:	681a      	ldr	r2, [r3, #0]
 8001084:	687b      	ldr	r3, [r7, #4]
 8001086:	681b      	ldr	r3, [r3, #0]
 8001088:	f022 0208 	bic.w	r2, r2, #8
 800108c:	601a      	str	r2, [r3, #0]
  }

  /* Set the transmit FIFO priority */
  if (hcan->Init.TransmitFifoPriority == ENABLE)
 800108e:	687b      	ldr	r3, [r7, #4]
 8001090:	7f5b      	ldrb	r3, [r3, #29]
 8001092:	2b01      	cmp	r3, #1
 8001094:	d108      	bne.n	80010a8 <HAL_CAN_Init+0x1a8>
  {
    SET_BIT(hcan->Instance->MCR, CAN_MCR_TXFP);
 8001096:	687b      	ldr	r3, [r7, #4]
 8001098:	681b      	ldr	r3, [r3, #0]
 800109a:	681a      	ldr	r2, [r3, #0]
 800109c:	687b      	ldr	r3, [r7, #4]
 800109e:	681b      	ldr	r3, [r3, #0]
 80010a0:	f042 0204 	orr.w	r2, r2, #4
 80010a4:	601a      	str	r2, [r3, #0]
 80010a6:	e007      	b.n	80010b8 <HAL_CAN_Init+0x1b8>
  }
  else
  {
    CLEAR_BIT(hcan->Instance->MCR, CAN_MCR_TXFP);
 80010a8:	687b      	ldr	r3, [r7, #4]
 80010aa:	681b      	ldr	r3, [r3, #0]
 80010ac:	681a      	ldr	r2, [r3, #0]
 80010ae:	687b      	ldr	r3, [r7, #4]
 80010b0:	681b      	ldr	r3, [r3, #0]
 80010b2:	f022 0204 	bic.w	r2, r2, #4
 80010b6:	601a      	str	r2, [r3, #0]
  }

  /* Set the bit timing register */
  WRITE_REG(hcan->Instance->BTR, (uint32_t)(hcan->Init.Mode           |
 80010b8:	687b      	ldr	r3, [r7, #4]
 80010ba:	689a      	ldr	r2, [r3, #8]
 80010bc:	687b      	ldr	r3, [r7, #4]
 80010be:	68db      	ldr	r3, [r3, #12]
 80010c0:	431a      	orrs	r2, r3
 80010c2:	687b      	ldr	r3, [r7, #4]
 80010c4:	691b      	ldr	r3, [r3, #16]
 80010c6:	431a      	orrs	r2, r3
 80010c8:	687b      	ldr	r3, [r7, #4]
 80010ca:	695b      	ldr	r3, [r3, #20]
 80010cc:	ea42 0103 	orr.w	r1, r2, r3
 80010d0:	687b      	ldr	r3, [r7, #4]
 80010d2:	685b      	ldr	r3, [r3, #4]
 80010d4:	1e5a      	subs	r2, r3, #1
 80010d6:	687b      	ldr	r3, [r7, #4]
 80010d8:	681b      	ldr	r3, [r3, #0]
 80010da:	430a      	orrs	r2, r1
 80010dc:	61da      	str	r2, [r3, #28]
                                            hcan->Init.TimeSeg1       |
                                            hcan->Init.TimeSeg2       |
                                            (hcan->Init.Prescaler - 1U)));

  /* Initialize the error code */
  hcan->ErrorCode = HAL_CAN_ERROR_NONE;
 80010de:	687b      	ldr	r3, [r7, #4]
 80010e0:	2200      	movs	r2, #0
 80010e2:	625a      	str	r2, [r3, #36]	; 0x24

  /* Initialize the CAN state */
  hcan->State = HAL_CAN_STATE_READY;
 80010e4:	687b      	ldr	r3, [r7, #4]
 80010e6:	2201      	movs	r2, #1
 80010e8:	f883 2020 	strb.w	r2, [r3, #32]

  /* Return function status */
  return HAL_OK;
 80010ec:	2300      	movs	r3, #0
}
 80010ee:	4618      	mov	r0, r3
 80010f0:	3710      	adds	r7, #16
 80010f2:	46bd      	mov	sp, r7
 80010f4:	bd80      	pop	{r7, pc}
	...

080010f8 <HAL_CAN_ConfigFilter>:
  * @param  sFilterConfig pointer to a CAN_FilterTypeDef structure that
  *         contains the filter configuration information.
  * @retval None
  */
HAL_StatusTypeDef HAL_CAN_ConfigFilter(CAN_HandleTypeDef *hcan, CAN_FilterTypeDef *sFilterConfig)
{
 80010f8:	b480      	push	{r7}
 80010fa:	b087      	sub	sp, #28
 80010fc:	af00      	add	r7, sp, #0
 80010fe:	6078      	str	r0, [r7, #4]
 8001100:	6039      	str	r1, [r7, #0]
  uint32_t filternbrbitpos;
  CAN_TypeDef *can_ip = hcan->Instance;
 8001102:	687b      	ldr	r3, [r7, #4]
 8001104:	681b      	ldr	r3, [r3, #0]
 8001106:	617b      	str	r3, [r7, #20]
  HAL_CAN_StateTypeDef state = hcan->State;
 8001108:	687b      	ldr	r3, [r7, #4]
 800110a:	f893 3020 	ldrb.w	r3, [r3, #32]
 800110e:	74fb      	strb	r3, [r7, #19]

  if ((state == HAL_CAN_STATE_READY) ||
 8001110:	7cfb      	ldrb	r3, [r7, #19]
 8001112:	2b01      	cmp	r3, #1
 8001114:	d003      	beq.n	800111e <HAL_CAN_ConfigFilter+0x26>
 8001116:	7cfb      	ldrb	r3, [r7, #19]
 8001118:	2b02      	cmp	r3, #2
 800111a:	f040 80be 	bne.w	800129a <HAL_CAN_ConfigFilter+0x1a2>
      assert_param(IS_CAN_FILTER_BANK_DUAL(sFilterConfig->SlaveStartFilterBank));
    }
#elif defined(CAN2)
    /* CAN1 and CAN2 are dual instances with 28 common filters banks */
    /* Select master instance to access the filter banks */
    can_ip = CAN1;
 800111e:	4b65      	ldr	r3, [pc, #404]	; (80012b4 <HAL_CAN_ConfigFilter+0x1bc>)
 8001120:	617b      	str	r3, [r7, #20]
    /* Check the parameters */
    assert_param(IS_CAN_FILTER_BANK_SINGLE(sFilterConfig->FilterBank));
#endif

    /* Initialisation mode for the filter */
    SET_BIT(can_ip->FMR, CAN_FMR_FINIT);
 8001122:	697b      	ldr	r3, [r7, #20]
 8001124:	f8d3 3200 	ldr.w	r3, [r3, #512]	; 0x200
 8001128:	f043 0201 	orr.w	r2, r3, #1
 800112c:	697b      	ldr	r3, [r7, #20]
 800112e:	f8c3 2200 	str.w	r2, [r3, #512]	; 0x200
      SET_BIT(can_ip->FMR, sFilterConfig->SlaveStartFilterBank << CAN_FMR_CAN2SB_Pos);
    }

#elif defined(CAN2)
    /* Select the start filter number of CAN2 slave instance */
    CLEAR_BIT(can_ip->FMR, CAN_FMR_CAN2SB);
 8001132:	697b      	ldr	r3, [r7, #20]
 8001134:	f8d3 3200 	ldr.w	r3, [r3, #512]	; 0x200
 8001138:	f423 527c 	bic.w	r2, r3, #16128	; 0x3f00
 800113c:	697b      	ldr	r3, [r7, #20]
 800113e:	f8c3 2200 	str.w	r2, [r3, #512]	; 0x200
    SET_BIT(can_ip->FMR, sFilterConfig->SlaveStartFilterBank << CAN_FMR_CAN2SB_Pos);
 8001142:	697b      	ldr	r3, [r7, #20]
 8001144:	f8d3 2200 	ldr.w	r2, [r3, #512]	; 0x200
 8001148:	683b      	ldr	r3, [r7, #0]
 800114a:	6a5b      	ldr	r3, [r3, #36]	; 0x24
 800114c:	021b      	lsls	r3, r3, #8
 800114e:	431a      	orrs	r2, r3
 8001150:	697b      	ldr	r3, [r7, #20]
 8001152:	f8c3 2200 	str.w	r2, [r3, #512]	; 0x200

#endif
    /* Convert filter number into bit position */
    filternbrbitpos = (uint32_t)1 << (sFilterConfig->FilterBank & 0x1FU);
 8001156:	683b      	ldr	r3, [r7, #0]
 8001158:	695b      	ldr	r3, [r3, #20]
 800115a:	f003 031f 	and.w	r3, r3, #31
 800115e:	2201      	movs	r2, #1
 8001160:	fa02 f303 	lsl.w	r3, r2, r3
 8001164:	60fb      	str	r3, [r7, #12]

    /* Filter Deactivation */
    CLEAR_BIT(can_ip->FA1R, filternbrbitpos);
 8001166:	697b      	ldr	r3, [r7, #20]
 8001168:	f8d3 221c 	ldr.w	r2, [r3, #540]	; 0x21c
 800116c:	68fb      	ldr	r3, [r7, #12]
 800116e:	43db      	mvns	r3, r3
 8001170:	401a      	ands	r2, r3
 8001172:	697b      	ldr	r3, [r7, #20]
 8001174:	f8c3 221c 	str.w	r2, [r3, #540]	; 0x21c

    /* Filter Scale */
    if (sFilterConfig->FilterScale == CAN_FILTERSCALE_16BIT)
 8001178:	683b      	ldr	r3, [r7, #0]
 800117a:	69db      	ldr	r3, [r3, #28]
 800117c:	2b00      	cmp	r3, #0
 800117e:	d123      	bne.n	80011c8 <HAL_CAN_ConfigFilter+0xd0>
    {
      /* 16-bit scale for the filter */
      CLEAR_BIT(can_ip->FS1R, filternbrbitpos);
 8001180:	697b      	ldr	r3, [r7, #20]
 8001182:	f8d3 220c 	ldr.w	r2, [r3, #524]	; 0x20c
 8001186:	68fb      	ldr	r3, [r7, #12]
 8001188:	43db      	mvns	r3, r3
 800118a:	401a      	ands	r2, r3
 800118c:	697b      	ldr	r3, [r7, #20]
 800118e:	f8c3 220c 	str.w	r2, [r3, #524]	; 0x20c

      /* First 16-bit identifier and First 16-bit mask */
      /* Or First 16-bit identifier and Second 16-bit identifier */
      can_ip->sFilterRegister[sFilterConfig->FilterBank].FR1 =
        ((0x0000FFFFU & (uint32_t)sFilterConfig->FilterMaskIdLow) << 16U) |
 8001192:	683b      	ldr	r3, [r7, #0]
 8001194:	68db      	ldr	r3, [r3, #12]
 8001196:	0419      	lsls	r1, r3, #16
        (0x0000FFFFU & (uint32_t)sFilterConfig->FilterIdLow);
 8001198:	683b      	ldr	r3, [r7, #0]
 800119a:	685b      	ldr	r3, [r3, #4]
 800119c:	b29b      	uxth	r3, r3
      can_ip->sFilterRegister[sFilterConfig->FilterBank].FR1 =
 800119e:	683a      	ldr	r2, [r7, #0]
 80011a0:	6952      	ldr	r2, [r2, #20]
        ((0x0000FFFFU & (uint32_t)sFilterConfig->FilterMaskIdLow) << 16U) |
 80011a2:	4319      	orrs	r1, r3
      can_ip->sFilterRegister[sFilterConfig->FilterBank].FR1 =
 80011a4:	697b      	ldr	r3, [r7, #20]
 80011a6:	3248      	adds	r2, #72	; 0x48
 80011a8:	f843 1032 	str.w	r1, [r3, r2, lsl #3]

      /* Second 16-bit identifier and Second 16-bit mask */
      /* Or Third 16-bit identifier and Fourth 16-bit identifier */
      can_ip->sFilterRegister[sFilterConfig->FilterBank].FR2 =
        ((0x0000FFFFU & (uint32_t)sFilterConfig->FilterMaskIdHigh) << 16U) |
 80011ac:	683b      	ldr	r3, [r7, #0]
 80011ae:	689b      	ldr	r3, [r3, #8]
 80011b0:	0419      	lsls	r1, r3, #16
        (0x0000FFFFU & (uint32_t)sFilterConfig->FilterIdHigh);
 80011b2:	683b      	ldr	r3, [r7, #0]
 80011b4:	681b      	ldr	r3, [r3, #0]
 80011b6:	b29a      	uxth	r2, r3
      can_ip->sFilterRegister[sFilterConfig->FilterBank].FR2 =
 80011b8:	683b      	ldr	r3, [r7, #0]
 80011ba:	695b      	ldr	r3, [r3, #20]
        ((0x0000FFFFU & (uint32_t)sFilterConfig->FilterMaskIdHigh) << 16U) |
 80011bc:	430a      	orrs	r2, r1
      can_ip->sFilterRegister[sFilterConfig->FilterBank].FR2 =
 80011be:	6979      	ldr	r1, [r7, #20]
 80011c0:	3348      	adds	r3, #72	; 0x48
 80011c2:	00db      	lsls	r3, r3, #3
 80011c4:	440b      	add	r3, r1
 80011c6:	605a      	str	r2, [r3, #4]
    }

    if (sFilterConfig->FilterScale == CAN_FILTERSCALE_32BIT)
 80011c8:	683b      	ldr	r3, [r7, #0]
 80011ca:	69db      	ldr	r3, [r3, #28]
 80011cc:	2b01      	cmp	r3, #1
 80011ce:	d122      	bne.n	8001216 <HAL_CAN_ConfigFilter+0x11e>
    {
      /* 32-bit scale for the filter */
      SET_BIT(can_ip->FS1R, filternbrbitpos);
 80011d0:	697b      	ldr	r3, [r7, #20]
 80011d2:	f8d3 220c 	ldr.w	r2, [r3, #524]	; 0x20c
 80011d6:	68fb      	ldr	r3, [r7, #12]
 80011d8:	431a      	orrs	r2, r3
 80011da:	697b      	ldr	r3, [r7, #20]
 80011dc:	f8c3 220c 	str.w	r2, [r3, #524]	; 0x20c

      /* 32-bit identifier or First 32-bit identifier */
      can_ip->sFilterRegister[sFilterConfig->FilterBank].FR1 =
        ((0x0000FFFFU & (uint32_t)sFilterConfig->FilterIdHigh) << 16U) |
 80011e0:	683b      	ldr	r3, [r7, #0]
 80011e2:	681b      	ldr	r3, [r3, #0]
 80011e4:	0419      	lsls	r1, r3, #16
        (0x0000FFFFU & (uint32_t)sFilterConfig->FilterIdLow);
 80011e6:	683b      	ldr	r3, [r7, #0]
 80011e8:	685b      	ldr	r3, [r3, #4]
 80011ea:	b29b      	uxth	r3, r3
      can_ip->sFilterRegister[sFilterConfig->FilterBank].FR1 =
 80011ec:	683a      	ldr	r2, [r7, #0]
 80011ee:	6952      	ldr	r2, [r2, #20]
        ((0x0000FFFFU & (uint32_t)sFilterConfig->FilterIdHigh) << 16U) |
 80011f0:	4319      	orrs	r1, r3
      can_ip->sFilterRegister[sFilterConfig->FilterBank].FR1 =
 80011f2:	697b      	ldr	r3, [r7, #20]
 80011f4:	3248      	adds	r2, #72	; 0x48
 80011f6:	f843 1032 	str.w	r1, [r3, r2, lsl #3]

      /* 32-bit mask or Second 32-bit identifier */
      can_ip->sFilterRegister[sFilterConfig->FilterBank].FR2 =
        ((0x0000FFFFU & (uint32_t)sFilterConfig->FilterMaskIdHigh) << 16U) |
 80011fa:	683b      	ldr	r3, [r7, #0]
 80011fc:	689b      	ldr	r3, [r3, #8]
 80011fe:	0419      	lsls	r1, r3, #16
        (0x0000FFFFU & (uint32_t)sFilterConfig->FilterMaskIdLow);
 8001200:	683b      	ldr	r3, [r7, #0]
 8001202:	68db      	ldr	r3, [r3, #12]
 8001204:	b29a      	uxth	r2, r3
      can_ip->sFilterRegister[sFilterConfig->FilterBank].FR2 =
 8001206:	683b      	ldr	r3, [r7, #0]
 8001208:	695b      	ldr	r3, [r3, #20]
        ((0x0000FFFFU & (uint32_t)sFilterConfig->FilterMaskIdHigh) << 16U) |
 800120a:	430a      	orrs	r2, r1
      can_ip->sFilterRegister[sFilterConfig->FilterBank].FR2 =
 800120c:	6979      	ldr	r1, [r7, #20]
 800120e:	3348      	adds	r3, #72	; 0x48
 8001210:	00db      	lsls	r3, r3, #3
 8001212:	440b      	add	r3, r1
 8001214:	605a      	str	r2, [r3, #4]
    }

    /* Filter Mode */
    if (sFilterConfig->FilterMode == CAN_FILTERMODE_IDMASK)
 8001216:	683b      	ldr	r3, [r7, #0]
 8001218:	699b      	ldr	r3, [r3, #24]
 800121a:	2b00      	cmp	r3, #0
 800121c:	d109      	bne.n	8001232 <HAL_CAN_ConfigFilter+0x13a>
    {
      /* Id/Mask mode for the filter*/
      CLEAR_BIT(can_ip->FM1R, filternbrbitpos);
 800121e:	697b      	ldr	r3, [r7, #20]
 8001220:	f8d3 2204 	ldr.w	r2, [r3, #516]	; 0x204
 8001224:	68fb      	ldr	r3, [r7, #12]
 8001226:	43db      	mvns	r3, r3
 8001228:	401a      	ands	r2, r3
 800122a:	697b      	ldr	r3, [r7, #20]
 800122c:	f8c3 2204 	str.w	r2, [r3, #516]	; 0x204
 8001230:	e007      	b.n	8001242 <HAL_CAN_ConfigFilter+0x14a>
    }
    else /* CAN_FilterInitStruct->CAN_FilterMode == CAN_FilterMode_IdList */
    {
      /* Identifier list mode for the filter*/
      SET_BIT(can_ip->FM1R, filternbrbitpos);
 8001232:	697b      	ldr	r3, [r7, #20]
 8001234:	f8d3 2204 	ldr.w	r2, [r3, #516]	; 0x204
 8001238:	68fb      	ldr	r3, [r7, #12]
 800123a:	431a      	orrs	r2, r3
 800123c:	697b      	ldr	r3, [r7, #20]
 800123e:	f8c3 2204 	str.w	r2, [r3, #516]	; 0x204
    }

    /* Filter FIFO assignment */
    if (sFilterConfig->FilterFIFOAssignment == CAN_FILTER_FIFO0)
 8001242:	683b      	ldr	r3, [r7, #0]
 8001244:	691b      	ldr	r3, [r3, #16]
 8001246:	2b00      	cmp	r3, #0
 8001248:	d109      	bne.n	800125e <HAL_CAN_ConfigFilter+0x166>
    {
      /* FIFO 0 assignation for the filter */
      CLEAR_BIT(can_ip->FFA1R, filternbrbitpos);
 800124a:	697b      	ldr	r3, [r7, #20]
 800124c:	f8d3 2214 	ldr.w	r2, [r3, #532]	; 0x214
 8001250:	68fb      	ldr	r3, [r7, #12]
 8001252:	43db      	mvns	r3, r3
 8001254:	401a      	ands	r2, r3
 8001256:	697b      	ldr	r3, [r7, #20]
 8001258:	f8c3 2214 	str.w	r2, [r3, #532]	; 0x214
 800125c:	e007      	b.n	800126e <HAL_CAN_ConfigFilter+0x176>
    }
    else
    {
      /* FIFO 1 assignation for the filter */
      SET_BIT(can_ip->FFA1R, filternbrbitpos);
 800125e:	697b      	ldr	r3, [r7, #20]
 8001260:	f8d3 2214 	ldr.w	r2, [r3, #532]	; 0x214
 8001264:	68fb      	ldr	r3, [r7, #12]
 8001266:	431a      	orrs	r2, r3
 8001268:	697b      	ldr	r3, [r7, #20]
 800126a:	f8c3 2214 	str.w	r2, [r3, #532]	; 0x214
    }

    /* Filter activation */
    if (sFilterConfig->FilterActivation == CAN_FILTER_ENABLE)
 800126e:	683b      	ldr	r3, [r7, #0]
 8001270:	6a1b      	ldr	r3, [r3, #32]
 8001272:	2b01      	cmp	r3, #1
 8001274:	d107      	bne.n	8001286 <HAL_CAN_ConfigFilter+0x18e>
    {
      SET_BIT(can_ip->FA1R, filternbrbitpos);
 8001276:	697b      	ldr	r3, [r7, #20]
 8001278:	f8d3 221c 	ldr.w	r2, [r3, #540]	; 0x21c
 800127c:	68fb      	ldr	r3, [r7, #12]
 800127e:	431a      	orrs	r2, r3
 8001280:	697b      	ldr	r3, [r7, #20]
 8001282:	f8c3 221c 	str.w	r2, [r3, #540]	; 0x21c
    }

    /* Leave the initialisation mode for the filter */
    CLEAR_BIT(can_ip->FMR, CAN_FMR_FINIT);
 8001286:	697b      	ldr	r3, [r7, #20]
 8001288:	f8d3 3200 	ldr.w	r3, [r3, #512]	; 0x200
 800128c:	f023 0201 	bic.w	r2, r3, #1
 8001290:	697b      	ldr	r3, [r7, #20]
 8001292:	f8c3 2200 	str.w	r2, [r3, #512]	; 0x200

    /* Return function status */
    return HAL_OK;
 8001296:	2300      	movs	r3, #0
 8001298:	e006      	b.n	80012a8 <HAL_CAN_ConfigFilter+0x1b0>
  }
  else
  {
    /* Update error code */
    hcan->ErrorCode |= HAL_CAN_ERROR_NOT_INITIALIZED;
 800129a:	687b      	ldr	r3, [r7, #4]
 800129c:	6a5b      	ldr	r3, [r3, #36]	; 0x24
 800129e:	f443 2280 	orr.w	r2, r3, #262144	; 0x40000
 80012a2:	687b      	ldr	r3, [r7, #4]
 80012a4:	625a      	str	r2, [r3, #36]	; 0x24

    return HAL_ERROR;
 80012a6:	2301      	movs	r3, #1
  }
}
 80012a8:	4618      	mov	r0, r3
 80012aa:	371c      	adds	r7, #28
 80012ac:	46bd      	mov	sp, r7
 80012ae:	f85d 7b04 	ldr.w	r7, [sp], #4
 80012b2:	4770      	bx	lr
 80012b4:	40006400 	.word	0x40006400

080012b8 <HAL_CAN_Start>:
  * @param  hcan pointer to an CAN_HandleTypeDef structure that contains
  *         the configuration information for the specified CAN.
  * @retval HAL status
  */
HAL_StatusTypeDef HAL_CAN_Start(CAN_HandleTypeDef *hcan)
{
 80012b8:	b580      	push	{r7, lr}
 80012ba:	b084      	sub	sp, #16
 80012bc:	af00      	add	r7, sp, #0
 80012be:	6078      	str	r0, [r7, #4]
  uint32_t tickstart;

  if (hcan->State == HAL_CAN_STATE_READY)
 80012c0:	687b      	ldr	r3, [r7, #4]
 80012c2:	f893 3020 	ldrb.w	r3, [r3, #32]
 80012c6:	b2db      	uxtb	r3, r3
 80012c8:	2b01      	cmp	r3, #1
 80012ca:	d12e      	bne.n	800132a <HAL_CAN_Start+0x72>
  {
    /* Change CAN peripheral state */
    hcan->State = HAL_CAN_STATE_LISTENING;
 80012cc:	687b      	ldr	r3, [r7, #4]
 80012ce:	2202      	movs	r2, #2
 80012d0:	f883 2020 	strb.w	r2, [r3, #32]

    /* Request leave initialisation */
    CLEAR_BIT(hcan->Instance->MCR, CAN_MCR_INRQ);
 80012d4:	687b      	ldr	r3, [r7, #4]
 80012d6:	681b      	ldr	r3, [r3, #0]
 80012d8:	681a      	ldr	r2, [r3, #0]
 80012da:	687b      	ldr	r3, [r7, #4]
 80012dc:	681b      	ldr	r3, [r3, #0]
 80012de:	f022 0201 	bic.w	r2, r2, #1
 80012e2:	601a      	str	r2, [r3, #0]

    /* Get tick */
    tickstart = HAL_GetTick();
 80012e4:	f7ff fe00 	bl	8000ee8 <HAL_GetTick>
 80012e8:	60f8      	str	r0, [r7, #12]

    /* Wait the acknowledge */
    while ((hcan->Instance->MSR & CAN_MSR_INAK) != 0U)
 80012ea:	e012      	b.n	8001312 <HAL_CAN_Start+0x5a>
    {
      /* Check for the Timeout */
      if ((HAL_GetTick() - tickstart) > CAN_TIMEOUT_VALUE)
 80012ec:	f7ff fdfc 	bl	8000ee8 <HAL_GetTick>
 80012f0:	4602      	mov	r2, r0
 80012f2:	68fb      	ldr	r3, [r7, #12]
 80012f4:	1ad3      	subs	r3, r2, r3
 80012f6:	2b0a      	cmp	r3, #10
 80012f8:	d90b      	bls.n	8001312 <HAL_CAN_Start+0x5a>
      {
        /* Update error code */
        hcan->ErrorCode |= HAL_CAN_ERROR_TIMEOUT;
 80012fa:	687b      	ldr	r3, [r7, #4]
 80012fc:	6a5b      	ldr	r3, [r3, #36]	; 0x24
 80012fe:	f443 3200 	orr.w	r2, r3, #131072	; 0x20000
 8001302:	687b      	ldr	r3, [r7, #4]
 8001304:	625a      	str	r2, [r3, #36]	; 0x24

        /* Change CAN state */
        hcan->State = HAL_CAN_STATE_ERROR;
 8001306:	687b      	ldr	r3, [r7, #4]
 8001308:	2205      	movs	r2, #5
 800130a:	f883 2020 	strb.w	r2, [r3, #32]

        return HAL_ERROR;
 800130e:	2301      	movs	r3, #1
 8001310:	e012      	b.n	8001338 <HAL_CAN_Start+0x80>
    while ((hcan->Instance->MSR & CAN_MSR_INAK) != 0U)
 8001312:	687b      	ldr	r3, [r7, #4]
 8001314:	681b      	ldr	r3, [r3, #0]
 8001316:	685b      	ldr	r3, [r3, #4]
 8001318:	f003 0301 	and.w	r3, r3, #1
 800131c:	2b00      	cmp	r3, #0
 800131e:	d1e5      	bne.n	80012ec <HAL_CAN_Start+0x34>
      }
    }

    /* Reset the CAN ErrorCode */
    hcan->ErrorCode = HAL_CAN_ERROR_NONE;
 8001320:	687b      	ldr	r3, [r7, #4]
 8001322:	2200      	movs	r2, #0
 8001324:	625a      	str	r2, [r3, #36]	; 0x24

    /* Return function status */
    return HAL_OK;
 8001326:	2300      	movs	r3, #0
 8001328:	e006      	b.n	8001338 <HAL_CAN_Start+0x80>
  }
  else
  {
    /* Update error code */
    hcan->ErrorCode |= HAL_CAN_ERROR_NOT_READY;
 800132a:	687b      	ldr	r3, [r7, #4]
 800132c:	6a5b      	ldr	r3, [r3, #36]	; 0x24
 800132e:	f443 2200 	orr.w	r2, r3, #524288	; 0x80000
 8001332:	687b      	ldr	r3, [r7, #4]
 8001334:	625a      	str	r2, [r3, #36]	; 0x24

    return HAL_ERROR;
 8001336:	2301      	movs	r3, #1
  }
}
 8001338:	4618      	mov	r0, r3
 800133a:	3710      	adds	r7, #16
 800133c:	46bd      	mov	sp, r7
 800133e:	bd80      	pop	{r7, pc}

08001340 <HAL_CAN_AddTxMessage>:
  *         the TxMailbox used to store the Tx message.
  *         This parameter can be a value of @arg CAN_Tx_Mailboxes.
  * @retval HAL status
  */
HAL_StatusTypeDef HAL_CAN_AddTxMessage(CAN_HandleTypeDef *hcan, CAN_TxHeaderTypeDef *pHeader, uint8_t aData[], uint32_t *pTxMailbox)
{
 8001340:	b480      	push	{r7}
 8001342:	b089      	sub	sp, #36	; 0x24
 8001344:	af00      	add	r7, sp, #0
 8001346:	60f8      	str	r0, [r7, #12]
 8001348:	60b9      	str	r1, [r7, #8]
 800134a:	607a      	str	r2, [r7, #4]
 800134c:	603b      	str	r3, [r7, #0]
  uint32_t transmitmailbox;
  HAL_CAN_StateTypeDef state = hcan->State;
 800134e:	68fb      	ldr	r3, [r7, #12]
 8001350:	f893 3020 	ldrb.w	r3, [r3, #32]
 8001354:	77fb      	strb	r3, [r7, #31]
  uint32_t tsr = READ_REG(hcan->Instance->TSR);
 8001356:	68fb      	ldr	r3, [r7, #12]
 8001358:	681b      	ldr	r3, [r3, #0]
 800135a:	689b      	ldr	r3, [r3, #8]
 800135c:	61bb      	str	r3, [r7, #24]
  {
    assert_param(IS_CAN_EXTID(pHeader->ExtId));
  }
  assert_param(IS_FUNCTIONAL_STATE(pHeader->TransmitGlobalTime));

  if ((state == HAL_CAN_STATE_READY) ||
 800135e:	7ffb      	ldrb	r3, [r7, #31]
 8001360:	2b01      	cmp	r3, #1
 8001362:	d003      	beq.n	800136c <HAL_CAN_AddTxMessage+0x2c>
 8001364:	7ffb      	ldrb	r3, [r7, #31]
 8001366:	2b02      	cmp	r3, #2
 8001368:	f040 80b8 	bne.w	80014dc <HAL_CAN_AddTxMessage+0x19c>
      (state == HAL_CAN_STATE_LISTENING))
  {
    /* Check that all the Tx mailboxes are not full */
    if (((tsr & CAN_TSR_TME0) != 0U) ||
 800136c:	69bb      	ldr	r3, [r7, #24]
 800136e:	f003 6380 	and.w	r3, r3, #67108864	; 0x4000000
 8001372:	2b00      	cmp	r3, #0
 8001374:	d10a      	bne.n	800138c <HAL_CAN_AddTxMessage+0x4c>
        ((tsr & CAN_TSR_TME1) != 0U) ||
 8001376:	69bb      	ldr	r3, [r7, #24]
 8001378:	f003 6300 	and.w	r3, r3, #134217728	; 0x8000000
    if (((tsr & CAN_TSR_TME0) != 0U) ||
 800137c:	2b00      	cmp	r3, #0
 800137e:	d105      	bne.n	800138c <HAL_CAN_AddTxMessage+0x4c>
        ((tsr & CAN_TSR_TME2) != 0U))
 8001380:	69bb      	ldr	r3, [r7, #24]
 8001382:	f003 5380 	and.w	r3, r3, #268435456	; 0x10000000
        ((tsr & CAN_TSR_TME1) != 0U) ||
 8001386:	2b00      	cmp	r3, #0
 8001388:	f000 80a0 	beq.w	80014cc <HAL_CAN_AddTxMessage+0x18c>
    {
      /* Select an empty transmit mailbox */
      transmitmailbox = (tsr & CAN_TSR_CODE) >> CAN_TSR_CODE_Pos;
 800138c:	69bb      	ldr	r3, [r7, #24]
 800138e:	0e1b      	lsrs	r3, r3, #24
 8001390:	f003 0303 	and.w	r3, r3, #3
 8001394:	617b      	str	r3, [r7, #20]

      /* Check transmit mailbox value */
      if (transmitmailbox > 2U)
 8001396:	697b      	ldr	r3, [r7, #20]
 8001398:	2b02      	cmp	r3, #2
 800139a:	d907      	bls.n	80013ac <HAL_CAN_AddTxMessage+0x6c>
      {
        /* Update error code */
        hcan->ErrorCode |= HAL_CAN_ERROR_INTERNAL;
 800139c:	68fb      	ldr	r3, [r7, #12]
 800139e:	6a5b      	ldr	r3, [r3, #36]	; 0x24
 80013a0:	f443 0200 	orr.w	r2, r3, #8388608	; 0x800000
 80013a4:	68fb      	ldr	r3, [r7, #12]
 80013a6:	625a      	str	r2, [r3, #36]	; 0x24

        return HAL_ERROR;
 80013a8:	2301      	movs	r3, #1
 80013aa:	e09e      	b.n	80014ea <HAL_CAN_AddTxMessage+0x1aa>
      }

      /* Store the Tx mailbox */
      *pTxMailbox = (uint32_t)1 << transmitmailbox;
 80013ac:	2201      	movs	r2, #1
 80013ae:	697b      	ldr	r3, [r7, #20]
 80013b0:	409a      	lsls	r2, r3
 80013b2:	683b      	ldr	r3, [r7, #0]
 80013b4:	601a      	str	r2, [r3, #0]

      /* Set up the Id */
      if (pHeader->IDE == CAN_ID_STD)
 80013b6:	68bb      	ldr	r3, [r7, #8]
 80013b8:	689b      	ldr	r3, [r3, #8]
 80013ba:	2b00      	cmp	r3, #0
 80013bc:	d10d      	bne.n	80013da <HAL_CAN_AddTxMessage+0x9a>
      {
        hcan->Instance->sTxMailBox[transmitmailbox].TIR = ((pHeader->StdId << CAN_TI0R_STID_Pos) |
 80013be:	68bb      	ldr	r3, [r7, #8]
 80013c0:	681b      	ldr	r3, [r3, #0]
 80013c2:	055a      	lsls	r2, r3, #21
                                                           pHeader->RTR);
 80013c4:	68bb      	ldr	r3, [r7, #8]
 80013c6:	68db      	ldr	r3, [r3, #12]
        hcan->Instance->sTxMailBox[transmitmailbox].TIR = ((pHeader->StdId << CAN_TI0R_STID_Pos) |
 80013c8:	68f9      	ldr	r1, [r7, #12]
 80013ca:	6809      	ldr	r1, [r1, #0]
 80013cc:	431a      	orrs	r2, r3
 80013ce:	697b      	ldr	r3, [r7, #20]
 80013d0:	3318      	adds	r3, #24
 80013d2:	011b      	lsls	r3, r3, #4
 80013d4:	440b      	add	r3, r1
 80013d6:	601a      	str	r2, [r3, #0]
 80013d8:	e00f      	b.n	80013fa <HAL_CAN_AddTxMessage+0xba>
      }
      else
      {
        hcan->Instance->sTxMailBox[transmitmailbox].TIR = ((pHeader->ExtId << CAN_TI0R_EXID_Pos) |
 80013da:	68bb      	ldr	r3, [r7, #8]
 80013dc:	685b      	ldr	r3, [r3, #4]
 80013de:	00da      	lsls	r2, r3, #3
                                                           pHeader->IDE |
 80013e0:	68bb      	ldr	r3, [r7, #8]
 80013e2:	689b      	ldr	r3, [r3, #8]
        hcan->Instance->sTxMailBox[transmitmailbox].TIR = ((pHeader->ExtId << CAN_TI0R_EXID_Pos) |
 80013e4:	431a      	orrs	r2, r3
                                                           pHeader->RTR);
 80013e6:	68bb      	ldr	r3, [r7, #8]
 80013e8:	68db      	ldr	r3, [r3, #12]
        hcan->Instance->sTxMailBox[transmitmailbox].TIR = ((pHeader->ExtId << CAN_TI0R_EXID_Pos) |
 80013ea:	68f9      	ldr	r1, [r7, #12]
 80013ec:	6809      	ldr	r1, [r1, #0]
                                                           pHeader->IDE |
 80013ee:	431a      	orrs	r2, r3
        hcan->Instance->sTxMailBox[transmitmailbox].TIR = ((pHeader->ExtId << CAN_TI0R_EXID_Pos) |
 80013f0:	697b      	ldr	r3, [r7, #20]
 80013f2:	3318      	adds	r3, #24
 80013f4:	011b      	lsls	r3, r3, #4
 80013f6:	440b      	add	r3, r1
 80013f8:	601a      	str	r2, [r3, #0]
      }

      /* Set up the DLC */
      hcan->Instance->sTxMailBox[transmitmailbox].TDTR = (pHeader->DLC);
 80013fa:	68fb      	ldr	r3, [r7, #12]
 80013fc:	6819      	ldr	r1, [r3, #0]
 80013fe:	68bb      	ldr	r3, [r7, #8]
 8001400:	691a      	ldr	r2, [r3, #16]
 8001402:	697b      	ldr	r3, [r7, #20]
 8001404:	3318      	adds	r3, #24
 8001406:	011b      	lsls	r3, r3, #4
 8001408:	440b      	add	r3, r1
 800140a:	3304      	adds	r3, #4
 800140c:	601a      	str	r2, [r3, #0]

      /* Set up the Transmit Global Time mode */
      if (pHeader->TransmitGlobalTime == ENABLE)
 800140e:	68bb      	ldr	r3, [r7, #8]
 8001410:	7d1b      	ldrb	r3, [r3, #20]
 8001412:	2b01      	cmp	r3, #1
 8001414:	d111      	bne.n	800143a <HAL_CAN_AddTxMessage+0xfa>
      {
        SET_BIT(hcan->Instance->sTxMailBox[transmitmailbox].TDTR, CAN_TDT0R_TGT);
 8001416:	68fb      	ldr	r3, [r7, #12]
 8001418:	681a      	ldr	r2, [r3, #0]
 800141a:	697b      	ldr	r3, [r7, #20]
 800141c:	3318      	adds	r3, #24
 800141e:	011b      	lsls	r3, r3, #4
 8001420:	4413      	add	r3, r2
 8001422:	3304      	adds	r3, #4
 8001424:	681b      	ldr	r3, [r3, #0]
 8001426:	68fa      	ldr	r2, [r7, #12]
 8001428:	6811      	ldr	r1, [r2, #0]
 800142a:	f443 7280 	orr.w	r2, r3, #256	; 0x100
 800142e:	697b      	ldr	r3, [r7, #20]
 8001430:	3318      	adds	r3, #24
 8001432:	011b      	lsls	r3, r3, #4
 8001434:	440b      	add	r3, r1
 8001436:	3304      	adds	r3, #4
 8001438:	601a      	str	r2, [r3, #0]
      }

      /* Set up the data field */
      WRITE_REG(hcan->Instance->sTxMailBox[transmitmailbox].TDHR,
 800143a:	687b      	ldr	r3, [r7, #4]
 800143c:	3307      	adds	r3, #7
 800143e:	781b      	ldrb	r3, [r3, #0]
 8001440:	061a      	lsls	r2, r3, #24
 8001442:	687b      	ldr	r3, [r7, #4]
 8001444:	3306      	adds	r3, #6
 8001446:	781b      	ldrb	r3, [r3, #0]
 8001448:	041b      	lsls	r3, r3, #16
 800144a:	431a      	orrs	r2, r3
 800144c:	687b      	ldr	r3, [r7, #4]
 800144e:	3305      	adds	r3, #5
 8001450:	781b      	ldrb	r3, [r3, #0]
 8001452:	021b      	lsls	r3, r3, #8
 8001454:	4313      	orrs	r3, r2
 8001456:	687a      	ldr	r2, [r7, #4]
 8001458:	3204      	adds	r2, #4
 800145a:	7812      	ldrb	r2, [r2, #0]
 800145c:	4610      	mov	r0, r2
 800145e:	68fa      	ldr	r2, [r7, #12]
 8001460:	6811      	ldr	r1, [r2, #0]
 8001462:	ea43 0200 	orr.w	r2, r3, r0
 8001466:	697b      	ldr	r3, [r7, #20]
 8001468:	011b      	lsls	r3, r3, #4
 800146a:	440b      	add	r3, r1
 800146c:	f503 73c6 	add.w	r3, r3, #396	; 0x18c
 8001470:	601a      	str	r2, [r3, #0]
                ((uint32_t)aData[7] << CAN_TDH0R_DATA7_Pos) |
                ((uint32_t)aData[6] << CAN_TDH0R_DATA6_Pos) |
                ((uint32_t)aData[5] << CAN_TDH0R_DATA5_Pos) |
                ((uint32_t)aData[4] << CAN_TDH0R_DATA4_Pos));
      WRITE_REG(hcan->Instance->sTxMailBox[transmitmailbox].TDLR,
 8001472:	687b      	ldr	r3, [r7, #4]
 8001474:	3303      	adds	r3, #3
 8001476:	781b      	ldrb	r3, [r3, #0]
 8001478:	061a      	lsls	r2, r3, #24
 800147a:	687b      	ldr	r3, [r7, #4]
 800147c:	3302      	adds	r3, #2
 800147e:	781b      	ldrb	r3, [r3, #0]
 8001480:	041b      	lsls	r3, r3, #16
 8001482:	431a      	orrs	r2, r3
 8001484:	687b      	ldr	r3, [r7, #4]
 8001486:	3301      	adds	r3, #1
 8001488:	781b      	ldrb	r3, [r3, #0]
 800148a:	021b      	lsls	r3, r3, #8
 800148c:	4313      	orrs	r3, r2
 800148e:	687a      	ldr	r2, [r7, #4]
 8001490:	7812      	ldrb	r2, [r2, #0]
 8001492:	4610      	mov	r0, r2
 8001494:	68fa      	ldr	r2, [r7, #12]
 8001496:	6811      	ldr	r1, [r2, #0]
 8001498:	ea43 0200 	orr.w	r2, r3, r0
 800149c:	697b      	ldr	r3, [r7, #20]
 800149e:	011b      	lsls	r3, r3, #4
 80014a0:	440b      	add	r3, r1
 80014a2:	f503 73c4 	add.w	r3, r3, #392	; 0x188
 80014a6:	601a      	str	r2, [r3, #0]
                ((uint32_t)aData[2] << CAN_TDL0R_DATA2_Pos) |
                ((uint32_t)aData[1] << CAN_TDL0R_DATA1_Pos) |
                ((uint32_t)aData[0] << CAN_TDL0R_DATA0_Pos));

      /* Request transmission */
      SET_BIT(hcan->Instance->sTxMailBox[transmitmailbox].TIR, CAN_TI0R_TXRQ);
 80014a8:	68fb      	ldr	r3, [r7, #12]
 80014aa:	681a      	ldr	r2, [r3, #0]
 80014ac:	697b      	ldr	r3, [r7, #20]
 80014ae:	3318      	adds	r3, #24
 80014b0:	011b      	lsls	r3, r3, #4
 80014b2:	4413      	add	r3, r2
 80014b4:	681b      	ldr	r3, [r3, #0]
 80014b6:	68fa      	ldr	r2, [r7, #12]
 80014b8:	6811      	ldr	r1, [r2, #0]
 80014ba:	f043 0201 	orr.w	r2, r3, #1
 80014be:	697b      	ldr	r3, [r7, #20]
 80014c0:	3318      	adds	r3, #24
 80014c2:	011b      	lsls	r3, r3, #4
 80014c4:	440b      	add	r3, r1
 80014c6:	601a      	str	r2, [r3, #0]

      /* Return function status */
      return HAL_OK;
 80014c8:	2300      	movs	r3, #0
 80014ca:	e00e      	b.n	80014ea <HAL_CAN_AddTxMessage+0x1aa>
    }
    else
    {
      /* Update error code */
      hcan->ErrorCode |= HAL_CAN_ERROR_PARAM;
 80014cc:	68fb      	ldr	r3, [r7, #12]
 80014ce:	6a5b      	ldr	r3, [r3, #36]	; 0x24
 80014d0:	f443 1200 	orr.w	r2, r3, #2097152	; 0x200000
 80014d4:	68fb      	ldr	r3, [r7, #12]
 80014d6:	625a      	str	r2, [r3, #36]	; 0x24

      return HAL_ERROR;
 80014d8:	2301      	movs	r3, #1
 80014da:	e006      	b.n	80014ea <HAL_CAN_AddTxMessage+0x1aa>
    }
  }
  else
  {
    /* Update error code */
    hcan->ErrorCode |= HAL_CAN_ERROR_NOT_INITIALIZED;
 80014dc:	68fb      	ldr	r3, [r7, #12]
 80014de:	6a5b      	ldr	r3, [r3, #36]	; 0x24
 80014e0:	f443 2280 	orr.w	r2, r3, #262144	; 0x40000
 80014e4:	68fb      	ldr	r3, [r7, #12]
 80014e6:	625a      	str	r2, [r3, #36]	; 0x24

    return HAL_ERROR;
 80014e8:	2301      	movs	r3, #1
  }
}
 80014ea:	4618      	mov	r0, r3
 80014ec:	3724      	adds	r7, #36	; 0x24
 80014ee:	46bd      	mov	sp, r7
 80014f0:	f85d 7b04 	ldr.w	r7, [sp], #4
 80014f4:	4770      	bx	lr

080014f6 <HAL_CAN_GetRxMessage>:
  *         of the Rx frame will be stored.
  * @param  aData array where the payload of the Rx frame will be stored.
  * @retval HAL status
  */
HAL_StatusTypeDef HAL_CAN_GetRxMessage(CAN_HandleTypeDef *hcan, uint32_t RxFifo, CAN_RxHeaderTypeDef *pHeader, uint8_t aData[])
{
 80014f6:	b480      	push	{r7}
 80014f8:	b087      	sub	sp, #28
 80014fa:	af00      	add	r7, sp, #0
 80014fc:	60f8      	str	r0, [r7, #12]
 80014fe:	60b9      	str	r1, [r7, #8]
 8001500:	607a      	str	r2, [r7, #4]
 8001502:	603b      	str	r3, [r7, #0]
  HAL_CAN_StateTypeDef state = hcan->State;
 8001504:	68fb      	ldr	r3, [r7, #12]
 8001506:	f893 3020 	ldrb.w	r3, [r3, #32]
 800150a:	75fb      	strb	r3, [r7, #23]

  assert_param(IS_CAN_RX_FIFO(RxFifo));

  if ((state == HAL_CAN_STATE_READY) ||
 800150c:	7dfb      	ldrb	r3, [r7, #23]
 800150e:	2b01      	cmp	r3, #1
 8001510:	d003      	beq.n	800151a <HAL_CAN_GetRxMessage+0x24>
 8001512:	7dfb      	ldrb	r3, [r7, #23]
 8001514:	2b02      	cmp	r3, #2
 8001516:	f040 80f3 	bne.w	8001700 <HAL_CAN_GetRxMessage+0x20a>
      (state == HAL_CAN_STATE_LISTENING))
  {
    /* Check the Rx FIFO */
    if (RxFifo == CAN_RX_FIFO0) /* Rx element is assigned to Rx FIFO 0 */
 800151a:	68bb      	ldr	r3, [r7, #8]
 800151c:	2b00      	cmp	r3, #0
 800151e:	d10e      	bne.n	800153e <HAL_CAN_GetRxMessage+0x48>
    {
      /* Check that the Rx FIFO 0 is not empty */
      if ((hcan->Instance->RF0R & CAN_RF0R_FMP0) == 0U)
 8001520:	68fb      	ldr	r3, [r7, #12]
 8001522:	681b      	ldr	r3, [r3, #0]
 8001524:	68db      	ldr	r3, [r3, #12]
 8001526:	f003 0303 	and.w	r3, r3, #3
 800152a:	2b00      	cmp	r3, #0
 800152c:	d116      	bne.n	800155c <HAL_CAN_GetRxMessage+0x66>
      {
        /* Update error code */
        hcan->ErrorCode |= HAL_CAN_ERROR_PARAM;
 800152e:	68fb      	ldr	r3, [r7, #12]
 8001530:	6a5b      	ldr	r3, [r3, #36]	; 0x24
 8001532:	f443 1200 	orr.w	r2, r3, #2097152	; 0x200000
 8001536:	68fb      	ldr	r3, [r7, #12]
 8001538:	625a      	str	r2, [r3, #36]	; 0x24

        return HAL_ERROR;
 800153a:	2301      	movs	r3, #1
 800153c:	e0e7      	b.n	800170e <HAL_CAN_GetRxMessage+0x218>
      }
    }
    else /* Rx element is assigned to Rx FIFO 1 */
    {
      /* Check that the Rx FIFO 1 is not empty */
      if ((hcan->Instance->RF1R & CAN_RF1R_FMP1) == 0U)
 800153e:	68fb      	ldr	r3, [r7, #12]
 8001540:	681b      	ldr	r3, [r3, #0]
 8001542:	691b      	ldr	r3, [r3, #16]
 8001544:	f003 0303 	and.w	r3, r3, #3
 8001548:	2b00      	cmp	r3, #0
 800154a:	d107      	bne.n	800155c <HAL_CAN_GetRxMessage+0x66>
      {
        /* Update error code */
        hcan->ErrorCode |= HAL_CAN_ERROR_PARAM;
 800154c:	68fb      	ldr	r3, [r7, #12]
 800154e:	6a5b      	ldr	r3, [r3, #36]	; 0x24
 8001550:	f443 1200 	orr.w	r2, r3, #2097152	; 0x200000
 8001554:	68fb      	ldr	r3, [r7, #12]
 8001556:	625a      	str	r2, [r3, #36]	; 0x24

        return HAL_ERROR;
 8001558:	2301      	movs	r3, #1
 800155a:	e0d8      	b.n	800170e <HAL_CAN_GetRxMessage+0x218>
      }
    }

    /* Get the header */
    pHeader->IDE = CAN_RI0R_IDE & hcan->Instance->sFIFOMailBox[RxFifo].RIR;
 800155c:	68fb      	ldr	r3, [r7, #12]
 800155e:	681a      	ldr	r2, [r3, #0]
 8001560:	68bb      	ldr	r3, [r7, #8]
 8001562:	331b      	adds	r3, #27
 8001564:	011b      	lsls	r3, r3, #4
 8001566:	4413      	add	r3, r2
 8001568:	681b      	ldr	r3, [r3, #0]
 800156a:	f003 0204 	and.w	r2, r3, #4
 800156e:	687b      	ldr	r3, [r7, #4]
 8001570:	609a      	str	r2, [r3, #8]
    if (pHeader->IDE == CAN_ID_STD)
 8001572:	687b      	ldr	r3, [r7, #4]
 8001574:	689b      	ldr	r3, [r3, #8]
 8001576:	2b00      	cmp	r3, #0
 8001578:	d10c      	bne.n	8001594 <HAL_CAN_GetRxMessage+0x9e>
    {
      pHeader->StdId = (CAN_RI0R_STID & hcan->Instance->sFIFOMailBox[RxFifo].RIR) >> CAN_TI0R_STID_Pos;
 800157a:	68fb      	ldr	r3, [r7, #12]
 800157c:	681a      	ldr	r2, [r3, #0]
 800157e:	68bb      	ldr	r3, [r7, #8]
 8001580:	331b      	adds	r3, #27
 8001582:	011b      	lsls	r3, r3, #4
 8001584:	4413      	add	r3, r2
 8001586:	681b      	ldr	r3, [r3, #0]
 8001588:	0d5b      	lsrs	r3, r3, #21
 800158a:	f3c3 020a 	ubfx	r2, r3, #0, #11
 800158e:	687b      	ldr	r3, [r7, #4]
 8001590:	601a      	str	r2, [r3, #0]
 8001592:	e00b      	b.n	80015ac <HAL_CAN_GetRxMessage+0xb6>
    }
    else
    {
      pHeader->ExtId = ((CAN_RI0R_EXID | CAN_RI0R_STID) & hcan->Instance->sFIFOMailBox[RxFifo].RIR) >> CAN_RI0R_EXID_Pos;
 8001594:	68fb      	ldr	r3, [r7, #12]
 8001596:	681a      	ldr	r2, [r3, #0]
 8001598:	68bb      	ldr	r3, [r7, #8]
 800159a:	331b      	adds	r3, #27
 800159c:	011b      	lsls	r3, r3, #4
 800159e:	4413      	add	r3, r2
 80015a0:	681b      	ldr	r3, [r3, #0]
 80015a2:	08db      	lsrs	r3, r3, #3
 80015a4:	f023 4260 	bic.w	r2, r3, #3758096384	; 0xe0000000
 80015a8:	687b      	ldr	r3, [r7, #4]
 80015aa:	605a      	str	r2, [r3, #4]
    }
    pHeader->RTR = (CAN_RI0R_RTR & hcan->Instance->sFIFOMailBox[RxFifo].RIR);
 80015ac:	68fb      	ldr	r3, [r7, #12]
 80015ae:	681a      	ldr	r2, [r3, #0]
 80015b0:	68bb      	ldr	r3, [r7, #8]
 80015b2:	331b      	adds	r3, #27
 80015b4:	011b      	lsls	r3, r3, #4
 80015b6:	4413      	add	r3, r2
 80015b8:	681b      	ldr	r3, [r3, #0]
 80015ba:	f003 0202 	and.w	r2, r3, #2
 80015be:	687b      	ldr	r3, [r7, #4]
 80015c0:	60da      	str	r2, [r3, #12]
    pHeader->DLC = (CAN_RDT0R_DLC & hcan->Instance->sFIFOMailBox[RxFifo].RDTR) >> CAN_RDT0R_DLC_Pos;
 80015c2:	68fb      	ldr	r3, [r7, #12]
 80015c4:	681a      	ldr	r2, [r3, #0]
 80015c6:	68bb      	ldr	r3, [r7, #8]
 80015c8:	331b      	adds	r3, #27
 80015ca:	011b      	lsls	r3, r3, #4
 80015cc:	4413      	add	r3, r2
 80015ce:	3304      	adds	r3, #4
 80015d0:	681b      	ldr	r3, [r3, #0]
 80015d2:	f003 020f 	and.w	r2, r3, #15
 80015d6:	687b      	ldr	r3, [r7, #4]
 80015d8:	611a      	str	r2, [r3, #16]
    pHeader->FilterMatchIndex = (CAN_RDT0R_FMI & hcan->Instance->sFIFOMailBox[RxFifo].RDTR) >> CAN_RDT0R_FMI_Pos;
 80015da:	68fb      	ldr	r3, [r7, #12]
 80015dc:	681a      	ldr	r2, [r3, #0]
 80015de:	68bb      	ldr	r3, [r7, #8]
 80015e0:	331b      	adds	r3, #27
 80015e2:	011b      	lsls	r3, r3, #4
 80015e4:	4413      	add	r3, r2
 80015e6:	3304      	adds	r3, #4
 80015e8:	681b      	ldr	r3, [r3, #0]
 80015ea:	0a1b      	lsrs	r3, r3, #8
 80015ec:	b2da      	uxtb	r2, r3
 80015ee:	687b      	ldr	r3, [r7, #4]
 80015f0:	619a      	str	r2, [r3, #24]
    pHeader->Timestamp = (CAN_RDT0R_TIME & hcan->Instance->sFIFOMailBox[RxFifo].RDTR) >> CAN_RDT0R_TIME_Pos;
 80015f2:	68fb      	ldr	r3, [r7, #12]
 80015f4:	681a      	ldr	r2, [r3, #0]
 80015f6:	68bb      	ldr	r3, [r7, #8]
 80015f8:	331b      	adds	r3, #27
 80015fa:	011b      	lsls	r3, r3, #4
 80015fc:	4413      	add	r3, r2
 80015fe:	3304      	adds	r3, #4
 8001600:	681b      	ldr	r3, [r3, #0]
 8001602:	0c1b      	lsrs	r3, r3, #16
 8001604:	b29a      	uxth	r2, r3
 8001606:	687b      	ldr	r3, [r7, #4]
 8001608:	615a      	str	r2, [r3, #20]

    /* Get the data */
    aData[0] = (uint8_t)((CAN_RDL0R_DATA0 & hcan->Instance->sFIFOMailBox[RxFifo].RDLR) >> CAN_RDL0R_DATA0_Pos);
 800160a:	68fb      	ldr	r3, [r7, #12]
 800160c:	681a      	ldr	r2, [r3, #0]
 800160e:	68bb      	ldr	r3, [r7, #8]
 8001610:	011b      	lsls	r3, r3, #4
 8001612:	4413      	add	r3, r2
 8001614:	f503 73dc 	add.w	r3, r3, #440	; 0x1b8
 8001618:	681b      	ldr	r3, [r3, #0]
 800161a:	b2da      	uxtb	r2, r3
 800161c:	683b      	ldr	r3, [r7, #0]
 800161e:	701a      	strb	r2, [r3, #0]
    aData[1] = (uint8_t)((CAN_RDL0R_DATA1 & hcan->Instance->sFIFOMailBox[RxFifo].RDLR) >> CAN_RDL0R_DATA1_Pos);
 8001620:	68fb      	ldr	r3, [r7, #12]
 8001622:	681a      	ldr	r2, [r3, #0]
 8001624:	68bb      	ldr	r3, [r7, #8]
 8001626:	011b      	lsls	r3, r3, #4
 8001628:	4413      	add	r3, r2
 800162a:	f503 73dc 	add.w	r3, r3, #440	; 0x1b8
 800162e:	681b      	ldr	r3, [r3, #0]
 8001630:	0a1a      	lsrs	r2, r3, #8
 8001632:	683b      	ldr	r3, [r7, #0]
 8001634:	3301      	adds	r3, #1
 8001636:	b2d2      	uxtb	r2, r2
 8001638:	701a      	strb	r2, [r3, #0]
    aData[2] = (uint8_t)((CAN_RDL0R_DATA2 & hcan->Instance->sFIFOMailBox[RxFifo].RDLR) >> CAN_RDL0R_DATA2_Pos);
 800163a:	68fb      	ldr	r3, [r7, #12]
 800163c:	681a      	ldr	r2, [r3, #0]
 800163e:	68bb      	ldr	r3, [r7, #8]
 8001640:	011b      	lsls	r3, r3, #4
 8001642:	4413      	add	r3, r2
 8001644:	f503 73dc 	add.w	r3, r3, #440	; 0x1b8
 8001648:	681b      	ldr	r3, [r3, #0]
 800164a:	0c1a      	lsrs	r2, r3, #16
 800164c:	683b      	ldr	r3, [r7, #0]
 800164e:	3302      	adds	r3, #2
 8001650:	b2d2      	uxtb	r2, r2
 8001652:	701a      	strb	r2, [r3, #0]
    aData[3] = (uint8_t)((CAN_RDL0R_DATA3 & hcan->Instance->sFIFOMailBox[RxFifo].RDLR) >> CAN_RDL0R_DATA3_Pos);
 8001654:	68fb      	ldr	r3, [r7, #12]
 8001656:	681a      	ldr	r2, [r3, #0]
 8001658:	68bb      	ldr	r3, [r7, #8]
 800165a:	011b      	lsls	r3, r3, #4
 800165c:	4413      	add	r3, r2
 800165e:	f503 73dc 	add.w	r3, r3, #440	; 0x1b8
 8001662:	681b      	ldr	r3, [r3, #0]
 8001664:	0e1a      	lsrs	r2, r3, #24
 8001666:	683b      	ldr	r3, [r7, #0]
 8001668:	3303      	adds	r3, #3
 800166a:	b2d2      	uxtb	r2, r2
 800166c:	701a      	strb	r2, [r3, #0]
    aData[4] = (uint8_t)((CAN_RDH0R_DATA4 & hcan->Instance->sFIFOMailBox[RxFifo].RDHR) >> CAN_RDH0R_DATA4_Pos);
 800166e:	68fb      	ldr	r3, [r7, #12]
 8001670:	681a      	ldr	r2, [r3, #0]
 8001672:	68bb      	ldr	r3, [r7, #8]
 8001674:	011b      	lsls	r3, r3, #4
 8001676:	4413      	add	r3, r2
 8001678:	f503 73de 	add.w	r3, r3, #444	; 0x1bc
 800167c:	681a      	ldr	r2, [r3, #0]
 800167e:	683b      	ldr	r3, [r7, #0]
 8001680:	3304      	adds	r3, #4
 8001682:	b2d2      	uxtb	r2, r2
 8001684:	701a      	strb	r2, [r3, #0]
    aData[5] = (uint8_t)((CAN_RDH0R_DATA5 & hcan->Instance->sFIFOMailBox[RxFifo].RDHR) >> CAN_RDH0R_DATA5_Pos);
 8001686:	68fb      	ldr	r3, [r7, #12]
 8001688:	681a      	ldr	r2, [r3, #0]
 800168a:	68bb      	ldr	r3, [r7, #8]
 800168c:	011b      	lsls	r3, r3, #4
 800168e:	4413      	add	r3, r2
 8001690:	f503 73de 	add.w	r3, r3, #444	; 0x1bc
 8001694:	681b      	ldr	r3, [r3, #0]
 8001696:	0a1a      	lsrs	r2, r3, #8
 8001698:	683b      	ldr	r3, [r7, #0]
 800169a:	3305      	adds	r3, #5
 800169c:	b2d2      	uxtb	r2, r2
 800169e:	701a      	strb	r2, [r3, #0]
    aData[6] = (uint8_t)((CAN_RDH0R_DATA6 & hcan->Instance->sFIFOMailBox[RxFifo].RDHR) >> CAN_RDH0R_DATA6_Pos);
 80016a0:	68fb      	ldr	r3, [r7, #12]
 80016a2:	681a      	ldr	r2, [r3, #0]
 80016a4:	68bb      	ldr	r3, [r7, #8]
 80016a6:	011b      	lsls	r3, r3, #4
 80016a8:	4413      	add	r3, r2
 80016aa:	f503 73de 	add.w	r3, r3, #444	; 0x1bc
 80016ae:	681b      	ldr	r3, [r3, #0]
 80016b0:	0c1a      	lsrs	r2, r3, #16
 80016b2:	683b      	ldr	r3, [r7, #0]
 80016b4:	3306      	adds	r3, #6
 80016b6:	b2d2      	uxtb	r2, r2
 80016b8:	701a      	strb	r2, [r3, #0]
    aData[7] = (uint8_t)((CAN_RDH0R_DATA7 & hcan->Instance->sFIFOMailBox[RxFifo].RDHR) >> CAN_RDH0R_DATA7_Pos);
 80016ba:	68fb      	ldr	r3, [r7, #12]
 80016bc:	681a      	ldr	r2, [r3, #0]
 80016be:	68bb      	ldr	r3, [r7, #8]
 80016c0:	011b      	lsls	r3, r3, #4
 80016c2:	4413      	add	r3, r2
 80016c4:	f503 73de 	add.w	r3, r3, #444	; 0x1bc
 80016c8:	681b      	ldr	r3, [r3, #0]
 80016ca:	0e1a      	lsrs	r2, r3, #24
 80016cc:	683b      	ldr	r3, [r7, #0]
 80016ce:	3307      	adds	r3, #7
 80016d0:	b2d2      	uxtb	r2, r2
 80016d2:	701a      	strb	r2, [r3, #0]

    /* Release the FIFO */
    if (RxFifo == CAN_RX_FIFO0) /* Rx element is assigned to Rx FIFO 0 */
 80016d4:	68bb      	ldr	r3, [r7, #8]
 80016d6:	2b00      	cmp	r3, #0
 80016d8:	d108      	bne.n	80016ec <HAL_CAN_GetRxMessage+0x1f6>
    {
      /* Release RX FIFO 0 */
      SET_BIT(hcan->Instance->RF0R, CAN_RF0R_RFOM0);
 80016da:	68fb      	ldr	r3, [r7, #12]
 80016dc:	681b      	ldr	r3, [r3, #0]
 80016de:	68da      	ldr	r2, [r3, #12]
 80016e0:	68fb      	ldr	r3, [r7, #12]
 80016e2:	681b      	ldr	r3, [r3, #0]
 80016e4:	f042 0220 	orr.w	r2, r2, #32
 80016e8:	60da      	str	r2, [r3, #12]
 80016ea:	e007      	b.n	80016fc <HAL_CAN_GetRxMessage+0x206>
    }
    else /* Rx element is assigned to Rx FIFO 1 */
    {
      /* Release RX FIFO 1 */
      SET_BIT(hcan->Instance->RF1R, CAN_RF1R_RFOM1);
 80016ec:	68fb      	ldr	r3, [r7, #12]
 80016ee:	681b      	ldr	r3, [r3, #0]
 80016f0:	691a      	ldr	r2, [r3, #16]
 80016f2:	68fb      	ldr	r3, [r7, #12]
 80016f4:	681b      	ldr	r3, [r3, #0]
 80016f6:	f042 0220 	orr.w	r2, r2, #32
 80016fa:	611a      	str	r2, [r3, #16]
    }

    /* Return function status */
    return HAL_OK;
 80016fc:	2300      	movs	r3, #0
 80016fe:	e006      	b.n	800170e <HAL_CAN_GetRxMessage+0x218>
  }
  else
  {
    /* Update error code */
    hcan->ErrorCode |= HAL_CAN_ERROR_NOT_INITIALIZED;
 8001700:	68fb      	ldr	r3, [r7, #12]
 8001702:	6a5b      	ldr	r3, [r3, #36]	; 0x24
 8001704:	f443 2280 	orr.w	r2, r3, #262144	; 0x40000
 8001708:	68fb      	ldr	r3, [r7, #12]
 800170a:	625a      	str	r2, [r3, #36]	; 0x24

    return HAL_ERROR;
 800170c:	2301      	movs	r3, #1
  }
}
 800170e:	4618      	mov	r0, r3
 8001710:	371c      	adds	r7, #28
 8001712:	46bd      	mov	sp, r7
 8001714:	f85d 7b04 	ldr.w	r7, [sp], #4
 8001718:	4770      	bx	lr

0800171a <HAL_CAN_ActivateNotification>:
  * @param  ActiveITs indicates which interrupts will be enabled.
  *         This parameter can be any combination of @arg CAN_Interrupts.
  * @retval HAL status
  */
HAL_StatusTypeDef HAL_CAN_ActivateNotification(CAN_HandleTypeDef *hcan, uint32_t ActiveITs)
{
 800171a:	b480      	push	{r7}
 800171c:	b085      	sub	sp, #20
 800171e:	af00      	add	r7, sp, #0
 8001720:	6078      	str	r0, [r7, #4]
 8001722:	6039      	str	r1, [r7, #0]
  HAL_CAN_StateTypeDef state = hcan->State;
 8001724:	687b      	ldr	r3, [r7, #4]
 8001726:	f893 3020 	ldrb.w	r3, [r3, #32]
 800172a:	73fb      	strb	r3, [r7, #15]

  /* Check function parameters */
  assert_param(IS_CAN_IT(ActiveITs));

  if ((state == HAL_CAN_STATE_READY) ||
 800172c:	7bfb      	ldrb	r3, [r7, #15]
 800172e:	2b01      	cmp	r3, #1
 8001730:	d002      	beq.n	8001738 <HAL_CAN_ActivateNotification+0x1e>
 8001732:	7bfb      	ldrb	r3, [r7, #15]
 8001734:	2b02      	cmp	r3, #2
 8001736:	d109      	bne.n	800174c <HAL_CAN_ActivateNotification+0x32>
      (state == HAL_CAN_STATE_LISTENING))
  {
    /* Enable the selected interrupts */
    __HAL_CAN_ENABLE_IT(hcan, ActiveITs);
 8001738:	687b      	ldr	r3, [r7, #4]
 800173a:	681b      	ldr	r3, [r3, #0]
 800173c:	6959      	ldr	r1, [r3, #20]
 800173e:	687b      	ldr	r3, [r7, #4]
 8001740:	681b      	ldr	r3, [r3, #0]
 8001742:	683a      	ldr	r2, [r7, #0]
 8001744:	430a      	orrs	r2, r1
 8001746:	615a      	str	r2, [r3, #20]

    /* Return function status */
    return HAL_OK;
 8001748:	2300      	movs	r3, #0
 800174a:	e006      	b.n	800175a <HAL_CAN_ActivateNotification+0x40>
  }
  else
  {
    /* Update error code */
    hcan->ErrorCode |= HAL_CAN_ERROR_NOT_INITIALIZED;
 800174c:	687b      	ldr	r3, [r7, #4]
 800174e:	6a5b      	ldr	r3, [r3, #36]	; 0x24
 8001750:	f443 2280 	orr.w	r2, r3, #262144	; 0x40000
 8001754:	687b      	ldr	r3, [r7, #4]
 8001756:	625a      	str	r2, [r3, #36]	; 0x24

    return HAL_ERROR;
 8001758:	2301      	movs	r3, #1
  }
}
 800175a:	4618      	mov	r0, r3
 800175c:	3714      	adds	r7, #20
 800175e:	46bd      	mov	sp, r7
 8001760:	f85d 7b04 	ldr.w	r7, [sp], #4
 8001764:	4770      	bx	lr

08001766 <HAL_CAN_IRQHandler>:
  * @param  hcan pointer to a CAN_HandleTypeDef structure that contains
  *         the configuration information for the specified CAN.
  * @retval None
  */
void HAL_CAN_IRQHandler(CAN_HandleTypeDef *hcan)
{
 8001766:	b580      	push	{r7, lr}
 8001768:	b08a      	sub	sp, #40	; 0x28
 800176a:	af00      	add	r7, sp, #0
 800176c:	6078      	str	r0, [r7, #4]
  uint32_t errorcode = HAL_CAN_ERROR_NONE;
 800176e:	2300      	movs	r3, #0
 8001770:	627b      	str	r3, [r7, #36]	; 0x24
  uint32_t interrupts = READ_REG(hcan->Instance->IER);
 8001772:	687b      	ldr	r3, [r7, #4]
 8001774:	681b      	ldr	r3, [r3, #0]
 8001776:	695b      	ldr	r3, [r3, #20]
 8001778:	623b      	str	r3, [r7, #32]
  uint32_t msrflags = READ_REG(hcan->Instance->MSR);
 800177a:	687b      	ldr	r3, [r7, #4]
 800177c:	681b      	ldr	r3, [r3, #0]
 800177e:	685b      	ldr	r3, [r3, #4]
 8001780:	61fb      	str	r3, [r7, #28]
  uint32_t tsrflags = READ_REG(hcan->Instance->TSR);
 8001782:	687b      	ldr	r3, [r7, #4]
 8001784:	681b      	ldr	r3, [r3, #0]
 8001786:	689b      	ldr	r3, [r3, #8]
 8001788:	61bb      	str	r3, [r7, #24]
  uint32_t rf0rflags = READ_REG(hcan->Instance->RF0R);
 800178a:	687b      	ldr	r3, [r7, #4]
 800178c:	681b      	ldr	r3, [r3, #0]
 800178e:	68db      	ldr	r3, [r3, #12]
 8001790:	617b      	str	r3, [r7, #20]
  uint32_t rf1rflags = READ_REG(hcan->Instance->RF1R);
 8001792:	687b      	ldr	r3, [r7, #4]
 8001794:	681b      	ldr	r3, [r3, #0]
 8001796:	691b      	ldr	r3, [r3, #16]
 8001798:	613b      	str	r3, [r7, #16]
  uint32_t esrflags = READ_REG(hcan->Instance->ESR);
 800179a:	687b      	ldr	r3, [r7, #4]
 800179c:	681b      	ldr	r3, [r3, #0]
 800179e:	699b      	ldr	r3, [r3, #24]
 80017a0:	60fb      	str	r3, [r7, #12]

  /* Transmit Mailbox empty interrupt management *****************************/
  if ((interrupts & CAN_IT_TX_MAILBOX_EMPTY) != 0U)
 80017a2:	6a3b      	ldr	r3, [r7, #32]
 80017a4:	f003 0301 	and.w	r3, r3, #1
 80017a8:	2b00      	cmp	r3, #0
 80017aa:	d07c      	beq.n	80018a6 <HAL_CAN_IRQHandler+0x140>
  {
    /* Transmit Mailbox 0 management *****************************************/
    if ((tsrflags & CAN_TSR_RQCP0) != 0U)
 80017ac:	69bb      	ldr	r3, [r7, #24]
 80017ae:	f003 0301 	and.w	r3, r3, #1
 80017b2:	2b00      	cmp	r3, #0
 80017b4:	d023      	beq.n	80017fe <HAL_CAN_IRQHandler+0x98>
    {
      /* Clear the Transmission Complete flag (and TXOK0,ALST0,TERR0 bits) */
      __HAL_CAN_CLEAR_FLAG(hcan, CAN_FLAG_RQCP0);
 80017b6:	687b      	ldr	r3, [r7, #4]
 80017b8:	681b      	ldr	r3, [r3, #0]
 80017ba:	2201      	movs	r2, #1
 80017bc:	609a      	str	r2, [r3, #8]

      if ((tsrflags & CAN_TSR_TXOK0) != 0U)
 80017be:	69bb      	ldr	r3, [r7, #24]
 80017c0:	f003 0302 	and.w	r3, r3, #2
 80017c4:	2b00      	cmp	r3, #0
 80017c6:	d003      	beq.n	80017d0 <HAL_CAN_IRQHandler+0x6a>
#if USE_HAL_CAN_REGISTER_CALLBACKS == 1
        /* Call registered callback*/
        hcan->TxMailbox0CompleteCallback(hcan);
#else
        /* Call weak (surcharged) callback */
        HAL_CAN_TxMailbox0CompleteCallback(hcan);
 80017c8:	6878      	ldr	r0, [r7, #4]
 80017ca:	f7ff f8a1 	bl	8000910 <HAL_CAN_TxMailbox0CompleteCallback>
 80017ce:	e016      	b.n	80017fe <HAL_CAN_IRQHandler+0x98>
#endif /* USE_HAL_CAN_REGISTER_CALLBACKS */
      }
      else
      {
        if ((tsrflags & CAN_TSR_ALST0) != 0U)
 80017d0:	69bb      	ldr	r3, [r7, #24]
 80017d2:	f003 0304 	and.w	r3, r3, #4
 80017d6:	2b00      	cmp	r3, #0
 80017d8:	d004      	beq.n	80017e4 <HAL_CAN_IRQHandler+0x7e>
        {
          /* Update error code */
          errorcode |= HAL_CAN_ERROR_TX_ALST0;
 80017da:	6a7b      	ldr	r3, [r7, #36]	; 0x24
 80017dc:	f443 6300 	orr.w	r3, r3, #2048	; 0x800
 80017e0:	627b      	str	r3, [r7, #36]	; 0x24
 80017e2:	e00c      	b.n	80017fe <HAL_CAN_IRQHandler+0x98>
        }
        else if ((tsrflags & CAN_TSR_TERR0) != 0U)
 80017e4:	69bb      	ldr	r3, [r7, #24]
 80017e6:	f003 0308 	and.w	r3, r3, #8
 80017ea:	2b00      	cmp	r3, #0
 80017ec:	d004      	beq.n	80017f8 <HAL_CAN_IRQHandler+0x92>
        {
          /* Update error code */
          errorcode |= HAL_CAN_ERROR_TX_TERR0;
 80017ee:	6a7b      	ldr	r3, [r7, #36]	; 0x24
 80017f0:	f443 5380 	orr.w	r3, r3, #4096	; 0x1000
 80017f4:	627b      	str	r3, [r7, #36]	; 0x24
 80017f6:	e002      	b.n	80017fe <HAL_CAN_IRQHandler+0x98>
#if USE_HAL_CAN_REGISTER_CALLBACKS == 1
          /* Call registered callback*/
          hcan->TxMailbox0AbortCallback(hcan);
#else
          /* Call weak (surcharged) callback */
          HAL_CAN_TxMailbox0AbortCallback(hcan);
 80017f8:	6878      	ldr	r0, [r7, #4]
 80017fa:	f000 f965 	bl	8001ac8 <HAL_CAN_TxMailbox0AbortCallback>
        }
      }
    }

    /* Transmit Mailbox 1 management *****************************************/
    if ((tsrflags & CAN_TSR_RQCP1) != 0U)
 80017fe:	69bb      	ldr	r3, [r7, #24]
 8001800:	f403 7380 	and.w	r3, r3, #256	; 0x100
 8001804:	2b00      	cmp	r3, #0
 8001806:	d024      	beq.n	8001852 <HAL_CAN_IRQHandler+0xec>
    {
      /* Clear the Transmission Complete flag (and TXOK1,ALST1,TERR1 bits) */
      __HAL_CAN_CLEAR_FLAG(hcan, CAN_FLAG_RQCP1);
 8001808:	687b      	ldr	r3, [r7, #4]
 800180a:	681b      	ldr	r3, [r3, #0]
 800180c:	f44f 7280 	mov.w	r2, #256	; 0x100
 8001810:	609a      	str	r2, [r3, #8]

      if ((tsrflags & CAN_TSR_TXOK1) != 0U)
 8001812:	69bb      	ldr	r3, [r7, #24]
 8001814:	f403 7300 	and.w	r3, r3, #512	; 0x200
 8001818:	2b00      	cmp	r3, #0
 800181a:	d003      	beq.n	8001824 <HAL_CAN_IRQHandler+0xbe>
#if USE_HAL_CAN_REGISTER_CALLBACKS == 1
        /* Call registered callback*/
        hcan->TxMailbox1CompleteCallback(hcan);
#else
        /* Call weak (surcharged) callback */
        HAL_CAN_TxMailbox1CompleteCallback(hcan);
 800181c:	6878      	ldr	r0, [r7, #4]
 800181e:	f7ff f89d 	bl	800095c <HAL_CAN_TxMailbox1CompleteCallback>
 8001822:	e016      	b.n	8001852 <HAL_CAN_IRQHandler+0xec>
#endif /* USE_HAL_CAN_REGISTER_CALLBACKS */
      }
      else
      {
        if ((tsrflags & CAN_TSR_ALST1) != 0U)
 8001824:	69bb      	ldr	r3, [r7, #24]
 8001826:	f403 6380 	and.w	r3, r3, #1024	; 0x400
 800182a:	2b00      	cmp	r3, #0
 800182c:	d004      	beq.n	8001838 <HAL_CAN_IRQHandler+0xd2>
        {
          /* Update error code */
          errorcode |= HAL_CAN_ERROR_TX_ALST1;
 800182e:	6a7b      	ldr	r3, [r7, #36]	; 0x24
 8001830:	f443 5300 	orr.w	r3, r3, #8192	; 0x2000
 8001834:	627b      	str	r3, [r7, #36]	; 0x24
 8001836:	e00c      	b.n	8001852 <HAL_CAN_IRQHandler+0xec>
        }
        else if ((tsrflags & CAN_TSR_TERR1) != 0U)
 8001838:	69bb      	ldr	r3, [r7, #24]
 800183a:	f403 6300 	and.w	r3, r3, #2048	; 0x800
 800183e:	2b00      	cmp	r3, #0
 8001840:	d004      	beq.n	800184c <HAL_CAN_IRQHandler+0xe6>
        {
          /* Update error code */
          errorcode |= HAL_CAN_ERROR_TX_TERR1;
 8001842:	6a7b      	ldr	r3, [r7, #36]	; 0x24
 8001844:	f443 4380 	orr.w	r3, r3, #16384	; 0x4000
 8001848:	627b      	str	r3, [r7, #36]	; 0x24
 800184a:	e002      	b.n	8001852 <HAL_CAN_IRQHandler+0xec>
#if USE_HAL_CAN_REGISTER_CALLBACKS == 1
          /* Call registered callback*/
          hcan->TxMailbox1AbortCallback(hcan);
#else
          /* Call weak (surcharged) callback */
          HAL_CAN_TxMailbox1AbortCallback(hcan);
 800184c:	6878      	ldr	r0, [r7, #4]
 800184e:	f000 f945 	bl	8001adc <HAL_CAN_TxMailbox1AbortCallback>
        }
      }
    }

    /* Transmit Mailbox 2 management *****************************************/
    if ((tsrflags & CAN_TSR_RQCP2) != 0U)
 8001852:	69bb      	ldr	r3, [r7, #24]
 8001854:	f403 3380 	and.w	r3, r3, #65536	; 0x10000
 8001858:	2b00      	cmp	r3, #0
 800185a:	d024      	beq.n	80018a6 <HAL_CAN_IRQHandler+0x140>
    {
      /* Clear the Transmission Complete flag (and TXOK2,ALST2,TERR2 bits) */
      __HAL_CAN_CLEAR_FLAG(hcan, CAN_FLAG_RQCP2);
 800185c:	687b      	ldr	r3, [r7, #4]
 800185e:	681b      	ldr	r3, [r3, #0]
 8001860:	f44f 3280 	mov.w	r2, #65536	; 0x10000
 8001864:	609a      	str	r2, [r3, #8]

      if ((tsrflags & CAN_TSR_TXOK2) != 0U)
 8001866:	69bb      	ldr	r3, [r7, #24]
 8001868:	f403 3300 	and.w	r3, r3, #131072	; 0x20000
 800186c:	2b00      	cmp	r3, #0
 800186e:	d003      	beq.n	8001878 <HAL_CAN_IRQHandler+0x112>
#if USE_HAL_CAN_REGISTER_CALLBACKS == 1
        /* Call registered callback*/
        hcan->TxMailbox2CompleteCallback(hcan);
#else
        /* Call weak (surcharged) callback */
        HAL_CAN_TxMailbox2CompleteCallback(hcan);
 8001870:	6878      	ldr	r0, [r7, #4]
 8001872:	f7ff f899 	bl	80009a8 <HAL_CAN_TxMailbox2CompleteCallback>
 8001876:	e016      	b.n	80018a6 <HAL_CAN_IRQHandler+0x140>
#endif /* USE_HAL_CAN_REGISTER_CALLBACKS */
      }
      else
      {
        if ((tsrflags & CAN_TSR_ALST2) != 0U)
 8001878:	69bb      	ldr	r3, [r7, #24]
 800187a:	f403 2380 	and.w	r3, r3, #262144	; 0x40000
 800187e:	2b00      	cmp	r3, #0
 8001880:	d004      	beq.n	800188c <HAL_CAN_IRQHandler+0x126>
        {
          /* Update error code */
          errorcode |= HAL_CAN_ERROR_TX_ALST2;
 8001882:	6a7b      	ldr	r3, [r7, #36]	; 0x24
 8001884:	f443 4300 	orr.w	r3, r3, #32768	; 0x8000
 8001888:	627b      	str	r3, [r7, #36]	; 0x24
 800188a:	e00c      	b.n	80018a6 <HAL_CAN_IRQHandler+0x140>
        }
        else if ((tsrflags & CAN_TSR_TERR2) != 0U)
 800188c:	69bb      	ldr	r3, [r7, #24]
 800188e:	f403 2300 	and.w	r3, r3, #524288	; 0x80000
 8001892:	2b00      	cmp	r3, #0
 8001894:	d004      	beq.n	80018a0 <HAL_CAN_IRQHandler+0x13a>
        {
          /* Update error code */
          errorcode |= HAL_CAN_ERROR_TX_TERR2;
 8001896:	6a7b      	ldr	r3, [r7, #36]	; 0x24
 8001898:	f443 3380 	orr.w	r3, r3, #65536	; 0x10000
 800189c:	627b      	str	r3, [r7, #36]	; 0x24
 800189e:	e002      	b.n	80018a6 <HAL_CAN_IRQHandler+0x140>
#if USE_HAL_CAN_REGISTER_CALLBACKS == 1
          /* Call registered callback*/
          hcan->TxMailbox2AbortCallback(hcan);
#else
          /* Call weak (surcharged) callback */
          HAL_CAN_TxMailbox2AbortCallback(hcan);
 80018a0:	6878      	ldr	r0, [r7, #4]
 80018a2:	f000 f925 	bl	8001af0 <HAL_CAN_TxMailbox2AbortCallback>
      }
    }
  }

  /* Receive FIFO 0 overrun interrupt management *****************************/
  if ((interrupts & CAN_IT_RX_FIFO0_OVERRUN) != 0U)
 80018a6:	6a3b      	ldr	r3, [r7, #32]
 80018a8:	f003 0308 	and.w	r3, r3, #8
 80018ac:	2b00      	cmp	r3, #0
 80018ae:	d00c      	beq.n	80018ca <HAL_CAN_IRQHandler+0x164>
  {
    if ((rf0rflags & CAN_RF0R_FOVR0) != 0U)
 80018b0:	697b      	ldr	r3, [r7, #20]
 80018b2:	f003 0310 	and.w	r3, r3, #16
 80018b6:	2b00      	cmp	r3, #0
 80018b8:	d007      	beq.n	80018ca <HAL_CAN_IRQHandler+0x164>
    {
      /* Set CAN error code to Rx Fifo 0 overrun error */
      errorcode |= HAL_CAN_ERROR_RX_FOV0;
 80018ba:	6a7b      	ldr	r3, [r7, #36]	; 0x24
 80018bc:	f443 7300 	orr.w	r3, r3, #512	; 0x200
 80018c0:	627b      	str	r3, [r7, #36]	; 0x24

      /* Clear FIFO0 Overrun Flag */
      __HAL_CAN_CLEAR_FLAG(hcan, CAN_FLAG_FOV0);
 80018c2:	687b      	ldr	r3, [r7, #4]
 80018c4:	681b      	ldr	r3, [r3, #0]
 80018c6:	2210      	movs	r2, #16
 80018c8:	60da      	str	r2, [r3, #12]
    }
  }

  /* Receive FIFO 0 full interrupt management ********************************/
  if ((interrupts & CAN_IT_RX_FIFO0_FULL) != 0U)
 80018ca:	6a3b      	ldr	r3, [r7, #32]
 80018cc:	f003 0304 	and.w	r3, r3, #4
 80018d0:	2b00      	cmp	r3, #0
 80018d2:	d00b      	beq.n	80018ec <HAL_CAN_IRQHandler+0x186>
  {
    if ((rf0rflags & CAN_RF0R_FULL0) != 0U)
 80018d4:	697b      	ldr	r3, [r7, #20]
 80018d6:	f003 0308 	and.w	r3, r3, #8
 80018da:	2b00      	cmp	r3, #0
 80018dc:	d006      	beq.n	80018ec <HAL_CAN_IRQHandler+0x186>
    {
      /* Clear FIFO 0 full Flag */
      __HAL_CAN_CLEAR_FLAG(hcan, CAN_FLAG_FF0);
 80018de:	687b      	ldr	r3, [r7, #4]
 80018e0:	681b      	ldr	r3, [r3, #0]
 80018e2:	2208      	movs	r2, #8
 80018e4:	60da      	str	r2, [r3, #12]
#if USE_HAL_CAN_REGISTER_CALLBACKS == 1
      /* Call registered callback*/
      hcan->RxFifo0FullCallback(hcan);
#else
      /* Call weak (surcharged) callback */
      HAL_CAN_RxFifo0FullCallback(hcan);
 80018e6:	6878      	ldr	r0, [r7, #4]
 80018e8:	f000 f90c 	bl	8001b04 <HAL_CAN_RxFifo0FullCallback>
#endif /* USE_HAL_CAN_REGISTER_CALLBACKS */
    }
  }

  /* Receive FIFO 0 message pending interrupt management *********************/
  if ((interrupts & CAN_IT_RX_FIFO0_MSG_PENDING) != 0U)
 80018ec:	6a3b      	ldr	r3, [r7, #32]
 80018ee:	f003 0302 	and.w	r3, r3, #2
 80018f2:	2b00      	cmp	r3, #0
 80018f4:	d009      	beq.n	800190a <HAL_CAN_IRQHandler+0x1a4>
  {
    /* Check if message is still pending */
    if ((hcan->Instance->RF0R & CAN_RF0R_FMP0) != 0U)
 80018f6:	687b      	ldr	r3, [r7, #4]
 80018f8:	681b      	ldr	r3, [r3, #0]
 80018fa:	68db      	ldr	r3, [r3, #12]
 80018fc:	f003 0303 	and.w	r3, r3, #3
 8001900:	2b00      	cmp	r3, #0
 8001902:	d002      	beq.n	800190a <HAL_CAN_IRQHandler+0x1a4>
#if USE_HAL_CAN_REGISTER_CALLBACKS == 1
      /* Call registered callback*/
      hcan->RxFifo0MsgPendingCallback(hcan);
#else
      /* Call weak (surcharged) callback */
      HAL_CAN_RxFifo0MsgPendingCallback(hcan);
 8001904:	6878      	ldr	r0, [r7, #4]
 8001906:	f7ff f875 	bl	80009f4 <HAL_CAN_RxFifo0MsgPendingCallback>
#endif /* USE_HAL_CAN_REGISTER_CALLBACKS */
    }
  }

  /* Receive FIFO 1 overrun interrupt management *****************************/
  if ((interrupts & CAN_IT_RX_FIFO1_OVERRUN) != 0U)
 800190a:	6a3b      	ldr	r3, [r7, #32]
 800190c:	f003 0340 	and.w	r3, r3, #64	; 0x40
 8001910:	2b00      	cmp	r3, #0
 8001912:	d00c      	beq.n	800192e <HAL_CAN_IRQHandler+0x1c8>
  {
    if ((rf1rflags & CAN_RF1R_FOVR1) != 0U)
 8001914:	693b      	ldr	r3, [r7, #16]
 8001916:	f003 0310 	and.w	r3, r3, #16
 800191a:	2b00      	cmp	r3, #0
 800191c:	d007      	beq.n	800192e <HAL_CAN_IRQHandler+0x1c8>
    {
      /* Set CAN error code to Rx Fifo 1 overrun error */
      errorcode |= HAL_CAN_ERROR_RX_FOV1;
 800191e:	6a7b      	ldr	r3, [r7, #36]	; 0x24
 8001920:	f443 6380 	orr.w	r3, r3, #1024	; 0x400
 8001924:	627b      	str	r3, [r7, #36]	; 0x24

      /* Clear FIFO1 Overrun Flag */
      __HAL_CAN_CLEAR_FLAG(hcan, CAN_FLAG_FOV1);
 8001926:	687b      	ldr	r3, [r7, #4]
 8001928:	681b      	ldr	r3, [r3, #0]
 800192a:	2210      	movs	r2, #16
 800192c:	611a      	str	r2, [r3, #16]
    }
  }

  /* Receive FIFO 1 full interrupt management ********************************/
  if ((interrupts & CAN_IT_RX_FIFO1_FULL) != 0U)
 800192e:	6a3b      	ldr	r3, [r7, #32]
 8001930:	f003 0320 	and.w	r3, r3, #32
 8001934:	2b00      	cmp	r3, #0
 8001936:	d00b      	beq.n	8001950 <HAL_CAN_IRQHandler+0x1ea>
  {
    if ((rf1rflags & CAN_RF1R_FULL1) != 0U)
 8001938:	693b      	ldr	r3, [r7, #16]
 800193a:	f003 0308 	and.w	r3, r3, #8
 800193e:	2b00      	cmp	r3, #0
 8001940:	d006      	beq.n	8001950 <HAL_CAN_IRQHandler+0x1ea>
    {
      /* Clear FIFO 1 full Flag */
      __HAL_CAN_CLEAR_FLAG(hcan, CAN_FLAG_FF1);
 8001942:	687b      	ldr	r3, [r7, #4]
 8001944:	681b      	ldr	r3, [r3, #0]
 8001946:	2208      	movs	r2, #8
 8001948:	611a      	str	r2, [r3, #16]
#if USE_HAL_CAN_REGISTER_CALLBACKS == 1
      /* Call registered callback*/
      hcan->RxFifo1FullCallback(hcan);
#else
      /* Call weak (surcharged) callback */
      HAL_CAN_RxFifo1FullCallback(hcan);
 800194a:	6878      	ldr	r0, [r7, #4]
 800194c:	f000 f8ee 	bl	8001b2c <HAL_CAN_RxFifo1FullCallback>
#endif /* USE_HAL_CAN_REGISTER_CALLBACKS */
    }
  }

  /* Receive FIFO 1 message pending interrupt management *********************/
  if ((interrupts & CAN_IT_RX_FIFO1_MSG_PENDING) != 0U)
 8001950:	6a3b      	ldr	r3, [r7, #32]
 8001952:	f003 0310 	and.w	r3, r3, #16
 8001956:	2b00      	cmp	r3, #0
 8001958:	d009      	beq.n	800196e <HAL_CAN_IRQHandler+0x208>
  {
    /* Check if message is still pending */
    if ((hcan->Instance->RF1R & CAN_RF1R_FMP1) != 0U)
 800195a:	687b      	ldr	r3, [r7, #4]
 800195c:	681b      	ldr	r3, [r3, #0]
 800195e:	691b      	ldr	r3, [r3, #16]
 8001960:	f003 0303 	and.w	r3, r3, #3
 8001964:	2b00      	cmp	r3, #0
 8001966:	d002      	beq.n	800196e <HAL_CAN_IRQHandler+0x208>
#if USE_HAL_CAN_REGISTER_CALLBACKS == 1
      /* Call registered callback*/
      hcan->RxFifo1MsgPendingCallback(hcan);
#else
      /* Call weak (surcharged) callback */
      HAL_CAN_RxFifo1MsgPendingCallback(hcan);
 8001968:	6878      	ldr	r0, [r7, #4]
 800196a:	f000 f8d5 	bl	8001b18 <HAL_CAN_RxFifo1MsgPendingCallback>
#endif /* USE_HAL_CAN_REGISTER_CALLBACKS */
    }
  }

  /* Sleep interrupt management *********************************************/
  if ((interrupts & CAN_IT_SLEEP_ACK) != 0U)
 800196e:	6a3b      	ldr	r3, [r7, #32]
 8001970:	f403 3300 	and.w	r3, r3, #131072	; 0x20000
 8001974:	2b00      	cmp	r3, #0
 8001976:	d00b      	beq.n	8001990 <HAL_CAN_IRQHandler+0x22a>
  {
    if ((msrflags & CAN_MSR_SLAKI) != 0U)
 8001978:	69fb      	ldr	r3, [r7, #28]
 800197a:	f003 0310 	and.w	r3, r3, #16
 800197e:	2b00      	cmp	r3, #0
 8001980:	d006      	beq.n	8001990 <HAL_CAN_IRQHandler+0x22a>
    {
      /* Clear Sleep interrupt Flag */
      __HAL_CAN_CLEAR_FLAG(hcan, CAN_FLAG_SLAKI);
 8001982:	687b      	ldr	r3, [r7, #4]
 8001984:	681b      	ldr	r3, [r3, #0]
 8001986:	2210      	movs	r2, #16
 8001988:	605a      	str	r2, [r3, #4]
#if USE_HAL_CAN_REGISTER_CALLBACKS == 1
      /* Call registered callback*/
      hcan->SleepCallback(hcan);
#else
      /* Call weak (surcharged) callback */
      HAL_CAN_SleepCallback(hcan);
 800198a:	6878      	ldr	r0, [r7, #4]
 800198c:	f000 f8d8 	bl	8001b40 <HAL_CAN_SleepCallback>
#endif /* USE_HAL_CAN_REGISTER_CALLBACKS */
    }
  }

  /* WakeUp interrupt management *********************************************/
  if ((interrupts & CAN_IT_WAKEUP) != 0U)
 8001990:	6a3b      	ldr	r3, [r7, #32]
 8001992:	f403 3380 	and.w	r3, r3, #65536	; 0x10000
 8001996:	2b00      	cmp	r3, #0
 8001998:	d00b      	beq.n	80019b2 <HAL_CAN_IRQHandler+0x24c>
  {
    if ((msrflags & CAN_MSR_WKUI) != 0U)
 800199a:	69fb      	ldr	r3, [r7, #28]
 800199c:	f003 0308 	and.w	r3, r3, #8
 80019a0:	2b00      	cmp	r3, #0
 80019a2:	d006      	beq.n	80019b2 <HAL_CAN_IRQHandler+0x24c>
    {
      /* Clear WakeUp Flag */
      __HAL_CAN_CLEAR_FLAG(hcan, CAN_FLAG_WKU);
 80019a4:	687b      	ldr	r3, [r7, #4]
 80019a6:	681b      	ldr	r3, [r3, #0]
 80019a8:	2208      	movs	r2, #8
 80019aa:	605a      	str	r2, [r3, #4]
#if USE_HAL_CAN_REGISTER_CALLBACKS == 1
      /* Call registered callback*/
      hcan->WakeUpFromRxMsgCallback(hcan);
#else
      /* Call weak (surcharged) callback */
      HAL_CAN_WakeUpFromRxMsgCallback(hcan);
 80019ac:	6878      	ldr	r0, [r7, #4]
 80019ae:	f000 f8d1 	bl	8001b54 <HAL_CAN_WakeUpFromRxMsgCallback>
#endif /* USE_HAL_CAN_REGISTER_CALLBACKS */
    }
  }

  /* Error interrupts management *********************************************/
  if ((interrupts & CAN_IT_ERROR) != 0U)
 80019b2:	6a3b      	ldr	r3, [r7, #32]
 80019b4:	f403 4300 	and.w	r3, r3, #32768	; 0x8000
 80019b8:	2b00      	cmp	r3, #0
 80019ba:	d075      	beq.n	8001aa8 <HAL_CAN_IRQHandler+0x342>
  {
    if ((msrflags & CAN_MSR_ERRI) != 0U)
 80019bc:	69fb      	ldr	r3, [r7, #28]
 80019be:	f003 0304 	and.w	r3, r3, #4
 80019c2:	2b00      	cmp	r3, #0
 80019c4:	d06c      	beq.n	8001aa0 <HAL_CAN_IRQHandler+0x33a>
    {
      /* Check Error Warning Flag */
      if (((interrupts & CAN_IT_ERROR_WARNING) != 0U) &&
 80019c6:	6a3b      	ldr	r3, [r7, #32]
 80019c8:	f403 7380 	and.w	r3, r3, #256	; 0x100
 80019cc:	2b00      	cmp	r3, #0
 80019ce:	d008      	beq.n	80019e2 <HAL_CAN_IRQHandler+0x27c>
          ((esrflags & CAN_ESR_EWGF) != 0U))
 80019d0:	68fb      	ldr	r3, [r7, #12]
 80019d2:	f003 0301 	and.w	r3, r3, #1
      if (((interrupts & CAN_IT_ERROR_WARNING) != 0U) &&
 80019d6:	2b00      	cmp	r3, #0
 80019d8:	d003      	beq.n	80019e2 <HAL_CAN_IRQHandler+0x27c>
      {
        /* Set CAN error code to Error Warning */
        errorcode |= HAL_CAN_ERROR_EWG;
 80019da:	6a7b      	ldr	r3, [r7, #36]	; 0x24
 80019dc:	f043 0301 	orr.w	r3, r3, #1
 80019e0:	627b      	str	r3, [r7, #36]	; 0x24

        /* No need for clear of Error Warning Flag as read-only */
      }

      /* Check Error Passive Flag */
      if (((interrupts & CAN_IT_ERROR_PASSIVE) != 0U) &&
 80019e2:	6a3b      	ldr	r3, [r7, #32]
 80019e4:	f403 7300 	and.w	r3, r3, #512	; 0x200
 80019e8:	2b00      	cmp	r3, #0
 80019ea:	d008      	beq.n	80019fe <HAL_CAN_IRQHandler+0x298>
          ((esrflags & CAN_ESR_EPVF) != 0U))
 80019ec:	68fb      	ldr	r3, [r7, #12]
 80019ee:	f003 0302 	and.w	r3, r3, #2
      if (((interrupts & CAN_IT_ERROR_PASSIVE) != 0U) &&
 80019f2:	2b00      	cmp	r3, #0
 80019f4:	d003      	beq.n	80019fe <HAL_CAN_IRQHandler+0x298>
      {
        /* Set CAN error code to Error Passive */
        errorcode |= HAL_CAN_ERROR_EPV;
 80019f6:	6a7b      	ldr	r3, [r7, #36]	; 0x24
 80019f8:	f043 0302 	orr.w	r3, r3, #2
 80019fc:	627b      	str	r3, [r7, #36]	; 0x24

        /* No need for clear of Error Passive Flag as read-only */
      }

      /* Check Bus-off Flag */
      if (((interrupts & CAN_IT_BUSOFF) != 0U) &&
 80019fe:	6a3b      	ldr	r3, [r7, #32]
 8001a00:	f403 6380 	and.w	r3, r3, #1024	; 0x400
 8001a04:	2b00      	cmp	r3, #0
 8001a06:	d008      	beq.n	8001a1a <HAL_CAN_IRQHandler+0x2b4>
          ((esrflags & CAN_ESR_BOFF) != 0U))
 8001a08:	68fb      	ldr	r3, [r7, #12]
 8001a0a:	f003 0304 	and.w	r3, r3, #4
      if (((interrupts & CAN_IT_BUSOFF) != 0U) &&
 8001a0e:	2b00      	cmp	r3, #0
 8001a10:	d003      	beq.n	8001a1a <HAL_CAN_IRQHandler+0x2b4>
      {
        /* Set CAN error code to Bus-Off */
        errorcode |= HAL_CAN_ERROR_BOF;
 8001a12:	6a7b      	ldr	r3, [r7, #36]	; 0x24
 8001a14:	f043 0304 	orr.w	r3, r3, #4
 8001a18:	627b      	str	r3, [r7, #36]	; 0x24

        /* No need for clear of Error Bus-Off as read-only */
      }

      /* Check Last Error Code Flag */
      if (((interrupts & CAN_IT_LAST_ERROR_CODE) != 0U) &&
 8001a1a:	6a3b      	ldr	r3, [r7, #32]
 8001a1c:	f403 6300 	and.w	r3, r3, #2048	; 0x800
 8001a20:	2b00      	cmp	r3, #0
 8001a22:	d03d      	beq.n	8001aa0 <HAL_CAN_IRQHandler+0x33a>
          ((esrflags & CAN_ESR_LEC) != 0U))
 8001a24:	68fb      	ldr	r3, [r7, #12]
 8001a26:	f003 0370 	and.w	r3, r3, #112	; 0x70
      if (((interrupts & CAN_IT_LAST_ERROR_CODE) != 0U) &&
 8001a2a:	2b00      	cmp	r3, #0
 8001a2c:	d038      	beq.n	8001aa0 <HAL_CAN_IRQHandler+0x33a>
      {
        switch (esrflags & CAN_ESR_LEC)
 8001a2e:	68fb      	ldr	r3, [r7, #12]
 8001a30:	f003 0370 	and.w	r3, r3, #112	; 0x70
 8001a34:	2b30      	cmp	r3, #48	; 0x30
 8001a36:	d017      	beq.n	8001a68 <HAL_CAN_IRQHandler+0x302>
 8001a38:	2b30      	cmp	r3, #48	; 0x30
 8001a3a:	d804      	bhi.n	8001a46 <HAL_CAN_IRQHandler+0x2e0>
 8001a3c:	2b10      	cmp	r3, #16
 8001a3e:	d009      	beq.n	8001a54 <HAL_CAN_IRQHandler+0x2ee>
 8001a40:	2b20      	cmp	r3, #32
 8001a42:	d00c      	beq.n	8001a5e <HAL_CAN_IRQHandler+0x2f8>
          case (CAN_ESR_LEC_2 | CAN_ESR_LEC_1):
            /* Set CAN error code to CRC error */
            errorcode |= HAL_CAN_ERROR_CRC;
            break;
          default:
            break;
 8001a44:	e024      	b.n	8001a90 <HAL_CAN_IRQHandler+0x32a>
        switch (esrflags & CAN_ESR_LEC)
 8001a46:	2b50      	cmp	r3, #80	; 0x50
 8001a48:	d018      	beq.n	8001a7c <HAL_CAN_IRQHandler+0x316>
 8001a4a:	2b60      	cmp	r3, #96	; 0x60
 8001a4c:	d01b      	beq.n	8001a86 <HAL_CAN_IRQHandler+0x320>
 8001a4e:	2b40      	cmp	r3, #64	; 0x40
 8001a50:	d00f      	beq.n	8001a72 <HAL_CAN_IRQHandler+0x30c>
            break;
 8001a52:	e01d      	b.n	8001a90 <HAL_CAN_IRQHandler+0x32a>
            errorcode |= HAL_CAN_ERROR_STF;
 8001a54:	6a7b      	ldr	r3, [r7, #36]	; 0x24
 8001a56:	f043 0308 	orr.w	r3, r3, #8
 8001a5a:	627b      	str	r3, [r7, #36]	; 0x24
            break;
 8001a5c:	e018      	b.n	8001a90 <HAL_CAN_IRQHandler+0x32a>
            errorcode |= HAL_CAN_ERROR_FOR;
 8001a5e:	6a7b      	ldr	r3, [r7, #36]	; 0x24
 8001a60:	f043 0310 	orr.w	r3, r3, #16
 8001a64:	627b      	str	r3, [r7, #36]	; 0x24
            break;
 8001a66:	e013      	b.n	8001a90 <HAL_CAN_IRQHandler+0x32a>
            errorcode |= HAL_CAN_ERROR_ACK;
 8001a68:	6a7b      	ldr	r3, [r7, #36]	; 0x24
 8001a6a:	f043 0320 	orr.w	r3, r3, #32
 8001a6e:	627b      	str	r3, [r7, #36]	; 0x24
            break;
 8001a70:	e00e      	b.n	8001a90 <HAL_CAN_IRQHandler+0x32a>
            errorcode |= HAL_CAN_ERROR_BR;
 8001a72:	6a7b      	ldr	r3, [r7, #36]	; 0x24
 8001a74:	f043 0340 	orr.w	r3, r3, #64	; 0x40
 8001a78:	627b      	str	r3, [r7, #36]	; 0x24
            break;
 8001a7a:	e009      	b.n	8001a90 <HAL_CAN_IRQHandler+0x32a>
            errorcode |= HAL_CAN_ERROR_BD;
 8001a7c:	6a7b      	ldr	r3, [r7, #36]	; 0x24
 8001a7e:	f043 0380 	orr.w	r3, r3, #128	; 0x80
 8001a82:	627b      	str	r3, [r7, #36]	; 0x24
            break;
 8001a84:	e004      	b.n	8001a90 <HAL_CAN_IRQHandler+0x32a>
            errorcode |= HAL_CAN_ERROR_CRC;
 8001a86:	6a7b      	ldr	r3, [r7, #36]	; 0x24
 8001a88:	f443 7380 	orr.w	r3, r3, #256	; 0x100
 8001a8c:	627b      	str	r3, [r7, #36]	; 0x24
            break;
 8001a8e:	bf00      	nop
        }

        /* Clear Last error code Flag */
        CLEAR_BIT(hcan->Instance->ESR, CAN_ESR_LEC);
 8001a90:	687b      	ldr	r3, [r7, #4]
 8001a92:	681b      	ldr	r3, [r3, #0]
 8001a94:	699a      	ldr	r2, [r3, #24]
 8001a96:	687b      	ldr	r3, [r7, #4]
 8001a98:	681b      	ldr	r3, [r3, #0]
 8001a9a:	f022 0270 	bic.w	r2, r2, #112	; 0x70
 8001a9e:	619a      	str	r2, [r3, #24]
      }
    }

    /* Clear ERRI Flag */
    __HAL_CAN_CLEAR_FLAG(hcan, CAN_FLAG_ERRI);
 8001aa0:	687b      	ldr	r3, [r7, #4]
 8001aa2:	681b      	ldr	r3, [r3, #0]
 8001aa4:	2204      	movs	r2, #4
 8001aa6:	605a      	str	r2, [r3, #4]
  }

  /* Call the Error call Back in case of Errors */
  if (errorcode != HAL_CAN_ERROR_NONE)
 8001aa8:	6a7b      	ldr	r3, [r7, #36]	; 0x24
 8001aaa:	2b00      	cmp	r3, #0
 8001aac:	d008      	beq.n	8001ac0 <HAL_CAN_IRQHandler+0x35a>
  {
    /* Update error code in handle */
    hcan->ErrorCode |= errorcode;
 8001aae:	687b      	ldr	r3, [r7, #4]
 8001ab0:	6a5a      	ldr	r2, [r3, #36]	; 0x24
 8001ab2:	6a7b      	ldr	r3, [r7, #36]	; 0x24
 8001ab4:	431a      	orrs	r2, r3
 8001ab6:	687b      	ldr	r3, [r7, #4]
 8001ab8:	625a      	str	r2, [r3, #36]	; 0x24
#if USE_HAL_CAN_REGISTER_CALLBACKS == 1
    /* Call registered callback*/
    hcan->ErrorCallback(hcan);
#else
    /* Call weak (surcharged) callback */
    HAL_CAN_ErrorCallback(hcan);
 8001aba:	6878      	ldr	r0, [r7, #4]
 8001abc:	f7fe ffcc 	bl	8000a58 <HAL_CAN_ErrorCallback>
#endif /* USE_HAL_CAN_REGISTER_CALLBACKS */
  }
}
 8001ac0:	bf00      	nop
 8001ac2:	3728      	adds	r7, #40	; 0x28
 8001ac4:	46bd      	mov	sp, r7
 8001ac6:	bd80      	pop	{r7, pc}

08001ac8 <HAL_CAN_TxMailbox0AbortCallback>:
  * @param  hcan pointer to an CAN_HandleTypeDef structure that contains
  *         the configuration information for the specified CAN.
  * @retval None
  */
__weak void HAL_CAN_TxMailbox0AbortCallback(CAN_HandleTypeDef *hcan)
{
 8001ac8:	b480      	push	{r7}
 8001aca:	b083      	sub	sp, #12
 8001acc:	af00      	add	r7, sp, #0
 8001ace:	6078      	str	r0, [r7, #4]

  /* NOTE : This function Should not be modified, when the callback is needed,
            the HAL_CAN_TxMailbox0AbortCallback could be implemented in the
            user file
   */
}
 8001ad0:	bf00      	nop
 8001ad2:	370c      	adds	r7, #12
 8001ad4:	46bd      	mov	sp, r7
 8001ad6:	f85d 7b04 	ldr.w	r7, [sp], #4
 8001ada:	4770      	bx	lr

08001adc <HAL_CAN_TxMailbox1AbortCallback>:
  * @param  hcan pointer to an CAN_HandleTypeDef structure that contains
  *         the configuration information for the specified CAN.
  * @retval None
  */
__weak void HAL_CAN_TxMailbox1AbortCallback(CAN_HandleTypeDef *hcan)
{
 8001adc:	b480      	push	{r7}
 8001ade:	b083      	sub	sp, #12
 8001ae0:	af00      	add	r7, sp, #0
 8001ae2:	6078      	str	r0, [r7, #4]

  /* NOTE : This function Should not be modified, when the callback is needed,
            the HAL_CAN_TxMailbox1AbortCallback could be implemented in the
            user file
   */
}
 8001ae4:	bf00      	nop
 8001ae6:	370c      	adds	r7, #12
 8001ae8:	46bd      	mov	sp, r7
 8001aea:	f85d 7b04 	ldr.w	r7, [sp], #4
 8001aee:	4770      	bx	lr

08001af0 <HAL_CAN_TxMailbox2AbortCallback>:
  * @param  hcan pointer to an CAN_HandleTypeDef structure that contains
  *         the configuration information for the specified CAN.
  * @retval None
  */
__weak void HAL_CAN_TxMailbox2AbortCallback(CAN_HandleTypeDef *hcan)
{
 8001af0:	b480      	push	{r7}
 8001af2:	b083      	sub	sp, #12
 8001af4:	af00      	add	r7, sp, #0
 8001af6:	6078      	str	r0, [r7, #4]

  /* NOTE : This function Should not be modified, when the callback is needed,
            the HAL_CAN_TxMailbox2AbortCallback could be implemented in the
            user file
   */
}
 8001af8:	bf00      	nop
 8001afa:	370c      	adds	r7, #12
 8001afc:	46bd      	mov	sp, r7
 8001afe:	f85d 7b04 	ldr.w	r7, [sp], #4
 8001b02:	4770      	bx	lr

08001b04 <HAL_CAN_RxFifo0FullCallback>:
  * @param  hcan pointer to a CAN_HandleTypeDef structure that contains
  *         the configuration information for the specified CAN.
  * @retval None
  */
__weak void HAL_CAN_RxFifo0FullCallback(CAN_HandleTypeDef *hcan)
{
 8001b04:	b480      	push	{r7}
 8001b06:	b083      	sub	sp, #12
 8001b08:	af00      	add	r7, sp, #0
 8001b0a:	6078      	str	r0, [r7, #4]

  /* NOTE : This function Should not be modified, when the callback is needed,
            the HAL_CAN_RxFifo0FullCallback could be implemented in the user
            file
   */
}
 8001b0c:	bf00      	nop
 8001b0e:	370c      	adds	r7, #12
 8001b10:	46bd      	mov	sp, r7
 8001b12:	f85d 7b04 	ldr.w	r7, [sp], #4
 8001b16:	4770      	bx	lr

08001b18 <HAL_CAN_RxFifo1MsgPendingCallback>:
  * @param  hcan pointer to a CAN_HandleTypeDef structure that contains
  *         the configuration information for the specified CAN.
  * @retval None
  */
__weak void HAL_CAN_RxFifo1MsgPendingCallback(CAN_HandleTypeDef *hcan)
{
 8001b18:	b480      	push	{r7}
 8001b1a:	b083      	sub	sp, #12
 8001b1c:	af00      	add	r7, sp, #0
 8001b1e:	6078      	str	r0, [r7, #4]

  /* NOTE : This function Should not be modified, when the callback is needed,
            the HAL_CAN_RxFifo1MsgPendingCallback could be implemented in the
            user file
   */
}
 8001b20:	bf00      	nop
 8001b22:	370c      	adds	r7, #12
 8001b24:	46bd      	mov	sp, r7
 8001b26:	f85d 7b04 	ldr.w	r7, [sp], #4
 8001b2a:	4770      	bx	lr

08001b2c <HAL_CAN_RxFifo1FullCallback>:
  * @param  hcan pointer to a CAN_HandleTypeDef structure that contains
  *         the configuration information for the specified CAN.
  * @retval None
  */
__weak void HAL_CAN_RxFifo1FullCallback(CAN_HandleTypeDef *hcan)
{
 8001b2c:	b480      	push	{r7}
 8001b2e:	b083      	sub	sp, #12
 8001b30:	af00      	add	r7, sp, #0
 8001b32:	6078      	str	r0, [r7, #4]

  /* NOTE : This function Should not be modified, when the callback is needed,
            the HAL_CAN_RxFifo1FullCallback could be implemented in the user
            file
   */
}
 8001b34:	bf00      	nop
 8001b36:	370c      	adds	r7, #12
 8001b38:	46bd      	mov	sp, r7
 8001b3a:	f85d 7b04 	ldr.w	r7, [sp], #4
 8001b3e:	4770      	bx	lr

08001b40 <HAL_CAN_SleepCallback>:
  * @param  hcan pointer to a CAN_HandleTypeDef structure that contains
  *         the configuration information for the specified CAN.
  * @retval None
  */
__weak void HAL_CAN_SleepCallback(CAN_HandleTypeDef *hcan)
{
 8001b40:	b480      	push	{r7}
 8001b42:	b083      	sub	sp, #12
 8001b44:	af00      	add	r7, sp, #0
 8001b46:	6078      	str	r0, [r7, #4]
  UNUSED(hcan);

  /* NOTE : This function Should not be modified, when the callback is needed,
            the HAL_CAN_SleepCallback could be implemented in the user file
   */
}
 8001b48:	bf00      	nop
 8001b4a:	370c      	adds	r7, #12
 8001b4c:	46bd      	mov	sp, r7
 8001b4e:	f85d 7b04 	ldr.w	r7, [sp], #4
 8001b52:	4770      	bx	lr

08001b54 <HAL_CAN_WakeUpFromRxMsgCallback>:
  * @param  hcan pointer to a CAN_HandleTypeDef structure that contains
  *         the configuration information for the specified CAN.
  * @retval None
  */
__weak void HAL_CAN_WakeUpFromRxMsgCallback(CAN_HandleTypeDef *hcan)
{
 8001b54:	b480      	push	{r7}
 8001b56:	b083      	sub	sp, #12
 8001b58:	af00      	add	r7, sp, #0
 8001b5a:	6078      	str	r0, [r7, #4]

  /* NOTE : This function Should not be modified, when the callback is needed,
            the HAL_CAN_WakeUpFromRxMsgCallback could be implemented in the
            user file
   */
}
 8001b5c:	bf00      	nop
 8001b5e:	370c      	adds	r7, #12
 8001b60:	46bd      	mov	sp, r7
 8001b62:	f85d 7b04 	ldr.w	r7, [sp], #4
 8001b66:	4770      	bx	lr

08001b68 <__NVIC_SetPriorityGrouping>:
           In case of a conflict between priority grouping and available
           priority bits (__NVIC_PRIO_BITS), the smallest possible priority group is set.
  \param [in]      PriorityGroup  Priority grouping field.
 */
__STATIC_INLINE void __NVIC_SetPriorityGrouping(uint32_t PriorityGroup)
{
 8001b68:	b480      	push	{r7}
 8001b6a:	b085      	sub	sp, #20
 8001b6c:	af00      	add	r7, sp, #0
 8001b6e:	6078      	str	r0, [r7, #4]
  uint32_t reg_value;
  uint32_t PriorityGroupTmp = (PriorityGroup & (uint32_t)0x07UL);             /* only values 0..7 are used          */
 8001b70:	687b      	ldr	r3, [r7, #4]
 8001b72:	f003 0307 	and.w	r3, r3, #7
 8001b76:	60fb      	str	r3, [r7, #12]

  reg_value  =  SCB->AIRCR;                                                   /* read old register configuration    */
 8001b78:	4b0c      	ldr	r3, [pc, #48]	; (8001bac <__NVIC_SetPriorityGrouping+0x44>)
 8001b7a:	68db      	ldr	r3, [r3, #12]
 8001b7c:	60bb      	str	r3, [r7, #8]
  reg_value &= ~((uint32_t)(SCB_AIRCR_VECTKEY_Msk | SCB_AIRCR_PRIGROUP_Msk)); /* clear bits to change               */
 8001b7e:	68ba      	ldr	r2, [r7, #8]
 8001b80:	f64f 03ff 	movw	r3, #63743	; 0xf8ff
 8001b84:	4013      	ands	r3, r2
 8001b86:	60bb      	str	r3, [r7, #8]
  reg_value  =  (reg_value                                   |
                ((uint32_t)0x5FAUL << SCB_AIRCR_VECTKEY_Pos) |
                (PriorityGroupTmp << SCB_AIRCR_PRIGROUP_Pos)  );              /* Insert write key and priority group */
 8001b88:	68fb      	ldr	r3, [r7, #12]
 8001b8a:	021a      	lsls	r2, r3, #8
                ((uint32_t)0x5FAUL << SCB_AIRCR_VECTKEY_Pos) |
 8001b8c:	68bb      	ldr	r3, [r7, #8]
 8001b8e:	4313      	orrs	r3, r2
  reg_value  =  (reg_value                                   |
 8001b90:	f043 63bf 	orr.w	r3, r3, #100139008	; 0x5f80000
 8001b94:	f443 3300 	orr.w	r3, r3, #131072	; 0x20000
 8001b98:	60bb      	str	r3, [r7, #8]
  SCB->AIRCR =  reg_value;
 8001b9a:	4a04      	ldr	r2, [pc, #16]	; (8001bac <__NVIC_SetPriorityGrouping+0x44>)
 8001b9c:	68bb      	ldr	r3, [r7, #8]
 8001b9e:	60d3      	str	r3, [r2, #12]
}
 8001ba0:	bf00      	nop
 8001ba2:	3714      	adds	r7, #20
 8001ba4:	46bd      	mov	sp, r7
 8001ba6:	f85d 7b04 	ldr.w	r7, [sp], #4
 8001baa:	4770      	bx	lr
 8001bac:	e000ed00 	.word	0xe000ed00

08001bb0 <__NVIC_GetPriorityGrouping>:
  \brief   Get Priority Grouping
  \details Reads the priority grouping field from the NVIC Interrupt Controller.
  \return                Priority grouping field (SCB->AIRCR [10:8] PRIGROUP field).
 */
__STATIC_INLINE uint32_t __NVIC_GetPriorityGrouping(void)
{
 8001bb0:	b480      	push	{r7}
 8001bb2:	af00      	add	r7, sp, #0
  return ((uint32_t)((SCB->AIRCR & SCB_AIRCR_PRIGROUP_Msk) >> SCB_AIRCR_PRIGROUP_Pos));
 8001bb4:	4b04      	ldr	r3, [pc, #16]	; (8001bc8 <__NVIC_GetPriorityGrouping+0x18>)
 8001bb6:	68db      	ldr	r3, [r3, #12]
 8001bb8:	0a1b      	lsrs	r3, r3, #8
 8001bba:	f003 0307 	and.w	r3, r3, #7
}
 8001bbe:	4618      	mov	r0, r3
 8001bc0:	46bd      	mov	sp, r7
 8001bc2:	f85d 7b04 	ldr.w	r7, [sp], #4
 8001bc6:	4770      	bx	lr
 8001bc8:	e000ed00 	.word	0xe000ed00

08001bcc <__NVIC_EnableIRQ>:
  \details Enables a device specific interrupt in the NVIC interrupt controller.
  \param [in]      IRQn  Device specific interrupt number.
  \note    IRQn must not be negative.
 */
__STATIC_INLINE void __NVIC_EnableIRQ(IRQn_Type IRQn)
{
 8001bcc:	b480      	push	{r7}
 8001bce:	b083      	sub	sp, #12
 8001bd0:	af00      	add	r7, sp, #0
 8001bd2:	4603      	mov	r3, r0
 8001bd4:	71fb      	strb	r3, [r7, #7]
  if ((int32_t)(IRQn) >= 0)
 8001bd6:	f997 3007 	ldrsb.w	r3, [r7, #7]
 8001bda:	2b00      	cmp	r3, #0
 8001bdc:	db0b      	blt.n	8001bf6 <__NVIC_EnableIRQ+0x2a>
  {
    NVIC->ISER[(((uint32_t)IRQn) >> 5UL)] = (uint32_t)(1UL << (((uint32_t)IRQn) & 0x1FUL));
 8001bde:	79fb      	ldrb	r3, [r7, #7]
 8001be0:	f003 021f 	and.w	r2, r3, #31
 8001be4:	4907      	ldr	r1, [pc, #28]	; (8001c04 <__NVIC_EnableIRQ+0x38>)
 8001be6:	f997 3007 	ldrsb.w	r3, [r7, #7]
 8001bea:	095b      	lsrs	r3, r3, #5
 8001bec:	2001      	movs	r0, #1
 8001bee:	fa00 f202 	lsl.w	r2, r0, r2
 8001bf2:	f841 2023 	str.w	r2, [r1, r3, lsl #2]
  }
}
 8001bf6:	bf00      	nop
 8001bf8:	370c      	adds	r7, #12
 8001bfa:	46bd      	mov	sp, r7
 8001bfc:	f85d 7b04 	ldr.w	r7, [sp], #4
 8001c00:	4770      	bx	lr
 8001c02:	bf00      	nop
 8001c04:	e000e100 	.word	0xe000e100

08001c08 <__NVIC_SetPriority>:
  \param [in]      IRQn  Interrupt number.
  \param [in]  priority  Priority to set.
  \note    The priority cannot be set for every processor exception.
 */
__STATIC_INLINE void __NVIC_SetPriority(IRQn_Type IRQn, uint32_t priority)
{
 8001c08:	b480      	push	{r7}
 8001c0a:	b083      	sub	sp, #12
 8001c0c:	af00      	add	r7, sp, #0
 8001c0e:	4603      	mov	r3, r0
 8001c10:	6039      	str	r1, [r7, #0]
 8001c12:	71fb      	strb	r3, [r7, #7]
  if ((int32_t)(IRQn) >= 0)
 8001c14:	f997 3007 	ldrsb.w	r3, [r7, #7]
 8001c18:	2b00      	cmp	r3, #0
 8001c1a:	db0a      	blt.n	8001c32 <__NVIC_SetPriority+0x2a>
  {
    NVIC->IP[((uint32_t)IRQn)]               = (uint8_t)((priority << (8U - __NVIC_PRIO_BITS)) & (uint32_t)0xFFUL);
 8001c1c:	683b      	ldr	r3, [r7, #0]
 8001c1e:	b2da      	uxtb	r2, r3
 8001c20:	490c      	ldr	r1, [pc, #48]	; (8001c54 <__NVIC_SetPriority+0x4c>)
 8001c22:	f997 3007 	ldrsb.w	r3, [r7, #7]
 8001c26:	0112      	lsls	r2, r2, #4
 8001c28:	b2d2      	uxtb	r2, r2
 8001c2a:	440b      	add	r3, r1
 8001c2c:	f883 2300 	strb.w	r2, [r3, #768]	; 0x300
  }
  else
  {
    SCB->SHP[(((uint32_t)IRQn) & 0xFUL)-4UL] = (uint8_t)((priority << (8U - __NVIC_PRIO_BITS)) & (uint32_t)0xFFUL);
  }
}
 8001c30:	e00a      	b.n	8001c48 <__NVIC_SetPriority+0x40>
    SCB->SHP[(((uint32_t)IRQn) & 0xFUL)-4UL] = (uint8_t)((priority << (8U - __NVIC_PRIO_BITS)) & (uint32_t)0xFFUL);
 8001c32:	683b      	ldr	r3, [r7, #0]
 8001c34:	b2da      	uxtb	r2, r3
 8001c36:	4908      	ldr	r1, [pc, #32]	; (8001c58 <__NVIC_SetPriority+0x50>)
 8001c38:	79fb      	ldrb	r3, [r7, #7]
 8001c3a:	f003 030f 	and.w	r3, r3, #15
 8001c3e:	3b04      	subs	r3, #4
 8001c40:	0112      	lsls	r2, r2, #4
 8001c42:	b2d2      	uxtb	r2, r2
 8001c44:	440b      	add	r3, r1
 8001c46:	761a      	strb	r2, [r3, #24]
}
 8001c48:	bf00      	nop
 8001c4a:	370c      	adds	r7, #12
 8001c4c:	46bd      	mov	sp, r7
 8001c4e:	f85d 7b04 	ldr.w	r7, [sp], #4
 8001c52:	4770      	bx	lr
 8001c54:	e000e100 	.word	0xe000e100
 8001c58:	e000ed00 	.word	0xe000ed00

08001c5c <NVIC_EncodePriority>:
  \param [in]   PreemptPriority  Preemptive priority value (starting from 0).
  \param [in]       SubPriority  Subpriority value (starting from 0).
  \return                        Encoded priority. Value can be used in the function \ref NVIC_SetPriority().
 */
__STATIC_INLINE uint32_t NVIC_EncodePriority (uint32_t PriorityGroup, uint32_t PreemptPriority, uint32_t SubPriority)
{
 8001c5c:	b480      	push	{r7}
 8001c5e:	b089      	sub	sp, #36	; 0x24
 8001c60:	af00      	add	r7, sp, #0
 8001c62:	60f8      	str	r0, [r7, #12]
 8001c64:	60b9      	str	r1, [r7, #8]
 8001c66:	607a      	str	r2, [r7, #4]
  uint32_t PriorityGroupTmp = (PriorityGroup & (uint32_t)0x07UL);   /* only values 0..7 are used          */
 8001c68:	68fb      	ldr	r3, [r7, #12]
 8001c6a:	f003 0307 	and.w	r3, r3, #7
 8001c6e:	61fb      	str	r3, [r7, #28]
  uint32_t PreemptPriorityBits;
  uint32_t SubPriorityBits;

  PreemptPriorityBits = ((7UL - PriorityGroupTmp) > (uint32_t)(__NVIC_PRIO_BITS)) ? (uint32_t)(__NVIC_PRIO_BITS) : (uint32_t)(7UL - PriorityGroupTmp);
 8001c70:	69fb      	ldr	r3, [r7, #28]
 8001c72:	f1c3 0307 	rsb	r3, r3, #7
 8001c76:	2b04      	cmp	r3, #4
 8001c78:	bf28      	it	cs
 8001c7a:	2304      	movcs	r3, #4
 8001c7c:	61bb      	str	r3, [r7, #24]
  SubPriorityBits     = ((PriorityGroupTmp + (uint32_t)(__NVIC_PRIO_BITS)) < (uint32_t)7UL) ? (uint32_t)0UL : (uint32_t)((PriorityGroupTmp - 7UL) + (uint32_t)(__NVIC_PRIO_BITS));
 8001c7e:	69fb      	ldr	r3, [r7, #28]
 8001c80:	3304      	adds	r3, #4
 8001c82:	2b06      	cmp	r3, #6
 8001c84:	d902      	bls.n	8001c8c <NVIC_EncodePriority+0x30>
 8001c86:	69fb      	ldr	r3, [r7, #28]
 8001c88:	3b03      	subs	r3, #3
 8001c8a:	e000      	b.n	8001c8e <NVIC_EncodePriority+0x32>
 8001c8c:	2300      	movs	r3, #0
 8001c8e:	617b      	str	r3, [r7, #20]

  return (
           ((PreemptPriority & (uint32_t)((1UL << (PreemptPriorityBits)) - 1UL)) << SubPriorityBits) |
 8001c90:	f04f 32ff 	mov.w	r2, #4294967295
 8001c94:	69bb      	ldr	r3, [r7, #24]
 8001c96:	fa02 f303 	lsl.w	r3, r2, r3
 8001c9a:	43da      	mvns	r2, r3
 8001c9c:	68bb      	ldr	r3, [r7, #8]
 8001c9e:	401a      	ands	r2, r3
 8001ca0:	697b      	ldr	r3, [r7, #20]
 8001ca2:	409a      	lsls	r2, r3
           ((SubPriority     & (uint32_t)((1UL << (SubPriorityBits    )) - 1UL)))
 8001ca4:	f04f 31ff 	mov.w	r1, #4294967295
 8001ca8:	697b      	ldr	r3, [r7, #20]
 8001caa:	fa01 f303 	lsl.w	r3, r1, r3
 8001cae:	43d9      	mvns	r1, r3
 8001cb0:	687b      	ldr	r3, [r7, #4]
 8001cb2:	400b      	ands	r3, r1
           ((PreemptPriority & (uint32_t)((1UL << (PreemptPriorityBits)) - 1UL)) << SubPriorityBits) |
 8001cb4:	4313      	orrs	r3, r2
         );
}
 8001cb6:	4618      	mov	r0, r3
 8001cb8:	3724      	adds	r7, #36	; 0x24
 8001cba:	46bd      	mov	sp, r7
 8001cbc:	f85d 7b04 	ldr.w	r7, [sp], #4
 8001cc0:	4770      	bx	lr
	...

08001cc4 <SysTick_Config>:
  \note    When the variable <b>__Vendor_SysTickConfig</b> is set to 1, then the
           function <b>SysTick_Config</b> is not included. In this case, the file <b><i>device</i>.h</b>
           must contain a vendor-specific implementation of this function.
 */
__STATIC_INLINE uint32_t SysTick_Config(uint32_t ticks)
{
 8001cc4:	b580      	push	{r7, lr}
 8001cc6:	b082      	sub	sp, #8
 8001cc8:	af00      	add	r7, sp, #0
 8001cca:	6078      	str	r0, [r7, #4]
  if ((ticks - 1UL) > SysTick_LOAD_RELOAD_Msk)
 8001ccc:	687b      	ldr	r3, [r7, #4]
 8001cce:	3b01      	subs	r3, #1
 8001cd0:	f1b3 7f80 	cmp.w	r3, #16777216	; 0x1000000
 8001cd4:	d301      	bcc.n	8001cda <SysTick_Config+0x16>
  {
    return (1UL);                                                   /* Reload value impossible */
 8001cd6:	2301      	movs	r3, #1
 8001cd8:	e00f      	b.n	8001cfa <SysTick_Config+0x36>
  }

  SysTick->LOAD  = (uint32_t)(ticks - 1UL);                         /* set reload register */
 8001cda:	4a0a      	ldr	r2, [pc, #40]	; (8001d04 <SysTick_Config+0x40>)
 8001cdc:	687b      	ldr	r3, [r7, #4]
 8001cde:	3b01      	subs	r3, #1
 8001ce0:	6053      	str	r3, [r2, #4]
  NVIC_SetPriority (SysTick_IRQn, (1UL << __NVIC_PRIO_BITS) - 1UL); /* set Priority for Systick Interrupt */
 8001ce2:	210f      	movs	r1, #15
 8001ce4:	f04f 30ff 	mov.w	r0, #4294967295
 8001ce8:	f7ff ff8e 	bl	8001c08 <__NVIC_SetPriority>
  SysTick->VAL   = 0UL;                                             /* Load the SysTick Counter Value */
 8001cec:	4b05      	ldr	r3, [pc, #20]	; (8001d04 <SysTick_Config+0x40>)
 8001cee:	2200      	movs	r2, #0
 8001cf0:	609a      	str	r2, [r3, #8]
  SysTick->CTRL  = SysTick_CTRL_CLKSOURCE_Msk |
 8001cf2:	4b04      	ldr	r3, [pc, #16]	; (8001d04 <SysTick_Config+0x40>)
 8001cf4:	2207      	movs	r2, #7
 8001cf6:	601a      	str	r2, [r3, #0]
                   SysTick_CTRL_TICKINT_Msk   |
                   SysTick_CTRL_ENABLE_Msk;                         /* Enable SysTick IRQ and SysTick Timer */
  return (0UL);                                                     /* Function successful */
 8001cf8:	2300      	movs	r3, #0
}
 8001cfa:	4618      	mov	r0, r3
 8001cfc:	3708      	adds	r7, #8
 8001cfe:	46bd      	mov	sp, r7
 8001d00:	bd80      	pop	{r7, pc}
 8001d02:	bf00      	nop
 8001d04:	e000e010 	.word	0xe000e010

08001d08 <HAL_NVIC_SetPriorityGrouping>:
  * @note   When the NVIC_PriorityGroup_0 is selected, IRQ preemption is no more possible. 
  *         The pending IRQ priority will be managed only by the subpriority. 
  * @retval None
  */
void HAL_NVIC_SetPriorityGrouping(uint32_t PriorityGroup)
{
 8001d08:	b580      	push	{r7, lr}
 8001d0a:	b082      	sub	sp, #8
 8001d0c:	af00      	add	r7, sp, #0
 8001d0e:	6078      	str	r0, [r7, #4]
  /* Check the parameters */
  assert_param(IS_NVIC_PRIORITY_GROUP(PriorityGroup));
  
  /* Set the PRIGROUP[10:8] bits according to the PriorityGroup parameter value */
  NVIC_SetPriorityGrouping(PriorityGroup);
 8001d10:	6878      	ldr	r0, [r7, #4]
 8001d12:	f7ff ff29 	bl	8001b68 <__NVIC_SetPriorityGrouping>
}
 8001d16:	bf00      	nop
 8001d18:	3708      	adds	r7, #8
 8001d1a:	46bd      	mov	sp, r7
 8001d1c:	bd80      	pop	{r7, pc}

08001d1e <HAL_NVIC_SetPriority>:
  *         This parameter can be a value between 0 and 15
  *         A lower priority value indicates a higher priority.          
  * @retval None
  */
void HAL_NVIC_SetPriority(IRQn_Type IRQn, uint32_t PreemptPriority, uint32_t SubPriority)
{ 
 8001d1e:	b580      	push	{r7, lr}
 8001d20:	b086      	sub	sp, #24
 8001d22:	af00      	add	r7, sp, #0
 8001d24:	4603      	mov	r3, r0
 8001d26:	60b9      	str	r1, [r7, #8]
 8001d28:	607a      	str	r2, [r7, #4]
 8001d2a:	73fb      	strb	r3, [r7, #15]
  uint32_t prioritygroup = 0x00U;
 8001d2c:	2300      	movs	r3, #0
 8001d2e:	617b      	str	r3, [r7, #20]
  
  /* Check the parameters */
  assert_param(IS_NVIC_SUB_PRIORITY(SubPriority));
  assert_param(IS_NVIC_PREEMPTION_PRIORITY(PreemptPriority));
  
  prioritygroup = NVIC_GetPriorityGrouping();
 8001d30:	f7ff ff3e 	bl	8001bb0 <__NVIC_GetPriorityGrouping>
 8001d34:	6178      	str	r0, [r7, #20]
  
  NVIC_SetPriority(IRQn, NVIC_EncodePriority(prioritygroup, PreemptPriority, SubPriority));
 8001d36:	687a      	ldr	r2, [r7, #4]
 8001d38:	68b9      	ldr	r1, [r7, #8]
 8001d3a:	6978      	ldr	r0, [r7, #20]
 8001d3c:	f7ff ff8e 	bl	8001c5c <NVIC_EncodePriority>
 8001d40:	4602      	mov	r2, r0
 8001d42:	f997 300f 	ldrsb.w	r3, [r7, #15]
 8001d46:	4611      	mov	r1, r2
 8001d48:	4618      	mov	r0, r3
 8001d4a:	f7ff ff5d 	bl	8001c08 <__NVIC_SetPriority>
}
 8001d4e:	bf00      	nop
 8001d50:	3718      	adds	r7, #24
 8001d52:	46bd      	mov	sp, r7
 8001d54:	bd80      	pop	{r7, pc}

08001d56 <HAL_NVIC_EnableIRQ>:
  *         This parameter can be an enumerator of IRQn_Type enumeration
  *         (For the complete STM32 Devices IRQ Channels list, please refer to the appropriate CMSIS device file (stm32f4xxxx.h))
  * @retval None
  */
void HAL_NVIC_EnableIRQ(IRQn_Type IRQn)
{
 8001d56:	b580      	push	{r7, lr}
 8001d58:	b082      	sub	sp, #8
 8001d5a:	af00      	add	r7, sp, #0
 8001d5c:	4603      	mov	r3, r0
 8001d5e:	71fb      	strb	r3, [r7, #7]
  /* Check the parameters */
  assert_param(IS_NVIC_DEVICE_IRQ(IRQn));
  
  /* Enable interrupt */
  NVIC_EnableIRQ(IRQn);
 8001d60:	f997 3007 	ldrsb.w	r3, [r7, #7]
 8001d64:	4618      	mov	r0, r3
 8001d66:	f7ff ff31 	bl	8001bcc <__NVIC_EnableIRQ>
}
 8001d6a:	bf00      	nop
 8001d6c:	3708      	adds	r7, #8
 8001d6e:	46bd      	mov	sp, r7
 8001d70:	bd80      	pop	{r7, pc}

08001d72 <HAL_SYSTICK_Config>:
  * @param  TicksNumb Specifies the ticks Number of ticks between two interrupts.
  * @retval status:  - 0  Function succeeded.
  *                  - 1  Function failed.
  */
uint32_t HAL_SYSTICK_Config(uint32_t TicksNumb)
{
 8001d72:	b580      	push	{r7, lr}
 8001d74:	b082      	sub	sp, #8
 8001d76:	af00      	add	r7, sp, #0
 8001d78:	6078      	str	r0, [r7, #4]
   return SysTick_Config(TicksNumb);
 8001d7a:	6878      	ldr	r0, [r7, #4]
 8001d7c:	f7ff ffa2 	bl	8001cc4 <SysTick_Config>
 8001d80:	4603      	mov	r3, r0
}
 8001d82:	4618      	mov	r0, r3
 8001d84:	3708      	adds	r7, #8
 8001d86:	46bd      	mov	sp, r7
 8001d88:	bd80      	pop	{r7, pc}

08001d8a <HAL_DMA_Abort_IT>:
  * @param  hdma   pointer to a DMA_HandleTypeDef structure that contains
  *                 the configuration information for the specified DMA Stream.
  * @retval HAL status
  */
HAL_StatusTypeDef HAL_DMA_Abort_IT(DMA_HandleTypeDef *hdma)
{
 8001d8a:	b480      	push	{r7}
 8001d8c:	b083      	sub	sp, #12
 8001d8e:	af00      	add	r7, sp, #0
 8001d90:	6078      	str	r0, [r7, #4]
  if(hdma->State != HAL_DMA_STATE_BUSY)
 8001d92:	687b      	ldr	r3, [r7, #4]
 8001d94:	f893 3035 	ldrb.w	r3, [r3, #53]	; 0x35
 8001d98:	b2db      	uxtb	r3, r3
 8001d9a:	2b02      	cmp	r3, #2
 8001d9c:	d004      	beq.n	8001da8 <HAL_DMA_Abort_IT+0x1e>
  {
    hdma->ErrorCode = HAL_DMA_ERROR_NO_XFER;
 8001d9e:	687b      	ldr	r3, [r7, #4]
 8001da0:	2280      	movs	r2, #128	; 0x80
 8001da2:	655a      	str	r2, [r3, #84]	; 0x54
    return HAL_ERROR;
 8001da4:	2301      	movs	r3, #1
 8001da6:	e00c      	b.n	8001dc2 <HAL_DMA_Abort_IT+0x38>
  }
  else
  {
    /* Set Abort State  */
    hdma->State = HAL_DMA_STATE_ABORT;
 8001da8:	687b      	ldr	r3, [r7, #4]
 8001daa:	2205      	movs	r2, #5
 8001dac:	f883 2035 	strb.w	r2, [r3, #53]	; 0x35
    
    /* Disable the stream */
    __HAL_DMA_DISABLE(hdma);
 8001db0:	687b      	ldr	r3, [r7, #4]
 8001db2:	681b      	ldr	r3, [r3, #0]
 8001db4:	681a      	ldr	r2, [r3, #0]
 8001db6:	687b      	ldr	r3, [r7, #4]
 8001db8:	681b      	ldr	r3, [r3, #0]
 8001dba:	f022 0201 	bic.w	r2, r2, #1
 8001dbe:	601a      	str	r2, [r3, #0]
  }

  return HAL_OK;
 8001dc0:	2300      	movs	r3, #0
}
 8001dc2:	4618      	mov	r0, r3
 8001dc4:	370c      	adds	r7, #12
 8001dc6:	46bd      	mov	sp, r7
 8001dc8:	f85d 7b04 	ldr.w	r7, [sp], #4
 8001dcc:	4770      	bx	lr
	...

08001dd0 <HAL_GPIO_Init>:
  * @param  GPIO_Init pointer to a GPIO_InitTypeDef structure that contains
  *         the configuration information for the specified GPIO peripheral.
  * @retval None
  */
void HAL_GPIO_Init(GPIO_TypeDef  *GPIOx, GPIO_InitTypeDef *GPIO_Init)
{
 8001dd0:	b480      	push	{r7}
 8001dd2:	b089      	sub	sp, #36	; 0x24
 8001dd4:	af00      	add	r7, sp, #0
 8001dd6:	6078      	str	r0, [r7, #4]
 8001dd8:	6039      	str	r1, [r7, #0]
  uint32_t position;
  uint32_t ioposition = 0x00U;
 8001dda:	2300      	movs	r3, #0
 8001ddc:	617b      	str	r3, [r7, #20]
  uint32_t iocurrent = 0x00U;
 8001dde:	2300      	movs	r3, #0
 8001de0:	613b      	str	r3, [r7, #16]
  uint32_t temp = 0x00U;
 8001de2:	2300      	movs	r3, #0
 8001de4:	61bb      	str	r3, [r7, #24]
  assert_param(IS_GPIO_PIN(GPIO_Init->Pin));
  assert_param(IS_GPIO_MODE(GPIO_Init->Mode));
  assert_param(IS_GPIO_PULL(GPIO_Init->Pull));

  /* Configure the port pins */
  for(position = 0U; position < GPIO_NUMBER; position++)
 8001de6:	2300      	movs	r3, #0
 8001de8:	61fb      	str	r3, [r7, #28]
 8001dea:	e16b      	b.n	80020c4 <HAL_GPIO_Init+0x2f4>
  {
    /* Get the IO position */
    ioposition = 0x01U << position;
 8001dec:	2201      	movs	r2, #1
 8001dee:	69fb      	ldr	r3, [r7, #28]
 8001df0:	fa02 f303 	lsl.w	r3, r2, r3
 8001df4:	617b      	str	r3, [r7, #20]
    /* Get the current IO position */
    iocurrent = (uint32_t)(GPIO_Init->Pin) & ioposition;
 8001df6:	683b      	ldr	r3, [r7, #0]
 8001df8:	681b      	ldr	r3, [r3, #0]
 8001dfa:	697a      	ldr	r2, [r7, #20]
 8001dfc:	4013      	ands	r3, r2
 8001dfe:	613b      	str	r3, [r7, #16]

    if(iocurrent == ioposition)
 8001e00:	693a      	ldr	r2, [r7, #16]
 8001e02:	697b      	ldr	r3, [r7, #20]
 8001e04:	429a      	cmp	r2, r3
 8001e06:	f040 815a 	bne.w	80020be <HAL_GPIO_Init+0x2ee>
    {
      /*--------------------- GPIO Mode Configuration ------------------------*/
      /* In case of Output or Alternate function mode selection */
      if((GPIO_Init->Mode == GPIO_MODE_OUTPUT_PP) || (GPIO_Init->Mode == GPIO_MODE_AF_PP) ||
 8001e0a:	683b      	ldr	r3, [r7, #0]
 8001e0c:	685b      	ldr	r3, [r3, #4]
 8001e0e:	2b01      	cmp	r3, #1
 8001e10:	d00b      	beq.n	8001e2a <HAL_GPIO_Init+0x5a>
 8001e12:	683b      	ldr	r3, [r7, #0]
 8001e14:	685b      	ldr	r3, [r3, #4]
 8001e16:	2b02      	cmp	r3, #2
 8001e18:	d007      	beq.n	8001e2a <HAL_GPIO_Init+0x5a>
         (GPIO_Init->Mode == GPIO_MODE_OUTPUT_OD) || (GPIO_Init->Mode == GPIO_MODE_AF_OD))
 8001e1a:	683b      	ldr	r3, [r7, #0]
 8001e1c:	685b      	ldr	r3, [r3, #4]
      if((GPIO_Init->Mode == GPIO_MODE_OUTPUT_PP) || (GPIO_Init->Mode == GPIO_MODE_AF_PP) ||
 8001e1e:	2b11      	cmp	r3, #17
 8001e20:	d003      	beq.n	8001e2a <HAL_GPIO_Init+0x5a>
         (GPIO_Init->Mode == GPIO_MODE_OUTPUT_OD) || (GPIO_Init->Mode == GPIO_MODE_AF_OD))
 8001e22:	683b      	ldr	r3, [r7, #0]
 8001e24:	685b      	ldr	r3, [r3, #4]
 8001e26:	2b12      	cmp	r3, #18
 8001e28:	d130      	bne.n	8001e8c <HAL_GPIO_Init+0xbc>
      {
        /* Check the Speed parameter */
        assert_param(IS_GPIO_SPEED(GPIO_Init->Speed));
        /* Configure the IO Speed */
        temp = GPIOx->OSPEEDR; 
 8001e2a:	687b      	ldr	r3, [r7, #4]
 8001e2c:	689b      	ldr	r3, [r3, #8]
 8001e2e:	61bb      	str	r3, [r7, #24]
        temp &= ~(GPIO_OSPEEDER_OSPEEDR0 << (position * 2U));
 8001e30:	69fb      	ldr	r3, [r7, #28]
 8001e32:	005b      	lsls	r3, r3, #1
 8001e34:	2203      	movs	r2, #3
 8001e36:	fa02 f303 	lsl.w	r3, r2, r3
 8001e3a:	43db      	mvns	r3, r3
 8001e3c:	69ba      	ldr	r2, [r7, #24]
 8001e3e:	4013      	ands	r3, r2
 8001e40:	61bb      	str	r3, [r7, #24]
        temp |= (GPIO_Init->Speed << (position * 2U));
 8001e42:	683b      	ldr	r3, [r7, #0]
 8001e44:	68da      	ldr	r2, [r3, #12]
 8001e46:	69fb      	ldr	r3, [r7, #28]
 8001e48:	005b      	lsls	r3, r3, #1
 8001e4a:	fa02 f303 	lsl.w	r3, r2, r3
 8001e4e:	69ba      	ldr	r2, [r7, #24]
 8001e50:	4313      	orrs	r3, r2
 8001e52:	61bb      	str	r3, [r7, #24]
        GPIOx->OSPEEDR = temp;
 8001e54:	687b      	ldr	r3, [r7, #4]
 8001e56:	69ba      	ldr	r2, [r7, #24]
 8001e58:	609a      	str	r2, [r3, #8]

        /* Configure the IO Output Type */
        temp = GPIOx->OTYPER;
 8001e5a:	687b      	ldr	r3, [r7, #4]
 8001e5c:	685b      	ldr	r3, [r3, #4]
 8001e5e:	61bb      	str	r3, [r7, #24]
        temp &= ~(GPIO_OTYPER_OT_0 << position) ;
 8001e60:	2201      	movs	r2, #1
 8001e62:	69fb      	ldr	r3, [r7, #28]
 8001e64:	fa02 f303 	lsl.w	r3, r2, r3
 8001e68:	43db      	mvns	r3, r3
 8001e6a:	69ba      	ldr	r2, [r7, #24]
 8001e6c:	4013      	ands	r3, r2
 8001e6e:	61bb      	str	r3, [r7, #24]
        temp |= (((GPIO_Init->Mode & GPIO_OUTPUT_TYPE) >> 4U) << position);
 8001e70:	683b      	ldr	r3, [r7, #0]
 8001e72:	685b      	ldr	r3, [r3, #4]
 8001e74:	091b      	lsrs	r3, r3, #4
 8001e76:	f003 0201 	and.w	r2, r3, #1
 8001e7a:	69fb      	ldr	r3, [r7, #28]
 8001e7c:	fa02 f303 	lsl.w	r3, r2, r3
 8001e80:	69ba      	ldr	r2, [r7, #24]
 8001e82:	4313      	orrs	r3, r2
 8001e84:	61bb      	str	r3, [r7, #24]
        GPIOx->OTYPER = temp;
 8001e86:	687b      	ldr	r3, [r7, #4]
 8001e88:	69ba      	ldr	r2, [r7, #24]
 8001e8a:	605a      	str	r2, [r3, #4]
       }

      /* Activate the Pull-up or Pull down resistor for the current IO */
      temp = GPIOx->PUPDR;
 8001e8c:	687b      	ldr	r3, [r7, #4]
 8001e8e:	68db      	ldr	r3, [r3, #12]
 8001e90:	61bb      	str	r3, [r7, #24]
      temp &= ~(GPIO_PUPDR_PUPDR0 << (position * 2U));
 8001e92:	69fb      	ldr	r3, [r7, #28]
 8001e94:	005b      	lsls	r3, r3, #1
 8001e96:	2203      	movs	r2, #3
 8001e98:	fa02 f303 	lsl.w	r3, r2, r3
 8001e9c:	43db      	mvns	r3, r3
 8001e9e:	69ba      	ldr	r2, [r7, #24]
 8001ea0:	4013      	ands	r3, r2
 8001ea2:	61bb      	str	r3, [r7, #24]
      temp |= ((GPIO_Init->Pull) << (position * 2U));
 8001ea4:	683b      	ldr	r3, [r7, #0]
 8001ea6:	689a      	ldr	r2, [r3, #8]
 8001ea8:	69fb      	ldr	r3, [r7, #28]
 8001eaa:	005b      	lsls	r3, r3, #1
 8001eac:	fa02 f303 	lsl.w	r3, r2, r3
 8001eb0:	69ba      	ldr	r2, [r7, #24]
 8001eb2:	4313      	orrs	r3, r2
 8001eb4:	61bb      	str	r3, [r7, #24]
      GPIOx->PUPDR = temp;
 8001eb6:	687b      	ldr	r3, [r7, #4]
 8001eb8:	69ba      	ldr	r2, [r7, #24]
 8001eba:	60da      	str	r2, [r3, #12]

      /* In case of Alternate function mode selection */
      if((GPIO_Init->Mode == GPIO_MODE_AF_PP) || (GPIO_Init->Mode == GPIO_MODE_AF_OD))
 8001ebc:	683b      	ldr	r3, [r7, #0]
 8001ebe:	685b      	ldr	r3, [r3, #4]
 8001ec0:	2b02      	cmp	r3, #2
 8001ec2:	d003      	beq.n	8001ecc <HAL_GPIO_Init+0xfc>
 8001ec4:	683b      	ldr	r3, [r7, #0]
 8001ec6:	685b      	ldr	r3, [r3, #4]
 8001ec8:	2b12      	cmp	r3, #18
 8001eca:	d123      	bne.n	8001f14 <HAL_GPIO_Init+0x144>
      {
        /* Check the Alternate function parameter */
        assert_param(IS_GPIO_AF(GPIO_Init->Alternate));
        /* Configure Alternate function mapped with the current IO */
        temp = GPIOx->AFR[position >> 3U];
 8001ecc:	69fb      	ldr	r3, [r7, #28]
 8001ece:	08da      	lsrs	r2, r3, #3
 8001ed0:	687b      	ldr	r3, [r7, #4]
 8001ed2:	3208      	adds	r2, #8
 8001ed4:	f853 3022 	ldr.w	r3, [r3, r2, lsl #2]
 8001ed8:	61bb      	str	r3, [r7, #24]
        temp &= ~(0xFU << ((uint32_t)(position & 0x07U) * 4U)) ;
 8001eda:	69fb      	ldr	r3, [r7, #28]
 8001edc:	f003 0307 	and.w	r3, r3, #7
 8001ee0:	009b      	lsls	r3, r3, #2
 8001ee2:	220f      	movs	r2, #15
 8001ee4:	fa02 f303 	lsl.w	r3, r2, r3
 8001ee8:	43db      	mvns	r3, r3
 8001eea:	69ba      	ldr	r2, [r7, #24]
 8001eec:	4013      	ands	r3, r2
 8001eee:	61bb      	str	r3, [r7, #24]
        temp |= ((uint32_t)(GPIO_Init->Alternate) << (((uint32_t)position & 0x07U) * 4U));
 8001ef0:	683b      	ldr	r3, [r7, #0]
 8001ef2:	691a      	ldr	r2, [r3, #16]
 8001ef4:	69fb      	ldr	r3, [r7, #28]
 8001ef6:	f003 0307 	and.w	r3, r3, #7
 8001efa:	009b      	lsls	r3, r3, #2
 8001efc:	fa02 f303 	lsl.w	r3, r2, r3
 8001f00:	69ba      	ldr	r2, [r7, #24]
 8001f02:	4313      	orrs	r3, r2
 8001f04:	61bb      	str	r3, [r7, #24]
        GPIOx->AFR[position >> 3U] = temp;
 8001f06:	69fb      	ldr	r3, [r7, #28]
 8001f08:	08da      	lsrs	r2, r3, #3
 8001f0a:	687b      	ldr	r3, [r7, #4]
 8001f0c:	3208      	adds	r2, #8
 8001f0e:	69b9      	ldr	r1, [r7, #24]
 8001f10:	f843 1022 	str.w	r1, [r3, r2, lsl #2]
      }

      /* Configure IO Direction mode (Input, Output, Alternate or Analog) */
      temp = GPIOx->MODER;
 8001f14:	687b      	ldr	r3, [r7, #4]
 8001f16:	681b      	ldr	r3, [r3, #0]
 8001f18:	61bb      	str	r3, [r7, #24]
      temp &= ~(GPIO_MODER_MODER0 << (position * 2U));
 8001f1a:	69fb      	ldr	r3, [r7, #28]
 8001f1c:	005b      	lsls	r3, r3, #1
 8001f1e:	2203      	movs	r2, #3
 8001f20:	fa02 f303 	lsl.w	r3, r2, r3
 8001f24:	43db      	mvns	r3, r3
 8001f26:	69ba      	ldr	r2, [r7, #24]
 8001f28:	4013      	ands	r3, r2
 8001f2a:	61bb      	str	r3, [r7, #24]
      temp |= ((GPIO_Init->Mode & GPIO_MODE) << (position * 2U));
 8001f2c:	683b      	ldr	r3, [r7, #0]
 8001f2e:	685b      	ldr	r3, [r3, #4]
 8001f30:	f003 0203 	and.w	r2, r3, #3
 8001f34:	69fb      	ldr	r3, [r7, #28]
 8001f36:	005b      	lsls	r3, r3, #1
 8001f38:	fa02 f303 	lsl.w	r3, r2, r3
 8001f3c:	69ba      	ldr	r2, [r7, #24]
 8001f3e:	4313      	orrs	r3, r2
 8001f40:	61bb      	str	r3, [r7, #24]
      GPIOx->MODER = temp;
 8001f42:	687b      	ldr	r3, [r7, #4]
 8001f44:	69ba      	ldr	r2, [r7, #24]
 8001f46:	601a      	str	r2, [r3, #0]

      /*--------------------- EXTI Mode Configuration ------------------------*/
      /* Configure the External Interrupt or event for the current IO */
      if((GPIO_Init->Mode & EXTI_MODE) == EXTI_MODE)
 8001f48:	683b      	ldr	r3, [r7, #0]
 8001f4a:	685b      	ldr	r3, [r3, #4]
 8001f4c:	f003 5380 	and.w	r3, r3, #268435456	; 0x10000000
 8001f50:	2b00      	cmp	r3, #0
 8001f52:	f000 80b4 	beq.w	80020be <HAL_GPIO_Init+0x2ee>
      {
        /* Enable SYSCFG Clock */
        __HAL_RCC_SYSCFG_CLK_ENABLE();
 8001f56:	2300      	movs	r3, #0
 8001f58:	60fb      	str	r3, [r7, #12]
 8001f5a:	4b5f      	ldr	r3, [pc, #380]	; (80020d8 <HAL_GPIO_Init+0x308>)
 8001f5c:	6c5b      	ldr	r3, [r3, #68]	; 0x44
 8001f5e:	4a5e      	ldr	r2, [pc, #376]	; (80020d8 <HAL_GPIO_Init+0x308>)
 8001f60:	f443 4380 	orr.w	r3, r3, #16384	; 0x4000
 8001f64:	6453      	str	r3, [r2, #68]	; 0x44
 8001f66:	4b5c      	ldr	r3, [pc, #368]	; (80020d8 <HAL_GPIO_Init+0x308>)
 8001f68:	6c5b      	ldr	r3, [r3, #68]	; 0x44
 8001f6a:	f403 4380 	and.w	r3, r3, #16384	; 0x4000
 8001f6e:	60fb      	str	r3, [r7, #12]
 8001f70:	68fb      	ldr	r3, [r7, #12]

        temp = SYSCFG->EXTICR[position >> 2U];
 8001f72:	4a5a      	ldr	r2, [pc, #360]	; (80020dc <HAL_GPIO_Init+0x30c>)
 8001f74:	69fb      	ldr	r3, [r7, #28]
 8001f76:	089b      	lsrs	r3, r3, #2
 8001f78:	3302      	adds	r3, #2
 8001f7a:	f852 3023 	ldr.w	r3, [r2, r3, lsl #2]
 8001f7e:	61bb      	str	r3, [r7, #24]
        temp &= ~(0x0FU << (4U * (position & 0x03U)));
 8001f80:	69fb      	ldr	r3, [r7, #28]
 8001f82:	f003 0303 	and.w	r3, r3, #3
 8001f86:	009b      	lsls	r3, r3, #2
 8001f88:	220f      	movs	r2, #15
 8001f8a:	fa02 f303 	lsl.w	r3, r2, r3
 8001f8e:	43db      	mvns	r3, r3
 8001f90:	69ba      	ldr	r2, [r7, #24]
 8001f92:	4013      	ands	r3, r2
 8001f94:	61bb      	str	r3, [r7, #24]
        temp |= ((uint32_t)(GPIO_GET_INDEX(GPIOx)) << (4U * (position & 0x03U)));
 8001f96:	687b      	ldr	r3, [r7, #4]
 8001f98:	4a51      	ldr	r2, [pc, #324]	; (80020e0 <HAL_GPIO_Init+0x310>)
 8001f9a:	4293      	cmp	r3, r2
 8001f9c:	d02b      	beq.n	8001ff6 <HAL_GPIO_Init+0x226>
 8001f9e:	687b      	ldr	r3, [r7, #4]
 8001fa0:	4a50      	ldr	r2, [pc, #320]	; (80020e4 <HAL_GPIO_Init+0x314>)
 8001fa2:	4293      	cmp	r3, r2
 8001fa4:	d025      	beq.n	8001ff2 <HAL_GPIO_Init+0x222>
 8001fa6:	687b      	ldr	r3, [r7, #4]
 8001fa8:	4a4f      	ldr	r2, [pc, #316]	; (80020e8 <HAL_GPIO_Init+0x318>)
 8001faa:	4293      	cmp	r3, r2
 8001fac:	d01f      	beq.n	8001fee <HAL_GPIO_Init+0x21e>
 8001fae:	687b      	ldr	r3, [r7, #4]
 8001fb0:	4a4e      	ldr	r2, [pc, #312]	; (80020ec <HAL_GPIO_Init+0x31c>)
 8001fb2:	4293      	cmp	r3, r2
 8001fb4:	d019      	beq.n	8001fea <HAL_GPIO_Init+0x21a>
 8001fb6:	687b      	ldr	r3, [r7, #4]
 8001fb8:	4a4d      	ldr	r2, [pc, #308]	; (80020f0 <HAL_GPIO_Init+0x320>)
 8001fba:	4293      	cmp	r3, r2
 8001fbc:	d013      	beq.n	8001fe6 <HAL_GPIO_Init+0x216>
 8001fbe:	687b      	ldr	r3, [r7, #4]
 8001fc0:	4a4c      	ldr	r2, [pc, #304]	; (80020f4 <HAL_GPIO_Init+0x324>)
 8001fc2:	4293      	cmp	r3, r2
 8001fc4:	d00d      	beq.n	8001fe2 <HAL_GPIO_Init+0x212>
 8001fc6:	687b      	ldr	r3, [r7, #4]
 8001fc8:	4a4b      	ldr	r2, [pc, #300]	; (80020f8 <HAL_GPIO_Init+0x328>)
 8001fca:	4293      	cmp	r3, r2
 8001fcc:	d007      	beq.n	8001fde <HAL_GPIO_Init+0x20e>
 8001fce:	687b      	ldr	r3, [r7, #4]
 8001fd0:	4a4a      	ldr	r2, [pc, #296]	; (80020fc <HAL_GPIO_Init+0x32c>)
 8001fd2:	4293      	cmp	r3, r2
 8001fd4:	d101      	bne.n	8001fda <HAL_GPIO_Init+0x20a>
 8001fd6:	2307      	movs	r3, #7
 8001fd8:	e00e      	b.n	8001ff8 <HAL_GPIO_Init+0x228>
 8001fda:	2308      	movs	r3, #8
 8001fdc:	e00c      	b.n	8001ff8 <HAL_GPIO_Init+0x228>
 8001fde:	2306      	movs	r3, #6
 8001fe0:	e00a      	b.n	8001ff8 <HAL_GPIO_Init+0x228>
 8001fe2:	2305      	movs	r3, #5
 8001fe4:	e008      	b.n	8001ff8 <HAL_GPIO_Init+0x228>
 8001fe6:	2304      	movs	r3, #4
 8001fe8:	e006      	b.n	8001ff8 <HAL_GPIO_Init+0x228>
 8001fea:	2303      	movs	r3, #3
 8001fec:	e004      	b.n	8001ff8 <HAL_GPIO_Init+0x228>
 8001fee:	2302      	movs	r3, #2
 8001ff0:	e002      	b.n	8001ff8 <HAL_GPIO_Init+0x228>
 8001ff2:	2301      	movs	r3, #1
 8001ff4:	e000      	b.n	8001ff8 <HAL_GPIO_Init+0x228>
 8001ff6:	2300      	movs	r3, #0
 8001ff8:	69fa      	ldr	r2, [r7, #28]
 8001ffa:	f002 0203 	and.w	r2, r2, #3
 8001ffe:	0092      	lsls	r2, r2, #2
 8002000:	4093      	lsls	r3, r2
 8002002:	69ba      	ldr	r2, [r7, #24]
 8002004:	4313      	orrs	r3, r2
 8002006:	61bb      	str	r3, [r7, #24]
        SYSCFG->EXTICR[position >> 2U] = temp;
 8002008:	4934      	ldr	r1, [pc, #208]	; (80020dc <HAL_GPIO_Init+0x30c>)
 800200a:	69fb      	ldr	r3, [r7, #28]
 800200c:	089b      	lsrs	r3, r3, #2
 800200e:	3302      	adds	r3, #2
 8002010:	69ba      	ldr	r2, [r7, #24]
 8002012:	f841 2023 	str.w	r2, [r1, r3, lsl #2]

        /* Clear EXTI line configuration */
        temp = EXTI->IMR;
 8002016:	4b3a      	ldr	r3, [pc, #232]	; (8002100 <HAL_GPIO_Init+0x330>)
 8002018:	681b      	ldr	r3, [r3, #0]
 800201a:	61bb      	str	r3, [r7, #24]
        temp &= ~((uint32_t)iocurrent);
 800201c:	693b      	ldr	r3, [r7, #16]
 800201e:	43db      	mvns	r3, r3
 8002020:	69ba      	ldr	r2, [r7, #24]
 8002022:	4013      	ands	r3, r2
 8002024:	61bb      	str	r3, [r7, #24]
        if((GPIO_Init->Mode & GPIO_MODE_IT) == GPIO_MODE_IT)
 8002026:	683b      	ldr	r3, [r7, #0]
 8002028:	685b      	ldr	r3, [r3, #4]
 800202a:	f403 3380 	and.w	r3, r3, #65536	; 0x10000
 800202e:	2b00      	cmp	r3, #0
 8002030:	d003      	beq.n	800203a <HAL_GPIO_Init+0x26a>
        {
          temp |= iocurrent;
 8002032:	69ba      	ldr	r2, [r7, #24]
 8002034:	693b      	ldr	r3, [r7, #16]
 8002036:	4313      	orrs	r3, r2
 8002038:	61bb      	str	r3, [r7, #24]
        }
        EXTI->IMR = temp;
 800203a:	4a31      	ldr	r2, [pc, #196]	; (8002100 <HAL_GPIO_Init+0x330>)
 800203c:	69bb      	ldr	r3, [r7, #24]
 800203e:	6013      	str	r3, [r2, #0]

        temp = EXTI->EMR;
 8002040:	4b2f      	ldr	r3, [pc, #188]	; (8002100 <HAL_GPIO_Init+0x330>)
 8002042:	685b      	ldr	r3, [r3, #4]
 8002044:	61bb      	str	r3, [r7, #24]
        temp &= ~((uint32_t)iocurrent);
 8002046:	693b      	ldr	r3, [r7, #16]
 8002048:	43db      	mvns	r3, r3
 800204a:	69ba      	ldr	r2, [r7, #24]
 800204c:	4013      	ands	r3, r2
 800204e:	61bb      	str	r3, [r7, #24]
        if((GPIO_Init->Mode & GPIO_MODE_EVT) == GPIO_MODE_EVT)
 8002050:	683b      	ldr	r3, [r7, #0]
 8002052:	685b      	ldr	r3, [r3, #4]
 8002054:	f403 3300 	and.w	r3, r3, #131072	; 0x20000
 8002058:	2b00      	cmp	r3, #0
